{
	"data": {
		"bytecode": {
			"linkReferences": {},
			"object": "6080604052348015600e575f80fd5b506103d98061001c5f395ff3fe608060405234801561000f575f80fd5b506004361061003f575f3560e01c806306661abd146100435780633a9ebefd146100615780637cf5dab01461007d575b5f80fd5b61004b610099565b6040516100589190610172565b60405180910390f35b61007b600480360381019061007691906101b9565b61009e565b005b610097600480360381019061009291906101b9565b6100fc565b005b5f5481565b5f548111156100e2576040517f08c379a00000000000000000000000000000000000000000000000000000000081526004016100d990610264565b60405180910390fd5b805f808282546100f291906102af565b9250508190555050565b600a811115610140576040517f08c379a000000000000000000000000000000000000000000000000000000000815260040161013790610352565b60405180910390fd5b805f808282546101509190610370565b9250508190555050565b5f819050919050565b61016c8161015a565b82525050565b5f6020820190506101855f830184610163565b92915050565b5f80fd5b6101988161015a565b81146101a2575f80fd5b50565b5f813590506101b38161018f565b92915050565b5f602082840312156101ce576101cd61018b565b5b5f6101db848285016101a5565b91505092915050565b5f82825260208201905092915050565b7f56616c75652065786365656473207468652063757272656e7420636f756e74655f8201527f722076616c756500000000000000000000000000000000000000000000000000602082015250565b5f61024e6027836101e4565b9150610259826101f4565b604082019050919050565b5f6020820190508181035f83015261027b81610242565b9050919050565b7f4e487b71000000000000000000000000000000000000000000000000000000005f52601160045260245ffd5b5f6102b98261015a565b91506102c48361015a565b92508282039050818111156102dc576102db610282565b5b92915050565b7f56616c756520657863656564732074686520616c6c6f776564206c696d6974205f8201527f6f66203130000000000000000000000000000000000000000000000000000000602082015250565b5f61033c6025836101e4565b9150610347826102e2565b604082019050919050565b5f6020820190508181035f83015261036981610330565b9050919050565b5f61037a8261015a565b91506103858361015a565b925082820190508082111561039d5761039c610282565b5b9291505056fea26469706673582212200f86fb8b8a11bcce2e60d9e01ac8ee2451e32ccabf93bcc33135060e2df2730764736f6c634300081a0033",
			"opcodes": "PUSH1 0x80 PUSH1 0x40 MSTORE CALLVALUE DUP1 ISZERO PUSH1 0xE JUMPI PUSH0 DUP1 REVERT JUMPDEST POP PUSH2 0x3D9 DUP1 PUSH2 0x1C PUSH0 CODECOPY PUSH0 RETURN INVALID PUSH1 0x80 PUSH1 0x40 MSTORE CALLVALUE DUP1 ISZERO PUSH2 0xF JUMPI PUSH0 DUP1 REVERT JUMPDEST POP PUSH1 0x4 CALLDATASIZE LT PUSH2 0x3F JUMPI PUSH0 CALLDATALOAD PUSH1 0xE0 SHR DUP1 PUSH4 0x6661ABD EQ PUSH2 0x43 JUMPI DUP1 PUSH4 0x3A9EBEFD EQ PUSH2 0x61 JUMPI DUP1 PUSH4 0x7CF5DAB0 EQ PUSH2 0x7D JUMPI JUMPDEST PUSH0 DUP1 REVERT JUMPDEST PUSH2 0x4B PUSH2 0x99 JUMP JUMPDEST PUSH1 0x40 MLOAD PUSH2 0x58 SWAP2 SWAP1 PUSH2 0x172 JUMP JUMPDEST PUSH1 0x40 MLOAD DUP1 SWAP2 SUB SWAP1 RETURN JUMPDEST PUSH2 0x7B PUSH1 0x4 DUP1 CALLDATASIZE SUB DUP2 ADD SWAP1 PUSH2 0x76 SWAP2 SWAP1 PUSH2 0x1B9 JUMP JUMPDEST PUSH2 0x9E JUMP JUMPDEST STOP JUMPDEST PUSH2 0x97 PUSH1 0x4 DUP1 CALLDATASIZE SUB DUP2 ADD SWAP1 PUSH2 0x92 SWAP2 SWAP1 PUSH2 0x1B9 JUMP JUMPDEST PUSH2 0xFC JUMP JUMPDEST STOP JUMPDEST PUSH0 SLOAD DUP2 JUMP JUMPDEST PUSH0 SLOAD DUP2 GT ISZERO PUSH2 0xE2 JUMPI PUSH1 0x40 MLOAD PUSH32 0x8C379A000000000000000000000000000000000000000000000000000000000 DUP2 MSTORE PUSH1 0x4 ADD PUSH2 0xD9 SWAP1 PUSH2 0x264 JUMP JUMPDEST PUSH1 0x40 MLOAD DUP1 SWAP2 SUB SWAP1 REVERT JUMPDEST DUP1 PUSH0 DUP1 DUP3 DUP3 SLOAD PUSH2 0xF2 SWAP2 SWAP1 PUSH2 0x2AF JUMP JUMPDEST SWAP3 POP POP DUP2 SWAP1 SSTORE POP POP JUMP JUMPDEST PUSH1 0xA DUP2 GT ISZERO PUSH2 0x140 JUMPI PUSH1 0x40 MLOAD PUSH32 0x8C379A000000000000000000000000000000000000000000000000000000000 DUP2 MSTORE PUSH1 0x4 ADD PUSH2 0x137 SWAP1 PUSH2 0x352 JUMP JUMPDEST PUSH1 0x40 MLOAD DUP1 SWAP2 SUB SWAP1 REVERT JUMPDEST DUP1 PUSH0 DUP1 DUP3 DUP3 SLOAD PUSH2 0x150 SWAP2 SWAP1 PUSH2 0x370 JUMP JUMPDEST SWAP3 POP POP DUP2 SWAP1 SSTORE POP POP JUMP JUMPDEST PUSH0 DUP2 SWAP1 POP SWAP2 SWAP1 POP JUMP JUMPDEST PUSH2 0x16C DUP2 PUSH2 0x15A JUMP JUMPDEST DUP3 MSTORE POP POP JUMP JUMPDEST PUSH0 PUSH1 0x20 DUP3 ADD SWAP1 POP PUSH2 0x185 PUSH0 DUP4 ADD DUP5 PUSH2 0x163 JUMP JUMPDEST SWAP3 SWAP2 POP POP JUMP JUMPDEST PUSH0 DUP1 REVERT JUMPDEST PUSH2 0x198 DUP2 PUSH2 0x15A JUMP JUMPDEST DUP2 EQ PUSH2 0x1A2 JUMPI PUSH0 DUP1 REVERT JUMPDEST POP JUMP JUMPDEST PUSH0 DUP2 CALLDATALOAD SWAP1 POP PUSH2 0x1B3 DUP2 PUSH2 0x18F JUMP JUMPDEST SWAP3 SWAP2 POP POP JUMP JUMPDEST PUSH0 PUSH1 0x20 DUP3 DUP5 SUB SLT ISZERO PUSH2 0x1CE JUMPI PUSH2 0x1CD PUSH2 0x18B JUMP JUMPDEST JUMPDEST PUSH0 PUSH2 0x1DB DUP5 DUP3 DUP6 ADD PUSH2 0x1A5 JUMP JUMPDEST SWAP2 POP POP SWAP3 SWAP2 POP POP JUMP JUMPDEST PUSH0 DUP3 DUP3 MSTORE PUSH1 0x20 DUP3 ADD SWAP1 POP SWAP3 SWAP2 POP POP JUMP JUMPDEST PUSH32 0x56616C75652065786365656473207468652063757272656E7420636F756E7465 PUSH0 DUP3 ADD MSTORE PUSH32 0x722076616C756500000000000000000000000000000000000000000000000000 PUSH1 0x20 DUP3 ADD MSTORE POP JUMP JUMPDEST PUSH0 PUSH2 0x24E PUSH1 0x27 DUP4 PUSH2 0x1E4 JUMP JUMPDEST SWAP2 POP PUSH2 0x259 DUP3 PUSH2 0x1F4 JUMP JUMPDEST PUSH1 0x40 DUP3 ADD SWAP1 POP SWAP2 SWAP1 POP JUMP JUMPDEST PUSH0 PUSH1 0x20 DUP3 ADD SWAP1 POP DUP2 DUP2 SUB PUSH0 DUP4 ADD MSTORE PUSH2 0x27B DUP2 PUSH2 0x242 JUMP JUMPDEST SWAP1 POP SWAP2 SWAP1 POP JUMP JUMPDEST PUSH32 0x4E487B7100000000000000000000000000000000000000000000000000000000 PUSH0 MSTORE PUSH1 0x11 PUSH1 0x4 MSTORE PUSH1 0x24 PUSH0 REVERT JUMPDEST PUSH0 PUSH2 0x2B9 DUP3 PUSH2 0x15A JUMP JUMPDEST SWAP2 POP PUSH2 0x2C4 DUP4 PUSH2 0x15A JUMP JUMPDEST SWAP3 POP DUP3 DUP3 SUB SWAP1 POP DUP2 DUP2 GT ISZERO PUSH2 0x2DC JUMPI PUSH2 0x2DB PUSH2 0x282 JUMP JUMPDEST JUMPDEST SWAP3 SWAP2 POP POP JUMP JUMPDEST PUSH32 0x56616C756520657863656564732074686520616C6C6F776564206C696D697420 PUSH0 DUP3 ADD MSTORE PUSH32 0x6F66203130000000000000000000000000000000000000000000000000000000 PUSH1 0x20 DUP3 ADD MSTORE POP JUMP JUMPDEST PUSH0 PUSH2 0x33C PUSH1 0x25 DUP4 PUSH2 0x1E4 JUMP JUMPDEST SWAP2 POP PUSH2 0x347 DUP3 PUSH2 0x2E2 JUMP JUMPDEST PUSH1 0x40 DUP3 ADD SWAP1 POP SWAP2 SWAP1 POP JUMP JUMPDEST PUSH0 PUSH1 0x20 DUP3 ADD SWAP1 POP DUP2 DUP2 SUB PUSH0 DUP4 ADD MSTORE PUSH2 0x369 DUP2 PUSH2 0x330 JUMP JUMPDEST SWAP1 POP SWAP2 SWAP1 POP JUMP JUMPDEST PUSH0 PUSH2 0x37A DUP3 PUSH2 0x15A JUMP JUMPDEST SWAP2 POP PUSH2 0x385 DUP4 PUSH2 0x15A JUMP JUMPDEST SWAP3 POP DUP3 DUP3 ADD SWAP1 POP DUP1 DUP3 GT ISZERO PUSH2 0x39D JUMPI PUSH2 0x39C PUSH2 0x282 JUMP JUMPDEST JUMPDEST SWAP3 SWAP2 POP POP JUMP INVALID LOG2 PUSH5 0x6970667358 0x22 SLT KECCAK256 0xF DUP7 0xFB DUP12 DUP11 GT 0xBC 0xCE 0x2E PUSH1 0xD9 0xE0 BYTE 0xC8 0xEE 0x24 MLOAD 0xE3 0x2C 0xCA 0xBF SWAP4 0xBC 0xC3 BALANCE CALLDATALOAD MOD 0xE 0x2D CALLCODE PUSH20 0x764736F6C634300081A00330000000000000000 "
		},
		"gasEstimates": {
			"creation": {
				"codeDepositCost": "197000",
				"executionCost": "236",
				"totalCost": "197236"
			},
			"external": {
				"count()": "2402",
				"decrement(uint256)": "infinite",
				"increment(uint256)": "infinite"
			}
		},
		"methodIdentifiers": {
			"count()": "06661abd",
			"decrement(uint256)": "3a9ebefd",
			"increment(uint256)": "7cf5dab0"
		}
	},
	"abi": [
		{
			"inputs": [],
			"name": "count",
			"outputs": [
				{
					"internalType": "uint256",
					"name": "",
					"type": "uint256"
				}
			],
			"stateMutability": "view",
			"type": "function"
		},
		{
			"inputs": [
				{
					"internalType": "uint256",
					"name": "value",
					"type": "uint256"
				}
			],
			"name": "decrement",
			"outputs": [],
			"stateMutability": "nonpayable",
			"type": "function"
		},
		{
			"inputs": [
				{
					"internalType": "uint256",
					"name": "value",
					"type": "uint256"
				}
			],
			"name": "increment",
			"outputs": [],
			"stateMutability": "nonpayable",
			"type": "function"
		}
	]
}