{
	"data": {
		"bytecode": {
			"linkReferences": {},
			"object": "6080604052348015600e575f80fd5b506105798061001c5f395ff3fe608060405234801561000f575f80fd5b5060043610610055575f3560e01c8063853255cc146100595780639200dac314610077578063c54124be146100aa578063e879a13e146100c8578063f9fa48c3146100e6575b5f80fd5b610061610104565b60405161006e919061024a565b60405180910390f35b610091600480360381019061008c9190610291565b610109565b6040516100a194939291906102cf565b60405180910390f35b6100b261016a565b6040516100bf919061024a565b60405180910390f35b6100d0610170565b6040516100dd919061024a565b60405180910390f35b6100ee610176565b6040516100fb919061024a565b60405180910390f35b5f5481565b5f805f80610117868661017c565b6101218686610191565b61012b86866101a7565b61013586866101bd565b5f805f80610141610215565b809450819550829650839750505050508383838397509750975097505050505092959194509250565b60015481565b60025481565b60035481565b8082610188919061033f565b5f819055505050565b808261019d9190610380565b6001819055505050565b80826101b391906103c0565b6002819055505050565b5f81036101ff576040517f08c379a00000000000000000000000000000000000000000000000000000000081526004016101f690610490565b60405180910390fd5b808261020b91906104db565b6003819055505050565b5f805f805f54600154600254600354935093509350935090919293565b5f819050919050565b61024481610232565b82525050565b5f60208201905061025d5f83018461023b565b92915050565b5f80fd5b61027081610232565b811461027a575f80fd5b50565b5f8135905061028b81610267565b92915050565b5f80604083850312156102a7576102a6610263565b5b5f6102b48582860161027d565b92505060206102c58582860161027d565b9150509250929050565b5f6080820190506102e25f83018761023b565b6102ef602083018661023b565b6102fc604083018561023b565b610309606083018461023b565b95945050505050565b7f4e487b71000000000000000000000000000000000000000000000000000000005f52601160045260245ffd5b5f61034982610232565b915061035483610232565b92508282019050828112155f8312168382125f84121516171561037a57610379610312565b5b92915050565b5f61038a82610232565b915061039583610232565b925082820390508181125f8412168282135f8512151617156103ba576103b9610312565b5b92915050565b5f6103ca82610232565b91506103d583610232565b92508282026103e381610232565b91507f800000000000000000000000000000000000000000000000000000000000000084145f8412161561041a57610419610312565b5b828205841483151761042f5761042e610312565b5b5092915050565b5f82825260208201905092915050565b7f4e6f206469766973696f6e206279207a65726f000000000000000000000000005f82015250565b5f61047a601383610436565b915061048582610446565b602082019050919050565b5f6020820190508181035f8301526104a78161046e565b9050919050565b7f4e487b71000000000000000000000000000000000000000000000000000000005f52601260045260245ffd5b5f6104e582610232565b91506104f083610232565b925082610500576104ff6104ae565b5b60015f0383147f80000000000000000000000000000000000000000000000000000000000000008314161561053857610537610312565b5b82820590509291505056fea2646970667358221220568a5e2e19ed25f1a54c4ad72fe0be263ed7dd23becb501454476e884ffb7eeb64736f6c634300081a0033",
			"opcodes": "PUSH1 0x80 PUSH1 0x40 MSTORE CALLVALUE DUP1 ISZERO PUSH1 0xE JUMPI PUSH0 DUP1 REVERT JUMPDEST POP PUSH2 0x579 DUP1 PUSH2 0x1C PUSH0 CODECOPY PUSH0 RETURN INVALID PUSH1 0x80 PUSH1 0x40 MSTORE CALLVALUE DUP1 ISZERO PUSH2 0xF JUMPI PUSH0 DUP1 REVERT JUMPDEST POP PUSH1 0x4 CALLDATASIZE LT PUSH2 0x55 JUMPI PUSH0 CALLDATALOAD PUSH1 0xE0 SHR DUP1 PUSH4 0x853255CC EQ PUSH2 0x59 JUMPI DUP1 PUSH4 0x9200DAC3 EQ PUSH2 0x77 JUMPI DUP1 PUSH4 0xC54124BE EQ PUSH2 0xAA JUMPI DUP1 PUSH4 0xE879A13E EQ PUSH2 0xC8 JUMPI DUP1 PUSH4 0xF9FA48C3 EQ PUSH2 0xE6 JUMPI JUMPDEST PUSH0 DUP1 REVERT JUMPDEST PUSH2 0x61 PUSH2 0x104 JUMP JUMPDEST PUSH1 0x40 MLOAD PUSH2 0x6E SWAP2 SWAP1 PUSH2 0x24A JUMP JUMPDEST PUSH1 0x40 MLOAD DUP1 SWAP2 SUB SWAP1 RETURN JUMPDEST PUSH2 0x91 PUSH1 0x4 DUP1 CALLDATASIZE SUB DUP2 ADD SWAP1 PUSH2 0x8C SWAP2 SWAP1 PUSH2 0x291 JUMP JUMPDEST PUSH2 0x109 JUMP JUMPDEST PUSH1 0x40 MLOAD PUSH2 0xA1 SWAP5 SWAP4 SWAP3 SWAP2 SWAP1 PUSH2 0x2CF JUMP JUMPDEST PUSH1 0x40 MLOAD DUP1 SWAP2 SUB SWAP1 RETURN JUMPDEST PUSH2 0xB2 PUSH2 0x16A JUMP JUMPDEST PUSH1 0x40 MLOAD PUSH2 0xBF SWAP2 SWAP1 PUSH2 0x24A JUMP JUMPDEST PUSH1 0x40 MLOAD DUP1 SWAP2 SUB SWAP1 RETURN JUMPDEST PUSH2 0xD0 PUSH2 0x170 JUMP JUMPDEST PUSH1 0x40 MLOAD PUSH2 0xDD SWAP2 SWAP1 PUSH2 0x24A JUMP JUMPDEST PUSH1 0x40 MLOAD DUP1 SWAP2 SUB SWAP1 RETURN JUMPDEST PUSH2 0xEE PUSH2 0x176 JUMP JUMPDEST PUSH1 0x40 MLOAD PUSH2 0xFB SWAP2 SWAP1 PUSH2 0x24A JUMP JUMPDEST PUSH1 0x40 MLOAD DUP1 SWAP2 SUB SWAP1 RETURN JUMPDEST PUSH0 SLOAD DUP2 JUMP JUMPDEST PUSH0 DUP1 PUSH0 DUP1 PUSH2 0x117 DUP7 DUP7 PUSH2 0x17C JUMP JUMPDEST PUSH2 0x121 DUP7 DUP7 PUSH2 0x191 JUMP JUMPDEST PUSH2 0x12B DUP7 DUP7 PUSH2 0x1A7 JUMP JUMPDEST PUSH2 0x135 DUP7 DUP7 PUSH2 0x1BD JUMP JUMPDEST PUSH0 DUP1 PUSH0 DUP1 PUSH2 0x141 PUSH2 0x215 JUMP JUMPDEST DUP1 SWAP5 POP DUP2 SWAP6 POP DUP3 SWAP7 POP DUP4 SWAP8 POP POP POP POP POP DUP4 DUP4 DUP4 DUP4 SWAP8 POP SWAP8 POP SWAP8 POP SWAP8 POP POP POP POP POP SWAP3 SWAP6 SWAP2 SWAP5 POP SWAP3 POP JUMP JUMPDEST PUSH1 0x1 SLOAD DUP2 JUMP JUMPDEST PUSH1 0x2 SLOAD DUP2 JUMP JUMPDEST PUSH1 0x3 SLOAD DUP2 JUMP JUMPDEST DUP1 DUP3 PUSH2 0x188 SWAP2 SWAP1 PUSH2 0x33F JUMP JUMPDEST PUSH0 DUP2 SWAP1 SSTORE POP POP POP JUMP JUMPDEST DUP1 DUP3 PUSH2 0x19D SWAP2 SWAP1 PUSH2 0x380 JUMP JUMPDEST PUSH1 0x1 DUP2 SWAP1 SSTORE POP POP POP JUMP JUMPDEST DUP1 DUP3 PUSH2 0x1B3 SWAP2 SWAP1 PUSH2 0x3C0 JUMP JUMPDEST PUSH1 0x2 DUP2 SWAP1 SSTORE POP POP POP JUMP JUMPDEST PUSH0 DUP2 SUB PUSH2 0x1FF JUMPI PUSH1 0x40 MLOAD PUSH32 0x8C379A000000000000000000000000000000000000000000000000000000000 DUP2 MSTORE PUSH1 0x4 ADD PUSH2 0x1F6 SWAP1 PUSH2 0x490 JUMP JUMPDEST PUSH1 0x40 MLOAD DUP1 SWAP2 SUB SWAP1 REVERT JUMPDEST DUP1 DUP3 PUSH2 0x20B SWAP2 SWAP1 PUSH2 0x4DB JUMP JUMPDEST PUSH1 0x3 DUP2 SWAP1 SSTORE POP POP POP JUMP JUMPDEST PUSH0 DUP1 PUSH0 DUP1 PUSH0 SLOAD PUSH1 0x1 SLOAD PUSH1 0x2 SLOAD PUSH1 0x3 SLOAD SWAP4 POP SWAP4 POP SWAP4 POP SWAP4 POP SWAP1 SWAP2 SWAP3 SWAP4 JUMP JUMPDEST PUSH0 DUP2 SWAP1 POP SWAP2 SWAP1 POP JUMP JUMPDEST PUSH2 0x244 DUP2 PUSH2 0x232 JUMP JUMPDEST DUP3 MSTORE POP POP JUMP JUMPDEST PUSH0 PUSH1 0x20 DUP3 ADD SWAP1 POP PUSH2 0x25D PUSH0 DUP4 ADD DUP5 PUSH2 0x23B JUMP JUMPDEST SWAP3 SWAP2 POP POP JUMP JUMPDEST PUSH0 DUP1 REVERT JUMPDEST PUSH2 0x270 DUP2 PUSH2 0x232 JUMP JUMPDEST DUP2 EQ PUSH2 0x27A JUMPI PUSH0 DUP1 REVERT JUMPDEST POP JUMP JUMPDEST PUSH0 DUP2 CALLDATALOAD SWAP1 POP PUSH2 0x28B DUP2 PUSH2 0x267 JUMP JUMPDEST SWAP3 SWAP2 POP POP JUMP JUMPDEST PUSH0 DUP1 PUSH1 0x40 DUP4 DUP6 SUB SLT ISZERO PUSH2 0x2A7 JUMPI PUSH2 0x2A6 PUSH2 0x263 JUMP JUMPDEST JUMPDEST PUSH0 PUSH2 0x2B4 DUP6 DUP3 DUP7 ADD PUSH2 0x27D JUMP JUMPDEST SWAP3 POP POP PUSH1 0x20 PUSH2 0x2C5 DUP6 DUP3 DUP7 ADD PUSH2 0x27D JUMP JUMPDEST SWAP2 POP POP SWAP3 POP SWAP3 SWAP1 POP JUMP JUMPDEST PUSH0 PUSH1 0x80 DUP3 ADD SWAP1 POP PUSH2 0x2E2 PUSH0 DUP4 ADD DUP8 PUSH2 0x23B JUMP JUMPDEST PUSH2 0x2EF PUSH1 0x20 DUP4 ADD DUP7 PUSH2 0x23B JUMP JUMPDEST PUSH2 0x2FC PUSH1 0x40 DUP4 ADD DUP6 PUSH2 0x23B JUMP JUMPDEST PUSH2 0x309 PUSH1 0x60 DUP4 ADD DUP5 PUSH2 0x23B JUMP JUMPDEST SWAP6 SWAP5 POP POP POP POP POP JUMP JUMPDEST PUSH32 0x4E487B7100000000000000000000000000000000000000000000000000000000 PUSH0 MSTORE PUSH1 0x11 PUSH1 0x4 MSTORE PUSH1 0x24 PUSH0 REVERT JUMPDEST PUSH0 PUSH2 0x349 DUP3 PUSH2 0x232 JUMP JUMPDEST SWAP2 POP PUSH2 0x354 DUP4 PUSH2 0x232 JUMP JUMPDEST SWAP3 POP DUP3 DUP3 ADD SWAP1 POP DUP3 DUP2 SLT ISZERO PUSH0 DUP4 SLT AND DUP4 DUP3 SLT PUSH0 DUP5 SLT ISZERO AND OR ISZERO PUSH2 0x37A JUMPI PUSH2 0x379 PUSH2 0x312 JUMP JUMPDEST JUMPDEST SWAP3 SWAP2 POP POP JUMP JUMPDEST PUSH0 PUSH2 0x38A DUP3 PUSH2 0x232 JUMP JUMPDEST SWAP2 POP PUSH2 0x395 DUP4 PUSH2 0x232 JUMP JUMPDEST SWAP3 POP DUP3 DUP3 SUB SWAP1 POP DUP2 DUP2 SLT PUSH0 DUP5 SLT AND DUP3 DUP3 SGT PUSH0 DUP6 SLT ISZERO AND OR ISZERO PUSH2 0x3BA JUMPI PUSH2 0x3B9 PUSH2 0x312 JUMP JUMPDEST JUMPDEST SWAP3 SWAP2 POP POP JUMP JUMPDEST PUSH0 PUSH2 0x3CA DUP3 PUSH2 0x232 JUMP JUMPDEST SWAP2 POP PUSH2 0x3D5 DUP4 PUSH2 0x232 JUMP JUMPDEST SWAP3 POP DUP3 DUP3 MUL PUSH2 0x3E3 DUP2 PUSH2 0x232 JUMP JUMPDEST SWAP2 POP PUSH32 0x8000000000000000000000000000000000000000000000000000000000000000 DUP5 EQ PUSH0 DUP5 SLT AND ISZERO PUSH2 0x41A JUMPI PUSH2 0x419 PUSH2 0x312 JUMP JUMPDEST JUMPDEST DUP3 DUP3 SDIV DUP5 EQ DUP4 ISZERO OR PUSH2 0x42F JUMPI PUSH2 0x42E PUSH2 0x312 JUMP JUMPDEST JUMPDEST POP SWAP3 SWAP2 POP POP JUMP JUMPDEST PUSH0 DUP3 DUP3 MSTORE PUSH1 0x20 DUP3 ADD SWAP1 POP SWAP3 SWAP2 POP POP JUMP JUMPDEST PUSH32 0x4E6F206469766973696F6E206279207A65726F00000000000000000000000000 PUSH0 DUP3 ADD MSTORE POP JUMP JUMPDEST PUSH0 PUSH2 0x47A PUSH1 0x13 DUP4 PUSH2 0x436 JUMP JUMPDEST SWAP2 POP PUSH2 0x485 DUP3 PUSH2 0x446 JUMP JUMPDEST PUSH1 0x20 DUP3 ADD SWAP1 POP SWAP2 SWAP1 POP JUMP JUMPDEST PUSH0 PUSH1 0x20 DUP3 ADD SWAP1 POP DUP2 DUP2 SUB PUSH0 DUP4 ADD MSTORE PUSH2 0x4A7 DUP2 PUSH2 0x46E JUMP JUMPDEST SWAP1 POP SWAP2 SWAP1 POP JUMP JUMPDEST PUSH32 0x4E487B7100000000000000000000000000000000000000000000000000000000 PUSH0 MSTORE PUSH1 0x12 PUSH1 0x4 MSTORE PUSH1 0x24 PUSH0 REVERT JUMPDEST PUSH0 PUSH2 0x4E5 DUP3 PUSH2 0x232 JUMP JUMPDEST SWAP2 POP PUSH2 0x4F0 DUP4 PUSH2 0x232 JUMP JUMPDEST SWAP3 POP DUP3 PUSH2 0x500 JUMPI PUSH2 0x4FF PUSH2 0x4AE JUMP JUMPDEST JUMPDEST PUSH1 0x1 PUSH0 SUB DUP4 EQ PUSH32 0x8000000000000000000000000000000000000000000000000000000000000000 DUP4 EQ AND ISZERO PUSH2 0x538 JUMPI PUSH2 0x537 PUSH2 0x312 JUMP JUMPDEST JUMPDEST DUP3 DUP3 SDIV SWAP1 POP SWAP3 SWAP2 POP POP JUMP INVALID LOG2 PUSH5 0x6970667358 0x22 SLT KECCAK256 JUMP DUP11 MCOPY 0x2E NOT 0xED 0x25 CALL 0xA5 0x4C BLOBBASEFEE 0xD7 0x2F 0xE0 0xBE 0x26 RETURNDATACOPY 0xD7 0xDD 0x23 0xBE 0xCB POP EQ SLOAD SELFBALANCE PUSH15 0x884FFB7EEB64736F6C634300081A00 CALLER "
		},
		"gasEstimates": {
			"creation": {
				"codeDepositCost": "280200",
				"executionCost": "316",
				"totalCost": "280516"
			},
			"external": {
				"div()": "2491",
				"mult()": "2469",
				"start(int256,int256)": "infinite",
				"sub()": "2447",
				"sum()": "2402"
			},
			"internal": {
				"addition(int256,int256)": "infinite",
				"division(int256,int256)": "infinite",
				"getResult()": "8462",
				"multiplication(int256,int256)": "infinite",
				"substraction(int256,int256)": "infinite"
			}
		},
		"methodIdentifiers": {
			"div()": "f9fa48c3",
			"mult()": "e879a13e",
			"start(int256,int256)": "9200dac3",
			"sub()": "c54124be",
			"sum()": "853255cc"
		}
	},
	"abi": [
		{
			"inputs": [],
			"name": "div",
			"outputs": [
				{
					"internalType": "int256",
					"name": "",
					"type": "int256"
				}
			],
			"stateMutability": "view",
			"type": "function"
		},
		{
			"inputs": [],
			"name": "mult",
			"outputs": [
				{
					"internalType": "int256",
					"name": "",
					"type": "int256"
				}
			],
			"stateMutability": "view",
			"type": "function"
		},
		{
			"inputs": [
				{
					"internalType": "int256",
					"name": "number1",
					"type": "int256"
				},
				{
					"internalType": "int256",
					"name": "number2",
					"type": "int256"
				}
			],
			"name": "start",
			"outputs": [
				{
					"internalType": "int256",
					"name": "",
					"type": "int256"
				},
				{
					"internalType": "int256",
					"name": "",
					"type": "int256"
				},
				{
					"internalType": "int256",
					"name": "",
					"type": "int256"
				},
				{
					"internalType": "int256",
					"name": "",
					"type": "int256"
				}
			],
			"stateMutability": "nonpayable",
			"type": "function"
		},
		{
			"inputs": [],
			"name": "sub",
			"outputs": [
				{
					"internalType": "int256",
					"name": "",
					"type": "int256"
				}
			],
			"stateMutability": "view",
			"type": "function"
		},
		{
			"inputs": [],
			"name": "sum",
			"outputs": [
				{
					"internalType": "int256",
					"name": "",
					"type": "int256"
				}
			],
			"stateMutability": "view",
			"type": "function"
		}
	]
}