{
	"contracts/Blockchain_Assignment_3/Task_Codes/as3_task11.sol": {
		"PrimeNumbers": {
			"abi": [
				{
					"inputs": [
						{
							"internalType": "uint256",
							"name": "n",
							"type": "uint256"
						}
					],
					"name": "getPrimes",
					"outputs": [
						{
							"internalType": "uint256[]",
							"name": "",
							"type": "uint256[]"
						}
					],
					"stateMutability": "pure",
					"type": "function"
				}
			],
			"devdoc": {
				"kind": "dev",
				"methods": {},
				"version": 1
			},
			"evm": {
				"assembly": "    /* \"contracts/Blockchain_Assignment_3/Task_Codes/as3_task11.sol\":28:1102  contract PrimeNumbers {... */\n  mstore(0x40, 0x80)\n  callvalue\n  dup1\n  iszero\n  tag_1\n  jumpi\n  0x00\n  dup1\n  revert\ntag_1:\n  pop\n  dataSize(sub_0)\n  dup1\n  dataOffset(sub_0)\n  0x00\n  codecopy\n  0x00\n  return\nstop\n\nsub_0: assembly {\n        /* \"contracts/Blockchain_Assignment_3/Task_Codes/as3_task11.sol\":28:1102  contract PrimeNumbers {... */\n      mstore(0x40, 0x80)\n      callvalue\n      dup1\n      iszero\n      tag_1\n      jumpi\n      0x00\n      dup1\n      revert\n    tag_1:\n      pop\n      jumpi(tag_2, lt(calldatasize, 0x04))\n      shr(0xe0, calldataload(0x00))\n      dup1\n      0xfaefc691\n      eq\n      tag_3\n      jumpi\n    tag_2:\n      0x00\n      dup1\n      revert\n        /* \"contracts/Blockchain_Assignment_3/Task_Codes/as3_task11.sol\":124:800  function getPrimes(uint256 n) public pure returns (uint256[] memory) {... */\n    tag_3:\n      tag_4\n      0x04\n      dup1\n      calldatasize\n      sub\n      dup2\n      add\n      swap1\n      tag_5\n      swap2\n      swap1\n      tag_6\n      jump\t// in\n    tag_5:\n      tag_7\n      jump\t// in\n    tag_4:\n      mload(0x40)\n      tag_8\n      swap2\n      swap1\n      tag_9\n      jump\t// in\n    tag_8:\n      mload(0x40)\n      dup1\n      swap2\n      sub\n      swap1\n      return\n    tag_7:\n        /* \"contracts/Blockchain_Assignment_3/Task_Codes/as3_task11.sol\":175:191  uint256[] memory */\n      0x60\n        /* \"contracts/Blockchain_Assignment_3/Task_Codes/as3_task11.sol\":217:218  2 */\n      0x02\n        /* \"contracts/Blockchain_Assignment_3/Task_Codes/as3_task11.sol\":212:213  n */\n      dup3\n        /* \"contracts/Blockchain_Assignment_3/Task_Codes/as3_task11.sol\":212:218  n >= 2 */\n      lt\n      iszero\n        /* \"contracts/Blockchain_Assignment_3/Task_Codes/as3_task11.sol\":204:254  require(n >= 2, \"There are no primes less than 2\") */\n      tag_11\n      jumpi\n      mload(0x40)\n      0x08c379a000000000000000000000000000000000000000000000000000000000\n      dup2\n      mstore\n      0x04\n      add\n      tag_12\n      swap1\n      tag_13\n      jump\t// in\n    tag_12:\n      mload(0x40)\n      dup1\n      swap2\n      sub\n      swap1\n      revert\n    tag_11:\n        /* \"contracts/Blockchain_Assignment_3/Task_Codes/as3_task11.sol\":318:341  uint256[] memory primes */\n      0x00\n        /* \"contracts/Blockchain_Assignment_3/Task_Codes/as3_task11.sol\":358:359  n */\n      dup3\n        /* \"contracts/Blockchain_Assignment_3/Task_Codes/as3_task11.sol\":344:360  new uint256[](n) */\n      0xffffffffffffffff\n      dup2\n      gt\n      iszero\n      tag_14\n      jumpi\n      tag_15\n      tag_16\n      jump\t// in\n    tag_15:\n    tag_14:\n      mload(0x40)\n      swap1\n      dup1\n      dup3\n      mstore\n      dup1\n      0x20\n      mul\n      0x20\n      add\n      dup3\n      add\n      0x40\n      mstore\n      dup1\n      iszero\n      tag_17\n      jumpi\n      dup2\n      0x20\n      add\n      0x20\n      dup3\n      mul\n      dup1\n      calldatasize\n      dup4\n      calldatacopy\n      dup1\n      dup3\n      add\n      swap2\n      pop\n      pop\n      swap1\n      pop\n    tag_17:\n      pop\n        /* \"contracts/Blockchain_Assignment_3/Task_Codes/as3_task11.sol\":318:360  uint256[] memory primes = new uint256[](n) */\n      swap1\n      pop\n        /* \"contracts/Blockchain_Assignment_3/Task_Codes/as3_task11.sol\":371:384  uint256 count */\n      0x00\n        /* \"contracts/Blockchain_Assignment_3/Task_Codes/as3_task11.sol\":427:436  uint256 i */\n      dup1\n        /* \"contracts/Blockchain_Assignment_3/Task_Codes/as3_task11.sol\":439:440  2 */\n      0x02\n        /* \"contracts/Blockchain_Assignment_3/Task_Codes/as3_task11.sol\":427:440  uint256 i = 2 */\n      swap1\n      pop\n        /* \"contracts/Blockchain_Assignment_3/Task_Codes/as3_task11.sol\":422:575  for (uint256 i = 2; i <= n; i++) {... */\n    tag_18:\n        /* \"contracts/Blockchain_Assignment_3/Task_Codes/as3_task11.sol\":447:448  n */\n      dup5\n        /* \"contracts/Blockchain_Assignment_3/Task_Codes/as3_task11.sol\":442:443  i */\n      dup2\n        /* \"contracts/Blockchain_Assignment_3/Task_Codes/as3_task11.sol\":442:448  i <= n */\n      gt\n        /* \"contracts/Blockchain_Assignment_3/Task_Codes/as3_task11.sol\":422:575  for (uint256 i = 2; i <= n; i++) {... */\n      tag_19\n      jumpi\n        /* \"contracts/Blockchain_Assignment_3/Task_Codes/as3_task11.sol\":474:484  isPrime(i) */\n      tag_21\n        /* \"contracts/Blockchain_Assignment_3/Task_Codes/as3_task11.sol\":482:483  i */\n      dup2\n        /* \"contracts/Blockchain_Assignment_3/Task_Codes/as3_task11.sol\":474:481  isPrime */\n      tag_22\n        /* \"contracts/Blockchain_Assignment_3/Task_Codes/as3_task11.sol\":474:484  isPrime(i) */\n      jump\t// in\n    tag_21:\n        /* \"contracts/Blockchain_Assignment_3/Task_Codes/as3_task11.sol\":470:564  if (isPrime(i)) {... */\n      iszero\n      tag_23\n      jumpi\n        /* \"contracts/Blockchain_Assignment_3/Task_Codes/as3_task11.sol\":521:522  i */\n      dup1\n        /* \"contracts/Blockchain_Assignment_3/Task_Codes/as3_task11.sol\":505:511  primes */\n      dup4\n        /* \"contracts/Blockchain_Assignment_3/Task_Codes/as3_task11.sol\":512:517  count */\n      dup4\n        /* \"contracts/Blockchain_Assignment_3/Task_Codes/as3_task11.sol\":505:518  primes[count] */\n      dup2\n      mload\n      dup2\n      lt\n      tag_24\n      jumpi\n      tag_25\n      tag_26\n      jump\t// in\n    tag_25:\n    tag_24:\n      0x20\n      mul\n      0x20\n      add\n      add\n        /* \"contracts/Blockchain_Assignment_3/Task_Codes/as3_task11.sol\":505:522  primes[count] = i */\n      dup2\n      dup2\n      mstore\n      pop\n      pop\n        /* \"contracts/Blockchain_Assignment_3/Task_Codes/as3_task11.sol\":541:548  count++ */\n      dup2\n      dup1\n      tag_27\n      swap1\n      tag_28\n      jump\t// in\n    tag_27:\n      swap3\n      pop\n      pop\n        /* \"contracts/Blockchain_Assignment_3/Task_Codes/as3_task11.sol\":470:564  if (isPrime(i)) {... */\n    tag_23:\n        /* \"contracts/Blockchain_Assignment_3/Task_Codes/as3_task11.sol\":450:453  i++ */\n      dup1\n      dup1\n      tag_29\n      swap1\n      tag_28\n      jump\t// in\n    tag_29:\n      swap2\n      pop\n      pop\n        /* \"contracts/Blockchain_Assignment_3/Task_Codes/as3_task11.sol\":422:575  for (uint256 i = 2; i <= n; i++) {... */\n      jump(tag_18)\n    tag_19:\n      pop\n        /* \"contracts/Blockchain_Assignment_3/Task_Codes/as3_task11.sol\":626:649  uint256[] memory result */\n      0x00\n        /* \"contracts/Blockchain_Assignment_3/Task_Codes/as3_task11.sol\":666:671  count */\n      dup2\n        /* \"contracts/Blockchain_Assignment_3/Task_Codes/as3_task11.sol\":652:672  new uint256[](count) */\n      0xffffffffffffffff\n      dup2\n      gt\n      iszero\n      tag_30\n      jumpi\n      tag_31\n      tag_16\n      jump\t// in\n    tag_31:\n    tag_30:\n      mload(0x40)\n      swap1\n      dup1\n      dup3\n      mstore\n      dup1\n      0x20\n      mul\n      0x20\n      add\n      dup3\n      add\n      0x40\n      mstore\n      dup1\n      iszero\n      tag_32\n      jumpi\n      dup2\n      0x20\n      add\n      0x20\n      dup3\n      mul\n      dup1\n      calldatasize\n      dup4\n      calldatacopy\n      dup1\n      dup3\n      add\n      swap2\n      pop\n      pop\n      swap1\n      pop\n    tag_32:\n      pop\n        /* \"contracts/Blockchain_Assignment_3/Task_Codes/as3_task11.sol\":626:672  uint256[] memory result = new uint256[](count) */\n      swap1\n      pop\n        /* \"contracts/Blockchain_Assignment_3/Task_Codes/as3_task11.sol\":688:697  uint256 i */\n      0x00\n        /* \"contracts/Blockchain_Assignment_3/Task_Codes/as3_task11.sol\":683:767  for (uint256 i = 0; i < count; i++) {... */\n    tag_33:\n        /* \"contracts/Blockchain_Assignment_3/Task_Codes/as3_task11.sol\":707:712  count */\n      dup3\n        /* \"contracts/Blockchain_Assignment_3/Task_Codes/as3_task11.sol\":703:704  i */\n      dup2\n        /* \"contracts/Blockchain_Assignment_3/Task_Codes/as3_task11.sol\":703:712  i < count */\n      lt\n        /* \"contracts/Blockchain_Assignment_3/Task_Codes/as3_task11.sol\":683:767  for (uint256 i = 0; i < count; i++) {... */\n      iszero\n      tag_34\n      jumpi\n        /* \"contracts/Blockchain_Assignment_3/Task_Codes/as3_task11.sol\":746:752  primes */\n      dup4\n        /* \"contracts/Blockchain_Assignment_3/Task_Codes/as3_task11.sol\":753:754  i */\n      dup2\n        /* \"contracts/Blockchain_Assignment_3/Task_Codes/as3_task11.sol\":746:755  primes[i] */\n      dup2\n      mload\n      dup2\n      lt\n      tag_36\n      jumpi\n      tag_37\n      tag_26\n      jump\t// in\n    tag_37:\n    tag_36:\n      0x20\n      mul\n      0x20\n      add\n      add\n      mload\n        /* \"contracts/Blockchain_Assignment_3/Task_Codes/as3_task11.sol\":734:740  result */\n      dup3\n        /* \"contracts/Blockchain_Assignment_3/Task_Codes/as3_task11.sol\":741:742  i */\n      dup3\n        /* \"contracts/Blockchain_Assignment_3/Task_Codes/as3_task11.sol\":734:743  result[i] */\n      dup2\n      mload\n      dup2\n      lt\n      tag_38\n      jumpi\n      tag_39\n      tag_26\n      jump\t// in\n    tag_39:\n    tag_38:\n      0x20\n      mul\n      0x20\n      add\n      add\n        /* \"contracts/Blockchain_Assignment_3/Task_Codes/as3_task11.sol\":734:755  result[i] = primes[i] */\n      dup2\n      dup2\n      mstore\n      pop\n      pop\n        /* \"contracts/Blockchain_Assignment_3/Task_Codes/as3_task11.sol\":714:717  i++ */\n      dup1\n      dup1\n      0x01\n      add\n      swap2\n      pop\n      pop\n        /* \"contracts/Blockchain_Assignment_3/Task_Codes/as3_task11.sol\":683:767  for (uint256 i = 0; i < count; i++) {... */\n      jump(tag_33)\n    tag_34:\n      pop\n        /* \"contracts/Blockchain_Assignment_3/Task_Codes/as3_task11.sol\":786:792  result */\n      dup1\n        /* \"contracts/Blockchain_Assignment_3/Task_Codes/as3_task11.sol\":779:792  return result */\n      swap4\n      pop\n      pop\n      pop\n      pop\n        /* \"contracts/Blockchain_Assignment_3/Task_Codes/as3_task11.sol\":124:800  function getPrimes(uint256 n) public pure returns (uint256[] memory) {... */\n      swap2\n      swap1\n      pop\n      jump\t// out\n        /* \"contracts/Blockchain_Assignment_3/Task_Codes/as3_task11.sol\":808:1099  function isPrime(uint256 num) internal pure returns (bool) {... */\n    tag_22:\n        /* \"contracts/Blockchain_Assignment_3/Task_Codes/as3_task11.sol\":861:865  bool */\n      0x00\n        /* \"contracts/Blockchain_Assignment_3/Task_Codes/as3_task11.sol\":888:889  2 */\n      0x02\n        /* \"contracts/Blockchain_Assignment_3/Task_Codes/as3_task11.sol\":882:885  num */\n      dup3\n        /* \"contracts/Blockchain_Assignment_3/Task_Codes/as3_task11.sol\":882:889  num < 2 */\n      lt\n        /* \"contracts/Blockchain_Assignment_3/Task_Codes/as3_task11.sol\":878:930  if (num < 2) {... */\n      iszero\n      tag_41\n      jumpi\n        /* \"contracts/Blockchain_Assignment_3/Task_Codes/as3_task11.sol\":913:918  false */\n      0x00\n        /* \"contracts/Blockchain_Assignment_3/Task_Codes/as3_task11.sol\":906:918  return false */\n      swap1\n      pop\n      jump(tag_40)\n        /* \"contracts/Blockchain_Assignment_3/Task_Codes/as3_task11.sol\":878:930  if (num < 2) {... */\n    tag_41:\n        /* \"contracts/Blockchain_Assignment_3/Task_Codes/as3_task11.sol\":945:954  uint256 i */\n      0x00\n        /* \"contracts/Blockchain_Assignment_3/Task_Codes/as3_task11.sol\":957:958  2 */\n      0x02\n        /* \"contracts/Blockchain_Assignment_3/Task_Codes/as3_task11.sol\":945:958  uint256 i = 2 */\n      swap1\n      pop\n        /* \"contracts/Blockchain_Assignment_3/Task_Codes/as3_task11.sol\":940:1070  for (uint256 i = 2; i * i <= num; i++) {... */\n    tag_42:\n        /* \"contracts/Blockchain_Assignment_3/Task_Codes/as3_task11.sol\":969:972  num */\n      dup3\n        /* \"contracts/Blockchain_Assignment_3/Task_Codes/as3_task11.sol\":964:965  i */\n      dup2\n        /* \"contracts/Blockchain_Assignment_3/Task_Codes/as3_task11.sol\":960:961  i */\n      dup3\n        /* \"contracts/Blockchain_Assignment_3/Task_Codes/as3_task11.sol\":960:965  i * i */\n      tag_45\n      swap2\n      swap1\n      tag_46\n      jump\t// in\n    tag_45:\n        /* \"contracts/Blockchain_Assignment_3/Task_Codes/as3_task11.sol\":960:972  i * i <= num */\n      gt\n        /* \"contracts/Blockchain_Assignment_3/Task_Codes/as3_task11.sol\":940:1070  for (uint256 i = 2; i * i <= num; i++) {... */\n      tag_43\n      jumpi\n        /* \"contracts/Blockchain_Assignment_3/Task_Codes/as3_task11.sol\":1009:1010  0 */\n      0x00\n        /* \"contracts/Blockchain_Assignment_3/Task_Codes/as3_task11.sol\":1004:1005  i */\n      dup2\n        /* \"contracts/Blockchain_Assignment_3/Task_Codes/as3_task11.sol\":998:1001  num */\n      dup5\n        /* \"contracts/Blockchain_Assignment_3/Task_Codes/as3_task11.sol\":998:1005  num % i */\n      tag_47\n      swap2\n      swap1\n      tag_48\n      jump\t// in\n    tag_47:\n        /* \"contracts/Blockchain_Assignment_3/Task_Codes/as3_task11.sol\":998:1010  num % i == 0 */\n      sub\n        /* \"contracts/Blockchain_Assignment_3/Task_Codes/as3_task11.sol\":994:1059  if (num % i == 0) {... */\n      tag_49\n      jumpi\n        /* \"contracts/Blockchain_Assignment_3/Task_Codes/as3_task11.sol\":1038:1043  false */\n      0x00\n        /* \"contracts/Blockchain_Assignment_3/Task_Codes/as3_task11.sol\":1031:1043  return false */\n      swap2\n      pop\n      pop\n      jump(tag_40)\n        /* \"contracts/Blockchain_Assignment_3/Task_Codes/as3_task11.sol\":994:1059  if (num % i == 0) {... */\n    tag_49:\n        /* \"contracts/Blockchain_Assignment_3/Task_Codes/as3_task11.sol\":974:977  i++ */\n      dup1\n      dup1\n      tag_50\n      swap1\n      tag_28\n      jump\t// in\n    tag_50:\n      swap2\n      pop\n      pop\n        /* \"contracts/Blockchain_Assignment_3/Task_Codes/as3_task11.sol\":940:1070  for (uint256 i = 2; i * i <= num; i++) {... */\n      jump(tag_42)\n    tag_43:\n      pop\n        /* \"contracts/Blockchain_Assignment_3/Task_Codes/as3_task11.sol\":1087:1091  true */\n      0x01\n        /* \"contracts/Blockchain_Assignment_3/Task_Codes/as3_task11.sol\":1080:1091  return true */\n      swap1\n      pop\n        /* \"contracts/Blockchain_Assignment_3/Task_Codes/as3_task11.sol\":808:1099  function isPrime(uint256 num) internal pure returns (bool) {... */\n    tag_40:\n      swap2\n      swap1\n      pop\n      jump\t// out\n        /* \"#utility.yul\":88:205   */\n    tag_52:\n        /* \"#utility.yul\":197:198   */\n      0x00\n        /* \"#utility.yul\":194:195   */\n      dup1\n        /* \"#utility.yul\":187:199   */\n      revert\n        /* \"#utility.yul\":334:411   */\n    tag_54:\n        /* \"#utility.yul\":371:378   */\n      0x00\n        /* \"#utility.yul\":400:405   */\n      dup2\n        /* \"#utility.yul\":389:405   */\n      swap1\n      pop\n        /* \"#utility.yul\":334:411   */\n      swap2\n      swap1\n      pop\n      jump\t// out\n        /* \"#utility.yul\":417:539   */\n    tag_55:\n        /* \"#utility.yul\":490:514   */\n      tag_75\n        /* \"#utility.yul\":508:513   */\n      dup2\n        /* \"#utility.yul\":490:514   */\n      tag_54\n      jump\t// in\n    tag_75:\n        /* \"#utility.yul\":483:488   */\n      dup2\n        /* \"#utility.yul\":480:515   */\n      eq\n        /* \"#utility.yul\":470:533   */\n      tag_76\n      jumpi\n        /* \"#utility.yul\":529:530   */\n      0x00\n        /* \"#utility.yul\":526:527   */\n      dup1\n        /* \"#utility.yul\":519:531   */\n      revert\n        /* \"#utility.yul\":470:533   */\n    tag_76:\n        /* \"#utility.yul\":417:539   */\n      pop\n      jump\t// out\n        /* \"#utility.yul\":545:684   */\n    tag_56:\n        /* \"#utility.yul\":591:596   */\n      0x00\n        /* \"#utility.yul\":629:635   */\n      dup2\n        /* \"#utility.yul\":616:636   */\n      calldataload\n        /* \"#utility.yul\":607:636   */\n      swap1\n      pop\n        /* \"#utility.yul\":645:678   */\n      tag_78\n        /* \"#utility.yul\":672:677   */\n      dup2\n        /* \"#utility.yul\":645:678   */\n      tag_55\n      jump\t// in\n    tag_78:\n        /* \"#utility.yul\":545:684   */\n      swap3\n      swap2\n      pop\n      pop\n      jump\t// out\n        /* \"#utility.yul\":690:1019   */\n    tag_6:\n        /* \"#utility.yul\":749:755   */\n      0x00\n        /* \"#utility.yul\":798:800   */\n      0x20\n        /* \"#utility.yul\":786:795   */\n      dup3\n        /* \"#utility.yul\":777:784   */\n      dup5\n        /* \"#utility.yul\":773:796   */\n      sub\n        /* \"#utility.yul\":769:801   */\n      slt\n        /* \"#utility.yul\":766:885   */\n      iszero\n      tag_80\n      jumpi\n        /* \"#utility.yul\":804:883   */\n      tag_81\n      tag_52\n      jump\t// in\n    tag_81:\n        /* \"#utility.yul\":766:885   */\n    tag_80:\n        /* \"#utility.yul\":924:925   */\n      0x00\n        /* \"#utility.yul\":949:1002   */\n      tag_82\n        /* \"#utility.yul\":994:1001   */\n      dup5\n        /* \"#utility.yul\":985:991   */\n      dup3\n        /* \"#utility.yul\":974:983   */\n      dup6\n        /* \"#utility.yul\":970:992   */\n      add\n        /* \"#utility.yul\":949:1002   */\n      tag_56\n      jump\t// in\n    tag_82:\n        /* \"#utility.yul\":939:1002   */\n      swap2\n      pop\n        /* \"#utility.yul\":895:1012   */\n      pop\n        /* \"#utility.yul\":690:1019   */\n      swap3\n      swap2\n      pop\n      pop\n      jump\t// out\n        /* \"#utility.yul\":1025:1139   */\n    tag_57:\n        /* \"#utility.yul\":1092:1098   */\n      0x00\n        /* \"#utility.yul\":1126:1131   */\n      dup2\n        /* \"#utility.yul\":1120:1132   */\n      mload\n        /* \"#utility.yul\":1110:1132   */\n      swap1\n      pop\n        /* \"#utility.yul\":1025:1139   */\n      swap2\n      swap1\n      pop\n      jump\t// out\n        /* \"#utility.yul\":1145:1329   */\n    tag_58:\n        /* \"#utility.yul\":1244:1255   */\n      0x00\n        /* \"#utility.yul\":1278:1284   */\n      dup3\n        /* \"#utility.yul\":1273:1276   */\n      dup3\n        /* \"#utility.yul\":1266:1285   */\n      mstore\n        /* \"#utility.yul\":1318:1322   */\n      0x20\n        /* \"#utility.yul\":1313:1316   */\n      dup3\n        /* \"#utility.yul\":1309:1323   */\n      add\n        /* \"#utility.yul\":1294:1323   */\n      swap1\n      pop\n        /* \"#utility.yul\":1145:1329   */\n      swap3\n      swap2\n      pop\n      pop\n      jump\t// out\n        /* \"#utility.yul\":1335:1467   */\n    tag_59:\n        /* \"#utility.yul\":1402:1406   */\n      0x00\n        /* \"#utility.yul\":1425:1428   */\n      dup2\n        /* \"#utility.yul\":1417:1428   */\n      swap1\n      pop\n        /* \"#utility.yul\":1455:1459   */\n      0x20\n        /* \"#utility.yul\":1450:1453   */\n      dup3\n        /* \"#utility.yul\":1446:1460   */\n      add\n        /* \"#utility.yul\":1438:1460   */\n      swap1\n      pop\n        /* \"#utility.yul\":1335:1467   */\n      swap2\n      swap1\n      pop\n      jump\t// out\n        /* \"#utility.yul\":1473:1581   */\n    tag_60:\n        /* \"#utility.yul\":1550:1574   */\n      tag_87\n        /* \"#utility.yul\":1568:1573   */\n      dup2\n        /* \"#utility.yul\":1550:1574   */\n      tag_54\n      jump\t// in\n    tag_87:\n        /* \"#utility.yul\":1545:1548   */\n      dup3\n        /* \"#utility.yul\":1538:1575   */\n      mstore\n        /* \"#utility.yul\":1473:1581   */\n      pop\n      pop\n      jump\t// out\n        /* \"#utility.yul\":1587:1766   */\n    tag_61:\n        /* \"#utility.yul\":1656:1666   */\n      0x00\n        /* \"#utility.yul\":1677:1723   */\n      tag_89\n        /* \"#utility.yul\":1719:1722   */\n      dup4\n        /* \"#utility.yul\":1711:1717   */\n      dup4\n        /* \"#utility.yul\":1677:1723   */\n      tag_60\n      jump\t// in\n    tag_89:\n        /* \"#utility.yul\":1755:1759   */\n      0x20\n        /* \"#utility.yul\":1750:1753   */\n      dup4\n        /* \"#utility.yul\":1746:1760   */\n      add\n        /* \"#utility.yul\":1732:1760   */\n      swap1\n      pop\n        /* \"#utility.yul\":1587:1766   */\n      swap3\n      swap2\n      pop\n      pop\n      jump\t// out\n        /* \"#utility.yul\":1772:1885   */\n    tag_62:\n        /* \"#utility.yul\":1842:1846   */\n      0x00\n        /* \"#utility.yul\":1874:1878   */\n      0x20\n        /* \"#utility.yul\":1869:1872   */\n      dup3\n        /* \"#utility.yul\":1865:1879   */\n      add\n        /* \"#utility.yul\":1857:1879   */\n      swap1\n      pop\n        /* \"#utility.yul\":1772:1885   */\n      swap2\n      swap1\n      pop\n      jump\t// out\n        /* \"#utility.yul\":1921:2653   */\n    tag_63:\n        /* \"#utility.yul\":2040:2043   */\n      0x00\n        /* \"#utility.yul\":2069:2123   */\n      tag_92\n        /* \"#utility.yul\":2117:2122   */\n      dup3\n        /* \"#utility.yul\":2069:2123   */\n      tag_57\n      jump\t// in\n    tag_92:\n        /* \"#utility.yul\":2139:2225   */\n      tag_93\n        /* \"#utility.yul\":2218:2224   */\n      dup2\n        /* \"#utility.yul\":2213:2216   */\n      dup6\n        /* \"#utility.yul\":2139:2225   */\n      tag_58\n      jump\t// in\n    tag_93:\n        /* \"#utility.yul\":2132:2225   */\n      swap4\n      pop\n        /* \"#utility.yul\":2249:2305   */\n      tag_94\n        /* \"#utility.yul\":2299:2304   */\n      dup4\n        /* \"#utility.yul\":2249:2305   */\n      tag_59\n      jump\t// in\n    tag_94:\n        /* \"#utility.yul\":2328:2335   */\n      dup1\n        /* \"#utility.yul\":2359:2360   */\n      0x00\n        /* \"#utility.yul\":2344:2628   */\n    tag_95:\n        /* \"#utility.yul\":2369:2375   */\n      dup4\n        /* \"#utility.yul\":2366:2367   */\n      dup2\n        /* \"#utility.yul\":2363:2376   */\n      lt\n        /* \"#utility.yul\":2344:2628   */\n      iszero\n      tag_97\n      jumpi\n        /* \"#utility.yul\":2445:2451   */\n      dup2\n        /* \"#utility.yul\":2439:2452   */\n      mload\n        /* \"#utility.yul\":2472:2535   */\n      tag_98\n        /* \"#utility.yul\":2531:2534   */\n      dup9\n        /* \"#utility.yul\":2516:2529   */\n      dup3\n        /* \"#utility.yul\":2472:2535   */\n      tag_61\n      jump\t// in\n    tag_98:\n        /* \"#utility.yul\":2465:2535   */\n      swap8\n      pop\n        /* \"#utility.yul\":2558:2618   */\n      tag_99\n        /* \"#utility.yul\":2611:2617   */\n      dup4\n        /* \"#utility.yul\":2558:2618   */\n      tag_62\n      jump\t// in\n    tag_99:\n        /* \"#utility.yul\":2548:2618   */\n      swap3\n      pop\n        /* \"#utility.yul\":2404:2628   */\n      pop\n        /* \"#utility.yul\":2391:2392   */\n      0x01\n        /* \"#utility.yul\":2388:2389   */\n      dup2\n        /* \"#utility.yul\":2384:2393   */\n      add\n        /* \"#utility.yul\":2379:2393   */\n      swap1\n      pop\n        /* \"#utility.yul\":2344:2628   */\n      jump(tag_95)\n    tag_97:\n        /* \"#utility.yul\":2348:2362   */\n      pop\n        /* \"#utility.yul\":2644:2647   */\n      dup6\n        /* \"#utility.yul\":2637:2647   */\n      swap4\n      pop\n        /* \"#utility.yul\":2045:2653   */\n      pop\n      pop\n      pop\n        /* \"#utility.yul\":1921:2653   */\n      swap3\n      swap2\n      pop\n      pop\n      jump\t// out\n        /* \"#utility.yul\":2659:3032   */\n    tag_9:\n        /* \"#utility.yul\":2802:2806   */\n      0x00\n        /* \"#utility.yul\":2840:2842   */\n      0x20\n        /* \"#utility.yul\":2829:2838   */\n      dup3\n        /* \"#utility.yul\":2825:2843   */\n      add\n        /* \"#utility.yul\":2817:2843   */\n      swap1\n      pop\n        /* \"#utility.yul\":2889:2898   */\n      dup2\n        /* \"#utility.yul\":2883:2887   */\n      dup2\n        /* \"#utility.yul\":2879:2899   */\n      sub\n        /* \"#utility.yul\":2875:2876   */\n      0x00\n        /* \"#utility.yul\":2864:2873   */\n      dup4\n        /* \"#utility.yul\":2860:2877   */\n      add\n        /* \"#utility.yul\":2853:2900   */\n      mstore\n        /* \"#utility.yul\":2917:3025   */\n      tag_101\n        /* \"#utility.yul\":3020:3024   */\n      dup2\n        /* \"#utility.yul\":3011:3017   */\n      dup5\n        /* \"#utility.yul\":2917:3025   */\n      tag_63\n      jump\t// in\n    tag_101:\n        /* \"#utility.yul\":2909:3025   */\n      swap1\n      pop\n        /* \"#utility.yul\":2659:3032   */\n      swap3\n      swap2\n      pop\n      pop\n      jump\t// out\n        /* \"#utility.yul\":3038:3207   */\n    tag_64:\n        /* \"#utility.yul\":3122:3133   */\n      0x00\n        /* \"#utility.yul\":3156:3162   */\n      dup3\n        /* \"#utility.yul\":3151:3154   */\n      dup3\n        /* \"#utility.yul\":3144:3163   */\n      mstore\n        /* \"#utility.yul\":3196:3200   */\n      0x20\n        /* \"#utility.yul\":3191:3194   */\n      dup3\n        /* \"#utility.yul\":3187:3201   */\n      add\n        /* \"#utility.yul\":3172:3201   */\n      swap1\n      pop\n        /* \"#utility.yul\":3038:3207   */\n      swap3\n      swap2\n      pop\n      pop\n      jump\t// out\n        /* \"#utility.yul\":3213:3394   */\n    tag_65:\n        /* \"#utility.yul\":3353:3386   */\n      0x546865726520617265206e6f207072696d6573206c657373207468616e203200\n        /* \"#utility.yul\":3349:3350   */\n      0x00\n        /* \"#utility.yul\":3341:3347   */\n      dup3\n        /* \"#utility.yul\":3337:3351   */\n      add\n        /* \"#utility.yul\":3330:3387   */\n      mstore\n        /* \"#utility.yul\":3213:3394   */\n      pop\n      jump\t// out\n        /* \"#utility.yul\":3400:3766   */\n    tag_66:\n        /* \"#utility.yul\":3542:3545   */\n      0x00\n        /* \"#utility.yul\":3563:3630   */\n      tag_105\n        /* \"#utility.yul\":3627:3629   */\n      0x1f\n        /* \"#utility.yul\":3622:3625   */\n      dup4\n        /* \"#utility.yul\":3563:3630   */\n      tag_64\n      jump\t// in\n    tag_105:\n        /* \"#utility.yul\":3556:3630   */\n      swap2\n      pop\n        /* \"#utility.yul\":3639:3732   */\n      tag_106\n        /* \"#utility.yul\":3728:3731   */\n      dup3\n        /* \"#utility.yul\":3639:3732   */\n      tag_65\n      jump\t// in\n    tag_106:\n        /* \"#utility.yul\":3757:3759   */\n      0x20\n        /* \"#utility.yul\":3752:3755   */\n      dup3\n        /* \"#utility.yul\":3748:3760   */\n      add\n        /* \"#utility.yul\":3741:3760   */\n      swap1\n      pop\n        /* \"#utility.yul\":3400:3766   */\n      swap2\n      swap1\n      pop\n      jump\t// out\n        /* \"#utility.yul\":3772:4191   */\n    tag_13:\n        /* \"#utility.yul\":3938:3942   */\n      0x00\n        /* \"#utility.yul\":3976:3978   */\n      0x20\n        /* \"#utility.yul\":3965:3974   */\n      dup3\n        /* \"#utility.yul\":3961:3979   */\n      add\n        /* \"#utility.yul\":3953:3979   */\n      swap1\n      pop\n        /* \"#utility.yul\":4025:4034   */\n      dup2\n        /* \"#utility.yul\":4019:4023   */\n      dup2\n        /* \"#utility.yul\":4015:4035   */\n      sub\n        /* \"#utility.yul\":4011:4012   */\n      0x00\n        /* \"#utility.yul\":4000:4009   */\n      dup4\n        /* \"#utility.yul\":3996:4013   */\n      add\n        /* \"#utility.yul\":3989:4036   */\n      mstore\n        /* \"#utility.yul\":4053:4184   */\n      tag_108\n        /* \"#utility.yul\":4179:4183   */\n      dup2\n        /* \"#utility.yul\":4053:4184   */\n      tag_66\n      jump\t// in\n    tag_108:\n        /* \"#utility.yul\":4045:4184   */\n      swap1\n      pop\n        /* \"#utility.yul\":3772:4191   */\n      swap2\n      swap1\n      pop\n      jump\t// out\n        /* \"#utility.yul\":4197:4377   */\n    tag_16:\n        /* \"#utility.yul\":4245:4322   */\n      0x4e487b7100000000000000000000000000000000000000000000000000000000\n        /* \"#utility.yul\":4242:4243   */\n      0x00\n        /* \"#utility.yul\":4235:4323   */\n      mstore\n        /* \"#utility.yul\":4342:4346   */\n      0x41\n        /* \"#utility.yul\":4339:4340   */\n      0x04\n        /* \"#utility.yul\":4332:4347   */\n      mstore\n        /* \"#utility.yul\":4366:4370   */\n      0x24\n        /* \"#utility.yul\":4363:4364   */\n      0x00\n        /* \"#utility.yul\":4356:4371   */\n      revert\n        /* \"#utility.yul\":4383:4563   */\n    tag_26:\n        /* \"#utility.yul\":4431:4508   */\n      0x4e487b7100000000000000000000000000000000000000000000000000000000\n        /* \"#utility.yul\":4428:4429   */\n      0x00\n        /* \"#utility.yul\":4421:4509   */\n      mstore\n        /* \"#utility.yul\":4528:4532   */\n      0x32\n        /* \"#utility.yul\":4525:4526   */\n      0x04\n        /* \"#utility.yul\":4518:4533   */\n      mstore\n        /* \"#utility.yul\":4552:4556   */\n      0x24\n        /* \"#utility.yul\":4549:4550   */\n      0x00\n        /* \"#utility.yul\":4542:4557   */\n      revert\n        /* \"#utility.yul\":4569:4749   */\n    tag_67:\n        /* \"#utility.yul\":4617:4694   */\n      0x4e487b7100000000000000000000000000000000000000000000000000000000\n        /* \"#utility.yul\":4614:4615   */\n      0x00\n        /* \"#utility.yul\":4607:4695   */\n      mstore\n        /* \"#utility.yul\":4714:4718   */\n      0x11\n        /* \"#utility.yul\":4711:4712   */\n      0x04\n        /* \"#utility.yul\":4704:4719   */\n      mstore\n        /* \"#utility.yul\":4738:4742   */\n      0x24\n        /* \"#utility.yul\":4735:4736   */\n      0x00\n        /* \"#utility.yul\":4728:4743   */\n      revert\n        /* \"#utility.yul\":4755:4988   */\n    tag_28:\n        /* \"#utility.yul\":4794:4797   */\n      0x00\n        /* \"#utility.yul\":4817:4841   */\n      tag_113\n        /* \"#utility.yul\":4835:4840   */\n      dup3\n        /* \"#utility.yul\":4817:4841   */\n      tag_54\n      jump\t// in\n    tag_113:\n        /* \"#utility.yul\":4808:4841   */\n      swap2\n      pop\n        /* \"#utility.yul\":4863:4929   */\n      0xffffffffffffffffffffffffffffffffffffffffffffffffffffffffffffffff\n        /* \"#utility.yul\":4856:4861   */\n      dup3\n        /* \"#utility.yul\":4853:4930   */\n      sub\n        /* \"#utility.yul\":4850:4953   */\n      tag_114\n      jumpi\n        /* \"#utility.yul\":4933:4951   */\n      tag_115\n      tag_67\n      jump\t// in\n    tag_115:\n        /* \"#utility.yul\":4850:4953   */\n    tag_114:\n        /* \"#utility.yul\":4980:4981   */\n      0x01\n        /* \"#utility.yul\":4973:4978   */\n      dup3\n        /* \"#utility.yul\":4969:4982   */\n      add\n        /* \"#utility.yul\":4962:4982   */\n      swap1\n      pop\n        /* \"#utility.yul\":4755:4988   */\n      swap2\n      swap1\n      pop\n      jump\t// out\n        /* \"#utility.yul\":4994:5404   */\n    tag_46:\n        /* \"#utility.yul\":5034:5041   */\n      0x00\n        /* \"#utility.yul\":5057:5077   */\n      tag_117\n        /* \"#utility.yul\":5075:5076   */\n      dup3\n        /* \"#utility.yul\":5057:5077   */\n      tag_54\n      jump\t// in\n    tag_117:\n        /* \"#utility.yul\":5052:5077   */\n      swap2\n      pop\n        /* \"#utility.yul\":5091:5111   */\n      tag_118\n        /* \"#utility.yul\":5109:5110   */\n      dup4\n        /* \"#utility.yul\":5091:5111   */\n      tag_54\n      jump\t// in\n    tag_118:\n        /* \"#utility.yul\":5086:5111   */\n      swap3\n      pop\n        /* \"#utility.yul\":5146:5147   */\n      dup3\n        /* \"#utility.yul\":5143:5144   */\n      dup3\n        /* \"#utility.yul\":5139:5148   */\n      mul\n        /* \"#utility.yul\":5168:5198   */\n      tag_119\n        /* \"#utility.yul\":5186:5197   */\n      dup2\n        /* \"#utility.yul\":5168:5198   */\n      tag_54\n      jump\t// in\n    tag_119:\n        /* \"#utility.yul\":5157:5198   */\n      swap2\n      pop\n        /* \"#utility.yul\":5347:5348   */\n      dup3\n        /* \"#utility.yul\":5338:5345   */\n      dup3\n        /* \"#utility.yul\":5334:5349   */\n      div\n        /* \"#utility.yul\":5331:5332   */\n      dup5\n        /* \"#utility.yul\":5328:5350   */\n      eq\n        /* \"#utility.yul\":5308:5309   */\n      dup4\n        /* \"#utility.yul\":5301:5310   */\n      iszero\n        /* \"#utility.yul\":5281:5364   */\n      or\n        /* \"#utility.yul\":5258:5397   */\n      tag_120\n      jumpi\n        /* \"#utility.yul\":5377:5395   */\n      tag_121\n      tag_67\n      jump\t// in\n    tag_121:\n        /* \"#utility.yul\":5258:5397   */\n    tag_120:\n        /* \"#utility.yul\":5042:5404   */\n      pop\n        /* \"#utility.yul\":4994:5404   */\n      swap3\n      swap2\n      pop\n      pop\n      jump\t// out\n        /* \"#utility.yul\":5410:5590   */\n    tag_68:\n        /* \"#utility.yul\":5458:5535   */\n      0x4e487b7100000000000000000000000000000000000000000000000000000000\n        /* \"#utility.yul\":5455:5456   */\n      0x00\n        /* \"#utility.yul\":5448:5536   */\n      mstore\n        /* \"#utility.yul\":5555:5559   */\n      0x12\n        /* \"#utility.yul\":5552:5553   */\n      0x04\n        /* \"#utility.yul\":5545:5560   */\n      mstore\n        /* \"#utility.yul\":5579:5583   */\n      0x24\n        /* \"#utility.yul\":5576:5577   */\n      0x00\n        /* \"#utility.yul\":5569:5584   */\n      revert\n        /* \"#utility.yul\":5596:5772   */\n    tag_48:\n        /* \"#utility.yul\":5628:5629   */\n      0x00\n        /* \"#utility.yul\":5645:5665   */\n      tag_124\n        /* \"#utility.yul\":5663:5664   */\n      dup3\n        /* \"#utility.yul\":5645:5665   */\n      tag_54\n      jump\t// in\n    tag_124:\n        /* \"#utility.yul\":5640:5665   */\n      swap2\n      pop\n        /* \"#utility.yul\":5679:5699   */\n      tag_125\n        /* \"#utility.yul\":5697:5698   */\n      dup4\n        /* \"#utility.yul\":5679:5699   */\n      tag_54\n      jump\t// in\n    tag_125:\n        /* \"#utility.yul\":5674:5699   */\n      swap3\n      pop\n        /* \"#utility.yul\":5718:5719   */\n      dup3\n        /* \"#utility.yul\":5708:5743   */\n      tag_126\n      jumpi\n        /* \"#utility.yul\":5723:5741   */\n      tag_127\n      tag_68\n      jump\t// in\n    tag_127:\n        /* \"#utility.yul\":5708:5743   */\n    tag_126:\n        /* \"#utility.yul\":5764:5765   */\n      dup3\n        /* \"#utility.yul\":5761:5762   */\n      dup3\n        /* \"#utility.yul\":5757:5766   */\n      mod\n        /* \"#utility.yul\":5752:5766   */\n      swap1\n      pop\n        /* \"#utility.yul\":5596:5772   */\n      swap3\n      swap2\n      pop\n      pop\n      jump\t// out\n\n    auxdata: 0xa264697066735822122040be38ba5dd4ef63b57edf24f8d9b0af9bb29d5b60873b2c2d3e1aab8fbc284864736f6c634300081a0033\n}\n",
				"bytecode": {
					"linkReferences": {},
					"object": "6080604052348015600e575f80fd5b506105ad8061001c5f395ff3fe608060405234801561000f575f80fd5b5060043610610029575f3560e01c8063faefc6911461002d575b5f80fd5b61004760048036038101906100429190610291565b61005d565b6040516100549190610373565b60405180910390f35b606060028210156100a3576040517f08c379a000000000000000000000000000000000000000000000000000000000815260040161009a906103ed565b60405180910390fd5b5f8267ffffffffffffffff8111156100be576100bd61040b565b5b6040519080825280602002602001820160405280156100ec5781602001602082028036833780820191505090505b5090505f80600290505b84811161014d57610106816101f7565b1561013a578083838151811061011f5761011e610438565b5b602002602001018181525050818061013690610492565b9250505b808061014590610492565b9150506100f6565b505f8167ffffffffffffffff8111156101695761016861040b565b5b6040519080825280602002602001820160405280156101975781602001602082028036833780820191505090505b5090505f5b828110156101eb578381815181106101b7576101b6610438565b5b60200260200101518282815181106101d2576101d1610438565b5b602002602001018181525050808060010191505061019c565b50809350505050919050565b5f6002821015610209575f9050610255565b5f600290505b82818261021c91906104d9565b1161024f575f818461022e9190610547565b0361023c575f915050610255565b808061024790610492565b91505061020f565b50600190505b919050565b5f80fd5b5f819050919050565b6102708161025e565b811461027a575f80fd5b50565b5f8135905061028b81610267565b92915050565b5f602082840312156102a6576102a561025a565b5b5f6102b38482850161027d565b91505092915050565b5f81519050919050565b5f82825260208201905092915050565b5f819050602082019050919050565b6102ee8161025e565b82525050565b5f6102ff83836102e5565b60208301905092915050565b5f602082019050919050565b5f610321826102bc565b61032b81856102c6565b9350610336836102d6565b805f5b8381101561036657815161034d88826102f4565b97506103588361030b565b925050600181019050610339565b5085935050505092915050565b5f6020820190508181035f83015261038b8184610317565b905092915050565b5f82825260208201905092915050565b7f546865726520617265206e6f207072696d6573206c657373207468616e2032005f82015250565b5f6103d7601f83610393565b91506103e2826103a3565b602082019050919050565b5f6020820190508181035f830152610404816103cb565b9050919050565b7f4e487b71000000000000000000000000000000000000000000000000000000005f52604160045260245ffd5b7f4e487b71000000000000000000000000000000000000000000000000000000005f52603260045260245ffd5b7f4e487b71000000000000000000000000000000000000000000000000000000005f52601160045260245ffd5b5f61049c8261025e565b91507fffffffffffffffffffffffffffffffffffffffffffffffffffffffffffffffff82036104ce576104cd610465565b5b600182019050919050565b5f6104e38261025e565b91506104ee8361025e565b92508282026104fc8161025e565b9150828204841483151761051357610512610465565b5b5092915050565b7f4e487b71000000000000000000000000000000000000000000000000000000005f52601260045260245ffd5b5f6105518261025e565b915061055c8361025e565b92508261056c5761056b61051a565b5b82820690509291505056fea264697066735822122040be38ba5dd4ef63b57edf24f8d9b0af9bb29d5b60873b2c2d3e1aab8fbc284864736f6c634300081a0033",
					"opcodes": "PUSH1 0x80 PUSH1 0x40 MSTORE CALLVALUE DUP1 ISZERO PUSH1 0xE JUMPI PUSH0 DUP1 REVERT JUMPDEST POP PUSH2 0x5AD DUP1 PUSH2 0x1C PUSH0 CODECOPY PUSH0 RETURN INVALID PUSH1 0x80 PUSH1 0x40 MSTORE CALLVALUE DUP1 ISZERO PUSH2 0xF JUMPI PUSH0 DUP1 REVERT JUMPDEST POP PUSH1 0x4 CALLDATASIZE LT PUSH2 0x29 JUMPI PUSH0 CALLDATALOAD PUSH1 0xE0 SHR DUP1 PUSH4 0xFAEFC691 EQ PUSH2 0x2D JUMPI JUMPDEST PUSH0 DUP1 REVERT JUMPDEST PUSH2 0x47 PUSH1 0x4 DUP1 CALLDATASIZE SUB DUP2 ADD SWAP1 PUSH2 0x42 SWAP2 SWAP1 PUSH2 0x291 JUMP JUMPDEST PUSH2 0x5D JUMP JUMPDEST PUSH1 0x40 MLOAD PUSH2 0x54 SWAP2 SWAP1 PUSH2 0x373 JUMP JUMPDEST PUSH1 0x40 MLOAD DUP1 SWAP2 SUB SWAP1 RETURN JUMPDEST PUSH1 0x60 PUSH1 0x2 DUP3 LT ISZERO PUSH2 0xA3 JUMPI PUSH1 0x40 MLOAD PUSH32 0x8C379A000000000000000000000000000000000000000000000000000000000 DUP2 MSTORE PUSH1 0x4 ADD PUSH2 0x9A SWAP1 PUSH2 0x3ED JUMP JUMPDEST PUSH1 0x40 MLOAD DUP1 SWAP2 SUB SWAP1 REVERT JUMPDEST PUSH0 DUP3 PUSH8 0xFFFFFFFFFFFFFFFF DUP2 GT ISZERO PUSH2 0xBE JUMPI PUSH2 0xBD PUSH2 0x40B JUMP JUMPDEST JUMPDEST PUSH1 0x40 MLOAD SWAP1 DUP1 DUP3 MSTORE DUP1 PUSH1 0x20 MUL PUSH1 0x20 ADD DUP3 ADD PUSH1 0x40 MSTORE DUP1 ISZERO PUSH2 0xEC JUMPI DUP2 PUSH1 0x20 ADD PUSH1 0x20 DUP3 MUL DUP1 CALLDATASIZE DUP4 CALLDATACOPY DUP1 DUP3 ADD SWAP2 POP POP SWAP1 POP JUMPDEST POP SWAP1 POP PUSH0 DUP1 PUSH1 0x2 SWAP1 POP JUMPDEST DUP5 DUP2 GT PUSH2 0x14D JUMPI PUSH2 0x106 DUP2 PUSH2 0x1F7 JUMP JUMPDEST ISZERO PUSH2 0x13A JUMPI DUP1 DUP4 DUP4 DUP2 MLOAD DUP2 LT PUSH2 0x11F JUMPI PUSH2 0x11E PUSH2 0x438 JUMP JUMPDEST JUMPDEST PUSH1 0x20 MUL PUSH1 0x20 ADD ADD DUP2 DUP2 MSTORE POP POP DUP2 DUP1 PUSH2 0x136 SWAP1 PUSH2 0x492 JUMP JUMPDEST SWAP3 POP POP JUMPDEST DUP1 DUP1 PUSH2 0x145 SWAP1 PUSH2 0x492 JUMP JUMPDEST SWAP2 POP POP PUSH2 0xF6 JUMP JUMPDEST POP PUSH0 DUP2 PUSH8 0xFFFFFFFFFFFFFFFF DUP2 GT ISZERO PUSH2 0x169 JUMPI PUSH2 0x168 PUSH2 0x40B JUMP JUMPDEST JUMPDEST PUSH1 0x40 MLOAD SWAP1 DUP1 DUP3 MSTORE DUP1 PUSH1 0x20 MUL PUSH1 0x20 ADD DUP3 ADD PUSH1 0x40 MSTORE DUP1 ISZERO PUSH2 0x197 JUMPI DUP2 PUSH1 0x20 ADD PUSH1 0x20 DUP3 MUL DUP1 CALLDATASIZE DUP4 CALLDATACOPY DUP1 DUP3 ADD SWAP2 POP POP SWAP1 POP JUMPDEST POP SWAP1 POP PUSH0 JUMPDEST DUP3 DUP2 LT ISZERO PUSH2 0x1EB JUMPI DUP4 DUP2 DUP2 MLOAD DUP2 LT PUSH2 0x1B7 JUMPI PUSH2 0x1B6 PUSH2 0x438 JUMP JUMPDEST JUMPDEST PUSH1 0x20 MUL PUSH1 0x20 ADD ADD MLOAD DUP3 DUP3 DUP2 MLOAD DUP2 LT PUSH2 0x1D2 JUMPI PUSH2 0x1D1 PUSH2 0x438 JUMP JUMPDEST JUMPDEST PUSH1 0x20 MUL PUSH1 0x20 ADD ADD DUP2 DUP2 MSTORE POP POP DUP1 DUP1 PUSH1 0x1 ADD SWAP2 POP POP PUSH2 0x19C JUMP JUMPDEST POP DUP1 SWAP4 POP POP POP POP SWAP2 SWAP1 POP JUMP JUMPDEST PUSH0 PUSH1 0x2 DUP3 LT ISZERO PUSH2 0x209 JUMPI PUSH0 SWAP1 POP PUSH2 0x255 JUMP JUMPDEST PUSH0 PUSH1 0x2 SWAP1 POP JUMPDEST DUP3 DUP2 DUP3 PUSH2 0x21C SWAP2 SWAP1 PUSH2 0x4D9 JUMP JUMPDEST GT PUSH2 0x24F JUMPI PUSH0 DUP2 DUP5 PUSH2 0x22E SWAP2 SWAP1 PUSH2 0x547 JUMP JUMPDEST SUB PUSH2 0x23C JUMPI PUSH0 SWAP2 POP POP PUSH2 0x255 JUMP JUMPDEST DUP1 DUP1 PUSH2 0x247 SWAP1 PUSH2 0x492 JUMP JUMPDEST SWAP2 POP POP PUSH2 0x20F JUMP JUMPDEST POP PUSH1 0x1 SWAP1 POP JUMPDEST SWAP2 SWAP1 POP JUMP JUMPDEST PUSH0 DUP1 REVERT JUMPDEST PUSH0 DUP2 SWAP1 POP SWAP2 SWAP1 POP JUMP JUMPDEST PUSH2 0x270 DUP2 PUSH2 0x25E JUMP JUMPDEST DUP2 EQ PUSH2 0x27A JUMPI PUSH0 DUP1 REVERT JUMPDEST POP JUMP JUMPDEST PUSH0 DUP2 CALLDATALOAD SWAP1 POP PUSH2 0x28B DUP2 PUSH2 0x267 JUMP JUMPDEST SWAP3 SWAP2 POP POP JUMP JUMPDEST PUSH0 PUSH1 0x20 DUP3 DUP5 SUB SLT ISZERO PUSH2 0x2A6 JUMPI PUSH2 0x2A5 PUSH2 0x25A JUMP JUMPDEST JUMPDEST PUSH0 PUSH2 0x2B3 DUP5 DUP3 DUP6 ADD PUSH2 0x27D JUMP JUMPDEST SWAP2 POP POP SWAP3 SWAP2 POP POP JUMP JUMPDEST PUSH0 DUP2 MLOAD SWAP1 POP SWAP2 SWAP1 POP JUMP JUMPDEST PUSH0 DUP3 DUP3 MSTORE PUSH1 0x20 DUP3 ADD SWAP1 POP SWAP3 SWAP2 POP POP JUMP JUMPDEST PUSH0 DUP2 SWAP1 POP PUSH1 0x20 DUP3 ADD SWAP1 POP SWAP2 SWAP1 POP JUMP JUMPDEST PUSH2 0x2EE DUP2 PUSH2 0x25E JUMP JUMPDEST DUP3 MSTORE POP POP JUMP JUMPDEST PUSH0 PUSH2 0x2FF DUP4 DUP4 PUSH2 0x2E5 JUMP JUMPDEST PUSH1 0x20 DUP4 ADD SWAP1 POP SWAP3 SWAP2 POP POP JUMP JUMPDEST PUSH0 PUSH1 0x20 DUP3 ADD SWAP1 POP SWAP2 SWAP1 POP JUMP JUMPDEST PUSH0 PUSH2 0x321 DUP3 PUSH2 0x2BC JUMP JUMPDEST PUSH2 0x32B DUP2 DUP6 PUSH2 0x2C6 JUMP JUMPDEST SWAP4 POP PUSH2 0x336 DUP4 PUSH2 0x2D6 JUMP JUMPDEST DUP1 PUSH0 JUMPDEST DUP4 DUP2 LT ISZERO PUSH2 0x366 JUMPI DUP2 MLOAD PUSH2 0x34D DUP9 DUP3 PUSH2 0x2F4 JUMP JUMPDEST SWAP8 POP PUSH2 0x358 DUP4 PUSH2 0x30B JUMP JUMPDEST SWAP3 POP POP PUSH1 0x1 DUP2 ADD SWAP1 POP PUSH2 0x339 JUMP JUMPDEST POP DUP6 SWAP4 POP POP POP POP SWAP3 SWAP2 POP POP JUMP JUMPDEST PUSH0 PUSH1 0x20 DUP3 ADD SWAP1 POP DUP2 DUP2 SUB PUSH0 DUP4 ADD MSTORE PUSH2 0x38B DUP2 DUP5 PUSH2 0x317 JUMP JUMPDEST SWAP1 POP SWAP3 SWAP2 POP POP JUMP JUMPDEST PUSH0 DUP3 DUP3 MSTORE PUSH1 0x20 DUP3 ADD SWAP1 POP SWAP3 SWAP2 POP POP JUMP JUMPDEST PUSH32 0x546865726520617265206E6F207072696D6573206C657373207468616E203200 PUSH0 DUP3 ADD MSTORE POP JUMP JUMPDEST PUSH0 PUSH2 0x3D7 PUSH1 0x1F DUP4 PUSH2 0x393 JUMP JUMPDEST SWAP2 POP PUSH2 0x3E2 DUP3 PUSH2 0x3A3 JUMP JUMPDEST PUSH1 0x20 DUP3 ADD SWAP1 POP SWAP2 SWAP1 POP JUMP JUMPDEST PUSH0 PUSH1 0x20 DUP3 ADD SWAP1 POP DUP2 DUP2 SUB PUSH0 DUP4 ADD MSTORE PUSH2 0x404 DUP2 PUSH2 0x3CB JUMP JUMPDEST SWAP1 POP SWAP2 SWAP1 POP JUMP JUMPDEST PUSH32 0x4E487B7100000000000000000000000000000000000000000000000000000000 PUSH0 MSTORE PUSH1 0x41 PUSH1 0x4 MSTORE PUSH1 0x24 PUSH0 REVERT JUMPDEST PUSH32 0x4E487B7100000000000000000000000000000000000000000000000000000000 PUSH0 MSTORE PUSH1 0x32 PUSH1 0x4 MSTORE PUSH1 0x24 PUSH0 REVERT JUMPDEST PUSH32 0x4E487B7100000000000000000000000000000000000000000000000000000000 PUSH0 MSTORE PUSH1 0x11 PUSH1 0x4 MSTORE PUSH1 0x24 PUSH0 REVERT JUMPDEST PUSH0 PUSH2 0x49C DUP3 PUSH2 0x25E JUMP JUMPDEST SWAP2 POP PUSH32 0xFFFFFFFFFFFFFFFFFFFFFFFFFFFFFFFFFFFFFFFFFFFFFFFFFFFFFFFFFFFFFFFF DUP3 SUB PUSH2 0x4CE JUMPI PUSH2 0x4CD PUSH2 0x465 JUMP JUMPDEST JUMPDEST PUSH1 0x1 DUP3 ADD SWAP1 POP SWAP2 SWAP1 POP JUMP JUMPDEST PUSH0 PUSH2 0x4E3 DUP3 PUSH2 0x25E JUMP JUMPDEST SWAP2 POP PUSH2 0x4EE DUP4 PUSH2 0x25E JUMP JUMPDEST SWAP3 POP DUP3 DUP3 MUL PUSH2 0x4FC DUP2 PUSH2 0x25E JUMP JUMPDEST SWAP2 POP DUP3 DUP3 DIV DUP5 EQ DUP4 ISZERO OR PUSH2 0x513 JUMPI PUSH2 0x512 PUSH2 0x465 JUMP JUMPDEST JUMPDEST POP SWAP3 SWAP2 POP POP JUMP JUMPDEST PUSH32 0x4E487B7100000000000000000000000000000000000000000000000000000000 PUSH0 MSTORE PUSH1 0x12 PUSH1 0x4 MSTORE PUSH1 0x24 PUSH0 REVERT JUMPDEST PUSH0 PUSH2 0x551 DUP3 PUSH2 0x25E JUMP JUMPDEST SWAP2 POP PUSH2 0x55C DUP4 PUSH2 0x25E JUMP JUMPDEST SWAP3 POP DUP3 PUSH2 0x56C JUMPI PUSH2 0x56B PUSH2 0x51A JUMP JUMPDEST JUMPDEST DUP3 DUP3 MOD SWAP1 POP SWAP3 SWAP2 POP POP JUMP INVALID LOG2 PUSH5 0x6970667358 0x22 SLT KECCAK256 BLOCKHASH 0xBE CODESIZE 0xBA TSTORE 0xD4 0xEF PUSH4 0xB57EDF24 0xF8 0xD9 0xB0 0xAF SWAP12 0xB2 SWAP14 JUMPDEST PUSH1 0x87 EXTCODESIZE 0x2C 0x2D RETURNDATACOPY BYTE 0xAB DUP16 0xBC 0x28 BASEFEE PUSH5 0x736F6C6343 STOP ADDMOD BYTE STOP CALLER "
				},
				"gasEstimates": {
					"creation": {
						"codeDepositCost": "290600",
						"executionCost": "329",
						"totalCost": "290929"
					},
					"external": {
						"getPrimes(uint256)": "infinite"
					},
					"internal": {
						"isPrime(uint256)": "infinite"
					}
				},
				"methodIdentifiers": {
					"getPrimes(uint256)": "faefc691"
				}
			},
			"storageLayout": {
				"storage": [],
				"types": null
			},
			"userdoc": {
				"kind": "user",
				"methods": {},
				"version": 1
			}
		}
	}
}