{
	"contracts/Blockchain_Assignment_3/Task_Codes/as3_task10.sol": {
		"SortedChecker": {
			"abi": [
				{
					"inputs": [
						{
							"internalType": "int256[]",
							"name": "numbers",
							"type": "int256[]"
						}
					],
					"name": "isSorted",
					"outputs": [
						{
							"internalType": "bool",
							"name": "",
							"type": "bool"
						}
					],
					"stateMutability": "pure",
					"type": "function"
				}
			],
			"devdoc": {
				"kind": "dev",
				"methods": {},
				"version": 1
			},
			"evm": {
				"assembly": "    /* \"contracts/Blockchain_Assignment_3/Task_Codes/as3_task10.sol\":28:559  contract SortedChecker {... */\n  mstore(0x40, 0x80)\n  callvalue\n  dup1\n  iszero\n  tag_1\n  jumpi\n  0x00\n  dup1\n  revert\ntag_1:\n  pop\n  dataSize(sub_0)\n  dup1\n  dataOffset(sub_0)\n  0x00\n  codecopy\n  0x00\n  return\nstop\n\nsub_0: assembly {\n        /* \"contracts/Blockchain_Assignment_3/Task_Codes/as3_task10.sol\":28:559  contract SortedChecker {... */\n      mstore(0x40, 0x80)\n      callvalue\n      dup1\n      iszero\n      tag_1\n      jumpi\n      0x00\n      dup1\n      revert\n    tag_1:\n      pop\n      jumpi(tag_2, lt(calldatasize, 0x04))\n      shr(0xe0, calldataload(0x00))\n      dup1\n      0x52f48021\n      eq\n      tag_3\n      jumpi\n    tag_2:\n      0x00\n      dup1\n      revert\n        /* \"contracts/Blockchain_Assignment_3/Task_Codes/as3_task10.sol\":123:556  function isSorted(int256[] memory numbers) public pure returns (bool) {... */\n    tag_3:\n      tag_4\n      0x04\n      dup1\n      calldatasize\n      sub\n      dup2\n      add\n      swap1\n      tag_5\n      swap2\n      swap1\n      tag_6\n      jump\t// in\n    tag_5:\n      tag_7\n      jump\t// in\n    tag_4:\n      mload(0x40)\n      tag_8\n      swap2\n      swap1\n      tag_9\n      jump\t// in\n    tag_8:\n      mload(0x40)\n      dup1\n      swap2\n      sub\n      swap1\n      return\n    tag_7:\n        /* \"contracts/Blockchain_Assignment_3/Task_Codes/as3_task10.sol\":187:191  bool */\n      0x00\n        /* \"contracts/Blockchain_Assignment_3/Task_Codes/as3_task10.sol\":273:282  uint256 i */\n      dup1\n        /* \"contracts/Blockchain_Assignment_3/Task_Codes/as3_task10.sol\":285:286  1 */\n      0x01\n        /* \"contracts/Blockchain_Assignment_3/Task_Codes/as3_task10.sol\":273:286  uint256 i = 1 */\n      swap1\n      pop\n        /* \"contracts/Blockchain_Assignment_3/Task_Codes/as3_task10.sol\":268:484  for (uint256 i = 1; i < numbers.length; i++) {... */\n    tag_11:\n        /* \"contracts/Blockchain_Assignment_3/Task_Codes/as3_task10.sol\":292:299  numbers */\n      dup3\n        /* \"contracts/Blockchain_Assignment_3/Task_Codes/as3_task10.sol\":292:306  numbers.length */\n      mload\n        /* \"contracts/Blockchain_Assignment_3/Task_Codes/as3_task10.sol\":288:289  i */\n      dup2\n        /* \"contracts/Blockchain_Assignment_3/Task_Codes/as3_task10.sol\":288:306  i < numbers.length */\n      lt\n        /* \"contracts/Blockchain_Assignment_3/Task_Codes/as3_task10.sol\":268:484  for (uint256 i = 1; i < numbers.length; i++) {... */\n      iszero\n      tag_12\n      jumpi\n        /* \"contracts/Blockchain_Assignment_3/Task_Codes/as3_task10.sol\":345:352  numbers */\n      dup3\n        /* \"contracts/Blockchain_Assignment_3/Task_Codes/as3_task10.sol\":357:358  1 */\n      0x01\n        /* \"contracts/Blockchain_Assignment_3/Task_Codes/as3_task10.sol\":353:354  i */\n      dup3\n        /* \"contracts/Blockchain_Assignment_3/Task_Codes/as3_task10.sol\":353:358  i - 1 */\n      tag_14\n      swap2\n      swap1\n      tag_15\n      jump\t// in\n    tag_14:\n        /* \"contracts/Blockchain_Assignment_3/Task_Codes/as3_task10.sol\":345:359  numbers[i - 1] */\n      dup2\n      mload\n      dup2\n      lt\n      tag_16\n      jumpi\n      tag_17\n      tag_18\n      jump\t// in\n    tag_17:\n    tag_16:\n      0x20\n      mul\n      0x20\n      add\n      add\n      mload\n        /* \"contracts/Blockchain_Assignment_3/Task_Codes/as3_task10.sol\":332:339  numbers */\n      dup4\n        /* \"contracts/Blockchain_Assignment_3/Task_Codes/as3_task10.sol\":340:341  i */\n      dup3\n        /* \"contracts/Blockchain_Assignment_3/Task_Codes/as3_task10.sol\":332:342  numbers[i] */\n      dup2\n      mload\n      dup2\n      lt\n      tag_19\n      jumpi\n      tag_20\n      tag_18\n      jump\t// in\n    tag_20:\n    tag_19:\n      0x20\n      mul\n      0x20\n      add\n      add\n      mload\n        /* \"contracts/Blockchain_Assignment_3/Task_Codes/as3_task10.sol\":332:359  numbers[i] < numbers[i - 1] */\n      slt\n        /* \"contracts/Blockchain_Assignment_3/Task_Codes/as3_task10.sol\":328:473  if (numbers[i] < numbers[i - 1]) {... */\n      iszero\n      tag_21\n      jumpi\n        /* \"contracts/Blockchain_Assignment_3/Task_Codes/as3_task10.sol\":387:392  false */\n      0x00\n        /* \"contracts/Blockchain_Assignment_3/Task_Codes/as3_task10.sol\":380:392  return false */\n      swap2\n      pop\n      pop\n      jump(tag_10)\n        /* \"contracts/Blockchain_Assignment_3/Task_Codes/as3_task10.sol\":328:473  if (numbers[i] < numbers[i - 1]) {... */\n    tag_21:\n        /* \"contracts/Blockchain_Assignment_3/Task_Codes/as3_task10.sol\":308:311  i++ */\n      dup1\n      dup1\n      0x01\n      add\n      swap2\n      pop\n      pop\n        /* \"contracts/Blockchain_Assignment_3/Task_Codes/as3_task10.sol\":268:484  for (uint256 i = 1; i < numbers.length; i++) {... */\n      jump(tag_11)\n    tag_12:\n      pop\n        /* \"contracts/Blockchain_Assignment_3/Task_Codes/as3_task10.sol\":501:505  true */\n      0x01\n        /* \"contracts/Blockchain_Assignment_3/Task_Codes/as3_task10.sol\":494:505  return true */\n      swap1\n      pop\n        /* \"contracts/Blockchain_Assignment_3/Task_Codes/as3_task10.sol\":123:556  function isSorted(int256[] memory numbers) public pure returns (bool) {... */\n    tag_10:\n      swap2\n      swap1\n      pop\n      jump\t// out\n        /* \"#utility.yul\":7:82   */\n    tag_22:\n        /* \"#utility.yul\":40:46   */\n      0x00\n        /* \"#utility.yul\":73:75   */\n      0x40\n        /* \"#utility.yul\":67:76   */\n      mload\n        /* \"#utility.yul\":57:76   */\n      swap1\n      pop\n        /* \"#utility.yul\":7:82   */\n      swap1\n      jump\t// out\n        /* \"#utility.yul\":88:205   */\n    tag_23:\n        /* \"#utility.yul\":197:198   */\n      0x00\n        /* \"#utility.yul\":194:195   */\n      dup1\n        /* \"#utility.yul\":187:199   */\n      revert\n        /* \"#utility.yul\":211:328   */\n    tag_24:\n        /* \"#utility.yul\":320:321   */\n      0x00\n        /* \"#utility.yul\":317:318   */\n      dup1\n        /* \"#utility.yul\":310:322   */\n      revert\n        /* \"#utility.yul\":334:451   */\n    tag_25:\n        /* \"#utility.yul\":443:444   */\n      0x00\n        /* \"#utility.yul\":440:441   */\n      dup1\n        /* \"#utility.yul\":433:445   */\n      revert\n        /* \"#utility.yul\":457:559   */\n    tag_26:\n        /* \"#utility.yul\":498:504   */\n      0x00\n        /* \"#utility.yul\":549:551   */\n      0x1f\n        /* \"#utility.yul\":545:552   */\n      not\n        /* \"#utility.yul\":540:542   */\n      0x1f\n        /* \"#utility.yul\":533:538   */\n      dup4\n        /* \"#utility.yul\":529:543   */\n      add\n        /* \"#utility.yul\":525:553   */\n      and\n        /* \"#utility.yul\":515:553   */\n      swap1\n      pop\n        /* \"#utility.yul\":457:559   */\n      swap2\n      swap1\n      pop\n      jump\t// out\n        /* \"#utility.yul\":565:745   */\n    tag_27:\n        /* \"#utility.yul\":613:690   */\n      0x4e487b7100000000000000000000000000000000000000000000000000000000\n        /* \"#utility.yul\":610:611   */\n      0x00\n        /* \"#utility.yul\":603:691   */\n      mstore\n        /* \"#utility.yul\":710:714   */\n      0x41\n        /* \"#utility.yul\":707:708   */\n      0x04\n        /* \"#utility.yul\":700:715   */\n      mstore\n        /* \"#utility.yul\":734:738   */\n      0x24\n        /* \"#utility.yul\":731:732   */\n      0x00\n        /* \"#utility.yul\":724:739   */\n      revert\n        /* \"#utility.yul\":751:1032   */\n    tag_28:\n        /* \"#utility.yul\":834:861   */\n      tag_49\n        /* \"#utility.yul\":856:860   */\n      dup3\n        /* \"#utility.yul\":834:861   */\n      tag_26\n      jump\t// in\n    tag_49:\n        /* \"#utility.yul\":826:832   */\n      dup2\n        /* \"#utility.yul\":822:862   */\n      add\n        /* \"#utility.yul\":964:970   */\n      dup2\n        /* \"#utility.yul\":952:962   */\n      dup2\n        /* \"#utility.yul\":949:971   */\n      lt\n        /* \"#utility.yul\":928:946   */\n      0xffffffffffffffff\n        /* \"#utility.yul\":916:926   */\n      dup3\n        /* \"#utility.yul\":913:947   */\n      gt\n        /* \"#utility.yul\":910:972   */\n      or\n        /* \"#utility.yul\":907:995   */\n      iszero\n      tag_50\n      jumpi\n        /* \"#utility.yul\":975:993   */\n      tag_51\n      tag_27\n      jump\t// in\n    tag_51:\n        /* \"#utility.yul\":907:995   */\n    tag_50:\n        /* \"#utility.yul\":1015:1025   */\n      dup1\n        /* \"#utility.yul\":1011:1013   */\n      0x40\n        /* \"#utility.yul\":1004:1026   */\n      mstore\n        /* \"#utility.yul\":794:1032   */\n      pop\n        /* \"#utility.yul\":751:1032   */\n      pop\n      pop\n      jump\t// out\n        /* \"#utility.yul\":1038:1167   */\n    tag_29:\n        /* \"#utility.yul\":1072:1078   */\n      0x00\n        /* \"#utility.yul\":1099:1119   */\n      tag_53\n      tag_22\n      jump\t// in\n    tag_53:\n        /* \"#utility.yul\":1089:1119   */\n      swap1\n      pop\n        /* \"#utility.yul\":1128:1161   */\n      tag_54\n        /* \"#utility.yul\":1156:1160   */\n      dup3\n        /* \"#utility.yul\":1148:1154   */\n      dup3\n        /* \"#utility.yul\":1128:1161   */\n      tag_28\n      jump\t// in\n    tag_54:\n        /* \"#utility.yul\":1038:1167   */\n      swap2\n      swap1\n      pop\n      jump\t// out\n        /* \"#utility.yul\":1173:1483   */\n    tag_30:\n        /* \"#utility.yul\":1249:1253   */\n      0x00\n        /* \"#utility.yul\":1339:1357   */\n      0xffffffffffffffff\n        /* \"#utility.yul\":1331:1337   */\n      dup3\n        /* \"#utility.yul\":1328:1358   */\n      gt\n        /* \"#utility.yul\":1325:1381   */\n      iszero\n      tag_56\n      jumpi\n        /* \"#utility.yul\":1361:1379   */\n      tag_57\n      tag_27\n      jump\t// in\n    tag_57:\n        /* \"#utility.yul\":1325:1381   */\n    tag_56:\n        /* \"#utility.yul\":1411:1415   */\n      0x20\n        /* \"#utility.yul\":1403:1409   */\n      dup3\n        /* \"#utility.yul\":1399:1416   */\n      mul\n        /* \"#utility.yul\":1391:1416   */\n      swap1\n      pop\n        /* \"#utility.yul\":1471:1475   */\n      0x20\n        /* \"#utility.yul\":1465:1469   */\n      dup2\n        /* \"#utility.yul\":1461:1476   */\n      add\n        /* \"#utility.yul\":1453:1476   */\n      swap1\n      pop\n        /* \"#utility.yul\":1173:1483   */\n      swap2\n      swap1\n      pop\n      jump\t// out\n        /* \"#utility.yul\":1489:1606   */\n    tag_31:\n        /* \"#utility.yul\":1598:1599   */\n      0x00\n        /* \"#utility.yul\":1595:1596   */\n      dup1\n        /* \"#utility.yul\":1588:1600   */\n      revert\n        /* \"#utility.yul\":1612:1688   */\n    tag_32:\n        /* \"#utility.yul\":1648:1655   */\n      0x00\n        /* \"#utility.yul\":1677:1682   */\n      dup2\n        /* \"#utility.yul\":1666:1682   */\n      swap1\n      pop\n        /* \"#utility.yul\":1612:1688   */\n      swap2\n      swap1\n      pop\n      jump\t// out\n        /* \"#utility.yul\":1694:1814   */\n    tag_33:\n        /* \"#utility.yul\":1766:1789   */\n      tag_61\n        /* \"#utility.yul\":1783:1788   */\n      dup2\n        /* \"#utility.yul\":1766:1789   */\n      tag_32\n      jump\t// in\n    tag_61:\n        /* \"#utility.yul\":1759:1764   */\n      dup2\n        /* \"#utility.yul\":1756:1790   */\n      eq\n        /* \"#utility.yul\":1746:1808   */\n      tag_62\n      jumpi\n        /* \"#utility.yul\":1804:1805   */\n      0x00\n        /* \"#utility.yul\":1801:1802   */\n      dup1\n        /* \"#utility.yul\":1794:1806   */\n      revert\n        /* \"#utility.yul\":1746:1808   */\n    tag_62:\n        /* \"#utility.yul\":1694:1814   */\n      pop\n      jump\t// out\n        /* \"#utility.yul\":1820:1957   */\n    tag_34:\n        /* \"#utility.yul\":1865:1870   */\n      0x00\n        /* \"#utility.yul\":1903:1909   */\n      dup2\n        /* \"#utility.yul\":1890:1910   */\n      calldataload\n        /* \"#utility.yul\":1881:1910   */\n      swap1\n      pop\n        /* \"#utility.yul\":1919:1951   */\n      tag_64\n        /* \"#utility.yul\":1945:1950   */\n      dup2\n        /* \"#utility.yul\":1919:1951   */\n      tag_33\n      jump\t// in\n    tag_64:\n        /* \"#utility.yul\":1820:1957   */\n      swap3\n      swap2\n      pop\n      pop\n      jump\t// out\n        /* \"#utility.yul\":1979:2686   */\n    tag_35:\n        /* \"#utility.yul\":2074:2079   */\n      0x00\n        /* \"#utility.yul\":2099:2179   */\n      tag_66\n        /* \"#utility.yul\":2115:2178   */\n      tag_67\n        /* \"#utility.yul\":2171:2177   */\n      dup5\n        /* \"#utility.yul\":2115:2178   */\n      tag_30\n      jump\t// in\n    tag_67:\n        /* \"#utility.yul\":2099:2179   */\n      tag_29\n      jump\t// in\n    tag_66:\n        /* \"#utility.yul\":2090:2179   */\n      swap1\n      pop\n        /* \"#utility.yul\":2199:2204   */\n      dup1\n        /* \"#utility.yul\":2228:2234   */\n      dup4\n        /* \"#utility.yul\":2221:2226   */\n      dup3\n        /* \"#utility.yul\":2214:2235   */\n      mstore\n        /* \"#utility.yul\":2262:2266   */\n      0x20\n        /* \"#utility.yul\":2255:2260   */\n      dup3\n        /* \"#utility.yul\":2251:2267   */\n      add\n        /* \"#utility.yul\":2244:2267   */\n      swap1\n      pop\n        /* \"#utility.yul\":2315:2319   */\n      0x20\n        /* \"#utility.yul\":2307:2313   */\n      dup5\n        /* \"#utility.yul\":2303:2320   */\n      mul\n        /* \"#utility.yul\":2295:2301   */\n      dup4\n        /* \"#utility.yul\":2291:2321   */\n      add\n        /* \"#utility.yul\":2344:2347   */\n      dup6\n        /* \"#utility.yul\":2336:2342   */\n      dup2\n        /* \"#utility.yul\":2333:2348   */\n      gt\n        /* \"#utility.yul\":2330:2452   */\n      iszero\n      tag_68\n      jumpi\n        /* \"#utility.yul\":2363:2442   */\n      tag_69\n      tag_31\n      jump\t// in\n    tag_69:\n        /* \"#utility.yul\":2330:2452   */\n    tag_68:\n        /* \"#utility.yul\":2478:2484   */\n      dup4\n        /* \"#utility.yul\":2461:2680   */\n    tag_70:\n        /* \"#utility.yul\":2495:2501   */\n      dup2\n        /* \"#utility.yul\":2490:2493   */\n      dup2\n        /* \"#utility.yul\":2487:2502   */\n      lt\n        /* \"#utility.yul\":2461:2680   */\n      iszero\n      tag_72\n      jumpi\n        /* \"#utility.yul\":2570:2573   */\n      dup1\n        /* \"#utility.yul\":2599:2635   */\n      tag_73\n        /* \"#utility.yul\":2631:2634   */\n      dup9\n        /* \"#utility.yul\":2619:2629   */\n      dup3\n        /* \"#utility.yul\":2599:2635   */\n      tag_34\n      jump\t// in\n    tag_73:\n        /* \"#utility.yul\":2594:2597   */\n      dup5\n        /* \"#utility.yul\":2587:2636   */\n      mstore\n        /* \"#utility.yul\":2665:2669   */\n      0x20\n        /* \"#utility.yul\":2660:2663   */\n      dup5\n        /* \"#utility.yul\":2656:2670   */\n      add\n        /* \"#utility.yul\":2649:2670   */\n      swap4\n      pop\n        /* \"#utility.yul\":2537:2680   */\n      pop\n        /* \"#utility.yul\":2521:2525   */\n      0x20\n        /* \"#utility.yul\":2516:2519   */\n      dup2\n        /* \"#utility.yul\":2512:2526   */\n      add\n        /* \"#utility.yul\":2505:2526   */\n      swap1\n      pop\n        /* \"#utility.yul\":2461:2680   */\n      jump(tag_70)\n    tag_72:\n        /* \"#utility.yul\":2465:2486   */\n      pop\n        /* \"#utility.yul\":2080:2686   */\n      pop\n      pop\n        /* \"#utility.yul\":1979:2686   */\n      swap4\n      swap3\n      pop\n      pop\n      pop\n      jump\t// out\n        /* \"#utility.yul\":2708:3076   */\n    tag_36:\n        /* \"#utility.yul\":2778:2783   */\n      0x00\n        /* \"#utility.yul\":2827:2830   */\n      dup3\n        /* \"#utility.yul\":2820:2824   */\n      0x1f\n        /* \"#utility.yul\":2812:2818   */\n      dup4\n        /* \"#utility.yul\":2808:2825   */\n      add\n        /* \"#utility.yul\":2804:2831   */\n      slt\n        /* \"#utility.yul\":2794:2916   */\n      tag_75\n      jumpi\n        /* \"#utility.yul\":2835:2914   */\n      tag_76\n      tag_25\n      jump\t// in\n    tag_76:\n        /* \"#utility.yul\":2794:2916   */\n    tag_75:\n        /* \"#utility.yul\":2952:2958   */\n      dup2\n        /* \"#utility.yul\":2939:2959   */\n      calldataload\n        /* \"#utility.yul\":2977:3070   */\n      tag_77\n        /* \"#utility.yul\":3066:3069   */\n      dup5\n        /* \"#utility.yul\":3058:3064   */\n      dup3\n        /* \"#utility.yul\":3051:3055   */\n      0x20\n        /* \"#utility.yul\":3043:3049   */\n      dup7\n        /* \"#utility.yul\":3039:3056   */\n      add\n        /* \"#utility.yul\":2977:3070   */\n      tag_35\n      jump\t// in\n    tag_77:\n        /* \"#utility.yul\":2968:3070   */\n      swap2\n      pop\n        /* \"#utility.yul\":2784:3076   */\n      pop\n        /* \"#utility.yul\":2708:3076   */\n      swap3\n      swap2\n      pop\n      pop\n      jump\t// out\n        /* \"#utility.yul\":3082:3619   */\n    tag_6:\n        /* \"#utility.yul\":3165:3171   */\n      0x00\n        /* \"#utility.yul\":3214:3216   */\n      0x20\n        /* \"#utility.yul\":3202:3211   */\n      dup3\n        /* \"#utility.yul\":3193:3200   */\n      dup5\n        /* \"#utility.yul\":3189:3212   */\n      sub\n        /* \"#utility.yul\":3185:3217   */\n      slt\n        /* \"#utility.yul\":3182:3301   */\n      iszero\n      tag_79\n      jumpi\n        /* \"#utility.yul\":3220:3299   */\n      tag_80\n      tag_23\n      jump\t// in\n    tag_80:\n        /* \"#utility.yul\":3182:3301   */\n    tag_79:\n        /* \"#utility.yul\":3368:3369   */\n      0x00\n        /* \"#utility.yul\":3357:3366   */\n      dup3\n        /* \"#utility.yul\":3353:3370   */\n      add\n        /* \"#utility.yul\":3340:3371   */\n      calldataload\n        /* \"#utility.yul\":3398:3416   */\n      0xffffffffffffffff\n        /* \"#utility.yul\":3390:3396   */\n      dup2\n        /* \"#utility.yul\":3387:3417   */\n      gt\n        /* \"#utility.yul\":3384:3501   */\n      iszero\n      tag_81\n      jumpi\n        /* \"#utility.yul\":3420:3499   */\n      tag_82\n      tag_24\n      jump\t// in\n    tag_82:\n        /* \"#utility.yul\":3384:3501   */\n    tag_81:\n        /* \"#utility.yul\":3525:3602   */\n      tag_83\n        /* \"#utility.yul\":3594:3601   */\n      dup5\n        /* \"#utility.yul\":3585:3591   */\n      dup3\n        /* \"#utility.yul\":3574:3583   */\n      dup6\n        /* \"#utility.yul\":3570:3592   */\n      add\n        /* \"#utility.yul\":3525:3602   */\n      tag_36\n      jump\t// in\n    tag_83:\n        /* \"#utility.yul\":3515:3602   */\n      swap2\n      pop\n        /* \"#utility.yul\":3311:3612   */\n      pop\n        /* \"#utility.yul\":3082:3619   */\n      swap3\n      swap2\n      pop\n      pop\n      jump\t// out\n        /* \"#utility.yul\":3625:3715   */\n    tag_37:\n        /* \"#utility.yul\":3659:3666   */\n      0x00\n        /* \"#utility.yul\":3702:3707   */\n      dup2\n        /* \"#utility.yul\":3695:3708   */\n      iszero\n        /* \"#utility.yul\":3688:3709   */\n      iszero\n        /* \"#utility.yul\":3677:3709   */\n      swap1\n      pop\n        /* \"#utility.yul\":3625:3715   */\n      swap2\n      swap1\n      pop\n      jump\t// out\n        /* \"#utility.yul\":3721:3830   */\n    tag_38:\n        /* \"#utility.yul\":3802:3823   */\n      tag_86\n        /* \"#utility.yul\":3817:3822   */\n      dup2\n        /* \"#utility.yul\":3802:3823   */\n      tag_37\n      jump\t// in\n    tag_86:\n        /* \"#utility.yul\":3797:3800   */\n      dup3\n        /* \"#utility.yul\":3790:3824   */\n      mstore\n        /* \"#utility.yul\":3721:3830   */\n      pop\n      pop\n      jump\t// out\n        /* \"#utility.yul\":3836:4046   */\n    tag_9:\n        /* \"#utility.yul\":3923:3927   */\n      0x00\n        /* \"#utility.yul\":3961:3963   */\n      0x20\n        /* \"#utility.yul\":3950:3959   */\n      dup3\n        /* \"#utility.yul\":3946:3964   */\n      add\n        /* \"#utility.yul\":3938:3964   */\n      swap1\n      pop\n        /* \"#utility.yul\":3974:4039   */\n      tag_88\n        /* \"#utility.yul\":4036:4037   */\n      0x00\n        /* \"#utility.yul\":4025:4034   */\n      dup4\n        /* \"#utility.yul\":4021:4038   */\n      add\n        /* \"#utility.yul\":4012:4018   */\n      dup5\n        /* \"#utility.yul\":3974:4039   */\n      tag_38\n      jump\t// in\n    tag_88:\n        /* \"#utility.yul\":3836:4046   */\n      swap3\n      swap2\n      pop\n      pop\n      jump\t// out\n        /* \"#utility.yul\":4052:4129   */\n    tag_39:\n        /* \"#utility.yul\":4089:4096   */\n      0x00\n        /* \"#utility.yul\":4118:4123   */\n      dup2\n        /* \"#utility.yul\":4107:4123   */\n      swap1\n      pop\n        /* \"#utility.yul\":4052:4129   */\n      swap2\n      swap1\n      pop\n      jump\t// out\n        /* \"#utility.yul\":4135:4315   */\n    tag_40:\n        /* \"#utility.yul\":4183:4260   */\n      0x4e487b7100000000000000000000000000000000000000000000000000000000\n        /* \"#utility.yul\":4180:4181   */\n      0x00\n        /* \"#utility.yul\":4173:4261   */\n      mstore\n        /* \"#utility.yul\":4280:4284   */\n      0x11\n        /* \"#utility.yul\":4277:4278   */\n      0x04\n        /* \"#utility.yul\":4270:4285   */\n      mstore\n        /* \"#utility.yul\":4304:4308   */\n      0x24\n        /* \"#utility.yul\":4301:4302   */\n      0x00\n        /* \"#utility.yul\":4294:4309   */\n      revert\n        /* \"#utility.yul\":4321:4515   */\n    tag_15:\n        /* \"#utility.yul\":4361:4365   */\n      0x00\n        /* \"#utility.yul\":4381:4401   */\n      tag_92\n        /* \"#utility.yul\":4399:4400   */\n      dup3\n        /* \"#utility.yul\":4381:4401   */\n      tag_39\n      jump\t// in\n    tag_92:\n        /* \"#utility.yul\":4376:4401   */\n      swap2\n      pop\n        /* \"#utility.yul\":4415:4435   */\n      tag_93\n        /* \"#utility.yul\":4433:4434   */\n      dup4\n        /* \"#utility.yul\":4415:4435   */\n      tag_39\n      jump\t// in\n    tag_93:\n        /* \"#utility.yul\":4410:4435   */\n      swap3\n      pop\n        /* \"#utility.yul\":4459:4460   */\n      dup3\n        /* \"#utility.yul\":4456:4457   */\n      dup3\n        /* \"#utility.yul\":4452:4461   */\n      sub\n        /* \"#utility.yul\":4444:4461   */\n      swap1\n      pop\n        /* \"#utility.yul\":4483:4484   */\n      dup2\n        /* \"#utility.yul\":4477:4481   */\n      dup2\n        /* \"#utility.yul\":4474:4485   */\n      gt\n        /* \"#utility.yul\":4471:4508   */\n      iszero\n      tag_94\n      jumpi\n        /* \"#utility.yul\":4488:4506   */\n      tag_95\n      tag_40\n      jump\t// in\n    tag_95:\n        /* \"#utility.yul\":4471:4508   */\n    tag_94:\n        /* \"#utility.yul\":4321:4515   */\n      swap3\n      swap2\n      pop\n      pop\n      jump\t// out\n        /* \"#utility.yul\":4521:4701   */\n    tag_18:\n        /* \"#utility.yul\":4569:4646   */\n      0x4e487b7100000000000000000000000000000000000000000000000000000000\n        /* \"#utility.yul\":4566:4567   */\n      0x00\n        /* \"#utility.yul\":4559:4647   */\n      mstore\n        /* \"#utility.yul\":4666:4670   */\n      0x32\n        /* \"#utility.yul\":4663:4664   */\n      0x04\n        /* \"#utility.yul\":4656:4671   */\n      mstore\n        /* \"#utility.yul\":4690:4694   */\n      0x24\n        /* \"#utility.yul\":4687:4688   */\n      0x00\n        /* \"#utility.yul\":4680:4695   */\n      revert\n\n    auxdata: 0xa264697066735822122004d56f887029d07afcd29b810eb78dac4bf0d355290caa5d5420b8a65b81295f64736f6c634300081a0033\n}\n",
				"bytecode": {
					"linkReferences": {},
					"object": "6080604052348015600e575f80fd5b506103b08061001c5f395ff3fe608060405234801561000f575f80fd5b5060043610610029575f3560e01c806352f480211461002d575b5f80fd5b6100476004803603810190610042919061026a565b61005d565b60405161005491906102cb565b60405180910390f35b5f80600190505b82518110156100cb578260018261007b919061031a565b8151811061008c5761008b61034d565b5b60200260200101518382815181106100a7576100a661034d565b5b602002602001015112156100be575f9150506100d1565b8080600101915050610064565b50600190505b919050565b5f604051905090565b5f80fd5b5f80fd5b5f80fd5b5f601f19601f8301169050919050565b7f4e487b71000000000000000000000000000000000000000000000000000000005f52604160045260245ffd5b610131826100eb565b810181811067ffffffffffffffff821117156101505761014f6100fb565b5b80604052505050565b5f6101626100d6565b905061016e8282610128565b919050565b5f67ffffffffffffffff82111561018d5761018c6100fb565b5b602082029050602081019050919050565b5f80fd5b5f819050919050565b6101b4816101a2565b81146101be575f80fd5b50565b5f813590506101cf816101ab565b92915050565b5f6101e76101e284610173565b610159565b9050808382526020820190506020840283018581111561020a5761020961019e565b5b835b81811015610233578061021f88826101c1565b84526020840193505060208101905061020c565b5050509392505050565b5f82601f830112610251576102506100e7565b5b81356102618482602086016101d5565b91505092915050565b5f6020828403121561027f5761027e6100df565b5b5f82013567ffffffffffffffff81111561029c5761029b6100e3565b5b6102a88482850161023d565b91505092915050565b5f8115159050919050565b6102c5816102b1565b82525050565b5f6020820190506102de5f8301846102bc565b92915050565b5f819050919050565b7f4e487b71000000000000000000000000000000000000000000000000000000005f52601160045260245ffd5b5f610324826102e4565b915061032f836102e4565b9250828203905081811115610347576103466102ed565b5b92915050565b7f4e487b71000000000000000000000000000000000000000000000000000000005f52603260045260245ffdfea264697066735822122004d56f887029d07afcd29b810eb78dac4bf0d355290caa5d5420b8a65b81295f64736f6c634300081a0033",
					"opcodes": "PUSH1 0x80 PUSH1 0x40 MSTORE CALLVALUE DUP1 ISZERO PUSH1 0xE JUMPI PUSH0 DUP1 REVERT JUMPDEST POP PUSH2 0x3B0 DUP1 PUSH2 0x1C PUSH0 CODECOPY PUSH0 RETURN INVALID PUSH1 0x80 PUSH1 0x40 MSTORE CALLVALUE DUP1 ISZERO PUSH2 0xF JUMPI PUSH0 DUP1 REVERT JUMPDEST POP PUSH1 0x4 CALLDATASIZE LT PUSH2 0x29 JUMPI PUSH0 CALLDATALOAD PUSH1 0xE0 SHR DUP1 PUSH4 0x52F48021 EQ PUSH2 0x2D JUMPI JUMPDEST PUSH0 DUP1 REVERT JUMPDEST PUSH2 0x47 PUSH1 0x4 DUP1 CALLDATASIZE SUB DUP2 ADD SWAP1 PUSH2 0x42 SWAP2 SWAP1 PUSH2 0x26A JUMP JUMPDEST PUSH2 0x5D JUMP JUMPDEST PUSH1 0x40 MLOAD PUSH2 0x54 SWAP2 SWAP1 PUSH2 0x2CB JUMP JUMPDEST PUSH1 0x40 MLOAD DUP1 SWAP2 SUB SWAP1 RETURN JUMPDEST PUSH0 DUP1 PUSH1 0x1 SWAP1 POP JUMPDEST DUP3 MLOAD DUP2 LT ISZERO PUSH2 0xCB JUMPI DUP3 PUSH1 0x1 DUP3 PUSH2 0x7B SWAP2 SWAP1 PUSH2 0x31A JUMP JUMPDEST DUP2 MLOAD DUP2 LT PUSH2 0x8C JUMPI PUSH2 0x8B PUSH2 0x34D JUMP JUMPDEST JUMPDEST PUSH1 0x20 MUL PUSH1 0x20 ADD ADD MLOAD DUP4 DUP3 DUP2 MLOAD DUP2 LT PUSH2 0xA7 JUMPI PUSH2 0xA6 PUSH2 0x34D JUMP JUMPDEST JUMPDEST PUSH1 0x20 MUL PUSH1 0x20 ADD ADD MLOAD SLT ISZERO PUSH2 0xBE JUMPI PUSH0 SWAP2 POP POP PUSH2 0xD1 JUMP JUMPDEST DUP1 DUP1 PUSH1 0x1 ADD SWAP2 POP POP PUSH2 0x64 JUMP JUMPDEST POP PUSH1 0x1 SWAP1 POP JUMPDEST SWAP2 SWAP1 POP JUMP JUMPDEST PUSH0 PUSH1 0x40 MLOAD SWAP1 POP SWAP1 JUMP JUMPDEST PUSH0 DUP1 REVERT JUMPDEST PUSH0 DUP1 REVERT JUMPDEST PUSH0 DUP1 REVERT JUMPDEST PUSH0 PUSH1 0x1F NOT PUSH1 0x1F DUP4 ADD AND SWAP1 POP SWAP2 SWAP1 POP JUMP JUMPDEST PUSH32 0x4E487B7100000000000000000000000000000000000000000000000000000000 PUSH0 MSTORE PUSH1 0x41 PUSH1 0x4 MSTORE PUSH1 0x24 PUSH0 REVERT JUMPDEST PUSH2 0x131 DUP3 PUSH2 0xEB JUMP JUMPDEST DUP2 ADD DUP2 DUP2 LT PUSH8 0xFFFFFFFFFFFFFFFF DUP3 GT OR ISZERO PUSH2 0x150 JUMPI PUSH2 0x14F PUSH2 0xFB JUMP JUMPDEST JUMPDEST DUP1 PUSH1 0x40 MSTORE POP POP POP JUMP JUMPDEST PUSH0 PUSH2 0x162 PUSH2 0xD6 JUMP JUMPDEST SWAP1 POP PUSH2 0x16E DUP3 DUP3 PUSH2 0x128 JUMP JUMPDEST SWAP2 SWAP1 POP JUMP JUMPDEST PUSH0 PUSH8 0xFFFFFFFFFFFFFFFF DUP3 GT ISZERO PUSH2 0x18D JUMPI PUSH2 0x18C PUSH2 0xFB JUMP JUMPDEST JUMPDEST PUSH1 0x20 DUP3 MUL SWAP1 POP PUSH1 0x20 DUP2 ADD SWAP1 POP SWAP2 SWAP1 POP JUMP JUMPDEST PUSH0 DUP1 REVERT JUMPDEST PUSH0 DUP2 SWAP1 POP SWAP2 SWAP1 POP JUMP JUMPDEST PUSH2 0x1B4 DUP2 PUSH2 0x1A2 JUMP JUMPDEST DUP2 EQ PUSH2 0x1BE JUMPI PUSH0 DUP1 REVERT JUMPDEST POP JUMP JUMPDEST PUSH0 DUP2 CALLDATALOAD SWAP1 POP PUSH2 0x1CF DUP2 PUSH2 0x1AB JUMP JUMPDEST SWAP3 SWAP2 POP POP JUMP JUMPDEST PUSH0 PUSH2 0x1E7 PUSH2 0x1E2 DUP5 PUSH2 0x173 JUMP JUMPDEST PUSH2 0x159 JUMP JUMPDEST SWAP1 POP DUP1 DUP4 DUP3 MSTORE PUSH1 0x20 DUP3 ADD SWAP1 POP PUSH1 0x20 DUP5 MUL DUP4 ADD DUP6 DUP2 GT ISZERO PUSH2 0x20A JUMPI PUSH2 0x209 PUSH2 0x19E JUMP JUMPDEST JUMPDEST DUP4 JUMPDEST DUP2 DUP2 LT ISZERO PUSH2 0x233 JUMPI DUP1 PUSH2 0x21F DUP9 DUP3 PUSH2 0x1C1 JUMP JUMPDEST DUP5 MSTORE PUSH1 0x20 DUP5 ADD SWAP4 POP POP PUSH1 0x20 DUP2 ADD SWAP1 POP PUSH2 0x20C JUMP JUMPDEST POP POP POP SWAP4 SWAP3 POP POP POP JUMP JUMPDEST PUSH0 DUP3 PUSH1 0x1F DUP4 ADD SLT PUSH2 0x251 JUMPI PUSH2 0x250 PUSH2 0xE7 JUMP JUMPDEST JUMPDEST DUP2 CALLDATALOAD PUSH2 0x261 DUP5 DUP3 PUSH1 0x20 DUP7 ADD PUSH2 0x1D5 JUMP JUMPDEST SWAP2 POP POP SWAP3 SWAP2 POP POP JUMP JUMPDEST PUSH0 PUSH1 0x20 DUP3 DUP5 SUB SLT ISZERO PUSH2 0x27F JUMPI PUSH2 0x27E PUSH2 0xDF JUMP JUMPDEST JUMPDEST PUSH0 DUP3 ADD CALLDATALOAD PUSH8 0xFFFFFFFFFFFFFFFF DUP2 GT ISZERO PUSH2 0x29C JUMPI PUSH2 0x29B PUSH2 0xE3 JUMP JUMPDEST JUMPDEST PUSH2 0x2A8 DUP5 DUP3 DUP6 ADD PUSH2 0x23D JUMP JUMPDEST SWAP2 POP POP SWAP3 SWAP2 POP POP JUMP JUMPDEST PUSH0 DUP2 ISZERO ISZERO SWAP1 POP SWAP2 SWAP1 POP JUMP JUMPDEST PUSH2 0x2C5 DUP2 PUSH2 0x2B1 JUMP JUMPDEST DUP3 MSTORE POP POP JUMP JUMPDEST PUSH0 PUSH1 0x20 DUP3 ADD SWAP1 POP PUSH2 0x2DE PUSH0 DUP4 ADD DUP5 PUSH2 0x2BC JUMP JUMPDEST SWAP3 SWAP2 POP POP JUMP JUMPDEST PUSH0 DUP2 SWAP1 POP SWAP2 SWAP1 POP JUMP JUMPDEST PUSH32 0x4E487B7100000000000000000000000000000000000000000000000000000000 PUSH0 MSTORE PUSH1 0x11 PUSH1 0x4 MSTORE PUSH1 0x24 PUSH0 REVERT JUMPDEST PUSH0 PUSH2 0x324 DUP3 PUSH2 0x2E4 JUMP JUMPDEST SWAP2 POP PUSH2 0x32F DUP4 PUSH2 0x2E4 JUMP JUMPDEST SWAP3 POP DUP3 DUP3 SUB SWAP1 POP DUP2 DUP2 GT ISZERO PUSH2 0x347 JUMPI PUSH2 0x346 PUSH2 0x2ED JUMP JUMPDEST JUMPDEST SWAP3 SWAP2 POP POP JUMP JUMPDEST PUSH32 0x4E487B7100000000000000000000000000000000000000000000000000000000 PUSH0 MSTORE PUSH1 0x32 PUSH1 0x4 MSTORE PUSH1 0x24 PUSH0 REVERT INVALID LOG2 PUSH5 0x6970667358 0x22 SLT KECCAK256 DIV 0xD5 PUSH16 0x887029D07AFCD29B810EB78DAC4BF0D3 SSTORE 0x29 0xC 0xAA TSTORE SLOAD KECCAK256 0xB8 0xA6 JUMPDEST DUP2 0x29 PUSH0 PUSH5 0x736F6C6343 STOP ADDMOD BYTE STOP CALLER "
				},
				"gasEstimates": {
					"creation": {
						"codeDepositCost": "188800",
						"executionCost": "230",
						"totalCost": "189030"
					},
					"external": {
						"isSorted(int256[])": "infinite"
					}
				},
				"methodIdentifiers": {
					"isSorted(int256[])": "52f48021"
				}
			},
			"storageLayout": {
				"storage": [],
				"types": null
			},
			"userdoc": {
				"kind": "user",
				"methods": {},
				"version": 1
			}
		}
	}
}