{
	"contracts/Blockchain_Assignment_3/Task_Codes/as3_task8.sol": {
		"Fibonacci": {
			"abi": [
				{
					"inputs": [
						{
							"internalType": "uint256",
							"name": "n",
							"type": "uint256"
						}
					],
					"name": "getFibonacci",
					"outputs": [
						{
							"internalType": "uint256",
							"name": "",
							"type": "uint256"
						}
					],
					"stateMutability": "pure",
					"type": "function"
				}
			],
			"devdoc": {
				"kind": "dev",
				"methods": {},
				"version": 1
			},
			"evm": {
				"assembly": "    /* \"contracts/Blockchain_Assignment_3/Task_Codes/as3_task8.sol\":198:754  contract Fibonacci {... */\n  mstore(0x40, 0x80)\n  callvalue\n  dup1\n  iszero\n  tag_1\n  jumpi\n  0x00\n  dup1\n  revert\ntag_1:\n  pop\n  dataSize(sub_0)\n  dup1\n  dataOffset(sub_0)\n  0x00\n  codecopy\n  0x00\n  return\nstop\n\nsub_0: assembly {\n        /* \"contracts/Blockchain_Assignment_3/Task_Codes/as3_task8.sol\":198:754  contract Fibonacci {... */\n      mstore(0x40, 0x80)\n      callvalue\n      dup1\n      iszero\n      tag_1\n      jumpi\n      0x00\n      dup1\n      revert\n    tag_1:\n      pop\n      jumpi(tag_2, lt(calldatasize, 0x04))\n      shr(0xe0, calldataload(0x00))\n      dup1\n      0x90cbcf92\n      eq\n      tag_3\n      jumpi\n    tag_2:\n      0x00\n      dup1\n      revert\n        /* \"contracts/Blockchain_Assignment_3/Task_Codes/as3_task8.sol\":224:751  function getFibonacci(uint256 n) public pure returns (uint256) {... */\n    tag_3:\n      tag_4\n      0x04\n      dup1\n      calldatasize\n      sub\n      dup2\n      add\n      swap1\n      tag_5\n      swap2\n      swap1\n      tag_6\n      jump\t// in\n    tag_5:\n      tag_7\n      jump\t// in\n    tag_4:\n      mload(0x40)\n      tag_8\n      swap2\n      swap1\n      tag_9\n      jump\t// in\n    tag_8:\n      mload(0x40)\n      dup1\n      swap2\n      sub\n      swap1\n      return\n    tag_7:\n        /* \"contracts/Blockchain_Assignment_3/Task_Codes/as3_task8.sol\":278:285  uint256 */\n      0x00\n        /* \"contracts/Blockchain_Assignment_3/Task_Codes/as3_task8.sol\":310:311  0 */\n      dup1\n        /* \"contracts/Blockchain_Assignment_3/Task_Codes/as3_task8.sol\":306:307  n */\n      dup3\n        /* \"contracts/Blockchain_Assignment_3/Task_Codes/as3_task8.sol\":306:311  n > 0 */\n      gt\n        /* \"contracts/Blockchain_Assignment_3/Task_Codes/as3_task8.sol\":298:340  require(n > 0, \"n must be greater than 0\") */\n      tag_11\n      jumpi\n      mload(0x40)\n      0x08c379a000000000000000000000000000000000000000000000000000000000\n      dup2\n      mstore\n      0x04\n      add\n      tag_12\n      swap1\n      tag_13\n      jump\t// in\n    tag_12:\n      mload(0x40)\n      dup1\n      swap2\n      sub\n      swap1\n      revert\n    tag_11:\n        /* \"contracts/Blockchain_Assignment_3/Task_Codes/as3_task8.sol\":362:363  1 */\n      0x01\n        /* \"contracts/Blockchain_Assignment_3/Task_Codes/as3_task8.sol\":357:358  n */\n      dup3\n        /* \"contracts/Blockchain_Assignment_3/Task_Codes/as3_task8.sol\":357:363  n == 1 */\n      sub\n        /* \"contracts/Blockchain_Assignment_3/Task_Codes/as3_task8.sol\":353:524  if (n == 1) {... */\n      tag_14\n      jumpi\n        /* \"contracts/Blockchain_Assignment_3/Task_Codes/as3_task8.sol\":387:388  0 */\n      0x00\n        /* \"contracts/Blockchain_Assignment_3/Task_Codes/as3_task8.sol\":380:388  return 0 */\n      swap1\n      pop\n      jump(tag_10)\n        /* \"contracts/Blockchain_Assignment_3/Task_Codes/as3_task8.sol\":353:524  if (n == 1) {... */\n    tag_14:\n        /* \"contracts/Blockchain_Assignment_3/Task_Codes/as3_task8.sol\":450:451  2 */\n      0x02\n        /* \"contracts/Blockchain_Assignment_3/Task_Codes/as3_task8.sol\":445:446  n */\n      dup3\n        /* \"contracts/Blockchain_Assignment_3/Task_Codes/as3_task8.sol\":445:451  n == 2 */\n      sub\n        /* \"contracts/Blockchain_Assignment_3/Task_Codes/as3_task8.sol\":441:524  if (n == 2) {... */\n      tag_16\n      jumpi\n        /* \"contracts/Blockchain_Assignment_3/Task_Codes/as3_task8.sol\":475:476  1 */\n      0x01\n        /* \"contracts/Blockchain_Assignment_3/Task_Codes/as3_task8.sol\":468:476  return 1 */\n      swap1\n      pop\n      jump(tag_10)\n        /* \"contracts/Blockchain_Assignment_3/Task_Codes/as3_task8.sol\":441:524  if (n == 2) {... */\n    tag_16:\n        /* \"contracts/Blockchain_Assignment_3/Task_Codes/as3_task8.sol\":536:545  uint256 a */\n      0x00\n        /* \"contracts/Blockchain_Assignment_3/Task_Codes/as3_task8.sol\":560:569  uint256 b */\n      dup1\n        /* \"contracts/Blockchain_Assignment_3/Task_Codes/as3_task8.sol\":572:573  1 */\n      0x01\n        /* \"contracts/Blockchain_Assignment_3/Task_Codes/as3_task8.sol\":560:573  uint256 b = 1 */\n      swap1\n      pop\n        /* \"contracts/Blockchain_Assignment_3/Task_Codes/as3_task8.sol\":584:595  uint256 fib */\n      0x00\n        /* \"contracts/Blockchain_Assignment_3/Task_Codes/as3_task8.sol\":613:622  uint256 i */\n      dup1\n        /* \"contracts/Blockchain_Assignment_3/Task_Codes/as3_task8.sol\":625:626  3 */\n      0x03\n        /* \"contracts/Blockchain_Assignment_3/Task_Codes/as3_task8.sol\":613:626  uint256 i = 3 */\n      swap1\n      pop\n        /* \"contracts/Blockchain_Assignment_3/Task_Codes/as3_task8.sol\":608:721  for (uint256 i = 3; i <= n; i++) {... */\n    tag_17:\n        /* \"contracts/Blockchain_Assignment_3/Task_Codes/as3_task8.sol\":633:634  n */\n      dup6\n        /* \"contracts/Blockchain_Assignment_3/Task_Codes/as3_task8.sol\":628:629  i */\n      dup2\n        /* \"contracts/Blockchain_Assignment_3/Task_Codes/as3_task8.sol\":628:634  i <= n */\n      gt\n        /* \"contracts/Blockchain_Assignment_3/Task_Codes/as3_task8.sol\":608:721  for (uint256 i = 3; i <= n; i++) {... */\n      tag_18\n      jumpi\n        /* \"contracts/Blockchain_Assignment_3/Task_Codes/as3_task8.sol\":666:667  b */\n      dup3\n        /* \"contracts/Blockchain_Assignment_3/Task_Codes/as3_task8.sol\":662:663  a */\n      dup5\n        /* \"contracts/Blockchain_Assignment_3/Task_Codes/as3_task8.sol\":662:667  a + b */\n      tag_20\n      swap2\n      swap1\n      tag_21\n      jump\t// in\n    tag_20:\n        /* \"contracts/Blockchain_Assignment_3/Task_Codes/as3_task8.sol\":656:667  fib = a + b */\n      swap2\n      pop\n        /* \"contracts/Blockchain_Assignment_3/Task_Codes/as3_task8.sol\":686:687  b */\n      dup3\n        /* \"contracts/Blockchain_Assignment_3/Task_Codes/as3_task8.sol\":682:687  a = b */\n      swap4\n      pop\n        /* \"contracts/Blockchain_Assignment_3/Task_Codes/as3_task8.sol\":706:709  fib */\n      dup2\n        /* \"contracts/Blockchain_Assignment_3/Task_Codes/as3_task8.sol\":702:709  b = fib */\n      swap3\n      pop\n        /* \"contracts/Blockchain_Assignment_3/Task_Codes/as3_task8.sol\":636:639  i++ */\n      dup1\n      dup1\n      tag_22\n      swap1\n      tag_23\n      jump\t// in\n    tag_22:\n      swap2\n      pop\n      pop\n        /* \"contracts/Blockchain_Assignment_3/Task_Codes/as3_task8.sol\":608:721  for (uint256 i = 3; i <= n; i++) {... */\n      jump(tag_17)\n    tag_18:\n      pop\n        /* \"contracts/Blockchain_Assignment_3/Task_Codes/as3_task8.sol\":740:743  fib */\n      dup1\n        /* \"contracts/Blockchain_Assignment_3/Task_Codes/as3_task8.sol\":733:743  return fib */\n      swap4\n      pop\n      pop\n      pop\n      pop\n        /* \"contracts/Blockchain_Assignment_3/Task_Codes/as3_task8.sol\":224:751  function getFibonacci(uint256 n) public pure returns (uint256) {... */\n    tag_10:\n      swap2\n      swap1\n      pop\n      jump\t// out\n        /* \"#utility.yul\":88:205   */\n    tag_25:\n        /* \"#utility.yul\":197:198   */\n      0x00\n        /* \"#utility.yul\":194:195   */\n      dup1\n        /* \"#utility.yul\":187:199   */\n      revert\n        /* \"#utility.yul\":334:411   */\n    tag_27:\n        /* \"#utility.yul\":371:378   */\n      0x00\n        /* \"#utility.yul\":400:405   */\n      dup2\n        /* \"#utility.yul\":389:405   */\n      swap1\n      pop\n        /* \"#utility.yul\":334:411   */\n      swap2\n      swap1\n      pop\n      jump\t// out\n        /* \"#utility.yul\":417:539   */\n    tag_28:\n        /* \"#utility.yul\":490:514   */\n      tag_41\n        /* \"#utility.yul\":508:513   */\n      dup2\n        /* \"#utility.yul\":490:514   */\n      tag_27\n      jump\t// in\n    tag_41:\n        /* \"#utility.yul\":483:488   */\n      dup2\n        /* \"#utility.yul\":480:515   */\n      eq\n        /* \"#utility.yul\":470:533   */\n      tag_42\n      jumpi\n        /* \"#utility.yul\":529:530   */\n      0x00\n        /* \"#utility.yul\":526:527   */\n      dup1\n        /* \"#utility.yul\":519:531   */\n      revert\n        /* \"#utility.yul\":470:533   */\n    tag_42:\n        /* \"#utility.yul\":417:539   */\n      pop\n      jump\t// out\n        /* \"#utility.yul\":545:684   */\n    tag_29:\n        /* \"#utility.yul\":591:596   */\n      0x00\n        /* \"#utility.yul\":629:635   */\n      dup2\n        /* \"#utility.yul\":616:636   */\n      calldataload\n        /* \"#utility.yul\":607:636   */\n      swap1\n      pop\n        /* \"#utility.yul\":645:678   */\n      tag_44\n        /* \"#utility.yul\":672:677   */\n      dup2\n        /* \"#utility.yul\":645:678   */\n      tag_28\n      jump\t// in\n    tag_44:\n        /* \"#utility.yul\":545:684   */\n      swap3\n      swap2\n      pop\n      pop\n      jump\t// out\n        /* \"#utility.yul\":690:1019   */\n    tag_6:\n        /* \"#utility.yul\":749:755   */\n      0x00\n        /* \"#utility.yul\":798:800   */\n      0x20\n        /* \"#utility.yul\":786:795   */\n      dup3\n        /* \"#utility.yul\":777:784   */\n      dup5\n        /* \"#utility.yul\":773:796   */\n      sub\n        /* \"#utility.yul\":769:801   */\n      slt\n        /* \"#utility.yul\":766:885   */\n      iszero\n      tag_46\n      jumpi\n        /* \"#utility.yul\":804:883   */\n      tag_47\n      tag_25\n      jump\t// in\n    tag_47:\n        /* \"#utility.yul\":766:885   */\n    tag_46:\n        /* \"#utility.yul\":924:925   */\n      0x00\n        /* \"#utility.yul\":949:1002   */\n      tag_48\n        /* \"#utility.yul\":994:1001   */\n      dup5\n        /* \"#utility.yul\":985:991   */\n      dup3\n        /* \"#utility.yul\":974:983   */\n      dup6\n        /* \"#utility.yul\":970:992   */\n      add\n        /* \"#utility.yul\":949:1002   */\n      tag_29\n      jump\t// in\n    tag_48:\n        /* \"#utility.yul\":939:1002   */\n      swap2\n      pop\n        /* \"#utility.yul\":895:1012   */\n      pop\n        /* \"#utility.yul\":690:1019   */\n      swap3\n      swap2\n      pop\n      pop\n      jump\t// out\n        /* \"#utility.yul\":1025:1143   */\n    tag_30:\n        /* \"#utility.yul\":1112:1136   */\n      tag_50\n        /* \"#utility.yul\":1130:1135   */\n      dup2\n        /* \"#utility.yul\":1112:1136   */\n      tag_27\n      jump\t// in\n    tag_50:\n        /* \"#utility.yul\":1107:1110   */\n      dup3\n        /* \"#utility.yul\":1100:1137   */\n      mstore\n        /* \"#utility.yul\":1025:1143   */\n      pop\n      pop\n      jump\t// out\n        /* \"#utility.yul\":1149:1371   */\n    tag_9:\n        /* \"#utility.yul\":1242:1246   */\n      0x00\n        /* \"#utility.yul\":1280:1282   */\n      0x20\n        /* \"#utility.yul\":1269:1278   */\n      dup3\n        /* \"#utility.yul\":1265:1283   */\n      add\n        /* \"#utility.yul\":1257:1283   */\n      swap1\n      pop\n        /* \"#utility.yul\":1293:1364   */\n      tag_52\n        /* \"#utility.yul\":1361:1362   */\n      0x00\n        /* \"#utility.yul\":1350:1359   */\n      dup4\n        /* \"#utility.yul\":1346:1363   */\n      add\n        /* \"#utility.yul\":1337:1343   */\n      dup5\n        /* \"#utility.yul\":1293:1364   */\n      tag_30\n      jump\t// in\n    tag_52:\n        /* \"#utility.yul\":1149:1371   */\n      swap3\n      swap2\n      pop\n      pop\n      jump\t// out\n        /* \"#utility.yul\":1377:1546   */\n    tag_31:\n        /* \"#utility.yul\":1461:1472   */\n      0x00\n        /* \"#utility.yul\":1495:1501   */\n      dup3\n        /* \"#utility.yul\":1490:1493   */\n      dup3\n        /* \"#utility.yul\":1483:1502   */\n      mstore\n        /* \"#utility.yul\":1535:1539   */\n      0x20\n        /* \"#utility.yul\":1530:1533   */\n      dup3\n        /* \"#utility.yul\":1526:1540   */\n      add\n        /* \"#utility.yul\":1511:1540   */\n      swap1\n      pop\n        /* \"#utility.yul\":1377:1546   */\n      swap3\n      swap2\n      pop\n      pop\n      jump\t// out\n        /* \"#utility.yul\":1552:1726   */\n    tag_32:\n        /* \"#utility.yul\":1692:1718   */\n      0x6e206d7573742062652067726561746572207468616e20300000000000000000\n        /* \"#utility.yul\":1688:1689   */\n      0x00\n        /* \"#utility.yul\":1680:1686   */\n      dup3\n        /* \"#utility.yul\":1676:1690   */\n      add\n        /* \"#utility.yul\":1669:1719   */\n      mstore\n        /* \"#utility.yul\":1552:1726   */\n      pop\n      jump\t// out\n        /* \"#utility.yul\":1732:2098   */\n    tag_33:\n        /* \"#utility.yul\":1874:1877   */\n      0x00\n        /* \"#utility.yul\":1895:1962   */\n      tag_56\n        /* \"#utility.yul\":1959:1961   */\n      0x18\n        /* \"#utility.yul\":1954:1957   */\n      dup4\n        /* \"#utility.yul\":1895:1962   */\n      tag_31\n      jump\t// in\n    tag_56:\n        /* \"#utility.yul\":1888:1962   */\n      swap2\n      pop\n        /* \"#utility.yul\":1971:2064   */\n      tag_57\n        /* \"#utility.yul\":2060:2063   */\n      dup3\n        /* \"#utility.yul\":1971:2064   */\n      tag_32\n      jump\t// in\n    tag_57:\n        /* \"#utility.yul\":2089:2091   */\n      0x20\n        /* \"#utility.yul\":2084:2087   */\n      dup3\n        /* \"#utility.yul\":2080:2092   */\n      add\n        /* \"#utility.yul\":2073:2092   */\n      swap1\n      pop\n        /* \"#utility.yul\":1732:2098   */\n      swap2\n      swap1\n      pop\n      jump\t// out\n        /* \"#utility.yul\":2104:2523   */\n    tag_13:\n        /* \"#utility.yul\":2270:2274   */\n      0x00\n        /* \"#utility.yul\":2308:2310   */\n      0x20\n        /* \"#utility.yul\":2297:2306   */\n      dup3\n        /* \"#utility.yul\":2293:2311   */\n      add\n        /* \"#utility.yul\":2285:2311   */\n      swap1\n      pop\n        /* \"#utility.yul\":2357:2366   */\n      dup2\n        /* \"#utility.yul\":2351:2355   */\n      dup2\n        /* \"#utility.yul\":2347:2367   */\n      sub\n        /* \"#utility.yul\":2343:2344   */\n      0x00\n        /* \"#utility.yul\":2332:2341   */\n      dup4\n        /* \"#utility.yul\":2328:2345   */\n      add\n        /* \"#utility.yul\":2321:2368   */\n      mstore\n        /* \"#utility.yul\":2385:2516   */\n      tag_59\n        /* \"#utility.yul\":2511:2515   */\n      dup2\n        /* \"#utility.yul\":2385:2516   */\n      tag_33\n      jump\t// in\n    tag_59:\n        /* \"#utility.yul\":2377:2516   */\n      swap1\n      pop\n        /* \"#utility.yul\":2104:2523   */\n      swap2\n      swap1\n      pop\n      jump\t// out\n        /* \"#utility.yul\":2529:2709   */\n    tag_34:\n        /* \"#utility.yul\":2577:2654   */\n      0x4e487b7100000000000000000000000000000000000000000000000000000000\n        /* \"#utility.yul\":2574:2575   */\n      0x00\n        /* \"#utility.yul\":2567:2655   */\n      mstore\n        /* \"#utility.yul\":2674:2678   */\n      0x11\n        /* \"#utility.yul\":2671:2672   */\n      0x04\n        /* \"#utility.yul\":2664:2679   */\n      mstore\n        /* \"#utility.yul\":2698:2702   */\n      0x24\n        /* \"#utility.yul\":2695:2696   */\n      0x00\n        /* \"#utility.yul\":2688:2703   */\n      revert\n        /* \"#utility.yul\":2715:2906   */\n    tag_21:\n        /* \"#utility.yul\":2755:2758   */\n      0x00\n        /* \"#utility.yul\":2774:2794   */\n      tag_62\n        /* \"#utility.yul\":2792:2793   */\n      dup3\n        /* \"#utility.yul\":2774:2794   */\n      tag_27\n      jump\t// in\n    tag_62:\n        /* \"#utility.yul\":2769:2794   */\n      swap2\n      pop\n        /* \"#utility.yul\":2808:2828   */\n      tag_63\n        /* \"#utility.yul\":2826:2827   */\n      dup4\n        /* \"#utility.yul\":2808:2828   */\n      tag_27\n      jump\t// in\n    tag_63:\n        /* \"#utility.yul\":2803:2828   */\n      swap3\n      pop\n        /* \"#utility.yul\":2851:2852   */\n      dup3\n        /* \"#utility.yul\":2848:2849   */\n      dup3\n        /* \"#utility.yul\":2844:2853   */\n      add\n        /* \"#utility.yul\":2837:2853   */\n      swap1\n      pop\n        /* \"#utility.yul\":2872:2875   */\n      dup1\n        /* \"#utility.yul\":2869:2870   */\n      dup3\n        /* \"#utility.yul\":2866:2876   */\n      gt\n        /* \"#utility.yul\":2863:2899   */\n      iszero\n      tag_64\n      jumpi\n        /* \"#utility.yul\":2879:2897   */\n      tag_65\n      tag_34\n      jump\t// in\n    tag_65:\n        /* \"#utility.yul\":2863:2899   */\n    tag_64:\n        /* \"#utility.yul\":2715:2906   */\n      swap3\n      swap2\n      pop\n      pop\n      jump\t// out\n        /* \"#utility.yul\":2912:3145   */\n    tag_23:\n        /* \"#utility.yul\":2951:2954   */\n      0x00\n        /* \"#utility.yul\":2974:2998   */\n      tag_67\n        /* \"#utility.yul\":2992:2997   */\n      dup3\n        /* \"#utility.yul\":2974:2998   */\n      tag_27\n      jump\t// in\n    tag_67:\n        /* \"#utility.yul\":2965:2998   */\n      swap2\n      pop\n        /* \"#utility.yul\":3020:3086   */\n      0xffffffffffffffffffffffffffffffffffffffffffffffffffffffffffffffff\n        /* \"#utility.yul\":3013:3018   */\n      dup3\n        /* \"#utility.yul\":3010:3087   */\n      sub\n        /* \"#utility.yul\":3007:3110   */\n      tag_68\n      jumpi\n        /* \"#utility.yul\":3090:3108   */\n      tag_69\n      tag_34\n      jump\t// in\n    tag_69:\n        /* \"#utility.yul\":3007:3110   */\n    tag_68:\n        /* \"#utility.yul\":3137:3138   */\n      0x01\n        /* \"#utility.yul\":3130:3135   */\n      dup3\n        /* \"#utility.yul\":3126:3139   */\n      add\n        /* \"#utility.yul\":3119:3139   */\n      swap1\n      pop\n        /* \"#utility.yul\":2912:3145   */\n      swap2\n      swap1\n      pop\n      jump\t// out\n\n    auxdata: 0xa2646970667358221220191ebd2e66fa09e543231ca7cb81ee5d00785ddc0bbe247044e865818c4a60bf64736f6c634300081a0033\n}\n",
				"bytecode": {
					"linkReferences": {},
					"object": "6080604052348015600e575f80fd5b506102e88061001c5f395ff3fe608060405234801561000f575f80fd5b5060043610610029575f3560e01c806390cbcf921461002d575b5f80fd5b61004760048036038101906100429190610140565b61005d565b604051610054919061017a565b60405180910390f35b5f8082116100a0576040517f08c379a0000000000000000000000000000000000000000000000000000000008152600401610097906101ed565b60405180910390fd5b600182036100b0575f9050610104565b600282036100c15760019050610104565b5f80600190505f80600390505b8581116100fc5782846100e19190610238565b915082935081925080806100f49061026b565b9150506100ce565b508093505050505b919050565b5f80fd5b5f819050919050565b61011f8161010d565b8114610129575f80fd5b50565b5f8135905061013a81610116565b92915050565b5f6020828403121561015557610154610109565b5b5f6101628482850161012c565b91505092915050565b6101748161010d565b82525050565b5f60208201905061018d5f83018461016b565b92915050565b5f82825260208201905092915050565b7f6e206d7573742062652067726561746572207468616e203000000000000000005f82015250565b5f6101d7601883610193565b91506101e2826101a3565b602082019050919050565b5f6020820190508181035f830152610204816101cb565b9050919050565b7f4e487b71000000000000000000000000000000000000000000000000000000005f52601160045260245ffd5b5f6102428261010d565b915061024d8361010d565b92508282019050808211156102655761026461020b565b5b92915050565b5f6102758261010d565b91507fffffffffffffffffffffffffffffffffffffffffffffffffffffffffffffffff82036102a7576102a661020b565b5b60018201905091905056fea2646970667358221220191ebd2e66fa09e543231ca7cb81ee5d00785ddc0bbe247044e865818c4a60bf64736f6c634300081a0033",
					"opcodes": "PUSH1 0x80 PUSH1 0x40 MSTORE CALLVALUE DUP1 ISZERO PUSH1 0xE JUMPI PUSH0 DUP1 REVERT JUMPDEST POP PUSH2 0x2E8 DUP1 PUSH2 0x1C PUSH0 CODECOPY PUSH0 RETURN INVALID PUSH1 0x80 PUSH1 0x40 MSTORE CALLVALUE DUP1 ISZERO PUSH2 0xF JUMPI PUSH0 DUP1 REVERT JUMPDEST POP PUSH1 0x4 CALLDATASIZE LT PUSH2 0x29 JUMPI PUSH0 CALLDATALOAD PUSH1 0xE0 SHR DUP1 PUSH4 0x90CBCF92 EQ PUSH2 0x2D JUMPI JUMPDEST PUSH0 DUP1 REVERT JUMPDEST PUSH2 0x47 PUSH1 0x4 DUP1 CALLDATASIZE SUB DUP2 ADD SWAP1 PUSH2 0x42 SWAP2 SWAP1 PUSH2 0x140 JUMP JUMPDEST PUSH2 0x5D JUMP JUMPDEST PUSH1 0x40 MLOAD PUSH2 0x54 SWAP2 SWAP1 PUSH2 0x17A JUMP JUMPDEST PUSH1 0x40 MLOAD DUP1 SWAP2 SUB SWAP1 RETURN JUMPDEST PUSH0 DUP1 DUP3 GT PUSH2 0xA0 JUMPI PUSH1 0x40 MLOAD PUSH32 0x8C379A000000000000000000000000000000000000000000000000000000000 DUP2 MSTORE PUSH1 0x4 ADD PUSH2 0x97 SWAP1 PUSH2 0x1ED JUMP JUMPDEST PUSH1 0x40 MLOAD DUP1 SWAP2 SUB SWAP1 REVERT JUMPDEST PUSH1 0x1 DUP3 SUB PUSH2 0xB0 JUMPI PUSH0 SWAP1 POP PUSH2 0x104 JUMP JUMPDEST PUSH1 0x2 DUP3 SUB PUSH2 0xC1 JUMPI PUSH1 0x1 SWAP1 POP PUSH2 0x104 JUMP JUMPDEST PUSH0 DUP1 PUSH1 0x1 SWAP1 POP PUSH0 DUP1 PUSH1 0x3 SWAP1 POP JUMPDEST DUP6 DUP2 GT PUSH2 0xFC JUMPI DUP3 DUP5 PUSH2 0xE1 SWAP2 SWAP1 PUSH2 0x238 JUMP JUMPDEST SWAP2 POP DUP3 SWAP4 POP DUP2 SWAP3 POP DUP1 DUP1 PUSH2 0xF4 SWAP1 PUSH2 0x26B JUMP JUMPDEST SWAP2 POP POP PUSH2 0xCE JUMP JUMPDEST POP DUP1 SWAP4 POP POP POP POP JUMPDEST SWAP2 SWAP1 POP JUMP JUMPDEST PUSH0 DUP1 REVERT JUMPDEST PUSH0 DUP2 SWAP1 POP SWAP2 SWAP1 POP JUMP JUMPDEST PUSH2 0x11F DUP2 PUSH2 0x10D JUMP JUMPDEST DUP2 EQ PUSH2 0x129 JUMPI PUSH0 DUP1 REVERT JUMPDEST POP JUMP JUMPDEST PUSH0 DUP2 CALLDATALOAD SWAP1 POP PUSH2 0x13A DUP2 PUSH2 0x116 JUMP JUMPDEST SWAP3 SWAP2 POP POP JUMP JUMPDEST PUSH0 PUSH1 0x20 DUP3 DUP5 SUB SLT ISZERO PUSH2 0x155 JUMPI PUSH2 0x154 PUSH2 0x109 JUMP JUMPDEST JUMPDEST PUSH0 PUSH2 0x162 DUP5 DUP3 DUP6 ADD PUSH2 0x12C JUMP JUMPDEST SWAP2 POP POP SWAP3 SWAP2 POP POP JUMP JUMPDEST PUSH2 0x174 DUP2 PUSH2 0x10D JUMP JUMPDEST DUP3 MSTORE POP POP JUMP JUMPDEST PUSH0 PUSH1 0x20 DUP3 ADD SWAP1 POP PUSH2 0x18D PUSH0 DUP4 ADD DUP5 PUSH2 0x16B JUMP JUMPDEST SWAP3 SWAP2 POP POP JUMP JUMPDEST PUSH0 DUP3 DUP3 MSTORE PUSH1 0x20 DUP3 ADD SWAP1 POP SWAP3 SWAP2 POP POP JUMP JUMPDEST PUSH32 0x6E206D7573742062652067726561746572207468616E20300000000000000000 PUSH0 DUP3 ADD MSTORE POP JUMP JUMPDEST PUSH0 PUSH2 0x1D7 PUSH1 0x18 DUP4 PUSH2 0x193 JUMP JUMPDEST SWAP2 POP PUSH2 0x1E2 DUP3 PUSH2 0x1A3 JUMP JUMPDEST PUSH1 0x20 DUP3 ADD SWAP1 POP SWAP2 SWAP1 POP JUMP JUMPDEST PUSH0 PUSH1 0x20 DUP3 ADD SWAP1 POP DUP2 DUP2 SUB PUSH0 DUP4 ADD MSTORE PUSH2 0x204 DUP2 PUSH2 0x1CB JUMP JUMPDEST SWAP1 POP SWAP2 SWAP1 POP JUMP JUMPDEST PUSH32 0x4E487B7100000000000000000000000000000000000000000000000000000000 PUSH0 MSTORE PUSH1 0x11 PUSH1 0x4 MSTORE PUSH1 0x24 PUSH0 REVERT JUMPDEST PUSH0 PUSH2 0x242 DUP3 PUSH2 0x10D JUMP JUMPDEST SWAP2 POP PUSH2 0x24D DUP4 PUSH2 0x10D JUMP JUMPDEST SWAP3 POP DUP3 DUP3 ADD SWAP1 POP DUP1 DUP3 GT ISZERO PUSH2 0x265 JUMPI PUSH2 0x264 PUSH2 0x20B JUMP JUMPDEST JUMPDEST SWAP3 SWAP2 POP POP JUMP JUMPDEST PUSH0 PUSH2 0x275 DUP3 PUSH2 0x10D JUMP JUMPDEST SWAP2 POP PUSH32 0xFFFFFFFFFFFFFFFFFFFFFFFFFFFFFFFFFFFFFFFFFFFFFFFFFFFFFFFFFFFFFFFF DUP3 SUB PUSH2 0x2A7 JUMPI PUSH2 0x2A6 PUSH2 0x20B JUMP JUMPDEST JUMPDEST PUSH1 0x1 DUP3 ADD SWAP1 POP SWAP2 SWAP1 POP JUMP INVALID LOG2 PUSH5 0x6970667358 0x22 SLT KECCAK256 NOT 0x1E 0xBD 0x2E PUSH7 0xFA09E543231CA7 0xCB DUP2 0xEE TSTORE STOP PUSH25 0x5DDC0BBE247044E865818C4A60BF64736F6C634300081A0033 "
				},
				"gasEstimates": {
					"creation": {
						"codeDepositCost": "148800",
						"executionCost": "194",
						"totalCost": "148994"
					},
					"external": {
						"getFibonacci(uint256)": "infinite"
					}
				},
				"methodIdentifiers": {
					"getFibonacci(uint256)": "90cbcf92"
				}
			},
			"storageLayout": {
				"storage": [],
				"types": null
			},
			"userdoc": {
				"kind": "user",
				"methods": {},
				"version": 1
			}
		}
	}
}