{
	"contracts/Blockchain_Assignment_3/Task_Codes/as3_task2.sol": {
		"EvenCheck": {
			"abi": [
				{
					"inputs": [
						{
							"internalType": "int256",
							"name": "number",
							"type": "int256"
						}
					],
					"name": "isEven",
					"outputs": [
						{
							"internalType": "bool",
							"name": "",
							"type": "bool"
						}
					],
					"stateMutability": "pure",
					"type": "function"
				}
			],
			"devdoc": {
				"kind": "dev",
				"methods": {},
				"version": 1
			},
			"evm": {
				"assembly": "    /* \"contracts/Blockchain_Assignment_3/Task_Codes/as3_task2.sol\":216:458  contract EvenCheck {... */\n  mstore(0x40, 0x80)\n  callvalue\n  dup1\n  iszero\n  tag_1\n  jumpi\n  0x00\n  dup1\n  revert\ntag_1:\n  pop\n  dataSize(sub_0)\n  dup1\n  dataOffset(sub_0)\n  0x00\n  codecopy\n  0x00\n  return\nstop\n\nsub_0: assembly {\n        /* \"contracts/Blockchain_Assignment_3/Task_Codes/as3_task2.sol\":216:458  contract EvenCheck {... */\n      mstore(0x40, 0x80)\n      callvalue\n      dup1\n      iszero\n      tag_1\n      jumpi\n      0x00\n      dup1\n      revert\n    tag_1:\n      pop\n      jumpi(tag_2, lt(calldatasize, 0x04))\n      shr(0xe0, calldataload(0x00))\n      dup1\n      0xa81a14c8\n      eq\n      tag_3\n      jumpi\n    tag_2:\n      0x00\n      dup1\n      revert\n        /* \"contracts/Blockchain_Assignment_3/Task_Codes/as3_task2.sol\":356:455  function isEven(int256 number) public pure returns (bool) {... */\n    tag_3:\n      tag_4\n      0x04\n      dup1\n      calldatasize\n      sub\n      dup2\n      add\n      swap1\n      tag_5\n      swap2\n      swap1\n      tag_6\n      jump\t// in\n    tag_5:\n      tag_7\n      jump\t// in\n    tag_4:\n      mload(0x40)\n      tag_8\n      swap2\n      swap1\n      tag_9\n      jump\t// in\n    tag_8:\n      mload(0x40)\n      dup1\n      swap2\n      sub\n      swap1\n      return\n    tag_7:\n        /* \"contracts/Blockchain_Assignment_3/Task_Codes/as3_task2.sol\":408:412  bool */\n      0x00\n        /* \"contracts/Blockchain_Assignment_3/Task_Codes/as3_task2.sol\":446:447  0 */\n      dup1\n        /* \"contracts/Blockchain_Assignment_3/Task_Codes/as3_task2.sol\":441:442  2 */\n      0x02\n        /* \"contracts/Blockchain_Assignment_3/Task_Codes/as3_task2.sol\":432:438  number */\n      dup4\n        /* \"contracts/Blockchain_Assignment_3/Task_Codes/as3_task2.sol\":432:442  number % 2 */\n      tag_11\n      swap2\n      swap1\n      tag_12\n      jump\t// in\n    tag_11:\n        /* \"contracts/Blockchain_Assignment_3/Task_Codes/as3_task2.sol\":432:447  number % 2 == 0 */\n      eq\n        /* \"contracts/Blockchain_Assignment_3/Task_Codes/as3_task2.sol\":425:447  return number % 2 == 0 */\n      swap1\n      pop\n        /* \"contracts/Blockchain_Assignment_3/Task_Codes/as3_task2.sol\":356:455  function isEven(int256 number) public pure returns (bool) {... */\n      swap2\n      swap1\n      pop\n      jump\t// out\n        /* \"#utility.yul\":88:205   */\n    tag_14:\n        /* \"#utility.yul\":197:198   */\n      0x00\n        /* \"#utility.yul\":194:195   */\n      dup1\n        /* \"#utility.yul\":187:199   */\n      revert\n        /* \"#utility.yul\":334:410   */\n    tag_16:\n        /* \"#utility.yul\":370:377   */\n      0x00\n        /* \"#utility.yul\":399:404   */\n      dup2\n        /* \"#utility.yul\":388:404   */\n      swap1\n      pop\n        /* \"#utility.yul\":334:410   */\n      swap2\n      swap1\n      pop\n      jump\t// out\n        /* \"#utility.yul\":416:536   */\n    tag_17:\n        /* \"#utility.yul\":488:511   */\n      tag_28\n        /* \"#utility.yul\":505:510   */\n      dup2\n        /* \"#utility.yul\":488:511   */\n      tag_16\n      jump\t// in\n    tag_28:\n        /* \"#utility.yul\":481:486   */\n      dup2\n        /* \"#utility.yul\":478:512   */\n      eq\n        /* \"#utility.yul\":468:530   */\n      tag_29\n      jumpi\n        /* \"#utility.yul\":526:527   */\n      0x00\n        /* \"#utility.yul\":523:524   */\n      dup1\n        /* \"#utility.yul\":516:528   */\n      revert\n        /* \"#utility.yul\":468:530   */\n    tag_29:\n        /* \"#utility.yul\":416:536   */\n      pop\n      jump\t// out\n        /* \"#utility.yul\":542:679   */\n    tag_18:\n        /* \"#utility.yul\":587:592   */\n      0x00\n        /* \"#utility.yul\":625:631   */\n      dup2\n        /* \"#utility.yul\":612:632   */\n      calldataload\n        /* \"#utility.yul\":603:632   */\n      swap1\n      pop\n        /* \"#utility.yul\":641:673   */\n      tag_31\n        /* \"#utility.yul\":667:672   */\n      dup2\n        /* \"#utility.yul\":641:673   */\n      tag_17\n      jump\t// in\n    tag_31:\n        /* \"#utility.yul\":542:679   */\n      swap3\n      swap2\n      pop\n      pop\n      jump\t// out\n        /* \"#utility.yul\":685:1012   */\n    tag_6:\n        /* \"#utility.yul\":743:749   */\n      0x00\n        /* \"#utility.yul\":792:794   */\n      0x20\n        /* \"#utility.yul\":780:789   */\n      dup3\n        /* \"#utility.yul\":771:778   */\n      dup5\n        /* \"#utility.yul\":767:790   */\n      sub\n        /* \"#utility.yul\":763:795   */\n      slt\n        /* \"#utility.yul\":760:879   */\n      iszero\n      tag_33\n      jumpi\n        /* \"#utility.yul\":798:877   */\n      tag_34\n      tag_14\n      jump\t// in\n    tag_34:\n        /* \"#utility.yul\":760:879   */\n    tag_33:\n        /* \"#utility.yul\":918:919   */\n      0x00\n        /* \"#utility.yul\":943:995   */\n      tag_35\n        /* \"#utility.yul\":987:994   */\n      dup5\n        /* \"#utility.yul\":978:984   */\n      dup3\n        /* \"#utility.yul\":967:976   */\n      dup6\n        /* \"#utility.yul\":963:985   */\n      add\n        /* \"#utility.yul\":943:995   */\n      tag_18\n      jump\t// in\n    tag_35:\n        /* \"#utility.yul\":933:995   */\n      swap2\n      pop\n        /* \"#utility.yul\":889:1005   */\n      pop\n        /* \"#utility.yul\":685:1012   */\n      swap3\n      swap2\n      pop\n      pop\n      jump\t// out\n        /* \"#utility.yul\":1018:1108   */\n    tag_19:\n        /* \"#utility.yul\":1052:1059   */\n      0x00\n        /* \"#utility.yul\":1095:1100   */\n      dup2\n        /* \"#utility.yul\":1088:1101   */\n      iszero\n        /* \"#utility.yul\":1081:1102   */\n      iszero\n        /* \"#utility.yul\":1070:1102   */\n      swap1\n      pop\n        /* \"#utility.yul\":1018:1108   */\n      swap2\n      swap1\n      pop\n      jump\t// out\n        /* \"#utility.yul\":1114:1223   */\n    tag_20:\n        /* \"#utility.yul\":1195:1216   */\n      tag_38\n        /* \"#utility.yul\":1210:1215   */\n      dup2\n        /* \"#utility.yul\":1195:1216   */\n      tag_19\n      jump\t// in\n    tag_38:\n        /* \"#utility.yul\":1190:1193   */\n      dup3\n        /* \"#utility.yul\":1183:1217   */\n      mstore\n        /* \"#utility.yul\":1114:1223   */\n      pop\n      pop\n      jump\t// out\n        /* \"#utility.yul\":1229:1439   */\n    tag_9:\n        /* \"#utility.yul\":1316:1320   */\n      0x00\n        /* \"#utility.yul\":1354:1356   */\n      0x20\n        /* \"#utility.yul\":1343:1352   */\n      dup3\n        /* \"#utility.yul\":1339:1357   */\n      add\n        /* \"#utility.yul\":1331:1357   */\n      swap1\n      pop\n        /* \"#utility.yul\":1367:1432   */\n      tag_40\n        /* \"#utility.yul\":1429:1430   */\n      0x00\n        /* \"#utility.yul\":1418:1427   */\n      dup4\n        /* \"#utility.yul\":1414:1431   */\n      add\n        /* \"#utility.yul\":1405:1411   */\n      dup5\n        /* \"#utility.yul\":1367:1432   */\n      tag_20\n      jump\t// in\n    tag_40:\n        /* \"#utility.yul\":1229:1439   */\n      swap3\n      swap2\n      pop\n      pop\n      jump\t// out\n        /* \"#utility.yul\":1445:1625   */\n    tag_21:\n        /* \"#utility.yul\":1493:1570   */\n      0x4e487b7100000000000000000000000000000000000000000000000000000000\n        /* \"#utility.yul\":1490:1491   */\n      0x00\n        /* \"#utility.yul\":1483:1571   */\n      mstore\n        /* \"#utility.yul\":1590:1594   */\n      0x12\n        /* \"#utility.yul\":1587:1588   */\n      0x04\n        /* \"#utility.yul\":1580:1595   */\n      mstore\n        /* \"#utility.yul\":1614:1618   */\n      0x24\n        /* \"#utility.yul\":1611:1612   */\n      0x00\n        /* \"#utility.yul\":1604:1619   */\n      revert\n        /* \"#utility.yul\":1631:1805   */\n    tag_12:\n        /* \"#utility.yul\":1662:1663   */\n      0x00\n        /* \"#utility.yul\":1679:1698   */\n      tag_43\n        /* \"#utility.yul\":1696:1697   */\n      dup3\n        /* \"#utility.yul\":1679:1698   */\n      tag_16\n      jump\t// in\n    tag_43:\n        /* \"#utility.yul\":1674:1698   */\n      swap2\n      pop\n        /* \"#utility.yul\":1712:1731   */\n      tag_44\n        /* \"#utility.yul\":1729:1730   */\n      dup4\n        /* \"#utility.yul\":1712:1731   */\n      tag_16\n      jump\t// in\n    tag_44:\n        /* \"#utility.yul\":1707:1731   */\n      swap3\n      pop\n        /* \"#utility.yul\":1750:1751   */\n      dup3\n        /* \"#utility.yul\":1740:1775   */\n      tag_45\n      jumpi\n        /* \"#utility.yul\":1755:1773   */\n      tag_46\n      tag_21\n      jump\t// in\n    tag_46:\n        /* \"#utility.yul\":1740:1775   */\n    tag_45:\n        /* \"#utility.yul\":1797:1798   */\n      dup3\n        /* \"#utility.yul\":1794:1795   */\n      dup3\n        /* \"#utility.yul\":1789:1799   */\n      smod\n        /* \"#utility.yul\":1784:1799   */\n      swap1\n      pop\n        /* \"#utility.yul\":1631:1805   */\n      swap3\n      swap2\n      pop\n      pop\n      jump\t// out\n\n    auxdata: 0xa2646970667358221220bc7d7f033aea6284b6099dcc5451f306de17ca988f94c617b0171787dd53cefa64736f6c634300081a0033\n}\n",
				"bytecode": {
					"linkReferences": {},
					"object": "6080604052348015600e575f80fd5b5061019c8061001c5f395ff3fe608060405234801561000f575f80fd5b5060043610610029575f3560e01c8063a81a14c81461002d575b5f80fd5b610047600480360381019061004291906100ab565b61005d565b60405161005491906100f0565b60405180910390f35b5f8060028361006c9190610136565b149050919050565b5f80fd5b5f819050919050565b61008a81610078565b8114610094575f80fd5b50565b5f813590506100a581610081565b92915050565b5f602082840312156100c0576100bf610074565b5b5f6100cd84828501610097565b91505092915050565b5f8115159050919050565b6100ea816100d6565b82525050565b5f6020820190506101035f8301846100e1565b92915050565b7f4e487b71000000000000000000000000000000000000000000000000000000005f52601260045260245ffd5b5f61014082610078565b915061014b83610078565b92508261015b5761015a610109565b5b82820790509291505056fea2646970667358221220bc7d7f033aea6284b6099dcc5451f306de17ca988f94c617b0171787dd53cefa64736f6c634300081a0033",
					"opcodes": "PUSH1 0x80 PUSH1 0x40 MSTORE CALLVALUE DUP1 ISZERO PUSH1 0xE JUMPI PUSH0 DUP1 REVERT JUMPDEST POP PUSH2 0x19C DUP1 PUSH2 0x1C PUSH0 CODECOPY PUSH0 RETURN INVALID PUSH1 0x80 PUSH1 0x40 MSTORE CALLVALUE DUP1 ISZERO PUSH2 0xF JUMPI PUSH0 DUP1 REVERT JUMPDEST POP PUSH1 0x4 CALLDATASIZE LT PUSH2 0x29 JUMPI PUSH0 CALLDATALOAD PUSH1 0xE0 SHR DUP1 PUSH4 0xA81A14C8 EQ PUSH2 0x2D JUMPI JUMPDEST PUSH0 DUP1 REVERT JUMPDEST PUSH2 0x47 PUSH1 0x4 DUP1 CALLDATASIZE SUB DUP2 ADD SWAP1 PUSH2 0x42 SWAP2 SWAP1 PUSH2 0xAB JUMP JUMPDEST PUSH2 0x5D JUMP JUMPDEST PUSH1 0x40 MLOAD PUSH2 0x54 SWAP2 SWAP1 PUSH2 0xF0 JUMP JUMPDEST PUSH1 0x40 MLOAD DUP1 SWAP2 SUB SWAP1 RETURN JUMPDEST PUSH0 DUP1 PUSH1 0x2 DUP4 PUSH2 0x6C SWAP2 SWAP1 PUSH2 0x136 JUMP JUMPDEST EQ SWAP1 POP SWAP2 SWAP1 POP JUMP JUMPDEST PUSH0 DUP1 REVERT JUMPDEST PUSH0 DUP2 SWAP1 POP SWAP2 SWAP1 POP JUMP JUMPDEST PUSH2 0x8A DUP2 PUSH2 0x78 JUMP JUMPDEST DUP2 EQ PUSH2 0x94 JUMPI PUSH0 DUP1 REVERT JUMPDEST POP JUMP JUMPDEST PUSH0 DUP2 CALLDATALOAD SWAP1 POP PUSH2 0xA5 DUP2 PUSH2 0x81 JUMP JUMPDEST SWAP3 SWAP2 POP POP JUMP JUMPDEST PUSH0 PUSH1 0x20 DUP3 DUP5 SUB SLT ISZERO PUSH2 0xC0 JUMPI PUSH2 0xBF PUSH2 0x74 JUMP JUMPDEST JUMPDEST PUSH0 PUSH2 0xCD DUP5 DUP3 DUP6 ADD PUSH2 0x97 JUMP JUMPDEST SWAP2 POP POP SWAP3 SWAP2 POP POP JUMP JUMPDEST PUSH0 DUP2 ISZERO ISZERO SWAP1 POP SWAP2 SWAP1 POP JUMP JUMPDEST PUSH2 0xEA DUP2 PUSH2 0xD6 JUMP JUMPDEST DUP3 MSTORE POP POP JUMP JUMPDEST PUSH0 PUSH1 0x20 DUP3 ADD SWAP1 POP PUSH2 0x103 PUSH0 DUP4 ADD DUP5 PUSH2 0xE1 JUMP JUMPDEST SWAP3 SWAP2 POP POP JUMP JUMPDEST PUSH32 0x4E487B7100000000000000000000000000000000000000000000000000000000 PUSH0 MSTORE PUSH1 0x12 PUSH1 0x4 MSTORE PUSH1 0x24 PUSH0 REVERT JUMPDEST PUSH0 PUSH2 0x140 DUP3 PUSH2 0x78 JUMP JUMPDEST SWAP2 POP PUSH2 0x14B DUP4 PUSH2 0x78 JUMP JUMPDEST SWAP3 POP DUP3 PUSH2 0x15B JUMPI PUSH2 0x15A PUSH2 0x109 JUMP JUMPDEST JUMPDEST DUP3 DUP3 SMOD SWAP1 POP SWAP3 SWAP2 POP POP JUMP INVALID LOG2 PUSH5 0x6970667358 0x22 SLT KECCAK256 0xBC PUSH30 0x7F033AEA6284B6099DCC5451F306DE17CA988F94C617B0171787DD53CEFA PUSH5 0x736F6C6343 STOP ADDMOD BYTE STOP CALLER "
				},
				"gasEstimates": {
					"creation": {
						"codeDepositCost": "82400",
						"executionCost": "127",
						"totalCost": "82527"
					},
					"external": {
						"isEven(int256)": "infinite"
					}
				},
				"methodIdentifiers": {
					"isEven(int256)": "a81a14c8"
				}
			},
			"storageLayout": {
				"storage": [],
				"types": null
			},
			"userdoc": {
				"kind": "user",
				"methods": {},
				"version": 1
			}
		}
	}
}