{
	"contracts/Blockchain_Assignment_3/Task_Codes/as3_task3.sol": {
		"PerfectSquareChecker": {
			"abi": [
				{
					"inputs": [
						{
							"internalType": "uint256",
							"name": "n",
							"type": "uint256"
						}
					],
					"name": "isPerfectSquare",
					"outputs": [
						{
							"internalType": "bool",
							"name": "",
							"type": "bool"
						}
					],
					"stateMutability": "pure",
					"type": "function"
				}
			],
			"devdoc": {
				"kind": "dev",
				"methods": {},
				"version": 1
			},
			"evm": {
				"assembly": "    /* \"contracts/Blockchain_Assignment_3/Task_Codes/as3_task3.sol\":28:866  contract PerfectSquareChecker {... */\n  mstore(0x40, 0x80)\n  callvalue\n  dup1\n  iszero\n  tag_1\n  jumpi\n  0x00\n  dup1\n  revert\ntag_1:\n  pop\n  dataSize(sub_0)\n  dup1\n  dataOffset(sub_0)\n  0x00\n  codecopy\n  0x00\n  return\nstop\n\nsub_0: assembly {\n        /* \"contracts/Blockchain_Assignment_3/Task_Codes/as3_task3.sol\":28:866  contract PerfectSquareChecker {... */\n      mstore(0x40, 0x80)\n      callvalue\n      dup1\n      iszero\n      tag_1\n      jumpi\n      0x00\n      dup1\n      revert\n    tag_1:\n      pop\n      jumpi(tag_2, lt(calldatasize, 0x04))\n      shr(0xe0, calldataload(0x00))\n      dup1\n      0x9d2b7e84\n      eq\n      tag_3\n      jumpi\n    tag_2:\n      0x00\n      dup1\n      revert\n        /* \"contracts/Blockchain_Assignment_3/Task_Codes/as3_task3.sol\":123:863  function isPerfectSquare(uint256 n) public pure returns (bool) {... */\n    tag_3:\n      tag_4\n      0x04\n      dup1\n      calldatasize\n      sub\n      dup2\n      add\n      swap1\n      tag_5\n      swap2\n      swap1\n      tag_6\n      jump\t// in\n    tag_5:\n      tag_7\n      jump\t// in\n    tag_4:\n      mload(0x40)\n      tag_8\n      swap2\n      swap1\n      tag_9\n      jump\t// in\n    tag_8:\n      mload(0x40)\n      dup1\n      swap2\n      sub\n      swap1\n      return\n    tag_7:\n        /* \"contracts/Blockchain_Assignment_3/Task_Codes/as3_task3.sol\":180:184  bool */\n      0x00\n        /* \"contracts/Blockchain_Assignment_3/Task_Codes/as3_task3.sol\":206:207  0 */\n      dup1\n        /* \"contracts/Blockchain_Assignment_3/Task_Codes/as3_task3.sol\":201:202  n */\n      dup3\n        /* \"contracts/Blockchain_Assignment_3/Task_Codes/as3_task3.sol\":201:207  n == 0 */\n      eq\n        /* \"contracts/Blockchain_Assignment_3/Task_Codes/as3_task3.sol\":201:217  n == 0 || n == 1 */\n      dup1\n      tag_11\n      jumpi\n      pop\n        /* \"contracts/Blockchain_Assignment_3/Task_Codes/as3_task3.sol\":216:217  1 */\n      0x01\n        /* \"contracts/Blockchain_Assignment_3/Task_Codes/as3_task3.sol\":211:212  n */\n      dup3\n        /* \"contracts/Blockchain_Assignment_3/Task_Codes/as3_task3.sol\":211:217  n == 1 */\n      eq\n        /* \"contracts/Blockchain_Assignment_3/Task_Codes/as3_task3.sol\":201:217  n == 0 || n == 1 */\n    tag_11:\n        /* \"contracts/Blockchain_Assignment_3/Task_Codes/as3_task3.sol\":197:288  if (n == 0 || n == 1) {... */\n      iszero\n      tag_12\n      jumpi\n        /* \"contracts/Blockchain_Assignment_3/Task_Codes/as3_task3.sol\":241:245  true */\n      0x01\n        /* \"contracts/Blockchain_Assignment_3/Task_Codes/as3_task3.sol\":234:245  return true */\n      swap1\n      pop\n      jump(tag_10)\n        /* \"contracts/Blockchain_Assignment_3/Task_Codes/as3_task3.sol\":197:288  if (n == 0 || n == 1) {... */\n    tag_12:\n        /* \"contracts/Blockchain_Assignment_3/Task_Codes/as3_task3.sol\":300:311  uint256 low */\n      0x00\n        /* \"contracts/Blockchain_Assignment_3/Task_Codes/as3_task3.sol\":314:315  1 */\n      0x01\n        /* \"contracts/Blockchain_Assignment_3/Task_Codes/as3_task3.sol\":300:315  uint256 low = 1 */\n      swap1\n      pop\n        /* \"contracts/Blockchain_Assignment_3/Task_Codes/as3_task3.sol\":326:338  uint256 high */\n      0x00\n        /* \"contracts/Blockchain_Assignment_3/Task_Codes/as3_task3.sol\":341:342  n */\n      dup4\n        /* \"contracts/Blockchain_Assignment_3/Task_Codes/as3_task3.sol\":326:342  uint256 high = n */\n      swap1\n      pop\n        /* \"contracts/Blockchain_Assignment_3/Task_Codes/as3_task3.sol\":409:807  while (low <= high) {... */\n    tag_13:\n        /* \"contracts/Blockchain_Assignment_3/Task_Codes/as3_task3.sol\":423:427  high */\n      dup1\n        /* \"contracts/Blockchain_Assignment_3/Task_Codes/as3_task3.sol\":416:419  low */\n      dup3\n        /* \"contracts/Blockchain_Assignment_3/Task_Codes/as3_task3.sol\":416:427  low <= high */\n      gt\n        /* \"contracts/Blockchain_Assignment_3/Task_Codes/as3_task3.sol\":409:807  while (low <= high) {... */\n      tag_14\n      jumpi\n        /* \"contracts/Blockchain_Assignment_3/Task_Codes/as3_task3.sol\":444:455  uint256 mid */\n      0x00\n        /* \"contracts/Blockchain_Assignment_3/Task_Codes/as3_task3.sol\":473:474  2 */\n      0x02\n        /* \"contracts/Blockchain_Assignment_3/Task_Codes/as3_task3.sol\":465:469  high */\n      dup3\n        /* \"contracts/Blockchain_Assignment_3/Task_Codes/as3_task3.sol\":459:462  low */\n      dup5\n        /* \"contracts/Blockchain_Assignment_3/Task_Codes/as3_task3.sol\":459:469  low + high */\n      tag_15\n      swap2\n      swap1\n      tag_16\n      jump\t// in\n    tag_15:\n        /* \"contracts/Blockchain_Assignment_3/Task_Codes/as3_task3.sol\":458:474  (low + high) / 2 */\n      tag_17\n      swap2\n      swap1\n      tag_18\n      jump\t// in\n    tag_17:\n        /* \"contracts/Blockchain_Assignment_3/Task_Codes/as3_task3.sol\":444:474  uint256 mid = (low + high) / 2 */\n      swap1\n      pop\n        /* \"contracts/Blockchain_Assignment_3/Task_Codes/as3_task3.sol\":489:503  uint256 square */\n      0x00\n        /* \"contracts/Blockchain_Assignment_3/Task_Codes/as3_task3.sol\":512:515  mid */\n      dup2\n        /* \"contracts/Blockchain_Assignment_3/Task_Codes/as3_task3.sol\":506:509  mid */\n      dup3\n        /* \"contracts/Blockchain_Assignment_3/Task_Codes/as3_task3.sol\":506:515  mid * mid */\n      tag_19\n      swap2\n      swap1\n      tag_20\n      jump\t// in\n    tag_19:\n        /* \"contracts/Blockchain_Assignment_3/Task_Codes/as3_task3.sol\":489:515  uint256 square = mid * mid */\n      swap1\n      pop\n        /* \"contracts/Blockchain_Assignment_3/Task_Codes/as3_task3.sol\":546:547  n */\n      dup6\n        /* \"contracts/Blockchain_Assignment_3/Task_Codes/as3_task3.sol\":536:542  square */\n      dup2\n        /* \"contracts/Blockchain_Assignment_3/Task_Codes/as3_task3.sol\":536:547  square == n */\n      sub\n        /* \"contracts/Blockchain_Assignment_3/Task_Codes/as3_task3.sol\":532:796  if (square == n) {... */\n      tag_21\n      jumpi\n        /* \"contracts/Blockchain_Assignment_3/Task_Codes/as3_task3.sol\":575:579  true */\n      0x01\n        /* \"contracts/Blockchain_Assignment_3/Task_Codes/as3_task3.sol\":568:579  return true */\n      swap5\n      pop\n      pop\n      pop\n      pop\n      pop\n      jump(tag_10)\n        /* \"contracts/Blockchain_Assignment_3/Task_Codes/as3_task3.sol\":532:796  if (square == n) {... */\n    tag_21:\n        /* \"contracts/Blockchain_Assignment_3/Task_Codes/as3_task3.sol\":639:640  n */\n      dup6\n        /* \"contracts/Blockchain_Assignment_3/Task_Codes/as3_task3.sol\":630:636  square */\n      dup2\n        /* \"contracts/Blockchain_Assignment_3/Task_Codes/as3_task3.sol\":630:640  square < n */\n      lt\n        /* \"contracts/Blockchain_Assignment_3/Task_Codes/as3_task3.sol\":626:796  if (square < n) {... */\n      iszero\n      tag_23\n      jumpi\n        /* \"contracts/Blockchain_Assignment_3/Task_Codes/as3_task3.sol\":673:674  1 */\n      0x01\n        /* \"contracts/Blockchain_Assignment_3/Task_Codes/as3_task3.sol\":667:670  mid */\n      dup3\n        /* \"contracts/Blockchain_Assignment_3/Task_Codes/as3_task3.sol\":667:674  mid + 1 */\n      tag_24\n      swap2\n      swap1\n      tag_16\n      jump\t// in\n    tag_24:\n        /* \"contracts/Blockchain_Assignment_3/Task_Codes/as3_task3.sol\":661:674  low = mid + 1 */\n      swap4\n      pop\n        /* \"contracts/Blockchain_Assignment_3/Task_Codes/as3_task3.sol\":626:796  if (square < n) {... */\n      jump(tag_25)\n    tag_23:\n        /* \"contracts/Blockchain_Assignment_3/Task_Codes/as3_task3.sol\":754:755  1 */\n      0x01\n        /* \"contracts/Blockchain_Assignment_3/Task_Codes/as3_task3.sol\":748:751  mid */\n      dup3\n        /* \"contracts/Blockchain_Assignment_3/Task_Codes/as3_task3.sol\":748:755  mid - 1 */\n      tag_26\n      swap2\n      swap1\n      tag_27\n      jump\t// in\n    tag_26:\n        /* \"contracts/Blockchain_Assignment_3/Task_Codes/as3_task3.sol\":741:755  high = mid - 1 */\n      swap3\n      pop\n        /* \"contracts/Blockchain_Assignment_3/Task_Codes/as3_task3.sol\":626:796  if (square < n) {... */\n    tag_25:\n        /* \"contracts/Blockchain_Assignment_3/Task_Codes/as3_task3.sol\":429:807  {... */\n      pop\n      pop\n        /* \"contracts/Blockchain_Assignment_3/Task_Codes/as3_task3.sol\":409:807  while (low <= high) {... */\n      jump(tag_13)\n    tag_14:\n        /* \"contracts/Blockchain_Assignment_3/Task_Codes/as3_task3.sol\":826:831  false */\n      0x00\n        /* \"contracts/Blockchain_Assignment_3/Task_Codes/as3_task3.sol\":819:831  return false */\n      swap3\n      pop\n      pop\n      pop\n        /* \"contracts/Blockchain_Assignment_3/Task_Codes/as3_task3.sol\":123:863  function isPerfectSquare(uint256 n) public pure returns (bool) {... */\n    tag_10:\n      swap2\n      swap1\n      pop\n      jump\t// out\n        /* \"#utility.yul\":88:205   */\n    tag_29:\n        /* \"#utility.yul\":197:198   */\n      0x00\n        /* \"#utility.yul\":194:195   */\n      dup1\n        /* \"#utility.yul\":187:199   */\n      revert\n        /* \"#utility.yul\":334:411   */\n    tag_31:\n        /* \"#utility.yul\":371:378   */\n      0x00\n        /* \"#utility.yul\":400:405   */\n      dup2\n        /* \"#utility.yul\":389:405   */\n      swap1\n      pop\n        /* \"#utility.yul\":334:411   */\n      swap2\n      swap1\n      pop\n      jump\t// out\n        /* \"#utility.yul\":417:539   */\n    tag_32:\n        /* \"#utility.yul\":490:514   */\n      tag_44\n        /* \"#utility.yul\":508:513   */\n      dup2\n        /* \"#utility.yul\":490:514   */\n      tag_31\n      jump\t// in\n    tag_44:\n        /* \"#utility.yul\":483:488   */\n      dup2\n        /* \"#utility.yul\":480:515   */\n      eq\n        /* \"#utility.yul\":470:533   */\n      tag_45\n      jumpi\n        /* \"#utility.yul\":529:530   */\n      0x00\n        /* \"#utility.yul\":526:527   */\n      dup1\n        /* \"#utility.yul\":519:531   */\n      revert\n        /* \"#utility.yul\":470:533   */\n    tag_45:\n        /* \"#utility.yul\":417:539   */\n      pop\n      jump\t// out\n        /* \"#utility.yul\":545:684   */\n    tag_33:\n        /* \"#utility.yul\":591:596   */\n      0x00\n        /* \"#utility.yul\":629:635   */\n      dup2\n        /* \"#utility.yul\":616:636   */\n      calldataload\n        /* \"#utility.yul\":607:636   */\n      swap1\n      pop\n        /* \"#utility.yul\":645:678   */\n      tag_47\n        /* \"#utility.yul\":672:677   */\n      dup2\n        /* \"#utility.yul\":645:678   */\n      tag_32\n      jump\t// in\n    tag_47:\n        /* \"#utility.yul\":545:684   */\n      swap3\n      swap2\n      pop\n      pop\n      jump\t// out\n        /* \"#utility.yul\":690:1019   */\n    tag_6:\n        /* \"#utility.yul\":749:755   */\n      0x00\n        /* \"#utility.yul\":798:800   */\n      0x20\n        /* \"#utility.yul\":786:795   */\n      dup3\n        /* \"#utility.yul\":777:784   */\n      dup5\n        /* \"#utility.yul\":773:796   */\n      sub\n        /* \"#utility.yul\":769:801   */\n      slt\n        /* \"#utility.yul\":766:885   */\n      iszero\n      tag_49\n      jumpi\n        /* \"#utility.yul\":804:883   */\n      tag_50\n      tag_29\n      jump\t// in\n    tag_50:\n        /* \"#utility.yul\":766:885   */\n    tag_49:\n        /* \"#utility.yul\":924:925   */\n      0x00\n        /* \"#utility.yul\":949:1002   */\n      tag_51\n        /* \"#utility.yul\":994:1001   */\n      dup5\n        /* \"#utility.yul\":985:991   */\n      dup3\n        /* \"#utility.yul\":974:983   */\n      dup6\n        /* \"#utility.yul\":970:992   */\n      add\n        /* \"#utility.yul\":949:1002   */\n      tag_33\n      jump\t// in\n    tag_51:\n        /* \"#utility.yul\":939:1002   */\n      swap2\n      pop\n        /* \"#utility.yul\":895:1012   */\n      pop\n        /* \"#utility.yul\":690:1019   */\n      swap3\n      swap2\n      pop\n      pop\n      jump\t// out\n        /* \"#utility.yul\":1025:1115   */\n    tag_34:\n        /* \"#utility.yul\":1059:1066   */\n      0x00\n        /* \"#utility.yul\":1102:1107   */\n      dup2\n        /* \"#utility.yul\":1095:1108   */\n      iszero\n        /* \"#utility.yul\":1088:1109   */\n      iszero\n        /* \"#utility.yul\":1077:1109   */\n      swap1\n      pop\n        /* \"#utility.yul\":1025:1115   */\n      swap2\n      swap1\n      pop\n      jump\t// out\n        /* \"#utility.yul\":1121:1230   */\n    tag_35:\n        /* \"#utility.yul\":1202:1223   */\n      tag_54\n        /* \"#utility.yul\":1217:1222   */\n      dup2\n        /* \"#utility.yul\":1202:1223   */\n      tag_34\n      jump\t// in\n    tag_54:\n        /* \"#utility.yul\":1197:1200   */\n      dup3\n        /* \"#utility.yul\":1190:1224   */\n      mstore\n        /* \"#utility.yul\":1121:1230   */\n      pop\n      pop\n      jump\t// out\n        /* \"#utility.yul\":1236:1446   */\n    tag_9:\n        /* \"#utility.yul\":1323:1327   */\n      0x00\n        /* \"#utility.yul\":1361:1363   */\n      0x20\n        /* \"#utility.yul\":1350:1359   */\n      dup3\n        /* \"#utility.yul\":1346:1364   */\n      add\n        /* \"#utility.yul\":1338:1364   */\n      swap1\n      pop\n        /* \"#utility.yul\":1374:1439   */\n      tag_56\n        /* \"#utility.yul\":1436:1437   */\n      0x00\n        /* \"#utility.yul\":1425:1434   */\n      dup4\n        /* \"#utility.yul\":1421:1438   */\n      add\n        /* \"#utility.yul\":1412:1418   */\n      dup5\n        /* \"#utility.yul\":1374:1439   */\n      tag_35\n      jump\t// in\n    tag_56:\n        /* \"#utility.yul\":1236:1446   */\n      swap3\n      swap2\n      pop\n      pop\n      jump\t// out\n        /* \"#utility.yul\":1452:1632   */\n    tag_36:\n        /* \"#utility.yul\":1500:1577   */\n      0x4e487b7100000000000000000000000000000000000000000000000000000000\n        /* \"#utility.yul\":1497:1498   */\n      0x00\n        /* \"#utility.yul\":1490:1578   */\n      mstore\n        /* \"#utility.yul\":1597:1601   */\n      0x11\n        /* \"#utility.yul\":1594:1595   */\n      0x04\n        /* \"#utility.yul\":1587:1602   */\n      mstore\n        /* \"#utility.yul\":1621:1625   */\n      0x24\n        /* \"#utility.yul\":1618:1619   */\n      0x00\n        /* \"#utility.yul\":1611:1626   */\n      revert\n        /* \"#utility.yul\":1638:1829   */\n    tag_16:\n        /* \"#utility.yul\":1678:1681   */\n      0x00\n        /* \"#utility.yul\":1697:1717   */\n      tag_59\n        /* \"#utility.yul\":1715:1716   */\n      dup3\n        /* \"#utility.yul\":1697:1717   */\n      tag_31\n      jump\t// in\n    tag_59:\n        /* \"#utility.yul\":1692:1717   */\n      swap2\n      pop\n        /* \"#utility.yul\":1731:1751   */\n      tag_60\n        /* \"#utility.yul\":1749:1750   */\n      dup4\n        /* \"#utility.yul\":1731:1751   */\n      tag_31\n      jump\t// in\n    tag_60:\n        /* \"#utility.yul\":1726:1751   */\n      swap3\n      pop\n        /* \"#utility.yul\":1774:1775   */\n      dup3\n        /* \"#utility.yul\":1771:1772   */\n      dup3\n        /* \"#utility.yul\":1767:1776   */\n      add\n        /* \"#utility.yul\":1760:1776   */\n      swap1\n      pop\n        /* \"#utility.yul\":1795:1798   */\n      dup1\n        /* \"#utility.yul\":1792:1793   */\n      dup3\n        /* \"#utility.yul\":1789:1799   */\n      gt\n        /* \"#utility.yul\":1786:1822   */\n      iszero\n      tag_61\n      jumpi\n        /* \"#utility.yul\":1802:1820   */\n      tag_62\n      tag_36\n      jump\t// in\n    tag_62:\n        /* \"#utility.yul\":1786:1822   */\n    tag_61:\n        /* \"#utility.yul\":1638:1829   */\n      swap3\n      swap2\n      pop\n      pop\n      jump\t// out\n        /* \"#utility.yul\":1835:2015   */\n    tag_37:\n        /* \"#utility.yul\":1883:1960   */\n      0x4e487b7100000000000000000000000000000000000000000000000000000000\n        /* \"#utility.yul\":1880:1881   */\n      0x00\n        /* \"#utility.yul\":1873:1961   */\n      mstore\n        /* \"#utility.yul\":1980:1984   */\n      0x12\n        /* \"#utility.yul\":1977:1978   */\n      0x04\n        /* \"#utility.yul\":1970:1985   */\n      mstore\n        /* \"#utility.yul\":2004:2008   */\n      0x24\n        /* \"#utility.yul\":2001:2002   */\n      0x00\n        /* \"#utility.yul\":1994:2009   */\n      revert\n        /* \"#utility.yul\":2021:2206   */\n    tag_18:\n        /* \"#utility.yul\":2061:2062   */\n      0x00\n        /* \"#utility.yul\":2078:2098   */\n      tag_65\n        /* \"#utility.yul\":2096:2097   */\n      dup3\n        /* \"#utility.yul\":2078:2098   */\n      tag_31\n      jump\t// in\n    tag_65:\n        /* \"#utility.yul\":2073:2098   */\n      swap2\n      pop\n        /* \"#utility.yul\":2112:2132   */\n      tag_66\n        /* \"#utility.yul\":2130:2131   */\n      dup4\n        /* \"#utility.yul\":2112:2132   */\n      tag_31\n      jump\t// in\n    tag_66:\n        /* \"#utility.yul\":2107:2132   */\n      swap3\n      pop\n        /* \"#utility.yul\":2151:2152   */\n      dup3\n        /* \"#utility.yul\":2141:2176   */\n      tag_67\n      jumpi\n        /* \"#utility.yul\":2156:2174   */\n      tag_68\n      tag_37\n      jump\t// in\n    tag_68:\n        /* \"#utility.yul\":2141:2176   */\n    tag_67:\n        /* \"#utility.yul\":2198:2199   */\n      dup3\n        /* \"#utility.yul\":2195:2196   */\n      dup3\n        /* \"#utility.yul\":2191:2200   */\n      div\n        /* \"#utility.yul\":2186:2200   */\n      swap1\n      pop\n        /* \"#utility.yul\":2021:2206   */\n      swap3\n      swap2\n      pop\n      pop\n      jump\t// out\n        /* \"#utility.yul\":2212:2622   */\n    tag_20:\n        /* \"#utility.yul\":2252:2259   */\n      0x00\n        /* \"#utility.yul\":2275:2295   */\n      tag_70\n        /* \"#utility.yul\":2293:2294   */\n      dup3\n        /* \"#utility.yul\":2275:2295   */\n      tag_31\n      jump\t// in\n    tag_70:\n        /* \"#utility.yul\":2270:2295   */\n      swap2\n      pop\n        /* \"#utility.yul\":2309:2329   */\n      tag_71\n        /* \"#utility.yul\":2327:2328   */\n      dup4\n        /* \"#utility.yul\":2309:2329   */\n      tag_31\n      jump\t// in\n    tag_71:\n        /* \"#utility.yul\":2304:2329   */\n      swap3\n      pop\n        /* \"#utility.yul\":2364:2365   */\n      dup3\n        /* \"#utility.yul\":2361:2362   */\n      dup3\n        /* \"#utility.yul\":2357:2366   */\n      mul\n        /* \"#utility.yul\":2386:2416   */\n      tag_72\n        /* \"#utility.yul\":2404:2415   */\n      dup2\n        /* \"#utility.yul\":2386:2416   */\n      tag_31\n      jump\t// in\n    tag_72:\n        /* \"#utility.yul\":2375:2416   */\n      swap2\n      pop\n        /* \"#utility.yul\":2565:2566   */\n      dup3\n        /* \"#utility.yul\":2556:2563   */\n      dup3\n        /* \"#utility.yul\":2552:2567   */\n      div\n        /* \"#utility.yul\":2549:2550   */\n      dup5\n        /* \"#utility.yul\":2546:2568   */\n      eq\n        /* \"#utility.yul\":2526:2527   */\n      dup4\n        /* \"#utility.yul\":2519:2528   */\n      iszero\n        /* \"#utility.yul\":2499:2582   */\n      or\n        /* \"#utility.yul\":2476:2615   */\n      tag_73\n      jumpi\n        /* \"#utility.yul\":2595:2613   */\n      tag_74\n      tag_36\n      jump\t// in\n    tag_74:\n        /* \"#utility.yul\":2476:2615   */\n    tag_73:\n        /* \"#utility.yul\":2260:2622   */\n      pop\n        /* \"#utility.yul\":2212:2622   */\n      swap3\n      swap2\n      pop\n      pop\n      jump\t// out\n        /* \"#utility.yul\":2628:2822   */\n    tag_27:\n        /* \"#utility.yul\":2668:2672   */\n      0x00\n        /* \"#utility.yul\":2688:2708   */\n      tag_76\n        /* \"#utility.yul\":2706:2707   */\n      dup3\n        /* \"#utility.yul\":2688:2708   */\n      tag_31\n      jump\t// in\n    tag_76:\n        /* \"#utility.yul\":2683:2708   */\n      swap2\n      pop\n        /* \"#utility.yul\":2722:2742   */\n      tag_77\n        /* \"#utility.yul\":2740:2741   */\n      dup4\n        /* \"#utility.yul\":2722:2742   */\n      tag_31\n      jump\t// in\n    tag_77:\n        /* \"#utility.yul\":2717:2742   */\n      swap3\n      pop\n        /* \"#utility.yul\":2766:2767   */\n      dup3\n        /* \"#utility.yul\":2763:2764   */\n      dup3\n        /* \"#utility.yul\":2759:2768   */\n      sub\n        /* \"#utility.yul\":2751:2768   */\n      swap1\n      pop\n        /* \"#utility.yul\":2790:2791   */\n      dup2\n        /* \"#utility.yul\":2784:2788   */\n      dup2\n        /* \"#utility.yul\":2781:2792   */\n      gt\n        /* \"#utility.yul\":2778:2815   */\n      iszero\n      tag_78\n      jumpi\n        /* \"#utility.yul\":2795:2813   */\n      tag_79\n      tag_36\n      jump\t// in\n    tag_79:\n        /* \"#utility.yul\":2778:2815   */\n    tag_78:\n        /* \"#utility.yul\":2628:2822   */\n      swap3\n      swap2\n      pop\n      pop\n      jump\t// out\n\n    auxdata: 0xa2646970667358221220f28dbc797a4f9973567f737ae0d0e62de6f36c9833690818fdf8dcc2deadcd5764736f6c634300081a0033\n}\n",
				"bytecode": {
					"linkReferences": {},
					"object": "6080604052348015600e575f80fd5b506103038061001c5f395ff3fe608060405234801561000f575f80fd5b5060043610610029575f3560e01c80639d2b7e841461002d575b5f80fd5b6100476004803603810190610042919061013e565b61005d565b6040516100549190610183565b60405180910390f35b5f8082148061006c5750600182145b1561007a5760019050610102565b5f600190505f8390505b8082116100fc575f6002828461009a91906101c9565b6100a49190610229565b90505f81826100b39190610259565b90508581036100c9576001945050505050610102565b858110156100e5576001826100de91906101c9565b93506100f5565b6001826100f2919061029a565b92505b5050610084565b5f925050505b919050565b5f80fd5b5f819050919050565b61011d8161010b565b8114610127575f80fd5b50565b5f8135905061013881610114565b92915050565b5f6020828403121561015357610152610107565b5b5f6101608482850161012a565b91505092915050565b5f8115159050919050565b61017d81610169565b82525050565b5f6020820190506101965f830184610174565b92915050565b7f4e487b71000000000000000000000000000000000000000000000000000000005f52601160045260245ffd5b5f6101d38261010b565b91506101de8361010b565b92508282019050808211156101f6576101f561019c565b5b92915050565b7f4e487b71000000000000000000000000000000000000000000000000000000005f52601260045260245ffd5b5f6102338261010b565b915061023e8361010b565b92508261024e5761024d6101fc565b5b828204905092915050565b5f6102638261010b565b915061026e8361010b565b925082820261027c8161010b565b915082820484148315176102935761029261019c565b5b5092915050565b5f6102a48261010b565b91506102af8361010b565b92508282039050818111156102c7576102c661019c565b5b9291505056fea2646970667358221220f28dbc797a4f9973567f737ae0d0e62de6f36c9833690818fdf8dcc2deadcd5764736f6c634300081a0033",
					"opcodes": "PUSH1 0x80 PUSH1 0x40 MSTORE CALLVALUE DUP1 ISZERO PUSH1 0xE JUMPI PUSH0 DUP1 REVERT JUMPDEST POP PUSH2 0x303 DUP1 PUSH2 0x1C PUSH0 CODECOPY PUSH0 RETURN INVALID PUSH1 0x80 PUSH1 0x40 MSTORE CALLVALUE DUP1 ISZERO PUSH2 0xF JUMPI PUSH0 DUP1 REVERT JUMPDEST POP PUSH1 0x4 CALLDATASIZE LT PUSH2 0x29 JUMPI PUSH0 CALLDATALOAD PUSH1 0xE0 SHR DUP1 PUSH4 0x9D2B7E84 EQ PUSH2 0x2D JUMPI JUMPDEST PUSH0 DUP1 REVERT JUMPDEST PUSH2 0x47 PUSH1 0x4 DUP1 CALLDATASIZE SUB DUP2 ADD SWAP1 PUSH2 0x42 SWAP2 SWAP1 PUSH2 0x13E JUMP JUMPDEST PUSH2 0x5D JUMP JUMPDEST PUSH1 0x40 MLOAD PUSH2 0x54 SWAP2 SWAP1 PUSH2 0x183 JUMP JUMPDEST PUSH1 0x40 MLOAD DUP1 SWAP2 SUB SWAP1 RETURN JUMPDEST PUSH0 DUP1 DUP3 EQ DUP1 PUSH2 0x6C JUMPI POP PUSH1 0x1 DUP3 EQ JUMPDEST ISZERO PUSH2 0x7A JUMPI PUSH1 0x1 SWAP1 POP PUSH2 0x102 JUMP JUMPDEST PUSH0 PUSH1 0x1 SWAP1 POP PUSH0 DUP4 SWAP1 POP JUMPDEST DUP1 DUP3 GT PUSH2 0xFC JUMPI PUSH0 PUSH1 0x2 DUP3 DUP5 PUSH2 0x9A SWAP2 SWAP1 PUSH2 0x1C9 JUMP JUMPDEST PUSH2 0xA4 SWAP2 SWAP1 PUSH2 0x229 JUMP JUMPDEST SWAP1 POP PUSH0 DUP2 DUP3 PUSH2 0xB3 SWAP2 SWAP1 PUSH2 0x259 JUMP JUMPDEST SWAP1 POP DUP6 DUP2 SUB PUSH2 0xC9 JUMPI PUSH1 0x1 SWAP5 POP POP POP POP POP PUSH2 0x102 JUMP JUMPDEST DUP6 DUP2 LT ISZERO PUSH2 0xE5 JUMPI PUSH1 0x1 DUP3 PUSH2 0xDE SWAP2 SWAP1 PUSH2 0x1C9 JUMP JUMPDEST SWAP4 POP PUSH2 0xF5 JUMP JUMPDEST PUSH1 0x1 DUP3 PUSH2 0xF2 SWAP2 SWAP1 PUSH2 0x29A JUMP JUMPDEST SWAP3 POP JUMPDEST POP POP PUSH2 0x84 JUMP JUMPDEST PUSH0 SWAP3 POP POP POP JUMPDEST SWAP2 SWAP1 POP JUMP JUMPDEST PUSH0 DUP1 REVERT JUMPDEST PUSH0 DUP2 SWAP1 POP SWAP2 SWAP1 POP JUMP JUMPDEST PUSH2 0x11D DUP2 PUSH2 0x10B JUMP JUMPDEST DUP2 EQ PUSH2 0x127 JUMPI PUSH0 DUP1 REVERT JUMPDEST POP JUMP JUMPDEST PUSH0 DUP2 CALLDATALOAD SWAP1 POP PUSH2 0x138 DUP2 PUSH2 0x114 JUMP JUMPDEST SWAP3 SWAP2 POP POP JUMP JUMPDEST PUSH0 PUSH1 0x20 DUP3 DUP5 SUB SLT ISZERO PUSH2 0x153 JUMPI PUSH2 0x152 PUSH2 0x107 JUMP JUMPDEST JUMPDEST PUSH0 PUSH2 0x160 DUP5 DUP3 DUP6 ADD PUSH2 0x12A JUMP JUMPDEST SWAP2 POP POP SWAP3 SWAP2 POP POP JUMP JUMPDEST PUSH0 DUP2 ISZERO ISZERO SWAP1 POP SWAP2 SWAP1 POP JUMP JUMPDEST PUSH2 0x17D DUP2 PUSH2 0x169 JUMP JUMPDEST DUP3 MSTORE POP POP JUMP JUMPDEST PUSH0 PUSH1 0x20 DUP3 ADD SWAP1 POP PUSH2 0x196 PUSH0 DUP4 ADD DUP5 PUSH2 0x174 JUMP JUMPDEST SWAP3 SWAP2 POP POP JUMP JUMPDEST PUSH32 0x4E487B7100000000000000000000000000000000000000000000000000000000 PUSH0 MSTORE PUSH1 0x11 PUSH1 0x4 MSTORE PUSH1 0x24 PUSH0 REVERT JUMPDEST PUSH0 PUSH2 0x1D3 DUP3 PUSH2 0x10B JUMP JUMPDEST SWAP2 POP PUSH2 0x1DE DUP4 PUSH2 0x10B JUMP JUMPDEST SWAP3 POP DUP3 DUP3 ADD SWAP1 POP DUP1 DUP3 GT ISZERO PUSH2 0x1F6 JUMPI PUSH2 0x1F5 PUSH2 0x19C JUMP JUMPDEST JUMPDEST SWAP3 SWAP2 POP POP JUMP JUMPDEST PUSH32 0x4E487B7100000000000000000000000000000000000000000000000000000000 PUSH0 MSTORE PUSH1 0x12 PUSH1 0x4 MSTORE PUSH1 0x24 PUSH0 REVERT JUMPDEST PUSH0 PUSH2 0x233 DUP3 PUSH2 0x10B JUMP JUMPDEST SWAP2 POP PUSH2 0x23E DUP4 PUSH2 0x10B JUMP JUMPDEST SWAP3 POP DUP3 PUSH2 0x24E JUMPI PUSH2 0x24D PUSH2 0x1FC JUMP JUMPDEST JUMPDEST DUP3 DUP3 DIV SWAP1 POP SWAP3 SWAP2 POP POP JUMP JUMPDEST PUSH0 PUSH2 0x263 DUP3 PUSH2 0x10B JUMP JUMPDEST SWAP2 POP PUSH2 0x26E DUP4 PUSH2 0x10B JUMP JUMPDEST SWAP3 POP DUP3 DUP3 MUL PUSH2 0x27C DUP2 PUSH2 0x10B JUMP JUMPDEST SWAP2 POP DUP3 DUP3 DIV DUP5 EQ DUP4 ISZERO OR PUSH2 0x293 JUMPI PUSH2 0x292 PUSH2 0x19C JUMP JUMPDEST JUMPDEST POP SWAP3 SWAP2 POP POP JUMP JUMPDEST PUSH0 PUSH2 0x2A4 DUP3 PUSH2 0x10B JUMP JUMPDEST SWAP2 POP PUSH2 0x2AF DUP4 PUSH2 0x10B JUMP JUMPDEST SWAP3 POP DUP3 DUP3 SUB SWAP1 POP DUP2 DUP2 GT ISZERO PUSH2 0x2C7 JUMPI PUSH2 0x2C6 PUSH2 0x19C JUMP JUMPDEST JUMPDEST SWAP3 SWAP2 POP POP JUMP INVALID LOG2 PUSH5 0x6970667358 0x22 SLT KECCAK256 CALLCODE DUP14 0xBC PUSH26 0x7A4F9973567F737AE0D0E62DE6F36C9833690818FDF8DCC2DEAD 0xCD JUMPI PUSH5 0x736F6C6343 STOP ADDMOD BYTE STOP CALLER "
				},
				"gasEstimates": {
					"creation": {
						"codeDepositCost": "154200",
						"executionCost": "200",
						"totalCost": "154400"
					},
					"external": {
						"isPerfectSquare(uint256)": "infinite"
					}
				},
				"methodIdentifiers": {
					"isPerfectSquare(uint256)": "9d2b7e84"
				}
			},
			"storageLayout": {
				"storage": [],
				"types": null
			},
			"userdoc": {
				"kind": "user",
				"methods": {},
				"version": 1
			}
		}
	}
}