{
	"contracts/Blockchain_Assignment_3/Task_Codes/as3_task5.sol": {
		"BankDeposit": {
			"abi": [
				{
					"inputs": [
						{
							"internalType": "uint256",
							"name": "principal",
							"type": "uint256"
						},
						{
							"internalType": "uint256",
							"name": "interestRate",
							"type": "uint256"
						},
						{
							"internalType": "uint256",
							"name": "months",
							"type": "uint256"
						}
					],
					"name": "calculateProfit",
					"outputs": [
						{
							"internalType": "uint256",
							"name": "",
							"type": "uint256"
						}
					],
					"stateMutability": "pure",
					"type": "function"
				}
			],
			"devdoc": {
				"kind": "dev",
				"methods": {},
				"version": 1
			},
			"evm": {
				"assembly": "    /* \"contracts/Blockchain_Assignment_3/Task_Codes/as3_task5.sol\":510:1108  contract BankDeposit {... */\n  mstore(0x40, 0x80)\n  callvalue\n  dup1\n  iszero\n  tag_1\n  jumpi\n  0x00\n  dup1\n  revert\ntag_1:\n  pop\n  dataSize(sub_0)\n  dup1\n  dataOffset(sub_0)\n  0x00\n  codecopy\n  0x00\n  return\nstop\n\nsub_0: assembly {\n        /* \"contracts/Blockchain_Assignment_3/Task_Codes/as3_task5.sol\":510:1108  contract BankDeposit {... */\n      mstore(0x40, 0x80)\n      callvalue\n      dup1\n      iszero\n      tag_1\n      jumpi\n      0x00\n      dup1\n      revert\n    tag_1:\n      pop\n      jumpi(tag_2, lt(calldatasize, 0x04))\n      shr(0xe0, calldataload(0x00))\n      dup1\n      0xac7c35f7\n      eq\n      tag_3\n      jumpi\n    tag_2:\n      0x00\n      dup1\n      revert\n        /* \"contracts/Blockchain_Assignment_3/Task_Codes/as3_task5.sol\":538:1105  function calculateProfit(uint256 principal, uint256 interestRate, uint256 months) public pure returns (uint256) {... */\n    tag_3:\n      tag_4\n      0x04\n      dup1\n      calldatasize\n      sub\n      dup2\n      add\n      swap1\n      tag_5\n      swap2\n      swap1\n      tag_6\n      jump\t// in\n    tag_5:\n      tag_7\n      jump\t// in\n    tag_4:\n      mload(0x40)\n      tag_8\n      swap2\n      swap1\n      tag_9\n      jump\t// in\n    tag_8:\n      mload(0x40)\n      dup1\n      swap2\n      sub\n      swap1\n      return\n    tag_7:\n        /* \"contracts/Blockchain_Assignment_3/Task_Codes/as3_task5.sol\":641:648  uint256 */\n      0x00\n        /* \"contracts/Blockchain_Assignment_3/Task_Codes/as3_task5.sol\":681:682  0 */\n      dup1\n        /* \"contracts/Blockchain_Assignment_3/Task_Codes/as3_task5.sol\":669:678  principal */\n      dup5\n        /* \"contracts/Blockchain_Assignment_3/Task_Codes/as3_task5.sol\":669:682  principal > 0 */\n      gt\n        /* \"contracts/Blockchain_Assignment_3/Task_Codes/as3_task5.sol\":661:729  require(principal > 0, \"Principal amount must be greater than zero\") */\n      tag_11\n      jumpi\n      mload(0x40)\n      0x08c379a000000000000000000000000000000000000000000000000000000000\n      dup2\n      mstore\n      0x04\n      add\n      tag_12\n      swap1\n      tag_13\n      jump\t// in\n    tag_12:\n      mload(0x40)\n      dup1\n      swap2\n      sub\n      swap1\n      revert\n    tag_11:\n        /* \"contracts/Blockchain_Assignment_3/Task_Codes/as3_task5.sol\":763:764  0 */\n      0x00\n        /* \"contracts/Blockchain_Assignment_3/Task_Codes/as3_task5.sol\":748:760  interestRate */\n      dup4\n        /* \"contracts/Blockchain_Assignment_3/Task_Codes/as3_task5.sol\":748:764  interestRate > 0 */\n      gt\n        /* \"contracts/Blockchain_Assignment_3/Task_Codes/as3_task5.sol\":740:808  require(interestRate > 0, \"Interest rate must be greater than zero\") */\n      tag_14\n      jumpi\n      mload(0x40)\n      0x08c379a000000000000000000000000000000000000000000000000000000000\n      dup2\n      mstore\n      0x04\n      add\n      tag_15\n      swap1\n      tag_16\n      jump\t// in\n    tag_15:\n      mload(0x40)\n      dup1\n      swap2\n      sub\n      swap1\n      revert\n    tag_14:\n        /* \"contracts/Blockchain_Assignment_3/Task_Codes/as3_task5.sol\":836:837  0 */\n      0x00\n        /* \"contracts/Blockchain_Assignment_3/Task_Codes/as3_task5.sol\":827:833  months */\n      dup3\n        /* \"contracts/Blockchain_Assignment_3/Task_Codes/as3_task5.sol\":827:837  months > 0 */\n      gt\n        /* \"contracts/Blockchain_Assignment_3/Task_Codes/as3_task5.sol\":819:884  require(months > 0, \"Number of months must be greater than zero\") */\n      tag_17\n      jumpi\n      mload(0x40)\n      0x08c379a000000000000000000000000000000000000000000000000000000000\n      dup2\n      mstore\n      0x04\n      add\n      tag_18\n      swap1\n      tag_19\n      jump\t// in\n    tag_18:\n      mload(0x40)\n      dup1\n      swap2\n      sub\n      swap1\n      revert\n    tag_17:\n        /* \"contracts/Blockchain_Assignment_3/Task_Codes/as3_task5.sol\":897:911  uint256 amount */\n      0x00\n        /* \"contracts/Blockchain_Assignment_3/Task_Codes/as3_task5.sol\":914:923  principal */\n      dup5\n        /* \"contracts/Blockchain_Assignment_3/Task_Codes/as3_task5.sol\":897:923  uint256 amount = principal */\n      swap1\n      pop\n        /* \"contracts/Blockchain_Assignment_3/Task_Codes/as3_task5.sol\":941:950  uint256 i */\n      0x00\n        /* \"contracts/Blockchain_Assignment_3/Task_Codes/as3_task5.sol\":936:1072  for (uint256 i = 0; i < months; i++) {... */\n    tag_20:\n        /* \"contracts/Blockchain_Assignment_3/Task_Codes/as3_task5.sol\":960:966  months */\n      dup4\n        /* \"contracts/Blockchain_Assignment_3/Task_Codes/as3_task5.sol\":956:957  i */\n      dup2\n        /* \"contracts/Blockchain_Assignment_3/Task_Codes/as3_task5.sol\":956:966  i < months */\n      lt\n        /* \"contracts/Blockchain_Assignment_3/Task_Codes/as3_task5.sol\":936:1072  for (uint256 i = 0; i < months; i++) {... */\n      iszero\n      tag_21\n      jumpi\n        /* \"contracts/Blockchain_Assignment_3/Task_Codes/as3_task5.sol\":1024:1027  100 */\n      0x64\n        /* \"contracts/Blockchain_Assignment_3/Task_Codes/as3_task5.sol\":1008:1020  interestRate */\n      dup6\n        /* \"contracts/Blockchain_Assignment_3/Task_Codes/as3_task5.sol\":999:1005  amount */\n      dup4\n        /* \"contracts/Blockchain_Assignment_3/Task_Codes/as3_task5.sol\":999:1020  amount * interestRate */\n      tag_23\n      swap2\n      swap1\n      tag_24\n      jump\t// in\n    tag_23:\n        /* \"contracts/Blockchain_Assignment_3/Task_Codes/as3_task5.sol\":998:1027  (amount * interestRate) / 100 */\n      tag_25\n      swap2\n      swap1\n      tag_26\n      jump\t// in\n    tag_25:\n        /* \"contracts/Blockchain_Assignment_3/Task_Codes/as3_task5.sol\":988:1027  amount += (amount * interestRate) / 100 */\n      dup3\n      tag_27\n      swap2\n      swap1\n      tag_28\n      jump\t// in\n    tag_27:\n      swap2\n      pop\n        /* \"contracts/Blockchain_Assignment_3/Task_Codes/as3_task5.sol\":968:971  i++ */\n      dup1\n      dup1\n      0x01\n      add\n      swap2\n      pop\n      pop\n        /* \"contracts/Blockchain_Assignment_3/Task_Codes/as3_task5.sol\":936:1072  for (uint256 i = 0; i < months; i++) {... */\n      jump(tag_20)\n    tag_21:\n      pop\n        /* \"contracts/Blockchain_Assignment_3/Task_Codes/as3_task5.sol\":1091:1097  amount */\n      dup1\n        /* \"contracts/Blockchain_Assignment_3/Task_Codes/as3_task5.sol\":1084:1097  return amount */\n      swap2\n      pop\n      pop\n        /* \"contracts/Blockchain_Assignment_3/Task_Codes/as3_task5.sol\":538:1105  function calculateProfit(uint256 principal, uint256 interestRate, uint256 months) public pure returns (uint256) {... */\n      swap4\n      swap3\n      pop\n      pop\n      pop\n      jump\t// out\n        /* \"#utility.yul\":88:205   */\n    tag_30:\n        /* \"#utility.yul\":197:198   */\n      0x00\n        /* \"#utility.yul\":194:195   */\n      dup1\n        /* \"#utility.yul\":187:199   */\n      revert\n        /* \"#utility.yul\":334:411   */\n    tag_32:\n        /* \"#utility.yul\":371:378   */\n      0x00\n        /* \"#utility.yul\":400:405   */\n      dup2\n        /* \"#utility.yul\":389:405   */\n      swap1\n      pop\n        /* \"#utility.yul\":334:411   */\n      swap2\n      swap1\n      pop\n      jump\t// out\n        /* \"#utility.yul\":417:539   */\n    tag_33:\n        /* \"#utility.yul\":490:514   */\n      tag_51\n        /* \"#utility.yul\":508:513   */\n      dup2\n        /* \"#utility.yul\":490:514   */\n      tag_32\n      jump\t// in\n    tag_51:\n        /* \"#utility.yul\":483:488   */\n      dup2\n        /* \"#utility.yul\":480:515   */\n      eq\n        /* \"#utility.yul\":470:533   */\n      tag_52\n      jumpi\n        /* \"#utility.yul\":529:530   */\n      0x00\n        /* \"#utility.yul\":526:527   */\n      dup1\n        /* \"#utility.yul\":519:531   */\n      revert\n        /* \"#utility.yul\":470:533   */\n    tag_52:\n        /* \"#utility.yul\":417:539   */\n      pop\n      jump\t// out\n        /* \"#utility.yul\":545:684   */\n    tag_34:\n        /* \"#utility.yul\":591:596   */\n      0x00\n        /* \"#utility.yul\":629:635   */\n      dup2\n        /* \"#utility.yul\":616:636   */\n      calldataload\n        /* \"#utility.yul\":607:636   */\n      swap1\n      pop\n        /* \"#utility.yul\":645:678   */\n      tag_54\n        /* \"#utility.yul\":672:677   */\n      dup2\n        /* \"#utility.yul\":645:678   */\n      tag_33\n      jump\t// in\n    tag_54:\n        /* \"#utility.yul\":545:684   */\n      swap3\n      swap2\n      pop\n      pop\n      jump\t// out\n        /* \"#utility.yul\":690:1309   */\n    tag_6:\n        /* \"#utility.yul\":767:773   */\n      0x00\n        /* \"#utility.yul\":775:781   */\n      dup1\n        /* \"#utility.yul\":783:789   */\n      0x00\n        /* \"#utility.yul\":832:834   */\n      0x60\n        /* \"#utility.yul\":820:829   */\n      dup5\n        /* \"#utility.yul\":811:818   */\n      dup7\n        /* \"#utility.yul\":807:830   */\n      sub\n        /* \"#utility.yul\":803:835   */\n      slt\n        /* \"#utility.yul\":800:919   */\n      iszero\n      tag_56\n      jumpi\n        /* \"#utility.yul\":838:917   */\n      tag_57\n      tag_30\n      jump\t// in\n    tag_57:\n        /* \"#utility.yul\":800:919   */\n    tag_56:\n        /* \"#utility.yul\":958:959   */\n      0x00\n        /* \"#utility.yul\":983:1036   */\n      tag_58\n        /* \"#utility.yul\":1028:1035   */\n      dup7\n        /* \"#utility.yul\":1019:1025   */\n      dup3\n        /* \"#utility.yul\":1008:1017   */\n      dup8\n        /* \"#utility.yul\":1004:1026   */\n      add\n        /* \"#utility.yul\":983:1036   */\n      tag_34\n      jump\t// in\n    tag_58:\n        /* \"#utility.yul\":973:1036   */\n      swap4\n      pop\n        /* \"#utility.yul\":929:1046   */\n      pop\n        /* \"#utility.yul\":1085:1087   */\n      0x20\n        /* \"#utility.yul\":1111:1164   */\n      tag_59\n        /* \"#utility.yul\":1156:1163   */\n      dup7\n        /* \"#utility.yul\":1147:1153   */\n      dup3\n        /* \"#utility.yul\":1136:1145   */\n      dup8\n        /* \"#utility.yul\":1132:1154   */\n      add\n        /* \"#utility.yul\":1111:1164   */\n      tag_34\n      jump\t// in\n    tag_59:\n        /* \"#utility.yul\":1101:1164   */\n      swap3\n      pop\n        /* \"#utility.yul\":1056:1174   */\n      pop\n        /* \"#utility.yul\":1213:1215   */\n      0x40\n        /* \"#utility.yul\":1239:1292   */\n      tag_60\n        /* \"#utility.yul\":1284:1291   */\n      dup7\n        /* \"#utility.yul\":1275:1281   */\n      dup3\n        /* \"#utility.yul\":1264:1273   */\n      dup8\n        /* \"#utility.yul\":1260:1282   */\n      add\n        /* \"#utility.yul\":1239:1292   */\n      tag_34\n      jump\t// in\n    tag_60:\n        /* \"#utility.yul\":1229:1292   */\n      swap2\n      pop\n        /* \"#utility.yul\":1184:1302   */\n      pop\n        /* \"#utility.yul\":690:1309   */\n      swap3\n      pop\n      swap3\n      pop\n      swap3\n      jump\t// out\n        /* \"#utility.yul\":1315:1433   */\n    tag_35:\n        /* \"#utility.yul\":1402:1426   */\n      tag_62\n        /* \"#utility.yul\":1420:1425   */\n      dup2\n        /* \"#utility.yul\":1402:1426   */\n      tag_32\n      jump\t// in\n    tag_62:\n        /* \"#utility.yul\":1397:1400   */\n      dup3\n        /* \"#utility.yul\":1390:1427   */\n      mstore\n        /* \"#utility.yul\":1315:1433   */\n      pop\n      pop\n      jump\t// out\n        /* \"#utility.yul\":1439:1661   */\n    tag_9:\n        /* \"#utility.yul\":1532:1536   */\n      0x00\n        /* \"#utility.yul\":1570:1572   */\n      0x20\n        /* \"#utility.yul\":1559:1568   */\n      dup3\n        /* \"#utility.yul\":1555:1573   */\n      add\n        /* \"#utility.yul\":1547:1573   */\n      swap1\n      pop\n        /* \"#utility.yul\":1583:1654   */\n      tag_64\n        /* \"#utility.yul\":1651:1652   */\n      0x00\n        /* \"#utility.yul\":1640:1649   */\n      dup4\n        /* \"#utility.yul\":1636:1653   */\n      add\n        /* \"#utility.yul\":1627:1633   */\n      dup5\n        /* \"#utility.yul\":1583:1654   */\n      tag_35\n      jump\t// in\n    tag_64:\n        /* \"#utility.yul\":1439:1661   */\n      swap3\n      swap2\n      pop\n      pop\n      jump\t// out\n        /* \"#utility.yul\":1667:1836   */\n    tag_36:\n        /* \"#utility.yul\":1751:1762   */\n      0x00\n        /* \"#utility.yul\":1785:1791   */\n      dup3\n        /* \"#utility.yul\":1780:1783   */\n      dup3\n        /* \"#utility.yul\":1773:1792   */\n      mstore\n        /* \"#utility.yul\":1825:1829   */\n      0x20\n        /* \"#utility.yul\":1820:1823   */\n      dup3\n        /* \"#utility.yul\":1816:1830   */\n      add\n        /* \"#utility.yul\":1801:1830   */\n      swap1\n      pop\n        /* \"#utility.yul\":1667:1836   */\n      swap3\n      swap2\n      pop\n      pop\n      jump\t// out\n        /* \"#utility.yul\":1842:2071   */\n    tag_37:\n        /* \"#utility.yul\":1982:2016   */\n      0x5072696e636970616c20616d6f756e74206d7573742062652067726561746572\n        /* \"#utility.yul\":1978:1979   */\n      0x00\n        /* \"#utility.yul\":1970:1976   */\n      dup3\n        /* \"#utility.yul\":1966:1980   */\n      add\n        /* \"#utility.yul\":1959:2017   */\n      mstore\n        /* \"#utility.yul\":2051:2063   */\n      0x207468616e207a65726f00000000000000000000000000000000000000000000\n        /* \"#utility.yul\":2046:2048   */\n      0x20\n        /* \"#utility.yul\":2038:2044   */\n      dup3\n        /* \"#utility.yul\":2034:2049   */\n      add\n        /* \"#utility.yul\":2027:2064   */\n      mstore\n        /* \"#utility.yul\":1842:2071   */\n      pop\n      jump\t// out\n        /* \"#utility.yul\":2077:2443   */\n    tag_38:\n        /* \"#utility.yul\":2219:2222   */\n      0x00\n        /* \"#utility.yul\":2240:2307   */\n      tag_68\n        /* \"#utility.yul\":2304:2306   */\n      0x2a\n        /* \"#utility.yul\":2299:2302   */\n      dup4\n        /* \"#utility.yul\":2240:2307   */\n      tag_36\n      jump\t// in\n    tag_68:\n        /* \"#utility.yul\":2233:2307   */\n      swap2\n      pop\n        /* \"#utility.yul\":2316:2409   */\n      tag_69\n        /* \"#utility.yul\":2405:2408   */\n      dup3\n        /* \"#utility.yul\":2316:2409   */\n      tag_37\n      jump\t// in\n    tag_69:\n        /* \"#utility.yul\":2434:2436   */\n      0x40\n        /* \"#utility.yul\":2429:2432   */\n      dup3\n        /* \"#utility.yul\":2425:2437   */\n      add\n        /* \"#utility.yul\":2418:2437   */\n      swap1\n      pop\n        /* \"#utility.yul\":2077:2443   */\n      swap2\n      swap1\n      pop\n      jump\t// out\n        /* \"#utility.yul\":2449:2868   */\n    tag_13:\n        /* \"#utility.yul\":2615:2619   */\n      0x00\n        /* \"#utility.yul\":2653:2655   */\n      0x20\n        /* \"#utility.yul\":2642:2651   */\n      dup3\n        /* \"#utility.yul\":2638:2656   */\n      add\n        /* \"#utility.yul\":2630:2656   */\n      swap1\n      pop\n        /* \"#utility.yul\":2702:2711   */\n      dup2\n        /* \"#utility.yul\":2696:2700   */\n      dup2\n        /* \"#utility.yul\":2692:2712   */\n      sub\n        /* \"#utility.yul\":2688:2689   */\n      0x00\n        /* \"#utility.yul\":2677:2686   */\n      dup4\n        /* \"#utility.yul\":2673:2690   */\n      add\n        /* \"#utility.yul\":2666:2713   */\n      mstore\n        /* \"#utility.yul\":2730:2861   */\n      tag_71\n        /* \"#utility.yul\":2856:2860   */\n      dup2\n        /* \"#utility.yul\":2730:2861   */\n      tag_38\n      jump\t// in\n    tag_71:\n        /* \"#utility.yul\":2722:2861   */\n      swap1\n      pop\n        /* \"#utility.yul\":2449:2868   */\n      swap2\n      swap1\n      pop\n      jump\t// out\n        /* \"#utility.yul\":2874:3100   */\n    tag_39:\n        /* \"#utility.yul\":3014:3048   */\n      0x496e7465726573742072617465206d7573742062652067726561746572207468\n        /* \"#utility.yul\":3010:3011   */\n      0x00\n        /* \"#utility.yul\":3002:3008   */\n      dup3\n        /* \"#utility.yul\":2998:3012   */\n      add\n        /* \"#utility.yul\":2991:3049   */\n      mstore\n        /* \"#utility.yul\":3083:3092   */\n      0x616e207a65726f00000000000000000000000000000000000000000000000000\n        /* \"#utility.yul\":3078:3080   */\n      0x20\n        /* \"#utility.yul\":3070:3076   */\n      dup3\n        /* \"#utility.yul\":3066:3081   */\n      add\n        /* \"#utility.yul\":3059:3093   */\n      mstore\n        /* \"#utility.yul\":2874:3100   */\n      pop\n      jump\t// out\n        /* \"#utility.yul\":3106:3472   */\n    tag_40:\n        /* \"#utility.yul\":3248:3251   */\n      0x00\n        /* \"#utility.yul\":3269:3336   */\n      tag_74\n        /* \"#utility.yul\":3333:3335   */\n      0x27\n        /* \"#utility.yul\":3328:3331   */\n      dup4\n        /* \"#utility.yul\":3269:3336   */\n      tag_36\n      jump\t// in\n    tag_74:\n        /* \"#utility.yul\":3262:3336   */\n      swap2\n      pop\n        /* \"#utility.yul\":3345:3438   */\n      tag_75\n        /* \"#utility.yul\":3434:3437   */\n      dup3\n        /* \"#utility.yul\":3345:3438   */\n      tag_39\n      jump\t// in\n    tag_75:\n        /* \"#utility.yul\":3463:3465   */\n      0x40\n        /* \"#utility.yul\":3458:3461   */\n      dup3\n        /* \"#utility.yul\":3454:3466   */\n      add\n        /* \"#utility.yul\":3447:3466   */\n      swap1\n      pop\n        /* \"#utility.yul\":3106:3472   */\n      swap2\n      swap1\n      pop\n      jump\t// out\n        /* \"#utility.yul\":3478:3897   */\n    tag_16:\n        /* \"#utility.yul\":3644:3648   */\n      0x00\n        /* \"#utility.yul\":3682:3684   */\n      0x20\n        /* \"#utility.yul\":3671:3680   */\n      dup3\n        /* \"#utility.yul\":3667:3685   */\n      add\n        /* \"#utility.yul\":3659:3685   */\n      swap1\n      pop\n        /* \"#utility.yul\":3731:3740   */\n      dup2\n        /* \"#utility.yul\":3725:3729   */\n      dup2\n        /* \"#utility.yul\":3721:3741   */\n      sub\n        /* \"#utility.yul\":3717:3718   */\n      0x00\n        /* \"#utility.yul\":3706:3715   */\n      dup4\n        /* \"#utility.yul\":3702:3719   */\n      add\n        /* \"#utility.yul\":3695:3742   */\n      mstore\n        /* \"#utility.yul\":3759:3890   */\n      tag_77\n        /* \"#utility.yul\":3885:3889   */\n      dup2\n        /* \"#utility.yul\":3759:3890   */\n      tag_40\n      jump\t// in\n    tag_77:\n        /* \"#utility.yul\":3751:3890   */\n      swap1\n      pop\n        /* \"#utility.yul\":3478:3897   */\n      swap2\n      swap1\n      pop\n      jump\t// out\n        /* \"#utility.yul\":3903:4132   */\n    tag_41:\n        /* \"#utility.yul\":4043:4077   */\n      0x4e756d626572206f66206d6f6e746873206d7573742062652067726561746572\n        /* \"#utility.yul\":4039:4040   */\n      0x00\n        /* \"#utility.yul\":4031:4037   */\n      dup3\n        /* \"#utility.yul\":4027:4041   */\n      add\n        /* \"#utility.yul\":4020:4078   */\n      mstore\n        /* \"#utility.yul\":4112:4124   */\n      0x207468616e207a65726f00000000000000000000000000000000000000000000\n        /* \"#utility.yul\":4107:4109   */\n      0x20\n        /* \"#utility.yul\":4099:4105   */\n      dup3\n        /* \"#utility.yul\":4095:4110   */\n      add\n        /* \"#utility.yul\":4088:4125   */\n      mstore\n        /* \"#utility.yul\":3903:4132   */\n      pop\n      jump\t// out\n        /* \"#utility.yul\":4138:4504   */\n    tag_42:\n        /* \"#utility.yul\":4280:4283   */\n      0x00\n        /* \"#utility.yul\":4301:4368   */\n      tag_80\n        /* \"#utility.yul\":4365:4367   */\n      0x2a\n        /* \"#utility.yul\":4360:4363   */\n      dup4\n        /* \"#utility.yul\":4301:4368   */\n      tag_36\n      jump\t// in\n    tag_80:\n        /* \"#utility.yul\":4294:4368   */\n      swap2\n      pop\n        /* \"#utility.yul\":4377:4470   */\n      tag_81\n        /* \"#utility.yul\":4466:4469   */\n      dup3\n        /* \"#utility.yul\":4377:4470   */\n      tag_41\n      jump\t// in\n    tag_81:\n        /* \"#utility.yul\":4495:4497   */\n      0x40\n        /* \"#utility.yul\":4490:4493   */\n      dup3\n        /* \"#utility.yul\":4486:4498   */\n      add\n        /* \"#utility.yul\":4479:4498   */\n      swap1\n      pop\n        /* \"#utility.yul\":4138:4504   */\n      swap2\n      swap1\n      pop\n      jump\t// out\n        /* \"#utility.yul\":4510:4929   */\n    tag_19:\n        /* \"#utility.yul\":4676:4680   */\n      0x00\n        /* \"#utility.yul\":4714:4716   */\n      0x20\n        /* \"#utility.yul\":4703:4712   */\n      dup3\n        /* \"#utility.yul\":4699:4717   */\n      add\n        /* \"#utility.yul\":4691:4717   */\n      swap1\n      pop\n        /* \"#utility.yul\":4763:4772   */\n      dup2\n        /* \"#utility.yul\":4757:4761   */\n      dup2\n        /* \"#utility.yul\":4753:4773   */\n      sub\n        /* \"#utility.yul\":4749:4750   */\n      0x00\n        /* \"#utility.yul\":4738:4747   */\n      dup4\n        /* \"#utility.yul\":4734:4751   */\n      add\n        /* \"#utility.yul\":4727:4774   */\n      mstore\n        /* \"#utility.yul\":4791:4922   */\n      tag_83\n        /* \"#utility.yul\":4917:4921   */\n      dup2\n        /* \"#utility.yul\":4791:4922   */\n      tag_42\n      jump\t// in\n    tag_83:\n        /* \"#utility.yul\":4783:4922   */\n      swap1\n      pop\n        /* \"#utility.yul\":4510:4929   */\n      swap2\n      swap1\n      pop\n      jump\t// out\n        /* \"#utility.yul\":4935:5115   */\n    tag_43:\n        /* \"#utility.yul\":4983:5060   */\n      0x4e487b7100000000000000000000000000000000000000000000000000000000\n        /* \"#utility.yul\":4980:4981   */\n      0x00\n        /* \"#utility.yul\":4973:5061   */\n      mstore\n        /* \"#utility.yul\":5080:5084   */\n      0x11\n        /* \"#utility.yul\":5077:5078   */\n      0x04\n        /* \"#utility.yul\":5070:5085   */\n      mstore\n        /* \"#utility.yul\":5104:5108   */\n      0x24\n        /* \"#utility.yul\":5101:5102   */\n      0x00\n        /* \"#utility.yul\":5094:5109   */\n      revert\n        /* \"#utility.yul\":5121:5531   */\n    tag_24:\n        /* \"#utility.yul\":5161:5168   */\n      0x00\n        /* \"#utility.yul\":5184:5204   */\n      tag_86\n        /* \"#utility.yul\":5202:5203   */\n      dup3\n        /* \"#utility.yul\":5184:5204   */\n      tag_32\n      jump\t// in\n    tag_86:\n        /* \"#utility.yul\":5179:5204   */\n      swap2\n      pop\n        /* \"#utility.yul\":5218:5238   */\n      tag_87\n        /* \"#utility.yul\":5236:5237   */\n      dup4\n        /* \"#utility.yul\":5218:5238   */\n      tag_32\n      jump\t// in\n    tag_87:\n        /* \"#utility.yul\":5213:5238   */\n      swap3\n      pop\n        /* \"#utility.yul\":5273:5274   */\n      dup3\n        /* \"#utility.yul\":5270:5271   */\n      dup3\n        /* \"#utility.yul\":5266:5275   */\n      mul\n        /* \"#utility.yul\":5295:5325   */\n      tag_88\n        /* \"#utility.yul\":5313:5324   */\n      dup2\n        /* \"#utility.yul\":5295:5325   */\n      tag_32\n      jump\t// in\n    tag_88:\n        /* \"#utility.yul\":5284:5325   */\n      swap2\n      pop\n        /* \"#utility.yul\":5474:5475   */\n      dup3\n        /* \"#utility.yul\":5465:5472   */\n      dup3\n        /* \"#utility.yul\":5461:5476   */\n      div\n        /* \"#utility.yul\":5458:5459   */\n      dup5\n        /* \"#utility.yul\":5455:5477   */\n      eq\n        /* \"#utility.yul\":5435:5436   */\n      dup4\n        /* \"#utility.yul\":5428:5437   */\n      iszero\n        /* \"#utility.yul\":5408:5491   */\n      or\n        /* \"#utility.yul\":5385:5524   */\n      tag_89\n      jumpi\n        /* \"#utility.yul\":5504:5522   */\n      tag_90\n      tag_43\n      jump\t// in\n    tag_90:\n        /* \"#utility.yul\":5385:5524   */\n    tag_89:\n        /* \"#utility.yul\":5169:5531   */\n      pop\n        /* \"#utility.yul\":5121:5531   */\n      swap3\n      swap2\n      pop\n      pop\n      jump\t// out\n        /* \"#utility.yul\":5537:5717   */\n    tag_44:\n        /* \"#utility.yul\":5585:5662   */\n      0x4e487b7100000000000000000000000000000000000000000000000000000000\n        /* \"#utility.yul\":5582:5583   */\n      0x00\n        /* \"#utility.yul\":5575:5663   */\n      mstore\n        /* \"#utility.yul\":5682:5686   */\n      0x12\n        /* \"#utility.yul\":5679:5680   */\n      0x04\n        /* \"#utility.yul\":5672:5687   */\n      mstore\n        /* \"#utility.yul\":5706:5710   */\n      0x24\n        /* \"#utility.yul\":5703:5704   */\n      0x00\n        /* \"#utility.yul\":5696:5711   */\n      revert\n        /* \"#utility.yul\":5723:5908   */\n    tag_26:\n        /* \"#utility.yul\":5763:5764   */\n      0x00\n        /* \"#utility.yul\":5780:5800   */\n      tag_93\n        /* \"#utility.yul\":5798:5799   */\n      dup3\n        /* \"#utility.yul\":5780:5800   */\n      tag_32\n      jump\t// in\n    tag_93:\n        /* \"#utility.yul\":5775:5800   */\n      swap2\n      pop\n        /* \"#utility.yul\":5814:5834   */\n      tag_94\n        /* \"#utility.yul\":5832:5833   */\n      dup4\n        /* \"#utility.yul\":5814:5834   */\n      tag_32\n      jump\t// in\n    tag_94:\n        /* \"#utility.yul\":5809:5834   */\n      swap3\n      pop\n        /* \"#utility.yul\":5853:5854   */\n      dup3\n        /* \"#utility.yul\":5843:5878   */\n      tag_95\n      jumpi\n        /* \"#utility.yul\":5858:5876   */\n      tag_96\n      tag_44\n      jump\t// in\n    tag_96:\n        /* \"#utility.yul\":5843:5878   */\n    tag_95:\n        /* \"#utility.yul\":5900:5901   */\n      dup3\n        /* \"#utility.yul\":5897:5898   */\n      dup3\n        /* \"#utility.yul\":5893:5902   */\n      div\n        /* \"#utility.yul\":5888:5902   */\n      swap1\n      pop\n        /* \"#utility.yul\":5723:5908   */\n      swap3\n      swap2\n      pop\n      pop\n      jump\t// out\n        /* \"#utility.yul\":5914:6105   */\n    tag_28:\n        /* \"#utility.yul\":5954:5957   */\n      0x00\n        /* \"#utility.yul\":5973:5993   */\n      tag_98\n        /* \"#utility.yul\":5991:5992   */\n      dup3\n        /* \"#utility.yul\":5973:5993   */\n      tag_32\n      jump\t// in\n    tag_98:\n        /* \"#utility.yul\":5968:5993   */\n      swap2\n      pop\n        /* \"#utility.yul\":6007:6027   */\n      tag_99\n        /* \"#utility.yul\":6025:6026   */\n      dup4\n        /* \"#utility.yul\":6007:6027   */\n      tag_32\n      jump\t// in\n    tag_99:\n        /* \"#utility.yul\":6002:6027   */\n      swap3\n      pop\n        /* \"#utility.yul\":6050:6051   */\n      dup3\n        /* \"#utility.yul\":6047:6048   */\n      dup3\n        /* \"#utility.yul\":6043:6052   */\n      add\n        /* \"#utility.yul\":6036:6052   */\n      swap1\n      pop\n        /* \"#utility.yul\":6071:6074   */\n      dup1\n        /* \"#utility.yul\":6068:6069   */\n      dup3\n        /* \"#utility.yul\":6065:6075   */\n      gt\n        /* \"#utility.yul\":6062:6098   */\n      iszero\n      tag_100\n      jumpi\n        /* \"#utility.yul\":6078:6096   */\n      tag_101\n      tag_43\n      jump\t// in\n    tag_101:\n        /* \"#utility.yul\":6062:6098   */\n    tag_100:\n        /* \"#utility.yul\":5914:6105   */\n      swap3\n      swap2\n      pop\n      pop\n      jump\t// out\n\n    auxdata: 0xa2646970667358221220be149ab3ce804082158060ca3364d4377787f6b85dd266d5d6706ac0db6d09ef64736f6c634300081a0033\n}\n",
				"bytecode": {
					"linkReferences": {},
					"object": "6080604052348015600e575f80fd5b5061050d8061001c5f395ff3fe608060405234801561000f575f80fd5b5060043610610029575f3560e01c8063ac7c35f71461002d575b5f80fd5b610047600480360381019061004291906101a7565b61005d565b6040516100549190610206565b60405180910390f35b5f8084116100a0576040517f08c379a00000000000000000000000000000000000000000000000000000000081526004016100979061029f565b60405180910390fd5b5f83116100e2576040517f08c379a00000000000000000000000000000000000000000000000000000000081526004016100d99061032d565b60405180910390fd5b5f8211610124576040517f08c379a000000000000000000000000000000000000000000000000000000000815260040161011b906103bb565b60405180910390fd5b5f8490505f5b8381101561016457606485836101409190610406565b61014a9190610474565b8261015591906104a4565b9150808060010191505061012a565b50809150509392505050565b5f80fd5b5f819050919050565b61018681610174565b8114610190575f80fd5b50565b5f813590506101a18161017d565b92915050565b5f805f606084860312156101be576101bd610170565b5b5f6101cb86828701610193565b93505060206101dc86828701610193565b92505060406101ed86828701610193565b9150509250925092565b61020081610174565b82525050565b5f6020820190506102195f8301846101f7565b92915050565b5f82825260208201905092915050565b7f5072696e636970616c20616d6f756e74206d75737420626520677265617465725f8201527f207468616e207a65726f00000000000000000000000000000000000000000000602082015250565b5f610289602a8361021f565b91506102948261022f565b604082019050919050565b5f6020820190508181035f8301526102b68161027d565b9050919050565b7f496e7465726573742072617465206d75737420626520677265617465722074685f8201527f616e207a65726f00000000000000000000000000000000000000000000000000602082015250565b5f61031760278361021f565b9150610322826102bd565b604082019050919050565b5f6020820190508181035f8301526103448161030b565b9050919050565b7f4e756d626572206f66206d6f6e746873206d75737420626520677265617465725f8201527f207468616e207a65726f00000000000000000000000000000000000000000000602082015250565b5f6103a5602a8361021f565b91506103b08261034b565b604082019050919050565b5f6020820190508181035f8301526103d281610399565b9050919050565b7f4e487b71000000000000000000000000000000000000000000000000000000005f52601160045260245ffd5b5f61041082610174565b915061041b83610174565b925082820261042981610174565b915082820484148315176104405761043f6103d9565b5b5092915050565b7f4e487b71000000000000000000000000000000000000000000000000000000005f52601260045260245ffd5b5f61047e82610174565b915061048983610174565b92508261049957610498610447565b5b828204905092915050565b5f6104ae82610174565b91506104b983610174565b92508282019050808211156104d1576104d06103d9565b5b9291505056fea2646970667358221220be149ab3ce804082158060ca3364d4377787f6b85dd266d5d6706ac0db6d09ef64736f6c634300081a0033",
					"opcodes": "PUSH1 0x80 PUSH1 0x40 MSTORE CALLVALUE DUP1 ISZERO PUSH1 0xE JUMPI PUSH0 DUP1 REVERT JUMPDEST POP PUSH2 0x50D DUP1 PUSH2 0x1C PUSH0 CODECOPY PUSH0 RETURN INVALID PUSH1 0x80 PUSH1 0x40 MSTORE CALLVALUE DUP1 ISZERO PUSH2 0xF JUMPI PUSH0 DUP1 REVERT JUMPDEST POP PUSH1 0x4 CALLDATASIZE LT PUSH2 0x29 JUMPI PUSH0 CALLDATALOAD PUSH1 0xE0 SHR DUP1 PUSH4 0xAC7C35F7 EQ PUSH2 0x2D JUMPI JUMPDEST PUSH0 DUP1 REVERT JUMPDEST PUSH2 0x47 PUSH1 0x4 DUP1 CALLDATASIZE SUB DUP2 ADD SWAP1 PUSH2 0x42 SWAP2 SWAP1 PUSH2 0x1A7 JUMP JUMPDEST PUSH2 0x5D JUMP JUMPDEST PUSH1 0x40 MLOAD PUSH2 0x54 SWAP2 SWAP1 PUSH2 0x206 JUMP JUMPDEST PUSH1 0x40 MLOAD DUP1 SWAP2 SUB SWAP1 RETURN JUMPDEST PUSH0 DUP1 DUP5 GT PUSH2 0xA0 JUMPI PUSH1 0x40 MLOAD PUSH32 0x8C379A000000000000000000000000000000000000000000000000000000000 DUP2 MSTORE PUSH1 0x4 ADD PUSH2 0x97 SWAP1 PUSH2 0x29F JUMP JUMPDEST PUSH1 0x40 MLOAD DUP1 SWAP2 SUB SWAP1 REVERT JUMPDEST PUSH0 DUP4 GT PUSH2 0xE2 JUMPI PUSH1 0x40 MLOAD PUSH32 0x8C379A000000000000000000000000000000000000000000000000000000000 DUP2 MSTORE PUSH1 0x4 ADD PUSH2 0xD9 SWAP1 PUSH2 0x32D JUMP JUMPDEST PUSH1 0x40 MLOAD DUP1 SWAP2 SUB SWAP1 REVERT JUMPDEST PUSH0 DUP3 GT PUSH2 0x124 JUMPI PUSH1 0x40 MLOAD PUSH32 0x8C379A000000000000000000000000000000000000000000000000000000000 DUP2 MSTORE PUSH1 0x4 ADD PUSH2 0x11B SWAP1 PUSH2 0x3BB JUMP JUMPDEST PUSH1 0x40 MLOAD DUP1 SWAP2 SUB SWAP1 REVERT JUMPDEST PUSH0 DUP5 SWAP1 POP PUSH0 JUMPDEST DUP4 DUP2 LT ISZERO PUSH2 0x164 JUMPI PUSH1 0x64 DUP6 DUP4 PUSH2 0x140 SWAP2 SWAP1 PUSH2 0x406 JUMP JUMPDEST PUSH2 0x14A SWAP2 SWAP1 PUSH2 0x474 JUMP JUMPDEST DUP3 PUSH2 0x155 SWAP2 SWAP1 PUSH2 0x4A4 JUMP JUMPDEST SWAP2 POP DUP1 DUP1 PUSH1 0x1 ADD SWAP2 POP POP PUSH2 0x12A JUMP JUMPDEST POP DUP1 SWAP2 POP POP SWAP4 SWAP3 POP POP POP JUMP JUMPDEST PUSH0 DUP1 REVERT JUMPDEST PUSH0 DUP2 SWAP1 POP SWAP2 SWAP1 POP JUMP JUMPDEST PUSH2 0x186 DUP2 PUSH2 0x174 JUMP JUMPDEST DUP2 EQ PUSH2 0x190 JUMPI PUSH0 DUP1 REVERT JUMPDEST POP JUMP JUMPDEST PUSH0 DUP2 CALLDATALOAD SWAP1 POP PUSH2 0x1A1 DUP2 PUSH2 0x17D JUMP JUMPDEST SWAP3 SWAP2 POP POP JUMP JUMPDEST PUSH0 DUP1 PUSH0 PUSH1 0x60 DUP5 DUP7 SUB SLT ISZERO PUSH2 0x1BE JUMPI PUSH2 0x1BD PUSH2 0x170 JUMP JUMPDEST JUMPDEST PUSH0 PUSH2 0x1CB DUP7 DUP3 DUP8 ADD PUSH2 0x193 JUMP JUMPDEST SWAP4 POP POP PUSH1 0x20 PUSH2 0x1DC DUP7 DUP3 DUP8 ADD PUSH2 0x193 JUMP JUMPDEST SWAP3 POP POP PUSH1 0x40 PUSH2 0x1ED DUP7 DUP3 DUP8 ADD PUSH2 0x193 JUMP JUMPDEST SWAP2 POP POP SWAP3 POP SWAP3 POP SWAP3 JUMP JUMPDEST PUSH2 0x200 DUP2 PUSH2 0x174 JUMP JUMPDEST DUP3 MSTORE POP POP JUMP JUMPDEST PUSH0 PUSH1 0x20 DUP3 ADD SWAP1 POP PUSH2 0x219 PUSH0 DUP4 ADD DUP5 PUSH2 0x1F7 JUMP JUMPDEST SWAP3 SWAP2 POP POP JUMP JUMPDEST PUSH0 DUP3 DUP3 MSTORE PUSH1 0x20 DUP3 ADD SWAP1 POP SWAP3 SWAP2 POP POP JUMP JUMPDEST PUSH32 0x5072696E636970616C20616D6F756E74206D7573742062652067726561746572 PUSH0 DUP3 ADD MSTORE PUSH32 0x207468616E207A65726F00000000000000000000000000000000000000000000 PUSH1 0x20 DUP3 ADD MSTORE POP JUMP JUMPDEST PUSH0 PUSH2 0x289 PUSH1 0x2A DUP4 PUSH2 0x21F JUMP JUMPDEST SWAP2 POP PUSH2 0x294 DUP3 PUSH2 0x22F JUMP JUMPDEST PUSH1 0x40 DUP3 ADD SWAP1 POP SWAP2 SWAP1 POP JUMP JUMPDEST PUSH0 PUSH1 0x20 DUP3 ADD SWAP1 POP DUP2 DUP2 SUB PUSH0 DUP4 ADD MSTORE PUSH2 0x2B6 DUP2 PUSH2 0x27D JUMP JUMPDEST SWAP1 POP SWAP2 SWAP1 POP JUMP JUMPDEST PUSH32 0x496E7465726573742072617465206D7573742062652067726561746572207468 PUSH0 DUP3 ADD MSTORE PUSH32 0x616E207A65726F00000000000000000000000000000000000000000000000000 PUSH1 0x20 DUP3 ADD MSTORE POP JUMP JUMPDEST PUSH0 PUSH2 0x317 PUSH1 0x27 DUP4 PUSH2 0x21F JUMP JUMPDEST SWAP2 POP PUSH2 0x322 DUP3 PUSH2 0x2BD JUMP JUMPDEST PUSH1 0x40 DUP3 ADD SWAP1 POP SWAP2 SWAP1 POP JUMP JUMPDEST PUSH0 PUSH1 0x20 DUP3 ADD SWAP1 POP DUP2 DUP2 SUB PUSH0 DUP4 ADD MSTORE PUSH2 0x344 DUP2 PUSH2 0x30B JUMP JUMPDEST SWAP1 POP SWAP2 SWAP1 POP JUMP JUMPDEST PUSH32 0x4E756D626572206F66206D6F6E746873206D7573742062652067726561746572 PUSH0 DUP3 ADD MSTORE PUSH32 0x207468616E207A65726F00000000000000000000000000000000000000000000 PUSH1 0x20 DUP3 ADD MSTORE POP JUMP JUMPDEST PUSH0 PUSH2 0x3A5 PUSH1 0x2A DUP4 PUSH2 0x21F JUMP JUMPDEST SWAP2 POP PUSH2 0x3B0 DUP3 PUSH2 0x34B JUMP JUMPDEST PUSH1 0x40 DUP3 ADD SWAP1 POP SWAP2 SWAP1 POP JUMP JUMPDEST PUSH0 PUSH1 0x20 DUP3 ADD SWAP1 POP DUP2 DUP2 SUB PUSH0 DUP4 ADD MSTORE PUSH2 0x3D2 DUP2 PUSH2 0x399 JUMP JUMPDEST SWAP1 POP SWAP2 SWAP1 POP JUMP JUMPDEST PUSH32 0x4E487B7100000000000000000000000000000000000000000000000000000000 PUSH0 MSTORE PUSH1 0x11 PUSH1 0x4 MSTORE PUSH1 0x24 PUSH0 REVERT JUMPDEST PUSH0 PUSH2 0x410 DUP3 PUSH2 0x174 JUMP JUMPDEST SWAP2 POP PUSH2 0x41B DUP4 PUSH2 0x174 JUMP JUMPDEST SWAP3 POP DUP3 DUP3 MUL PUSH2 0x429 DUP2 PUSH2 0x174 JUMP JUMPDEST SWAP2 POP DUP3 DUP3 DIV DUP5 EQ DUP4 ISZERO OR PUSH2 0x440 JUMPI PUSH2 0x43F PUSH2 0x3D9 JUMP JUMPDEST JUMPDEST POP SWAP3 SWAP2 POP POP JUMP JUMPDEST PUSH32 0x4E487B7100000000000000000000000000000000000000000000000000000000 PUSH0 MSTORE PUSH1 0x12 PUSH1 0x4 MSTORE PUSH1 0x24 PUSH0 REVERT JUMPDEST PUSH0 PUSH2 0x47E DUP3 PUSH2 0x174 JUMP JUMPDEST SWAP2 POP PUSH2 0x489 DUP4 PUSH2 0x174 JUMP JUMPDEST SWAP3 POP DUP3 PUSH2 0x499 JUMPI PUSH2 0x498 PUSH2 0x447 JUMP JUMPDEST JUMPDEST DUP3 DUP3 DIV SWAP1 POP SWAP3 SWAP2 POP POP JUMP JUMPDEST PUSH0 PUSH2 0x4AE DUP3 PUSH2 0x174 JUMP JUMPDEST SWAP2 POP PUSH2 0x4B9 DUP4 PUSH2 0x174 JUMP JUMPDEST SWAP3 POP DUP3 DUP3 ADD SWAP1 POP DUP1 DUP3 GT ISZERO PUSH2 0x4D1 JUMPI PUSH2 0x4D0 PUSH2 0x3D9 JUMP JUMPDEST JUMPDEST SWAP3 SWAP2 POP POP JUMP INVALID LOG2 PUSH5 0x6970667358 0x22 SLT KECCAK256 0xBE EQ SWAP11 0xB3 0xCE DUP1 BLOCKHASH DUP3 ISZERO DUP1 PUSH1 0xCA CALLER PUSH5 0xD4377787F6 0xB8 TSTORE 0xD2 PUSH7 0xD5D6706AC0DB6D MULMOD 0xEF PUSH5 0x736F6C6343 STOP ADDMOD BYTE STOP CALLER "
				},
				"gasEstimates": {
					"creation": {
						"codeDepositCost": "258600",
						"executionCost": "298",
						"totalCost": "258898"
					},
					"external": {
						"calculateProfit(uint256,uint256,uint256)": "infinite"
					}
				},
				"methodIdentifiers": {
					"calculateProfit(uint256,uint256,uint256)": "ac7c35f7"
				}
			},
			"storageLayout": {
				"storage": [],
				"types": null
			},
			"userdoc": {
				"kind": "user",
				"methods": {},
				"version": 1
			}
		}
	}
}