{
	"contracts/Blockchain_Assignment_3/Task_Codes/as3_task4.sol": {
		"PalindromeChecker": {
			"abi": [
				{
					"inputs": [
						{
							"internalType": "uint256",
							"name": "n",
							"type": "uint256"
						}
					],
					"name": "isPalindrome",
					"outputs": [
						{
							"internalType": "bool",
							"name": "",
							"type": "bool"
						}
					],
					"stateMutability": "pure",
					"type": "function"
				}
			],
			"devdoc": {
				"kind": "dev",
				"methods": {},
				"version": 1
			},
			"evm": {
				"assembly": "    /* \"contracts/Blockchain_Assignment_3/Task_Codes/as3_task4.sol\":28:454  contract PalindromeChecker {... */\n  mstore(0x40, 0x80)\n  callvalue\n  dup1\n  iszero\n  tag_1\n  jumpi\n  0x00\n  dup1\n  revert\ntag_1:\n  pop\n  dataSize(sub_0)\n  dup1\n  dataOffset(sub_0)\n  0x00\n  codecopy\n  0x00\n  return\nstop\n\nsub_0: assembly {\n        /* \"contracts/Blockchain_Assignment_3/Task_Codes/as3_task4.sol\":28:454  contract PalindromeChecker {... */\n      mstore(0x40, 0x80)\n      callvalue\n      dup1\n      iszero\n      tag_1\n      jumpi\n      0x00\n      dup1\n      revert\n    tag_1:\n      pop\n      jumpi(tag_2, lt(calldatasize, 0x04))\n      shr(0xe0, calldataload(0x00))\n      dup1\n      0x041a4e56\n      eq\n      tag_3\n      jumpi\n    tag_2:\n      0x00\n      dup1\n      revert\n        /* \"contracts/Blockchain_Assignment_3/Task_Codes/as3_task4.sol\":62:451  function isPalindrome(uint256 n) public pure returns (bool) {... */\n    tag_3:\n      tag_4\n      0x04\n      dup1\n      calldatasize\n      sub\n      dup2\n      add\n      swap1\n      tag_5\n      swap2\n      swap1\n      tag_6\n      jump\t// in\n    tag_5:\n      tag_7\n      jump\t// in\n    tag_4:\n      mload(0x40)\n      tag_8\n      swap2\n      swap1\n      tag_9\n      jump\t// in\n    tag_8:\n      mload(0x40)\n      dup1\n      swap2\n      sub\n      swap1\n      return\n    tag_7:\n        /* \"contracts/Blockchain_Assignment_3/Task_Codes/as3_task4.sol\":116:120  bool */\n      0x00\n        /* \"contracts/Blockchain_Assignment_3/Task_Codes/as3_task4.sol\":133:149  uint256 original */\n      dup1\n        /* \"contracts/Blockchain_Assignment_3/Task_Codes/as3_task4.sol\":152:153  n */\n      dup3\n        /* \"contracts/Blockchain_Assignment_3/Task_Codes/as3_task4.sol\":133:153  uint256 original = n */\n      swap1\n      pop\n        /* \"contracts/Blockchain_Assignment_3/Task_Codes/as3_task4.sol\":164:180  uint256 reversed */\n      0x00\n        /* \"contracts/Blockchain_Assignment_3/Task_Codes/as3_task4.sol\":195:212  uint256 remainder */\n      dup1\n        /* \"contracts/Blockchain_Assignment_3/Task_Codes/as3_task4.sol\":225:404  while (n > 0) {... */\n    tag_11:\n        /* \"contracts/Blockchain_Assignment_3/Task_Codes/as3_task4.sol\":236:237  0 */\n      0x00\n        /* \"contracts/Blockchain_Assignment_3/Task_Codes/as3_task4.sol\":232:233  n */\n      dup6\n        /* \"contracts/Blockchain_Assignment_3/Task_Codes/as3_task4.sol\":232:237  n > 0 */\n      gt\n        /* \"contracts/Blockchain_Assignment_3/Task_Codes/as3_task4.sol\":225:404  while (n > 0) {... */\n      iszero\n      tag_12\n      jumpi\n        /* \"contracts/Blockchain_Assignment_3/Task_Codes/as3_task4.sol\":270:272  10 */\n      0x0a\n        /* \"contracts/Blockchain_Assignment_3/Task_Codes/as3_task4.sol\":266:267  n */\n      dup6\n        /* \"contracts/Blockchain_Assignment_3/Task_Codes/as3_task4.sol\":266:272  n % 10 */\n      tag_13\n      swap2\n      swap1\n      tag_14\n      jump\t// in\n    tag_13:\n        /* \"contracts/Blockchain_Assignment_3/Task_Codes/as3_task4.sol\":254:272  remainder = n % 10 */\n      swap1\n      pop\n        /* \"contracts/Blockchain_Assignment_3/Task_Codes/as3_task4.sol\":328:337  remainder */\n      dup1\n        /* \"contracts/Blockchain_Assignment_3/Task_Codes/as3_task4.sol\":323:325  10 */\n      0x0a\n        /* \"contracts/Blockchain_Assignment_3/Task_Codes/as3_task4.sol\":312:320  reversed */\n      dup4\n        /* \"contracts/Blockchain_Assignment_3/Task_Codes/as3_task4.sol\":312:325  reversed * 10 */\n      tag_15\n      swap2\n      swap1\n      tag_16\n      jump\t// in\n    tag_15:\n        /* \"contracts/Blockchain_Assignment_3/Task_Codes/as3_task4.sol\":312:337  reversed * 10 + remainder */\n      tag_17\n      swap2\n      swap1\n      tag_18\n      jump\t// in\n    tag_17:\n        /* \"contracts/Blockchain_Assignment_3/Task_Codes/as3_task4.sol\":301:337  reversed = reversed * 10 + remainder */\n      swap2\n      pop\n        /* \"contracts/Blockchain_Assignment_3/Task_Codes/as3_task4.sol\":375:377  10 */\n      0x0a\n        /* \"contracts/Blockchain_Assignment_3/Task_Codes/as3_task4.sol\":370:377  n /= 10 */\n      dup6\n      tag_19\n      swap2\n      swap1\n      tag_20\n      jump\t// in\n    tag_19:\n      swap5\n      pop\n        /* \"contracts/Blockchain_Assignment_3/Task_Codes/as3_task4.sol\":225:404  while (n > 0) {... */\n      jump(tag_11)\n    tag_12:\n        /* \"contracts/Blockchain_Assignment_3/Task_Codes/as3_task4.sol\":435:443  reversed */\n      dup2\n        /* \"contracts/Blockchain_Assignment_3/Task_Codes/as3_task4.sol\":423:431  original */\n      dup4\n        /* \"contracts/Blockchain_Assignment_3/Task_Codes/as3_task4.sol\":423:443  original == reversed */\n      eq\n        /* \"contracts/Blockchain_Assignment_3/Task_Codes/as3_task4.sol\":416:443  return original == reversed */\n      swap4\n      pop\n      pop\n      pop\n      pop\n        /* \"contracts/Blockchain_Assignment_3/Task_Codes/as3_task4.sol\":62:451  function isPalindrome(uint256 n) public pure returns (bool) {... */\n      swap2\n      swap1\n      pop\n      jump\t// out\n        /* \"#utility.yul\":88:205   */\n    tag_22:\n        /* \"#utility.yul\":197:198   */\n      0x00\n        /* \"#utility.yul\":194:195   */\n      dup1\n        /* \"#utility.yul\":187:199   */\n      revert\n        /* \"#utility.yul\":334:411   */\n    tag_24:\n        /* \"#utility.yul\":371:378   */\n      0x00\n        /* \"#utility.yul\":400:405   */\n      dup2\n        /* \"#utility.yul\":389:405   */\n      swap1\n      pop\n        /* \"#utility.yul\":334:411   */\n      swap2\n      swap1\n      pop\n      jump\t// out\n        /* \"#utility.yul\":417:539   */\n    tag_25:\n        /* \"#utility.yul\":490:514   */\n      tag_37\n        /* \"#utility.yul\":508:513   */\n      dup2\n        /* \"#utility.yul\":490:514   */\n      tag_24\n      jump\t// in\n    tag_37:\n        /* \"#utility.yul\":483:488   */\n      dup2\n        /* \"#utility.yul\":480:515   */\n      eq\n        /* \"#utility.yul\":470:533   */\n      tag_38\n      jumpi\n        /* \"#utility.yul\":529:530   */\n      0x00\n        /* \"#utility.yul\":526:527   */\n      dup1\n        /* \"#utility.yul\":519:531   */\n      revert\n        /* \"#utility.yul\":470:533   */\n    tag_38:\n        /* \"#utility.yul\":417:539   */\n      pop\n      jump\t// out\n        /* \"#utility.yul\":545:684   */\n    tag_26:\n        /* \"#utility.yul\":591:596   */\n      0x00\n        /* \"#utility.yul\":629:635   */\n      dup2\n        /* \"#utility.yul\":616:636   */\n      calldataload\n        /* \"#utility.yul\":607:636   */\n      swap1\n      pop\n        /* \"#utility.yul\":645:678   */\n      tag_40\n        /* \"#utility.yul\":672:677   */\n      dup2\n        /* \"#utility.yul\":645:678   */\n      tag_25\n      jump\t// in\n    tag_40:\n        /* \"#utility.yul\":545:684   */\n      swap3\n      swap2\n      pop\n      pop\n      jump\t// out\n        /* \"#utility.yul\":690:1019   */\n    tag_6:\n        /* \"#utility.yul\":749:755   */\n      0x00\n        /* \"#utility.yul\":798:800   */\n      0x20\n        /* \"#utility.yul\":786:795   */\n      dup3\n        /* \"#utility.yul\":777:784   */\n      dup5\n        /* \"#utility.yul\":773:796   */\n      sub\n        /* \"#utility.yul\":769:801   */\n      slt\n        /* \"#utility.yul\":766:885   */\n      iszero\n      tag_42\n      jumpi\n        /* \"#utility.yul\":804:883   */\n      tag_43\n      tag_22\n      jump\t// in\n    tag_43:\n        /* \"#utility.yul\":766:885   */\n    tag_42:\n        /* \"#utility.yul\":924:925   */\n      0x00\n        /* \"#utility.yul\":949:1002   */\n      tag_44\n        /* \"#utility.yul\":994:1001   */\n      dup5\n        /* \"#utility.yul\":985:991   */\n      dup3\n        /* \"#utility.yul\":974:983   */\n      dup6\n        /* \"#utility.yul\":970:992   */\n      add\n        /* \"#utility.yul\":949:1002   */\n      tag_26\n      jump\t// in\n    tag_44:\n        /* \"#utility.yul\":939:1002   */\n      swap2\n      pop\n        /* \"#utility.yul\":895:1012   */\n      pop\n        /* \"#utility.yul\":690:1019   */\n      swap3\n      swap2\n      pop\n      pop\n      jump\t// out\n        /* \"#utility.yul\":1025:1115   */\n    tag_27:\n        /* \"#utility.yul\":1059:1066   */\n      0x00\n        /* \"#utility.yul\":1102:1107   */\n      dup2\n        /* \"#utility.yul\":1095:1108   */\n      iszero\n        /* \"#utility.yul\":1088:1109   */\n      iszero\n        /* \"#utility.yul\":1077:1109   */\n      swap1\n      pop\n        /* \"#utility.yul\":1025:1115   */\n      swap2\n      swap1\n      pop\n      jump\t// out\n        /* \"#utility.yul\":1121:1230   */\n    tag_28:\n        /* \"#utility.yul\":1202:1223   */\n      tag_47\n        /* \"#utility.yul\":1217:1222   */\n      dup2\n        /* \"#utility.yul\":1202:1223   */\n      tag_27\n      jump\t// in\n    tag_47:\n        /* \"#utility.yul\":1197:1200   */\n      dup3\n        /* \"#utility.yul\":1190:1224   */\n      mstore\n        /* \"#utility.yul\":1121:1230   */\n      pop\n      pop\n      jump\t// out\n        /* \"#utility.yul\":1236:1446   */\n    tag_9:\n        /* \"#utility.yul\":1323:1327   */\n      0x00\n        /* \"#utility.yul\":1361:1363   */\n      0x20\n        /* \"#utility.yul\":1350:1359   */\n      dup3\n        /* \"#utility.yul\":1346:1364   */\n      add\n        /* \"#utility.yul\":1338:1364   */\n      swap1\n      pop\n        /* \"#utility.yul\":1374:1439   */\n      tag_49\n        /* \"#utility.yul\":1436:1437   */\n      0x00\n        /* \"#utility.yul\":1425:1434   */\n      dup4\n        /* \"#utility.yul\":1421:1438   */\n      add\n        /* \"#utility.yul\":1412:1418   */\n      dup5\n        /* \"#utility.yul\":1374:1439   */\n      tag_28\n      jump\t// in\n    tag_49:\n        /* \"#utility.yul\":1236:1446   */\n      swap3\n      swap2\n      pop\n      pop\n      jump\t// out\n        /* \"#utility.yul\":1452:1632   */\n    tag_29:\n        /* \"#utility.yul\":1500:1577   */\n      0x4e487b7100000000000000000000000000000000000000000000000000000000\n        /* \"#utility.yul\":1497:1498   */\n      0x00\n        /* \"#utility.yul\":1490:1578   */\n      mstore\n        /* \"#utility.yul\":1597:1601   */\n      0x12\n        /* \"#utility.yul\":1594:1595   */\n      0x04\n        /* \"#utility.yul\":1587:1602   */\n      mstore\n        /* \"#utility.yul\":1621:1625   */\n      0x24\n        /* \"#utility.yul\":1618:1619   */\n      0x00\n        /* \"#utility.yul\":1611:1626   */\n      revert\n        /* \"#utility.yul\":1638:1814   */\n    tag_14:\n        /* \"#utility.yul\":1670:1671   */\n      0x00\n        /* \"#utility.yul\":1687:1707   */\n      tag_52\n        /* \"#utility.yul\":1705:1706   */\n      dup3\n        /* \"#utility.yul\":1687:1707   */\n      tag_24\n      jump\t// in\n    tag_52:\n        /* \"#utility.yul\":1682:1707   */\n      swap2\n      pop\n        /* \"#utility.yul\":1721:1741   */\n      tag_53\n        /* \"#utility.yul\":1739:1740   */\n      dup4\n        /* \"#utility.yul\":1721:1741   */\n      tag_24\n      jump\t// in\n    tag_53:\n        /* \"#utility.yul\":1716:1741   */\n      swap3\n      pop\n        /* \"#utility.yul\":1760:1761   */\n      dup3\n        /* \"#utility.yul\":1750:1785   */\n      tag_54\n      jumpi\n        /* \"#utility.yul\":1765:1783   */\n      tag_55\n      tag_29\n      jump\t// in\n    tag_55:\n        /* \"#utility.yul\":1750:1785   */\n    tag_54:\n        /* \"#utility.yul\":1806:1807   */\n      dup3\n        /* \"#utility.yul\":1803:1804   */\n      dup3\n        /* \"#utility.yul\":1799:1808   */\n      mod\n        /* \"#utility.yul\":1794:1808   */\n      swap1\n      pop\n        /* \"#utility.yul\":1638:1814   */\n      swap3\n      swap2\n      pop\n      pop\n      jump\t// out\n        /* \"#utility.yul\":1820:2000   */\n    tag_30:\n        /* \"#utility.yul\":1868:1945   */\n      0x4e487b7100000000000000000000000000000000000000000000000000000000\n        /* \"#utility.yul\":1865:1866   */\n      0x00\n        /* \"#utility.yul\":1858:1946   */\n      mstore\n        /* \"#utility.yul\":1965:1969   */\n      0x11\n        /* \"#utility.yul\":1962:1963   */\n      0x04\n        /* \"#utility.yul\":1955:1970   */\n      mstore\n        /* \"#utility.yul\":1989:1993   */\n      0x24\n        /* \"#utility.yul\":1986:1987   */\n      0x00\n        /* \"#utility.yul\":1979:1994   */\n      revert\n        /* \"#utility.yul\":2006:2416   */\n    tag_16:\n        /* \"#utility.yul\":2046:2053   */\n      0x00\n        /* \"#utility.yul\":2069:2089   */\n      tag_58\n        /* \"#utility.yul\":2087:2088   */\n      dup3\n        /* \"#utility.yul\":2069:2089   */\n      tag_24\n      jump\t// in\n    tag_58:\n        /* \"#utility.yul\":2064:2089   */\n      swap2\n      pop\n        /* \"#utility.yul\":2103:2123   */\n      tag_59\n        /* \"#utility.yul\":2121:2122   */\n      dup4\n        /* \"#utility.yul\":2103:2123   */\n      tag_24\n      jump\t// in\n    tag_59:\n        /* \"#utility.yul\":2098:2123   */\n      swap3\n      pop\n        /* \"#utility.yul\":2158:2159   */\n      dup3\n        /* \"#utility.yul\":2155:2156   */\n      dup3\n        /* \"#utility.yul\":2151:2160   */\n      mul\n        /* \"#utility.yul\":2180:2210   */\n      tag_60\n        /* \"#utility.yul\":2198:2209   */\n      dup2\n        /* \"#utility.yul\":2180:2210   */\n      tag_24\n      jump\t// in\n    tag_60:\n        /* \"#utility.yul\":2169:2210   */\n      swap2\n      pop\n        /* \"#utility.yul\":2359:2360   */\n      dup3\n        /* \"#utility.yul\":2350:2357   */\n      dup3\n        /* \"#utility.yul\":2346:2361   */\n      div\n        /* \"#utility.yul\":2343:2344   */\n      dup5\n        /* \"#utility.yul\":2340:2362   */\n      eq\n        /* \"#utility.yul\":2320:2321   */\n      dup4\n        /* \"#utility.yul\":2313:2322   */\n      iszero\n        /* \"#utility.yul\":2293:2376   */\n      or\n        /* \"#utility.yul\":2270:2409   */\n      tag_61\n      jumpi\n        /* \"#utility.yul\":2389:2407   */\n      tag_62\n      tag_30\n      jump\t// in\n    tag_62:\n        /* \"#utility.yul\":2270:2409   */\n    tag_61:\n        /* \"#utility.yul\":2054:2416   */\n      pop\n        /* \"#utility.yul\":2006:2416   */\n      swap3\n      swap2\n      pop\n      pop\n      jump\t// out\n        /* \"#utility.yul\":2422:2613   */\n    tag_18:\n        /* \"#utility.yul\":2462:2465   */\n      0x00\n        /* \"#utility.yul\":2481:2501   */\n      tag_64\n        /* \"#utility.yul\":2499:2500   */\n      dup3\n        /* \"#utility.yul\":2481:2501   */\n      tag_24\n      jump\t// in\n    tag_64:\n        /* \"#utility.yul\":2476:2501   */\n      swap2\n      pop\n        /* \"#utility.yul\":2515:2535   */\n      tag_65\n        /* \"#utility.yul\":2533:2534   */\n      dup4\n        /* \"#utility.yul\":2515:2535   */\n      tag_24\n      jump\t// in\n    tag_65:\n        /* \"#utility.yul\":2510:2535   */\n      swap3\n      pop\n        /* \"#utility.yul\":2558:2559   */\n      dup3\n        /* \"#utility.yul\":2555:2556   */\n      dup3\n        /* \"#utility.yul\":2551:2560   */\n      add\n        /* \"#utility.yul\":2544:2560   */\n      swap1\n      pop\n        /* \"#utility.yul\":2579:2582   */\n      dup1\n        /* \"#utility.yul\":2576:2577   */\n      dup3\n        /* \"#utility.yul\":2573:2583   */\n      gt\n        /* \"#utility.yul\":2570:2606   */\n      iszero\n      tag_66\n      jumpi\n        /* \"#utility.yul\":2586:2604   */\n      tag_67\n      tag_30\n      jump\t// in\n    tag_67:\n        /* \"#utility.yul\":2570:2606   */\n    tag_66:\n        /* \"#utility.yul\":2422:2613   */\n      swap3\n      swap2\n      pop\n      pop\n      jump\t// out\n        /* \"#utility.yul\":2619:2804   */\n    tag_20:\n        /* \"#utility.yul\":2659:2660   */\n      0x00\n        /* \"#utility.yul\":2676:2696   */\n      tag_69\n        /* \"#utility.yul\":2694:2695   */\n      dup3\n        /* \"#utility.yul\":2676:2696   */\n      tag_24\n      jump\t// in\n    tag_69:\n        /* \"#utility.yul\":2671:2696   */\n      swap2\n      pop\n        /* \"#utility.yul\":2710:2730   */\n      tag_70\n        /* \"#utility.yul\":2728:2729   */\n      dup4\n        /* \"#utility.yul\":2710:2730   */\n      tag_24\n      jump\t// in\n    tag_70:\n        /* \"#utility.yul\":2705:2730   */\n      swap3\n      pop\n        /* \"#utility.yul\":2749:2750   */\n      dup3\n        /* \"#utility.yul\":2739:2774   */\n      tag_71\n      jumpi\n        /* \"#utility.yul\":2754:2772   */\n      tag_72\n      tag_29\n      jump\t// in\n    tag_72:\n        /* \"#utility.yul\":2739:2774   */\n    tag_71:\n        /* \"#utility.yul\":2796:2797   */\n      dup3\n        /* \"#utility.yul\":2793:2794   */\n      dup3\n        /* \"#utility.yul\":2789:2798   */\n      div\n        /* \"#utility.yul\":2784:2798   */\n      swap1\n      pop\n        /* \"#utility.yul\":2619:2804   */\n      swap3\n      swap2\n      pop\n      pop\n      jump\t// out\n\n    auxdata: 0xa26469706673582212200edbc6a10e70e8e3fa85fdd7e458093ff86ca13e7dc959f3bab4a93d3163851564736f6c634300081a0033\n}\n",
				"bytecode": {
					"linkReferences": {},
					"object": "6080604052348015600e575f80fd5b506102b08061001c5f395ff3fe608060405234801561000f575f80fd5b5060043610610029575f3560e01c8063041a4e561461002d575b5f80fd5b610047600480360381019061004291906100ee565b61005d565b6040516100549190610133565b60405180910390f35b5f808290505f805b5f8511156100aa57600a8561007a9190610179565b905080600a8361008a91906101d6565b6100949190610217565b9150600a856100a3919061024a565b9450610065565b8183149350505050919050565b5f80fd5b5f819050919050565b6100cd816100bb565b81146100d7575f80fd5b50565b5f813590506100e8816100c4565b92915050565b5f60208284031215610103576101026100b7565b5b5f610110848285016100da565b91505092915050565b5f8115159050919050565b61012d81610119565b82525050565b5f6020820190506101465f830184610124565b92915050565b7f4e487b71000000000000000000000000000000000000000000000000000000005f52601260045260245ffd5b5f610183826100bb565b915061018e836100bb565b92508261019e5761019d61014c565b5b828206905092915050565b7f4e487b71000000000000000000000000000000000000000000000000000000005f52601160045260245ffd5b5f6101e0826100bb565b91506101eb836100bb565b92508282026101f9816100bb565b915082820484148315176102105761020f6101a9565b5b5092915050565b5f610221826100bb565b915061022c836100bb565b9250828201905080821115610244576102436101a9565b5b92915050565b5f610254826100bb565b915061025f836100bb565b92508261026f5761026e61014c565b5b82820490509291505056fea26469706673582212200edbc6a10e70e8e3fa85fdd7e458093ff86ca13e7dc959f3bab4a93d3163851564736f6c634300081a0033",
					"opcodes": "PUSH1 0x80 PUSH1 0x40 MSTORE CALLVALUE DUP1 ISZERO PUSH1 0xE JUMPI PUSH0 DUP1 REVERT JUMPDEST POP PUSH2 0x2B0 DUP1 PUSH2 0x1C PUSH0 CODECOPY PUSH0 RETURN INVALID PUSH1 0x80 PUSH1 0x40 MSTORE CALLVALUE DUP1 ISZERO PUSH2 0xF JUMPI PUSH0 DUP1 REVERT JUMPDEST POP PUSH1 0x4 CALLDATASIZE LT PUSH2 0x29 JUMPI PUSH0 CALLDATALOAD PUSH1 0xE0 SHR DUP1 PUSH4 0x41A4E56 EQ PUSH2 0x2D JUMPI JUMPDEST PUSH0 DUP1 REVERT JUMPDEST PUSH2 0x47 PUSH1 0x4 DUP1 CALLDATASIZE SUB DUP2 ADD SWAP1 PUSH2 0x42 SWAP2 SWAP1 PUSH2 0xEE JUMP JUMPDEST PUSH2 0x5D JUMP JUMPDEST PUSH1 0x40 MLOAD PUSH2 0x54 SWAP2 SWAP1 PUSH2 0x133 JUMP JUMPDEST PUSH1 0x40 MLOAD DUP1 SWAP2 SUB SWAP1 RETURN JUMPDEST PUSH0 DUP1 DUP3 SWAP1 POP PUSH0 DUP1 JUMPDEST PUSH0 DUP6 GT ISZERO PUSH2 0xAA JUMPI PUSH1 0xA DUP6 PUSH2 0x7A SWAP2 SWAP1 PUSH2 0x179 JUMP JUMPDEST SWAP1 POP DUP1 PUSH1 0xA DUP4 PUSH2 0x8A SWAP2 SWAP1 PUSH2 0x1D6 JUMP JUMPDEST PUSH2 0x94 SWAP2 SWAP1 PUSH2 0x217 JUMP JUMPDEST SWAP2 POP PUSH1 0xA DUP6 PUSH2 0xA3 SWAP2 SWAP1 PUSH2 0x24A JUMP JUMPDEST SWAP5 POP PUSH2 0x65 JUMP JUMPDEST DUP2 DUP4 EQ SWAP4 POP POP POP POP SWAP2 SWAP1 POP JUMP JUMPDEST PUSH0 DUP1 REVERT JUMPDEST PUSH0 DUP2 SWAP1 POP SWAP2 SWAP1 POP JUMP JUMPDEST PUSH2 0xCD DUP2 PUSH2 0xBB JUMP JUMPDEST DUP2 EQ PUSH2 0xD7 JUMPI PUSH0 DUP1 REVERT JUMPDEST POP JUMP JUMPDEST PUSH0 DUP2 CALLDATALOAD SWAP1 POP PUSH2 0xE8 DUP2 PUSH2 0xC4 JUMP JUMPDEST SWAP3 SWAP2 POP POP JUMP JUMPDEST PUSH0 PUSH1 0x20 DUP3 DUP5 SUB SLT ISZERO PUSH2 0x103 JUMPI PUSH2 0x102 PUSH2 0xB7 JUMP JUMPDEST JUMPDEST PUSH0 PUSH2 0x110 DUP5 DUP3 DUP6 ADD PUSH2 0xDA JUMP JUMPDEST SWAP2 POP POP SWAP3 SWAP2 POP POP JUMP JUMPDEST PUSH0 DUP2 ISZERO ISZERO SWAP1 POP SWAP2 SWAP1 POP JUMP JUMPDEST PUSH2 0x12D DUP2 PUSH2 0x119 JUMP JUMPDEST DUP3 MSTORE POP POP JUMP JUMPDEST PUSH0 PUSH1 0x20 DUP3 ADD SWAP1 POP PUSH2 0x146 PUSH0 DUP4 ADD DUP5 PUSH2 0x124 JUMP JUMPDEST SWAP3 SWAP2 POP POP JUMP JUMPDEST PUSH32 0x4E487B7100000000000000000000000000000000000000000000000000000000 PUSH0 MSTORE PUSH1 0x12 PUSH1 0x4 MSTORE PUSH1 0x24 PUSH0 REVERT JUMPDEST PUSH0 PUSH2 0x183 DUP3 PUSH2 0xBB JUMP JUMPDEST SWAP2 POP PUSH2 0x18E DUP4 PUSH2 0xBB JUMP JUMPDEST SWAP3 POP DUP3 PUSH2 0x19E JUMPI PUSH2 0x19D PUSH2 0x14C JUMP JUMPDEST JUMPDEST DUP3 DUP3 MOD SWAP1 POP SWAP3 SWAP2 POP POP JUMP JUMPDEST PUSH32 0x4E487B7100000000000000000000000000000000000000000000000000000000 PUSH0 MSTORE PUSH1 0x11 PUSH1 0x4 MSTORE PUSH1 0x24 PUSH0 REVERT JUMPDEST PUSH0 PUSH2 0x1E0 DUP3 PUSH2 0xBB JUMP JUMPDEST SWAP2 POP PUSH2 0x1EB DUP4 PUSH2 0xBB JUMP JUMPDEST SWAP3 POP DUP3 DUP3 MUL PUSH2 0x1F9 DUP2 PUSH2 0xBB JUMP JUMPDEST SWAP2 POP DUP3 DUP3 DIV DUP5 EQ DUP4 ISZERO OR PUSH2 0x210 JUMPI PUSH2 0x20F PUSH2 0x1A9 JUMP JUMPDEST JUMPDEST POP SWAP3 SWAP2 POP POP JUMP JUMPDEST PUSH0 PUSH2 0x221 DUP3 PUSH2 0xBB JUMP JUMPDEST SWAP2 POP PUSH2 0x22C DUP4 PUSH2 0xBB JUMP JUMPDEST SWAP3 POP DUP3 DUP3 ADD SWAP1 POP DUP1 DUP3 GT ISZERO PUSH2 0x244 JUMPI PUSH2 0x243 PUSH2 0x1A9 JUMP JUMPDEST JUMPDEST SWAP3 SWAP2 POP POP JUMP JUMPDEST PUSH0 PUSH2 0x254 DUP3 PUSH2 0xBB JUMP JUMPDEST SWAP2 POP PUSH2 0x25F DUP4 PUSH2 0xBB JUMP JUMPDEST SWAP3 POP DUP3 PUSH2 0x26F JUMPI PUSH2 0x26E PUSH2 0x14C JUMP JUMPDEST JUMPDEST DUP3 DUP3 DIV SWAP1 POP SWAP3 SWAP2 POP POP JUMP INVALID LOG2 PUSH5 0x6970667358 0x22 SLT KECCAK256 0xE 0xDB 0xC6 LOG1 0xE PUSH17 0xE8E3FA85FDD7E458093FF86CA13E7DC959 RETURN 0xBA 0xB4 0xA9 RETURNDATASIZE BALANCE PUSH4 0x85156473 PUSH16 0x6C634300081A00330000000000000000 "
				},
				"gasEstimates": {
					"creation": {
						"codeDepositCost": "137600",
						"executionCost": "181",
						"totalCost": "137781"
					},
					"external": {
						"isPalindrome(uint256)": "infinite"
					}
				},
				"methodIdentifiers": {
					"isPalindrome(uint256)": "041a4e56"
				}
			},
			"storageLayout": {
				"storage": [],
				"types": null
			},
			"userdoc": {
				"kind": "user",
				"methods": {},
				"version": 1
			}
		}
	}
}