{
	"contracts/Blockchain_Assignment_3/Task_Codes/as3_task4.sol": {
		"FactorialCalculator": {
			"abi": [
				{
					"inputs": [
						{
							"internalType": "uint256",
							"name": "number",
							"type": "uint256"
						}
					],
					"name": "calculateFactorial",
					"outputs": [
						{
							"internalType": "uint256",
							"name": "",
							"type": "uint256"
						}
					],
					"stateMutability": "pure",
					"type": "function"
				}
			],
			"devdoc": {
				"kind": "dev",
				"methods": {},
				"version": 1
			},
			"evm": {
				"assembly": "    /* \"contracts/Blockchain_Assignment_3/Task_Codes/as3_task4.sol\":344:679  contract FactorialCalculator {... */\n  mstore(0x40, 0x80)\n  callvalue\n  dup1\n  iszero\n  tag_1\n  jumpi\n  0x00\n  dup1\n  revert\ntag_1:\n  pop\n  dataSize(sub_0)\n  dup1\n  dataOffset(sub_0)\n  0x00\n  codecopy\n  0x00\n  return\nstop\n\nsub_0: assembly {\n        /* \"contracts/Blockchain_Assignment_3/Task_Codes/as3_task4.sol\":344:679  contract FactorialCalculator {... */\n      mstore(0x40, 0x80)\n      callvalue\n      dup1\n      iszero\n      tag_1\n      jumpi\n      0x00\n      dup1\n      revert\n    tag_1:\n      pop\n      jumpi(tag_2, lt(calldatasize, 0x04))\n      shr(0xe0, calldataload(0x00))\n      dup1\n      0x3d41c222\n      eq\n      tag_3\n      jumpi\n    tag_2:\n      0x00\n      dup1\n      revert\n        /* \"contracts/Blockchain_Assignment_3/Task_Codes/as3_task4.sol\":380:676  function calculateFactorial(uint256 number) public pure returns (uint256) {... */\n    tag_3:\n      tag_4\n      0x04\n      dup1\n      calldatasize\n      sub\n      dup2\n      add\n      swap1\n      tag_5\n      swap2\n      swap1\n      tag_6\n      jump\t// in\n    tag_5:\n      tag_7\n      jump\t// in\n    tag_4:\n      mload(0x40)\n      tag_8\n      swap2\n      swap1\n      tag_9\n      jump\t// in\n    tag_8:\n      mload(0x40)\n      dup1\n      swap2\n      sub\n      swap1\n      return\n    tag_7:\n        /* \"contracts/Blockchain_Assignment_3/Task_Codes/as3_task4.sol\":445:452  uint256 */\n      0x00\n        /* \"contracts/Blockchain_Assignment_3/Task_Codes/as3_task4.sol\":483:484  0 */\n      dup1\n        /* \"contracts/Blockchain_Assignment_3/Task_Codes/as3_task4.sol\":473:479  number */\n      dup3\n        /* \"contracts/Blockchain_Assignment_3/Task_Codes/as3_task4.sol\":473:484  number >= 0 */\n      lt\n      iszero\n        /* \"contracts/Blockchain_Assignment_3/Task_Codes/as3_task4.sol\":465:516  require(number >= 0, \"Number must be non-negative\") */\n      tag_11\n      jumpi\n      mload(0x40)\n      0x08c379a000000000000000000000000000000000000000000000000000000000\n      dup2\n      mstore\n      0x04\n      add\n      tag_12\n      swap1\n      tag_13\n      jump\t// in\n    tag_12:\n      mload(0x40)\n      dup1\n      swap2\n      sub\n      swap1\n      revert\n    tag_11:\n        /* \"contracts/Blockchain_Assignment_3/Task_Codes/as3_task4.sol\":529:546  uint256 factorial */\n      0x00\n        /* \"contracts/Blockchain_Assignment_3/Task_Codes/as3_task4.sol\":549:550  1 */\n      0x01\n        /* \"contracts/Blockchain_Assignment_3/Task_Codes/as3_task4.sol\":529:550  uint256 factorial = 1 */\n      swap1\n      pop\n        /* \"contracts/Blockchain_Assignment_3/Task_Codes/as3_task4.sol\":566:575  uint256 i */\n      0x00\n        /* \"contracts/Blockchain_Assignment_3/Task_Codes/as3_task4.sol\":578:579  1 */\n      0x01\n        /* \"contracts/Blockchain_Assignment_3/Task_Codes/as3_task4.sol\":566:579  uint256 i = 1 */\n      swap1\n      pop\n        /* \"contracts/Blockchain_Assignment_3/Task_Codes/as3_task4.sol\":561:640  for (uint256 i = 1; i <= number; i++) {... */\n    tag_14:\n        /* \"contracts/Blockchain_Assignment_3/Task_Codes/as3_task4.sol\":586:592  number */\n      dup4\n        /* \"contracts/Blockchain_Assignment_3/Task_Codes/as3_task4.sol\":581:582  i */\n      dup2\n        /* \"contracts/Blockchain_Assignment_3/Task_Codes/as3_task4.sol\":581:592  i <= number */\n      gt\n        /* \"contracts/Blockchain_Assignment_3/Task_Codes/as3_task4.sol\":561:640  for (uint256 i = 1; i <= number; i++) {... */\n      tag_15\n      jumpi\n        /* \"contracts/Blockchain_Assignment_3/Task_Codes/as3_task4.sol\":627:628  i */\n      dup1\n        /* \"contracts/Blockchain_Assignment_3/Task_Codes/as3_task4.sol\":614:628  factorial *= i */\n      dup3\n      tag_17\n      swap2\n      swap1\n      tag_18\n      jump\t// in\n    tag_17:\n      swap2\n      pop\n        /* \"contracts/Blockchain_Assignment_3/Task_Codes/as3_task4.sol\":594:597  i++ */\n      dup1\n      dup1\n      tag_19\n      swap1\n      tag_20\n      jump\t// in\n    tag_19:\n      swap2\n      pop\n      pop\n        /* \"contracts/Blockchain_Assignment_3/Task_Codes/as3_task4.sol\":561:640  for (uint256 i = 1; i <= number; i++) {... */\n      jump(tag_14)\n    tag_15:\n      pop\n        /* \"contracts/Blockchain_Assignment_3/Task_Codes/as3_task4.sol\":659:668  factorial */\n      dup1\n        /* \"contracts/Blockchain_Assignment_3/Task_Codes/as3_task4.sol\":652:668  return factorial */\n      swap2\n      pop\n      pop\n        /* \"contracts/Blockchain_Assignment_3/Task_Codes/as3_task4.sol\":380:676  function calculateFactorial(uint256 number) public pure returns (uint256) {... */\n      swap2\n      swap1\n      pop\n      jump\t// out\n        /* \"#utility.yul\":88:205   */\n    tag_22:\n        /* \"#utility.yul\":197:198   */\n      0x00\n        /* \"#utility.yul\":194:195   */\n      dup1\n        /* \"#utility.yul\":187:199   */\n      revert\n        /* \"#utility.yul\":334:411   */\n    tag_24:\n        /* \"#utility.yul\":371:378   */\n      0x00\n        /* \"#utility.yul\":400:405   */\n      dup2\n        /* \"#utility.yul\":389:405   */\n      swap1\n      pop\n        /* \"#utility.yul\":334:411   */\n      swap2\n      swap1\n      pop\n      jump\t// out\n        /* \"#utility.yul\":417:539   */\n    tag_25:\n        /* \"#utility.yul\":490:514   */\n      tag_38\n        /* \"#utility.yul\":508:513   */\n      dup2\n        /* \"#utility.yul\":490:514   */\n      tag_24\n      jump\t// in\n    tag_38:\n        /* \"#utility.yul\":483:488   */\n      dup2\n        /* \"#utility.yul\":480:515   */\n      eq\n        /* \"#utility.yul\":470:533   */\n      tag_39\n      jumpi\n        /* \"#utility.yul\":529:530   */\n      0x00\n        /* \"#utility.yul\":526:527   */\n      dup1\n        /* \"#utility.yul\":519:531   */\n      revert\n        /* \"#utility.yul\":470:533   */\n    tag_39:\n        /* \"#utility.yul\":417:539   */\n      pop\n      jump\t// out\n        /* \"#utility.yul\":545:684   */\n    tag_26:\n        /* \"#utility.yul\":591:596   */\n      0x00\n        /* \"#utility.yul\":629:635   */\n      dup2\n        /* \"#utility.yul\":616:636   */\n      calldataload\n        /* \"#utility.yul\":607:636   */\n      swap1\n      pop\n        /* \"#utility.yul\":645:678   */\n      tag_41\n        /* \"#utility.yul\":672:677   */\n      dup2\n        /* \"#utility.yul\":645:678   */\n      tag_25\n      jump\t// in\n    tag_41:\n        /* \"#utility.yul\":545:684   */\n      swap3\n      swap2\n      pop\n      pop\n      jump\t// out\n        /* \"#utility.yul\":690:1019   */\n    tag_6:\n        /* \"#utility.yul\":749:755   */\n      0x00\n        /* \"#utility.yul\":798:800   */\n      0x20\n        /* \"#utility.yul\":786:795   */\n      dup3\n        /* \"#utility.yul\":777:784   */\n      dup5\n        /* \"#utility.yul\":773:796   */\n      sub\n        /* \"#utility.yul\":769:801   */\n      slt\n        /* \"#utility.yul\":766:885   */\n      iszero\n      tag_43\n      jumpi\n        /* \"#utility.yul\":804:883   */\n      tag_44\n      tag_22\n      jump\t// in\n    tag_44:\n        /* \"#utility.yul\":766:885   */\n    tag_43:\n        /* \"#utility.yul\":924:925   */\n      0x00\n        /* \"#utility.yul\":949:1002   */\n      tag_45\n        /* \"#utility.yul\":994:1001   */\n      dup5\n        /* \"#utility.yul\":985:991   */\n      dup3\n        /* \"#utility.yul\":974:983   */\n      dup6\n        /* \"#utility.yul\":970:992   */\n      add\n        /* \"#utility.yul\":949:1002   */\n      tag_26\n      jump\t// in\n    tag_45:\n        /* \"#utility.yul\":939:1002   */\n      swap2\n      pop\n        /* \"#utility.yul\":895:1012   */\n      pop\n        /* \"#utility.yul\":690:1019   */\n      swap3\n      swap2\n      pop\n      pop\n      jump\t// out\n        /* \"#utility.yul\":1025:1143   */\n    tag_27:\n        /* \"#utility.yul\":1112:1136   */\n      tag_47\n        /* \"#utility.yul\":1130:1135   */\n      dup2\n        /* \"#utility.yul\":1112:1136   */\n      tag_24\n      jump\t// in\n    tag_47:\n        /* \"#utility.yul\":1107:1110   */\n      dup3\n        /* \"#utility.yul\":1100:1137   */\n      mstore\n        /* \"#utility.yul\":1025:1143   */\n      pop\n      pop\n      jump\t// out\n        /* \"#utility.yul\":1149:1371   */\n    tag_9:\n        /* \"#utility.yul\":1242:1246   */\n      0x00\n        /* \"#utility.yul\":1280:1282   */\n      0x20\n        /* \"#utility.yul\":1269:1278   */\n      dup3\n        /* \"#utility.yul\":1265:1283   */\n      add\n        /* \"#utility.yul\":1257:1283   */\n      swap1\n      pop\n        /* \"#utility.yul\":1293:1364   */\n      tag_49\n        /* \"#utility.yul\":1361:1362   */\n      0x00\n        /* \"#utility.yul\":1350:1359   */\n      dup4\n        /* \"#utility.yul\":1346:1363   */\n      add\n        /* \"#utility.yul\":1337:1343   */\n      dup5\n        /* \"#utility.yul\":1293:1364   */\n      tag_27\n      jump\t// in\n    tag_49:\n        /* \"#utility.yul\":1149:1371   */\n      swap3\n      swap2\n      pop\n      pop\n      jump\t// out\n        /* \"#utility.yul\":1377:1546   */\n    tag_28:\n        /* \"#utility.yul\":1461:1472   */\n      0x00\n        /* \"#utility.yul\":1495:1501   */\n      dup3\n        /* \"#utility.yul\":1490:1493   */\n      dup3\n        /* \"#utility.yul\":1483:1502   */\n      mstore\n        /* \"#utility.yul\":1535:1539   */\n      0x20\n        /* \"#utility.yul\":1530:1533   */\n      dup3\n        /* \"#utility.yul\":1526:1540   */\n      add\n        /* \"#utility.yul\":1511:1540   */\n      swap1\n      pop\n        /* \"#utility.yul\":1377:1546   */\n      swap3\n      swap2\n      pop\n      pop\n      jump\t// out\n        /* \"#utility.yul\":1552:1729   */\n    tag_29:\n        /* \"#utility.yul\":1692:1721   */\n      0x4e756d626572206d757374206265206e6f6e2d6e656761746976650000000000\n        /* \"#utility.yul\":1688:1689   */\n      0x00\n        /* \"#utility.yul\":1680:1686   */\n      dup3\n        /* \"#utility.yul\":1676:1690   */\n      add\n        /* \"#utility.yul\":1669:1722   */\n      mstore\n        /* \"#utility.yul\":1552:1729   */\n      pop\n      jump\t// out\n        /* \"#utility.yul\":1735:2101   */\n    tag_30:\n        /* \"#utility.yul\":1877:1880   */\n      0x00\n        /* \"#utility.yul\":1898:1965   */\n      tag_53\n        /* \"#utility.yul\":1962:1964   */\n      0x1b\n        /* \"#utility.yul\":1957:1960   */\n      dup4\n        /* \"#utility.yul\":1898:1965   */\n      tag_28\n      jump\t// in\n    tag_53:\n        /* \"#utility.yul\":1891:1965   */\n      swap2\n      pop\n        /* \"#utility.yul\":1974:2067   */\n      tag_54\n        /* \"#utility.yul\":2063:2066   */\n      dup3\n        /* \"#utility.yul\":1974:2067   */\n      tag_29\n      jump\t// in\n    tag_54:\n        /* \"#utility.yul\":2092:2094   */\n      0x20\n        /* \"#utility.yul\":2087:2090   */\n      dup3\n        /* \"#utility.yul\":2083:2095   */\n      add\n        /* \"#utility.yul\":2076:2095   */\n      swap1\n      pop\n        /* \"#utility.yul\":1735:2101   */\n      swap2\n      swap1\n      pop\n      jump\t// out\n        /* \"#utility.yul\":2107:2526   */\n    tag_13:\n        /* \"#utility.yul\":2273:2277   */\n      0x00\n        /* \"#utility.yul\":2311:2313   */\n      0x20\n        /* \"#utility.yul\":2300:2309   */\n      dup3\n        /* \"#utility.yul\":2296:2314   */\n      add\n        /* \"#utility.yul\":2288:2314   */\n      swap1\n      pop\n        /* \"#utility.yul\":2360:2369   */\n      dup2\n        /* \"#utility.yul\":2354:2358   */\n      dup2\n        /* \"#utility.yul\":2350:2370   */\n      sub\n        /* \"#utility.yul\":2346:2347   */\n      0x00\n        /* \"#utility.yul\":2335:2344   */\n      dup4\n        /* \"#utility.yul\":2331:2348   */\n      add\n        /* \"#utility.yul\":2324:2371   */\n      mstore\n        /* \"#utility.yul\":2388:2519   */\n      tag_56\n        /* \"#utility.yul\":2514:2518   */\n      dup2\n        /* \"#utility.yul\":2388:2519   */\n      tag_30\n      jump\t// in\n    tag_56:\n        /* \"#utility.yul\":2380:2519   */\n      swap1\n      pop\n        /* \"#utility.yul\":2107:2526   */\n      swap2\n      swap1\n      pop\n      jump\t// out\n        /* \"#utility.yul\":2532:2712   */\n    tag_31:\n        /* \"#utility.yul\":2580:2657   */\n      0x4e487b7100000000000000000000000000000000000000000000000000000000\n        /* \"#utility.yul\":2577:2578   */\n      0x00\n        /* \"#utility.yul\":2570:2658   */\n      mstore\n        /* \"#utility.yul\":2677:2681   */\n      0x11\n        /* \"#utility.yul\":2674:2675   */\n      0x04\n        /* \"#utility.yul\":2667:2682   */\n      mstore\n        /* \"#utility.yul\":2701:2705   */\n      0x24\n        /* \"#utility.yul\":2698:2699   */\n      0x00\n        /* \"#utility.yul\":2691:2706   */\n      revert\n        /* \"#utility.yul\":2718:3128   */\n    tag_18:\n        /* \"#utility.yul\":2758:2765   */\n      0x00\n        /* \"#utility.yul\":2781:2801   */\n      tag_59\n        /* \"#utility.yul\":2799:2800   */\n      dup3\n        /* \"#utility.yul\":2781:2801   */\n      tag_24\n      jump\t// in\n    tag_59:\n        /* \"#utility.yul\":2776:2801   */\n      swap2\n      pop\n        /* \"#utility.yul\":2815:2835   */\n      tag_60\n        /* \"#utility.yul\":2833:2834   */\n      dup4\n        /* \"#utility.yul\":2815:2835   */\n      tag_24\n      jump\t// in\n    tag_60:\n        /* \"#utility.yul\":2810:2835   */\n      swap3\n      pop\n        /* \"#utility.yul\":2870:2871   */\n      dup3\n        /* \"#utility.yul\":2867:2868   */\n      dup3\n        /* \"#utility.yul\":2863:2872   */\n      mul\n        /* \"#utility.yul\":2892:2922   */\n      tag_61\n        /* \"#utility.yul\":2910:2921   */\n      dup2\n        /* \"#utility.yul\":2892:2922   */\n      tag_24\n      jump\t// in\n    tag_61:\n        /* \"#utility.yul\":2881:2922   */\n      swap2\n      pop\n        /* \"#utility.yul\":3071:3072   */\n      dup3\n        /* \"#utility.yul\":3062:3069   */\n      dup3\n        /* \"#utility.yul\":3058:3073   */\n      div\n        /* \"#utility.yul\":3055:3056   */\n      dup5\n        /* \"#utility.yul\":3052:3074   */\n      eq\n        /* \"#utility.yul\":3032:3033   */\n      dup4\n        /* \"#utility.yul\":3025:3034   */\n      iszero\n        /* \"#utility.yul\":3005:3088   */\n      or\n        /* \"#utility.yul\":2982:3121   */\n      tag_62\n      jumpi\n        /* \"#utility.yul\":3101:3119   */\n      tag_63\n      tag_31\n      jump\t// in\n    tag_63:\n        /* \"#utility.yul\":2982:3121   */\n    tag_62:\n        /* \"#utility.yul\":2766:3128   */\n      pop\n        /* \"#utility.yul\":2718:3128   */\n      swap3\n      swap2\n      pop\n      pop\n      jump\t// out\n        /* \"#utility.yul\":3134:3367   */\n    tag_20:\n        /* \"#utility.yul\":3173:3176   */\n      0x00\n        /* \"#utility.yul\":3196:3220   */\n      tag_65\n        /* \"#utility.yul\":3214:3219   */\n      dup3\n        /* \"#utility.yul\":3196:3220   */\n      tag_24\n      jump\t// in\n    tag_65:\n        /* \"#utility.yul\":3187:3220   */\n      swap2\n      pop\n        /* \"#utility.yul\":3242:3308   */\n      0xffffffffffffffffffffffffffffffffffffffffffffffffffffffffffffffff\n        /* \"#utility.yul\":3235:3240   */\n      dup3\n        /* \"#utility.yul\":3232:3309   */\n      sub\n        /* \"#utility.yul\":3229:3332   */\n      tag_66\n      jumpi\n        /* \"#utility.yul\":3312:3330   */\n      tag_67\n      tag_31\n      jump\t// in\n    tag_67:\n        /* \"#utility.yul\":3229:3332   */\n    tag_66:\n        /* \"#utility.yul\":3359:3360   */\n      0x01\n        /* \"#utility.yul\":3352:3357   */\n      dup3\n        /* \"#utility.yul\":3348:3361   */\n      add\n        /* \"#utility.yul\":3341:3361   */\n      swap1\n      pop\n        /* \"#utility.yul\":3134:3367   */\n      swap2\n      swap1\n      pop\n      jump\t// out\n\n    auxdata: 0xa26469706673582212206dc1d1440c64376e7cbb0f7423ad2e54ecbcafead8b8ba2f0b2fa1d7f762bb2d64736f6c634300081a0033\n}\n",
				"bytecode": {
					"linkReferences": {},
					"object": "6080604052348015600e575f80fd5b506102cb8061001c5f395ff3fe608060405234801561000f575f80fd5b5060043610610029575f3560e01c80633d41c2221461002d575b5f80fd5b61004760048036038101906100429190610115565b61005d565b604051610054919061014f565b60405180910390f35b5f808210156100a1576040517f08c379a0000000000000000000000000000000000000000000000000000000008152600401610098906101c2565b60405180910390fd5b5f600190505f600190505b8381116100d45780826100bf919061020d565b915080806100cc9061024e565b9150506100ac565b5080915050919050565b5f80fd5b5f819050919050565b6100f4816100e2565b81146100fe575f80fd5b50565b5f8135905061010f816100eb565b92915050565b5f6020828403121561012a576101296100de565b5b5f61013784828501610101565b91505092915050565b610149816100e2565b82525050565b5f6020820190506101625f830184610140565b92915050565b5f82825260208201905092915050565b7f4e756d626572206d757374206265206e6f6e2d6e6567617469766500000000005f82015250565b5f6101ac601b83610168565b91506101b782610178565b602082019050919050565b5f6020820190508181035f8301526101d9816101a0565b9050919050565b7f4e487b71000000000000000000000000000000000000000000000000000000005f52601160045260245ffd5b5f610217826100e2565b9150610222836100e2565b9250828202610230816100e2565b91508282048414831517610247576102466101e0565b5b5092915050565b5f610258826100e2565b91507fffffffffffffffffffffffffffffffffffffffffffffffffffffffffffffffff820361028a576102896101e0565b5b60018201905091905056fea26469706673582212206dc1d1440c64376e7cbb0f7423ad2e54ecbcafead8b8ba2f0b2fa1d7f762bb2d64736f6c634300081a0033",
					"opcodes": "PUSH1 0x80 PUSH1 0x40 MSTORE CALLVALUE DUP1 ISZERO PUSH1 0xE JUMPI PUSH0 DUP1 REVERT JUMPDEST POP PUSH2 0x2CB DUP1 PUSH2 0x1C PUSH0 CODECOPY PUSH0 RETURN INVALID PUSH1 0x80 PUSH1 0x40 MSTORE CALLVALUE DUP1 ISZERO PUSH2 0xF JUMPI PUSH0 DUP1 REVERT JUMPDEST POP PUSH1 0x4 CALLDATASIZE LT PUSH2 0x29 JUMPI PUSH0 CALLDATALOAD PUSH1 0xE0 SHR DUP1 PUSH4 0x3D41C222 EQ PUSH2 0x2D JUMPI JUMPDEST PUSH0 DUP1 REVERT JUMPDEST PUSH2 0x47 PUSH1 0x4 DUP1 CALLDATASIZE SUB DUP2 ADD SWAP1 PUSH2 0x42 SWAP2 SWAP1 PUSH2 0x115 JUMP JUMPDEST PUSH2 0x5D JUMP JUMPDEST PUSH1 0x40 MLOAD PUSH2 0x54 SWAP2 SWAP1 PUSH2 0x14F JUMP JUMPDEST PUSH1 0x40 MLOAD DUP1 SWAP2 SUB SWAP1 RETURN JUMPDEST PUSH0 DUP1 DUP3 LT ISZERO PUSH2 0xA1 JUMPI PUSH1 0x40 MLOAD PUSH32 0x8C379A000000000000000000000000000000000000000000000000000000000 DUP2 MSTORE PUSH1 0x4 ADD PUSH2 0x98 SWAP1 PUSH2 0x1C2 JUMP JUMPDEST PUSH1 0x40 MLOAD DUP1 SWAP2 SUB SWAP1 REVERT JUMPDEST PUSH0 PUSH1 0x1 SWAP1 POP PUSH0 PUSH1 0x1 SWAP1 POP JUMPDEST DUP4 DUP2 GT PUSH2 0xD4 JUMPI DUP1 DUP3 PUSH2 0xBF SWAP2 SWAP1 PUSH2 0x20D JUMP JUMPDEST SWAP2 POP DUP1 DUP1 PUSH2 0xCC SWAP1 PUSH2 0x24E JUMP JUMPDEST SWAP2 POP POP PUSH2 0xAC JUMP JUMPDEST POP DUP1 SWAP2 POP POP SWAP2 SWAP1 POP JUMP JUMPDEST PUSH0 DUP1 REVERT JUMPDEST PUSH0 DUP2 SWAP1 POP SWAP2 SWAP1 POP JUMP JUMPDEST PUSH2 0xF4 DUP2 PUSH2 0xE2 JUMP JUMPDEST DUP2 EQ PUSH2 0xFE JUMPI PUSH0 DUP1 REVERT JUMPDEST POP JUMP JUMPDEST PUSH0 DUP2 CALLDATALOAD SWAP1 POP PUSH2 0x10F DUP2 PUSH2 0xEB JUMP JUMPDEST SWAP3 SWAP2 POP POP JUMP JUMPDEST PUSH0 PUSH1 0x20 DUP3 DUP5 SUB SLT ISZERO PUSH2 0x12A JUMPI PUSH2 0x129 PUSH2 0xDE JUMP JUMPDEST JUMPDEST PUSH0 PUSH2 0x137 DUP5 DUP3 DUP6 ADD PUSH2 0x101 JUMP JUMPDEST SWAP2 POP POP SWAP3 SWAP2 POP POP JUMP JUMPDEST PUSH2 0x149 DUP2 PUSH2 0xE2 JUMP JUMPDEST DUP3 MSTORE POP POP JUMP JUMPDEST PUSH0 PUSH1 0x20 DUP3 ADD SWAP1 POP PUSH2 0x162 PUSH0 DUP4 ADD DUP5 PUSH2 0x140 JUMP JUMPDEST SWAP3 SWAP2 POP POP JUMP JUMPDEST PUSH0 DUP3 DUP3 MSTORE PUSH1 0x20 DUP3 ADD SWAP1 POP SWAP3 SWAP2 POP POP JUMP JUMPDEST PUSH32 0x4E756D626572206D757374206265206E6F6E2D6E656761746976650000000000 PUSH0 DUP3 ADD MSTORE POP JUMP JUMPDEST PUSH0 PUSH2 0x1AC PUSH1 0x1B DUP4 PUSH2 0x168 JUMP JUMPDEST SWAP2 POP PUSH2 0x1B7 DUP3 PUSH2 0x178 JUMP JUMPDEST PUSH1 0x20 DUP3 ADD SWAP1 POP SWAP2 SWAP1 POP JUMP JUMPDEST PUSH0 PUSH1 0x20 DUP3 ADD SWAP1 POP DUP2 DUP2 SUB PUSH0 DUP4 ADD MSTORE PUSH2 0x1D9 DUP2 PUSH2 0x1A0 JUMP JUMPDEST SWAP1 POP SWAP2 SWAP1 POP JUMP JUMPDEST PUSH32 0x4E487B7100000000000000000000000000000000000000000000000000000000 PUSH0 MSTORE PUSH1 0x11 PUSH1 0x4 MSTORE PUSH1 0x24 PUSH0 REVERT JUMPDEST PUSH0 PUSH2 0x217 DUP3 PUSH2 0xE2 JUMP JUMPDEST SWAP2 POP PUSH2 0x222 DUP4 PUSH2 0xE2 JUMP JUMPDEST SWAP3 POP DUP3 DUP3 MUL PUSH2 0x230 DUP2 PUSH2 0xE2 JUMP JUMPDEST SWAP2 POP DUP3 DUP3 DIV DUP5 EQ DUP4 ISZERO OR PUSH2 0x247 JUMPI PUSH2 0x246 PUSH2 0x1E0 JUMP JUMPDEST JUMPDEST POP SWAP3 SWAP2 POP POP JUMP JUMPDEST PUSH0 PUSH2 0x258 DUP3 PUSH2 0xE2 JUMP JUMPDEST SWAP2 POP PUSH32 0xFFFFFFFFFFFFFFFFFFFFFFFFFFFFFFFFFFFFFFFFFFFFFFFFFFFFFFFFFFFFFFFF DUP3 SUB PUSH2 0x28A JUMPI PUSH2 0x289 PUSH2 0x1E0 JUMP JUMPDEST JUMPDEST PUSH1 0x1 DUP3 ADD SWAP1 POP SWAP2 SWAP1 POP JUMP INVALID LOG2 PUSH5 0x6970667358 0x22 SLT KECCAK256 PUSH14 0xC1D1440C64376E7CBB0F7423AD2E SLOAD 0xEC 0xBC 0xAF 0xEA 0xD8 0xB8 0xBA 0x2F SIGNEXTEND 0x2F LOG1 0xD7 0xF7 PUSH3 0xBB2D64 PUSH20 0x6F6C634300081A00330000000000000000000000 "
				},
				"gasEstimates": {
					"creation": {
						"codeDepositCost": "143000",
						"executionCost": "188",
						"totalCost": "143188"
					},
					"external": {
						"calculateFactorial(uint256)": "infinite"
					}
				},
				"methodIdentifiers": {
					"calculateFactorial(uint256)": "3d41c222"
				}
			},
			"storageLayout": {
				"storage": [],
				"types": null
			},
			"userdoc": {
				"kind": "user",
				"methods": {},
				"version": 1
			}
		}
	}
}