{
	"contracts/Blockchain_Assignment_5/Task_Codes/as5_task4.sol": {
		"TimeLockedWallet": {
			"abi": [
				{
					"inputs": [
						{
							"internalType": "uint256",
							"name": "_releaseTime",
							"type": "uint256"
						}
					],
					"stateMutability": "nonpayable",
					"type": "constructor"
				},
				{
					"inputs": [],
					"name": "deposit",
					"outputs": [],
					"stateMutability": "payable",
					"type": "function"
				},
				{
					"inputs": [],
					"name": "getContractBalance",
					"outputs": [
						{
							"internalType": "uint256",
							"name": "",
							"type": "uint256"
						}
					],
					"stateMutability": "view",
					"type": "function"
				},
				{
					"inputs": [],
					"name": "owner",
					"outputs": [
						{
							"internalType": "address",
							"name": "",
							"type": "address"
						}
					],
					"stateMutability": "view",
					"type": "function"
				},
				{
					"inputs": [],
					"name": "releaseTime",
					"outputs": [
						{
							"internalType": "uint256",
							"name": "",
							"type": "uint256"
						}
					],
					"stateMutability": "view",
					"type": "function"
				},
				{
					"inputs": [],
					"name": "withdraw",
					"outputs": [],
					"stateMutability": "nonpayable",
					"type": "function"
				}
			],
			"devdoc": {
				"kind": "dev",
				"methods": {},
				"version": 1
			},
			"evm": {
				"assembly": "    /* \"contracts/Blockchain_Assignment_5/Task_Codes/as5_task4.sol\":28:784  contract TimeLockedWallet {... */\n  mstore(0x40, 0x80)\n    /* \"contracts/Blockchain_Assignment_5/Task_Codes/as5_task4.sol\":186:382  constructor(uint256 _releaseTime) {... */\n  callvalue\n  dup1\n  iszero\n  tag_1\n  jumpi\n  0x00\n  dup1\n  revert\ntag_1:\n  pop\n  mload(0x40)\n  sub(codesize, bytecodeSize)\n  dup1\n  bytecodeSize\n  dup4\n  codecopy\n  dup2\n  dup2\n  add\n  0x40\n  mstore\n  dup2\n  add\n  swap1\n  tag_2\n  swap2\n  swap1\n  tag_3\n  jump\t// in\ntag_2:\n    /* \"contracts/Blockchain_Assignment_5/Task_Codes/as5_task4.sol\":254:269  block.timestamp */\n  timestamp\n    /* \"contracts/Blockchain_Assignment_5/Task_Codes/as5_task4.sol\":239:251  _releaseTime */\n  dup2\n    /* \"contracts/Blockchain_Assignment_5/Task_Codes/as5_task4.sol\":239:269  _releaseTime > block.timestamp */\n  gt\n    /* \"contracts/Blockchain_Assignment_5/Task_Codes/as5_task4.sol\":231:308  require(_releaseTime > block.timestamp, \"Release time must be in the future\") */\n  tag_6\n  jumpi\n  mload(0x40)\n  0x08c379a000000000000000000000000000000000000000000000000000000000\n  dup2\n  mstore\n  0x04\n  add\n  tag_7\n  swap1\n  tag_8\n  jump\t// in\ntag_7:\n  mload(0x40)\n  dup1\n  swap2\n  sub\n  swap1\n  revert\ntag_6:\n    /* \"contracts/Blockchain_Assignment_5/Task_Codes/as5_task4.sol\":327:337  msg.sender */\n  caller\n    /* \"contracts/Blockchain_Assignment_5/Task_Codes/as5_task4.sol\":319:324  owner */\n  0x01\n  0x00\n    /* \"contracts/Blockchain_Assignment_5/Task_Codes/as5_task4.sol\":319:337  owner = msg.sender */\n  0x0100\n  exp\n  dup2\n  sload\n  dup2\n  0xffffffffffffffffffffffffffffffffffffffff\n  mul\n  not\n  and\n  swap1\n  dup4\n  0xffffffffffffffffffffffffffffffffffffffff\n  and\n  mul\n  or\n  swap1\n  sstore\n  pop\n    /* \"contracts/Blockchain_Assignment_5/Task_Codes/as5_task4.sol\":362:374  _releaseTime */\n  dup1\n    /* \"contracts/Blockchain_Assignment_5/Task_Codes/as5_task4.sol\":348:359  releaseTime */\n  0x00\n    /* \"contracts/Blockchain_Assignment_5/Task_Codes/as5_task4.sol\":348:374  releaseTime = _releaseTime */\n  dup2\n  swap1\n  sstore\n  pop\n    /* \"contracts/Blockchain_Assignment_5/Task_Codes/as5_task4.sol\":186:382  constructor(uint256 _releaseTime) {... */\n  pop\n    /* \"contracts/Blockchain_Assignment_5/Task_Codes/as5_task4.sol\":28:784  contract TimeLockedWallet {... */\n  jump(tag_9)\n    /* \"#utility.yul\":88:205   */\ntag_11:\n    /* \"#utility.yul\":197:198   */\n  0x00\n    /* \"#utility.yul\":194:195   */\n  dup1\n    /* \"#utility.yul\":187:199   */\n  revert\n    /* \"#utility.yul\":334:411   */\ntag_13:\n    /* \"#utility.yul\":371:378   */\n  0x00\n    /* \"#utility.yul\":400:405   */\n  dup2\n    /* \"#utility.yul\":389:405   */\n  swap1\n  pop\n    /* \"#utility.yul\":334:411   */\n  swap2\n  swap1\n  pop\n  jump\t// out\n    /* \"#utility.yul\":417:539   */\ntag_14:\n    /* \"#utility.yul\":490:514   */\n  tag_25\n    /* \"#utility.yul\":508:513   */\n  dup2\n    /* \"#utility.yul\":490:514   */\n  tag_13\n  jump\t// in\ntag_25:\n    /* \"#utility.yul\":483:488   */\n  dup2\n    /* \"#utility.yul\":480:515   */\n  eq\n    /* \"#utility.yul\":470:533   */\n  tag_26\n  jumpi\n    /* \"#utility.yul\":529:530   */\n  0x00\n    /* \"#utility.yul\":526:527   */\n  dup1\n    /* \"#utility.yul\":519:531   */\n  revert\n    /* \"#utility.yul\":470:533   */\ntag_26:\n    /* \"#utility.yul\":417:539   */\n  pop\n  jump\t// out\n    /* \"#utility.yul\":545:688   */\ntag_15:\n    /* \"#utility.yul\":602:607   */\n  0x00\n    /* \"#utility.yul\":633:639   */\n  dup2\n    /* \"#utility.yul\":627:640   */\n  mload\n    /* \"#utility.yul\":618:640   */\n  swap1\n  pop\n    /* \"#utility.yul\":649:682   */\n  tag_28\n    /* \"#utility.yul\":676:681   */\n  dup2\n    /* \"#utility.yul\":649:682   */\n  tag_14\n  jump\t// in\ntag_28:\n    /* \"#utility.yul\":545:688   */\n  swap3\n  swap2\n  pop\n  pop\n  jump\t// out\n    /* \"#utility.yul\":694:1045   */\ntag_3:\n    /* \"#utility.yul\":764:770   */\n  0x00\n    /* \"#utility.yul\":813:815   */\n  0x20\n    /* \"#utility.yul\":801:810   */\n  dup3\n    /* \"#utility.yul\":792:799   */\n  dup5\n    /* \"#utility.yul\":788:811   */\n  sub\n    /* \"#utility.yul\":784:816   */\n  slt\n    /* \"#utility.yul\":781:900   */\n  iszero\n  tag_30\n  jumpi\n    /* \"#utility.yul\":819:898   */\n  tag_31\n  tag_11\n  jump\t// in\ntag_31:\n    /* \"#utility.yul\":781:900   */\ntag_30:\n    /* \"#utility.yul\":939:940   */\n  0x00\n    /* \"#utility.yul\":964:1028   */\n  tag_32\n    /* \"#utility.yul\":1020:1027   */\n  dup5\n    /* \"#utility.yul\":1011:1017   */\n  dup3\n    /* \"#utility.yul\":1000:1009   */\n  dup6\n    /* \"#utility.yul\":996:1018   */\n  add\n    /* \"#utility.yul\":964:1028   */\n  tag_15\n  jump\t// in\ntag_32:\n    /* \"#utility.yul\":954:1028   */\n  swap2\n  pop\n    /* \"#utility.yul\":910:1038   */\n  pop\n    /* \"#utility.yul\":694:1045   */\n  swap3\n  swap2\n  pop\n  pop\n  jump\t// out\n    /* \"#utility.yul\":1051:1220   */\ntag_16:\n    /* \"#utility.yul\":1135:1146   */\n  0x00\n    /* \"#utility.yul\":1169:1175   */\n  dup3\n    /* \"#utility.yul\":1164:1167   */\n  dup3\n    /* \"#utility.yul\":1157:1176   */\n  mstore\n    /* \"#utility.yul\":1209:1213   */\n  0x20\n    /* \"#utility.yul\":1204:1207   */\n  dup3\n    /* \"#utility.yul\":1200:1214   */\n  add\n    /* \"#utility.yul\":1185:1214   */\n  swap1\n  pop\n    /* \"#utility.yul\":1051:1220   */\n  swap3\n  swap2\n  pop\n  pop\n  jump\t// out\n    /* \"#utility.yul\":1226:1447   */\ntag_17:\n    /* \"#utility.yul\":1366:1400   */\n  0x52656c656173652074696d65206d75737420626520696e207468652066757475\n    /* \"#utility.yul\":1362:1363   */\n  0x00\n    /* \"#utility.yul\":1354:1360   */\n  dup3\n    /* \"#utility.yul\":1350:1364   */\n  add\n    /* \"#utility.yul\":1343:1401   */\n  mstore\n    /* \"#utility.yul\":1435:1439   */\n  0x7265000000000000000000000000000000000000000000000000000000000000\n    /* \"#utility.yul\":1430:1432   */\n  0x20\n    /* \"#utility.yul\":1422:1428   */\n  dup3\n    /* \"#utility.yul\":1418:1433   */\n  add\n    /* \"#utility.yul\":1411:1440   */\n  mstore\n    /* \"#utility.yul\":1226:1447   */\n  pop\n  jump\t// out\n    /* \"#utility.yul\":1453:1819   */\ntag_18:\n    /* \"#utility.yul\":1595:1598   */\n  0x00\n    /* \"#utility.yul\":1616:1683   */\n  tag_36\n    /* \"#utility.yul\":1680:1682   */\n  0x22\n    /* \"#utility.yul\":1675:1678   */\n  dup4\n    /* \"#utility.yul\":1616:1683   */\n  tag_16\n  jump\t// in\ntag_36:\n    /* \"#utility.yul\":1609:1683   */\n  swap2\n  pop\n    /* \"#utility.yul\":1692:1785   */\n  tag_37\n    /* \"#utility.yul\":1781:1784   */\n  dup3\n    /* \"#utility.yul\":1692:1785   */\n  tag_17\n  jump\t// in\ntag_37:\n    /* \"#utility.yul\":1810:1812   */\n  0x40\n    /* \"#utility.yul\":1805:1808   */\n  dup3\n    /* \"#utility.yul\":1801:1813   */\n  add\n    /* \"#utility.yul\":1794:1813   */\n  swap1\n  pop\n    /* \"#utility.yul\":1453:1819   */\n  swap2\n  swap1\n  pop\n  jump\t// out\n    /* \"#utility.yul\":1825:2244   */\ntag_8:\n    /* \"#utility.yul\":1991:1995   */\n  0x00\n    /* \"#utility.yul\":2029:2031   */\n  0x20\n    /* \"#utility.yul\":2018:2027   */\n  dup3\n    /* \"#utility.yul\":2014:2032   */\n  add\n    /* \"#utility.yul\":2006:2032   */\n  swap1\n  pop\n    /* \"#utility.yul\":2078:2087   */\n  dup2\n    /* \"#utility.yul\":2072:2076   */\n  dup2\n    /* \"#utility.yul\":2068:2088   */\n  sub\n    /* \"#utility.yul\":2064:2065   */\n  0x00\n    /* \"#utility.yul\":2053:2062   */\n  dup4\n    /* \"#utility.yul\":2049:2066   */\n  add\n    /* \"#utility.yul\":2042:2089   */\n  mstore\n    /* \"#utility.yul\":2106:2237   */\n  tag_39\n    /* \"#utility.yul\":2232:2236   */\n  dup2\n    /* \"#utility.yul\":2106:2237   */\n  tag_18\n  jump\t// in\ntag_39:\n    /* \"#utility.yul\":2098:2237   */\n  swap1\n  pop\n    /* \"#utility.yul\":1825:2244   */\n  swap2\n  swap1\n  pop\n  jump\t// out\n    /* \"contracts/Blockchain_Assignment_5/Task_Codes/as5_task4.sol\":28:784  contract TimeLockedWallet {... */\ntag_9:\n  dataSize(sub_0)\n  dup1\n  dataOffset(sub_0)\n  0x00\n  codecopy\n  0x00\n  return\nstop\n\nsub_0: assembly {\n        /* \"contracts/Blockchain_Assignment_5/Task_Codes/as5_task4.sol\":28:784  contract TimeLockedWallet {... */\n      mstore(0x40, 0x80)\n      jumpi(tag_1, lt(calldatasize, 0x04))\n      shr(0xe0, calldataload(0x00))\n      dup1\n      0x3ccfd60b\n      eq\n      tag_2\n      jumpi\n      dup1\n      0x6f9fb98a\n      eq\n      tag_3\n      jumpi\n      dup1\n      0x8da5cb5b\n      eq\n      tag_4\n      jumpi\n      dup1\n      0xb91d4001\n      eq\n      tag_5\n      jumpi\n      dup1\n      0xd0e30db0\n      eq\n      tag_6\n      jumpi\n    tag_1:\n      0x00\n      dup1\n      revert\n        /* \"contracts/Blockchain_Assignment_5/Task_Codes/as5_task4.sol\":434:666  function withdraw() public {... */\n    tag_2:\n      callvalue\n      dup1\n      iszero\n      tag_7\n      jumpi\n      0x00\n      dup1\n      revert\n    tag_7:\n      pop\n      tag_8\n      tag_9\n      jump\t// in\n    tag_8:\n      stop\n        /* \"contracts/Blockchain_Assignment_5/Task_Codes/as5_task4.sol\":674:781  function getContractBalance() public view returns (uint256) {... */\n    tag_3:\n      callvalue\n      dup1\n      iszero\n      tag_10\n      jumpi\n      0x00\n      dup1\n      revert\n    tag_10:\n      pop\n      tag_11\n      tag_12\n      jump\t// in\n    tag_11:\n      mload(0x40)\n      tag_13\n      swap2\n      swap1\n      tag_14\n      jump\t// in\n    tag_13:\n      mload(0x40)\n      dup1\n      swap2\n      sub\n      swap1\n      return\n        /* \"contracts/Blockchain_Assignment_5/Task_Codes/as5_task4.sol\":96:116  address public owner */\n    tag_4:\n      callvalue\n      dup1\n      iszero\n      tag_15\n      jumpi\n      0x00\n      dup1\n      revert\n    tag_15:\n      pop\n      tag_16\n      tag_17\n      jump\t// in\n    tag_16:\n      mload(0x40)\n      tag_18\n      swap2\n      swap1\n      tag_19\n      jump\t// in\n    tag_18:\n      mload(0x40)\n      dup1\n      swap2\n      sub\n      swap1\n      return\n        /* \"contracts/Blockchain_Assignment_5/Task_Codes/as5_task4.sol\":61:87  uint256 public releaseTime */\n    tag_5:\n      callvalue\n      dup1\n      iszero\n      tag_20\n      jumpi\n      0x00\n      dup1\n      revert\n    tag_20:\n      pop\n      tag_21\n      tag_22\n      jump\t// in\n    tag_21:\n      mload(0x40)\n      tag_23\n      swap2\n      swap1\n      tag_14\n      jump\t// in\n    tag_23:\n      mload(0x40)\n      dup1\n      swap2\n      sub\n      swap1\n      return\n        /* \"contracts/Blockchain_Assignment_5/Task_Codes/as5_task4.sol\":390:426  function deposit() public payable {} */\n    tag_6:\n      tag_24\n      tag_25\n      jump\t// in\n    tag_24:\n      stop\n        /* \"contracts/Blockchain_Assignment_5/Task_Codes/as5_task4.sol\":434:666  function withdraw() public {... */\n    tag_9:\n        /* \"contracts/Blockchain_Assignment_5/Task_Codes/as5_task4.sol\":494:499  owner */\n      0x01\n      0x00\n      swap1\n      sload\n      swap1\n      0x0100\n      exp\n      swap1\n      div\n      0xffffffffffffffffffffffffffffffffffffffff\n      and\n        /* \"contracts/Blockchain_Assignment_5/Task_Codes/as5_task4.sol\":480:499  msg.sender == owner */\n      0xffffffffffffffffffffffffffffffffffffffff\n      and\n        /* \"contracts/Blockchain_Assignment_5/Task_Codes/as5_task4.sol\":480:490  msg.sender */\n      caller\n        /* \"contracts/Blockchain_Assignment_5/Task_Codes/as5_task4.sol\":480:499  msg.sender == owner */\n      0xffffffffffffffffffffffffffffffffffffffff\n      and\n      eq\n        /* \"contracts/Blockchain_Assignment_5/Task_Codes/as5_task4.sol\":472:531  require(msg.sender == owner, \"Only the owner can withdraw\") */\n      tag_27\n      jumpi\n      mload(0x40)\n      0x08c379a000000000000000000000000000000000000000000000000000000000\n      dup2\n      mstore\n      0x04\n      add\n      tag_28\n      swap1\n      tag_29\n      jump\t// in\n    tag_28:\n      mload(0x40)\n      dup1\n      swap2\n      sub\n      swap1\n      revert\n    tag_27:\n        /* \"contracts/Blockchain_Assignment_5/Task_Codes/as5_task4.sol\":569:580  releaseTime */\n      sload(0x00)\n        /* \"contracts/Blockchain_Assignment_5/Task_Codes/as5_task4.sol\":550:565  block.timestamp */\n      timestamp\n        /* \"contracts/Blockchain_Assignment_5/Task_Codes/as5_task4.sol\":550:580  block.timestamp >= releaseTime */\n      lt\n      iszero\n        /* \"contracts/Blockchain_Assignment_5/Task_Codes/as5_task4.sol\":542:601  require(block.timestamp >= releaseTime, \"Funds are locked\") */\n      tag_30\n      jumpi\n      mload(0x40)\n      0x08c379a000000000000000000000000000000000000000000000000000000000\n      dup2\n      mstore\n      0x04\n      add\n      tag_31\n      swap1\n      tag_32\n      jump\t// in\n    tag_31:\n      mload(0x40)\n      dup1\n      swap2\n      sub\n      swap1\n      revert\n    tag_30:\n        /* \"contracts/Blockchain_Assignment_5/Task_Codes/as5_task4.sol\":620:625  owner */\n      0x01\n      0x00\n      swap1\n      sload\n      swap1\n      0x0100\n      exp\n      swap1\n      div\n      0xffffffffffffffffffffffffffffffffffffffff\n      and\n        /* \"contracts/Blockchain_Assignment_5/Task_Codes/as5_task4.sol\":612:635  payable(owner).transfer */\n      0xffffffffffffffffffffffffffffffffffffffff\n      and\n        /* \"contracts/Blockchain_Assignment_5/Task_Codes/as5_task4.sol\":612:658  payable(owner).transfer(address(this).balance) */\n      0x08fc\n        /* \"contracts/Blockchain_Assignment_5/Task_Codes/as5_task4.sol\":636:657  address(this).balance */\n      selfbalance\n        /* \"contracts/Blockchain_Assignment_5/Task_Codes/as5_task4.sol\":612:658  payable(owner).transfer(address(this).balance) */\n      swap1\n      dup2\n      iszero\n      mul\n      swap1\n      mload(0x40)\n      0x00\n      mload(0x40)\n      dup1\n      dup4\n      sub\n      dup2\n      dup6\n      dup9\n      dup9\n      call\n      swap4\n      pop\n      pop\n      pop\n      pop\n      iszero\n      dup1\n      iszero\n      tag_34\n      jumpi\n      returndatasize\n      0x00\n      dup1\n      returndatacopy\n      revert(0x00, returndatasize)\n    tag_34:\n      pop\n        /* \"contracts/Blockchain_Assignment_5/Task_Codes/as5_task4.sol\":434:666  function withdraw() public {... */\n      jump\t// out\n        /* \"contracts/Blockchain_Assignment_5/Task_Codes/as5_task4.sol\":674:781  function getContractBalance() public view returns (uint256) {... */\n    tag_12:\n        /* \"contracts/Blockchain_Assignment_5/Task_Codes/as5_task4.sol\":725:732  uint256 */\n      0x00\n        /* \"contracts/Blockchain_Assignment_5/Task_Codes/as5_task4.sol\":752:773  address(this).balance */\n      selfbalance\n        /* \"contracts/Blockchain_Assignment_5/Task_Codes/as5_task4.sol\":745:773  return address(this).balance */\n      swap1\n      pop\n        /* \"contracts/Blockchain_Assignment_5/Task_Codes/as5_task4.sol\":674:781  function getContractBalance() public view returns (uint256) {... */\n      swap1\n      jump\t// out\n        /* \"contracts/Blockchain_Assignment_5/Task_Codes/as5_task4.sol\":96:116  address public owner */\n    tag_17:\n      0x01\n      0x00\n      swap1\n      sload\n      swap1\n      0x0100\n      exp\n      swap1\n      div\n      0xffffffffffffffffffffffffffffffffffffffff\n      and\n      dup2\n      jump\t// out\n        /* \"contracts/Blockchain_Assignment_5/Task_Codes/as5_task4.sol\":61:87  uint256 public releaseTime */\n    tag_22:\n      sload(0x00)\n      dup2\n      jump\t// out\n        /* \"contracts/Blockchain_Assignment_5/Task_Codes/as5_task4.sol\":390:426  function deposit() public payable {} */\n    tag_25:\n      jump\t// out\n        /* \"#utility.yul\":7:84   */\n    tag_37:\n        /* \"#utility.yul\":44:51   */\n      0x00\n        /* \"#utility.yul\":73:78   */\n      dup2\n        /* \"#utility.yul\":62:78   */\n      swap1\n      pop\n        /* \"#utility.yul\":7:84   */\n      swap2\n      swap1\n      pop\n      jump\t// out\n        /* \"#utility.yul\":90:208   */\n    tag_38:\n        /* \"#utility.yul\":177:201   */\n      tag_50\n        /* \"#utility.yul\":195:200   */\n      dup2\n        /* \"#utility.yul\":177:201   */\n      tag_37\n      jump\t// in\n    tag_50:\n        /* \"#utility.yul\":172:175   */\n      dup3\n        /* \"#utility.yul\":165:202   */\n      mstore\n        /* \"#utility.yul\":90:208   */\n      pop\n      pop\n      jump\t// out\n        /* \"#utility.yul\":214:436   */\n    tag_14:\n        /* \"#utility.yul\":307:311   */\n      0x00\n        /* \"#utility.yul\":345:347   */\n      0x20\n        /* \"#utility.yul\":334:343   */\n      dup3\n        /* \"#utility.yul\":330:348   */\n      add\n        /* \"#utility.yul\":322:348   */\n      swap1\n      pop\n        /* \"#utility.yul\":358:429   */\n      tag_52\n        /* \"#utility.yul\":426:427   */\n      0x00\n        /* \"#utility.yul\":415:424   */\n      dup4\n        /* \"#utility.yul\":411:428   */\n      add\n        /* \"#utility.yul\":402:408   */\n      dup5\n        /* \"#utility.yul\":358:429   */\n      tag_38\n      jump\t// in\n    tag_52:\n        /* \"#utility.yul\":214:436   */\n      swap3\n      swap2\n      pop\n      pop\n      jump\t// out\n        /* \"#utility.yul\":442:568   */\n    tag_39:\n        /* \"#utility.yul\":479:486   */\n      0x00\n        /* \"#utility.yul\":519:561   */\n      0xffffffffffffffffffffffffffffffffffffffff\n        /* \"#utility.yul\":512:517   */\n      dup3\n        /* \"#utility.yul\":508:562   */\n      and\n        /* \"#utility.yul\":497:562   */\n      swap1\n      pop\n        /* \"#utility.yul\":442:568   */\n      swap2\n      swap1\n      pop\n      jump\t// out\n        /* \"#utility.yul\":574:670   */\n    tag_40:\n        /* \"#utility.yul\":611:618   */\n      0x00\n        /* \"#utility.yul\":640:664   */\n      tag_55\n        /* \"#utility.yul\":658:663   */\n      dup3\n        /* \"#utility.yul\":640:664   */\n      tag_39\n      jump\t// in\n    tag_55:\n        /* \"#utility.yul\":629:664   */\n      swap1\n      pop\n        /* \"#utility.yul\":574:670   */\n      swap2\n      swap1\n      pop\n      jump\t// out\n        /* \"#utility.yul\":676:794   */\n    tag_41:\n        /* \"#utility.yul\":763:787   */\n      tag_57\n        /* \"#utility.yul\":781:786   */\n      dup2\n        /* \"#utility.yul\":763:787   */\n      tag_40\n      jump\t// in\n    tag_57:\n        /* \"#utility.yul\":758:761   */\n      dup3\n        /* \"#utility.yul\":751:788   */\n      mstore\n        /* \"#utility.yul\":676:794   */\n      pop\n      pop\n      jump\t// out\n        /* \"#utility.yul\":800:1022   */\n    tag_19:\n        /* \"#utility.yul\":893:897   */\n      0x00\n        /* \"#utility.yul\":931:933   */\n      0x20\n        /* \"#utility.yul\":920:929   */\n      dup3\n        /* \"#utility.yul\":916:934   */\n      add\n        /* \"#utility.yul\":908:934   */\n      swap1\n      pop\n        /* \"#utility.yul\":944:1015   */\n      tag_59\n        /* \"#utility.yul\":1012:1013   */\n      0x00\n        /* \"#utility.yul\":1001:1010   */\n      dup4\n        /* \"#utility.yul\":997:1014   */\n      add\n        /* \"#utility.yul\":988:994   */\n      dup5\n        /* \"#utility.yul\":944:1015   */\n      tag_41\n      jump\t// in\n    tag_59:\n        /* \"#utility.yul\":800:1022   */\n      swap3\n      swap2\n      pop\n      pop\n      jump\t// out\n        /* \"#utility.yul\":1028:1197   */\n    tag_42:\n        /* \"#utility.yul\":1112:1123   */\n      0x00\n        /* \"#utility.yul\":1146:1152   */\n      dup3\n        /* \"#utility.yul\":1141:1144   */\n      dup3\n        /* \"#utility.yul\":1134:1153   */\n      mstore\n        /* \"#utility.yul\":1186:1190   */\n      0x20\n        /* \"#utility.yul\":1181:1184   */\n      dup3\n        /* \"#utility.yul\":1177:1191   */\n      add\n        /* \"#utility.yul\":1162:1191   */\n      swap1\n      pop\n        /* \"#utility.yul\":1028:1197   */\n      swap3\n      swap2\n      pop\n      pop\n      jump\t// out\n        /* \"#utility.yul\":1203:1380   */\n    tag_43:\n        /* \"#utility.yul\":1343:1372   */\n      0x4f6e6c7920746865206f776e65722063616e2077697468647261770000000000\n        /* \"#utility.yul\":1339:1340   */\n      0x00\n        /* \"#utility.yul\":1331:1337   */\n      dup3\n        /* \"#utility.yul\":1327:1341   */\n      add\n        /* \"#utility.yul\":1320:1373   */\n      mstore\n        /* \"#utility.yul\":1203:1380   */\n      pop\n      jump\t// out\n        /* \"#utility.yul\":1386:1752   */\n    tag_44:\n        /* \"#utility.yul\":1528:1531   */\n      0x00\n        /* \"#utility.yul\":1549:1616   */\n      tag_63\n        /* \"#utility.yul\":1613:1615   */\n      0x1b\n        /* \"#utility.yul\":1608:1611   */\n      dup4\n        /* \"#utility.yul\":1549:1616   */\n      tag_42\n      jump\t// in\n    tag_63:\n        /* \"#utility.yul\":1542:1616   */\n      swap2\n      pop\n        /* \"#utility.yul\":1625:1718   */\n      tag_64\n        /* \"#utility.yul\":1714:1717   */\n      dup3\n        /* \"#utility.yul\":1625:1718   */\n      tag_43\n      jump\t// in\n    tag_64:\n        /* \"#utility.yul\":1743:1745   */\n      0x20\n        /* \"#utility.yul\":1738:1741   */\n      dup3\n        /* \"#utility.yul\":1734:1746   */\n      add\n        /* \"#utility.yul\":1727:1746   */\n      swap1\n      pop\n        /* \"#utility.yul\":1386:1752   */\n      swap2\n      swap1\n      pop\n      jump\t// out\n        /* \"#utility.yul\":1758:2177   */\n    tag_29:\n        /* \"#utility.yul\":1924:1928   */\n      0x00\n        /* \"#utility.yul\":1962:1964   */\n      0x20\n        /* \"#utility.yul\":1951:1960   */\n      dup3\n        /* \"#utility.yul\":1947:1965   */\n      add\n        /* \"#utility.yul\":1939:1965   */\n      swap1\n      pop\n        /* \"#utility.yul\":2011:2020   */\n      dup2\n        /* \"#utility.yul\":2005:2009   */\n      dup2\n        /* \"#utility.yul\":2001:2021   */\n      sub\n        /* \"#utility.yul\":1997:1998   */\n      0x00\n        /* \"#utility.yul\":1986:1995   */\n      dup4\n        /* \"#utility.yul\":1982:1999   */\n      add\n        /* \"#utility.yul\":1975:2022   */\n      mstore\n        /* \"#utility.yul\":2039:2170   */\n      tag_66\n        /* \"#utility.yul\":2165:2169   */\n      dup2\n        /* \"#utility.yul\":2039:2170   */\n      tag_44\n      jump\t// in\n    tag_66:\n        /* \"#utility.yul\":2031:2170   */\n      swap1\n      pop\n        /* \"#utility.yul\":1758:2177   */\n      swap2\n      swap1\n      pop\n      jump\t// out\n        /* \"#utility.yul\":2183:2349   */\n    tag_45:\n        /* \"#utility.yul\":2323:2341   */\n      0x46756e647320617265206c6f636b656400000000000000000000000000000000\n        /* \"#utility.yul\":2319:2320   */\n      0x00\n        /* \"#utility.yul\":2311:2317   */\n      dup3\n        /* \"#utility.yul\":2307:2321   */\n      add\n        /* \"#utility.yul\":2300:2342   */\n      mstore\n        /* \"#utility.yul\":2183:2349   */\n      pop\n      jump\t// out\n        /* \"#utility.yul\":2355:2721   */\n    tag_46:\n        /* \"#utility.yul\":2497:2500   */\n      0x00\n        /* \"#utility.yul\":2518:2585   */\n      tag_69\n        /* \"#utility.yul\":2582:2584   */\n      0x10\n        /* \"#utility.yul\":2577:2580   */\n      dup4\n        /* \"#utility.yul\":2518:2585   */\n      tag_42\n      jump\t// in\n    tag_69:\n        /* \"#utility.yul\":2511:2585   */\n      swap2\n      pop\n        /* \"#utility.yul\":2594:2687   */\n      tag_70\n        /* \"#utility.yul\":2683:2686   */\n      dup3\n        /* \"#utility.yul\":2594:2687   */\n      tag_45\n      jump\t// in\n    tag_70:\n        /* \"#utility.yul\":2712:2714   */\n      0x20\n        /* \"#utility.yul\":2707:2710   */\n      dup3\n        /* \"#utility.yul\":2703:2715   */\n      add\n        /* \"#utility.yul\":2696:2715   */\n      swap1\n      pop\n        /* \"#utility.yul\":2355:2721   */\n      swap2\n      swap1\n      pop\n      jump\t// out\n        /* \"#utility.yul\":2727:3146   */\n    tag_32:\n        /* \"#utility.yul\":2893:2897   */\n      0x00\n        /* \"#utility.yul\":2931:2933   */\n      0x20\n        /* \"#utility.yul\":2920:2929   */\n      dup3\n        /* \"#utility.yul\":2916:2934   */\n      add\n        /* \"#utility.yul\":2908:2934   */\n      swap1\n      pop\n        /* \"#utility.yul\":2980:2989   */\n      dup2\n        /* \"#utility.yul\":2974:2978   */\n      dup2\n        /* \"#utility.yul\":2970:2990   */\n      sub\n        /* \"#utility.yul\":2966:2967   */\n      0x00\n        /* \"#utility.yul\":2955:2964   */\n      dup4\n        /* \"#utility.yul\":2951:2968   */\n      add\n        /* \"#utility.yul\":2944:2991   */\n      mstore\n        /* \"#utility.yul\":3008:3139   */\n      tag_72\n        /* \"#utility.yul\":3134:3138   */\n      dup2\n        /* \"#utility.yul\":3008:3139   */\n      tag_46\n      jump\t// in\n    tag_72:\n        /* \"#utility.yul\":3000:3139   */\n      swap1\n      pop\n        /* \"#utility.yul\":2727:3146   */\n      swap2\n      swap1\n      pop\n      jump\t// out\n\n    auxdata: 0xa264697066735822122026a499d841f0285e7b5f39cc86a6e1bb4b4e03984069e38e17db9079f559203764736f6c634300081a0033\n}\n",
				"bytecode": {
					"linkReferences": {},
					"object": "608060405234801561000f575f80fd5b506040516105c33803806105c3833981810160405281019061003191906100f6565b428111610073576040517f08c379a000000000000000000000000000000000000000000000000000000000815260040161006a906101a1565b60405180910390fd5b3360015f6101000a81548173ffffffffffffffffffffffffffffffffffffffff021916908373ffffffffffffffffffffffffffffffffffffffff160217905550805f81905550506101bf565b5f80fd5b5f819050919050565b6100d5816100c3565b81146100df575f80fd5b50565b5f815190506100f0816100cc565b92915050565b5f6020828403121561010b5761010a6100bf565b5b5f610118848285016100e2565b91505092915050565b5f82825260208201905092915050565b7f52656c656173652074696d65206d75737420626520696e2074686520667574755f8201527f7265000000000000000000000000000000000000000000000000000000000000602082015250565b5f61018b602283610121565b915061019682610131565b604082019050919050565b5f6020820190508181035f8301526101b88161017f565b9050919050565b6103f7806101cc5f395ff3fe608060405260043610610049575f3560e01c80633ccfd60b1461004d5780636f9fb98a146100635780638da5cb5b1461008d578063b91d4001146100b7578063d0e30db0146100e1575b5f80fd5b348015610058575f80fd5b506100616100eb565b005b34801561006e575f80fd5b50610077610225565b6040516100849190610270565b60405180910390f35b348015610098575f80fd5b506100a161022c565b6040516100ae91906102c8565b60405180910390f35b3480156100c2575f80fd5b506100cb610251565b6040516100d89190610270565b60405180910390f35b6100e9610256565b005b60015f9054906101000a900473ffffffffffffffffffffffffffffffffffffffff1673ffffffffffffffffffffffffffffffffffffffff163373ffffffffffffffffffffffffffffffffffffffff161461017a576040517f08c379a00000000000000000000000000000000000000000000000000000000081526004016101719061033b565b60405180910390fd5b5f544210156101be576040517f08c379a00000000000000000000000000000000000000000000000000000000081526004016101b5906103a3565b60405180910390fd5b60015f9054906101000a900473ffffffffffffffffffffffffffffffffffffffff1673ffffffffffffffffffffffffffffffffffffffff166108fc4790811502906040515f60405180830381858888f19350505050158015610222573d5f803e3d5ffd5b50565b5f47905090565b60015f9054906101000a900473ffffffffffffffffffffffffffffffffffffffff1681565b5f5481565b565b5f819050919050565b61026a81610258565b82525050565b5f6020820190506102835f830184610261565b92915050565b5f73ffffffffffffffffffffffffffffffffffffffff82169050919050565b5f6102b282610289565b9050919050565b6102c2816102a8565b82525050565b5f6020820190506102db5f8301846102b9565b92915050565b5f82825260208201905092915050565b7f4f6e6c7920746865206f776e65722063616e20776974686472617700000000005f82015250565b5f610325601b836102e1565b9150610330826102f1565b602082019050919050565b5f6020820190508181035f83015261035281610319565b9050919050565b7f46756e647320617265206c6f636b6564000000000000000000000000000000005f82015250565b5f61038d6010836102e1565b915061039882610359565b602082019050919050565b5f6020820190508181035f8301526103ba81610381565b905091905056fea264697066735822122026a499d841f0285e7b5f39cc86a6e1bb4b4e03984069e38e17db9079f559203764736f6c634300081a0033",
					"opcodes": "PUSH1 0x80 PUSH1 0x40 MSTORE CALLVALUE DUP1 ISZERO PUSH2 0xF JUMPI PUSH0 DUP1 REVERT JUMPDEST POP PUSH1 0x40 MLOAD PUSH2 0x5C3 CODESIZE SUB DUP1 PUSH2 0x5C3 DUP4 CODECOPY DUP2 DUP2 ADD PUSH1 0x40 MSTORE DUP2 ADD SWAP1 PUSH2 0x31 SWAP2 SWAP1 PUSH2 0xF6 JUMP JUMPDEST TIMESTAMP DUP2 GT PUSH2 0x73 JUMPI PUSH1 0x40 MLOAD PUSH32 0x8C379A000000000000000000000000000000000000000000000000000000000 DUP2 MSTORE PUSH1 0x4 ADD PUSH2 0x6A SWAP1 PUSH2 0x1A1 JUMP JUMPDEST PUSH1 0x40 MLOAD DUP1 SWAP2 SUB SWAP1 REVERT JUMPDEST CALLER PUSH1 0x1 PUSH0 PUSH2 0x100 EXP DUP2 SLOAD DUP2 PUSH20 0xFFFFFFFFFFFFFFFFFFFFFFFFFFFFFFFFFFFFFFFF MUL NOT AND SWAP1 DUP4 PUSH20 0xFFFFFFFFFFFFFFFFFFFFFFFFFFFFFFFFFFFFFFFF AND MUL OR SWAP1 SSTORE POP DUP1 PUSH0 DUP2 SWAP1 SSTORE POP POP PUSH2 0x1BF JUMP JUMPDEST PUSH0 DUP1 REVERT JUMPDEST PUSH0 DUP2 SWAP1 POP SWAP2 SWAP1 POP JUMP JUMPDEST PUSH2 0xD5 DUP2 PUSH2 0xC3 JUMP JUMPDEST DUP2 EQ PUSH2 0xDF JUMPI PUSH0 DUP1 REVERT JUMPDEST POP JUMP JUMPDEST PUSH0 DUP2 MLOAD SWAP1 POP PUSH2 0xF0 DUP2 PUSH2 0xCC JUMP JUMPDEST SWAP3 SWAP2 POP POP JUMP JUMPDEST PUSH0 PUSH1 0x20 DUP3 DUP5 SUB SLT ISZERO PUSH2 0x10B JUMPI PUSH2 0x10A PUSH2 0xBF JUMP JUMPDEST JUMPDEST PUSH0 PUSH2 0x118 DUP5 DUP3 DUP6 ADD PUSH2 0xE2 JUMP JUMPDEST SWAP2 POP POP SWAP3 SWAP2 POP POP JUMP JUMPDEST PUSH0 DUP3 DUP3 MSTORE PUSH1 0x20 DUP3 ADD SWAP1 POP SWAP3 SWAP2 POP POP JUMP JUMPDEST PUSH32 0x52656C656173652074696D65206D75737420626520696E207468652066757475 PUSH0 DUP3 ADD MSTORE PUSH32 0x7265000000000000000000000000000000000000000000000000000000000000 PUSH1 0x20 DUP3 ADD MSTORE POP JUMP JUMPDEST PUSH0 PUSH2 0x18B PUSH1 0x22 DUP4 PUSH2 0x121 JUMP JUMPDEST SWAP2 POP PUSH2 0x196 DUP3 PUSH2 0x131 JUMP JUMPDEST PUSH1 0x40 DUP3 ADD SWAP1 POP SWAP2 SWAP1 POP JUMP JUMPDEST PUSH0 PUSH1 0x20 DUP3 ADD SWAP1 POP DUP2 DUP2 SUB PUSH0 DUP4 ADD MSTORE PUSH2 0x1B8 DUP2 PUSH2 0x17F JUMP JUMPDEST SWAP1 POP SWAP2 SWAP1 POP JUMP JUMPDEST PUSH2 0x3F7 DUP1 PUSH2 0x1CC PUSH0 CODECOPY PUSH0 RETURN INVALID PUSH1 0x80 PUSH1 0x40 MSTORE PUSH1 0x4 CALLDATASIZE LT PUSH2 0x49 JUMPI PUSH0 CALLDATALOAD PUSH1 0xE0 SHR DUP1 PUSH4 0x3CCFD60B EQ PUSH2 0x4D JUMPI DUP1 PUSH4 0x6F9FB98A EQ PUSH2 0x63 JUMPI DUP1 PUSH4 0x8DA5CB5B EQ PUSH2 0x8D JUMPI DUP1 PUSH4 0xB91D4001 EQ PUSH2 0xB7 JUMPI DUP1 PUSH4 0xD0E30DB0 EQ PUSH2 0xE1 JUMPI JUMPDEST PUSH0 DUP1 REVERT JUMPDEST CALLVALUE DUP1 ISZERO PUSH2 0x58 JUMPI PUSH0 DUP1 REVERT JUMPDEST POP PUSH2 0x61 PUSH2 0xEB JUMP JUMPDEST STOP JUMPDEST CALLVALUE DUP1 ISZERO PUSH2 0x6E JUMPI PUSH0 DUP1 REVERT JUMPDEST POP PUSH2 0x77 PUSH2 0x225 JUMP JUMPDEST PUSH1 0x40 MLOAD PUSH2 0x84 SWAP2 SWAP1 PUSH2 0x270 JUMP JUMPDEST PUSH1 0x40 MLOAD DUP1 SWAP2 SUB SWAP1 RETURN JUMPDEST CALLVALUE DUP1 ISZERO PUSH2 0x98 JUMPI PUSH0 DUP1 REVERT JUMPDEST POP PUSH2 0xA1 PUSH2 0x22C JUMP JUMPDEST PUSH1 0x40 MLOAD PUSH2 0xAE SWAP2 SWAP1 PUSH2 0x2C8 JUMP JUMPDEST PUSH1 0x40 MLOAD DUP1 SWAP2 SUB SWAP1 RETURN JUMPDEST CALLVALUE DUP1 ISZERO PUSH2 0xC2 JUMPI PUSH0 DUP1 REVERT JUMPDEST POP PUSH2 0xCB PUSH2 0x251 JUMP JUMPDEST PUSH1 0x40 MLOAD PUSH2 0xD8 SWAP2 SWAP1 PUSH2 0x270 JUMP JUMPDEST PUSH1 0x40 MLOAD DUP1 SWAP2 SUB SWAP1 RETURN JUMPDEST PUSH2 0xE9 PUSH2 0x256 JUMP JUMPDEST STOP JUMPDEST PUSH1 0x1 PUSH0 SWAP1 SLOAD SWAP1 PUSH2 0x100 EXP SWAP1 DIV PUSH20 0xFFFFFFFFFFFFFFFFFFFFFFFFFFFFFFFFFFFFFFFF AND PUSH20 0xFFFFFFFFFFFFFFFFFFFFFFFFFFFFFFFFFFFFFFFF AND CALLER PUSH20 0xFFFFFFFFFFFFFFFFFFFFFFFFFFFFFFFFFFFFFFFF AND EQ PUSH2 0x17A JUMPI PUSH1 0x40 MLOAD PUSH32 0x8C379A000000000000000000000000000000000000000000000000000000000 DUP2 MSTORE PUSH1 0x4 ADD PUSH2 0x171 SWAP1 PUSH2 0x33B JUMP JUMPDEST PUSH1 0x40 MLOAD DUP1 SWAP2 SUB SWAP1 REVERT JUMPDEST PUSH0 SLOAD TIMESTAMP LT ISZERO PUSH2 0x1BE JUMPI PUSH1 0x40 MLOAD PUSH32 0x8C379A000000000000000000000000000000000000000000000000000000000 DUP2 MSTORE PUSH1 0x4 ADD PUSH2 0x1B5 SWAP1 PUSH2 0x3A3 JUMP JUMPDEST PUSH1 0x40 MLOAD DUP1 SWAP2 SUB SWAP1 REVERT JUMPDEST PUSH1 0x1 PUSH0 SWAP1 SLOAD SWAP1 PUSH2 0x100 EXP SWAP1 DIV PUSH20 0xFFFFFFFFFFFFFFFFFFFFFFFFFFFFFFFFFFFFFFFF AND PUSH20 0xFFFFFFFFFFFFFFFFFFFFFFFFFFFFFFFFFFFFFFFF AND PUSH2 0x8FC SELFBALANCE SWAP1 DUP2 ISZERO MUL SWAP1 PUSH1 0x40 MLOAD PUSH0 PUSH1 0x40 MLOAD DUP1 DUP4 SUB DUP2 DUP6 DUP9 DUP9 CALL SWAP4 POP POP POP POP ISZERO DUP1 ISZERO PUSH2 0x222 JUMPI RETURNDATASIZE PUSH0 DUP1 RETURNDATACOPY RETURNDATASIZE PUSH0 REVERT JUMPDEST POP JUMP JUMPDEST PUSH0 SELFBALANCE SWAP1 POP SWAP1 JUMP JUMPDEST PUSH1 0x1 PUSH0 SWAP1 SLOAD SWAP1 PUSH2 0x100 EXP SWAP1 DIV PUSH20 0xFFFFFFFFFFFFFFFFFFFFFFFFFFFFFFFFFFFFFFFF AND DUP2 JUMP JUMPDEST PUSH0 SLOAD DUP2 JUMP JUMPDEST JUMP JUMPDEST PUSH0 DUP2 SWAP1 POP SWAP2 SWAP1 POP JUMP JUMPDEST PUSH2 0x26A DUP2 PUSH2 0x258 JUMP JUMPDEST DUP3 MSTORE POP POP JUMP JUMPDEST PUSH0 PUSH1 0x20 DUP3 ADD SWAP1 POP PUSH2 0x283 PUSH0 DUP4 ADD DUP5 PUSH2 0x261 JUMP JUMPDEST SWAP3 SWAP2 POP POP JUMP JUMPDEST PUSH0 PUSH20 0xFFFFFFFFFFFFFFFFFFFFFFFFFFFFFFFFFFFFFFFF DUP3 AND SWAP1 POP SWAP2 SWAP1 POP JUMP JUMPDEST PUSH0 PUSH2 0x2B2 DUP3 PUSH2 0x289 JUMP JUMPDEST SWAP1 POP SWAP2 SWAP1 POP JUMP JUMPDEST PUSH2 0x2C2 DUP2 PUSH2 0x2A8 JUMP JUMPDEST DUP3 MSTORE POP POP JUMP JUMPDEST PUSH0 PUSH1 0x20 DUP3 ADD SWAP1 POP PUSH2 0x2DB PUSH0 DUP4 ADD DUP5 PUSH2 0x2B9 JUMP JUMPDEST SWAP3 SWAP2 POP POP JUMP JUMPDEST PUSH0 DUP3 DUP3 MSTORE PUSH1 0x20 DUP3 ADD SWAP1 POP SWAP3 SWAP2 POP POP JUMP JUMPDEST PUSH32 0x4F6E6C7920746865206F776E65722063616E2077697468647261770000000000 PUSH0 DUP3 ADD MSTORE POP JUMP JUMPDEST PUSH0 PUSH2 0x325 PUSH1 0x1B DUP4 PUSH2 0x2E1 JUMP JUMPDEST SWAP2 POP PUSH2 0x330 DUP3 PUSH2 0x2F1 JUMP JUMPDEST PUSH1 0x20 DUP3 ADD SWAP1 POP SWAP2 SWAP1 POP JUMP JUMPDEST PUSH0 PUSH1 0x20 DUP3 ADD SWAP1 POP DUP2 DUP2 SUB PUSH0 DUP4 ADD MSTORE PUSH2 0x352 DUP2 PUSH2 0x319 JUMP JUMPDEST SWAP1 POP SWAP2 SWAP1 POP JUMP JUMPDEST PUSH32 0x46756E647320617265206C6F636B656400000000000000000000000000000000 PUSH0 DUP3 ADD MSTORE POP JUMP JUMPDEST PUSH0 PUSH2 0x38D PUSH1 0x10 DUP4 PUSH2 0x2E1 JUMP JUMPDEST SWAP2 POP PUSH2 0x398 DUP3 PUSH2 0x359 JUMP JUMPDEST PUSH1 0x20 DUP3 ADD SWAP1 POP SWAP2 SWAP1 POP JUMP JUMPDEST PUSH0 PUSH1 0x20 DUP3 ADD SWAP1 POP DUP2 DUP2 SUB PUSH0 DUP4 ADD MSTORE PUSH2 0x3BA DUP2 PUSH2 0x381 JUMP JUMPDEST SWAP1 POP SWAP2 SWAP1 POP JUMP INVALID LOG2 PUSH5 0x6970667358 0x22 SLT KECCAK256 0x26 LOG4 SWAP10 0xD8 COINBASE CREATE 0x28 MCOPY PUSH28 0x5F39CC86A6E1BB4B4E03984069E38E17DB9079F559203764736F6C63 NUMBER STOP ADDMOD BYTE STOP CALLER "
				},
				"gasEstimates": {
					"creation": {
						"codeDepositCost": "203000",
						"executionCost": "infinite",
						"totalCost": "infinite"
					},
					"external": {
						"deposit()": "185",
						"getContractBalance()": "334",
						"owner()": "2530",
						"releaseTime()": "2468",
						"withdraw()": "infinite"
					}
				},
				"methodIdentifiers": {
					"deposit()": "d0e30db0",
					"getContractBalance()": "6f9fb98a",
					"owner()": "8da5cb5b",
					"releaseTime()": "b91d4001",
					"withdraw()": "3ccfd60b"
				}
			},
			"storageLayout": {
				"storage": [
					{
						"astId": 3,
						"contract": "contracts/Blockchain_Assignment_5/Task_Codes/as5_task4.sol:TimeLockedWallet",
						"label": "releaseTime",
						"offset": 0,
						"slot": "0",
						"type": "t_uint256"
					},
					{
						"astId": 5,
						"contract": "contracts/Blockchain_Assignment_5/Task_Codes/as5_task4.sol:TimeLockedWallet",
						"label": "owner",
						"offset": 0,
						"slot": "1",
						"type": "t_address"
					}
				],
				"types": {
					"t_address": {
						"encoding": "inplace",
						"label": "address",
						"numberOfBytes": "20"
					},
					"t_uint256": {
						"encoding": "inplace",
						"label": "uint256",
						"numberOfBytes": "32"
					}
				}
			},
			"userdoc": {
				"kind": "user",
				"methods": {},
				"version": 1
			}
		}
	}
}