{
	"contracts/Blockchain_Assignment_5/Task_Codes/as5_task8.sol": {
		"Auction": {
			"abi": [
				{
					"inputs": [],
					"name": "getHighestBid",
					"outputs": [
						{
							"internalType": "address",
							"name": "",
							"type": "address"
						},
						{
							"internalType": "uint256",
							"name": "",
							"type": "uint256"
						}
					],
					"stateMutability": "view",
					"type": "function"
				},
				{
					"inputs": [],
					"name": "highestBid",
					"outputs": [
						{
							"internalType": "uint256",
							"name": "",
							"type": "uint256"
						}
					],
					"stateMutability": "view",
					"type": "function"
				},
				{
					"inputs": [],
					"name": "highestBidder",
					"outputs": [
						{
							"internalType": "address",
							"name": "",
							"type": "address"
						}
					],
					"stateMutability": "view",
					"type": "function"
				},
				{
					"inputs": [],
					"name": "placeBid",
					"outputs": [],
					"stateMutability": "payable",
					"type": "function"
				}
			],
			"devdoc": {
				"kind": "dev",
				"methods": {},
				"version": 1
			},
			"evm": {
				"assembly": "    /* \"contracts/Blockchain_Assignment_5/Task_Codes/as5_task8.sol\":28:743  contract Auction {... */\n  mstore(0x40, 0x80)\n  callvalue\n  dup1\n  iszero\n  tag_1\n  jumpi\n  0x00\n  dup1\n  revert\ntag_1:\n  pop\n  dataSize(sub_0)\n  dup1\n  dataOffset(sub_0)\n  0x00\n  codecopy\n  0x00\n  return\nstop\n\nsub_0: assembly {\n        /* \"contracts/Blockchain_Assignment_5/Task_Codes/as5_task8.sol\":28:743  contract Auction {... */\n      mstore(0x40, 0x80)\n      jumpi(tag_1, lt(calldatasize, 0x04))\n      shr(0xe0, calldataload(0x00))\n      dup1\n      0x4979440a\n      eq\n      tag_2\n      jumpi\n      dup1\n      0x91f90157\n      eq\n      tag_3\n      jumpi\n      dup1\n      0xd57bde79\n      eq\n      tag_4\n      jumpi\n      dup1\n      0xecfc7ecc\n      eq\n      tag_5\n      jumpi\n    tag_1:\n      0x00\n      dup1\n      revert\n        /* \"contracts/Blockchain_Assignment_5/Task_Codes/as5_task8.sol\":623:740  function getHighestBid() public view returns (address, uint256) {... */\n    tag_2:\n      callvalue\n      dup1\n      iszero\n      tag_6\n      jumpi\n      0x00\n      dup1\n      revert\n    tag_6:\n      pop\n      tag_7\n      tag_8\n      jump\t// in\n    tag_7:\n      mload(0x40)\n      tag_9\n      swap3\n      swap2\n      swap1\n      tag_10\n      jump\t// in\n    tag_9:\n      mload(0x40)\n      dup1\n      swap2\n      sub\n      swap1\n      return\n        /* \"contracts/Blockchain_Assignment_5/Task_Codes/as5_task8.sol\":76:104  address public highestBidder */\n    tag_3:\n      callvalue\n      dup1\n      iszero\n      tag_11\n      jumpi\n      0x00\n      dup1\n      revert\n    tag_11:\n      pop\n      tag_12\n      tag_13\n      jump\t// in\n    tag_12:\n      mload(0x40)\n      tag_14\n      swap2\n      swap1\n      tag_15\n      jump\t// in\n    tag_14:\n      mload(0x40)\n      dup1\n      swap2\n      sub\n      swap1\n      return\n        /* \"contracts/Blockchain_Assignment_5/Task_Codes/as5_task8.sol\":144:169  uint256 public highestBid */\n    tag_4:\n      callvalue\n      dup1\n      iszero\n      tag_16\n      jumpi\n      0x00\n      dup1\n      revert\n    tag_16:\n      pop\n      tag_17\n      tag_18\n      jump\t// in\n    tag_17:\n      mload(0x40)\n      tag_19\n      swap2\n      swap1\n      tag_20\n      jump\t// in\n    tag_19:\n      mload(0x40)\n      dup1\n      swap2\n      sub\n      swap1\n      return\n        /* \"contracts/Blockchain_Assignment_5/Task_Codes/as5_task8.sol\":241:524  function placeBid() public payable {... */\n    tag_5:\n      tag_21\n      tag_22\n      jump\t// in\n    tag_21:\n      stop\n        /* \"contracts/Blockchain_Assignment_5/Task_Codes/as5_task8.sol\":623:740  function getHighestBid() public view returns (address, uint256) {... */\n    tag_8:\n        /* \"contracts/Blockchain_Assignment_5/Task_Codes/as5_task8.sol\":669:676  address */\n      0x00\n        /* \"contracts/Blockchain_Assignment_5/Task_Codes/as5_task8.sol\":678:685  uint256 */\n      dup1\n        /* \"contracts/Blockchain_Assignment_5/Task_Codes/as5_task8.sol\":706:719  highestBidder */\n      0x00\n      dup1\n      sload\n      swap1\n      0x0100\n      exp\n      swap1\n      div\n      0xffffffffffffffffffffffffffffffffffffffff\n      and\n        /* \"contracts/Blockchain_Assignment_5/Task_Codes/as5_task8.sol\":721:731  highestBid */\n      sload(0x01)\n        /* \"contracts/Blockchain_Assignment_5/Task_Codes/as5_task8.sol\":698:732  return (highestBidder, highestBid) */\n      swap2\n      pop\n      swap2\n      pop\n        /* \"contracts/Blockchain_Assignment_5/Task_Codes/as5_task8.sol\":623:740  function getHighestBid() public view returns (address, uint256) {... */\n      swap1\n      swap2\n      jump\t// out\n        /* \"contracts/Blockchain_Assignment_5/Task_Codes/as5_task8.sol\":76:104  address public highestBidder */\n    tag_13:\n      0x00\n      dup1\n      sload\n      swap1\n      0x0100\n      exp\n      swap1\n      div\n      0xffffffffffffffffffffffffffffffffffffffff\n      and\n      dup2\n      jump\t// out\n        /* \"contracts/Blockchain_Assignment_5/Task_Codes/as5_task8.sol\":144:169  uint256 public highestBid */\n    tag_18:\n      sload(0x01)\n      dup2\n      jump\t// out\n        /* \"contracts/Blockchain_Assignment_5/Task_Codes/as5_task8.sol\":241:524  function placeBid() public payable {... */\n    tag_22:\n        /* \"contracts/Blockchain_Assignment_5/Task_Codes/as5_task8.sol\":307:317  highestBid */\n      sload(0x01)\n        /* \"contracts/Blockchain_Assignment_5/Task_Codes/as5_task8.sol\":295:304  msg.value */\n      callvalue\n        /* \"contracts/Blockchain_Assignment_5/Task_Codes/as5_task8.sol\":295:317  msg.value > highestBid */\n      gt\n        /* \"contracts/Blockchain_Assignment_5/Task_Codes/as5_task8.sol\":287:333  require(msg.value > highestBid, \"Bid too low\") */\n      tag_25\n      jumpi\n      mload(0x40)\n      0x08c379a000000000000000000000000000000000000000000000000000000000\n      dup2\n      mstore\n      0x04\n      add\n      tag_26\n      swap1\n      tag_27\n      jump\t// in\n    tag_26:\n      mload(0x40)\n      dup1\n      swap2\n      sub\n      swap1\n      revert\n    tag_25:\n        /* \"contracts/Blockchain_Assignment_5/Task_Codes/as5_task8.sol\":473:483  msg.sender */\n      caller\n        /* \"contracts/Blockchain_Assignment_5/Task_Codes/as5_task8.sol\":457:470  highestBidder */\n      0x00\n      dup1\n        /* \"contracts/Blockchain_Assignment_5/Task_Codes/as5_task8.sol\":457:483  highestBidder = msg.sender */\n      0x0100\n      exp\n      dup2\n      sload\n      dup2\n      0xffffffffffffffffffffffffffffffffffffffff\n      mul\n      not\n      and\n      swap1\n      dup4\n      0xffffffffffffffffffffffffffffffffffffffff\n      and\n      mul\n      or\n      swap1\n      sstore\n      pop\n        /* \"contracts/Blockchain_Assignment_5/Task_Codes/as5_task8.sol\":507:516  msg.value */\n      callvalue\n        /* \"contracts/Blockchain_Assignment_5/Task_Codes/as5_task8.sol\":494:504  highestBid */\n      0x01\n        /* \"contracts/Blockchain_Assignment_5/Task_Codes/as5_task8.sol\":494:516  highestBid = msg.value */\n      dup2\n      swap1\n      sstore\n      pop\n        /* \"contracts/Blockchain_Assignment_5/Task_Codes/as5_task8.sol\":241:524  function placeBid() public payable {... */\n      jump\t// out\n        /* \"#utility.yul\":7:133   */\n    tag_28:\n        /* \"#utility.yul\":44:51   */\n      0x00\n        /* \"#utility.yul\":84:126   */\n      0xffffffffffffffffffffffffffffffffffffffff\n        /* \"#utility.yul\":77:82   */\n      dup3\n        /* \"#utility.yul\":73:127   */\n      and\n        /* \"#utility.yul\":62:127   */\n      swap1\n      pop\n        /* \"#utility.yul\":7:133   */\n      swap2\n      swap1\n      pop\n      jump\t// out\n        /* \"#utility.yul\":139:235   */\n    tag_29:\n        /* \"#utility.yul\":176:183   */\n      0x00\n        /* \"#utility.yul\":205:229   */\n      tag_39\n        /* \"#utility.yul\":223:228   */\n      dup3\n        /* \"#utility.yul\":205:229   */\n      tag_28\n      jump\t// in\n    tag_39:\n        /* \"#utility.yul\":194:229   */\n      swap1\n      pop\n        /* \"#utility.yul\":139:235   */\n      swap2\n      swap1\n      pop\n      jump\t// out\n        /* \"#utility.yul\":241:359   */\n    tag_30:\n        /* \"#utility.yul\":328:352   */\n      tag_41\n        /* \"#utility.yul\":346:351   */\n      dup2\n        /* \"#utility.yul\":328:352   */\n      tag_29\n      jump\t// in\n    tag_41:\n        /* \"#utility.yul\":323:326   */\n      dup3\n        /* \"#utility.yul\":316:353   */\n      mstore\n        /* \"#utility.yul\":241:359   */\n      pop\n      pop\n      jump\t// out\n        /* \"#utility.yul\":365:442   */\n    tag_31:\n        /* \"#utility.yul\":402:409   */\n      0x00\n        /* \"#utility.yul\":431:436   */\n      dup2\n        /* \"#utility.yul\":420:436   */\n      swap1\n      pop\n        /* \"#utility.yul\":365:442   */\n      swap2\n      swap1\n      pop\n      jump\t// out\n        /* \"#utility.yul\":448:566   */\n    tag_32:\n        /* \"#utility.yul\":535:559   */\n      tag_44\n        /* \"#utility.yul\":553:558   */\n      dup2\n        /* \"#utility.yul\":535:559   */\n      tag_31\n      jump\t// in\n    tag_44:\n        /* \"#utility.yul\":530:533   */\n      dup3\n        /* \"#utility.yul\":523:560   */\n      mstore\n        /* \"#utility.yul\":448:566   */\n      pop\n      pop\n      jump\t// out\n        /* \"#utility.yul\":572:904   */\n    tag_10:\n        /* \"#utility.yul\":693:697   */\n      0x00\n        /* \"#utility.yul\":731:733   */\n      0x40\n        /* \"#utility.yul\":720:729   */\n      dup3\n        /* \"#utility.yul\":716:734   */\n      add\n        /* \"#utility.yul\":708:734   */\n      swap1\n      pop\n        /* \"#utility.yul\":744:815   */\n      tag_46\n        /* \"#utility.yul\":812:813   */\n      0x00\n        /* \"#utility.yul\":801:810   */\n      dup4\n        /* \"#utility.yul\":797:814   */\n      add\n        /* \"#utility.yul\":788:794   */\n      dup6\n        /* \"#utility.yul\":744:815   */\n      tag_30\n      jump\t// in\n    tag_46:\n        /* \"#utility.yul\":825:897   */\n      tag_47\n        /* \"#utility.yul\":893:895   */\n      0x20\n        /* \"#utility.yul\":882:891   */\n      dup4\n        /* \"#utility.yul\":878:896   */\n      add\n        /* \"#utility.yul\":869:875   */\n      dup5\n        /* \"#utility.yul\":825:897   */\n      tag_32\n      jump\t// in\n    tag_47:\n        /* \"#utility.yul\":572:904   */\n      swap4\n      swap3\n      pop\n      pop\n      pop\n      jump\t// out\n        /* \"#utility.yul\":910:1132   */\n    tag_15:\n        /* \"#utility.yul\":1003:1007   */\n      0x00\n        /* \"#utility.yul\":1041:1043   */\n      0x20\n        /* \"#utility.yul\":1030:1039   */\n      dup3\n        /* \"#utility.yul\":1026:1044   */\n      add\n        /* \"#utility.yul\":1018:1044   */\n      swap1\n      pop\n        /* \"#utility.yul\":1054:1125   */\n      tag_49\n        /* \"#utility.yul\":1122:1123   */\n      0x00\n        /* \"#utility.yul\":1111:1120   */\n      dup4\n        /* \"#utility.yul\":1107:1124   */\n      add\n        /* \"#utility.yul\":1098:1104   */\n      dup5\n        /* \"#utility.yul\":1054:1125   */\n      tag_30\n      jump\t// in\n    tag_49:\n        /* \"#utility.yul\":910:1132   */\n      swap3\n      swap2\n      pop\n      pop\n      jump\t// out\n        /* \"#utility.yul\":1138:1360   */\n    tag_20:\n        /* \"#utility.yul\":1231:1235   */\n      0x00\n        /* \"#utility.yul\":1269:1271   */\n      0x20\n        /* \"#utility.yul\":1258:1267   */\n      dup3\n        /* \"#utility.yul\":1254:1272   */\n      add\n        /* \"#utility.yul\":1246:1272   */\n      swap1\n      pop\n        /* \"#utility.yul\":1282:1353   */\n      tag_51\n        /* \"#utility.yul\":1350:1351   */\n      0x00\n        /* \"#utility.yul\":1339:1348   */\n      dup4\n        /* \"#utility.yul\":1335:1352   */\n      add\n        /* \"#utility.yul\":1326:1332   */\n      dup5\n        /* \"#utility.yul\":1282:1353   */\n      tag_32\n      jump\t// in\n    tag_51:\n        /* \"#utility.yul\":1138:1360   */\n      swap3\n      swap2\n      pop\n      pop\n      jump\t// out\n        /* \"#utility.yul\":1366:1535   */\n    tag_33:\n        /* \"#utility.yul\":1450:1461   */\n      0x00\n        /* \"#utility.yul\":1484:1490   */\n      dup3\n        /* \"#utility.yul\":1479:1482   */\n      dup3\n        /* \"#utility.yul\":1472:1491   */\n      mstore\n        /* \"#utility.yul\":1524:1528   */\n      0x20\n        /* \"#utility.yul\":1519:1522   */\n      dup3\n        /* \"#utility.yul\":1515:1529   */\n      add\n        /* \"#utility.yul\":1500:1529   */\n      swap1\n      pop\n        /* \"#utility.yul\":1366:1535   */\n      swap3\n      swap2\n      pop\n      pop\n      jump\t// out\n        /* \"#utility.yul\":1541:1702   */\n    tag_34:\n        /* \"#utility.yul\":1681:1694   */\n      0x42696420746f6f206c6f77000000000000000000000000000000000000000000\n        /* \"#utility.yul\":1677:1678   */\n      0x00\n        /* \"#utility.yul\":1669:1675   */\n      dup3\n        /* \"#utility.yul\":1665:1679   */\n      add\n        /* \"#utility.yul\":1658:1695   */\n      mstore\n        /* \"#utility.yul\":1541:1702   */\n      pop\n      jump\t// out\n        /* \"#utility.yul\":1708:2074   */\n    tag_35:\n        /* \"#utility.yul\":1850:1853   */\n      0x00\n        /* \"#utility.yul\":1871:1938   */\n      tag_55\n        /* \"#utility.yul\":1935:1937   */\n      0x0b\n        /* \"#utility.yul\":1930:1933   */\n      dup4\n        /* \"#utility.yul\":1871:1938   */\n      tag_33\n      jump\t// in\n    tag_55:\n        /* \"#utility.yul\":1864:1938   */\n      swap2\n      pop\n        /* \"#utility.yul\":1947:2040   */\n      tag_56\n        /* \"#utility.yul\":2036:2039   */\n      dup3\n        /* \"#utility.yul\":1947:2040   */\n      tag_34\n      jump\t// in\n    tag_56:\n        /* \"#utility.yul\":2065:2067   */\n      0x20\n        /* \"#utility.yul\":2060:2063   */\n      dup3\n        /* \"#utility.yul\":2056:2068   */\n      add\n        /* \"#utility.yul\":2049:2068   */\n      swap1\n      pop\n        /* \"#utility.yul\":1708:2074   */\n      swap2\n      swap1\n      pop\n      jump\t// out\n        /* \"#utility.yul\":2080:2499   */\n    tag_27:\n        /* \"#utility.yul\":2246:2250   */\n      0x00\n        /* \"#utility.yul\":2284:2286   */\n      0x20\n        /* \"#utility.yul\":2273:2282   */\n      dup3\n        /* \"#utility.yul\":2269:2287   */\n      add\n        /* \"#utility.yul\":2261:2287   */\n      swap1\n      pop\n        /* \"#utility.yul\":2333:2342   */\n      dup2\n        /* \"#utility.yul\":2327:2331   */\n      dup2\n        /* \"#utility.yul\":2323:2343   */\n      sub\n        /* \"#utility.yul\":2319:2320   */\n      0x00\n        /* \"#utility.yul\":2308:2317   */\n      dup4\n        /* \"#utility.yul\":2304:2321   */\n      add\n        /* \"#utility.yul\":2297:2344   */\n      mstore\n        /* \"#utility.yul\":2361:2492   */\n      tag_58\n        /* \"#utility.yul\":2487:2491   */\n      dup2\n        /* \"#utility.yul\":2361:2492   */\n      tag_35\n      jump\t// in\n    tag_58:\n        /* \"#utility.yul\":2353:2492   */\n      swap1\n      pop\n        /* \"#utility.yul\":2080:2499   */\n      swap2\n      swap1\n      pop\n      jump\t// out\n\n    auxdata: 0xa264697066735822122074fff28ff4fc1d2f682106f563d71f79a3325bd7662f7bae4e0af682ede5785064736f6c634300081a0033\n}\n",
				"bytecode": {
					"linkReferences": {},
					"object": "6080604052348015600e575f80fd5b5061030b8061001c5f395ff3fe60806040526004361061003e575f3560e01c80634979440a1461004257806391f901571461006d578063d57bde7914610097578063ecfc7ecc146100c1575b5f80fd5b34801561004d575f80fd5b506100566100cb565b604051610064929190610204565b60405180910390f35b348015610078575f80fd5b506100816100f8565b60405161008e919061022b565b60405180910390f35b3480156100a2575f80fd5b506100ab61011b565b6040516100b89190610244565b60405180910390f35b6100c9610121565b005b5f805f8054906101000a900473ffffffffffffffffffffffffffffffffffffffff16600154915091509091565b5f8054906101000a900473ffffffffffffffffffffffffffffffffffffffff1681565b60015481565b6001543411610165576040517f08c379a000000000000000000000000000000000000000000000000000000000815260040161015c906102b7565b60405180910390fd5b335f806101000a81548173ffffffffffffffffffffffffffffffffffffffff021916908373ffffffffffffffffffffffffffffffffffffffff16021790555034600181905550565b5f73ffffffffffffffffffffffffffffffffffffffff82169050919050565b5f6101d6826101ad565b9050919050565b6101e6816101cc565b82525050565b5f819050919050565b6101fe816101ec565b82525050565b5f6040820190506102175f8301856101dd565b61022460208301846101f5565b9392505050565b5f60208201905061023e5f8301846101dd565b92915050565b5f6020820190506102575f8301846101f5565b92915050565b5f82825260208201905092915050565b7f42696420746f6f206c6f770000000000000000000000000000000000000000005f82015250565b5f6102a1600b8361025d565b91506102ac8261026d565b602082019050919050565b5f6020820190508181035f8301526102ce81610295565b905091905056fea264697066735822122074fff28ff4fc1d2f682106f563d71f79a3325bd7662f7bae4e0af682ede5785064736f6c634300081a0033",
					"opcodes": "PUSH1 0x80 PUSH1 0x40 MSTORE CALLVALUE DUP1 ISZERO PUSH1 0xE JUMPI PUSH0 DUP1 REVERT JUMPDEST POP PUSH2 0x30B DUP1 PUSH2 0x1C PUSH0 CODECOPY PUSH0 RETURN INVALID PUSH1 0x80 PUSH1 0x40 MSTORE PUSH1 0x4 CALLDATASIZE LT PUSH2 0x3E JUMPI PUSH0 CALLDATALOAD PUSH1 0xE0 SHR DUP1 PUSH4 0x4979440A EQ PUSH2 0x42 JUMPI DUP1 PUSH4 0x91F90157 EQ PUSH2 0x6D JUMPI DUP1 PUSH4 0xD57BDE79 EQ PUSH2 0x97 JUMPI DUP1 PUSH4 0xECFC7ECC EQ PUSH2 0xC1 JUMPI JUMPDEST PUSH0 DUP1 REVERT JUMPDEST CALLVALUE DUP1 ISZERO PUSH2 0x4D JUMPI PUSH0 DUP1 REVERT JUMPDEST POP PUSH2 0x56 PUSH2 0xCB JUMP JUMPDEST PUSH1 0x40 MLOAD PUSH2 0x64 SWAP3 SWAP2 SWAP1 PUSH2 0x204 JUMP JUMPDEST PUSH1 0x40 MLOAD DUP1 SWAP2 SUB SWAP1 RETURN JUMPDEST CALLVALUE DUP1 ISZERO PUSH2 0x78 JUMPI PUSH0 DUP1 REVERT JUMPDEST POP PUSH2 0x81 PUSH2 0xF8 JUMP JUMPDEST PUSH1 0x40 MLOAD PUSH2 0x8E SWAP2 SWAP1 PUSH2 0x22B JUMP JUMPDEST PUSH1 0x40 MLOAD DUP1 SWAP2 SUB SWAP1 RETURN JUMPDEST CALLVALUE DUP1 ISZERO PUSH2 0xA2 JUMPI PUSH0 DUP1 REVERT JUMPDEST POP PUSH2 0xAB PUSH2 0x11B JUMP JUMPDEST PUSH1 0x40 MLOAD PUSH2 0xB8 SWAP2 SWAP1 PUSH2 0x244 JUMP JUMPDEST PUSH1 0x40 MLOAD DUP1 SWAP2 SUB SWAP1 RETURN JUMPDEST PUSH2 0xC9 PUSH2 0x121 JUMP JUMPDEST STOP JUMPDEST PUSH0 DUP1 PUSH0 DUP1 SLOAD SWAP1 PUSH2 0x100 EXP SWAP1 DIV PUSH20 0xFFFFFFFFFFFFFFFFFFFFFFFFFFFFFFFFFFFFFFFF AND PUSH1 0x1 SLOAD SWAP2 POP SWAP2 POP SWAP1 SWAP2 JUMP JUMPDEST PUSH0 DUP1 SLOAD SWAP1 PUSH2 0x100 EXP SWAP1 DIV PUSH20 0xFFFFFFFFFFFFFFFFFFFFFFFFFFFFFFFFFFFFFFFF AND DUP2 JUMP JUMPDEST PUSH1 0x1 SLOAD DUP2 JUMP JUMPDEST PUSH1 0x1 SLOAD CALLVALUE GT PUSH2 0x165 JUMPI PUSH1 0x40 MLOAD PUSH32 0x8C379A000000000000000000000000000000000000000000000000000000000 DUP2 MSTORE PUSH1 0x4 ADD PUSH2 0x15C SWAP1 PUSH2 0x2B7 JUMP JUMPDEST PUSH1 0x40 MLOAD DUP1 SWAP2 SUB SWAP1 REVERT JUMPDEST CALLER PUSH0 DUP1 PUSH2 0x100 EXP DUP2 SLOAD DUP2 PUSH20 0xFFFFFFFFFFFFFFFFFFFFFFFFFFFFFFFFFFFFFFFF MUL NOT AND SWAP1 DUP4 PUSH20 0xFFFFFFFFFFFFFFFFFFFFFFFFFFFFFFFFFFFFFFFF AND MUL OR SWAP1 SSTORE POP CALLVALUE PUSH1 0x1 DUP2 SWAP1 SSTORE POP JUMP JUMPDEST PUSH0 PUSH20 0xFFFFFFFFFFFFFFFFFFFFFFFFFFFFFFFFFFFFFFFF DUP3 AND SWAP1 POP SWAP2 SWAP1 POP JUMP JUMPDEST PUSH0 PUSH2 0x1D6 DUP3 PUSH2 0x1AD JUMP JUMPDEST SWAP1 POP SWAP2 SWAP1 POP JUMP JUMPDEST PUSH2 0x1E6 DUP2 PUSH2 0x1CC JUMP JUMPDEST DUP3 MSTORE POP POP JUMP JUMPDEST PUSH0 DUP2 SWAP1 POP SWAP2 SWAP1 POP JUMP JUMPDEST PUSH2 0x1FE DUP2 PUSH2 0x1EC JUMP JUMPDEST DUP3 MSTORE POP POP JUMP JUMPDEST PUSH0 PUSH1 0x40 DUP3 ADD SWAP1 POP PUSH2 0x217 PUSH0 DUP4 ADD DUP6 PUSH2 0x1DD JUMP JUMPDEST PUSH2 0x224 PUSH1 0x20 DUP4 ADD DUP5 PUSH2 0x1F5 JUMP JUMPDEST SWAP4 SWAP3 POP POP POP JUMP JUMPDEST PUSH0 PUSH1 0x20 DUP3 ADD SWAP1 POP PUSH2 0x23E PUSH0 DUP4 ADD DUP5 PUSH2 0x1DD JUMP JUMPDEST SWAP3 SWAP2 POP POP JUMP JUMPDEST PUSH0 PUSH1 0x20 DUP3 ADD SWAP1 POP PUSH2 0x257 PUSH0 DUP4 ADD DUP5 PUSH2 0x1F5 JUMP JUMPDEST SWAP3 SWAP2 POP POP JUMP JUMPDEST PUSH0 DUP3 DUP3 MSTORE PUSH1 0x20 DUP3 ADD SWAP1 POP SWAP3 SWAP2 POP POP JUMP JUMPDEST PUSH32 0x42696420746F6F206C6F77000000000000000000000000000000000000000000 PUSH0 DUP3 ADD MSTORE POP JUMP JUMPDEST PUSH0 PUSH2 0x2A1 PUSH1 0xB DUP4 PUSH2 0x25D JUMP JUMPDEST SWAP2 POP PUSH2 0x2AC DUP3 PUSH2 0x26D JUMP JUMPDEST PUSH1 0x20 DUP3 ADD SWAP1 POP SWAP2 SWAP1 POP JUMP JUMPDEST PUSH0 PUSH1 0x20 DUP3 ADD SWAP1 POP DUP2 DUP2 SUB PUSH0 DUP4 ADD MSTORE PUSH2 0x2CE DUP2 PUSH2 0x295 JUMP JUMPDEST SWAP1 POP SWAP2 SWAP1 POP JUMP INVALID LOG2 PUSH5 0x6970667358 0x22 SLT KECCAK256 PUSH21 0xFFF28FF4FC1D2F682106F563D71F79A3325BD7662F PUSH28 0xAE4E0AF682EDE5785064736F6C634300081A00330000000000000000 "
				},
				"gasEstimates": {
					"creation": {
						"codeDepositCost": "155800",
						"executionCost": "200",
						"totalCost": "156000"
					},
					"external": {
						"getHighestBid()": "4703",
						"highestBid()": "2447",
						"highestBidder()": "2505",
						"placeBid()": "48663"
					}
				},
				"methodIdentifiers": {
					"getHighestBid()": "4979440a",
					"highestBid()": "d57bde79",
					"highestBidder()": "91f90157",
					"placeBid()": "ecfc7ecc"
				}
			},
			"storageLayout": {
				"storage": [
					{
						"astId": 3,
						"contract": "contracts/Blockchain_Assignment_5/Task_Codes/as5_task8.sol:Auction",
						"label": "highestBidder",
						"offset": 0,
						"slot": "0",
						"type": "t_address"
					},
					{
						"astId": 5,
						"contract": "contracts/Blockchain_Assignment_5/Task_Codes/as5_task8.sol:Auction",
						"label": "highestBid",
						"offset": 0,
						"slot": "1",
						"type": "t_uint256"
					}
				],
				"types": {
					"t_address": {
						"encoding": "inplace",
						"label": "address",
						"numberOfBytes": "20"
					},
					"t_uint256": {
						"encoding": "inplace",
						"label": "uint256",
						"numberOfBytes": "32"
					}
				}
			},
			"userdoc": {
				"kind": "user",
				"methods": {},
				"version": 1
			}
		}
	}
}