{
	"contracts/Blockchain_Assignment_5/Task_Codes/as5_task5.sol": {
		"FixedInterestSavings": {
			"abi": [
				{
					"inputs": [],
					"name": "deposit",
					"outputs": [],
					"stateMutability": "payable",
					"type": "function"
				},
				{
					"inputs": [
						{
							"internalType": "address",
							"name": "",
							"type": "address"
						}
					],
					"name": "deposits",
					"outputs": [
						{
							"internalType": "uint256",
							"name": "",
							"type": "uint256"
						}
					],
					"stateMutability": "view",
					"type": "function"
				},
				{
					"inputs": [],
					"name": "getContractBalance",
					"outputs": [
						{
							"internalType": "uint256",
							"name": "",
							"type": "uint256"
						}
					],
					"stateMutability": "view",
					"type": "function"
				},
				{
					"inputs": [],
					"name": "interestRate",
					"outputs": [
						{
							"internalType": "uint256",
							"name": "",
							"type": "uint256"
						}
					],
					"stateMutability": "view",
					"type": "function"
				},
				{
					"inputs": [],
					"name": "withdrawWithInterest",
					"outputs": [],
					"stateMutability": "nonpayable",
					"type": "function"
				}
			],
			"devdoc": {
				"kind": "dev",
				"methods": {},
				"version": 1
			},
			"evm": {
				"assembly": "    /* \"contracts/Blockchain_Assignment_5/Task_Codes/as5_task5.sol\":28:1484  contract FixedInterestSavings {... */\n  mstore(0x40, 0x80)\n  callvalue\n  dup1\n  iszero\n  tag_1\n  jumpi\n  0x00\n  dup1\n  revert\ntag_1:\n  pop\n  dataSize(sub_0)\n  dup1\n  dataOffset(sub_0)\n  0x00\n  codecopy\n  0x00\n  return\nstop\n\nsub_0: assembly {\n        /* \"contracts/Blockchain_Assignment_5/Task_Codes/as5_task5.sol\":28:1484  contract FixedInterestSavings {... */\n      mstore(0x40, 0x80)\n      jumpi(tag_1, lt(calldatasize, 0x04))\n      shr(0xe0, calldataload(0x00))\n      dup1\n      0x6f9fb98a\n      eq\n      tag_2\n      jumpi\n      dup1\n      0x7c3a00fd\n      eq\n      tag_3\n      jumpi\n      dup1\n      0x8bcdfe79\n      eq\n      tag_4\n      jumpi\n      dup1\n      0xd0e30db0\n      eq\n      tag_5\n      jumpi\n      dup1\n      0xfc7e286d\n      eq\n      tag_6\n      jumpi\n    tag_1:\n      0x00\n      dup1\n      revert\n        /* \"contracts/Blockchain_Assignment_5/Task_Codes/as5_task5.sol\":1374:1481  function getContractBalance() public view returns (uint256) {... */\n    tag_2:\n      callvalue\n      dup1\n      iszero\n      tag_7\n      jumpi\n      0x00\n      dup1\n      revert\n    tag_7:\n      pop\n      tag_8\n      tag_9\n      jump\t// in\n    tag_8:\n      mload(0x40)\n      tag_10\n      swap2\n      swap1\n      tag_11\n      jump\t// in\n    tag_10:\n      mload(0x40)\n      dup1\n      swap2\n      sub\n      swap1\n      return\n        /* \"contracts/Blockchain_Assignment_5/Task_Codes/as5_task5.sol\":208:248  uint256 public constant interestRate = 5 */\n    tag_3:\n      callvalue\n      dup1\n      iszero\n      tag_12\n      jumpi\n      0x00\n      dup1\n      revert\n    tag_12:\n      pop\n      tag_13\n      tag_14\n      jump\t// in\n    tag_13:\n      mload(0x40)\n      tag_15\n      swap2\n      swap1\n      tag_11\n      jump\t// in\n    tag_15:\n      mload(0x40)\n      dup1\n      swap2\n      sub\n      swap1\n      return\n        /* \"contracts/Blockchain_Assignment_5/Task_Codes/as5_task5.sol\":578:1294  function withdrawWithInterest() public {... */\n    tag_4:\n      callvalue\n      dup1\n      iszero\n      tag_16\n      jumpi\n      0x00\n      dup1\n      revert\n    tag_16:\n      pop\n      tag_17\n      tag_18\n      jump\t// in\n    tag_17:\n      stop\n        /* \"contracts/Blockchain_Assignment_5/Task_Codes/as5_task5.sol\":329:522  function deposit() public payable {... */\n    tag_5:\n      tag_19\n      tag_20\n      jump\t// in\n    tag_19:\n      stop\n        /* \"contracts/Blockchain_Assignment_5/Task_Codes/as5_task5.sol\":112:155  mapping(address => uint256) public deposits */\n    tag_6:\n      callvalue\n      dup1\n      iszero\n      tag_21\n      jumpi\n      0x00\n      dup1\n      revert\n    tag_21:\n      pop\n      tag_22\n      0x04\n      dup1\n      calldatasize\n      sub\n      dup2\n      add\n      swap1\n      tag_23\n      swap2\n      swap1\n      tag_24\n      jump\t// in\n    tag_23:\n      tag_25\n      jump\t// in\n    tag_22:\n      mload(0x40)\n      tag_26\n      swap2\n      swap1\n      tag_11\n      jump\t// in\n    tag_26:\n      mload(0x40)\n      dup1\n      swap2\n      sub\n      swap1\n      return\n        /* \"contracts/Blockchain_Assignment_5/Task_Codes/as5_task5.sol\":1374:1481  function getContractBalance() public view returns (uint256) {... */\n    tag_9:\n        /* \"contracts/Blockchain_Assignment_5/Task_Codes/as5_task5.sol\":1425:1432  uint256 */\n      0x00\n        /* \"contracts/Blockchain_Assignment_5/Task_Codes/as5_task5.sol\":1452:1473  address(this).balance */\n      selfbalance\n        /* \"contracts/Blockchain_Assignment_5/Task_Codes/as5_task5.sol\":1445:1473  return address(this).balance */\n      swap1\n      pop\n        /* \"contracts/Blockchain_Assignment_5/Task_Codes/as5_task5.sol\":1374:1481  function getContractBalance() public view returns (uint256) {... */\n      swap1\n      jump\t// out\n        /* \"contracts/Blockchain_Assignment_5/Task_Codes/as5_task5.sol\":208:248  uint256 public constant interestRate = 5 */\n    tag_14:\n        /* \"contracts/Blockchain_Assignment_5/Task_Codes/as5_task5.sol\":247:248  5 */\n      0x05\n        /* \"contracts/Blockchain_Assignment_5/Task_Codes/as5_task5.sol\":208:248  uint256 public constant interestRate = 5 */\n      dup2\n      jump\t// out\n        /* \"contracts/Blockchain_Assignment_5/Task_Codes/as5_task5.sol\":578:1294  function withdrawWithInterest() public {... */\n    tag_18:\n        /* \"contracts/Blockchain_Assignment_5/Task_Codes/as5_task5.sol\":628:645  uint256 principal */\n      0x00\n        /* \"contracts/Blockchain_Assignment_5/Task_Codes/as5_task5.sol\":648:656  deposits */\n      dup1\n        /* \"contracts/Blockchain_Assignment_5/Task_Codes/as5_task5.sol\":648:668  deposits[msg.sender] */\n      0x00\n        /* \"contracts/Blockchain_Assignment_5/Task_Codes/as5_task5.sol\":657:667  msg.sender */\n      caller\n        /* \"contracts/Blockchain_Assignment_5/Task_Codes/as5_task5.sol\":648:668  deposits[msg.sender] */\n      0xffffffffffffffffffffffffffffffffffffffff\n      and\n      0xffffffffffffffffffffffffffffffffffffffff\n      and\n      dup2\n      mstore\n      0x20\n      add\n      swap1\n      dup2\n      mstore\n      0x20\n      add\n      0x00\n      keccak256\n      sload\n        /* \"contracts/Blockchain_Assignment_5/Task_Codes/as5_task5.sol\":628:668  uint256 principal = deposits[msg.sender] */\n      swap1\n      pop\n        /* \"contracts/Blockchain_Assignment_5/Task_Codes/as5_task5.sol\":699:700  0 */\n      0x00\n        /* \"contracts/Blockchain_Assignment_5/Task_Codes/as5_task5.sol\":687:696  principal */\n      dup2\n        /* \"contracts/Blockchain_Assignment_5/Task_Codes/as5_task5.sol\":687:700  principal > 0 */\n      gt\n        /* \"contracts/Blockchain_Assignment_5/Task_Codes/as5_task5.sol\":679:725  require(principal > 0, \"No funds to withdraw\") */\n      tag_29\n      jumpi\n      mload(0x40)\n      0x08c379a000000000000000000000000000000000000000000000000000000000\n      dup2\n      mstore\n      0x04\n      add\n      tag_30\n      swap1\n      tag_31\n      jump\t// in\n    tag_30:\n      mload(0x40)\n      dup1\n      swap2\n      sub\n      swap1\n      revert\n    tag_29:\n        /* \"contracts/Blockchain_Assignment_5/Task_Codes/as5_task5.sol\":803:819  uint256 interest */\n      0x00\n        /* \"contracts/Blockchain_Assignment_5/Task_Codes/as5_task5.sol\":851:854  100 */\n      0x64\n        /* \"contracts/Blockchain_Assignment_5/Task_Codes/as5_task5.sol\":247:248  5 */\n      0x05\n        /* \"contracts/Blockchain_Assignment_5/Task_Codes/as5_task5.sol\":823:832  principal */\n      dup4\n        /* \"contracts/Blockchain_Assignment_5/Task_Codes/as5_task5.sol\":823:847  principal * interestRate */\n      tag_32\n      swap2\n      swap1\n      tag_33\n      jump\t// in\n    tag_32:\n        /* \"contracts/Blockchain_Assignment_5/Task_Codes/as5_task5.sol\":822:854  (principal * interestRate) / 100 */\n      tag_34\n      swap2\n      swap1\n      tag_35\n      jump\t// in\n    tag_34:\n        /* \"contracts/Blockchain_Assignment_5/Task_Codes/as5_task5.sol\":803:854  uint256 interest = (principal * interestRate) / 100 */\n      swap1\n      pop\n        /* \"contracts/Blockchain_Assignment_5/Task_Codes/as5_task5.sol\":927:946  uint256 totalAmount */\n      0x00\n        /* \"contracts/Blockchain_Assignment_5/Task_Codes/as5_task5.sol\":961:969  interest */\n      dup2\n        /* \"contracts/Blockchain_Assignment_5/Task_Codes/as5_task5.sol\":949:958  principal */\n      dup4\n        /* \"contracts/Blockchain_Assignment_5/Task_Codes/as5_task5.sol\":949:969  principal + interest */\n      tag_36\n      swap2\n      swap1\n      tag_37\n      jump\t// in\n    tag_36:\n        /* \"contracts/Blockchain_Assignment_5/Task_Codes/as5_task5.sol\":927:969  uint256 totalAmount = principal + interest */\n      swap1\n      pop\n        /* \"contracts/Blockchain_Assignment_5/Task_Codes/as5_task5.sol\":1068:1079  totalAmount */\n      dup1\n        /* \"contracts/Blockchain_Assignment_5/Task_Codes/as5_task5.sol\":1043:1064  address(this).balance */\n      selfbalance\n        /* \"contracts/Blockchain_Assignment_5/Task_Codes/as5_task5.sol\":1043:1079  address(this).balance >= totalAmount */\n      lt\n      iszero\n        /* \"contracts/Blockchain_Assignment_5/Task_Codes/as5_task5.sol\":1035:1104  require(address(this).balance >= totalAmount, \"Insufficient balance\") */\n      tag_38\n      jumpi\n      mload(0x40)\n      0x08c379a000000000000000000000000000000000000000000000000000000000\n      dup2\n      mstore\n      0x04\n      add\n      tag_39\n      swap1\n      tag_40\n      jump\t// in\n    tag_39:\n      mload(0x40)\n      dup1\n      swap2\n      sub\n      swap1\n      revert\n    tag_38:\n        /* \"contracts/Blockchain_Assignment_5/Task_Codes/as5_task5.sol\":1181:1182  0 */\n      0x00\n        /* \"contracts/Blockchain_Assignment_5/Task_Codes/as5_task5.sol\":1158:1166  deposits */\n      dup1\n        /* \"contracts/Blockchain_Assignment_5/Task_Codes/as5_task5.sol\":1158:1178  deposits[msg.sender] */\n      0x00\n        /* \"contracts/Blockchain_Assignment_5/Task_Codes/as5_task5.sol\":1167:1177  msg.sender */\n      caller\n        /* \"contracts/Blockchain_Assignment_5/Task_Codes/as5_task5.sol\":1158:1178  deposits[msg.sender] */\n      0xffffffffffffffffffffffffffffffffffffffff\n      and\n      0xffffffffffffffffffffffffffffffffffffffff\n      and\n      dup2\n      mstore\n      0x20\n      add\n      swap1\n      dup2\n      mstore\n      0x20\n      add\n      0x00\n      keccak256\n        /* \"contracts/Blockchain_Assignment_5/Task_Codes/as5_task5.sol\":1158:1182  deposits[msg.sender] = 0 */\n      dup2\n      swap1\n      sstore\n      pop\n        /* \"contracts/Blockchain_Assignment_5/Task_Codes/as5_task5.sol\":1253:1263  msg.sender */\n      caller\n        /* \"contracts/Blockchain_Assignment_5/Task_Codes/as5_task5.sol\":1245:1273  payable(msg.sender).transfer */\n      0xffffffffffffffffffffffffffffffffffffffff\n      and\n        /* \"contracts/Blockchain_Assignment_5/Task_Codes/as5_task5.sol\":1245:1286  payable(msg.sender).transfer(totalAmount) */\n      0x08fc\n        /* \"contracts/Blockchain_Assignment_5/Task_Codes/as5_task5.sol\":1274:1285  totalAmount */\n      dup3\n        /* \"contracts/Blockchain_Assignment_5/Task_Codes/as5_task5.sol\":1245:1286  payable(msg.sender).transfer(totalAmount) */\n      swap1\n      dup2\n      iszero\n      mul\n      swap1\n      mload(0x40)\n      0x00\n      mload(0x40)\n      dup1\n      dup4\n      sub\n      dup2\n      dup6\n      dup9\n      dup9\n      call\n      swap4\n      pop\n      pop\n      pop\n      pop\n      iszero\n      dup1\n      iszero\n      tag_42\n      jumpi\n      returndatasize\n      0x00\n      dup1\n      returndatacopy\n      revert(0x00, returndatasize)\n    tag_42:\n      pop\n        /* \"contracts/Blockchain_Assignment_5/Task_Codes/as5_task5.sol\":617:1294  {... */\n      pop\n      pop\n      pop\n        /* \"contracts/Blockchain_Assignment_5/Task_Codes/as5_task5.sol\":578:1294  function withdrawWithInterest() public {... */\n      jump\t// out\n        /* \"contracts/Blockchain_Assignment_5/Task_Codes/as5_task5.sol\":329:522  function deposit() public payable {... */\n    tag_20:\n        /* \"contracts/Blockchain_Assignment_5/Task_Codes/as5_task5.sol\":394:395  0 */\n      0x00\n        /* \"contracts/Blockchain_Assignment_5/Task_Codes/as5_task5.sol\":382:391  msg.value */\n      callvalue\n        /* \"contracts/Blockchain_Assignment_5/Task_Codes/as5_task5.sol\":382:395  msg.value > 0 */\n      gt\n        /* \"contracts/Blockchain_Assignment_5/Task_Codes/as5_task5.sol\":374:430  require(msg.value > 0, \"Deposit must be greater than 0\") */\n      tag_44\n      jumpi\n      mload(0x40)\n      0x08c379a000000000000000000000000000000000000000000000000000000000\n      dup2\n      mstore\n      0x04\n      add\n      tag_45\n      swap1\n      tag_46\n      jump\t// in\n    tag_45:\n      mload(0x40)\n      dup1\n      swap2\n      sub\n      swap1\n      revert\n    tag_44:\n        /* \"contracts/Blockchain_Assignment_5/Task_Codes/as5_task5.sol\":465:474  msg.value */\n      callvalue\n        /* \"contracts/Blockchain_Assignment_5/Task_Codes/as5_task5.sol\":441:449  deposits */\n      0x00\n        /* \"contracts/Blockchain_Assignment_5/Task_Codes/as5_task5.sol\":441:461  deposits[msg.sender] */\n      dup1\n        /* \"contracts/Blockchain_Assignment_5/Task_Codes/as5_task5.sol\":450:460  msg.sender */\n      caller\n        /* \"contracts/Blockchain_Assignment_5/Task_Codes/as5_task5.sol\":441:461  deposits[msg.sender] */\n      0xffffffffffffffffffffffffffffffffffffffff\n      and\n      0xffffffffffffffffffffffffffffffffffffffff\n      and\n      dup2\n      mstore\n      0x20\n      add\n      swap1\n      dup2\n      mstore\n      0x20\n      add\n      0x00\n      keccak256\n      0x00\n        /* \"contracts/Blockchain_Assignment_5/Task_Codes/as5_task5.sol\":441:474  deposits[msg.sender] += msg.value */\n      dup3\n      dup3\n      sload\n      tag_47\n      swap2\n      swap1\n      tag_37\n      jump\t// in\n    tag_47:\n      swap3\n      pop\n      pop\n      dup2\n      swap1\n      sstore\n      pop\n        /* \"contracts/Blockchain_Assignment_5/Task_Codes/as5_task5.sol\":329:522  function deposit() public payable {... */\n      jump\t// out\n        /* \"contracts/Blockchain_Assignment_5/Task_Codes/as5_task5.sol\":112:155  mapping(address => uint256) public deposits */\n    tag_25:\n      mstore(0x20, 0x00)\n      dup1\n      0x00\n      mstore\n      keccak256(0x00, 0x40)\n      0x00\n      swap2\n      pop\n      swap1\n      pop\n      sload\n      dup2\n      jump\t// out\n        /* \"#utility.yul\":7:84   */\n    tag_48:\n        /* \"#utility.yul\":44:51   */\n      0x00\n        /* \"#utility.yul\":73:78   */\n      dup2\n        /* \"#utility.yul\":62:78   */\n      swap1\n      pop\n        /* \"#utility.yul\":7:84   */\n      swap2\n      swap1\n      pop\n      jump\t// out\n        /* \"#utility.yul\":90:208   */\n    tag_49:\n        /* \"#utility.yul\":177:201   */\n      tag_69\n        /* \"#utility.yul\":195:200   */\n      dup2\n        /* \"#utility.yul\":177:201   */\n      tag_48\n      jump\t// in\n    tag_69:\n        /* \"#utility.yul\":172:175   */\n      dup3\n        /* \"#utility.yul\":165:202   */\n      mstore\n        /* \"#utility.yul\":90:208   */\n      pop\n      pop\n      jump\t// out\n        /* \"#utility.yul\":214:436   */\n    tag_11:\n        /* \"#utility.yul\":307:311   */\n      0x00\n        /* \"#utility.yul\":345:347   */\n      0x20\n        /* \"#utility.yul\":334:343   */\n      dup3\n        /* \"#utility.yul\":330:348   */\n      add\n        /* \"#utility.yul\":322:348   */\n      swap1\n      pop\n        /* \"#utility.yul\":358:429   */\n      tag_71\n        /* \"#utility.yul\":426:427   */\n      0x00\n        /* \"#utility.yul\":415:424   */\n      dup4\n        /* \"#utility.yul\":411:428   */\n      add\n        /* \"#utility.yul\":402:408   */\n      dup5\n        /* \"#utility.yul\":358:429   */\n      tag_49\n      jump\t// in\n    tag_71:\n        /* \"#utility.yul\":214:436   */\n      swap3\n      swap2\n      pop\n      pop\n      jump\t// out\n        /* \"#utility.yul\":523:640   */\n    tag_51:\n        /* \"#utility.yul\":632:633   */\n      0x00\n        /* \"#utility.yul\":629:630   */\n      dup1\n        /* \"#utility.yul\":622:634   */\n      revert\n        /* \"#utility.yul\":769:895   */\n    tag_53:\n        /* \"#utility.yul\":806:813   */\n      0x00\n        /* \"#utility.yul\":846:888   */\n      0xffffffffffffffffffffffffffffffffffffffff\n        /* \"#utility.yul\":839:844   */\n      dup3\n        /* \"#utility.yul\":835:889   */\n      and\n        /* \"#utility.yul\":824:889   */\n      swap1\n      pop\n        /* \"#utility.yul\":769:895   */\n      swap2\n      swap1\n      pop\n      jump\t// out\n        /* \"#utility.yul\":901:997   */\n    tag_54:\n        /* \"#utility.yul\":938:945   */\n      0x00\n        /* \"#utility.yul\":967:991   */\n      tag_77\n        /* \"#utility.yul\":985:990   */\n      dup3\n        /* \"#utility.yul\":967:991   */\n      tag_53\n      jump\t// in\n    tag_77:\n        /* \"#utility.yul\":956:991   */\n      swap1\n      pop\n        /* \"#utility.yul\":901:997   */\n      swap2\n      swap1\n      pop\n      jump\t// out\n        /* \"#utility.yul\":1003:1125   */\n    tag_55:\n        /* \"#utility.yul\":1076:1100   */\n      tag_79\n        /* \"#utility.yul\":1094:1099   */\n      dup2\n        /* \"#utility.yul\":1076:1100   */\n      tag_54\n      jump\t// in\n    tag_79:\n        /* \"#utility.yul\":1069:1074   */\n      dup2\n        /* \"#utility.yul\":1066:1101   */\n      eq\n        /* \"#utility.yul\":1056:1119   */\n      tag_80\n      jumpi\n        /* \"#utility.yul\":1115:1116   */\n      0x00\n        /* \"#utility.yul\":1112:1113   */\n      dup1\n        /* \"#utility.yul\":1105:1117   */\n      revert\n        /* \"#utility.yul\":1056:1119   */\n    tag_80:\n        /* \"#utility.yul\":1003:1125   */\n      pop\n      jump\t// out\n        /* \"#utility.yul\":1131:1270   */\n    tag_56:\n        /* \"#utility.yul\":1177:1182   */\n      0x00\n        /* \"#utility.yul\":1215:1221   */\n      dup2\n        /* \"#utility.yul\":1202:1222   */\n      calldataload\n        /* \"#utility.yul\":1193:1222   */\n      swap1\n      pop\n        /* \"#utility.yul\":1231:1264   */\n      tag_82\n        /* \"#utility.yul\":1258:1263   */\n      dup2\n        /* \"#utility.yul\":1231:1264   */\n      tag_55\n      jump\t// in\n    tag_82:\n        /* \"#utility.yul\":1131:1270   */\n      swap3\n      swap2\n      pop\n      pop\n      jump\t// out\n        /* \"#utility.yul\":1276:1605   */\n    tag_24:\n        /* \"#utility.yul\":1335:1341   */\n      0x00\n        /* \"#utility.yul\":1384:1386   */\n      0x20\n        /* \"#utility.yul\":1372:1381   */\n      dup3\n        /* \"#utility.yul\":1363:1370   */\n      dup5\n        /* \"#utility.yul\":1359:1382   */\n      sub\n        /* \"#utility.yul\":1355:1387   */\n      slt\n        /* \"#utility.yul\":1352:1471   */\n      iszero\n      tag_84\n      jumpi\n        /* \"#utility.yul\":1390:1469   */\n      tag_85\n      tag_51\n      jump\t// in\n    tag_85:\n        /* \"#utility.yul\":1352:1471   */\n    tag_84:\n        /* \"#utility.yul\":1510:1511   */\n      0x00\n        /* \"#utility.yul\":1535:1588   */\n      tag_86\n        /* \"#utility.yul\":1580:1587   */\n      dup5\n        /* \"#utility.yul\":1571:1577   */\n      dup3\n        /* \"#utility.yul\":1560:1569   */\n      dup6\n        /* \"#utility.yul\":1556:1578   */\n      add\n        /* \"#utility.yul\":1535:1588   */\n      tag_56\n      jump\t// in\n    tag_86:\n        /* \"#utility.yul\":1525:1588   */\n      swap2\n      pop\n        /* \"#utility.yul\":1481:1598   */\n      pop\n        /* \"#utility.yul\":1276:1605   */\n      swap3\n      swap2\n      pop\n      pop\n      jump\t// out\n        /* \"#utility.yul\":1611:1780   */\n    tag_57:\n        /* \"#utility.yul\":1695:1706   */\n      0x00\n        /* \"#utility.yul\":1729:1735   */\n      dup3\n        /* \"#utility.yul\":1724:1727   */\n      dup3\n        /* \"#utility.yul\":1717:1736   */\n      mstore\n        /* \"#utility.yul\":1769:1773   */\n      0x20\n        /* \"#utility.yul\":1764:1767   */\n      dup3\n        /* \"#utility.yul\":1760:1774   */\n      add\n        /* \"#utility.yul\":1745:1774   */\n      swap1\n      pop\n        /* \"#utility.yul\":1611:1780   */\n      swap3\n      swap2\n      pop\n      pop\n      jump\t// out\n        /* \"#utility.yul\":1786:1956   */\n    tag_58:\n        /* \"#utility.yul\":1926:1948   */\n      0x4e6f2066756e647320746f207769746864726177000000000000000000000000\n        /* \"#utility.yul\":1922:1923   */\n      0x00\n        /* \"#utility.yul\":1914:1920   */\n      dup3\n        /* \"#utility.yul\":1910:1924   */\n      add\n        /* \"#utility.yul\":1903:1949   */\n      mstore\n        /* \"#utility.yul\":1786:1956   */\n      pop\n      jump\t// out\n        /* \"#utility.yul\":1962:2328   */\n    tag_59:\n        /* \"#utility.yul\":2104:2107   */\n      0x00\n        /* \"#utility.yul\":2125:2192   */\n      tag_90\n        /* \"#utility.yul\":2189:2191   */\n      0x14\n        /* \"#utility.yul\":2184:2187   */\n      dup4\n        /* \"#utility.yul\":2125:2192   */\n      tag_57\n      jump\t// in\n    tag_90:\n        /* \"#utility.yul\":2118:2192   */\n      swap2\n      pop\n        /* \"#utility.yul\":2201:2294   */\n      tag_91\n        /* \"#utility.yul\":2290:2293   */\n      dup3\n        /* \"#utility.yul\":2201:2294   */\n      tag_58\n      jump\t// in\n    tag_91:\n        /* \"#utility.yul\":2319:2321   */\n      0x20\n        /* \"#utility.yul\":2314:2317   */\n      dup3\n        /* \"#utility.yul\":2310:2322   */\n      add\n        /* \"#utility.yul\":2303:2322   */\n      swap1\n      pop\n        /* \"#utility.yul\":1962:2328   */\n      swap2\n      swap1\n      pop\n      jump\t// out\n        /* \"#utility.yul\":2334:2753   */\n    tag_31:\n        /* \"#utility.yul\":2500:2504   */\n      0x00\n        /* \"#utility.yul\":2538:2540   */\n      0x20\n        /* \"#utility.yul\":2527:2536   */\n      dup3\n        /* \"#utility.yul\":2523:2541   */\n      add\n        /* \"#utility.yul\":2515:2541   */\n      swap1\n      pop\n        /* \"#utility.yul\":2587:2596   */\n      dup2\n        /* \"#utility.yul\":2581:2585   */\n      dup2\n        /* \"#utility.yul\":2577:2597   */\n      sub\n        /* \"#utility.yul\":2573:2574   */\n      0x00\n        /* \"#utility.yul\":2562:2571   */\n      dup4\n        /* \"#utility.yul\":2558:2575   */\n      add\n        /* \"#utility.yul\":2551:2598   */\n      mstore\n        /* \"#utility.yul\":2615:2746   */\n      tag_93\n        /* \"#utility.yul\":2741:2745   */\n      dup2\n        /* \"#utility.yul\":2615:2746   */\n      tag_59\n      jump\t// in\n    tag_93:\n        /* \"#utility.yul\":2607:2746   */\n      swap1\n      pop\n        /* \"#utility.yul\":2334:2753   */\n      swap2\n      swap1\n      pop\n      jump\t// out\n        /* \"#utility.yul\":2759:2939   */\n    tag_60:\n        /* \"#utility.yul\":2807:2884   */\n      0x4e487b7100000000000000000000000000000000000000000000000000000000\n        /* \"#utility.yul\":2804:2805   */\n      0x00\n        /* \"#utility.yul\":2797:2885   */\n      mstore\n        /* \"#utility.yul\":2904:2908   */\n      0x11\n        /* \"#utility.yul\":2901:2902   */\n      0x04\n        /* \"#utility.yul\":2894:2909   */\n      mstore\n        /* \"#utility.yul\":2928:2932   */\n      0x24\n        /* \"#utility.yul\":2925:2926   */\n      0x00\n        /* \"#utility.yul\":2918:2933   */\n      revert\n        /* \"#utility.yul\":2945:3355   */\n    tag_33:\n        /* \"#utility.yul\":2985:2992   */\n      0x00\n        /* \"#utility.yul\":3008:3028   */\n      tag_96\n        /* \"#utility.yul\":3026:3027   */\n      dup3\n        /* \"#utility.yul\":3008:3028   */\n      tag_48\n      jump\t// in\n    tag_96:\n        /* \"#utility.yul\":3003:3028   */\n      swap2\n      pop\n        /* \"#utility.yul\":3042:3062   */\n      tag_97\n        /* \"#utility.yul\":3060:3061   */\n      dup4\n        /* \"#utility.yul\":3042:3062   */\n      tag_48\n      jump\t// in\n    tag_97:\n        /* \"#utility.yul\":3037:3062   */\n      swap3\n      pop\n        /* \"#utility.yul\":3097:3098   */\n      dup3\n        /* \"#utility.yul\":3094:3095   */\n      dup3\n        /* \"#utility.yul\":3090:3099   */\n      mul\n        /* \"#utility.yul\":3119:3149   */\n      tag_98\n        /* \"#utility.yul\":3137:3148   */\n      dup2\n        /* \"#utility.yul\":3119:3149   */\n      tag_48\n      jump\t// in\n    tag_98:\n        /* \"#utility.yul\":3108:3149   */\n      swap2\n      pop\n        /* \"#utility.yul\":3298:3299   */\n      dup3\n        /* \"#utility.yul\":3289:3296   */\n      dup3\n        /* \"#utility.yul\":3285:3300   */\n      div\n        /* \"#utility.yul\":3282:3283   */\n      dup5\n        /* \"#utility.yul\":3279:3301   */\n      eq\n        /* \"#utility.yul\":3259:3260   */\n      dup4\n        /* \"#utility.yul\":3252:3261   */\n      iszero\n        /* \"#utility.yul\":3232:3315   */\n      or\n        /* \"#utility.yul\":3209:3348   */\n      tag_99\n      jumpi\n        /* \"#utility.yul\":3328:3346   */\n      tag_100\n      tag_60\n      jump\t// in\n    tag_100:\n        /* \"#utility.yul\":3209:3348   */\n    tag_99:\n        /* \"#utility.yul\":2993:3355   */\n      pop\n        /* \"#utility.yul\":2945:3355   */\n      swap3\n      swap2\n      pop\n      pop\n      jump\t// out\n        /* \"#utility.yul\":3361:3541   */\n    tag_61:\n        /* \"#utility.yul\":3409:3486   */\n      0x4e487b7100000000000000000000000000000000000000000000000000000000\n        /* \"#utility.yul\":3406:3407   */\n      0x00\n        /* \"#utility.yul\":3399:3487   */\n      mstore\n        /* \"#utility.yul\":3506:3510   */\n      0x12\n        /* \"#utility.yul\":3503:3504   */\n      0x04\n        /* \"#utility.yul\":3496:3511   */\n      mstore\n        /* \"#utility.yul\":3530:3534   */\n      0x24\n        /* \"#utility.yul\":3527:3528   */\n      0x00\n        /* \"#utility.yul\":3520:3535   */\n      revert\n        /* \"#utility.yul\":3547:3732   */\n    tag_35:\n        /* \"#utility.yul\":3587:3588   */\n      0x00\n        /* \"#utility.yul\":3604:3624   */\n      tag_103\n        /* \"#utility.yul\":3622:3623   */\n      dup3\n        /* \"#utility.yul\":3604:3624   */\n      tag_48\n      jump\t// in\n    tag_103:\n        /* \"#utility.yul\":3599:3624   */\n      swap2\n      pop\n        /* \"#utility.yul\":3638:3658   */\n      tag_104\n        /* \"#utility.yul\":3656:3657   */\n      dup4\n        /* \"#utility.yul\":3638:3658   */\n      tag_48\n      jump\t// in\n    tag_104:\n        /* \"#utility.yul\":3633:3658   */\n      swap3\n      pop\n        /* \"#utility.yul\":3677:3678   */\n      dup3\n        /* \"#utility.yul\":3667:3702   */\n      tag_105\n      jumpi\n        /* \"#utility.yul\":3682:3700   */\n      tag_106\n      tag_61\n      jump\t// in\n    tag_106:\n        /* \"#utility.yul\":3667:3702   */\n    tag_105:\n        /* \"#utility.yul\":3724:3725   */\n      dup3\n        /* \"#utility.yul\":3721:3722   */\n      dup3\n        /* \"#utility.yul\":3717:3726   */\n      div\n        /* \"#utility.yul\":3712:3726   */\n      swap1\n      pop\n        /* \"#utility.yul\":3547:3732   */\n      swap3\n      swap2\n      pop\n      pop\n      jump\t// out\n        /* \"#utility.yul\":3738:3929   */\n    tag_37:\n        /* \"#utility.yul\":3778:3781   */\n      0x00\n        /* \"#utility.yul\":3797:3817   */\n      tag_108\n        /* \"#utility.yul\":3815:3816   */\n      dup3\n        /* \"#utility.yul\":3797:3817   */\n      tag_48\n      jump\t// in\n    tag_108:\n        /* \"#utility.yul\":3792:3817   */\n      swap2\n      pop\n        /* \"#utility.yul\":3831:3851   */\n      tag_109\n        /* \"#utility.yul\":3849:3850   */\n      dup4\n        /* \"#utility.yul\":3831:3851   */\n      tag_48\n      jump\t// in\n    tag_109:\n        /* \"#utility.yul\":3826:3851   */\n      swap3\n      pop\n        /* \"#utility.yul\":3874:3875   */\n      dup3\n        /* \"#utility.yul\":3871:3872   */\n      dup3\n        /* \"#utility.yul\":3867:3876   */\n      add\n        /* \"#utility.yul\":3860:3876   */\n      swap1\n      pop\n        /* \"#utility.yul\":3895:3898   */\n      dup1\n        /* \"#utility.yul\":3892:3893   */\n      dup3\n        /* \"#utility.yul\":3889:3899   */\n      gt\n        /* \"#utility.yul\":3886:3922   */\n      iszero\n      tag_110\n      jumpi\n        /* \"#utility.yul\":3902:3920   */\n      tag_111\n      tag_60\n      jump\t// in\n    tag_111:\n        /* \"#utility.yul\":3886:3922   */\n    tag_110:\n        /* \"#utility.yul\":3738:3929   */\n      swap3\n      swap2\n      pop\n      pop\n      jump\t// out\n        /* \"#utility.yul\":3935:4105   */\n    tag_62:\n        /* \"#utility.yul\":4075:4097   */\n      0x496e73756666696369656e742062616c616e6365000000000000000000000000\n        /* \"#utility.yul\":4071:4072   */\n      0x00\n        /* \"#utility.yul\":4063:4069   */\n      dup3\n        /* \"#utility.yul\":4059:4073   */\n      add\n        /* \"#utility.yul\":4052:4098   */\n      mstore\n        /* \"#utility.yul\":3935:4105   */\n      pop\n      jump\t// out\n        /* \"#utility.yul\":4111:4477   */\n    tag_63:\n        /* \"#utility.yul\":4253:4256   */\n      0x00\n        /* \"#utility.yul\":4274:4341   */\n      tag_114\n        /* \"#utility.yul\":4338:4340   */\n      0x14\n        /* \"#utility.yul\":4333:4336   */\n      dup4\n        /* \"#utility.yul\":4274:4341   */\n      tag_57\n      jump\t// in\n    tag_114:\n        /* \"#utility.yul\":4267:4341   */\n      swap2\n      pop\n        /* \"#utility.yul\":4350:4443   */\n      tag_115\n        /* \"#utility.yul\":4439:4442   */\n      dup3\n        /* \"#utility.yul\":4350:4443   */\n      tag_62\n      jump\t// in\n    tag_115:\n        /* \"#utility.yul\":4468:4470   */\n      0x20\n        /* \"#utility.yul\":4463:4466   */\n      dup3\n        /* \"#utility.yul\":4459:4471   */\n      add\n        /* \"#utility.yul\":4452:4471   */\n      swap1\n      pop\n        /* \"#utility.yul\":4111:4477   */\n      swap2\n      swap1\n      pop\n      jump\t// out\n        /* \"#utility.yul\":4483:4902   */\n    tag_40:\n        /* \"#utility.yul\":4649:4653   */\n      0x00\n        /* \"#utility.yul\":4687:4689   */\n      0x20\n        /* \"#utility.yul\":4676:4685   */\n      dup3\n        /* \"#utility.yul\":4672:4690   */\n      add\n        /* \"#utility.yul\":4664:4690   */\n      swap1\n      pop\n        /* \"#utility.yul\":4736:4745   */\n      dup2\n        /* \"#utility.yul\":4730:4734   */\n      dup2\n        /* \"#utility.yul\":4726:4746   */\n      sub\n        /* \"#utility.yul\":4722:4723   */\n      0x00\n        /* \"#utility.yul\":4711:4720   */\n      dup4\n        /* \"#utility.yul\":4707:4724   */\n      add\n        /* \"#utility.yul\":4700:4747   */\n      mstore\n        /* \"#utility.yul\":4764:4895   */\n      tag_117\n        /* \"#utility.yul\":4890:4894   */\n      dup2\n        /* \"#utility.yul\":4764:4895   */\n      tag_63\n      jump\t// in\n    tag_117:\n        /* \"#utility.yul\":4756:4895   */\n      swap1\n      pop\n        /* \"#utility.yul\":4483:4902   */\n      swap2\n      swap1\n      pop\n      jump\t// out\n        /* \"#utility.yul\":4908:5088   */\n    tag_64:\n        /* \"#utility.yul\":5048:5080   */\n      0x4465706f736974206d7573742062652067726561746572207468616e20300000\n        /* \"#utility.yul\":5044:5045   */\n      0x00\n        /* \"#utility.yul\":5036:5042   */\n      dup3\n        /* \"#utility.yul\":5032:5046   */\n      add\n        /* \"#utility.yul\":5025:5081   */\n      mstore\n        /* \"#utility.yul\":4908:5088   */\n      pop\n      jump\t// out\n        /* \"#utility.yul\":5094:5460   */\n    tag_65:\n        /* \"#utility.yul\":5236:5239   */\n      0x00\n        /* \"#utility.yul\":5257:5324   */\n      tag_120\n        /* \"#utility.yul\":5321:5323   */\n      0x1e\n        /* \"#utility.yul\":5316:5319   */\n      dup4\n        /* \"#utility.yul\":5257:5324   */\n      tag_57\n      jump\t// in\n    tag_120:\n        /* \"#utility.yul\":5250:5324   */\n      swap2\n      pop\n        /* \"#utility.yul\":5333:5426   */\n      tag_121\n        /* \"#utility.yul\":5422:5425   */\n      dup3\n        /* \"#utility.yul\":5333:5426   */\n      tag_64\n      jump\t// in\n    tag_121:\n        /* \"#utility.yul\":5451:5453   */\n      0x20\n        /* \"#utility.yul\":5446:5449   */\n      dup3\n        /* \"#utility.yul\":5442:5454   */\n      add\n        /* \"#utility.yul\":5435:5454   */\n      swap1\n      pop\n        /* \"#utility.yul\":5094:5460   */\n      swap2\n      swap1\n      pop\n      jump\t// out\n        /* \"#utility.yul\":5466:5885   */\n    tag_46:\n        /* \"#utility.yul\":5632:5636   */\n      0x00\n        /* \"#utility.yul\":5670:5672   */\n      0x20\n        /* \"#utility.yul\":5659:5668   */\n      dup3\n        /* \"#utility.yul\":5655:5673   */\n      add\n        /* \"#utility.yul\":5647:5673   */\n      swap1\n      pop\n        /* \"#utility.yul\":5719:5728   */\n      dup2\n        /* \"#utility.yul\":5713:5717   */\n      dup2\n        /* \"#utility.yul\":5709:5729   */\n      sub\n        /* \"#utility.yul\":5705:5706   */\n      0x00\n        /* \"#utility.yul\":5694:5703   */\n      dup4\n        /* \"#utility.yul\":5690:5707   */\n      add\n        /* \"#utility.yul\":5683:5730   */\n      mstore\n        /* \"#utility.yul\":5747:5878   */\n      tag_123\n        /* \"#utility.yul\":5873:5877   */\n      dup2\n        /* \"#utility.yul\":5747:5878   */\n      tag_65\n      jump\t// in\n    tag_123:\n        /* \"#utility.yul\":5739:5878   */\n      swap1\n      pop\n        /* \"#utility.yul\":5466:5885   */\n      swap2\n      swap1\n      pop\n      jump\t// out\n\n    auxdata: 0xa2646970667358221220453eca3853d47fb6b7f887d4e44da7d84c0fa5b1711d011a047f39b06ecc07db64736f6c634300081a0033\n}\n",
				"bytecode": {
					"linkReferences": {},
					"object": "6080604052348015600e575f80fd5b506106638061001c5f395ff3fe608060405260043610610049575f3560e01c80636f9fb98a1461004d5780637c3a00fd146100775780638bcdfe79146100a1578063d0e30db0146100b7578063fc7e286d146100c1575b5f80fd5b348015610058575f80fd5b506100616100fd565b60405161006e9190610345565b60405180910390f35b348015610082575f80fd5b5061008b610104565b6040516100989190610345565b60405180910390f35b3480156100ac575f80fd5b506100b5610109565b005b6100bf610283565b005b3480156100cc575f80fd5b506100e760048036038101906100e291906103bc565b610319565b6040516100f49190610345565b60405180910390f35b5f47905090565b600581565b5f805f3373ffffffffffffffffffffffffffffffffffffffff1673ffffffffffffffffffffffffffffffffffffffff1681526020019081526020015f205490505f811161018b576040517f08c379a000000000000000000000000000000000000000000000000000000000815260040161018290610441565b60405180910390fd5b5f606460058361019b919061048c565b6101a591906104fa565b90505f81836101b4919061052a565b9050804710156101f9576040517f08c379a00000000000000000000000000000000000000000000000000000000081526004016101f0906105a7565b60405180910390fd5b5f805f3373ffffffffffffffffffffffffffffffffffffffff1673ffffffffffffffffffffffffffffffffffffffff1681526020019081526020015f20819055503373ffffffffffffffffffffffffffffffffffffffff166108fc8290811502906040515f60405180830381858888f1935050505015801561027d573d5f803e3d5ffd5b50505050565b5f34116102c5576040517f08c379a00000000000000000000000000000000000000000000000000000000081526004016102bc9061060f565b60405180910390fd5b345f803373ffffffffffffffffffffffffffffffffffffffff1673ffffffffffffffffffffffffffffffffffffffff1681526020019081526020015f205f828254610310919061052a565b92505081905550565b5f602052805f5260405f205f915090505481565b5f819050919050565b61033f8161032d565b82525050565b5f6020820190506103585f830184610336565b92915050565b5f80fd5b5f73ffffffffffffffffffffffffffffffffffffffff82169050919050565b5f61038b82610362565b9050919050565b61039b81610381565b81146103a5575f80fd5b50565b5f813590506103b681610392565b92915050565b5f602082840312156103d1576103d061035e565b5b5f6103de848285016103a8565b91505092915050565b5f82825260208201905092915050565b7f4e6f2066756e647320746f2077697468647261770000000000000000000000005f82015250565b5f61042b6014836103e7565b9150610436826103f7565b602082019050919050565b5f6020820190508181035f8301526104588161041f565b9050919050565b7f4e487b71000000000000000000000000000000000000000000000000000000005f52601160045260245ffd5b5f6104968261032d565b91506104a18361032d565b92508282026104af8161032d565b915082820484148315176104c6576104c561045f565b5b5092915050565b7f4e487b71000000000000000000000000000000000000000000000000000000005f52601260045260245ffd5b5f6105048261032d565b915061050f8361032d565b92508261051f5761051e6104cd565b5b828204905092915050565b5f6105348261032d565b915061053f8361032d565b92508282019050808211156105575761055661045f565b5b92915050565b7f496e73756666696369656e742062616c616e63650000000000000000000000005f82015250565b5f6105916014836103e7565b915061059c8261055d565b602082019050919050565b5f6020820190508181035f8301526105be81610585565b9050919050565b7f4465706f736974206d7573742062652067726561746572207468616e203000005f82015250565b5f6105f9601e836103e7565b9150610604826105c5565b602082019050919050565b5f6020820190508181035f830152610626816105ed565b905091905056fea2646970667358221220453eca3853d47fb6b7f887d4e44da7d84c0fa5b1711d011a047f39b06ecc07db64736f6c634300081a0033",
					"opcodes": "PUSH1 0x80 PUSH1 0x40 MSTORE CALLVALUE DUP1 ISZERO PUSH1 0xE JUMPI PUSH0 DUP1 REVERT JUMPDEST POP PUSH2 0x663 DUP1 PUSH2 0x1C PUSH0 CODECOPY PUSH0 RETURN INVALID PUSH1 0x80 PUSH1 0x40 MSTORE PUSH1 0x4 CALLDATASIZE LT PUSH2 0x49 JUMPI PUSH0 CALLDATALOAD PUSH1 0xE0 SHR DUP1 PUSH4 0x6F9FB98A EQ PUSH2 0x4D JUMPI DUP1 PUSH4 0x7C3A00FD EQ PUSH2 0x77 JUMPI DUP1 PUSH4 0x8BCDFE79 EQ PUSH2 0xA1 JUMPI DUP1 PUSH4 0xD0E30DB0 EQ PUSH2 0xB7 JUMPI DUP1 PUSH4 0xFC7E286D EQ PUSH2 0xC1 JUMPI JUMPDEST PUSH0 DUP1 REVERT JUMPDEST CALLVALUE DUP1 ISZERO PUSH2 0x58 JUMPI PUSH0 DUP1 REVERT JUMPDEST POP PUSH2 0x61 PUSH2 0xFD JUMP JUMPDEST PUSH1 0x40 MLOAD PUSH2 0x6E SWAP2 SWAP1 PUSH2 0x345 JUMP JUMPDEST PUSH1 0x40 MLOAD DUP1 SWAP2 SUB SWAP1 RETURN JUMPDEST CALLVALUE DUP1 ISZERO PUSH2 0x82 JUMPI PUSH0 DUP1 REVERT JUMPDEST POP PUSH2 0x8B PUSH2 0x104 JUMP JUMPDEST PUSH1 0x40 MLOAD PUSH2 0x98 SWAP2 SWAP1 PUSH2 0x345 JUMP JUMPDEST PUSH1 0x40 MLOAD DUP1 SWAP2 SUB SWAP1 RETURN JUMPDEST CALLVALUE DUP1 ISZERO PUSH2 0xAC JUMPI PUSH0 DUP1 REVERT JUMPDEST POP PUSH2 0xB5 PUSH2 0x109 JUMP JUMPDEST STOP JUMPDEST PUSH2 0xBF PUSH2 0x283 JUMP JUMPDEST STOP JUMPDEST CALLVALUE DUP1 ISZERO PUSH2 0xCC JUMPI PUSH0 DUP1 REVERT JUMPDEST POP PUSH2 0xE7 PUSH1 0x4 DUP1 CALLDATASIZE SUB DUP2 ADD SWAP1 PUSH2 0xE2 SWAP2 SWAP1 PUSH2 0x3BC JUMP JUMPDEST PUSH2 0x319 JUMP JUMPDEST PUSH1 0x40 MLOAD PUSH2 0xF4 SWAP2 SWAP1 PUSH2 0x345 JUMP JUMPDEST PUSH1 0x40 MLOAD DUP1 SWAP2 SUB SWAP1 RETURN JUMPDEST PUSH0 SELFBALANCE SWAP1 POP SWAP1 JUMP JUMPDEST PUSH1 0x5 DUP2 JUMP JUMPDEST PUSH0 DUP1 PUSH0 CALLER PUSH20 0xFFFFFFFFFFFFFFFFFFFFFFFFFFFFFFFFFFFFFFFF AND PUSH20 0xFFFFFFFFFFFFFFFFFFFFFFFFFFFFFFFFFFFFFFFF AND DUP2 MSTORE PUSH1 0x20 ADD SWAP1 DUP2 MSTORE PUSH1 0x20 ADD PUSH0 KECCAK256 SLOAD SWAP1 POP PUSH0 DUP2 GT PUSH2 0x18B JUMPI PUSH1 0x40 MLOAD PUSH32 0x8C379A000000000000000000000000000000000000000000000000000000000 DUP2 MSTORE PUSH1 0x4 ADD PUSH2 0x182 SWAP1 PUSH2 0x441 JUMP JUMPDEST PUSH1 0x40 MLOAD DUP1 SWAP2 SUB SWAP1 REVERT JUMPDEST PUSH0 PUSH1 0x64 PUSH1 0x5 DUP4 PUSH2 0x19B SWAP2 SWAP1 PUSH2 0x48C JUMP JUMPDEST PUSH2 0x1A5 SWAP2 SWAP1 PUSH2 0x4FA JUMP JUMPDEST SWAP1 POP PUSH0 DUP2 DUP4 PUSH2 0x1B4 SWAP2 SWAP1 PUSH2 0x52A JUMP JUMPDEST SWAP1 POP DUP1 SELFBALANCE LT ISZERO PUSH2 0x1F9 JUMPI PUSH1 0x40 MLOAD PUSH32 0x8C379A000000000000000000000000000000000000000000000000000000000 DUP2 MSTORE PUSH1 0x4 ADD PUSH2 0x1F0 SWAP1 PUSH2 0x5A7 JUMP JUMPDEST PUSH1 0x40 MLOAD DUP1 SWAP2 SUB SWAP1 REVERT JUMPDEST PUSH0 DUP1 PUSH0 CALLER PUSH20 0xFFFFFFFFFFFFFFFFFFFFFFFFFFFFFFFFFFFFFFFF AND PUSH20 0xFFFFFFFFFFFFFFFFFFFFFFFFFFFFFFFFFFFFFFFF AND DUP2 MSTORE PUSH1 0x20 ADD SWAP1 DUP2 MSTORE PUSH1 0x20 ADD PUSH0 KECCAK256 DUP2 SWAP1 SSTORE POP CALLER PUSH20 0xFFFFFFFFFFFFFFFFFFFFFFFFFFFFFFFFFFFFFFFF AND PUSH2 0x8FC DUP3 SWAP1 DUP2 ISZERO MUL SWAP1 PUSH1 0x40 MLOAD PUSH0 PUSH1 0x40 MLOAD DUP1 DUP4 SUB DUP2 DUP6 DUP9 DUP9 CALL SWAP4 POP POP POP POP ISZERO DUP1 ISZERO PUSH2 0x27D JUMPI RETURNDATASIZE PUSH0 DUP1 RETURNDATACOPY RETURNDATASIZE PUSH0 REVERT JUMPDEST POP POP POP POP JUMP JUMPDEST PUSH0 CALLVALUE GT PUSH2 0x2C5 JUMPI PUSH1 0x40 MLOAD PUSH32 0x8C379A000000000000000000000000000000000000000000000000000000000 DUP2 MSTORE PUSH1 0x4 ADD PUSH2 0x2BC SWAP1 PUSH2 0x60F JUMP JUMPDEST PUSH1 0x40 MLOAD DUP1 SWAP2 SUB SWAP1 REVERT JUMPDEST CALLVALUE PUSH0 DUP1 CALLER PUSH20 0xFFFFFFFFFFFFFFFFFFFFFFFFFFFFFFFFFFFFFFFF AND PUSH20 0xFFFFFFFFFFFFFFFFFFFFFFFFFFFFFFFFFFFFFFFF AND DUP2 MSTORE PUSH1 0x20 ADD SWAP1 DUP2 MSTORE PUSH1 0x20 ADD PUSH0 KECCAK256 PUSH0 DUP3 DUP3 SLOAD PUSH2 0x310 SWAP2 SWAP1 PUSH2 0x52A JUMP JUMPDEST SWAP3 POP POP DUP2 SWAP1 SSTORE POP JUMP JUMPDEST PUSH0 PUSH1 0x20 MSTORE DUP1 PUSH0 MSTORE PUSH1 0x40 PUSH0 KECCAK256 PUSH0 SWAP2 POP SWAP1 POP SLOAD DUP2 JUMP JUMPDEST PUSH0 DUP2 SWAP1 POP SWAP2 SWAP1 POP JUMP JUMPDEST PUSH2 0x33F DUP2 PUSH2 0x32D JUMP JUMPDEST DUP3 MSTORE POP POP JUMP JUMPDEST PUSH0 PUSH1 0x20 DUP3 ADD SWAP1 POP PUSH2 0x358 PUSH0 DUP4 ADD DUP5 PUSH2 0x336 JUMP JUMPDEST SWAP3 SWAP2 POP POP JUMP JUMPDEST PUSH0 DUP1 REVERT JUMPDEST PUSH0 PUSH20 0xFFFFFFFFFFFFFFFFFFFFFFFFFFFFFFFFFFFFFFFF DUP3 AND SWAP1 POP SWAP2 SWAP1 POP JUMP JUMPDEST PUSH0 PUSH2 0x38B DUP3 PUSH2 0x362 JUMP JUMPDEST SWAP1 POP SWAP2 SWAP1 POP JUMP JUMPDEST PUSH2 0x39B DUP2 PUSH2 0x381 JUMP JUMPDEST DUP2 EQ PUSH2 0x3A5 JUMPI PUSH0 DUP1 REVERT JUMPDEST POP JUMP JUMPDEST PUSH0 DUP2 CALLDATALOAD SWAP1 POP PUSH2 0x3B6 DUP2 PUSH2 0x392 JUMP JUMPDEST SWAP3 SWAP2 POP POP JUMP JUMPDEST PUSH0 PUSH1 0x20 DUP3 DUP5 SUB SLT ISZERO PUSH2 0x3D1 JUMPI PUSH2 0x3D0 PUSH2 0x35E JUMP JUMPDEST JUMPDEST PUSH0 PUSH2 0x3DE DUP5 DUP3 DUP6 ADD PUSH2 0x3A8 JUMP JUMPDEST SWAP2 POP POP SWAP3 SWAP2 POP POP JUMP JUMPDEST PUSH0 DUP3 DUP3 MSTORE PUSH1 0x20 DUP3 ADD SWAP1 POP SWAP3 SWAP2 POP POP JUMP JUMPDEST PUSH32 0x4E6F2066756E647320746F207769746864726177000000000000000000000000 PUSH0 DUP3 ADD MSTORE POP JUMP JUMPDEST PUSH0 PUSH2 0x42B PUSH1 0x14 DUP4 PUSH2 0x3E7 JUMP JUMPDEST SWAP2 POP PUSH2 0x436 DUP3 PUSH2 0x3F7 JUMP JUMPDEST PUSH1 0x20 DUP3 ADD SWAP1 POP SWAP2 SWAP1 POP JUMP JUMPDEST PUSH0 PUSH1 0x20 DUP3 ADD SWAP1 POP DUP2 DUP2 SUB PUSH0 DUP4 ADD MSTORE PUSH2 0x458 DUP2 PUSH2 0x41F JUMP JUMPDEST SWAP1 POP SWAP2 SWAP1 POP JUMP JUMPDEST PUSH32 0x4E487B7100000000000000000000000000000000000000000000000000000000 PUSH0 MSTORE PUSH1 0x11 PUSH1 0x4 MSTORE PUSH1 0x24 PUSH0 REVERT JUMPDEST PUSH0 PUSH2 0x496 DUP3 PUSH2 0x32D JUMP JUMPDEST SWAP2 POP PUSH2 0x4A1 DUP4 PUSH2 0x32D JUMP JUMPDEST SWAP3 POP DUP3 DUP3 MUL PUSH2 0x4AF DUP2 PUSH2 0x32D JUMP JUMPDEST SWAP2 POP DUP3 DUP3 DIV DUP5 EQ DUP4 ISZERO OR PUSH2 0x4C6 JUMPI PUSH2 0x4C5 PUSH2 0x45F JUMP JUMPDEST JUMPDEST POP SWAP3 SWAP2 POP POP JUMP JUMPDEST PUSH32 0x4E487B7100000000000000000000000000000000000000000000000000000000 PUSH0 MSTORE PUSH1 0x12 PUSH1 0x4 MSTORE PUSH1 0x24 PUSH0 REVERT JUMPDEST PUSH0 PUSH2 0x504 DUP3 PUSH2 0x32D JUMP JUMPDEST SWAP2 POP PUSH2 0x50F DUP4 PUSH2 0x32D JUMP JUMPDEST SWAP3 POP DUP3 PUSH2 0x51F JUMPI PUSH2 0x51E PUSH2 0x4CD JUMP JUMPDEST JUMPDEST DUP3 DUP3 DIV SWAP1 POP SWAP3 SWAP2 POP POP JUMP JUMPDEST PUSH0 PUSH2 0x534 DUP3 PUSH2 0x32D JUMP JUMPDEST SWAP2 POP PUSH2 0x53F DUP4 PUSH2 0x32D JUMP JUMPDEST SWAP3 POP DUP3 DUP3 ADD SWAP1 POP DUP1 DUP3 GT ISZERO PUSH2 0x557 JUMPI PUSH2 0x556 PUSH2 0x45F JUMP JUMPDEST JUMPDEST SWAP3 SWAP2 POP POP JUMP JUMPDEST PUSH32 0x496E73756666696369656E742062616C616E6365000000000000000000000000 PUSH0 DUP3 ADD MSTORE POP JUMP JUMPDEST PUSH0 PUSH2 0x591 PUSH1 0x14 DUP4 PUSH2 0x3E7 JUMP JUMPDEST SWAP2 POP PUSH2 0x59C DUP3 PUSH2 0x55D JUMP JUMPDEST PUSH1 0x20 DUP3 ADD SWAP1 POP SWAP2 SWAP1 POP JUMP JUMPDEST PUSH0 PUSH1 0x20 DUP3 ADD SWAP1 POP DUP2 DUP2 SUB PUSH0 DUP4 ADD MSTORE PUSH2 0x5BE DUP2 PUSH2 0x585 JUMP JUMPDEST SWAP1 POP SWAP2 SWAP1 POP JUMP JUMPDEST PUSH32 0x4465706F736974206D7573742062652067726561746572207468616E20300000 PUSH0 DUP3 ADD MSTORE POP JUMP JUMPDEST PUSH0 PUSH2 0x5F9 PUSH1 0x1E DUP4 PUSH2 0x3E7 JUMP JUMPDEST SWAP2 POP PUSH2 0x604 DUP3 PUSH2 0x5C5 JUMP JUMPDEST PUSH1 0x20 DUP3 ADD SWAP1 POP SWAP2 SWAP1 POP JUMP JUMPDEST PUSH0 PUSH1 0x20 DUP3 ADD SWAP1 POP DUP2 DUP2 SUB PUSH0 DUP4 ADD MSTORE PUSH2 0x626 DUP2 PUSH2 0x5ED JUMP JUMPDEST SWAP1 POP SWAP2 SWAP1 POP JUMP INVALID LOG2 PUSH5 0x6970667358 0x22 SLT KECCAK256 GASLIMIT RETURNDATACOPY 0xCA CODESIZE MSTORE8 0xD4 PUSH32 0xB6B7F887D4E44DA7D84C0FA5B1711D011A047F39B06ECC07DB64736F6C634300 ADDMOD BYTE STOP CALLER "
				},
				"gasEstimates": {
					"creation": {
						"codeDepositCost": "327000",
						"executionCost": "366",
						"totalCost": "327366"
					},
					"external": {
						"deposit()": "infinite",
						"deposits(address)": "2867",
						"getContractBalance()": "312",
						"interestRate()": "325",
						"withdrawWithInterest()": "infinite"
					}
				},
				"methodIdentifiers": {
					"deposit()": "d0e30db0",
					"deposits(address)": "fc7e286d",
					"getContractBalance()": "6f9fb98a",
					"interestRate()": "7c3a00fd",
					"withdrawWithInterest()": "8bcdfe79"
				}
			},
			"storageLayout": {
				"storage": [
					{
						"astId": 5,
						"contract": "contracts/Blockchain_Assignment_5/Task_Codes/as5_task5.sol:FixedInterestSavings",
						"label": "deposits",
						"offset": 0,
						"slot": "0",
						"type": "t_mapping(t_address,t_uint256)"
					}
				],
				"types": {
					"t_address": {
						"encoding": "inplace",
						"label": "address",
						"numberOfBytes": "20"
					},
					"t_mapping(t_address,t_uint256)": {
						"encoding": "mapping",
						"key": "t_address",
						"label": "mapping(address => uint256)",
						"numberOfBytes": "32",
						"value": "t_uint256"
					},
					"t_uint256": {
						"encoding": "inplace",
						"label": "uint256",
						"numberOfBytes": "32"
					}
				}
			},
			"userdoc": {
				"kind": "user",
				"methods": {},
				"version": 1
			}
		}
	}
}