{
	"contracts/Blockchain_Assignment_1/Task_Codes/t_ask1_task5.sol": {
		"Calculator": {
			"abi": [
				{
					"inputs": [
						{
							"internalType": "int32",
							"name": "number1",
							"type": "int32"
						},
						{
							"internalType": "int32",
							"name": "number2",
							"type": "int32"
						}
					],
					"name": "add",
					"outputs": [
						{
							"internalType": "int64",
							"name": "",
							"type": "int64"
						}
					],
					"stateMutability": "nonpayable",
					"type": "function"
				},
				{
					"inputs": [
						{
							"internalType": "int32",
							"name": "number1",
							"type": "int32"
						},
						{
							"internalType": "int32",
							"name": "number2",
							"type": "int32"
						}
					],
					"name": "divide",
					"outputs": [
						{
							"internalType": "int64",
							"name": "",
							"type": "int64"
						}
					],
					"stateMutability": "nonpayable",
					"type": "function"
				},
				{
					"inputs": [],
					"name": "getLastOperation",
					"outputs": [
						{
							"internalType": "int32",
							"name": "",
							"type": "int32"
						},
						{
							"internalType": "int32",
							"name": "",
							"type": "int32"
						},
						{
							"internalType": "int64",
							"name": "",
							"type": "int64"
						},
						{
							"internalType": "string",
							"name": "",
							"type": "string"
						}
					],
					"stateMutability": "view",
					"type": "function"
				},
				{
					"inputs": [
						{
							"internalType": "int32",
							"name": "number1",
							"type": "int32"
						},
						{
							"internalType": "int32",
							"name": "number2",
							"type": "int32"
						}
					],
					"name": "multiply",
					"outputs": [
						{
							"internalType": "int64",
							"name": "",
							"type": "int64"
						}
					],
					"stateMutability": "nonpayable",
					"type": "function"
				},
				{
					"inputs": [
						{
							"internalType": "int32",
							"name": "number1",
							"type": "int32"
						},
						{
							"internalType": "int32",
							"name": "number2",
							"type": "int32"
						}
					],
					"name": "subtract",
					"outputs": [
						{
							"internalType": "int64",
							"name": "",
							"type": "int64"
						}
					],
					"stateMutability": "nonpayable",
					"type": "function"
				}
			],
			"devdoc": {
				"kind": "dev",
				"methods": {},
				"version": 1
			},
			"evm": {
				"assembly": "    /* \"contracts/Blockchain_Assignment_1/Task_Codes/t_ask1_task5.sol\":28:1769  contract Calculator {... */\n  mstore(0x40, 0x80)\n  callvalue\n  dup1\n  iszero\n  tag_1\n  jumpi\n  0x00\n  dup1\n  revert\ntag_1:\n  pop\n  dataSize(sub_0)\n  dup1\n  dataOffset(sub_0)\n  0x00\n  codecopy\n  0x00\n  return\nstop\n\nsub_0: assembly {\n        /* \"contracts/Blockchain_Assignment_1/Task_Codes/t_ask1_task5.sol\":28:1769  contract Calculator {... */\n      mstore(0x40, 0x80)\n      callvalue\n      dup1\n      iszero\n      tag_1\n      jumpi\n      0x00\n      dup1\n      revert\n    tag_1:\n      pop\n      jumpi(tag_2, lt(calldatasize, 0x04))\n      shr(0xe0, calldataload(0x00))\n      dup1\n      0x244adc16\n      eq\n      tag_3\n      jumpi\n      dup1\n      0x716530c4\n      eq\n      tag_4\n      jumpi\n      dup1\n      0xb70a5194\n      eq\n      tag_5\n      jumpi\n      dup1\n      0xe42a722b\n      eq\n      tag_6\n      jumpi\n      dup1\n      0xe8e34b57\n      eq\n      tag_7\n      jumpi\n    tag_2:\n      0x00\n      dup1\n      revert\n        /* \"contracts/Blockchain_Assignment_1/Task_Codes/t_ask1_task5.sol\":887:1145  function multiply(int32 number1, int32 number2) public returns (int64) {... */\n    tag_3:\n      tag_8\n      0x04\n      dup1\n      calldatasize\n      sub\n      dup2\n      add\n      swap1\n      tag_9\n      swap2\n      swap1\n      tag_10\n      jump\t// in\n    tag_9:\n      tag_11\n      jump\t// in\n    tag_8:\n      mload(0x40)\n      tag_12\n      swap2\n      swap1\n      tag_13\n      jump\t// in\n    tag_12:\n      mload(0x40)\n      dup1\n      swap2\n      sub\n      swap1\n      return\n        /* \"contracts/Blockchain_Assignment_1/Task_Codes/t_ask1_task5.sol\":581:836  function subtract(int32 number1, int32 number2) public returns (int64) {... */\n    tag_4:\n      tag_14\n      0x04\n      dup1\n      calldatasize\n      sub\n      dup2\n      add\n      swap1\n      tag_15\n      swap2\n      swap1\n      tag_10\n      jump\t// in\n    tag_15:\n      tag_16\n      jump\t// in\n    tag_14:\n      mload(0x40)\n      tag_17\n      swap2\n      swap1\n      tag_13\n      jump\t// in\n    tag_17:\n      mload(0x40)\n      dup1\n      swap2\n      sub\n      swap1\n      return\n        /* \"contracts/Blockchain_Assignment_1/Task_Codes/t_ask1_task5.sol\":1190:1507  function divide(int32 number1, int32 number2) public returns (int64) {... */\n    tag_5:\n      tag_18\n      0x04\n      dup1\n      calldatasize\n      sub\n      dup2\n      add\n      swap1\n      tag_19\n      swap2\n      swap1\n      tag_10\n      jump\t// in\n    tag_19:\n      tag_20\n      jump\t// in\n    tag_18:\n      mload(0x40)\n      tag_21\n      swap2\n      swap1\n      tag_13\n      jump\t// in\n    tag_21:\n      mload(0x40)\n      dup1\n      swap2\n      sub\n      swap1\n      return\n        /* \"contracts/Blockchain_Assignment_1/Task_Codes/t_ask1_task5.sol\":286:533  function add(int32 number1, int32 number2) public returns (int64) {... */\n    tag_6:\n      tag_22\n      0x04\n      dup1\n      calldatasize\n      sub\n      dup2\n      add\n      swap1\n      tag_23\n      swap2\n      swap1\n      tag_10\n      jump\t// in\n    tag_23:\n      tag_24\n      jump\t// in\n    tag_22:\n      mload(0x40)\n      tag_25\n      swap2\n      swap1\n      tag_13\n      jump\t// in\n    tag_25:\n      mload(0x40)\n      dup1\n      swap2\n      sub\n      swap1\n      return\n        /* \"contracts/Blockchain_Assignment_1/Task_Codes/t_ask1_task5.sol\":1576:1766  function getLastOperation()... */\n    tag_7:\n      tag_26\n      tag_27\n      jump\t// in\n    tag_26:\n      mload(0x40)\n      tag_28\n      swap5\n      swap4\n      swap3\n      swap2\n      swap1\n      tag_29\n      jump\t// in\n    tag_28:\n      mload(0x40)\n      dup1\n      swap2\n      sub\n      swap1\n      return\n        /* \"contracts/Blockchain_Assignment_1/Task_Codes/t_ask1_task5.sol\":887:1145  function multiply(int32 number1, int32 number2) public returns (int64) {... */\n    tag_11:\n        /* \"contracts/Blockchain_Assignment_1/Task_Codes/t_ask1_task5.sol\":951:956  int64 */\n      0x00\n        /* \"contracts/Blockchain_Assignment_1/Task_Codes/t_ask1_task5.sol\":980:987  number1 */\n      dup3\n        /* \"contracts/Blockchain_Assignment_1/Task_Codes/t_ask1_task5.sol\":969:977  operand1 */\n      0x00\n      dup1\n        /* \"contracts/Blockchain_Assignment_1/Task_Codes/t_ask1_task5.sol\":969:987  operand1 = number1 */\n      0x0100\n      exp\n      dup2\n      sload\n      dup2\n      0xffffffff\n      mul\n      not\n      and\n      swap1\n      dup4\n      0x03\n      signextend\n      0xffffffff\n      and\n      mul\n      or\n      swap1\n      sstore\n      pop\n        /* \"contracts/Blockchain_Assignment_1/Task_Codes/t_ask1_task5.sol\":1009:1016  number2 */\n      dup2\n        /* \"contracts/Blockchain_Assignment_1/Task_Codes/t_ask1_task5.sol\":998:1006  operand2 */\n      0x00\n      0x04\n        /* \"contracts/Blockchain_Assignment_1/Task_Codes/t_ask1_task5.sol\":998:1016  operand2 = number2 */\n      0x0100\n      exp\n      dup2\n      sload\n      dup2\n      0xffffffff\n      mul\n      not\n      and\n      swap1\n      dup4\n      0x03\n      signextend\n      0xffffffff\n      and\n      mul\n      or\n      swap1\n      sstore\n      pop\n        /* \"contracts/Blockchain_Assignment_1/Task_Codes/t_ask1_task5.sol\":1057:1065  operand2 */\n      0x00\n      0x04\n      swap1\n      sload\n      swap1\n      0x0100\n      exp\n      swap1\n      div\n      0x03\n      signextend\n        /* \"contracts/Blockchain_Assignment_1/Task_Codes/t_ask1_task5.sol\":1046:1054  operand1 */\n      0x00\n      dup1\n      sload\n      swap1\n      0x0100\n      exp\n      swap1\n      div\n      0x03\n      signextend\n        /* \"contracts/Blockchain_Assignment_1/Task_Codes/t_ask1_task5.sol\":1046:1065  operand1 * operand2 */\n      tag_31\n      swap2\n      swap1\n      tag_32\n      jump\t// in\n    tag_31:\n        /* \"contracts/Blockchain_Assignment_1/Task_Codes/t_ask1_task5.sol\":1040:1066  int64(operand1 * operand2) */\n      0x03\n      signextend\n        /* \"contracts/Blockchain_Assignment_1/Task_Codes/t_ask1_task5.sol\":1027:1037  lastResult */\n      0x00\n      0x08\n        /* \"contracts/Blockchain_Assignment_1/Task_Codes/t_ask1_task5.sol\":1027:1066  lastResult = int64(operand1 * operand2) */\n      0x0100\n      exp\n      dup2\n      sload\n      dup2\n      0xffffffffffffffff\n      mul\n      not\n      and\n      swap1\n      dup4\n      0x07\n      signextend\n      0xffffffffffffffff\n      and\n      mul\n      or\n      swap1\n      sstore\n      pop\n        /* \"contracts/Blockchain_Assignment_1/Task_Codes/t_ask1_task5.sol\":1077:1109  lastOperation = \"Multiplication\" */\n      mload(0x40)\n      dup1\n      0x40\n      add\n      0x40\n      mstore\n      dup1\n      0x0e\n      dup2\n      mstore\n      0x20\n      add\n      0x4d756c7469706c69636174696f6e000000000000000000000000000000000000\n      dup2\n      mstore\n      pop\n        /* \"contracts/Blockchain_Assignment_1/Task_Codes/t_ask1_task5.sol\":1077:1090  lastOperation */\n      0x01\n        /* \"contracts/Blockchain_Assignment_1/Task_Codes/t_ask1_task5.sol\":1077:1109  lastOperation = \"Multiplication\" */\n      swap1\n      dup2\n      tag_33\n      swap2\n      swap1\n      tag_34\n      jump\t// in\n    tag_33:\n      pop\n        /* \"contracts/Blockchain_Assignment_1/Task_Codes/t_ask1_task5.sol\":1127:1137  lastResult */\n      0x00\n      0x08\n      swap1\n      sload\n      swap1\n      0x0100\n      exp\n      swap1\n      div\n      0x07\n      signextend\n        /* \"contracts/Blockchain_Assignment_1/Task_Codes/t_ask1_task5.sol\":1120:1137  return lastResult */\n      swap1\n      pop\n        /* \"contracts/Blockchain_Assignment_1/Task_Codes/t_ask1_task5.sol\":887:1145  function multiply(int32 number1, int32 number2) public returns (int64) {... */\n      swap3\n      swap2\n      pop\n      pop\n      jump\t// out\n        /* \"contracts/Blockchain_Assignment_1/Task_Codes/t_ask1_task5.sol\":581:836  function subtract(int32 number1, int32 number2) public returns (int64) {... */\n    tag_16:\n        /* \"contracts/Blockchain_Assignment_1/Task_Codes/t_ask1_task5.sol\":645:650  int64 */\n      0x00\n        /* \"contracts/Blockchain_Assignment_1/Task_Codes/t_ask1_task5.sol\":674:681  number1 */\n      dup3\n        /* \"contracts/Blockchain_Assignment_1/Task_Codes/t_ask1_task5.sol\":663:671  operand1 */\n      0x00\n      dup1\n        /* \"contracts/Blockchain_Assignment_1/Task_Codes/t_ask1_task5.sol\":663:681  operand1 = number1 */\n      0x0100\n      exp\n      dup2\n      sload\n      dup2\n      0xffffffff\n      mul\n      not\n      and\n      swap1\n      dup4\n      0x03\n      signextend\n      0xffffffff\n      and\n      mul\n      or\n      swap1\n      sstore\n      pop\n        /* \"contracts/Blockchain_Assignment_1/Task_Codes/t_ask1_task5.sol\":703:710  number2 */\n      dup2\n        /* \"contracts/Blockchain_Assignment_1/Task_Codes/t_ask1_task5.sol\":692:700  operand2 */\n      0x00\n      0x04\n        /* \"contracts/Blockchain_Assignment_1/Task_Codes/t_ask1_task5.sol\":692:710  operand2 = number2 */\n      0x0100\n      exp\n      dup2\n      sload\n      dup2\n      0xffffffff\n      mul\n      not\n      and\n      swap1\n      dup4\n      0x03\n      signextend\n      0xffffffff\n      and\n      mul\n      or\n      swap1\n      sstore\n      pop\n        /* \"contracts/Blockchain_Assignment_1/Task_Codes/t_ask1_task5.sol\":751:759  operand2 */\n      0x00\n      0x04\n      swap1\n      sload\n      swap1\n      0x0100\n      exp\n      swap1\n      div\n      0x03\n      signextend\n        /* \"contracts/Blockchain_Assignment_1/Task_Codes/t_ask1_task5.sol\":740:748  operand1 */\n      0x00\n      dup1\n      sload\n      swap1\n      0x0100\n      exp\n      swap1\n      div\n      0x03\n      signextend\n        /* \"contracts/Blockchain_Assignment_1/Task_Codes/t_ask1_task5.sol\":740:759  operand1 - operand2 */\n      tag_36\n      swap2\n      swap1\n      tag_37\n      jump\t// in\n    tag_36:\n        /* \"contracts/Blockchain_Assignment_1/Task_Codes/t_ask1_task5.sol\":734:760  int64(operand1 - operand2) */\n      0x03\n      signextend\n        /* \"contracts/Blockchain_Assignment_1/Task_Codes/t_ask1_task5.sol\":721:731  lastResult */\n      0x00\n      0x08\n        /* \"contracts/Blockchain_Assignment_1/Task_Codes/t_ask1_task5.sol\":721:760  lastResult = int64(operand1 - operand2) */\n      0x0100\n      exp\n      dup2\n      sload\n      dup2\n      0xffffffffffffffff\n      mul\n      not\n      and\n      swap1\n      dup4\n      0x07\n      signextend\n      0xffffffffffffffff\n      and\n      mul\n      or\n      swap1\n      sstore\n      pop\n        /* \"contracts/Blockchain_Assignment_1/Task_Codes/t_ask1_task5.sol\":771:800  lastOperation = \"Subtraction\" */\n      mload(0x40)\n      dup1\n      0x40\n      add\n      0x40\n      mstore\n      dup1\n      0x0b\n      dup2\n      mstore\n      0x20\n      add\n      0x5375627472616374696f6e000000000000000000000000000000000000000000\n      dup2\n      mstore\n      pop\n        /* \"contracts/Blockchain_Assignment_1/Task_Codes/t_ask1_task5.sol\":771:784  lastOperation */\n      0x01\n        /* \"contracts/Blockchain_Assignment_1/Task_Codes/t_ask1_task5.sol\":771:800  lastOperation = \"Subtraction\" */\n      swap1\n      dup2\n      tag_38\n      swap2\n      swap1\n      tag_34\n      jump\t// in\n    tag_38:\n      pop\n        /* \"contracts/Blockchain_Assignment_1/Task_Codes/t_ask1_task5.sol\":818:828  lastResult */\n      0x00\n      0x08\n      swap1\n      sload\n      swap1\n      0x0100\n      exp\n      swap1\n      div\n      0x07\n      signextend\n        /* \"contracts/Blockchain_Assignment_1/Task_Codes/t_ask1_task5.sol\":811:828  return lastResult */\n      swap1\n      pop\n        /* \"contracts/Blockchain_Assignment_1/Task_Codes/t_ask1_task5.sol\":581:836  function subtract(int32 number1, int32 number2) public returns (int64) {... */\n      swap3\n      swap2\n      pop\n      pop\n      jump\t// out\n        /* \"contracts/Blockchain_Assignment_1/Task_Codes/t_ask1_task5.sol\":1190:1507  function divide(int32 number1, int32 number2) public returns (int64) {... */\n    tag_20:\n        /* \"contracts/Blockchain_Assignment_1/Task_Codes/t_ask1_task5.sol\":1252:1257  int64 */\n      0x00\n        /* \"contracts/Blockchain_Assignment_1/Task_Codes/t_ask1_task5.sol\":1289:1290  0 */\n      dup1\n        /* \"contracts/Blockchain_Assignment_1/Task_Codes/t_ask1_task5.sol\":1278:1285  number2 */\n      dup3\n        /* \"contracts/Blockchain_Assignment_1/Task_Codes/t_ask1_task5.sol\":1278:1290  number2 != 0 */\n      0x03\n      signextend\n      sub\n        /* \"contracts/Blockchain_Assignment_1/Task_Codes/t_ask1_task5.sol\":1270:1326  require(number2 != 0, \"Division by zero is not allowed\") */\n      tag_40\n      jumpi\n      mload(0x40)\n      0x08c379a000000000000000000000000000000000000000000000000000000000\n      dup2\n      mstore\n      0x04\n      add\n      tag_41\n      swap1\n      tag_42\n      jump\t// in\n    tag_41:\n      mload(0x40)\n      dup1\n      swap2\n      sub\n      swap1\n      revert\n    tag_40:\n        /* \"contracts/Blockchain_Assignment_1/Task_Codes/t_ask1_task5.sol\":1348:1355  number1 */\n      dup3\n        /* \"contracts/Blockchain_Assignment_1/Task_Codes/t_ask1_task5.sol\":1337:1345  operand1 */\n      0x00\n      dup1\n        /* \"contracts/Blockchain_Assignment_1/Task_Codes/t_ask1_task5.sol\":1337:1355  operand1 = number1 */\n      0x0100\n      exp\n      dup2\n      sload\n      dup2\n      0xffffffff\n      mul\n      not\n      and\n      swap1\n      dup4\n      0x03\n      signextend\n      0xffffffff\n      and\n      mul\n      or\n      swap1\n      sstore\n      pop\n        /* \"contracts/Blockchain_Assignment_1/Task_Codes/t_ask1_task5.sol\":1377:1384  number2 */\n      dup2\n        /* \"contracts/Blockchain_Assignment_1/Task_Codes/t_ask1_task5.sol\":1366:1374  operand2 */\n      0x00\n      0x04\n        /* \"contracts/Blockchain_Assignment_1/Task_Codes/t_ask1_task5.sol\":1366:1384  operand2 = number2 */\n      0x0100\n      exp\n      dup2\n      sload\n      dup2\n      0xffffffff\n      mul\n      not\n      and\n      swap1\n      dup4\n      0x03\n      signextend\n      0xffffffff\n      and\n      mul\n      or\n      swap1\n      sstore\n      pop\n        /* \"contracts/Blockchain_Assignment_1/Task_Codes/t_ask1_task5.sol\":1425:1433  operand2 */\n      0x00\n      0x04\n      swap1\n      sload\n      swap1\n      0x0100\n      exp\n      swap1\n      div\n      0x03\n      signextend\n        /* \"contracts/Blockchain_Assignment_1/Task_Codes/t_ask1_task5.sol\":1414:1422  operand1 */\n      0x00\n      dup1\n      sload\n      swap1\n      0x0100\n      exp\n      swap1\n      div\n      0x03\n      signextend\n        /* \"contracts/Blockchain_Assignment_1/Task_Codes/t_ask1_task5.sol\":1414:1433  operand1 / operand2 */\n      tag_43\n      swap2\n      swap1\n      tag_44\n      jump\t// in\n    tag_43:\n        /* \"contracts/Blockchain_Assignment_1/Task_Codes/t_ask1_task5.sol\":1408:1434  int64(operand1 / operand2) */\n      0x03\n      signextend\n        /* \"contracts/Blockchain_Assignment_1/Task_Codes/t_ask1_task5.sol\":1395:1405  lastResult */\n      0x00\n      0x08\n        /* \"contracts/Blockchain_Assignment_1/Task_Codes/t_ask1_task5.sol\":1395:1434  lastResult = int64(operand1 / operand2) */\n      0x0100\n      exp\n      dup2\n      sload\n      dup2\n      0xffffffffffffffff\n      mul\n      not\n      and\n      swap1\n      dup4\n      0x07\n      signextend\n      0xffffffffffffffff\n      and\n      mul\n      or\n      swap1\n      sstore\n      pop\n        /* \"contracts/Blockchain_Assignment_1/Task_Codes/t_ask1_task5.sol\":1445:1471  lastOperation = \"Division\" */\n      mload(0x40)\n      dup1\n      0x40\n      add\n      0x40\n      mstore\n      dup1\n      0x08\n      dup2\n      mstore\n      0x20\n      add\n      0x4469766973696f6e000000000000000000000000000000000000000000000000\n      dup2\n      mstore\n      pop\n        /* \"contracts/Blockchain_Assignment_1/Task_Codes/t_ask1_task5.sol\":1445:1458  lastOperation */\n      0x01\n        /* \"contracts/Blockchain_Assignment_1/Task_Codes/t_ask1_task5.sol\":1445:1471  lastOperation = \"Division\" */\n      swap1\n      dup2\n      tag_45\n      swap2\n      swap1\n      tag_34\n      jump\t// in\n    tag_45:\n      pop\n        /* \"contracts/Blockchain_Assignment_1/Task_Codes/t_ask1_task5.sol\":1489:1499  lastResult */\n      0x00\n      0x08\n      swap1\n      sload\n      swap1\n      0x0100\n      exp\n      swap1\n      div\n      0x07\n      signextend\n        /* \"contracts/Blockchain_Assignment_1/Task_Codes/t_ask1_task5.sol\":1482:1499  return lastResult */\n      swap1\n      pop\n        /* \"contracts/Blockchain_Assignment_1/Task_Codes/t_ask1_task5.sol\":1190:1507  function divide(int32 number1, int32 number2) public returns (int64) {... */\n      swap3\n      swap2\n      pop\n      pop\n      jump\t// out\n        /* \"contracts/Blockchain_Assignment_1/Task_Codes/t_ask1_task5.sol\":286:533  function add(int32 number1, int32 number2) public returns (int64) {... */\n    tag_24:\n        /* \"contracts/Blockchain_Assignment_1/Task_Codes/t_ask1_task5.sol\":345:350  int64 */\n      0x00\n        /* \"contracts/Blockchain_Assignment_1/Task_Codes/t_ask1_task5.sol\":374:381  number1 */\n      dup3\n        /* \"contracts/Blockchain_Assignment_1/Task_Codes/t_ask1_task5.sol\":363:371  operand1 */\n      0x00\n      dup1\n        /* \"contracts/Blockchain_Assignment_1/Task_Codes/t_ask1_task5.sol\":363:381  operand1 = number1 */\n      0x0100\n      exp\n      dup2\n      sload\n      dup2\n      0xffffffff\n      mul\n      not\n      and\n      swap1\n      dup4\n      0x03\n      signextend\n      0xffffffff\n      and\n      mul\n      or\n      swap1\n      sstore\n      pop\n        /* \"contracts/Blockchain_Assignment_1/Task_Codes/t_ask1_task5.sol\":403:410  number2 */\n      dup2\n        /* \"contracts/Blockchain_Assignment_1/Task_Codes/t_ask1_task5.sol\":392:400  operand2 */\n      0x00\n      0x04\n        /* \"contracts/Blockchain_Assignment_1/Task_Codes/t_ask1_task5.sol\":392:410  operand2 = number2 */\n      0x0100\n      exp\n      dup2\n      sload\n      dup2\n      0xffffffff\n      mul\n      not\n      and\n      swap1\n      dup4\n      0x03\n      signextend\n      0xffffffff\n      and\n      mul\n      or\n      swap1\n      sstore\n      pop\n        /* \"contracts/Blockchain_Assignment_1/Task_Codes/t_ask1_task5.sol\":451:459  operand2 */\n      0x00\n      0x04\n      swap1\n      sload\n      swap1\n      0x0100\n      exp\n      swap1\n      div\n      0x03\n      signextend\n        /* \"contracts/Blockchain_Assignment_1/Task_Codes/t_ask1_task5.sol\":440:448  operand1 */\n      0x00\n      dup1\n      sload\n      swap1\n      0x0100\n      exp\n      swap1\n      div\n      0x03\n      signextend\n        /* \"contracts/Blockchain_Assignment_1/Task_Codes/t_ask1_task5.sol\":440:459  operand1 + operand2 */\n      tag_47\n      swap2\n      swap1\n      tag_48\n      jump\t// in\n    tag_47:\n        /* \"contracts/Blockchain_Assignment_1/Task_Codes/t_ask1_task5.sol\":434:460  int64(operand1 + operand2) */\n      0x03\n      signextend\n        /* \"contracts/Blockchain_Assignment_1/Task_Codes/t_ask1_task5.sol\":421:431  lastResult */\n      0x00\n      0x08\n        /* \"contracts/Blockchain_Assignment_1/Task_Codes/t_ask1_task5.sol\":421:460  lastResult = int64(operand1 + operand2) */\n      0x0100\n      exp\n      dup2\n      sload\n      dup2\n      0xffffffffffffffff\n      mul\n      not\n      and\n      swap1\n      dup4\n      0x07\n      signextend\n      0xffffffffffffffff\n      and\n      mul\n      or\n      swap1\n      sstore\n      pop\n        /* \"contracts/Blockchain_Assignment_1/Task_Codes/t_ask1_task5.sol\":471:497  lastOperation = \"Addition\" */\n      mload(0x40)\n      dup1\n      0x40\n      add\n      0x40\n      mstore\n      dup1\n      0x08\n      dup2\n      mstore\n      0x20\n      add\n      0x4164646974696f6e000000000000000000000000000000000000000000000000\n      dup2\n      mstore\n      pop\n        /* \"contracts/Blockchain_Assignment_1/Task_Codes/t_ask1_task5.sol\":471:484  lastOperation */\n      0x01\n        /* \"contracts/Blockchain_Assignment_1/Task_Codes/t_ask1_task5.sol\":471:497  lastOperation = \"Addition\" */\n      swap1\n      dup2\n      tag_49\n      swap2\n      swap1\n      tag_34\n      jump\t// in\n    tag_49:\n      pop\n        /* \"contracts/Blockchain_Assignment_1/Task_Codes/t_ask1_task5.sol\":515:525  lastResult */\n      0x00\n      0x08\n      swap1\n      sload\n      swap1\n      0x0100\n      exp\n      swap1\n      div\n      0x07\n      signextend\n        /* \"contracts/Blockchain_Assignment_1/Task_Codes/t_ask1_task5.sol\":508:525  return lastResult */\n      swap1\n      pop\n        /* \"contracts/Blockchain_Assignment_1/Task_Codes/t_ask1_task5.sol\":286:533  function add(int32 number1, int32 number2) public returns (int64) {... */\n      swap3\n      swap2\n      pop\n      pop\n      jump\t// out\n        /* \"contracts/Blockchain_Assignment_1/Task_Codes/t_ask1_task5.sol\":1576:1766  function getLastOperation()... */\n    tag_27:\n        /* \"contracts/Blockchain_Assignment_1/Task_Codes/t_ask1_task5.sol\":1652:1657  int32 */\n      0x00\n        /* \"contracts/Blockchain_Assignment_1/Task_Codes/t_ask1_task5.sol\":1659:1664  int32 */\n      dup1\n        /* \"contracts/Blockchain_Assignment_1/Task_Codes/t_ask1_task5.sol\":1666:1671  int64 */\n      0x00\n        /* \"contracts/Blockchain_Assignment_1/Task_Codes/t_ask1_task5.sol\":1673:1686  string memory */\n      0x60\n        /* \"contracts/Blockchain_Assignment_1/Task_Codes/t_ask1_task5.sol\":1712:1720  operand1 */\n      0x00\n      dup1\n      sload\n      swap1\n      0x0100\n      exp\n      swap1\n      div\n      0x03\n      signextend\n        /* \"contracts/Blockchain_Assignment_1/Task_Codes/t_ask1_task5.sol\":1722:1730  operand2 */\n      0x00\n      0x04\n      swap1\n      sload\n      swap1\n      0x0100\n      exp\n      swap1\n      div\n      0x03\n      signextend\n        /* \"contracts/Blockchain_Assignment_1/Task_Codes/t_ask1_task5.sol\":1732:1742  lastResult */\n      0x00\n      0x08\n      swap1\n      sload\n      swap1\n      0x0100\n      exp\n      swap1\n      div\n      0x07\n      signextend\n        /* \"contracts/Blockchain_Assignment_1/Task_Codes/t_ask1_task5.sol\":1744:1757  lastOperation */\n      0x01\n        /* \"contracts/Blockchain_Assignment_1/Task_Codes/t_ask1_task5.sol\":1704:1758  return (operand1, operand2, lastResult, lastOperation) */\n      dup1\n      dup1\n      sload\n      tag_51\n      swap1\n      tag_52\n      jump\t// in\n    tag_51:\n      dup1\n      0x1f\n      add\n      0x20\n      dup1\n      swap2\n      div\n      mul\n      0x20\n      add\n      mload(0x40)\n      swap1\n      dup2\n      add\n      0x40\n      mstore\n      dup1\n      swap3\n      swap2\n      swap1\n      dup2\n      dup2\n      mstore\n      0x20\n      add\n      dup3\n      dup1\n      sload\n      tag_53\n      swap1\n      tag_52\n      jump\t// in\n    tag_53:\n      dup1\n      iszero\n      tag_54\n      jumpi\n      dup1\n      0x1f\n      lt\n      tag_55\n      jumpi\n      0x0100\n      dup1\n      dup4\n      sload\n      div\n      mul\n      dup4\n      mstore\n      swap2\n      0x20\n      add\n      swap2\n      jump(tag_54)\n    tag_55:\n      dup3\n      add\n      swap2\n      swap1\n      0x00\n      mstore\n      keccak256(0x00, 0x20)\n      swap1\n    tag_56:\n      dup2\n      sload\n      dup2\n      mstore\n      swap1\n      0x01\n      add\n      swap1\n      0x20\n      add\n      dup1\n      dup4\n      gt\n      tag_56\n      jumpi\n      dup3\n      swap1\n      sub\n      0x1f\n      and\n      dup3\n      add\n      swap2\n    tag_54:\n      pop\n      pop\n      pop\n      pop\n      pop\n      swap1\n      pop\n      swap4\n      pop\n      swap4\n      pop\n      swap4\n      pop\n      swap4\n      pop\n        /* \"contracts/Blockchain_Assignment_1/Task_Codes/t_ask1_task5.sol\":1576:1766  function getLastOperation()... */\n      swap1\n      swap2\n      swap3\n      swap4\n      jump\t// out\n        /* \"#utility.yul\":88:205   */\n    tag_58:\n        /* \"#utility.yul\":197:198   */\n      0x00\n        /* \"#utility.yul\":194:195   */\n      dup1\n        /* \"#utility.yul\":187:199   */\n      revert\n        /* \"#utility.yul\":334:424   */\n    tag_60:\n        /* \"#utility.yul\":369:376   */\n      0x00\n        /* \"#utility.yul\":412:417   */\n      dup2\n        /* \"#utility.yul\":409:410   */\n      0x03\n        /* \"#utility.yul\":398:418   */\n      signextend\n        /* \"#utility.yul\":387:418   */\n      swap1\n      pop\n        /* \"#utility.yul\":334:424   */\n      swap2\n      swap1\n      pop\n      jump\t// out\n        /* \"#utility.yul\":430:548   */\n    tag_61:\n        /* \"#utility.yul\":501:523   */\n      tag_99\n        /* \"#utility.yul\":517:522   */\n      dup2\n        /* \"#utility.yul\":501:523   */\n      tag_60\n      jump\t// in\n    tag_99:\n        /* \"#utility.yul\":494:499   */\n      dup2\n        /* \"#utility.yul\":491:524   */\n      eq\n        /* \"#utility.yul\":481:542   */\n      tag_100\n      jumpi\n        /* \"#utility.yul\":538:539   */\n      0x00\n        /* \"#utility.yul\":535:536   */\n      dup1\n        /* \"#utility.yul\":528:540   */\n      revert\n        /* \"#utility.yul\":481:542   */\n    tag_100:\n        /* \"#utility.yul\":430:548   */\n      pop\n      jump\t// out\n        /* \"#utility.yul\":554:689   */\n    tag_62:\n        /* \"#utility.yul\":598:603   */\n      0x00\n        /* \"#utility.yul\":636:642   */\n      dup2\n        /* \"#utility.yul\":623:643   */\n      calldataload\n        /* \"#utility.yul\":614:643   */\n      swap1\n      pop\n        /* \"#utility.yul\":652:683   */\n      tag_102\n        /* \"#utility.yul\":677:682   */\n      dup2\n        /* \"#utility.yul\":652:683   */\n      tag_61\n      jump\t// in\n    tag_102:\n        /* \"#utility.yul\":554:689   */\n      swap3\n      swap2\n      pop\n      pop\n      jump\t// out\n        /* \"#utility.yul\":695:1161   */\n    tag_10:\n        /* \"#utility.yul\":759:765   */\n      0x00\n        /* \"#utility.yul\":767:773   */\n      dup1\n        /* \"#utility.yul\":816:818   */\n      0x40\n        /* \"#utility.yul\":804:813   */\n      dup4\n        /* \"#utility.yul\":795:802   */\n      dup6\n        /* \"#utility.yul\":791:814   */\n      sub\n        /* \"#utility.yul\":787:819   */\n      slt\n        /* \"#utility.yul\":784:903   */\n      iszero\n      tag_104\n      jumpi\n        /* \"#utility.yul\":822:901   */\n      tag_105\n      tag_58\n      jump\t// in\n    tag_105:\n        /* \"#utility.yul\":784:903   */\n    tag_104:\n        /* \"#utility.yul\":942:943   */\n      0x00\n        /* \"#utility.yul\":967:1018   */\n      tag_106\n        /* \"#utility.yul\":1010:1017   */\n      dup6\n        /* \"#utility.yul\":1001:1007   */\n      dup3\n        /* \"#utility.yul\":990:999   */\n      dup7\n        /* \"#utility.yul\":986:1008   */\n      add\n        /* \"#utility.yul\":967:1018   */\n      tag_62\n      jump\t// in\n    tag_106:\n        /* \"#utility.yul\":957:1018   */\n      swap3\n      pop\n        /* \"#utility.yul\":913:1028   */\n      pop\n        /* \"#utility.yul\":1067:1069   */\n      0x20\n        /* \"#utility.yul\":1093:1144   */\n      tag_107\n        /* \"#utility.yul\":1136:1143   */\n      dup6\n        /* \"#utility.yul\":1127:1133   */\n      dup3\n        /* \"#utility.yul\":1116:1125   */\n      dup7\n        /* \"#utility.yul\":1112:1134   */\n      add\n        /* \"#utility.yul\":1093:1144   */\n      tag_62\n      jump\t// in\n    tag_107:\n        /* \"#utility.yul\":1083:1144   */\n      swap2\n      pop\n        /* \"#utility.yul\":1038:1154   */\n      pop\n        /* \"#utility.yul\":695:1161   */\n      swap3\n      pop\n      swap3\n      swap1\n      pop\n      jump\t// out\n        /* \"#utility.yul\":1167:1257   */\n    tag_63:\n        /* \"#utility.yul\":1202:1209   */\n      0x00\n        /* \"#utility.yul\":1245:1250   */\n      dup2\n        /* \"#utility.yul\":1242:1243   */\n      0x07\n        /* \"#utility.yul\":1231:1251   */\n      signextend\n        /* \"#utility.yul\":1220:1251   */\n      swap1\n      pop\n        /* \"#utility.yul\":1167:1257   */\n      swap2\n      swap1\n      pop\n      jump\t// out\n        /* \"#utility.yul\":1263:1375   */\n    tag_64:\n        /* \"#utility.yul\":1346:1368   */\n      tag_110\n        /* \"#utility.yul\":1362:1367   */\n      dup2\n        /* \"#utility.yul\":1346:1368   */\n      tag_63\n      jump\t// in\n    tag_110:\n        /* \"#utility.yul\":1341:1344   */\n      dup3\n        /* \"#utility.yul\":1334:1369   */\n      mstore\n        /* \"#utility.yul\":1263:1375   */\n      pop\n      pop\n      jump\t// out\n        /* \"#utility.yul\":1381:1595   */\n    tag_13:\n        /* \"#utility.yul\":1470:1474   */\n      0x00\n        /* \"#utility.yul\":1508:1510   */\n      0x20\n        /* \"#utility.yul\":1497:1506   */\n      dup3\n        /* \"#utility.yul\":1493:1511   */\n      add\n        /* \"#utility.yul\":1485:1511   */\n      swap1\n      pop\n        /* \"#utility.yul\":1521:1588   */\n      tag_112\n        /* \"#utility.yul\":1585:1586   */\n      0x00\n        /* \"#utility.yul\":1574:1583   */\n      dup4\n        /* \"#utility.yul\":1570:1587   */\n      add\n        /* \"#utility.yul\":1561:1567   */\n      dup5\n        /* \"#utility.yul\":1521:1588   */\n      tag_64\n      jump\t// in\n    tag_112:\n        /* \"#utility.yul\":1381:1595   */\n      swap3\n      swap2\n      pop\n      pop\n      jump\t// out\n        /* \"#utility.yul\":1601:1713   */\n    tag_65:\n        /* \"#utility.yul\":1684:1706   */\n      tag_114\n        /* \"#utility.yul\":1700:1705   */\n      dup2\n        /* \"#utility.yul\":1684:1706   */\n      tag_60\n      jump\t// in\n    tag_114:\n        /* \"#utility.yul\":1679:1682   */\n      dup3\n        /* \"#utility.yul\":1672:1707   */\n      mstore\n        /* \"#utility.yul\":1601:1713   */\n      pop\n      pop\n      jump\t// out\n        /* \"#utility.yul\":1719:1818   */\n    tag_66:\n        /* \"#utility.yul\":1771:1777   */\n      0x00\n        /* \"#utility.yul\":1805:1810   */\n      dup2\n        /* \"#utility.yul\":1799:1811   */\n      mload\n        /* \"#utility.yul\":1789:1811   */\n      swap1\n      pop\n        /* \"#utility.yul\":1719:1818   */\n      swap2\n      swap1\n      pop\n      jump\t// out\n        /* \"#utility.yul\":1824:1993   */\n    tag_67:\n        /* \"#utility.yul\":1908:1919   */\n      0x00\n        /* \"#utility.yul\":1942:1948   */\n      dup3\n        /* \"#utility.yul\":1937:1940   */\n      dup3\n        /* \"#utility.yul\":1930:1949   */\n      mstore\n        /* \"#utility.yul\":1982:1986   */\n      0x20\n        /* \"#utility.yul\":1977:1980   */\n      dup3\n        /* \"#utility.yul\":1973:1987   */\n      add\n        /* \"#utility.yul\":1958:1987   */\n      swap1\n      pop\n        /* \"#utility.yul\":1824:1993   */\n      swap3\n      swap2\n      pop\n      pop\n      jump\t// out\n        /* \"#utility.yul\":1999:2138   */\n    tag_68:\n        /* \"#utility.yul\":2088:2094   */\n      dup3\n        /* \"#utility.yul\":2083:2086   */\n      dup2\n        /* \"#utility.yul\":2078:2081   */\n      dup4\n        /* \"#utility.yul\":2072:2095   */\n      mcopy\n        /* \"#utility.yul\":2129:2130   */\n      0x00\n        /* \"#utility.yul\":2120:2126   */\n      dup4\n        /* \"#utility.yul\":2115:2118   */\n      dup4\n        /* \"#utility.yul\":2111:2127   */\n      add\n        /* \"#utility.yul\":2104:2131   */\n      mstore\n        /* \"#utility.yul\":1999:2138   */\n      pop\n      pop\n      pop\n      jump\t// out\n        /* \"#utility.yul\":2144:2246   */\n    tag_69:\n        /* \"#utility.yul\":2185:2191   */\n      0x00\n        /* \"#utility.yul\":2236:2238   */\n      0x1f\n        /* \"#utility.yul\":2232:2239   */\n      not\n        /* \"#utility.yul\":2227:2229   */\n      0x1f\n        /* \"#utility.yul\":2220:2225   */\n      dup4\n        /* \"#utility.yul\":2216:2230   */\n      add\n        /* \"#utility.yul\":2212:2240   */\n      and\n        /* \"#utility.yul\":2202:2240   */\n      swap1\n      pop\n        /* \"#utility.yul\":2144:2246   */\n      swap2\n      swap1\n      pop\n      jump\t// out\n        /* \"#utility.yul\":2252:2629   */\n    tag_70:\n        /* \"#utility.yul\":2340:2343   */\n      0x00\n        /* \"#utility.yul\":2368:2407   */\n      tag_120\n        /* \"#utility.yul\":2401:2406   */\n      dup3\n        /* \"#utility.yul\":2368:2407   */\n      tag_66\n      jump\t// in\n    tag_120:\n        /* \"#utility.yul\":2423:2494   */\n      tag_121\n        /* \"#utility.yul\":2487:2493   */\n      dup2\n        /* \"#utility.yul\":2482:2485   */\n      dup6\n        /* \"#utility.yul\":2423:2494   */\n      tag_67\n      jump\t// in\n    tag_121:\n        /* \"#utility.yul\":2416:2494   */\n      swap4\n      pop\n        /* \"#utility.yul\":2503:2568   */\n      tag_122\n        /* \"#utility.yul\":2561:2567   */\n      dup2\n        /* \"#utility.yul\":2556:2559   */\n      dup6\n        /* \"#utility.yul\":2549:2553   */\n      0x20\n        /* \"#utility.yul\":2542:2547   */\n      dup7\n        /* \"#utility.yul\":2538:2554   */\n      add\n        /* \"#utility.yul\":2503:2568   */\n      tag_68\n      jump\t// in\n    tag_122:\n        /* \"#utility.yul\":2593:2622   */\n      tag_123\n        /* \"#utility.yul\":2615:2621   */\n      dup2\n        /* \"#utility.yul\":2593:2622   */\n      tag_69\n      jump\t// in\n    tag_123:\n        /* \"#utility.yul\":2588:2591   */\n      dup5\n        /* \"#utility.yul\":2584:2623   */\n      add\n        /* \"#utility.yul\":2577:2623   */\n      swap2\n      pop\n        /* \"#utility.yul\":2344:2629   */\n      pop\n        /* \"#utility.yul\":2252:2629   */\n      swap3\n      swap2\n      pop\n      pop\n      jump\t// out\n        /* \"#utility.yul\":2635:3255   */\n    tag_29:\n        /* \"#utility.yul\":2820:2824   */\n      0x00\n        /* \"#utility.yul\":2858:2861   */\n      0x80\n        /* \"#utility.yul\":2847:2856   */\n      dup3\n        /* \"#utility.yul\":2843:2862   */\n      add\n        /* \"#utility.yul\":2835:2862   */\n      swap1\n      pop\n        /* \"#utility.yul\":2872:2939   */\n      tag_125\n        /* \"#utility.yul\":2936:2937   */\n      0x00\n        /* \"#utility.yul\":2925:2934   */\n      dup4\n        /* \"#utility.yul\":2921:2938   */\n      add\n        /* \"#utility.yul\":2912:2918   */\n      dup8\n        /* \"#utility.yul\":2872:2939   */\n      tag_65\n      jump\t// in\n    tag_125:\n        /* \"#utility.yul\":2949:3017   */\n      tag_126\n        /* \"#utility.yul\":3013:3015   */\n      0x20\n        /* \"#utility.yul\":3002:3011   */\n      dup4\n        /* \"#utility.yul\":2998:3016   */\n      add\n        /* \"#utility.yul\":2989:2995   */\n      dup7\n        /* \"#utility.yul\":2949:3017   */\n      tag_65\n      jump\t// in\n    tag_126:\n        /* \"#utility.yul\":3027:3095   */\n      tag_127\n        /* \"#utility.yul\":3091:3093   */\n      0x40\n        /* \"#utility.yul\":3080:3089   */\n      dup4\n        /* \"#utility.yul\":3076:3094   */\n      add\n        /* \"#utility.yul\":3067:3073   */\n      dup6\n        /* \"#utility.yul\":3027:3095   */\n      tag_64\n      jump\t// in\n    tag_127:\n        /* \"#utility.yul\":3142:3151   */\n      dup2\n        /* \"#utility.yul\":3136:3140   */\n      dup2\n        /* \"#utility.yul\":3132:3152   */\n      sub\n        /* \"#utility.yul\":3127:3129   */\n      0x60\n        /* \"#utility.yul\":3116:3125   */\n      dup4\n        /* \"#utility.yul\":3112:3130   */\n      add\n        /* \"#utility.yul\":3105:3153   */\n      mstore\n        /* \"#utility.yul\":3170:3248   */\n      tag_128\n        /* \"#utility.yul\":3243:3247   */\n      dup2\n        /* \"#utility.yul\":3234:3240   */\n      dup5\n        /* \"#utility.yul\":3170:3248   */\n      tag_70\n      jump\t// in\n    tag_128:\n        /* \"#utility.yul\":3162:3248   */\n      swap1\n      pop\n        /* \"#utility.yul\":2635:3255   */\n      swap6\n      swap5\n      pop\n      pop\n      pop\n      pop\n      pop\n      jump\t// out\n        /* \"#utility.yul\":3261:3441   */\n    tag_71:\n        /* \"#utility.yul\":3309:3386   */\n      0x4e487b7100000000000000000000000000000000000000000000000000000000\n        /* \"#utility.yul\":3306:3307   */\n      0x00\n        /* \"#utility.yul\":3299:3387   */\n      mstore\n        /* \"#utility.yul\":3406:3410   */\n      0x11\n        /* \"#utility.yul\":3403:3404   */\n      0x04\n        /* \"#utility.yul\":3396:3411   */\n      mstore\n        /* \"#utility.yul\":3430:3434   */\n      0x24\n        /* \"#utility.yul\":3427:3428   */\n      0x00\n        /* \"#utility.yul\":3420:3435   */\n      revert\n        /* \"#utility.yul\":3447:3718   */\n    tag_32:\n        /* \"#utility.yul\":3485:3492   */\n      0x00\n        /* \"#utility.yul\":3508:3526   */\n      tag_131\n        /* \"#utility.yul\":3524:3525   */\n      dup3\n        /* \"#utility.yul\":3508:3526   */\n      tag_60\n      jump\t// in\n    tag_131:\n        /* \"#utility.yul\":3503:3526   */\n      swap2\n      pop\n        /* \"#utility.yul\":3540:3558   */\n      tag_132\n        /* \"#utility.yul\":3556:3557   */\n      dup4\n        /* \"#utility.yul\":3540:3558   */\n      tag_60\n      jump\t// in\n    tag_132:\n        /* \"#utility.yul\":3535:3558   */\n      swap3\n      pop\n        /* \"#utility.yul\":3593:3594   */\n      dup3\n        /* \"#utility.yul\":3590:3591   */\n      dup3\n        /* \"#utility.yul\":3586:3595   */\n      mul\n        /* \"#utility.yul\":3615:3643   */\n      tag_133\n        /* \"#utility.yul\":3631:3642   */\n      dup2\n        /* \"#utility.yul\":3615:3643   */\n      tag_60\n      jump\t// in\n    tag_133:\n        /* \"#utility.yul\":3604:3643   */\n      swap2\n      pop\n        /* \"#utility.yul\":3675:3686   */\n      dup1\n        /* \"#utility.yul\":3666:3673   */\n      dup3\n        /* \"#utility.yul\":3663:3687   */\n      eq\n        /* \"#utility.yul\":3653:3711   */\n      tag_134\n      jumpi\n        /* \"#utility.yul\":3691:3709   */\n      tag_135\n      tag_71\n      jump\t// in\n    tag_135:\n        /* \"#utility.yul\":3653:3711   */\n    tag_134:\n        /* \"#utility.yul\":3493:3718   */\n      pop\n        /* \"#utility.yul\":3447:3718   */\n      swap3\n      swap2\n      pop\n      pop\n      jump\t// out\n        /* \"#utility.yul\":3724:3904   */\n    tag_72:\n        /* \"#utility.yul\":3772:3849   */\n      0x4e487b7100000000000000000000000000000000000000000000000000000000\n        /* \"#utility.yul\":3769:3770   */\n      0x00\n        /* \"#utility.yul\":3762:3850   */\n      mstore\n        /* \"#utility.yul\":3869:3873   */\n      0x41\n        /* \"#utility.yul\":3866:3867   */\n      0x04\n        /* \"#utility.yul\":3859:3874   */\n      mstore\n        /* \"#utility.yul\":3893:3897   */\n      0x24\n        /* \"#utility.yul\":3890:3891   */\n      0x00\n        /* \"#utility.yul\":3883:3898   */\n      revert\n        /* \"#utility.yul\":3910:4090   */\n    tag_73:\n        /* \"#utility.yul\":3958:4035   */\n      0x4e487b7100000000000000000000000000000000000000000000000000000000\n        /* \"#utility.yul\":3955:3956   */\n      0x00\n        /* \"#utility.yul\":3948:4036   */\n      mstore\n        /* \"#utility.yul\":4055:4059   */\n      0x22\n        /* \"#utility.yul\":4052:4053   */\n      0x04\n        /* \"#utility.yul\":4045:4060   */\n      mstore\n        /* \"#utility.yul\":4079:4083   */\n      0x24\n        /* \"#utility.yul\":4076:4077   */\n      0x00\n        /* \"#utility.yul\":4069:4084   */\n      revert\n        /* \"#utility.yul\":4096:4416   */\n    tag_52:\n        /* \"#utility.yul\":4140:4146   */\n      0x00\n        /* \"#utility.yul\":4177:4178   */\n      0x02\n        /* \"#utility.yul\":4171:4175   */\n      dup3\n        /* \"#utility.yul\":4167:4179   */\n      div\n        /* \"#utility.yul\":4157:4179   */\n      swap1\n      pop\n        /* \"#utility.yul\":4224:4225   */\n      0x01\n        /* \"#utility.yul\":4218:4222   */\n      dup3\n        /* \"#utility.yul\":4214:4226   */\n      and\n        /* \"#utility.yul\":4245:4263   */\n      dup1\n        /* \"#utility.yul\":4235:4316   */\n      tag_139\n      jumpi\n        /* \"#utility.yul\":4301:4305   */\n      0x7f\n        /* \"#utility.yul\":4293:4299   */\n      dup3\n        /* \"#utility.yul\":4289:4306   */\n      and\n        /* \"#utility.yul\":4279:4306   */\n      swap2\n      pop\n        /* \"#utility.yul\":4235:4316   */\n    tag_139:\n        /* \"#utility.yul\":4363:4365   */\n      0x20\n        /* \"#utility.yul\":4355:4361   */\n      dup3\n        /* \"#utility.yul\":4352:4366   */\n      lt\n        /* \"#utility.yul\":4332:4350   */\n      dup2\n        /* \"#utility.yul\":4329:4367   */\n      sub\n        /* \"#utility.yul\":4326:4410   */\n      tag_140\n      jumpi\n        /* \"#utility.yul\":4382:4400   */\n      tag_141\n      tag_73\n      jump\t// in\n    tag_141:\n        /* \"#utility.yul\":4326:4410   */\n    tag_140:\n        /* \"#utility.yul\":4147:4416   */\n      pop\n        /* \"#utility.yul\":4096:4416   */\n      swap2\n      swap1\n      pop\n      jump\t// out\n        /* \"#utility.yul\":4422:4563   */\n    tag_74:\n        /* \"#utility.yul\":4471:4475   */\n      0x00\n        /* \"#utility.yul\":4494:4497   */\n      dup2\n        /* \"#utility.yul\":4486:4497   */\n      swap1\n      pop\n        /* \"#utility.yul\":4517:4520   */\n      dup2\n        /* \"#utility.yul\":4514:4515   */\n      0x00\n        /* \"#utility.yul\":4507:4521   */\n      mstore\n        /* \"#utility.yul\":4551:4555   */\n      0x20\n        /* \"#utility.yul\":4548:4549   */\n      0x00\n        /* \"#utility.yul\":4538:4556   */\n      keccak256\n        /* \"#utility.yul\":4530:4556   */\n      swap1\n      pop\n        /* \"#utility.yul\":4422:4563   */\n      swap2\n      swap1\n      pop\n      jump\t// out\n        /* \"#utility.yul\":4569:4662   */\n    tag_75:\n        /* \"#utility.yul\":4606:4612   */\n      0x00\n        /* \"#utility.yul\":4653:4655   */\n      0x20\n        /* \"#utility.yul\":4648:4650   */\n      0x1f\n        /* \"#utility.yul\":4641:4646   */\n      dup4\n        /* \"#utility.yul\":4637:4651   */\n      add\n        /* \"#utility.yul\":4633:4656   */\n      div\n        /* \"#utility.yul\":4623:4656   */\n      swap1\n      pop\n        /* \"#utility.yul\":4569:4662   */\n      swap2\n      swap1\n      pop\n      jump\t// out\n        /* \"#utility.yul\":4668:4775   */\n    tag_76:\n        /* \"#utility.yul\":4712:4720   */\n      0x00\n        /* \"#utility.yul\":4762:4767   */\n      dup3\n        /* \"#utility.yul\":4756:4760   */\n      dup3\n        /* \"#utility.yul\":4752:4768   */\n      shl\n        /* \"#utility.yul\":4731:4768   */\n      swap1\n      pop\n        /* \"#utility.yul\":4668:4775   */\n      swap3\n      swap2\n      pop\n      pop\n      jump\t// out\n        /* \"#utility.yul\":4781:5174   */\n    tag_77:\n        /* \"#utility.yul\":4850:4856   */\n      0x00\n        /* \"#utility.yul\":4900:4901   */\n      0x08\n        /* \"#utility.yul\":4888:4898   */\n      dup4\n        /* \"#utility.yul\":4884:4902   */\n      mul\n        /* \"#utility.yul\":4923:5020   */\n      tag_146\n        /* \"#utility.yul\":4953:5019   */\n      0xffffffffffffffffffffffffffffffffffffffffffffffffffffffffffffffff\n        /* \"#utility.yul\":4942:4951   */\n      dup3\n        /* \"#utility.yul\":4923:5020   */\n      tag_76\n      jump\t// in\n    tag_146:\n        /* \"#utility.yul\":5041:5080   */\n      tag_147\n        /* \"#utility.yul\":5071:5079   */\n      dup7\n        /* \"#utility.yul\":5060:5069   */\n      dup4\n        /* \"#utility.yul\":5041:5080   */\n      tag_76\n      jump\t// in\n    tag_147:\n        /* \"#utility.yul\":5029:5080   */\n      swap6\n      pop\n        /* \"#utility.yul\":5113:5117   */\n      dup1\n        /* \"#utility.yul\":5109:5118   */\n      not\n        /* \"#utility.yul\":5102:5107   */\n      dup5\n        /* \"#utility.yul\":5098:5119   */\n      and\n        /* \"#utility.yul\":5089:5119   */\n      swap4\n      pop\n        /* \"#utility.yul\":5162:5166   */\n      dup1\n        /* \"#utility.yul\":5152:5160   */\n      dup7\n        /* \"#utility.yul\":5148:5167   */\n      and\n        /* \"#utility.yul\":5141:5146   */\n      dup5\n        /* \"#utility.yul\":5138:5168   */\n      or\n        /* \"#utility.yul\":5128:5168   */\n      swap3\n      pop\n        /* \"#utility.yul\":4857:5174   */\n      pop\n      pop\n        /* \"#utility.yul\":4781:5174   */\n      swap4\n      swap3\n      pop\n      pop\n      pop\n      jump\t// out\n        /* \"#utility.yul\":5180:5257   */\n    tag_78:\n        /* \"#utility.yul\":5217:5224   */\n      0x00\n        /* \"#utility.yul\":5246:5251   */\n      dup2\n        /* \"#utility.yul\":5235:5251   */\n      swap1\n      pop\n        /* \"#utility.yul\":5180:5257   */\n      swap2\n      swap1\n      pop\n      jump\t// out\n        /* \"#utility.yul\":5263:5323   */\n    tag_79:\n        /* \"#utility.yul\":5291:5294   */\n      0x00\n        /* \"#utility.yul\":5312:5317   */\n      dup2\n        /* \"#utility.yul\":5305:5317   */\n      swap1\n      pop\n        /* \"#utility.yul\":5263:5323   */\n      swap2\n      swap1\n      pop\n      jump\t// out\n        /* \"#utility.yul\":5329:5471   */\n    tag_80:\n        /* \"#utility.yul\":5379:5388   */\n      0x00\n        /* \"#utility.yul\":5412:5465   */\n      tag_151\n        /* \"#utility.yul\":5430:5464   */\n      tag_152\n        /* \"#utility.yul\":5439:5463   */\n      tag_153\n        /* \"#utility.yul\":5457:5462   */\n      dup5\n        /* \"#utility.yul\":5439:5463   */\n      tag_78\n      jump\t// in\n    tag_153:\n        /* \"#utility.yul\":5430:5464   */\n      tag_79\n      jump\t// in\n    tag_152:\n        /* \"#utility.yul\":5412:5465   */\n      tag_78\n      jump\t// in\n    tag_151:\n        /* \"#utility.yul\":5399:5465   */\n      swap1\n      pop\n        /* \"#utility.yul\":5329:5471   */\n      swap2\n      swap1\n      pop\n      jump\t// out\n        /* \"#utility.yul\":5477:5552   */\n    tag_81:\n        /* \"#utility.yul\":5520:5523   */\n      0x00\n        /* \"#utility.yul\":5541:5546   */\n      dup2\n        /* \"#utility.yul\":5534:5546   */\n      swap1\n      pop\n        /* \"#utility.yul\":5477:5552   */\n      swap2\n      swap1\n      pop\n      jump\t// out\n        /* \"#utility.yul\":5558:5827   */\n    tag_82:\n        /* \"#utility.yul\":5668:5707   */\n      tag_156\n        /* \"#utility.yul\":5699:5706   */\n      dup4\n        /* \"#utility.yul\":5668:5707   */\n      tag_80\n      jump\t// in\n    tag_156:\n        /* \"#utility.yul\":5729:5820   */\n      tag_157\n        /* \"#utility.yul\":5778:5819   */\n      tag_158\n        /* \"#utility.yul\":5802:5818   */\n      dup3\n        /* \"#utility.yul\":5778:5819   */\n      tag_81\n      jump\t// in\n    tag_158:\n        /* \"#utility.yul\":5770:5776   */\n      dup5\n        /* \"#utility.yul\":5763:5767   */\n      dup5\n        /* \"#utility.yul\":5757:5768   */\n      sload\n        /* \"#utility.yul\":5729:5820   */\n      tag_77\n      jump\t// in\n    tag_157:\n        /* \"#utility.yul\":5723:5727   */\n      dup3\n        /* \"#utility.yul\":5716:5821   */\n      sstore\n        /* \"#utility.yul\":5634:5827   */\n      pop\n        /* \"#utility.yul\":5558:5827   */\n      pop\n      pop\n      pop\n      jump\t// out\n        /* \"#utility.yul\":5833:5906   */\n    tag_83:\n        /* \"#utility.yul\":5878:5881   */\n      0x00\n        /* \"#utility.yul\":5833:5906   */\n      swap1\n      jump\t// out\n        /* \"#utility.yul\":5912:6101   */\n    tag_84:\n        /* \"#utility.yul\":5989:6021   */\n      tag_161\n      tag_83\n      jump\t// in\n    tag_161:\n        /* \"#utility.yul\":6030:6095   */\n      tag_162\n        /* \"#utility.yul\":6088:6094   */\n      dup2\n        /* \"#utility.yul\":6080:6086   */\n      dup5\n        /* \"#utility.yul\":6074:6078   */\n      dup5\n        /* \"#utility.yul\":6030:6095   */\n      tag_82\n      jump\t// in\n    tag_162:\n        /* \"#utility.yul\":5965:6101   */\n      pop\n        /* \"#utility.yul\":5912:6101   */\n      pop\n      pop\n      jump\t// out\n        /* \"#utility.yul\":6107:6293   */\n    tag_85:\n        /* \"#utility.yul\":6167:6287   */\n    tag_164:\n        /* \"#utility.yul\":6184:6187   */\n      dup2\n        /* \"#utility.yul\":6177:6182   */\n      dup2\n        /* \"#utility.yul\":6174:6188   */\n      lt\n        /* \"#utility.yul\":6167:6287   */\n      iszero\n      tag_166\n      jumpi\n        /* \"#utility.yul\":6238:6277   */\n      tag_167\n        /* \"#utility.yul\":6275:6276   */\n      0x00\n        /* \"#utility.yul\":6268:6273   */\n      dup3\n        /* \"#utility.yul\":6238:6277   */\n      tag_84\n      jump\t// in\n    tag_167:\n        /* \"#utility.yul\":6211:6212   */\n      0x01\n        /* \"#utility.yul\":6204:6209   */\n      dup2\n        /* \"#utility.yul\":6200:6213   */\n      add\n        /* \"#utility.yul\":6191:6213   */\n      swap1\n      pop\n        /* \"#utility.yul\":6167:6287   */\n      jump(tag_164)\n    tag_166:\n        /* \"#utility.yul\":6107:6293   */\n      pop\n      pop\n      jump\t// out\n        /* \"#utility.yul\":6299:6842   */\n    tag_86:\n        /* \"#utility.yul\":6400:6402   */\n      0x1f\n        /* \"#utility.yul\":6395:6398   */\n      dup3\n        /* \"#utility.yul\":6392:6403   */\n      gt\n        /* \"#utility.yul\":6389:6835   */\n      iszero\n      tag_169\n      jumpi\n        /* \"#utility.yul\":6434:6472   */\n      tag_170\n        /* \"#utility.yul\":6466:6471   */\n      dup2\n        /* \"#utility.yul\":6434:6472   */\n      tag_74\n      jump\t// in\n    tag_170:\n        /* \"#utility.yul\":6518:6547   */\n      tag_171\n        /* \"#utility.yul\":6536:6546   */\n      dup5\n        /* \"#utility.yul\":6518:6547   */\n      tag_75\n      jump\t// in\n    tag_171:\n        /* \"#utility.yul\":6508:6516   */\n      dup2\n        /* \"#utility.yul\":6504:6548   */\n      add\n        /* \"#utility.yul\":6701:6703   */\n      0x20\n        /* \"#utility.yul\":6689:6699   */\n      dup6\n        /* \"#utility.yul\":6686:6704   */\n      lt\n        /* \"#utility.yul\":6683:6732   */\n      iszero\n      tag_172\n      jumpi\n        /* \"#utility.yul\":6722:6730   */\n      dup2\n        /* \"#utility.yul\":6707:6730   */\n      swap1\n      pop\n        /* \"#utility.yul\":6683:6732   */\n    tag_172:\n        /* \"#utility.yul\":6745:6825   */\n      tag_173\n        /* \"#utility.yul\":6801:6823   */\n      tag_174\n        /* \"#utility.yul\":6819:6822   */\n      dup6\n        /* \"#utility.yul\":6801:6823   */\n      tag_75\n      jump\t// in\n    tag_174:\n        /* \"#utility.yul\":6791:6799   */\n      dup4\n        /* \"#utility.yul\":6787:6824   */\n      add\n        /* \"#utility.yul\":6774:6785   */\n      dup3\n        /* \"#utility.yul\":6745:6825   */\n      tag_85\n      jump\t// in\n    tag_173:\n        /* \"#utility.yul\":6404:6835   */\n      pop\n      pop\n        /* \"#utility.yul\":6389:6835   */\n    tag_169:\n        /* \"#utility.yul\":6299:6842   */\n      pop\n      pop\n      pop\n      jump\t// out\n        /* \"#utility.yul\":6848:6965   */\n    tag_87:\n        /* \"#utility.yul\":6902:6910   */\n      0x00\n        /* \"#utility.yul\":6952:6957   */\n      dup3\n        /* \"#utility.yul\":6946:6950   */\n      dup3\n        /* \"#utility.yul\":6942:6958   */\n      shr\n        /* \"#utility.yul\":6921:6958   */\n      swap1\n      pop\n        /* \"#utility.yul\":6848:6965   */\n      swap3\n      swap2\n      pop\n      pop\n      jump\t// out\n        /* \"#utility.yul\":6971:7140   */\n    tag_88:\n        /* \"#utility.yul\":7015:7021   */\n      0x00\n        /* \"#utility.yul\":7048:7099   */\n      tag_177\n        /* \"#utility.yul\":7096:7097   */\n      0x00\n        /* \"#utility.yul\":7092:7098   */\n      not\n        /* \"#utility.yul\":7084:7089   */\n      dup5\n        /* \"#utility.yul\":7081:7082   */\n      0x08\n        /* \"#utility.yul\":7077:7090   */\n      mul\n        /* \"#utility.yul\":7048:7099   */\n      tag_87\n      jump\t// in\n    tag_177:\n        /* \"#utility.yul\":7044:7100   */\n      not\n        /* \"#utility.yul\":7129:7133   */\n      dup1\n        /* \"#utility.yul\":7123:7127   */\n      dup4\n        /* \"#utility.yul\":7119:7134   */\n      and\n        /* \"#utility.yul\":7109:7134   */\n      swap2\n      pop\n        /* \"#utility.yul\":7022:7140   */\n      pop\n        /* \"#utility.yul\":6971:7140   */\n      swap3\n      swap2\n      pop\n      pop\n      jump\t// out\n        /* \"#utility.yul\":7145:7440   */\n    tag_89:\n        /* \"#utility.yul\":7221:7225   */\n      0x00\n        /* \"#utility.yul\":7367:7396   */\n      tag_179\n        /* \"#utility.yul\":7392:7395   */\n      dup4\n        /* \"#utility.yul\":7386:7390   */\n      dup4\n        /* \"#utility.yul\":7367:7396   */\n      tag_88\n      jump\t// in\n    tag_179:\n        /* \"#utility.yul\":7359:7396   */\n      swap2\n      pop\n        /* \"#utility.yul\":7429:7432   */\n      dup3\n        /* \"#utility.yul\":7426:7427   */\n      0x02\n        /* \"#utility.yul\":7422:7433   */\n      mul\n        /* \"#utility.yul\":7416:7420   */\n      dup3\n        /* \"#utility.yul\":7413:7434   */\n      or\n        /* \"#utility.yul\":7405:7434   */\n      swap1\n      pop\n        /* \"#utility.yul\":7145:7440   */\n      swap3\n      swap2\n      pop\n      pop\n      jump\t// out\n        /* \"#utility.yul\":7445:8840   */\n    tag_34:\n        /* \"#utility.yul\":7562:7599   */\n      tag_181\n        /* \"#utility.yul\":7595:7598   */\n      dup3\n        /* \"#utility.yul\":7562:7599   */\n      tag_66\n      jump\t// in\n    tag_181:\n        /* \"#utility.yul\":7664:7682   */\n      0xffffffffffffffff\n        /* \"#utility.yul\":7656:7662   */\n      dup2\n        /* \"#utility.yul\":7653:7683   */\n      gt\n        /* \"#utility.yul\":7650:7706   */\n      iszero\n      tag_182\n      jumpi\n        /* \"#utility.yul\":7686:7704   */\n      tag_183\n      tag_72\n      jump\t// in\n    tag_183:\n        /* \"#utility.yul\":7650:7706   */\n    tag_182:\n        /* \"#utility.yul\":7730:7768   */\n      tag_184\n        /* \"#utility.yul\":7762:7766   */\n      dup3\n        /* \"#utility.yul\":7756:7767   */\n      sload\n        /* \"#utility.yul\":7730:7768   */\n      tag_52\n      jump\t// in\n    tag_184:\n        /* \"#utility.yul\":7815:7882   */\n      tag_185\n        /* \"#utility.yul\":7875:7881   */\n      dup3\n        /* \"#utility.yul\":7867:7873   */\n      dup3\n        /* \"#utility.yul\":7861:7865   */\n      dup6\n        /* \"#utility.yul\":7815:7882   */\n      tag_86\n      jump\t// in\n    tag_185:\n        /* \"#utility.yul\":7909:7910   */\n      0x00\n        /* \"#utility.yul\":7933:7937   */\n      0x20\n        /* \"#utility.yul\":7920:7937   */\n      swap1\n      pop\n        /* \"#utility.yul\":7965:7967   */\n      0x1f\n        /* \"#utility.yul\":7957:7963   */\n      dup4\n        /* \"#utility.yul\":7954:7968   */\n      gt\n        /* \"#utility.yul\":7982:7983   */\n      0x01\n        /* \"#utility.yul\":7977:8595   */\n      dup2\n      eq\n      tag_187\n      jumpi\n        /* \"#utility.yul\":8639:8640   */\n      0x00\n        /* \"#utility.yul\":8656:8662   */\n      dup5\n        /* \"#utility.yul\":8653:8730   */\n      iszero\n      tag_188\n      jumpi\n        /* \"#utility.yul\":8705:8714   */\n      dup3\n        /* \"#utility.yul\":8700:8703   */\n      dup8\n        /* \"#utility.yul\":8696:8715   */\n      add\n        /* \"#utility.yul\":8690:8716   */\n      mload\n        /* \"#utility.yul\":8681:8716   */\n      swap1\n      pop\n        /* \"#utility.yul\":8653:8730   */\n    tag_188:\n        /* \"#utility.yul\":8756:8823   */\n      tag_189\n        /* \"#utility.yul\":8816:8822   */\n      dup6\n        /* \"#utility.yul\":8809:8814   */\n      dup3\n        /* \"#utility.yul\":8756:8823   */\n      tag_89\n      jump\t// in\n    tag_189:\n        /* \"#utility.yul\":8750:8754   */\n      dup7\n        /* \"#utility.yul\":8743:8824   */\n      sstore\n        /* \"#utility.yul\":8612:8834   */\n      pop\n        /* \"#utility.yul\":7947:8834   */\n      jump(tag_186)\n        /* \"#utility.yul\":7977:8595   */\n    tag_187:\n        /* \"#utility.yul\":8029:8033   */\n      0x1f\n        /* \"#utility.yul\":8025:8034   */\n      not\n        /* \"#utility.yul\":8017:8023   */\n      dup5\n        /* \"#utility.yul\":8013:8035   */\n      and\n        /* \"#utility.yul\":8063:8100   */\n      tag_190\n        /* \"#utility.yul\":8095:8099   */\n      dup7\n        /* \"#utility.yul\":8063:8100   */\n      tag_74\n      jump\t// in\n    tag_190:\n        /* \"#utility.yul\":8122:8123   */\n      0x00\n        /* \"#utility.yul\":8136:8344   */\n    tag_191:\n        /* \"#utility.yul\":8150:8157   */\n      dup3\n        /* \"#utility.yul\":8147:8148   */\n      dup2\n        /* \"#utility.yul\":8144:8158   */\n      lt\n        /* \"#utility.yul\":8136:8344   */\n      iszero\n      tag_193\n      jumpi\n        /* \"#utility.yul\":8229:8238   */\n      dup5\n        /* \"#utility.yul\":8224:8227   */\n      dup10\n        /* \"#utility.yul\":8220:8239   */\n      add\n        /* \"#utility.yul\":8214:8240   */\n      mload\n        /* \"#utility.yul\":8206:8212   */\n      dup3\n        /* \"#utility.yul\":8199:8241   */\n      sstore\n        /* \"#utility.yul\":8280:8281   */\n      0x01\n        /* \"#utility.yul\":8272:8278   */\n      dup3\n        /* \"#utility.yul\":8268:8282   */\n      add\n        /* \"#utility.yul\":8258:8282   */\n      swap2\n      pop\n        /* \"#utility.yul\":8327:8329   */\n      0x20\n        /* \"#utility.yul\":8316:8325   */\n      dup6\n        /* \"#utility.yul\":8312:8330   */\n      add\n        /* \"#utility.yul\":8299:8330   */\n      swap5\n      pop\n        /* \"#utility.yul\":8173:8177   */\n      0x20\n        /* \"#utility.yul\":8170:8171   */\n      dup2\n        /* \"#utility.yul\":8166:8178   */\n      add\n        /* \"#utility.yul\":8161:8178   */\n      swap1\n      pop\n        /* \"#utility.yul\":8136:8344   */\n      jump(tag_191)\n    tag_193:\n        /* \"#utility.yul\":8372:8378   */\n      dup7\n        /* \"#utility.yul\":8363:8370   */\n      dup4\n        /* \"#utility.yul\":8360:8379   */\n      lt\n        /* \"#utility.yul\":8357:8536   */\n      iszero\n      tag_194\n      jumpi\n        /* \"#utility.yul\":8430:8439   */\n      dup5\n        /* \"#utility.yul\":8425:8428   */\n      dup10\n        /* \"#utility.yul\":8421:8440   */\n      add\n        /* \"#utility.yul\":8415:8441   */\n      mload\n        /* \"#utility.yul\":8473:8521   */\n      tag_195\n        /* \"#utility.yul\":8515:8519   */\n      0x1f\n        /* \"#utility.yul\":8507:8513   */\n      dup10\n        /* \"#utility.yul\":8503:8520   */\n      and\n        /* \"#utility.yul\":8492:8501   */\n      dup3\n        /* \"#utility.yul\":8473:8521   */\n      tag_88\n      jump\t// in\n    tag_195:\n        /* \"#utility.yul\":8465:8471   */\n      dup4\n        /* \"#utility.yul\":8458:8522   */\n      sstore\n        /* \"#utility.yul\":8380:8536   */\n      pop\n        /* \"#utility.yul\":8357:8536   */\n    tag_194:\n        /* \"#utility.yul\":8582:8583   */\n      0x01\n        /* \"#utility.yul\":8578:8579   */\n      0x02\n        /* \"#utility.yul\":8570:8576   */\n      dup9\n        /* \"#utility.yul\":8566:8580   */\n      mul\n        /* \"#utility.yul\":8562:8584   */\n      add\n        /* \"#utility.yul\":8556:8560   */\n      dup9\n        /* \"#utility.yul\":8549:8585   */\n      sstore\n        /* \"#utility.yul\":7984:8595   */\n      pop\n      pop\n      pop\n        /* \"#utility.yul\":7947:8834   */\n    tag_186:\n      pop\n        /* \"#utility.yul\":7537:8840   */\n      pop\n      pop\n      pop\n        /* \"#utility.yul\":7445:8840   */\n      pop\n      pop\n      jump\t// out\n        /* \"#utility.yul\":8846:9161   */\n    tag_37:\n        /* \"#utility.yul\":8884:8888   */\n      0x00\n        /* \"#utility.yul\":8904:8922   */\n      tag_197\n        /* \"#utility.yul\":8920:8921   */\n      dup3\n        /* \"#utility.yul\":8904:8922   */\n      tag_60\n      jump\t// in\n    tag_197:\n        /* \"#utility.yul\":8899:8922   */\n      swap2\n      pop\n        /* \"#utility.yul\":8936:8954   */\n      tag_198\n        /* \"#utility.yul\":8952:8953   */\n      dup4\n        /* \"#utility.yul\":8936:8954   */\n      tag_60\n      jump\t// in\n    tag_198:\n        /* \"#utility.yul\":8931:8954   */\n      swap3\n      pop\n        /* \"#utility.yul\":8978:8979   */\n      dup3\n        /* \"#utility.yul\":8975:8976   */\n      dup3\n        /* \"#utility.yul\":8971:8980   */\n      sub\n        /* \"#utility.yul\":8963:8980   */\n      swap1\n      pop\n        /* \"#utility.yul\":9110:9120   */\n      0x7fffffff\n        /* \"#utility.yul\":9104:9108   */\n      dup2\n        /* \"#utility.yul\":9100:9121   */\n      sgt\n        /* \"#utility.yul\":9019:9085   */\n      0xffffffffffffffffffffffffffffffffffffffffffffffffffffffff80000000\n        /* \"#utility.yul\":9013:9017   */\n      dup3\n        /* \"#utility.yul\":9009:9086   */\n      slt\n        /* \"#utility.yul\":8993:9131   */\n      or\n        /* \"#utility.yul\":8990:9154   */\n      iszero\n      tag_199\n      jumpi\n        /* \"#utility.yul\":9134:9152   */\n      tag_200\n      tag_71\n      jump\t// in\n    tag_200:\n        /* \"#utility.yul\":8990:9154   */\n    tag_199:\n        /* \"#utility.yul\":8846:9161   */\n      swap3\n      swap2\n      pop\n      pop\n      jump\t// out\n        /* \"#utility.yul\":9167:9348   */\n    tag_90:\n        /* \"#utility.yul\":9307:9340   */\n      0x4469766973696f6e206279207a65726f206973206e6f7420616c6c6f77656400\n        /* \"#utility.yul\":9303:9304   */\n      0x00\n        /* \"#utility.yul\":9295:9301   */\n      dup3\n        /* \"#utility.yul\":9291:9305   */\n      add\n        /* \"#utility.yul\":9284:9341   */\n      mstore\n        /* \"#utility.yul\":9167:9348   */\n      pop\n      jump\t// out\n        /* \"#utility.yul\":9354:9720   */\n    tag_91:\n        /* \"#utility.yul\":9496:9499   */\n      0x00\n        /* \"#utility.yul\":9517:9584   */\n      tag_203\n        /* \"#utility.yul\":9581:9583   */\n      0x1f\n        /* \"#utility.yul\":9576:9579   */\n      dup4\n        /* \"#utility.yul\":9517:9584   */\n      tag_67\n      jump\t// in\n    tag_203:\n        /* \"#utility.yul\":9510:9584   */\n      swap2\n      pop\n        /* \"#utility.yul\":9593:9686   */\n      tag_204\n        /* \"#utility.yul\":9682:9685   */\n      dup3\n        /* \"#utility.yul\":9593:9686   */\n      tag_90\n      jump\t// in\n    tag_204:\n        /* \"#utility.yul\":9711:9713   */\n      0x20\n        /* \"#utility.yul\":9706:9709   */\n      dup3\n        /* \"#utility.yul\":9702:9714   */\n      add\n        /* \"#utility.yul\":9695:9714   */\n      swap1\n      pop\n        /* \"#utility.yul\":9354:9720   */\n      swap2\n      swap1\n      pop\n      jump\t// out\n        /* \"#utility.yul\":9726:10145   */\n    tag_42:\n        /* \"#utility.yul\":9892:9896   */\n      0x00\n        /* \"#utility.yul\":9930:9932   */\n      0x20\n        /* \"#utility.yul\":9919:9928   */\n      dup3\n        /* \"#utility.yul\":9915:9933   */\n      add\n        /* \"#utility.yul\":9907:9933   */\n      swap1\n      pop\n        /* \"#utility.yul\":9979:9988   */\n      dup2\n        /* \"#utility.yul\":9973:9977   */\n      dup2\n        /* \"#utility.yul\":9969:9989   */\n      sub\n        /* \"#utility.yul\":9965:9966   */\n      0x00\n        /* \"#utility.yul\":9954:9963   */\n      dup4\n        /* \"#utility.yul\":9950:9967   */\n      add\n        /* \"#utility.yul\":9943:9990   */\n      mstore\n        /* \"#utility.yul\":10007:10138   */\n      tag_206\n        /* \"#utility.yul\":10133:10137   */\n      dup2\n        /* \"#utility.yul\":10007:10138   */\n      tag_91\n      jump\t// in\n    tag_206:\n        /* \"#utility.yul\":9999:10138   */\n      swap1\n      pop\n        /* \"#utility.yul\":9726:10145   */\n      swap2\n      swap1\n      pop\n      jump\t// out\n        /* \"#utility.yul\":10151:10331   */\n    tag_92:\n        /* \"#utility.yul\":10199:10276   */\n      0x4e487b7100000000000000000000000000000000000000000000000000000000\n        /* \"#utility.yul\":10196:10197   */\n      0x00\n        /* \"#utility.yul\":10189:10277   */\n      mstore\n        /* \"#utility.yul\":10296:10300   */\n      0x12\n        /* \"#utility.yul\":10293:10294   */\n      0x04\n        /* \"#utility.yul\":10286:10301   */\n      mstore\n        /* \"#utility.yul\":10320:10324   */\n      0x24\n        /* \"#utility.yul\":10317:10318   */\n      0x00\n        /* \"#utility.yul\":10310:10325   */\n      revert\n        /* \"#utility.yul\":10337:10719   */\n    tag_44:\n        /* \"#utility.yul\":10375:10376   */\n      0x00\n        /* \"#utility.yul\":10392:10410   */\n      tag_209\n        /* \"#utility.yul\":10408:10409   */\n      dup3\n        /* \"#utility.yul\":10392:10410   */\n      tag_60\n      jump\t// in\n    tag_209:\n        /* \"#utility.yul\":10387:10410   */\n      swap2\n      pop\n        /* \"#utility.yul\":10424:10442   */\n      tag_210\n        /* \"#utility.yul\":10440:10441   */\n      dup4\n        /* \"#utility.yul\":10424:10442   */\n      tag_60\n      jump\t// in\n    tag_210:\n        /* \"#utility.yul\":10419:10442   */\n      swap3\n      pop\n        /* \"#utility.yul\":10461:10462   */\n      dup3\n        /* \"#utility.yul\":10451:10486   */\n      tag_211\n      jumpi\n        /* \"#utility.yul\":10466:10484   */\n      tag_212\n      tag_92\n      jump\t// in\n    tag_212:\n        /* \"#utility.yul\":10451:10486   */\n    tag_211:\n        /* \"#utility.yul\":10652:10653   */\n      0x01\n        /* \"#utility.yul\":10649:10650   */\n      0x00\n        /* \"#utility.yul\":10645:10654   */\n      sub\n        /* \"#utility.yul\":10642:10643   */\n      dup4\n        /* \"#utility.yul\":10639:10655   */\n      eq\n        /* \"#utility.yul\":10558:10624   */\n      0xffffffffffffffffffffffffffffffffffffffffffffffffffffffff80000000\n        /* \"#utility.yul\":10555:10556   */\n      dup4\n        /* \"#utility.yul\":10552:10625   */\n      eq\n        /* \"#utility.yul\":10535:10665   */\n      and\n        /* \"#utility.yul\":10532:10688   */\n      iszero\n      tag_213\n      jumpi\n        /* \"#utility.yul\":10668:10686   */\n      tag_214\n      tag_71\n      jump\t// in\n    tag_214:\n        /* \"#utility.yul\":10532:10688   */\n    tag_213:\n        /* \"#utility.yul\":10711:10712   */\n      dup3\n        /* \"#utility.yul\":10708:10709   */\n      dup3\n        /* \"#utility.yul\":10703:10713   */\n      sdiv\n        /* \"#utility.yul\":10698:10713   */\n      swap1\n      pop\n        /* \"#utility.yul\":10337:10719   */\n      swap3\n      swap2\n      pop\n      pop\n      jump\t// out\n        /* \"#utility.yul\":10725:11036   */\n    tag_48:\n        /* \"#utility.yul\":10763:10766   */\n      0x00\n        /* \"#utility.yul\":10782:10800   */\n      tag_216\n        /* \"#utility.yul\":10798:10799   */\n      dup3\n        /* \"#utility.yul\":10782:10800   */\n      tag_60\n      jump\t// in\n    tag_216:\n        /* \"#utility.yul\":10777:10800   */\n      swap2\n      pop\n        /* \"#utility.yul\":10814:10832   */\n      tag_217\n        /* \"#utility.yul\":10830:10831   */\n      dup4\n        /* \"#utility.yul\":10814:10832   */\n      tag_60\n      jump\t// in\n    tag_217:\n        /* \"#utility.yul\":10809:10832   */\n      swap3\n      pop\n        /* \"#utility.yul\":10855:10856   */\n      dup3\n        /* \"#utility.yul\":10852:10853   */\n      dup3\n        /* \"#utility.yul\":10848:10857   */\n      add\n        /* \"#utility.yul\":10841:10857   */\n      swap1\n      pop\n        /* \"#utility.yul\":10929:10995   */\n      0xffffffffffffffffffffffffffffffffffffffffffffffffffffffff80000000\n        /* \"#utility.yul\":10924:10927   */\n      dup2\n        /* \"#utility.yul\":10920:10996   */\n      slt\n        /* \"#utility.yul\":10895:10905   */\n      0x7fffffff\n        /* \"#utility.yul\":10890:10893   */\n      dup3\n        /* \"#utility.yul\":10886:10906   */\n      sgt\n        /* \"#utility.yul\":10870:11006   */\n      or\n        /* \"#utility.yul\":10867:11029   */\n      iszero\n      tag_218\n      jumpi\n        /* \"#utility.yul\":11009:11027   */\n      tag_219\n      tag_71\n      jump\t// in\n    tag_219:\n        /* \"#utility.yul\":10867:11029   */\n    tag_218:\n        /* \"#utility.yul\":10725:11036   */\n      swap3\n      swap2\n      pop\n      pop\n      jump\t// out\n\n    auxdata: 0xa2646970667358221220e4abce0172a6168e34db4d926868210e37870a6c7f5a60c7b696abe741a1819a64736f6c634300081a0033\n}\n",
				"bytecode": {
					"linkReferences": {},
					"object": "6080604052348015600e575f80fd5b50610ce38061001c5f395ff3fe608060405234801561000f575f80fd5b5060043610610055575f3560e01c8063244adc1614610059578063716530c414610089578063b70a5194146100b9578063e42a722b146100e9578063e8e34b5714610119575b5f80fd5b610073600480360381019061006e9190610657565b61013a565b60405161008091906106b0565b60405180910390f35b6100a3600480360381019061009e9190610657565b61022f565b6040516100b091906106b0565b60405180910390f35b6100d360048036038101906100ce9190610657565b610324565b6040516100e091906106b0565b60405180910390f35b61010360048036038101906100fe9190610657565b61045e565b60405161011091906106b0565b60405180910390f35b610121610553565b6040516101319493929190610748565b60405180910390f35b5f825f806101000a81548163ffffffff021916908360030b63ffffffff160217905550815f60046101000a81548163ffffffff021916908360030b63ffffffff1602179055505f60049054906101000a900460030b5f8054906101000a900460030b6101a691906107bf565b60030b5f60086101000a81548167ffffffffffffffff021916908360070b67ffffffffffffffff1602179055506040518060400160405280600e81526020017f4d756c7469706c69636174696f6e000000000000000000000000000000000000815250600190816102179190610a2b565b505f60089054906101000a900460070b905092915050565b5f825f806101000a81548163ffffffff021916908360030b63ffffffff160217905550815f60046101000a81548163ffffffff021916908360030b63ffffffff1602179055505f60049054906101000a900460030b5f8054906101000a900460030b61029b9190610afa565b60030b5f60086101000a81548167ffffffffffffffff021916908360070b67ffffffffffffffff1602179055506040518060400160405280600b81526020017f5375627472616374696f6e0000000000000000000000000000000000000000008152506001908161030c9190610a2b565b505f60089054906101000a900460070b905092915050565b5f808260030b0361036a576040517f08c379a000000000000000000000000000000000000000000000000000000000815260040161036190610b9f565b60405180910390fd5b825f806101000a81548163ffffffff021916908360030b63ffffffff160217905550815f60046101000a81548163ffffffff021916908360030b63ffffffff1602179055505f60049054906101000a900460030b5f8054906101000a900460030b6103d59190610bea565b60030b5f60086101000a81548167ffffffffffffffff021916908360070b67ffffffffffffffff1602179055506040518060400160405280600881526020017f4469766973696f6e000000000000000000000000000000000000000000000000815250600190816104469190610a2b565b505f60089054906101000a900460070b905092915050565b5f825f806101000a81548163ffffffff021916908360030b63ffffffff160217905550815f60046101000a81548163ffffffff021916908360030b63ffffffff1602179055505f60049054906101000a900460030b5f8054906101000a900460030b6104ca9190610c52565b60030b5f60086101000a81548167ffffffffffffffff021916908360070b67ffffffffffffffff1602179055506040518060400160405280600881526020017f4164646974696f6e0000000000000000000000000000000000000000000000008152506001908161053b9190610a2b565b505f60089054906101000a900460070b905092915050565b5f805f60605f8054906101000a900460030b5f60049054906101000a900460030b5f60089054906101000a900460070b600180805461059190610855565b80601f01602080910402602001604051908101604052809291908181526020018280546105bd90610855565b80156106085780601f106105df57610100808354040283529160200191610608565b820191905f5260205f20905b8154815290600101906020018083116105eb57829003601f168201915b50505050509050935093509350935090919293565b5f80fd5b5f8160030b9050919050565b61063681610621565b8114610640575f80fd5b50565b5f813590506106518161062d565b92915050565b5f806040838503121561066d5761066c61061d565b5b5f61067a85828601610643565b925050602061068b85828601610643565b9150509250929050565b5f8160070b9050919050565b6106aa81610695565b82525050565b5f6020820190506106c35f8301846106a1565b92915050565b6106d281610621565b82525050565b5f81519050919050565b5f82825260208201905092915050565b8281835e5f83830152505050565b5f601f19601f8301169050919050565b5f61071a826106d8565b61072481856106e2565b93506107348185602086016106f2565b61073d81610700565b840191505092915050565b5f60808201905061075b5f8301876106c9565b61076860208301866106c9565b61077560408301856106a1565b81810360608301526107878184610710565b905095945050505050565b7f4e487b71000000000000000000000000000000000000000000000000000000005f52601160045260245ffd5b5f6107c982610621565b91506107d483610621565b92508282026107e281610621565b91508082146107f4576107f3610792565b5b5092915050565b7f4e487b71000000000000000000000000000000000000000000000000000000005f52604160045260245ffd5b7f4e487b71000000000000000000000000000000000000000000000000000000005f52602260045260245ffd5b5f600282049050600182168061086c57607f821691505b60208210810361087f5761087e610828565b5b50919050565b5f819050815f5260205f209050919050565b5f6020601f8301049050919050565b5f82821b905092915050565b5f600883026108e17fffffffffffffffffffffffffffffffffffffffffffffffffffffffffffffffff826108a6565b6108eb86836108a6565b95508019841693508086168417925050509392505050565b5f819050919050565b5f819050919050565b5f61092f61092a61092584610903565b61090c565b610903565b9050919050565b5f819050919050565b61094883610915565b61095c61095482610936565b8484546108b2565b825550505050565b5f90565b610970610964565b61097b81848461093f565b505050565b5b8181101561099e576109935f82610968565b600181019050610981565b5050565b601f8211156109e3576109b481610885565b6109bd84610897565b810160208510156109cc578190505b6109e06109d885610897565b830182610980565b50505b505050565b5f82821c905092915050565b5f610a035f19846008026109e8565b1980831691505092915050565b5f610a1b83836109f4565b9150826002028217905092915050565b610a34826106d8565b67ffffffffffffffff811115610a4d57610a4c6107fb565b5b610a578254610855565b610a628282856109a2565b5f60209050601f831160018114610a93575f8415610a81578287015190505b610a8b8582610a10565b865550610af2565b601f198416610aa186610885565b5f5b82811015610ac857848901518255600182019150602085019450602081019050610aa3565b86831015610ae55784890151610ae1601f8916826109f4565b8355505b6001600288020188555050505b505050505050565b5f610b0482610621565b9150610b0f83610621565b92508282039050637fffffff81137fffffffffffffffffffffffffffffffffffffffffffffffffffffffff8000000082121715610b4f57610b4e610792565b5b92915050565b7f4469766973696f6e206279207a65726f206973206e6f7420616c6c6f776564005f82015250565b5f610b89601f836106e2565b9150610b9482610b55565b602082019050919050565b5f6020820190508181035f830152610bb681610b7d565b9050919050565b7f4e487b71000000000000000000000000000000000000000000000000000000005f52601260045260245ffd5b5f610bf482610621565b9150610bff83610621565b925082610c0f57610c0e610bbd565b5b60015f0383147fffffffffffffffffffffffffffffffffffffffffffffffffffffffff8000000083141615610c4757610c46610792565b5b828205905092915050565b5f610c5c82610621565b9150610c6783610621565b925082820190507fffffffffffffffffffffffffffffffffffffffffffffffffffffffff800000008112637fffffff82131715610ca757610ca6610792565b5b9291505056fea2646970667358221220e4abce0172a6168e34db4d926868210e37870a6c7f5a60c7b696abe741a1819a64736f6c634300081a0033",
					"opcodes": "PUSH1 0x80 PUSH1 0x40 MSTORE CALLVALUE DUP1 ISZERO PUSH1 0xE JUMPI PUSH0 DUP1 REVERT JUMPDEST POP PUSH2 0xCE3 DUP1 PUSH2 0x1C PUSH0 CODECOPY PUSH0 RETURN INVALID PUSH1 0x80 PUSH1 0x40 MSTORE CALLVALUE DUP1 ISZERO PUSH2 0xF JUMPI PUSH0 DUP1 REVERT JUMPDEST POP PUSH1 0x4 CALLDATASIZE LT PUSH2 0x55 JUMPI PUSH0 CALLDATALOAD PUSH1 0xE0 SHR DUP1 PUSH4 0x244ADC16 EQ PUSH2 0x59 JUMPI DUP1 PUSH4 0x716530C4 EQ PUSH2 0x89 JUMPI DUP1 PUSH4 0xB70A5194 EQ PUSH2 0xB9 JUMPI DUP1 PUSH4 0xE42A722B EQ PUSH2 0xE9 JUMPI DUP1 PUSH4 0xE8E34B57 EQ PUSH2 0x119 JUMPI JUMPDEST PUSH0 DUP1 REVERT JUMPDEST PUSH2 0x73 PUSH1 0x4 DUP1 CALLDATASIZE SUB DUP2 ADD SWAP1 PUSH2 0x6E SWAP2 SWAP1 PUSH2 0x657 JUMP JUMPDEST PUSH2 0x13A JUMP JUMPDEST PUSH1 0x40 MLOAD PUSH2 0x80 SWAP2 SWAP1 PUSH2 0x6B0 JUMP JUMPDEST PUSH1 0x40 MLOAD DUP1 SWAP2 SUB SWAP1 RETURN JUMPDEST PUSH2 0xA3 PUSH1 0x4 DUP1 CALLDATASIZE SUB DUP2 ADD SWAP1 PUSH2 0x9E SWAP2 SWAP1 PUSH2 0x657 JUMP JUMPDEST PUSH2 0x22F JUMP JUMPDEST PUSH1 0x40 MLOAD PUSH2 0xB0 SWAP2 SWAP1 PUSH2 0x6B0 JUMP JUMPDEST PUSH1 0x40 MLOAD DUP1 SWAP2 SUB SWAP1 RETURN JUMPDEST PUSH2 0xD3 PUSH1 0x4 DUP1 CALLDATASIZE SUB DUP2 ADD SWAP1 PUSH2 0xCE SWAP2 SWAP1 PUSH2 0x657 JUMP JUMPDEST PUSH2 0x324 JUMP JUMPDEST PUSH1 0x40 MLOAD PUSH2 0xE0 SWAP2 SWAP1 PUSH2 0x6B0 JUMP JUMPDEST PUSH1 0x40 MLOAD DUP1 SWAP2 SUB SWAP1 RETURN JUMPDEST PUSH2 0x103 PUSH1 0x4 DUP1 CALLDATASIZE SUB DUP2 ADD SWAP1 PUSH2 0xFE SWAP2 SWAP1 PUSH2 0x657 JUMP JUMPDEST PUSH2 0x45E JUMP JUMPDEST PUSH1 0x40 MLOAD PUSH2 0x110 SWAP2 SWAP1 PUSH2 0x6B0 JUMP JUMPDEST PUSH1 0x40 MLOAD DUP1 SWAP2 SUB SWAP1 RETURN JUMPDEST PUSH2 0x121 PUSH2 0x553 JUMP JUMPDEST PUSH1 0x40 MLOAD PUSH2 0x131 SWAP5 SWAP4 SWAP3 SWAP2 SWAP1 PUSH2 0x748 JUMP JUMPDEST PUSH1 0x40 MLOAD DUP1 SWAP2 SUB SWAP1 RETURN JUMPDEST PUSH0 DUP3 PUSH0 DUP1 PUSH2 0x100 EXP DUP2 SLOAD DUP2 PUSH4 0xFFFFFFFF MUL NOT AND SWAP1 DUP4 PUSH1 0x3 SIGNEXTEND PUSH4 0xFFFFFFFF AND MUL OR SWAP1 SSTORE POP DUP2 PUSH0 PUSH1 0x4 PUSH2 0x100 EXP DUP2 SLOAD DUP2 PUSH4 0xFFFFFFFF MUL NOT AND SWAP1 DUP4 PUSH1 0x3 SIGNEXTEND PUSH4 0xFFFFFFFF AND MUL OR SWAP1 SSTORE POP PUSH0 PUSH1 0x4 SWAP1 SLOAD SWAP1 PUSH2 0x100 EXP SWAP1 DIV PUSH1 0x3 SIGNEXTEND PUSH0 DUP1 SLOAD SWAP1 PUSH2 0x100 EXP SWAP1 DIV PUSH1 0x3 SIGNEXTEND PUSH2 0x1A6 SWAP2 SWAP1 PUSH2 0x7BF JUMP JUMPDEST PUSH1 0x3 SIGNEXTEND PUSH0 PUSH1 0x8 PUSH2 0x100 EXP DUP2 SLOAD DUP2 PUSH8 0xFFFFFFFFFFFFFFFF MUL NOT AND SWAP1 DUP4 PUSH1 0x7 SIGNEXTEND PUSH8 0xFFFFFFFFFFFFFFFF AND MUL OR SWAP1 SSTORE POP PUSH1 0x40 MLOAD DUP1 PUSH1 0x40 ADD PUSH1 0x40 MSTORE DUP1 PUSH1 0xE DUP2 MSTORE PUSH1 0x20 ADD PUSH32 0x4D756C7469706C69636174696F6E000000000000000000000000000000000000 DUP2 MSTORE POP PUSH1 0x1 SWAP1 DUP2 PUSH2 0x217 SWAP2 SWAP1 PUSH2 0xA2B JUMP JUMPDEST POP PUSH0 PUSH1 0x8 SWAP1 SLOAD SWAP1 PUSH2 0x100 EXP SWAP1 DIV PUSH1 0x7 SIGNEXTEND SWAP1 POP SWAP3 SWAP2 POP POP JUMP JUMPDEST PUSH0 DUP3 PUSH0 DUP1 PUSH2 0x100 EXP DUP2 SLOAD DUP2 PUSH4 0xFFFFFFFF MUL NOT AND SWAP1 DUP4 PUSH1 0x3 SIGNEXTEND PUSH4 0xFFFFFFFF AND MUL OR SWAP1 SSTORE POP DUP2 PUSH0 PUSH1 0x4 PUSH2 0x100 EXP DUP2 SLOAD DUP2 PUSH4 0xFFFFFFFF MUL NOT AND SWAP1 DUP4 PUSH1 0x3 SIGNEXTEND PUSH4 0xFFFFFFFF AND MUL OR SWAP1 SSTORE POP PUSH0 PUSH1 0x4 SWAP1 SLOAD SWAP1 PUSH2 0x100 EXP SWAP1 DIV PUSH1 0x3 SIGNEXTEND PUSH0 DUP1 SLOAD SWAP1 PUSH2 0x100 EXP SWAP1 DIV PUSH1 0x3 SIGNEXTEND PUSH2 0x29B SWAP2 SWAP1 PUSH2 0xAFA JUMP JUMPDEST PUSH1 0x3 SIGNEXTEND PUSH0 PUSH1 0x8 PUSH2 0x100 EXP DUP2 SLOAD DUP2 PUSH8 0xFFFFFFFFFFFFFFFF MUL NOT AND SWAP1 DUP4 PUSH1 0x7 SIGNEXTEND PUSH8 0xFFFFFFFFFFFFFFFF AND MUL OR SWAP1 SSTORE POP PUSH1 0x40 MLOAD DUP1 PUSH1 0x40 ADD PUSH1 0x40 MSTORE DUP1 PUSH1 0xB DUP2 MSTORE PUSH1 0x20 ADD PUSH32 0x5375627472616374696F6E000000000000000000000000000000000000000000 DUP2 MSTORE POP PUSH1 0x1 SWAP1 DUP2 PUSH2 0x30C SWAP2 SWAP1 PUSH2 0xA2B JUMP JUMPDEST POP PUSH0 PUSH1 0x8 SWAP1 SLOAD SWAP1 PUSH2 0x100 EXP SWAP1 DIV PUSH1 0x7 SIGNEXTEND SWAP1 POP SWAP3 SWAP2 POP POP JUMP JUMPDEST PUSH0 DUP1 DUP3 PUSH1 0x3 SIGNEXTEND SUB PUSH2 0x36A JUMPI PUSH1 0x40 MLOAD PUSH32 0x8C379A000000000000000000000000000000000000000000000000000000000 DUP2 MSTORE PUSH1 0x4 ADD PUSH2 0x361 SWAP1 PUSH2 0xB9F JUMP JUMPDEST PUSH1 0x40 MLOAD DUP1 SWAP2 SUB SWAP1 REVERT JUMPDEST DUP3 PUSH0 DUP1 PUSH2 0x100 EXP DUP2 SLOAD DUP2 PUSH4 0xFFFFFFFF MUL NOT AND SWAP1 DUP4 PUSH1 0x3 SIGNEXTEND PUSH4 0xFFFFFFFF AND MUL OR SWAP1 SSTORE POP DUP2 PUSH0 PUSH1 0x4 PUSH2 0x100 EXP DUP2 SLOAD DUP2 PUSH4 0xFFFFFFFF MUL NOT AND SWAP1 DUP4 PUSH1 0x3 SIGNEXTEND PUSH4 0xFFFFFFFF AND MUL OR SWAP1 SSTORE POP PUSH0 PUSH1 0x4 SWAP1 SLOAD SWAP1 PUSH2 0x100 EXP SWAP1 DIV PUSH1 0x3 SIGNEXTEND PUSH0 DUP1 SLOAD SWAP1 PUSH2 0x100 EXP SWAP1 DIV PUSH1 0x3 SIGNEXTEND PUSH2 0x3D5 SWAP2 SWAP1 PUSH2 0xBEA JUMP JUMPDEST PUSH1 0x3 SIGNEXTEND PUSH0 PUSH1 0x8 PUSH2 0x100 EXP DUP2 SLOAD DUP2 PUSH8 0xFFFFFFFFFFFFFFFF MUL NOT AND SWAP1 DUP4 PUSH1 0x7 SIGNEXTEND PUSH8 0xFFFFFFFFFFFFFFFF AND MUL OR SWAP1 SSTORE POP PUSH1 0x40 MLOAD DUP1 PUSH1 0x40 ADD PUSH1 0x40 MSTORE DUP1 PUSH1 0x8 DUP2 MSTORE PUSH1 0x20 ADD PUSH32 0x4469766973696F6E000000000000000000000000000000000000000000000000 DUP2 MSTORE POP PUSH1 0x1 SWAP1 DUP2 PUSH2 0x446 SWAP2 SWAP1 PUSH2 0xA2B JUMP JUMPDEST POP PUSH0 PUSH1 0x8 SWAP1 SLOAD SWAP1 PUSH2 0x100 EXP SWAP1 DIV PUSH1 0x7 SIGNEXTEND SWAP1 POP SWAP3 SWAP2 POP POP JUMP JUMPDEST PUSH0 DUP3 PUSH0 DUP1 PUSH2 0x100 EXP DUP2 SLOAD DUP2 PUSH4 0xFFFFFFFF MUL NOT AND SWAP1 DUP4 PUSH1 0x3 SIGNEXTEND PUSH4 0xFFFFFFFF AND MUL OR SWAP1 SSTORE POP DUP2 PUSH0 PUSH1 0x4 PUSH2 0x100 EXP DUP2 SLOAD DUP2 PUSH4 0xFFFFFFFF MUL NOT AND SWAP1 DUP4 PUSH1 0x3 SIGNEXTEND PUSH4 0xFFFFFFFF AND MUL OR SWAP1 SSTORE POP PUSH0 PUSH1 0x4 SWAP1 SLOAD SWAP1 PUSH2 0x100 EXP SWAP1 DIV PUSH1 0x3 SIGNEXTEND PUSH0 DUP1 SLOAD SWAP1 PUSH2 0x100 EXP SWAP1 DIV PUSH1 0x3 SIGNEXTEND PUSH2 0x4CA SWAP2 SWAP1 PUSH2 0xC52 JUMP JUMPDEST PUSH1 0x3 SIGNEXTEND PUSH0 PUSH1 0x8 PUSH2 0x100 EXP DUP2 SLOAD DUP2 PUSH8 0xFFFFFFFFFFFFFFFF MUL NOT AND SWAP1 DUP4 PUSH1 0x7 SIGNEXTEND PUSH8 0xFFFFFFFFFFFFFFFF AND MUL OR SWAP1 SSTORE POP PUSH1 0x40 MLOAD DUP1 PUSH1 0x40 ADD PUSH1 0x40 MSTORE DUP1 PUSH1 0x8 DUP2 MSTORE PUSH1 0x20 ADD PUSH32 0x4164646974696F6E000000000000000000000000000000000000000000000000 DUP2 MSTORE POP PUSH1 0x1 SWAP1 DUP2 PUSH2 0x53B SWAP2 SWAP1 PUSH2 0xA2B JUMP JUMPDEST POP PUSH0 PUSH1 0x8 SWAP1 SLOAD SWAP1 PUSH2 0x100 EXP SWAP1 DIV PUSH1 0x7 SIGNEXTEND SWAP1 POP SWAP3 SWAP2 POP POP JUMP JUMPDEST PUSH0 DUP1 PUSH0 PUSH1 0x60 PUSH0 DUP1 SLOAD SWAP1 PUSH2 0x100 EXP SWAP1 DIV PUSH1 0x3 SIGNEXTEND PUSH0 PUSH1 0x4 SWAP1 SLOAD SWAP1 PUSH2 0x100 EXP SWAP1 DIV PUSH1 0x3 SIGNEXTEND PUSH0 PUSH1 0x8 SWAP1 SLOAD SWAP1 PUSH2 0x100 EXP SWAP1 DIV PUSH1 0x7 SIGNEXTEND PUSH1 0x1 DUP1 DUP1 SLOAD PUSH2 0x591 SWAP1 PUSH2 0x855 JUMP JUMPDEST DUP1 PUSH1 0x1F ADD PUSH1 0x20 DUP1 SWAP2 DIV MUL PUSH1 0x20 ADD PUSH1 0x40 MLOAD SWAP1 DUP2 ADD PUSH1 0x40 MSTORE DUP1 SWAP3 SWAP2 SWAP1 DUP2 DUP2 MSTORE PUSH1 0x20 ADD DUP3 DUP1 SLOAD PUSH2 0x5BD SWAP1 PUSH2 0x855 JUMP JUMPDEST DUP1 ISZERO PUSH2 0x608 JUMPI DUP1 PUSH1 0x1F LT PUSH2 0x5DF JUMPI PUSH2 0x100 DUP1 DUP4 SLOAD DIV MUL DUP4 MSTORE SWAP2 PUSH1 0x20 ADD SWAP2 PUSH2 0x608 JUMP JUMPDEST DUP3 ADD SWAP2 SWAP1 PUSH0 MSTORE PUSH1 0x20 PUSH0 KECCAK256 SWAP1 JUMPDEST DUP2 SLOAD DUP2 MSTORE SWAP1 PUSH1 0x1 ADD SWAP1 PUSH1 0x20 ADD DUP1 DUP4 GT PUSH2 0x5EB JUMPI DUP3 SWAP1 SUB PUSH1 0x1F AND DUP3 ADD SWAP2 JUMPDEST POP POP POP POP POP SWAP1 POP SWAP4 POP SWAP4 POP SWAP4 POP SWAP4 POP SWAP1 SWAP2 SWAP3 SWAP4 JUMP JUMPDEST PUSH0 DUP1 REVERT JUMPDEST PUSH0 DUP2 PUSH1 0x3 SIGNEXTEND SWAP1 POP SWAP2 SWAP1 POP JUMP JUMPDEST PUSH2 0x636 DUP2 PUSH2 0x621 JUMP JUMPDEST DUP2 EQ PUSH2 0x640 JUMPI PUSH0 DUP1 REVERT JUMPDEST POP JUMP JUMPDEST PUSH0 DUP2 CALLDATALOAD SWAP1 POP PUSH2 0x651 DUP2 PUSH2 0x62D JUMP JUMPDEST SWAP3 SWAP2 POP POP JUMP JUMPDEST PUSH0 DUP1 PUSH1 0x40 DUP4 DUP6 SUB SLT ISZERO PUSH2 0x66D JUMPI PUSH2 0x66C PUSH2 0x61D JUMP JUMPDEST JUMPDEST PUSH0 PUSH2 0x67A DUP6 DUP3 DUP7 ADD PUSH2 0x643 JUMP JUMPDEST SWAP3 POP POP PUSH1 0x20 PUSH2 0x68B DUP6 DUP3 DUP7 ADD PUSH2 0x643 JUMP JUMPDEST SWAP2 POP POP SWAP3 POP SWAP3 SWAP1 POP JUMP JUMPDEST PUSH0 DUP2 PUSH1 0x7 SIGNEXTEND SWAP1 POP SWAP2 SWAP1 POP JUMP JUMPDEST PUSH2 0x6AA DUP2 PUSH2 0x695 JUMP JUMPDEST DUP3 MSTORE POP POP JUMP JUMPDEST PUSH0 PUSH1 0x20 DUP3 ADD SWAP1 POP PUSH2 0x6C3 PUSH0 DUP4 ADD DUP5 PUSH2 0x6A1 JUMP JUMPDEST SWAP3 SWAP2 POP POP JUMP JUMPDEST PUSH2 0x6D2 DUP2 PUSH2 0x621 JUMP JUMPDEST DUP3 MSTORE POP POP JUMP JUMPDEST PUSH0 DUP2 MLOAD SWAP1 POP SWAP2 SWAP1 POP JUMP JUMPDEST PUSH0 DUP3 DUP3 MSTORE PUSH1 0x20 DUP3 ADD SWAP1 POP SWAP3 SWAP2 POP POP JUMP JUMPDEST DUP3 DUP2 DUP4 MCOPY PUSH0 DUP4 DUP4 ADD MSTORE POP POP POP JUMP JUMPDEST PUSH0 PUSH1 0x1F NOT PUSH1 0x1F DUP4 ADD AND SWAP1 POP SWAP2 SWAP1 POP JUMP JUMPDEST PUSH0 PUSH2 0x71A DUP3 PUSH2 0x6D8 JUMP JUMPDEST PUSH2 0x724 DUP2 DUP6 PUSH2 0x6E2 JUMP JUMPDEST SWAP4 POP PUSH2 0x734 DUP2 DUP6 PUSH1 0x20 DUP7 ADD PUSH2 0x6F2 JUMP JUMPDEST PUSH2 0x73D DUP2 PUSH2 0x700 JUMP JUMPDEST DUP5 ADD SWAP2 POP POP SWAP3 SWAP2 POP POP JUMP JUMPDEST PUSH0 PUSH1 0x80 DUP3 ADD SWAP1 POP PUSH2 0x75B PUSH0 DUP4 ADD DUP8 PUSH2 0x6C9 JUMP JUMPDEST PUSH2 0x768 PUSH1 0x20 DUP4 ADD DUP7 PUSH2 0x6C9 JUMP JUMPDEST PUSH2 0x775 PUSH1 0x40 DUP4 ADD DUP6 PUSH2 0x6A1 JUMP JUMPDEST DUP2 DUP2 SUB PUSH1 0x60 DUP4 ADD MSTORE PUSH2 0x787 DUP2 DUP5 PUSH2 0x710 JUMP JUMPDEST SWAP1 POP SWAP6 SWAP5 POP POP POP POP POP JUMP JUMPDEST PUSH32 0x4E487B7100000000000000000000000000000000000000000000000000000000 PUSH0 MSTORE PUSH1 0x11 PUSH1 0x4 MSTORE PUSH1 0x24 PUSH0 REVERT JUMPDEST PUSH0 PUSH2 0x7C9 DUP3 PUSH2 0x621 JUMP JUMPDEST SWAP2 POP PUSH2 0x7D4 DUP4 PUSH2 0x621 JUMP JUMPDEST SWAP3 POP DUP3 DUP3 MUL PUSH2 0x7E2 DUP2 PUSH2 0x621 JUMP JUMPDEST SWAP2 POP DUP1 DUP3 EQ PUSH2 0x7F4 JUMPI PUSH2 0x7F3 PUSH2 0x792 JUMP JUMPDEST JUMPDEST POP SWAP3 SWAP2 POP POP JUMP JUMPDEST PUSH32 0x4E487B7100000000000000000000000000000000000000000000000000000000 PUSH0 MSTORE PUSH1 0x41 PUSH1 0x4 MSTORE PUSH1 0x24 PUSH0 REVERT JUMPDEST PUSH32 0x4E487B7100000000000000000000000000000000000000000000000000000000 PUSH0 MSTORE PUSH1 0x22 PUSH1 0x4 MSTORE PUSH1 0x24 PUSH0 REVERT JUMPDEST PUSH0 PUSH1 0x2 DUP3 DIV SWAP1 POP PUSH1 0x1 DUP3 AND DUP1 PUSH2 0x86C JUMPI PUSH1 0x7F DUP3 AND SWAP2 POP JUMPDEST PUSH1 0x20 DUP3 LT DUP2 SUB PUSH2 0x87F JUMPI PUSH2 0x87E PUSH2 0x828 JUMP JUMPDEST JUMPDEST POP SWAP2 SWAP1 POP JUMP JUMPDEST PUSH0 DUP2 SWAP1 POP DUP2 PUSH0 MSTORE PUSH1 0x20 PUSH0 KECCAK256 SWAP1 POP SWAP2 SWAP1 POP JUMP JUMPDEST PUSH0 PUSH1 0x20 PUSH1 0x1F DUP4 ADD DIV SWAP1 POP SWAP2 SWAP1 POP JUMP JUMPDEST PUSH0 DUP3 DUP3 SHL SWAP1 POP SWAP3 SWAP2 POP POP JUMP JUMPDEST PUSH0 PUSH1 0x8 DUP4 MUL PUSH2 0x8E1 PUSH32 0xFFFFFFFFFFFFFFFFFFFFFFFFFFFFFFFFFFFFFFFFFFFFFFFFFFFFFFFFFFFFFFFF DUP3 PUSH2 0x8A6 JUMP JUMPDEST PUSH2 0x8EB DUP7 DUP4 PUSH2 0x8A6 JUMP JUMPDEST SWAP6 POP DUP1 NOT DUP5 AND SWAP4 POP DUP1 DUP7 AND DUP5 OR SWAP3 POP POP POP SWAP4 SWAP3 POP POP POP JUMP JUMPDEST PUSH0 DUP2 SWAP1 POP SWAP2 SWAP1 POP JUMP JUMPDEST PUSH0 DUP2 SWAP1 POP SWAP2 SWAP1 POP JUMP JUMPDEST PUSH0 PUSH2 0x92F PUSH2 0x92A PUSH2 0x925 DUP5 PUSH2 0x903 JUMP JUMPDEST PUSH2 0x90C JUMP JUMPDEST PUSH2 0x903 JUMP JUMPDEST SWAP1 POP SWAP2 SWAP1 POP JUMP JUMPDEST PUSH0 DUP2 SWAP1 POP SWAP2 SWAP1 POP JUMP JUMPDEST PUSH2 0x948 DUP4 PUSH2 0x915 JUMP JUMPDEST PUSH2 0x95C PUSH2 0x954 DUP3 PUSH2 0x936 JUMP JUMPDEST DUP5 DUP5 SLOAD PUSH2 0x8B2 JUMP JUMPDEST DUP3 SSTORE POP POP POP POP JUMP JUMPDEST PUSH0 SWAP1 JUMP JUMPDEST PUSH2 0x970 PUSH2 0x964 JUMP JUMPDEST PUSH2 0x97B DUP2 DUP5 DUP5 PUSH2 0x93F JUMP JUMPDEST POP POP POP JUMP JUMPDEST JUMPDEST DUP2 DUP2 LT ISZERO PUSH2 0x99E JUMPI PUSH2 0x993 PUSH0 DUP3 PUSH2 0x968 JUMP JUMPDEST PUSH1 0x1 DUP2 ADD SWAP1 POP PUSH2 0x981 JUMP JUMPDEST POP POP JUMP JUMPDEST PUSH1 0x1F DUP3 GT ISZERO PUSH2 0x9E3 JUMPI PUSH2 0x9B4 DUP2 PUSH2 0x885 JUMP JUMPDEST PUSH2 0x9BD DUP5 PUSH2 0x897 JUMP JUMPDEST DUP2 ADD PUSH1 0x20 DUP6 LT ISZERO PUSH2 0x9CC JUMPI DUP2 SWAP1 POP JUMPDEST PUSH2 0x9E0 PUSH2 0x9D8 DUP6 PUSH2 0x897 JUMP JUMPDEST DUP4 ADD DUP3 PUSH2 0x980 JUMP JUMPDEST POP POP JUMPDEST POP POP POP JUMP JUMPDEST PUSH0 DUP3 DUP3 SHR SWAP1 POP SWAP3 SWAP2 POP POP JUMP JUMPDEST PUSH0 PUSH2 0xA03 PUSH0 NOT DUP5 PUSH1 0x8 MUL PUSH2 0x9E8 JUMP JUMPDEST NOT DUP1 DUP4 AND SWAP2 POP POP SWAP3 SWAP2 POP POP JUMP JUMPDEST PUSH0 PUSH2 0xA1B DUP4 DUP4 PUSH2 0x9F4 JUMP JUMPDEST SWAP2 POP DUP3 PUSH1 0x2 MUL DUP3 OR SWAP1 POP SWAP3 SWAP2 POP POP JUMP JUMPDEST PUSH2 0xA34 DUP3 PUSH2 0x6D8 JUMP JUMPDEST PUSH8 0xFFFFFFFFFFFFFFFF DUP2 GT ISZERO PUSH2 0xA4D JUMPI PUSH2 0xA4C PUSH2 0x7FB JUMP JUMPDEST JUMPDEST PUSH2 0xA57 DUP3 SLOAD PUSH2 0x855 JUMP JUMPDEST PUSH2 0xA62 DUP3 DUP3 DUP6 PUSH2 0x9A2 JUMP JUMPDEST PUSH0 PUSH1 0x20 SWAP1 POP PUSH1 0x1F DUP4 GT PUSH1 0x1 DUP2 EQ PUSH2 0xA93 JUMPI PUSH0 DUP5 ISZERO PUSH2 0xA81 JUMPI DUP3 DUP8 ADD MLOAD SWAP1 POP JUMPDEST PUSH2 0xA8B DUP6 DUP3 PUSH2 0xA10 JUMP JUMPDEST DUP7 SSTORE POP PUSH2 0xAF2 JUMP JUMPDEST PUSH1 0x1F NOT DUP5 AND PUSH2 0xAA1 DUP7 PUSH2 0x885 JUMP JUMPDEST PUSH0 JUMPDEST DUP3 DUP2 LT ISZERO PUSH2 0xAC8 JUMPI DUP5 DUP10 ADD MLOAD DUP3 SSTORE PUSH1 0x1 DUP3 ADD SWAP2 POP PUSH1 0x20 DUP6 ADD SWAP5 POP PUSH1 0x20 DUP2 ADD SWAP1 POP PUSH2 0xAA3 JUMP JUMPDEST DUP7 DUP4 LT ISZERO PUSH2 0xAE5 JUMPI DUP5 DUP10 ADD MLOAD PUSH2 0xAE1 PUSH1 0x1F DUP10 AND DUP3 PUSH2 0x9F4 JUMP JUMPDEST DUP4 SSTORE POP JUMPDEST PUSH1 0x1 PUSH1 0x2 DUP9 MUL ADD DUP9 SSTORE POP POP POP JUMPDEST POP POP POP POP POP POP JUMP JUMPDEST PUSH0 PUSH2 0xB04 DUP3 PUSH2 0x621 JUMP JUMPDEST SWAP2 POP PUSH2 0xB0F DUP4 PUSH2 0x621 JUMP JUMPDEST SWAP3 POP DUP3 DUP3 SUB SWAP1 POP PUSH4 0x7FFFFFFF DUP2 SGT PUSH32 0xFFFFFFFFFFFFFFFFFFFFFFFFFFFFFFFFFFFFFFFFFFFFFFFFFFFFFFFF80000000 DUP3 SLT OR ISZERO PUSH2 0xB4F JUMPI PUSH2 0xB4E PUSH2 0x792 JUMP JUMPDEST JUMPDEST SWAP3 SWAP2 POP POP JUMP JUMPDEST PUSH32 0x4469766973696F6E206279207A65726F206973206E6F7420616C6C6F77656400 PUSH0 DUP3 ADD MSTORE POP JUMP JUMPDEST PUSH0 PUSH2 0xB89 PUSH1 0x1F DUP4 PUSH2 0x6E2 JUMP JUMPDEST SWAP2 POP PUSH2 0xB94 DUP3 PUSH2 0xB55 JUMP JUMPDEST PUSH1 0x20 DUP3 ADD SWAP1 POP SWAP2 SWAP1 POP JUMP JUMPDEST PUSH0 PUSH1 0x20 DUP3 ADD SWAP1 POP DUP2 DUP2 SUB PUSH0 DUP4 ADD MSTORE PUSH2 0xBB6 DUP2 PUSH2 0xB7D JUMP JUMPDEST SWAP1 POP SWAP2 SWAP1 POP JUMP JUMPDEST PUSH32 0x4E487B7100000000000000000000000000000000000000000000000000000000 PUSH0 MSTORE PUSH1 0x12 PUSH1 0x4 MSTORE PUSH1 0x24 PUSH0 REVERT JUMPDEST PUSH0 PUSH2 0xBF4 DUP3 PUSH2 0x621 JUMP JUMPDEST SWAP2 POP PUSH2 0xBFF DUP4 PUSH2 0x621 JUMP JUMPDEST SWAP3 POP DUP3 PUSH2 0xC0F JUMPI PUSH2 0xC0E PUSH2 0xBBD JUMP JUMPDEST JUMPDEST PUSH1 0x1 PUSH0 SUB DUP4 EQ PUSH32 0xFFFFFFFFFFFFFFFFFFFFFFFFFFFFFFFFFFFFFFFFFFFFFFFFFFFFFFFF80000000 DUP4 EQ AND ISZERO PUSH2 0xC47 JUMPI PUSH2 0xC46 PUSH2 0x792 JUMP JUMPDEST JUMPDEST DUP3 DUP3 SDIV SWAP1 POP SWAP3 SWAP2 POP POP JUMP JUMPDEST PUSH0 PUSH2 0xC5C DUP3 PUSH2 0x621 JUMP JUMPDEST SWAP2 POP PUSH2 0xC67 DUP4 PUSH2 0x621 JUMP JUMPDEST SWAP3 POP DUP3 DUP3 ADD SWAP1 POP PUSH32 0xFFFFFFFFFFFFFFFFFFFFFFFFFFFFFFFFFFFFFFFFFFFFFFFFFFFFFFFF80000000 DUP2 SLT PUSH4 0x7FFFFFFF DUP3 SGT OR ISZERO PUSH2 0xCA7 JUMPI PUSH2 0xCA6 PUSH2 0x792 JUMP JUMPDEST JUMPDEST SWAP3 SWAP2 POP POP JUMP INVALID LOG2 PUSH5 0x6970667358 0x22 SLT KECCAK256 0xE4 0xAB 0xCE ADD PUSH19 0xA6168E34DB4D926868210E37870A6C7F5A60C7 0xB6 SWAP7 0xAB 0xE7 COINBASE LOG1 DUP2 SWAP11 PUSH5 0x736F6C6343 STOP ADDMOD BYTE STOP CALLER "
				},
				"gasEstimates": {
					"creation": {
						"codeDepositCost": "659800",
						"executionCost": "694",
						"totalCost": "660494"
					},
					"external": {
						"add(int32,int32)": "infinite",
						"divide(int32,int32)": "infinite",
						"getLastOperation()": "infinite",
						"multiply(int32,int32)": "infinite",
						"subtract(int32,int32)": "infinite"
					}
				},
				"methodIdentifiers": {
					"add(int32,int32)": "e42a722b",
					"divide(int32,int32)": "b70a5194",
					"getLastOperation()": "e8e34b57",
					"multiply(int32,int32)": "244adc16",
					"subtract(int32,int32)": "716530c4"
				}
			},
			"storageLayout": {
				"storage": [
					{
						"astId": 3,
						"contract": "contracts/Blockchain_Assignment_1/Task_Codes/t_ask1_task5.sol:Calculator",
						"label": "operand1",
						"offset": 0,
						"slot": "0",
						"type": "t_int32"
					},
					{
						"astId": 5,
						"contract": "contracts/Blockchain_Assignment_1/Task_Codes/t_ask1_task5.sol:Calculator",
						"label": "operand2",
						"offset": 4,
						"slot": "0",
						"type": "t_int32"
					},
					{
						"astId": 7,
						"contract": "contracts/Blockchain_Assignment_1/Task_Codes/t_ask1_task5.sol:Calculator",
						"label": "lastResult",
						"offset": 8,
						"slot": "0",
						"type": "t_int64"
					},
					{
						"astId": 9,
						"contract": "contracts/Blockchain_Assignment_1/Task_Codes/t_ask1_task5.sol:Calculator",
						"label": "lastOperation",
						"offset": 0,
						"slot": "1",
						"type": "t_string_storage"
					}
				],
				"types": {
					"t_int32": {
						"encoding": "inplace",
						"label": "int32",
						"numberOfBytes": "4"
					},
					"t_int64": {
						"encoding": "inplace",
						"label": "int64",
						"numberOfBytes": "8"
					},
					"t_string_storage": {
						"encoding": "bytes",
						"label": "string",
						"numberOfBytes": "32"
					}
				}
			},
			"userdoc": {
				"kind": "user",
				"methods": {},
				"version": 1
			}
		}
	}
}