{
	"contracts/Blockchain_Assignment_1/Task_Codes/t_as1_task4.sol": {
		"CompareIntegers": {
			"abi": [
				{
					"inputs": [],
					"name": "a",
					"outputs": [
						{
							"internalType": "int64",
							"name": "",
							"type": "int64"
						}
					],
					"stateMutability": "view",
					"type": "function"
				},
				{
					"inputs": [],
					"name": "b",
					"outputs": [
						{
							"internalType": "int64",
							"name": "",
							"type": "int64"
						}
					],
					"stateMutability": "view",
					"type": "function"
				},
				{
					"inputs": [],
					"name": "getLarger",
					"outputs": [
						{
							"internalType": "int64",
							"name": "",
							"type": "int64"
						}
					],
					"stateMutability": "view",
					"type": "function"
				},
				{
					"inputs": [],
					"name": "getSmaller",
					"outputs": [
						{
							"internalType": "int64",
							"name": "",
							"type": "int64"
						}
					],
					"stateMutability": "view",
					"type": "function"
				},
				{
					"inputs": [],
					"name": "isEqual",
					"outputs": [
						{
							"internalType": "bool",
							"name": "",
							"type": "bool"
						}
					],
					"stateMutability": "view",
					"type": "function"
				},
				{
					"inputs": [
						{
							"internalType": "int64",
							"name": "_a",
							"type": "int64"
						},
						{
							"internalType": "int64",
							"name": "_b",
							"type": "int64"
						}
					],
					"name": "setValues",
					"outputs": [],
					"stateMutability": "nonpayable",
					"type": "function"
				},
				{
					"inputs": [],
					"name": "swapValues",
					"outputs": [],
					"stateMutability": "nonpayable",
					"type": "function"
				}
			],
			"devdoc": {
				"kind": "dev",
				"methods": {},
				"version": 1
			},
			"evm": {
				"assembly": "    /* \"contracts/Blockchain_Assignment_1/Task_Codes/t_as1_task4.sol\":28:969  contract CompareIntegers {... */\n  mstore(0x40, 0x80)\n  callvalue\n  dup1\n  iszero\n  tag_1\n  jumpi\n  0x00\n  dup1\n  revert\ntag_1:\n  pop\n  dataSize(sub_0)\n  dup1\n  dataOffset(sub_0)\n  0x00\n  codecopy\n  0x00\n  return\nstop\n\nsub_0: assembly {\n        /* \"contracts/Blockchain_Assignment_1/Task_Codes/t_as1_task4.sol\":28:969  contract CompareIntegers {... */\n      mstore(0x40, 0x80)\n      callvalue\n      dup1\n      iszero\n      tag_1\n      jumpi\n      0x00\n      dup1\n      revert\n    tag_1:\n      pop\n      jumpi(tag_2, lt(calldatasize, 0x04))\n      shr(0xe0, calldataload(0x00))\n      dup1\n      0x4df7e3d0\n      gt\n      tag_10\n      jumpi\n      dup1\n      0x4df7e3d0\n      eq\n      tag_6\n      jumpi\n      dup1\n      0x53ed44f4\n      eq\n      tag_7\n      jumpi\n      dup1\n      0xacbe8452\n      eq\n      tag_8\n      jumpi\n      dup1\n      0xdcb207f0\n      eq\n      tag_9\n      jumpi\n      jump(tag_2)\n    tag_10:\n      dup1\n      0x0dbe671f\n      eq\n      tag_3\n      jumpi\n      dup1\n      0x162e9324\n      eq\n      tag_4\n      jumpi\n      dup1\n      0x2cd4c409\n      eq\n      tag_5\n      jumpi\n    tag_2:\n      0x00\n      dup1\n      revert\n        /* \"contracts/Blockchain_Assignment_1/Task_Codes/t_as1_task4.sol\":101:115  int64 public a */\n    tag_3:\n      tag_11\n      tag_12\n      jump\t// in\n    tag_11:\n      mload(0x40)\n      tag_13\n      swap2\n      swap1\n      tag_14\n      jump\t// in\n    tag_13:\n      mload(0x40)\n      dup1\n      swap2\n      sub\n      swap1\n      return\n        /* \"contracts/Blockchain_Assignment_1/Task_Codes/t_as1_task4.sol\":470:601  function getLarger() public view returns (int64) {... */\n    tag_4:\n      tag_15\n      tag_16\n      jump\t// in\n    tag_15:\n      mload(0x40)\n      tag_17\n      swap2\n      swap1\n      tag_14\n      jump\t// in\n    tag_17:\n      mload(0x40)\n      dup1\n      swap2\n      sub\n      swap1\n      return\n        /* \"contracts/Blockchain_Assignment_1/Task_Codes/t_as1_task4.sol\":191:279  function setValues(int64 _a, int64 _b) public {... */\n    tag_5:\n      tag_18\n      0x04\n      dup1\n      calldatasize\n      sub\n      dup2\n      add\n      swap1\n      tag_19\n      swap2\n      swap1\n      tag_20\n      jump\t// in\n    tag_19:\n      tag_21\n      jump\t// in\n    tag_18:\n      stop\n        /* \"contracts/Blockchain_Assignment_1/Task_Codes/t_as1_task4.sol\":122:136  int64 public b */\n    tag_6:\n      tag_22\n      tag_23\n      jump\t// in\n    tag_22:\n      mload(0x40)\n      tag_24\n      swap2\n      swap1\n      tag_14\n      jump\t// in\n    tag_24:\n      mload(0x40)\n      dup1\n      swap2\n      sub\n      swap1\n      return\n        /* \"contracts/Blockchain_Assignment_1/Task_Codes/t_as1_task4.sol\":334:413  function swapValues() public {... */\n    tag_7:\n      tag_25\n      tag_26\n      jump\t// in\n    tag_25:\n      stop\n        /* \"contracts/Blockchain_Assignment_1/Task_Codes/t_as1_task4.sol\":846:966  function isEqual() public view returns (bool) {... */\n    tag_8:\n      tag_27\n      tag_28\n      jump\t// in\n    tag_27:\n      mload(0x40)\n      tag_29\n      swap2\n      swap1\n      tag_30\n      jump\t// in\n    tag_29:\n      mload(0x40)\n      dup1\n      swap2\n      sub\n      swap1\n      return\n        /* \"contracts/Blockchain_Assignment_1/Task_Codes/t_as1_task4.sol\":659:791  function getSmaller() public view returns (int64) {... */\n    tag_9:\n      tag_31\n      tag_32\n      jump\t// in\n    tag_31:\n      mload(0x40)\n      tag_33\n      swap2\n      swap1\n      tag_14\n      jump\t// in\n    tag_33:\n      mload(0x40)\n      dup1\n      swap2\n      sub\n      swap1\n      return\n        /* \"contracts/Blockchain_Assignment_1/Task_Codes/t_as1_task4.sol\":101:115  int64 public a */\n    tag_12:\n      0x00\n      dup1\n      sload\n      swap1\n      0x0100\n      exp\n      swap1\n      div\n      0x07\n      signextend\n      dup2\n      jump\t// out\n        /* \"contracts/Blockchain_Assignment_1/Task_Codes/t_as1_task4.sol\":470:601  function getLarger() public view returns (int64) {... */\n    tag_16:\n        /* \"contracts/Blockchain_Assignment_1/Task_Codes/t_as1_task4.sol\":512:517  int64 */\n      0x00\n        /* \"contracts/Blockchain_Assignment_1/Task_Codes/t_as1_task4.sol\":542:543  b */\n      dup1\n      0x08\n      swap1\n      sload\n      swap1\n      0x0100\n      exp\n      swap1\n      div\n      0x07\n      signextend\n        /* \"contracts/Blockchain_Assignment_1/Task_Codes/t_as1_task4.sol\":537:543  a >= b */\n      0x07\n      signextend\n        /* \"contracts/Blockchain_Assignment_1/Task_Codes/t_as1_task4.sol\":537:538  a */\n      0x00\n      dup1\n      sload\n      swap1\n      0x0100\n      exp\n      swap1\n      div\n      0x07\n      signextend\n        /* \"contracts/Blockchain_Assignment_1/Task_Codes/t_as1_task4.sol\":537:543  a >= b */\n      0x07\n      signextend\n      slt\n      iszero\n        /* \"contracts/Blockchain_Assignment_1/Task_Codes/t_as1_task4.sol\":537:551  a >= b ? a : b */\n      tag_35\n      jumpi\n        /* \"contracts/Blockchain_Assignment_1/Task_Codes/t_as1_task4.sol\":550:551  b */\n      0x00\n      0x08\n      swap1\n      sload\n      swap1\n      0x0100\n      exp\n      swap1\n      div\n      0x07\n      signextend\n        /* \"contracts/Blockchain_Assignment_1/Task_Codes/t_as1_task4.sol\":537:551  a >= b ? a : b */\n      jump(tag_36)\n    tag_35:\n        /* \"contracts/Blockchain_Assignment_1/Task_Codes/t_as1_task4.sol\":546:547  a */\n      0x00\n      dup1\n      sload\n      swap1\n      0x0100\n      exp\n      swap1\n      div\n      0x07\n      signextend\n        /* \"contracts/Blockchain_Assignment_1/Task_Codes/t_as1_task4.sol\":537:551  a >= b ? a : b */\n    tag_36:\n        /* \"contracts/Blockchain_Assignment_1/Task_Codes/t_as1_task4.sol\":530:551  return a >= b ? a : b */\n      swap1\n      pop\n        /* \"contracts/Blockchain_Assignment_1/Task_Codes/t_as1_task4.sol\":470:601  function getLarger() public view returns (int64) {... */\n      swap1\n      jump\t// out\n        /* \"contracts/Blockchain_Assignment_1/Task_Codes/t_as1_task4.sol\":191:279  function setValues(int64 _a, int64 _b) public {... */\n    tag_21:\n        /* \"contracts/Blockchain_Assignment_1/Task_Codes/t_as1_task4.sol\":252:254  _a */\n      dup2\n        /* \"contracts/Blockchain_Assignment_1/Task_Codes/t_as1_task4.sol\":248:249  a */\n      0x00\n      dup1\n        /* \"contracts/Blockchain_Assignment_1/Task_Codes/t_as1_task4.sol\":248:254  a = _a */\n      0x0100\n      exp\n      dup2\n      sload\n      dup2\n      0xffffffffffffffff\n      mul\n      not\n      and\n      swap1\n      dup4\n      0x07\n      signextend\n      0xffffffffffffffff\n      and\n      mul\n      or\n      swap1\n      sstore\n      pop\n        /* \"contracts/Blockchain_Assignment_1/Task_Codes/t_as1_task4.sol\":269:271  _b */\n      dup1\n        /* \"contracts/Blockchain_Assignment_1/Task_Codes/t_as1_task4.sol\":265:266  b */\n      0x00\n      0x08\n        /* \"contracts/Blockchain_Assignment_1/Task_Codes/t_as1_task4.sol\":265:271  b = _b */\n      0x0100\n      exp\n      dup2\n      sload\n      dup2\n      0xffffffffffffffff\n      mul\n      not\n      and\n      swap1\n      dup4\n      0x07\n      signextend\n      0xffffffffffffffff\n      and\n      mul\n      or\n      swap1\n      sstore\n      pop\n        /* \"contracts/Blockchain_Assignment_1/Task_Codes/t_as1_task4.sol\":191:279  function setValues(int64 _a, int64 _b) public {... */\n      pop\n      pop\n      jump\t// out\n        /* \"contracts/Blockchain_Assignment_1/Task_Codes/t_as1_task4.sol\":122:136  int64 public b */\n    tag_23:\n      0x00\n      0x08\n      swap1\n      sload\n      swap1\n      0x0100\n      exp\n      swap1\n      div\n      0x07\n      signextend\n      dup2\n      jump\t// out\n        /* \"contracts/Blockchain_Assignment_1/Task_Codes/t_as1_task4.sol\":334:413  function swapValues() public {... */\n    tag_26:\n        /* \"contracts/Blockchain_Assignment_1/Task_Codes/t_as1_task4.sol\":384:385  b */\n      0x00\n      0x08\n      swap1\n      sload\n      swap1\n      0x0100\n      exp\n      swap1\n      div\n      0x07\n      signextend\n        /* \"contracts/Blockchain_Assignment_1/Task_Codes/t_as1_task4.sol\":387:388  a */\n      0x00\n      dup1\n      sload\n      swap1\n      0x0100\n      exp\n      swap1\n      div\n      0x07\n      signextend\n        /* \"contracts/Blockchain_Assignment_1/Task_Codes/t_as1_task4.sol\":375:376  a */\n      0x00\n      dup1\n        /* \"contracts/Blockchain_Assignment_1/Task_Codes/t_as1_task4.sol\":378:379  b */\n      0x00\n      0x08\n        /* \"contracts/Blockchain_Assignment_1/Task_Codes/t_as1_task4.sol\":374:389  (a, b) = (b, a) */\n      dup5\n      swap2\n      swap1\n      0x0100\n      exp\n      dup2\n      sload\n      dup2\n      0xffffffffffffffff\n      mul\n      not\n      and\n      swap1\n      dup4\n      0x07\n      signextend\n      0xffffffffffffffff\n      and\n      mul\n      or\n      swap1\n      sstore\n      pop\n      dup4\n      swap2\n      swap1\n      0x0100\n      exp\n      dup2\n      sload\n      dup2\n      0xffffffffffffffff\n      mul\n      not\n      and\n      swap1\n      dup4\n      0x07\n      signextend\n      0xffffffffffffffff\n      and\n      mul\n      or\n      swap1\n      sstore\n      pop\n      pop\n      pop\n        /* \"contracts/Blockchain_Assignment_1/Task_Codes/t_as1_task4.sol\":334:413  function swapValues() public {... */\n      jump\t// out\n        /* \"contracts/Blockchain_Assignment_1/Task_Codes/t_as1_task4.sol\":846:966  function isEqual() public view returns (bool) {... */\n    tag_28:\n        /* \"contracts/Blockchain_Assignment_1/Task_Codes/t_as1_task4.sol\":886:890  bool */\n      0x00\n        /* \"contracts/Blockchain_Assignment_1/Task_Codes/t_as1_task4.sol\":915:916  b */\n      dup1\n      0x08\n      swap1\n      sload\n      swap1\n      0x0100\n      exp\n      swap1\n      div\n      0x07\n      signextend\n        /* \"contracts/Blockchain_Assignment_1/Task_Codes/t_as1_task4.sol\":910:916  a == b */\n      0x07\n      signextend\n        /* \"contracts/Blockchain_Assignment_1/Task_Codes/t_as1_task4.sol\":910:911  a */\n      0x00\n      dup1\n      sload\n      swap1\n      0x0100\n      exp\n      swap1\n      div\n      0x07\n      signextend\n        /* \"contracts/Blockchain_Assignment_1/Task_Codes/t_as1_task4.sol\":910:916  a == b */\n      0x07\n      signextend\n      eq\n        /* \"contracts/Blockchain_Assignment_1/Task_Codes/t_as1_task4.sol\":903:916  return a == b */\n      swap1\n      pop\n        /* \"contracts/Blockchain_Assignment_1/Task_Codes/t_as1_task4.sol\":846:966  function isEqual() public view returns (bool) {... */\n      swap1\n      jump\t// out\n        /* \"contracts/Blockchain_Assignment_1/Task_Codes/t_as1_task4.sol\":659:791  function getSmaller() public view returns (int64) {... */\n    tag_32:\n        /* \"contracts/Blockchain_Assignment_1/Task_Codes/t_as1_task4.sol\":702:707  int64 */\n      0x00\n        /* \"contracts/Blockchain_Assignment_1/Task_Codes/t_as1_task4.sol\":732:733  b */\n      dup1\n      0x08\n      swap1\n      sload\n      swap1\n      0x0100\n      exp\n      swap1\n      div\n      0x07\n      signextend\n        /* \"contracts/Blockchain_Assignment_1/Task_Codes/t_as1_task4.sol\":727:733  a <= b */\n      0x07\n      signextend\n        /* \"contracts/Blockchain_Assignment_1/Task_Codes/t_as1_task4.sol\":727:728  a */\n      0x00\n      dup1\n      sload\n      swap1\n      0x0100\n      exp\n      swap1\n      div\n      0x07\n      signextend\n        /* \"contracts/Blockchain_Assignment_1/Task_Codes/t_as1_task4.sol\":727:733  a <= b */\n      0x07\n      signextend\n      sgt\n      iszero\n        /* \"contracts/Blockchain_Assignment_1/Task_Codes/t_as1_task4.sol\":727:741  a <= b ? a : b */\n      tag_41\n      jumpi\n        /* \"contracts/Blockchain_Assignment_1/Task_Codes/t_as1_task4.sol\":740:741  b */\n      0x00\n      0x08\n      swap1\n      sload\n      swap1\n      0x0100\n      exp\n      swap1\n      div\n      0x07\n      signextend\n        /* \"contracts/Blockchain_Assignment_1/Task_Codes/t_as1_task4.sol\":727:741  a <= b ? a : b */\n      jump(tag_42)\n    tag_41:\n        /* \"contracts/Blockchain_Assignment_1/Task_Codes/t_as1_task4.sol\":736:737  a */\n      0x00\n      dup1\n      sload\n      swap1\n      0x0100\n      exp\n      swap1\n      div\n      0x07\n      signextend\n        /* \"contracts/Blockchain_Assignment_1/Task_Codes/t_as1_task4.sol\":727:741  a <= b ? a : b */\n    tag_42:\n        /* \"contracts/Blockchain_Assignment_1/Task_Codes/t_as1_task4.sol\":720:741  return a <= b ? a : b */\n      swap1\n      pop\n        /* \"contracts/Blockchain_Assignment_1/Task_Codes/t_as1_task4.sol\":659:791  function getSmaller() public view returns (int64) {... */\n      swap1\n      jump\t// out\n        /* \"#utility.yul\":7:97   */\n    tag_43:\n        /* \"#utility.yul\":42:49   */\n      0x00\n        /* \"#utility.yul\":85:90   */\n      dup2\n        /* \"#utility.yul\":82:83   */\n      0x07\n        /* \"#utility.yul\":71:91   */\n      signextend\n        /* \"#utility.yul\":60:91   */\n      swap1\n      pop\n        /* \"#utility.yul\":7:97   */\n      swap2\n      swap1\n      pop\n      jump\t// out\n        /* \"#utility.yul\":103:215   */\n    tag_44:\n        /* \"#utility.yul\":186:208   */\n      tag_55\n        /* \"#utility.yul\":202:207   */\n      dup2\n        /* \"#utility.yul\":186:208   */\n      tag_43\n      jump\t// in\n    tag_55:\n        /* \"#utility.yul\":181:184   */\n      dup3\n        /* \"#utility.yul\":174:209   */\n      mstore\n        /* \"#utility.yul\":103:215   */\n      pop\n      pop\n      jump\t// out\n        /* \"#utility.yul\":221:435   */\n    tag_14:\n        /* \"#utility.yul\":310:314   */\n      0x00\n        /* \"#utility.yul\":348:350   */\n      0x20\n        /* \"#utility.yul\":337:346   */\n      dup3\n        /* \"#utility.yul\":333:351   */\n      add\n        /* \"#utility.yul\":325:351   */\n      swap1\n      pop\n        /* \"#utility.yul\":361:428   */\n      tag_57\n        /* \"#utility.yul\":425:426   */\n      0x00\n        /* \"#utility.yul\":414:423   */\n      dup4\n        /* \"#utility.yul\":410:427   */\n      add\n        /* \"#utility.yul\":401:407   */\n      dup5\n        /* \"#utility.yul\":361:428   */\n      tag_44\n      jump\t// in\n    tag_57:\n        /* \"#utility.yul\":221:435   */\n      swap3\n      swap2\n      pop\n      pop\n      jump\t// out\n        /* \"#utility.yul\":522:639   */\n    tag_46:\n        /* \"#utility.yul\":631:632   */\n      0x00\n        /* \"#utility.yul\":628:629   */\n      dup1\n        /* \"#utility.yul\":621:633   */\n      revert\n        /* \"#utility.yul\":768:886   */\n    tag_48:\n        /* \"#utility.yul\":839:861   */\n      tag_62\n        /* \"#utility.yul\":855:860   */\n      dup2\n        /* \"#utility.yul\":839:861   */\n      tag_43\n      jump\t// in\n    tag_62:\n        /* \"#utility.yul\":832:837   */\n      dup2\n        /* \"#utility.yul\":829:862   */\n      eq\n        /* \"#utility.yul\":819:880   */\n      tag_63\n      jumpi\n        /* \"#utility.yul\":876:877   */\n      0x00\n        /* \"#utility.yul\":873:874   */\n      dup1\n        /* \"#utility.yul\":866:878   */\n      revert\n        /* \"#utility.yul\":819:880   */\n    tag_63:\n        /* \"#utility.yul\":768:886   */\n      pop\n      jump\t// out\n        /* \"#utility.yul\":892:1027   */\n    tag_49:\n        /* \"#utility.yul\":936:941   */\n      0x00\n        /* \"#utility.yul\":974:980   */\n      dup2\n        /* \"#utility.yul\":961:981   */\n      calldataload\n        /* \"#utility.yul\":952:981   */\n      swap1\n      pop\n        /* \"#utility.yul\":990:1021   */\n      tag_65\n        /* \"#utility.yul\":1015:1020   */\n      dup2\n        /* \"#utility.yul\":990:1021   */\n      tag_48\n      jump\t// in\n    tag_65:\n        /* \"#utility.yul\":892:1027   */\n      swap3\n      swap2\n      pop\n      pop\n      jump\t// out\n        /* \"#utility.yul\":1033:1499   */\n    tag_20:\n        /* \"#utility.yul\":1097:1103   */\n      0x00\n        /* \"#utility.yul\":1105:1111   */\n      dup1\n        /* \"#utility.yul\":1154:1156   */\n      0x40\n        /* \"#utility.yul\":1142:1151   */\n      dup4\n        /* \"#utility.yul\":1133:1140   */\n      dup6\n        /* \"#utility.yul\":1129:1152   */\n      sub\n        /* \"#utility.yul\":1125:1157   */\n      slt\n        /* \"#utility.yul\":1122:1241   */\n      iszero\n      tag_67\n      jumpi\n        /* \"#utility.yul\":1160:1239   */\n      tag_68\n      tag_46\n      jump\t// in\n    tag_68:\n        /* \"#utility.yul\":1122:1241   */\n    tag_67:\n        /* \"#utility.yul\":1280:1281   */\n      0x00\n        /* \"#utility.yul\":1305:1356   */\n      tag_69\n        /* \"#utility.yul\":1348:1355   */\n      dup6\n        /* \"#utility.yul\":1339:1345   */\n      dup3\n        /* \"#utility.yul\":1328:1337   */\n      dup7\n        /* \"#utility.yul\":1324:1346   */\n      add\n        /* \"#utility.yul\":1305:1356   */\n      tag_49\n      jump\t// in\n    tag_69:\n        /* \"#utility.yul\":1295:1356   */\n      swap3\n      pop\n        /* \"#utility.yul\":1251:1366   */\n      pop\n        /* \"#utility.yul\":1405:1407   */\n      0x20\n        /* \"#utility.yul\":1431:1482   */\n      tag_70\n        /* \"#utility.yul\":1474:1481   */\n      dup6\n        /* \"#utility.yul\":1465:1471   */\n      dup3\n        /* \"#utility.yul\":1454:1463   */\n      dup7\n        /* \"#utility.yul\":1450:1472   */\n      add\n        /* \"#utility.yul\":1431:1482   */\n      tag_49\n      jump\t// in\n    tag_70:\n        /* \"#utility.yul\":1421:1482   */\n      swap2\n      pop\n        /* \"#utility.yul\":1376:1492   */\n      pop\n        /* \"#utility.yul\":1033:1499   */\n      swap3\n      pop\n      swap3\n      swap1\n      pop\n      jump\t// out\n        /* \"#utility.yul\":1505:1595   */\n    tag_50:\n        /* \"#utility.yul\":1539:1546   */\n      0x00\n        /* \"#utility.yul\":1582:1587   */\n      dup2\n        /* \"#utility.yul\":1575:1588   */\n      iszero\n        /* \"#utility.yul\":1568:1589   */\n      iszero\n        /* \"#utility.yul\":1557:1589   */\n      swap1\n      pop\n        /* \"#utility.yul\":1505:1595   */\n      swap2\n      swap1\n      pop\n      jump\t// out\n        /* \"#utility.yul\":1601:1710   */\n    tag_51:\n        /* \"#utility.yul\":1682:1703   */\n      tag_73\n        /* \"#utility.yul\":1697:1702   */\n      dup2\n        /* \"#utility.yul\":1682:1703   */\n      tag_50\n      jump\t// in\n    tag_73:\n        /* \"#utility.yul\":1677:1680   */\n      dup3\n        /* \"#utility.yul\":1670:1704   */\n      mstore\n        /* \"#utility.yul\":1601:1710   */\n      pop\n      pop\n      jump\t// out\n        /* \"#utility.yul\":1716:1926   */\n    tag_30:\n        /* \"#utility.yul\":1803:1807   */\n      0x00\n        /* \"#utility.yul\":1841:1843   */\n      0x20\n        /* \"#utility.yul\":1830:1839   */\n      dup3\n        /* \"#utility.yul\":1826:1844   */\n      add\n        /* \"#utility.yul\":1818:1844   */\n      swap1\n      pop\n        /* \"#utility.yul\":1854:1919   */\n      tag_75\n        /* \"#utility.yul\":1916:1917   */\n      0x00\n        /* \"#utility.yul\":1905:1914   */\n      dup4\n        /* \"#utility.yul\":1901:1918   */\n      add\n        /* \"#utility.yul\":1892:1898   */\n      dup5\n        /* \"#utility.yul\":1854:1919   */\n      tag_51\n      jump\t// in\n    tag_75:\n        /* \"#utility.yul\":1716:1926   */\n      swap3\n      swap2\n      pop\n      pop\n      jump\t// out\n\n    auxdata: 0xa2646970667358221220f853017bd6c3bb267672154c32940b978362ec3283433c6458c068a0706a09ec64736f6c634300081a0033\n}\n",
				"bytecode": {
					"linkReferences": {},
					"object": "6080604052348015600e575f80fd5b506104018061001c5f395ff3fe608060405234801561000f575f80fd5b506004361061007b575f3560e01c80634df7e3d0116100595780634df7e3d0146100d757806353ed44f4146100f5578063acbe8452146100ff578063dcb207f01461011d5761007b565b80630dbe671f1461007f578063162e93241461009d5780632cd4c409146100bb575b5f80fd5b61008761013b565b6040516100949190610313565b60405180910390f35b6100a561014b565b6040516100b29190610313565b60405180910390f35b6100d560048036038101906100d0919061035a565b61019b565b005b6100df6101f4565b6040516100ec9190610313565b60405180910390f35b6100fd610206565b005b61010761027f565b60405161011491906103b2565b60405180910390f35b6101256102a8565b6040516101329190610313565b60405180910390f35b5f8054906101000a900460070b81565b5f8060089054906101000a900460070b60070b5f8054906101000a900460070b60070b1215610188575f60089054906101000a900460070b610196565b5f8054906101000a900460070b5b905090565b815f806101000a81548167ffffffffffffffff021916908360070b67ffffffffffffffff160217905550805f60086101000a81548167ffffffffffffffff021916908360070b67ffffffffffffffff1602179055505050565b5f60089054906101000a900460070b81565b5f60089054906101000a900460070b5f8054906101000a900460070b5f805f60088491906101000a81548167ffffffffffffffff021916908360070b67ffffffffffffffff1602179055508391906101000a81548167ffffffffffffffff021916908360070b67ffffffffffffffff1602179055505050565b5f8060089054906101000a900460070b60070b5f8054906101000a900460070b60070b14905090565b5f8060089054906101000a900460070b60070b5f8054906101000a900460070b60070b13156102e5575f60089054906101000a900460070b6102f3565b5f8054906101000a900460070b5b905090565b5f8160070b9050919050565b61030d816102f8565b82525050565b5f6020820190506103265f830184610304565b92915050565b5f80fd5b610339816102f8565b8114610343575f80fd5b50565b5f8135905061035481610330565b92915050565b5f80604083850312156103705761036f61032c565b5b5f61037d85828601610346565b925050602061038e85828601610346565b9150509250929050565b5f8115159050919050565b6103ac81610398565b82525050565b5f6020820190506103c55f8301846103a3565b9291505056fea2646970667358221220f853017bd6c3bb267672154c32940b978362ec3283433c6458c068a0706a09ec64736f6c634300081a0033",
					"opcodes": "PUSH1 0x80 PUSH1 0x40 MSTORE CALLVALUE DUP1 ISZERO PUSH1 0xE JUMPI PUSH0 DUP1 REVERT JUMPDEST POP PUSH2 0x401 DUP1 PUSH2 0x1C PUSH0 CODECOPY PUSH0 RETURN INVALID PUSH1 0x80 PUSH1 0x40 MSTORE CALLVALUE DUP1 ISZERO PUSH2 0xF JUMPI PUSH0 DUP1 REVERT JUMPDEST POP PUSH1 0x4 CALLDATASIZE LT PUSH2 0x7B JUMPI PUSH0 CALLDATALOAD PUSH1 0xE0 SHR DUP1 PUSH4 0x4DF7E3D0 GT PUSH2 0x59 JUMPI DUP1 PUSH4 0x4DF7E3D0 EQ PUSH2 0xD7 JUMPI DUP1 PUSH4 0x53ED44F4 EQ PUSH2 0xF5 JUMPI DUP1 PUSH4 0xACBE8452 EQ PUSH2 0xFF JUMPI DUP1 PUSH4 0xDCB207F0 EQ PUSH2 0x11D JUMPI PUSH2 0x7B JUMP JUMPDEST DUP1 PUSH4 0xDBE671F EQ PUSH2 0x7F JUMPI DUP1 PUSH4 0x162E9324 EQ PUSH2 0x9D JUMPI DUP1 PUSH4 0x2CD4C409 EQ PUSH2 0xBB JUMPI JUMPDEST PUSH0 DUP1 REVERT JUMPDEST PUSH2 0x87 PUSH2 0x13B JUMP JUMPDEST PUSH1 0x40 MLOAD PUSH2 0x94 SWAP2 SWAP1 PUSH2 0x313 JUMP JUMPDEST PUSH1 0x40 MLOAD DUP1 SWAP2 SUB SWAP1 RETURN JUMPDEST PUSH2 0xA5 PUSH2 0x14B JUMP JUMPDEST PUSH1 0x40 MLOAD PUSH2 0xB2 SWAP2 SWAP1 PUSH2 0x313 JUMP JUMPDEST PUSH1 0x40 MLOAD DUP1 SWAP2 SUB SWAP1 RETURN JUMPDEST PUSH2 0xD5 PUSH1 0x4 DUP1 CALLDATASIZE SUB DUP2 ADD SWAP1 PUSH2 0xD0 SWAP2 SWAP1 PUSH2 0x35A JUMP JUMPDEST PUSH2 0x19B JUMP JUMPDEST STOP JUMPDEST PUSH2 0xDF PUSH2 0x1F4 JUMP JUMPDEST PUSH1 0x40 MLOAD PUSH2 0xEC SWAP2 SWAP1 PUSH2 0x313 JUMP JUMPDEST PUSH1 0x40 MLOAD DUP1 SWAP2 SUB SWAP1 RETURN JUMPDEST PUSH2 0xFD PUSH2 0x206 JUMP JUMPDEST STOP JUMPDEST PUSH2 0x107 PUSH2 0x27F JUMP JUMPDEST PUSH1 0x40 MLOAD PUSH2 0x114 SWAP2 SWAP1 PUSH2 0x3B2 JUMP JUMPDEST PUSH1 0x40 MLOAD DUP1 SWAP2 SUB SWAP1 RETURN JUMPDEST PUSH2 0x125 PUSH2 0x2A8 JUMP JUMPDEST PUSH1 0x40 MLOAD PUSH2 0x132 SWAP2 SWAP1 PUSH2 0x313 JUMP JUMPDEST PUSH1 0x40 MLOAD DUP1 SWAP2 SUB SWAP1 RETURN JUMPDEST PUSH0 DUP1 SLOAD SWAP1 PUSH2 0x100 EXP SWAP1 DIV PUSH1 0x7 SIGNEXTEND DUP2 JUMP JUMPDEST PUSH0 DUP1 PUSH1 0x8 SWAP1 SLOAD SWAP1 PUSH2 0x100 EXP SWAP1 DIV PUSH1 0x7 SIGNEXTEND PUSH1 0x7 SIGNEXTEND PUSH0 DUP1 SLOAD SWAP1 PUSH2 0x100 EXP SWAP1 DIV PUSH1 0x7 SIGNEXTEND PUSH1 0x7 SIGNEXTEND SLT ISZERO PUSH2 0x188 JUMPI PUSH0 PUSH1 0x8 SWAP1 SLOAD SWAP1 PUSH2 0x100 EXP SWAP1 DIV PUSH1 0x7 SIGNEXTEND PUSH2 0x196 JUMP JUMPDEST PUSH0 DUP1 SLOAD SWAP1 PUSH2 0x100 EXP SWAP1 DIV PUSH1 0x7 SIGNEXTEND JUMPDEST SWAP1 POP SWAP1 JUMP JUMPDEST DUP2 PUSH0 DUP1 PUSH2 0x100 EXP DUP2 SLOAD DUP2 PUSH8 0xFFFFFFFFFFFFFFFF MUL NOT AND SWAP1 DUP4 PUSH1 0x7 SIGNEXTEND PUSH8 0xFFFFFFFFFFFFFFFF AND MUL OR SWAP1 SSTORE POP DUP1 PUSH0 PUSH1 0x8 PUSH2 0x100 EXP DUP2 SLOAD DUP2 PUSH8 0xFFFFFFFFFFFFFFFF MUL NOT AND SWAP1 DUP4 PUSH1 0x7 SIGNEXTEND PUSH8 0xFFFFFFFFFFFFFFFF AND MUL OR SWAP1 SSTORE POP POP POP JUMP JUMPDEST PUSH0 PUSH1 0x8 SWAP1 SLOAD SWAP1 PUSH2 0x100 EXP SWAP1 DIV PUSH1 0x7 SIGNEXTEND DUP2 JUMP JUMPDEST PUSH0 PUSH1 0x8 SWAP1 SLOAD SWAP1 PUSH2 0x100 EXP SWAP1 DIV PUSH1 0x7 SIGNEXTEND PUSH0 DUP1 SLOAD SWAP1 PUSH2 0x100 EXP SWAP1 DIV PUSH1 0x7 SIGNEXTEND PUSH0 DUP1 PUSH0 PUSH1 0x8 DUP5 SWAP2 SWAP1 PUSH2 0x100 EXP DUP2 SLOAD DUP2 PUSH8 0xFFFFFFFFFFFFFFFF MUL NOT AND SWAP1 DUP4 PUSH1 0x7 SIGNEXTEND PUSH8 0xFFFFFFFFFFFFFFFF AND MUL OR SWAP1 SSTORE POP DUP4 SWAP2 SWAP1 PUSH2 0x100 EXP DUP2 SLOAD DUP2 PUSH8 0xFFFFFFFFFFFFFFFF MUL NOT AND SWAP1 DUP4 PUSH1 0x7 SIGNEXTEND PUSH8 0xFFFFFFFFFFFFFFFF AND MUL OR SWAP1 SSTORE POP POP POP JUMP JUMPDEST PUSH0 DUP1 PUSH1 0x8 SWAP1 SLOAD SWAP1 PUSH2 0x100 EXP SWAP1 DIV PUSH1 0x7 SIGNEXTEND PUSH1 0x7 SIGNEXTEND PUSH0 DUP1 SLOAD SWAP1 PUSH2 0x100 EXP SWAP1 DIV PUSH1 0x7 SIGNEXTEND PUSH1 0x7 SIGNEXTEND EQ SWAP1 POP SWAP1 JUMP JUMPDEST PUSH0 DUP1 PUSH1 0x8 SWAP1 SLOAD SWAP1 PUSH2 0x100 EXP SWAP1 DIV PUSH1 0x7 SIGNEXTEND PUSH1 0x7 SIGNEXTEND PUSH0 DUP1 SLOAD SWAP1 PUSH2 0x100 EXP SWAP1 DIV PUSH1 0x7 SIGNEXTEND PUSH1 0x7 SIGNEXTEND SGT ISZERO PUSH2 0x2E5 JUMPI PUSH0 PUSH1 0x8 SWAP1 SLOAD SWAP1 PUSH2 0x100 EXP SWAP1 DIV PUSH1 0x7 SIGNEXTEND PUSH2 0x2F3 JUMP JUMPDEST PUSH0 DUP1 SLOAD SWAP1 PUSH2 0x100 EXP SWAP1 DIV PUSH1 0x7 SIGNEXTEND JUMPDEST SWAP1 POP SWAP1 JUMP JUMPDEST PUSH0 DUP2 PUSH1 0x7 SIGNEXTEND SWAP1 POP SWAP2 SWAP1 POP JUMP JUMPDEST PUSH2 0x30D DUP2 PUSH2 0x2F8 JUMP JUMPDEST DUP3 MSTORE POP POP JUMP JUMPDEST PUSH0 PUSH1 0x20 DUP3 ADD SWAP1 POP PUSH2 0x326 PUSH0 DUP4 ADD DUP5 PUSH2 0x304 JUMP JUMPDEST SWAP3 SWAP2 POP POP JUMP JUMPDEST PUSH0 DUP1 REVERT JUMPDEST PUSH2 0x339 DUP2 PUSH2 0x2F8 JUMP JUMPDEST DUP2 EQ PUSH2 0x343 JUMPI PUSH0 DUP1 REVERT JUMPDEST POP JUMP JUMPDEST PUSH0 DUP2 CALLDATALOAD SWAP1 POP PUSH2 0x354 DUP2 PUSH2 0x330 JUMP JUMPDEST SWAP3 SWAP2 POP POP JUMP JUMPDEST PUSH0 DUP1 PUSH1 0x40 DUP4 DUP6 SUB SLT ISZERO PUSH2 0x370 JUMPI PUSH2 0x36F PUSH2 0x32C JUMP JUMPDEST JUMPDEST PUSH0 PUSH2 0x37D DUP6 DUP3 DUP7 ADD PUSH2 0x346 JUMP JUMPDEST SWAP3 POP POP PUSH1 0x20 PUSH2 0x38E DUP6 DUP3 DUP7 ADD PUSH2 0x346 JUMP JUMPDEST SWAP2 POP POP SWAP3 POP SWAP3 SWAP1 POP JUMP JUMPDEST PUSH0 DUP2 ISZERO ISZERO SWAP1 POP SWAP2 SWAP1 POP JUMP JUMPDEST PUSH2 0x3AC DUP2 PUSH2 0x398 JUMP JUMPDEST DUP3 MSTORE POP POP JUMP JUMPDEST PUSH0 PUSH1 0x20 DUP3 ADD SWAP1 POP PUSH2 0x3C5 PUSH0 DUP4 ADD DUP5 PUSH2 0x3A3 JUMP JUMPDEST SWAP3 SWAP2 POP POP JUMP INVALID LOG2 PUSH5 0x6970667358 0x22 SLT KECCAK256 0xF8 MSTORE8 ADD PUSH28 0xD6C3BB267672154C32940B978362EC3283433C6458C068A0706A09EC PUSH5 0x736F6C6343 STOP ADDMOD BYTE STOP CALLER "
				},
				"gasEstimates": {
					"creation": {
						"codeDepositCost": "205000",
						"executionCost": "249",
						"totalCost": "205249"
					},
					"external": {
						"a()": "2468",
						"b()": "2520",
						"getLarger()": "6925",
						"getSmaller()": "6968",
						"isEqual()": "4726",
						"setValues(int64,int64)": "infinite",
						"swapValues()": "53106"
					}
				},
				"methodIdentifiers": {
					"a()": "0dbe671f",
					"b()": "4df7e3d0",
					"getLarger()": "162e9324",
					"getSmaller()": "dcb207f0",
					"isEqual()": "acbe8452",
					"setValues(int64,int64)": "2cd4c409",
					"swapValues()": "53ed44f4"
				}
			},
			"storageLayout": {
				"storage": [
					{
						"astId": 3,
						"contract": "contracts/Blockchain_Assignment_1/Task_Codes/t_as1_task4.sol:CompareIntegers",
						"label": "a",
						"offset": 0,
						"slot": "0",
						"type": "t_int64"
					},
					{
						"astId": 5,
						"contract": "contracts/Blockchain_Assignment_1/Task_Codes/t_as1_task4.sol:CompareIntegers",
						"label": "b",
						"offset": 8,
						"slot": "0",
						"type": "t_int64"
					}
				],
				"types": {
					"t_int64": {
						"encoding": "inplace",
						"label": "int64",
						"numberOfBytes": "8"
					}
				}
			},
			"userdoc": {
				"kind": "user",
				"methods": {},
				"version": 1
			}
		}
	}
}