{
	"contracts/Blockchain_Assignment_1/Task_Codes/t_ask1_task5.sol": {
		"Leaderboard": {
			"abi": [
				{
					"inputs": [],
					"name": "getHighestScorer",
					"outputs": [
						{
							"internalType": "address",
							"name": "",
							"type": "address"
						},
						{
							"internalType": "uint16",
							"name": "",
							"type": "uint16"
						}
					],
					"stateMutability": "view",
					"type": "function"
				},
				{
					"inputs": [
						{
							"internalType": "address",
							"name": "player",
							"type": "address"
						}
					],
					"name": "getScore",
					"outputs": [
						{
							"internalType": "uint16",
							"name": "",
							"type": "uint16"
						}
					],
					"stateMutability": "view",
					"type": "function"
				},
				{
					"inputs": [],
					"name": "getTotalScore",
					"outputs": [
						{
							"internalType": "uint256",
							"name": "",
							"type": "uint256"
						}
					],
					"stateMutability": "view",
					"type": "function"
				},
				{
					"inputs": [
						{
							"internalType": "address",
							"name": "player",
							"type": "address"
						}
					],
					"name": "resetScore",
					"outputs": [],
					"stateMutability": "nonpayable",
					"type": "function"
				},
				{
					"inputs": [
						{
							"internalType": "address",
							"name": "",
							"type": "address"
						}
					],
					"name": "scores",
					"outputs": [
						{
							"internalType": "uint16",
							"name": "",
							"type": "uint16"
						}
					],
					"stateMutability": "view",
					"type": "function"
				},
				{
					"inputs": [
						{
							"internalType": "address",
							"name": "player",
							"type": "address"
						},
						{
							"internalType": "uint16",
							"name": "score",
							"type": "uint16"
						}
					],
					"name": "setScore",
					"outputs": [],
					"stateMutability": "nonpayable",
					"type": "function"
				}
			],
			"devdoc": {
				"kind": "dev",
				"methods": {},
				"version": 1
			},
			"evm": {
				"assembly": "    /* \"contracts/Blockchain_Assignment_1/Task_Codes/t_ask1_task5.sol\":28:1620  contract Leaderboard {... */\n  mstore(0x40, 0x80)\n  callvalue\n  dup1\n  iszero\n  tag_1\n  jumpi\n  0x00\n  dup1\n  revert\ntag_1:\n  pop\n  dataSize(sub_0)\n  dup1\n  dataOffset(sub_0)\n  0x00\n  codecopy\n  0x00\n  return\nstop\n\nsub_0: assembly {\n        /* \"contracts/Blockchain_Assignment_1/Task_Codes/t_ask1_task5.sol\":28:1620  contract Leaderboard {... */\n      mstore(0x40, 0x80)\n      callvalue\n      dup1\n      iszero\n      tag_1\n      jumpi\n      0x00\n      dup1\n      revert\n    tag_1:\n      pop\n      jumpi(tag_2, lt(calldatasize, 0x04))\n      shr(0xe0, calldataload(0x00))\n      dup1\n      0x2011cdae\n      eq\n      tag_3\n      jumpi\n      dup1\n      0x28dd9b39\n      eq\n      tag_4\n      jumpi\n      dup1\n      0x33620eb8\n      eq\n      tag_5\n      jumpi\n      dup1\n      0x76dd110f\n      eq\n      tag_6\n      jumpi\n      dup1\n      0x9b10b428\n      eq\n      tag_7\n      jumpi\n      dup1\n      0xd47875d0\n      eq\n      tag_8\n      jumpi\n    tag_2:\n      0x00\n      dup1\n      revert\n        /* \"contracts/Blockchain_Assignment_1/Task_Codes/t_ask1_task5.sol\":898:1121  function getTotalScore() public view returns (uint256) {... */\n    tag_3:\n      tag_9\n      tag_10\n      jump\t// in\n    tag_9:\n      mload(0x40)\n      tag_11\n      swap2\n      swap1\n      tag_12\n      jump\t// in\n    tag_11:\n      mload(0x40)\n      dup1\n      swap2\n      sub\n      swap1\n      return\n        /* \"contracts/Blockchain_Assignment_1/Task_Codes/t_ask1_task5.sol\":258:507  function setScore(address player, uint16 score) public {... */\n    tag_4:\n      tag_13\n      0x04\n      dup1\n      calldatasize\n      sub\n      dup2\n      add\n      swap1\n      tag_14\n      swap2\n      swap1\n      tag_15\n      jump\t// in\n    tag_14:\n      tag_16\n      jump\t// in\n    tag_13:\n      stop\n        /* \"contracts/Blockchain_Assignment_1/Task_Codes/t_ask1_task5.sol\":715:829  function resetScore(address player) public {... */\n    tag_5:\n      tag_17\n      0x04\n      dup1\n      calldatasize\n      sub\n      dup2\n      add\n      swap1\n      tag_18\n      swap2\n      swap1\n      tag_19\n      jump\t// in\n    tag_18:\n      tag_20\n      jump\t// in\n    tag_17:\n      stop\n        /* \"contracts/Blockchain_Assignment_1/Task_Codes/t_ask1_task5.sol\":88:128  mapping(address => uint16) public scores */\n    tag_6:\n      tag_21\n      0x04\n      dup1\n      calldatasize\n      sub\n      dup2\n      add\n      swap1\n      tag_22\n      swap2\n      swap1\n      tag_19\n      jump\t// in\n    tag_22:\n      tag_23\n      jump\t// in\n    tag_21:\n      mload(0x40)\n      tag_24\n      swap2\n      swap1\n      tag_25\n      jump\t// in\n    tag_24:\n      mload(0x40)\n      dup1\n      swap2\n      sub\n      swap1\n      return\n        /* \"contracts/Blockchain_Assignment_1/Task_Codes/t_ask1_task5.sol\":1193:1617  function getHighestScorer() public view returns (address, uint16) {... */\n    tag_7:\n      tag_26\n      tag_27\n      jump\t// in\n    tag_26:\n      mload(0x40)\n      tag_28\n      swap3\n      swap2\n      swap1\n      tag_29\n      jump\t// in\n    tag_28:\n      mload(0x40)\n      dup1\n      swap2\n      sub\n      swap1\n      return\n        /* \"contracts/Blockchain_Assignment_1/Task_Codes/t_ask1_task5.sol\":561:664  function getScore(address player) public view returns (uint16) {... */\n    tag_8:\n      tag_30\n      0x04\n      dup1\n      calldatasize\n      sub\n      dup2\n      add\n      swap1\n      tag_31\n      swap2\n      swap1\n      tag_19\n      jump\t// in\n    tag_31:\n      tag_32\n      jump\t// in\n    tag_30:\n      mload(0x40)\n      tag_33\n      swap2\n      swap1\n      tag_25\n      jump\t// in\n    tag_33:\n      mload(0x40)\n      dup1\n      swap2\n      sub\n      swap1\n      return\n        /* \"contracts/Blockchain_Assignment_1/Task_Codes/t_ask1_task5.sol\":898:1121  function getTotalScore() public view returns (uint256) {... */\n    tag_10:\n        /* \"contracts/Blockchain_Assignment_1/Task_Codes/t_ask1_task5.sol\":944:951  uint256 */\n      0x00\n        /* \"contracts/Blockchain_Assignment_1/Task_Codes/t_ask1_task5.sol\":964:977  uint256 total */\n      dup1\n        /* \"contracts/Blockchain_Assignment_1/Task_Codes/t_ask1_task5.sol\":980:981  0 */\n      0x00\n        /* \"contracts/Blockchain_Assignment_1/Task_Codes/t_ask1_task5.sol\":964:981  uint256 total = 0 */\n      swap1\n      pop\n        /* \"contracts/Blockchain_Assignment_1/Task_Codes/t_ask1_task5.sol\":997:1006  uint256 i */\n      0x00\n        /* \"contracts/Blockchain_Assignment_1/Task_Codes/t_ask1_task5.sol\":992:1091  for (uint256 i = 0; i < players.length; i++) {... */\n    tag_35:\n        /* \"contracts/Blockchain_Assignment_1/Task_Codes/t_ask1_task5.sol\":1016:1023  players */\n      0x01\n        /* \"contracts/Blockchain_Assignment_1/Task_Codes/t_ask1_task5.sol\":1016:1030  players.length */\n      dup1\n      sload\n      swap1\n      pop\n        /* \"contracts/Blockchain_Assignment_1/Task_Codes/t_ask1_task5.sol\":1012:1013  i */\n      dup2\n        /* \"contracts/Blockchain_Assignment_1/Task_Codes/t_ask1_task5.sol\":1012:1030  i < players.length */\n      lt\n        /* \"contracts/Blockchain_Assignment_1/Task_Codes/t_ask1_task5.sol\":992:1091  for (uint256 i = 0; i < players.length; i++) {... */\n      iszero\n      tag_36\n      jumpi\n        /* \"contracts/Blockchain_Assignment_1/Task_Codes/t_ask1_task5.sol\":1061:1067  scores */\n      0x00\n        /* \"contracts/Blockchain_Assignment_1/Task_Codes/t_ask1_task5.sol\":1061:1079  scores[players[i]] */\n      dup1\n        /* \"contracts/Blockchain_Assignment_1/Task_Codes/t_ask1_task5.sol\":1068:1075  players */\n      0x01\n        /* \"contracts/Blockchain_Assignment_1/Task_Codes/t_ask1_task5.sol\":1076:1077  i */\n      dup4\n        /* \"contracts/Blockchain_Assignment_1/Task_Codes/t_ask1_task5.sol\":1068:1078  players[i] */\n      dup2\n      sload\n      dup2\n      lt\n      tag_38\n      jumpi\n      tag_39\n      tag_40\n      jump\t// in\n    tag_39:\n    tag_38:\n      swap1\n      0x00\n      mstore\n      keccak256(0x00, 0x20)\n      add\n      0x00\n      swap1\n      sload\n      swap1\n      0x0100\n      exp\n      swap1\n      div\n      0xffffffffffffffffffffffffffffffffffffffff\n      and\n        /* \"contracts/Blockchain_Assignment_1/Task_Codes/t_ask1_task5.sol\":1061:1079  scores[players[i]] */\n      0xffffffffffffffffffffffffffffffffffffffff\n      and\n      0xffffffffffffffffffffffffffffffffffffffff\n      and\n      dup2\n      mstore\n      0x20\n      add\n      swap1\n      dup2\n      mstore\n      0x20\n      add\n      0x00\n      keccak256\n      0x00\n      swap1\n      sload\n      swap1\n      0x0100\n      exp\n      swap1\n      div\n      0xffff\n      and\n        /* \"contracts/Blockchain_Assignment_1/Task_Codes/t_ask1_task5.sol\":1052:1079  total += scores[players[i]] */\n      0xffff\n      and\n      dup3\n      tag_42\n      swap2\n      swap1\n      tag_43\n      jump\t// in\n    tag_42:\n      swap2\n      pop\n        /* \"contracts/Blockchain_Assignment_1/Task_Codes/t_ask1_task5.sol\":1032:1035  i++ */\n      dup1\n      dup1\n      0x01\n      add\n      swap2\n      pop\n      pop\n        /* \"contracts/Blockchain_Assignment_1/Task_Codes/t_ask1_task5.sol\":992:1091  for (uint256 i = 0; i < players.length; i++) {... */\n      jump(tag_35)\n    tag_36:\n      pop\n        /* \"contracts/Blockchain_Assignment_1/Task_Codes/t_ask1_task5.sol\":1108:1113  total */\n      dup1\n        /* \"contracts/Blockchain_Assignment_1/Task_Codes/t_ask1_task5.sol\":1101:1113  return total */\n      swap2\n      pop\n      pop\n        /* \"contracts/Blockchain_Assignment_1/Task_Codes/t_ask1_task5.sol\":898:1121  function getTotalScore() public view returns (uint256) {... */\n      swap1\n      jump\t// out\n        /* \"contracts/Blockchain_Assignment_1/Task_Codes/t_ask1_task5.sol\":258:507  function setScore(address player, uint16 score) public {... */\n    tag_16:\n        /* \"contracts/Blockchain_Assignment_1/Task_Codes/t_ask1_task5.sol\":346:347  0 */\n      0x00\n        /* \"contracts/Blockchain_Assignment_1/Task_Codes/t_ask1_task5.sol\":328:334  scores */\n      dup1\n        /* \"contracts/Blockchain_Assignment_1/Task_Codes/t_ask1_task5.sol\":328:342  scores[player] */\n      0x00\n        /* \"contracts/Blockchain_Assignment_1/Task_Codes/t_ask1_task5.sol\":335:341  player */\n      dup5\n        /* \"contracts/Blockchain_Assignment_1/Task_Codes/t_ask1_task5.sol\":328:342  scores[player] */\n      0xffffffffffffffffffffffffffffffffffffffff\n      and\n      0xffffffffffffffffffffffffffffffffffffffff\n      and\n      dup2\n      mstore\n      0x20\n      add\n      swap1\n      dup2\n      mstore\n      0x20\n      add\n      0x00\n      keccak256\n      0x00\n      swap1\n      sload\n      swap1\n      0x0100\n      exp\n      swap1\n      div\n      0xffff\n      and\n        /* \"contracts/Blockchain_Assignment_1/Task_Codes/t_ask1_task5.sol\":328:347  scores[player] == 0 */\n      0xffff\n      and\n      sub\n        /* \"contracts/Blockchain_Assignment_1/Task_Codes/t_ask1_task5.sol\":324:438  if (scores[player] == 0) {... */\n      tag_45\n      jumpi\n        /* \"contracts/Blockchain_Assignment_1/Task_Codes/t_ask1_task5.sol\":364:371  players */\n      0x01\n        /* \"contracts/Blockchain_Assignment_1/Task_Codes/t_ask1_task5.sol\":377:383  player */\n      dup3\n        /* \"contracts/Blockchain_Assignment_1/Task_Codes/t_ask1_task5.sol\":364:384  players.push(player) */\n      swap1\n      dup1\n      0x01\n      dup2\n      sload\n      add\n      dup1\n      dup3\n      sstore\n      dup1\n      swap2\n      pop\n      pop\n      0x01\n      swap1\n      sub\n      swap1\n      0x00\n      mstore\n      keccak256(0x00, 0x20)\n      add\n      0x00\n      swap1\n      swap2\n      swap1\n      swap2\n      swap1\n      swap2\n      0x0100\n      exp\n      dup2\n      sload\n      dup2\n      0xffffffffffffffffffffffffffffffffffffffff\n      mul\n      not\n      and\n      swap1\n      dup4\n      0xffffffffffffffffffffffffffffffffffffffff\n      and\n      mul\n      or\n      swap1\n      sstore\n      pop\n        /* \"contracts/Blockchain_Assignment_1/Task_Codes/t_ask1_task5.sol\":324:438  if (scores[player] == 0) {... */\n    tag_45:\n        /* \"contracts/Blockchain_Assignment_1/Task_Codes/t_ask1_task5.sol\":465:470  score */\n      dup1\n        /* \"contracts/Blockchain_Assignment_1/Task_Codes/t_ask1_task5.sol\":448:454  scores */\n      0x00\n        /* \"contracts/Blockchain_Assignment_1/Task_Codes/t_ask1_task5.sol\":448:462  scores[player] */\n      dup1\n        /* \"contracts/Blockchain_Assignment_1/Task_Codes/t_ask1_task5.sol\":455:461  player */\n      dup5\n        /* \"contracts/Blockchain_Assignment_1/Task_Codes/t_ask1_task5.sol\":448:462  scores[player] */\n      0xffffffffffffffffffffffffffffffffffffffff\n      and\n      0xffffffffffffffffffffffffffffffffffffffff\n      and\n      dup2\n      mstore\n      0x20\n      add\n      swap1\n      dup2\n      mstore\n      0x20\n      add\n      0x00\n      keccak256\n      0x00\n        /* \"contracts/Blockchain_Assignment_1/Task_Codes/t_ask1_task5.sol\":448:470  scores[player] = score */\n      0x0100\n      exp\n      dup2\n      sload\n      dup2\n      0xffff\n      mul\n      not\n      and\n      swap1\n      dup4\n      0xffff\n      and\n      mul\n      or\n      swap1\n      sstore\n      pop\n        /* \"contracts/Blockchain_Assignment_1/Task_Codes/t_ask1_task5.sol\":258:507  function setScore(address player, uint16 score) public {... */\n      pop\n      pop\n      jump\t// out\n        /* \"contracts/Blockchain_Assignment_1/Task_Codes/t_ask1_task5.sol\":715:829  function resetScore(address player) public {... */\n    tag_20:\n        /* \"contracts/Blockchain_Assignment_1/Task_Codes/t_ask1_task5.sol\":786:787  0 */\n      0x00\n        /* \"contracts/Blockchain_Assignment_1/Task_Codes/t_ask1_task5.sol\":769:775  scores */\n      dup1\n        /* \"contracts/Blockchain_Assignment_1/Task_Codes/t_ask1_task5.sol\":769:783  scores[player] */\n      0x00\n        /* \"contracts/Blockchain_Assignment_1/Task_Codes/t_ask1_task5.sol\":776:782  player */\n      dup4\n        /* \"contracts/Blockchain_Assignment_1/Task_Codes/t_ask1_task5.sol\":769:783  scores[player] */\n      0xffffffffffffffffffffffffffffffffffffffff\n      and\n      0xffffffffffffffffffffffffffffffffffffffff\n      and\n      dup2\n      mstore\n      0x20\n      add\n      swap1\n      dup2\n      mstore\n      0x20\n      add\n      0x00\n      keccak256\n      0x00\n        /* \"contracts/Blockchain_Assignment_1/Task_Codes/t_ask1_task5.sol\":769:787  scores[player] = 0 */\n      0x0100\n      exp\n      dup2\n      sload\n      dup2\n      0xffff\n      mul\n      not\n      and\n      swap1\n      dup4\n      0xffff\n      and\n      mul\n      or\n      swap1\n      sstore\n      pop\n        /* \"contracts/Blockchain_Assignment_1/Task_Codes/t_ask1_task5.sol\":715:829  function resetScore(address player) public {... */\n      pop\n      jump\t// out\n        /* \"contracts/Blockchain_Assignment_1/Task_Codes/t_ask1_task5.sol\":88:128  mapping(address => uint16) public scores */\n    tag_23:\n      mstore(0x20, 0x00)\n      dup1\n      0x00\n      mstore\n      keccak256(0x00, 0x40)\n      0x00\n      swap2\n      pop\n      sload\n      swap1\n      0x0100\n      exp\n      swap1\n      div\n      0xffff\n      and\n      dup2\n      jump\t// out\n        /* \"contracts/Blockchain_Assignment_1/Task_Codes/t_ask1_task5.sol\":1193:1617  function getHighestScorer() public view returns (address, uint16) {... */\n    tag_27:\n        /* \"contracts/Blockchain_Assignment_1/Task_Codes/t_ask1_task5.sol\":1242:1249  address */\n      0x00\n        /* \"contracts/Blockchain_Assignment_1/Task_Codes/t_ask1_task5.sol\":1251:1257  uint16 */\n      dup1\n        /* \"contracts/Blockchain_Assignment_1/Task_Codes/t_ask1_task5.sol\":1270:1291  address highestScorer */\n      0x00\n        /* \"contracts/Blockchain_Assignment_1/Task_Codes/t_ask1_task5.sol\":1302:1321  uint16 highestScore */\n      dup1\n        /* \"contracts/Blockchain_Assignment_1/Task_Codes/t_ask1_task5.sol\":1324:1325  0 */\n      0x00\n        /* \"contracts/Blockchain_Assignment_1/Task_Codes/t_ask1_task5.sol\":1302:1325  uint16 highestScore = 0 */\n      swap1\n      pop\n        /* \"contracts/Blockchain_Assignment_1/Task_Codes/t_ask1_task5.sol\":1343:1352  uint256 i */\n      0x00\n        /* \"contracts/Blockchain_Assignment_1/Task_Codes/t_ask1_task5.sol\":1338:1561  for (uint256 i = 0; i < players.length; i++) {... */\n    tag_49:\n        /* \"contracts/Blockchain_Assignment_1/Task_Codes/t_ask1_task5.sol\":1362:1369  players */\n      0x01\n        /* \"contracts/Blockchain_Assignment_1/Task_Codes/t_ask1_task5.sol\":1362:1376  players.length */\n      dup1\n      sload\n      swap1\n      pop\n        /* \"contracts/Blockchain_Assignment_1/Task_Codes/t_ask1_task5.sol\":1358:1359  i */\n      dup2\n        /* \"contracts/Blockchain_Assignment_1/Task_Codes/t_ask1_task5.sol\":1358:1376  i < players.length */\n      lt\n        /* \"contracts/Blockchain_Assignment_1/Task_Codes/t_ask1_task5.sol\":1338:1561  for (uint256 i = 0; i < players.length; i++) {... */\n      iszero\n      tag_50\n      jumpi\n        /* \"contracts/Blockchain_Assignment_1/Task_Codes/t_ask1_task5.sol\":1423:1435  highestScore */\n      dup2\n        /* \"contracts/Blockchain_Assignment_1/Task_Codes/t_ask1_task5.sol\":1402:1435  scores[players[i]] > highestScore */\n      0xffff\n      and\n        /* \"contracts/Blockchain_Assignment_1/Task_Codes/t_ask1_task5.sol\":1402:1408  scores */\n      0x00\n        /* \"contracts/Blockchain_Assignment_1/Task_Codes/t_ask1_task5.sol\":1402:1420  scores[players[i]] */\n      dup1\n        /* \"contracts/Blockchain_Assignment_1/Task_Codes/t_ask1_task5.sol\":1409:1416  players */\n      0x01\n        /* \"contracts/Blockchain_Assignment_1/Task_Codes/t_ask1_task5.sol\":1417:1418  i */\n      dup5\n        /* \"contracts/Blockchain_Assignment_1/Task_Codes/t_ask1_task5.sol\":1409:1419  players[i] */\n      dup2\n      sload\n      dup2\n      lt\n      tag_52\n      jumpi\n      tag_53\n      tag_40\n      jump\t// in\n    tag_53:\n    tag_52:\n      swap1\n      0x00\n      mstore\n      keccak256(0x00, 0x20)\n      add\n      0x00\n      swap1\n      sload\n      swap1\n      0x0100\n      exp\n      swap1\n      div\n      0xffffffffffffffffffffffffffffffffffffffff\n      and\n        /* \"contracts/Blockchain_Assignment_1/Task_Codes/t_ask1_task5.sol\":1402:1420  scores[players[i]] */\n      0xffffffffffffffffffffffffffffffffffffffff\n      and\n      0xffffffffffffffffffffffffffffffffffffffff\n      and\n      dup2\n      mstore\n      0x20\n      add\n      swap1\n      dup2\n      mstore\n      0x20\n      add\n      0x00\n      keccak256\n      0x00\n      swap1\n      sload\n      swap1\n      0x0100\n      exp\n      swap1\n      div\n      0xffff\n      and\n        /* \"contracts/Blockchain_Assignment_1/Task_Codes/t_ask1_task5.sol\":1402:1435  scores[players[i]] > highestScore */\n      0xffff\n      and\n      gt\n        /* \"contracts/Blockchain_Assignment_1/Task_Codes/t_ask1_task5.sol\":1398:1550  if (scores[players[i]] > highestScore) {... */\n      iszero\n      tag_55\n      jumpi\n        /* \"contracts/Blockchain_Assignment_1/Task_Codes/t_ask1_task5.sol\":1471:1477  scores */\n      0x00\n        /* \"contracts/Blockchain_Assignment_1/Task_Codes/t_ask1_task5.sol\":1471:1489  scores[players[i]] */\n      dup1\n        /* \"contracts/Blockchain_Assignment_1/Task_Codes/t_ask1_task5.sol\":1478:1485  players */\n      0x01\n        /* \"contracts/Blockchain_Assignment_1/Task_Codes/t_ask1_task5.sol\":1486:1487  i */\n      dup4\n        /* \"contracts/Blockchain_Assignment_1/Task_Codes/t_ask1_task5.sol\":1478:1488  players[i] */\n      dup2\n      sload\n      dup2\n      lt\n      tag_56\n      jumpi\n      tag_57\n      tag_40\n      jump\t// in\n    tag_57:\n    tag_56:\n      swap1\n      0x00\n      mstore\n      keccak256(0x00, 0x20)\n      add\n      0x00\n      swap1\n      sload\n      swap1\n      0x0100\n      exp\n      swap1\n      div\n      0xffffffffffffffffffffffffffffffffffffffff\n      and\n        /* \"contracts/Blockchain_Assignment_1/Task_Codes/t_ask1_task5.sol\":1471:1489  scores[players[i]] */\n      0xffffffffffffffffffffffffffffffffffffffff\n      and\n      0xffffffffffffffffffffffffffffffffffffffff\n      and\n      dup2\n      mstore\n      0x20\n      add\n      swap1\n      dup2\n      mstore\n      0x20\n      add\n      0x00\n      keccak256\n      0x00\n      swap1\n      sload\n      swap1\n      0x0100\n      exp\n      swap1\n      div\n      0xffff\n      and\n        /* \"contracts/Blockchain_Assignment_1/Task_Codes/t_ask1_task5.sol\":1456:1489  highestScore = scores[players[i]] */\n      swap2\n      pop\n        /* \"contracts/Blockchain_Assignment_1/Task_Codes/t_ask1_task5.sol\":1524:1531  players */\n      0x01\n        /* \"contracts/Blockchain_Assignment_1/Task_Codes/t_ask1_task5.sol\":1532:1533  i */\n      dup2\n        /* \"contracts/Blockchain_Assignment_1/Task_Codes/t_ask1_task5.sol\":1524:1534  players[i] */\n      dup2\n      sload\n      dup2\n      lt\n      tag_59\n      jumpi\n      tag_60\n      tag_40\n      jump\t// in\n    tag_60:\n    tag_59:\n      swap1\n      0x00\n      mstore\n      keccak256(0x00, 0x20)\n      add\n      0x00\n      swap1\n      sload\n      swap1\n      0x0100\n      exp\n      swap1\n      div\n      0xffffffffffffffffffffffffffffffffffffffff\n      and\n        /* \"contracts/Blockchain_Assignment_1/Task_Codes/t_ask1_task5.sol\":1508:1534  highestScorer = players[i] */\n      swap3\n      pop\n        /* \"contracts/Blockchain_Assignment_1/Task_Codes/t_ask1_task5.sol\":1398:1550  if (scores[players[i]] > highestScore) {... */\n    tag_55:\n        /* \"contracts/Blockchain_Assignment_1/Task_Codes/t_ask1_task5.sol\":1378:1381  i++ */\n      dup1\n      dup1\n      0x01\n      add\n      swap2\n      pop\n      pop\n        /* \"contracts/Blockchain_Assignment_1/Task_Codes/t_ask1_task5.sol\":1338:1561  for (uint256 i = 0; i < players.length; i++) {... */\n      jump(tag_49)\n    tag_50:\n      pop\n        /* \"contracts/Blockchain_Assignment_1/Task_Codes/t_ask1_task5.sol\":1581:1594  highestScorer */\n      dup2\n        /* \"contracts/Blockchain_Assignment_1/Task_Codes/t_ask1_task5.sol\":1596:1608  highestScore */\n      dup2\n        /* \"contracts/Blockchain_Assignment_1/Task_Codes/t_ask1_task5.sol\":1573:1609  return (highestScorer, highestScore) */\n      swap4\n      pop\n      swap4\n      pop\n      pop\n      pop\n        /* \"contracts/Blockchain_Assignment_1/Task_Codes/t_ask1_task5.sol\":1193:1617  function getHighestScorer() public view returns (address, uint16) {... */\n      swap1\n      swap2\n      jump\t// out\n        /* \"contracts/Blockchain_Assignment_1/Task_Codes/t_ask1_task5.sol\":561:664  function getScore(address player) public view returns (uint16) {... */\n    tag_32:\n        /* \"contracts/Blockchain_Assignment_1/Task_Codes/t_ask1_task5.sol\":616:622  uint16 */\n      0x00\n        /* \"contracts/Blockchain_Assignment_1/Task_Codes/t_ask1_task5.sol\":642:648  scores */\n      dup1\n        /* \"contracts/Blockchain_Assignment_1/Task_Codes/t_ask1_task5.sol\":642:656  scores[player] */\n      0x00\n        /* \"contracts/Blockchain_Assignment_1/Task_Codes/t_ask1_task5.sol\":649:655  player */\n      dup4\n        /* \"contracts/Blockchain_Assignment_1/Task_Codes/t_ask1_task5.sol\":642:656  scores[player] */\n      0xffffffffffffffffffffffffffffffffffffffff\n      and\n      0xffffffffffffffffffffffffffffffffffffffff\n      and\n      dup2\n      mstore\n      0x20\n      add\n      swap1\n      dup2\n      mstore\n      0x20\n      add\n      0x00\n      keccak256\n      0x00\n      swap1\n      sload\n      swap1\n      0x0100\n      exp\n      swap1\n      div\n      0xffff\n      and\n        /* \"contracts/Blockchain_Assignment_1/Task_Codes/t_ask1_task5.sol\":635:656  return scores[player] */\n      swap1\n      pop\n        /* \"contracts/Blockchain_Assignment_1/Task_Codes/t_ask1_task5.sol\":561:664  function getScore(address player) public view returns (uint16) {... */\n      swap2\n      swap1\n      pop\n      jump\t// out\n        /* \"#utility.yul\":7:84   */\n    tag_63:\n        /* \"#utility.yul\":44:51   */\n      0x00\n        /* \"#utility.yul\":73:78   */\n      dup2\n        /* \"#utility.yul\":62:78   */\n      swap1\n      pop\n        /* \"#utility.yul\":7:84   */\n      swap2\n      swap1\n      pop\n      jump\t// out\n        /* \"#utility.yul\":90:208   */\n    tag_64:\n        /* \"#utility.yul\":177:201   */\n      tag_81\n        /* \"#utility.yul\":195:200   */\n      dup2\n        /* \"#utility.yul\":177:201   */\n      tag_63\n      jump\t// in\n    tag_81:\n        /* \"#utility.yul\":172:175   */\n      dup3\n        /* \"#utility.yul\":165:202   */\n      mstore\n        /* \"#utility.yul\":90:208   */\n      pop\n      pop\n      jump\t// out\n        /* \"#utility.yul\":214:436   */\n    tag_12:\n        /* \"#utility.yul\":307:311   */\n      0x00\n        /* \"#utility.yul\":345:347   */\n      0x20\n        /* \"#utility.yul\":334:343   */\n      dup3\n        /* \"#utility.yul\":330:348   */\n      add\n        /* \"#utility.yul\":322:348   */\n      swap1\n      pop\n        /* \"#utility.yul\":358:429   */\n      tag_83\n        /* \"#utility.yul\":426:427   */\n      0x00\n        /* \"#utility.yul\":415:424   */\n      dup4\n        /* \"#utility.yul\":411:428   */\n      add\n        /* \"#utility.yul\":402:408   */\n      dup5\n        /* \"#utility.yul\":358:429   */\n      tag_64\n      jump\t// in\n    tag_83:\n        /* \"#utility.yul\":214:436   */\n      swap3\n      swap2\n      pop\n      pop\n      jump\t// out\n        /* \"#utility.yul\":523:640   */\n    tag_66:\n        /* \"#utility.yul\":632:633   */\n      0x00\n        /* \"#utility.yul\":629:630   */\n      dup1\n        /* \"#utility.yul\":622:634   */\n      revert\n        /* \"#utility.yul\":769:895   */\n    tag_68:\n        /* \"#utility.yul\":806:813   */\n      0x00\n        /* \"#utility.yul\":846:888   */\n      0xffffffffffffffffffffffffffffffffffffffff\n        /* \"#utility.yul\":839:844   */\n      dup3\n        /* \"#utility.yul\":835:889   */\n      and\n        /* \"#utility.yul\":824:889   */\n      swap1\n      pop\n        /* \"#utility.yul\":769:895   */\n      swap2\n      swap1\n      pop\n      jump\t// out\n        /* \"#utility.yul\":901:997   */\n    tag_69:\n        /* \"#utility.yul\":938:945   */\n      0x00\n        /* \"#utility.yul\":967:991   */\n      tag_89\n        /* \"#utility.yul\":985:990   */\n      dup3\n        /* \"#utility.yul\":967:991   */\n      tag_68\n      jump\t// in\n    tag_89:\n        /* \"#utility.yul\":956:991   */\n      swap1\n      pop\n        /* \"#utility.yul\":901:997   */\n      swap2\n      swap1\n      pop\n      jump\t// out\n        /* \"#utility.yul\":1003:1125   */\n    tag_70:\n        /* \"#utility.yul\":1076:1100   */\n      tag_91\n        /* \"#utility.yul\":1094:1099   */\n      dup2\n        /* \"#utility.yul\":1076:1100   */\n      tag_69\n      jump\t// in\n    tag_91:\n        /* \"#utility.yul\":1069:1074   */\n      dup2\n        /* \"#utility.yul\":1066:1101   */\n      eq\n        /* \"#utility.yul\":1056:1119   */\n      tag_92\n      jumpi\n        /* \"#utility.yul\":1115:1116   */\n      0x00\n        /* \"#utility.yul\":1112:1113   */\n      dup1\n        /* \"#utility.yul\":1105:1117   */\n      revert\n        /* \"#utility.yul\":1056:1119   */\n    tag_92:\n        /* \"#utility.yul\":1003:1125   */\n      pop\n      jump\t// out\n        /* \"#utility.yul\":1131:1270   */\n    tag_71:\n        /* \"#utility.yul\":1177:1182   */\n      0x00\n        /* \"#utility.yul\":1215:1221   */\n      dup2\n        /* \"#utility.yul\":1202:1222   */\n      calldataload\n        /* \"#utility.yul\":1193:1222   */\n      swap1\n      pop\n        /* \"#utility.yul\":1231:1264   */\n      tag_94\n        /* \"#utility.yul\":1258:1263   */\n      dup2\n        /* \"#utility.yul\":1231:1264   */\n      tag_70\n      jump\t// in\n    tag_94:\n        /* \"#utility.yul\":1131:1270   */\n      swap3\n      swap2\n      pop\n      pop\n      jump\t// out\n        /* \"#utility.yul\":1276:1365   */\n    tag_72:\n        /* \"#utility.yul\":1312:1319   */\n      0x00\n        /* \"#utility.yul\":1352:1358   */\n      0xffff\n        /* \"#utility.yul\":1345:1350   */\n      dup3\n        /* \"#utility.yul\":1341:1359   */\n      and\n        /* \"#utility.yul\":1330:1359   */\n      swap1\n      pop\n        /* \"#utility.yul\":1276:1365   */\n      swap2\n      swap1\n      pop\n      jump\t// out\n        /* \"#utility.yul\":1371:1491   */\n    tag_73:\n        /* \"#utility.yul\":1443:1466   */\n      tag_97\n        /* \"#utility.yul\":1460:1465   */\n      dup2\n        /* \"#utility.yul\":1443:1466   */\n      tag_72\n      jump\t// in\n    tag_97:\n        /* \"#utility.yul\":1436:1441   */\n      dup2\n        /* \"#utility.yul\":1433:1467   */\n      eq\n        /* \"#utility.yul\":1423:1485   */\n      tag_98\n      jumpi\n        /* \"#utility.yul\":1481:1482   */\n      0x00\n        /* \"#utility.yul\":1478:1479   */\n      dup1\n        /* \"#utility.yul\":1471:1483   */\n      revert\n        /* \"#utility.yul\":1423:1485   */\n    tag_98:\n        /* \"#utility.yul\":1371:1491   */\n      pop\n      jump\t// out\n        /* \"#utility.yul\":1497:1634   */\n    tag_74:\n        /* \"#utility.yul\":1542:1547   */\n      0x00\n        /* \"#utility.yul\":1580:1586   */\n      dup2\n        /* \"#utility.yul\":1567:1587   */\n      calldataload\n        /* \"#utility.yul\":1558:1587   */\n      swap1\n      pop\n        /* \"#utility.yul\":1596:1628   */\n      tag_100\n        /* \"#utility.yul\":1622:1627   */\n      dup2\n        /* \"#utility.yul\":1596:1628   */\n      tag_73\n      jump\t// in\n    tag_100:\n        /* \"#utility.yul\":1497:1634   */\n      swap3\n      swap2\n      pop\n      pop\n      jump\t// out\n        /* \"#utility.yul\":1640:2112   */\n    tag_15:\n        /* \"#utility.yul\":1707:1713   */\n      0x00\n        /* \"#utility.yul\":1715:1721   */\n      dup1\n        /* \"#utility.yul\":1764:1766   */\n      0x40\n        /* \"#utility.yul\":1752:1761   */\n      dup4\n        /* \"#utility.yul\":1743:1750   */\n      dup6\n        /* \"#utility.yul\":1739:1762   */\n      sub\n        /* \"#utility.yul\":1735:1767   */\n      slt\n        /* \"#utility.yul\":1732:1851   */\n      iszero\n      tag_102\n      jumpi\n        /* \"#utility.yul\":1770:1849   */\n      tag_103\n      tag_66\n      jump\t// in\n    tag_103:\n        /* \"#utility.yul\":1732:1851   */\n    tag_102:\n        /* \"#utility.yul\":1890:1891   */\n      0x00\n        /* \"#utility.yul\":1915:1968   */\n      tag_104\n        /* \"#utility.yul\":1960:1967   */\n      dup6\n        /* \"#utility.yul\":1951:1957   */\n      dup3\n        /* \"#utility.yul\":1940:1949   */\n      dup7\n        /* \"#utility.yul\":1936:1958   */\n      add\n        /* \"#utility.yul\":1915:1968   */\n      tag_71\n      jump\t// in\n    tag_104:\n        /* \"#utility.yul\":1905:1968   */\n      swap3\n      pop\n        /* \"#utility.yul\":1861:1978   */\n      pop\n        /* \"#utility.yul\":2017:2019   */\n      0x20\n        /* \"#utility.yul\":2043:2095   */\n      tag_105\n        /* \"#utility.yul\":2087:2094   */\n      dup6\n        /* \"#utility.yul\":2078:2084   */\n      dup3\n        /* \"#utility.yul\":2067:2076   */\n      dup7\n        /* \"#utility.yul\":2063:2085   */\n      add\n        /* \"#utility.yul\":2043:2095   */\n      tag_74\n      jump\t// in\n    tag_105:\n        /* \"#utility.yul\":2033:2095   */\n      swap2\n      pop\n        /* \"#utility.yul\":1988:2105   */\n      pop\n        /* \"#utility.yul\":1640:2112   */\n      swap3\n      pop\n      swap3\n      swap1\n      pop\n      jump\t// out\n        /* \"#utility.yul\":2118:2447   */\n    tag_19:\n        /* \"#utility.yul\":2177:2183   */\n      0x00\n        /* \"#utility.yul\":2226:2228   */\n      0x20\n        /* \"#utility.yul\":2214:2223   */\n      dup3\n        /* \"#utility.yul\":2205:2212   */\n      dup5\n        /* \"#utility.yul\":2201:2224   */\n      sub\n        /* \"#utility.yul\":2197:2229   */\n      slt\n        /* \"#utility.yul\":2194:2313   */\n      iszero\n      tag_107\n      jumpi\n        /* \"#utility.yul\":2232:2311   */\n      tag_108\n      tag_66\n      jump\t// in\n    tag_108:\n        /* \"#utility.yul\":2194:2313   */\n    tag_107:\n        /* \"#utility.yul\":2352:2353   */\n      0x00\n        /* \"#utility.yul\":2377:2430   */\n      tag_109\n        /* \"#utility.yul\":2422:2429   */\n      dup5\n        /* \"#utility.yul\":2413:2419   */\n      dup3\n        /* \"#utility.yul\":2402:2411   */\n      dup6\n        /* \"#utility.yul\":2398:2420   */\n      add\n        /* \"#utility.yul\":2377:2430   */\n      tag_71\n      jump\t// in\n    tag_109:\n        /* \"#utility.yul\":2367:2430   */\n      swap2\n      pop\n        /* \"#utility.yul\":2323:2440   */\n      pop\n        /* \"#utility.yul\":2118:2447   */\n      swap3\n      swap2\n      pop\n      pop\n      jump\t// out\n        /* \"#utility.yul\":2453:2568   */\n    tag_75:\n        /* \"#utility.yul\":2538:2561   */\n      tag_111\n        /* \"#utility.yul\":2555:2560   */\n      dup2\n        /* \"#utility.yul\":2538:2561   */\n      tag_72\n      jump\t// in\n    tag_111:\n        /* \"#utility.yul\":2533:2536   */\n      dup3\n        /* \"#utility.yul\":2526:2562   */\n      mstore\n        /* \"#utility.yul\":2453:2568   */\n      pop\n      pop\n      jump\t// out\n        /* \"#utility.yul\":2574:2792   */\n    tag_25:\n        /* \"#utility.yul\":2665:2669   */\n      0x00\n        /* \"#utility.yul\":2703:2705   */\n      0x20\n        /* \"#utility.yul\":2692:2701   */\n      dup3\n        /* \"#utility.yul\":2688:2706   */\n      add\n        /* \"#utility.yul\":2680:2706   */\n      swap1\n      pop\n        /* \"#utility.yul\":2716:2785   */\n      tag_113\n        /* \"#utility.yul\":2782:2783   */\n      0x00\n        /* \"#utility.yul\":2771:2780   */\n      dup4\n        /* \"#utility.yul\":2767:2784   */\n      add\n        /* \"#utility.yul\":2758:2764   */\n      dup5\n        /* \"#utility.yul\":2716:2785   */\n      tag_75\n      jump\t// in\n    tag_113:\n        /* \"#utility.yul\":2574:2792   */\n      swap3\n      swap2\n      pop\n      pop\n      jump\t// out\n        /* \"#utility.yul\":2798:2916   */\n    tag_76:\n        /* \"#utility.yul\":2885:2909   */\n      tag_115\n        /* \"#utility.yul\":2903:2908   */\n      dup2\n        /* \"#utility.yul\":2885:2909   */\n      tag_69\n      jump\t// in\n    tag_115:\n        /* \"#utility.yul\":2880:2883   */\n      dup3\n        /* \"#utility.yul\":2873:2910   */\n      mstore\n        /* \"#utility.yul\":2798:2916   */\n      pop\n      pop\n      jump\t// out\n        /* \"#utility.yul\":2922:3250   */\n    tag_29:\n        /* \"#utility.yul\":3041:3045   */\n      0x00\n        /* \"#utility.yul\":3079:3081   */\n      0x40\n        /* \"#utility.yul\":3068:3077   */\n      dup3\n        /* \"#utility.yul\":3064:3082   */\n      add\n        /* \"#utility.yul\":3056:3082   */\n      swap1\n      pop\n        /* \"#utility.yul\":3092:3163   */\n      tag_117\n        /* \"#utility.yul\":3160:3161   */\n      0x00\n        /* \"#utility.yul\":3149:3158   */\n      dup4\n        /* \"#utility.yul\":3145:3162   */\n      add\n        /* \"#utility.yul\":3136:3142   */\n      dup6\n        /* \"#utility.yul\":3092:3163   */\n      tag_76\n      jump\t// in\n    tag_117:\n        /* \"#utility.yul\":3173:3243   */\n      tag_118\n        /* \"#utility.yul\":3239:3241   */\n      0x20\n        /* \"#utility.yul\":3228:3237   */\n      dup4\n        /* \"#utility.yul\":3224:3242   */\n      add\n        /* \"#utility.yul\":3215:3221   */\n      dup5\n        /* \"#utility.yul\":3173:3243   */\n      tag_75\n      jump\t// in\n    tag_118:\n        /* \"#utility.yul\":2922:3250   */\n      swap4\n      swap3\n      pop\n      pop\n      pop\n      jump\t// out\n        /* \"#utility.yul\":3256:3436   */\n    tag_40:\n        /* \"#utility.yul\":3304:3381   */\n      0x4e487b7100000000000000000000000000000000000000000000000000000000\n        /* \"#utility.yul\":3301:3302   */\n      0x00\n        /* \"#utility.yul\":3294:3382   */\n      mstore\n        /* \"#utility.yul\":3401:3405   */\n      0x32\n        /* \"#utility.yul\":3398:3399   */\n      0x04\n        /* \"#utility.yul\":3391:3406   */\n      mstore\n        /* \"#utility.yul\":3425:3429   */\n      0x24\n        /* \"#utility.yul\":3422:3423   */\n      0x00\n        /* \"#utility.yul\":3415:3430   */\n      revert\n        /* \"#utility.yul\":3442:3622   */\n    tag_77:\n        /* \"#utility.yul\":3490:3567   */\n      0x4e487b7100000000000000000000000000000000000000000000000000000000\n        /* \"#utility.yul\":3487:3488   */\n      0x00\n        /* \"#utility.yul\":3480:3568   */\n      mstore\n        /* \"#utility.yul\":3587:3591   */\n      0x11\n        /* \"#utility.yul\":3584:3585   */\n      0x04\n        /* \"#utility.yul\":3577:3592   */\n      mstore\n        /* \"#utility.yul\":3611:3615   */\n      0x24\n        /* \"#utility.yul\":3608:3609   */\n      0x00\n        /* \"#utility.yul\":3601:3616   */\n      revert\n        /* \"#utility.yul\":3628:3819   */\n    tag_43:\n        /* \"#utility.yul\":3668:3671   */\n      0x00\n        /* \"#utility.yul\":3687:3707   */\n      tag_122\n        /* \"#utility.yul\":3705:3706   */\n      dup3\n        /* \"#utility.yul\":3687:3707   */\n      tag_63\n      jump\t// in\n    tag_122:\n        /* \"#utility.yul\":3682:3707   */\n      swap2\n      pop\n        /* \"#utility.yul\":3721:3741   */\n      tag_123\n        /* \"#utility.yul\":3739:3740   */\n      dup4\n        /* \"#utility.yul\":3721:3741   */\n      tag_63\n      jump\t// in\n    tag_123:\n        /* \"#utility.yul\":3716:3741   */\n      swap3\n      pop\n        /* \"#utility.yul\":3764:3765   */\n      dup3\n        /* \"#utility.yul\":3761:3762   */\n      dup3\n        /* \"#utility.yul\":3757:3766   */\n      add\n        /* \"#utility.yul\":3750:3766   */\n      swap1\n      pop\n        /* \"#utility.yul\":3785:3788   */\n      dup1\n        /* \"#utility.yul\":3782:3783   */\n      dup3\n        /* \"#utility.yul\":3779:3789   */\n      gt\n        /* \"#utility.yul\":3776:3812   */\n      iszero\n      tag_124\n      jumpi\n        /* \"#utility.yul\":3792:3810   */\n      tag_125\n      tag_77\n      jump\t// in\n    tag_125:\n        /* \"#utility.yul\":3776:3812   */\n    tag_124:\n        /* \"#utility.yul\":3628:3819   */\n      swap3\n      swap2\n      pop\n      pop\n      jump\t// out\n\n    auxdata: 0xa26469706673582212201a13aeb3fa00f24aee0b02040a2f59ad945a5af4a25f3e66f21090376ec2174464736f6c634300081a0033\n}\n",
				"bytecode": {
					"linkReferences": {},
					"object": "6080604052348015600e575f80fd5b506107a98061001c5f395ff3fe608060405234801561000f575f80fd5b5060043610610060575f3560e01c80632011cdae1461006457806328dd9b391461008257806333620eb81461009e57806376dd110f146100ba5780639b10b428146100ea578063d47875d014610109575b5f80fd5b61006c610139565b6040516100799190610571565b60405180910390f35b61009c6004803603810190610097919061061f565b6101f8565b005b6100b860048036038101906100b3919061065d565b610307565b005b6100d460048036038101906100cf919061065d565b610360565b6040516100e19190610697565b60405180910390f35b6100f261037d565b6040516101009291906106bf565b60405180910390f35b610123600480360381019061011e919061065d565b610507565b6040516101309190610697565b60405180910390f35b5f805f90505f5b6001805490508110156101f0575f8060018381548110610163576101626106e6565b5b905f5260205f20015f9054906101000a900473ffffffffffffffffffffffffffffffffffffffff1673ffffffffffffffffffffffffffffffffffffffff1673ffffffffffffffffffffffffffffffffffffffff1681526020019081526020015f205f9054906101000a900461ffff1661ffff16826101e19190610740565b91508080600101915050610140565b508091505090565b5f805f8473ffffffffffffffffffffffffffffffffffffffff1673ffffffffffffffffffffffffffffffffffffffff1681526020019081526020015f205f9054906101000a900461ffff1661ffff16036102ad57600182908060018154018082558091505060019003905f5260205f20015f9091909190916101000a81548173ffffffffffffffffffffffffffffffffffffffff021916908373ffffffffffffffffffffffffffffffffffffffff1602179055505b805f808473ffffffffffffffffffffffffffffffffffffffff1673ffffffffffffffffffffffffffffffffffffffff1681526020019081526020015f205f6101000a81548161ffff021916908361ffff1602179055505050565b5f805f8373ffffffffffffffffffffffffffffffffffffffff1673ffffffffffffffffffffffffffffffffffffffff1681526020019081526020015f205f6101000a81548161ffff021916908361ffff16021790555050565b5f602052805f5260405f205f915054906101000a900461ffff1681565b5f805f805f90505f5b6001805490508110156104fa578161ffff165f80600184815481106103ae576103ad6106e6565b5b905f5260205f20015f9054906101000a900473ffffffffffffffffffffffffffffffffffffffff1673ffffffffffffffffffffffffffffffffffffffff1673ffffffffffffffffffffffffffffffffffffffff1681526020019081526020015f205f9054906101000a900461ffff1661ffff1611156104ed575f806001838154811061043d5761043c6106e6565b5b905f5260205f20015f9054906101000a900473ffffffffffffffffffffffffffffffffffffffff1673ffffffffffffffffffffffffffffffffffffffff1673ffffffffffffffffffffffffffffffffffffffff1681526020019081526020015f205f9054906101000a900461ffff169150600181815481106104c2576104c16106e6565b5b905f5260205f20015f9054906101000a900473ffffffffffffffffffffffffffffffffffffffff1692505b8080600101915050610386565b5081819350935050509091565b5f805f8373ffffffffffffffffffffffffffffffffffffffff1673ffffffffffffffffffffffffffffffffffffffff1681526020019081526020015f205f9054906101000a900461ffff169050919050565b5f819050919050565b61056b81610559565b82525050565b5f6020820190506105845f830184610562565b92915050565b5f80fd5b5f73ffffffffffffffffffffffffffffffffffffffff82169050919050565b5f6105b78261058e565b9050919050565b6105c7816105ad565b81146105d1575f80fd5b50565b5f813590506105e2816105be565b92915050565b5f61ffff82169050919050565b6105fe816105e8565b8114610608575f80fd5b50565b5f81359050610619816105f5565b92915050565b5f80604083850312156106355761063461058a565b5b5f610642858286016105d4565b92505060206106538582860161060b565b9150509250929050565b5f602082840312156106725761067161058a565b5b5f61067f848285016105d4565b91505092915050565b610691816105e8565b82525050565b5f6020820190506106aa5f830184610688565b92915050565b6106b9816105ad565b82525050565b5f6040820190506106d25f8301856106b0565b6106df6020830184610688565b9392505050565b7f4e487b71000000000000000000000000000000000000000000000000000000005f52603260045260245ffd5b7f4e487b71000000000000000000000000000000000000000000000000000000005f52601160045260245ffd5b5f61074a82610559565b915061075583610559565b925082820190508082111561076d5761076c610713565b5b9291505056fea26469706673582212201a13aeb3fa00f24aee0b02040a2f59ad945a5af4a25f3e66f21090376ec2174464736f6c634300081a0033",
					"opcodes": "PUSH1 0x80 PUSH1 0x40 MSTORE CALLVALUE DUP1 ISZERO PUSH1 0xE JUMPI PUSH0 DUP1 REVERT JUMPDEST POP PUSH2 0x7A9 DUP1 PUSH2 0x1C PUSH0 CODECOPY PUSH0 RETURN INVALID PUSH1 0x80 PUSH1 0x40 MSTORE CALLVALUE DUP1 ISZERO PUSH2 0xF JUMPI PUSH0 DUP1 REVERT JUMPDEST POP PUSH1 0x4 CALLDATASIZE LT PUSH2 0x60 JUMPI PUSH0 CALLDATALOAD PUSH1 0xE0 SHR DUP1 PUSH4 0x2011CDAE EQ PUSH2 0x64 JUMPI DUP1 PUSH4 0x28DD9B39 EQ PUSH2 0x82 JUMPI DUP1 PUSH4 0x33620EB8 EQ PUSH2 0x9E JUMPI DUP1 PUSH4 0x76DD110F EQ PUSH2 0xBA JUMPI DUP1 PUSH4 0x9B10B428 EQ PUSH2 0xEA JUMPI DUP1 PUSH4 0xD47875D0 EQ PUSH2 0x109 JUMPI JUMPDEST PUSH0 DUP1 REVERT JUMPDEST PUSH2 0x6C PUSH2 0x139 JUMP JUMPDEST PUSH1 0x40 MLOAD PUSH2 0x79 SWAP2 SWAP1 PUSH2 0x571 JUMP JUMPDEST PUSH1 0x40 MLOAD DUP1 SWAP2 SUB SWAP1 RETURN JUMPDEST PUSH2 0x9C PUSH1 0x4 DUP1 CALLDATASIZE SUB DUP2 ADD SWAP1 PUSH2 0x97 SWAP2 SWAP1 PUSH2 0x61F JUMP JUMPDEST PUSH2 0x1F8 JUMP JUMPDEST STOP JUMPDEST PUSH2 0xB8 PUSH1 0x4 DUP1 CALLDATASIZE SUB DUP2 ADD SWAP1 PUSH2 0xB3 SWAP2 SWAP1 PUSH2 0x65D JUMP JUMPDEST PUSH2 0x307 JUMP JUMPDEST STOP JUMPDEST PUSH2 0xD4 PUSH1 0x4 DUP1 CALLDATASIZE SUB DUP2 ADD SWAP1 PUSH2 0xCF SWAP2 SWAP1 PUSH2 0x65D JUMP JUMPDEST PUSH2 0x360 JUMP JUMPDEST PUSH1 0x40 MLOAD PUSH2 0xE1 SWAP2 SWAP1 PUSH2 0x697 JUMP JUMPDEST PUSH1 0x40 MLOAD DUP1 SWAP2 SUB SWAP1 RETURN JUMPDEST PUSH2 0xF2 PUSH2 0x37D JUMP JUMPDEST PUSH1 0x40 MLOAD PUSH2 0x100 SWAP3 SWAP2 SWAP1 PUSH2 0x6BF JUMP JUMPDEST PUSH1 0x40 MLOAD DUP1 SWAP2 SUB SWAP1 RETURN JUMPDEST PUSH2 0x123 PUSH1 0x4 DUP1 CALLDATASIZE SUB DUP2 ADD SWAP1 PUSH2 0x11E SWAP2 SWAP1 PUSH2 0x65D JUMP JUMPDEST PUSH2 0x507 JUMP JUMPDEST PUSH1 0x40 MLOAD PUSH2 0x130 SWAP2 SWAP1 PUSH2 0x697 JUMP JUMPDEST PUSH1 0x40 MLOAD DUP1 SWAP2 SUB SWAP1 RETURN JUMPDEST PUSH0 DUP1 PUSH0 SWAP1 POP PUSH0 JUMPDEST PUSH1 0x1 DUP1 SLOAD SWAP1 POP DUP2 LT ISZERO PUSH2 0x1F0 JUMPI PUSH0 DUP1 PUSH1 0x1 DUP4 DUP2 SLOAD DUP2 LT PUSH2 0x163 JUMPI PUSH2 0x162 PUSH2 0x6E6 JUMP JUMPDEST JUMPDEST SWAP1 PUSH0 MSTORE PUSH1 0x20 PUSH0 KECCAK256 ADD PUSH0 SWAP1 SLOAD SWAP1 PUSH2 0x100 EXP SWAP1 DIV PUSH20 0xFFFFFFFFFFFFFFFFFFFFFFFFFFFFFFFFFFFFFFFF AND PUSH20 0xFFFFFFFFFFFFFFFFFFFFFFFFFFFFFFFFFFFFFFFF AND PUSH20 0xFFFFFFFFFFFFFFFFFFFFFFFFFFFFFFFFFFFFFFFF AND DUP2 MSTORE PUSH1 0x20 ADD SWAP1 DUP2 MSTORE PUSH1 0x20 ADD PUSH0 KECCAK256 PUSH0 SWAP1 SLOAD SWAP1 PUSH2 0x100 EXP SWAP1 DIV PUSH2 0xFFFF AND PUSH2 0xFFFF AND DUP3 PUSH2 0x1E1 SWAP2 SWAP1 PUSH2 0x740 JUMP JUMPDEST SWAP2 POP DUP1 DUP1 PUSH1 0x1 ADD SWAP2 POP POP PUSH2 0x140 JUMP JUMPDEST POP DUP1 SWAP2 POP POP SWAP1 JUMP JUMPDEST PUSH0 DUP1 PUSH0 DUP5 PUSH20 0xFFFFFFFFFFFFFFFFFFFFFFFFFFFFFFFFFFFFFFFF AND PUSH20 0xFFFFFFFFFFFFFFFFFFFFFFFFFFFFFFFFFFFFFFFF AND DUP2 MSTORE PUSH1 0x20 ADD SWAP1 DUP2 MSTORE PUSH1 0x20 ADD PUSH0 KECCAK256 PUSH0 SWAP1 SLOAD SWAP1 PUSH2 0x100 EXP SWAP1 DIV PUSH2 0xFFFF AND PUSH2 0xFFFF AND SUB PUSH2 0x2AD JUMPI PUSH1 0x1 DUP3 SWAP1 DUP1 PUSH1 0x1 DUP2 SLOAD ADD DUP1 DUP3 SSTORE DUP1 SWAP2 POP POP PUSH1 0x1 SWAP1 SUB SWAP1 PUSH0 MSTORE PUSH1 0x20 PUSH0 KECCAK256 ADD PUSH0 SWAP1 SWAP2 SWAP1 SWAP2 SWAP1 SWAP2 PUSH2 0x100 EXP DUP2 SLOAD DUP2 PUSH20 0xFFFFFFFFFFFFFFFFFFFFFFFFFFFFFFFFFFFFFFFF MUL NOT AND SWAP1 DUP4 PUSH20 0xFFFFFFFFFFFFFFFFFFFFFFFFFFFFFFFFFFFFFFFF AND MUL OR SWAP1 SSTORE POP JUMPDEST DUP1 PUSH0 DUP1 DUP5 PUSH20 0xFFFFFFFFFFFFFFFFFFFFFFFFFFFFFFFFFFFFFFFF AND PUSH20 0xFFFFFFFFFFFFFFFFFFFFFFFFFFFFFFFFFFFFFFFF AND DUP2 MSTORE PUSH1 0x20 ADD SWAP1 DUP2 MSTORE PUSH1 0x20 ADD PUSH0 KECCAK256 PUSH0 PUSH2 0x100 EXP DUP2 SLOAD DUP2 PUSH2 0xFFFF MUL NOT AND SWAP1 DUP4 PUSH2 0xFFFF AND MUL OR SWAP1 SSTORE POP POP POP JUMP JUMPDEST PUSH0 DUP1 PUSH0 DUP4 PUSH20 0xFFFFFFFFFFFFFFFFFFFFFFFFFFFFFFFFFFFFFFFF AND PUSH20 0xFFFFFFFFFFFFFFFFFFFFFFFFFFFFFFFFFFFFFFFF AND DUP2 MSTORE PUSH1 0x20 ADD SWAP1 DUP2 MSTORE PUSH1 0x20 ADD PUSH0 KECCAK256 PUSH0 PUSH2 0x100 EXP DUP2 SLOAD DUP2 PUSH2 0xFFFF MUL NOT AND SWAP1 DUP4 PUSH2 0xFFFF AND MUL OR SWAP1 SSTORE POP POP JUMP JUMPDEST PUSH0 PUSH1 0x20 MSTORE DUP1 PUSH0 MSTORE PUSH1 0x40 PUSH0 KECCAK256 PUSH0 SWAP2 POP SLOAD SWAP1 PUSH2 0x100 EXP SWAP1 DIV PUSH2 0xFFFF AND DUP2 JUMP JUMPDEST PUSH0 DUP1 PUSH0 DUP1 PUSH0 SWAP1 POP PUSH0 JUMPDEST PUSH1 0x1 DUP1 SLOAD SWAP1 POP DUP2 LT ISZERO PUSH2 0x4FA JUMPI DUP2 PUSH2 0xFFFF AND PUSH0 DUP1 PUSH1 0x1 DUP5 DUP2 SLOAD DUP2 LT PUSH2 0x3AE JUMPI PUSH2 0x3AD PUSH2 0x6E6 JUMP JUMPDEST JUMPDEST SWAP1 PUSH0 MSTORE PUSH1 0x20 PUSH0 KECCAK256 ADD PUSH0 SWAP1 SLOAD SWAP1 PUSH2 0x100 EXP SWAP1 DIV PUSH20 0xFFFFFFFFFFFFFFFFFFFFFFFFFFFFFFFFFFFFFFFF AND PUSH20 0xFFFFFFFFFFFFFFFFFFFFFFFFFFFFFFFFFFFFFFFF AND PUSH20 0xFFFFFFFFFFFFFFFFFFFFFFFFFFFFFFFFFFFFFFFF AND DUP2 MSTORE PUSH1 0x20 ADD SWAP1 DUP2 MSTORE PUSH1 0x20 ADD PUSH0 KECCAK256 PUSH0 SWAP1 SLOAD SWAP1 PUSH2 0x100 EXP SWAP1 DIV PUSH2 0xFFFF AND PUSH2 0xFFFF AND GT ISZERO PUSH2 0x4ED JUMPI PUSH0 DUP1 PUSH1 0x1 DUP4 DUP2 SLOAD DUP2 LT PUSH2 0x43D JUMPI PUSH2 0x43C PUSH2 0x6E6 JUMP JUMPDEST JUMPDEST SWAP1 PUSH0 MSTORE PUSH1 0x20 PUSH0 KECCAK256 ADD PUSH0 SWAP1 SLOAD SWAP1 PUSH2 0x100 EXP SWAP1 DIV PUSH20 0xFFFFFFFFFFFFFFFFFFFFFFFFFFFFFFFFFFFFFFFF AND PUSH20 0xFFFFFFFFFFFFFFFFFFFFFFFFFFFFFFFFFFFFFFFF AND PUSH20 0xFFFFFFFFFFFFFFFFFFFFFFFFFFFFFFFFFFFFFFFF AND DUP2 MSTORE PUSH1 0x20 ADD SWAP1 DUP2 MSTORE PUSH1 0x20 ADD PUSH0 KECCAK256 PUSH0 SWAP1 SLOAD SWAP1 PUSH2 0x100 EXP SWAP1 DIV PUSH2 0xFFFF AND SWAP2 POP PUSH1 0x1 DUP2 DUP2 SLOAD DUP2 LT PUSH2 0x4C2 JUMPI PUSH2 0x4C1 PUSH2 0x6E6 JUMP JUMPDEST JUMPDEST SWAP1 PUSH0 MSTORE PUSH1 0x20 PUSH0 KECCAK256 ADD PUSH0 SWAP1 SLOAD SWAP1 PUSH2 0x100 EXP SWAP1 DIV PUSH20 0xFFFFFFFFFFFFFFFFFFFFFFFFFFFFFFFFFFFFFFFF AND SWAP3 POP JUMPDEST DUP1 DUP1 PUSH1 0x1 ADD SWAP2 POP POP PUSH2 0x386 JUMP JUMPDEST POP DUP2 DUP2 SWAP4 POP SWAP4 POP POP POP SWAP1 SWAP2 JUMP JUMPDEST PUSH0 DUP1 PUSH0 DUP4 PUSH20 0xFFFFFFFFFFFFFFFFFFFFFFFFFFFFFFFFFFFFFFFF AND PUSH20 0xFFFFFFFFFFFFFFFFFFFFFFFFFFFFFFFFFFFFFFFF AND DUP2 MSTORE PUSH1 0x20 ADD SWAP1 DUP2 MSTORE PUSH1 0x20 ADD PUSH0 KECCAK256 PUSH0 SWAP1 SLOAD SWAP1 PUSH2 0x100 EXP SWAP1 DIV PUSH2 0xFFFF AND SWAP1 POP SWAP2 SWAP1 POP JUMP JUMPDEST PUSH0 DUP2 SWAP1 POP SWAP2 SWAP1 POP JUMP JUMPDEST PUSH2 0x56B DUP2 PUSH2 0x559 JUMP JUMPDEST DUP3 MSTORE POP POP JUMP JUMPDEST PUSH0 PUSH1 0x20 DUP3 ADD SWAP1 POP PUSH2 0x584 PUSH0 DUP4 ADD DUP5 PUSH2 0x562 JUMP JUMPDEST SWAP3 SWAP2 POP POP JUMP JUMPDEST PUSH0 DUP1 REVERT JUMPDEST PUSH0 PUSH20 0xFFFFFFFFFFFFFFFFFFFFFFFFFFFFFFFFFFFFFFFF DUP3 AND SWAP1 POP SWAP2 SWAP1 POP JUMP JUMPDEST PUSH0 PUSH2 0x5B7 DUP3 PUSH2 0x58E JUMP JUMPDEST SWAP1 POP SWAP2 SWAP1 POP JUMP JUMPDEST PUSH2 0x5C7 DUP2 PUSH2 0x5AD JUMP JUMPDEST DUP2 EQ PUSH2 0x5D1 JUMPI PUSH0 DUP1 REVERT JUMPDEST POP JUMP JUMPDEST PUSH0 DUP2 CALLDATALOAD SWAP1 POP PUSH2 0x5E2 DUP2 PUSH2 0x5BE JUMP JUMPDEST SWAP3 SWAP2 POP POP JUMP JUMPDEST PUSH0 PUSH2 0xFFFF DUP3 AND SWAP1 POP SWAP2 SWAP1 POP JUMP JUMPDEST PUSH2 0x5FE DUP2 PUSH2 0x5E8 JUMP JUMPDEST DUP2 EQ PUSH2 0x608 JUMPI PUSH0 DUP1 REVERT JUMPDEST POP JUMP JUMPDEST PUSH0 DUP2 CALLDATALOAD SWAP1 POP PUSH2 0x619 DUP2 PUSH2 0x5F5 JUMP JUMPDEST SWAP3 SWAP2 POP POP JUMP JUMPDEST PUSH0 DUP1 PUSH1 0x40 DUP4 DUP6 SUB SLT ISZERO PUSH2 0x635 JUMPI PUSH2 0x634 PUSH2 0x58A JUMP JUMPDEST JUMPDEST PUSH0 PUSH2 0x642 DUP6 DUP3 DUP7 ADD PUSH2 0x5D4 JUMP JUMPDEST SWAP3 POP POP PUSH1 0x20 PUSH2 0x653 DUP6 DUP3 DUP7 ADD PUSH2 0x60B JUMP JUMPDEST SWAP2 POP POP SWAP3 POP SWAP3 SWAP1 POP JUMP JUMPDEST PUSH0 PUSH1 0x20 DUP3 DUP5 SUB SLT ISZERO PUSH2 0x672 JUMPI PUSH2 0x671 PUSH2 0x58A JUMP JUMPDEST JUMPDEST PUSH0 PUSH2 0x67F DUP5 DUP3 DUP6 ADD PUSH2 0x5D4 JUMP JUMPDEST SWAP2 POP POP SWAP3 SWAP2 POP POP JUMP JUMPDEST PUSH2 0x691 DUP2 PUSH2 0x5E8 JUMP JUMPDEST DUP3 MSTORE POP POP JUMP JUMPDEST PUSH0 PUSH1 0x20 DUP3 ADD SWAP1 POP PUSH2 0x6AA PUSH0 DUP4 ADD DUP5 PUSH2 0x688 JUMP JUMPDEST SWAP3 SWAP2 POP POP JUMP JUMPDEST PUSH2 0x6B9 DUP2 PUSH2 0x5AD JUMP JUMPDEST DUP3 MSTORE POP POP JUMP JUMPDEST PUSH0 PUSH1 0x40 DUP3 ADD SWAP1 POP PUSH2 0x6D2 PUSH0 DUP4 ADD DUP6 PUSH2 0x6B0 JUMP JUMPDEST PUSH2 0x6DF PUSH1 0x20 DUP4 ADD DUP5 PUSH2 0x688 JUMP JUMPDEST SWAP4 SWAP3 POP POP POP JUMP JUMPDEST PUSH32 0x4E487B7100000000000000000000000000000000000000000000000000000000 PUSH0 MSTORE PUSH1 0x32 PUSH1 0x4 MSTORE PUSH1 0x24 PUSH0 REVERT JUMPDEST PUSH32 0x4E487B7100000000000000000000000000000000000000000000000000000000 PUSH0 MSTORE PUSH1 0x11 PUSH1 0x4 MSTORE PUSH1 0x24 PUSH0 REVERT JUMPDEST PUSH0 PUSH2 0x74A DUP3 PUSH2 0x559 JUMP JUMPDEST SWAP2 POP PUSH2 0x755 DUP4 PUSH2 0x559 JUMP JUMPDEST SWAP3 POP DUP3 DUP3 ADD SWAP1 POP DUP1 DUP3 GT ISZERO PUSH2 0x76D JUMPI PUSH2 0x76C PUSH2 0x713 JUMP JUMPDEST JUMPDEST SWAP3 SWAP2 POP POP JUMP INVALID LOG2 PUSH5 0x6970667358 0x22 SLT KECCAK256 BYTE SGT 0xAE 0xB3 STATICCALL STOP CALLCODE BLOBBASEFEE 0xEE SIGNEXTEND MUL DIV EXP 0x2F MSIZE 0xAD SWAP5 GAS GAS DELEGATECALL LOG2 PUSH0 RETURNDATACOPY PUSH7 0xF21090376EC217 PREVRANDAO PUSH5 0x736F6C6343 STOP ADDMOD BYTE STOP CALLER "
				},
				"gasEstimates": {
					"creation": {
						"codeDepositCost": "392200",
						"executionCost": "428",
						"totalCost": "392628"
					},
					"external": {
						"getHighestScorer()": "infinite",
						"getScore(address)": "2958",
						"getTotalScore()": "infinite",
						"resetScore(address)": "24824",
						"scores(address)": "2876",
						"setScore(address,uint16)": "75807"
					}
				},
				"methodIdentifiers": {
					"getHighestScorer()": "9b10b428",
					"getScore(address)": "d47875d0",
					"getTotalScore()": "2011cdae",
					"resetScore(address)": "33620eb8",
					"scores(address)": "76dd110f",
					"setScore(address,uint16)": "28dd9b39"
				}
			},
			"storageLayout": {
				"storage": [
					{
						"astId": 5,
						"contract": "contracts/Blockchain_Assignment_1/Task_Codes/t_ask1_task5.sol:Leaderboard",
						"label": "scores",
						"offset": 0,
						"slot": "0",
						"type": "t_mapping(t_address,t_uint16)"
					},
					{
						"astId": 8,
						"contract": "contracts/Blockchain_Assignment_1/Task_Codes/t_ask1_task5.sol:Leaderboard",
						"label": "players",
						"offset": 0,
						"slot": "1",
						"type": "t_array(t_address)dyn_storage"
					}
				],
				"types": {
					"t_address": {
						"encoding": "inplace",
						"label": "address",
						"numberOfBytes": "20"
					},
					"t_array(t_address)dyn_storage": {
						"base": "t_address",
						"encoding": "dynamic_array",
						"label": "address[]",
						"numberOfBytes": "32"
					},
					"t_mapping(t_address,t_uint16)": {
						"encoding": "mapping",
						"key": "t_address",
						"label": "mapping(address => uint16)",
						"numberOfBytes": "32",
						"value": "t_uint16"
					},
					"t_uint16": {
						"encoding": "inplace",
						"label": "uint16",
						"numberOfBytes": "2"
					}
				}
			},
			"userdoc": {
				"kind": "user",
				"methods": {},
				"version": 1
			}
		}
	}
}