{
	"contracts/Blockchain_Assignment_1/Task_Codes/t_as1_task3.sol": {
		"Task3": {
			"abi": [
				{
					"inputs": [
						{
							"internalType": "int128",
							"name": "number",
							"type": "int128"
						}
					],
					"name": "getDifference",
					"outputs": [
						{
							"internalType": "int128",
							"name": "",
							"type": "int128"
						}
					],
					"stateMutability": "view",
					"type": "function"
				},
				{
					"inputs": [
						{
							"internalType": "int128",
							"name": "number",
							"type": "int128"
						}
					],
					"name": "getProduct",
					"outputs": [
						{
							"internalType": "int128",
							"name": "",
							"type": "int128"
						}
					],
					"stateMutability": "view",
					"type": "function"
				},
				{
					"inputs": [
						{
							"internalType": "int128",
							"name": "number",
							"type": "int128"
						}
					],
					"name": "getQuotient",
					"outputs": [
						{
							"internalType": "int128",
							"name": "",
							"type": "int128"
						}
					],
					"stateMutability": "view",
					"type": "function"
				},
				{
					"inputs": [
						{
							"internalType": "int128",
							"name": "number",
							"type": "int128"
						}
					],
					"name": "getRemainder",
					"outputs": [
						{
							"internalType": "int128",
							"name": "",
							"type": "int128"
						}
					],
					"stateMutability": "view",
					"type": "function"
				},
				{
					"inputs": [
						{
							"internalType": "int128",
							"name": "number",
							"type": "int128"
						}
					],
					"name": "getSum",
					"outputs": [
						{
							"internalType": "int128",
							"name": "",
							"type": "int128"
						}
					],
					"stateMutability": "view",
					"type": "function"
				},
				{
					"inputs": [
						{
							"internalType": "int128",
							"name": "number",
							"type": "int128"
						}
					],
					"name": "setValue",
					"outputs": [],
					"stateMutability": "nonpayable",
					"type": "function"
				}
			],
			"devdoc": {
				"kind": "dev",
				"methods": {},
				"version": 1
			},
			"evm": {
				"assembly": "    /* \"contracts/Blockchain_Assignment_1/Task_Codes/t_as1_task3.sol\":28:1262  contract Task3 {... */\n  mstore(0x40, 0x80)\n  callvalue\n  dup1\n  iszero\n  tag_1\n  jumpi\n  0x00\n  dup1\n  revert\ntag_1:\n  pop\n  dataSize(sub_0)\n  dup1\n  dataOffset(sub_0)\n  0x00\n  codecopy\n  0x00\n  return\nstop\n\nsub_0: assembly {\n        /* \"contracts/Blockchain_Assignment_1/Task_Codes/t_as1_task3.sol\":28:1262  contract Task3 {... */\n      mstore(0x40, 0x80)\n      callvalue\n      dup1\n      iszero\n      tag_1\n      jumpi\n      0x00\n      dup1\n      revert\n    tag_1:\n      pop\n      jumpi(tag_2, lt(calldatasize, 0x04))\n      shr(0xe0, calldataload(0x00))\n      dup1\n      0x2b260398\n      eq\n      tag_3\n      jumpi\n      dup1\n      0x31906273\n      eq\n      tag_4\n      jumpi\n      dup1\n      0x52a98d93\n      eq\n      tag_5\n      jumpi\n      dup1\n      0x9036923a\n      eq\n      tag_6\n      jumpi\n      dup1\n      0xbfe17f40\n      eq\n      tag_7\n      jumpi\n      dup1\n      0xf75a1d3d\n      eq\n      tag_8\n      jumpi\n    tag_2:\n      0x00\n      dup1\n      revert\n        /* \"contracts/Blockchain_Assignment_1/Task_Codes/t_as1_task3.sol\":463:570  function getDifference(int128 number) public view returns (int128) {... */\n    tag_3:\n      tag_9\n      0x04\n      dup1\n      calldatasize\n      sub\n      dup2\n      add\n      swap1\n      tag_10\n      swap2\n      swap1\n      tag_11\n      jump\t// in\n    tag_10:\n      tag_12\n      jump\t// in\n    tag_9:\n      mload(0x40)\n      tag_13\n      swap2\n      swap1\n      tag_14\n      jump\t// in\n    tag_13:\n      mload(0x40)\n      dup1\n      swap2\n      sub\n      swap1\n      return\n        /* \"contracts/Blockchain_Assignment_1/Task_Codes/t_as1_task3.sol\":136:209  function setValue(int128 number) public {... */\n    tag_4:\n      tag_15\n      0x04\n      dup1\n      calldatasize\n      sub\n      dup2\n      add\n      swap1\n      tag_16\n      swap2\n      swap1\n      tag_11\n      jump\t// in\n    tag_16:\n      tag_17\n      jump\t// in\n    tag_15:\n      stop\n        /* \"contracts/Blockchain_Assignment_1/Task_Codes/t_as1_task3.sol\":280:380  function getSum(int128 number) public view returns (int128) {... */\n    tag_5:\n      tag_18\n      0x04\n      dup1\n      calldatasize\n      sub\n      dup2\n      add\n      swap1\n      tag_19\n      swap2\n      swap1\n      tag_11\n      jump\t// in\n    tag_19:\n      tag_20\n      jump\t// in\n    tag_18:\n      mload(0x40)\n      tag_21\n      swap2\n      swap1\n      tag_14\n      jump\t// in\n    tag_21:\n      mload(0x40)\n      dup1\n      swap2\n      sub\n      swap1\n      return\n        /* \"contracts/Blockchain_Assignment_1/Task_Codes/t_as1_task3.sol\":1087:1259  function getRemainder(int128 number) public view returns (int128) {... */\n    tag_6:\n      tag_22\n      0x04\n      dup1\n      calldatasize\n      sub\n      dup2\n      add\n      swap1\n      tag_23\n      swap2\n      swap1\n      tag_11\n      jump\t// in\n    tag_23:\n      tag_24\n      jump\t// in\n    tag_22:\n      mload(0x40)\n      tag_25\n      swap2\n      swap1\n      tag_14\n      jump\t// in\n    tag_25:\n      mload(0x40)\n      dup1\n      swap2\n      sub\n      swap1\n      return\n        /* \"contracts/Blockchain_Assignment_1/Task_Codes/t_as1_task3.sol\":831:1002  function getQuotient(int128 number) public view returns (int128) {... */\n    tag_7:\n      tag_26\n      0x04\n      dup1\n      calldatasize\n      sub\n      dup2\n      add\n      swap1\n      tag_27\n      swap2\n      swap1\n      tag_11\n      jump\t// in\n    tag_27:\n      tag_28\n      jump\t// in\n    tag_26:\n      mload(0x40)\n      tag_29\n      swap2\n      swap1\n      tag_14\n      jump\t// in\n    tag_29:\n      mload(0x40)\n      dup1\n      swap2\n      sub\n      swap1\n      return\n        /* \"contracts/Blockchain_Assignment_1/Task_Codes/t_as1_task3.sol\":645:749  function getProduct(int128 number) public view returns (int128) {... */\n    tag_8:\n      tag_30\n      0x04\n      dup1\n      calldatasize\n      sub\n      dup2\n      add\n      swap1\n      tag_31\n      swap2\n      swap1\n      tag_11\n      jump\t// in\n    tag_31:\n      tag_32\n      jump\t// in\n    tag_30:\n      mload(0x40)\n      tag_33\n      swap2\n      swap1\n      tag_14\n      jump\t// in\n    tag_33:\n      mload(0x40)\n      dup1\n      swap2\n      sub\n      swap1\n      return\n        /* \"contracts/Blockchain_Assignment_1/Task_Codes/t_as1_task3.sol\":463:570  function getDifference(int128 number) public view returns (int128) {... */\n    tag_12:\n        /* \"contracts/Blockchain_Assignment_1/Task_Codes/t_as1_task3.sol\":522:528  int128 */\n      0x00\n        /* \"contracts/Blockchain_Assignment_1/Task_Codes/t_as1_task3.sol\":556:562  number */\n      dup2\n        /* \"contracts/Blockchain_Assignment_1/Task_Codes/t_as1_task3.sol\":548:553  value */\n      0x00\n      dup1\n      sload\n      swap1\n      0x0100\n      exp\n      swap1\n      div\n      0x0f\n      signextend\n        /* \"contracts/Blockchain_Assignment_1/Task_Codes/t_as1_task3.sol\":548:562  value - number */\n      tag_35\n      swap2\n      swap1\n      tag_36\n      jump\t// in\n    tag_35:\n        /* \"contracts/Blockchain_Assignment_1/Task_Codes/t_as1_task3.sol\":541:562  return value - number */\n      swap1\n      pop\n        /* \"contracts/Blockchain_Assignment_1/Task_Codes/t_as1_task3.sol\":463:570  function getDifference(int128 number) public view returns (int128) {... */\n      swap2\n      swap1\n      pop\n      jump\t// out\n        /* \"contracts/Blockchain_Assignment_1/Task_Codes/t_as1_task3.sol\":136:209  function setValue(int128 number) public {... */\n    tag_17:\n        /* \"contracts/Blockchain_Assignment_1/Task_Codes/t_as1_task3.sol\":195:201  number */\n      dup1\n        /* \"contracts/Blockchain_Assignment_1/Task_Codes/t_as1_task3.sol\":187:192  value */\n      0x00\n      dup1\n        /* \"contracts/Blockchain_Assignment_1/Task_Codes/t_as1_task3.sol\":187:201  value = number */\n      0x0100\n      exp\n      dup2\n      sload\n      dup2\n      0xffffffffffffffffffffffffffffffff\n      mul\n      not\n      and\n      swap1\n      dup4\n      0x0f\n      signextend\n      0xffffffffffffffffffffffffffffffff\n      and\n      mul\n      or\n      swap1\n      sstore\n      pop\n        /* \"contracts/Blockchain_Assignment_1/Task_Codes/t_as1_task3.sol\":136:209  function setValue(int128 number) public {... */\n      pop\n      jump\t// out\n        /* \"contracts/Blockchain_Assignment_1/Task_Codes/t_as1_task3.sol\":280:380  function getSum(int128 number) public view returns (int128) {... */\n    tag_20:\n        /* \"contracts/Blockchain_Assignment_1/Task_Codes/t_as1_task3.sol\":332:338  int128 */\n      0x00\n        /* \"contracts/Blockchain_Assignment_1/Task_Codes/t_as1_task3.sol\":366:372  number */\n      dup2\n        /* \"contracts/Blockchain_Assignment_1/Task_Codes/t_as1_task3.sol\":358:363  value */\n      0x00\n      dup1\n      sload\n      swap1\n      0x0100\n      exp\n      swap1\n      div\n      0x0f\n      signextend\n        /* \"contracts/Blockchain_Assignment_1/Task_Codes/t_as1_task3.sol\":358:372  value + number */\n      tag_39\n      swap2\n      swap1\n      tag_40\n      jump\t// in\n    tag_39:\n        /* \"contracts/Blockchain_Assignment_1/Task_Codes/t_as1_task3.sol\":351:372  return value + number */\n      swap1\n      pop\n        /* \"contracts/Blockchain_Assignment_1/Task_Codes/t_as1_task3.sol\":280:380  function getSum(int128 number) public view returns (int128) {... */\n      swap2\n      swap1\n      pop\n      jump\t// out\n        /* \"contracts/Blockchain_Assignment_1/Task_Codes/t_as1_task3.sol\":1087:1259  function getRemainder(int128 number) public view returns (int128) {... */\n    tag_24:\n        /* \"contracts/Blockchain_Assignment_1/Task_Codes/t_as1_task3.sol\":1145:1151  int128 */\n      0x00\n        /* \"contracts/Blockchain_Assignment_1/Task_Codes/t_as1_task3.sol\":1182:1183  0 */\n      dup1\n        /* \"contracts/Blockchain_Assignment_1/Task_Codes/t_as1_task3.sol\":1172:1178  number */\n      dup3\n        /* \"contracts/Blockchain_Assignment_1/Task_Codes/t_as1_task3.sol\":1172:1183  number != 0 */\n      0x0f\n      signextend\n      sub\n        /* \"contracts/Blockchain_Assignment_1/Task_Codes/t_as1_task3.sol\":1164:1219  require(number != 0, \"Division by zero is not allowed\") */\n      tag_42\n      jumpi\n      mload(0x40)\n      0x08c379a000000000000000000000000000000000000000000000000000000000\n      dup2\n      mstore\n      0x04\n      add\n      tag_43\n      swap1\n      tag_44\n      jump\t// in\n    tag_43:\n      mload(0x40)\n      dup1\n      swap2\n      sub\n      swap1\n      revert\n    tag_42:\n        /* \"contracts/Blockchain_Assignment_1/Task_Codes/t_as1_task3.sol\":1245:1251  number */\n      dup2\n        /* \"contracts/Blockchain_Assignment_1/Task_Codes/t_as1_task3.sol\":1237:1242  value */\n      0x00\n      dup1\n      sload\n      swap1\n      0x0100\n      exp\n      swap1\n      div\n      0x0f\n      signextend\n        /* \"contracts/Blockchain_Assignment_1/Task_Codes/t_as1_task3.sol\":1237:1251  value % number */\n      tag_45\n      swap2\n      swap1\n      tag_46\n      jump\t// in\n    tag_45:\n        /* \"contracts/Blockchain_Assignment_1/Task_Codes/t_as1_task3.sol\":1230:1251  return value % number */\n      swap1\n      pop\n        /* \"contracts/Blockchain_Assignment_1/Task_Codes/t_as1_task3.sol\":1087:1259  function getRemainder(int128 number) public view returns (int128) {... */\n      swap2\n      swap1\n      pop\n      jump\t// out\n        /* \"contracts/Blockchain_Assignment_1/Task_Codes/t_as1_task3.sol\":831:1002  function getQuotient(int128 number) public view returns (int128) {... */\n    tag_28:\n        /* \"contracts/Blockchain_Assignment_1/Task_Codes/t_as1_task3.sol\":888:894  int128 */\n      0x00\n        /* \"contracts/Blockchain_Assignment_1/Task_Codes/t_as1_task3.sol\":925:926  0 */\n      dup1\n        /* \"contracts/Blockchain_Assignment_1/Task_Codes/t_as1_task3.sol\":915:921  number */\n      dup3\n        /* \"contracts/Blockchain_Assignment_1/Task_Codes/t_as1_task3.sol\":915:926  number != 0 */\n      0x0f\n      signextend\n      sub\n        /* \"contracts/Blockchain_Assignment_1/Task_Codes/t_as1_task3.sol\":907:962  require(number != 0, \"Division by zero is not allowed\") */\n      tag_48\n      jumpi\n      mload(0x40)\n      0x08c379a000000000000000000000000000000000000000000000000000000000\n      dup2\n      mstore\n      0x04\n      add\n      tag_49\n      swap1\n      tag_44\n      jump\t// in\n    tag_49:\n      mload(0x40)\n      dup1\n      swap2\n      sub\n      swap1\n      revert\n    tag_48:\n        /* \"contracts/Blockchain_Assignment_1/Task_Codes/t_as1_task3.sol\":988:994  number */\n      dup2\n        /* \"contracts/Blockchain_Assignment_1/Task_Codes/t_as1_task3.sol\":980:985  value */\n      0x00\n      dup1\n      sload\n      swap1\n      0x0100\n      exp\n      swap1\n      div\n      0x0f\n      signextend\n        /* \"contracts/Blockchain_Assignment_1/Task_Codes/t_as1_task3.sol\":980:994  value / number */\n      tag_50\n      swap2\n      swap1\n      tag_51\n      jump\t// in\n    tag_50:\n        /* \"contracts/Blockchain_Assignment_1/Task_Codes/t_as1_task3.sol\":973:994  return value / number */\n      swap1\n      pop\n        /* \"contracts/Blockchain_Assignment_1/Task_Codes/t_as1_task3.sol\":831:1002  function getQuotient(int128 number) public view returns (int128) {... */\n      swap2\n      swap1\n      pop\n      jump\t// out\n        /* \"contracts/Blockchain_Assignment_1/Task_Codes/t_as1_task3.sol\":645:749  function getProduct(int128 number) public view returns (int128) {... */\n    tag_32:\n        /* \"contracts/Blockchain_Assignment_1/Task_Codes/t_as1_task3.sol\":701:707  int128 */\n      0x00\n        /* \"contracts/Blockchain_Assignment_1/Task_Codes/t_as1_task3.sol\":735:741  number */\n      dup2\n        /* \"contracts/Blockchain_Assignment_1/Task_Codes/t_as1_task3.sol\":727:732  value */\n      0x00\n      dup1\n      sload\n      swap1\n      0x0100\n      exp\n      swap1\n      div\n      0x0f\n      signextend\n        /* \"contracts/Blockchain_Assignment_1/Task_Codes/t_as1_task3.sol\":727:741  value * number */\n      tag_53\n      swap2\n      swap1\n      tag_54\n      jump\t// in\n    tag_53:\n        /* \"contracts/Blockchain_Assignment_1/Task_Codes/t_as1_task3.sol\":720:741  return value * number */\n      swap1\n      pop\n        /* \"contracts/Blockchain_Assignment_1/Task_Codes/t_as1_task3.sol\":645:749  function getProduct(int128 number) public view returns (int128) {... */\n      swap2\n      swap1\n      pop\n      jump\t// out\n        /* \"#utility.yul\":88:205   */\n    tag_56:\n        /* \"#utility.yul\":197:198   */\n      0x00\n        /* \"#utility.yul\":194:195   */\n      dup1\n        /* \"#utility.yul\":187:199   */\n      revert\n        /* \"#utility.yul\":334:426   */\n    tag_58:\n        /* \"#utility.yul\":370:377   */\n      0x00\n        /* \"#utility.yul\":414:419   */\n      dup2\n        /* \"#utility.yul\":410:412   */\n      0x0f\n        /* \"#utility.yul\":399:420   */\n      signextend\n        /* \"#utility.yul\":388:420   */\n      swap1\n      pop\n        /* \"#utility.yul\":334:426   */\n      swap2\n      swap1\n      pop\n      jump\t// out\n        /* \"#utility.yul\":432:552   */\n    tag_59:\n        /* \"#utility.yul\":504:527   */\n      tag_73\n        /* \"#utility.yul\":521:526   */\n      dup2\n        /* \"#utility.yul\":504:527   */\n      tag_58\n      jump\t// in\n    tag_73:\n        /* \"#utility.yul\":497:502   */\n      dup2\n        /* \"#utility.yul\":494:528   */\n      eq\n        /* \"#utility.yul\":484:546   */\n      tag_74\n      jumpi\n        /* \"#utility.yul\":542:543   */\n      0x00\n        /* \"#utility.yul\":539:540   */\n      dup1\n        /* \"#utility.yul\":532:544   */\n      revert\n        /* \"#utility.yul\":484:546   */\n    tag_74:\n        /* \"#utility.yul\":432:552   */\n      pop\n      jump\t// out\n        /* \"#utility.yul\":558:695   */\n    tag_60:\n        /* \"#utility.yul\":603:608   */\n      0x00\n        /* \"#utility.yul\":641:647   */\n      dup2\n        /* \"#utility.yul\":628:648   */\n      calldataload\n        /* \"#utility.yul\":619:648   */\n      swap1\n      pop\n        /* \"#utility.yul\":657:689   */\n      tag_76\n        /* \"#utility.yul\":683:688   */\n      dup2\n        /* \"#utility.yul\":657:689   */\n      tag_59\n      jump\t// in\n    tag_76:\n        /* \"#utility.yul\":558:695   */\n      swap3\n      swap2\n      pop\n      pop\n      jump\t// out\n        /* \"#utility.yul\":701:1028   */\n    tag_11:\n        /* \"#utility.yul\":759:765   */\n      0x00\n        /* \"#utility.yul\":808:810   */\n      0x20\n        /* \"#utility.yul\":796:805   */\n      dup3\n        /* \"#utility.yul\":787:794   */\n      dup5\n        /* \"#utility.yul\":783:806   */\n      sub\n        /* \"#utility.yul\":779:811   */\n      slt\n        /* \"#utility.yul\":776:895   */\n      iszero\n      tag_78\n      jumpi\n        /* \"#utility.yul\":814:893   */\n      tag_79\n      tag_56\n      jump\t// in\n    tag_79:\n        /* \"#utility.yul\":776:895   */\n    tag_78:\n        /* \"#utility.yul\":934:935   */\n      0x00\n        /* \"#utility.yul\":959:1011   */\n      tag_80\n        /* \"#utility.yul\":1003:1010   */\n      dup5\n        /* \"#utility.yul\":994:1000   */\n      dup3\n        /* \"#utility.yul\":983:992   */\n      dup6\n        /* \"#utility.yul\":979:1001   */\n      add\n        /* \"#utility.yul\":959:1011   */\n      tag_60\n      jump\t// in\n    tag_80:\n        /* \"#utility.yul\":949:1011   */\n      swap2\n      pop\n        /* \"#utility.yul\":905:1021   */\n      pop\n        /* \"#utility.yul\":701:1028   */\n      swap3\n      swap2\n      pop\n      pop\n      jump\t// out\n        /* \"#utility.yul\":1034:1149   */\n    tag_61:\n        /* \"#utility.yul\":1119:1142   */\n      tag_82\n        /* \"#utility.yul\":1136:1141   */\n      dup2\n        /* \"#utility.yul\":1119:1142   */\n      tag_58\n      jump\t// in\n    tag_82:\n        /* \"#utility.yul\":1114:1117   */\n      dup3\n        /* \"#utility.yul\":1107:1143   */\n      mstore\n        /* \"#utility.yul\":1034:1149   */\n      pop\n      pop\n      jump\t// out\n        /* \"#utility.yul\":1155:1373   */\n    tag_14:\n        /* \"#utility.yul\":1246:1250   */\n      0x00\n        /* \"#utility.yul\":1284:1286   */\n      0x20\n        /* \"#utility.yul\":1273:1282   */\n      dup3\n        /* \"#utility.yul\":1269:1287   */\n      add\n        /* \"#utility.yul\":1261:1287   */\n      swap1\n      pop\n        /* \"#utility.yul\":1297:1366   */\n      tag_84\n        /* \"#utility.yul\":1363:1364   */\n      0x00\n        /* \"#utility.yul\":1352:1361   */\n      dup4\n        /* \"#utility.yul\":1348:1365   */\n      add\n        /* \"#utility.yul\":1339:1345   */\n      dup5\n        /* \"#utility.yul\":1297:1366   */\n      tag_61\n      jump\t// in\n    tag_84:\n        /* \"#utility.yul\":1155:1373   */\n      swap3\n      swap2\n      pop\n      pop\n      jump\t// out\n        /* \"#utility.yul\":1379:1559   */\n    tag_62:\n        /* \"#utility.yul\":1427:1504   */\n      0x4e487b7100000000000000000000000000000000000000000000000000000000\n        /* \"#utility.yul\":1424:1425   */\n      0x00\n        /* \"#utility.yul\":1417:1505   */\n      mstore\n        /* \"#utility.yul\":1524:1528   */\n      0x11\n        /* \"#utility.yul\":1521:1522   */\n      0x04\n        /* \"#utility.yul\":1514:1529   */\n      mstore\n        /* \"#utility.yul\":1548:1552   */\n      0x24\n        /* \"#utility.yul\":1545:1546   */\n      0x00\n        /* \"#utility.yul\":1538:1553   */\n      revert\n        /* \"#utility.yul\":1565:1907   */\n    tag_36:\n        /* \"#utility.yul\":1604:1608   */\n      0x00\n        /* \"#utility.yul\":1624:1643   */\n      tag_87\n        /* \"#utility.yul\":1641:1642   */\n      dup3\n        /* \"#utility.yul\":1624:1643   */\n      tag_58\n      jump\t// in\n    tag_87:\n        /* \"#utility.yul\":1619:1643   */\n      swap2\n      pop\n        /* \"#utility.yul\":1657:1676   */\n      tag_88\n        /* \"#utility.yul\":1674:1675   */\n      dup4\n        /* \"#utility.yul\":1657:1676   */\n      tag_58\n      jump\t// in\n    tag_88:\n        /* \"#utility.yul\":1652:1676   */\n      swap3\n      pop\n        /* \"#utility.yul\":1700:1701   */\n      dup3\n        /* \"#utility.yul\":1697:1698   */\n      dup3\n        /* \"#utility.yul\":1693:1702   */\n      sub\n        /* \"#utility.yul\":1685:1702   */\n      swap1\n      pop\n        /* \"#utility.yul\":1832:1866   */\n      0x7fffffffffffffffffffffffffffffff\n        /* \"#utility.yul\":1826:1830   */\n      dup2\n        /* \"#utility.yul\":1822:1867   */\n      sgt\n        /* \"#utility.yul\":1741:1807   */\n      0xffffffffffffffffffffffffffffffff80000000000000000000000000000000\n        /* \"#utility.yul\":1735:1739   */\n      dup3\n        /* \"#utility.yul\":1731:1808   */\n      slt\n        /* \"#utility.yul\":1715:1877   */\n      or\n        /* \"#utility.yul\":1712:1900   */\n      iszero\n      tag_89\n      jumpi\n        /* \"#utility.yul\":1880:1898   */\n      tag_90\n      tag_62\n      jump\t// in\n    tag_90:\n        /* \"#utility.yul\":1712:1900   */\n    tag_89:\n        /* \"#utility.yul\":1565:1907   */\n      swap3\n      swap2\n      pop\n      pop\n      jump\t// out\n        /* \"#utility.yul\":1913:2251   */\n    tag_40:\n        /* \"#utility.yul\":1952:1955   */\n      0x00\n        /* \"#utility.yul\":1971:1990   */\n      tag_92\n        /* \"#utility.yul\":1988:1989   */\n      dup3\n        /* \"#utility.yul\":1971:1990   */\n      tag_58\n      jump\t// in\n    tag_92:\n        /* \"#utility.yul\":1966:1990   */\n      swap2\n      pop\n        /* \"#utility.yul\":2004:2023   */\n      tag_93\n        /* \"#utility.yul\":2021:2022   */\n      dup4\n        /* \"#utility.yul\":2004:2023   */\n      tag_58\n      jump\t// in\n    tag_93:\n        /* \"#utility.yul\":1999:2023   */\n      swap3\n      pop\n        /* \"#utility.yul\":2046:2047   */\n      dup3\n        /* \"#utility.yul\":2043:2044   */\n      dup3\n        /* \"#utility.yul\":2039:2048   */\n      add\n        /* \"#utility.yul\":2032:2048   */\n      swap1\n      pop\n        /* \"#utility.yul\":2144:2210   */\n      0xffffffffffffffffffffffffffffffff80000000000000000000000000000000\n        /* \"#utility.yul\":2139:2142   */\n      dup2\n        /* \"#utility.yul\":2135:2211   */\n      slt\n        /* \"#utility.yul\":2086:2120   */\n      0x7fffffffffffffffffffffffffffffff\n        /* \"#utility.yul\":2081:2084   */\n      dup3\n        /* \"#utility.yul\":2077:2121   */\n      sgt\n        /* \"#utility.yul\":2061:2221   */\n      or\n        /* \"#utility.yul\":2058:2244   */\n      iszero\n      tag_94\n      jumpi\n        /* \"#utility.yul\":2224:2242   */\n      tag_95\n      tag_62\n      jump\t// in\n    tag_95:\n        /* \"#utility.yul\":2058:2244   */\n    tag_94:\n        /* \"#utility.yul\":1913:2251   */\n      swap3\n      swap2\n      pop\n      pop\n      jump\t// out\n        /* \"#utility.yul\":2257:2426   */\n    tag_63:\n        /* \"#utility.yul\":2341:2352   */\n      0x00\n        /* \"#utility.yul\":2375:2381   */\n      dup3\n        /* \"#utility.yul\":2370:2373   */\n      dup3\n        /* \"#utility.yul\":2363:2382   */\n      mstore\n        /* \"#utility.yul\":2415:2419   */\n      0x20\n        /* \"#utility.yul\":2410:2413   */\n      dup3\n        /* \"#utility.yul\":2406:2420   */\n      add\n        /* \"#utility.yul\":2391:2420   */\n      swap1\n      pop\n        /* \"#utility.yul\":2257:2426   */\n      swap3\n      swap2\n      pop\n      pop\n      jump\t// out\n        /* \"#utility.yul\":2432:2613   */\n    tag_64:\n        /* \"#utility.yul\":2572:2605   */\n      0x4469766973696f6e206279207a65726f206973206e6f7420616c6c6f77656400\n        /* \"#utility.yul\":2568:2569   */\n      0x00\n        /* \"#utility.yul\":2560:2566   */\n      dup3\n        /* \"#utility.yul\":2556:2570   */\n      add\n        /* \"#utility.yul\":2549:2606   */\n      mstore\n        /* \"#utility.yul\":2432:2613   */\n      pop\n      jump\t// out\n        /* \"#utility.yul\":2619:2985   */\n    tag_65:\n        /* \"#utility.yul\":2761:2764   */\n      0x00\n        /* \"#utility.yul\":2782:2849   */\n      tag_99\n        /* \"#utility.yul\":2846:2848   */\n      0x1f\n        /* \"#utility.yul\":2841:2844   */\n      dup4\n        /* \"#utility.yul\":2782:2849   */\n      tag_63\n      jump\t// in\n    tag_99:\n        /* \"#utility.yul\":2775:2849   */\n      swap2\n      pop\n        /* \"#utility.yul\":2858:2951   */\n      tag_100\n        /* \"#utility.yul\":2947:2950   */\n      dup3\n        /* \"#utility.yul\":2858:2951   */\n      tag_64\n      jump\t// in\n    tag_100:\n        /* \"#utility.yul\":2976:2978   */\n      0x20\n        /* \"#utility.yul\":2971:2974   */\n      dup3\n        /* \"#utility.yul\":2967:2979   */\n      add\n        /* \"#utility.yul\":2960:2979   */\n      swap1\n      pop\n        /* \"#utility.yul\":2619:2985   */\n      swap2\n      swap1\n      pop\n      jump\t// out\n        /* \"#utility.yul\":2991:3410   */\n    tag_44:\n        /* \"#utility.yul\":3157:3161   */\n      0x00\n        /* \"#utility.yul\":3195:3197   */\n      0x20\n        /* \"#utility.yul\":3184:3193   */\n      dup3\n        /* \"#utility.yul\":3180:3198   */\n      add\n        /* \"#utility.yul\":3172:3198   */\n      swap1\n      pop\n        /* \"#utility.yul\":3244:3253   */\n      dup2\n        /* \"#utility.yul\":3238:3242   */\n      dup2\n        /* \"#utility.yul\":3234:3254   */\n      sub\n        /* \"#utility.yul\":3230:3231   */\n      0x00\n        /* \"#utility.yul\":3219:3228   */\n      dup4\n        /* \"#utility.yul\":3215:3232   */\n      add\n        /* \"#utility.yul\":3208:3255   */\n      mstore\n        /* \"#utility.yul\":3272:3403   */\n      tag_102\n        /* \"#utility.yul\":3398:3402   */\n      dup2\n        /* \"#utility.yul\":3272:3403   */\n      tag_65\n      jump\t// in\n    tag_102:\n        /* \"#utility.yul\":3264:3403   */\n      swap1\n      pop\n        /* \"#utility.yul\":2991:3410   */\n      swap2\n      swap1\n      pop\n      jump\t// out\n        /* \"#utility.yul\":3416:3596   */\n    tag_66:\n        /* \"#utility.yul\":3464:3541   */\n      0x4e487b7100000000000000000000000000000000000000000000000000000000\n        /* \"#utility.yul\":3461:3462   */\n      0x00\n        /* \"#utility.yul\":3454:3542   */\n      mstore\n        /* \"#utility.yul\":3561:3565   */\n      0x12\n        /* \"#utility.yul\":3558:3559   */\n      0x04\n        /* \"#utility.yul\":3551:3566   */\n      mstore\n        /* \"#utility.yul\":3585:3589   */\n      0x24\n        /* \"#utility.yul\":3582:3583   */\n      0x00\n        /* \"#utility.yul\":3575:3590   */\n      revert\n        /* \"#utility.yul\":3602:3776   */\n    tag_46:\n        /* \"#utility.yul\":3633:3634   */\n      0x00\n        /* \"#utility.yul\":3650:3669   */\n      tag_105\n        /* \"#utility.yul\":3667:3668   */\n      dup3\n        /* \"#utility.yul\":3650:3669   */\n      tag_58\n      jump\t// in\n    tag_105:\n        /* \"#utility.yul\":3645:3669   */\n      swap2\n      pop\n        /* \"#utility.yul\":3683:3702   */\n      tag_106\n        /* \"#utility.yul\":3700:3701   */\n      dup4\n        /* \"#utility.yul\":3683:3702   */\n      tag_58\n      jump\t// in\n    tag_106:\n        /* \"#utility.yul\":3678:3702   */\n      swap3\n      pop\n        /* \"#utility.yul\":3721:3722   */\n      dup3\n        /* \"#utility.yul\":3711:3746   */\n      tag_107\n      jumpi\n        /* \"#utility.yul\":3726:3744   */\n      tag_108\n      tag_66\n      jump\t// in\n    tag_108:\n        /* \"#utility.yul\":3711:3746   */\n    tag_107:\n        /* \"#utility.yul\":3768:3769   */\n      dup3\n        /* \"#utility.yul\":3765:3766   */\n      dup3\n        /* \"#utility.yul\":3760:3770   */\n      smod\n        /* \"#utility.yul\":3755:3770   */\n      swap1\n      pop\n        /* \"#utility.yul\":3602:3776   */\n      swap3\n      swap2\n      pop\n      pop\n      jump\t// out\n        /* \"#utility.yul\":3782:4167   */\n    tag_51:\n        /* \"#utility.yul\":3821:3822   */\n      0x00\n        /* \"#utility.yul\":3838:3857   */\n      tag_110\n        /* \"#utility.yul\":3855:3856   */\n      dup3\n        /* \"#utility.yul\":3838:3857   */\n      tag_58\n      jump\t// in\n    tag_110:\n        /* \"#utility.yul\":3833:3857   */\n      swap2\n      pop\n        /* \"#utility.yul\":3871:3890   */\n      tag_111\n        /* \"#utility.yul\":3888:3889   */\n      dup4\n        /* \"#utility.yul\":3871:3890   */\n      tag_58\n      jump\t// in\n    tag_111:\n        /* \"#utility.yul\":3866:3890   */\n      swap3\n      pop\n        /* \"#utility.yul\":3909:3910   */\n      dup3\n        /* \"#utility.yul\":3899:3934   */\n      tag_112\n      jumpi\n        /* \"#utility.yul\":3914:3932   */\n      tag_113\n      tag_66\n      jump\t// in\n    tag_113:\n        /* \"#utility.yul\":3899:3934   */\n    tag_112:\n        /* \"#utility.yul\":4100:4101   */\n      0x01\n        /* \"#utility.yul\":4097:4098   */\n      0x00\n        /* \"#utility.yul\":4093:4102   */\n      sub\n        /* \"#utility.yul\":4090:4091   */\n      dup4\n        /* \"#utility.yul\":4087:4103   */\n      eq\n        /* \"#utility.yul\":4006:4072   */\n      0xffffffffffffffffffffffffffffffff80000000000000000000000000000000\n        /* \"#utility.yul\":4003:4004   */\n      dup4\n        /* \"#utility.yul\":4000:4073   */\n      eq\n        /* \"#utility.yul\":3983:4113   */\n      and\n        /* \"#utility.yul\":3980:4136   */\n      iszero\n      tag_114\n      jumpi\n        /* \"#utility.yul\":4116:4134   */\n      tag_115\n      tag_62\n      jump\t// in\n    tag_115:\n        /* \"#utility.yul\":3980:4136   */\n    tag_114:\n        /* \"#utility.yul\":4159:4160   */\n      dup3\n        /* \"#utility.yul\":4156:4157   */\n      dup3\n        /* \"#utility.yul\":4151:4161   */\n      sdiv\n        /* \"#utility.yul\":4146:4161   */\n      swap1\n      pop\n        /* \"#utility.yul\":3782:4167   */\n      swap3\n      swap2\n      pop\n      pop\n      jump\t// out\n        /* \"#utility.yul\":4173:4448   */\n    tag_54:\n        /* \"#utility.yul\":4212:4219   */\n      0x00\n        /* \"#utility.yul\":4235:4254   */\n      tag_117\n        /* \"#utility.yul\":4252:4253   */\n      dup3\n        /* \"#utility.yul\":4235:4254   */\n      tag_58\n      jump\t// in\n    tag_117:\n        /* \"#utility.yul\":4230:4254   */\n      swap2\n      pop\n        /* \"#utility.yul\":4268:4287   */\n      tag_118\n        /* \"#utility.yul\":4285:4286   */\n      dup4\n        /* \"#utility.yul\":4268:4287   */\n      tag_58\n      jump\t// in\n    tag_118:\n        /* \"#utility.yul\":4263:4287   */\n      swap3\n      pop\n        /* \"#utility.yul\":4322:4323   */\n      dup3\n        /* \"#utility.yul\":4319:4320   */\n      dup3\n        /* \"#utility.yul\":4315:4324   */\n      mul\n        /* \"#utility.yul\":4344:4373   */\n      tag_119\n        /* \"#utility.yul\":4361:4372   */\n      dup2\n        /* \"#utility.yul\":4344:4373   */\n      tag_58\n      jump\t// in\n    tag_119:\n        /* \"#utility.yul\":4333:4373   */\n      swap2\n      pop\n        /* \"#utility.yul\":4405:4416   */\n      dup1\n        /* \"#utility.yul\":4396:4403   */\n      dup3\n        /* \"#utility.yul\":4393:4417   */\n      eq\n        /* \"#utility.yul\":4383:4441   */\n      tag_120\n      jumpi\n        /* \"#utility.yul\":4421:4439   */\n      tag_121\n      tag_62\n      jump\t// in\n    tag_121:\n        /* \"#utility.yul\":4383:4441   */\n    tag_120:\n        /* \"#utility.yul\":4220:4448   */\n      pop\n        /* \"#utility.yul\":4173:4448   */\n      swap3\n      swap2\n      pop\n      pop\n      jump\t// out\n\n    auxdata: 0xa2646970667358221220f48dff8141f712fbf48d2e11e9caf9468d536a9defb647fc982b0a4e36d7995764736f6c634300081a0033\n}\n",
				"bytecode": {
					"linkReferences": {},
					"object": "6080604052348015600e575f80fd5b5061060e8061001c5f395ff3fe608060405234801561000f575f80fd5b5060043610610060575f3560e01c80632b26039814610064578063319062731461009457806352a98d93146100b05780639036923a146100e0578063bfe17f4014610110578063f75a1d3d14610140575b5f80fd5b61007e60048036038101906100799190610311565b610170565b60405161008b919061034b565b60405180910390f35b6100ae60048036038101906100a99190610311565b610190565b005b6100ca60048036038101906100c59190610311565b6101cd565b6040516100d7919061034b565b60405180910390f35b6100fa60048036038101906100f59190610311565b6101ed565b604051610107919061034b565b60405180910390f35b61012a60048036038101906101259190610311565b610252565b604051610137919061034b565b60405180910390f35b61015a60048036038101906101559190610311565b6102b7565b604051610167919061034b565b60405180910390f35b5f815f8054906101000a9004600f0b6101899190610391565b9050919050565b805f806101000a8154816fffffffffffffffffffffffffffffffff0219169083600f0b6fffffffffffffffffffffffffffffffff16021790555050565b5f815f8054906101000a9004600f0b6101e691906103f8565b9050919050565b5f8082600f0b03610233576040517f08c379a000000000000000000000000000000000000000000000000000000000815260040161022a906104b9565b60405180910390fd5b815f8054906101000a9004600f0b61024b9190610504565b9050919050565b5f8082600f0b03610298576040517f08c379a000000000000000000000000000000000000000000000000000000000815260040161028f906104b9565b60405180910390fd5b815f8054906101000a9004600f0b6102b09190610534565b9050919050565b5f815f8054906101000a9004600f0b6102d0919061059c565b9050919050565b5f80fd5b5f81600f0b9050919050565b6102f0816102db565b81146102fa575f80fd5b50565b5f8135905061030b816102e7565b92915050565b5f60208284031215610326576103256102d7565b5b5f610333848285016102fd565b91505092915050565b610345816102db565b82525050565b5f60208201905061035e5f83018461033c565b92915050565b7f4e487b71000000000000000000000000000000000000000000000000000000005f52601160045260245ffd5b5f61039b826102db565b91506103a6836102db565b925082820390506f7fffffffffffffffffffffffffffffff81137fffffffffffffffffffffffffffffffff80000000000000000000000000000000821217156103f2576103f1610364565b5b92915050565b5f610402826102db565b915061040d836102db565b925082820190507fffffffffffffffffffffffffffffffff8000000000000000000000000000000081126f7fffffffffffffffffffffffffffffff8213171561045957610458610364565b5b92915050565b5f82825260208201905092915050565b7f4469766973696f6e206279207a65726f206973206e6f7420616c6c6f776564005f82015250565b5f6104a3601f8361045f565b91506104ae8261046f565b602082019050919050565b5f6020820190508181035f8301526104d081610497565b9050919050565b7f4e487b71000000000000000000000000000000000000000000000000000000005f52601260045260245ffd5b5f61050e826102db565b9150610519836102db565b925082610529576105286104d7565b5b828207905092915050565b5f61053e826102db565b9150610549836102db565b925082610559576105586104d7565b5b60015f0383147fffffffffffffffffffffffffffffffff800000000000000000000000000000008314161561059157610590610364565b5b828205905092915050565b5f6105a6826102db565b91506105b1836102db565b92508282026105bf816102db565b91508082146105d1576105d0610364565b5b509291505056fea2646970667358221220f48dff8141f712fbf48d2e11e9caf9468d536a9defb647fc982b0a4e36d7995764736f6c634300081a0033",
					"opcodes": "PUSH1 0x80 PUSH1 0x40 MSTORE CALLVALUE DUP1 ISZERO PUSH1 0xE JUMPI PUSH0 DUP1 REVERT JUMPDEST POP PUSH2 0x60E DUP1 PUSH2 0x1C PUSH0 CODECOPY PUSH0 RETURN INVALID PUSH1 0x80 PUSH1 0x40 MSTORE CALLVALUE DUP1 ISZERO PUSH2 0xF JUMPI PUSH0 DUP1 REVERT JUMPDEST POP PUSH1 0x4 CALLDATASIZE LT PUSH2 0x60 JUMPI PUSH0 CALLDATALOAD PUSH1 0xE0 SHR DUP1 PUSH4 0x2B260398 EQ PUSH2 0x64 JUMPI DUP1 PUSH4 0x31906273 EQ PUSH2 0x94 JUMPI DUP1 PUSH4 0x52A98D93 EQ PUSH2 0xB0 JUMPI DUP1 PUSH4 0x9036923A EQ PUSH2 0xE0 JUMPI DUP1 PUSH4 0xBFE17F40 EQ PUSH2 0x110 JUMPI DUP1 PUSH4 0xF75A1D3D EQ PUSH2 0x140 JUMPI JUMPDEST PUSH0 DUP1 REVERT JUMPDEST PUSH2 0x7E PUSH1 0x4 DUP1 CALLDATASIZE SUB DUP2 ADD SWAP1 PUSH2 0x79 SWAP2 SWAP1 PUSH2 0x311 JUMP JUMPDEST PUSH2 0x170 JUMP JUMPDEST PUSH1 0x40 MLOAD PUSH2 0x8B SWAP2 SWAP1 PUSH2 0x34B JUMP JUMPDEST PUSH1 0x40 MLOAD DUP1 SWAP2 SUB SWAP1 RETURN JUMPDEST PUSH2 0xAE PUSH1 0x4 DUP1 CALLDATASIZE SUB DUP2 ADD SWAP1 PUSH2 0xA9 SWAP2 SWAP1 PUSH2 0x311 JUMP JUMPDEST PUSH2 0x190 JUMP JUMPDEST STOP JUMPDEST PUSH2 0xCA PUSH1 0x4 DUP1 CALLDATASIZE SUB DUP2 ADD SWAP1 PUSH2 0xC5 SWAP2 SWAP1 PUSH2 0x311 JUMP JUMPDEST PUSH2 0x1CD JUMP JUMPDEST PUSH1 0x40 MLOAD PUSH2 0xD7 SWAP2 SWAP1 PUSH2 0x34B JUMP JUMPDEST PUSH1 0x40 MLOAD DUP1 SWAP2 SUB SWAP1 RETURN JUMPDEST PUSH2 0xFA PUSH1 0x4 DUP1 CALLDATASIZE SUB DUP2 ADD SWAP1 PUSH2 0xF5 SWAP2 SWAP1 PUSH2 0x311 JUMP JUMPDEST PUSH2 0x1ED JUMP JUMPDEST PUSH1 0x40 MLOAD PUSH2 0x107 SWAP2 SWAP1 PUSH2 0x34B JUMP JUMPDEST PUSH1 0x40 MLOAD DUP1 SWAP2 SUB SWAP1 RETURN JUMPDEST PUSH2 0x12A PUSH1 0x4 DUP1 CALLDATASIZE SUB DUP2 ADD SWAP1 PUSH2 0x125 SWAP2 SWAP1 PUSH2 0x311 JUMP JUMPDEST PUSH2 0x252 JUMP JUMPDEST PUSH1 0x40 MLOAD PUSH2 0x137 SWAP2 SWAP1 PUSH2 0x34B JUMP JUMPDEST PUSH1 0x40 MLOAD DUP1 SWAP2 SUB SWAP1 RETURN JUMPDEST PUSH2 0x15A PUSH1 0x4 DUP1 CALLDATASIZE SUB DUP2 ADD SWAP1 PUSH2 0x155 SWAP2 SWAP1 PUSH2 0x311 JUMP JUMPDEST PUSH2 0x2B7 JUMP JUMPDEST PUSH1 0x40 MLOAD PUSH2 0x167 SWAP2 SWAP1 PUSH2 0x34B JUMP JUMPDEST PUSH1 0x40 MLOAD DUP1 SWAP2 SUB SWAP1 RETURN JUMPDEST PUSH0 DUP2 PUSH0 DUP1 SLOAD SWAP1 PUSH2 0x100 EXP SWAP1 DIV PUSH1 0xF SIGNEXTEND PUSH2 0x189 SWAP2 SWAP1 PUSH2 0x391 JUMP JUMPDEST SWAP1 POP SWAP2 SWAP1 POP JUMP JUMPDEST DUP1 PUSH0 DUP1 PUSH2 0x100 EXP DUP2 SLOAD DUP2 PUSH16 0xFFFFFFFFFFFFFFFFFFFFFFFFFFFFFFFF MUL NOT AND SWAP1 DUP4 PUSH1 0xF SIGNEXTEND PUSH16 0xFFFFFFFFFFFFFFFFFFFFFFFFFFFFFFFF AND MUL OR SWAP1 SSTORE POP POP JUMP JUMPDEST PUSH0 DUP2 PUSH0 DUP1 SLOAD SWAP1 PUSH2 0x100 EXP SWAP1 DIV PUSH1 0xF SIGNEXTEND PUSH2 0x1E6 SWAP2 SWAP1 PUSH2 0x3F8 JUMP JUMPDEST SWAP1 POP SWAP2 SWAP1 POP JUMP JUMPDEST PUSH0 DUP1 DUP3 PUSH1 0xF SIGNEXTEND SUB PUSH2 0x233 JUMPI PUSH1 0x40 MLOAD PUSH32 0x8C379A000000000000000000000000000000000000000000000000000000000 DUP2 MSTORE PUSH1 0x4 ADD PUSH2 0x22A SWAP1 PUSH2 0x4B9 JUMP JUMPDEST PUSH1 0x40 MLOAD DUP1 SWAP2 SUB SWAP1 REVERT JUMPDEST DUP2 PUSH0 DUP1 SLOAD SWAP1 PUSH2 0x100 EXP SWAP1 DIV PUSH1 0xF SIGNEXTEND PUSH2 0x24B SWAP2 SWAP1 PUSH2 0x504 JUMP JUMPDEST SWAP1 POP SWAP2 SWAP1 POP JUMP JUMPDEST PUSH0 DUP1 DUP3 PUSH1 0xF SIGNEXTEND SUB PUSH2 0x298 JUMPI PUSH1 0x40 MLOAD PUSH32 0x8C379A000000000000000000000000000000000000000000000000000000000 DUP2 MSTORE PUSH1 0x4 ADD PUSH2 0x28F SWAP1 PUSH2 0x4B9 JUMP JUMPDEST PUSH1 0x40 MLOAD DUP1 SWAP2 SUB SWAP1 REVERT JUMPDEST DUP2 PUSH0 DUP1 SLOAD SWAP1 PUSH2 0x100 EXP SWAP1 DIV PUSH1 0xF SIGNEXTEND PUSH2 0x2B0 SWAP2 SWAP1 PUSH2 0x534 JUMP JUMPDEST SWAP1 POP SWAP2 SWAP1 POP JUMP JUMPDEST PUSH0 DUP2 PUSH0 DUP1 SLOAD SWAP1 PUSH2 0x100 EXP SWAP1 DIV PUSH1 0xF SIGNEXTEND PUSH2 0x2D0 SWAP2 SWAP1 PUSH2 0x59C JUMP JUMPDEST SWAP1 POP SWAP2 SWAP1 POP JUMP JUMPDEST PUSH0 DUP1 REVERT JUMPDEST PUSH0 DUP2 PUSH1 0xF SIGNEXTEND SWAP1 POP SWAP2 SWAP1 POP JUMP JUMPDEST PUSH2 0x2F0 DUP2 PUSH2 0x2DB JUMP JUMPDEST DUP2 EQ PUSH2 0x2FA JUMPI PUSH0 DUP1 REVERT JUMPDEST POP JUMP JUMPDEST PUSH0 DUP2 CALLDATALOAD SWAP1 POP PUSH2 0x30B DUP2 PUSH2 0x2E7 JUMP JUMPDEST SWAP3 SWAP2 POP POP JUMP JUMPDEST PUSH0 PUSH1 0x20 DUP3 DUP5 SUB SLT ISZERO PUSH2 0x326 JUMPI PUSH2 0x325 PUSH2 0x2D7 JUMP JUMPDEST JUMPDEST PUSH0 PUSH2 0x333 DUP5 DUP3 DUP6 ADD PUSH2 0x2FD JUMP JUMPDEST SWAP2 POP POP SWAP3 SWAP2 POP POP JUMP JUMPDEST PUSH2 0x345 DUP2 PUSH2 0x2DB JUMP JUMPDEST DUP3 MSTORE POP POP JUMP JUMPDEST PUSH0 PUSH1 0x20 DUP3 ADD SWAP1 POP PUSH2 0x35E PUSH0 DUP4 ADD DUP5 PUSH2 0x33C JUMP JUMPDEST SWAP3 SWAP2 POP POP JUMP JUMPDEST PUSH32 0x4E487B7100000000000000000000000000000000000000000000000000000000 PUSH0 MSTORE PUSH1 0x11 PUSH1 0x4 MSTORE PUSH1 0x24 PUSH0 REVERT JUMPDEST PUSH0 PUSH2 0x39B DUP3 PUSH2 0x2DB JUMP JUMPDEST SWAP2 POP PUSH2 0x3A6 DUP4 PUSH2 0x2DB JUMP JUMPDEST SWAP3 POP DUP3 DUP3 SUB SWAP1 POP PUSH16 0x7FFFFFFFFFFFFFFFFFFFFFFFFFFFFFFF DUP2 SGT PUSH32 0xFFFFFFFFFFFFFFFFFFFFFFFFFFFFFFFF80000000000000000000000000000000 DUP3 SLT OR ISZERO PUSH2 0x3F2 JUMPI PUSH2 0x3F1 PUSH2 0x364 JUMP JUMPDEST JUMPDEST SWAP3 SWAP2 POP POP JUMP JUMPDEST PUSH0 PUSH2 0x402 DUP3 PUSH2 0x2DB JUMP JUMPDEST SWAP2 POP PUSH2 0x40D DUP4 PUSH2 0x2DB JUMP JUMPDEST SWAP3 POP DUP3 DUP3 ADD SWAP1 POP PUSH32 0xFFFFFFFFFFFFFFFFFFFFFFFFFFFFFFFF80000000000000000000000000000000 DUP2 SLT PUSH16 0x7FFFFFFFFFFFFFFFFFFFFFFFFFFFFFFF DUP3 SGT OR ISZERO PUSH2 0x459 JUMPI PUSH2 0x458 PUSH2 0x364 JUMP JUMPDEST JUMPDEST SWAP3 SWAP2 POP POP JUMP JUMPDEST PUSH0 DUP3 DUP3 MSTORE PUSH1 0x20 DUP3 ADD SWAP1 POP SWAP3 SWAP2 POP POP JUMP JUMPDEST PUSH32 0x4469766973696F6E206279207A65726F206973206E6F7420616C6C6F77656400 PUSH0 DUP3 ADD MSTORE POP JUMP JUMPDEST PUSH0 PUSH2 0x4A3 PUSH1 0x1F DUP4 PUSH2 0x45F JUMP JUMPDEST SWAP2 POP PUSH2 0x4AE DUP3 PUSH2 0x46F JUMP JUMPDEST PUSH1 0x20 DUP3 ADD SWAP1 POP SWAP2 SWAP1 POP JUMP JUMPDEST PUSH0 PUSH1 0x20 DUP3 ADD SWAP1 POP DUP2 DUP2 SUB PUSH0 DUP4 ADD MSTORE PUSH2 0x4D0 DUP2 PUSH2 0x497 JUMP JUMPDEST SWAP1 POP SWAP2 SWAP1 POP JUMP JUMPDEST PUSH32 0x4E487B7100000000000000000000000000000000000000000000000000000000 PUSH0 MSTORE PUSH1 0x12 PUSH1 0x4 MSTORE PUSH1 0x24 PUSH0 REVERT JUMPDEST PUSH0 PUSH2 0x50E DUP3 PUSH2 0x2DB JUMP JUMPDEST SWAP2 POP PUSH2 0x519 DUP4 PUSH2 0x2DB JUMP JUMPDEST SWAP3 POP DUP3 PUSH2 0x529 JUMPI PUSH2 0x528 PUSH2 0x4D7 JUMP JUMPDEST JUMPDEST DUP3 DUP3 SMOD SWAP1 POP SWAP3 SWAP2 POP POP JUMP JUMPDEST PUSH0 PUSH2 0x53E DUP3 PUSH2 0x2DB JUMP JUMPDEST SWAP2 POP PUSH2 0x549 DUP4 PUSH2 0x2DB JUMP JUMPDEST SWAP3 POP DUP3 PUSH2 0x559 JUMPI PUSH2 0x558 PUSH2 0x4D7 JUMP JUMPDEST JUMPDEST PUSH1 0x1 PUSH0 SUB DUP4 EQ PUSH32 0xFFFFFFFFFFFFFFFFFFFFFFFFFFFFFFFF80000000000000000000000000000000 DUP4 EQ AND ISZERO PUSH2 0x591 JUMPI PUSH2 0x590 PUSH2 0x364 JUMP JUMPDEST JUMPDEST DUP3 DUP3 SDIV SWAP1 POP SWAP3 SWAP2 POP POP JUMP JUMPDEST PUSH0 PUSH2 0x5A6 DUP3 PUSH2 0x2DB JUMP JUMPDEST SWAP2 POP PUSH2 0x5B1 DUP4 PUSH2 0x2DB JUMP JUMPDEST SWAP3 POP DUP3 DUP3 MUL PUSH2 0x5BF DUP2 PUSH2 0x2DB JUMP JUMPDEST SWAP2 POP DUP1 DUP3 EQ PUSH2 0x5D1 JUMPI PUSH2 0x5D0 PUSH2 0x364 JUMP JUMPDEST JUMPDEST POP SWAP3 SWAP2 POP POP JUMP INVALID LOG2 PUSH5 0x6970667358 0x22 SLT KECCAK256 DELEGATECALL DUP14 SELFDESTRUCT DUP2 COINBASE 0xF7 SLT 0xFB DELEGATECALL DUP14 0x2E GT 0xE9 0xCA 0xF9 CHAINID DUP14 MSTORE8 PUSH11 0x9DEFB647FC982B0A4E36D7 SWAP10 JUMPI PUSH5 0x736F6C6343 STOP ADDMOD BYTE STOP CALLER "
				},
				"gasEstimates": {
					"creation": {
						"codeDepositCost": "310000",
						"executionCost": "347",
						"totalCost": "310347"
					},
					"external": {
						"getDifference(int128)": "infinite",
						"getProduct(int128)": "infinite",
						"getQuotient(int128)": "infinite",
						"getRemainder(int128)": "infinite",
						"getSum(int128)": "infinite",
						"setValue(int128)": "24683"
					}
				},
				"methodIdentifiers": {
					"getDifference(int128)": "2b260398",
					"getProduct(int128)": "f75a1d3d",
					"getQuotient(int128)": "bfe17f40",
					"getRemainder(int128)": "9036923a",
					"getSum(int128)": "52a98d93",
					"setValue(int128)": "31906273"
				}
			},
			"storageLayout": {
				"storage": [
					{
						"astId": 3,
						"contract": "contracts/Blockchain_Assignment_1/Task_Codes/t_as1_task3.sol:Task3",
						"label": "value",
						"offset": 0,
						"slot": "0",
						"type": "t_int128"
					}
				],
				"types": {
					"t_int128": {
						"encoding": "inplace",
						"label": "int128",
						"numberOfBytes": "16"
					}
				}
			},
			"userdoc": {
				"kind": "user",
				"methods": {},
				"version": 1
			}
		}
	}
}