{
	"contracts/Blockchain_Assignment_2/Task_Codes/as2_task1.sol": {
		"Task1": {
			"abi": [
				{
					"inputs": [],
					"name": "getNumbers",
					"outputs": [
						{
							"internalType": "uint256",
							"name": "",
							"type": "uint256"
						},
						{
							"internalType": "uint256",
							"name": "",
							"type": "uint256"
						}
					],
					"stateMutability": "view",
					"type": "function"
				},
				{
					"inputs": [
						{
							"internalType": "uint256",
							"name": "_number1",
							"type": "uint256"
						},
						{
							"internalType": "uint256",
							"name": "_number2",
							"type": "uint256"
						}
					],
					"name": "getSum",
					"outputs": [
						{
							"internalType": "uint256",
							"name": "",
							"type": "uint256"
						}
					],
					"stateMutability": "pure",
					"type": "function"
				},
				{
					"inputs": [
						{
							"internalType": "uint256",
							"name": "number",
							"type": "uint256"
						}
					],
					"name": "getSum",
					"outputs": [
						{
							"internalType": "uint256",
							"name": "",
							"type": "uint256"
						}
					],
					"stateMutability": "view",
					"type": "function"
				},
				{
					"inputs": [
						{
							"internalType": "uint256",
							"name": "_number1",
							"type": "uint256"
						},
						{
							"internalType": "uint256",
							"name": "_number2",
							"type": "uint256"
						}
					],
					"name": "setNumbers",
					"outputs": [],
					"stateMutability": "nonpayable",
					"type": "function"
				}
			],
			"devdoc": {
				"kind": "dev",
				"methods": {},
				"version": 1
			},
			"evm": {
				"assembly": "    /* \"contracts/Blockchain_Assignment_2/Task_Codes/as2_task1.sol\":28:821  contract Task1 {... */\n  mstore(0x40, 0x80)\n  callvalue\n  dup1\n  iszero\n  tag_1\n  jumpi\n  0x00\n  dup1\n  revert\ntag_1:\n  pop\n  dataSize(sub_0)\n  dup1\n  dataOffset(sub_0)\n  0x00\n  codecopy\n  0x00\n  return\nstop\n\nsub_0: assembly {\n        /* \"contracts/Blockchain_Assignment_2/Task_Codes/as2_task1.sol\":28:821  contract Task1 {... */\n      mstore(0x40, 0x80)\n      callvalue\n      dup1\n      iszero\n      tag_1\n      jumpi\n      0x00\n      dup1\n      revert\n    tag_1:\n      pop\n      jumpi(tag_2, lt(calldatasize, 0x04))\n      shr(0xe0, calldataload(0x00))\n      dup1\n      0x89f915f6\n      eq\n      tag_3\n      jumpi\n      dup1\n      0x8e86b125\n      eq\n      tag_4\n      jumpi\n      dup1\n      0xa378c898\n      eq\n      tag_5\n      jumpi\n      dup1\n      0xe8e0ba01\n      eq\n      tag_6\n      jumpi\n    tag_2:\n      0x00\n      dup1\n      revert\n        /* \"contracts/Blockchain_Assignment_2/Task_Codes/as2_task1.sol\":333:432  function getNumbers() public view returns (uint, uint) {... */\n    tag_3:\n      tag_7\n      tag_8\n      jump\t// in\n    tag_7:\n      mload(0x40)\n      tag_9\n      swap3\n      swap2\n      swap1\n      tag_10\n      jump\t// in\n    tag_9:\n      mload(0x40)\n      dup1\n      swap2\n      sub\n      swap1\n      return\n        /* \"contracts/Blockchain_Assignment_2/Task_Codes/as2_task1.sol\":700:818  function getSum(uint _number1, uint _number2) public pure returns (uint) {... */\n    tag_4:\n      tag_11\n      0x04\n      dup1\n      calldatasize\n      sub\n      dup2\n      add\n      swap1\n      tag_12\n      swap2\n      swap1\n      tag_13\n      jump\t// in\n    tag_12:\n      tag_14\n      jump\t// in\n    tag_11:\n      mload(0x40)\n      tag_15\n      swap2\n      swap1\n      tag_16\n      jump\t// in\n    tag_15:\n      mload(0x40)\n      dup1\n      swap2\n      sub\n      swap1\n      return\n        /* \"contracts/Blockchain_Assignment_2/Task_Codes/as2_task1.sol\":141:264  function setNumbers(uint _number1, uint _number2) public {... */\n    tag_5:\n      tag_17\n      0x04\n      dup1\n      calldatasize\n      sub\n      dup2\n      add\n      swap1\n      tag_18\n      swap2\n      swap1\n      tag_13\n      jump\t// in\n    tag_18:\n      tag_19\n      jump\t// in\n    tag_17:\n      stop\n        /* \"contracts/Blockchain_Assignment_2/Task_Codes/as2_task1.sol\":524:632  function getSum(uint number) public view returns (uint) {... */\n    tag_6:\n      tag_20\n      0x04\n      dup1\n      calldatasize\n      sub\n      dup2\n      add\n      swap1\n      tag_21\n      swap2\n      swap1\n      tag_22\n      jump\t// in\n    tag_21:\n      tag_23\n      jump\t// in\n    tag_20:\n      mload(0x40)\n      tag_24\n      swap2\n      swap1\n      tag_16\n      jump\t// in\n    tag_24:\n      mload(0x40)\n      dup1\n      swap2\n      sub\n      swap1\n      return\n        /* \"contracts/Blockchain_Assignment_2/Task_Codes/as2_task1.sol\":333:432  function getNumbers() public view returns (uint, uint) {... */\n    tag_8:\n        /* \"contracts/Blockchain_Assignment_2/Task_Codes/as2_task1.sol\":376:380  uint */\n      0x00\n        /* \"contracts/Blockchain_Assignment_2/Task_Codes/as2_task1.sol\":382:386  uint */\n      dup1\n        /* \"contracts/Blockchain_Assignment_2/Task_Codes/as2_task1.sol\":407:414  number1 */\n      sload(0x00)\n        /* \"contracts/Blockchain_Assignment_2/Task_Codes/as2_task1.sol\":416:423  number2 */\n      sload(0x01)\n        /* \"contracts/Blockchain_Assignment_2/Task_Codes/as2_task1.sol\":399:424  return (number1, number2) */\n      swap2\n      pop\n      swap2\n      pop\n        /* \"contracts/Blockchain_Assignment_2/Task_Codes/as2_task1.sol\":333:432  function getNumbers() public view returns (uint, uint) {... */\n      swap1\n      swap2\n      jump\t// out\n        /* \"contracts/Blockchain_Assignment_2/Task_Codes/as2_task1.sol\":700:818  function getSum(uint _number1, uint _number2) public pure returns (uint) {... */\n    tag_14:\n        /* \"contracts/Blockchain_Assignment_2/Task_Codes/as2_task1.sol\":767:771  uint */\n      0x00\n        /* \"contracts/Blockchain_Assignment_2/Task_Codes/as2_task1.sol\":802:810  _number2 */\n      dup2\n        /* \"contracts/Blockchain_Assignment_2/Task_Codes/as2_task1.sol\":791:799  _number1 */\n      dup4\n        /* \"contracts/Blockchain_Assignment_2/Task_Codes/as2_task1.sol\":791:810  _number1 + _number2 */\n      tag_27\n      swap2\n      swap1\n      tag_28\n      jump\t// in\n    tag_27:\n        /* \"contracts/Blockchain_Assignment_2/Task_Codes/as2_task1.sol\":784:810  return _number1 + _number2 */\n      swap1\n      pop\n        /* \"contracts/Blockchain_Assignment_2/Task_Codes/as2_task1.sol\":700:818  function getSum(uint _number1, uint _number2) public pure returns (uint) {... */\n      swap3\n      swap2\n      pop\n      pop\n      jump\t// out\n        /* \"contracts/Blockchain_Assignment_2/Task_Codes/as2_task1.sol\":141:264  function setNumbers(uint _number1, uint _number2) public {... */\n    tag_19:\n        /* \"contracts/Blockchain_Assignment_2/Task_Codes/as2_task1.sol\":219:227  _number1 */\n      dup2\n        /* \"contracts/Blockchain_Assignment_2/Task_Codes/as2_task1.sol\":209:216  number1 */\n      0x00\n        /* \"contracts/Blockchain_Assignment_2/Task_Codes/as2_task1.sol\":209:227  number1 = _number1 */\n      dup2\n      swap1\n      sstore\n      pop\n        /* \"contracts/Blockchain_Assignment_2/Task_Codes/as2_task1.sol\":248:256  _number2 */\n      dup1\n        /* \"contracts/Blockchain_Assignment_2/Task_Codes/as2_task1.sol\":238:245  number2 */\n      0x01\n        /* \"contracts/Blockchain_Assignment_2/Task_Codes/as2_task1.sol\":238:256  number2 = _number2 */\n      dup2\n      swap1\n      sstore\n      pop\n        /* \"contracts/Blockchain_Assignment_2/Task_Codes/as2_task1.sol\":141:264  function setNumbers(uint _number1, uint _number2) public {... */\n      pop\n      pop\n      jump\t// out\n        /* \"contracts/Blockchain_Assignment_2/Task_Codes/as2_task1.sol\":524:632  function getSum(uint number) public view returns (uint) {... */\n    tag_23:\n        /* \"contracts/Blockchain_Assignment_2/Task_Codes/as2_task1.sol\":574:578  uint */\n      0x00\n        /* \"contracts/Blockchain_Assignment_2/Task_Codes/as2_task1.sol\":617:624  number2 */\n      sload(0x01)\n        /* \"contracts/Blockchain_Assignment_2/Task_Codes/as2_task1.sol\":607:614  number1 */\n      sload(0x00)\n        /* \"contracts/Blockchain_Assignment_2/Task_Codes/as2_task1.sol\":598:604  number */\n      dup4\n        /* \"contracts/Blockchain_Assignment_2/Task_Codes/as2_task1.sol\":598:614  number + number1 */\n      tag_31\n      swap2\n      swap1\n      tag_28\n      jump\t// in\n    tag_31:\n        /* \"contracts/Blockchain_Assignment_2/Task_Codes/as2_task1.sol\":598:624  number + number1 + number2 */\n      tag_32\n      swap2\n      swap1\n      tag_28\n      jump\t// in\n    tag_32:\n        /* \"contracts/Blockchain_Assignment_2/Task_Codes/as2_task1.sol\":591:624  return number + number1 + number2 */\n      swap1\n      pop\n        /* \"contracts/Blockchain_Assignment_2/Task_Codes/as2_task1.sol\":524:632  function getSum(uint number) public view returns (uint) {... */\n      swap2\n      swap1\n      pop\n      jump\t// out\n        /* \"#utility.yul\":7:84   */\n    tag_33:\n        /* \"#utility.yul\":44:51   */\n      0x00\n        /* \"#utility.yul\":73:78   */\n      dup2\n        /* \"#utility.yul\":62:78   */\n      swap1\n      pop\n        /* \"#utility.yul\":7:84   */\n      swap2\n      swap1\n      pop\n      jump\t// out\n        /* \"#utility.yul\":90:208   */\n    tag_34:\n        /* \"#utility.yul\":177:201   */\n      tag_44\n        /* \"#utility.yul\":195:200   */\n      dup2\n        /* \"#utility.yul\":177:201   */\n      tag_33\n      jump\t// in\n    tag_44:\n        /* \"#utility.yul\":172:175   */\n      dup3\n        /* \"#utility.yul\":165:202   */\n      mstore\n        /* \"#utility.yul\":90:208   */\n      pop\n      pop\n      jump\t// out\n        /* \"#utility.yul\":214:546   */\n    tag_10:\n        /* \"#utility.yul\":335:339   */\n      0x00\n        /* \"#utility.yul\":373:375   */\n      0x40\n        /* \"#utility.yul\":362:371   */\n      dup3\n        /* \"#utility.yul\":358:376   */\n      add\n        /* \"#utility.yul\":350:376   */\n      swap1\n      pop\n        /* \"#utility.yul\":386:457   */\n      tag_46\n        /* \"#utility.yul\":454:455   */\n      0x00\n        /* \"#utility.yul\":443:452   */\n      dup4\n        /* \"#utility.yul\":439:456   */\n      add\n        /* \"#utility.yul\":430:436   */\n      dup6\n        /* \"#utility.yul\":386:457   */\n      tag_34\n      jump\t// in\n    tag_46:\n        /* \"#utility.yul\":467:539   */\n      tag_47\n        /* \"#utility.yul\":535:537   */\n      0x20\n        /* \"#utility.yul\":524:533   */\n      dup4\n        /* \"#utility.yul\":520:538   */\n      add\n        /* \"#utility.yul\":511:517   */\n      dup5\n        /* \"#utility.yul\":467:539   */\n      tag_34\n      jump\t// in\n    tag_47:\n        /* \"#utility.yul\":214:546   */\n      swap4\n      swap3\n      pop\n      pop\n      pop\n      jump\t// out\n        /* \"#utility.yul\":633:750   */\n    tag_36:\n        /* \"#utility.yul\":742:743   */\n      0x00\n        /* \"#utility.yul\":739:740   */\n      dup1\n        /* \"#utility.yul\":732:744   */\n      revert\n        /* \"#utility.yul\":879:1001   */\n    tag_38:\n        /* \"#utility.yul\":952:976   */\n      tag_52\n        /* \"#utility.yul\":970:975   */\n      dup2\n        /* \"#utility.yul\":952:976   */\n      tag_33\n      jump\t// in\n    tag_52:\n        /* \"#utility.yul\":945:950   */\n      dup2\n        /* \"#utility.yul\":942:977   */\n      eq\n        /* \"#utility.yul\":932:995   */\n      tag_53\n      jumpi\n        /* \"#utility.yul\":991:992   */\n      0x00\n        /* \"#utility.yul\":988:989   */\n      dup1\n        /* \"#utility.yul\":981:993   */\n      revert\n        /* \"#utility.yul\":932:995   */\n    tag_53:\n        /* \"#utility.yul\":879:1001   */\n      pop\n      jump\t// out\n        /* \"#utility.yul\":1007:1146   */\n    tag_39:\n        /* \"#utility.yul\":1053:1058   */\n      0x00\n        /* \"#utility.yul\":1091:1097   */\n      dup2\n        /* \"#utility.yul\":1078:1098   */\n      calldataload\n        /* \"#utility.yul\":1069:1098   */\n      swap1\n      pop\n        /* \"#utility.yul\":1107:1140   */\n      tag_55\n        /* \"#utility.yul\":1134:1139   */\n      dup2\n        /* \"#utility.yul\":1107:1140   */\n      tag_38\n      jump\t// in\n    tag_55:\n        /* \"#utility.yul\":1007:1146   */\n      swap3\n      swap2\n      pop\n      pop\n      jump\t// out\n        /* \"#utility.yul\":1152:1626   */\n    tag_13:\n        /* \"#utility.yul\":1220:1226   */\n      0x00\n        /* \"#utility.yul\":1228:1234   */\n      dup1\n        /* \"#utility.yul\":1277:1279   */\n      0x40\n        /* \"#utility.yul\":1265:1274   */\n      dup4\n        /* \"#utility.yul\":1256:1263   */\n      dup6\n        /* \"#utility.yul\":1252:1275   */\n      sub\n        /* \"#utility.yul\":1248:1280   */\n      slt\n        /* \"#utility.yul\":1245:1364   */\n      iszero\n      tag_57\n      jumpi\n        /* \"#utility.yul\":1283:1362   */\n      tag_58\n      tag_36\n      jump\t// in\n    tag_58:\n        /* \"#utility.yul\":1245:1364   */\n    tag_57:\n        /* \"#utility.yul\":1403:1404   */\n      0x00\n        /* \"#utility.yul\":1428:1481   */\n      tag_59\n        /* \"#utility.yul\":1473:1480   */\n      dup6\n        /* \"#utility.yul\":1464:1470   */\n      dup3\n        /* \"#utility.yul\":1453:1462   */\n      dup7\n        /* \"#utility.yul\":1449:1471   */\n      add\n        /* \"#utility.yul\":1428:1481   */\n      tag_39\n      jump\t// in\n    tag_59:\n        /* \"#utility.yul\":1418:1481   */\n      swap3\n      pop\n        /* \"#utility.yul\":1374:1491   */\n      pop\n        /* \"#utility.yul\":1530:1532   */\n      0x20\n        /* \"#utility.yul\":1556:1609   */\n      tag_60\n        /* \"#utility.yul\":1601:1608   */\n      dup6\n        /* \"#utility.yul\":1592:1598   */\n      dup3\n        /* \"#utility.yul\":1581:1590   */\n      dup7\n        /* \"#utility.yul\":1577:1599   */\n      add\n        /* \"#utility.yul\":1556:1609   */\n      tag_39\n      jump\t// in\n    tag_60:\n        /* \"#utility.yul\":1546:1609   */\n      swap2\n      pop\n        /* \"#utility.yul\":1501:1619   */\n      pop\n        /* \"#utility.yul\":1152:1626   */\n      swap3\n      pop\n      swap3\n      swap1\n      pop\n      jump\t// out\n        /* \"#utility.yul\":1632:1854   */\n    tag_16:\n        /* \"#utility.yul\":1725:1729   */\n      0x00\n        /* \"#utility.yul\":1763:1765   */\n      0x20\n        /* \"#utility.yul\":1752:1761   */\n      dup3\n        /* \"#utility.yul\":1748:1766   */\n      add\n        /* \"#utility.yul\":1740:1766   */\n      swap1\n      pop\n        /* \"#utility.yul\":1776:1847   */\n      tag_62\n        /* \"#utility.yul\":1844:1845   */\n      0x00\n        /* \"#utility.yul\":1833:1842   */\n      dup4\n        /* \"#utility.yul\":1829:1846   */\n      add\n        /* \"#utility.yul\":1820:1826   */\n      dup5\n        /* \"#utility.yul\":1776:1847   */\n      tag_34\n      jump\t// in\n    tag_62:\n        /* \"#utility.yul\":1632:1854   */\n      swap3\n      swap2\n      pop\n      pop\n      jump\t// out\n        /* \"#utility.yul\":1860:2189   */\n    tag_22:\n        /* \"#utility.yul\":1919:1925   */\n      0x00\n        /* \"#utility.yul\":1968:1970   */\n      0x20\n        /* \"#utility.yul\":1956:1965   */\n      dup3\n        /* \"#utility.yul\":1947:1954   */\n      dup5\n        /* \"#utility.yul\":1943:1966   */\n      sub\n        /* \"#utility.yul\":1939:1971   */\n      slt\n        /* \"#utility.yul\":1936:2055   */\n      iszero\n      tag_64\n      jumpi\n        /* \"#utility.yul\":1974:2053   */\n      tag_65\n      tag_36\n      jump\t// in\n    tag_65:\n        /* \"#utility.yul\":1936:2055   */\n    tag_64:\n        /* \"#utility.yul\":2094:2095   */\n      0x00\n        /* \"#utility.yul\":2119:2172   */\n      tag_66\n        /* \"#utility.yul\":2164:2171   */\n      dup5\n        /* \"#utility.yul\":2155:2161   */\n      dup3\n        /* \"#utility.yul\":2144:2153   */\n      dup6\n        /* \"#utility.yul\":2140:2162   */\n      add\n        /* \"#utility.yul\":2119:2172   */\n      tag_39\n      jump\t// in\n    tag_66:\n        /* \"#utility.yul\":2109:2172   */\n      swap2\n      pop\n        /* \"#utility.yul\":2065:2182   */\n      pop\n        /* \"#utility.yul\":1860:2189   */\n      swap3\n      swap2\n      pop\n      pop\n      jump\t// out\n        /* \"#utility.yul\":2195:2375   */\n    tag_40:\n        /* \"#utility.yul\":2243:2320   */\n      0x4e487b7100000000000000000000000000000000000000000000000000000000\n        /* \"#utility.yul\":2240:2241   */\n      0x00\n        /* \"#utility.yul\":2233:2321   */\n      mstore\n        /* \"#utility.yul\":2340:2344   */\n      0x11\n        /* \"#utility.yul\":2337:2338   */\n      0x04\n        /* \"#utility.yul\":2330:2345   */\n      mstore\n        /* \"#utility.yul\":2364:2368   */\n      0x24\n        /* \"#utility.yul\":2361:2362   */\n      0x00\n        /* \"#utility.yul\":2354:2369   */\n      revert\n        /* \"#utility.yul\":2381:2572   */\n    tag_28:\n        /* \"#utility.yul\":2421:2424   */\n      0x00\n        /* \"#utility.yul\":2440:2460   */\n      tag_69\n        /* \"#utility.yul\":2458:2459   */\n      dup3\n        /* \"#utility.yul\":2440:2460   */\n      tag_33\n      jump\t// in\n    tag_69:\n        /* \"#utility.yul\":2435:2460   */\n      swap2\n      pop\n        /* \"#utility.yul\":2474:2494   */\n      tag_70\n        /* \"#utility.yul\":2492:2493   */\n      dup4\n        /* \"#utility.yul\":2474:2494   */\n      tag_33\n      jump\t// in\n    tag_70:\n        /* \"#utility.yul\":2469:2494   */\n      swap3\n      pop\n        /* \"#utility.yul\":2517:2518   */\n      dup3\n        /* \"#utility.yul\":2514:2515   */\n      dup3\n        /* \"#utility.yul\":2510:2519   */\n      add\n        /* \"#utility.yul\":2503:2519   */\n      swap1\n      pop\n        /* \"#utility.yul\":2538:2541   */\n      dup1\n        /* \"#utility.yul\":2535:2536   */\n      dup3\n        /* \"#utility.yul\":2532:2542   */\n      gt\n        /* \"#utility.yul\":2529:2565   */\n      iszero\n      tag_71\n      jumpi\n        /* \"#utility.yul\":2545:2563   */\n      tag_72\n      tag_40\n      jump\t// in\n    tag_72:\n        /* \"#utility.yul\":2529:2565   */\n    tag_71:\n        /* \"#utility.yul\":2381:2572   */\n      swap3\n      swap2\n      pop\n      pop\n      jump\t// out\n\n    auxdata: 0xa2646970667358221220198869dc9630945130b4e5cf3696affee0c0ee25b97391ed78bdae81c8cd20e664736f6c634300081a0033\n}\n",
				"bytecode": {
					"linkReferences": {},
					"object": "6080604052348015600e575f80fd5b506102c58061001c5f395ff3fe608060405234801561000f575f80fd5b506004361061004a575f3560e01c806389f915f61461004e5780638e86b1251461006d578063a378c8981461009d578063e8e0ba01146100b9575b5f80fd5b6100566100e9565b604051610064929190610158565b60405180910390f35b610087600480360381019061008291906101ad565b6100f8565b60405161009491906101eb565b60405180910390f35b6100b760048036038101906100b291906101ad565b61010d565b005b6100d360048036038101906100ce9190610204565b61011e565b6040516100e091906101eb565b60405180910390f35b5f805f54600154915091509091565b5f8183610105919061025c565b905092915050565b815f81905550806001819055505050565b5f6001545f548361012f919061025c565b610139919061025c565b9050919050565b5f819050919050565b61015281610140565b82525050565b5f60408201905061016b5f830185610149565b6101786020830184610149565b9392505050565b5f80fd5b61018c81610140565b8114610196575f80fd5b50565b5f813590506101a781610183565b92915050565b5f80604083850312156101c3576101c261017f565b5b5f6101d085828601610199565b92505060206101e185828601610199565b9150509250929050565b5f6020820190506101fe5f830184610149565b92915050565b5f602082840312156102195761021861017f565b5b5f61022684828501610199565b91505092915050565b7f4e487b71000000000000000000000000000000000000000000000000000000005f52601160045260245ffd5b5f61026682610140565b915061027183610140565b92508282019050808211156102895761028861022f565b5b9291505056fea2646970667358221220198869dc9630945130b4e5cf3696affee0c0ee25b97391ed78bdae81c8cd20e664736f6c634300081a0033",
					"opcodes": "PUSH1 0x80 PUSH1 0x40 MSTORE CALLVALUE DUP1 ISZERO PUSH1 0xE JUMPI PUSH0 DUP1 REVERT JUMPDEST POP PUSH2 0x2C5 DUP1 PUSH2 0x1C PUSH0 CODECOPY PUSH0 RETURN INVALID PUSH1 0x80 PUSH1 0x40 MSTORE CALLVALUE DUP1 ISZERO PUSH2 0xF JUMPI PUSH0 DUP1 REVERT JUMPDEST POP PUSH1 0x4 CALLDATASIZE LT PUSH2 0x4A JUMPI PUSH0 CALLDATALOAD PUSH1 0xE0 SHR DUP1 PUSH4 0x89F915F6 EQ PUSH2 0x4E JUMPI DUP1 PUSH4 0x8E86B125 EQ PUSH2 0x6D JUMPI DUP1 PUSH4 0xA378C898 EQ PUSH2 0x9D JUMPI DUP1 PUSH4 0xE8E0BA01 EQ PUSH2 0xB9 JUMPI JUMPDEST PUSH0 DUP1 REVERT JUMPDEST PUSH2 0x56 PUSH2 0xE9 JUMP JUMPDEST PUSH1 0x40 MLOAD PUSH2 0x64 SWAP3 SWAP2 SWAP1 PUSH2 0x158 JUMP JUMPDEST PUSH1 0x40 MLOAD DUP1 SWAP2 SUB SWAP1 RETURN JUMPDEST PUSH2 0x87 PUSH1 0x4 DUP1 CALLDATASIZE SUB DUP2 ADD SWAP1 PUSH2 0x82 SWAP2 SWAP1 PUSH2 0x1AD JUMP JUMPDEST PUSH2 0xF8 JUMP JUMPDEST PUSH1 0x40 MLOAD PUSH2 0x94 SWAP2 SWAP1 PUSH2 0x1EB JUMP JUMPDEST PUSH1 0x40 MLOAD DUP1 SWAP2 SUB SWAP1 RETURN JUMPDEST PUSH2 0xB7 PUSH1 0x4 DUP1 CALLDATASIZE SUB DUP2 ADD SWAP1 PUSH2 0xB2 SWAP2 SWAP1 PUSH2 0x1AD JUMP JUMPDEST PUSH2 0x10D JUMP JUMPDEST STOP JUMPDEST PUSH2 0xD3 PUSH1 0x4 DUP1 CALLDATASIZE SUB DUP2 ADD SWAP1 PUSH2 0xCE SWAP2 SWAP1 PUSH2 0x204 JUMP JUMPDEST PUSH2 0x11E JUMP JUMPDEST PUSH1 0x40 MLOAD PUSH2 0xE0 SWAP2 SWAP1 PUSH2 0x1EB JUMP JUMPDEST PUSH1 0x40 MLOAD DUP1 SWAP2 SUB SWAP1 RETURN JUMPDEST PUSH0 DUP1 PUSH0 SLOAD PUSH1 0x1 SLOAD SWAP2 POP SWAP2 POP SWAP1 SWAP2 JUMP JUMPDEST PUSH0 DUP2 DUP4 PUSH2 0x105 SWAP2 SWAP1 PUSH2 0x25C JUMP JUMPDEST SWAP1 POP SWAP3 SWAP2 POP POP JUMP JUMPDEST DUP2 PUSH0 DUP2 SWAP1 SSTORE POP DUP1 PUSH1 0x1 DUP2 SWAP1 SSTORE POP POP POP JUMP JUMPDEST PUSH0 PUSH1 0x1 SLOAD PUSH0 SLOAD DUP4 PUSH2 0x12F SWAP2 SWAP1 PUSH2 0x25C JUMP JUMPDEST PUSH2 0x139 SWAP2 SWAP1 PUSH2 0x25C JUMP JUMPDEST SWAP1 POP SWAP2 SWAP1 POP JUMP JUMPDEST PUSH0 DUP2 SWAP1 POP SWAP2 SWAP1 POP JUMP JUMPDEST PUSH2 0x152 DUP2 PUSH2 0x140 JUMP JUMPDEST DUP3 MSTORE POP POP JUMP JUMPDEST PUSH0 PUSH1 0x40 DUP3 ADD SWAP1 POP PUSH2 0x16B PUSH0 DUP4 ADD DUP6 PUSH2 0x149 JUMP JUMPDEST PUSH2 0x178 PUSH1 0x20 DUP4 ADD DUP5 PUSH2 0x149 JUMP JUMPDEST SWAP4 SWAP3 POP POP POP JUMP JUMPDEST PUSH0 DUP1 REVERT JUMPDEST PUSH2 0x18C DUP2 PUSH2 0x140 JUMP JUMPDEST DUP2 EQ PUSH2 0x196 JUMPI PUSH0 DUP1 REVERT JUMPDEST POP JUMP JUMPDEST PUSH0 DUP2 CALLDATALOAD SWAP1 POP PUSH2 0x1A7 DUP2 PUSH2 0x183 JUMP JUMPDEST SWAP3 SWAP2 POP POP JUMP JUMPDEST PUSH0 DUP1 PUSH1 0x40 DUP4 DUP6 SUB SLT ISZERO PUSH2 0x1C3 JUMPI PUSH2 0x1C2 PUSH2 0x17F JUMP JUMPDEST JUMPDEST PUSH0 PUSH2 0x1D0 DUP6 DUP3 DUP7 ADD PUSH2 0x199 JUMP JUMPDEST SWAP3 POP POP PUSH1 0x20 PUSH2 0x1E1 DUP6 DUP3 DUP7 ADD PUSH2 0x199 JUMP JUMPDEST SWAP2 POP POP SWAP3 POP SWAP3 SWAP1 POP JUMP JUMPDEST PUSH0 PUSH1 0x20 DUP3 ADD SWAP1 POP PUSH2 0x1FE PUSH0 DUP4 ADD DUP5 PUSH2 0x149 JUMP JUMPDEST SWAP3 SWAP2 POP POP JUMP JUMPDEST PUSH0 PUSH1 0x20 DUP3 DUP5 SUB SLT ISZERO PUSH2 0x219 JUMPI PUSH2 0x218 PUSH2 0x17F JUMP JUMPDEST JUMPDEST PUSH0 PUSH2 0x226 DUP5 DUP3 DUP6 ADD PUSH2 0x199 JUMP JUMPDEST SWAP2 POP POP SWAP3 SWAP2 POP POP JUMP JUMPDEST PUSH32 0x4E487B7100000000000000000000000000000000000000000000000000000000 PUSH0 MSTORE PUSH1 0x11 PUSH1 0x4 MSTORE PUSH1 0x24 PUSH0 REVERT JUMPDEST PUSH0 PUSH2 0x266 DUP3 PUSH2 0x140 JUMP JUMPDEST SWAP2 POP PUSH2 0x271 DUP4 PUSH2 0x140 JUMP JUMPDEST SWAP3 POP DUP3 DUP3 ADD SWAP1 POP DUP1 DUP3 GT ISZERO PUSH2 0x289 JUMPI PUSH2 0x288 PUSH2 0x22F JUMP JUMPDEST JUMPDEST SWAP3 SWAP2 POP POP JUMP INVALID LOG2 PUSH5 0x6970667358 0x22 SLT KECCAK256 NOT DUP9 PUSH10 0xDC9630945130B4E5CF36 SWAP7 0xAF INVALID 0xE0 0xC0 0xEE 0x25 0xB9 PUSH20 0x91ED78BDAE81C8CD20E664736F6C634300081A00 CALLER "
				},
				"gasEstimates": {
					"creation": {
						"codeDepositCost": "141800",
						"executionCost": "188",
						"totalCost": "141988"
					},
					"external": {
						"getNumbers()": "infinite",
						"getSum(uint256)": "infinite",
						"getSum(uint256,uint256)": "infinite",
						"setNumbers(uint256,uint256)": "infinite"
					}
				},
				"methodIdentifiers": {
					"getNumbers()": "89f915f6",
					"getSum(uint256)": "e8e0ba01",
					"getSum(uint256,uint256)": "8e86b125",
					"setNumbers(uint256,uint256)": "a378c898"
				}
			},
			"storageLayout": {
				"storage": [
					{
						"astId": 3,
						"contract": "contracts/Blockchain_Assignment_2/Task_Codes/as2_task1.sol:Task1",
						"label": "number1",
						"offset": 0,
						"slot": "0",
						"type": "t_uint256"
					},
					{
						"astId": 5,
						"contract": "contracts/Blockchain_Assignment_2/Task_Codes/as2_task1.sol:Task1",
						"label": "number2",
						"offset": 0,
						"slot": "1",
						"type": "t_uint256"
					}
				],
				"types": {
					"t_uint256": {
						"encoding": "inplace",
						"label": "uint256",
						"numberOfBytes": "32"
					}
				}
			},
			"userdoc": {
				"kind": "user",
				"methods": {},
				"version": 1
			}
		}
	}
}