{
	"contracts/Blockchain_Assignment_2/Task_Codes/as2_task2.sol": {
		"AccessModifiersExample": {
			"abi": [
				{
					"inputs": [],
					"name": "getNumber",
					"outputs": [
						{
							"internalType": "uint8",
							"name": "",
							"type": "uint8"
						}
					],
					"stateMutability": "view",
					"type": "function"
				},
				{
					"inputs": [
						{
							"internalType": "uint8",
							"name": "_number",
							"type": "uint8"
						}
					],
					"name": "setNumberExternal",
					"outputs": [],
					"stateMutability": "nonpayable",
					"type": "function"
				},
				{
					"inputs": [
						{
							"internalType": "uint8",
							"name": "_number",
							"type": "uint8"
						}
					],
					"name": "setNumberPublic",
					"outputs": [],
					"stateMutability": "nonpayable",
					"type": "function"
				}
			],
			"devdoc": {
				"kind": "dev",
				"methods": {},
				"version": 1
			},
			"evm": {
				"assembly": "    /* \"contracts/Blockchain_Assignment_2/Task_Codes/as2_task2.sol\":28:897  contract AccessModifiersExample {... */\n  mstore(0x40, 0x80)\n  callvalue\n  dup1\n  iszero\n  tag_1\n  jumpi\n  0x00\n  dup1\n  revert\ntag_1:\n  pop\n  dataSize(sub_0)\n  dup1\n  dataOffset(sub_0)\n  0x00\n  codecopy\n  0x00\n  return\nstop\n\nsub_0: assembly {\n        /* \"contracts/Blockchain_Assignment_2/Task_Codes/as2_task2.sol\":28:897  contract AccessModifiersExample {... */\n      mstore(0x40, 0x80)\n      callvalue\n      dup1\n      iszero\n      tag_1\n      jumpi\n      0x00\n      dup1\n      revert\n    tag_1:\n      pop\n      jumpi(tag_2, lt(calldatasize, 0x04))\n      shr(0xe0, calldataload(0x00))\n      dup1\n      0x096acfc4\n      eq\n      tag_3\n      jumpi\n      dup1\n      0xa5f8de9f\n      eq\n      tag_4\n      jumpi\n      dup1\n      0xf2c9ecd8\n      eq\n      tag_5\n      jumpi\n    tag_2:\n      0x00\n      dup1\n      revert\n        /* \"contracts/Blockchain_Assignment_2/Task_Codes/as2_task2.sol\":526:621  function setNumberExternal(uint8 _number) external {... */\n    tag_3:\n      tag_6\n      0x04\n      dup1\n      calldatasize\n      sub\n      dup2\n      add\n      swap1\n      tag_7\n      swap2\n      swap1\n      tag_8\n      jump\t// in\n    tag_7:\n      tag_9\n      jump\t// in\n    tag_6:\n      stop\n        /* \"contracts/Blockchain_Assignment_2/Task_Codes/as2_task2.sol\":330:422  function setNumberPublic(uint8 _number) public {... */\n    tag_4:\n      tag_10\n      0x04\n      dup1\n      calldatasize\n      sub\n      dup2\n      add\n      swap1\n      tag_11\n      swap2\n      swap1\n      tag_8\n      jump\t// in\n    tag_11:\n      tag_12\n      jump\t// in\n    tag_10:\n      stop\n        /* \"contracts/Blockchain_Assignment_2/Task_Codes/as2_task2.sol\":145:226  function getNumber() public view returns (uint8) {... */\n    tag_5:\n      tag_13\n      tag_14\n      jump\t// in\n    tag_13:\n      mload(0x40)\n      tag_15\n      swap2\n      swap1\n      tag_16\n      jump\t// in\n    tag_15:\n      mload(0x40)\n      dup1\n      swap2\n      sub\n      swap1\n      return\n        /* \"contracts/Blockchain_Assignment_2/Task_Codes/as2_task2.sol\":526:621  function setNumberExternal(uint8 _number) external {... */\n    tag_9:\n        /* \"contracts/Blockchain_Assignment_2/Task_Codes/as2_task2.sol\":588:613  setNumberPrivate(_number) */\n      tag_18\n        /* \"contracts/Blockchain_Assignment_2/Task_Codes/as2_task2.sol\":605:612  _number */\n      dup2\n        /* \"contracts/Blockchain_Assignment_2/Task_Codes/as2_task2.sol\":588:604  setNumberPrivate */\n      tag_19\n        /* \"contracts/Blockchain_Assignment_2/Task_Codes/as2_task2.sol\":588:613  setNumberPrivate(_number) */\n      jump\t// in\n    tag_18:\n        /* \"contracts/Blockchain_Assignment_2/Task_Codes/as2_task2.sol\":526:621  function setNumberExternal(uint8 _number) external {... */\n      pop\n      jump\t// out\n        /* \"contracts/Blockchain_Assignment_2/Task_Codes/as2_task2.sol\":330:422  function setNumberPublic(uint8 _number) public {... */\n    tag_12:\n        /* \"contracts/Blockchain_Assignment_2/Task_Codes/as2_task2.sol\":388:414  setNumberInternal(_number) */\n      tag_21\n        /* \"contracts/Blockchain_Assignment_2/Task_Codes/as2_task2.sol\":406:413  _number */\n      dup2\n        /* \"contracts/Blockchain_Assignment_2/Task_Codes/as2_task2.sol\":388:405  setNumberInternal */\n      tag_22\n        /* \"contracts/Blockchain_Assignment_2/Task_Codes/as2_task2.sol\":388:414  setNumberInternal(_number) */\n      jump\t// in\n    tag_21:\n        /* \"contracts/Blockchain_Assignment_2/Task_Codes/as2_task2.sol\":330:422  function setNumberPublic(uint8 _number) public {... */\n      pop\n      jump\t// out\n        /* \"contracts/Blockchain_Assignment_2/Task_Codes/as2_task2.sol\":145:226  function getNumber() public view returns (uint8) {... */\n    tag_14:\n        /* \"contracts/Blockchain_Assignment_2/Task_Codes/as2_task2.sol\":187:192  uint8 */\n      0x00\n        /* \"contracts/Blockchain_Assignment_2/Task_Codes/as2_task2.sol\":212:218  number */\n      dup1\n      0x00\n      swap1\n      sload\n      swap1\n      0x0100\n      exp\n      swap1\n      div\n      0xff\n      and\n        /* \"contracts/Blockchain_Assignment_2/Task_Codes/as2_task2.sol\":205:218  return number */\n      swap1\n      pop\n        /* \"contracts/Blockchain_Assignment_2/Task_Codes/as2_task2.sol\":145:226  function getNumber() public view returns (uint8) {... */\n      swap1\n      jump\t// out\n        /* \"contracts/Blockchain_Assignment_2/Task_Codes/as2_task2.sol\":810:894  function setNumberPrivate(uint8 _number) private {... */\n    tag_19:\n        /* \"contracts/Blockchain_Assignment_2/Task_Codes/as2_task2.sol\":879:886  _number */\n      dup1\n        /* \"contracts/Blockchain_Assignment_2/Task_Codes/as2_task2.sol\":870:876  number */\n      0x00\n      dup1\n        /* \"contracts/Blockchain_Assignment_2/Task_Codes/as2_task2.sol\":870:886  number = _number */\n      0x0100\n      exp\n      dup2\n      sload\n      dup2\n      0xff\n      mul\n      not\n      and\n      swap1\n      dup4\n      0xff\n      and\n      mul\n      or\n      swap1\n      sstore\n      pop\n        /* \"contracts/Blockchain_Assignment_2/Task_Codes/as2_task2.sol\":810:894  function setNumberPrivate(uint8 _number) private {... */\n      pop\n      jump\t// out\n        /* \"contracts/Blockchain_Assignment_2/Task_Codes/as2_task2.sol\":673:759  function setNumberInternal(uint8 _number) internal {... */\n    tag_22:\n        /* \"contracts/Blockchain_Assignment_2/Task_Codes/as2_task2.sol\":744:751  _number */\n      dup1\n        /* \"contracts/Blockchain_Assignment_2/Task_Codes/as2_task2.sol\":735:741  number */\n      0x00\n      dup1\n        /* \"contracts/Blockchain_Assignment_2/Task_Codes/as2_task2.sol\":735:751  number = _number */\n      0x0100\n      exp\n      dup2\n      sload\n      dup2\n      0xff\n      mul\n      not\n      and\n      swap1\n      dup4\n      0xff\n      and\n      mul\n      or\n      swap1\n      sstore\n      pop\n        /* \"contracts/Blockchain_Assignment_2/Task_Codes/as2_task2.sol\":673:759  function setNumberInternal(uint8 _number) internal {... */\n      pop\n      jump\t// out\n        /* \"#utility.yul\":88:205   */\n    tag_27:\n        /* \"#utility.yul\":197:198   */\n      0x00\n        /* \"#utility.yul\":194:195   */\n      dup1\n        /* \"#utility.yul\":187:199   */\n      revert\n        /* \"#utility.yul\":334:420   */\n    tag_29:\n        /* \"#utility.yul\":369:376   */\n      0x00\n        /* \"#utility.yul\":409:413   */\n      0xff\n        /* \"#utility.yul\":402:407   */\n      dup3\n        /* \"#utility.yul\":398:414   */\n      and\n        /* \"#utility.yul\":387:414   */\n      swap1\n      pop\n        /* \"#utility.yul\":334:420   */\n      swap2\n      swap1\n      pop\n      jump\t// out\n        /* \"#utility.yul\":426:544   */\n    tag_30:\n        /* \"#utility.yul\":497:519   */\n      tag_39\n        /* \"#utility.yul\":513:518   */\n      dup2\n        /* \"#utility.yul\":497:519   */\n      tag_29\n      jump\t// in\n    tag_39:\n        /* \"#utility.yul\":490:495   */\n      dup2\n        /* \"#utility.yul\":487:520   */\n      eq\n        /* \"#utility.yul\":477:538   */\n      tag_40\n      jumpi\n        /* \"#utility.yul\":534:535   */\n      0x00\n        /* \"#utility.yul\":531:532   */\n      dup1\n        /* \"#utility.yul\":524:536   */\n      revert\n        /* \"#utility.yul\":477:538   */\n    tag_40:\n        /* \"#utility.yul\":426:544   */\n      pop\n      jump\t// out\n        /* \"#utility.yul\":550:685   */\n    tag_31:\n        /* \"#utility.yul\":594:599   */\n      0x00\n        /* \"#utility.yul\":632:638   */\n      dup2\n        /* \"#utility.yul\":619:639   */\n      calldataload\n        /* \"#utility.yul\":610:639   */\n      swap1\n      pop\n        /* \"#utility.yul\":648:679   */\n      tag_42\n        /* \"#utility.yul\":673:678   */\n      dup2\n        /* \"#utility.yul\":648:679   */\n      tag_30\n      jump\t// in\n    tag_42:\n        /* \"#utility.yul\":550:685   */\n      swap3\n      swap2\n      pop\n      pop\n      jump\t// out\n        /* \"#utility.yul\":691:1016   */\n    tag_8:\n        /* \"#utility.yul\":748:754   */\n      0x00\n        /* \"#utility.yul\":797:799   */\n      0x20\n        /* \"#utility.yul\":785:794   */\n      dup3\n        /* \"#utility.yul\":776:783   */\n      dup5\n        /* \"#utility.yul\":772:795   */\n      sub\n        /* \"#utility.yul\":768:800   */\n      slt\n        /* \"#utility.yul\":765:884   */\n      iszero\n      tag_44\n      jumpi\n        /* \"#utility.yul\":803:882   */\n      tag_45\n      tag_27\n      jump\t// in\n    tag_45:\n        /* \"#utility.yul\":765:884   */\n    tag_44:\n        /* \"#utility.yul\":923:924   */\n      0x00\n        /* \"#utility.yul\":948:999   */\n      tag_46\n        /* \"#utility.yul\":991:998   */\n      dup5\n        /* \"#utility.yul\":982:988   */\n      dup3\n        /* \"#utility.yul\":971:980   */\n      dup6\n        /* \"#utility.yul\":967:989   */\n      add\n        /* \"#utility.yul\":948:999   */\n      tag_31\n      jump\t// in\n    tag_46:\n        /* \"#utility.yul\":938:999   */\n      swap2\n      pop\n        /* \"#utility.yul\":894:1009   */\n      pop\n        /* \"#utility.yul\":691:1016   */\n      swap3\n      swap2\n      pop\n      pop\n      jump\t// out\n        /* \"#utility.yul\":1022:1134   */\n    tag_32:\n        /* \"#utility.yul\":1105:1127   */\n      tag_48\n        /* \"#utility.yul\":1121:1126   */\n      dup2\n        /* \"#utility.yul\":1105:1127   */\n      tag_29\n      jump\t// in\n    tag_48:\n        /* \"#utility.yul\":1100:1103   */\n      dup3\n        /* \"#utility.yul\":1093:1128   */\n      mstore\n        /* \"#utility.yul\":1022:1134   */\n      pop\n      pop\n      jump\t// out\n        /* \"#utility.yul\":1140:1354   */\n    tag_16:\n        /* \"#utility.yul\":1229:1233   */\n      0x00\n        /* \"#utility.yul\":1267:1269   */\n      0x20\n        /* \"#utility.yul\":1256:1265   */\n      dup3\n        /* \"#utility.yul\":1252:1270   */\n      add\n        /* \"#utility.yul\":1244:1270   */\n      swap1\n      pop\n        /* \"#utility.yul\":1280:1347   */\n      tag_50\n        /* \"#utility.yul\":1344:1345   */\n      0x00\n        /* \"#utility.yul\":1333:1342   */\n      dup4\n        /* \"#utility.yul\":1329:1346   */\n      add\n        /* \"#utility.yul\":1320:1326   */\n      dup5\n        /* \"#utility.yul\":1280:1347   */\n      tag_32\n      jump\t// in\n    tag_50:\n        /* \"#utility.yul\":1140:1354   */\n      swap3\n      swap2\n      pop\n      pop\n      jump\t// out\n\n    auxdata: 0xa2646970667358221220cf2c2ba1f96b2ddc60b72c2ec84d440786446442d7a7fd386db604675cca926764736f6c634300081a0033\n}\n",
				"bytecode": {
					"linkReferences": {},
					"object": "6080604052348015600e575f80fd5b506101c08061001c5f395ff3fe608060405234801561000f575f80fd5b506004361061003f575f3560e01c8063096acfc414610043578063a5f8de9f1461005f578063f2c9ecd81461007b575b5f80fd5b61005d60048036038101906100589190610137565b610099565b005b61007960048036038101906100749190610137565b6100a5565b005b6100836100b1565b6040516100909190610171565b60405180910390f35b6100a2816100c5565b50565b6100ae816100e1565b50565b5f805f9054906101000a900460ff16905090565b805f806101000a81548160ff021916908360ff16021790555050565b805f806101000a81548160ff021916908360ff16021790555050565b5f80fd5b5f60ff82169050919050565b61011681610101565b8114610120575f80fd5b50565b5f813590506101318161010d565b92915050565b5f6020828403121561014c5761014b6100fd565b5b5f61015984828501610123565b91505092915050565b61016b81610101565b82525050565b5f6020820190506101845f830184610162565b9291505056fea2646970667358221220cf2c2ba1f96b2ddc60b72c2ec84d440786446442d7a7fd386db604675cca926764736f6c634300081a0033",
					"opcodes": "PUSH1 0x80 PUSH1 0x40 MSTORE CALLVALUE DUP1 ISZERO PUSH1 0xE JUMPI PUSH0 DUP1 REVERT JUMPDEST POP PUSH2 0x1C0 DUP1 PUSH2 0x1C PUSH0 CODECOPY PUSH0 RETURN INVALID PUSH1 0x80 PUSH1 0x40 MSTORE CALLVALUE DUP1 ISZERO PUSH2 0xF JUMPI PUSH0 DUP1 REVERT JUMPDEST POP PUSH1 0x4 CALLDATASIZE LT PUSH2 0x3F JUMPI PUSH0 CALLDATALOAD PUSH1 0xE0 SHR DUP1 PUSH4 0x96ACFC4 EQ PUSH2 0x43 JUMPI DUP1 PUSH4 0xA5F8DE9F EQ PUSH2 0x5F JUMPI DUP1 PUSH4 0xF2C9ECD8 EQ PUSH2 0x7B JUMPI JUMPDEST PUSH0 DUP1 REVERT JUMPDEST PUSH2 0x5D PUSH1 0x4 DUP1 CALLDATASIZE SUB DUP2 ADD SWAP1 PUSH2 0x58 SWAP2 SWAP1 PUSH2 0x137 JUMP JUMPDEST PUSH2 0x99 JUMP JUMPDEST STOP JUMPDEST PUSH2 0x79 PUSH1 0x4 DUP1 CALLDATASIZE SUB DUP2 ADD SWAP1 PUSH2 0x74 SWAP2 SWAP1 PUSH2 0x137 JUMP JUMPDEST PUSH2 0xA5 JUMP JUMPDEST STOP JUMPDEST PUSH2 0x83 PUSH2 0xB1 JUMP JUMPDEST PUSH1 0x40 MLOAD PUSH2 0x90 SWAP2 SWAP1 PUSH2 0x171 JUMP JUMPDEST PUSH1 0x40 MLOAD DUP1 SWAP2 SUB SWAP1 RETURN JUMPDEST PUSH2 0xA2 DUP2 PUSH2 0xC5 JUMP JUMPDEST POP JUMP JUMPDEST PUSH2 0xAE DUP2 PUSH2 0xE1 JUMP JUMPDEST POP JUMP JUMPDEST PUSH0 DUP1 PUSH0 SWAP1 SLOAD SWAP1 PUSH2 0x100 EXP SWAP1 DIV PUSH1 0xFF AND SWAP1 POP SWAP1 JUMP JUMPDEST DUP1 PUSH0 DUP1 PUSH2 0x100 EXP DUP2 SLOAD DUP2 PUSH1 0xFF MUL NOT AND SWAP1 DUP4 PUSH1 0xFF AND MUL OR SWAP1 SSTORE POP POP JUMP JUMPDEST DUP1 PUSH0 DUP1 PUSH2 0x100 EXP DUP2 SLOAD DUP2 PUSH1 0xFF MUL NOT AND SWAP1 DUP4 PUSH1 0xFF AND MUL OR SWAP1 SSTORE POP POP JUMP JUMPDEST PUSH0 DUP1 REVERT JUMPDEST PUSH0 PUSH1 0xFF DUP3 AND SWAP1 POP SWAP2 SWAP1 POP JUMP JUMPDEST PUSH2 0x116 DUP2 PUSH2 0x101 JUMP JUMPDEST DUP2 EQ PUSH2 0x120 JUMPI PUSH0 DUP1 REVERT JUMPDEST POP JUMP JUMPDEST PUSH0 DUP2 CALLDATALOAD SWAP1 POP PUSH2 0x131 DUP2 PUSH2 0x10D JUMP JUMPDEST SWAP3 SWAP2 POP POP JUMP JUMPDEST PUSH0 PUSH1 0x20 DUP3 DUP5 SUB SLT ISZERO PUSH2 0x14C JUMPI PUSH2 0x14B PUSH2 0xFD JUMP JUMPDEST JUMPDEST PUSH0 PUSH2 0x159 DUP5 DUP3 DUP6 ADD PUSH2 0x123 JUMP JUMPDEST SWAP2 POP POP SWAP3 SWAP2 POP POP JUMP JUMPDEST PUSH2 0x16B DUP2 PUSH2 0x101 JUMP JUMPDEST DUP3 MSTORE POP POP JUMP JUMPDEST PUSH0 PUSH1 0x20 DUP3 ADD SWAP1 POP PUSH2 0x184 PUSH0 DUP4 ADD DUP5 PUSH2 0x162 JUMP JUMPDEST SWAP3 SWAP2 POP POP JUMP INVALID LOG2 PUSH5 0x6970667358 0x22 SLT KECCAK256 0xCF 0x2C 0x2B LOG1 0xF9 PUSH12 0x2DDC60B72C2EC84D44078644 PUSH5 0x42D7A7FD38 PUSH14 0xB604675CCA926764736F6C634300 ADDMOD BYTE STOP CALLER "
				},
				"gasEstimates": {
					"creation": {
						"codeDepositCost": "89600",
						"executionCost": "133",
						"totalCost": "89733"
					},
					"external": {
						"getNumber()": "2495",
						"setNumberExternal(uint8)": "24680",
						"setNumberPublic(uint8)": "24702"
					},
					"internal": {
						"setNumberInternal(uint8)": "24277",
						"setNumberPrivate(uint8)": "24277"
					}
				},
				"methodIdentifiers": {
					"getNumber()": "f2c9ecd8",
					"setNumberExternal(uint8)": "096acfc4",
					"setNumberPublic(uint8)": "a5f8de9f"
				}
			},
			"storageLayout": {
				"storage": [
					{
						"astId": 3,
						"contract": "contracts/Blockchain_Assignment_2/Task_Codes/as2_task2.sol:AccessModifiersExample",
						"label": "number",
						"offset": 0,
						"slot": "0",
						"type": "t_uint8"
					}
				],
				"types": {
					"t_uint8": {
						"encoding": "inplace",
						"label": "uint8",
						"numberOfBytes": "1"
					}
				}
			},
			"userdoc": {
				"kind": "user",
				"methods": {},
				"version": 1
			}
		}
	}
}