{
	"contracts/Blockchain_Assignment_2/Task_Codes/as2_task1.sol": {
		"ArithmeticOperations": {
			"abi": [
				{
					"inputs": [
						{
							"internalType": "uint256",
							"name": "_value",
							"type": "uint256"
						}
					],
					"name": "add",
					"outputs": [],
					"stateMutability": "nonpayable",
					"type": "function"
				},
				{
					"inputs": [
						{
							"internalType": "uint256",
							"name": "_value",
							"type": "uint256"
						}
					],
					"name": "subtract",
					"outputs": [],
					"stateMutability": "nonpayable",
					"type": "function"
				},
				{
					"inputs": [
						{
							"internalType": "uint256",
							"name": "_value",
							"type": "uint256"
						}
					],
					"name": "testDivide",
					"outputs": [],
					"stateMutability": "nonpayable",
					"type": "function"
				},
				{
					"inputs": [
						{
							"internalType": "uint256",
							"name": "_value",
							"type": "uint256"
						}
					],
					"name": "testMultiply",
					"outputs": [],
					"stateMutability": "nonpayable",
					"type": "function"
				},
				{
					"inputs": [],
					"name": "value",
					"outputs": [
						{
							"internalType": "uint256",
							"name": "",
							"type": "uint256"
						}
					],
					"stateMutability": "view",
					"type": "function"
				}
			],
			"devdoc": {
				"kind": "dev",
				"methods": {},
				"version": 1
			},
			"evm": {
				"assembly": "    /* \"contracts/Blockchain_Assignment_2/Task_Codes/as2_task1.sol\":28:1411  contract ArithmeticOperations {... */\n  mstore(0x40, 0x80)\n  callvalue\n  dup1\n  iszero\n  tag_1\n  jumpi\n  0x00\n  dup1\n  revert\ntag_1:\n  pop\n  dataSize(sub_0)\n  dup1\n  dataOffset(sub_0)\n  0x00\n  codecopy\n  0x00\n  return\nstop\n\nsub_0: assembly {\n        /* \"contracts/Blockchain_Assignment_2/Task_Codes/as2_task1.sol\":28:1411  contract ArithmeticOperations {... */\n      mstore(0x40, 0x80)\n      callvalue\n      dup1\n      iszero\n      tag_1\n      jumpi\n      0x00\n      dup1\n      revert\n    tag_1:\n      pop\n      jumpi(tag_2, lt(calldatasize, 0x04))\n      shr(0xe0, calldataload(0x00))\n      dup1\n      0x1003e2d2\n      eq\n      tag_3\n      jumpi\n      dup1\n      0x1dc05f17\n      eq\n      tag_4\n      jumpi\n      dup1\n      0x3fa4f245\n      eq\n      tag_5\n      jumpi\n      dup1\n      0x46d39343\n      eq\n      tag_6\n      jumpi\n      dup1\n      0xfb8be28b\n      eq\n      tag_7\n      jumpi\n    tag_2:\n      0x00\n      dup1\n      revert\n        /* \"contracts/Blockchain_Assignment_2/Task_Codes/as2_task1.sol\":187:280  function add(uint256 _value) public {... */\n    tag_3:\n      tag_8\n      0x04\n      dup1\n      calldatasize\n      sub\n      dup2\n      add\n      swap1\n      tag_9\n      swap2\n      swap1\n      tag_10\n      jump\t// in\n    tag_9:\n      tag_11\n      jump\t// in\n    tag_8:\n      stop\n        /* \"contracts/Blockchain_Assignment_2/Task_Codes/as2_task1.sol\":352:564  function subtract(uint256 _value) external {... */\n    tag_4:\n      tag_12\n      0x04\n      dup1\n      calldatasize\n      sub\n      dup2\n      add\n      swap1\n      tag_13\n      swap2\n      swap1\n      tag_10\n      jump\t// in\n    tag_13:\n      tag_14\n      jump\t// in\n    tag_12:\n      stop\n        /* \"contracts/Blockchain_Assignment_2/Task_Codes/as2_task1.sol\":65:85  uint256 public value */\n    tag_5:\n      tag_15\n      tag_16\n      jump\t// in\n    tag_15:\n      mload(0x40)\n      tag_17\n      swap2\n      swap1\n      tag_18\n      jump\t// in\n    tag_17:\n      mload(0x40)\n      dup1\n      swap2\n      sub\n      swap1\n      return\n        /* \"contracts/Blockchain_Assignment_2/Task_Codes/as2_task1.sol\":1296:1408  function testDivide(uint256 _value) public {... */\n    tag_6:\n      tag_19\n      0x04\n      dup1\n      calldatasize\n      sub\n      dup2\n      add\n      swap1\n      tag_20\n      swap2\n      swap1\n      tag_10\n      jump\t// in\n    tag_20:\n      tag_21\n      jump\t// in\n    tag_19:\n      stop\n        /* \"contracts/Blockchain_Assignment_2/Task_Codes/as2_task1.sol\":1108:1227  function testMultiply(uint256 _value) public {... */\n    tag_7:\n      tag_22\n      0x04\n      dup1\n      calldatasize\n      sub\n      dup2\n      add\n      swap1\n      tag_23\n      swap2\n      swap1\n      tag_10\n      jump\t// in\n    tag_23:\n      tag_24\n      jump\t// in\n    tag_22:\n      stop\n        /* \"contracts/Blockchain_Assignment_2/Task_Codes/as2_task1.sol\":187:280  function add(uint256 _value) public {... */\n    tag_11:\n        /* \"contracts/Blockchain_Assignment_2/Task_Codes/as2_task1.sol\":243:249  _value */\n      dup1\n        /* \"contracts/Blockchain_Assignment_2/Task_Codes/as2_task1.sol\":234:239  value */\n      0x00\n      dup1\n        /* \"contracts/Blockchain_Assignment_2/Task_Codes/as2_task1.sol\":234:249  value += _value */\n      dup3\n      dup3\n      sload\n      tag_26\n      swap2\n      swap1\n      tag_27\n      jump\t// in\n    tag_26:\n      swap3\n      pop\n      pop\n      dup2\n      swap1\n      sstore\n      pop\n        /* \"contracts/Blockchain_Assignment_2/Task_Codes/as2_task1.sol\":187:280  function add(uint256 _value) public {... */\n      pop\n      jump\t// out\n        /* \"contracts/Blockchain_Assignment_2/Task_Codes/as2_task1.sol\":352:564  function subtract(uint256 _value) external {... */\n    tag_14:\n        /* \"contracts/Blockchain_Assignment_2/Task_Codes/as2_task1.sol\":423:429  _value */\n      dup1\n        /* \"contracts/Blockchain_Assignment_2/Task_Codes/as2_task1.sol\":414:419  value */\n      sload(0x00)\n        /* \"contracts/Blockchain_Assignment_2/Task_Codes/as2_task1.sol\":414:429  value >= _value */\n      lt\n      iszero\n        /* \"contracts/Blockchain_Assignment_2/Task_Codes/as2_task1.sol\":406:477  require(value >= _value, \"Cannot subtract more than the current value\") */\n      tag_29\n      jumpi\n      mload(0x40)\n      0x08c379a000000000000000000000000000000000000000000000000000000000\n      dup2\n      mstore\n      0x04\n      add\n      tag_30\n      swap1\n      tag_31\n      jump\t// in\n    tag_30:\n      mload(0x40)\n      dup1\n      swap2\n      sub\n      swap1\n      revert\n    tag_29:\n        /* \"contracts/Blockchain_Assignment_2/Task_Codes/as2_task1.sol\":520:526  _value */\n      dup1\n        /* \"contracts/Blockchain_Assignment_2/Task_Codes/as2_task1.sol\":511:516  value */\n      0x00\n      dup1\n        /* \"contracts/Blockchain_Assignment_2/Task_Codes/as2_task1.sol\":511:526  value -= _value */\n      dup3\n      dup3\n      sload\n      tag_32\n      swap2\n      swap1\n      tag_33\n      jump\t// in\n    tag_32:\n      swap3\n      pop\n      pop\n      dup2\n      swap1\n      sstore\n      pop\n        /* \"contracts/Blockchain_Assignment_2/Task_Codes/as2_task1.sol\":352:564  function subtract(uint256 _value) external {... */\n      pop\n      jump\t// out\n        /* \"contracts/Blockchain_Assignment_2/Task_Codes/as2_task1.sol\":65:85  uint256 public value */\n    tag_16:\n      sload(0x00)\n      dup2\n      jump\t// out\n        /* \"contracts/Blockchain_Assignment_2/Task_Codes/as2_task1.sol\":1296:1408  function testDivide(uint256 _value) public {... */\n    tag_21:\n        /* \"contracts/Blockchain_Assignment_2/Task_Codes/as2_task1.sol\":1350:1364  divide(_value) */\n      tag_35\n        /* \"contracts/Blockchain_Assignment_2/Task_Codes/as2_task1.sol\":1357:1363  _value */\n      dup2\n        /* \"contracts/Blockchain_Assignment_2/Task_Codes/as2_task1.sol\":1350:1356  divide */\n      tag_36\n        /* \"contracts/Blockchain_Assignment_2/Task_Codes/as2_task1.sol\":1350:1364  divide(_value) */\n      jump\t// in\n    tag_35:\n        /* \"contracts/Blockchain_Assignment_2/Task_Codes/as2_task1.sol\":1296:1408  function testDivide(uint256 _value) public {... */\n      pop\n      jump\t// out\n        /* \"contracts/Blockchain_Assignment_2/Task_Codes/as2_task1.sol\":1108:1227  function testMultiply(uint256 _value) public {... */\n    tag_24:\n        /* \"contracts/Blockchain_Assignment_2/Task_Codes/as2_task1.sol\":1164:1180  multiply(_value) */\n      tag_38\n        /* \"contracts/Blockchain_Assignment_2/Task_Codes/as2_task1.sol\":1173:1179  _value */\n      dup2\n        /* \"contracts/Blockchain_Assignment_2/Task_Codes/as2_task1.sol\":1164:1172  multiply */\n      tag_39\n        /* \"contracts/Blockchain_Assignment_2/Task_Codes/as2_task1.sol\":1164:1180  multiply(_value) */\n      jump\t// in\n    tag_38:\n        /* \"contracts/Blockchain_Assignment_2/Task_Codes/as2_task1.sol\":1108:1227  function testMultiply(uint256 _value) public {... */\n      pop\n      jump\t// out\n        /* \"contracts/Blockchain_Assignment_2/Task_Codes/as2_task1.sol\":841:1036  function divide(uint256 _value) private {... */\n    tag_36:\n        /* \"contracts/Blockchain_Assignment_2/Task_Codes/as2_task1.sol\":909:910  0 */\n      0x00\n        /* \"contracts/Blockchain_Assignment_2/Task_Codes/as2_task1.sol\":900:906  _value */\n      dup2\n        /* \"contracts/Blockchain_Assignment_2/Task_Codes/as2_task1.sol\":900:910  _value > 0 */\n      gt\n        /* \"contracts/Blockchain_Assignment_2/Task_Codes/as2_task1.sol\":892:946  require(_value > 0, \"Division by zero is not allowed\") */\n      tag_41\n      jumpi\n      mload(0x40)\n      0x08c379a000000000000000000000000000000000000000000000000000000000\n      dup2\n      mstore\n      0x04\n      add\n      tag_42\n      swap1\n      tag_43\n      jump\t// in\n    tag_42:\n      mload(0x40)\n      dup1\n      swap2\n      sub\n      swap1\n      revert\n    tag_41:\n        /* \"contracts/Blockchain_Assignment_2/Task_Codes/as2_task1.sol\":996:1002  _value */\n      dup1\n        /* \"contracts/Blockchain_Assignment_2/Task_Codes/as2_task1.sol\":987:992  value */\n      0x00\n      dup1\n        /* \"contracts/Blockchain_Assignment_2/Task_Codes/as2_task1.sol\":987:1002  value /= _value */\n      dup3\n      dup3\n      sload\n      tag_44\n      swap2\n      swap1\n      tag_45\n      jump\t// in\n    tag_44:\n      swap3\n      pop\n      pop\n      dup2\n      swap1\n      sstore\n      pop\n        /* \"contracts/Blockchain_Assignment_2/Task_Codes/as2_task1.sol\":841:1036  function divide(uint256 _value) private {... */\n      pop\n      jump\t// out\n        /* \"contracts/Blockchain_Assignment_2/Task_Codes/as2_task1.sol\":652:757  function multiply(uint256 _value) internal {... */\n    tag_39:\n        /* \"contracts/Blockchain_Assignment_2/Task_Codes/as2_task1.sol\":715:721  _value */\n      dup1\n        /* \"contracts/Blockchain_Assignment_2/Task_Codes/as2_task1.sol\":706:711  value */\n      0x00\n      dup1\n        /* \"contracts/Blockchain_Assignment_2/Task_Codes/as2_task1.sol\":706:721  value *= _value */\n      dup3\n      dup3\n      sload\n      tag_47\n      swap2\n      swap1\n      tag_48\n      jump\t// in\n    tag_47:\n      swap3\n      pop\n      pop\n      dup2\n      swap1\n      sstore\n      pop\n        /* \"contracts/Blockchain_Assignment_2/Task_Codes/as2_task1.sol\":652:757  function multiply(uint256 _value) internal {... */\n      pop\n      jump\t// out\n        /* \"#utility.yul\":88:205   */\n    tag_50:\n        /* \"#utility.yul\":197:198   */\n      0x00\n        /* \"#utility.yul\":194:195   */\n      dup1\n        /* \"#utility.yul\":187:199   */\n      revert\n        /* \"#utility.yul\":334:411   */\n    tag_52:\n        /* \"#utility.yul\":371:378   */\n      0x00\n        /* \"#utility.yul\":400:405   */\n      dup2\n        /* \"#utility.yul\":389:405   */\n      swap1\n      pop\n        /* \"#utility.yul\":334:411   */\n      swap2\n      swap1\n      pop\n      jump\t// out\n        /* \"#utility.yul\":417:539   */\n    tag_53:\n        /* \"#utility.yul\":490:514   */\n      tag_69\n        /* \"#utility.yul\":508:513   */\n      dup2\n        /* \"#utility.yul\":490:514   */\n      tag_52\n      jump\t// in\n    tag_69:\n        /* \"#utility.yul\":483:488   */\n      dup2\n        /* \"#utility.yul\":480:515   */\n      eq\n        /* \"#utility.yul\":470:533   */\n      tag_70\n      jumpi\n        /* \"#utility.yul\":529:530   */\n      0x00\n        /* \"#utility.yul\":526:527   */\n      dup1\n        /* \"#utility.yul\":519:531   */\n      revert\n        /* \"#utility.yul\":470:533   */\n    tag_70:\n        /* \"#utility.yul\":417:539   */\n      pop\n      jump\t// out\n        /* \"#utility.yul\":545:684   */\n    tag_54:\n        /* \"#utility.yul\":591:596   */\n      0x00\n        /* \"#utility.yul\":629:635   */\n      dup2\n        /* \"#utility.yul\":616:636   */\n      calldataload\n        /* \"#utility.yul\":607:636   */\n      swap1\n      pop\n        /* \"#utility.yul\":645:678   */\n      tag_72\n        /* \"#utility.yul\":672:677   */\n      dup2\n        /* \"#utility.yul\":645:678   */\n      tag_53\n      jump\t// in\n    tag_72:\n        /* \"#utility.yul\":545:684   */\n      swap3\n      swap2\n      pop\n      pop\n      jump\t// out\n        /* \"#utility.yul\":690:1019   */\n    tag_10:\n        /* \"#utility.yul\":749:755   */\n      0x00\n        /* \"#utility.yul\":798:800   */\n      0x20\n        /* \"#utility.yul\":786:795   */\n      dup3\n        /* \"#utility.yul\":777:784   */\n      dup5\n        /* \"#utility.yul\":773:796   */\n      sub\n        /* \"#utility.yul\":769:801   */\n      slt\n        /* \"#utility.yul\":766:885   */\n      iszero\n      tag_74\n      jumpi\n        /* \"#utility.yul\":804:883   */\n      tag_75\n      tag_50\n      jump\t// in\n    tag_75:\n        /* \"#utility.yul\":766:885   */\n    tag_74:\n        /* \"#utility.yul\":924:925   */\n      0x00\n        /* \"#utility.yul\":949:1002   */\n      tag_76\n        /* \"#utility.yul\":994:1001   */\n      dup5\n        /* \"#utility.yul\":985:991   */\n      dup3\n        /* \"#utility.yul\":974:983   */\n      dup6\n        /* \"#utility.yul\":970:992   */\n      add\n        /* \"#utility.yul\":949:1002   */\n      tag_54\n      jump\t// in\n    tag_76:\n        /* \"#utility.yul\":939:1002   */\n      swap2\n      pop\n        /* \"#utility.yul\":895:1012   */\n      pop\n        /* \"#utility.yul\":690:1019   */\n      swap3\n      swap2\n      pop\n      pop\n      jump\t// out\n        /* \"#utility.yul\":1025:1143   */\n    tag_55:\n        /* \"#utility.yul\":1112:1136   */\n      tag_78\n        /* \"#utility.yul\":1130:1135   */\n      dup2\n        /* \"#utility.yul\":1112:1136   */\n      tag_52\n      jump\t// in\n    tag_78:\n        /* \"#utility.yul\":1107:1110   */\n      dup3\n        /* \"#utility.yul\":1100:1137   */\n      mstore\n        /* \"#utility.yul\":1025:1143   */\n      pop\n      pop\n      jump\t// out\n        /* \"#utility.yul\":1149:1371   */\n    tag_18:\n        /* \"#utility.yul\":1242:1246   */\n      0x00\n        /* \"#utility.yul\":1280:1282   */\n      0x20\n        /* \"#utility.yul\":1269:1278   */\n      dup3\n        /* \"#utility.yul\":1265:1283   */\n      add\n        /* \"#utility.yul\":1257:1283   */\n      swap1\n      pop\n        /* \"#utility.yul\":1293:1364   */\n      tag_80\n        /* \"#utility.yul\":1361:1362   */\n      0x00\n        /* \"#utility.yul\":1350:1359   */\n      dup4\n        /* \"#utility.yul\":1346:1363   */\n      add\n        /* \"#utility.yul\":1337:1343   */\n      dup5\n        /* \"#utility.yul\":1293:1364   */\n      tag_55\n      jump\t// in\n    tag_80:\n        /* \"#utility.yul\":1149:1371   */\n      swap3\n      swap2\n      pop\n      pop\n      jump\t// out\n        /* \"#utility.yul\":1377:1557   */\n    tag_56:\n        /* \"#utility.yul\":1425:1502   */\n      0x4e487b7100000000000000000000000000000000000000000000000000000000\n        /* \"#utility.yul\":1422:1423   */\n      0x00\n        /* \"#utility.yul\":1415:1503   */\n      mstore\n        /* \"#utility.yul\":1522:1526   */\n      0x11\n        /* \"#utility.yul\":1519:1520   */\n      0x04\n        /* \"#utility.yul\":1512:1527   */\n      mstore\n        /* \"#utility.yul\":1546:1550   */\n      0x24\n        /* \"#utility.yul\":1543:1544   */\n      0x00\n        /* \"#utility.yul\":1536:1551   */\n      revert\n        /* \"#utility.yul\":1563:1754   */\n    tag_27:\n        /* \"#utility.yul\":1603:1606   */\n      0x00\n        /* \"#utility.yul\":1622:1642   */\n      tag_83\n        /* \"#utility.yul\":1640:1641   */\n      dup3\n        /* \"#utility.yul\":1622:1642   */\n      tag_52\n      jump\t// in\n    tag_83:\n        /* \"#utility.yul\":1617:1642   */\n      swap2\n      pop\n        /* \"#utility.yul\":1656:1676   */\n      tag_84\n        /* \"#utility.yul\":1674:1675   */\n      dup4\n        /* \"#utility.yul\":1656:1676   */\n      tag_52\n      jump\t// in\n    tag_84:\n        /* \"#utility.yul\":1651:1676   */\n      swap3\n      pop\n        /* \"#utility.yul\":1699:1700   */\n      dup3\n        /* \"#utility.yul\":1696:1697   */\n      dup3\n        /* \"#utility.yul\":1692:1701   */\n      add\n        /* \"#utility.yul\":1685:1701   */\n      swap1\n      pop\n        /* \"#utility.yul\":1720:1723   */\n      dup1\n        /* \"#utility.yul\":1717:1718   */\n      dup3\n        /* \"#utility.yul\":1714:1724   */\n      gt\n        /* \"#utility.yul\":1711:1747   */\n      iszero\n      tag_85\n      jumpi\n        /* \"#utility.yul\":1727:1745   */\n      tag_86\n      tag_56\n      jump\t// in\n    tag_86:\n        /* \"#utility.yul\":1711:1747   */\n    tag_85:\n        /* \"#utility.yul\":1563:1754   */\n      swap3\n      swap2\n      pop\n      pop\n      jump\t// out\n        /* \"#utility.yul\":1760:1929   */\n    tag_57:\n        /* \"#utility.yul\":1844:1855   */\n      0x00\n        /* \"#utility.yul\":1878:1884   */\n      dup3\n        /* \"#utility.yul\":1873:1876   */\n      dup3\n        /* \"#utility.yul\":1866:1885   */\n      mstore\n        /* \"#utility.yul\":1918:1922   */\n      0x20\n        /* \"#utility.yul\":1913:1916   */\n      dup3\n        /* \"#utility.yul\":1909:1923   */\n      add\n        /* \"#utility.yul\":1894:1923   */\n      swap1\n      pop\n        /* \"#utility.yul\":1760:1929   */\n      swap3\n      swap2\n      pop\n      pop\n      jump\t// out\n        /* \"#utility.yul\":1935:2165   */\n    tag_58:\n        /* \"#utility.yul\":2075:2109   */\n      0x43616e6e6f74207375627472616374206d6f7265207468616e20746865206375\n        /* \"#utility.yul\":2071:2072   */\n      0x00\n        /* \"#utility.yul\":2063:2069   */\n      dup3\n        /* \"#utility.yul\":2059:2073   */\n      add\n        /* \"#utility.yul\":2052:2110   */\n      mstore\n        /* \"#utility.yul\":2144:2157   */\n      0x7272656e742076616c7565000000000000000000000000000000000000000000\n        /* \"#utility.yul\":2139:2141   */\n      0x20\n        /* \"#utility.yul\":2131:2137   */\n      dup3\n        /* \"#utility.yul\":2127:2142   */\n      add\n        /* \"#utility.yul\":2120:2158   */\n      mstore\n        /* \"#utility.yul\":1935:2165   */\n      pop\n      jump\t// out\n        /* \"#utility.yul\":2171:2537   */\n    tag_59:\n        /* \"#utility.yul\":2313:2316   */\n      0x00\n        /* \"#utility.yul\":2334:2401   */\n      tag_90\n        /* \"#utility.yul\":2398:2400   */\n      0x2b\n        /* \"#utility.yul\":2393:2396   */\n      dup4\n        /* \"#utility.yul\":2334:2401   */\n      tag_57\n      jump\t// in\n    tag_90:\n        /* \"#utility.yul\":2327:2401   */\n      swap2\n      pop\n        /* \"#utility.yul\":2410:2503   */\n      tag_91\n        /* \"#utility.yul\":2499:2502   */\n      dup3\n        /* \"#utility.yul\":2410:2503   */\n      tag_58\n      jump\t// in\n    tag_91:\n        /* \"#utility.yul\":2528:2530   */\n      0x40\n        /* \"#utility.yul\":2523:2526   */\n      dup3\n        /* \"#utility.yul\":2519:2531   */\n      add\n        /* \"#utility.yul\":2512:2531   */\n      swap1\n      pop\n        /* \"#utility.yul\":2171:2537   */\n      swap2\n      swap1\n      pop\n      jump\t// out\n        /* \"#utility.yul\":2543:2962   */\n    tag_31:\n        /* \"#utility.yul\":2709:2713   */\n      0x00\n        /* \"#utility.yul\":2747:2749   */\n      0x20\n        /* \"#utility.yul\":2736:2745   */\n      dup3\n        /* \"#utility.yul\":2732:2750   */\n      add\n        /* \"#utility.yul\":2724:2750   */\n      swap1\n      pop\n        /* \"#utility.yul\":2796:2805   */\n      dup2\n        /* \"#utility.yul\":2790:2794   */\n      dup2\n        /* \"#utility.yul\":2786:2806   */\n      sub\n        /* \"#utility.yul\":2782:2783   */\n      0x00\n        /* \"#utility.yul\":2771:2780   */\n      dup4\n        /* \"#utility.yul\":2767:2784   */\n      add\n        /* \"#utility.yul\":2760:2807   */\n      mstore\n        /* \"#utility.yul\":2824:2955   */\n      tag_93\n        /* \"#utility.yul\":2950:2954   */\n      dup2\n        /* \"#utility.yul\":2824:2955   */\n      tag_59\n      jump\t// in\n    tag_93:\n        /* \"#utility.yul\":2816:2955   */\n      swap1\n      pop\n        /* \"#utility.yul\":2543:2962   */\n      swap2\n      swap1\n      pop\n      jump\t// out\n        /* \"#utility.yul\":2968:3162   */\n    tag_33:\n        /* \"#utility.yul\":3008:3012   */\n      0x00\n        /* \"#utility.yul\":3028:3048   */\n      tag_95\n        /* \"#utility.yul\":3046:3047   */\n      dup3\n        /* \"#utility.yul\":3028:3048   */\n      tag_52\n      jump\t// in\n    tag_95:\n        /* \"#utility.yul\":3023:3048   */\n      swap2\n      pop\n        /* \"#utility.yul\":3062:3082   */\n      tag_96\n        /* \"#utility.yul\":3080:3081   */\n      dup4\n        /* \"#utility.yul\":3062:3082   */\n      tag_52\n      jump\t// in\n    tag_96:\n        /* \"#utility.yul\":3057:3082   */\n      swap3\n      pop\n        /* \"#utility.yul\":3106:3107   */\n      dup3\n        /* \"#utility.yul\":3103:3104   */\n      dup3\n        /* \"#utility.yul\":3099:3108   */\n      sub\n        /* \"#utility.yul\":3091:3108   */\n      swap1\n      pop\n        /* \"#utility.yul\":3130:3131   */\n      dup2\n        /* \"#utility.yul\":3124:3128   */\n      dup2\n        /* \"#utility.yul\":3121:3132   */\n      gt\n        /* \"#utility.yul\":3118:3155   */\n      iszero\n      tag_97\n      jumpi\n        /* \"#utility.yul\":3135:3153   */\n      tag_98\n      tag_56\n      jump\t// in\n    tag_98:\n        /* \"#utility.yul\":3118:3155   */\n    tag_97:\n        /* \"#utility.yul\":2968:3162   */\n      swap3\n      swap2\n      pop\n      pop\n      jump\t// out\n        /* \"#utility.yul\":3168:3349   */\n    tag_60:\n        /* \"#utility.yul\":3308:3341   */\n      0x4469766973696f6e206279207a65726f206973206e6f7420616c6c6f77656400\n        /* \"#utility.yul\":3304:3305   */\n      0x00\n        /* \"#utility.yul\":3296:3302   */\n      dup3\n        /* \"#utility.yul\":3292:3306   */\n      add\n        /* \"#utility.yul\":3285:3342   */\n      mstore\n        /* \"#utility.yul\":3168:3349   */\n      pop\n      jump\t// out\n        /* \"#utility.yul\":3355:3721   */\n    tag_61:\n        /* \"#utility.yul\":3497:3500   */\n      0x00\n        /* \"#utility.yul\":3518:3585   */\n      tag_101\n        /* \"#utility.yul\":3582:3584   */\n      0x1f\n        /* \"#utility.yul\":3577:3580   */\n      dup4\n        /* \"#utility.yul\":3518:3585   */\n      tag_57\n      jump\t// in\n    tag_101:\n        /* \"#utility.yul\":3511:3585   */\n      swap2\n      pop\n        /* \"#utility.yul\":3594:3687   */\n      tag_102\n        /* \"#utility.yul\":3683:3686   */\n      dup3\n        /* \"#utility.yul\":3594:3687   */\n      tag_60\n      jump\t// in\n    tag_102:\n        /* \"#utility.yul\":3712:3714   */\n      0x20\n        /* \"#utility.yul\":3707:3710   */\n      dup3\n        /* \"#utility.yul\":3703:3715   */\n      add\n        /* \"#utility.yul\":3696:3715   */\n      swap1\n      pop\n        /* \"#utility.yul\":3355:3721   */\n      swap2\n      swap1\n      pop\n      jump\t// out\n        /* \"#utility.yul\":3727:4146   */\n    tag_43:\n        /* \"#utility.yul\":3893:3897   */\n      0x00\n        /* \"#utility.yul\":3931:3933   */\n      0x20\n        /* \"#utility.yul\":3920:3929   */\n      dup3\n        /* \"#utility.yul\":3916:3934   */\n      add\n        /* \"#utility.yul\":3908:3934   */\n      swap1\n      pop\n        /* \"#utility.yul\":3980:3989   */\n      dup2\n        /* \"#utility.yul\":3974:3978   */\n      dup2\n        /* \"#utility.yul\":3970:3990   */\n      sub\n        /* \"#utility.yul\":3966:3967   */\n      0x00\n        /* \"#utility.yul\":3955:3964   */\n      dup4\n        /* \"#utility.yul\":3951:3968   */\n      add\n        /* \"#utility.yul\":3944:3991   */\n      mstore\n        /* \"#utility.yul\":4008:4139   */\n      tag_104\n        /* \"#utility.yul\":4134:4138   */\n      dup2\n        /* \"#utility.yul\":4008:4139   */\n      tag_61\n      jump\t// in\n    tag_104:\n        /* \"#utility.yul\":4000:4139   */\n      swap1\n      pop\n        /* \"#utility.yul\":3727:4146   */\n      swap2\n      swap1\n      pop\n      jump\t// out\n        /* \"#utility.yul\":4152:4332   */\n    tag_62:\n        /* \"#utility.yul\":4200:4277   */\n      0x4e487b7100000000000000000000000000000000000000000000000000000000\n        /* \"#utility.yul\":4197:4198   */\n      0x00\n        /* \"#utility.yul\":4190:4278   */\n      mstore\n        /* \"#utility.yul\":4297:4301   */\n      0x12\n        /* \"#utility.yul\":4294:4295   */\n      0x04\n        /* \"#utility.yul\":4287:4302   */\n      mstore\n        /* \"#utility.yul\":4321:4325   */\n      0x24\n        /* \"#utility.yul\":4318:4319   */\n      0x00\n        /* \"#utility.yul\":4311:4326   */\n      revert\n        /* \"#utility.yul\":4338:4523   */\n    tag_45:\n        /* \"#utility.yul\":4378:4379   */\n      0x00\n        /* \"#utility.yul\":4395:4415   */\n      tag_107\n        /* \"#utility.yul\":4413:4414   */\n      dup3\n        /* \"#utility.yul\":4395:4415   */\n      tag_52\n      jump\t// in\n    tag_107:\n        /* \"#utility.yul\":4390:4415   */\n      swap2\n      pop\n        /* \"#utility.yul\":4429:4449   */\n      tag_108\n        /* \"#utility.yul\":4447:4448   */\n      dup4\n        /* \"#utility.yul\":4429:4449   */\n      tag_52\n      jump\t// in\n    tag_108:\n        /* \"#utility.yul\":4424:4449   */\n      swap3\n      pop\n        /* \"#utility.yul\":4468:4469   */\n      dup3\n        /* \"#utility.yul\":4458:4493   */\n      tag_109\n      jumpi\n        /* \"#utility.yul\":4473:4491   */\n      tag_110\n      tag_62\n      jump\t// in\n    tag_110:\n        /* \"#utility.yul\":4458:4493   */\n    tag_109:\n        /* \"#utility.yul\":4515:4516   */\n      dup3\n        /* \"#utility.yul\":4512:4513   */\n      dup3\n        /* \"#utility.yul\":4508:4517   */\n      div\n        /* \"#utility.yul\":4503:4517   */\n      swap1\n      pop\n        /* \"#utility.yul\":4338:4523   */\n      swap3\n      swap2\n      pop\n      pop\n      jump\t// out\n        /* \"#utility.yul\":4529:4939   */\n    tag_48:\n        /* \"#utility.yul\":4569:4576   */\n      0x00\n        /* \"#utility.yul\":4592:4612   */\n      tag_112\n        /* \"#utility.yul\":4610:4611   */\n      dup3\n        /* \"#utility.yul\":4592:4612   */\n      tag_52\n      jump\t// in\n    tag_112:\n        /* \"#utility.yul\":4587:4612   */\n      swap2\n      pop\n        /* \"#utility.yul\":4626:4646   */\n      tag_113\n        /* \"#utility.yul\":4644:4645   */\n      dup4\n        /* \"#utility.yul\":4626:4646   */\n      tag_52\n      jump\t// in\n    tag_113:\n        /* \"#utility.yul\":4621:4646   */\n      swap3\n      pop\n        /* \"#utility.yul\":4681:4682   */\n      dup3\n        /* \"#utility.yul\":4678:4679   */\n      dup3\n        /* \"#utility.yul\":4674:4683   */\n      mul\n        /* \"#utility.yul\":4703:4733   */\n      tag_114\n        /* \"#utility.yul\":4721:4732   */\n      dup2\n        /* \"#utility.yul\":4703:4733   */\n      tag_52\n      jump\t// in\n    tag_114:\n        /* \"#utility.yul\":4692:4733   */\n      swap2\n      pop\n        /* \"#utility.yul\":4882:4883   */\n      dup3\n        /* \"#utility.yul\":4873:4880   */\n      dup3\n        /* \"#utility.yul\":4869:4884   */\n      div\n        /* \"#utility.yul\":4866:4867   */\n      dup5\n        /* \"#utility.yul\":4863:4885   */\n      eq\n        /* \"#utility.yul\":4843:4844   */\n      dup4\n        /* \"#utility.yul\":4836:4845   */\n      iszero\n        /* \"#utility.yul\":4816:4899   */\n      or\n        /* \"#utility.yul\":4793:4932   */\n      tag_115\n      jumpi\n        /* \"#utility.yul\":4912:4930   */\n      tag_116\n      tag_56\n      jump\t// in\n    tag_116:\n        /* \"#utility.yul\":4793:4932   */\n    tag_115:\n        /* \"#utility.yul\":4577:4939   */\n      pop\n        /* \"#utility.yul\":4529:4939   */\n      swap3\n      swap2\n      pop\n      pop\n      jump\t// out\n\n    auxdata: 0xa2646970667358221220b034a69daab7c9717c9859c3d8e90b563bcff6037f64d84cb27db7c3fc9a9fb064736f6c634300081a0033\n}\n",
				"bytecode": {
					"linkReferences": {},
					"object": "6080604052348015600e575f80fd5b506104e98061001c5f395ff3fe608060405234801561000f575f80fd5b5060043610610055575f3560e01c80631003e2d2146100595780631dc05f17146100755780633fa4f2451461009157806346d39343146100af578063fb8be28b146100cb575b5f80fd5b610073600480360381019061006e9190610229565b6100e7565b005b61008f600480360381019061008a9190610229565b610101565b005b61009961015f565b6040516100a69190610263565b60405180910390f35b6100c960048036038101906100c49190610229565b610164565b005b6100e560048036038101906100e09190610229565b610170565b005b805f808282546100f791906102a9565b9250508190555050565b805f541015610145576040517f08c379a000000000000000000000000000000000000000000000000000000000815260040161013c9061035c565b60405180910390fd5b805f80828254610155919061037a565b9250508190555050565b5f5481565b61016d8161017c565b50565b610179816101d8565b50565b5f81116101be576040517f08c379a00000000000000000000000000000000000000000000000000000000081526004016101b5906103f7565b60405180910390fd5b805f808282546101ce9190610442565b9250508190555050565b805f808282546101e89190610472565b9250508190555050565b5f80fd5b5f819050919050565b610208816101f6565b8114610212575f80fd5b50565b5f81359050610223816101ff565b92915050565b5f6020828403121561023e5761023d6101f2565b5b5f61024b84828501610215565b91505092915050565b61025d816101f6565b82525050565b5f6020820190506102765f830184610254565b92915050565b7f4e487b71000000000000000000000000000000000000000000000000000000005f52601160045260245ffd5b5f6102b3826101f6565b91506102be836101f6565b92508282019050808211156102d6576102d561027c565b5b92915050565b5f82825260208201905092915050565b7f43616e6e6f74207375627472616374206d6f7265207468616e207468652063755f8201527f7272656e742076616c7565000000000000000000000000000000000000000000602082015250565b5f610346602b836102dc565b9150610351826102ec565b604082019050919050565b5f6020820190508181035f8301526103738161033a565b9050919050565b5f610384826101f6565b915061038f836101f6565b92508282039050818111156103a7576103a661027c565b5b92915050565b7f4469766973696f6e206279207a65726f206973206e6f7420616c6c6f776564005f82015250565b5f6103e1601f836102dc565b91506103ec826103ad565b602082019050919050565b5f6020820190508181035f83015261040e816103d5565b9050919050565b7f4e487b71000000000000000000000000000000000000000000000000000000005f52601260045260245ffd5b5f61044c826101f6565b9150610457836101f6565b92508261046757610466610415565b5b828204905092915050565b5f61047c826101f6565b9150610487836101f6565b9250828202610495816101f6565b915082820484148315176104ac576104ab61027c565b5b509291505056fea2646970667358221220b034a69daab7c9717c9859c3d8e90b563bcff6037f64d84cb27db7c3fc9a9fb064736f6c634300081a0033",
					"opcodes": "PUSH1 0x80 PUSH1 0x40 MSTORE CALLVALUE DUP1 ISZERO PUSH1 0xE JUMPI PUSH0 DUP1 REVERT JUMPDEST POP PUSH2 0x4E9 DUP1 PUSH2 0x1C PUSH0 CODECOPY PUSH0 RETURN INVALID PUSH1 0x80 PUSH1 0x40 MSTORE CALLVALUE DUP1 ISZERO PUSH2 0xF JUMPI PUSH0 DUP1 REVERT JUMPDEST POP PUSH1 0x4 CALLDATASIZE LT PUSH2 0x55 JUMPI PUSH0 CALLDATALOAD PUSH1 0xE0 SHR DUP1 PUSH4 0x1003E2D2 EQ PUSH2 0x59 JUMPI DUP1 PUSH4 0x1DC05F17 EQ PUSH2 0x75 JUMPI DUP1 PUSH4 0x3FA4F245 EQ PUSH2 0x91 JUMPI DUP1 PUSH4 0x46D39343 EQ PUSH2 0xAF JUMPI DUP1 PUSH4 0xFB8BE28B EQ PUSH2 0xCB JUMPI JUMPDEST PUSH0 DUP1 REVERT JUMPDEST PUSH2 0x73 PUSH1 0x4 DUP1 CALLDATASIZE SUB DUP2 ADD SWAP1 PUSH2 0x6E SWAP2 SWAP1 PUSH2 0x229 JUMP JUMPDEST PUSH2 0xE7 JUMP JUMPDEST STOP JUMPDEST PUSH2 0x8F PUSH1 0x4 DUP1 CALLDATASIZE SUB DUP2 ADD SWAP1 PUSH2 0x8A SWAP2 SWAP1 PUSH2 0x229 JUMP JUMPDEST PUSH2 0x101 JUMP JUMPDEST STOP JUMPDEST PUSH2 0x99 PUSH2 0x15F JUMP JUMPDEST PUSH1 0x40 MLOAD PUSH2 0xA6 SWAP2 SWAP1 PUSH2 0x263 JUMP JUMPDEST PUSH1 0x40 MLOAD DUP1 SWAP2 SUB SWAP1 RETURN JUMPDEST PUSH2 0xC9 PUSH1 0x4 DUP1 CALLDATASIZE SUB DUP2 ADD SWAP1 PUSH2 0xC4 SWAP2 SWAP1 PUSH2 0x229 JUMP JUMPDEST PUSH2 0x164 JUMP JUMPDEST STOP JUMPDEST PUSH2 0xE5 PUSH1 0x4 DUP1 CALLDATASIZE SUB DUP2 ADD SWAP1 PUSH2 0xE0 SWAP2 SWAP1 PUSH2 0x229 JUMP JUMPDEST PUSH2 0x170 JUMP JUMPDEST STOP JUMPDEST DUP1 PUSH0 DUP1 DUP3 DUP3 SLOAD PUSH2 0xF7 SWAP2 SWAP1 PUSH2 0x2A9 JUMP JUMPDEST SWAP3 POP POP DUP2 SWAP1 SSTORE POP POP JUMP JUMPDEST DUP1 PUSH0 SLOAD LT ISZERO PUSH2 0x145 JUMPI PUSH1 0x40 MLOAD PUSH32 0x8C379A000000000000000000000000000000000000000000000000000000000 DUP2 MSTORE PUSH1 0x4 ADD PUSH2 0x13C SWAP1 PUSH2 0x35C JUMP JUMPDEST PUSH1 0x40 MLOAD DUP1 SWAP2 SUB SWAP1 REVERT JUMPDEST DUP1 PUSH0 DUP1 DUP3 DUP3 SLOAD PUSH2 0x155 SWAP2 SWAP1 PUSH2 0x37A JUMP JUMPDEST SWAP3 POP POP DUP2 SWAP1 SSTORE POP POP JUMP JUMPDEST PUSH0 SLOAD DUP2 JUMP JUMPDEST PUSH2 0x16D DUP2 PUSH2 0x17C JUMP JUMPDEST POP JUMP JUMPDEST PUSH2 0x179 DUP2 PUSH2 0x1D8 JUMP JUMPDEST POP JUMP JUMPDEST PUSH0 DUP2 GT PUSH2 0x1BE JUMPI PUSH1 0x40 MLOAD PUSH32 0x8C379A000000000000000000000000000000000000000000000000000000000 DUP2 MSTORE PUSH1 0x4 ADD PUSH2 0x1B5 SWAP1 PUSH2 0x3F7 JUMP JUMPDEST PUSH1 0x40 MLOAD DUP1 SWAP2 SUB SWAP1 REVERT JUMPDEST DUP1 PUSH0 DUP1 DUP3 DUP3 SLOAD PUSH2 0x1CE SWAP2 SWAP1 PUSH2 0x442 JUMP JUMPDEST SWAP3 POP POP DUP2 SWAP1 SSTORE POP POP JUMP JUMPDEST DUP1 PUSH0 DUP1 DUP3 DUP3 SLOAD PUSH2 0x1E8 SWAP2 SWAP1 PUSH2 0x472 JUMP JUMPDEST SWAP3 POP POP DUP2 SWAP1 SSTORE POP POP JUMP JUMPDEST PUSH0 DUP1 REVERT JUMPDEST PUSH0 DUP2 SWAP1 POP SWAP2 SWAP1 POP JUMP JUMPDEST PUSH2 0x208 DUP2 PUSH2 0x1F6 JUMP JUMPDEST DUP2 EQ PUSH2 0x212 JUMPI PUSH0 DUP1 REVERT JUMPDEST POP JUMP JUMPDEST PUSH0 DUP2 CALLDATALOAD SWAP1 POP PUSH2 0x223 DUP2 PUSH2 0x1FF JUMP JUMPDEST SWAP3 SWAP2 POP POP JUMP JUMPDEST PUSH0 PUSH1 0x20 DUP3 DUP5 SUB SLT ISZERO PUSH2 0x23E JUMPI PUSH2 0x23D PUSH2 0x1F2 JUMP JUMPDEST JUMPDEST PUSH0 PUSH2 0x24B DUP5 DUP3 DUP6 ADD PUSH2 0x215 JUMP JUMPDEST SWAP2 POP POP SWAP3 SWAP2 POP POP JUMP JUMPDEST PUSH2 0x25D DUP2 PUSH2 0x1F6 JUMP JUMPDEST DUP3 MSTORE POP POP JUMP JUMPDEST PUSH0 PUSH1 0x20 DUP3 ADD SWAP1 POP PUSH2 0x276 PUSH0 DUP4 ADD DUP5 PUSH2 0x254 JUMP JUMPDEST SWAP3 SWAP2 POP POP JUMP JUMPDEST PUSH32 0x4E487B7100000000000000000000000000000000000000000000000000000000 PUSH0 MSTORE PUSH1 0x11 PUSH1 0x4 MSTORE PUSH1 0x24 PUSH0 REVERT JUMPDEST PUSH0 PUSH2 0x2B3 DUP3 PUSH2 0x1F6 JUMP JUMPDEST SWAP2 POP PUSH2 0x2BE DUP4 PUSH2 0x1F6 JUMP JUMPDEST SWAP3 POP DUP3 DUP3 ADD SWAP1 POP DUP1 DUP3 GT ISZERO PUSH2 0x2D6 JUMPI PUSH2 0x2D5 PUSH2 0x27C JUMP JUMPDEST JUMPDEST SWAP3 SWAP2 POP POP JUMP JUMPDEST PUSH0 DUP3 DUP3 MSTORE PUSH1 0x20 DUP3 ADD SWAP1 POP SWAP3 SWAP2 POP POP JUMP JUMPDEST PUSH32 0x43616E6E6F74207375627472616374206D6F7265207468616E20746865206375 PUSH0 DUP3 ADD MSTORE PUSH32 0x7272656E742076616C7565000000000000000000000000000000000000000000 PUSH1 0x20 DUP3 ADD MSTORE POP JUMP JUMPDEST PUSH0 PUSH2 0x346 PUSH1 0x2B DUP4 PUSH2 0x2DC JUMP JUMPDEST SWAP2 POP PUSH2 0x351 DUP3 PUSH2 0x2EC JUMP JUMPDEST PUSH1 0x40 DUP3 ADD SWAP1 POP SWAP2 SWAP1 POP JUMP JUMPDEST PUSH0 PUSH1 0x20 DUP3 ADD SWAP1 POP DUP2 DUP2 SUB PUSH0 DUP4 ADD MSTORE PUSH2 0x373 DUP2 PUSH2 0x33A JUMP JUMPDEST SWAP1 POP SWAP2 SWAP1 POP JUMP JUMPDEST PUSH0 PUSH2 0x384 DUP3 PUSH2 0x1F6 JUMP JUMPDEST SWAP2 POP PUSH2 0x38F DUP4 PUSH2 0x1F6 JUMP JUMPDEST SWAP3 POP DUP3 DUP3 SUB SWAP1 POP DUP2 DUP2 GT ISZERO PUSH2 0x3A7 JUMPI PUSH2 0x3A6 PUSH2 0x27C JUMP JUMPDEST JUMPDEST SWAP3 SWAP2 POP POP JUMP JUMPDEST PUSH32 0x4469766973696F6E206279207A65726F206973206E6F7420616C6C6F77656400 PUSH0 DUP3 ADD MSTORE POP JUMP JUMPDEST PUSH0 PUSH2 0x3E1 PUSH1 0x1F DUP4 PUSH2 0x2DC JUMP JUMPDEST SWAP2 POP PUSH2 0x3EC DUP3 PUSH2 0x3AD JUMP JUMPDEST PUSH1 0x20 DUP3 ADD SWAP1 POP SWAP2 SWAP1 POP JUMP JUMPDEST PUSH0 PUSH1 0x20 DUP3 ADD SWAP1 POP DUP2 DUP2 SUB PUSH0 DUP4 ADD MSTORE PUSH2 0x40E DUP2 PUSH2 0x3D5 JUMP JUMPDEST SWAP1 POP SWAP2 SWAP1 POP JUMP JUMPDEST PUSH32 0x4E487B7100000000000000000000000000000000000000000000000000000000 PUSH0 MSTORE PUSH1 0x12 PUSH1 0x4 MSTORE PUSH1 0x24 PUSH0 REVERT JUMPDEST PUSH0 PUSH2 0x44C DUP3 PUSH2 0x1F6 JUMP JUMPDEST SWAP2 POP PUSH2 0x457 DUP4 PUSH2 0x1F6 JUMP JUMPDEST SWAP3 POP DUP3 PUSH2 0x467 JUMPI PUSH2 0x466 PUSH2 0x415 JUMP JUMPDEST JUMPDEST DUP3 DUP3 DIV SWAP1 POP SWAP3 SWAP2 POP POP JUMP JUMPDEST PUSH0 PUSH2 0x47C DUP3 PUSH2 0x1F6 JUMP JUMPDEST SWAP2 POP PUSH2 0x487 DUP4 PUSH2 0x1F6 JUMP JUMPDEST SWAP3 POP DUP3 DUP3 MUL PUSH2 0x495 DUP2 PUSH2 0x1F6 JUMP JUMPDEST SWAP2 POP DUP3 DUP3 DIV DUP5 EQ DUP4 ISZERO OR PUSH2 0x4AC JUMPI PUSH2 0x4AB PUSH2 0x27C JUMP JUMPDEST JUMPDEST POP SWAP3 SWAP2 POP POP JUMP INVALID LOG2 PUSH5 0x6970667358 0x22 SLT KECCAK256 0xB0 CALLVALUE 0xA6 SWAP14 0xAA 0xB7 0xC9 PUSH18 0x7C9859C3D8E90B563BCFF6037F64D84CB27D 0xB7 0xC3 0xFC SWAP11 SWAP16 0xB0 PUSH5 0x736F6C6343 STOP ADDMOD BYTE STOP CALLER "
				},
				"gasEstimates": {
					"creation": {
						"codeDepositCost": "251400",
						"executionCost": "292",
						"totalCost": "251692"
					},
					"external": {
						"add(uint256)": "infinite",
						"subtract(uint256)": "infinite",
						"testDivide(uint256)": "infinite",
						"testMultiply(uint256)": "infinite",
						"value()": "2446"
					},
					"internal": {
						"divide(uint256)": "infinite",
						"multiply(uint256)": "infinite"
					}
				},
				"methodIdentifiers": {
					"add(uint256)": "1003e2d2",
					"subtract(uint256)": "1dc05f17",
					"testDivide(uint256)": "46d39343",
					"testMultiply(uint256)": "fb8be28b",
					"value()": "3fa4f245"
				}
			},
			"storageLayout": {
				"storage": [
					{
						"astId": 3,
						"contract": "contracts/Blockchain_Assignment_2/Task_Codes/as2_task1.sol:ArithmeticOperations",
						"label": "value",
						"offset": 0,
						"slot": "0",
						"type": "t_uint256"
					}
				],
				"types": {
					"t_uint256": {
						"encoding": "inplace",
						"label": "uint256",
						"numberOfBytes": "32"
					}
				}
			},
			"userdoc": {
				"kind": "user",
				"methods": {},
				"version": 1
			}
		}
	}
}