{
	"contracts/Blockchain_Assignment_7/week7_task9.sol": {
		"TimedAccess": {
			"abi": [
				{
					"anonymous": false,
					"inputs": [
						{
							"indexed": true,
							"internalType": "address",
							"name": "user",
							"type": "address"
						},
						{
							"indexed": false,
							"internalType": "uint256",
							"name": "unlockTime",
							"type": "uint256"
						},
						{
							"indexed": false,
							"internalType": "bytes4",
							"name": "functionSelector",
							"type": "bytes4"
						}
					],
					"name": "AccessRegistered",
					"type": "event"
				},
				{
					"anonymous": false,
					"inputs": [
						{
							"indexed": true,
							"internalType": "address",
							"name": "user",
							"type": "address"
						},
						{
							"indexed": false,
							"internalType": "bytes4",
							"name": "functionSelector",
							"type": "bytes4"
						}
					],
					"name": "FunctionExecuted",
					"type": "event"
				},
				{
					"inputs": [
						{
							"internalType": "address",
							"name": "",
							"type": "address"
						}
					],
					"name": "accessRegistry",
					"outputs": [
						{
							"internalType": "address",
							"name": "user",
							"type": "address"
						},
						{
							"internalType": "uint256",
							"name": "unlockTime",
							"type": "uint256"
						},
						{
							"internalType": "bytes4",
							"name": "functionSelector",
							"type": "bytes4"
						}
					],
					"stateMutability": "view",
					"type": "function"
				},
				{
					"inputs": [],
					"name": "executeFunction",
					"outputs": [],
					"stateMutability": "nonpayable",
					"type": "function"
				},
				{
					"inputs": [
						{
							"internalType": "uint256",
							"name": "delay",
							"type": "uint256"
						},
						{
							"internalType": "bytes4",
							"name": "functionSelector",
							"type": "bytes4"
						}
					],
					"name": "registerAccess",
					"outputs": [],
					"stateMutability": "nonpayable",
					"type": "function"
				}
			],
			"devdoc": {
				"kind": "dev",
				"methods": {},
				"version": 1
			},
			"evm": {
				"assembly": "    /* \"contracts/Blockchain_Assignment_7/week7_task9.sol\":60:1204  contract TimedAccess {... */\n  mstore(0x40, 0x80)\n  callvalue\n  dup1\n  iszero\n  tag_1\n  jumpi\n  0x00\n  dup1\n  revert\ntag_1:\n  pop\n  dataSize(sub_0)\n  dup1\n  dataOffset(sub_0)\n  0x00\n  codecopy\n  0x00\n  return\nstop\n\nsub_0: assembly {\n        /* \"contracts/Blockchain_Assignment_7/week7_task9.sol\":60:1204  contract TimedAccess {... */\n      mstore(0x40, 0x80)\n      callvalue\n      dup1\n      iszero\n      tag_1\n      jumpi\n      0x00\n      dup1\n      revert\n    tag_1:\n      pop\n      jumpi(tag_2, lt(calldatasize, 0x04))\n      shr(0xe0, calldataload(0x00))\n      dup1\n      0xaa90e70b\n      eq\n      tag_3\n      jumpi\n      dup1\n      0xc3ddae26\n      eq\n      tag_4\n      jumpi\n      dup1\n      0xeffed8a4\n      eq\n      tag_5\n      jumpi\n    tag_2:\n      0x00\n      dup1\n      revert\n        /* \"contracts/Blockchain_Assignment_7/week7_task9.sol\":435:817  function registerAccess(uint256 delay, bytes4 functionSelector) external {... */\n    tag_3:\n      tag_6\n      0x04\n      dup1\n      calldatasize\n      sub\n      dup2\n      add\n      swap1\n      tag_7\n      swap2\n      swap1\n      tag_8\n      jump\t// in\n    tag_7:\n      tag_9\n      jump\t// in\n    tag_6:\n      stop\n        /* \"contracts/Blockchain_Assignment_7/week7_task9.sol\":825:1201  function executeFunction() external {... */\n    tag_4:\n      tag_10\n      tag_11\n      jump\t// in\n    tag_10:\n      stop\n        /* \"contracts/Blockchain_Assignment_7/week7_task9.sol\":204:252  mapping(address => Access) public accessRegistry */\n    tag_5:\n      tag_12\n      0x04\n      dup1\n      calldatasize\n      sub\n      dup2\n      add\n      swap1\n      tag_13\n      swap2\n      swap1\n      tag_14\n      jump\t// in\n    tag_13:\n      tag_15\n      jump\t// in\n    tag_12:\n      mload(0x40)\n      tag_16\n      swap4\n      swap3\n      swap2\n      swap1\n      tag_17\n      jump\t// in\n    tag_16:\n      mload(0x40)\n      dup1\n      swap2\n      sub\n      swap1\n      return\n        /* \"contracts/Blockchain_Assignment_7/week7_task9.sol\":435:817  function registerAccess(uint256 delay, bytes4 functionSelector) external {... */\n    tag_9:\n        /* \"contracts/Blockchain_Assignment_7/week7_task9.sol\":568:569  0 */\n      0x00\n        /* \"contracts/Blockchain_Assignment_7/week7_task9.sol\":527:541  accessRegistry */\n      dup1\n        /* \"contracts/Blockchain_Assignment_7/week7_task9.sol\":527:553  accessRegistry[msg.sender] */\n      0x00\n        /* \"contracts/Blockchain_Assignment_7/week7_task9.sol\":542:552  msg.sender */\n      caller\n        /* \"contracts/Blockchain_Assignment_7/week7_task9.sol\":527:553  accessRegistry[msg.sender] */\n      0xffffffffffffffffffffffffffffffffffffffff\n      and\n      0xffffffffffffffffffffffffffffffffffffffff\n      and\n      dup2\n      mstore\n      0x20\n      add\n      swap1\n      dup2\n      mstore\n      0x20\n      add\n      0x00\n      keccak256\n        /* \"contracts/Blockchain_Assignment_7/week7_task9.sol\":527:564  accessRegistry[msg.sender].unlockTime */\n      0x01\n      add\n      sload\n        /* \"contracts/Blockchain_Assignment_7/week7_task9.sol\":527:569  accessRegistry[msg.sender].unlockTime == 0 */\n      eq\n        /* \"contracts/Blockchain_Assignment_7/week7_task9.sol\":519:592  require(accessRegistry[msg.sender].unlockTime == 0, \"Already registered\") */\n      tag_19\n      jumpi\n      mload(0x40)\n      0x08c379a000000000000000000000000000000000000000000000000000000000\n      dup2\n      mstore\n      0x04\n      add\n      tag_20\n      swap1\n      tag_21\n      jump\t// in\n    tag_20:\n      mload(0x40)\n      dup1\n      swap2\n      sub\n      swap1\n      revert\n    tag_19:\n        /* \"contracts/Blockchain_Assignment_7/week7_task9.sol\":603:621  uint256 unlockTime */\n      0x00\n        /* \"contracts/Blockchain_Assignment_7/week7_task9.sol\":642:647  delay */\n      dup3\n        /* \"contracts/Blockchain_Assignment_7/week7_task9.sol\":624:639  block.timestamp */\n      timestamp\n        /* \"contracts/Blockchain_Assignment_7/week7_task9.sol\":624:647  block.timestamp + delay */\n      tag_22\n      swap2\n      swap1\n      tag_23\n      jump\t// in\n    tag_22:\n        /* \"contracts/Blockchain_Assignment_7/week7_task9.sol\":603:647  uint256 unlockTime = block.timestamp + delay */\n      swap1\n      pop\n        /* \"contracts/Blockchain_Assignment_7/week7_task9.sol\":687:735  Access(msg.sender, unlockTime, functionSelector) */\n      mload(0x40)\n      dup1\n      0x60\n      add\n      0x40\n      mstore\n      dup1\n        /* \"contracts/Blockchain_Assignment_7/week7_task9.sol\":694:704  msg.sender */\n      caller\n        /* \"contracts/Blockchain_Assignment_7/week7_task9.sol\":687:735  Access(msg.sender, unlockTime, functionSelector) */\n      0xffffffffffffffffffffffffffffffffffffffff\n      and\n      dup2\n      mstore\n      0x20\n      add\n        /* \"contracts/Blockchain_Assignment_7/week7_task9.sol\":706:716  unlockTime */\n      dup3\n        /* \"contracts/Blockchain_Assignment_7/week7_task9.sol\":687:735  Access(msg.sender, unlockTime, functionSelector) */\n      dup2\n      mstore\n      0x20\n      add\n        /* \"contracts/Blockchain_Assignment_7/week7_task9.sol\":718:734  functionSelector */\n      dup4\n        /* \"contracts/Blockchain_Assignment_7/week7_task9.sol\":687:735  Access(msg.sender, unlockTime, functionSelector) */\n      not(0xffffffffffffffffffffffffffffffffffffffffffffffffffffffff)\n      and\n      dup2\n      mstore\n      pop\n        /* \"contracts/Blockchain_Assignment_7/week7_task9.sol\":658:672  accessRegistry */\n      0x00\n        /* \"contracts/Blockchain_Assignment_7/week7_task9.sol\":658:684  accessRegistry[msg.sender] */\n      dup1\n        /* \"contracts/Blockchain_Assignment_7/week7_task9.sol\":673:683  msg.sender */\n      caller\n        /* \"contracts/Blockchain_Assignment_7/week7_task9.sol\":658:684  accessRegistry[msg.sender] */\n      0xffffffffffffffffffffffffffffffffffffffff\n      and\n      0xffffffffffffffffffffffffffffffffffffffff\n      and\n      dup2\n      mstore\n      0x20\n      add\n      swap1\n      dup2\n      mstore\n      0x20\n      add\n      0x00\n      keccak256\n        /* \"contracts/Blockchain_Assignment_7/week7_task9.sol\":658:735  accessRegistry[msg.sender] = Access(msg.sender, unlockTime, functionSelector) */\n      0x00\n      dup3\n      add\n      mload\n      dup2\n      0x00\n      add\n      exp(0x0100, 0x00)\n      dup2\n      sload\n      dup2\n      0xffffffffffffffffffffffffffffffffffffffff\n      mul\n      not\n      and\n      swap1\n      dup4\n      0xffffffffffffffffffffffffffffffffffffffff\n      and\n      mul\n      or\n      swap1\n      sstore\n      pop\n      0x20\n      dup3\n      add\n      mload\n      dup2\n      0x01\n      add\n      sstore\n      0x40\n      dup3\n      add\n      mload\n      dup2\n      0x02\n      add\n      exp(0x0100, 0x00)\n      dup2\n      sload\n      dup2\n      0xffffffff\n      mul\n      not\n      and\n      swap1\n      dup4\n      0xe0\n      shr\n      mul\n      or\n      swap1\n      sstore\n      pop\n      swap1\n      pop\n      pop\n        /* \"contracts/Blockchain_Assignment_7/week7_task9.sol\":768:778  msg.sender */\n      caller\n        /* \"contracts/Blockchain_Assignment_7/week7_task9.sol\":751:809  AccessRegistered(msg.sender, unlockTime, functionSelector) */\n      0xffffffffffffffffffffffffffffffffffffffff\n      and\n      0xa2b6dac065529a674914b83bb7776dbaebe1f40056b826d17142bbbac8fbda16\n        /* \"contracts/Blockchain_Assignment_7/week7_task9.sol\":780:790  unlockTime */\n      dup3\n        /* \"contracts/Blockchain_Assignment_7/week7_task9.sol\":792:808  functionSelector */\n      dup5\n        /* \"contracts/Blockchain_Assignment_7/week7_task9.sol\":751:809  AccessRegistered(msg.sender, unlockTime, functionSelector) */\n      mload(0x40)\n      tag_24\n      swap3\n      swap2\n      swap1\n      tag_25\n      jump\t// in\n    tag_24:\n      mload(0x40)\n      dup1\n      swap2\n      sub\n      swap1\n      log2\n        /* \"contracts/Blockchain_Assignment_7/week7_task9.sol\":508:817  {... */\n      pop\n        /* \"contracts/Blockchain_Assignment_7/week7_task9.sol\":435:817  function registerAccess(uint256 delay, bytes4 functionSelector) external {... */\n      pop\n      pop\n      jump\t// out\n        /* \"contracts/Blockchain_Assignment_7/week7_task9.sol\":825:1201  function executeFunction() external {... */\n    tag_11:\n        /* \"contracts/Blockchain_Assignment_7/week7_task9.sol\":872:892  Access memory access */\n      0x00\n        /* \"contracts/Blockchain_Assignment_7/week7_task9.sol\":895:909  accessRegistry */\n      dup1\n        /* \"contracts/Blockchain_Assignment_7/week7_task9.sol\":895:921  accessRegistry[msg.sender] */\n      0x00\n        /* \"contracts/Blockchain_Assignment_7/week7_task9.sol\":910:920  msg.sender */\n      caller\n        /* \"contracts/Blockchain_Assignment_7/week7_task9.sol\":895:921  accessRegistry[msg.sender] */\n      0xffffffffffffffffffffffffffffffffffffffff\n      and\n      0xffffffffffffffffffffffffffffffffffffffff\n      and\n      dup2\n      mstore\n      0x20\n      add\n      swap1\n      dup2\n      mstore\n      0x20\n      add\n      0x00\n      keccak256\n        /* \"contracts/Blockchain_Assignment_7/week7_task9.sol\":872:921  Access memory access = accessRegistry[msg.sender] */\n      mload(0x40)\n      dup1\n      0x60\n      add\n      0x40\n      mstore\n      swap1\n      dup2\n      0x00\n      dup3\n      add\n      0x00\n      swap1\n      sload\n      swap1\n      0x0100\n      exp\n      swap1\n      div\n      0xffffffffffffffffffffffffffffffffffffffff\n      and\n      0xffffffffffffffffffffffffffffffffffffffff\n      and\n      0xffffffffffffffffffffffffffffffffffffffff\n      and\n      dup2\n      mstore\n      0x20\n      add\n      0x01\n      dup3\n      add\n      sload\n      dup2\n      mstore\n      0x20\n      add\n      0x02\n      dup3\n      add\n      0x00\n      swap1\n      sload\n      swap1\n      0x0100\n      exp\n      swap1\n      div\n      0xe0\n      shl\n      not(0xffffffffffffffffffffffffffffffffffffffffffffffffffffffff)\n      and\n      not(0xffffffffffffffffffffffffffffffffffffffffffffffffffffffff)\n      and\n      dup2\n      mstore\n      pop\n      pop\n      swap1\n      pop\n        /* \"contracts/Blockchain_Assignment_7/week7_task9.sol\":961:962  0 */\n      0x00\n        /* \"contracts/Blockchain_Assignment_7/week7_task9.sol\":940:946  access */\n      dup2\n        /* \"contracts/Blockchain_Assignment_7/week7_task9.sol\":940:957  access.unlockTime */\n      0x20\n      add\n      mload\n        /* \"contracts/Blockchain_Assignment_7/week7_task9.sol\":940:962  access.unlockTime != 0 */\n      sub\n        /* \"contracts/Blockchain_Assignment_7/week7_task9.sol\":932:987  require(access.unlockTime != 0, \"No access registered\") */\n      tag_27\n      jumpi\n      mload(0x40)\n      0x08c379a000000000000000000000000000000000000000000000000000000000\n      dup2\n      mstore\n      0x04\n      add\n      tag_28\n      swap1\n      tag_29\n      jump\t// in\n    tag_28:\n      mload(0x40)\n      dup1\n      swap2\n      sub\n      swap1\n      revert\n    tag_27:\n        /* \"contracts/Blockchain_Assignment_7/week7_task9.sol\":1025:1031  access */\n      dup1\n        /* \"contracts/Blockchain_Assignment_7/week7_task9.sol\":1025:1042  access.unlockTime */\n      0x20\n      add\n      mload\n        /* \"contracts/Blockchain_Assignment_7/week7_task9.sol\":1006:1021  block.timestamp */\n      timestamp\n        /* \"contracts/Blockchain_Assignment_7/week7_task9.sol\":1006:1042  block.timestamp >= access.unlockTime */\n      lt\n      iszero\n        /* \"contracts/Blockchain_Assignment_7/week7_task9.sol\":998:1070  require(block.timestamp >= access.unlockTime, \"Access time not reached\") */\n      tag_30\n      jumpi\n      mload(0x40)\n      0x08c379a000000000000000000000000000000000000000000000000000000000\n      dup2\n      mstore\n      0x04\n      add\n      tag_31\n      swap1\n      tag_32\n      jump\t// in\n    tag_31:\n      mload(0x40)\n      dup1\n      swap2\n      sub\n      swap1\n      revert\n    tag_30:\n        /* \"contracts/Blockchain_Assignment_7/week7_task9.sol\":1113:1123  msg.sender */\n      caller\n        /* \"contracts/Blockchain_Assignment_7/week7_task9.sol\":1096:1149  FunctionExecuted(msg.sender, access.functionSelector) */\n      0xffffffffffffffffffffffffffffffffffffffff\n      and\n      0xc7235b2804cfd27089ac17d63ab0a824406f5ec0e68b20e60de0fe3f55efe7bb\n        /* \"contracts/Blockchain_Assignment_7/week7_task9.sol\":1125:1131  access */\n      dup3\n        /* \"contracts/Blockchain_Assignment_7/week7_task9.sol\":1125:1148  access.functionSelector */\n      0x40\n      add\n      mload\n        /* \"contracts/Blockchain_Assignment_7/week7_task9.sol\":1096:1149  FunctionExecuted(msg.sender, access.functionSelector) */\n      mload(0x40)\n      tag_33\n      swap2\n      swap1\n      tag_34\n      jump\t// in\n    tag_33:\n      mload(0x40)\n      dup1\n      swap2\n      sub\n      swap1\n      log2\n        /* \"contracts/Blockchain_Assignment_7/week7_task9.sol\":1167:1181  accessRegistry */\n      0x00\n        /* \"contracts/Blockchain_Assignment_7/week7_task9.sol\":1167:1193  accessRegistry[msg.sender] */\n      dup1\n        /* \"contracts/Blockchain_Assignment_7/week7_task9.sol\":1182:1192  msg.sender */\n      caller\n        /* \"contracts/Blockchain_Assignment_7/week7_task9.sol\":1167:1193  accessRegistry[msg.sender] */\n      0xffffffffffffffffffffffffffffffffffffffff\n      and\n      0xffffffffffffffffffffffffffffffffffffffff\n      and\n      dup2\n      mstore\n      0x20\n      add\n      swap1\n      dup2\n      mstore\n      0x20\n      add\n      0x00\n      keccak256\n      0x00\n        /* \"contracts/Blockchain_Assignment_7/week7_task9.sol\":1160:1193  delete accessRegistry[msg.sender] */\n      dup1\n      dup3\n      add\n      exp(0x0100, 0x00)\n      dup2\n      sload\n      swap1\n      0xffffffffffffffffffffffffffffffffffffffff\n      mul\n      not\n      and\n      swap1\n      sstore\n      0x01\n      dup3\n      add\n      0x00\n      swap1\n      sstore\n      0x02\n      dup3\n      add\n      exp(0x0100, 0x00)\n      dup2\n      sload\n      swap1\n      0xffffffff\n      mul\n      not\n      and\n      swap1\n      sstore\n      pop\n      pop\n        /* \"contracts/Blockchain_Assignment_7/week7_task9.sol\":861:1201  {... */\n      pop\n        /* \"contracts/Blockchain_Assignment_7/week7_task9.sol\":825:1201  function executeFunction() external {... */\n      jump\t// out\n        /* \"contracts/Blockchain_Assignment_7/week7_task9.sol\":204:252  mapping(address => Access) public accessRegistry */\n    tag_15:\n      mstore(0x20, 0x00)\n      dup1\n      0x00\n      mstore\n      keccak256(0x00, 0x40)\n      0x00\n      swap2\n      pop\n      swap1\n      pop\n      dup1\n      0x00\n      add\n      0x00\n      swap1\n      sload\n      swap1\n      0x0100\n      exp\n      swap1\n      div\n      0xffffffffffffffffffffffffffffffffffffffff\n      and\n      swap1\n      dup1\n      0x01\n      add\n      sload\n      swap1\n      dup1\n      0x02\n      add\n      0x00\n      swap1\n      sload\n      swap1\n      0x0100\n      exp\n      swap1\n      div\n      0xe0\n      shl\n      swap1\n      pop\n      dup4\n      jump\t// out\n        /* \"#utility.yul\":88:205   */\n    tag_36:\n        /* \"#utility.yul\":197:198   */\n      0x00\n        /* \"#utility.yul\":194:195   */\n      dup1\n        /* \"#utility.yul\":187:199   */\n      revert\n        /* \"#utility.yul\":334:411   */\n    tag_38:\n        /* \"#utility.yul\":371:378   */\n      0x00\n        /* \"#utility.yul\":400:405   */\n      dup2\n        /* \"#utility.yul\":389:405   */\n      swap1\n      pop\n        /* \"#utility.yul\":334:411   */\n      swap2\n      swap1\n      pop\n      jump\t// out\n        /* \"#utility.yul\":417:539   */\n    tag_39:\n        /* \"#utility.yul\":490:514   */\n      tag_65\n        /* \"#utility.yul\":508:513   */\n      dup2\n        /* \"#utility.yul\":490:514   */\n      tag_38\n      jump\t// in\n    tag_65:\n        /* \"#utility.yul\":483:488   */\n      dup2\n        /* \"#utility.yul\":480:515   */\n      eq\n        /* \"#utility.yul\":470:533   */\n      tag_66\n      jumpi\n        /* \"#utility.yul\":529:530   */\n      0x00\n        /* \"#utility.yul\":526:527   */\n      dup1\n        /* \"#utility.yul\":519:531   */\n      revert\n        /* \"#utility.yul\":470:533   */\n    tag_66:\n        /* \"#utility.yul\":417:539   */\n      pop\n      jump\t// out\n        /* \"#utility.yul\":545:684   */\n    tag_40:\n        /* \"#utility.yul\":591:596   */\n      0x00\n        /* \"#utility.yul\":629:635   */\n      dup2\n        /* \"#utility.yul\":616:636   */\n      calldataload\n        /* \"#utility.yul\":607:636   */\n      swap1\n      pop\n        /* \"#utility.yul\":645:678   */\n      tag_68\n        /* \"#utility.yul\":672:677   */\n      dup2\n        /* \"#utility.yul\":645:678   */\n      tag_39\n      jump\t// in\n    tag_68:\n        /* \"#utility.yul\":545:684   */\n      swap3\n      swap2\n      pop\n      pop\n      jump\t// out\n        /* \"#utility.yul\":690:839   */\n    tag_41:\n        /* \"#utility.yul\":726:733   */\n      0x00\n        /* \"#utility.yul\":766:832   */\n      0xffffffff00000000000000000000000000000000000000000000000000000000\n        /* \"#utility.yul\":759:764   */\n      dup3\n        /* \"#utility.yul\":755:833   */\n      and\n        /* \"#utility.yul\":744:833   */\n      swap1\n      pop\n        /* \"#utility.yul\":690:839   */\n      swap2\n      swap1\n      pop\n      jump\t// out\n        /* \"#utility.yul\":845:965   */\n    tag_42:\n        /* \"#utility.yul\":917:940   */\n      tag_71\n        /* \"#utility.yul\":934:939   */\n      dup2\n        /* \"#utility.yul\":917:940   */\n      tag_41\n      jump\t// in\n    tag_71:\n        /* \"#utility.yul\":910:915   */\n      dup2\n        /* \"#utility.yul\":907:941   */\n      eq\n        /* \"#utility.yul\":897:959   */\n      tag_72\n      jumpi\n        /* \"#utility.yul\":955:956   */\n      0x00\n        /* \"#utility.yul\":952:953   */\n      dup1\n        /* \"#utility.yul\":945:957   */\n      revert\n        /* \"#utility.yul\":897:959   */\n    tag_72:\n        /* \"#utility.yul\":845:965   */\n      pop\n      jump\t// out\n        /* \"#utility.yul\":971:1108   */\n    tag_43:\n        /* \"#utility.yul\":1016:1021   */\n      0x00\n        /* \"#utility.yul\":1054:1060   */\n      dup2\n        /* \"#utility.yul\":1041:1061   */\n      calldataload\n        /* \"#utility.yul\":1032:1061   */\n      swap1\n      pop\n        /* \"#utility.yul\":1070:1102   */\n      tag_74\n        /* \"#utility.yul\":1096:1101   */\n      dup2\n        /* \"#utility.yul\":1070:1102   */\n      tag_42\n      jump\t// in\n    tag_74:\n        /* \"#utility.yul\":971:1108   */\n      swap3\n      swap2\n      pop\n      pop\n      jump\t// out\n        /* \"#utility.yul\":1114:1586   */\n    tag_8:\n        /* \"#utility.yul\":1181:1187   */\n      0x00\n        /* \"#utility.yul\":1189:1195   */\n      dup1\n        /* \"#utility.yul\":1238:1240   */\n      0x40\n        /* \"#utility.yul\":1226:1235   */\n      dup4\n        /* \"#utility.yul\":1217:1224   */\n      dup6\n        /* \"#utility.yul\":1213:1236   */\n      sub\n        /* \"#utility.yul\":1209:1241   */\n      slt\n        /* \"#utility.yul\":1206:1325   */\n      iszero\n      tag_76\n      jumpi\n        /* \"#utility.yul\":1244:1323   */\n      tag_77\n      tag_36\n      jump\t// in\n    tag_77:\n        /* \"#utility.yul\":1206:1325   */\n    tag_76:\n        /* \"#utility.yul\":1364:1365   */\n      0x00\n        /* \"#utility.yul\":1389:1442   */\n      tag_78\n        /* \"#utility.yul\":1434:1441   */\n      dup6\n        /* \"#utility.yul\":1425:1431   */\n      dup3\n        /* \"#utility.yul\":1414:1423   */\n      dup7\n        /* \"#utility.yul\":1410:1432   */\n      add\n        /* \"#utility.yul\":1389:1442   */\n      tag_40\n      jump\t// in\n    tag_78:\n        /* \"#utility.yul\":1379:1442   */\n      swap3\n      pop\n        /* \"#utility.yul\":1335:1452   */\n      pop\n        /* \"#utility.yul\":1491:1493   */\n      0x20\n        /* \"#utility.yul\":1517:1569   */\n      tag_79\n        /* \"#utility.yul\":1561:1568   */\n      dup6\n        /* \"#utility.yul\":1552:1558   */\n      dup3\n        /* \"#utility.yul\":1541:1550   */\n      dup7\n        /* \"#utility.yul\":1537:1559   */\n      add\n        /* \"#utility.yul\":1517:1569   */\n      tag_43\n      jump\t// in\n    tag_79:\n        /* \"#utility.yul\":1507:1569   */\n      swap2\n      pop\n        /* \"#utility.yul\":1462:1579   */\n      pop\n        /* \"#utility.yul\":1114:1586   */\n      swap3\n      pop\n      swap3\n      swap1\n      pop\n      jump\t// out\n        /* \"#utility.yul\":1592:1718   */\n    tag_44:\n        /* \"#utility.yul\":1629:1636   */\n      0x00\n        /* \"#utility.yul\":1669:1711   */\n      0xffffffffffffffffffffffffffffffffffffffff\n        /* \"#utility.yul\":1662:1667   */\n      dup3\n        /* \"#utility.yul\":1658:1712   */\n      and\n        /* \"#utility.yul\":1647:1712   */\n      swap1\n      pop\n        /* \"#utility.yul\":1592:1718   */\n      swap2\n      swap1\n      pop\n      jump\t// out\n        /* \"#utility.yul\":1724:1820   */\n    tag_45:\n        /* \"#utility.yul\":1761:1768   */\n      0x00\n        /* \"#utility.yul\":1790:1814   */\n      tag_82\n        /* \"#utility.yul\":1808:1813   */\n      dup3\n        /* \"#utility.yul\":1790:1814   */\n      tag_44\n      jump\t// in\n    tag_82:\n        /* \"#utility.yul\":1779:1814   */\n      swap1\n      pop\n        /* \"#utility.yul\":1724:1820   */\n      swap2\n      swap1\n      pop\n      jump\t// out\n        /* \"#utility.yul\":1826:1948   */\n    tag_46:\n        /* \"#utility.yul\":1899:1923   */\n      tag_84\n        /* \"#utility.yul\":1917:1922   */\n      dup2\n        /* \"#utility.yul\":1899:1923   */\n      tag_45\n      jump\t// in\n    tag_84:\n        /* \"#utility.yul\":1892:1897   */\n      dup2\n        /* \"#utility.yul\":1889:1924   */\n      eq\n        /* \"#utility.yul\":1879:1942   */\n      tag_85\n      jumpi\n        /* \"#utility.yul\":1938:1939   */\n      0x00\n        /* \"#utility.yul\":1935:1936   */\n      dup1\n        /* \"#utility.yul\":1928:1940   */\n      revert\n        /* \"#utility.yul\":1879:1942   */\n    tag_85:\n        /* \"#utility.yul\":1826:1948   */\n      pop\n      jump\t// out\n        /* \"#utility.yul\":1954:2093   */\n    tag_47:\n        /* \"#utility.yul\":2000:2005   */\n      0x00\n        /* \"#utility.yul\":2038:2044   */\n      dup2\n        /* \"#utility.yul\":2025:2045   */\n      calldataload\n        /* \"#utility.yul\":2016:2045   */\n      swap1\n      pop\n        /* \"#utility.yul\":2054:2087   */\n      tag_87\n        /* \"#utility.yul\":2081:2086   */\n      dup2\n        /* \"#utility.yul\":2054:2087   */\n      tag_46\n      jump\t// in\n    tag_87:\n        /* \"#utility.yul\":1954:2093   */\n      swap3\n      swap2\n      pop\n      pop\n      jump\t// out\n        /* \"#utility.yul\":2099:2428   */\n    tag_14:\n        /* \"#utility.yul\":2158:2164   */\n      0x00\n        /* \"#utility.yul\":2207:2209   */\n      0x20\n        /* \"#utility.yul\":2195:2204   */\n      dup3\n        /* \"#utility.yul\":2186:2193   */\n      dup5\n        /* \"#utility.yul\":2182:2205   */\n      sub\n        /* \"#utility.yul\":2178:2210   */\n      slt\n        /* \"#utility.yul\":2175:2294   */\n      iszero\n      tag_89\n      jumpi\n        /* \"#utility.yul\":2213:2292   */\n      tag_90\n      tag_36\n      jump\t// in\n    tag_90:\n        /* \"#utility.yul\":2175:2294   */\n    tag_89:\n        /* \"#utility.yul\":2333:2334   */\n      0x00\n        /* \"#utility.yul\":2358:2411   */\n      tag_91\n        /* \"#utility.yul\":2403:2410   */\n      dup5\n        /* \"#utility.yul\":2394:2400   */\n      dup3\n        /* \"#utility.yul\":2383:2392   */\n      dup6\n        /* \"#utility.yul\":2379:2401   */\n      add\n        /* \"#utility.yul\":2358:2411   */\n      tag_47\n      jump\t// in\n    tag_91:\n        /* \"#utility.yul\":2348:2411   */\n      swap2\n      pop\n        /* \"#utility.yul\":2304:2421   */\n      pop\n        /* \"#utility.yul\":2099:2428   */\n      swap3\n      swap2\n      pop\n      pop\n      jump\t// out\n        /* \"#utility.yul\":2434:2552   */\n    tag_48:\n        /* \"#utility.yul\":2521:2545   */\n      tag_93\n        /* \"#utility.yul\":2539:2544   */\n      dup2\n        /* \"#utility.yul\":2521:2545   */\n      tag_45\n      jump\t// in\n    tag_93:\n        /* \"#utility.yul\":2516:2519   */\n      dup3\n        /* \"#utility.yul\":2509:2546   */\n      mstore\n        /* \"#utility.yul\":2434:2552   */\n      pop\n      pop\n      jump\t// out\n        /* \"#utility.yul\":2558:2676   */\n    tag_49:\n        /* \"#utility.yul\":2645:2669   */\n      tag_95\n        /* \"#utility.yul\":2663:2668   */\n      dup2\n        /* \"#utility.yul\":2645:2669   */\n      tag_38\n      jump\t// in\n    tag_95:\n        /* \"#utility.yul\":2640:2643   */\n      dup3\n        /* \"#utility.yul\":2633:2670   */\n      mstore\n        /* \"#utility.yul\":2558:2676   */\n      pop\n      pop\n      jump\t// out\n        /* \"#utility.yul\":2682:2797   */\n    tag_50:\n        /* \"#utility.yul\":2767:2790   */\n      tag_97\n        /* \"#utility.yul\":2784:2789   */\n      dup2\n        /* \"#utility.yul\":2767:2790   */\n      tag_41\n      jump\t// in\n    tag_97:\n        /* \"#utility.yul\":2762:2765   */\n      dup3\n        /* \"#utility.yul\":2755:2791   */\n      mstore\n        /* \"#utility.yul\":2682:2797   */\n      pop\n      pop\n      jump\t// out\n        /* \"#utility.yul\":2803:3241   */\n    tag_17:\n        /* \"#utility.yul\":2950:2954   */\n      0x00\n        /* \"#utility.yul\":2988:2990   */\n      0x60\n        /* \"#utility.yul\":2977:2986   */\n      dup3\n        /* \"#utility.yul\":2973:2991   */\n      add\n        /* \"#utility.yul\":2965:2991   */\n      swap1\n      pop\n        /* \"#utility.yul\":3001:3072   */\n      tag_99\n        /* \"#utility.yul\":3069:3070   */\n      0x00\n        /* \"#utility.yul\":3058:3067   */\n      dup4\n        /* \"#utility.yul\":3054:3071   */\n      add\n        /* \"#utility.yul\":3045:3051   */\n      dup7\n        /* \"#utility.yul\":3001:3072   */\n      tag_48\n      jump\t// in\n    tag_99:\n        /* \"#utility.yul\":3082:3154   */\n      tag_100\n        /* \"#utility.yul\":3150:3152   */\n      0x20\n        /* \"#utility.yul\":3139:3148   */\n      dup4\n        /* \"#utility.yul\":3135:3153   */\n      add\n        /* \"#utility.yul\":3126:3132   */\n      dup6\n        /* \"#utility.yul\":3082:3154   */\n      tag_49\n      jump\t// in\n    tag_100:\n        /* \"#utility.yul\":3164:3234   */\n      tag_101\n        /* \"#utility.yul\":3230:3232   */\n      0x40\n        /* \"#utility.yul\":3219:3228   */\n      dup4\n        /* \"#utility.yul\":3215:3233   */\n      add\n        /* \"#utility.yul\":3206:3212   */\n      dup5\n        /* \"#utility.yul\":3164:3234   */\n      tag_50\n      jump\t// in\n    tag_101:\n        /* \"#utility.yul\":2803:3241   */\n      swap5\n      swap4\n      pop\n      pop\n      pop\n      pop\n      jump\t// out\n        /* \"#utility.yul\":3247:3416   */\n    tag_51:\n        /* \"#utility.yul\":3331:3342   */\n      0x00\n        /* \"#utility.yul\":3365:3371   */\n      dup3\n        /* \"#utility.yul\":3360:3363   */\n      dup3\n        /* \"#utility.yul\":3353:3372   */\n      mstore\n        /* \"#utility.yul\":3405:3409   */\n      0x20\n        /* \"#utility.yul\":3400:3403   */\n      dup3\n        /* \"#utility.yul\":3396:3410   */\n      add\n        /* \"#utility.yul\":3381:3410   */\n      swap1\n      pop\n        /* \"#utility.yul\":3247:3416   */\n      swap3\n      swap2\n      pop\n      pop\n      jump\t// out\n        /* \"#utility.yul\":3422:3590   */\n    tag_52:\n        /* \"#utility.yul\":3562:3582   */\n      0x416c726561647920726567697374657265640000000000000000000000000000\n        /* \"#utility.yul\":3558:3559   */\n      0x00\n        /* \"#utility.yul\":3550:3556   */\n      dup3\n        /* \"#utility.yul\":3546:3560   */\n      add\n        /* \"#utility.yul\":3539:3583   */\n      mstore\n        /* \"#utility.yul\":3422:3590   */\n      pop\n      jump\t// out\n        /* \"#utility.yul\":3596:3962   */\n    tag_53:\n        /* \"#utility.yul\":3738:3741   */\n      0x00\n        /* \"#utility.yul\":3759:3826   */\n      tag_105\n        /* \"#utility.yul\":3823:3825   */\n      0x12\n        /* \"#utility.yul\":3818:3821   */\n      dup4\n        /* \"#utility.yul\":3759:3826   */\n      tag_51\n      jump\t// in\n    tag_105:\n        /* \"#utility.yul\":3752:3826   */\n      swap2\n      pop\n        /* \"#utility.yul\":3835:3928   */\n      tag_106\n        /* \"#utility.yul\":3924:3927   */\n      dup3\n        /* \"#utility.yul\":3835:3928   */\n      tag_52\n      jump\t// in\n    tag_106:\n        /* \"#utility.yul\":3953:3955   */\n      0x20\n        /* \"#utility.yul\":3948:3951   */\n      dup3\n        /* \"#utility.yul\":3944:3956   */\n      add\n        /* \"#utility.yul\":3937:3956   */\n      swap1\n      pop\n        /* \"#utility.yul\":3596:3962   */\n      swap2\n      swap1\n      pop\n      jump\t// out\n        /* \"#utility.yul\":3968:4387   */\n    tag_21:\n        /* \"#utility.yul\":4134:4138   */\n      0x00\n        /* \"#utility.yul\":4172:4174   */\n      0x20\n        /* \"#utility.yul\":4161:4170   */\n      dup3\n        /* \"#utility.yul\":4157:4175   */\n      add\n        /* \"#utility.yul\":4149:4175   */\n      swap1\n      pop\n        /* \"#utility.yul\":4221:4230   */\n      dup2\n        /* \"#utility.yul\":4215:4219   */\n      dup2\n        /* \"#utility.yul\":4211:4231   */\n      sub\n        /* \"#utility.yul\":4207:4208   */\n      0x00\n        /* \"#utility.yul\":4196:4205   */\n      dup4\n        /* \"#utility.yul\":4192:4209   */\n      add\n        /* \"#utility.yul\":4185:4232   */\n      mstore\n        /* \"#utility.yul\":4249:4380   */\n      tag_108\n        /* \"#utility.yul\":4375:4379   */\n      dup2\n        /* \"#utility.yul\":4249:4380   */\n      tag_53\n      jump\t// in\n    tag_108:\n        /* \"#utility.yul\":4241:4380   */\n      swap1\n      pop\n        /* \"#utility.yul\":3968:4387   */\n      swap2\n      swap1\n      pop\n      jump\t// out\n        /* \"#utility.yul\":4393:4573   */\n    tag_54:\n        /* \"#utility.yul\":4441:4518   */\n      0x4e487b7100000000000000000000000000000000000000000000000000000000\n        /* \"#utility.yul\":4438:4439   */\n      0x00\n        /* \"#utility.yul\":4431:4519   */\n      mstore\n        /* \"#utility.yul\":4538:4542   */\n      0x11\n        /* \"#utility.yul\":4535:4536   */\n      0x04\n        /* \"#utility.yul\":4528:4543   */\n      mstore\n        /* \"#utility.yul\":4562:4566   */\n      0x24\n        /* \"#utility.yul\":4559:4560   */\n      0x00\n        /* \"#utility.yul\":4552:4567   */\n      revert\n        /* \"#utility.yul\":4579:4770   */\n    tag_23:\n        /* \"#utility.yul\":4619:4622   */\n      0x00\n        /* \"#utility.yul\":4638:4658   */\n      tag_111\n        /* \"#utility.yul\":4656:4657   */\n      dup3\n        /* \"#utility.yul\":4638:4658   */\n      tag_38\n      jump\t// in\n    tag_111:\n        /* \"#utility.yul\":4633:4658   */\n      swap2\n      pop\n        /* \"#utility.yul\":4672:4692   */\n      tag_112\n        /* \"#utility.yul\":4690:4691   */\n      dup4\n        /* \"#utility.yul\":4672:4692   */\n      tag_38\n      jump\t// in\n    tag_112:\n        /* \"#utility.yul\":4667:4692   */\n      swap3\n      pop\n        /* \"#utility.yul\":4715:4716   */\n      dup3\n        /* \"#utility.yul\":4712:4713   */\n      dup3\n        /* \"#utility.yul\":4708:4717   */\n      add\n        /* \"#utility.yul\":4701:4717   */\n      swap1\n      pop\n        /* \"#utility.yul\":4736:4739   */\n      dup1\n        /* \"#utility.yul\":4733:4734   */\n      dup3\n        /* \"#utility.yul\":4730:4740   */\n      gt\n        /* \"#utility.yul\":4727:4763   */\n      iszero\n      tag_113\n      jumpi\n        /* \"#utility.yul\":4743:4761   */\n      tag_114\n      tag_54\n      jump\t// in\n    tag_114:\n        /* \"#utility.yul\":4727:4763   */\n    tag_113:\n        /* \"#utility.yul\":4579:4770   */\n      swap3\n      swap2\n      pop\n      pop\n      jump\t// out\n        /* \"#utility.yul\":4776:5104   */\n    tag_25:\n        /* \"#utility.yul\":4895:4899   */\n      0x00\n        /* \"#utility.yul\":4933:4935   */\n      0x40\n        /* \"#utility.yul\":4922:4931   */\n      dup3\n        /* \"#utility.yul\":4918:4936   */\n      add\n        /* \"#utility.yul\":4910:4936   */\n      swap1\n      pop\n        /* \"#utility.yul\":4946:5017   */\n      tag_116\n        /* \"#utility.yul\":5014:5015   */\n      0x00\n        /* \"#utility.yul\":5003:5012   */\n      dup4\n        /* \"#utility.yul\":4999:5016   */\n      add\n        /* \"#utility.yul\":4990:4996   */\n      dup6\n        /* \"#utility.yul\":4946:5017   */\n      tag_49\n      jump\t// in\n    tag_116:\n        /* \"#utility.yul\":5027:5097   */\n      tag_117\n        /* \"#utility.yul\":5093:5095   */\n      0x20\n        /* \"#utility.yul\":5082:5091   */\n      dup4\n        /* \"#utility.yul\":5078:5096   */\n      add\n        /* \"#utility.yul\":5069:5075   */\n      dup5\n        /* \"#utility.yul\":5027:5097   */\n      tag_50\n      jump\t// in\n    tag_117:\n        /* \"#utility.yul\":4776:5104   */\n      swap4\n      swap3\n      pop\n      pop\n      pop\n      jump\t// out\n        /* \"#utility.yul\":5110:5280   */\n    tag_55:\n        /* \"#utility.yul\":5250:5272   */\n      0x4e6f206163636573732072656769737465726564000000000000000000000000\n        /* \"#utility.yul\":5246:5247   */\n      0x00\n        /* \"#utility.yul\":5238:5244   */\n      dup3\n        /* \"#utility.yul\":5234:5248   */\n      add\n        /* \"#utility.yul\":5227:5273   */\n      mstore\n        /* \"#utility.yul\":5110:5280   */\n      pop\n      jump\t// out\n        /* \"#utility.yul\":5286:5652   */\n    tag_56:\n        /* \"#utility.yul\":5428:5431   */\n      0x00\n        /* \"#utility.yul\":5449:5516   */\n      tag_120\n        /* \"#utility.yul\":5513:5515   */\n      0x14\n        /* \"#utility.yul\":5508:5511   */\n      dup4\n        /* \"#utility.yul\":5449:5516   */\n      tag_51\n      jump\t// in\n    tag_120:\n        /* \"#utility.yul\":5442:5516   */\n      swap2\n      pop\n        /* \"#utility.yul\":5525:5618   */\n      tag_121\n        /* \"#utility.yul\":5614:5617   */\n      dup3\n        /* \"#utility.yul\":5525:5618   */\n      tag_55\n      jump\t// in\n    tag_121:\n        /* \"#utility.yul\":5643:5645   */\n      0x20\n        /* \"#utility.yul\":5638:5641   */\n      dup3\n        /* \"#utility.yul\":5634:5646   */\n      add\n        /* \"#utility.yul\":5627:5646   */\n      swap1\n      pop\n        /* \"#utility.yul\":5286:5652   */\n      swap2\n      swap1\n      pop\n      jump\t// out\n        /* \"#utility.yul\":5658:6077   */\n    tag_29:\n        /* \"#utility.yul\":5824:5828   */\n      0x00\n        /* \"#utility.yul\":5862:5864   */\n      0x20\n        /* \"#utility.yul\":5851:5860   */\n      dup3\n        /* \"#utility.yul\":5847:5865   */\n      add\n        /* \"#utility.yul\":5839:5865   */\n      swap1\n      pop\n        /* \"#utility.yul\":5911:5920   */\n      dup2\n        /* \"#utility.yul\":5905:5909   */\n      dup2\n        /* \"#utility.yul\":5901:5921   */\n      sub\n        /* \"#utility.yul\":5897:5898   */\n      0x00\n        /* \"#utility.yul\":5886:5895   */\n      dup4\n        /* \"#utility.yul\":5882:5899   */\n      add\n        /* \"#utility.yul\":5875:5922   */\n      mstore\n        /* \"#utility.yul\":5939:6070   */\n      tag_123\n        /* \"#utility.yul\":6065:6069   */\n      dup2\n        /* \"#utility.yul\":5939:6070   */\n      tag_56\n      jump\t// in\n    tag_123:\n        /* \"#utility.yul\":5931:6070   */\n      swap1\n      pop\n        /* \"#utility.yul\":5658:6077   */\n      swap2\n      swap1\n      pop\n      jump\t// out\n        /* \"#utility.yul\":6083:6256   */\n    tag_57:\n        /* \"#utility.yul\":6223:6248   */\n      0x4163636573732074696d65206e6f742072656163686564000000000000000000\n        /* \"#utility.yul\":6219:6220   */\n      0x00\n        /* \"#utility.yul\":6211:6217   */\n      dup3\n        /* \"#utility.yul\":6207:6221   */\n      add\n        /* \"#utility.yul\":6200:6249   */\n      mstore\n        /* \"#utility.yul\":6083:6256   */\n      pop\n      jump\t// out\n        /* \"#utility.yul\":6262:6628   */\n    tag_58:\n        /* \"#utility.yul\":6404:6407   */\n      0x00\n        /* \"#utility.yul\":6425:6492   */\n      tag_126\n        /* \"#utility.yul\":6489:6491   */\n      0x17\n        /* \"#utility.yul\":6484:6487   */\n      dup4\n        /* \"#utility.yul\":6425:6492   */\n      tag_51\n      jump\t// in\n    tag_126:\n        /* \"#utility.yul\":6418:6492   */\n      swap2\n      pop\n        /* \"#utility.yul\":6501:6594   */\n      tag_127\n        /* \"#utility.yul\":6590:6593   */\n      dup3\n        /* \"#utility.yul\":6501:6594   */\n      tag_57\n      jump\t// in\n    tag_127:\n        /* \"#utility.yul\":6619:6621   */\n      0x20\n        /* \"#utility.yul\":6614:6617   */\n      dup3\n        /* \"#utility.yul\":6610:6622   */\n      add\n        /* \"#utility.yul\":6603:6622   */\n      swap1\n      pop\n        /* \"#utility.yul\":6262:6628   */\n      swap2\n      swap1\n      pop\n      jump\t// out\n        /* \"#utility.yul\":6634:7053   */\n    tag_32:\n        /* \"#utility.yul\":6800:6804   */\n      0x00\n        /* \"#utility.yul\":6838:6840   */\n      0x20\n        /* \"#utility.yul\":6827:6836   */\n      dup3\n        /* \"#utility.yul\":6823:6841   */\n      add\n        /* \"#utility.yul\":6815:6841   */\n      swap1\n      pop\n        /* \"#utility.yul\":6887:6896   */\n      dup2\n        /* \"#utility.yul\":6881:6885   */\n      dup2\n        /* \"#utility.yul\":6877:6897   */\n      sub\n        /* \"#utility.yul\":6873:6874   */\n      0x00\n        /* \"#utility.yul\":6862:6871   */\n      dup4\n        /* \"#utility.yul\":6858:6875   */\n      add\n        /* \"#utility.yul\":6851:6898   */\n      mstore\n        /* \"#utility.yul\":6915:7046   */\n      tag_129\n        /* \"#utility.yul\":7041:7045   */\n      dup2\n        /* \"#utility.yul\":6915:7046   */\n      tag_58\n      jump\t// in\n    tag_129:\n        /* \"#utility.yul\":6907:7046   */\n      swap1\n      pop\n        /* \"#utility.yul\":6634:7053   */\n      swap2\n      swap1\n      pop\n      jump\t// out\n        /* \"#utility.yul\":7059:7277   */\n    tag_34:\n        /* \"#utility.yul\":7150:7154   */\n      0x00\n        /* \"#utility.yul\":7188:7190   */\n      0x20\n        /* \"#utility.yul\":7177:7186   */\n      dup3\n        /* \"#utility.yul\":7173:7191   */\n      add\n        /* \"#utility.yul\":7165:7191   */\n      swap1\n      pop\n        /* \"#utility.yul\":7201:7270   */\n      tag_131\n        /* \"#utility.yul\":7267:7268   */\n      0x00\n        /* \"#utility.yul\":7256:7265   */\n      dup4\n        /* \"#utility.yul\":7252:7269   */\n      add\n        /* \"#utility.yul\":7243:7249   */\n      dup5\n        /* \"#utility.yul\":7201:7270   */\n      tag_50\n      jump\t// in\n    tag_131:\n        /* \"#utility.yul\":7059:7277   */\n      swap3\n      swap2\n      pop\n      pop\n      jump\t// out\n\n    auxdata: 0xa2646970667358221220656ad9b8a55f70f99bb1f5278c96efad09553c2406aba5e12ffb0e8ce748e76764736f6c634300081a0033\n}\n",
				"bytecode": {
					"linkReferences": {},
					"object": "6080604052348015600e575f80fd5b506108fe8061001c5f395ff3fe608060405234801561000f575f80fd5b506004361061003f575f3560e01c8063aa90e70b14610043578063c3ddae261461005f578063effed8a414610069575b5f80fd5b61005d600480360381019061005891906105bb565b61009b565b005b610067610280565b005b610083600480360381019061007e9190610653565b6104df565b604051610092939291906106ab565b60405180910390f35b5f805f3373ffffffffffffffffffffffffffffffffffffffff1673ffffffffffffffffffffffffffffffffffffffff1681526020019081526020015f20600101541461011c576040517f08c379a00000000000000000000000000000000000000000000000000000000081526004016101139061073a565b60405180910390fd5b5f82426101299190610785565b905060405180606001604052803373ffffffffffffffffffffffffffffffffffffffff168152602001828152602001837bffffffffffffffffffffffffffffffffffffffffffffffffffffffff19168152505f803373ffffffffffffffffffffffffffffffffffffffff1673ffffffffffffffffffffffffffffffffffffffff1681526020019081526020015f205f820151815f015f6101000a81548173ffffffffffffffffffffffffffffffffffffffff021916908373ffffffffffffffffffffffffffffffffffffffff160217905550602082015181600101556040820151816002015f6101000a81548163ffffffff021916908360e01c02179055509050503373ffffffffffffffffffffffffffffffffffffffff167fa2b6dac065529a674914b83bb7776dbaebe1f40056b826d17142bbbac8fbda1682846040516102739291906107b8565b60405180910390a2505050565b5f805f3373ffffffffffffffffffffffffffffffffffffffff1673ffffffffffffffffffffffffffffffffffffffff1681526020019081526020015f206040518060600160405290815f82015f9054906101000a900473ffffffffffffffffffffffffffffffffffffffff1673ffffffffffffffffffffffffffffffffffffffff1673ffffffffffffffffffffffffffffffffffffffff16815260200160018201548152602001600282015f9054906101000a900460e01b7bffffffffffffffffffffffffffffffffffffffffffffffffffffffff19167bffffffffffffffffffffffffffffffffffffffffffffffffffffffff19168152505090505f8160200151036103c2576040517f08c379a00000000000000000000000000000000000000000000000000000000081526004016103b990610829565b60405180910390fd5b8060200151421015610409576040517f08c379a000000000000000000000000000000000000000000000000000000000815260040161040090610891565b60405180910390fd5b3373ffffffffffffffffffffffffffffffffffffffff167fc7235b2804cfd27089ac17d63ab0a824406f5ec0e68b20e60de0fe3f55efe7bb826040015160405161045391906108af565b60405180910390a25f803373ffffffffffffffffffffffffffffffffffffffff1673ffffffffffffffffffffffffffffffffffffffff1681526020019081526020015f205f8082015f6101000a81549073ffffffffffffffffffffffffffffffffffffffff0219169055600182015f9055600282015f6101000a81549063ffffffff0219169055505050565b5f602052805f5260405f205f91509050805f015f9054906101000a900473ffffffffffffffffffffffffffffffffffffffff1690806001015490806002015f9054906101000a900460e01b905083565b5f80fd5b5f819050919050565b61054581610533565b811461054f575f80fd5b50565b5f813590506105608161053c565b92915050565b5f7fffffffff0000000000000000000000000000000000000000000000000000000082169050919050565b61059a81610566565b81146105a4575f80fd5b50565b5f813590506105b581610591565b92915050565b5f80604083850312156105d1576105d061052f565b5b5f6105de85828601610552565b92505060206105ef858286016105a7565b9150509250929050565b5f73ffffffffffffffffffffffffffffffffffffffff82169050919050565b5f610622826105f9565b9050919050565b61063281610618565b811461063c575f80fd5b50565b5f8135905061064d81610629565b92915050565b5f602082840312156106685761066761052f565b5b5f6106758482850161063f565b91505092915050565b61068781610618565b82525050565b61069681610533565b82525050565b6106a581610566565b82525050565b5f6060820190506106be5f83018661067e565b6106cb602083018561068d565b6106d8604083018461069c565b949350505050565b5f82825260208201905092915050565b7f416c7265616479207265676973746572656400000000000000000000000000005f82015250565b5f6107246012836106e0565b915061072f826106f0565b602082019050919050565b5f6020820190508181035f83015261075181610718565b9050919050565b7f4e487b71000000000000000000000000000000000000000000000000000000005f52601160045260245ffd5b5f61078f82610533565b915061079a83610533565b92508282019050808211156107b2576107b1610758565b5b92915050565b5f6040820190506107cb5f83018561068d565b6107d8602083018461069c565b9392505050565b7f4e6f2061636365737320726567697374657265640000000000000000000000005f82015250565b5f6108136014836106e0565b915061081e826107df565b602082019050919050565b5f6020820190508181035f83015261084081610807565b9050919050565b7f4163636573732074696d65206e6f7420726561636865640000000000000000005f82015250565b5f61087b6017836106e0565b915061088682610847565b602082019050919050565b5f6020820190508181035f8301526108a88161086f565b9050919050565b5f6020820190506108c25f83018461069c565b9291505056fea2646970667358221220656ad9b8a55f70f99bb1f5278c96efad09553c2406aba5e12ffb0e8ce748e76764736f6c634300081a0033",
					"opcodes": "PUSH1 0x80 PUSH1 0x40 MSTORE CALLVALUE DUP1 ISZERO PUSH1 0xE JUMPI PUSH0 DUP1 REVERT JUMPDEST POP PUSH2 0x8FE DUP1 PUSH2 0x1C PUSH0 CODECOPY PUSH0 RETURN INVALID PUSH1 0x80 PUSH1 0x40 MSTORE CALLVALUE DUP1 ISZERO PUSH2 0xF JUMPI PUSH0 DUP1 REVERT JUMPDEST POP PUSH1 0x4 CALLDATASIZE LT PUSH2 0x3F JUMPI PUSH0 CALLDATALOAD PUSH1 0xE0 SHR DUP1 PUSH4 0xAA90E70B EQ PUSH2 0x43 JUMPI DUP1 PUSH4 0xC3DDAE26 EQ PUSH2 0x5F JUMPI DUP1 PUSH4 0xEFFED8A4 EQ PUSH2 0x69 JUMPI JUMPDEST PUSH0 DUP1 REVERT JUMPDEST PUSH2 0x5D PUSH1 0x4 DUP1 CALLDATASIZE SUB DUP2 ADD SWAP1 PUSH2 0x58 SWAP2 SWAP1 PUSH2 0x5BB JUMP JUMPDEST PUSH2 0x9B JUMP JUMPDEST STOP JUMPDEST PUSH2 0x67 PUSH2 0x280 JUMP JUMPDEST STOP JUMPDEST PUSH2 0x83 PUSH1 0x4 DUP1 CALLDATASIZE SUB DUP2 ADD SWAP1 PUSH2 0x7E SWAP2 SWAP1 PUSH2 0x653 JUMP JUMPDEST PUSH2 0x4DF JUMP JUMPDEST PUSH1 0x40 MLOAD PUSH2 0x92 SWAP4 SWAP3 SWAP2 SWAP1 PUSH2 0x6AB JUMP JUMPDEST PUSH1 0x40 MLOAD DUP1 SWAP2 SUB SWAP1 RETURN JUMPDEST PUSH0 DUP1 PUSH0 CALLER PUSH20 0xFFFFFFFFFFFFFFFFFFFFFFFFFFFFFFFFFFFFFFFF AND PUSH20 0xFFFFFFFFFFFFFFFFFFFFFFFFFFFFFFFFFFFFFFFF AND DUP2 MSTORE PUSH1 0x20 ADD SWAP1 DUP2 MSTORE PUSH1 0x20 ADD PUSH0 KECCAK256 PUSH1 0x1 ADD SLOAD EQ PUSH2 0x11C JUMPI PUSH1 0x40 MLOAD PUSH32 0x8C379A000000000000000000000000000000000000000000000000000000000 DUP2 MSTORE PUSH1 0x4 ADD PUSH2 0x113 SWAP1 PUSH2 0x73A JUMP JUMPDEST PUSH1 0x40 MLOAD DUP1 SWAP2 SUB SWAP1 REVERT JUMPDEST PUSH0 DUP3 TIMESTAMP PUSH2 0x129 SWAP2 SWAP1 PUSH2 0x785 JUMP JUMPDEST SWAP1 POP PUSH1 0x40 MLOAD DUP1 PUSH1 0x60 ADD PUSH1 0x40 MSTORE DUP1 CALLER PUSH20 0xFFFFFFFFFFFFFFFFFFFFFFFFFFFFFFFFFFFFFFFF AND DUP2 MSTORE PUSH1 0x20 ADD DUP3 DUP2 MSTORE PUSH1 0x20 ADD DUP4 PUSH28 0xFFFFFFFFFFFFFFFFFFFFFFFFFFFFFFFFFFFFFFFFFFFFFFFFFFFFFFFF NOT AND DUP2 MSTORE POP PUSH0 DUP1 CALLER PUSH20 0xFFFFFFFFFFFFFFFFFFFFFFFFFFFFFFFFFFFFFFFF AND PUSH20 0xFFFFFFFFFFFFFFFFFFFFFFFFFFFFFFFFFFFFFFFF AND DUP2 MSTORE PUSH1 0x20 ADD SWAP1 DUP2 MSTORE PUSH1 0x20 ADD PUSH0 KECCAK256 PUSH0 DUP3 ADD MLOAD DUP2 PUSH0 ADD PUSH0 PUSH2 0x100 EXP DUP2 SLOAD DUP2 PUSH20 0xFFFFFFFFFFFFFFFFFFFFFFFFFFFFFFFFFFFFFFFF MUL NOT AND SWAP1 DUP4 PUSH20 0xFFFFFFFFFFFFFFFFFFFFFFFFFFFFFFFFFFFFFFFF AND MUL OR SWAP1 SSTORE POP PUSH1 0x20 DUP3 ADD MLOAD DUP2 PUSH1 0x1 ADD SSTORE PUSH1 0x40 DUP3 ADD MLOAD DUP2 PUSH1 0x2 ADD PUSH0 PUSH2 0x100 EXP DUP2 SLOAD DUP2 PUSH4 0xFFFFFFFF MUL NOT AND SWAP1 DUP4 PUSH1 0xE0 SHR MUL OR SWAP1 SSTORE POP SWAP1 POP POP CALLER PUSH20 0xFFFFFFFFFFFFFFFFFFFFFFFFFFFFFFFFFFFFFFFF AND PUSH32 0xA2B6DAC065529A674914B83BB7776DBAEBE1F40056B826D17142BBBAC8FBDA16 DUP3 DUP5 PUSH1 0x40 MLOAD PUSH2 0x273 SWAP3 SWAP2 SWAP1 PUSH2 0x7B8 JUMP JUMPDEST PUSH1 0x40 MLOAD DUP1 SWAP2 SUB SWAP1 LOG2 POP POP POP JUMP JUMPDEST PUSH0 DUP1 PUSH0 CALLER PUSH20 0xFFFFFFFFFFFFFFFFFFFFFFFFFFFFFFFFFFFFFFFF AND PUSH20 0xFFFFFFFFFFFFFFFFFFFFFFFFFFFFFFFFFFFFFFFF AND DUP2 MSTORE PUSH1 0x20 ADD SWAP1 DUP2 MSTORE PUSH1 0x20 ADD PUSH0 KECCAK256 PUSH1 0x40 MLOAD DUP1 PUSH1 0x60 ADD PUSH1 0x40 MSTORE SWAP1 DUP2 PUSH0 DUP3 ADD PUSH0 SWAP1 SLOAD SWAP1 PUSH2 0x100 EXP SWAP1 DIV PUSH20 0xFFFFFFFFFFFFFFFFFFFFFFFFFFFFFFFFFFFFFFFF AND PUSH20 0xFFFFFFFFFFFFFFFFFFFFFFFFFFFFFFFFFFFFFFFF AND PUSH20 0xFFFFFFFFFFFFFFFFFFFFFFFFFFFFFFFFFFFFFFFF AND DUP2 MSTORE PUSH1 0x20 ADD PUSH1 0x1 DUP3 ADD SLOAD DUP2 MSTORE PUSH1 0x20 ADD PUSH1 0x2 DUP3 ADD PUSH0 SWAP1 SLOAD SWAP1 PUSH2 0x100 EXP SWAP1 DIV PUSH1 0xE0 SHL PUSH28 0xFFFFFFFFFFFFFFFFFFFFFFFFFFFFFFFFFFFFFFFFFFFFFFFFFFFFFFFF NOT AND PUSH28 0xFFFFFFFFFFFFFFFFFFFFFFFFFFFFFFFFFFFFFFFFFFFFFFFFFFFFFFFF NOT AND DUP2 MSTORE POP POP SWAP1 POP PUSH0 DUP2 PUSH1 0x20 ADD MLOAD SUB PUSH2 0x3C2 JUMPI PUSH1 0x40 MLOAD PUSH32 0x8C379A000000000000000000000000000000000000000000000000000000000 DUP2 MSTORE PUSH1 0x4 ADD PUSH2 0x3B9 SWAP1 PUSH2 0x829 JUMP JUMPDEST PUSH1 0x40 MLOAD DUP1 SWAP2 SUB SWAP1 REVERT JUMPDEST DUP1 PUSH1 0x20 ADD MLOAD TIMESTAMP LT ISZERO PUSH2 0x409 JUMPI PUSH1 0x40 MLOAD PUSH32 0x8C379A000000000000000000000000000000000000000000000000000000000 DUP2 MSTORE PUSH1 0x4 ADD PUSH2 0x400 SWAP1 PUSH2 0x891 JUMP JUMPDEST PUSH1 0x40 MLOAD DUP1 SWAP2 SUB SWAP1 REVERT JUMPDEST CALLER PUSH20 0xFFFFFFFFFFFFFFFFFFFFFFFFFFFFFFFFFFFFFFFF AND PUSH32 0xC7235B2804CFD27089AC17D63AB0A824406F5EC0E68B20E60DE0FE3F55EFE7BB DUP3 PUSH1 0x40 ADD MLOAD PUSH1 0x40 MLOAD PUSH2 0x453 SWAP2 SWAP1 PUSH2 0x8AF JUMP JUMPDEST PUSH1 0x40 MLOAD DUP1 SWAP2 SUB SWAP1 LOG2 PUSH0 DUP1 CALLER PUSH20 0xFFFFFFFFFFFFFFFFFFFFFFFFFFFFFFFFFFFFFFFF AND PUSH20 0xFFFFFFFFFFFFFFFFFFFFFFFFFFFFFFFFFFFFFFFF AND DUP2 MSTORE PUSH1 0x20 ADD SWAP1 DUP2 MSTORE PUSH1 0x20 ADD PUSH0 KECCAK256 PUSH0 DUP1 DUP3 ADD PUSH0 PUSH2 0x100 EXP DUP2 SLOAD SWAP1 PUSH20 0xFFFFFFFFFFFFFFFFFFFFFFFFFFFFFFFFFFFFFFFF MUL NOT AND SWAP1 SSTORE PUSH1 0x1 DUP3 ADD PUSH0 SWAP1 SSTORE PUSH1 0x2 DUP3 ADD PUSH0 PUSH2 0x100 EXP DUP2 SLOAD SWAP1 PUSH4 0xFFFFFFFF MUL NOT AND SWAP1 SSTORE POP POP POP JUMP JUMPDEST PUSH0 PUSH1 0x20 MSTORE DUP1 PUSH0 MSTORE PUSH1 0x40 PUSH0 KECCAK256 PUSH0 SWAP2 POP SWAP1 POP DUP1 PUSH0 ADD PUSH0 SWAP1 SLOAD SWAP1 PUSH2 0x100 EXP SWAP1 DIV PUSH20 0xFFFFFFFFFFFFFFFFFFFFFFFFFFFFFFFFFFFFFFFF AND SWAP1 DUP1 PUSH1 0x1 ADD SLOAD SWAP1 DUP1 PUSH1 0x2 ADD PUSH0 SWAP1 SLOAD SWAP1 PUSH2 0x100 EXP SWAP1 DIV PUSH1 0xE0 SHL SWAP1 POP DUP4 JUMP JUMPDEST PUSH0 DUP1 REVERT JUMPDEST PUSH0 DUP2 SWAP1 POP SWAP2 SWAP1 POP JUMP JUMPDEST PUSH2 0x545 DUP2 PUSH2 0x533 JUMP JUMPDEST DUP2 EQ PUSH2 0x54F JUMPI PUSH0 DUP1 REVERT JUMPDEST POP JUMP JUMPDEST PUSH0 DUP2 CALLDATALOAD SWAP1 POP PUSH2 0x560 DUP2 PUSH2 0x53C JUMP JUMPDEST SWAP3 SWAP2 POP POP JUMP JUMPDEST PUSH0 PUSH32 0xFFFFFFFF00000000000000000000000000000000000000000000000000000000 DUP3 AND SWAP1 POP SWAP2 SWAP1 POP JUMP JUMPDEST PUSH2 0x59A DUP2 PUSH2 0x566 JUMP JUMPDEST DUP2 EQ PUSH2 0x5A4 JUMPI PUSH0 DUP1 REVERT JUMPDEST POP JUMP JUMPDEST PUSH0 DUP2 CALLDATALOAD SWAP1 POP PUSH2 0x5B5 DUP2 PUSH2 0x591 JUMP JUMPDEST SWAP3 SWAP2 POP POP JUMP JUMPDEST PUSH0 DUP1 PUSH1 0x40 DUP4 DUP6 SUB SLT ISZERO PUSH2 0x5D1 JUMPI PUSH2 0x5D0 PUSH2 0x52F JUMP JUMPDEST JUMPDEST PUSH0 PUSH2 0x5DE DUP6 DUP3 DUP7 ADD PUSH2 0x552 JUMP JUMPDEST SWAP3 POP POP PUSH1 0x20 PUSH2 0x5EF DUP6 DUP3 DUP7 ADD PUSH2 0x5A7 JUMP JUMPDEST SWAP2 POP POP SWAP3 POP SWAP3 SWAP1 POP JUMP JUMPDEST PUSH0 PUSH20 0xFFFFFFFFFFFFFFFFFFFFFFFFFFFFFFFFFFFFFFFF DUP3 AND SWAP1 POP SWAP2 SWAP1 POP JUMP JUMPDEST PUSH0 PUSH2 0x622 DUP3 PUSH2 0x5F9 JUMP JUMPDEST SWAP1 POP SWAP2 SWAP1 POP JUMP JUMPDEST PUSH2 0x632 DUP2 PUSH2 0x618 JUMP JUMPDEST DUP2 EQ PUSH2 0x63C JUMPI PUSH0 DUP1 REVERT JUMPDEST POP JUMP JUMPDEST PUSH0 DUP2 CALLDATALOAD SWAP1 POP PUSH2 0x64D DUP2 PUSH2 0x629 JUMP JUMPDEST SWAP3 SWAP2 POP POP JUMP JUMPDEST PUSH0 PUSH1 0x20 DUP3 DUP5 SUB SLT ISZERO PUSH2 0x668 JUMPI PUSH2 0x667 PUSH2 0x52F JUMP JUMPDEST JUMPDEST PUSH0 PUSH2 0x675 DUP5 DUP3 DUP6 ADD PUSH2 0x63F JUMP JUMPDEST SWAP2 POP POP SWAP3 SWAP2 POP POP JUMP JUMPDEST PUSH2 0x687 DUP2 PUSH2 0x618 JUMP JUMPDEST DUP3 MSTORE POP POP JUMP JUMPDEST PUSH2 0x696 DUP2 PUSH2 0x533 JUMP JUMPDEST DUP3 MSTORE POP POP JUMP JUMPDEST PUSH2 0x6A5 DUP2 PUSH2 0x566 JUMP JUMPDEST DUP3 MSTORE POP POP JUMP JUMPDEST PUSH0 PUSH1 0x60 DUP3 ADD SWAP1 POP PUSH2 0x6BE PUSH0 DUP4 ADD DUP7 PUSH2 0x67E JUMP JUMPDEST PUSH2 0x6CB PUSH1 0x20 DUP4 ADD DUP6 PUSH2 0x68D JUMP JUMPDEST PUSH2 0x6D8 PUSH1 0x40 DUP4 ADD DUP5 PUSH2 0x69C JUMP JUMPDEST SWAP5 SWAP4 POP POP POP POP JUMP JUMPDEST PUSH0 DUP3 DUP3 MSTORE PUSH1 0x20 DUP3 ADD SWAP1 POP SWAP3 SWAP2 POP POP JUMP JUMPDEST PUSH32 0x416C726561647920726567697374657265640000000000000000000000000000 PUSH0 DUP3 ADD MSTORE POP JUMP JUMPDEST PUSH0 PUSH2 0x724 PUSH1 0x12 DUP4 PUSH2 0x6E0 JUMP JUMPDEST SWAP2 POP PUSH2 0x72F DUP3 PUSH2 0x6F0 JUMP JUMPDEST PUSH1 0x20 DUP3 ADD SWAP1 POP SWAP2 SWAP1 POP JUMP JUMPDEST PUSH0 PUSH1 0x20 DUP3 ADD SWAP1 POP DUP2 DUP2 SUB PUSH0 DUP4 ADD MSTORE PUSH2 0x751 DUP2 PUSH2 0x718 JUMP JUMPDEST SWAP1 POP SWAP2 SWAP1 POP JUMP JUMPDEST PUSH32 0x4E487B7100000000000000000000000000000000000000000000000000000000 PUSH0 MSTORE PUSH1 0x11 PUSH1 0x4 MSTORE PUSH1 0x24 PUSH0 REVERT JUMPDEST PUSH0 PUSH2 0x78F DUP3 PUSH2 0x533 JUMP JUMPDEST SWAP2 POP PUSH2 0x79A DUP4 PUSH2 0x533 JUMP JUMPDEST SWAP3 POP DUP3 DUP3 ADD SWAP1 POP DUP1 DUP3 GT ISZERO PUSH2 0x7B2 JUMPI PUSH2 0x7B1 PUSH2 0x758 JUMP JUMPDEST JUMPDEST SWAP3 SWAP2 POP POP JUMP JUMPDEST PUSH0 PUSH1 0x40 DUP3 ADD SWAP1 POP PUSH2 0x7CB PUSH0 DUP4 ADD DUP6 PUSH2 0x68D JUMP JUMPDEST PUSH2 0x7D8 PUSH1 0x20 DUP4 ADD DUP5 PUSH2 0x69C JUMP JUMPDEST SWAP4 SWAP3 POP POP POP JUMP JUMPDEST PUSH32 0x4E6F206163636573732072656769737465726564000000000000000000000000 PUSH0 DUP3 ADD MSTORE POP JUMP JUMPDEST PUSH0 PUSH2 0x813 PUSH1 0x14 DUP4 PUSH2 0x6E0 JUMP JUMPDEST SWAP2 POP PUSH2 0x81E DUP3 PUSH2 0x7DF JUMP JUMPDEST PUSH1 0x20 DUP3 ADD SWAP1 POP SWAP2 SWAP1 POP JUMP JUMPDEST PUSH0 PUSH1 0x20 DUP3 ADD SWAP1 POP DUP2 DUP2 SUB PUSH0 DUP4 ADD MSTORE PUSH2 0x840 DUP2 PUSH2 0x807 JUMP JUMPDEST SWAP1 POP SWAP2 SWAP1 POP JUMP JUMPDEST PUSH32 0x4163636573732074696D65206E6F742072656163686564000000000000000000 PUSH0 DUP3 ADD MSTORE POP JUMP JUMPDEST PUSH0 PUSH2 0x87B PUSH1 0x17 DUP4 PUSH2 0x6E0 JUMP JUMPDEST SWAP2 POP PUSH2 0x886 DUP3 PUSH2 0x847 JUMP JUMPDEST PUSH1 0x20 DUP3 ADD SWAP1 POP SWAP2 SWAP1 POP JUMP JUMPDEST PUSH0 PUSH1 0x20 DUP3 ADD SWAP1 POP DUP2 DUP2 SUB PUSH0 DUP4 ADD MSTORE PUSH2 0x8A8 DUP2 PUSH2 0x86F JUMP JUMPDEST SWAP1 POP SWAP2 SWAP1 POP JUMP JUMPDEST PUSH0 PUSH1 0x20 DUP3 ADD SWAP1 POP PUSH2 0x8C2 PUSH0 DUP4 ADD DUP5 PUSH2 0x69C JUMP JUMPDEST SWAP3 SWAP2 POP POP JUMP INVALID LOG2 PUSH5 0x6970667358 0x22 SLT KECCAK256 PUSH6 0x6AD9B8A55F70 0xF9 SWAP12 0xB1 CREATE2 0x27 DUP13 SWAP7 0xEF 0xAD MULMOD SSTORE EXTCODECOPY 0x24 MOD 0xAB 0xA5 0xE1 0x2F 0xFB 0xE DUP13 0xE7 BASEFEE 0xE7 PUSH8 0x64736F6C63430008 BYTE STOP CALLER "
				},
				"gasEstimates": {
					"creation": {
						"codeDepositCost": "460400",
						"executionCost": "491",
						"totalCost": "460891"
					},
					"external": {
						"accessRegistry(address)": "infinite",
						"executeFunction()": "61993",
						"registerAccess(uint256,bytes4)": "infinite"
					}
				},
				"methodIdentifiers": {
					"accessRegistry(address)": "effed8a4",
					"executeFunction()": "c3ddae26",
					"registerAccess(uint256,bytes4)": "aa90e70b"
				}
			},
			"storageLayout": {
				"storage": [
					{
						"astId": 13,
						"contract": "contracts/Blockchain_Assignment_7/week7_task9.sol:TimedAccess",
						"label": "accessRegistry",
						"offset": 0,
						"slot": "0",
						"type": "t_mapping(t_address,t_struct(Access)8_storage)"
					}
				],
				"types": {
					"t_address": {
						"encoding": "inplace",
						"label": "address",
						"numberOfBytes": "20"
					},
					"t_bytes4": {
						"encoding": "inplace",
						"label": "bytes4",
						"numberOfBytes": "4"
					},
					"t_mapping(t_address,t_struct(Access)8_storage)": {
						"encoding": "mapping",
						"key": "t_address",
						"label": "mapping(address => struct TimedAccess.Access)",
						"numberOfBytes": "32",
						"value": "t_struct(Access)8_storage"
					},
					"t_struct(Access)8_storage": {
						"encoding": "inplace",
						"label": "struct TimedAccess.Access",
						"members": [
							{
								"astId": 3,
								"contract": "contracts/Blockchain_Assignment_7/week7_task9.sol:TimedAccess",
								"label": "user",
								"offset": 0,
								"slot": "0",
								"type": "t_address"
							},
							{
								"astId": 5,
								"contract": "contracts/Blockchain_Assignment_7/week7_task9.sol:TimedAccess",
								"label": "unlockTime",
								"offset": 0,
								"slot": "1",
								"type": "t_uint256"
							},
							{
								"astId": 7,
								"contract": "contracts/Blockchain_Assignment_7/week7_task9.sol:TimedAccess",
								"label": "functionSelector",
								"offset": 0,
								"slot": "2",
								"type": "t_bytes4"
							}
						],
						"numberOfBytes": "96"
					},
					"t_uint256": {
						"encoding": "inplace",
						"label": "uint256",
						"numberOfBytes": "32"
					}
				}
			},
			"userdoc": {
				"kind": "user",
				"methods": {},
				"version": 1
			}
		}
	}
}