{
	"contracts/Blockchain_Assignment_7/week7_task7.sol": {
		"ArrayStatsUser": {
			"abi": [
				{
					"inputs": [],
					"name": "testArrayStats",
					"outputs": [
						{
							"internalType": "uint256",
							"name": "",
							"type": "uint256"
						},
						{
							"internalType": "uint256",
							"name": "",
							"type": "uint256"
						},
						{
							"internalType": "uint256[]",
							"name": "",
							"type": "uint256[]"
						}
					],
					"stateMutability": "pure",
					"type": "function"
				}
			],
			"devdoc": {
				"kind": "dev",
				"methods": {},
				"version": 1
			},
			"evm": {
				"assembly": "    /* \"contracts/Blockchain_Assignment_7/week7_task7.sol\":2758:3278  contract ArrayStatsUser {... */\n  mstore(0x40, 0x80)\n  callvalue\n  dup1\n  iszero\n  tag_1\n  jumpi\n  0x00\n  dup1\n  revert\ntag_1:\n  pop\n  dataSize(sub_0)\n  dup1\n  dataOffset(sub_0)\n  0x00\n  codecopy\n  0x00\n  return\nstop\n\nsub_0: assembly {\n        /* \"contracts/Blockchain_Assignment_7/week7_task7.sol\":2758:3278  contract ArrayStatsUser {... */\n      mstore(0x40, 0x80)\n      callvalue\n      dup1\n      iszero\n      tag_1\n      jumpi\n      0x00\n      dup1\n      revert\n    tag_1:\n      pop\n      jumpi(tag_2, lt(calldatasize, 0x04))\n      shr(0xe0, calldataload(0x00))\n      dup1\n      0xdc5de104\n      eq\n      tag_3\n      jumpi\n    tag_2:\n      0x00\n      dup1\n      revert\n        /* \"contracts/Blockchain_Assignment_7/week7_task7.sol\":2831:3275  function testArrayStats() external pure returns (uint256, uint256, uint256[] memory) {... */\n    tag_3:\n      tag_4\n      tag_5\n      jump\t// in\n    tag_4:\n      mload(0x40)\n      tag_6\n      swap4\n      swap3\n      swap2\n      swap1\n      tag_7\n      jump\t// in\n    tag_6:\n      mload(0x40)\n      dup1\n      swap2\n      sub\n      swap1\n      return\n    tag_5:\n        /* \"contracts/Blockchain_Assignment_7/week7_task7.sol\":2880:2887  uint256 */\n      0x00\n        /* \"contracts/Blockchain_Assignment_7/week7_task7.sol\":2889:2896  uint256 */\n      dup1\n        /* \"contracts/Blockchain_Assignment_7/week7_task7.sol\":2898:2914  uint256[] memory */\n      0x60\n        /* \"contracts/Blockchain_Assignment_7/week7_task7.sol\":2927:2951  uint256[] memory numbers */\n      0x00\n        /* \"contracts/Blockchain_Assignment_7/week7_task7.sol\":2968:2969  5 */\n      0x05\n        /* \"contracts/Blockchain_Assignment_7/week7_task7.sol\":2954:2970  new uint256[](5) */\n      0xffffffffffffffff\n      dup2\n      gt\n      iszero\n      tag_9\n      jumpi\n      tag_10\n      tag_11\n      jump\t// in\n    tag_10:\n    tag_9:\n      mload(0x40)\n      swap1\n      dup1\n      dup3\n      mstore\n      dup1\n      0x20\n      mul\n      0x20\n      add\n      dup3\n      add\n      0x40\n      mstore\n      dup1\n      iszero\n      tag_12\n      jumpi\n      dup2\n      0x20\n      add\n      0x20\n      dup3\n      mul\n      dup1\n      calldatasize\n      dup4\n      calldatacopy\n      dup1\n      dup3\n      add\n      swap2\n      pop\n      pop\n      swap1\n      pop\n    tag_12:\n      pop\n        /* \"contracts/Blockchain_Assignment_7/week7_task7.sol\":2927:2970  uint256[] memory numbers = new uint256[](5) */\n      swap1\n      pop\n        /* \"contracts/Blockchain_Assignment_7/week7_task7.sol\":2994:2995  4 */\n      0x04\n        /* \"contracts/Blockchain_Assignment_7/week7_task7.sol\":2981:2988  numbers */\n      dup2\n        /* \"contracts/Blockchain_Assignment_7/week7_task7.sol\":2989:2990  0 */\n      0x00\n        /* \"contracts/Blockchain_Assignment_7/week7_task7.sol\":2981:2991  numbers[0] */\n      dup2\n      mload\n      dup2\n      lt\n      tag_13\n      jumpi\n      tag_14\n      tag_15\n      jump\t// in\n    tag_14:\n    tag_13:\n      0x20\n      mul\n      0x20\n      add\n      add\n        /* \"contracts/Blockchain_Assignment_7/week7_task7.sol\":2981:2995  numbers[0] = 4 */\n      dup2\n      dup2\n      mstore\n      pop\n      pop\n        /* \"contracts/Blockchain_Assignment_7/week7_task7.sol\":3019:3020  2 */\n      0x02\n        /* \"contracts/Blockchain_Assignment_7/week7_task7.sol\":3006:3013  numbers */\n      dup2\n        /* \"contracts/Blockchain_Assignment_7/week7_task7.sol\":3014:3015  1 */\n      0x01\n        /* \"contracts/Blockchain_Assignment_7/week7_task7.sol\":3006:3016  numbers[1] */\n      dup2\n      mload\n      dup2\n      lt\n      tag_16\n      jumpi\n      tag_17\n      tag_15\n      jump\t// in\n    tag_17:\n    tag_16:\n      0x20\n      mul\n      0x20\n      add\n      add\n        /* \"contracts/Blockchain_Assignment_7/week7_task7.sol\":3006:3020  numbers[1] = 2 */\n      dup2\n      dup2\n      mstore\n      pop\n      pop\n        /* \"contracts/Blockchain_Assignment_7/week7_task7.sol\":3044:3045  2 */\n      0x02\n        /* \"contracts/Blockchain_Assignment_7/week7_task7.sol\":3031:3038  numbers */\n      dup2\n        /* \"contracts/Blockchain_Assignment_7/week7_task7.sol\":3039:3040  2 */\n      0x02\n        /* \"contracts/Blockchain_Assignment_7/week7_task7.sol\":3031:3041  numbers[2] */\n      dup2\n      mload\n      dup2\n      lt\n      tag_18\n      jumpi\n      tag_19\n      tag_15\n      jump\t// in\n    tag_19:\n    tag_18:\n      0x20\n      mul\n      0x20\n      add\n      add\n        /* \"contracts/Blockchain_Assignment_7/week7_task7.sol\":3031:3045  numbers[2] = 2 */\n      dup2\n      dup2\n      mstore\n      pop\n      pop\n        /* \"contracts/Blockchain_Assignment_7/week7_task7.sol\":3069:3070  8 */\n      0x08\n        /* \"contracts/Blockchain_Assignment_7/week7_task7.sol\":3056:3063  numbers */\n      dup2\n        /* \"contracts/Blockchain_Assignment_7/week7_task7.sol\":3064:3065  3 */\n      0x03\n        /* \"contracts/Blockchain_Assignment_7/week7_task7.sol\":3056:3066  numbers[3] */\n      dup2\n      mload\n      dup2\n      lt\n      tag_20\n      jumpi\n      tag_21\n      tag_15\n      jump\t// in\n    tag_21:\n    tag_20:\n      0x20\n      mul\n      0x20\n      add\n      add\n        /* \"contracts/Blockchain_Assignment_7/week7_task7.sol\":3056:3070  numbers[3] = 8 */\n      dup2\n      dup2\n      mstore\n      pop\n      pop\n        /* \"contracts/Blockchain_Assignment_7/week7_task7.sol\":3094:3095  6 */\n      0x06\n        /* \"contracts/Blockchain_Assignment_7/week7_task7.sol\":3081:3088  numbers */\n      dup2\n        /* \"contracts/Blockchain_Assignment_7/week7_task7.sol\":3089:3090  4 */\n      0x04\n        /* \"contracts/Blockchain_Assignment_7/week7_task7.sol\":3081:3091  numbers[4] */\n      dup2\n      mload\n      dup2\n      lt\n      tag_22\n      jumpi\n      tag_23\n      tag_15\n      jump\t// in\n    tag_23:\n    tag_22:\n      0x20\n      mul\n      0x20\n      add\n      add\n        /* \"contracts/Blockchain_Assignment_7/week7_task7.sol\":3081:3095  numbers[4] = 6 */\n      dup2\n      dup2\n      mstore\n      pop\n      pop\n        /* \"contracts/Blockchain_Assignment_7/week7_task7.sol\":3108:3119  uint256 avg */\n      0x00\n        /* \"contracts/Blockchain_Assignment_7/week7_task7.sol\":3122:3139  numbers.average() */\n      tag_24\n        /* \"contracts/Blockchain_Assignment_7/week7_task7.sol\":3122:3129  numbers */\n      dup3\n        /* \"contracts/Blockchain_Assignment_7/week7_task7.sol\":3122:3137  numbers.average */\n      tag_25\n        /* \"contracts/Blockchain_Assignment_7/week7_task7.sol\":3122:3139  numbers.average() */\n      jump\t// in\n    tag_24:\n        /* \"contracts/Blockchain_Assignment_7/week7_task7.sol\":3108:3139  uint256 avg = numbers.average() */\n      swap1\n      pop\n        /* \"contracts/Blockchain_Assignment_7/week7_task7.sol\":3150:3161  uint256 med */\n      0x00\n        /* \"contracts/Blockchain_Assignment_7/week7_task7.sol\":3164:3180  numbers.median() */\n      tag_26\n        /* \"contracts/Blockchain_Assignment_7/week7_task7.sol\":3164:3171  numbers */\n      dup4\n        /* \"contracts/Blockchain_Assignment_7/week7_task7.sol\":3164:3178  numbers.median */\n      tag_27\n        /* \"contracts/Blockchain_Assignment_7/week7_task7.sol\":3164:3180  numbers.median() */\n      jump\t// in\n    tag_26:\n        /* \"contracts/Blockchain_Assignment_7/week7_task7.sol\":3150:3180  uint256 med = numbers.median() */\n      swap1\n      pop\n        /* \"contracts/Blockchain_Assignment_7/week7_task7.sol\":3191:3213  uint256[] memory modes */\n      0x00\n        /* \"contracts/Blockchain_Assignment_7/week7_task7.sol\":3216:3230  numbers.mode() */\n      tag_28\n        /* \"contracts/Blockchain_Assignment_7/week7_task7.sol\":3216:3223  numbers */\n      dup5\n        /* \"contracts/Blockchain_Assignment_7/week7_task7.sol\":3216:3228  numbers.mode */\n      tag_29\n        /* \"contracts/Blockchain_Assignment_7/week7_task7.sol\":3216:3230  numbers.mode() */\n      jump\t// in\n    tag_28:\n        /* \"contracts/Blockchain_Assignment_7/week7_task7.sol\":3191:3230  uint256[] memory modes = numbers.mode() */\n      swap1\n      pop\n        /* \"contracts/Blockchain_Assignment_7/week7_task7.sol\":3251:3254  avg */\n      dup3\n        /* \"contracts/Blockchain_Assignment_7/week7_task7.sol\":3256:3259  med */\n      dup3\n        /* \"contracts/Blockchain_Assignment_7/week7_task7.sol\":3261:3266  modes */\n      dup3\n        /* \"contracts/Blockchain_Assignment_7/week7_task7.sol\":3243:3267  return (avg, med, modes) */\n      swap7\n      pop\n      swap7\n      pop\n      swap7\n      pop\n      pop\n      pop\n      pop\n      pop\n        /* \"contracts/Blockchain_Assignment_7/week7_task7.sol\":2831:3275  function testArrayStats() external pure returns (uint256, uint256, uint256[] memory) {... */\n      swap1\n      swap2\n      swap3\n      jump\t// out\n        /* \"contracts/Blockchain_Assignment_7/week7_task7.sol\":56:352  function average(uint256[] memory data) internal pure returns (uint256) {... */\n    tag_25:\n        /* \"contracts/Blockchain_Assignment_7/week7_task7.sol\":119:126  uint256 */\n      0x00\n        /* \"contracts/Blockchain_Assignment_7/week7_task7.sol\":161:162  0 */\n      dup1\n        /* \"contracts/Blockchain_Assignment_7/week7_task7.sol\":147:151  data */\n      dup3\n        /* \"contracts/Blockchain_Assignment_7/week7_task7.sol\":147:158  data.length */\n      mload\n        /* \"contracts/Blockchain_Assignment_7/week7_task7.sol\":147:162  data.length > 0 */\n      gt\n        /* \"contracts/Blockchain_Assignment_7/week7_task7.sol\":139:190  require(data.length > 0, \"Array must not be empty\") */\n      tag_31\n      jumpi\n      mload(0x40)\n      0x08c379a000000000000000000000000000000000000000000000000000000000\n      dup2\n      mstore\n      0x04\n      add\n      tag_32\n      swap1\n      tag_33\n      jump\t// in\n    tag_32:\n      mload(0x40)\n      dup1\n      swap2\n      sub\n      swap1\n      revert\n    tag_31:\n        /* \"contracts/Blockchain_Assignment_7/week7_task7.sol\":201:212  uint256 sum */\n      0x00\n        /* \"contracts/Blockchain_Assignment_7/week7_task7.sol\":232:241  uint256 i */\n      dup1\n        /* \"contracts/Blockchain_Assignment_7/week7_task7.sol\":227:310  for (uint256 i = 0; i < data.length; i++) {... */\n    tag_34:\n        /* \"contracts/Blockchain_Assignment_7/week7_task7.sol\":251:255  data */\n      dup4\n        /* \"contracts/Blockchain_Assignment_7/week7_task7.sol\":251:262  data.length */\n      mload\n        /* \"contracts/Blockchain_Assignment_7/week7_task7.sol\":247:248  i */\n      dup2\n        /* \"contracts/Blockchain_Assignment_7/week7_task7.sol\":247:262  i < data.length */\n      lt\n        /* \"contracts/Blockchain_Assignment_7/week7_task7.sol\":227:310  for (uint256 i = 0; i < data.length; i++) {... */\n      iszero\n      tag_35\n      jumpi\n        /* \"contracts/Blockchain_Assignment_7/week7_task7.sol\":291:295  data */\n      dup4\n        /* \"contracts/Blockchain_Assignment_7/week7_task7.sol\":296:297  i */\n      dup2\n        /* \"contracts/Blockchain_Assignment_7/week7_task7.sol\":291:298  data[i] */\n      dup2\n      mload\n      dup2\n      lt\n      tag_37\n      jumpi\n      tag_38\n      tag_15\n      jump\t// in\n    tag_38:\n    tag_37:\n      0x20\n      mul\n      0x20\n      add\n      add\n      mload\n        /* \"contracts/Blockchain_Assignment_7/week7_task7.sol\":284:298  sum += data[i] */\n      dup3\n      tag_39\n      swap2\n      swap1\n      tag_40\n      jump\t// in\n    tag_39:\n      swap2\n      pop\n        /* \"contracts/Blockchain_Assignment_7/week7_task7.sol\":264:267  i++ */\n      dup1\n      dup1\n      0x01\n      add\n      swap2\n      pop\n      pop\n        /* \"contracts/Blockchain_Assignment_7/week7_task7.sol\":227:310  for (uint256 i = 0; i < data.length; i++) {... */\n      jump(tag_34)\n    tag_35:\n      pop\n        /* \"contracts/Blockchain_Assignment_7/week7_task7.sol\":333:337  data */\n      dup3\n        /* \"contracts/Blockchain_Assignment_7/week7_task7.sol\":333:344  data.length */\n      mload\n        /* \"contracts/Blockchain_Assignment_7/week7_task7.sol\":327:330  sum */\n      dup2\n        /* \"contracts/Blockchain_Assignment_7/week7_task7.sol\":327:344  sum / data.length */\n      tag_41\n      swap2\n      swap1\n      tag_42\n      jump\t// in\n    tag_41:\n        /* \"contracts/Blockchain_Assignment_7/week7_task7.sol\":320:344  return sum / data.length */\n      swap2\n      pop\n      pop\n        /* \"contracts/Blockchain_Assignment_7/week7_task7.sol\":56:352  function average(uint256[] memory data) internal pure returns (uint256) {... */\n      swap2\n      swap1\n      pop\n      jump\t// out\n        /* \"contracts/Blockchain_Assignment_7/week7_task7.sol\":360:748  function median(uint256[] memory data) internal pure returns (uint256) {... */\n    tag_27:\n        /* \"contracts/Blockchain_Assignment_7/week7_task7.sol\":422:429  uint256 */\n      0x00\n        /* \"contracts/Blockchain_Assignment_7/week7_task7.sol\":464:465  0 */\n      dup1\n        /* \"contracts/Blockchain_Assignment_7/week7_task7.sol\":450:454  data */\n      dup3\n        /* \"contracts/Blockchain_Assignment_7/week7_task7.sol\":450:461  data.length */\n      mload\n        /* \"contracts/Blockchain_Assignment_7/week7_task7.sol\":450:465  data.length > 0 */\n      gt\n        /* \"contracts/Blockchain_Assignment_7/week7_task7.sol\":442:493  require(data.length > 0, \"Array must not be empty\") */\n      tag_44\n      jumpi\n      mload(0x40)\n      0x08c379a000000000000000000000000000000000000000000000000000000000\n      dup2\n      mstore\n      0x04\n      add\n      tag_45\n      swap1\n      tag_33\n      jump\t// in\n    tag_45:\n      mload(0x40)\n      dup1\n      swap2\n      sub\n      swap1\n      revert\n    tag_44:\n        /* \"contracts/Blockchain_Assignment_7/week7_task7.sol\":504:527  uint256[] memory sorted */\n      0x00\n        /* \"contracts/Blockchain_Assignment_7/week7_task7.sol\":530:540  sort(data) */\n      tag_46\n        /* \"contracts/Blockchain_Assignment_7/week7_task7.sol\":535:539  data */\n      dup4\n        /* \"contracts/Blockchain_Assignment_7/week7_task7.sol\":530:534  sort */\n      tag_47\n        /* \"contracts/Blockchain_Assignment_7/week7_task7.sol\":530:540  sort(data) */\n      jump\t// in\n    tag_46:\n        /* \"contracts/Blockchain_Assignment_7/week7_task7.sol\":504:540  uint256[] memory sorted = sort(data) */\n      swap1\n      pop\n        /* \"contracts/Blockchain_Assignment_7/week7_task7.sol\":551:562  uint256 mid */\n      0x00\n        /* \"contracts/Blockchain_Assignment_7/week7_task7.sol\":581:582  2 */\n      0x02\n        /* \"contracts/Blockchain_Assignment_7/week7_task7.sol\":565:571  sorted */\n      dup3\n        /* \"contracts/Blockchain_Assignment_7/week7_task7.sol\":565:578  sorted.length */\n      mload\n        /* \"contracts/Blockchain_Assignment_7/week7_task7.sol\":565:582  sorted.length / 2 */\n      tag_48\n      swap2\n      swap1\n      tag_42\n      jump\t// in\n    tag_48:\n        /* \"contracts/Blockchain_Assignment_7/week7_task7.sol\":551:582  uint256 mid = sorted.length / 2 */\n      swap1\n      pop\n        /* \"contracts/Blockchain_Assignment_7/week7_task7.sol\":618:619  0 */\n      0x00\n        /* \"contracts/Blockchain_Assignment_7/week7_task7.sol\":613:614  2 */\n      0x02\n        /* \"contracts/Blockchain_Assignment_7/week7_task7.sol\":597:603  sorted */\n      dup4\n        /* \"contracts/Blockchain_Assignment_7/week7_task7.sol\":597:610  sorted.length */\n      mload\n        /* \"contracts/Blockchain_Assignment_7/week7_task7.sol\":597:614  sorted.length % 2 */\n      tag_49\n      swap2\n      swap1\n      tag_50\n      jump\t// in\n    tag_49:\n        /* \"contracts/Blockchain_Assignment_7/week7_task7.sol\":597:619  sorted.length % 2 == 0 */\n      sub\n        /* \"contracts/Blockchain_Assignment_7/week7_task7.sol\":593:741  if (sorted.length % 2 == 0) {... */\n      tag_51\n      jumpi\n        /* \"contracts/Blockchain_Assignment_7/week7_task7.sol\":677:678  2 */\n      0x02\n        /* \"contracts/Blockchain_Assignment_7/week7_task7.sol\":662:668  sorted */\n      dup3\n        /* \"contracts/Blockchain_Assignment_7/week7_task7.sol\":669:672  mid */\n      dup3\n        /* \"contracts/Blockchain_Assignment_7/week7_task7.sol\":662:673  sorted[mid] */\n      dup2\n      mload\n      dup2\n      lt\n      tag_52\n      jumpi\n      tag_53\n      tag_15\n      jump\t// in\n    tag_53:\n    tag_52:\n      0x20\n      mul\n      0x20\n      add\n      add\n      mload\n        /* \"contracts/Blockchain_Assignment_7/week7_task7.sol\":644:650  sorted */\n      dup4\n        /* \"contracts/Blockchain_Assignment_7/week7_task7.sol\":657:658  1 */\n      0x01\n        /* \"contracts/Blockchain_Assignment_7/week7_task7.sol\":651:654  mid */\n      dup5\n        /* \"contracts/Blockchain_Assignment_7/week7_task7.sol\":651:658  mid - 1 */\n      tag_54\n      swap2\n      swap1\n      tag_55\n      jump\t// in\n    tag_54:\n        /* \"contracts/Blockchain_Assignment_7/week7_task7.sol\":644:659  sorted[mid - 1] */\n      dup2\n      mload\n      dup2\n      lt\n      tag_56\n      jumpi\n      tag_57\n      tag_15\n      jump\t// in\n    tag_57:\n    tag_56:\n      0x20\n      mul\n      0x20\n      add\n      add\n      mload\n        /* \"contracts/Blockchain_Assignment_7/week7_task7.sol\":644:673  sorted[mid - 1] + sorted[mid] */\n      tag_58\n      swap2\n      swap1\n      tag_40\n      jump\t// in\n    tag_58:\n        /* \"contracts/Blockchain_Assignment_7/week7_task7.sol\":643:678  (sorted[mid - 1] + sorted[mid]) / 2 */\n      tag_59\n      swap2\n      swap1\n      tag_42\n      jump\t// in\n    tag_59:\n        /* \"contracts/Blockchain_Assignment_7/week7_task7.sol\":636:678  return (sorted[mid - 1] + sorted[mid]) / 2 */\n      swap3\n      pop\n      pop\n      pop\n      jump(tag_43)\n        /* \"contracts/Blockchain_Assignment_7/week7_task7.sol\":593:741  if (sorted.length % 2 == 0) {... */\n    tag_51:\n        /* \"contracts/Blockchain_Assignment_7/week7_task7.sol\":718:724  sorted */\n      dup2\n        /* \"contracts/Blockchain_Assignment_7/week7_task7.sol\":725:728  mid */\n      dup2\n        /* \"contracts/Blockchain_Assignment_7/week7_task7.sol\":718:729  sorted[mid] */\n      dup2\n      mload\n      dup2\n      lt\n      tag_61\n      jumpi\n      tag_62\n      tag_15\n      jump\t// in\n    tag_62:\n    tag_61:\n      0x20\n      mul\n      0x20\n      add\n      add\n      mload\n        /* \"contracts/Blockchain_Assignment_7/week7_task7.sol\":711:729  return sorted[mid] */\n      swap3\n      pop\n      pop\n      pop\n        /* \"contracts/Blockchain_Assignment_7/week7_task7.sol\":360:748  function median(uint256[] memory data) internal pure returns (uint256) {... */\n    tag_43:\n      swap2\n      swap1\n      pop\n      jump\t// out\n        /* \"contracts/Blockchain_Assignment_7/week7_task7.sol\":756:2359  function mode(uint256[] memory data) internal pure returns (uint256[] memory) {... */\n    tag_29:\n        /* \"contracts/Blockchain_Assignment_7/week7_task7.sol\":816:832  uint256[] memory */\n      0x60\n        /* \"contracts/Blockchain_Assignment_7/week7_task7.sol\":867:868  0 */\n      0x00\n        /* \"contracts/Blockchain_Assignment_7/week7_task7.sol\":853:857  data */\n      dup3\n        /* \"contracts/Blockchain_Assignment_7/week7_task7.sol\":853:864  data.length */\n      mload\n        /* \"contracts/Blockchain_Assignment_7/week7_task7.sol\":853:868  data.length > 0 */\n      gt\n        /* \"contracts/Blockchain_Assignment_7/week7_task7.sol\":845:896  require(data.length > 0, \"Array must not be empty\") */\n      tag_64\n      jumpi\n      mload(0x40)\n      0x08c379a000000000000000000000000000000000000000000000000000000000\n      dup2\n      mstore\n      0x04\n      add\n      tag_65\n      swap1\n      tag_33\n      jump\t// in\n    tag_65:\n      mload(0x40)\n      dup1\n      swap2\n      sub\n      swap1\n      revert\n    tag_64:\n        /* \"contracts/Blockchain_Assignment_7/week7_task7.sol\":907:936  uint256[] memory uniqueValues */\n      0x00\n        /* \"contracts/Blockchain_Assignment_7/week7_task7.sol\":953:957  data */\n      dup3\n        /* \"contracts/Blockchain_Assignment_7/week7_task7.sol\":953:964  data.length */\n      mload\n        /* \"contracts/Blockchain_Assignment_7/week7_task7.sol\":939:965  new uint256[](data.length) */\n      0xffffffffffffffff\n      dup2\n      gt\n      iszero\n      tag_66\n      jumpi\n      tag_67\n      tag_11\n      jump\t// in\n    tag_67:\n    tag_66:\n      mload(0x40)\n      swap1\n      dup1\n      dup3\n      mstore\n      dup1\n      0x20\n      mul\n      0x20\n      add\n      dup3\n      add\n      0x40\n      mstore\n      dup1\n      iszero\n      tag_68\n      jumpi\n      dup2\n      0x20\n      add\n      0x20\n      dup3\n      mul\n      dup1\n      calldatasize\n      dup4\n      calldatacopy\n      dup1\n      dup3\n      add\n      swap2\n      pop\n      pop\n      swap1\n      pop\n    tag_68:\n      pop\n        /* \"contracts/Blockchain_Assignment_7/week7_task7.sol\":907:965  uint256[] memory uniqueValues = new uint256[](data.length) */\n      swap1\n      pop\n        /* \"contracts/Blockchain_Assignment_7/week7_task7.sol\":976:999  uint256[] memory counts */\n      0x00\n        /* \"contracts/Blockchain_Assignment_7/week7_task7.sol\":1016:1020  data */\n      dup4\n        /* \"contracts/Blockchain_Assignment_7/week7_task7.sol\":1016:1027  data.length */\n      mload\n        /* \"contracts/Blockchain_Assignment_7/week7_task7.sol\":1002:1028  new uint256[](data.length) */\n      0xffffffffffffffff\n      dup2\n      gt\n      iszero\n      tag_69\n      jumpi\n      tag_70\n      tag_11\n      jump\t// in\n    tag_70:\n    tag_69:\n      mload(0x40)\n      swap1\n      dup1\n      dup3\n      mstore\n      dup1\n      0x20\n      mul\n      0x20\n      add\n      dup3\n      add\n      0x40\n      mstore\n      dup1\n      iszero\n      tag_71\n      jumpi\n      dup2\n      0x20\n      add\n      0x20\n      dup3\n      mul\n      dup1\n      calldatasize\n      dup4\n      calldatacopy\n      dup1\n      dup3\n      add\n      swap2\n      pop\n      pop\n      swap1\n      pop\n    tag_71:\n      pop\n        /* \"contracts/Blockchain_Assignment_7/week7_task7.sol\":976:1028  uint256[] memory counts = new uint256[](data.length) */\n      swap1\n      pop\n        /* \"contracts/Blockchain_Assignment_7/week7_task7.sol\":1039:1058  uint256 uniqueCount */\n      0x00\n        /* \"contracts/Blockchain_Assignment_7/week7_task7.sol\":1073:1089  uint256 maxCount */\n      dup1\n        /* \"contracts/Blockchain_Assignment_7/week7_task7.sol\":1111:1120  uint256 i */\n      0x00\n        /* \"contracts/Blockchain_Assignment_7/week7_task7.sol\":1106:1856  for (uint256 i = 0; i < data.length; i++) {... */\n    tag_72:\n        /* \"contracts/Blockchain_Assignment_7/week7_task7.sol\":1130:1134  data */\n      dup7\n        /* \"contracts/Blockchain_Assignment_7/week7_task7.sol\":1130:1141  data.length */\n      mload\n        /* \"contracts/Blockchain_Assignment_7/week7_task7.sol\":1126:1127  i */\n      dup2\n        /* \"contracts/Blockchain_Assignment_7/week7_task7.sol\":1126:1141  i < data.length */\n      lt\n        /* \"contracts/Blockchain_Assignment_7/week7_task7.sol\":1106:1856  for (uint256 i = 0; i < data.length; i++) {... */\n      iszero\n      tag_73\n      jumpi\n        /* \"contracts/Blockchain_Assignment_7/week7_task7.sol\":1163:1173  bool found */\n      0x00\n        /* \"contracts/Blockchain_Assignment_7/week7_task7.sol\":1201:1210  uint256 j */\n      dup1\n        /* \"contracts/Blockchain_Assignment_7/week7_task7.sol\":1196:1540  for (uint256 j = 0; j < uniqueCount; j++) {... */\n    tag_75:\n        /* \"contracts/Blockchain_Assignment_7/week7_task7.sol\":1220:1231  uniqueCount */\n      dup5\n        /* \"contracts/Blockchain_Assignment_7/week7_task7.sol\":1216:1217  j */\n      dup2\n        /* \"contracts/Blockchain_Assignment_7/week7_task7.sol\":1216:1231  j < uniqueCount */\n      lt\n        /* \"contracts/Blockchain_Assignment_7/week7_task7.sol\":1196:1540  for (uint256 j = 0; j < uniqueCount; j++) {... */\n      iszero\n      tag_76\n      jumpi\n        /* \"contracts/Blockchain_Assignment_7/week7_task7.sol\":1280:1284  data */\n      dup9\n        /* \"contracts/Blockchain_Assignment_7/week7_task7.sol\":1285:1286  i */\n      dup4\n        /* \"contracts/Blockchain_Assignment_7/week7_task7.sol\":1280:1287  data[i] */\n      dup2\n      mload\n      dup2\n      lt\n      tag_78\n      jumpi\n      tag_79\n      tag_15\n      jump\t// in\n    tag_79:\n    tag_78:\n      0x20\n      mul\n      0x20\n      add\n      add\n      mload\n        /* \"contracts/Blockchain_Assignment_7/week7_task7.sol\":1261:1273  uniqueValues */\n      dup8\n        /* \"contracts/Blockchain_Assignment_7/week7_task7.sol\":1274:1275  j */\n      dup3\n        /* \"contracts/Blockchain_Assignment_7/week7_task7.sol\":1261:1276  uniqueValues[j] */\n      dup2\n      mload\n      dup2\n      lt\n      tag_80\n      jumpi\n      tag_81\n      tag_15\n      jump\t// in\n    tag_81:\n    tag_80:\n      0x20\n      mul\n      0x20\n      add\n      add\n      mload\n        /* \"contracts/Blockchain_Assignment_7/week7_task7.sol\":1261:1287  uniqueValues[j] == data[i] */\n      sub\n        /* \"contracts/Blockchain_Assignment_7/week7_task7.sol\":1257:1525  if (uniqueValues[j] == data[i]) {... */\n      tag_82\n      jumpi\n        /* \"contracts/Blockchain_Assignment_7/week7_task7.sol\":1312:1318  counts */\n      dup6\n        /* \"contracts/Blockchain_Assignment_7/week7_task7.sol\":1319:1320  j */\n      dup2\n        /* \"contracts/Blockchain_Assignment_7/week7_task7.sol\":1312:1321  counts[j] */\n      dup2\n      mload\n      dup2\n      lt\n      tag_83\n      jumpi\n      tag_84\n      tag_15\n      jump\t// in\n    tag_84:\n    tag_83:\n      0x20\n      mul\n      0x20\n      add\n      add\n        /* \"contracts/Blockchain_Assignment_7/week7_task7.sol\":1312:1323  counts[j]++ */\n      dup1\n      mload\n      dup1\n      swap2\n      swap1\n      tag_85\n      swap1\n      tag_86\n      jump\t// in\n    tag_85:\n      dup2\n      mstore\n      pop\n      pop\n        /* \"contracts/Blockchain_Assignment_7/week7_task7.sol\":1354:1358  true */\n      0x01\n        /* \"contracts/Blockchain_Assignment_7/week7_task7.sol\":1346:1358  found = true */\n      swap2\n      pop\n        /* \"contracts/Blockchain_Assignment_7/week7_task7.sol\":1397:1405  maxCount */\n      dup4\n        /* \"contracts/Blockchain_Assignment_7/week7_task7.sol\":1385:1391  counts */\n      dup7\n        /* \"contracts/Blockchain_Assignment_7/week7_task7.sol\":1392:1393  j */\n      dup3\n        /* \"contracts/Blockchain_Assignment_7/week7_task7.sol\":1385:1394  counts[j] */\n      dup2\n      mload\n      dup2\n      lt\n      tag_87\n      jumpi\n      tag_88\n      tag_15\n      jump\t// in\n    tag_88:\n    tag_87:\n      0x20\n      mul\n      0x20\n      add\n      add\n      mload\n        /* \"contracts/Blockchain_Assignment_7/week7_task7.sol\":1385:1405  counts[j] > maxCount */\n      gt\n        /* \"contracts/Blockchain_Assignment_7/week7_task7.sol\":1381:1478  if (counts[j] > maxCount) {... */\n      iszero\n      tag_89\n      jumpi\n        /* \"contracts/Blockchain_Assignment_7/week7_task7.sol\":1445:1451  counts */\n      dup6\n        /* \"contracts/Blockchain_Assignment_7/week7_task7.sol\":1452:1453  j */\n      dup2\n        /* \"contracts/Blockchain_Assignment_7/week7_task7.sol\":1445:1454  counts[j] */\n      dup2\n      mload\n      dup2\n      lt\n      tag_90\n      jumpi\n      tag_91\n      tag_15\n      jump\t// in\n    tag_91:\n    tag_90:\n      0x20\n      mul\n      0x20\n      add\n      add\n      mload\n        /* \"contracts/Blockchain_Assignment_7/week7_task7.sol\":1434:1454  maxCount = counts[j] */\n      swap4\n      pop\n        /* \"contracts/Blockchain_Assignment_7/week7_task7.sol\":1381:1478  if (counts[j] > maxCount) {... */\n    tag_89:\n        /* \"contracts/Blockchain_Assignment_7/week7_task7.sol\":1500:1505  break */\n      jump(tag_76)\n        /* \"contracts/Blockchain_Assignment_7/week7_task7.sol\":1257:1525  if (uniqueValues[j] == data[i]) {... */\n    tag_82:\n        /* \"contracts/Blockchain_Assignment_7/week7_task7.sol\":1233:1236  j++ */\n      dup1\n      dup1\n      0x01\n      add\n      swap2\n      pop\n      pop\n        /* \"contracts/Blockchain_Assignment_7/week7_task7.sol\":1196:1540  for (uint256 j = 0; j < uniqueCount; j++) {... */\n      jump(tag_75)\n    tag_76:\n      pop\n        /* \"contracts/Blockchain_Assignment_7/week7_task7.sol\":1559:1564  found */\n      dup1\n        /* \"contracts/Blockchain_Assignment_7/week7_task7.sol\":1554:1845  if (!found) {... */\n      tag_92\n      jumpi\n        /* \"contracts/Blockchain_Assignment_7/week7_task7.sol\":1613:1617  data */\n      dup8\n        /* \"contracts/Blockchain_Assignment_7/week7_task7.sol\":1618:1619  i */\n      dup3\n        /* \"contracts/Blockchain_Assignment_7/week7_task7.sol\":1613:1620  data[i] */\n      dup2\n      mload\n      dup2\n      lt\n      tag_93\n      jumpi\n      tag_94\n      tag_15\n      jump\t// in\n    tag_94:\n    tag_93:\n      0x20\n      mul\n      0x20\n      add\n      add\n      mload\n        /* \"contracts/Blockchain_Assignment_7/week7_task7.sol\":1585:1597  uniqueValues */\n      dup7\n        /* \"contracts/Blockchain_Assignment_7/week7_task7.sol\":1598:1609  uniqueCount */\n      dup6\n        /* \"contracts/Blockchain_Assignment_7/week7_task7.sol\":1585:1610  uniqueValues[uniqueCount] */\n      dup2\n      mload\n      dup2\n      lt\n      tag_95\n      jumpi\n      tag_96\n      tag_15\n      jump\t// in\n    tag_96:\n    tag_95:\n      0x20\n      mul\n      0x20\n      add\n      add\n        /* \"contracts/Blockchain_Assignment_7/week7_task7.sol\":1585:1620  uniqueValues[uniqueCount] = data[i] */\n      dup2\n      dup2\n      mstore\n      pop\n      pop\n        /* \"contracts/Blockchain_Assignment_7/week7_task7.sol\":1661:1662  1 */\n      0x01\n        /* \"contracts/Blockchain_Assignment_7/week7_task7.sol\":1639:1645  counts */\n      dup6\n        /* \"contracts/Blockchain_Assignment_7/week7_task7.sol\":1646:1657  uniqueCount */\n      dup6\n        /* \"contracts/Blockchain_Assignment_7/week7_task7.sol\":1639:1658  counts[uniqueCount] */\n      dup2\n      mload\n      dup2\n      lt\n      tag_97\n      jumpi\n      tag_98\n      tag_15\n      jump\t// in\n    tag_98:\n    tag_97:\n      0x20\n      mul\n      0x20\n      add\n      add\n        /* \"contracts/Blockchain_Assignment_7/week7_task7.sol\":1639:1662  counts[uniqueCount] = 1 */\n      dup2\n      dup2\n      mstore\n      pop\n      pop\n        /* \"contracts/Blockchain_Assignment_7/week7_task7.sol\":1681:1694  uniqueCount++ */\n      dup4\n      dup1\n      tag_99\n      swap1\n      tag_86\n      jump\t// in\n    tag_99:\n      swap5\n      pop\n      pop\n        /* \"contracts/Blockchain_Assignment_7/week7_task7.sol\":1743:1751  maxCount */\n      dup3\n        /* \"contracts/Blockchain_Assignment_7/week7_task7.sol\":1717:1723  counts */\n      dup6\n        /* \"contracts/Blockchain_Assignment_7/week7_task7.sol\":1738:1739  1 */\n      0x01\n        /* \"contracts/Blockchain_Assignment_7/week7_task7.sol\":1724:1735  uniqueCount */\n      dup7\n        /* \"contracts/Blockchain_Assignment_7/week7_task7.sol\":1724:1739  uniqueCount - 1 */\n      tag_100\n      swap2\n      swap1\n      tag_55\n      jump\t// in\n    tag_100:\n        /* \"contracts/Blockchain_Assignment_7/week7_task7.sol\":1717:1740  counts[uniqueCount - 1] */\n      dup2\n      mload\n      dup2\n      lt\n      tag_101\n      jumpi\n      tag_102\n      tag_15\n      jump\t// in\n    tag_102:\n    tag_101:\n      0x20\n      mul\n      0x20\n      add\n      add\n      mload\n        /* \"contracts/Blockchain_Assignment_7/week7_task7.sol\":1717:1751  counts[uniqueCount - 1] > maxCount */\n      gt\n        /* \"contracts/Blockchain_Assignment_7/week7_task7.sol\":1713:1830  if (counts[uniqueCount - 1] > maxCount) {... */\n      iszero\n      tag_103\n      jumpi\n        /* \"contracts/Blockchain_Assignment_7/week7_task7.sol\":1787:1793  counts */\n      dup5\n        /* \"contracts/Blockchain_Assignment_7/week7_task7.sol\":1808:1809  1 */\n      0x01\n        /* \"contracts/Blockchain_Assignment_7/week7_task7.sol\":1794:1805  uniqueCount */\n      dup6\n        /* \"contracts/Blockchain_Assignment_7/week7_task7.sol\":1794:1809  uniqueCount - 1 */\n      tag_104\n      swap2\n      swap1\n      tag_55\n      jump\t// in\n    tag_104:\n        /* \"contracts/Blockchain_Assignment_7/week7_task7.sol\":1787:1810  counts[uniqueCount - 1] */\n      dup2\n      mload\n      dup2\n      lt\n      tag_105\n      jumpi\n      tag_106\n      tag_15\n      jump\t// in\n    tag_106:\n    tag_105:\n      0x20\n      mul\n      0x20\n      add\n      add\n      mload\n        /* \"contracts/Blockchain_Assignment_7/week7_task7.sol\":1776:1810  maxCount = counts[uniqueCount - 1] */\n      swap3\n      pop\n        /* \"contracts/Blockchain_Assignment_7/week7_task7.sol\":1713:1830  if (counts[uniqueCount - 1] > maxCount) {... */\n    tag_103:\n        /* \"contracts/Blockchain_Assignment_7/week7_task7.sol\":1554:1845  if (!found) {... */\n    tag_92:\n        /* \"contracts/Blockchain_Assignment_7/week7_task7.sol\":1148:1856  {... */\n      pop\n        /* \"contracts/Blockchain_Assignment_7/week7_task7.sol\":1143:1146  i++ */\n      dup1\n      dup1\n      0x01\n      add\n      swap2\n      pop\n      pop\n        /* \"contracts/Blockchain_Assignment_7/week7_task7.sol\":1106:1856  for (uint256 i = 0; i < data.length; i++) {... */\n      jump(tag_72)\n    tag_73:\n      pop\n        /* \"contracts/Blockchain_Assignment_7/week7_task7.sol\":1868:1885  uint256 modeCount */\n      0x00\n        /* \"contracts/Blockchain_Assignment_7/week7_task7.sol\":1905:1914  uint256 i */\n      dup1\n        /* \"contracts/Blockchain_Assignment_7/week7_task7.sol\":1900:2041  for (uint256 i = 0; i < uniqueCount; i++) {... */\n    tag_107:\n        /* \"contracts/Blockchain_Assignment_7/week7_task7.sol\":1924:1935  uniqueCount */\n      dup4\n        /* \"contracts/Blockchain_Assignment_7/week7_task7.sol\":1920:1921  i */\n      dup2\n        /* \"contracts/Blockchain_Assignment_7/week7_task7.sol\":1920:1935  i < uniqueCount */\n      lt\n        /* \"contracts/Blockchain_Assignment_7/week7_task7.sol\":1900:2041  for (uint256 i = 0; i < uniqueCount; i++) {... */\n      iszero\n      tag_108\n      jumpi\n        /* \"contracts/Blockchain_Assignment_7/week7_task7.sol\":1974:1982  maxCount */\n      dup3\n        /* \"contracts/Blockchain_Assignment_7/week7_task7.sol\":1961:1967  counts */\n      dup6\n        /* \"contracts/Blockchain_Assignment_7/week7_task7.sol\":1968:1969  i */\n      dup3\n        /* \"contracts/Blockchain_Assignment_7/week7_task7.sol\":1961:1970  counts[i] */\n      dup2\n      mload\n      dup2\n      lt\n      tag_110\n      jumpi\n      tag_111\n      tag_15\n      jump\t// in\n    tag_111:\n    tag_110:\n      0x20\n      mul\n      0x20\n      add\n      add\n      mload\n        /* \"contracts/Blockchain_Assignment_7/week7_task7.sol\":1961:1982  counts[i] == maxCount */\n      sub\n        /* \"contracts/Blockchain_Assignment_7/week7_task7.sol\":1957:2030  if (counts[i] == maxCount) {... */\n      tag_112\n      jumpi\n        /* \"contracts/Blockchain_Assignment_7/week7_task7.sol\":2003:2014  modeCount++ */\n      dup2\n      dup1\n      tag_113\n      swap1\n      tag_86\n      jump\t// in\n    tag_113:\n      swap3\n      pop\n      pop\n        /* \"contracts/Blockchain_Assignment_7/week7_task7.sol\":1957:2030  if (counts[i] == maxCount) {... */\n    tag_112:\n        /* \"contracts/Blockchain_Assignment_7/week7_task7.sol\":1937:1940  i++ */\n      dup1\n      dup1\n      0x01\n      add\n      swap2\n      pop\n      pop\n        /* \"contracts/Blockchain_Assignment_7/week7_task7.sol\":1900:2041  for (uint256 i = 0; i < uniqueCount; i++) {... */\n      jump(tag_107)\n    tag_108:\n      pop\n        /* \"contracts/Blockchain_Assignment_7/week7_task7.sol\":2053:2075  uint256[] memory modes */\n      0x00\n        /* \"contracts/Blockchain_Assignment_7/week7_task7.sol\":2092:2101  modeCount */\n      dup2\n        /* \"contracts/Blockchain_Assignment_7/week7_task7.sol\":2078:2102  new uint256[](modeCount) */\n      0xffffffffffffffff\n      dup2\n      gt\n      iszero\n      tag_114\n      jumpi\n      tag_115\n      tag_11\n      jump\t// in\n    tag_115:\n    tag_114:\n      mload(0x40)\n      swap1\n      dup1\n      dup3\n      mstore\n      dup1\n      0x20\n      mul\n      0x20\n      add\n      dup3\n      add\n      0x40\n      mstore\n      dup1\n      iszero\n      tag_116\n      jumpi\n      dup2\n      0x20\n      add\n      0x20\n      dup3\n      mul\n      dup1\n      calldatasize\n      dup4\n      calldatacopy\n      dup1\n      dup3\n      add\n      swap2\n      pop\n      pop\n      swap1\n      pop\n    tag_116:\n      pop\n        /* \"contracts/Blockchain_Assignment_7/week7_task7.sol\":2053:2102  uint256[] memory modes = new uint256[](modeCount) */\n      swap1\n      pop\n        /* \"contracts/Blockchain_Assignment_7/week7_task7.sol\":2113:2126  uint256 index */\n      0x00\n        /* \"contracts/Blockchain_Assignment_7/week7_task7.sol\":2146:2155  uint256 i */\n      dup1\n        /* \"contracts/Blockchain_Assignment_7/week7_task7.sol\":2141:2327  for (uint256 i = 0; i < uniqueCount; i++) {... */\n    tag_117:\n        /* \"contracts/Blockchain_Assignment_7/week7_task7.sol\":2165:2176  uniqueCount */\n      dup6\n        /* \"contracts/Blockchain_Assignment_7/week7_task7.sol\":2161:2162  i */\n      dup2\n        /* \"contracts/Blockchain_Assignment_7/week7_task7.sol\":2161:2176  i < uniqueCount */\n      lt\n        /* \"contracts/Blockchain_Assignment_7/week7_task7.sol\":2141:2327  for (uint256 i = 0; i < uniqueCount; i++) {... */\n      iszero\n      tag_118\n      jumpi\n        /* \"contracts/Blockchain_Assignment_7/week7_task7.sol\":2215:2223  maxCount */\n      dup5\n        /* \"contracts/Blockchain_Assignment_7/week7_task7.sol\":2202:2208  counts */\n      dup8\n        /* \"contracts/Blockchain_Assignment_7/week7_task7.sol\":2209:2210  i */\n      dup3\n        /* \"contracts/Blockchain_Assignment_7/week7_task7.sol\":2202:2211  counts[i] */\n      dup2\n      mload\n      dup2\n      lt\n      tag_120\n      jumpi\n      tag_121\n      tag_15\n      jump\t// in\n    tag_121:\n    tag_120:\n      0x20\n      mul\n      0x20\n      add\n      add\n      mload\n        /* \"contracts/Blockchain_Assignment_7/week7_task7.sol\":2202:2223  counts[i] == maxCount */\n      sub\n        /* \"contracts/Blockchain_Assignment_7/week7_task7.sol\":2198:2316  if (counts[i] == maxCount) {... */\n      tag_122\n      jumpi\n        /* \"contracts/Blockchain_Assignment_7/week7_task7.sol\":2259:2271  uniqueValues */\n      dup8\n        /* \"contracts/Blockchain_Assignment_7/week7_task7.sol\":2272:2273  i */\n      dup2\n        /* \"contracts/Blockchain_Assignment_7/week7_task7.sol\":2259:2274  uniqueValues[i] */\n      dup2\n      mload\n      dup2\n      lt\n      tag_123\n      jumpi\n      tag_124\n      tag_15\n      jump\t// in\n    tag_124:\n    tag_123:\n      0x20\n      mul\n      0x20\n      add\n      add\n      mload\n        /* \"contracts/Blockchain_Assignment_7/week7_task7.sol\":2244:2249  modes */\n      dup4\n        /* \"contracts/Blockchain_Assignment_7/week7_task7.sol\":2250:2255  index */\n      dup4\n        /* \"contracts/Blockchain_Assignment_7/week7_task7.sol\":2244:2256  modes[index] */\n      dup2\n      mload\n      dup2\n      lt\n      tag_125\n      jumpi\n      tag_126\n      tag_15\n      jump\t// in\n    tag_126:\n    tag_125:\n      0x20\n      mul\n      0x20\n      add\n      add\n        /* \"contracts/Blockchain_Assignment_7/week7_task7.sol\":2244:2274  modes[index] = uniqueValues[i] */\n      dup2\n      dup2\n      mstore\n      pop\n      pop\n        /* \"contracts/Blockchain_Assignment_7/week7_task7.sol\":2293:2300  index++ */\n      dup2\n      dup1\n      tag_127\n      swap1\n      tag_86\n      jump\t// in\n    tag_127:\n      swap3\n      pop\n      pop\n        /* \"contracts/Blockchain_Assignment_7/week7_task7.sol\":2198:2316  if (counts[i] == maxCount) {... */\n    tag_122:\n        /* \"contracts/Blockchain_Assignment_7/week7_task7.sol\":2178:2181  i++ */\n      dup1\n      dup1\n      0x01\n      add\n      swap2\n      pop\n      pop\n        /* \"contracts/Blockchain_Assignment_7/week7_task7.sol\":2141:2327  for (uint256 i = 0; i < uniqueCount; i++) {... */\n      jump(tag_117)\n    tag_118:\n      pop\n        /* \"contracts/Blockchain_Assignment_7/week7_task7.sol\":2346:2351  modes */\n      dup2\n        /* \"contracts/Blockchain_Assignment_7/week7_task7.sol\":2339:2351  return modes */\n      swap8\n      pop\n      pop\n      pop\n      pop\n      pop\n      pop\n      pop\n      pop\n        /* \"contracts/Blockchain_Assignment_7/week7_task7.sol\":756:2359  function mode(uint256[] memory data) internal pure returns (uint256[] memory) {... */\n      swap2\n      swap1\n      pop\n      jump\t// out\n        /* \"contracts/Blockchain_Assignment_7/week7_task7.sol\":2367:2751  function sort(uint256[] memory data) private pure returns (uint256[] memory) {... */\n    tag_47:\n        /* \"contracts/Blockchain_Assignment_7/week7_task7.sol\":2426:2442  uint256[] memory */\n      0x60\n        /* \"contracts/Blockchain_Assignment_7/week7_task7.sol\":2455:2464  uint256 n */\n      0x00\n        /* \"contracts/Blockchain_Assignment_7/week7_task7.sol\":2467:2471  data */\n      dup3\n        /* \"contracts/Blockchain_Assignment_7/week7_task7.sol\":2467:2478  data.length */\n      mload\n        /* \"contracts/Blockchain_Assignment_7/week7_task7.sol\":2455:2478  uint256 n = data.length */\n      swap1\n      pop\n        /* \"contracts/Blockchain_Assignment_7/week7_task7.sol\":2494:2503  uint256 i */\n      0x00\n        /* \"contracts/Blockchain_Assignment_7/week7_task7.sol\":2489:2722  for (uint256 i = 0; i < n; i++) {... */\n    tag_129:\n        /* \"contracts/Blockchain_Assignment_7/week7_task7.sol\":2513:2514  n */\n      dup2\n        /* \"contracts/Blockchain_Assignment_7/week7_task7.sol\":2509:2510  i */\n      dup2\n        /* \"contracts/Blockchain_Assignment_7/week7_task7.sol\":2509:2514  i < n */\n      lt\n        /* \"contracts/Blockchain_Assignment_7/week7_task7.sol\":2489:2722  for (uint256 i = 0; i < n; i++) {... */\n      iszero\n      tag_130\n      jumpi\n        /* \"contracts/Blockchain_Assignment_7/week7_task7.sol\":2541:2550  uint256 j */\n      0x00\n        /* \"contracts/Blockchain_Assignment_7/week7_task7.sol\":2557:2558  1 */\n      0x01\n        /* \"contracts/Blockchain_Assignment_7/week7_task7.sol\":2553:2554  i */\n      dup3\n        /* \"contracts/Blockchain_Assignment_7/week7_task7.sol\":2553:2558  i + 1 */\n      tag_135\n      swap2\n      swap1\n      tag_40\n      jump\t// in\n    tag_135:\n        /* \"contracts/Blockchain_Assignment_7/week7_task7.sol\":2541:2558  uint256 j = i + 1 */\n      swap1\n      pop\n        /* \"contracts/Blockchain_Assignment_7/week7_task7.sol\":2536:2711  for (uint256 j = i + 1; j < n; j++) {... */\n    tag_132:\n        /* \"contracts/Blockchain_Assignment_7/week7_task7.sol\":2564:2565  n */\n      dup3\n        /* \"contracts/Blockchain_Assignment_7/week7_task7.sol\":2560:2561  j */\n      dup2\n        /* \"contracts/Blockchain_Assignment_7/week7_task7.sol\":2560:2565  j < n */\n      lt\n        /* \"contracts/Blockchain_Assignment_7/week7_task7.sol\":2536:2711  for (uint256 j = i + 1; j < n; j++) {... */\n      iszero\n      tag_133\n      jumpi\n        /* \"contracts/Blockchain_Assignment_7/week7_task7.sol\":2605:2609  data */\n      dup5\n        /* \"contracts/Blockchain_Assignment_7/week7_task7.sol\":2610:2611  j */\n      dup2\n        /* \"contracts/Blockchain_Assignment_7/week7_task7.sol\":2605:2612  data[j] */\n      dup2\n      mload\n      dup2\n      lt\n      tag_136\n      jumpi\n      tag_137\n      tag_15\n      jump\t// in\n    tag_137:\n    tag_136:\n      0x20\n      mul\n      0x20\n      add\n      add\n      mload\n        /* \"contracts/Blockchain_Assignment_7/week7_task7.sol\":2595:2599  data */\n      dup6\n        /* \"contracts/Blockchain_Assignment_7/week7_task7.sol\":2600:2601  i */\n      dup4\n        /* \"contracts/Blockchain_Assignment_7/week7_task7.sol\":2595:2602  data[i] */\n      dup2\n      mload\n      dup2\n      lt\n      tag_138\n      jumpi\n      tag_139\n      tag_15\n      jump\t// in\n    tag_139:\n    tag_138:\n      0x20\n      mul\n      0x20\n      add\n      add\n      mload\n        /* \"contracts/Blockchain_Assignment_7/week7_task7.sol\":2595:2612  data[i] > data[j] */\n      gt\n        /* \"contracts/Blockchain_Assignment_7/week7_task7.sol\":2591:2696  if (data[i] > data[j]) {... */\n      iszero\n      tag_140\n      jumpi\n        /* \"contracts/Blockchain_Assignment_7/week7_task7.sol\":2659:2663  data */\n      dup5\n        /* \"contracts/Blockchain_Assignment_7/week7_task7.sol\":2664:2665  j */\n      dup2\n        /* \"contracts/Blockchain_Assignment_7/week7_task7.sol\":2659:2666  data[j] */\n      dup2\n      mload\n      dup2\n      lt\n      tag_141\n      jumpi\n      tag_142\n      tag_15\n      jump\t// in\n    tag_142:\n    tag_141:\n      0x20\n      mul\n      0x20\n      add\n      add\n      mload\n        /* \"contracts/Blockchain_Assignment_7/week7_task7.sol\":2668:2672  data */\n      dup6\n        /* \"contracts/Blockchain_Assignment_7/week7_task7.sol\":2673:2674  i */\n      dup4\n        /* \"contracts/Blockchain_Assignment_7/week7_task7.sol\":2668:2675  data[i] */\n      dup2\n      mload\n      dup2\n      lt\n      tag_143\n      jumpi\n      tag_144\n      tag_15\n      jump\t// in\n    tag_144:\n    tag_143:\n      0x20\n      mul\n      0x20\n      add\n      add\n      mload\n        /* \"contracts/Blockchain_Assignment_7/week7_task7.sol\":2638:2642  data */\n      dup7\n        /* \"contracts/Blockchain_Assignment_7/week7_task7.sol\":2643:2644  i */\n      dup5\n        /* \"contracts/Blockchain_Assignment_7/week7_task7.sol\":2638:2645  data[i] */\n      dup2\n      mload\n      dup2\n      lt\n      tag_145\n      jumpi\n      tag_146\n      tag_15\n      jump\t// in\n    tag_146:\n    tag_145:\n      0x20\n      mul\n      0x20\n      add\n      add\n        /* \"contracts/Blockchain_Assignment_7/week7_task7.sol\":2647:2651  data */\n      dup8\n        /* \"contracts/Blockchain_Assignment_7/week7_task7.sol\":2652:2653  j */\n      dup5\n        /* \"contracts/Blockchain_Assignment_7/week7_task7.sol\":2647:2654  data[j] */\n      dup2\n      mload\n      dup2\n      lt\n      tag_147\n      jumpi\n      tag_148\n      tag_15\n      jump\t// in\n    tag_148:\n    tag_147:\n      0x20\n      mul\n      0x20\n      add\n      add\n        /* \"contracts/Blockchain_Assignment_7/week7_task7.sol\":2637:2676  (data[i], data[j]) = (data[j], data[i]) */\n      dup3\n      dup2\n      mstore\n      pop\n      dup3\n      dup2\n      mstore\n      pop\n      pop\n      pop\n        /* \"contracts/Blockchain_Assignment_7/week7_task7.sol\":2591:2696  if (data[i] > data[j]) {... */\n    tag_140:\n        /* \"contracts/Blockchain_Assignment_7/week7_task7.sol\":2567:2570  j++ */\n      dup1\n      dup1\n      0x01\n      add\n      swap2\n      pop\n      pop\n        /* \"contracts/Blockchain_Assignment_7/week7_task7.sol\":2536:2711  for (uint256 j = i + 1; j < n; j++) {... */\n      jump(tag_132)\n    tag_133:\n      pop\n        /* \"contracts/Blockchain_Assignment_7/week7_task7.sol\":2516:2519  i++ */\n      dup1\n      dup1\n      0x01\n      add\n      swap2\n      pop\n      pop\n        /* \"contracts/Blockchain_Assignment_7/week7_task7.sol\":2489:2722  for (uint256 i = 0; i < n; i++) {... */\n      jump(tag_129)\n    tag_130:\n      pop\n        /* \"contracts/Blockchain_Assignment_7/week7_task7.sol\":2739:2743  data */\n      dup3\n        /* \"contracts/Blockchain_Assignment_7/week7_task7.sol\":2732:2743  return data */\n      swap2\n      pop\n      pop\n        /* \"contracts/Blockchain_Assignment_7/week7_task7.sol\":2367:2751  function sort(uint256[] memory data) private pure returns (uint256[] memory) {... */\n      swap2\n      swap1\n      pop\n      jump\t// out\n        /* \"#utility.yul\":7:84   */\n    tag_149:\n        /* \"#utility.yul\":44:51   */\n      0x00\n        /* \"#utility.yul\":73:78   */\n      dup2\n        /* \"#utility.yul\":62:78   */\n      swap1\n      pop\n        /* \"#utility.yul\":7:84   */\n      swap2\n      swap1\n      pop\n      jump\t// out\n        /* \"#utility.yul\":90:208   */\n    tag_150:\n        /* \"#utility.yul\":177:201   */\n      tag_166\n        /* \"#utility.yul\":195:200   */\n      dup2\n        /* \"#utility.yul\":177:201   */\n      tag_149\n      jump\t// in\n    tag_166:\n        /* \"#utility.yul\":172:175   */\n      dup3\n        /* \"#utility.yul\":165:202   */\n      mstore\n        /* \"#utility.yul\":90:208   */\n      pop\n      pop\n      jump\t// out\n        /* \"#utility.yul\":214:328   */\n    tag_151:\n        /* \"#utility.yul\":281:287   */\n      0x00\n        /* \"#utility.yul\":315:320   */\n      dup2\n        /* \"#utility.yul\":309:321   */\n      mload\n        /* \"#utility.yul\":299:321   */\n      swap1\n      pop\n        /* \"#utility.yul\":214:328   */\n      swap2\n      swap1\n      pop\n      jump\t// out\n        /* \"#utility.yul\":334:518   */\n    tag_152:\n        /* \"#utility.yul\":433:444   */\n      0x00\n        /* \"#utility.yul\":467:473   */\n      dup3\n        /* \"#utility.yul\":462:465   */\n      dup3\n        /* \"#utility.yul\":455:474   */\n      mstore\n        /* \"#utility.yul\":507:511   */\n      0x20\n        /* \"#utility.yul\":502:505   */\n      dup3\n        /* \"#utility.yul\":498:512   */\n      add\n        /* \"#utility.yul\":483:512   */\n      swap1\n      pop\n        /* \"#utility.yul\":334:518   */\n      swap3\n      swap2\n      pop\n      pop\n      jump\t// out\n        /* \"#utility.yul\":524:656   */\n    tag_153:\n        /* \"#utility.yul\":591:595   */\n      0x00\n        /* \"#utility.yul\":614:617   */\n      dup2\n        /* \"#utility.yul\":606:617   */\n      swap1\n      pop\n        /* \"#utility.yul\":644:648   */\n      0x20\n        /* \"#utility.yul\":639:642   */\n      dup3\n        /* \"#utility.yul\":635:649   */\n      add\n        /* \"#utility.yul\":627:649   */\n      swap1\n      pop\n        /* \"#utility.yul\":524:656   */\n      swap2\n      swap1\n      pop\n      jump\t// out\n        /* \"#utility.yul\":662:770   */\n    tag_154:\n        /* \"#utility.yul\":739:763   */\n      tag_171\n        /* \"#utility.yul\":757:762   */\n      dup2\n        /* \"#utility.yul\":739:763   */\n      tag_149\n      jump\t// in\n    tag_171:\n        /* \"#utility.yul\":734:737   */\n      dup3\n        /* \"#utility.yul\":727:764   */\n      mstore\n        /* \"#utility.yul\":662:770   */\n      pop\n      pop\n      jump\t// out\n        /* \"#utility.yul\":776:955   */\n    tag_155:\n        /* \"#utility.yul\":845:855   */\n      0x00\n        /* \"#utility.yul\":866:912   */\n      tag_173\n        /* \"#utility.yul\":908:911   */\n      dup4\n        /* \"#utility.yul\":900:906   */\n      dup4\n        /* \"#utility.yul\":866:912   */\n      tag_154\n      jump\t// in\n    tag_173:\n        /* \"#utility.yul\":944:948   */\n      0x20\n        /* \"#utility.yul\":939:942   */\n      dup4\n        /* \"#utility.yul\":935:949   */\n      add\n        /* \"#utility.yul\":921:949   */\n      swap1\n      pop\n        /* \"#utility.yul\":776:955   */\n      swap3\n      swap2\n      pop\n      pop\n      jump\t// out\n        /* \"#utility.yul\":961:1074   */\n    tag_156:\n        /* \"#utility.yul\":1031:1035   */\n      0x00\n        /* \"#utility.yul\":1063:1067   */\n      0x20\n        /* \"#utility.yul\":1058:1061   */\n      dup3\n        /* \"#utility.yul\":1054:1068   */\n      add\n        /* \"#utility.yul\":1046:1068   */\n      swap1\n      pop\n        /* \"#utility.yul\":961:1074   */\n      swap2\n      swap1\n      pop\n      jump\t// out\n        /* \"#utility.yul\":1110:1842   */\n    tag_157:\n        /* \"#utility.yul\":1229:1232   */\n      0x00\n        /* \"#utility.yul\":1258:1312   */\n      tag_176\n        /* \"#utility.yul\":1306:1311   */\n      dup3\n        /* \"#utility.yul\":1258:1312   */\n      tag_151\n      jump\t// in\n    tag_176:\n        /* \"#utility.yul\":1328:1414   */\n      tag_177\n        /* \"#utility.yul\":1407:1413   */\n      dup2\n        /* \"#utility.yul\":1402:1405   */\n      dup6\n        /* \"#utility.yul\":1328:1414   */\n      tag_152\n      jump\t// in\n    tag_177:\n        /* \"#utility.yul\":1321:1414   */\n      swap4\n      pop\n        /* \"#utility.yul\":1438:1494   */\n      tag_178\n        /* \"#utility.yul\":1488:1493   */\n      dup4\n        /* \"#utility.yul\":1438:1494   */\n      tag_153\n      jump\t// in\n    tag_178:\n        /* \"#utility.yul\":1517:1524   */\n      dup1\n        /* \"#utility.yul\":1548:1549   */\n      0x00\n        /* \"#utility.yul\":1533:1817   */\n    tag_179:\n        /* \"#utility.yul\":1558:1564   */\n      dup4\n        /* \"#utility.yul\":1555:1556   */\n      dup2\n        /* \"#utility.yul\":1552:1565   */\n      lt\n        /* \"#utility.yul\":1533:1817   */\n      iszero\n      tag_181\n      jumpi\n        /* \"#utility.yul\":1634:1640   */\n      dup2\n        /* \"#utility.yul\":1628:1641   */\n      mload\n        /* \"#utility.yul\":1661:1724   */\n      tag_182\n        /* \"#utility.yul\":1720:1723   */\n      dup9\n        /* \"#utility.yul\":1705:1718   */\n      dup3\n        /* \"#utility.yul\":1661:1724   */\n      tag_155\n      jump\t// in\n    tag_182:\n        /* \"#utility.yul\":1654:1724   */\n      swap8\n      pop\n        /* \"#utility.yul\":1747:1807   */\n      tag_183\n        /* \"#utility.yul\":1800:1806   */\n      dup4\n        /* \"#utility.yul\":1747:1807   */\n      tag_156\n      jump\t// in\n    tag_183:\n        /* \"#utility.yul\":1737:1807   */\n      swap3\n      pop\n        /* \"#utility.yul\":1593:1817   */\n      pop\n        /* \"#utility.yul\":1580:1581   */\n      0x01\n        /* \"#utility.yul\":1577:1578   */\n      dup2\n        /* \"#utility.yul\":1573:1582   */\n      add\n        /* \"#utility.yul\":1568:1582   */\n      swap1\n      pop\n        /* \"#utility.yul\":1533:1817   */\n      jump(tag_179)\n    tag_181:\n        /* \"#utility.yul\":1537:1551   */\n      pop\n        /* \"#utility.yul\":1833:1836   */\n      dup6\n        /* \"#utility.yul\":1826:1836   */\n      swap4\n      pop\n        /* \"#utility.yul\":1234:1842   */\n      pop\n      pop\n      pop\n        /* \"#utility.yul\":1110:1842   */\n      swap3\n      swap2\n      pop\n      pop\n      jump\t// out\n        /* \"#utility.yul\":1848:2441   */\n    tag_7:\n        /* \"#utility.yul\":2047:2051   */\n      0x00\n        /* \"#utility.yul\":2085:2087   */\n      0x60\n        /* \"#utility.yul\":2074:2083   */\n      dup3\n        /* \"#utility.yul\":2070:2088   */\n      add\n        /* \"#utility.yul\":2062:2088   */\n      swap1\n      pop\n        /* \"#utility.yul\":2098:2169   */\n      tag_185\n        /* \"#utility.yul\":2166:2167   */\n      0x00\n        /* \"#utility.yul\":2155:2164   */\n      dup4\n        /* \"#utility.yul\":2151:2168   */\n      add\n        /* \"#utility.yul\":2142:2148   */\n      dup7\n        /* \"#utility.yul\":2098:2169   */\n      tag_150\n      jump\t// in\n    tag_185:\n        /* \"#utility.yul\":2179:2251   */\n      tag_186\n        /* \"#utility.yul\":2247:2249   */\n      0x20\n        /* \"#utility.yul\":2236:2245   */\n      dup4\n        /* \"#utility.yul\":2232:2250   */\n      add\n        /* \"#utility.yul\":2223:2229   */\n      dup6\n        /* \"#utility.yul\":2179:2251   */\n      tag_150\n      jump\t// in\n    tag_186:\n        /* \"#utility.yul\":2298:2307   */\n      dup2\n        /* \"#utility.yul\":2292:2296   */\n      dup2\n        /* \"#utility.yul\":2288:2308   */\n      sub\n        /* \"#utility.yul\":2283:2285   */\n      0x40\n        /* \"#utility.yul\":2272:2281   */\n      dup4\n        /* \"#utility.yul\":2268:2286   */\n      add\n        /* \"#utility.yul\":2261:2309   */\n      mstore\n        /* \"#utility.yul\":2326:2434   */\n      tag_187\n        /* \"#utility.yul\":2429:2433   */\n      dup2\n        /* \"#utility.yul\":2420:2426   */\n      dup5\n        /* \"#utility.yul\":2326:2434   */\n      tag_157\n      jump\t// in\n    tag_187:\n        /* \"#utility.yul\":2318:2434   */\n      swap1\n      pop\n        /* \"#utility.yul\":1848:2441   */\n      swap5\n      swap4\n      pop\n      pop\n      pop\n      pop\n      jump\t// out\n        /* \"#utility.yul\":2447:2627   */\n    tag_11:\n        /* \"#utility.yul\":2495:2572   */\n      0x4e487b7100000000000000000000000000000000000000000000000000000000\n        /* \"#utility.yul\":2492:2493   */\n      0x00\n        /* \"#utility.yul\":2485:2573   */\n      mstore\n        /* \"#utility.yul\":2592:2596   */\n      0x41\n        /* \"#utility.yul\":2589:2590   */\n      0x04\n        /* \"#utility.yul\":2582:2597   */\n      mstore\n        /* \"#utility.yul\":2616:2620   */\n      0x24\n        /* \"#utility.yul\":2613:2614   */\n      0x00\n        /* \"#utility.yul\":2606:2621   */\n      revert\n        /* \"#utility.yul\":2633:2813   */\n    tag_15:\n        /* \"#utility.yul\":2681:2758   */\n      0x4e487b7100000000000000000000000000000000000000000000000000000000\n        /* \"#utility.yul\":2678:2679   */\n      0x00\n        /* \"#utility.yul\":2671:2759   */\n      mstore\n        /* \"#utility.yul\":2778:2782   */\n      0x32\n        /* \"#utility.yul\":2775:2776   */\n      0x04\n        /* \"#utility.yul\":2768:2783   */\n      mstore\n        /* \"#utility.yul\":2802:2806   */\n      0x24\n        /* \"#utility.yul\":2799:2800   */\n      0x00\n        /* \"#utility.yul\":2792:2807   */\n      revert\n        /* \"#utility.yul\":2819:2988   */\n    tag_158:\n        /* \"#utility.yul\":2903:2914   */\n      0x00\n        /* \"#utility.yul\":2937:2943   */\n      dup3\n        /* \"#utility.yul\":2932:2935   */\n      dup3\n        /* \"#utility.yul\":2925:2944   */\n      mstore\n        /* \"#utility.yul\":2977:2981   */\n      0x20\n        /* \"#utility.yul\":2972:2975   */\n      dup3\n        /* \"#utility.yul\":2968:2982   */\n      add\n        /* \"#utility.yul\":2953:2982   */\n      swap1\n      pop\n        /* \"#utility.yul\":2819:2988   */\n      swap3\n      swap2\n      pop\n      pop\n      jump\t// out\n        /* \"#utility.yul\":2994:3167   */\n    tag_159:\n        /* \"#utility.yul\":3134:3159   */\n      0x4172726179206d757374206e6f7420626520656d707479000000000000000000\n        /* \"#utility.yul\":3130:3131   */\n      0x00\n        /* \"#utility.yul\":3122:3128   */\n      dup3\n        /* \"#utility.yul\":3118:3132   */\n      add\n        /* \"#utility.yul\":3111:3160   */\n      mstore\n        /* \"#utility.yul\":2994:3167   */\n      pop\n      jump\t// out\n        /* \"#utility.yul\":3173:3539   */\n    tag_160:\n        /* \"#utility.yul\":3315:3318   */\n      0x00\n        /* \"#utility.yul\":3336:3403   */\n      tag_193\n        /* \"#utility.yul\":3400:3402   */\n      0x17\n        /* \"#utility.yul\":3395:3398   */\n      dup4\n        /* \"#utility.yul\":3336:3403   */\n      tag_158\n      jump\t// in\n    tag_193:\n        /* \"#utility.yul\":3329:3403   */\n      swap2\n      pop\n        /* \"#utility.yul\":3412:3505   */\n      tag_194\n        /* \"#utility.yul\":3501:3504   */\n      dup3\n        /* \"#utility.yul\":3412:3505   */\n      tag_159\n      jump\t// in\n    tag_194:\n        /* \"#utility.yul\":3530:3532   */\n      0x20\n        /* \"#utility.yul\":3525:3528   */\n      dup3\n        /* \"#utility.yul\":3521:3533   */\n      add\n        /* \"#utility.yul\":3514:3533   */\n      swap1\n      pop\n        /* \"#utility.yul\":3173:3539   */\n      swap2\n      swap1\n      pop\n      jump\t// out\n        /* \"#utility.yul\":3545:3964   */\n    tag_33:\n        /* \"#utility.yul\":3711:3715   */\n      0x00\n        /* \"#utility.yul\":3749:3751   */\n      0x20\n        /* \"#utility.yul\":3738:3747   */\n      dup3\n        /* \"#utility.yul\":3734:3752   */\n      add\n        /* \"#utility.yul\":3726:3752   */\n      swap1\n      pop\n        /* \"#utility.yul\":3798:3807   */\n      dup2\n        /* \"#utility.yul\":3792:3796   */\n      dup2\n        /* \"#utility.yul\":3788:3808   */\n      sub\n        /* \"#utility.yul\":3784:3785   */\n      0x00\n        /* \"#utility.yul\":3773:3782   */\n      dup4\n        /* \"#utility.yul\":3769:3786   */\n      add\n        /* \"#utility.yul\":3762:3809   */\n      mstore\n        /* \"#utility.yul\":3826:3957   */\n      tag_196\n        /* \"#utility.yul\":3952:3956   */\n      dup2\n        /* \"#utility.yul\":3826:3957   */\n      tag_160\n      jump\t// in\n    tag_196:\n        /* \"#utility.yul\":3818:3957   */\n      swap1\n      pop\n        /* \"#utility.yul\":3545:3964   */\n      swap2\n      swap1\n      pop\n      jump\t// out\n        /* \"#utility.yul\":3970:4150   */\n    tag_161:\n        /* \"#utility.yul\":4018:4095   */\n      0x4e487b7100000000000000000000000000000000000000000000000000000000\n        /* \"#utility.yul\":4015:4016   */\n      0x00\n        /* \"#utility.yul\":4008:4096   */\n      mstore\n        /* \"#utility.yul\":4115:4119   */\n      0x11\n        /* \"#utility.yul\":4112:4113   */\n      0x04\n        /* \"#utility.yul\":4105:4120   */\n      mstore\n        /* \"#utility.yul\":4139:4143   */\n      0x24\n        /* \"#utility.yul\":4136:4137   */\n      0x00\n        /* \"#utility.yul\":4129:4144   */\n      revert\n        /* \"#utility.yul\":4156:4347   */\n    tag_40:\n        /* \"#utility.yul\":4196:4199   */\n      0x00\n        /* \"#utility.yul\":4215:4235   */\n      tag_199\n        /* \"#utility.yul\":4233:4234   */\n      dup3\n        /* \"#utility.yul\":4215:4235   */\n      tag_149\n      jump\t// in\n    tag_199:\n        /* \"#utility.yul\":4210:4235   */\n      swap2\n      pop\n        /* \"#utility.yul\":4249:4269   */\n      tag_200\n        /* \"#utility.yul\":4267:4268   */\n      dup4\n        /* \"#utility.yul\":4249:4269   */\n      tag_149\n      jump\t// in\n    tag_200:\n        /* \"#utility.yul\":4244:4269   */\n      swap3\n      pop\n        /* \"#utility.yul\":4292:4293   */\n      dup3\n        /* \"#utility.yul\":4289:4290   */\n      dup3\n        /* \"#utility.yul\":4285:4294   */\n      add\n        /* \"#utility.yul\":4278:4294   */\n      swap1\n      pop\n        /* \"#utility.yul\":4313:4316   */\n      dup1\n        /* \"#utility.yul\":4310:4311   */\n      dup3\n        /* \"#utility.yul\":4307:4317   */\n      gt\n        /* \"#utility.yul\":4304:4340   */\n      iszero\n      tag_201\n      jumpi\n        /* \"#utility.yul\":4320:4338   */\n      tag_202\n      tag_161\n      jump\t// in\n    tag_202:\n        /* \"#utility.yul\":4304:4340   */\n    tag_201:\n        /* \"#utility.yul\":4156:4347   */\n      swap3\n      swap2\n      pop\n      pop\n      jump\t// out\n        /* \"#utility.yul\":4353:4533   */\n    tag_162:\n        /* \"#utility.yul\":4401:4478   */\n      0x4e487b7100000000000000000000000000000000000000000000000000000000\n        /* \"#utility.yul\":4398:4399   */\n      0x00\n        /* \"#utility.yul\":4391:4479   */\n      mstore\n        /* \"#utility.yul\":4498:4502   */\n      0x12\n        /* \"#utility.yul\":4495:4496   */\n      0x04\n        /* \"#utility.yul\":4488:4503   */\n      mstore\n        /* \"#utility.yul\":4522:4526   */\n      0x24\n        /* \"#utility.yul\":4519:4520   */\n      0x00\n        /* \"#utility.yul\":4512:4527   */\n      revert\n        /* \"#utility.yul\":4539:4724   */\n    tag_42:\n        /* \"#utility.yul\":4579:4580   */\n      0x00\n        /* \"#utility.yul\":4596:4616   */\n      tag_205\n        /* \"#utility.yul\":4614:4615   */\n      dup3\n        /* \"#utility.yul\":4596:4616   */\n      tag_149\n      jump\t// in\n    tag_205:\n        /* \"#utility.yul\":4591:4616   */\n      swap2\n      pop\n        /* \"#utility.yul\":4630:4650   */\n      tag_206\n        /* \"#utility.yul\":4648:4649   */\n      dup4\n        /* \"#utility.yul\":4630:4650   */\n      tag_149\n      jump\t// in\n    tag_206:\n        /* \"#utility.yul\":4625:4650   */\n      swap3\n      pop\n        /* \"#utility.yul\":4669:4670   */\n      dup3\n        /* \"#utility.yul\":4659:4694   */\n      tag_207\n      jumpi\n        /* \"#utility.yul\":4674:4692   */\n      tag_208\n      tag_162\n      jump\t// in\n    tag_208:\n        /* \"#utility.yul\":4659:4694   */\n    tag_207:\n        /* \"#utility.yul\":4716:4717   */\n      dup3\n        /* \"#utility.yul\":4713:4714   */\n      dup3\n        /* \"#utility.yul\":4709:4718   */\n      div\n        /* \"#utility.yul\":4704:4718   */\n      swap1\n      pop\n        /* \"#utility.yul\":4539:4724   */\n      swap3\n      swap2\n      pop\n      pop\n      jump\t// out\n        /* \"#utility.yul\":4730:4906   */\n    tag_50:\n        /* \"#utility.yul\":4762:4763   */\n      0x00\n        /* \"#utility.yul\":4779:4799   */\n      tag_210\n        /* \"#utility.yul\":4797:4798   */\n      dup3\n        /* \"#utility.yul\":4779:4799   */\n      tag_149\n      jump\t// in\n    tag_210:\n        /* \"#utility.yul\":4774:4799   */\n      swap2\n      pop\n        /* \"#utility.yul\":4813:4833   */\n      tag_211\n        /* \"#utility.yul\":4831:4832   */\n      dup4\n        /* \"#utility.yul\":4813:4833   */\n      tag_149\n      jump\t// in\n    tag_211:\n        /* \"#utility.yul\":4808:4833   */\n      swap3\n      pop\n        /* \"#utility.yul\":4852:4853   */\n      dup3\n        /* \"#utility.yul\":4842:4877   */\n      tag_212\n      jumpi\n        /* \"#utility.yul\":4857:4875   */\n      tag_213\n      tag_162\n      jump\t// in\n    tag_213:\n        /* \"#utility.yul\":4842:4877   */\n    tag_212:\n        /* \"#utility.yul\":4898:4899   */\n      dup3\n        /* \"#utility.yul\":4895:4896   */\n      dup3\n        /* \"#utility.yul\":4891:4900   */\n      mod\n        /* \"#utility.yul\":4886:4900   */\n      swap1\n      pop\n        /* \"#utility.yul\":4730:4906   */\n      swap3\n      swap2\n      pop\n      pop\n      jump\t// out\n        /* \"#utility.yul\":4912:5106   */\n    tag_55:\n        /* \"#utility.yul\":4952:4956   */\n      0x00\n        /* \"#utility.yul\":4972:4992   */\n      tag_215\n        /* \"#utility.yul\":4990:4991   */\n      dup3\n        /* \"#utility.yul\":4972:4992   */\n      tag_149\n      jump\t// in\n    tag_215:\n        /* \"#utility.yul\":4967:4992   */\n      swap2\n      pop\n        /* \"#utility.yul\":5006:5026   */\n      tag_216\n        /* \"#utility.yul\":5024:5025   */\n      dup4\n        /* \"#utility.yul\":5006:5026   */\n      tag_149\n      jump\t// in\n    tag_216:\n        /* \"#utility.yul\":5001:5026   */\n      swap3\n      pop\n        /* \"#utility.yul\":5050:5051   */\n      dup3\n        /* \"#utility.yul\":5047:5048   */\n      dup3\n        /* \"#utility.yul\":5043:5052   */\n      sub\n        /* \"#utility.yul\":5035:5052   */\n      swap1\n      pop\n        /* \"#utility.yul\":5074:5075   */\n      dup2\n        /* \"#utility.yul\":5068:5072   */\n      dup2\n        /* \"#utility.yul\":5065:5076   */\n      gt\n        /* \"#utility.yul\":5062:5099   */\n      iszero\n      tag_217\n      jumpi\n        /* \"#utility.yul\":5079:5097   */\n      tag_218\n      tag_161\n      jump\t// in\n    tag_218:\n        /* \"#utility.yul\":5062:5099   */\n    tag_217:\n        /* \"#utility.yul\":4912:5106   */\n      swap3\n      swap2\n      pop\n      pop\n      jump\t// out\n        /* \"#utility.yul\":5112:5345   */\n    tag_86:\n        /* \"#utility.yul\":5151:5154   */\n      0x00\n        /* \"#utility.yul\":5174:5198   */\n      tag_220\n        /* \"#utility.yul\":5192:5197   */\n      dup3\n        /* \"#utility.yul\":5174:5198   */\n      tag_149\n      jump\t// in\n    tag_220:\n        /* \"#utility.yul\":5165:5198   */\n      swap2\n      pop\n        /* \"#utility.yul\":5220:5286   */\n      0xffffffffffffffffffffffffffffffffffffffffffffffffffffffffffffffff\n        /* \"#utility.yul\":5213:5218   */\n      dup3\n        /* \"#utility.yul\":5210:5287   */\n      sub\n        /* \"#utility.yul\":5207:5310   */\n      tag_221\n      jumpi\n        /* \"#utility.yul\":5290:5308   */\n      tag_222\n      tag_161\n      jump\t// in\n    tag_222:\n        /* \"#utility.yul\":5207:5310   */\n    tag_221:\n        /* \"#utility.yul\":5337:5338   */\n      0x01\n        /* \"#utility.yul\":5330:5335   */\n      dup3\n        /* \"#utility.yul\":5326:5339   */\n      add\n        /* \"#utility.yul\":5319:5339   */\n      swap1\n      pop\n        /* \"#utility.yul\":5112:5345   */\n      swap2\n      swap1\n      pop\n      jump\t// out\n\n    auxdata: 0xa26469706673582212200320409fa9f6402c59493829c0d6c21371fb0412d5a964fee7b75d2cfebdddf164736f6c634300081a0033\n}\n",
				"bytecode": {
					"linkReferences": {},
					"object": "6080604052348015600e575f80fd5b50610b3f8061001c5f395ff3fe608060405234801561000f575f80fd5b5060043610610029575f3560e01c8063dc5de1041461002d575b5f80fd5b61003561004d565b60405161004493929190610894565b60405180910390f35b5f8060605f600567ffffffffffffffff81111561006d5761006c6108d0565b5b60405190808252806020026020018201604052801561009b5781602001602082028036833780820191505090505b5090506004815f815181106100b3576100b26108fd565b5b6020026020010181815250506002816001815181106100d5576100d46108fd565b5b6020026020010181815250506002816002815181106100f7576100f66108fd565b5b602002602001018181525050600881600381518110610119576101186108fd565b5b60200260200101818152505060068160048151811061013b5761013a6108fd565b5b6020026020010181815250505f6101518261017d565b90505f61015d83610218565b90505f61016984610313565b905082828296509650965050505050909192565b5f808251116101c1576040517f08c379a00000000000000000000000000000000000000000000000000000000081526004016101b890610984565b60405180910390fd5b5f805b8351811015610202578381815181106101e0576101df6108fd565b5b6020026020010151826101f391906109cf565b915080806001019150506101c4565b508251816102109190610a2f565b915050919050565b5f8082511161025c576040517f08c379a000000000000000000000000000000000000000000000000000000000815260040161025390610984565b60405180910390fd5b5f610266836106c5565b90505f600282516102779190610a2f565b90505f600283516102889190610a5f565b036102ee5760028282815181106102a2576102a16108fd565b5b6020026020010151836001846102b89190610a8f565b815181106102c9576102c86108fd565b5b60200260200101516102db91906109cf565b6102e59190610a2f565b9250505061030e565b818181518110610301576103006108fd565b5b6020026020010151925050505b919050565b60605f825111610358576040517f08c379a000000000000000000000000000000000000000000000000000000000815260040161034f90610984565b60405180910390fd5b5f825167ffffffffffffffff811115610374576103736108d0565b5b6040519080825280602002602001820160405280156103a25781602001602082028036833780820191505090505b5090505f835167ffffffffffffffff8111156103c1576103c06108d0565b5b6040519080825280602002602001820160405280156103ef5781602001602082028036833780820191505090505b5090505f805f5b865181101561059d575f805b848110156104c75788838151811061041d5761041c6108fd565b5b6020026020010151878281518110610438576104376108fd565b5b6020026020010151036104ba57858181518110610458576104576108fd565b5b60200260200101805180919061046d90610ac2565b815250506001915083868281518110610489576104886108fd565b5b602002602001015111156104b5578581815181106104aa576104a96108fd565b5b602002602001015193505b6104c7565b8080600101915050610402565b508061058f578782815181106104e0576104df6108fd565b5b60200260200101518685815181106104fb576104fa6108fd565b5b602002602001018181525050600185858151811061051c5761051b6108fd565b5b602002602001018181525050838061053390610ac2565b94505082856001866105459190610a8f565b81518110610556576105556108fd565b5b6020026020010151111561058e57846001856105729190610a8f565b81518110610583576105826108fd565b5b602002602001015192505b5b5080806001019150506103f6565b505f805b838110156105e657828582815181106105bd576105bc6108fd565b5b6020026020010151036105d95781806105d590610ac2565b9250505b80806001019150506105a1565b505f8167ffffffffffffffff811115610602576106016108d0565b5b6040519080825280602002602001820160405280156106305781602001602082028036833780820191505090505b5090505f805b858110156106b55784878281518110610652576106516108fd565b5b6020026020010151036106a857878181518110610672576106716108fd565b5b602002602001015183838151811061068d5761068c6108fd565b5b60200260200101818152505081806106a490610ac2565b9250505b8080600101915050610636565b5081975050505050505050919050565b60605f825190505f5b818110156107bb575f6001826106e491906109cf565b90505b828110156107ad57848181518110610702576107016108fd565b5b602002602001015185838151811061071d5761071c6108fd565b5b602002602001015111156107a05784818151811061073e5761073d6108fd565b5b6020026020010151858381518110610759576107586108fd565b5b6020026020010151868481518110610774576107736108fd565b5b6020026020010187848151811061078e5761078d6108fd565b5b60200260200101828152508281525050505b80806001019150506106e7565b5080806001019150506106ce565b5082915050919050565b5f819050919050565b6107d7816107c5565b82525050565b5f81519050919050565b5f82825260208201905092915050565b5f819050602082019050919050565b61080f816107c5565b82525050565b5f6108208383610806565b60208301905092915050565b5f602082019050919050565b5f610842826107dd565b61084c81856107e7565b9350610857836107f7565b805f5b8381101561088757815161086e8882610815565b97506108798361082c565b92505060018101905061085a565b5085935050505092915050565b5f6060820190506108a75f8301866107ce565b6108b460208301856107ce565b81810360408301526108c68184610838565b9050949350505050565b7f4e487b71000000000000000000000000000000000000000000000000000000005f52604160045260245ffd5b7f4e487b71000000000000000000000000000000000000000000000000000000005f52603260045260245ffd5b5f82825260208201905092915050565b7f4172726179206d757374206e6f7420626520656d7074790000000000000000005f82015250565b5f61096e60178361092a565b91506109798261093a565b602082019050919050565b5f6020820190508181035f83015261099b81610962565b9050919050565b7f4e487b71000000000000000000000000000000000000000000000000000000005f52601160045260245ffd5b5f6109d9826107c5565b91506109e4836107c5565b92508282019050808211156109fc576109fb6109a2565b5b92915050565b7f4e487b71000000000000000000000000000000000000000000000000000000005f52601260045260245ffd5b5f610a39826107c5565b9150610a44836107c5565b925082610a5457610a53610a02565b5b828204905092915050565b5f610a69826107c5565b9150610a74836107c5565b925082610a8457610a83610a02565b5b828206905092915050565b5f610a99826107c5565b9150610aa4836107c5565b9250828203905081811115610abc57610abb6109a2565b5b92915050565b5f610acc826107c5565b91507fffffffffffffffffffffffffffffffffffffffffffffffffffffffffffffffff8203610afe57610afd6109a2565b5b60018201905091905056fea26469706673582212200320409fa9f6402c59493829c0d6c21371fb0412d5a964fee7b75d2cfebdddf164736f6c634300081a0033",
					"opcodes": "PUSH1 0x80 PUSH1 0x40 MSTORE CALLVALUE DUP1 ISZERO PUSH1 0xE JUMPI PUSH0 DUP1 REVERT JUMPDEST POP PUSH2 0xB3F DUP1 PUSH2 0x1C PUSH0 CODECOPY PUSH0 RETURN INVALID PUSH1 0x80 PUSH1 0x40 MSTORE CALLVALUE DUP1 ISZERO PUSH2 0xF JUMPI PUSH0 DUP1 REVERT JUMPDEST POP PUSH1 0x4 CALLDATASIZE LT PUSH2 0x29 JUMPI PUSH0 CALLDATALOAD PUSH1 0xE0 SHR DUP1 PUSH4 0xDC5DE104 EQ PUSH2 0x2D JUMPI JUMPDEST PUSH0 DUP1 REVERT JUMPDEST PUSH2 0x35 PUSH2 0x4D JUMP JUMPDEST PUSH1 0x40 MLOAD PUSH2 0x44 SWAP4 SWAP3 SWAP2 SWAP1 PUSH2 0x894 JUMP JUMPDEST PUSH1 0x40 MLOAD DUP1 SWAP2 SUB SWAP1 RETURN JUMPDEST PUSH0 DUP1 PUSH1 0x60 PUSH0 PUSH1 0x5 PUSH8 0xFFFFFFFFFFFFFFFF DUP2 GT ISZERO PUSH2 0x6D JUMPI PUSH2 0x6C PUSH2 0x8D0 JUMP JUMPDEST JUMPDEST PUSH1 0x40 MLOAD SWAP1 DUP1 DUP3 MSTORE DUP1 PUSH1 0x20 MUL PUSH1 0x20 ADD DUP3 ADD PUSH1 0x40 MSTORE DUP1 ISZERO PUSH2 0x9B JUMPI DUP2 PUSH1 0x20 ADD PUSH1 0x20 DUP3 MUL DUP1 CALLDATASIZE DUP4 CALLDATACOPY DUP1 DUP3 ADD SWAP2 POP POP SWAP1 POP JUMPDEST POP SWAP1 POP PUSH1 0x4 DUP2 PUSH0 DUP2 MLOAD DUP2 LT PUSH2 0xB3 JUMPI PUSH2 0xB2 PUSH2 0x8FD JUMP JUMPDEST JUMPDEST PUSH1 0x20 MUL PUSH1 0x20 ADD ADD DUP2 DUP2 MSTORE POP POP PUSH1 0x2 DUP2 PUSH1 0x1 DUP2 MLOAD DUP2 LT PUSH2 0xD5 JUMPI PUSH2 0xD4 PUSH2 0x8FD JUMP JUMPDEST JUMPDEST PUSH1 0x20 MUL PUSH1 0x20 ADD ADD DUP2 DUP2 MSTORE POP POP PUSH1 0x2 DUP2 PUSH1 0x2 DUP2 MLOAD DUP2 LT PUSH2 0xF7 JUMPI PUSH2 0xF6 PUSH2 0x8FD JUMP JUMPDEST JUMPDEST PUSH1 0x20 MUL PUSH1 0x20 ADD ADD DUP2 DUP2 MSTORE POP POP PUSH1 0x8 DUP2 PUSH1 0x3 DUP2 MLOAD DUP2 LT PUSH2 0x119 JUMPI PUSH2 0x118 PUSH2 0x8FD JUMP JUMPDEST JUMPDEST PUSH1 0x20 MUL PUSH1 0x20 ADD ADD DUP2 DUP2 MSTORE POP POP PUSH1 0x6 DUP2 PUSH1 0x4 DUP2 MLOAD DUP2 LT PUSH2 0x13B JUMPI PUSH2 0x13A PUSH2 0x8FD JUMP JUMPDEST JUMPDEST PUSH1 0x20 MUL PUSH1 0x20 ADD ADD DUP2 DUP2 MSTORE POP POP PUSH0 PUSH2 0x151 DUP3 PUSH2 0x17D JUMP JUMPDEST SWAP1 POP PUSH0 PUSH2 0x15D DUP4 PUSH2 0x218 JUMP JUMPDEST SWAP1 POP PUSH0 PUSH2 0x169 DUP5 PUSH2 0x313 JUMP JUMPDEST SWAP1 POP DUP3 DUP3 DUP3 SWAP7 POP SWAP7 POP SWAP7 POP POP POP POP POP SWAP1 SWAP2 SWAP3 JUMP JUMPDEST PUSH0 DUP1 DUP3 MLOAD GT PUSH2 0x1C1 JUMPI PUSH1 0x40 MLOAD PUSH32 0x8C379A000000000000000000000000000000000000000000000000000000000 DUP2 MSTORE PUSH1 0x4 ADD PUSH2 0x1B8 SWAP1 PUSH2 0x984 JUMP JUMPDEST PUSH1 0x40 MLOAD DUP1 SWAP2 SUB SWAP1 REVERT JUMPDEST PUSH0 DUP1 JUMPDEST DUP4 MLOAD DUP2 LT ISZERO PUSH2 0x202 JUMPI DUP4 DUP2 DUP2 MLOAD DUP2 LT PUSH2 0x1E0 JUMPI PUSH2 0x1DF PUSH2 0x8FD JUMP JUMPDEST JUMPDEST PUSH1 0x20 MUL PUSH1 0x20 ADD ADD MLOAD DUP3 PUSH2 0x1F3 SWAP2 SWAP1 PUSH2 0x9CF JUMP JUMPDEST SWAP2 POP DUP1 DUP1 PUSH1 0x1 ADD SWAP2 POP POP PUSH2 0x1C4 JUMP JUMPDEST POP DUP3 MLOAD DUP2 PUSH2 0x210 SWAP2 SWAP1 PUSH2 0xA2F JUMP JUMPDEST SWAP2 POP POP SWAP2 SWAP1 POP JUMP JUMPDEST PUSH0 DUP1 DUP3 MLOAD GT PUSH2 0x25C JUMPI PUSH1 0x40 MLOAD PUSH32 0x8C379A000000000000000000000000000000000000000000000000000000000 DUP2 MSTORE PUSH1 0x4 ADD PUSH2 0x253 SWAP1 PUSH2 0x984 JUMP JUMPDEST PUSH1 0x40 MLOAD DUP1 SWAP2 SUB SWAP1 REVERT JUMPDEST PUSH0 PUSH2 0x266 DUP4 PUSH2 0x6C5 JUMP JUMPDEST SWAP1 POP PUSH0 PUSH1 0x2 DUP3 MLOAD PUSH2 0x277 SWAP2 SWAP1 PUSH2 0xA2F JUMP JUMPDEST SWAP1 POP PUSH0 PUSH1 0x2 DUP4 MLOAD PUSH2 0x288 SWAP2 SWAP1 PUSH2 0xA5F JUMP JUMPDEST SUB PUSH2 0x2EE JUMPI PUSH1 0x2 DUP3 DUP3 DUP2 MLOAD DUP2 LT PUSH2 0x2A2 JUMPI PUSH2 0x2A1 PUSH2 0x8FD JUMP JUMPDEST JUMPDEST PUSH1 0x20 MUL PUSH1 0x20 ADD ADD MLOAD DUP4 PUSH1 0x1 DUP5 PUSH2 0x2B8 SWAP2 SWAP1 PUSH2 0xA8F JUMP JUMPDEST DUP2 MLOAD DUP2 LT PUSH2 0x2C9 JUMPI PUSH2 0x2C8 PUSH2 0x8FD JUMP JUMPDEST JUMPDEST PUSH1 0x20 MUL PUSH1 0x20 ADD ADD MLOAD PUSH2 0x2DB SWAP2 SWAP1 PUSH2 0x9CF JUMP JUMPDEST PUSH2 0x2E5 SWAP2 SWAP1 PUSH2 0xA2F JUMP JUMPDEST SWAP3 POP POP POP PUSH2 0x30E JUMP JUMPDEST DUP2 DUP2 DUP2 MLOAD DUP2 LT PUSH2 0x301 JUMPI PUSH2 0x300 PUSH2 0x8FD JUMP JUMPDEST JUMPDEST PUSH1 0x20 MUL PUSH1 0x20 ADD ADD MLOAD SWAP3 POP POP POP JUMPDEST SWAP2 SWAP1 POP JUMP JUMPDEST PUSH1 0x60 PUSH0 DUP3 MLOAD GT PUSH2 0x358 JUMPI PUSH1 0x40 MLOAD PUSH32 0x8C379A000000000000000000000000000000000000000000000000000000000 DUP2 MSTORE PUSH1 0x4 ADD PUSH2 0x34F SWAP1 PUSH2 0x984 JUMP JUMPDEST PUSH1 0x40 MLOAD DUP1 SWAP2 SUB SWAP1 REVERT JUMPDEST PUSH0 DUP3 MLOAD PUSH8 0xFFFFFFFFFFFFFFFF DUP2 GT ISZERO PUSH2 0x374 JUMPI PUSH2 0x373 PUSH2 0x8D0 JUMP JUMPDEST JUMPDEST PUSH1 0x40 MLOAD SWAP1 DUP1 DUP3 MSTORE DUP1 PUSH1 0x20 MUL PUSH1 0x20 ADD DUP3 ADD PUSH1 0x40 MSTORE DUP1 ISZERO PUSH2 0x3A2 JUMPI DUP2 PUSH1 0x20 ADD PUSH1 0x20 DUP3 MUL DUP1 CALLDATASIZE DUP4 CALLDATACOPY DUP1 DUP3 ADD SWAP2 POP POP SWAP1 POP JUMPDEST POP SWAP1 POP PUSH0 DUP4 MLOAD PUSH8 0xFFFFFFFFFFFFFFFF DUP2 GT ISZERO PUSH2 0x3C1 JUMPI PUSH2 0x3C0 PUSH2 0x8D0 JUMP JUMPDEST JUMPDEST PUSH1 0x40 MLOAD SWAP1 DUP1 DUP3 MSTORE DUP1 PUSH1 0x20 MUL PUSH1 0x20 ADD DUP3 ADD PUSH1 0x40 MSTORE DUP1 ISZERO PUSH2 0x3EF JUMPI DUP2 PUSH1 0x20 ADD PUSH1 0x20 DUP3 MUL DUP1 CALLDATASIZE DUP4 CALLDATACOPY DUP1 DUP3 ADD SWAP2 POP POP SWAP1 POP JUMPDEST POP SWAP1 POP PUSH0 DUP1 PUSH0 JUMPDEST DUP7 MLOAD DUP2 LT ISZERO PUSH2 0x59D JUMPI PUSH0 DUP1 JUMPDEST DUP5 DUP2 LT ISZERO PUSH2 0x4C7 JUMPI DUP9 DUP4 DUP2 MLOAD DUP2 LT PUSH2 0x41D JUMPI PUSH2 0x41C PUSH2 0x8FD JUMP JUMPDEST JUMPDEST PUSH1 0x20 MUL PUSH1 0x20 ADD ADD MLOAD DUP8 DUP3 DUP2 MLOAD DUP2 LT PUSH2 0x438 JUMPI PUSH2 0x437 PUSH2 0x8FD JUMP JUMPDEST JUMPDEST PUSH1 0x20 MUL PUSH1 0x20 ADD ADD MLOAD SUB PUSH2 0x4BA JUMPI DUP6 DUP2 DUP2 MLOAD DUP2 LT PUSH2 0x458 JUMPI PUSH2 0x457 PUSH2 0x8FD JUMP JUMPDEST JUMPDEST PUSH1 0x20 MUL PUSH1 0x20 ADD ADD DUP1 MLOAD DUP1 SWAP2 SWAP1 PUSH2 0x46D SWAP1 PUSH2 0xAC2 JUMP JUMPDEST DUP2 MSTORE POP POP PUSH1 0x1 SWAP2 POP DUP4 DUP7 DUP3 DUP2 MLOAD DUP2 LT PUSH2 0x489 JUMPI PUSH2 0x488 PUSH2 0x8FD JUMP JUMPDEST JUMPDEST PUSH1 0x20 MUL PUSH1 0x20 ADD ADD MLOAD GT ISZERO PUSH2 0x4B5 JUMPI DUP6 DUP2 DUP2 MLOAD DUP2 LT PUSH2 0x4AA JUMPI PUSH2 0x4A9 PUSH2 0x8FD JUMP JUMPDEST JUMPDEST PUSH1 0x20 MUL PUSH1 0x20 ADD ADD MLOAD SWAP4 POP JUMPDEST PUSH2 0x4C7 JUMP JUMPDEST DUP1 DUP1 PUSH1 0x1 ADD SWAP2 POP POP PUSH2 0x402 JUMP JUMPDEST POP DUP1 PUSH2 0x58F JUMPI DUP8 DUP3 DUP2 MLOAD DUP2 LT PUSH2 0x4E0 JUMPI PUSH2 0x4DF PUSH2 0x8FD JUMP JUMPDEST JUMPDEST PUSH1 0x20 MUL PUSH1 0x20 ADD ADD MLOAD DUP7 DUP6 DUP2 MLOAD DUP2 LT PUSH2 0x4FB JUMPI PUSH2 0x4FA PUSH2 0x8FD JUMP JUMPDEST JUMPDEST PUSH1 0x20 MUL PUSH1 0x20 ADD ADD DUP2 DUP2 MSTORE POP POP PUSH1 0x1 DUP6 DUP6 DUP2 MLOAD DUP2 LT PUSH2 0x51C JUMPI PUSH2 0x51B PUSH2 0x8FD JUMP JUMPDEST JUMPDEST PUSH1 0x20 MUL PUSH1 0x20 ADD ADD DUP2 DUP2 MSTORE POP POP DUP4 DUP1 PUSH2 0x533 SWAP1 PUSH2 0xAC2 JUMP JUMPDEST SWAP5 POP POP DUP3 DUP6 PUSH1 0x1 DUP7 PUSH2 0x545 SWAP2 SWAP1 PUSH2 0xA8F JUMP JUMPDEST DUP2 MLOAD DUP2 LT PUSH2 0x556 JUMPI PUSH2 0x555 PUSH2 0x8FD JUMP JUMPDEST JUMPDEST PUSH1 0x20 MUL PUSH1 0x20 ADD ADD MLOAD GT ISZERO PUSH2 0x58E JUMPI DUP5 PUSH1 0x1 DUP6 PUSH2 0x572 SWAP2 SWAP1 PUSH2 0xA8F JUMP JUMPDEST DUP2 MLOAD DUP2 LT PUSH2 0x583 JUMPI PUSH2 0x582 PUSH2 0x8FD JUMP JUMPDEST JUMPDEST PUSH1 0x20 MUL PUSH1 0x20 ADD ADD MLOAD SWAP3 POP JUMPDEST JUMPDEST POP DUP1 DUP1 PUSH1 0x1 ADD SWAP2 POP POP PUSH2 0x3F6 JUMP JUMPDEST POP PUSH0 DUP1 JUMPDEST DUP4 DUP2 LT ISZERO PUSH2 0x5E6 JUMPI DUP3 DUP6 DUP3 DUP2 MLOAD DUP2 LT PUSH2 0x5BD JUMPI PUSH2 0x5BC PUSH2 0x8FD JUMP JUMPDEST JUMPDEST PUSH1 0x20 MUL PUSH1 0x20 ADD ADD MLOAD SUB PUSH2 0x5D9 JUMPI DUP2 DUP1 PUSH2 0x5D5 SWAP1 PUSH2 0xAC2 JUMP JUMPDEST SWAP3 POP POP JUMPDEST DUP1 DUP1 PUSH1 0x1 ADD SWAP2 POP POP PUSH2 0x5A1 JUMP JUMPDEST POP PUSH0 DUP2 PUSH8 0xFFFFFFFFFFFFFFFF DUP2 GT ISZERO PUSH2 0x602 JUMPI PUSH2 0x601 PUSH2 0x8D0 JUMP JUMPDEST JUMPDEST PUSH1 0x40 MLOAD SWAP1 DUP1 DUP3 MSTORE DUP1 PUSH1 0x20 MUL PUSH1 0x20 ADD DUP3 ADD PUSH1 0x40 MSTORE DUP1 ISZERO PUSH2 0x630 JUMPI DUP2 PUSH1 0x20 ADD PUSH1 0x20 DUP3 MUL DUP1 CALLDATASIZE DUP4 CALLDATACOPY DUP1 DUP3 ADD SWAP2 POP POP SWAP1 POP JUMPDEST POP SWAP1 POP PUSH0 DUP1 JUMPDEST DUP6 DUP2 LT ISZERO PUSH2 0x6B5 JUMPI DUP5 DUP8 DUP3 DUP2 MLOAD DUP2 LT PUSH2 0x652 JUMPI PUSH2 0x651 PUSH2 0x8FD JUMP JUMPDEST JUMPDEST PUSH1 0x20 MUL PUSH1 0x20 ADD ADD MLOAD SUB PUSH2 0x6A8 JUMPI DUP8 DUP2 DUP2 MLOAD DUP2 LT PUSH2 0x672 JUMPI PUSH2 0x671 PUSH2 0x8FD JUMP JUMPDEST JUMPDEST PUSH1 0x20 MUL PUSH1 0x20 ADD ADD MLOAD DUP4 DUP4 DUP2 MLOAD DUP2 LT PUSH2 0x68D JUMPI PUSH2 0x68C PUSH2 0x8FD JUMP JUMPDEST JUMPDEST PUSH1 0x20 MUL PUSH1 0x20 ADD ADD DUP2 DUP2 MSTORE POP POP DUP2 DUP1 PUSH2 0x6A4 SWAP1 PUSH2 0xAC2 JUMP JUMPDEST SWAP3 POP POP JUMPDEST DUP1 DUP1 PUSH1 0x1 ADD SWAP2 POP POP PUSH2 0x636 JUMP JUMPDEST POP DUP2 SWAP8 POP POP POP POP POP POP POP POP SWAP2 SWAP1 POP JUMP JUMPDEST PUSH1 0x60 PUSH0 DUP3 MLOAD SWAP1 POP PUSH0 JUMPDEST DUP2 DUP2 LT ISZERO PUSH2 0x7BB JUMPI PUSH0 PUSH1 0x1 DUP3 PUSH2 0x6E4 SWAP2 SWAP1 PUSH2 0x9CF JUMP JUMPDEST SWAP1 POP JUMPDEST DUP3 DUP2 LT ISZERO PUSH2 0x7AD JUMPI DUP5 DUP2 DUP2 MLOAD DUP2 LT PUSH2 0x702 JUMPI PUSH2 0x701 PUSH2 0x8FD JUMP JUMPDEST JUMPDEST PUSH1 0x20 MUL PUSH1 0x20 ADD ADD MLOAD DUP6 DUP4 DUP2 MLOAD DUP2 LT PUSH2 0x71D JUMPI PUSH2 0x71C PUSH2 0x8FD JUMP JUMPDEST JUMPDEST PUSH1 0x20 MUL PUSH1 0x20 ADD ADD MLOAD GT ISZERO PUSH2 0x7A0 JUMPI DUP5 DUP2 DUP2 MLOAD DUP2 LT PUSH2 0x73E JUMPI PUSH2 0x73D PUSH2 0x8FD JUMP JUMPDEST JUMPDEST PUSH1 0x20 MUL PUSH1 0x20 ADD ADD MLOAD DUP6 DUP4 DUP2 MLOAD DUP2 LT PUSH2 0x759 JUMPI PUSH2 0x758 PUSH2 0x8FD JUMP JUMPDEST JUMPDEST PUSH1 0x20 MUL PUSH1 0x20 ADD ADD MLOAD DUP7 DUP5 DUP2 MLOAD DUP2 LT PUSH2 0x774 JUMPI PUSH2 0x773 PUSH2 0x8FD JUMP JUMPDEST JUMPDEST PUSH1 0x20 MUL PUSH1 0x20 ADD ADD DUP8 DUP5 DUP2 MLOAD DUP2 LT PUSH2 0x78E JUMPI PUSH2 0x78D PUSH2 0x8FD JUMP JUMPDEST JUMPDEST PUSH1 0x20 MUL PUSH1 0x20 ADD ADD DUP3 DUP2 MSTORE POP DUP3 DUP2 MSTORE POP POP POP JUMPDEST DUP1 DUP1 PUSH1 0x1 ADD SWAP2 POP POP PUSH2 0x6E7 JUMP JUMPDEST POP DUP1 DUP1 PUSH1 0x1 ADD SWAP2 POP POP PUSH2 0x6CE JUMP JUMPDEST POP DUP3 SWAP2 POP POP SWAP2 SWAP1 POP JUMP JUMPDEST PUSH0 DUP2 SWAP1 POP SWAP2 SWAP1 POP JUMP JUMPDEST PUSH2 0x7D7 DUP2 PUSH2 0x7C5 JUMP JUMPDEST DUP3 MSTORE POP POP JUMP JUMPDEST PUSH0 DUP2 MLOAD SWAP1 POP SWAP2 SWAP1 POP JUMP JUMPDEST PUSH0 DUP3 DUP3 MSTORE PUSH1 0x20 DUP3 ADD SWAP1 POP SWAP3 SWAP2 POP POP JUMP JUMPDEST PUSH0 DUP2 SWAP1 POP PUSH1 0x20 DUP3 ADD SWAP1 POP SWAP2 SWAP1 POP JUMP JUMPDEST PUSH2 0x80F DUP2 PUSH2 0x7C5 JUMP JUMPDEST DUP3 MSTORE POP POP JUMP JUMPDEST PUSH0 PUSH2 0x820 DUP4 DUP4 PUSH2 0x806 JUMP JUMPDEST PUSH1 0x20 DUP4 ADD SWAP1 POP SWAP3 SWAP2 POP POP JUMP JUMPDEST PUSH0 PUSH1 0x20 DUP3 ADD SWAP1 POP SWAP2 SWAP1 POP JUMP JUMPDEST PUSH0 PUSH2 0x842 DUP3 PUSH2 0x7DD JUMP JUMPDEST PUSH2 0x84C DUP2 DUP6 PUSH2 0x7E7 JUMP JUMPDEST SWAP4 POP PUSH2 0x857 DUP4 PUSH2 0x7F7 JUMP JUMPDEST DUP1 PUSH0 JUMPDEST DUP4 DUP2 LT ISZERO PUSH2 0x887 JUMPI DUP2 MLOAD PUSH2 0x86E DUP9 DUP3 PUSH2 0x815 JUMP JUMPDEST SWAP8 POP PUSH2 0x879 DUP4 PUSH2 0x82C JUMP JUMPDEST SWAP3 POP POP PUSH1 0x1 DUP2 ADD SWAP1 POP PUSH2 0x85A JUMP JUMPDEST POP DUP6 SWAP4 POP POP POP POP SWAP3 SWAP2 POP POP JUMP JUMPDEST PUSH0 PUSH1 0x60 DUP3 ADD SWAP1 POP PUSH2 0x8A7 PUSH0 DUP4 ADD DUP7 PUSH2 0x7CE JUMP JUMPDEST PUSH2 0x8B4 PUSH1 0x20 DUP4 ADD DUP6 PUSH2 0x7CE JUMP JUMPDEST DUP2 DUP2 SUB PUSH1 0x40 DUP4 ADD MSTORE PUSH2 0x8C6 DUP2 DUP5 PUSH2 0x838 JUMP JUMPDEST SWAP1 POP SWAP5 SWAP4 POP POP POP POP JUMP JUMPDEST PUSH32 0x4E487B7100000000000000000000000000000000000000000000000000000000 PUSH0 MSTORE PUSH1 0x41 PUSH1 0x4 MSTORE PUSH1 0x24 PUSH0 REVERT JUMPDEST PUSH32 0x4E487B7100000000000000000000000000000000000000000000000000000000 PUSH0 MSTORE PUSH1 0x32 PUSH1 0x4 MSTORE PUSH1 0x24 PUSH0 REVERT JUMPDEST PUSH0 DUP3 DUP3 MSTORE PUSH1 0x20 DUP3 ADD SWAP1 POP SWAP3 SWAP2 POP POP JUMP JUMPDEST PUSH32 0x4172726179206D757374206E6F7420626520656D707479000000000000000000 PUSH0 DUP3 ADD MSTORE POP JUMP JUMPDEST PUSH0 PUSH2 0x96E PUSH1 0x17 DUP4 PUSH2 0x92A JUMP JUMPDEST SWAP2 POP PUSH2 0x979 DUP3 PUSH2 0x93A JUMP JUMPDEST PUSH1 0x20 DUP3 ADD SWAP1 POP SWAP2 SWAP1 POP JUMP JUMPDEST PUSH0 PUSH1 0x20 DUP3 ADD SWAP1 POP DUP2 DUP2 SUB PUSH0 DUP4 ADD MSTORE PUSH2 0x99B DUP2 PUSH2 0x962 JUMP JUMPDEST SWAP1 POP SWAP2 SWAP1 POP JUMP JUMPDEST PUSH32 0x4E487B7100000000000000000000000000000000000000000000000000000000 PUSH0 MSTORE PUSH1 0x11 PUSH1 0x4 MSTORE PUSH1 0x24 PUSH0 REVERT JUMPDEST PUSH0 PUSH2 0x9D9 DUP3 PUSH2 0x7C5 JUMP JUMPDEST SWAP2 POP PUSH2 0x9E4 DUP4 PUSH2 0x7C5 JUMP JUMPDEST SWAP3 POP DUP3 DUP3 ADD SWAP1 POP DUP1 DUP3 GT ISZERO PUSH2 0x9FC JUMPI PUSH2 0x9FB PUSH2 0x9A2 JUMP JUMPDEST JUMPDEST SWAP3 SWAP2 POP POP JUMP JUMPDEST PUSH32 0x4E487B7100000000000000000000000000000000000000000000000000000000 PUSH0 MSTORE PUSH1 0x12 PUSH1 0x4 MSTORE PUSH1 0x24 PUSH0 REVERT JUMPDEST PUSH0 PUSH2 0xA39 DUP3 PUSH2 0x7C5 JUMP JUMPDEST SWAP2 POP PUSH2 0xA44 DUP4 PUSH2 0x7C5 JUMP JUMPDEST SWAP3 POP DUP3 PUSH2 0xA54 JUMPI PUSH2 0xA53 PUSH2 0xA02 JUMP JUMPDEST JUMPDEST DUP3 DUP3 DIV SWAP1 POP SWAP3 SWAP2 POP POP JUMP JUMPDEST PUSH0 PUSH2 0xA69 DUP3 PUSH2 0x7C5 JUMP JUMPDEST SWAP2 POP PUSH2 0xA74 DUP4 PUSH2 0x7C5 JUMP JUMPDEST SWAP3 POP DUP3 PUSH2 0xA84 JUMPI PUSH2 0xA83 PUSH2 0xA02 JUMP JUMPDEST JUMPDEST DUP3 DUP3 MOD SWAP1 POP SWAP3 SWAP2 POP POP JUMP JUMPDEST PUSH0 PUSH2 0xA99 DUP3 PUSH2 0x7C5 JUMP JUMPDEST SWAP2 POP PUSH2 0xAA4 DUP4 PUSH2 0x7C5 JUMP JUMPDEST SWAP3 POP DUP3 DUP3 SUB SWAP1 POP DUP2 DUP2 GT ISZERO PUSH2 0xABC JUMPI PUSH2 0xABB PUSH2 0x9A2 JUMP JUMPDEST JUMPDEST SWAP3 SWAP2 POP POP JUMP JUMPDEST PUSH0 PUSH2 0xACC DUP3 PUSH2 0x7C5 JUMP JUMPDEST SWAP2 POP PUSH32 0xFFFFFFFFFFFFFFFFFFFFFFFFFFFFFFFFFFFFFFFFFFFFFFFFFFFFFFFFFFFFFFFF DUP3 SUB PUSH2 0xAFE JUMPI PUSH2 0xAFD PUSH2 0x9A2 JUMP JUMPDEST JUMPDEST PUSH1 0x1 DUP3 ADD SWAP1 POP SWAP2 SWAP1 POP JUMP INVALID LOG2 PUSH5 0x6970667358 0x22 SLT KECCAK256 SUB KECCAK256 BLOCKHASH SWAP16 0xA9 0xF6 BLOCKHASH 0x2C MSIZE BLOBHASH CODESIZE 0x29 0xC0 0xD6 0xC2 SGT PUSH18 0xFB0412D5A964FEE7B75D2CFEBDDDF164736F PUSH13 0x634300081A0033000000000000 "
				},
				"gasEstimates": {
					"creation": {
						"codeDepositCost": "575800",
						"executionCost": "604",
						"totalCost": "576404"
					},
					"external": {
						"testArrayStats()": "infinite"
					}
				},
				"methodIdentifiers": {
					"testArrayStats()": "dc5de104"
				}
			},
			"storageLayout": {
				"storage": [],
				"types": null
			},
			"userdoc": {
				"kind": "user",
				"methods": {},
				"version": 1
			}
		}
	}
}