{
	"contracts/Blockchain_Assignment_7/week7_task10.sol": {
		"ModifierUser": {
			"abi": [
				{
					"inputs": [],
					"stateMutability": "nonpayable",
					"type": "constructor"
				},
				{
					"inputs": [
						{
							"internalType": "address",
							"name": "admin",
							"type": "address"
						}
					],
					"name": "addAdmin",
					"outputs": [],
					"stateMutability": "nonpayable",
					"type": "function"
				},
				{
					"inputs": [
						{
							"internalType": "address",
							"name": "admin",
							"type": "address"
						}
					],
					"name": "removeAdmin",
					"outputs": [],
					"stateMutability": "nonpayable",
					"type": "function"
				},
				{
					"inputs": [],
					"name": "restrictedFunction",
					"outputs": [],
					"stateMutability": "nonpayable",
					"type": "function"
				},
				{
					"inputs": [
						{
							"internalType": "uint256",
							"name": "delay",
							"type": "uint256"
						}
					],
					"name": "timeLockedFunction",
					"outputs": [],
					"stateMutability": "nonpayable",
					"type": "function"
				}
			],
			"devdoc": {
				"kind": "dev",
				"methods": {},
				"version": 1
			},
			"evm": {
				"assembly": "    /* \"contracts/Blockchain_Assignment_7/week7_task10.sol\":875:1893  contract ModifierUser {... */\n  mstore(0x40, 0x80)\n    /* \"contracts/Blockchain_Assignment_7/week7_task10.sol\":1026:1147  constructor() {... */\n  callvalue\n  dup1\n  iszero\n  tag_1\n  jumpi\n  0x00\n  dup1\n  revert\ntag_1:\n  pop\n    /* \"contracts/Blockchain_Assignment_7/week7_task10.sol\":1051:1085  accessControl.addAdmin(msg.sender) */\n  tag_4\n    /* \"contracts/Blockchain_Assignment_7/week7_task10.sol\":1074:1084  msg.sender */\n  caller\n    /* \"contracts/Blockchain_Assignment_7/week7_task10.sol\":1051:1064  accessControl */\n  0x00\n    /* \"contracts/Blockchain_Assignment_7/week7_task10.sol\":1051:1073  accessControl.addAdmin */\n  shl(0x20, tag_5)\n  swap1\n    /* \"contracts/Blockchain_Assignment_7/week7_task10.sol\":1051:1085  accessControl.addAdmin(msg.sender) */\n  swap2\n  swap1\n  0x20\n  shr\n  jump\t// in\ntag_4:\n    /* \"contracts/Blockchain_Assignment_7/week7_task10.sol\":1096:1139  accessControl.setStartTime(block.timestamp) */\n  tag_6\n    /* \"contracts/Blockchain_Assignment_7/week7_task10.sol\":1123:1138  block.timestamp */\n  timestamp\n    /* \"contracts/Blockchain_Assignment_7/week7_task10.sol\":1096:1109  accessControl */\n  0x00\n    /* \"contracts/Blockchain_Assignment_7/week7_task10.sol\":1096:1122  accessControl.setStartTime */\n  shl(0x20, tag_7)\n  swap1\n    /* \"contracts/Blockchain_Assignment_7/week7_task10.sol\":1096:1139  accessControl.setStartTime(block.timestamp) */\n  swap2\n  swap1\n  0x20\n  shr\n  jump\t// in\ntag_6:\n    /* \"contracts/Blockchain_Assignment_7/week7_task10.sol\":875:1893  contract ModifierUser {... */\n  jump(tag_8)\n    /* \"contracts/Blockchain_Assignment_7/week7_task10.sol\":198:312  function addAdmin(AccessControl storage self, address admin) internal {... */\ntag_5:\n    /* \"contracts/Blockchain_Assignment_7/week7_task10.sol\":300:304  true */\n  0x01\n    /* \"contracts/Blockchain_Assignment_7/week7_task10.sol\":279:283  self */\n  dup3\n    /* \"contracts/Blockchain_Assignment_7/week7_task10.sol\":279:290  self.admins */\n  0x00\n  add\n    /* \"contracts/Blockchain_Assignment_7/week7_task10.sol\":279:297  self.admins[admin] */\n  0x00\n    /* \"contracts/Blockchain_Assignment_7/week7_task10.sol\":291:296  admin */\n  dup4\n    /* \"contracts/Blockchain_Assignment_7/week7_task10.sol\":279:297  self.admins[admin] */\n  0xffffffffffffffffffffffffffffffffffffffff\n  and\n  0xffffffffffffffffffffffffffffffffffffffff\n  and\n  dup2\n  mstore\n  0x20\n  add\n  swap1\n  dup2\n  mstore\n  0x20\n  add\n  0x00\n  keccak256\n  0x00\n    /* \"contracts/Blockchain_Assignment_7/week7_task10.sol\":279:304  self.admins[admin] = true */\n  0x0100\n  exp\n  dup2\n  sload\n  dup2\n  0xff\n  mul\n  not\n  and\n  swap1\n  dup4\n  iszero\n  iszero\n  mul\n  or\n  swap1\n  sstore\n  pop\n    /* \"contracts/Blockchain_Assignment_7/week7_task10.sol\":198:312  function addAdmin(AccessControl storage self, address admin) internal {... */\n  pop\n  pop\n  jump\t// out\n    /* \"contracts/Blockchain_Assignment_7/week7_task10.sol\":446:559  function setStartTime(AccessControl storage self, uint256 time) internal {... */\ntag_7:\n    /* \"contracts/Blockchain_Assignment_7/week7_task10.sol\":547:551  time */\n  dup1\n    /* \"contracts/Blockchain_Assignment_7/week7_task10.sol\":530:534  self */\n  dup3\n    /* \"contracts/Blockchain_Assignment_7/week7_task10.sol\":530:544  self.startTime */\n  0x01\n  add\n    /* \"contracts/Blockchain_Assignment_7/week7_task10.sol\":530:551  self.startTime = time */\n  dup2\n  swap1\n  sstore\n  pop\n    /* \"contracts/Blockchain_Assignment_7/week7_task10.sol\":446:559  function setStartTime(AccessControl storage self, uint256 time) internal {... */\n  pop\n  pop\n  jump\t// out\n    /* \"contracts/Blockchain_Assignment_7/week7_task10.sol\":875:1893  contract ModifierUser {... */\ntag_8:\n  dataSize(sub_0)\n  dup1\n  dataOffset(sub_0)\n  0x00\n  codecopy\n  0x00\n  return\nstop\n\nsub_0: assembly {\n        /* \"contracts/Blockchain_Assignment_7/week7_task10.sol\":875:1893  contract ModifierUser {... */\n      mstore(0x40, 0x80)\n      callvalue\n      dup1\n      iszero\n      tag_1\n      jumpi\n      0x00\n      dup1\n      revert\n    tag_1:\n      pop\n      jumpi(tag_2, lt(calldatasize, 0x04))\n      shr(0xe0, calldataload(0x00))\n      dup1\n      0x1785f53c\n      eq\n      tag_3\n      jumpi\n      dup1\n      0x624c91f2\n      eq\n      tag_4\n      jumpi\n      dup1\n      0x70480275\n      eq\n      tag_5\n      jumpi\n      dup1\n      0x777acf37\n      eq\n      tag_6\n      jumpi\n    tag_2:\n      0x00\n      dup1\n      revert\n        /* \"contracts/Blockchain_Assignment_7/week7_task10.sol\":1784:1890  function removeAdmin(address admin) external onlyAdmin {... */\n    tag_3:\n      tag_7\n      0x04\n      dup1\n      calldatasize\n      sub\n      dup2\n      add\n      swap1\n      tag_8\n      swap2\n      swap1\n      tag_9\n      jump\t// in\n    tag_8:\n      tag_10\n      jump\t// in\n    tag_7:\n      stop\n        /* \"contracts/Blockchain_Assignment_7/week7_task10.sol\":1528:1668  function timeLockedFunction(uint256 delay) external timeRestricted(delay) {... */\n    tag_4:\n      tag_11\n      0x04\n      dup1\n      calldatasize\n      sub\n      dup2\n      add\n      swap1\n      tag_12\n      swap2\n      swap1\n      tag_13\n      jump\t// in\n    tag_12:\n      tag_14\n      jump\t// in\n    tag_11:\n      stop\n        /* \"contracts/Blockchain_Assignment_7/week7_task10.sol\":1676:1776  function addAdmin(address admin) external onlyAdmin {... */\n    tag_5:\n      tag_15\n      0x04\n      dup1\n      calldatasize\n      sub\n      dup2\n      add\n      swap1\n      tag_16\n      swap2\n      swap1\n      tag_9\n      jump\t// in\n    tag_16:\n      tag_17\n      jump\t// in\n    tag_15:\n      stop\n        /* \"contracts/Blockchain_Assignment_7/week7_task10.sol\":1425:1520  function restrictedFunction() external onlyAdmin {... */\n    tag_6:\n      tag_18\n      tag_19\n      jump\t// in\n    tag_18:\n      stop\n        /* \"contracts/Blockchain_Assignment_7/week7_task10.sol\":1784:1890  function removeAdmin(address admin) external onlyAdmin {... */\n    tag_10:\n        /* \"contracts/Blockchain_Assignment_7/week7_task10.sol\":1195:1228  accessControl.isAdmin(msg.sender) */\n      tag_21\n        /* \"contracts/Blockchain_Assignment_7/week7_task10.sol\":1217:1227  msg.sender */\n      caller\n        /* \"contracts/Blockchain_Assignment_7/week7_task10.sol\":1195:1208  accessControl */\n      0x00\n        /* \"contracts/Blockchain_Assignment_7/week7_task10.sol\":1195:1216  accessControl.isAdmin */\n      tag_22\n      swap1\n        /* \"contracts/Blockchain_Assignment_7/week7_task10.sol\":1195:1228  accessControl.isAdmin(msg.sender) */\n      swap2\n      swap1\n      0xffffffff\n      and\n      jump\t// in\n    tag_21:\n        /* \"contracts/Blockchain_Assignment_7/week7_task10.sol\":1187:1245  require(accessControl.isAdmin(msg.sender), \"Not an admin\") */\n      tag_23\n      jumpi\n      mload(0x40)\n      0x08c379a000000000000000000000000000000000000000000000000000000000\n      dup2\n      mstore\n      0x04\n      add\n      tag_24\n      swap1\n      tag_25\n      jump\t// in\n    tag_24:\n      mload(0x40)\n      dup1\n      swap2\n      sub\n      swap1\n      revert\n    tag_23:\n        /* \"contracts/Blockchain_Assignment_7/week7_task10.sol\":1850:1882  accessControl.removeAdmin(admin) */\n      tag_27\n        /* \"contracts/Blockchain_Assignment_7/week7_task10.sol\":1876:1881  admin */\n      dup2\n        /* \"contracts/Blockchain_Assignment_7/week7_task10.sol\":1850:1863  accessControl */\n      0x00\n        /* \"contracts/Blockchain_Assignment_7/week7_task10.sol\":1850:1875  accessControl.removeAdmin */\n      tag_28\n      swap1\n        /* \"contracts/Blockchain_Assignment_7/week7_task10.sol\":1850:1882  accessControl.removeAdmin(admin) */\n      swap2\n      swap1\n      0xffffffff\n      and\n      jump\t// in\n    tag_27:\n        /* \"contracts/Blockchain_Assignment_7/week7_task10.sol\":1784:1890  function removeAdmin(address admin) external onlyAdmin {... */\n      pop\n      jump\t// out\n        /* \"contracts/Blockchain_Assignment_7/week7_task10.sol\":1528:1668  function timeLockedFunction(uint256 delay) external timeRestricted(delay) {... */\n    tag_14:\n        /* \"contracts/Blockchain_Assignment_7/week7_task10.sol\":1595:1600  delay */\n      dup1\n        /* \"contracts/Blockchain_Assignment_7/week7_task10.sol\":1331:1365  accessControl.hasTimePassed(delay) */\n      tag_30\n        /* \"contracts/Blockchain_Assignment_7/week7_task10.sol\":1359:1364  delay */\n      dup2\n        /* \"contracts/Blockchain_Assignment_7/week7_task10.sol\":1331:1344  accessControl */\n      0x00\n        /* \"contracts/Blockchain_Assignment_7/week7_task10.sol\":1331:1358  accessControl.hasTimePassed */\n      tag_31\n      swap1\n        /* \"contracts/Blockchain_Assignment_7/week7_task10.sol\":1331:1365  accessControl.hasTimePassed(delay) */\n      swap2\n      swap1\n      0xffffffff\n      and\n      jump\t// in\n    tag_30:\n        /* \"contracts/Blockchain_Assignment_7/week7_task10.sol\":1323:1397  require(accessControl.hasTimePassed(delay), \"Function is time-restricted\") */\n      tag_32\n      jumpi\n      mload(0x40)\n      0x08c379a000000000000000000000000000000000000000000000000000000000\n      dup2\n      mstore\n      0x04\n      add\n      tag_33\n      swap1\n      tag_34\n      jump\t// in\n    tag_33:\n      mload(0x40)\n      dup1\n      swap2\n      sub\n      swap1\n      revert\n    tag_32:\n        /* \"contracts/Blockchain_Assignment_7/week7_task10.sol\":1528:1668  function timeLockedFunction(uint256 delay) external timeRestricted(delay) {... */\n      pop\n      pop\n      jump\t// out\n        /* \"contracts/Blockchain_Assignment_7/week7_task10.sol\":1676:1776  function addAdmin(address admin) external onlyAdmin {... */\n    tag_17:\n        /* \"contracts/Blockchain_Assignment_7/week7_task10.sol\":1195:1228  accessControl.isAdmin(msg.sender) */\n      tag_37\n        /* \"contracts/Blockchain_Assignment_7/week7_task10.sol\":1217:1227  msg.sender */\n      caller\n        /* \"contracts/Blockchain_Assignment_7/week7_task10.sol\":1195:1208  accessControl */\n      0x00\n        /* \"contracts/Blockchain_Assignment_7/week7_task10.sol\":1195:1216  accessControl.isAdmin */\n      tag_22\n      swap1\n        /* \"contracts/Blockchain_Assignment_7/week7_task10.sol\":1195:1228  accessControl.isAdmin(msg.sender) */\n      swap2\n      swap1\n      0xffffffff\n      and\n      jump\t// in\n    tag_37:\n        /* \"contracts/Blockchain_Assignment_7/week7_task10.sol\":1187:1245  require(accessControl.isAdmin(msg.sender), \"Not an admin\") */\n      tag_38\n      jumpi\n      mload(0x40)\n      0x08c379a000000000000000000000000000000000000000000000000000000000\n      dup2\n      mstore\n      0x04\n      add\n      tag_39\n      swap1\n      tag_25\n      jump\t// in\n    tag_39:\n      mload(0x40)\n      dup1\n      swap2\n      sub\n      swap1\n      revert\n    tag_38:\n        /* \"contracts/Blockchain_Assignment_7/week7_task10.sol\":1739:1768  accessControl.addAdmin(admin) */\n      tag_41\n        /* \"contracts/Blockchain_Assignment_7/week7_task10.sol\":1762:1767  admin */\n      dup2\n        /* \"contracts/Blockchain_Assignment_7/week7_task10.sol\":1739:1752  accessControl */\n      0x00\n        /* \"contracts/Blockchain_Assignment_7/week7_task10.sol\":1739:1761  accessControl.addAdmin */\n      tag_42\n      swap1\n        /* \"contracts/Blockchain_Assignment_7/week7_task10.sol\":1739:1768  accessControl.addAdmin(admin) */\n      swap2\n      swap1\n      0xffffffff\n      and\n      jump\t// in\n    tag_41:\n        /* \"contracts/Blockchain_Assignment_7/week7_task10.sol\":1676:1776  function addAdmin(address admin) external onlyAdmin {... */\n      pop\n      jump\t// out\n        /* \"contracts/Blockchain_Assignment_7/week7_task10.sol\":1425:1520  function restrictedFunction() external onlyAdmin {... */\n    tag_19:\n        /* \"contracts/Blockchain_Assignment_7/week7_task10.sol\":1195:1228  accessControl.isAdmin(msg.sender) */\n      tag_44\n        /* \"contracts/Blockchain_Assignment_7/week7_task10.sol\":1217:1227  msg.sender */\n      caller\n        /* \"contracts/Blockchain_Assignment_7/week7_task10.sol\":1195:1208  accessControl */\n      0x00\n        /* \"contracts/Blockchain_Assignment_7/week7_task10.sol\":1195:1216  accessControl.isAdmin */\n      tag_22\n      swap1\n        /* \"contracts/Blockchain_Assignment_7/week7_task10.sol\":1195:1228  accessControl.isAdmin(msg.sender) */\n      swap2\n      swap1\n      0xffffffff\n      and\n      jump\t// in\n    tag_44:\n        /* \"contracts/Blockchain_Assignment_7/week7_task10.sol\":1187:1245  require(accessControl.isAdmin(msg.sender), \"Not an admin\") */\n      tag_45\n      jumpi\n      mload(0x40)\n      0x08c379a000000000000000000000000000000000000000000000000000000000\n      dup2\n      mstore\n      0x04\n      add\n      tag_46\n      swap1\n      tag_25\n      jump\t// in\n    tag_46:\n      mload(0x40)\n      dup1\n      swap2\n      sub\n      swap1\n      revert\n    tag_45:\n        /* \"contracts/Blockchain_Assignment_7/week7_task10.sol\":1425:1520  function restrictedFunction() external onlyAdmin {... */\n      jump\t// out\n        /* \"contracts/Blockchain_Assignment_7/week7_task10.sol\":567:698  function isAdmin(AccessControl storage self, address user) internal view returns (bool) {... */\n    tag_22:\n        /* \"contracts/Blockchain_Assignment_7/week7_task10.sol\":649:653  bool */\n      0x00\n        /* \"contracts/Blockchain_Assignment_7/week7_task10.sol\":673:677  self */\n      dup3\n        /* \"contracts/Blockchain_Assignment_7/week7_task10.sol\":673:684  self.admins */\n      0x00\n      add\n        /* \"contracts/Blockchain_Assignment_7/week7_task10.sol\":673:690  self.admins[user] */\n      0x00\n        /* \"contracts/Blockchain_Assignment_7/week7_task10.sol\":685:689  user */\n      dup4\n        /* \"contracts/Blockchain_Assignment_7/week7_task10.sol\":673:690  self.admins[user] */\n      0xffffffffffffffffffffffffffffffffffffffff\n      and\n      0xffffffffffffffffffffffffffffffffffffffff\n      and\n      dup2\n      mstore\n      0x20\n      add\n      swap1\n      dup2\n      mstore\n      0x20\n      add\n      0x00\n      keccak256\n      0x00\n      swap1\n      sload\n      swap1\n      0x0100\n      exp\n      swap1\n      div\n      0xff\n      and\n        /* \"contracts/Blockchain_Assignment_7/week7_task10.sol\":666:690  return self.admins[user] */\n      swap1\n      pop\n        /* \"contracts/Blockchain_Assignment_7/week7_task10.sol\":567:698  function isAdmin(AccessControl storage self, address user) internal view returns (bool) {... */\n      swap3\n      swap2\n      pop\n      pop\n      jump\t// out\n        /* \"contracts/Blockchain_Assignment_7/week7_task10.sol\":320:438  function removeAdmin(AccessControl storage self, address admin) internal {... */\n    tag_28:\n        /* \"contracts/Blockchain_Assignment_7/week7_task10.sol\":425:430  false */\n      0x00\n        /* \"contracts/Blockchain_Assignment_7/week7_task10.sol\":404:408  self */\n      dup3\n        /* \"contracts/Blockchain_Assignment_7/week7_task10.sol\":404:415  self.admins */\n      0x00\n      add\n        /* \"contracts/Blockchain_Assignment_7/week7_task10.sol\":404:422  self.admins[admin] */\n      0x00\n        /* \"contracts/Blockchain_Assignment_7/week7_task10.sol\":416:421  admin */\n      dup4\n        /* \"contracts/Blockchain_Assignment_7/week7_task10.sol\":404:422  self.admins[admin] */\n      0xffffffffffffffffffffffffffffffffffffffff\n      and\n      0xffffffffffffffffffffffffffffffffffffffff\n      and\n      dup2\n      mstore\n      0x20\n      add\n      swap1\n      dup2\n      mstore\n      0x20\n      add\n      0x00\n      keccak256\n      0x00\n        /* \"contracts/Blockchain_Assignment_7/week7_task10.sol\":404:430  self.admins[admin] = false */\n      0x0100\n      exp\n      dup2\n      sload\n      dup2\n      0xff\n      mul\n      not\n      and\n      swap1\n      dup4\n      iszero\n      iszero\n      mul\n      or\n      swap1\n      sstore\n      pop\n        /* \"contracts/Blockchain_Assignment_7/week7_task10.sol\":320:438  function removeAdmin(AccessControl storage self, address admin) internal {... */\n      pop\n      pop\n      jump\t// out\n        /* \"contracts/Blockchain_Assignment_7/week7_task10.sol\":706:868  function hasTimePassed(AccessControl storage self, uint256 delay) internal view returns (bool) {... */\n    tag_31:\n        /* \"contracts/Blockchain_Assignment_7/week7_task10.sol\":795:799  bool */\n      0x00\n        /* \"contracts/Blockchain_Assignment_7/week7_task10.sol\":855:860  delay */\n      dup2\n        /* \"contracts/Blockchain_Assignment_7/week7_task10.sol\":838:842  self */\n      dup4\n        /* \"contracts/Blockchain_Assignment_7/week7_task10.sol\":838:852  self.startTime */\n      0x01\n      add\n      sload\n        /* \"contracts/Blockchain_Assignment_7/week7_task10.sol\":838:860  self.startTime + delay */\n      tag_51\n      swap2\n      swap1\n      tag_52\n      jump\t// in\n    tag_51:\n        /* \"contracts/Blockchain_Assignment_7/week7_task10.sol\":819:834  block.timestamp */\n      timestamp\n        /* \"contracts/Blockchain_Assignment_7/week7_task10.sol\":819:860  block.timestamp >= self.startTime + delay */\n      lt\n      iszero\n        /* \"contracts/Blockchain_Assignment_7/week7_task10.sol\":812:860  return block.timestamp >= self.startTime + delay */\n      swap1\n      pop\n        /* \"contracts/Blockchain_Assignment_7/week7_task10.sol\":706:868  function hasTimePassed(AccessControl storage self, uint256 delay) internal view returns (bool) {... */\n      swap3\n      swap2\n      pop\n      pop\n      jump\t// out\n        /* \"contracts/Blockchain_Assignment_7/week7_task10.sol\":198:312  function addAdmin(AccessControl storage self, address admin) internal {... */\n    tag_42:\n        /* \"contracts/Blockchain_Assignment_7/week7_task10.sol\":300:304  true */\n      0x01\n        /* \"contracts/Blockchain_Assignment_7/week7_task10.sol\":279:283  self */\n      dup3\n        /* \"contracts/Blockchain_Assignment_7/week7_task10.sol\":279:290  self.admins */\n      0x00\n      add\n        /* \"contracts/Blockchain_Assignment_7/week7_task10.sol\":279:297  self.admins[admin] */\n      0x00\n        /* \"contracts/Blockchain_Assignment_7/week7_task10.sol\":291:296  admin */\n      dup4\n        /* \"contracts/Blockchain_Assignment_7/week7_task10.sol\":279:297  self.admins[admin] */\n      0xffffffffffffffffffffffffffffffffffffffff\n      and\n      0xffffffffffffffffffffffffffffffffffffffff\n      and\n      dup2\n      mstore\n      0x20\n      add\n      swap1\n      dup2\n      mstore\n      0x20\n      add\n      0x00\n      keccak256\n      0x00\n        /* \"contracts/Blockchain_Assignment_7/week7_task10.sol\":279:304  self.admins[admin] = true */\n      0x0100\n      exp\n      dup2\n      sload\n      dup2\n      0xff\n      mul\n      not\n      and\n      swap1\n      dup4\n      iszero\n      iszero\n      mul\n      or\n      swap1\n      sstore\n      pop\n        /* \"contracts/Blockchain_Assignment_7/week7_task10.sol\":198:312  function addAdmin(AccessControl storage self, address admin) internal {... */\n      pop\n      pop\n      jump\t// out\n        /* \"#utility.yul\":88:205   */\n    tag_55:\n        /* \"#utility.yul\":197:198   */\n      0x00\n        /* \"#utility.yul\":194:195   */\n      dup1\n        /* \"#utility.yul\":187:199   */\n      revert\n        /* \"#utility.yul\":334:460   */\n    tag_57:\n        /* \"#utility.yul\":371:378   */\n      0x00\n        /* \"#utility.yul\":411:453   */\n      0xffffffffffffffffffffffffffffffffffffffff\n        /* \"#utility.yul\":404:409   */\n      dup3\n        /* \"#utility.yul\":400:454   */\n      and\n        /* \"#utility.yul\":389:454   */\n      swap1\n      pop\n        /* \"#utility.yul\":334:460   */\n      swap2\n      swap1\n      pop\n      jump\t// out\n        /* \"#utility.yul\":466:562   */\n    tag_58:\n        /* \"#utility.yul\":503:510   */\n      0x00\n        /* \"#utility.yul\":532:556   */\n      tag_76\n        /* \"#utility.yul\":550:555   */\n      dup3\n        /* \"#utility.yul\":532:556   */\n      tag_57\n      jump\t// in\n    tag_76:\n        /* \"#utility.yul\":521:556   */\n      swap1\n      pop\n        /* \"#utility.yul\":466:562   */\n      swap2\n      swap1\n      pop\n      jump\t// out\n        /* \"#utility.yul\":568:690   */\n    tag_59:\n        /* \"#utility.yul\":641:665   */\n      tag_78\n        /* \"#utility.yul\":659:664   */\n      dup2\n        /* \"#utility.yul\":641:665   */\n      tag_58\n      jump\t// in\n    tag_78:\n        /* \"#utility.yul\":634:639   */\n      dup2\n        /* \"#utility.yul\":631:666   */\n      eq\n        /* \"#utility.yul\":621:684   */\n      tag_79\n      jumpi\n        /* \"#utility.yul\":680:681   */\n      0x00\n        /* \"#utility.yul\":677:678   */\n      dup1\n        /* \"#utility.yul\":670:682   */\n      revert\n        /* \"#utility.yul\":621:684   */\n    tag_79:\n        /* \"#utility.yul\":568:690   */\n      pop\n      jump\t// out\n        /* \"#utility.yul\":696:835   */\n    tag_60:\n        /* \"#utility.yul\":742:747   */\n      0x00\n        /* \"#utility.yul\":780:786   */\n      dup2\n        /* \"#utility.yul\":767:787   */\n      calldataload\n        /* \"#utility.yul\":758:787   */\n      swap1\n      pop\n        /* \"#utility.yul\":796:829   */\n      tag_81\n        /* \"#utility.yul\":823:828   */\n      dup2\n        /* \"#utility.yul\":796:829   */\n      tag_59\n      jump\t// in\n    tag_81:\n        /* \"#utility.yul\":696:835   */\n      swap3\n      swap2\n      pop\n      pop\n      jump\t// out\n        /* \"#utility.yul\":841:1170   */\n    tag_9:\n        /* \"#utility.yul\":900:906   */\n      0x00\n        /* \"#utility.yul\":949:951   */\n      0x20\n        /* \"#utility.yul\":937:946   */\n      dup3\n        /* \"#utility.yul\":928:935   */\n      dup5\n        /* \"#utility.yul\":924:947   */\n      sub\n        /* \"#utility.yul\":920:952   */\n      slt\n        /* \"#utility.yul\":917:1036   */\n      iszero\n      tag_83\n      jumpi\n        /* \"#utility.yul\":955:1034   */\n      tag_84\n      tag_55\n      jump\t// in\n    tag_84:\n        /* \"#utility.yul\":917:1036   */\n    tag_83:\n        /* \"#utility.yul\":1075:1076   */\n      0x00\n        /* \"#utility.yul\":1100:1153   */\n      tag_85\n        /* \"#utility.yul\":1145:1152   */\n      dup5\n        /* \"#utility.yul\":1136:1142   */\n      dup3\n        /* \"#utility.yul\":1125:1134   */\n      dup6\n        /* \"#utility.yul\":1121:1143   */\n      add\n        /* \"#utility.yul\":1100:1153   */\n      tag_60\n      jump\t// in\n    tag_85:\n        /* \"#utility.yul\":1090:1153   */\n      swap2\n      pop\n        /* \"#utility.yul\":1046:1163   */\n      pop\n        /* \"#utility.yul\":841:1170   */\n      swap3\n      swap2\n      pop\n      pop\n      jump\t// out\n        /* \"#utility.yul\":1176:1253   */\n    tag_61:\n        /* \"#utility.yul\":1213:1220   */\n      0x00\n        /* \"#utility.yul\":1242:1247   */\n      dup2\n        /* \"#utility.yul\":1231:1247   */\n      swap1\n      pop\n        /* \"#utility.yul\":1176:1253   */\n      swap2\n      swap1\n      pop\n      jump\t// out\n        /* \"#utility.yul\":1259:1381   */\n    tag_62:\n        /* \"#utility.yul\":1332:1356   */\n      tag_88\n        /* \"#utility.yul\":1350:1355   */\n      dup2\n        /* \"#utility.yul\":1332:1356   */\n      tag_61\n      jump\t// in\n    tag_88:\n        /* \"#utility.yul\":1325:1330   */\n      dup2\n        /* \"#utility.yul\":1322:1357   */\n      eq\n        /* \"#utility.yul\":1312:1375   */\n      tag_89\n      jumpi\n        /* \"#utility.yul\":1371:1372   */\n      0x00\n        /* \"#utility.yul\":1368:1369   */\n      dup1\n        /* \"#utility.yul\":1361:1373   */\n      revert\n        /* \"#utility.yul\":1312:1375   */\n    tag_89:\n        /* \"#utility.yul\":1259:1381   */\n      pop\n      jump\t// out\n        /* \"#utility.yul\":1387:1526   */\n    tag_63:\n        /* \"#utility.yul\":1433:1438   */\n      0x00\n        /* \"#utility.yul\":1471:1477   */\n      dup2\n        /* \"#utility.yul\":1458:1478   */\n      calldataload\n        /* \"#utility.yul\":1449:1478   */\n      swap1\n      pop\n        /* \"#utility.yul\":1487:1520   */\n      tag_91\n        /* \"#utility.yul\":1514:1519   */\n      dup2\n        /* \"#utility.yul\":1487:1520   */\n      tag_62\n      jump\t// in\n    tag_91:\n        /* \"#utility.yul\":1387:1526   */\n      swap3\n      swap2\n      pop\n      pop\n      jump\t// out\n        /* \"#utility.yul\":1532:1861   */\n    tag_13:\n        /* \"#utility.yul\":1591:1597   */\n      0x00\n        /* \"#utility.yul\":1640:1642   */\n      0x20\n        /* \"#utility.yul\":1628:1637   */\n      dup3\n        /* \"#utility.yul\":1619:1626   */\n      dup5\n        /* \"#utility.yul\":1615:1638   */\n      sub\n        /* \"#utility.yul\":1611:1643   */\n      slt\n        /* \"#utility.yul\":1608:1727   */\n      iszero\n      tag_93\n      jumpi\n        /* \"#utility.yul\":1646:1725   */\n      tag_94\n      tag_55\n      jump\t// in\n    tag_94:\n        /* \"#utility.yul\":1608:1727   */\n    tag_93:\n        /* \"#utility.yul\":1766:1767   */\n      0x00\n        /* \"#utility.yul\":1791:1844   */\n      tag_95\n        /* \"#utility.yul\":1836:1843   */\n      dup5\n        /* \"#utility.yul\":1827:1833   */\n      dup3\n        /* \"#utility.yul\":1816:1825   */\n      dup6\n        /* \"#utility.yul\":1812:1834   */\n      add\n        /* \"#utility.yul\":1791:1844   */\n      tag_63\n      jump\t// in\n    tag_95:\n        /* \"#utility.yul\":1781:1844   */\n      swap2\n      pop\n        /* \"#utility.yul\":1737:1854   */\n      pop\n        /* \"#utility.yul\":1532:1861   */\n      swap3\n      swap2\n      pop\n      pop\n      jump\t// out\n        /* \"#utility.yul\":1867:2036   */\n    tag_64:\n        /* \"#utility.yul\":1951:1962   */\n      0x00\n        /* \"#utility.yul\":1985:1991   */\n      dup3\n        /* \"#utility.yul\":1980:1983   */\n      dup3\n        /* \"#utility.yul\":1973:1992   */\n      mstore\n        /* \"#utility.yul\":2025:2029   */\n      0x20\n        /* \"#utility.yul\":2020:2023   */\n      dup3\n        /* \"#utility.yul\":2016:2030   */\n      add\n        /* \"#utility.yul\":2001:2030   */\n      swap1\n      pop\n        /* \"#utility.yul\":1867:2036   */\n      swap3\n      swap2\n      pop\n      pop\n      jump\t// out\n        /* \"#utility.yul\":2042:2204   */\n    tag_65:\n        /* \"#utility.yul\":2182:2196   */\n      0x4e6f7420616e2061646d696e0000000000000000000000000000000000000000\n        /* \"#utility.yul\":2178:2179   */\n      0x00\n        /* \"#utility.yul\":2170:2176   */\n      dup3\n        /* \"#utility.yul\":2166:2180   */\n      add\n        /* \"#utility.yul\":2159:2197   */\n      mstore\n        /* \"#utility.yul\":2042:2204   */\n      pop\n      jump\t// out\n        /* \"#utility.yul\":2210:2576   */\n    tag_66:\n        /* \"#utility.yul\":2352:2355   */\n      0x00\n        /* \"#utility.yul\":2373:2440   */\n      tag_99\n        /* \"#utility.yul\":2437:2439   */\n      0x0c\n        /* \"#utility.yul\":2432:2435   */\n      dup4\n        /* \"#utility.yul\":2373:2440   */\n      tag_64\n      jump\t// in\n    tag_99:\n        /* \"#utility.yul\":2366:2440   */\n      swap2\n      pop\n        /* \"#utility.yul\":2449:2542   */\n      tag_100\n        /* \"#utility.yul\":2538:2541   */\n      dup3\n        /* \"#utility.yul\":2449:2542   */\n      tag_65\n      jump\t// in\n    tag_100:\n        /* \"#utility.yul\":2567:2569   */\n      0x20\n        /* \"#utility.yul\":2562:2565   */\n      dup3\n        /* \"#utility.yul\":2558:2570   */\n      add\n        /* \"#utility.yul\":2551:2570   */\n      swap1\n      pop\n        /* \"#utility.yul\":2210:2576   */\n      swap2\n      swap1\n      pop\n      jump\t// out\n        /* \"#utility.yul\":2582:3001   */\n    tag_25:\n        /* \"#utility.yul\":2748:2752   */\n      0x00\n        /* \"#utility.yul\":2786:2788   */\n      0x20\n        /* \"#utility.yul\":2775:2784   */\n      dup3\n        /* \"#utility.yul\":2771:2789   */\n      add\n        /* \"#utility.yul\":2763:2789   */\n      swap1\n      pop\n        /* \"#utility.yul\":2835:2844   */\n      dup2\n        /* \"#utility.yul\":2829:2833   */\n      dup2\n        /* \"#utility.yul\":2825:2845   */\n      sub\n        /* \"#utility.yul\":2821:2822   */\n      0x00\n        /* \"#utility.yul\":2810:2819   */\n      dup4\n        /* \"#utility.yul\":2806:2823   */\n      add\n        /* \"#utility.yul\":2799:2846   */\n      mstore\n        /* \"#utility.yul\":2863:2994   */\n      tag_102\n        /* \"#utility.yul\":2989:2993   */\n      dup2\n        /* \"#utility.yul\":2863:2994   */\n      tag_66\n      jump\t// in\n    tag_102:\n        /* \"#utility.yul\":2855:2994   */\n      swap1\n      pop\n        /* \"#utility.yul\":2582:3001   */\n      swap2\n      swap1\n      pop\n      jump\t// out\n        /* \"#utility.yul\":3007:3184   */\n    tag_67:\n        /* \"#utility.yul\":3147:3176   */\n      0x46756e6374696f6e2069732074696d652d726573747269637465640000000000\n        /* \"#utility.yul\":3143:3144   */\n      0x00\n        /* \"#utility.yul\":3135:3141   */\n      dup3\n        /* \"#utility.yul\":3131:3145   */\n      add\n        /* \"#utility.yul\":3124:3177   */\n      mstore\n        /* \"#utility.yul\":3007:3184   */\n      pop\n      jump\t// out\n        /* \"#utility.yul\":3190:3556   */\n    tag_68:\n        /* \"#utility.yul\":3332:3335   */\n      0x00\n        /* \"#utility.yul\":3353:3420   */\n      tag_105\n        /* \"#utility.yul\":3417:3419   */\n      0x1b\n        /* \"#utility.yul\":3412:3415   */\n      dup4\n        /* \"#utility.yul\":3353:3420   */\n      tag_64\n      jump\t// in\n    tag_105:\n        /* \"#utility.yul\":3346:3420   */\n      swap2\n      pop\n        /* \"#utility.yul\":3429:3522   */\n      tag_106\n        /* \"#utility.yul\":3518:3521   */\n      dup3\n        /* \"#utility.yul\":3429:3522   */\n      tag_67\n      jump\t// in\n    tag_106:\n        /* \"#utility.yul\":3547:3549   */\n      0x20\n        /* \"#utility.yul\":3542:3545   */\n      dup3\n        /* \"#utility.yul\":3538:3550   */\n      add\n        /* \"#utility.yul\":3531:3550   */\n      swap1\n      pop\n        /* \"#utility.yul\":3190:3556   */\n      swap2\n      swap1\n      pop\n      jump\t// out\n        /* \"#utility.yul\":3562:3981   */\n    tag_34:\n        /* \"#utility.yul\":3728:3732   */\n      0x00\n        /* \"#utility.yul\":3766:3768   */\n      0x20\n        /* \"#utility.yul\":3755:3764   */\n      dup3\n        /* \"#utility.yul\":3751:3769   */\n      add\n        /* \"#utility.yul\":3743:3769   */\n      swap1\n      pop\n        /* \"#utility.yul\":3815:3824   */\n      dup2\n        /* \"#utility.yul\":3809:3813   */\n      dup2\n        /* \"#utility.yul\":3805:3825   */\n      sub\n        /* \"#utility.yul\":3801:3802   */\n      0x00\n        /* \"#utility.yul\":3790:3799   */\n      dup4\n        /* \"#utility.yul\":3786:3803   */\n      add\n        /* \"#utility.yul\":3779:3826   */\n      mstore\n        /* \"#utility.yul\":3843:3974   */\n      tag_108\n        /* \"#utility.yul\":3969:3973   */\n      dup2\n        /* \"#utility.yul\":3843:3974   */\n      tag_68\n      jump\t// in\n    tag_108:\n        /* \"#utility.yul\":3835:3974   */\n      swap1\n      pop\n        /* \"#utility.yul\":3562:3981   */\n      swap2\n      swap1\n      pop\n      jump\t// out\n        /* \"#utility.yul\":3987:4167   */\n    tag_69:\n        /* \"#utility.yul\":4035:4112   */\n      0x4e487b7100000000000000000000000000000000000000000000000000000000\n        /* \"#utility.yul\":4032:4033   */\n      0x00\n        /* \"#utility.yul\":4025:4113   */\n      mstore\n        /* \"#utility.yul\":4132:4136   */\n      0x11\n        /* \"#utility.yul\":4129:4130   */\n      0x04\n        /* \"#utility.yul\":4122:4137   */\n      mstore\n        /* \"#utility.yul\":4156:4160   */\n      0x24\n        /* \"#utility.yul\":4153:4154   */\n      0x00\n        /* \"#utility.yul\":4146:4161   */\n      revert\n        /* \"#utility.yul\":4173:4364   */\n    tag_52:\n        /* \"#utility.yul\":4213:4216   */\n      0x00\n        /* \"#utility.yul\":4232:4252   */\n      tag_111\n        /* \"#utility.yul\":4250:4251   */\n      dup3\n        /* \"#utility.yul\":4232:4252   */\n      tag_61\n      jump\t// in\n    tag_111:\n        /* \"#utility.yul\":4227:4252   */\n      swap2\n      pop\n        /* \"#utility.yul\":4266:4286   */\n      tag_112\n        /* \"#utility.yul\":4284:4285   */\n      dup4\n        /* \"#utility.yul\":4266:4286   */\n      tag_61\n      jump\t// in\n    tag_112:\n        /* \"#utility.yul\":4261:4286   */\n      swap3\n      pop\n        /* \"#utility.yul\":4309:4310   */\n      dup3\n        /* \"#utility.yul\":4306:4307   */\n      dup3\n        /* \"#utility.yul\":4302:4311   */\n      add\n        /* \"#utility.yul\":4295:4311   */\n      swap1\n      pop\n        /* \"#utility.yul\":4330:4333   */\n      dup1\n        /* \"#utility.yul\":4327:4328   */\n      dup3\n        /* \"#utility.yul\":4324:4334   */\n      gt\n        /* \"#utility.yul\":4321:4357   */\n      iszero\n      tag_113\n      jumpi\n        /* \"#utility.yul\":4337:4355   */\n      tag_114\n      tag_69\n      jump\t// in\n    tag_114:\n        /* \"#utility.yul\":4321:4357   */\n    tag_113:\n        /* \"#utility.yul\":4173:4364   */\n      swap3\n      swap2\n      pop\n      pop\n      jump\t// out\n\n    auxdata: 0xa2646970667358221220bdfe486d808aecb85124625137cf0628d50b4af85db115980858b31c8ab4590264736f6c634300081a0033\n}\n",
				"bytecode": {
					"linkReferences": {},
					"object": "6080604052348015600e575f80fd5b506020335f603560201b90919060201c565b6031425f608f60201b90919060201c565b609c565b6001825f015f8373ffffffffffffffffffffffffffffffffffffffff1673ffffffffffffffffffffffffffffffffffffffff1681526020019081526020015f205f6101000a81548160ff0219169083151502179055505050565b8082600101819055505050565b6105a7806100a95f395ff3fe608060405234801561000f575f80fd5b506004361061004a575f3560e01c80631785f53c1461004e578063624c91f21461006a5780637048027514610086578063777acf37146100a2575b5f80fd5b610068600480360381019061006391906103a8565b6100ac565b005b610084600480360381019061007f9190610406565b610114565b005b6100a0600480360381019061009b91906103a8565b61016b565b005b6100aa6101d3565b005b6100bf335f61022790919063ffffffff16565b6100fe576040517f08c379a00000000000000000000000000000000000000000000000000000000081526004016100f59061048b565b60405180910390fd5b610111815f61027b90919063ffffffff16565b50565b80610128815f6102d490919063ffffffff16565b610167576040517f08c379a000000000000000000000000000000000000000000000000000000000815260040161015e906104f3565b60405180910390fd5b5050565b61017e335f61022790919063ffffffff16565b6101bd576040517f08c379a00000000000000000000000000000000000000000000000000000000081526004016101b49061048b565b60405180910390fd5b6101d0815f6102f090919063ffffffff16565b50565b6101e6335f61022790919063ffffffff16565b610225576040517f08c379a000000000000000000000000000000000000000000000000000000000815260040161021c9061048b565b60405180910390fd5b565b5f825f015f8373ffffffffffffffffffffffffffffffffffffffff1673ffffffffffffffffffffffffffffffffffffffff1681526020019081526020015f205f9054906101000a900460ff16905092915050565b5f825f015f8373ffffffffffffffffffffffffffffffffffffffff1673ffffffffffffffffffffffffffffffffffffffff1681526020019081526020015f205f6101000a81548160ff0219169083151502179055505050565b5f8183600101546102e5919061053e565b421015905092915050565b6001825f015f8373ffffffffffffffffffffffffffffffffffffffff1673ffffffffffffffffffffffffffffffffffffffff1681526020019081526020015f205f6101000a81548160ff0219169083151502179055505050565b5f80fd5b5f73ffffffffffffffffffffffffffffffffffffffff82169050919050565b5f6103778261034e565b9050919050565b6103878161036d565b8114610391575f80fd5b50565b5f813590506103a28161037e565b92915050565b5f602082840312156103bd576103bc61034a565b5b5f6103ca84828501610394565b91505092915050565b5f819050919050565b6103e5816103d3565b81146103ef575f80fd5b50565b5f81359050610400816103dc565b92915050565b5f6020828403121561041b5761041a61034a565b5b5f610428848285016103f2565b91505092915050565b5f82825260208201905092915050565b7f4e6f7420616e2061646d696e00000000000000000000000000000000000000005f82015250565b5f610475600c83610431565b915061048082610441565b602082019050919050565b5f6020820190508181035f8301526104a281610469565b9050919050565b7f46756e6374696f6e2069732074696d652d7265737472696374656400000000005f82015250565b5f6104dd601b83610431565b91506104e8826104a9565b602082019050919050565b5f6020820190508181035f83015261050a816104d1565b9050919050565b7f4e487b71000000000000000000000000000000000000000000000000000000005f52601160045260245ffd5b5f610548826103d3565b9150610553836103d3565b925082820190508082111561056b5761056a610511565b5b9291505056fea2646970667358221220bdfe486d808aecb85124625137cf0628d50b4af85db115980858b31c8ab4590264736f6c634300081a0033",
					"opcodes": "PUSH1 0x80 PUSH1 0x40 MSTORE CALLVALUE DUP1 ISZERO PUSH1 0xE JUMPI PUSH0 DUP1 REVERT JUMPDEST POP PUSH1 0x20 CALLER PUSH0 PUSH1 0x35 PUSH1 0x20 SHL SWAP1 SWAP2 SWAP1 PUSH1 0x20 SHR JUMP JUMPDEST PUSH1 0x31 TIMESTAMP PUSH0 PUSH1 0x8F PUSH1 0x20 SHL SWAP1 SWAP2 SWAP1 PUSH1 0x20 SHR JUMP JUMPDEST PUSH1 0x9C JUMP JUMPDEST PUSH1 0x1 DUP3 PUSH0 ADD PUSH0 DUP4 PUSH20 0xFFFFFFFFFFFFFFFFFFFFFFFFFFFFFFFFFFFFFFFF AND PUSH20 0xFFFFFFFFFFFFFFFFFFFFFFFFFFFFFFFFFFFFFFFF AND DUP2 MSTORE PUSH1 0x20 ADD SWAP1 DUP2 MSTORE PUSH1 0x20 ADD PUSH0 KECCAK256 PUSH0 PUSH2 0x100 EXP DUP2 SLOAD DUP2 PUSH1 0xFF MUL NOT AND SWAP1 DUP4 ISZERO ISZERO MUL OR SWAP1 SSTORE POP POP POP JUMP JUMPDEST DUP1 DUP3 PUSH1 0x1 ADD DUP2 SWAP1 SSTORE POP POP POP JUMP JUMPDEST PUSH2 0x5A7 DUP1 PUSH2 0xA9 PUSH0 CODECOPY PUSH0 RETURN INVALID PUSH1 0x80 PUSH1 0x40 MSTORE CALLVALUE DUP1 ISZERO PUSH2 0xF JUMPI PUSH0 DUP1 REVERT JUMPDEST POP PUSH1 0x4 CALLDATASIZE LT PUSH2 0x4A JUMPI PUSH0 CALLDATALOAD PUSH1 0xE0 SHR DUP1 PUSH4 0x1785F53C EQ PUSH2 0x4E JUMPI DUP1 PUSH4 0x624C91F2 EQ PUSH2 0x6A JUMPI DUP1 PUSH4 0x70480275 EQ PUSH2 0x86 JUMPI DUP1 PUSH4 0x777ACF37 EQ PUSH2 0xA2 JUMPI JUMPDEST PUSH0 DUP1 REVERT JUMPDEST PUSH2 0x68 PUSH1 0x4 DUP1 CALLDATASIZE SUB DUP2 ADD SWAP1 PUSH2 0x63 SWAP2 SWAP1 PUSH2 0x3A8 JUMP JUMPDEST PUSH2 0xAC JUMP JUMPDEST STOP JUMPDEST PUSH2 0x84 PUSH1 0x4 DUP1 CALLDATASIZE SUB DUP2 ADD SWAP1 PUSH2 0x7F SWAP2 SWAP1 PUSH2 0x406 JUMP JUMPDEST PUSH2 0x114 JUMP JUMPDEST STOP JUMPDEST PUSH2 0xA0 PUSH1 0x4 DUP1 CALLDATASIZE SUB DUP2 ADD SWAP1 PUSH2 0x9B SWAP2 SWAP1 PUSH2 0x3A8 JUMP JUMPDEST PUSH2 0x16B JUMP JUMPDEST STOP JUMPDEST PUSH2 0xAA PUSH2 0x1D3 JUMP JUMPDEST STOP JUMPDEST PUSH2 0xBF CALLER PUSH0 PUSH2 0x227 SWAP1 SWAP2 SWAP1 PUSH4 0xFFFFFFFF AND JUMP JUMPDEST PUSH2 0xFE JUMPI PUSH1 0x40 MLOAD PUSH32 0x8C379A000000000000000000000000000000000000000000000000000000000 DUP2 MSTORE PUSH1 0x4 ADD PUSH2 0xF5 SWAP1 PUSH2 0x48B JUMP JUMPDEST PUSH1 0x40 MLOAD DUP1 SWAP2 SUB SWAP1 REVERT JUMPDEST PUSH2 0x111 DUP2 PUSH0 PUSH2 0x27B SWAP1 SWAP2 SWAP1 PUSH4 0xFFFFFFFF AND JUMP JUMPDEST POP JUMP JUMPDEST DUP1 PUSH2 0x128 DUP2 PUSH0 PUSH2 0x2D4 SWAP1 SWAP2 SWAP1 PUSH4 0xFFFFFFFF AND JUMP JUMPDEST PUSH2 0x167 JUMPI PUSH1 0x40 MLOAD PUSH32 0x8C379A000000000000000000000000000000000000000000000000000000000 DUP2 MSTORE PUSH1 0x4 ADD PUSH2 0x15E SWAP1 PUSH2 0x4F3 JUMP JUMPDEST PUSH1 0x40 MLOAD DUP1 SWAP2 SUB SWAP1 REVERT JUMPDEST POP POP JUMP JUMPDEST PUSH2 0x17E CALLER PUSH0 PUSH2 0x227 SWAP1 SWAP2 SWAP1 PUSH4 0xFFFFFFFF AND JUMP JUMPDEST PUSH2 0x1BD JUMPI PUSH1 0x40 MLOAD PUSH32 0x8C379A000000000000000000000000000000000000000000000000000000000 DUP2 MSTORE PUSH1 0x4 ADD PUSH2 0x1B4 SWAP1 PUSH2 0x48B JUMP JUMPDEST PUSH1 0x40 MLOAD DUP1 SWAP2 SUB SWAP1 REVERT JUMPDEST PUSH2 0x1D0 DUP2 PUSH0 PUSH2 0x2F0 SWAP1 SWAP2 SWAP1 PUSH4 0xFFFFFFFF AND JUMP JUMPDEST POP JUMP JUMPDEST PUSH2 0x1E6 CALLER PUSH0 PUSH2 0x227 SWAP1 SWAP2 SWAP1 PUSH4 0xFFFFFFFF AND JUMP JUMPDEST PUSH2 0x225 JUMPI PUSH1 0x40 MLOAD PUSH32 0x8C379A000000000000000000000000000000000000000000000000000000000 DUP2 MSTORE PUSH1 0x4 ADD PUSH2 0x21C SWAP1 PUSH2 0x48B JUMP JUMPDEST PUSH1 0x40 MLOAD DUP1 SWAP2 SUB SWAP1 REVERT JUMPDEST JUMP JUMPDEST PUSH0 DUP3 PUSH0 ADD PUSH0 DUP4 PUSH20 0xFFFFFFFFFFFFFFFFFFFFFFFFFFFFFFFFFFFFFFFF AND PUSH20 0xFFFFFFFFFFFFFFFFFFFFFFFFFFFFFFFFFFFFFFFF AND DUP2 MSTORE PUSH1 0x20 ADD SWAP1 DUP2 MSTORE PUSH1 0x20 ADD PUSH0 KECCAK256 PUSH0 SWAP1 SLOAD SWAP1 PUSH2 0x100 EXP SWAP1 DIV PUSH1 0xFF AND SWAP1 POP SWAP3 SWAP2 POP POP JUMP JUMPDEST PUSH0 DUP3 PUSH0 ADD PUSH0 DUP4 PUSH20 0xFFFFFFFFFFFFFFFFFFFFFFFFFFFFFFFFFFFFFFFF AND PUSH20 0xFFFFFFFFFFFFFFFFFFFFFFFFFFFFFFFFFFFFFFFF AND DUP2 MSTORE PUSH1 0x20 ADD SWAP1 DUP2 MSTORE PUSH1 0x20 ADD PUSH0 KECCAK256 PUSH0 PUSH2 0x100 EXP DUP2 SLOAD DUP2 PUSH1 0xFF MUL NOT AND SWAP1 DUP4 ISZERO ISZERO MUL OR SWAP1 SSTORE POP POP POP JUMP JUMPDEST PUSH0 DUP2 DUP4 PUSH1 0x1 ADD SLOAD PUSH2 0x2E5 SWAP2 SWAP1 PUSH2 0x53E JUMP JUMPDEST TIMESTAMP LT ISZERO SWAP1 POP SWAP3 SWAP2 POP POP JUMP JUMPDEST PUSH1 0x1 DUP3 PUSH0 ADD PUSH0 DUP4 PUSH20 0xFFFFFFFFFFFFFFFFFFFFFFFFFFFFFFFFFFFFFFFF AND PUSH20 0xFFFFFFFFFFFFFFFFFFFFFFFFFFFFFFFFFFFFFFFF AND DUP2 MSTORE PUSH1 0x20 ADD SWAP1 DUP2 MSTORE PUSH1 0x20 ADD PUSH0 KECCAK256 PUSH0 PUSH2 0x100 EXP DUP2 SLOAD DUP2 PUSH1 0xFF MUL NOT AND SWAP1 DUP4 ISZERO ISZERO MUL OR SWAP1 SSTORE POP POP POP JUMP JUMPDEST PUSH0 DUP1 REVERT JUMPDEST PUSH0 PUSH20 0xFFFFFFFFFFFFFFFFFFFFFFFFFFFFFFFFFFFFFFFF DUP3 AND SWAP1 POP SWAP2 SWAP1 POP JUMP JUMPDEST PUSH0 PUSH2 0x377 DUP3 PUSH2 0x34E JUMP JUMPDEST SWAP1 POP SWAP2 SWAP1 POP JUMP JUMPDEST PUSH2 0x387 DUP2 PUSH2 0x36D JUMP JUMPDEST DUP2 EQ PUSH2 0x391 JUMPI PUSH0 DUP1 REVERT JUMPDEST POP JUMP JUMPDEST PUSH0 DUP2 CALLDATALOAD SWAP1 POP PUSH2 0x3A2 DUP2 PUSH2 0x37E JUMP JUMPDEST SWAP3 SWAP2 POP POP JUMP JUMPDEST PUSH0 PUSH1 0x20 DUP3 DUP5 SUB SLT ISZERO PUSH2 0x3BD JUMPI PUSH2 0x3BC PUSH2 0x34A JUMP JUMPDEST JUMPDEST PUSH0 PUSH2 0x3CA DUP5 DUP3 DUP6 ADD PUSH2 0x394 JUMP JUMPDEST SWAP2 POP POP SWAP3 SWAP2 POP POP JUMP JUMPDEST PUSH0 DUP2 SWAP1 POP SWAP2 SWAP1 POP JUMP JUMPDEST PUSH2 0x3E5 DUP2 PUSH2 0x3D3 JUMP JUMPDEST DUP2 EQ PUSH2 0x3EF JUMPI PUSH0 DUP1 REVERT JUMPDEST POP JUMP JUMPDEST PUSH0 DUP2 CALLDATALOAD SWAP1 POP PUSH2 0x400 DUP2 PUSH2 0x3DC JUMP JUMPDEST SWAP3 SWAP2 POP POP JUMP JUMPDEST PUSH0 PUSH1 0x20 DUP3 DUP5 SUB SLT ISZERO PUSH2 0x41B JUMPI PUSH2 0x41A PUSH2 0x34A JUMP JUMPDEST JUMPDEST PUSH0 PUSH2 0x428 DUP5 DUP3 DUP6 ADD PUSH2 0x3F2 JUMP JUMPDEST SWAP2 POP POP SWAP3 SWAP2 POP POP JUMP JUMPDEST PUSH0 DUP3 DUP3 MSTORE PUSH1 0x20 DUP3 ADD SWAP1 POP SWAP3 SWAP2 POP POP JUMP JUMPDEST PUSH32 0x4E6F7420616E2061646D696E0000000000000000000000000000000000000000 PUSH0 DUP3 ADD MSTORE POP JUMP JUMPDEST PUSH0 PUSH2 0x475 PUSH1 0xC DUP4 PUSH2 0x431 JUMP JUMPDEST SWAP2 POP PUSH2 0x480 DUP3 PUSH2 0x441 JUMP JUMPDEST PUSH1 0x20 DUP3 ADD SWAP1 POP SWAP2 SWAP1 POP JUMP JUMPDEST PUSH0 PUSH1 0x20 DUP3 ADD SWAP1 POP DUP2 DUP2 SUB PUSH0 DUP4 ADD MSTORE PUSH2 0x4A2 DUP2 PUSH2 0x469 JUMP JUMPDEST SWAP1 POP SWAP2 SWAP1 POP JUMP JUMPDEST PUSH32 0x46756E6374696F6E2069732074696D652D726573747269637465640000000000 PUSH0 DUP3 ADD MSTORE POP JUMP JUMPDEST PUSH0 PUSH2 0x4DD PUSH1 0x1B DUP4 PUSH2 0x431 JUMP JUMPDEST SWAP2 POP PUSH2 0x4E8 DUP3 PUSH2 0x4A9 JUMP JUMPDEST PUSH1 0x20 DUP3 ADD SWAP1 POP SWAP2 SWAP1 POP JUMP JUMPDEST PUSH0 PUSH1 0x20 DUP3 ADD SWAP1 POP DUP2 DUP2 SUB PUSH0 DUP4 ADD MSTORE PUSH2 0x50A DUP2 PUSH2 0x4D1 JUMP JUMPDEST SWAP1 POP SWAP2 SWAP1 POP JUMP JUMPDEST PUSH32 0x4E487B7100000000000000000000000000000000000000000000000000000000 PUSH0 MSTORE PUSH1 0x11 PUSH1 0x4 MSTORE PUSH1 0x24 PUSH0 REVERT JUMPDEST PUSH0 PUSH2 0x548 DUP3 PUSH2 0x3D3 JUMP JUMPDEST SWAP2 POP PUSH2 0x553 DUP4 PUSH2 0x3D3 JUMP JUMPDEST SWAP3 POP DUP3 DUP3 ADD SWAP1 POP DUP1 DUP3 GT ISZERO PUSH2 0x56B JUMPI PUSH2 0x56A PUSH2 0x511 JUMP JUMPDEST JUMPDEST SWAP3 SWAP2 POP POP JUMP INVALID LOG2 PUSH5 0x6970667358 0x22 SLT KECCAK256 0xBD INVALID BASEFEE PUSH14 0x808AECB85124625137CF0628D50B BLOBBASEFEE 0xF8 TSTORE 0xB1 ISZERO SWAP9 ADDMOD PC 0xB3 SHR DUP11 0xB4 MSIZE MUL PUSH5 0x736F6C6343 STOP ADDMOD BYTE STOP CALLER "
				},
				"gasEstimates": {
					"creation": {
						"codeDepositCost": "289400",
						"executionCost": "infinite",
						"totalCost": "infinite"
					},
					"external": {
						"addAdmin(address)": "infinite",
						"removeAdmin(address)": "infinite",
						"restrictedFunction()": "infinite",
						"timeLockedFunction(uint256)": "infinite"
					}
				},
				"methodIdentifiers": {
					"addAdmin(address)": "70480275",
					"removeAdmin(address)": "1785f53c",
					"restrictedFunction()": "777acf37",
					"timeLockedFunction(uint256)": "624c91f2"
				}
			},
			"storageLayout": {
				"storage": [
					{
						"astId": 100,
						"contract": "contracts/Blockchain_Assignment_7/week7_task10.sol:ModifierUser",
						"label": "accessControl",
						"offset": 0,
						"slot": "0",
						"type": "t_struct(AccessControl)8_storage"
					}
				],
				"types": {
					"t_address": {
						"encoding": "inplace",
						"label": "address",
						"numberOfBytes": "20"
					},
					"t_bool": {
						"encoding": "inplace",
						"label": "bool",
						"numberOfBytes": "1"
					},
					"t_mapping(t_address,t_bool)": {
						"encoding": "mapping",
						"key": "t_address",
						"label": "mapping(address => bool)",
						"numberOfBytes": "32",
						"value": "t_bool"
					},
					"t_struct(AccessControl)8_storage": {
						"encoding": "inplace",
						"label": "struct CustomModifiers.AccessControl",
						"members": [
							{
								"astId": 5,
								"contract": "contracts/Blockchain_Assignment_7/week7_task10.sol:ModifierUser",
								"label": "admins",
								"offset": 0,
								"slot": "0",
								"type": "t_mapping(t_address,t_bool)"
							},
							{
								"astId": 7,
								"contract": "contracts/Blockchain_Assignment_7/week7_task10.sol:ModifierUser",
								"label": "startTime",
								"offset": 0,
								"slot": "1",
								"type": "t_uint256"
							}
						],
						"numberOfBytes": "64"
					},
					"t_uint256": {
						"encoding": "inplace",
						"label": "uint256",
						"numberOfBytes": "32"
					}
				}
			},
			"userdoc": {
				"kind": "user",
				"methods": {},
				"version": 1
			}
		}
	}
}