{
	"contracts/Blockchain_Assignment_7/week7_task8.sol": {
		"GenericMappingUser": {
			"abi": [
				{
					"inputs": [
						{
							"internalType": "address",
							"name": "key",
							"type": "address"
						},
						{
							"internalType": "bytes",
							"name": "value",
							"type": "bytes"
						}
					],
					"name": "addEntry",
					"outputs": [],
					"stateMutability": "nonpayable",
					"type": "function"
				},
				{
					"inputs": [
						{
							"internalType": "address",
							"name": "key",
							"type": "address"
						}
					],
					"name": "getEntry",
					"outputs": [
						{
							"internalType": "bytes",
							"name": "",
							"type": "bytes"
						}
					],
					"stateMutability": "view",
					"type": "function"
				},
				{
					"inputs": [
						{
							"internalType": "address",
							"name": "key",
							"type": "address"
						}
					],
					"name": "removeEntry",
					"outputs": [],
					"stateMutability": "nonpayable",
					"type": "function"
				},
				{
					"inputs": [
						{
							"internalType": "address",
							"name": "key",
							"type": "address"
						},
						{
							"internalType": "bytes",
							"name": "value",
							"type": "bytes"
						}
					],
					"name": "updateEntry",
					"outputs": [],
					"stateMutability": "nonpayable",
					"type": "function"
				}
			],
			"devdoc": {
				"kind": "dev",
				"methods": {},
				"version": 1
			},
			"evm": {
				"assembly": "    /* \"contracts/Blockchain_Assignment_7/week7_task8.sol\":1257:1805  contract GenericMappingUser {... */\n  mstore(0x40, 0x80)\n  callvalue\n  dup1\n  iszero\n  tag_1\n  jumpi\n  0x00\n  dup1\n  revert\ntag_1:\n  pop\n  dataSize(sub_0)\n  dup1\n  dataOffset(sub_0)\n  0x00\n  codecopy\n  0x00\n  return\nstop\n\nsub_0: assembly {\n        /* \"contracts/Blockchain_Assignment_7/week7_task8.sol\":1257:1805  contract GenericMappingUser {... */\n      mstore(0x40, 0x80)\n      callvalue\n      dup1\n      iszero\n      tag_1\n      jumpi\n      0x00\n      dup1\n      revert\n    tag_1:\n      pop\n      jumpi(tag_2, lt(calldatasize, 0x04))\n      shr(0xe0, calldataload(0x00))\n      dup1\n      0x160b35df\n      eq\n      tag_3\n      jumpi\n      dup1\n      0x7db6a4e4\n      eq\n      tag_4\n      jumpi\n      dup1\n      0xb66deb80\n      eq\n      tag_5\n      jumpi\n      dup1\n      0xbd456f76\n      eq\n      tag_6\n      jumpi\n    tag_2:\n      0x00\n      dup1\n      revert\n        /* \"contracts/Blockchain_Assignment_7/week7_task8.sol\":1493:1599  function updateEntry(address key, bytes memory value) external {... */\n    tag_3:\n      tag_7\n      0x04\n      dup1\n      calldatasize\n      sub\n      dup2\n      add\n      swap1\n      tag_8\n      swap2\n      swap1\n      tag_9\n      jump\t// in\n    tag_8:\n      tag_10\n      jump\t// in\n    tag_7:\n      stop\n        /* \"contracts/Blockchain_Assignment_7/week7_task8.sol\":1694:1802  function getEntry(address key) external view returns (bytes memory) {... */\n    tag_4:\n      tag_11\n      0x04\n      dup1\n      calldatasize\n      sub\n      dup2\n      add\n      swap1\n      tag_12\n      swap2\n      swap1\n      tag_13\n      jump\t// in\n    tag_12:\n      tag_14\n      jump\t// in\n    tag_11:\n      mload(0x40)\n      tag_15\n      swap2\n      swap1\n      tag_16\n      jump\t// in\n    tag_15:\n      mload(0x40)\n      dup1\n      swap2\n      sub\n      swap1\n      return\n        /* \"contracts/Blockchain_Assignment_7/week7_task8.sol\":1607:1686  function removeEntry(address key) external {... */\n    tag_5:\n      tag_17\n      0x04\n      dup1\n      calldatasize\n      sub\n      dup2\n      add\n      swap1\n      tag_18\n      swap2\n      swap1\n      tag_13\n      jump\t// in\n    tag_18:\n      tag_19\n      jump\t// in\n    tag_17:\n      stop\n        /* \"contracts/Blockchain_Assignment_7/week7_task8.sol\":1385:1485  function addEntry(address key, bytes memory value) external {... */\n    tag_6:\n      tag_20\n      0x04\n      dup1\n      calldatasize\n      sub\n      dup2\n      add\n      swap1\n      tag_21\n      swap2\n      swap1\n      tag_9\n      jump\t// in\n    tag_21:\n      tag_22\n      jump\t// in\n    tag_20:\n      stop\n        /* \"contracts/Blockchain_Assignment_7/week7_task8.sol\":1493:1599  function updateEntry(address key, bytes memory value) external {... */\n    tag_10:\n        /* \"contracts/Blockchain_Assignment_7/week7_task8.sol\":1567:1591  myMap.update(key, value) */\n      tag_24\n        /* \"contracts/Blockchain_Assignment_7/week7_task8.sol\":1580:1583  key */\n      dup3\n        /* \"contracts/Blockchain_Assignment_7/week7_task8.sol\":1585:1590  value */\n      dup3\n        /* \"contracts/Blockchain_Assignment_7/week7_task8.sol\":1567:1572  myMap */\n      0x00\n        /* \"contracts/Blockchain_Assignment_7/week7_task8.sol\":1567:1579  myMap.update */\n      tag_25\n      swap1\n        /* \"contracts/Blockchain_Assignment_7/week7_task8.sol\":1567:1591  myMap.update(key, value) */\n      swap3\n      swap2\n      swap1\n      0xffffffff\n      and\n      jump\t// in\n    tag_24:\n        /* \"contracts/Blockchain_Assignment_7/week7_task8.sol\":1493:1599  function updateEntry(address key, bytes memory value) external {... */\n      pop\n      pop\n      jump\t// out\n        /* \"contracts/Blockchain_Assignment_7/week7_task8.sol\":1694:1802  function getEntry(address key) external view returns (bytes memory) {... */\n    tag_14:\n        /* \"contracts/Blockchain_Assignment_7/week7_task8.sol\":1748:1760  bytes memory */\n      0x60\n        /* \"contracts/Blockchain_Assignment_7/week7_task8.sol\":1780:1794  myMap.get(key) */\n      tag_27\n        /* \"contracts/Blockchain_Assignment_7/week7_task8.sol\":1790:1793  key */\n      dup3\n        /* \"contracts/Blockchain_Assignment_7/week7_task8.sol\":1780:1785  myMap */\n      0x00\n        /* \"contracts/Blockchain_Assignment_7/week7_task8.sol\":1780:1789  myMap.get */\n      tag_28\n      swap1\n        /* \"contracts/Blockchain_Assignment_7/week7_task8.sol\":1780:1794  myMap.get(key) */\n      swap2\n      swap1\n      0xffffffff\n      and\n      jump\t// in\n    tag_27:\n        /* \"contracts/Blockchain_Assignment_7/week7_task8.sol\":1773:1794  return myMap.get(key) */\n      swap1\n      pop\n        /* \"contracts/Blockchain_Assignment_7/week7_task8.sol\":1694:1802  function getEntry(address key) external view returns (bytes memory) {... */\n      swap2\n      swap1\n      pop\n      jump\t// out\n        /* \"contracts/Blockchain_Assignment_7/week7_task8.sol\":1607:1686  function removeEntry(address key) external {... */\n    tag_19:\n        /* \"contracts/Blockchain_Assignment_7/week7_task8.sol\":1661:1678  myMap.remove(key) */\n      tag_30\n        /* \"contracts/Blockchain_Assignment_7/week7_task8.sol\":1674:1677  key */\n      dup2\n        /* \"contracts/Blockchain_Assignment_7/week7_task8.sol\":1661:1666  myMap */\n      0x00\n        /* \"contracts/Blockchain_Assignment_7/week7_task8.sol\":1661:1673  myMap.remove */\n      tag_31\n      swap1\n        /* \"contracts/Blockchain_Assignment_7/week7_task8.sol\":1661:1678  myMap.remove(key) */\n      swap2\n      swap1\n      0xffffffff\n      and\n      jump\t// in\n    tag_30:\n        /* \"contracts/Blockchain_Assignment_7/week7_task8.sol\":1607:1686  function removeEntry(address key) external {... */\n      pop\n      jump\t// out\n        /* \"contracts/Blockchain_Assignment_7/week7_task8.sol\":1385:1485  function addEntry(address key, bytes memory value) external {... */\n    tag_22:\n        /* \"contracts/Blockchain_Assignment_7/week7_task8.sol\":1456:1477  myMap.add(key, value) */\n      tag_33\n        /* \"contracts/Blockchain_Assignment_7/week7_task8.sol\":1466:1469  key */\n      dup3\n        /* \"contracts/Blockchain_Assignment_7/week7_task8.sol\":1471:1476  value */\n      dup3\n        /* \"contracts/Blockchain_Assignment_7/week7_task8.sol\":1456:1461  myMap */\n      0x00\n        /* \"contracts/Blockchain_Assignment_7/week7_task8.sol\":1456:1465  myMap.add */\n      tag_34\n      swap1\n        /* \"contracts/Blockchain_Assignment_7/week7_task8.sol\":1456:1477  myMap.add(key, value) */\n      swap3\n      swap2\n      swap1\n      0xffffffff\n      and\n      jump\t// in\n    tag_33:\n        /* \"contracts/Blockchain_Assignment_7/week7_task8.sol\":1385:1485  function addEntry(address key, bytes memory value) external {... */\n      pop\n      pop\n      jump\t// out\n        /* \"contracts/Blockchain_Assignment_7/week7_task8.sol\":437:612  function update(Map storage self, address key, bytes memory value) internal {... */\n    tag_25:\n        /* \"contracts/Blockchain_Assignment_7/week7_task8.sol\":532:536  self */\n      dup3\n        /* \"contracts/Blockchain_Assignment_7/week7_task8.sol\":532:543  self.exists */\n      0x02\n      add\n        /* \"contracts/Blockchain_Assignment_7/week7_task8.sol\":532:548  self.exists[key] */\n      0x00\n        /* \"contracts/Blockchain_Assignment_7/week7_task8.sol\":544:547  key */\n      dup4\n        /* \"contracts/Blockchain_Assignment_7/week7_task8.sol\":532:548  self.exists[key] */\n      0xffffffffffffffffffffffffffffffffffffffff\n      and\n      0xffffffffffffffffffffffffffffffffffffffff\n      and\n      dup2\n      mstore\n      0x20\n      add\n      swap1\n      dup2\n      mstore\n      0x20\n      add\n      0x00\n      keccak256\n      0x00\n      swap1\n      sload\n      swap1\n      0x0100\n      exp\n      swap1\n      div\n      0xff\n      and\n        /* \"contracts/Blockchain_Assignment_7/week7_task8.sol\":524:571  require(self.exists[key], \"Key does not exist\") */\n      tag_36\n      jumpi\n      mload(0x40)\n      0x08c379a000000000000000000000000000000000000000000000000000000000\n      dup2\n      mstore\n      0x04\n      add\n      tag_37\n      swap1\n      tag_38\n      jump\t// in\n    tag_37:\n      mload(0x40)\n      dup1\n      swap2\n      sub\n      swap1\n      revert\n    tag_36:\n        /* \"contracts/Blockchain_Assignment_7/week7_task8.sol\":599:604  value */\n      dup1\n        /* \"contracts/Blockchain_Assignment_7/week7_task8.sol\":582:586  self */\n      dup4\n        /* \"contracts/Blockchain_Assignment_7/week7_task8.sol\":582:591  self.data */\n      0x00\n      add\n        /* \"contracts/Blockchain_Assignment_7/week7_task8.sol\":582:596  self.data[key] */\n      0x00\n        /* \"contracts/Blockchain_Assignment_7/week7_task8.sol\":592:595  key */\n      dup5\n        /* \"contracts/Blockchain_Assignment_7/week7_task8.sol\":582:596  self.data[key] */\n      0xffffffffffffffffffffffffffffffffffffffff\n      and\n      0xffffffffffffffffffffffffffffffffffffffff\n      and\n      dup2\n      mstore\n      0x20\n      add\n      swap1\n      dup2\n      mstore\n      0x20\n      add\n      0x00\n      keccak256\n        /* \"contracts/Blockchain_Assignment_7/week7_task8.sol\":582:604  self.data[key] = value */\n      swap1\n      dup2\n      tag_39\n      swap2\n      swap1\n      tag_40\n      jump\t// in\n    tag_39:\n      pop\n        /* \"contracts/Blockchain_Assignment_7/week7_task8.sol\":437:612  function update(Map storage self, address key, bytes memory value) internal {... */\n      pop\n      pop\n      pop\n      jump\t// out\n        /* \"contracts/Blockchain_Assignment_7/week7_task8.sol\":1071:1250  function get(Map storage self, address key) internal view returns (bytes memory) {... */\n    tag_28:\n        /* \"contracts/Blockchain_Assignment_7/week7_task8.sol\":1138:1150  bytes memory */\n      0x60\n        /* \"contracts/Blockchain_Assignment_7/week7_task8.sol\":1171:1175  self */\n      dup3\n        /* \"contracts/Blockchain_Assignment_7/week7_task8.sol\":1171:1182  self.exists */\n      0x02\n      add\n        /* \"contracts/Blockchain_Assignment_7/week7_task8.sol\":1171:1187  self.exists[key] */\n      0x00\n        /* \"contracts/Blockchain_Assignment_7/week7_task8.sol\":1183:1186  key */\n      dup4\n        /* \"contracts/Blockchain_Assignment_7/week7_task8.sol\":1171:1187  self.exists[key] */\n      0xffffffffffffffffffffffffffffffffffffffff\n      and\n      0xffffffffffffffffffffffffffffffffffffffff\n      and\n      dup2\n      mstore\n      0x20\n      add\n      swap1\n      dup2\n      mstore\n      0x20\n      add\n      0x00\n      keccak256\n      0x00\n      swap1\n      sload\n      swap1\n      0x0100\n      exp\n      swap1\n      div\n      0xff\n      and\n        /* \"contracts/Blockchain_Assignment_7/week7_task8.sol\":1163:1210  require(self.exists[key], \"Key does not exist\") */\n      tag_42\n      jumpi\n      mload(0x40)\n      0x08c379a000000000000000000000000000000000000000000000000000000000\n      dup2\n      mstore\n      0x04\n      add\n      tag_43\n      swap1\n      tag_38\n      jump\t// in\n    tag_43:\n      mload(0x40)\n      dup1\n      swap2\n      sub\n      swap1\n      revert\n    tag_42:\n        /* \"contracts/Blockchain_Assignment_7/week7_task8.sol\":1228:1232  self */\n      dup3\n        /* \"contracts/Blockchain_Assignment_7/week7_task8.sol\":1228:1237  self.data */\n      0x00\n      add\n        /* \"contracts/Blockchain_Assignment_7/week7_task8.sol\":1228:1242  self.data[key] */\n      0x00\n        /* \"contracts/Blockchain_Assignment_7/week7_task8.sol\":1238:1241  key */\n      dup4\n        /* \"contracts/Blockchain_Assignment_7/week7_task8.sol\":1228:1242  self.data[key] */\n      0xffffffffffffffffffffffffffffffffffffffff\n      and\n      0xffffffffffffffffffffffffffffffffffffffff\n      and\n      dup2\n      mstore\n      0x20\n      add\n      swap1\n      dup2\n      mstore\n      0x20\n      add\n      0x00\n      keccak256\n        /* \"contracts/Blockchain_Assignment_7/week7_task8.sol\":1221:1242  return self.data[key] */\n      dup1\n      sload\n      tag_44\n      swap1\n      tag_45\n      jump\t// in\n    tag_44:\n      dup1\n      0x1f\n      add\n      0x20\n      dup1\n      swap2\n      div\n      mul\n      0x20\n      add\n      mload(0x40)\n      swap1\n      dup2\n      add\n      0x40\n      mstore\n      dup1\n      swap3\n      swap2\n      swap1\n      dup2\n      dup2\n      mstore\n      0x20\n      add\n      dup3\n      dup1\n      sload\n      tag_46\n      swap1\n      tag_45\n      jump\t// in\n    tag_46:\n      dup1\n      iszero\n      tag_47\n      jumpi\n      dup1\n      0x1f\n      lt\n      tag_48\n      jumpi\n      0x0100\n      dup1\n      dup4\n      sload\n      div\n      mul\n      dup4\n      mstore\n      swap2\n      0x20\n      add\n      swap2\n      jump(tag_47)\n    tag_48:\n      dup3\n      add\n      swap2\n      swap1\n      0x00\n      mstore\n      keccak256(0x00, 0x20)\n      swap1\n    tag_49:\n      dup2\n      sload\n      dup2\n      mstore\n      swap1\n      0x01\n      add\n      swap1\n      0x20\n      add\n      dup1\n      dup4\n      gt\n      tag_49\n      jumpi\n      dup3\n      swap1\n      sub\n      0x1f\n      and\n      dup3\n      add\n      swap2\n    tag_47:\n      pop\n      pop\n      pop\n      pop\n      pop\n      swap1\n      pop\n        /* \"contracts/Blockchain_Assignment_7/week7_task8.sol\":1071:1250  function get(Map storage self, address key) internal view returns (bytes memory) {... */\n      swap3\n      swap2\n      pop\n      pop\n      jump\t// out\n        /* \"contracts/Blockchain_Assignment_7/week7_task8.sol\":620:1063  function remove(Map storage self, address key) internal {... */\n    tag_31:\n        /* \"contracts/Blockchain_Assignment_7/week7_task8.sol\":695:699  self */\n      dup2\n        /* \"contracts/Blockchain_Assignment_7/week7_task8.sol\":695:706  self.exists */\n      0x02\n      add\n        /* \"contracts/Blockchain_Assignment_7/week7_task8.sol\":695:711  self.exists[key] */\n      0x00\n        /* \"contracts/Blockchain_Assignment_7/week7_task8.sol\":707:710  key */\n      dup3\n        /* \"contracts/Blockchain_Assignment_7/week7_task8.sol\":695:711  self.exists[key] */\n      0xffffffffffffffffffffffffffffffffffffffff\n      and\n      0xffffffffffffffffffffffffffffffffffffffff\n      and\n      dup2\n      mstore\n      0x20\n      add\n      swap1\n      dup2\n      mstore\n      0x20\n      add\n      0x00\n      keccak256\n      0x00\n      swap1\n      sload\n      swap1\n      0x0100\n      exp\n      swap1\n      div\n      0xff\n      and\n        /* \"contracts/Blockchain_Assignment_7/week7_task8.sol\":687:734  require(self.exists[key], \"Key does not exist\") */\n      tag_51\n      jumpi\n      mload(0x40)\n      0x08c379a000000000000000000000000000000000000000000000000000000000\n      dup2\n      mstore\n      0x04\n      add\n      tag_52\n      swap1\n      tag_38\n      jump\t// in\n    tag_52:\n      mload(0x40)\n      dup1\n      swap2\n      sub\n      swap1\n      revert\n    tag_51:\n        /* \"contracts/Blockchain_Assignment_7/week7_task8.sol\":752:756  self */\n      dup2\n        /* \"contracts/Blockchain_Assignment_7/week7_task8.sol\":752:761  self.data */\n      0x00\n      add\n        /* \"contracts/Blockchain_Assignment_7/week7_task8.sol\":752:766  self.data[key] */\n      0x00\n        /* \"contracts/Blockchain_Assignment_7/week7_task8.sol\":762:765  key */\n      dup3\n        /* \"contracts/Blockchain_Assignment_7/week7_task8.sol\":752:766  self.data[key] */\n      0xffffffffffffffffffffffffffffffffffffffff\n      and\n      0xffffffffffffffffffffffffffffffffffffffff\n      and\n      dup2\n      mstore\n      0x20\n      add\n      swap1\n      dup2\n      mstore\n      0x20\n      add\n      0x00\n      keccak256\n      0x00\n        /* \"contracts/Blockchain_Assignment_7/week7_task8.sol\":745:766  delete self.data[key] */\n      tag_53\n      swap2\n      swap1\n      tag_54\n      jump\t// in\n    tag_53:\n        /* \"contracts/Blockchain_Assignment_7/week7_task8.sol\":796:801  false */\n      0x00\n        /* \"contracts/Blockchain_Assignment_7/week7_task8.sol\":777:781  self */\n      dup3\n        /* \"contracts/Blockchain_Assignment_7/week7_task8.sol\":777:788  self.exists */\n      0x02\n      add\n        /* \"contracts/Blockchain_Assignment_7/week7_task8.sol\":777:793  self.exists[key] */\n      0x00\n        /* \"contracts/Blockchain_Assignment_7/week7_task8.sol\":789:792  key */\n      dup4\n        /* \"contracts/Blockchain_Assignment_7/week7_task8.sol\":777:793  self.exists[key] */\n      0xffffffffffffffffffffffffffffffffffffffff\n      and\n      0xffffffffffffffffffffffffffffffffffffffff\n      and\n      dup2\n      mstore\n      0x20\n      add\n      swap1\n      dup2\n      mstore\n      0x20\n      add\n      0x00\n      keccak256\n      0x00\n        /* \"contracts/Blockchain_Assignment_7/week7_task8.sol\":777:801  self.exists[key] = false */\n      0x0100\n      exp\n      dup2\n      sload\n      dup2\n      0xff\n      mul\n      not\n      and\n      swap1\n      dup4\n      iszero\n      iszero\n      mul\n      or\n      swap1\n      sstore\n      pop\n        /* \"contracts/Blockchain_Assignment_7/week7_task8.sol\":827:833  uint i */\n      0x00\n        /* \"contracts/Blockchain_Assignment_7/week7_task8.sol\":822:1056  for (uint i = 0; i < self.keys.length; i++) {... */\n    tag_55:\n        /* \"contracts/Blockchain_Assignment_7/week7_task8.sol\":843:847  self */\n      dup3\n        /* \"contracts/Blockchain_Assignment_7/week7_task8.sol\":843:852  self.keys */\n      0x01\n      add\n        /* \"contracts/Blockchain_Assignment_7/week7_task8.sol\":843:859  self.keys.length */\n      dup1\n      sload\n      swap1\n      pop\n        /* \"contracts/Blockchain_Assignment_7/week7_task8.sol\":839:840  i */\n      dup2\n        /* \"contracts/Blockchain_Assignment_7/week7_task8.sol\":839:859  i < self.keys.length */\n      lt\n        /* \"contracts/Blockchain_Assignment_7/week7_task8.sol\":822:1056  for (uint i = 0; i < self.keys.length; i++) {... */\n      iszero\n      tag_56\n      jumpi\n        /* \"contracts/Blockchain_Assignment_7/week7_task8.sol\":901:904  key */\n      dup2\n        /* \"contracts/Blockchain_Assignment_7/week7_task8.sol\":885:904  self.keys[i] == key */\n      0xffffffffffffffffffffffffffffffffffffffff\n      and\n        /* \"contracts/Blockchain_Assignment_7/week7_task8.sol\":885:889  self */\n      dup4\n        /* \"contracts/Blockchain_Assignment_7/week7_task8.sol\":885:894  self.keys */\n      0x01\n      add\n        /* \"contracts/Blockchain_Assignment_7/week7_task8.sol\":895:896  i */\n      dup3\n        /* \"contracts/Blockchain_Assignment_7/week7_task8.sol\":885:897  self.keys[i] */\n      dup2\n      sload\n      dup2\n      lt\n      tag_58\n      jumpi\n      tag_59\n      tag_60\n      jump\t// in\n    tag_59:\n    tag_58:\n      swap1\n      0x00\n      mstore\n      keccak256(0x00, 0x20)\n      add\n      0x00\n      swap1\n      sload\n      swap1\n      0x0100\n      exp\n      swap1\n      div\n      0xffffffffffffffffffffffffffffffffffffffff\n      and\n        /* \"contracts/Blockchain_Assignment_7/week7_task8.sol\":885:904  self.keys[i] == key */\n      0xffffffffffffffffffffffffffffffffffffffff\n      and\n      sub\n        /* \"contracts/Blockchain_Assignment_7/week7_task8.sol\":881:1045  if (self.keys[i] == key) {... */\n      tag_62\n      jumpi\n        /* \"contracts/Blockchain_Assignment_7/week7_task8.sol\":940:944  self */\n      dup3\n        /* \"contracts/Blockchain_Assignment_7/week7_task8.sol\":940:949  self.keys */\n      0x01\n      add\n        /* \"contracts/Blockchain_Assignment_7/week7_task8.sol\":969:970  1 */\n      0x01\n        /* \"contracts/Blockchain_Assignment_7/week7_task8.sol\":950:954  self */\n      dup5\n        /* \"contracts/Blockchain_Assignment_7/week7_task8.sol\":950:959  self.keys */\n      0x01\n      add\n        /* \"contracts/Blockchain_Assignment_7/week7_task8.sol\":950:966  self.keys.length */\n      dup1\n      sload\n      swap1\n      pop\n        /* \"contracts/Blockchain_Assignment_7/week7_task8.sol\":950:970  self.keys.length - 1 */\n      tag_63\n      swap2\n      swap1\n      tag_64\n      jump\t// in\n    tag_63:\n        /* \"contracts/Blockchain_Assignment_7/week7_task8.sol\":940:971  self.keys[self.keys.length - 1] */\n      dup2\n      sload\n      dup2\n      lt\n      tag_65\n      jumpi\n      tag_66\n      tag_60\n      jump\t// in\n    tag_66:\n    tag_65:\n      swap1\n      0x00\n      mstore\n      keccak256(0x00, 0x20)\n      add\n      0x00\n      swap1\n      sload\n      swap1\n      0x0100\n      exp\n      swap1\n      div\n      0xffffffffffffffffffffffffffffffffffffffff\n      and\n        /* \"contracts/Blockchain_Assignment_7/week7_task8.sol\":925:929  self */\n      dup4\n        /* \"contracts/Blockchain_Assignment_7/week7_task8.sol\":925:934  self.keys */\n      0x01\n      add\n        /* \"contracts/Blockchain_Assignment_7/week7_task8.sol\":935:936  i */\n      dup3\n        /* \"contracts/Blockchain_Assignment_7/week7_task8.sol\":925:937  self.keys[i] */\n      dup2\n      sload\n      dup2\n      lt\n      tag_68\n      jumpi\n      tag_69\n      tag_60\n      jump\t// in\n    tag_69:\n    tag_68:\n      swap1\n      0x00\n      mstore\n      keccak256(0x00, 0x20)\n      add\n      0x00\n        /* \"contracts/Blockchain_Assignment_7/week7_task8.sol\":925:971  self.keys[i] = self.keys[self.keys.length - 1] */\n      0x0100\n      exp\n      dup2\n      sload\n      dup2\n      0xffffffffffffffffffffffffffffffffffffffff\n      mul\n      not\n      and\n      swap1\n      dup4\n      0xffffffffffffffffffffffffffffffffffffffff\n      and\n      mul\n      or\n      swap1\n      sstore\n      pop\n        /* \"contracts/Blockchain_Assignment_7/week7_task8.sol\":990:994  self */\n      dup3\n        /* \"contracts/Blockchain_Assignment_7/week7_task8.sol\":990:999  self.keys */\n      0x01\n      add\n        /* \"contracts/Blockchain_Assignment_7/week7_task8.sol\":990:1005  self.keys.pop() */\n      dup1\n      sload\n      dup1\n      tag_71\n      jumpi\n      tag_72\n      tag_73\n      jump\t// in\n    tag_72:\n    tag_71:\n      0x01\n      swap1\n      sub\n      dup2\n      dup2\n      swap1\n      0x00\n      mstore\n      keccak256(0x00, 0x20)\n      add\n      exp(0x0100, 0x00)\n      dup2\n      sload\n      swap1\n      0xffffffffffffffffffffffffffffffffffffffff\n      mul\n      not\n      and\n      swap1\n      sstore\n      swap1\n      sstore\n        /* \"contracts/Blockchain_Assignment_7/week7_task8.sol\":1024:1029  break */\n      jump(tag_56)\n        /* \"contracts/Blockchain_Assignment_7/week7_task8.sol\":881:1045  if (self.keys[i] == key) {... */\n    tag_62:\n        /* \"contracts/Blockchain_Assignment_7/week7_task8.sol\":861:864  i++ */\n      dup1\n      dup1\n      0x01\n      add\n      swap2\n      pop\n      pop\n        /* \"contracts/Blockchain_Assignment_7/week7_task8.sol\":822:1056  for (uint i = 0; i < self.keys.length; i++) {... */\n      jump(tag_55)\n    tag_56:\n      pop\n        /* \"contracts/Blockchain_Assignment_7/week7_task8.sol\":620:1063  function remove(Map storage self, address key) internal {... */\n      pop\n      pop\n      jump\t// out\n        /* \"contracts/Blockchain_Assignment_7/week7_task8.sol\":192:429  function add(Map storage self, address key, bytes memory value) internal {... */\n    tag_34:\n        /* \"contracts/Blockchain_Assignment_7/week7_task8.sol\":285:289  self */\n      dup3\n        /* \"contracts/Blockchain_Assignment_7/week7_task8.sol\":285:296  self.exists */\n      0x02\n      add\n        /* \"contracts/Blockchain_Assignment_7/week7_task8.sol\":285:301  self.exists[key] */\n      0x00\n        /* \"contracts/Blockchain_Assignment_7/week7_task8.sol\":297:300  key */\n      dup4\n        /* \"contracts/Blockchain_Assignment_7/week7_task8.sol\":285:301  self.exists[key] */\n      0xffffffffffffffffffffffffffffffffffffffff\n      and\n      0xffffffffffffffffffffffffffffffffffffffff\n      and\n      dup2\n      mstore\n      0x20\n      add\n      swap1\n      dup2\n      mstore\n      0x20\n      add\n      0x00\n      keccak256\n      0x00\n      swap1\n      sload\n      swap1\n      0x0100\n      exp\n      swap1\n      div\n      0xff\n      and\n        /* \"contracts/Blockchain_Assignment_7/week7_task8.sol\":284:301  !self.exists[key] */\n      iszero\n        /* \"contracts/Blockchain_Assignment_7/week7_task8.sol\":276:324  require(!self.exists[key], \"Key already exists\") */\n      tag_76\n      jumpi\n      mload(0x40)\n      0x08c379a000000000000000000000000000000000000000000000000000000000\n      dup2\n      mstore\n      0x04\n      add\n      tag_77\n      swap1\n      tag_78\n      jump\t// in\n    tag_77:\n      mload(0x40)\n      dup1\n      swap2\n      sub\n      swap1\n      revert\n    tag_76:\n        /* \"contracts/Blockchain_Assignment_7/week7_task8.sol\":352:357  value */\n      dup1\n        /* \"contracts/Blockchain_Assignment_7/week7_task8.sol\":335:339  self */\n      dup4\n        /* \"contracts/Blockchain_Assignment_7/week7_task8.sol\":335:344  self.data */\n      0x00\n      add\n        /* \"contracts/Blockchain_Assignment_7/week7_task8.sol\":335:349  self.data[key] */\n      0x00\n        /* \"contracts/Blockchain_Assignment_7/week7_task8.sol\":345:348  key */\n      dup5\n        /* \"contracts/Blockchain_Assignment_7/week7_task8.sol\":335:349  self.data[key] */\n      0xffffffffffffffffffffffffffffffffffffffff\n      and\n      0xffffffffffffffffffffffffffffffffffffffff\n      and\n      dup2\n      mstore\n      0x20\n      add\n      swap1\n      dup2\n      mstore\n      0x20\n      add\n      0x00\n      keccak256\n        /* \"contracts/Blockchain_Assignment_7/week7_task8.sol\":335:357  self.data[key] = value */\n      swap1\n      dup2\n      tag_79\n      swap2\n      swap1\n      tag_40\n      jump\t// in\n    tag_79:\n      pop\n        /* \"contracts/Blockchain_Assignment_7/week7_task8.sol\":368:372  self */\n      dup3\n        /* \"contracts/Blockchain_Assignment_7/week7_task8.sol\":368:377  self.keys */\n      0x01\n      add\n        /* \"contracts/Blockchain_Assignment_7/week7_task8.sol\":383:386  key */\n      dup3\n        /* \"contracts/Blockchain_Assignment_7/week7_task8.sol\":368:387  self.keys.push(key) */\n      swap1\n      dup1\n      0x01\n      dup2\n      sload\n      add\n      dup1\n      dup3\n      sstore\n      dup1\n      swap2\n      pop\n      pop\n      0x01\n      swap1\n      sub\n      swap1\n      0x00\n      mstore\n      keccak256(0x00, 0x20)\n      add\n      0x00\n      swap1\n      swap2\n      swap1\n      swap2\n      swap1\n      swap2\n      0x0100\n      exp\n      dup2\n      sload\n      dup2\n      0xffffffffffffffffffffffffffffffffffffffff\n      mul\n      not\n      and\n      swap1\n      dup4\n      0xffffffffffffffffffffffffffffffffffffffff\n      and\n      mul\n      or\n      swap1\n      sstore\n      pop\n        /* \"contracts/Blockchain_Assignment_7/week7_task8.sol\":417:421  true */\n      0x01\n        /* \"contracts/Blockchain_Assignment_7/week7_task8.sol\":398:402  self */\n      dup4\n        /* \"contracts/Blockchain_Assignment_7/week7_task8.sol\":398:409  self.exists */\n      0x02\n      add\n        /* \"contracts/Blockchain_Assignment_7/week7_task8.sol\":398:414  self.exists[key] */\n      0x00\n        /* \"contracts/Blockchain_Assignment_7/week7_task8.sol\":410:413  key */\n      dup5\n        /* \"contracts/Blockchain_Assignment_7/week7_task8.sol\":398:414  self.exists[key] */\n      0xffffffffffffffffffffffffffffffffffffffff\n      and\n      0xffffffffffffffffffffffffffffffffffffffff\n      and\n      dup2\n      mstore\n      0x20\n      add\n      swap1\n      dup2\n      mstore\n      0x20\n      add\n      0x00\n      keccak256\n      0x00\n        /* \"contracts/Blockchain_Assignment_7/week7_task8.sol\":398:421  self.exists[key] = true */\n      0x0100\n      exp\n      dup2\n      sload\n      dup2\n      0xff\n      mul\n      not\n      and\n      swap1\n      dup4\n      iszero\n      iszero\n      mul\n      or\n      swap1\n      sstore\n      pop\n        /* \"contracts/Blockchain_Assignment_7/week7_task8.sol\":192:429  function add(Map storage self, address key, bytes memory value) internal {... */\n      pop\n      pop\n      pop\n      jump\t// out\n    tag_54:\n      pop\n      dup1\n      sload\n      tag_81\n      swap1\n      tag_45\n      jump\t// in\n    tag_81:\n      0x00\n      dup3\n      sstore\n      dup1\n      0x1f\n      lt\n      tag_83\n      jumpi\n      pop\n      jump(tag_82)\n    tag_83:\n      0x1f\n      add\n      0x20\n      swap1\n      div\n      swap1\n      0x00\n      mstore\n      keccak256(0x00, 0x20)\n      swap1\n      dup2\n      add\n      swap1\n      tag_84\n      swap2\n      swap1\n      tag_85\n      jump\t// in\n    tag_84:\n    tag_82:\n      pop\n      jump\t// out\n    tag_85:\n    tag_86:\n      dup1\n      dup3\n      gt\n      iszero\n      tag_87\n      jumpi\n      0x00\n      dup2\n      0x00\n      swap1\n      sstore\n      pop\n      0x01\n      add\n      jump(tag_86)\n    tag_87:\n      pop\n      swap1\n      jump\t// out\n        /* \"#utility.yul\":7:82   */\n    tag_88:\n        /* \"#utility.yul\":40:46   */\n      0x00\n        /* \"#utility.yul\":73:75   */\n      0x40\n        /* \"#utility.yul\":67:76   */\n      mload\n        /* \"#utility.yul\":57:76   */\n      swap1\n      pop\n        /* \"#utility.yul\":7:82   */\n      swap1\n      jump\t// out\n        /* \"#utility.yul\":88:205   */\n    tag_89:\n        /* \"#utility.yul\":197:198   */\n      0x00\n        /* \"#utility.yul\":194:195   */\n      dup1\n        /* \"#utility.yul\":187:199   */\n      revert\n        /* \"#utility.yul\":211:328   */\n    tag_90:\n        /* \"#utility.yul\":320:321   */\n      0x00\n        /* \"#utility.yul\":317:318   */\n      dup1\n        /* \"#utility.yul\":310:322   */\n      revert\n        /* \"#utility.yul\":334:460   */\n    tag_91:\n        /* \"#utility.yul\":371:378   */\n      0x00\n        /* \"#utility.yul\":411:453   */\n      0xffffffffffffffffffffffffffffffffffffffff\n        /* \"#utility.yul\":404:409   */\n      dup3\n        /* \"#utility.yul\":400:454   */\n      and\n        /* \"#utility.yul\":389:454   */\n      swap1\n      pop\n        /* \"#utility.yul\":334:460   */\n      swap2\n      swap1\n      pop\n      jump\t// out\n        /* \"#utility.yul\":466:562   */\n    tag_92:\n        /* \"#utility.yul\":503:510   */\n      0x00\n        /* \"#utility.yul\":532:556   */\n      tag_138\n        /* \"#utility.yul\":550:555   */\n      dup3\n        /* \"#utility.yul\":532:556   */\n      tag_91\n      jump\t// in\n    tag_138:\n        /* \"#utility.yul\":521:556   */\n      swap1\n      pop\n        /* \"#utility.yul\":466:562   */\n      swap2\n      swap1\n      pop\n      jump\t// out\n        /* \"#utility.yul\":568:690   */\n    tag_93:\n        /* \"#utility.yul\":641:665   */\n      tag_140\n        /* \"#utility.yul\":659:664   */\n      dup2\n        /* \"#utility.yul\":641:665   */\n      tag_92\n      jump\t// in\n    tag_140:\n        /* \"#utility.yul\":634:639   */\n      dup2\n        /* \"#utility.yul\":631:666   */\n      eq\n        /* \"#utility.yul\":621:684   */\n      tag_141\n      jumpi\n        /* \"#utility.yul\":680:681   */\n      0x00\n        /* \"#utility.yul\":677:678   */\n      dup1\n        /* \"#utility.yul\":670:682   */\n      revert\n        /* \"#utility.yul\":621:684   */\n    tag_141:\n        /* \"#utility.yul\":568:690   */\n      pop\n      jump\t// out\n        /* \"#utility.yul\":696:835   */\n    tag_94:\n        /* \"#utility.yul\":742:747   */\n      0x00\n        /* \"#utility.yul\":780:786   */\n      dup2\n        /* \"#utility.yul\":767:787   */\n      calldataload\n        /* \"#utility.yul\":758:787   */\n      swap1\n      pop\n        /* \"#utility.yul\":796:829   */\n      tag_143\n        /* \"#utility.yul\":823:828   */\n      dup2\n        /* \"#utility.yul\":796:829   */\n      tag_93\n      jump\t// in\n    tag_143:\n        /* \"#utility.yul\":696:835   */\n      swap3\n      swap2\n      pop\n      pop\n      jump\t// out\n        /* \"#utility.yul\":841:958   */\n    tag_95:\n        /* \"#utility.yul\":950:951   */\n      0x00\n        /* \"#utility.yul\":947:948   */\n      dup1\n        /* \"#utility.yul\":940:952   */\n      revert\n        /* \"#utility.yul\":964:1081   */\n    tag_96:\n        /* \"#utility.yul\":1073:1074   */\n      0x00\n        /* \"#utility.yul\":1070:1071   */\n      dup1\n        /* \"#utility.yul\":1063:1075   */\n      revert\n        /* \"#utility.yul\":1087:1189   */\n    tag_97:\n        /* \"#utility.yul\":1128:1134   */\n      0x00\n        /* \"#utility.yul\":1179:1181   */\n      0x1f\n        /* \"#utility.yul\":1175:1182   */\n      not\n        /* \"#utility.yul\":1170:1172   */\n      0x1f\n        /* \"#utility.yul\":1163:1168   */\n      dup4\n        /* \"#utility.yul\":1159:1173   */\n      add\n        /* \"#utility.yul\":1155:1183   */\n      and\n        /* \"#utility.yul\":1145:1183   */\n      swap1\n      pop\n        /* \"#utility.yul\":1087:1189   */\n      swap2\n      swap1\n      pop\n      jump\t// out\n        /* \"#utility.yul\":1195:1375   */\n    tag_98:\n        /* \"#utility.yul\":1243:1320   */\n      0x4e487b7100000000000000000000000000000000000000000000000000000000\n        /* \"#utility.yul\":1240:1241   */\n      0x00\n        /* \"#utility.yul\":1233:1321   */\n      mstore\n        /* \"#utility.yul\":1340:1344   */\n      0x41\n        /* \"#utility.yul\":1337:1338   */\n      0x04\n        /* \"#utility.yul\":1330:1345   */\n      mstore\n        /* \"#utility.yul\":1364:1368   */\n      0x24\n        /* \"#utility.yul\":1361:1362   */\n      0x00\n        /* \"#utility.yul\":1354:1369   */\n      revert\n        /* \"#utility.yul\":1381:1662   */\n    tag_99:\n        /* \"#utility.yul\":1464:1491   */\n      tag_149\n        /* \"#utility.yul\":1486:1490   */\n      dup3\n        /* \"#utility.yul\":1464:1491   */\n      tag_97\n      jump\t// in\n    tag_149:\n        /* \"#utility.yul\":1456:1462   */\n      dup2\n        /* \"#utility.yul\":1452:1492   */\n      add\n        /* \"#utility.yul\":1594:1600   */\n      dup2\n        /* \"#utility.yul\":1582:1592   */\n      dup2\n        /* \"#utility.yul\":1579:1601   */\n      lt\n        /* \"#utility.yul\":1558:1576   */\n      0xffffffffffffffff\n        /* \"#utility.yul\":1546:1556   */\n      dup3\n        /* \"#utility.yul\":1543:1577   */\n      gt\n        /* \"#utility.yul\":1540:1602   */\n      or\n        /* \"#utility.yul\":1537:1625   */\n      iszero\n      tag_150\n      jumpi\n        /* \"#utility.yul\":1605:1623   */\n      tag_151\n      tag_98\n      jump\t// in\n    tag_151:\n        /* \"#utility.yul\":1537:1625   */\n    tag_150:\n        /* \"#utility.yul\":1645:1655   */\n      dup1\n        /* \"#utility.yul\":1641:1643   */\n      0x40\n        /* \"#utility.yul\":1634:1656   */\n      mstore\n        /* \"#utility.yul\":1424:1662   */\n      pop\n        /* \"#utility.yul\":1381:1662   */\n      pop\n      pop\n      jump\t// out\n        /* \"#utility.yul\":1668:1797   */\n    tag_100:\n        /* \"#utility.yul\":1702:1708   */\n      0x00\n        /* \"#utility.yul\":1729:1749   */\n      tag_153\n      tag_88\n      jump\t// in\n    tag_153:\n        /* \"#utility.yul\":1719:1749   */\n      swap1\n      pop\n        /* \"#utility.yul\":1758:1791   */\n      tag_154\n        /* \"#utility.yul\":1786:1790   */\n      dup3\n        /* \"#utility.yul\":1778:1784   */\n      dup3\n        /* \"#utility.yul\":1758:1791   */\n      tag_99\n      jump\t// in\n    tag_154:\n        /* \"#utility.yul\":1668:1797   */\n      swap2\n      swap1\n      pop\n      jump\t// out\n        /* \"#utility.yul\":1803:2110   */\n    tag_101:\n        /* \"#utility.yul\":1864:1868   */\n      0x00\n        /* \"#utility.yul\":1954:1972   */\n      0xffffffffffffffff\n        /* \"#utility.yul\":1946:1952   */\n      dup3\n        /* \"#utility.yul\":1943:1973   */\n      gt\n        /* \"#utility.yul\":1940:1996   */\n      iszero\n      tag_156\n      jumpi\n        /* \"#utility.yul\":1976:1994   */\n      tag_157\n      tag_98\n      jump\t// in\n    tag_157:\n        /* \"#utility.yul\":1940:1996   */\n    tag_156:\n        /* \"#utility.yul\":2014:2043   */\n      tag_158\n        /* \"#utility.yul\":2036:2042   */\n      dup3\n        /* \"#utility.yul\":2014:2043   */\n      tag_97\n      jump\t// in\n    tag_158:\n        /* \"#utility.yul\":2006:2043   */\n      swap1\n      pop\n        /* \"#utility.yul\":2098:2102   */\n      0x20\n        /* \"#utility.yul\":2092:2096   */\n      dup2\n        /* \"#utility.yul\":2088:2103   */\n      add\n        /* \"#utility.yul\":2080:2103   */\n      swap1\n      pop\n        /* \"#utility.yul\":1803:2110   */\n      swap2\n      swap1\n      pop\n      jump\t// out\n        /* \"#utility.yul\":2116:2264   */\n    tag_102:\n        /* \"#utility.yul\":2214:2220   */\n      dup3\n        /* \"#utility.yul\":2209:2212   */\n      dup2\n        /* \"#utility.yul\":2204:2207   */\n      dup4\n        /* \"#utility.yul\":2191:2221   */\n      calldatacopy\n        /* \"#utility.yul\":2255:2256   */\n      0x00\n        /* \"#utility.yul\":2246:2252   */\n      dup4\n        /* \"#utility.yul\":2241:2244   */\n      dup4\n        /* \"#utility.yul\":2237:2253   */\n      add\n        /* \"#utility.yul\":2230:2257   */\n      mstore\n        /* \"#utility.yul\":2116:2264   */\n      pop\n      pop\n      pop\n      jump\t// out\n        /* \"#utility.yul\":2270:2693   */\n    tag_103:\n        /* \"#utility.yul\":2347:2352   */\n      0x00\n        /* \"#utility.yul\":2372:2437   */\n      tag_161\n        /* \"#utility.yul\":2388:2436   */\n      tag_162\n        /* \"#utility.yul\":2429:2435   */\n      dup5\n        /* \"#utility.yul\":2388:2436   */\n      tag_101\n      jump\t// in\n    tag_162:\n        /* \"#utility.yul\":2372:2437   */\n      tag_100\n      jump\t// in\n    tag_161:\n        /* \"#utility.yul\":2363:2437   */\n      swap1\n      pop\n        /* \"#utility.yul\":2460:2466   */\n      dup3\n        /* \"#utility.yul\":2453:2458   */\n      dup2\n        /* \"#utility.yul\":2446:2467   */\n      mstore\n        /* \"#utility.yul\":2498:2502   */\n      0x20\n        /* \"#utility.yul\":2491:2496   */\n      dup2\n        /* \"#utility.yul\":2487:2503   */\n      add\n        /* \"#utility.yul\":2536:2539   */\n      dup5\n        /* \"#utility.yul\":2527:2533   */\n      dup5\n        /* \"#utility.yul\":2522:2525   */\n      dup5\n        /* \"#utility.yul\":2518:2534   */\n      add\n        /* \"#utility.yul\":2515:2540   */\n      gt\n        /* \"#utility.yul\":2512:2624   */\n      iszero\n      tag_163\n      jumpi\n        /* \"#utility.yul\":2543:2622   */\n      tag_164\n      tag_96\n      jump\t// in\n    tag_164:\n        /* \"#utility.yul\":2512:2624   */\n    tag_163:\n        /* \"#utility.yul\":2633:2687   */\n      tag_165\n        /* \"#utility.yul\":2680:2686   */\n      dup5\n        /* \"#utility.yul\":2675:2678   */\n      dup3\n        /* \"#utility.yul\":2670:2673   */\n      dup6\n        /* \"#utility.yul\":2633:2687   */\n      tag_102\n      jump\t// in\n    tag_165:\n        /* \"#utility.yul\":2353:2693   */\n      pop\n        /* \"#utility.yul\":2270:2693   */\n      swap4\n      swap3\n      pop\n      pop\n      pop\n      jump\t// out\n        /* \"#utility.yul\":2712:3050   */\n    tag_104:\n        /* \"#utility.yul\":2767:2772   */\n      0x00\n        /* \"#utility.yul\":2816:2819   */\n      dup3\n        /* \"#utility.yul\":2809:2813   */\n      0x1f\n        /* \"#utility.yul\":2801:2807   */\n      dup4\n        /* \"#utility.yul\":2797:2814   */\n      add\n        /* \"#utility.yul\":2793:2820   */\n      slt\n        /* \"#utility.yul\":2783:2905   */\n      tag_167\n      jumpi\n        /* \"#utility.yul\":2824:2903   */\n      tag_168\n      tag_95\n      jump\t// in\n    tag_168:\n        /* \"#utility.yul\":2783:2905   */\n    tag_167:\n        /* \"#utility.yul\":2941:2947   */\n      dup2\n        /* \"#utility.yul\":2928:2948   */\n      calldataload\n        /* \"#utility.yul\":2966:3044   */\n      tag_169\n        /* \"#utility.yul\":3040:3043   */\n      dup5\n        /* \"#utility.yul\":3032:3038   */\n      dup3\n        /* \"#utility.yul\":3025:3029   */\n      0x20\n        /* \"#utility.yul\":3017:3023   */\n      dup7\n        /* \"#utility.yul\":3013:3030   */\n      add\n        /* \"#utility.yul\":2966:3044   */\n      tag_103\n      jump\t// in\n    tag_169:\n        /* \"#utility.yul\":2957:3044   */\n      swap2\n      pop\n        /* \"#utility.yul\":2773:3050   */\n      pop\n        /* \"#utility.yul\":2712:3050   */\n      swap3\n      swap2\n      pop\n      pop\n      jump\t// out\n        /* \"#utility.yul\":3056:3708   */\n    tag_9:\n        /* \"#utility.yul\":3133:3139   */\n      0x00\n        /* \"#utility.yul\":3141:3147   */\n      dup1\n        /* \"#utility.yul\":3190:3192   */\n      0x40\n        /* \"#utility.yul\":3178:3187   */\n      dup4\n        /* \"#utility.yul\":3169:3176   */\n      dup6\n        /* \"#utility.yul\":3165:3188   */\n      sub\n        /* \"#utility.yul\":3161:3193   */\n      slt\n        /* \"#utility.yul\":3158:3277   */\n      iszero\n      tag_171\n      jumpi\n        /* \"#utility.yul\":3196:3275   */\n      tag_172\n      tag_89\n      jump\t// in\n    tag_172:\n        /* \"#utility.yul\":3158:3277   */\n    tag_171:\n        /* \"#utility.yul\":3316:3317   */\n      0x00\n        /* \"#utility.yul\":3341:3394   */\n      tag_173\n        /* \"#utility.yul\":3386:3393   */\n      dup6\n        /* \"#utility.yul\":3377:3383   */\n      dup3\n        /* \"#utility.yul\":3366:3375   */\n      dup7\n        /* \"#utility.yul\":3362:3384   */\n      add\n        /* \"#utility.yul\":3341:3394   */\n      tag_94\n      jump\t// in\n    tag_173:\n        /* \"#utility.yul\":3331:3394   */\n      swap3\n      pop\n        /* \"#utility.yul\":3287:3404   */\n      pop\n        /* \"#utility.yul\":3471:3473   */\n      0x20\n        /* \"#utility.yul\":3460:3469   */\n      dup4\n        /* \"#utility.yul\":3456:3474   */\n      add\n        /* \"#utility.yul\":3443:3475   */\n      calldataload\n        /* \"#utility.yul\":3502:3520   */\n      0xffffffffffffffff\n        /* \"#utility.yul\":3494:3500   */\n      dup2\n        /* \"#utility.yul\":3491:3521   */\n      gt\n        /* \"#utility.yul\":3488:3605   */\n      iszero\n      tag_174\n      jumpi\n        /* \"#utility.yul\":3524:3603   */\n      tag_175\n      tag_90\n      jump\t// in\n    tag_175:\n        /* \"#utility.yul\":3488:3605   */\n    tag_174:\n        /* \"#utility.yul\":3629:3691   */\n      tag_176\n        /* \"#utility.yul\":3683:3690   */\n      dup6\n        /* \"#utility.yul\":3674:3680   */\n      dup3\n        /* \"#utility.yul\":3663:3672   */\n      dup7\n        /* \"#utility.yul\":3659:3681   */\n      add\n        /* \"#utility.yul\":3629:3691   */\n      tag_104\n      jump\t// in\n    tag_176:\n        /* \"#utility.yul\":3619:3691   */\n      swap2\n      pop\n        /* \"#utility.yul\":3414:3701   */\n      pop\n        /* \"#utility.yul\":3056:3708   */\n      swap3\n      pop\n      swap3\n      swap1\n      pop\n      jump\t// out\n        /* \"#utility.yul\":3714:4043   */\n    tag_13:\n        /* \"#utility.yul\":3773:3779   */\n      0x00\n        /* \"#utility.yul\":3822:3824   */\n      0x20\n        /* \"#utility.yul\":3810:3819   */\n      dup3\n        /* \"#utility.yul\":3801:3808   */\n      dup5\n        /* \"#utility.yul\":3797:3820   */\n      sub\n        /* \"#utility.yul\":3793:3825   */\n      slt\n        /* \"#utility.yul\":3790:3909   */\n      iszero\n      tag_178\n      jumpi\n        /* \"#utility.yul\":3828:3907   */\n      tag_179\n      tag_89\n      jump\t// in\n    tag_179:\n        /* \"#utility.yul\":3790:3909   */\n    tag_178:\n        /* \"#utility.yul\":3948:3949   */\n      0x00\n        /* \"#utility.yul\":3973:4026   */\n      tag_180\n        /* \"#utility.yul\":4018:4025   */\n      dup5\n        /* \"#utility.yul\":4009:4015   */\n      dup3\n        /* \"#utility.yul\":3998:4007   */\n      dup6\n        /* \"#utility.yul\":3994:4016   */\n      add\n        /* \"#utility.yul\":3973:4026   */\n      tag_94\n      jump\t// in\n    tag_180:\n        /* \"#utility.yul\":3963:4026   */\n      swap2\n      pop\n        /* \"#utility.yul\":3919:4036   */\n      pop\n        /* \"#utility.yul\":3714:4043   */\n      swap3\n      swap2\n      pop\n      pop\n      jump\t// out\n        /* \"#utility.yul\":4049:4147   */\n    tag_105:\n        /* \"#utility.yul\":4100:4106   */\n      0x00\n        /* \"#utility.yul\":4134:4139   */\n      dup2\n        /* \"#utility.yul\":4128:4140   */\n      mload\n        /* \"#utility.yul\":4118:4140   */\n      swap1\n      pop\n        /* \"#utility.yul\":4049:4147   */\n      swap2\n      swap1\n      pop\n      jump\t// out\n        /* \"#utility.yul\":4153:4321   */\n    tag_106:\n        /* \"#utility.yul\":4236:4247   */\n      0x00\n        /* \"#utility.yul\":4270:4276   */\n      dup3\n        /* \"#utility.yul\":4265:4268   */\n      dup3\n        /* \"#utility.yul\":4258:4277   */\n      mstore\n        /* \"#utility.yul\":4310:4314   */\n      0x20\n        /* \"#utility.yul\":4305:4308   */\n      dup3\n        /* \"#utility.yul\":4301:4315   */\n      add\n        /* \"#utility.yul\":4286:4315   */\n      swap1\n      pop\n        /* \"#utility.yul\":4153:4321   */\n      swap3\n      swap2\n      pop\n      pop\n      jump\t// out\n        /* \"#utility.yul\":4327:4466   */\n    tag_107:\n        /* \"#utility.yul\":4416:4422   */\n      dup3\n        /* \"#utility.yul\":4411:4414   */\n      dup2\n        /* \"#utility.yul\":4406:4409   */\n      dup4\n        /* \"#utility.yul\":4400:4423   */\n      mcopy\n        /* \"#utility.yul\":4457:4458   */\n      0x00\n        /* \"#utility.yul\":4448:4454   */\n      dup4\n        /* \"#utility.yul\":4443:4446   */\n      dup4\n        /* \"#utility.yul\":4439:4455   */\n      add\n        /* \"#utility.yul\":4432:4459   */\n      mstore\n        /* \"#utility.yul\":4327:4466   */\n      pop\n      pop\n      pop\n      jump\t// out\n        /* \"#utility.yul\":4472:4845   */\n    tag_108:\n        /* \"#utility.yul\":4558:4561   */\n      0x00\n        /* \"#utility.yul\":4586:4624   */\n      tag_185\n        /* \"#utility.yul\":4618:4623   */\n      dup3\n        /* \"#utility.yul\":4586:4624   */\n      tag_105\n      jump\t// in\n    tag_185:\n        /* \"#utility.yul\":4640:4710   */\n      tag_186\n        /* \"#utility.yul\":4703:4709   */\n      dup2\n        /* \"#utility.yul\":4698:4701   */\n      dup6\n        /* \"#utility.yul\":4640:4710   */\n      tag_106\n      jump\t// in\n    tag_186:\n        /* \"#utility.yul\":4633:4710   */\n      swap4\n      pop\n        /* \"#utility.yul\":4719:4784   */\n      tag_187\n        /* \"#utility.yul\":4777:4783   */\n      dup2\n        /* \"#utility.yul\":4772:4775   */\n      dup6\n        /* \"#utility.yul\":4765:4769   */\n      0x20\n        /* \"#utility.yul\":4758:4763   */\n      dup7\n        /* \"#utility.yul\":4754:4770   */\n      add\n        /* \"#utility.yul\":4719:4784   */\n      tag_107\n      jump\t// in\n    tag_187:\n        /* \"#utility.yul\":4809:4838   */\n      tag_188\n        /* \"#utility.yul\":4831:4837   */\n      dup2\n        /* \"#utility.yul\":4809:4838   */\n      tag_97\n      jump\t// in\n    tag_188:\n        /* \"#utility.yul\":4804:4807   */\n      dup5\n        /* \"#utility.yul\":4800:4839   */\n      add\n        /* \"#utility.yul\":4793:4839   */\n      swap2\n      pop\n        /* \"#utility.yul\":4562:4845   */\n      pop\n        /* \"#utility.yul\":4472:4845   */\n      swap3\n      swap2\n      pop\n      pop\n      jump\t// out\n        /* \"#utility.yul\":4851:5160   */\n    tag_16:\n        /* \"#utility.yul\":4962:4966   */\n      0x00\n        /* \"#utility.yul\":5000:5002   */\n      0x20\n        /* \"#utility.yul\":4989:4998   */\n      dup3\n        /* \"#utility.yul\":4985:5003   */\n      add\n        /* \"#utility.yul\":4977:5003   */\n      swap1\n      pop\n        /* \"#utility.yul\":5049:5058   */\n      dup2\n        /* \"#utility.yul\":5043:5047   */\n      dup2\n        /* \"#utility.yul\":5039:5059   */\n      sub\n        /* \"#utility.yul\":5035:5036   */\n      0x00\n        /* \"#utility.yul\":5024:5033   */\n      dup4\n        /* \"#utility.yul\":5020:5037   */\n      add\n        /* \"#utility.yul\":5013:5060   */\n      mstore\n        /* \"#utility.yul\":5077:5153   */\n      tag_190\n        /* \"#utility.yul\":5148:5152   */\n      dup2\n        /* \"#utility.yul\":5139:5145   */\n      dup5\n        /* \"#utility.yul\":5077:5153   */\n      tag_108\n      jump\t// in\n    tag_190:\n        /* \"#utility.yul\":5069:5153   */\n      swap1\n      pop\n        /* \"#utility.yul\":4851:5160   */\n      swap3\n      swap2\n      pop\n      pop\n      jump\t// out\n        /* \"#utility.yul\":5166:5335   */\n    tag_109:\n        /* \"#utility.yul\":5250:5261   */\n      0x00\n        /* \"#utility.yul\":5284:5290   */\n      dup3\n        /* \"#utility.yul\":5279:5282   */\n      dup3\n        /* \"#utility.yul\":5272:5291   */\n      mstore\n        /* \"#utility.yul\":5324:5328   */\n      0x20\n        /* \"#utility.yul\":5319:5322   */\n      dup3\n        /* \"#utility.yul\":5315:5329   */\n      add\n        /* \"#utility.yul\":5300:5329   */\n      swap1\n      pop\n        /* \"#utility.yul\":5166:5335   */\n      swap3\n      swap2\n      pop\n      pop\n      jump\t// out\n        /* \"#utility.yul\":5341:5509   */\n    tag_110:\n        /* \"#utility.yul\":5481:5501   */\n      0x4b657920646f6573206e6f742065786973740000000000000000000000000000\n        /* \"#utility.yul\":5477:5478   */\n      0x00\n        /* \"#utility.yul\":5469:5475   */\n      dup3\n        /* \"#utility.yul\":5465:5479   */\n      add\n        /* \"#utility.yul\":5458:5502   */\n      mstore\n        /* \"#utility.yul\":5341:5509   */\n      pop\n      jump\t// out\n        /* \"#utility.yul\":5515:5881   */\n    tag_111:\n        /* \"#utility.yul\":5657:5660   */\n      0x00\n        /* \"#utility.yul\":5678:5745   */\n      tag_194\n        /* \"#utility.yul\":5742:5744   */\n      0x12\n        /* \"#utility.yul\":5737:5740   */\n      dup4\n        /* \"#utility.yul\":5678:5745   */\n      tag_109\n      jump\t// in\n    tag_194:\n        /* \"#utility.yul\":5671:5745   */\n      swap2\n      pop\n        /* \"#utility.yul\":5754:5847   */\n      tag_195\n        /* \"#utility.yul\":5843:5846   */\n      dup3\n        /* \"#utility.yul\":5754:5847   */\n      tag_110\n      jump\t// in\n    tag_195:\n        /* \"#utility.yul\":5872:5874   */\n      0x20\n        /* \"#utility.yul\":5867:5870   */\n      dup3\n        /* \"#utility.yul\":5863:5875   */\n      add\n        /* \"#utility.yul\":5856:5875   */\n      swap1\n      pop\n        /* \"#utility.yul\":5515:5881   */\n      swap2\n      swap1\n      pop\n      jump\t// out\n        /* \"#utility.yul\":5887:6306   */\n    tag_38:\n        /* \"#utility.yul\":6053:6057   */\n      0x00\n        /* \"#utility.yul\":6091:6093   */\n      0x20\n        /* \"#utility.yul\":6080:6089   */\n      dup3\n        /* \"#utility.yul\":6076:6094   */\n      add\n        /* \"#utility.yul\":6068:6094   */\n      swap1\n      pop\n        /* \"#utility.yul\":6140:6149   */\n      dup2\n        /* \"#utility.yul\":6134:6138   */\n      dup2\n        /* \"#utility.yul\":6130:6150   */\n      sub\n        /* \"#utility.yul\":6126:6127   */\n      0x00\n        /* \"#utility.yul\":6115:6124   */\n      dup4\n        /* \"#utility.yul\":6111:6128   */\n      add\n        /* \"#utility.yul\":6104:6151   */\n      mstore\n        /* \"#utility.yul\":6168:6299   */\n      tag_197\n        /* \"#utility.yul\":6294:6298   */\n      dup2\n        /* \"#utility.yul\":6168:6299   */\n      tag_111\n      jump\t// in\n    tag_197:\n        /* \"#utility.yul\":6160:6299   */\n      swap1\n      pop\n        /* \"#utility.yul\":5887:6306   */\n      swap2\n      swap1\n      pop\n      jump\t// out\n        /* \"#utility.yul\":6312:6492   */\n    tag_112:\n        /* \"#utility.yul\":6360:6437   */\n      0x4e487b7100000000000000000000000000000000000000000000000000000000\n        /* \"#utility.yul\":6357:6358   */\n      0x00\n        /* \"#utility.yul\":6350:6438   */\n      mstore\n        /* \"#utility.yul\":6457:6461   */\n      0x22\n        /* \"#utility.yul\":6454:6455   */\n      0x04\n        /* \"#utility.yul\":6447:6462   */\n      mstore\n        /* \"#utility.yul\":6481:6485   */\n      0x24\n        /* \"#utility.yul\":6478:6479   */\n      0x00\n        /* \"#utility.yul\":6471:6486   */\n      revert\n        /* \"#utility.yul\":6498:6818   */\n    tag_45:\n        /* \"#utility.yul\":6542:6548   */\n      0x00\n        /* \"#utility.yul\":6579:6580   */\n      0x02\n        /* \"#utility.yul\":6573:6577   */\n      dup3\n        /* \"#utility.yul\":6569:6581   */\n      div\n        /* \"#utility.yul\":6559:6581   */\n      swap1\n      pop\n        /* \"#utility.yul\":6626:6627   */\n      0x01\n        /* \"#utility.yul\":6620:6624   */\n      dup3\n        /* \"#utility.yul\":6616:6628   */\n      and\n        /* \"#utility.yul\":6647:6665   */\n      dup1\n        /* \"#utility.yul\":6637:6718   */\n      tag_200\n      jumpi\n        /* \"#utility.yul\":6703:6707   */\n      0x7f\n        /* \"#utility.yul\":6695:6701   */\n      dup3\n        /* \"#utility.yul\":6691:6708   */\n      and\n        /* \"#utility.yul\":6681:6708   */\n      swap2\n      pop\n        /* \"#utility.yul\":6637:6718   */\n    tag_200:\n        /* \"#utility.yul\":6765:6767   */\n      0x20\n        /* \"#utility.yul\":6757:6763   */\n      dup3\n        /* \"#utility.yul\":6754:6768   */\n      lt\n        /* \"#utility.yul\":6734:6752   */\n      dup2\n        /* \"#utility.yul\":6731:6769   */\n      sub\n        /* \"#utility.yul\":6728:6812   */\n      tag_201\n      jumpi\n        /* \"#utility.yul\":6784:6802   */\n      tag_202\n      tag_112\n      jump\t// in\n    tag_202:\n        /* \"#utility.yul\":6728:6812   */\n    tag_201:\n        /* \"#utility.yul\":6549:6818   */\n      pop\n        /* \"#utility.yul\":6498:6818   */\n      swap2\n      swap1\n      pop\n      jump\t// out\n        /* \"#utility.yul\":6824:6964   */\n    tag_113:\n        /* \"#utility.yul\":6872:6876   */\n      0x00\n        /* \"#utility.yul\":6895:6898   */\n      dup2\n        /* \"#utility.yul\":6887:6898   */\n      swap1\n      pop\n        /* \"#utility.yul\":6918:6921   */\n      dup2\n        /* \"#utility.yul\":6915:6916   */\n      0x00\n        /* \"#utility.yul\":6908:6922   */\n      mstore\n        /* \"#utility.yul\":6952:6956   */\n      0x20\n        /* \"#utility.yul\":6949:6950   */\n      0x00\n        /* \"#utility.yul\":6939:6957   */\n      keccak256\n        /* \"#utility.yul\":6931:6957   */\n      swap1\n      pop\n        /* \"#utility.yul\":6824:6964   */\n      swap2\n      swap1\n      pop\n      jump\t// out\n        /* \"#utility.yul\":6970:7063   */\n    tag_114:\n        /* \"#utility.yul\":7007:7013   */\n      0x00\n        /* \"#utility.yul\":7054:7056   */\n      0x20\n        /* \"#utility.yul\":7049:7051   */\n      0x1f\n        /* \"#utility.yul\":7042:7047   */\n      dup4\n        /* \"#utility.yul\":7038:7052   */\n      add\n        /* \"#utility.yul\":7034:7057   */\n      div\n        /* \"#utility.yul\":7024:7057   */\n      swap1\n      pop\n        /* \"#utility.yul\":6970:7063   */\n      swap2\n      swap1\n      pop\n      jump\t// out\n        /* \"#utility.yul\":7069:7176   */\n    tag_115:\n        /* \"#utility.yul\":7113:7121   */\n      0x00\n        /* \"#utility.yul\":7163:7168   */\n      dup3\n        /* \"#utility.yul\":7157:7161   */\n      dup3\n        /* \"#utility.yul\":7153:7169   */\n      shl\n        /* \"#utility.yul\":7132:7169   */\n      swap1\n      pop\n        /* \"#utility.yul\":7069:7176   */\n      swap3\n      swap2\n      pop\n      pop\n      jump\t// out\n        /* \"#utility.yul\":7182:7575   */\n    tag_116:\n        /* \"#utility.yul\":7251:7257   */\n      0x00\n        /* \"#utility.yul\":7301:7302   */\n      0x08\n        /* \"#utility.yul\":7289:7299   */\n      dup4\n        /* \"#utility.yul\":7285:7303   */\n      mul\n        /* \"#utility.yul\":7324:7421   */\n      tag_207\n        /* \"#utility.yul\":7354:7420   */\n      0xffffffffffffffffffffffffffffffffffffffffffffffffffffffffffffffff\n        /* \"#utility.yul\":7343:7352   */\n      dup3\n        /* \"#utility.yul\":7324:7421   */\n      tag_115\n      jump\t// in\n    tag_207:\n        /* \"#utility.yul\":7442:7481   */\n      tag_208\n        /* \"#utility.yul\":7472:7480   */\n      dup7\n        /* \"#utility.yul\":7461:7470   */\n      dup4\n        /* \"#utility.yul\":7442:7481   */\n      tag_115\n      jump\t// in\n    tag_208:\n        /* \"#utility.yul\":7430:7481   */\n      swap6\n      pop\n        /* \"#utility.yul\":7514:7518   */\n      dup1\n        /* \"#utility.yul\":7510:7519   */\n      not\n        /* \"#utility.yul\":7503:7508   */\n      dup5\n        /* \"#utility.yul\":7499:7520   */\n      and\n        /* \"#utility.yul\":7490:7520   */\n      swap4\n      pop\n        /* \"#utility.yul\":7563:7567   */\n      dup1\n        /* \"#utility.yul\":7553:7561   */\n      dup7\n        /* \"#utility.yul\":7549:7568   */\n      and\n        /* \"#utility.yul\":7542:7547   */\n      dup5\n        /* \"#utility.yul\":7539:7569   */\n      or\n        /* \"#utility.yul\":7529:7569   */\n      swap3\n      pop\n        /* \"#utility.yul\":7258:7575   */\n      pop\n      pop\n        /* \"#utility.yul\":7182:7575   */\n      swap4\n      swap3\n      pop\n      pop\n      pop\n      jump\t// out\n        /* \"#utility.yul\":7581:7658   */\n    tag_117:\n        /* \"#utility.yul\":7618:7625   */\n      0x00\n        /* \"#utility.yul\":7647:7652   */\n      dup2\n        /* \"#utility.yul\":7636:7652   */\n      swap1\n      pop\n        /* \"#utility.yul\":7581:7658   */\n      swap2\n      swap1\n      pop\n      jump\t// out\n        /* \"#utility.yul\":7664:7724   */\n    tag_118:\n        /* \"#utility.yul\":7692:7695   */\n      0x00\n        /* \"#utility.yul\":7713:7718   */\n      dup2\n        /* \"#utility.yul\":7706:7718   */\n      swap1\n      pop\n        /* \"#utility.yul\":7664:7724   */\n      swap2\n      swap1\n      pop\n      jump\t// out\n        /* \"#utility.yul\":7730:7872   */\n    tag_119:\n        /* \"#utility.yul\":7780:7789   */\n      0x00\n        /* \"#utility.yul\":7813:7866   */\n      tag_212\n        /* \"#utility.yul\":7831:7865   */\n      tag_213\n        /* \"#utility.yul\":7840:7864   */\n      tag_214\n        /* \"#utility.yul\":7858:7863   */\n      dup5\n        /* \"#utility.yul\":7840:7864   */\n      tag_117\n      jump\t// in\n    tag_214:\n        /* \"#utility.yul\":7831:7865   */\n      tag_118\n      jump\t// in\n    tag_213:\n        /* \"#utility.yul\":7813:7866   */\n      tag_117\n      jump\t// in\n    tag_212:\n        /* \"#utility.yul\":7800:7866   */\n      swap1\n      pop\n        /* \"#utility.yul\":7730:7872   */\n      swap2\n      swap1\n      pop\n      jump\t// out\n        /* \"#utility.yul\":7878:7953   */\n    tag_120:\n        /* \"#utility.yul\":7921:7924   */\n      0x00\n        /* \"#utility.yul\":7942:7947   */\n      dup2\n        /* \"#utility.yul\":7935:7947   */\n      swap1\n      pop\n        /* \"#utility.yul\":7878:7953   */\n      swap2\n      swap1\n      pop\n      jump\t// out\n        /* \"#utility.yul\":7959:8228   */\n    tag_121:\n        /* \"#utility.yul\":8069:8108   */\n      tag_217\n        /* \"#utility.yul\":8100:8107   */\n      dup4\n        /* \"#utility.yul\":8069:8108   */\n      tag_119\n      jump\t// in\n    tag_217:\n        /* \"#utility.yul\":8130:8221   */\n      tag_218\n        /* \"#utility.yul\":8179:8220   */\n      tag_219\n        /* \"#utility.yul\":8203:8219   */\n      dup3\n        /* \"#utility.yul\":8179:8220   */\n      tag_120\n      jump\t// in\n    tag_219:\n        /* \"#utility.yul\":8171:8177   */\n      dup5\n        /* \"#utility.yul\":8164:8168   */\n      dup5\n        /* \"#utility.yul\":8158:8169   */\n      sload\n        /* \"#utility.yul\":8130:8221   */\n      tag_116\n      jump\t// in\n    tag_218:\n        /* \"#utility.yul\":8124:8128   */\n      dup3\n        /* \"#utility.yul\":8117:8222   */\n      sstore\n        /* \"#utility.yul\":8035:8228   */\n      pop\n        /* \"#utility.yul\":7959:8228   */\n      pop\n      pop\n      pop\n      jump\t// out\n        /* \"#utility.yul\":8234:8307   */\n    tag_122:\n        /* \"#utility.yul\":8279:8282   */\n      0x00\n        /* \"#utility.yul\":8234:8307   */\n      swap1\n      jump\t// out\n        /* \"#utility.yul\":8313:8502   */\n    tag_123:\n        /* \"#utility.yul\":8390:8422   */\n      tag_222\n      tag_122\n      jump\t// in\n    tag_222:\n        /* \"#utility.yul\":8431:8496   */\n      tag_223\n        /* \"#utility.yul\":8489:8495   */\n      dup2\n        /* \"#utility.yul\":8481:8487   */\n      dup5\n        /* \"#utility.yul\":8475:8479   */\n      dup5\n        /* \"#utility.yul\":8431:8496   */\n      tag_121\n      jump\t// in\n    tag_223:\n        /* \"#utility.yul\":8366:8502   */\n      pop\n        /* \"#utility.yul\":8313:8502   */\n      pop\n      pop\n      jump\t// out\n        /* \"#utility.yul\":8508:8694   */\n    tag_124:\n        /* \"#utility.yul\":8568:8688   */\n    tag_225:\n        /* \"#utility.yul\":8585:8588   */\n      dup2\n        /* \"#utility.yul\":8578:8583   */\n      dup2\n        /* \"#utility.yul\":8575:8589   */\n      lt\n        /* \"#utility.yul\":8568:8688   */\n      iszero\n      tag_227\n      jumpi\n        /* \"#utility.yul\":8639:8678   */\n      tag_228\n        /* \"#utility.yul\":8676:8677   */\n      0x00\n        /* \"#utility.yul\":8669:8674   */\n      dup3\n        /* \"#utility.yul\":8639:8678   */\n      tag_123\n      jump\t// in\n    tag_228:\n        /* \"#utility.yul\":8612:8613   */\n      0x01\n        /* \"#utility.yul\":8605:8610   */\n      dup2\n        /* \"#utility.yul\":8601:8614   */\n      add\n        /* \"#utility.yul\":8592:8614   */\n      swap1\n      pop\n        /* \"#utility.yul\":8568:8688   */\n      jump(tag_225)\n    tag_227:\n        /* \"#utility.yul\":8508:8694   */\n      pop\n      pop\n      jump\t// out\n        /* \"#utility.yul\":8700:9241   */\n    tag_125:\n        /* \"#utility.yul\":8800:8802   */\n      0x1f\n        /* \"#utility.yul\":8795:8798   */\n      dup3\n        /* \"#utility.yul\":8792:8803   */\n      gt\n        /* \"#utility.yul\":8789:9234   */\n      iszero\n      tag_230\n      jumpi\n        /* \"#utility.yul\":8834:8871   */\n      tag_231\n        /* \"#utility.yul\":8865:8870   */\n      dup2\n        /* \"#utility.yul\":8834:8871   */\n      tag_113\n      jump\t// in\n    tag_231:\n        /* \"#utility.yul\":8917:8946   */\n      tag_232\n        /* \"#utility.yul\":8935:8945   */\n      dup5\n        /* \"#utility.yul\":8917:8946   */\n      tag_114\n      jump\t// in\n    tag_232:\n        /* \"#utility.yul\":8907:8915   */\n      dup2\n        /* \"#utility.yul\":8903:8947   */\n      add\n        /* \"#utility.yul\":9100:9102   */\n      0x20\n        /* \"#utility.yul\":9088:9098   */\n      dup6\n        /* \"#utility.yul\":9085:9103   */\n      lt\n        /* \"#utility.yul\":9082:9131   */\n      iszero\n      tag_233\n      jumpi\n        /* \"#utility.yul\":9121:9129   */\n      dup2\n        /* \"#utility.yul\":9106:9129   */\n      swap1\n      pop\n        /* \"#utility.yul\":9082:9131   */\n    tag_233:\n        /* \"#utility.yul\":9144:9224   */\n      tag_234\n        /* \"#utility.yul\":9200:9222   */\n      tag_235\n        /* \"#utility.yul\":9218:9221   */\n      dup6\n        /* \"#utility.yul\":9200:9222   */\n      tag_114\n      jump\t// in\n    tag_235:\n        /* \"#utility.yul\":9190:9198   */\n      dup4\n        /* \"#utility.yul\":9186:9223   */\n      add\n        /* \"#utility.yul\":9173:9184   */\n      dup3\n        /* \"#utility.yul\":9144:9224   */\n      tag_124\n      jump\t// in\n    tag_234:\n        /* \"#utility.yul\":8804:9234   */\n      pop\n      pop\n        /* \"#utility.yul\":8789:9234   */\n    tag_230:\n        /* \"#utility.yul\":8700:9241   */\n      pop\n      pop\n      pop\n      jump\t// out\n        /* \"#utility.yul\":9247:9364   */\n    tag_126:\n        /* \"#utility.yul\":9301:9309   */\n      0x00\n        /* \"#utility.yul\":9351:9356   */\n      dup3\n        /* \"#utility.yul\":9345:9349   */\n      dup3\n        /* \"#utility.yul\":9341:9357   */\n      shr\n        /* \"#utility.yul\":9320:9357   */\n      swap1\n      pop\n        /* \"#utility.yul\":9247:9364   */\n      swap3\n      swap2\n      pop\n      pop\n      jump\t// out\n        /* \"#utility.yul\":9370:9539   */\n    tag_127:\n        /* \"#utility.yul\":9414:9420   */\n      0x00\n        /* \"#utility.yul\":9447:9498   */\n      tag_238\n        /* \"#utility.yul\":9495:9496   */\n      0x00\n        /* \"#utility.yul\":9491:9497   */\n      not\n        /* \"#utility.yul\":9483:9488   */\n      dup5\n        /* \"#utility.yul\":9480:9481   */\n      0x08\n        /* \"#utility.yul\":9476:9489   */\n      mul\n        /* \"#utility.yul\":9447:9498   */\n      tag_126\n      jump\t// in\n    tag_238:\n        /* \"#utility.yul\":9443:9499   */\n      not\n        /* \"#utility.yul\":9528:9532   */\n      dup1\n        /* \"#utility.yul\":9522:9526   */\n      dup4\n        /* \"#utility.yul\":9518:9533   */\n      and\n        /* \"#utility.yul\":9508:9533   */\n      swap2\n      pop\n        /* \"#utility.yul\":9421:9539   */\n      pop\n        /* \"#utility.yul\":9370:9539   */\n      swap3\n      swap2\n      pop\n      pop\n      jump\t// out\n        /* \"#utility.yul\":9544:9839   */\n    tag_128:\n        /* \"#utility.yul\":9620:9624   */\n      0x00\n        /* \"#utility.yul\":9766:9795   */\n      tag_240\n        /* \"#utility.yul\":9791:9794   */\n      dup4\n        /* \"#utility.yul\":9785:9789   */\n      dup4\n        /* \"#utility.yul\":9766:9795   */\n      tag_127\n      jump\t// in\n    tag_240:\n        /* \"#utility.yul\":9758:9795   */\n      swap2\n      pop\n        /* \"#utility.yul\":9828:9831   */\n      dup3\n        /* \"#utility.yul\":9825:9826   */\n      0x02\n        /* \"#utility.yul\":9821:9832   */\n      mul\n        /* \"#utility.yul\":9815:9819   */\n      dup3\n        /* \"#utility.yul\":9812:9833   */\n      or\n        /* \"#utility.yul\":9804:9833   */\n      swap1\n      pop\n        /* \"#utility.yul\":9544:9839   */\n      swap3\n      swap2\n      pop\n      pop\n      jump\t// out\n        /* \"#utility.yul\":9844:11234   */\n    tag_40:\n        /* \"#utility.yul\":9959:9995   */\n      tag_242\n        /* \"#utility.yul\":9991:9994   */\n      dup3\n        /* \"#utility.yul\":9959:9995   */\n      tag_105\n      jump\t// in\n    tag_242:\n        /* \"#utility.yul\":10060:10078   */\n      0xffffffffffffffff\n        /* \"#utility.yul\":10052:10058   */\n      dup2\n        /* \"#utility.yul\":10049:10079   */\n      gt\n        /* \"#utility.yul\":10046:10102   */\n      iszero\n      tag_243\n      jumpi\n        /* \"#utility.yul\":10082:10100   */\n      tag_244\n      tag_98\n      jump\t// in\n    tag_244:\n        /* \"#utility.yul\":10046:10102   */\n    tag_243:\n        /* \"#utility.yul\":10126:10164   */\n      tag_245\n        /* \"#utility.yul\":10158:10162   */\n      dup3\n        /* \"#utility.yul\":10152:10163   */\n      sload\n        /* \"#utility.yul\":10126:10164   */\n      tag_45\n      jump\t// in\n    tag_245:\n        /* \"#utility.yul\":10211:10277   */\n      tag_246\n        /* \"#utility.yul\":10270:10276   */\n      dup3\n        /* \"#utility.yul\":10262:10268   */\n      dup3\n        /* \"#utility.yul\":10256:10260   */\n      dup6\n        /* \"#utility.yul\":10211:10277   */\n      tag_125\n      jump\t// in\n    tag_246:\n        /* \"#utility.yul\":10304:10305   */\n      0x00\n        /* \"#utility.yul\":10328:10332   */\n      0x20\n        /* \"#utility.yul\":10315:10332   */\n      swap1\n      pop\n        /* \"#utility.yul\":10360:10362   */\n      0x1f\n        /* \"#utility.yul\":10352:10358   */\n      dup4\n        /* \"#utility.yul\":10349:10363   */\n      gt\n        /* \"#utility.yul\":10377:10378   */\n      0x01\n        /* \"#utility.yul\":10372:10989   */\n      dup2\n      eq\n      tag_248\n      jumpi\n        /* \"#utility.yul\":11033:11034   */\n      0x00\n        /* \"#utility.yul\":11050:11056   */\n      dup5\n        /* \"#utility.yul\":11047:11124   */\n      iszero\n      tag_249\n      jumpi\n        /* \"#utility.yul\":11099:11108   */\n      dup3\n        /* \"#utility.yul\":11094:11097   */\n      dup8\n        /* \"#utility.yul\":11090:11109   */\n      add\n        /* \"#utility.yul\":11084:11110   */\n      mload\n        /* \"#utility.yul\":11075:11110   */\n      swap1\n      pop\n        /* \"#utility.yul\":11047:11124   */\n    tag_249:\n        /* \"#utility.yul\":11150:11217   */\n      tag_250\n        /* \"#utility.yul\":11210:11216   */\n      dup6\n        /* \"#utility.yul\":11203:11208   */\n      dup3\n        /* \"#utility.yul\":11150:11217   */\n      tag_128\n      jump\t// in\n    tag_250:\n        /* \"#utility.yul\":11144:11148   */\n      dup7\n        /* \"#utility.yul\":11137:11218   */\n      sstore\n        /* \"#utility.yul\":11006:11228   */\n      pop\n        /* \"#utility.yul\":10342:11228   */\n      jump(tag_247)\n        /* \"#utility.yul\":10372:10989   */\n    tag_248:\n        /* \"#utility.yul\":10424:10428   */\n      0x1f\n        /* \"#utility.yul\":10420:10429   */\n      not\n        /* \"#utility.yul\":10412:10418   */\n      dup5\n        /* \"#utility.yul\":10408:10430   */\n      and\n        /* \"#utility.yul\":10458:10494   */\n      tag_251\n        /* \"#utility.yul\":10489:10493   */\n      dup7\n        /* \"#utility.yul\":10458:10494   */\n      tag_113\n      jump\t// in\n    tag_251:\n        /* \"#utility.yul\":10516:10517   */\n      0x00\n        /* \"#utility.yul\":10530:10738   */\n    tag_252:\n        /* \"#utility.yul\":10544:10551   */\n      dup3\n        /* \"#utility.yul\":10541:10542   */\n      dup2\n        /* \"#utility.yul\":10538:10552   */\n      lt\n        /* \"#utility.yul\":10530:10738   */\n      iszero\n      tag_254\n      jumpi\n        /* \"#utility.yul\":10623:10632   */\n      dup5\n        /* \"#utility.yul\":10618:10621   */\n      dup10\n        /* \"#utility.yul\":10614:10633   */\n      add\n        /* \"#utility.yul\":10608:10634   */\n      mload\n        /* \"#utility.yul\":10600:10606   */\n      dup3\n        /* \"#utility.yul\":10593:10635   */\n      sstore\n        /* \"#utility.yul\":10674:10675   */\n      0x01\n        /* \"#utility.yul\":10666:10672   */\n      dup3\n        /* \"#utility.yul\":10662:10676   */\n      add\n        /* \"#utility.yul\":10652:10676   */\n      swap2\n      pop\n        /* \"#utility.yul\":10721:10723   */\n      0x20\n        /* \"#utility.yul\":10710:10719   */\n      dup6\n        /* \"#utility.yul\":10706:10724   */\n      add\n        /* \"#utility.yul\":10693:10724   */\n      swap5\n      pop\n        /* \"#utility.yul\":10567:10571   */\n      0x20\n        /* \"#utility.yul\":10564:10565   */\n      dup2\n        /* \"#utility.yul\":10560:10572   */\n      add\n        /* \"#utility.yul\":10555:10572   */\n      swap1\n      pop\n        /* \"#utility.yul\":10530:10738   */\n      jump(tag_252)\n    tag_254:\n        /* \"#utility.yul\":10766:10772   */\n      dup7\n        /* \"#utility.yul\":10757:10764   */\n      dup4\n        /* \"#utility.yul\":10754:10773   */\n      lt\n        /* \"#utility.yul\":10751:10930   */\n      iszero\n      tag_255\n      jumpi\n        /* \"#utility.yul\":10824:10833   */\n      dup5\n        /* \"#utility.yul\":10819:10822   */\n      dup10\n        /* \"#utility.yul\":10815:10834   */\n      add\n        /* \"#utility.yul\":10809:10835   */\n      mload\n        /* \"#utility.yul\":10867:10915   */\n      tag_256\n        /* \"#utility.yul\":10909:10913   */\n      0x1f\n        /* \"#utility.yul\":10901:10907   */\n      dup10\n        /* \"#utility.yul\":10897:10914   */\n      and\n        /* \"#utility.yul\":10886:10895   */\n      dup3\n        /* \"#utility.yul\":10867:10915   */\n      tag_127\n      jump\t// in\n    tag_256:\n        /* \"#utility.yul\":10859:10865   */\n      dup4\n        /* \"#utility.yul\":10852:10916   */\n      sstore\n        /* \"#utility.yul\":10774:10930   */\n      pop\n        /* \"#utility.yul\":10751:10930   */\n    tag_255:\n        /* \"#utility.yul\":10976:10977   */\n      0x01\n        /* \"#utility.yul\":10972:10973   */\n      0x02\n        /* \"#utility.yul\":10964:10970   */\n      dup9\n        /* \"#utility.yul\":10960:10974   */\n      mul\n        /* \"#utility.yul\":10956:10978   */\n      add\n        /* \"#utility.yul\":10950:10954   */\n      dup9\n        /* \"#utility.yul\":10943:10979   */\n      sstore\n        /* \"#utility.yul\":10379:10989   */\n      pop\n      pop\n      pop\n        /* \"#utility.yul\":10342:11228   */\n    tag_247:\n      pop\n        /* \"#utility.yul\":9934:11234   */\n      pop\n      pop\n      pop\n        /* \"#utility.yul\":9844:11234   */\n      pop\n      pop\n      jump\t// out\n        /* \"#utility.yul\":11240:11420   */\n    tag_60:\n        /* \"#utility.yul\":11288:11365   */\n      0x4e487b7100000000000000000000000000000000000000000000000000000000\n        /* \"#utility.yul\":11285:11286   */\n      0x00\n        /* \"#utility.yul\":11278:11366   */\n      mstore\n        /* \"#utility.yul\":11385:11389   */\n      0x32\n        /* \"#utility.yul\":11382:11383   */\n      0x04\n        /* \"#utility.yul\":11375:11390   */\n      mstore\n        /* \"#utility.yul\":11409:11413   */\n      0x24\n        /* \"#utility.yul\":11406:11407   */\n      0x00\n        /* \"#utility.yul\":11399:11414   */\n      revert\n        /* \"#utility.yul\":11426:11606   */\n    tag_129:\n        /* \"#utility.yul\":11474:11551   */\n      0x4e487b7100000000000000000000000000000000000000000000000000000000\n        /* \"#utility.yul\":11471:11472   */\n      0x00\n        /* \"#utility.yul\":11464:11552   */\n      mstore\n        /* \"#utility.yul\":11571:11575   */\n      0x11\n        /* \"#utility.yul\":11568:11569   */\n      0x04\n        /* \"#utility.yul\":11561:11576   */\n      mstore\n        /* \"#utility.yul\":11595:11599   */\n      0x24\n        /* \"#utility.yul\":11592:11593   */\n      0x00\n        /* \"#utility.yul\":11585:11600   */\n      revert\n        /* \"#utility.yul\":11612:11806   */\n    tag_64:\n        /* \"#utility.yul\":11652:11656   */\n      0x00\n        /* \"#utility.yul\":11672:11692   */\n      tag_260\n        /* \"#utility.yul\":11690:11691   */\n      dup3\n        /* \"#utility.yul\":11672:11692   */\n      tag_117\n      jump\t// in\n    tag_260:\n        /* \"#utility.yul\":11667:11692   */\n      swap2\n      pop\n        /* \"#utility.yul\":11706:11726   */\n      tag_261\n        /* \"#utility.yul\":11724:11725   */\n      dup4\n        /* \"#utility.yul\":11706:11726   */\n      tag_117\n      jump\t// in\n    tag_261:\n        /* \"#utility.yul\":11701:11726   */\n      swap3\n      pop\n        /* \"#utility.yul\":11750:11751   */\n      dup3\n        /* \"#utility.yul\":11747:11748   */\n      dup3\n        /* \"#utility.yul\":11743:11752   */\n      sub\n        /* \"#utility.yul\":11735:11752   */\n      swap1\n      pop\n        /* \"#utility.yul\":11774:11775   */\n      dup2\n        /* \"#utility.yul\":11768:11772   */\n      dup2\n        /* \"#utility.yul\":11765:11776   */\n      gt\n        /* \"#utility.yul\":11762:11799   */\n      iszero\n      tag_262\n      jumpi\n        /* \"#utility.yul\":11779:11797   */\n      tag_263\n      tag_129\n      jump\t// in\n    tag_263:\n        /* \"#utility.yul\":11762:11799   */\n    tag_262:\n        /* \"#utility.yul\":11612:11806   */\n      swap3\n      swap2\n      pop\n      pop\n      jump\t// out\n        /* \"#utility.yul\":11812:11992   */\n    tag_73:\n        /* \"#utility.yul\":11860:11937   */\n      0x4e487b7100000000000000000000000000000000000000000000000000000000\n        /* \"#utility.yul\":11857:11858   */\n      0x00\n        /* \"#utility.yul\":11850:11938   */\n      mstore\n        /* \"#utility.yul\":11957:11961   */\n      0x31\n        /* \"#utility.yul\":11954:11955   */\n      0x04\n        /* \"#utility.yul\":11947:11962   */\n      mstore\n        /* \"#utility.yul\":11981:11985   */\n      0x24\n        /* \"#utility.yul\":11978:11979   */\n      0x00\n        /* \"#utility.yul\":11971:11986   */\n      revert\n        /* \"#utility.yul\":11998:12166   */\n    tag_130:\n        /* \"#utility.yul\":12138:12158   */\n      0x4b657920616c7265616479206578697374730000000000000000000000000000\n        /* \"#utility.yul\":12134:12135   */\n      0x00\n        /* \"#utility.yul\":12126:12132   */\n      dup3\n        /* \"#utility.yul\":12122:12136   */\n      add\n        /* \"#utility.yul\":12115:12159   */\n      mstore\n        /* \"#utility.yul\":11998:12166   */\n      pop\n      jump\t// out\n        /* \"#utility.yul\":12172:12538   */\n    tag_131:\n        /* \"#utility.yul\":12314:12317   */\n      0x00\n        /* \"#utility.yul\":12335:12402   */\n      tag_267\n        /* \"#utility.yul\":12399:12401   */\n      0x12\n        /* \"#utility.yul\":12394:12397   */\n      dup4\n        /* \"#utility.yul\":12335:12402   */\n      tag_109\n      jump\t// in\n    tag_267:\n        /* \"#utility.yul\":12328:12402   */\n      swap2\n      pop\n        /* \"#utility.yul\":12411:12504   */\n      tag_268\n        /* \"#utility.yul\":12500:12503   */\n      dup3\n        /* \"#utility.yul\":12411:12504   */\n      tag_130\n      jump\t// in\n    tag_268:\n        /* \"#utility.yul\":12529:12531   */\n      0x20\n        /* \"#utility.yul\":12524:12527   */\n      dup3\n        /* \"#utility.yul\":12520:12532   */\n      add\n        /* \"#utility.yul\":12513:12532   */\n      swap1\n      pop\n        /* \"#utility.yul\":12172:12538   */\n      swap2\n      swap1\n      pop\n      jump\t// out\n        /* \"#utility.yul\":12544:12963   */\n    tag_78:\n        /* \"#utility.yul\":12710:12714   */\n      0x00\n        /* \"#utility.yul\":12748:12750   */\n      0x20\n        /* \"#utility.yul\":12737:12746   */\n      dup3\n        /* \"#utility.yul\":12733:12751   */\n      add\n        /* \"#utility.yul\":12725:12751   */\n      swap1\n      pop\n        /* \"#utility.yul\":12797:12806   */\n      dup2\n        /* \"#utility.yul\":12791:12795   */\n      dup2\n        /* \"#utility.yul\":12787:12807   */\n      sub\n        /* \"#utility.yul\":12783:12784   */\n      0x00\n        /* \"#utility.yul\":12772:12781   */\n      dup4\n        /* \"#utility.yul\":12768:12785   */\n      add\n        /* \"#utility.yul\":12761:12808   */\n      mstore\n        /* \"#utility.yul\":12825:12956   */\n      tag_270\n        /* \"#utility.yul\":12951:12955   */\n      dup2\n        /* \"#utility.yul\":12825:12956   */\n      tag_131\n      jump\t// in\n    tag_270:\n        /* \"#utility.yul\":12817:12956   */\n      swap1\n      pop\n        /* \"#utility.yul\":12544:12963   */\n      swap2\n      swap1\n      pop\n      jump\t// out\n\n    auxdata: 0xa2646970667358221220ca01757e40c0c9e028fcac303f514fe82bb93e22492e4985fb62f092d7ee56f064736f6c634300081a0033\n}\n",
				"bytecode": {
					"linkReferences": {},
					"object": "6080604052348015600e575f80fd5b50610f5c8061001c5f395ff3fe608060405234801561000f575f80fd5b506004361061004a575f3560e01c8063160b35df1461004e5780637db6a4e41461006a578063b66deb801461009a578063bd456f76146100b6575b5f80fd5b610068600480360381019061006391906109b5565b6100d2565b005b610084600480360381019061007f9190610a0f565b6100eb565b6040516100919190610a9a565b60405180910390f35b6100b460048036038101906100af9190610a0f565b610107565b005b6100d060048036038101906100cb91906109b5565b61011d565b005b6100e782825f6101369092919063ffffffff16565b5050565b6060610100825f61021290919063ffffffff16565b9050919050565b61011a815f61036c90919063ffffffff16565b50565b61013282825f6106209092919063ffffffff16565b5050565b826002015f8373ffffffffffffffffffffffffffffffffffffffff1673ffffffffffffffffffffffffffffffffffffffff1681526020019081526020015f205f9054906101000a900460ff166101c1576040517f08c379a00000000000000000000000000000000000000000000000000000000081526004016101b890610b14565b60405180910390fd5b80835f015f8473ffffffffffffffffffffffffffffffffffffffff1673ffffffffffffffffffffffffffffffffffffffff1681526020019081526020015f20908161020c9190610d35565b50505050565b6060826002015f8373ffffffffffffffffffffffffffffffffffffffff1673ffffffffffffffffffffffffffffffffffffffff1681526020019081526020015f205f9054906101000a900460ff1661029f576040517f08c379a000000000000000000000000000000000000000000000000000000000815260040161029690610b14565b60405180910390fd5b825f015f8373ffffffffffffffffffffffffffffffffffffffff1673ffffffffffffffffffffffffffffffffffffffff1681526020019081526020015f2080546102e890610b5f565b80601f016020809104026020016040519081016040528092919081815260200182805461031490610b5f565b801561035f5780601f106103365761010080835404028352916020019161035f565b820191905f5260205f20905b81548152906001019060200180831161034257829003601f168201915b5050505050905092915050565b816002015f8273ffffffffffffffffffffffffffffffffffffffff1673ffffffffffffffffffffffffffffffffffffffff1681526020019081526020015f205f9054906101000a900460ff166103f7576040517f08c379a00000000000000000000000000000000000000000000000000000000081526004016103ee90610b14565b60405180910390fd5b815f015f8273ffffffffffffffffffffffffffffffffffffffff1673ffffffffffffffffffffffffffffffffffffffff1681526020019081526020015f205f61044091906107b6565b5f826002015f8373ffffffffffffffffffffffffffffffffffffffff1673ffffffffffffffffffffffffffffffffffffffff1681526020019081526020015f205f6101000a81548160ff0219169083151502179055505f5b826001018054905081101561061b578173ffffffffffffffffffffffffffffffffffffffff168360010182815481106104d4576104d3610e04565b5b905f5260205f20015f9054906101000a900473ffffffffffffffffffffffffffffffffffffffff1673ffffffffffffffffffffffffffffffffffffffff160361060e57826001016001846001018054905061052f9190610e5e565b815481106105405761053f610e04565b5b905f5260205f20015f9054906101000a900473ffffffffffffffffffffffffffffffffffffffff1683600101828154811061057e5761057d610e04565b5b905f5260205f20015f6101000a81548173ffffffffffffffffffffffffffffffffffffffff021916908373ffffffffffffffffffffffffffffffffffffffff160217905550826001018054806105d7576105d6610e91565b5b600190038181905f5260205f20015f6101000a81549073ffffffffffffffffffffffffffffffffffffffff0219169055905561061b565b8080600101915050610498565b505050565b826002015f8373ffffffffffffffffffffffffffffffffffffffff1673ffffffffffffffffffffffffffffffffffffffff1681526020019081526020015f205f9054906101000a900460ff16156106ac576040517f08c379a00000000000000000000000000000000000000000000000000000000081526004016106a390610f08565b60405180910390fd5b80835f015f8473ffffffffffffffffffffffffffffffffffffffff1673ffffffffffffffffffffffffffffffffffffffff1681526020019081526020015f2090816106f79190610d35565b508260010182908060018154018082558091505060019003905f5260205f20015f9091909190916101000a81548173ffffffffffffffffffffffffffffffffffffffff021916908373ffffffffffffffffffffffffffffffffffffffff1602179055506001836002015f8473ffffffffffffffffffffffffffffffffffffffff1673ffffffffffffffffffffffffffffffffffffffff1681526020019081526020015f205f6101000a81548160ff021916908315150217905550505050565b5080546107c290610b5f565b5f825580601f106107d357506107f0565b601f0160209004905f5260205f20908101906107ef91906107f3565b5b50565b5b8082111561080a575f815f9055506001016107f4565b5090565b5f604051905090565b5f80fd5b5f80fd5b5f73ffffffffffffffffffffffffffffffffffffffff82169050919050565b5f6108488261081f565b9050919050565b6108588161083e565b8114610862575f80fd5b50565b5f813590506108738161084f565b92915050565b5f80fd5b5f80fd5b5f601f19601f8301169050919050565b7f4e487b71000000000000000000000000000000000000000000000000000000005f52604160045260245ffd5b6108c782610881565b810181811067ffffffffffffffff821117156108e6576108e5610891565b5b80604052505050565b5f6108f861080e565b905061090482826108be565b919050565b5f67ffffffffffffffff82111561092357610922610891565b5b61092c82610881565b9050602081019050919050565b828183375f83830152505050565b5f61095961095484610909565b6108ef565b9050828152602081018484840111156109755761097461087d565b5b610980848285610939565b509392505050565b5f82601f83011261099c5761099b610879565b5b81356109ac848260208601610947565b91505092915050565b5f80604083850312156109cb576109ca610817565b5b5f6109d885828601610865565b925050602083013567ffffffffffffffff8111156109f9576109f861081b565b5b610a0585828601610988565b9150509250929050565b5f60208284031215610a2457610a23610817565b5b5f610a3184828501610865565b91505092915050565b5f81519050919050565b5f82825260208201905092915050565b8281835e5f83830152505050565b5f610a6c82610a3a565b610a768185610a44565b9350610a86818560208601610a54565b610a8f81610881565b840191505092915050565b5f6020820190508181035f830152610ab28184610a62565b905092915050565b5f82825260208201905092915050565b7f4b657920646f6573206e6f7420657869737400000000000000000000000000005f82015250565b5f610afe601283610aba565b9150610b0982610aca565b602082019050919050565b5f6020820190508181035f830152610b2b81610af2565b9050919050565b7f4e487b71000000000000000000000000000000000000000000000000000000005f52602260045260245ffd5b5f6002820490506001821680610b7657607f821691505b602082108103610b8957610b88610b32565b5b50919050565b5f819050815f5260205f209050919050565b5f6020601f8301049050919050565b5f82821b905092915050565b5f60088302610beb7fffffffffffffffffffffffffffffffffffffffffffffffffffffffffffffffff82610bb0565b610bf58683610bb0565b95508019841693508086168417925050509392505050565b5f819050919050565b5f819050919050565b5f610c39610c34610c2f84610c0d565b610c16565b610c0d565b9050919050565b5f819050919050565b610c5283610c1f565b610c66610c5e82610c40565b848454610bbc565b825550505050565b5f90565b610c7a610c6e565b610c85818484610c49565b505050565b5b81811015610ca857610c9d5f82610c72565b600181019050610c8b565b5050565b601f821115610ced57610cbe81610b8f565b610cc784610ba1565b81016020851015610cd6578190505b610cea610ce285610ba1565b830182610c8a565b50505b505050565b5f82821c905092915050565b5f610d0d5f1984600802610cf2565b1980831691505092915050565b5f610d258383610cfe565b9150826002028217905092915050565b610d3e82610a3a565b67ffffffffffffffff811115610d5757610d56610891565b5b610d618254610b5f565b610d6c828285610cac565b5f60209050601f831160018114610d9d575f8415610d8b578287015190505b610d958582610d1a565b865550610dfc565b601f198416610dab86610b8f565b5f5b82811015610dd257848901518255600182019150602085019450602081019050610dad565b86831015610def5784890151610deb601f891682610cfe565b8355505b6001600288020188555050505b505050505050565b7f4e487b71000000000000000000000000000000000000000000000000000000005f52603260045260245ffd5b7f4e487b71000000000000000000000000000000000000000000000000000000005f52601160045260245ffd5b5f610e6882610c0d565b9150610e7383610c0d565b9250828203905081811115610e8b57610e8a610e31565b5b92915050565b7f4e487b71000000000000000000000000000000000000000000000000000000005f52603160045260245ffd5b7f4b657920616c72656164792065786973747300000000000000000000000000005f82015250565b5f610ef2601283610aba565b9150610efd82610ebe565b602082019050919050565b5f6020820190508181035f830152610f1f81610ee6565b905091905056fea2646970667358221220ca01757e40c0c9e028fcac303f514fe82bb93e22492e4985fb62f092d7ee56f064736f6c634300081a0033",
					"opcodes": "PUSH1 0x80 PUSH1 0x40 MSTORE CALLVALUE DUP1 ISZERO PUSH1 0xE JUMPI PUSH0 DUP1 REVERT JUMPDEST POP PUSH2 0xF5C DUP1 PUSH2 0x1C PUSH0 CODECOPY PUSH0 RETURN INVALID PUSH1 0x80 PUSH1 0x40 MSTORE CALLVALUE DUP1 ISZERO PUSH2 0xF JUMPI PUSH0 DUP1 REVERT JUMPDEST POP PUSH1 0x4 CALLDATASIZE LT PUSH2 0x4A JUMPI PUSH0 CALLDATALOAD PUSH1 0xE0 SHR DUP1 PUSH4 0x160B35DF EQ PUSH2 0x4E JUMPI DUP1 PUSH4 0x7DB6A4E4 EQ PUSH2 0x6A JUMPI DUP1 PUSH4 0xB66DEB80 EQ PUSH2 0x9A JUMPI DUP1 PUSH4 0xBD456F76 EQ PUSH2 0xB6 JUMPI JUMPDEST PUSH0 DUP1 REVERT JUMPDEST PUSH2 0x68 PUSH1 0x4 DUP1 CALLDATASIZE SUB DUP2 ADD SWAP1 PUSH2 0x63 SWAP2 SWAP1 PUSH2 0x9B5 JUMP JUMPDEST PUSH2 0xD2 JUMP JUMPDEST STOP JUMPDEST PUSH2 0x84 PUSH1 0x4 DUP1 CALLDATASIZE SUB DUP2 ADD SWAP1 PUSH2 0x7F SWAP2 SWAP1 PUSH2 0xA0F JUMP JUMPDEST PUSH2 0xEB JUMP JUMPDEST PUSH1 0x40 MLOAD PUSH2 0x91 SWAP2 SWAP1 PUSH2 0xA9A JUMP JUMPDEST PUSH1 0x40 MLOAD DUP1 SWAP2 SUB SWAP1 RETURN JUMPDEST PUSH2 0xB4 PUSH1 0x4 DUP1 CALLDATASIZE SUB DUP2 ADD SWAP1 PUSH2 0xAF SWAP2 SWAP1 PUSH2 0xA0F JUMP JUMPDEST PUSH2 0x107 JUMP JUMPDEST STOP JUMPDEST PUSH2 0xD0 PUSH1 0x4 DUP1 CALLDATASIZE SUB DUP2 ADD SWAP1 PUSH2 0xCB SWAP2 SWAP1 PUSH2 0x9B5 JUMP JUMPDEST PUSH2 0x11D JUMP JUMPDEST STOP JUMPDEST PUSH2 0xE7 DUP3 DUP3 PUSH0 PUSH2 0x136 SWAP1 SWAP3 SWAP2 SWAP1 PUSH4 0xFFFFFFFF AND JUMP JUMPDEST POP POP JUMP JUMPDEST PUSH1 0x60 PUSH2 0x100 DUP3 PUSH0 PUSH2 0x212 SWAP1 SWAP2 SWAP1 PUSH4 0xFFFFFFFF AND JUMP JUMPDEST SWAP1 POP SWAP2 SWAP1 POP JUMP JUMPDEST PUSH2 0x11A DUP2 PUSH0 PUSH2 0x36C SWAP1 SWAP2 SWAP1 PUSH4 0xFFFFFFFF AND JUMP JUMPDEST POP JUMP JUMPDEST PUSH2 0x132 DUP3 DUP3 PUSH0 PUSH2 0x620 SWAP1 SWAP3 SWAP2 SWAP1 PUSH4 0xFFFFFFFF AND JUMP JUMPDEST POP POP JUMP JUMPDEST DUP3 PUSH1 0x2 ADD PUSH0 DUP4 PUSH20 0xFFFFFFFFFFFFFFFFFFFFFFFFFFFFFFFFFFFFFFFF AND PUSH20 0xFFFFFFFFFFFFFFFFFFFFFFFFFFFFFFFFFFFFFFFF AND DUP2 MSTORE PUSH1 0x20 ADD SWAP1 DUP2 MSTORE PUSH1 0x20 ADD PUSH0 KECCAK256 PUSH0 SWAP1 SLOAD SWAP1 PUSH2 0x100 EXP SWAP1 DIV PUSH1 0xFF AND PUSH2 0x1C1 JUMPI PUSH1 0x40 MLOAD PUSH32 0x8C379A000000000000000000000000000000000000000000000000000000000 DUP2 MSTORE PUSH1 0x4 ADD PUSH2 0x1B8 SWAP1 PUSH2 0xB14 JUMP JUMPDEST PUSH1 0x40 MLOAD DUP1 SWAP2 SUB SWAP1 REVERT JUMPDEST DUP1 DUP4 PUSH0 ADD PUSH0 DUP5 PUSH20 0xFFFFFFFFFFFFFFFFFFFFFFFFFFFFFFFFFFFFFFFF AND PUSH20 0xFFFFFFFFFFFFFFFFFFFFFFFFFFFFFFFFFFFFFFFF AND DUP2 MSTORE PUSH1 0x20 ADD SWAP1 DUP2 MSTORE PUSH1 0x20 ADD PUSH0 KECCAK256 SWAP1 DUP2 PUSH2 0x20C SWAP2 SWAP1 PUSH2 0xD35 JUMP JUMPDEST POP POP POP POP JUMP JUMPDEST PUSH1 0x60 DUP3 PUSH1 0x2 ADD PUSH0 DUP4 PUSH20 0xFFFFFFFFFFFFFFFFFFFFFFFFFFFFFFFFFFFFFFFF AND PUSH20 0xFFFFFFFFFFFFFFFFFFFFFFFFFFFFFFFFFFFFFFFF AND DUP2 MSTORE PUSH1 0x20 ADD SWAP1 DUP2 MSTORE PUSH1 0x20 ADD PUSH0 KECCAK256 PUSH0 SWAP1 SLOAD SWAP1 PUSH2 0x100 EXP SWAP1 DIV PUSH1 0xFF AND PUSH2 0x29F JUMPI PUSH1 0x40 MLOAD PUSH32 0x8C379A000000000000000000000000000000000000000000000000000000000 DUP2 MSTORE PUSH1 0x4 ADD PUSH2 0x296 SWAP1 PUSH2 0xB14 JUMP JUMPDEST PUSH1 0x40 MLOAD DUP1 SWAP2 SUB SWAP1 REVERT JUMPDEST DUP3 PUSH0 ADD PUSH0 DUP4 PUSH20 0xFFFFFFFFFFFFFFFFFFFFFFFFFFFFFFFFFFFFFFFF AND PUSH20 0xFFFFFFFFFFFFFFFFFFFFFFFFFFFFFFFFFFFFFFFF AND DUP2 MSTORE PUSH1 0x20 ADD SWAP1 DUP2 MSTORE PUSH1 0x20 ADD PUSH0 KECCAK256 DUP1 SLOAD PUSH2 0x2E8 SWAP1 PUSH2 0xB5F JUMP JUMPDEST DUP1 PUSH1 0x1F ADD PUSH1 0x20 DUP1 SWAP2 DIV MUL PUSH1 0x20 ADD PUSH1 0x40 MLOAD SWAP1 DUP2 ADD PUSH1 0x40 MSTORE DUP1 SWAP3 SWAP2 SWAP1 DUP2 DUP2 MSTORE PUSH1 0x20 ADD DUP3 DUP1 SLOAD PUSH2 0x314 SWAP1 PUSH2 0xB5F JUMP JUMPDEST DUP1 ISZERO PUSH2 0x35F JUMPI DUP1 PUSH1 0x1F LT PUSH2 0x336 JUMPI PUSH2 0x100 DUP1 DUP4 SLOAD DIV MUL DUP4 MSTORE SWAP2 PUSH1 0x20 ADD SWAP2 PUSH2 0x35F JUMP JUMPDEST DUP3 ADD SWAP2 SWAP1 PUSH0 MSTORE PUSH1 0x20 PUSH0 KECCAK256 SWAP1 JUMPDEST DUP2 SLOAD DUP2 MSTORE SWAP1 PUSH1 0x1 ADD SWAP1 PUSH1 0x20 ADD DUP1 DUP4 GT PUSH2 0x342 JUMPI DUP3 SWAP1 SUB PUSH1 0x1F AND DUP3 ADD SWAP2 JUMPDEST POP POP POP POP POP SWAP1 POP SWAP3 SWAP2 POP POP JUMP JUMPDEST DUP2 PUSH1 0x2 ADD PUSH0 DUP3 PUSH20 0xFFFFFFFFFFFFFFFFFFFFFFFFFFFFFFFFFFFFFFFF AND PUSH20 0xFFFFFFFFFFFFFFFFFFFFFFFFFFFFFFFFFFFFFFFF AND DUP2 MSTORE PUSH1 0x20 ADD SWAP1 DUP2 MSTORE PUSH1 0x20 ADD PUSH0 KECCAK256 PUSH0 SWAP1 SLOAD SWAP1 PUSH2 0x100 EXP SWAP1 DIV PUSH1 0xFF AND PUSH2 0x3F7 JUMPI PUSH1 0x40 MLOAD PUSH32 0x8C379A000000000000000000000000000000000000000000000000000000000 DUP2 MSTORE PUSH1 0x4 ADD PUSH2 0x3EE SWAP1 PUSH2 0xB14 JUMP JUMPDEST PUSH1 0x40 MLOAD DUP1 SWAP2 SUB SWAP1 REVERT JUMPDEST DUP2 PUSH0 ADD PUSH0 DUP3 PUSH20 0xFFFFFFFFFFFFFFFFFFFFFFFFFFFFFFFFFFFFFFFF AND PUSH20 0xFFFFFFFFFFFFFFFFFFFFFFFFFFFFFFFFFFFFFFFF AND DUP2 MSTORE PUSH1 0x20 ADD SWAP1 DUP2 MSTORE PUSH1 0x20 ADD PUSH0 KECCAK256 PUSH0 PUSH2 0x440 SWAP2 SWAP1 PUSH2 0x7B6 JUMP JUMPDEST PUSH0 DUP3 PUSH1 0x2 ADD PUSH0 DUP4 PUSH20 0xFFFFFFFFFFFFFFFFFFFFFFFFFFFFFFFFFFFFFFFF AND PUSH20 0xFFFFFFFFFFFFFFFFFFFFFFFFFFFFFFFFFFFFFFFF AND DUP2 MSTORE PUSH1 0x20 ADD SWAP1 DUP2 MSTORE PUSH1 0x20 ADD PUSH0 KECCAK256 PUSH0 PUSH2 0x100 EXP DUP2 SLOAD DUP2 PUSH1 0xFF MUL NOT AND SWAP1 DUP4 ISZERO ISZERO MUL OR SWAP1 SSTORE POP PUSH0 JUMPDEST DUP3 PUSH1 0x1 ADD DUP1 SLOAD SWAP1 POP DUP2 LT ISZERO PUSH2 0x61B JUMPI DUP2 PUSH20 0xFFFFFFFFFFFFFFFFFFFFFFFFFFFFFFFFFFFFFFFF AND DUP4 PUSH1 0x1 ADD DUP3 DUP2 SLOAD DUP2 LT PUSH2 0x4D4 JUMPI PUSH2 0x4D3 PUSH2 0xE04 JUMP JUMPDEST JUMPDEST SWAP1 PUSH0 MSTORE PUSH1 0x20 PUSH0 KECCAK256 ADD PUSH0 SWAP1 SLOAD SWAP1 PUSH2 0x100 EXP SWAP1 DIV PUSH20 0xFFFFFFFFFFFFFFFFFFFFFFFFFFFFFFFFFFFFFFFF AND PUSH20 0xFFFFFFFFFFFFFFFFFFFFFFFFFFFFFFFFFFFFFFFF AND SUB PUSH2 0x60E JUMPI DUP3 PUSH1 0x1 ADD PUSH1 0x1 DUP5 PUSH1 0x1 ADD DUP1 SLOAD SWAP1 POP PUSH2 0x52F SWAP2 SWAP1 PUSH2 0xE5E JUMP JUMPDEST DUP2 SLOAD DUP2 LT PUSH2 0x540 JUMPI PUSH2 0x53F PUSH2 0xE04 JUMP JUMPDEST JUMPDEST SWAP1 PUSH0 MSTORE PUSH1 0x20 PUSH0 KECCAK256 ADD PUSH0 SWAP1 SLOAD SWAP1 PUSH2 0x100 EXP SWAP1 DIV PUSH20 0xFFFFFFFFFFFFFFFFFFFFFFFFFFFFFFFFFFFFFFFF AND DUP4 PUSH1 0x1 ADD DUP3 DUP2 SLOAD DUP2 LT PUSH2 0x57E JUMPI PUSH2 0x57D PUSH2 0xE04 JUMP JUMPDEST JUMPDEST SWAP1 PUSH0 MSTORE PUSH1 0x20 PUSH0 KECCAK256 ADD PUSH0 PUSH2 0x100 EXP DUP2 SLOAD DUP2 PUSH20 0xFFFFFFFFFFFFFFFFFFFFFFFFFFFFFFFFFFFFFFFF MUL NOT AND SWAP1 DUP4 PUSH20 0xFFFFFFFFFFFFFFFFFFFFFFFFFFFFFFFFFFFFFFFF AND MUL OR SWAP1 SSTORE POP DUP3 PUSH1 0x1 ADD DUP1 SLOAD DUP1 PUSH2 0x5D7 JUMPI PUSH2 0x5D6 PUSH2 0xE91 JUMP JUMPDEST JUMPDEST PUSH1 0x1 SWAP1 SUB DUP2 DUP2 SWAP1 PUSH0 MSTORE PUSH1 0x20 PUSH0 KECCAK256 ADD PUSH0 PUSH2 0x100 EXP DUP2 SLOAD SWAP1 PUSH20 0xFFFFFFFFFFFFFFFFFFFFFFFFFFFFFFFFFFFFFFFF MUL NOT AND SWAP1 SSTORE SWAP1 SSTORE PUSH2 0x61B JUMP JUMPDEST DUP1 DUP1 PUSH1 0x1 ADD SWAP2 POP POP PUSH2 0x498 JUMP JUMPDEST POP POP POP JUMP JUMPDEST DUP3 PUSH1 0x2 ADD PUSH0 DUP4 PUSH20 0xFFFFFFFFFFFFFFFFFFFFFFFFFFFFFFFFFFFFFFFF AND PUSH20 0xFFFFFFFFFFFFFFFFFFFFFFFFFFFFFFFFFFFFFFFF AND DUP2 MSTORE PUSH1 0x20 ADD SWAP1 DUP2 MSTORE PUSH1 0x20 ADD PUSH0 KECCAK256 PUSH0 SWAP1 SLOAD SWAP1 PUSH2 0x100 EXP SWAP1 DIV PUSH1 0xFF AND ISZERO PUSH2 0x6AC JUMPI PUSH1 0x40 MLOAD PUSH32 0x8C379A000000000000000000000000000000000000000000000000000000000 DUP2 MSTORE PUSH1 0x4 ADD PUSH2 0x6A3 SWAP1 PUSH2 0xF08 JUMP JUMPDEST PUSH1 0x40 MLOAD DUP1 SWAP2 SUB SWAP1 REVERT JUMPDEST DUP1 DUP4 PUSH0 ADD PUSH0 DUP5 PUSH20 0xFFFFFFFFFFFFFFFFFFFFFFFFFFFFFFFFFFFFFFFF AND PUSH20 0xFFFFFFFFFFFFFFFFFFFFFFFFFFFFFFFFFFFFFFFF AND DUP2 MSTORE PUSH1 0x20 ADD SWAP1 DUP2 MSTORE PUSH1 0x20 ADD PUSH0 KECCAK256 SWAP1 DUP2 PUSH2 0x6F7 SWAP2 SWAP1 PUSH2 0xD35 JUMP JUMPDEST POP DUP3 PUSH1 0x1 ADD DUP3 SWAP1 DUP1 PUSH1 0x1 DUP2 SLOAD ADD DUP1 DUP3 SSTORE DUP1 SWAP2 POP POP PUSH1 0x1 SWAP1 SUB SWAP1 PUSH0 MSTORE PUSH1 0x20 PUSH0 KECCAK256 ADD PUSH0 SWAP1 SWAP2 SWAP1 SWAP2 SWAP1 SWAP2 PUSH2 0x100 EXP DUP2 SLOAD DUP2 PUSH20 0xFFFFFFFFFFFFFFFFFFFFFFFFFFFFFFFFFFFFFFFF MUL NOT AND SWAP1 DUP4 PUSH20 0xFFFFFFFFFFFFFFFFFFFFFFFFFFFFFFFFFFFFFFFF AND MUL OR SWAP1 SSTORE POP PUSH1 0x1 DUP4 PUSH1 0x2 ADD PUSH0 DUP5 PUSH20 0xFFFFFFFFFFFFFFFFFFFFFFFFFFFFFFFFFFFFFFFF AND PUSH20 0xFFFFFFFFFFFFFFFFFFFFFFFFFFFFFFFFFFFFFFFF AND DUP2 MSTORE PUSH1 0x20 ADD SWAP1 DUP2 MSTORE PUSH1 0x20 ADD PUSH0 KECCAK256 PUSH0 PUSH2 0x100 EXP DUP2 SLOAD DUP2 PUSH1 0xFF MUL NOT AND SWAP1 DUP4 ISZERO ISZERO MUL OR SWAP1 SSTORE POP POP POP POP JUMP JUMPDEST POP DUP1 SLOAD PUSH2 0x7C2 SWAP1 PUSH2 0xB5F JUMP JUMPDEST PUSH0 DUP3 SSTORE DUP1 PUSH1 0x1F LT PUSH2 0x7D3 JUMPI POP PUSH2 0x7F0 JUMP JUMPDEST PUSH1 0x1F ADD PUSH1 0x20 SWAP1 DIV SWAP1 PUSH0 MSTORE PUSH1 0x20 PUSH0 KECCAK256 SWAP1 DUP2 ADD SWAP1 PUSH2 0x7EF SWAP2 SWAP1 PUSH2 0x7F3 JUMP JUMPDEST JUMPDEST POP JUMP JUMPDEST JUMPDEST DUP1 DUP3 GT ISZERO PUSH2 0x80A JUMPI PUSH0 DUP2 PUSH0 SWAP1 SSTORE POP PUSH1 0x1 ADD PUSH2 0x7F4 JUMP JUMPDEST POP SWAP1 JUMP JUMPDEST PUSH0 PUSH1 0x40 MLOAD SWAP1 POP SWAP1 JUMP JUMPDEST PUSH0 DUP1 REVERT JUMPDEST PUSH0 DUP1 REVERT JUMPDEST PUSH0 PUSH20 0xFFFFFFFFFFFFFFFFFFFFFFFFFFFFFFFFFFFFFFFF DUP3 AND SWAP1 POP SWAP2 SWAP1 POP JUMP JUMPDEST PUSH0 PUSH2 0x848 DUP3 PUSH2 0x81F JUMP JUMPDEST SWAP1 POP SWAP2 SWAP1 POP JUMP JUMPDEST PUSH2 0x858 DUP2 PUSH2 0x83E JUMP JUMPDEST DUP2 EQ PUSH2 0x862 JUMPI PUSH0 DUP1 REVERT JUMPDEST POP JUMP JUMPDEST PUSH0 DUP2 CALLDATALOAD SWAP1 POP PUSH2 0x873 DUP2 PUSH2 0x84F JUMP JUMPDEST SWAP3 SWAP2 POP POP JUMP JUMPDEST PUSH0 DUP1 REVERT JUMPDEST PUSH0 DUP1 REVERT JUMPDEST PUSH0 PUSH1 0x1F NOT PUSH1 0x1F DUP4 ADD AND SWAP1 POP SWAP2 SWAP1 POP JUMP JUMPDEST PUSH32 0x4E487B7100000000000000000000000000000000000000000000000000000000 PUSH0 MSTORE PUSH1 0x41 PUSH1 0x4 MSTORE PUSH1 0x24 PUSH0 REVERT JUMPDEST PUSH2 0x8C7 DUP3 PUSH2 0x881 JUMP JUMPDEST DUP2 ADD DUP2 DUP2 LT PUSH8 0xFFFFFFFFFFFFFFFF DUP3 GT OR ISZERO PUSH2 0x8E6 JUMPI PUSH2 0x8E5 PUSH2 0x891 JUMP JUMPDEST JUMPDEST DUP1 PUSH1 0x40 MSTORE POP POP POP JUMP JUMPDEST PUSH0 PUSH2 0x8F8 PUSH2 0x80E JUMP JUMPDEST SWAP1 POP PUSH2 0x904 DUP3 DUP3 PUSH2 0x8BE JUMP JUMPDEST SWAP2 SWAP1 POP JUMP JUMPDEST PUSH0 PUSH8 0xFFFFFFFFFFFFFFFF DUP3 GT ISZERO PUSH2 0x923 JUMPI PUSH2 0x922 PUSH2 0x891 JUMP JUMPDEST JUMPDEST PUSH2 0x92C DUP3 PUSH2 0x881 JUMP JUMPDEST SWAP1 POP PUSH1 0x20 DUP2 ADD SWAP1 POP SWAP2 SWAP1 POP JUMP JUMPDEST DUP3 DUP2 DUP4 CALLDATACOPY PUSH0 DUP4 DUP4 ADD MSTORE POP POP POP JUMP JUMPDEST PUSH0 PUSH2 0x959 PUSH2 0x954 DUP5 PUSH2 0x909 JUMP JUMPDEST PUSH2 0x8EF JUMP JUMPDEST SWAP1 POP DUP3 DUP2 MSTORE PUSH1 0x20 DUP2 ADD DUP5 DUP5 DUP5 ADD GT ISZERO PUSH2 0x975 JUMPI PUSH2 0x974 PUSH2 0x87D JUMP JUMPDEST JUMPDEST PUSH2 0x980 DUP5 DUP3 DUP6 PUSH2 0x939 JUMP JUMPDEST POP SWAP4 SWAP3 POP POP POP JUMP JUMPDEST PUSH0 DUP3 PUSH1 0x1F DUP4 ADD SLT PUSH2 0x99C JUMPI PUSH2 0x99B PUSH2 0x879 JUMP JUMPDEST JUMPDEST DUP2 CALLDATALOAD PUSH2 0x9AC DUP5 DUP3 PUSH1 0x20 DUP7 ADD PUSH2 0x947 JUMP JUMPDEST SWAP2 POP POP SWAP3 SWAP2 POP POP JUMP JUMPDEST PUSH0 DUP1 PUSH1 0x40 DUP4 DUP6 SUB SLT ISZERO PUSH2 0x9CB JUMPI PUSH2 0x9CA PUSH2 0x817 JUMP JUMPDEST JUMPDEST PUSH0 PUSH2 0x9D8 DUP6 DUP3 DUP7 ADD PUSH2 0x865 JUMP JUMPDEST SWAP3 POP POP PUSH1 0x20 DUP4 ADD CALLDATALOAD PUSH8 0xFFFFFFFFFFFFFFFF DUP2 GT ISZERO PUSH2 0x9F9 JUMPI PUSH2 0x9F8 PUSH2 0x81B JUMP JUMPDEST JUMPDEST PUSH2 0xA05 DUP6 DUP3 DUP7 ADD PUSH2 0x988 JUMP JUMPDEST SWAP2 POP POP SWAP3 POP SWAP3 SWAP1 POP JUMP JUMPDEST PUSH0 PUSH1 0x20 DUP3 DUP5 SUB SLT ISZERO PUSH2 0xA24 JUMPI PUSH2 0xA23 PUSH2 0x817 JUMP JUMPDEST JUMPDEST PUSH0 PUSH2 0xA31 DUP5 DUP3 DUP6 ADD PUSH2 0x865 JUMP JUMPDEST SWAP2 POP POP SWAP3 SWAP2 POP POP JUMP JUMPDEST PUSH0 DUP2 MLOAD SWAP1 POP SWAP2 SWAP1 POP JUMP JUMPDEST PUSH0 DUP3 DUP3 MSTORE PUSH1 0x20 DUP3 ADD SWAP1 POP SWAP3 SWAP2 POP POP JUMP JUMPDEST DUP3 DUP2 DUP4 MCOPY PUSH0 DUP4 DUP4 ADD MSTORE POP POP POP JUMP JUMPDEST PUSH0 PUSH2 0xA6C DUP3 PUSH2 0xA3A JUMP JUMPDEST PUSH2 0xA76 DUP2 DUP6 PUSH2 0xA44 JUMP JUMPDEST SWAP4 POP PUSH2 0xA86 DUP2 DUP6 PUSH1 0x20 DUP7 ADD PUSH2 0xA54 JUMP JUMPDEST PUSH2 0xA8F DUP2 PUSH2 0x881 JUMP JUMPDEST DUP5 ADD SWAP2 POP POP SWAP3 SWAP2 POP POP JUMP JUMPDEST PUSH0 PUSH1 0x20 DUP3 ADD SWAP1 POP DUP2 DUP2 SUB PUSH0 DUP4 ADD MSTORE PUSH2 0xAB2 DUP2 DUP5 PUSH2 0xA62 JUMP JUMPDEST SWAP1 POP SWAP3 SWAP2 POP POP JUMP JUMPDEST PUSH0 DUP3 DUP3 MSTORE PUSH1 0x20 DUP3 ADD SWAP1 POP SWAP3 SWAP2 POP POP JUMP JUMPDEST PUSH32 0x4B657920646F6573206E6F742065786973740000000000000000000000000000 PUSH0 DUP3 ADD MSTORE POP JUMP JUMPDEST PUSH0 PUSH2 0xAFE PUSH1 0x12 DUP4 PUSH2 0xABA JUMP JUMPDEST SWAP2 POP PUSH2 0xB09 DUP3 PUSH2 0xACA JUMP JUMPDEST PUSH1 0x20 DUP3 ADD SWAP1 POP SWAP2 SWAP1 POP JUMP JUMPDEST PUSH0 PUSH1 0x20 DUP3 ADD SWAP1 POP DUP2 DUP2 SUB PUSH0 DUP4 ADD MSTORE PUSH2 0xB2B DUP2 PUSH2 0xAF2 JUMP JUMPDEST SWAP1 POP SWAP2 SWAP1 POP JUMP JUMPDEST PUSH32 0x4E487B7100000000000000000000000000000000000000000000000000000000 PUSH0 MSTORE PUSH1 0x22 PUSH1 0x4 MSTORE PUSH1 0x24 PUSH0 REVERT JUMPDEST PUSH0 PUSH1 0x2 DUP3 DIV SWAP1 POP PUSH1 0x1 DUP3 AND DUP1 PUSH2 0xB76 JUMPI PUSH1 0x7F DUP3 AND SWAP2 POP JUMPDEST PUSH1 0x20 DUP3 LT DUP2 SUB PUSH2 0xB89 JUMPI PUSH2 0xB88 PUSH2 0xB32 JUMP JUMPDEST JUMPDEST POP SWAP2 SWAP1 POP JUMP JUMPDEST PUSH0 DUP2 SWAP1 POP DUP2 PUSH0 MSTORE PUSH1 0x20 PUSH0 KECCAK256 SWAP1 POP SWAP2 SWAP1 POP JUMP JUMPDEST PUSH0 PUSH1 0x20 PUSH1 0x1F DUP4 ADD DIV SWAP1 POP SWAP2 SWAP1 POP JUMP JUMPDEST PUSH0 DUP3 DUP3 SHL SWAP1 POP SWAP3 SWAP2 POP POP JUMP JUMPDEST PUSH0 PUSH1 0x8 DUP4 MUL PUSH2 0xBEB PUSH32 0xFFFFFFFFFFFFFFFFFFFFFFFFFFFFFFFFFFFFFFFFFFFFFFFFFFFFFFFFFFFFFFFF DUP3 PUSH2 0xBB0 JUMP JUMPDEST PUSH2 0xBF5 DUP7 DUP4 PUSH2 0xBB0 JUMP JUMPDEST SWAP6 POP DUP1 NOT DUP5 AND SWAP4 POP DUP1 DUP7 AND DUP5 OR SWAP3 POP POP POP SWAP4 SWAP3 POP POP POP JUMP JUMPDEST PUSH0 DUP2 SWAP1 POP SWAP2 SWAP1 POP JUMP JUMPDEST PUSH0 DUP2 SWAP1 POP SWAP2 SWAP1 POP JUMP JUMPDEST PUSH0 PUSH2 0xC39 PUSH2 0xC34 PUSH2 0xC2F DUP5 PUSH2 0xC0D JUMP JUMPDEST PUSH2 0xC16 JUMP JUMPDEST PUSH2 0xC0D JUMP JUMPDEST SWAP1 POP SWAP2 SWAP1 POP JUMP JUMPDEST PUSH0 DUP2 SWAP1 POP SWAP2 SWAP1 POP JUMP JUMPDEST PUSH2 0xC52 DUP4 PUSH2 0xC1F JUMP JUMPDEST PUSH2 0xC66 PUSH2 0xC5E DUP3 PUSH2 0xC40 JUMP JUMPDEST DUP5 DUP5 SLOAD PUSH2 0xBBC JUMP JUMPDEST DUP3 SSTORE POP POP POP POP JUMP JUMPDEST PUSH0 SWAP1 JUMP JUMPDEST PUSH2 0xC7A PUSH2 0xC6E JUMP JUMPDEST PUSH2 0xC85 DUP2 DUP5 DUP5 PUSH2 0xC49 JUMP JUMPDEST POP POP POP JUMP JUMPDEST JUMPDEST DUP2 DUP2 LT ISZERO PUSH2 0xCA8 JUMPI PUSH2 0xC9D PUSH0 DUP3 PUSH2 0xC72 JUMP JUMPDEST PUSH1 0x1 DUP2 ADD SWAP1 POP PUSH2 0xC8B JUMP JUMPDEST POP POP JUMP JUMPDEST PUSH1 0x1F DUP3 GT ISZERO PUSH2 0xCED JUMPI PUSH2 0xCBE DUP2 PUSH2 0xB8F JUMP JUMPDEST PUSH2 0xCC7 DUP5 PUSH2 0xBA1 JUMP JUMPDEST DUP2 ADD PUSH1 0x20 DUP6 LT ISZERO PUSH2 0xCD6 JUMPI DUP2 SWAP1 POP JUMPDEST PUSH2 0xCEA PUSH2 0xCE2 DUP6 PUSH2 0xBA1 JUMP JUMPDEST DUP4 ADD DUP3 PUSH2 0xC8A JUMP JUMPDEST POP POP JUMPDEST POP POP POP JUMP JUMPDEST PUSH0 DUP3 DUP3 SHR SWAP1 POP SWAP3 SWAP2 POP POP JUMP JUMPDEST PUSH0 PUSH2 0xD0D PUSH0 NOT DUP5 PUSH1 0x8 MUL PUSH2 0xCF2 JUMP JUMPDEST NOT DUP1 DUP4 AND SWAP2 POP POP SWAP3 SWAP2 POP POP JUMP JUMPDEST PUSH0 PUSH2 0xD25 DUP4 DUP4 PUSH2 0xCFE JUMP JUMPDEST SWAP2 POP DUP3 PUSH1 0x2 MUL DUP3 OR SWAP1 POP SWAP3 SWAP2 POP POP JUMP JUMPDEST PUSH2 0xD3E DUP3 PUSH2 0xA3A JUMP JUMPDEST PUSH8 0xFFFFFFFFFFFFFFFF DUP2 GT ISZERO PUSH2 0xD57 JUMPI PUSH2 0xD56 PUSH2 0x891 JUMP JUMPDEST JUMPDEST PUSH2 0xD61 DUP3 SLOAD PUSH2 0xB5F JUMP JUMPDEST PUSH2 0xD6C DUP3 DUP3 DUP6 PUSH2 0xCAC JUMP JUMPDEST PUSH0 PUSH1 0x20 SWAP1 POP PUSH1 0x1F DUP4 GT PUSH1 0x1 DUP2 EQ PUSH2 0xD9D JUMPI PUSH0 DUP5 ISZERO PUSH2 0xD8B JUMPI DUP3 DUP8 ADD MLOAD SWAP1 POP JUMPDEST PUSH2 0xD95 DUP6 DUP3 PUSH2 0xD1A JUMP JUMPDEST DUP7 SSTORE POP PUSH2 0xDFC JUMP JUMPDEST PUSH1 0x1F NOT DUP5 AND PUSH2 0xDAB DUP7 PUSH2 0xB8F JUMP JUMPDEST PUSH0 JUMPDEST DUP3 DUP2 LT ISZERO PUSH2 0xDD2 JUMPI DUP5 DUP10 ADD MLOAD DUP3 SSTORE PUSH1 0x1 DUP3 ADD SWAP2 POP PUSH1 0x20 DUP6 ADD SWAP5 POP PUSH1 0x20 DUP2 ADD SWAP1 POP PUSH2 0xDAD JUMP JUMPDEST DUP7 DUP4 LT ISZERO PUSH2 0xDEF JUMPI DUP5 DUP10 ADD MLOAD PUSH2 0xDEB PUSH1 0x1F DUP10 AND DUP3 PUSH2 0xCFE JUMP JUMPDEST DUP4 SSTORE POP JUMPDEST PUSH1 0x1 PUSH1 0x2 DUP9 MUL ADD DUP9 SSTORE POP POP POP JUMPDEST POP POP POP POP POP POP JUMP JUMPDEST PUSH32 0x4E487B7100000000000000000000000000000000000000000000000000000000 PUSH0 MSTORE PUSH1 0x32 PUSH1 0x4 MSTORE PUSH1 0x24 PUSH0 REVERT JUMPDEST PUSH32 0x4E487B7100000000000000000000000000000000000000000000000000000000 PUSH0 MSTORE PUSH1 0x11 PUSH1 0x4 MSTORE PUSH1 0x24 PUSH0 REVERT JUMPDEST PUSH0 PUSH2 0xE68 DUP3 PUSH2 0xC0D JUMP JUMPDEST SWAP2 POP PUSH2 0xE73 DUP4 PUSH2 0xC0D JUMP JUMPDEST SWAP3 POP DUP3 DUP3 SUB SWAP1 POP DUP2 DUP2 GT ISZERO PUSH2 0xE8B JUMPI PUSH2 0xE8A PUSH2 0xE31 JUMP JUMPDEST JUMPDEST SWAP3 SWAP2 POP POP JUMP JUMPDEST PUSH32 0x4E487B7100000000000000000000000000000000000000000000000000000000 PUSH0 MSTORE PUSH1 0x31 PUSH1 0x4 MSTORE PUSH1 0x24 PUSH0 REVERT JUMPDEST PUSH32 0x4B657920616C7265616479206578697374730000000000000000000000000000 PUSH0 DUP3 ADD MSTORE POP JUMP JUMPDEST PUSH0 PUSH2 0xEF2 PUSH1 0x12 DUP4 PUSH2 0xABA JUMP JUMPDEST SWAP2 POP PUSH2 0xEFD DUP3 PUSH2 0xEBE JUMP JUMPDEST PUSH1 0x20 DUP3 ADD SWAP1 POP SWAP2 SWAP1 POP JUMP JUMPDEST PUSH0 PUSH1 0x20 DUP3 ADD SWAP1 POP DUP2 DUP2 SUB PUSH0 DUP4 ADD MSTORE PUSH2 0xF1F DUP2 PUSH2 0xEE6 JUMP JUMPDEST SWAP1 POP SWAP2 SWAP1 POP JUMP INVALID LOG2 PUSH5 0x6970667358 0x22 SLT KECCAK256 0xCA ADD PUSH22 0x7E40C0C9E028FCAC303F514FE82BB93E22492E4985FB PUSH3 0xF092D7 0xEE JUMP CREATE PUSH5 0x736F6C6343 STOP ADDMOD BYTE STOP CALLER "
				},
				"gasEstimates": {
					"creation": {
						"codeDepositCost": "786400",
						"executionCost": "816",
						"totalCost": "787216"
					},
					"external": {
						"addEntry(address,bytes)": "infinite",
						"getEntry(address)": "infinite",
						"removeEntry(address)": "infinite",
						"updateEntry(address,bytes)": "infinite"
					}
				},
				"methodIdentifiers": {
					"addEntry(address,bytes)": "bd456f76",
					"getEntry(address)": "7db6a4e4",
					"removeEntry(address)": "b66deb80",
					"updateEntry(address,bytes)": "160b35df"
				}
			},
			"storageLayout": {
				"storage": [
					{
						"astId": 192,
						"contract": "contracts/Blockchain_Assignment_7/week7_task8.sol:GenericMappingUser",
						"label": "myMap",
						"offset": 0,
						"slot": "0",
						"type": "t_struct(Map)13_storage"
					}
				],
				"types": {
					"t_address": {
						"encoding": "inplace",
						"label": "address",
						"numberOfBytes": "20"
					},
					"t_array(t_address)dyn_storage": {
						"base": "t_address",
						"encoding": "dynamic_array",
						"label": "address[]",
						"numberOfBytes": "32"
					},
					"t_bool": {
						"encoding": "inplace",
						"label": "bool",
						"numberOfBytes": "1"
					},
					"t_bytes_storage": {
						"encoding": "bytes",
						"label": "bytes",
						"numberOfBytes": "32"
					},
					"t_mapping(t_address,t_bool)": {
						"encoding": "mapping",
						"key": "t_address",
						"label": "mapping(address => bool)",
						"numberOfBytes": "32",
						"value": "t_bool"
					},
					"t_mapping(t_address,t_bytes_storage)": {
						"encoding": "mapping",
						"key": "t_address",
						"label": "mapping(address => bytes)",
						"numberOfBytes": "32",
						"value": "t_bytes_storage"
					},
					"t_struct(Map)13_storage": {
						"encoding": "inplace",
						"label": "struct GenericMapping.Map",
						"members": [
							{
								"astId": 5,
								"contract": "contracts/Blockchain_Assignment_7/week7_task8.sol:GenericMappingUser",
								"label": "data",
								"offset": 0,
								"slot": "0",
								"type": "t_mapping(t_address,t_bytes_storage)"
							},
							{
								"astId": 8,
								"contract": "contracts/Blockchain_Assignment_7/week7_task8.sol:GenericMappingUser",
								"label": "keys",
								"offset": 0,
								"slot": "1",
								"type": "t_array(t_address)dyn_storage"
							},
							{
								"astId": 12,
								"contract": "contracts/Blockchain_Assignment_7/week7_task8.sol:GenericMappingUser",
								"label": "exists",
								"offset": 0,
								"slot": "2",
								"type": "t_mapping(t_address,t_bool)"
							}
						],
						"numberOfBytes": "96"
					}
				}
			},
			"userdoc": {
				"kind": "user",
				"methods": {},
				"version": 1
			}
		}
	}
}