{
	"contracts/Blockchain_Assignment_7/week7_task4.sol": {
		"VotingSystem": {
			"abi": [
				{
					"anonymous": false,
					"inputs": [
						{
							"indexed": true,
							"internalType": "address",
							"name": "voter",
							"type": "address"
						},
						{
							"indexed": false,
							"internalType": "uint256",
							"name": "candidateIndex",
							"type": "uint256"
						}
					],
					"name": "VoteCast",
					"type": "event"
				},
				{
					"anonymous": false,
					"inputs": [],
					"name": "VotingEnded",
					"type": "event"
				},
				{
					"inputs": [
						{
							"internalType": "string",
							"name": "name",
							"type": "string"
						}
					],
					"name": "addCandidate",
					"outputs": [],
					"stateMutability": "nonpayable",
					"type": "function"
				},
				{
					"inputs": [
						{
							"internalType": "uint256",
							"name": "",
							"type": "uint256"
						}
					],
					"name": "candidates",
					"outputs": [
						{
							"internalType": "string",
							"name": "name",
							"type": "string"
						},
						{
							"internalType": "uint256",
							"name": "voteCount",
							"type": "uint256"
						}
					],
					"stateMutability": "view",
					"type": "function"
				},
				{
					"inputs": [],
					"name": "endVoting",
					"outputs": [],
					"stateMutability": "nonpayable",
					"type": "function"
				},
				{
					"inputs": [
						{
							"internalType": "uint256",
							"name": "index",
							"type": "uint256"
						}
					],
					"name": "getCandidate",
					"outputs": [
						{
							"internalType": "string",
							"name": "",
							"type": "string"
						},
						{
							"internalType": "uint256",
							"name": "",
							"type": "uint256"
						}
					],
					"stateMutability": "view",
					"type": "function"
				},
				{
					"inputs": [],
					"name": "getCandidateCount",
					"outputs": [
						{
							"internalType": "uint256",
							"name": "",
							"type": "uint256"
						}
					],
					"stateMutability": "view",
					"type": "function"
				},
				{
					"inputs": [
						{
							"internalType": "address",
							"name": "",
							"type": "address"
						}
					],
					"name": "hasVoted",
					"outputs": [
						{
							"internalType": "bool",
							"name": "",
							"type": "bool"
						}
					],
					"stateMutability": "view",
					"type": "function"
				},
				{
					"inputs": [
						{
							"internalType": "address",
							"name": "callbackAddress",
							"type": "address"
						}
					],
					"name": "registerCallback",
					"outputs": [],
					"stateMutability": "nonpayable",
					"type": "function"
				},
				{
					"inputs": [
						{
							"internalType": "uint256",
							"name": "candidateIndex",
							"type": "uint256"
						}
					],
					"name": "vote",
					"outputs": [],
					"stateMutability": "nonpayable",
					"type": "function"
				},
				{
					"inputs": [],
					"name": "votingEnded",
					"outputs": [
						{
							"internalType": "bool",
							"name": "",
							"type": "bool"
						}
					],
					"stateMutability": "view",
					"type": "function"
				}
			],
			"devdoc": {
				"kind": "dev",
				"methods": {},
				"version": 1
			},
			"evm": {
				"assembly": "    /* \"contracts/Blockchain_Assignment_7/week7_task4.sol\":128:2187  contract VotingSystem {... */\n  mstore(0x40, 0x80)\n  callvalue\n  dup1\n  iszero\n  tag_1\n  jumpi\n  0x00\n  dup1\n  revert\ntag_1:\n  pop\n  dataSize(sub_0)\n  dup1\n  dataOffset(sub_0)\n  0x00\n  codecopy\n  0x00\n  return\nstop\n\nsub_0: assembly {\n        /* \"contracts/Blockchain_Assignment_7/week7_task4.sol\":128:2187  contract VotingSystem {... */\n      mstore(0x40, 0x80)\n      callvalue\n      dup1\n      iszero\n      tag_1\n      jumpi\n      0x00\n      dup1\n      revert\n    tag_1:\n      pop\n      jumpi(tag_2, lt(calldatasize, 0x04))\n      shr(0xe0, calldataload(0x00))\n      dup1\n      0x35b8e820\n      gt\n      tag_12\n      jumpi\n      dup1\n      0x35b8e820\n      eq\n      tag_7\n      jumpi\n      dup1\n      0x462e91ec\n      eq\n      tag_8\n      jumpi\n      dup1\n      0x9d5a0529\n      eq\n      tag_9\n      jumpi\n      dup1\n      0xc3403ddf\n      eq\n      tag_10\n      jumpi\n      dup1\n      0xcf1b037c\n      eq\n      tag_11\n      jumpi\n      jump(tag_2)\n    tag_12:\n      dup1\n      0x0121b93f\n      eq\n      tag_3\n      jumpi\n      dup1\n      0x09eef43e\n      eq\n      tag_4\n      jumpi\n      dup1\n      0x30a56347\n      eq\n      tag_5\n      jumpi\n      dup1\n      0x3477ee2e\n      eq\n      tag_6\n      jumpi\n    tag_2:\n      0x00\n      dup1\n      revert\n        /* \"contracts/Blockchain_Assignment_7/week7_task4.sol\":1047:1413  function vote(uint256 candidateIndex) public onlyWhileVotingActive {... */\n    tag_3:\n      tag_13\n      0x04\n      dup1\n      calldatasize\n      sub\n      dup2\n      add\n      swap1\n      tag_14\n      swap2\n      swap1\n      tag_15\n      jump\t// in\n    tag_14:\n      tag_16\n      jump\t// in\n    tag_13:\n      stop\n        /* \"contracts/Blockchain_Assignment_7/week7_task4.sol\":276:316  mapping(address => bool) public hasVoted */\n    tag_4:\n      tag_17\n      0x04\n      dup1\n      calldatasize\n      sub\n      dup2\n      add\n      swap1\n      tag_18\n      swap2\n      swap1\n      tag_19\n      jump\t// in\n    tag_18:\n      tag_20\n      jump\t// in\n    tag_17:\n      mload(0x40)\n      tag_21\n      swap2\n      swap1\n      tag_22\n      jump\t// in\n    tag_21:\n      mload(0x40)\n      dup1\n      swap2\n      sub\n      swap1\n      return\n        /* \"contracts/Blockchain_Assignment_7/week7_task4.sol\":1780:1882  function getCandidateCount() public view returns (uint256) {... */\n    tag_5:\n      tag_23\n      tag_24\n      jump\t// in\n    tag_23:\n      mload(0x40)\n      tag_25\n      swap2\n      swap1\n      tag_26\n      jump\t// in\n    tag_25:\n      mload(0x40)\n      dup1\n      swap2\n      sub\n      swap1\n      return\n        /* \"contracts/Blockchain_Assignment_7/week7_task4.sol\":240:269  Candidate[] public candidates */\n    tag_6:\n      tag_27\n      0x04\n      dup1\n      calldatasize\n      sub\n      dup2\n      add\n      swap1\n      tag_28\n      swap2\n      swap1\n      tag_15\n      jump\t// in\n    tag_28:\n      tag_29\n      jump\t// in\n    tag_27:\n      mload(0x40)\n      tag_30\n      swap3\n      swap2\n      swap1\n      tag_31\n      jump\t// in\n    tag_30:\n      mload(0x40)\n      dup1\n      swap2\n      sub\n      swap1\n      return\n        /* \"contracts/Blockchain_Assignment_7/week7_task4.sol\":1920:2184  function getCandidate(uint256 index) public view returns (string memory, uint256) {... */\n    tag_7:\n      tag_32\n      0x04\n      dup1\n      calldatasize\n      sub\n      dup2\n      add\n      swap1\n      tag_33\n      swap2\n      swap1\n      tag_15\n      jump\t// in\n    tag_33:\n      tag_34\n      jump\t// in\n    tag_32:\n      mload(0x40)\n      tag_35\n      swap3\n      swap2\n      swap1\n      tag_31\n      jump\t// in\n    tag_35:\n      mload(0x40)\n      dup1\n      swap2\n      sub\n      swap1\n      return\n        /* \"contracts/Blockchain_Assignment_7/week7_task4.sol\":632:757  function addCandidate(string memory name) public onlyWhileVotingActive {... */\n    tag_8:\n      tag_36\n      0x04\n      dup1\n      calldatasize\n      sub\n      dup2\n      add\n      swap1\n      tag_37\n      swap2\n      swap1\n      tag_38\n      jump\t// in\n    tag_37:\n      tag_39\n      jump\t// in\n    tag_36:\n      stop\n        /* \"contracts/Blockchain_Assignment_7/week7_task4.sol\":367:390  bool public votingEnded */\n    tag_9:\n      tag_40\n      tag_41\n      jump\t// in\n    tag_40:\n      mload(0x40)\n      tag_42\n      swap2\n      swap1\n      tag_22\n      jump\t// in\n    tag_42:\n      mload(0x40)\n      dup1\n      swap2\n      sub\n      swap1\n      return\n        /* \"contracts/Blockchain_Assignment_7/week7_task4.sol\":1466:1729  function endVoting() public onlyWhileVotingActive {... */\n    tag_10:\n      tag_43\n      tag_44\n      jump\t// in\n    tag_43:\n      stop\n        /* \"contracts/Blockchain_Assignment_7/week7_task4.sol\":802:1019  function registerCallback(address callbackAddress) public onlyWhileVotingActive {... */\n    tag_11:\n      tag_45\n      0x04\n      dup1\n      calldatasize\n      sub\n      dup2\n      add\n      swap1\n      tag_46\n      swap2\n      swap1\n      tag_19\n      jump\t// in\n    tag_46:\n      tag_47\n      jump\t// in\n    tag_45:\n      stop\n        /* \"contracts/Blockchain_Assignment_7/week7_task4.sol\":1047:1413  function vote(uint256 candidateIndex) public onlyWhileVotingActive {... */\n    tag_16:\n        /* \"contracts/Blockchain_Assignment_7/week7_task4.sol\":548:559  votingEnded */\n      0x03\n      0x00\n      swap1\n      sload\n      swap1\n      0x0100\n      exp\n      swap1\n      div\n      0xff\n      and\n        /* \"contracts/Blockchain_Assignment_7/week7_task4.sol\":547:559  !votingEnded */\n      iszero\n        /* \"contracts/Blockchain_Assignment_7/week7_task4.sol\":539:580  require(!votingEnded, \"Voting has ended\") */\n      tag_49\n      jumpi\n      mload(0x40)\n      0x08c379a000000000000000000000000000000000000000000000000000000000\n      dup2\n      mstore\n      0x04\n      add\n      tag_50\n      swap1\n      tag_51\n      jump\t// in\n    tag_50:\n      mload(0x40)\n      dup1\n      swap2\n      sub\n      swap1\n      revert\n    tag_49:\n        /* \"contracts/Blockchain_Assignment_7/week7_task4.sol\":1150:1160  candidates */\n      0x00\n        /* \"contracts/Blockchain_Assignment_7/week7_task4.sol\":1150:1167  candidates.length */\n      dup1\n      sload\n      swap1\n      pop\n        /* \"contracts/Blockchain_Assignment_7/week7_task4.sol\":1133:1147  candidateIndex */\n      dup2\n        /* \"contracts/Blockchain_Assignment_7/week7_task4.sol\":1133:1167  candidateIndex < candidates.length */\n      lt\n        /* \"contracts/Blockchain_Assignment_7/week7_task4.sol\":1125:1195  require(candidateIndex < candidates.length, \"Invalid candidate index\") */\n      tag_53\n      jumpi\n      mload(0x40)\n      0x08c379a000000000000000000000000000000000000000000000000000000000\n      dup2\n      mstore\n      0x04\n      add\n      tag_54\n      swap1\n      tag_55\n      jump\t// in\n    tag_54:\n      mload(0x40)\n      dup1\n      swap2\n      sub\n      swap1\n      revert\n    tag_53:\n        /* \"contracts/Blockchain_Assignment_7/week7_task4.sol\":1215:1223  hasVoted */\n      0x01\n        /* \"contracts/Blockchain_Assignment_7/week7_task4.sol\":1215:1235  hasVoted[msg.sender] */\n      0x00\n        /* \"contracts/Blockchain_Assignment_7/week7_task4.sol\":1224:1234  msg.sender */\n      caller\n        /* \"contracts/Blockchain_Assignment_7/week7_task4.sol\":1215:1235  hasVoted[msg.sender] */\n      0xffffffffffffffffffffffffffffffffffffffff\n      and\n      0xffffffffffffffffffffffffffffffffffffffff\n      and\n      dup2\n      mstore\n      0x20\n      add\n      swap1\n      dup2\n      mstore\n      0x20\n      add\n      0x00\n      keccak256\n      0x00\n      swap1\n      sload\n      swap1\n      0x0100\n      exp\n      swap1\n      div\n      0xff\n      and\n        /* \"contracts/Blockchain_Assignment_7/week7_task4.sol\":1214:1235  !hasVoted[msg.sender] */\n      iszero\n        /* \"contracts/Blockchain_Assignment_7/week7_task4.sol\":1206:1262  require(!hasVoted[msg.sender], \"You have already voted\") */\n      tag_56\n      jumpi\n      mload(0x40)\n      0x08c379a000000000000000000000000000000000000000000000000000000000\n      dup2\n      mstore\n      0x04\n      add\n      tag_57\n      swap1\n      tag_58\n      jump\t// in\n    tag_57:\n      mload(0x40)\n      dup1\n      swap2\n      sub\n      swap1\n      revert\n    tag_56:\n        /* \"contracts/Blockchain_Assignment_7/week7_task4.sol\":1275:1285  candidates */\n      0x00\n        /* \"contracts/Blockchain_Assignment_7/week7_task4.sol\":1286:1300  candidateIndex */\n      dup2\n        /* \"contracts/Blockchain_Assignment_7/week7_task4.sol\":1275:1301  candidates[candidateIndex] */\n      dup2\n      sload\n      dup2\n      lt\n      tag_59\n      jumpi\n      tag_60\n      tag_61\n      jump\t// in\n    tag_60:\n    tag_59:\n      swap1\n      0x00\n      mstore\n      keccak256(0x00, 0x20)\n      swap1\n      0x02\n      mul\n      add\n        /* \"contracts/Blockchain_Assignment_7/week7_task4.sol\":1275:1311  candidates[candidateIndex].voteCount */\n      0x01\n      add\n      0x00\n        /* \"contracts/Blockchain_Assignment_7/week7_task4.sol\":1275:1313  candidates[candidateIndex].voteCount++ */\n      dup2\n      sload\n      dup1\n      swap3\n      swap2\n      swap1\n      tag_63\n      swap1\n      tag_64\n      jump\t// in\n    tag_63:\n      swap2\n      swap1\n      pop\n      sstore\n      pop\n        /* \"contracts/Blockchain_Assignment_7/week7_task4.sol\":1347:1351  true */\n      0x01\n        /* \"contracts/Blockchain_Assignment_7/week7_task4.sol\":1324:1332  hasVoted */\n      dup1\n        /* \"contracts/Blockchain_Assignment_7/week7_task4.sol\":1324:1344  hasVoted[msg.sender] */\n      0x00\n        /* \"contracts/Blockchain_Assignment_7/week7_task4.sol\":1333:1343  msg.sender */\n      caller\n        /* \"contracts/Blockchain_Assignment_7/week7_task4.sol\":1324:1344  hasVoted[msg.sender] */\n      0xffffffffffffffffffffffffffffffffffffffff\n      and\n      0xffffffffffffffffffffffffffffffffffffffff\n      and\n      dup2\n      mstore\n      0x20\n      add\n      swap1\n      dup2\n      mstore\n      0x20\n      add\n      0x00\n      keccak256\n      0x00\n        /* \"contracts/Blockchain_Assignment_7/week7_task4.sol\":1324:1351  hasVoted[msg.sender] = true */\n      0x0100\n      exp\n      dup2\n      sload\n      dup2\n      0xff\n      mul\n      not\n      and\n      swap1\n      dup4\n      iszero\n      iszero\n      mul\n      or\n      swap1\n      sstore\n      pop\n        /* \"contracts/Blockchain_Assignment_7/week7_task4.sol\":1378:1388  msg.sender */\n      caller\n        /* \"contracts/Blockchain_Assignment_7/week7_task4.sol\":1369:1405  VoteCast(msg.sender, candidateIndex) */\n      0xffffffffffffffffffffffffffffffffffffffff\n      and\n      0xa36cc2bebb74db33e9f88110a07ef56e1b31b24b4c4f51b54b1664266e29f45b\n        /* \"contracts/Blockchain_Assignment_7/week7_task4.sol\":1390:1404  candidateIndex */\n      dup3\n        /* \"contracts/Blockchain_Assignment_7/week7_task4.sol\":1369:1405  VoteCast(msg.sender, candidateIndex) */\n      mload(0x40)\n      tag_65\n      swap2\n      swap1\n      tag_26\n      jump\t// in\n    tag_65:\n      mload(0x40)\n      dup1\n      swap2\n      sub\n      swap1\n      log2\n        /* \"contracts/Blockchain_Assignment_7/week7_task4.sol\":1047:1413  function vote(uint256 candidateIndex) public onlyWhileVotingActive {... */\n      pop\n      jump\t// out\n        /* \"contracts/Blockchain_Assignment_7/week7_task4.sol\":276:316  mapping(address => bool) public hasVoted */\n    tag_20:\n      mstore(0x20, 0x01)\n      dup1\n      0x00\n      mstore\n      keccak256(0x00, 0x40)\n      0x00\n      swap2\n      pop\n      sload\n      swap1\n      0x0100\n      exp\n      swap1\n      div\n      0xff\n      and\n      dup2\n      jump\t// out\n        /* \"contracts/Blockchain_Assignment_7/week7_task4.sol\":1780:1882  function getCandidateCount() public view returns (uint256) {... */\n    tag_24:\n        /* \"contracts/Blockchain_Assignment_7/week7_task4.sol\":1830:1837  uint256 */\n      0x00\n        /* \"contracts/Blockchain_Assignment_7/week7_task4.sol\":1857:1867  candidates */\n      dup1\n        /* \"contracts/Blockchain_Assignment_7/week7_task4.sol\":1857:1874  candidates.length */\n      dup1\n      sload\n      swap1\n      pop\n        /* \"contracts/Blockchain_Assignment_7/week7_task4.sol\":1850:1874  return candidates.length */\n      swap1\n      pop\n        /* \"contracts/Blockchain_Assignment_7/week7_task4.sol\":1780:1882  function getCandidateCount() public view returns (uint256) {... */\n      swap1\n      jump\t// out\n        /* \"contracts/Blockchain_Assignment_7/week7_task4.sol\":240:269  Candidate[] public candidates */\n    tag_29:\n      0x00\n      dup2\n      dup2\n      sload\n      dup2\n      lt\n      tag_67\n      jumpi\n      0x00\n      dup1\n      revert\n    tag_67:\n      swap1\n      0x00\n      mstore\n      keccak256(0x00, 0x20)\n      swap1\n      0x02\n      mul\n      add\n      0x00\n      swap2\n      pop\n      swap1\n      pop\n      dup1\n      0x00\n      add\n      dup1\n      sload\n      tag_69\n      swap1\n      tag_70\n      jump\t// in\n    tag_69:\n      dup1\n      0x1f\n      add\n      0x20\n      dup1\n      swap2\n      div\n      mul\n      0x20\n      add\n      mload(0x40)\n      swap1\n      dup2\n      add\n      0x40\n      mstore\n      dup1\n      swap3\n      swap2\n      swap1\n      dup2\n      dup2\n      mstore\n      0x20\n      add\n      dup3\n      dup1\n      sload\n      tag_71\n      swap1\n      tag_70\n      jump\t// in\n    tag_71:\n      dup1\n      iszero\n      tag_72\n      jumpi\n      dup1\n      0x1f\n      lt\n      tag_73\n      jumpi\n      0x0100\n      dup1\n      dup4\n      sload\n      div\n      mul\n      dup4\n      mstore\n      swap2\n      0x20\n      add\n      swap2\n      jump(tag_72)\n    tag_73:\n      dup3\n      add\n      swap2\n      swap1\n      0x00\n      mstore\n      keccak256(0x00, 0x20)\n      swap1\n    tag_74:\n      dup2\n      sload\n      dup2\n      mstore\n      swap1\n      0x01\n      add\n      swap1\n      0x20\n      add\n      dup1\n      dup4\n      gt\n      tag_74\n      jumpi\n      dup3\n      swap1\n      sub\n      0x1f\n      and\n      dup3\n      add\n      swap2\n    tag_72:\n      pop\n      pop\n      pop\n      pop\n      pop\n      swap1\n      dup1\n      0x01\n      add\n      sload\n      swap1\n      pop\n      dup3\n      jump\t// out\n        /* \"contracts/Blockchain_Assignment_7/week7_task4.sol\":1920:2184  function getCandidate(uint256 index) public view returns (string memory, uint256) {... */\n    tag_34:\n        /* \"contracts/Blockchain_Assignment_7/week7_task4.sol\":1978:1991  string memory */\n      0x60\n        /* \"contracts/Blockchain_Assignment_7/week7_task4.sol\":1993:2000  uint256 */\n      0x00\n        /* \"contracts/Blockchain_Assignment_7/week7_task4.sol\":2029:2039  candidates */\n      dup1\n        /* \"contracts/Blockchain_Assignment_7/week7_task4.sol\":2029:2046  candidates.length */\n      dup1\n      sload\n      swap1\n      pop\n        /* \"contracts/Blockchain_Assignment_7/week7_task4.sol\":2021:2026  index */\n      dup4\n        /* \"contracts/Blockchain_Assignment_7/week7_task4.sol\":2021:2046  index < candidates.length */\n      lt\n        /* \"contracts/Blockchain_Assignment_7/week7_task4.sol\":2013:2064  require(index < candidates.length, \"Invalid index\") */\n      tag_76\n      jumpi\n      mload(0x40)\n      0x08c379a000000000000000000000000000000000000000000000000000000000\n      dup2\n      mstore\n      0x04\n      add\n      tag_77\n      swap1\n      tag_78\n      jump\t// in\n    tag_77:\n      mload(0x40)\n      dup1\n      swap2\n      sub\n      swap1\n      revert\n    tag_76:\n        /* \"contracts/Blockchain_Assignment_7/week7_task4.sol\":2075:2101  Candidate memory candidate */\n      0x00\n        /* \"contracts/Blockchain_Assignment_7/week7_task4.sol\":2104:2114  candidates */\n      dup1\n        /* \"contracts/Blockchain_Assignment_7/week7_task4.sol\":2115:2120  index */\n      dup5\n        /* \"contracts/Blockchain_Assignment_7/week7_task4.sol\":2104:2121  candidates[index] */\n      dup2\n      sload\n      dup2\n      lt\n      tag_79\n      jumpi\n      tag_80\n      tag_61\n      jump\t// in\n    tag_80:\n    tag_79:\n      swap1\n      0x00\n      mstore\n      keccak256(0x00, 0x20)\n      swap1\n      0x02\n      mul\n      add\n        /* \"contracts/Blockchain_Assignment_7/week7_task4.sol\":2075:2121  Candidate memory candidate = candidates[index] */\n      mload(0x40)\n      dup1\n      0x40\n      add\n      0x40\n      mstore\n      swap1\n      dup2\n      0x00\n      dup3\n      add\n      dup1\n      sload\n      tag_82\n      swap1\n      tag_70\n      jump\t// in\n    tag_82:\n      dup1\n      0x1f\n      add\n      0x20\n      dup1\n      swap2\n      div\n      mul\n      0x20\n      add\n      mload(0x40)\n      swap1\n      dup2\n      add\n      0x40\n      mstore\n      dup1\n      swap3\n      swap2\n      swap1\n      dup2\n      dup2\n      mstore\n      0x20\n      add\n      dup3\n      dup1\n      sload\n      tag_83\n      swap1\n      tag_70\n      jump\t// in\n    tag_83:\n      dup1\n      iszero\n      tag_84\n      jumpi\n      dup1\n      0x1f\n      lt\n      tag_85\n      jumpi\n      0x0100\n      dup1\n      dup4\n      sload\n      div\n      mul\n      dup4\n      mstore\n      swap2\n      0x20\n      add\n      swap2\n      jump(tag_84)\n    tag_85:\n      dup3\n      add\n      swap2\n      swap1\n      0x00\n      mstore\n      keccak256(0x00, 0x20)\n      swap1\n    tag_86:\n      dup2\n      sload\n      dup2\n      mstore\n      swap1\n      0x01\n      add\n      swap1\n      0x20\n      add\n      dup1\n      dup4\n      gt\n      tag_86\n      jumpi\n      dup3\n      swap1\n      sub\n      0x1f\n      and\n      dup3\n      add\n      swap2\n    tag_84:\n      pop\n      pop\n      pop\n      pop\n      pop\n      dup2\n      mstore\n      0x20\n      add\n      0x01\n      dup3\n      add\n      sload\n      dup2\n      mstore\n      pop\n      pop\n      swap1\n      pop\n        /* \"contracts/Blockchain_Assignment_7/week7_task4.sol\":2140:2149  candidate */\n      dup1\n        /* \"contracts/Blockchain_Assignment_7/week7_task4.sol\":2140:2154  candidate.name */\n      0x00\n      add\n      mload\n        /* \"contracts/Blockchain_Assignment_7/week7_task4.sol\":2156:2165  candidate */\n      dup2\n        /* \"contracts/Blockchain_Assignment_7/week7_task4.sol\":2156:2175  candidate.voteCount */\n      0x20\n      add\n      mload\n        /* \"contracts/Blockchain_Assignment_7/week7_task4.sol\":2132:2176  return (candidate.name, candidate.voteCount) */\n      swap3\n      pop\n      swap3\n      pop\n      pop\n        /* \"contracts/Blockchain_Assignment_7/week7_task4.sol\":1920:2184  function getCandidate(uint256 index) public view returns (string memory, uint256) {... */\n      swap2\n      pop\n      swap2\n      jump\t// out\n        /* \"contracts/Blockchain_Assignment_7/week7_task4.sol\":632:757  function addCandidate(string memory name) public onlyWhileVotingActive {... */\n    tag_39:\n        /* \"contracts/Blockchain_Assignment_7/week7_task4.sol\":548:559  votingEnded */\n      0x03\n      0x00\n      swap1\n      sload\n      swap1\n      0x0100\n      exp\n      swap1\n      div\n      0xff\n      and\n        /* \"contracts/Blockchain_Assignment_7/week7_task4.sol\":547:559  !votingEnded */\n      iszero\n        /* \"contracts/Blockchain_Assignment_7/week7_task4.sol\":539:580  require(!votingEnded, \"Voting has ended\") */\n      tag_88\n      jumpi\n      mload(0x40)\n      0x08c379a000000000000000000000000000000000000000000000000000000000\n      dup2\n      mstore\n      0x04\n      add\n      tag_89\n      swap1\n      tag_51\n      jump\t// in\n    tag_89:\n      mload(0x40)\n      dup1\n      swap2\n      sub\n      swap1\n      revert\n    tag_88:\n        /* \"contracts/Blockchain_Assignment_7/week7_task4.sol\":714:724  candidates */\n      0x00\n        /* \"contracts/Blockchain_Assignment_7/week7_task4.sol\":730:748  Candidate(name, 0) */\n      mload(0x40)\n      dup1\n      0x40\n      add\n      0x40\n      mstore\n      dup1\n        /* \"contracts/Blockchain_Assignment_7/week7_task4.sol\":740:744  name */\n      dup4\n        /* \"contracts/Blockchain_Assignment_7/week7_task4.sol\":730:748  Candidate(name, 0) */\n      dup2\n      mstore\n      0x20\n      add\n        /* \"contracts/Blockchain_Assignment_7/week7_task4.sol\":746:747  0 */\n      0x00\n        /* \"contracts/Blockchain_Assignment_7/week7_task4.sol\":730:748  Candidate(name, 0) */\n      dup2\n      mstore\n      pop\n        /* \"contracts/Blockchain_Assignment_7/week7_task4.sol\":714:749  candidates.push(Candidate(name, 0)) */\n      swap1\n      dup1\n      0x01\n      dup2\n      sload\n      add\n      dup1\n      dup3\n      sstore\n      dup1\n      swap2\n      pop\n      pop\n      0x01\n      swap1\n      sub\n      swap1\n      0x00\n      mstore\n      keccak256(0x00, 0x20)\n      swap1\n      0x02\n      mul\n      add\n      0x00\n      swap1\n      swap2\n      swap1\n      swap2\n      swap1\n      swap2\n      pop\n      0x00\n      dup3\n      add\n      mload\n      dup2\n      0x00\n      add\n      swap1\n      dup2\n      tag_92\n      swap2\n      swap1\n      tag_93\n      jump\t// in\n    tag_92:\n      pop\n      0x20\n      dup3\n      add\n      mload\n      dup2\n      0x01\n      add\n      sstore\n      pop\n      pop\n        /* \"contracts/Blockchain_Assignment_7/week7_task4.sol\":632:757  function addCandidate(string memory name) public onlyWhileVotingActive {... */\n      pop\n      jump\t// out\n        /* \"contracts/Blockchain_Assignment_7/week7_task4.sol\":367:390  bool public votingEnded */\n    tag_41:\n      0x03\n      0x00\n      swap1\n      sload\n      swap1\n      0x0100\n      exp\n      swap1\n      div\n      0xff\n      and\n      dup2\n      jump\t// out\n        /* \"contracts/Blockchain_Assignment_7/week7_task4.sol\":1466:1729  function endVoting() public onlyWhileVotingActive {... */\n    tag_44:\n        /* \"contracts/Blockchain_Assignment_7/week7_task4.sol\":548:559  votingEnded */\n      0x03\n      0x00\n      swap1\n      sload\n      swap1\n      0x0100\n      exp\n      swap1\n      div\n      0xff\n      and\n        /* \"contracts/Blockchain_Assignment_7/week7_task4.sol\":547:559  !votingEnded */\n      iszero\n        /* \"contracts/Blockchain_Assignment_7/week7_task4.sol\":539:580  require(!votingEnded, \"Voting has ended\") */\n      tag_95\n      jumpi\n      mload(0x40)\n      0x08c379a000000000000000000000000000000000000000000000000000000000\n      dup2\n      mstore\n      0x04\n      add\n      tag_96\n      swap1\n      tag_51\n      jump\t// in\n    tag_96:\n      mload(0x40)\n      dup1\n      swap2\n      sub\n      swap1\n      revert\n    tag_95:\n        /* \"contracts/Blockchain_Assignment_7/week7_task4.sol\":1541:1545  true */\n      0x01\n        /* \"contracts/Blockchain_Assignment_7/week7_task4.sol\":1527:1538  votingEnded */\n      0x03\n      0x00\n        /* \"contracts/Blockchain_Assignment_7/week7_task4.sol\":1527:1545  votingEnded = true */\n      0x0100\n      exp\n      dup2\n      sload\n      dup2\n      0xff\n      mul\n      not\n      and\n      swap1\n      dup4\n      iszero\n      iszero\n      mul\n      or\n      swap1\n      sstore\n      pop\n        /* \"contracts/Blockchain_Assignment_7/week7_task4.sol\":1563:1572  uint256 i */\n      0x00\n        /* \"contracts/Blockchain_Assignment_7/week7_task4.sol\":1558:1691  for (uint256 i = 0; i < registeredCallbacks.length; i++) {... */\n    tag_98:\n        /* \"contracts/Blockchain_Assignment_7/week7_task4.sol\":1582:1601  registeredCallbacks */\n      0x02\n        /* \"contracts/Blockchain_Assignment_7/week7_task4.sol\":1582:1608  registeredCallbacks.length */\n      dup1\n      sload\n      swap1\n      pop\n        /* \"contracts/Blockchain_Assignment_7/week7_task4.sol\":1578:1579  i */\n      dup2\n        /* \"contracts/Blockchain_Assignment_7/week7_task4.sol\":1578:1608  i < registeredCallbacks.length */\n      lt\n        /* \"contracts/Blockchain_Assignment_7/week7_task4.sol\":1558:1691  for (uint256 i = 0; i < registeredCallbacks.length; i++) {... */\n      iszero\n      tag_99\n      jumpi\n        /* \"contracts/Blockchain_Assignment_7/week7_task4.sol\":1640:1659  registeredCallbacks */\n      0x02\n        /* \"contracts/Blockchain_Assignment_7/week7_task4.sol\":1660:1661  i */\n      dup2\n        /* \"contracts/Blockchain_Assignment_7/week7_task4.sol\":1640:1662  registeredCallbacks[i] */\n      dup2\n      sload\n      dup2\n      lt\n      tag_101\n      jumpi\n      tag_102\n      tag_61\n      jump\t// in\n    tag_102:\n    tag_101:\n      swap1\n      0x00\n      mstore\n      keccak256(0x00, 0x20)\n      add\n      0x00\n      swap1\n      sload\n      swap1\n      0x0100\n      exp\n      swap1\n      div\n      0xffffffffffffffffffffffffffffffffffffffff\n      and\n        /* \"contracts/Blockchain_Assignment_7/week7_task4.sol\":1630:1677  ICallback(registeredCallbacks[i]).onVotingEnded */\n      0xffffffffffffffffffffffffffffffffffffffff\n      and\n      0x490b56d0\n        /* \"contracts/Blockchain_Assignment_7/week7_task4.sol\":1630:1679  ICallback(registeredCallbacks[i]).onVotingEnded() */\n      mload(0x40)\n      dup2\n      0xffffffff\n      and\n      0xe0\n      shl\n      dup2\n      mstore\n      0x04\n      add\n      0x00\n      mload(0x40)\n      dup1\n      dup4\n      sub\n      dup2\n      0x00\n      dup8\n      dup1\n      extcodesize\n      iszero\n      dup1\n      iszero\n      tag_104\n      jumpi\n      0x00\n      dup1\n      revert\n    tag_104:\n      pop\n      gas\n      call\n      iszero\n      dup1\n      iszero\n      tag_106\n      jumpi\n      returndatasize\n      0x00\n      dup1\n      returndatacopy\n      revert(0x00, returndatasize)\n    tag_106:\n      pop\n      pop\n      pop\n      pop\n        /* \"contracts/Blockchain_Assignment_7/week7_task4.sol\":1610:1613  i++ */\n      dup1\n      dup1\n      0x01\n      add\n      swap2\n      pop\n      pop\n        /* \"contracts/Blockchain_Assignment_7/week7_task4.sol\":1558:1691  for (uint256 i = 0; i < registeredCallbacks.length; i++) {... */\n      jump(tag_98)\n    tag_99:\n      pop\n        /* \"contracts/Blockchain_Assignment_7/week7_task4.sol\":1708:1721  VotingEnded() */\n      0x7a19ed057db79e3c2fa0b97a54b43bef4fce74b31bb6c01af514b9a18a7f70ab\n      mload(0x40)\n      mload(0x40)\n      dup1\n      swap2\n      sub\n      swap1\n      log1\n        /* \"contracts/Blockchain_Assignment_7/week7_task4.sol\":1466:1729  function endVoting() public onlyWhileVotingActive {... */\n      jump\t// out\n        /* \"contracts/Blockchain_Assignment_7/week7_task4.sol\":802:1019  function registerCallback(address callbackAddress) public onlyWhileVotingActive {... */\n    tag_47:\n        /* \"contracts/Blockchain_Assignment_7/week7_task4.sol\":548:559  votingEnded */\n      0x03\n      0x00\n      swap1\n      sload\n      swap1\n      0x0100\n      exp\n      swap1\n      div\n      0xff\n      and\n        /* \"contracts/Blockchain_Assignment_7/week7_task4.sol\":547:559  !votingEnded */\n      iszero\n        /* \"contracts/Blockchain_Assignment_7/week7_task4.sol\":539:580  require(!votingEnded, \"Voting has ended\") */\n      tag_108\n      jumpi\n      mload(0x40)\n      0x08c379a000000000000000000000000000000000000000000000000000000000\n      dup2\n      mstore\n      0x04\n      add\n      tag_109\n      swap1\n      tag_51\n      jump\t// in\n    tag_109:\n      mload(0x40)\n      dup1\n      swap2\n      sub\n      swap1\n      revert\n    tag_108:\n        /* \"contracts/Blockchain_Assignment_7/week7_task4.sol\":928:929  0 */\n      0x00\n        /* \"contracts/Blockchain_Assignment_7/week7_task4.sol\":901:930  callbackAddress != address(0) */\n      0xffffffffffffffffffffffffffffffffffffffff\n      and\n        /* \"contracts/Blockchain_Assignment_7/week7_task4.sol\":901:916  callbackAddress */\n      dup2\n        /* \"contracts/Blockchain_Assignment_7/week7_task4.sol\":901:930  callbackAddress != address(0) */\n      0xffffffffffffffffffffffffffffffffffffffff\n      and\n      sub\n        /* \"contracts/Blockchain_Assignment_7/week7_task4.sol\":893:959  require(callbackAddress != address(0), \"Invalid callback address\") */\n      tag_111\n      jumpi\n      mload(0x40)\n      0x08c379a000000000000000000000000000000000000000000000000000000000\n      dup2\n      mstore\n      0x04\n      add\n      tag_112\n      swap1\n      tag_113\n      jump\t// in\n    tag_112:\n      mload(0x40)\n      dup1\n      swap2\n      sub\n      swap1\n      revert\n    tag_111:\n        /* \"contracts/Blockchain_Assignment_7/week7_task4.sol\":970:989  registeredCallbacks */\n      0x02\n        /* \"contracts/Blockchain_Assignment_7/week7_task4.sol\":995:1010  callbackAddress */\n      dup2\n        /* \"contracts/Blockchain_Assignment_7/week7_task4.sol\":970:1011  registeredCallbacks.push(callbackAddress) */\n      swap1\n      dup1\n      0x01\n      dup2\n      sload\n      add\n      dup1\n      dup3\n      sstore\n      dup1\n      swap2\n      pop\n      pop\n      0x01\n      swap1\n      sub\n      swap1\n      0x00\n      mstore\n      keccak256(0x00, 0x20)\n      add\n      0x00\n      swap1\n      swap2\n      swap1\n      swap2\n      swap1\n      swap2\n      0x0100\n      exp\n      dup2\n      sload\n      dup2\n      0xffffffffffffffffffffffffffffffffffffffff\n      mul\n      not\n      and\n      swap1\n      dup4\n      0xffffffffffffffffffffffffffffffffffffffff\n      and\n      mul\n      or\n      swap1\n      sstore\n      pop\n        /* \"contracts/Blockchain_Assignment_7/week7_task4.sol\":802:1019  function registerCallback(address callbackAddress) public onlyWhileVotingActive {... */\n      pop\n      jump\t// out\n        /* \"#utility.yul\":7:82   */\n    tag_115:\n        /* \"#utility.yul\":40:46   */\n      0x00\n        /* \"#utility.yul\":73:75   */\n      0x40\n        /* \"#utility.yul\":67:76   */\n      mload\n        /* \"#utility.yul\":57:76   */\n      swap1\n      pop\n        /* \"#utility.yul\":7:82   */\n      swap1\n      jump\t// out\n        /* \"#utility.yul\":88:205   */\n    tag_116:\n        /* \"#utility.yul\":197:198   */\n      0x00\n        /* \"#utility.yul\":194:195   */\n      dup1\n        /* \"#utility.yul\":187:199   */\n      revert\n        /* \"#utility.yul\":211:328   */\n    tag_117:\n        /* \"#utility.yul\":320:321   */\n      0x00\n        /* \"#utility.yul\":317:318   */\n      dup1\n        /* \"#utility.yul\":310:322   */\n      revert\n        /* \"#utility.yul\":334:411   */\n    tag_118:\n        /* \"#utility.yul\":371:378   */\n      0x00\n        /* \"#utility.yul\":400:405   */\n      dup2\n        /* \"#utility.yul\":389:405   */\n      swap1\n      pop\n        /* \"#utility.yul\":334:411   */\n      swap2\n      swap1\n      pop\n      jump\t// out\n        /* \"#utility.yul\":417:539   */\n    tag_119:\n        /* \"#utility.yul\":490:514   */\n      tag_175\n        /* \"#utility.yul\":508:513   */\n      dup2\n        /* \"#utility.yul\":490:514   */\n      tag_118\n      jump\t// in\n    tag_175:\n        /* \"#utility.yul\":483:488   */\n      dup2\n        /* \"#utility.yul\":480:515   */\n      eq\n        /* \"#utility.yul\":470:533   */\n      tag_176\n      jumpi\n        /* \"#utility.yul\":529:530   */\n      0x00\n        /* \"#utility.yul\":526:527   */\n      dup1\n        /* \"#utility.yul\":519:531   */\n      revert\n        /* \"#utility.yul\":470:533   */\n    tag_176:\n        /* \"#utility.yul\":417:539   */\n      pop\n      jump\t// out\n        /* \"#utility.yul\":545:684   */\n    tag_120:\n        /* \"#utility.yul\":591:596   */\n      0x00\n        /* \"#utility.yul\":629:635   */\n      dup2\n        /* \"#utility.yul\":616:636   */\n      calldataload\n        /* \"#utility.yul\":607:636   */\n      swap1\n      pop\n        /* \"#utility.yul\":645:678   */\n      tag_178\n        /* \"#utility.yul\":672:677   */\n      dup2\n        /* \"#utility.yul\":645:678   */\n      tag_119\n      jump\t// in\n    tag_178:\n        /* \"#utility.yul\":545:684   */\n      swap3\n      swap2\n      pop\n      pop\n      jump\t// out\n        /* \"#utility.yul\":690:1019   */\n    tag_15:\n        /* \"#utility.yul\":749:755   */\n      0x00\n        /* \"#utility.yul\":798:800   */\n      0x20\n        /* \"#utility.yul\":786:795   */\n      dup3\n        /* \"#utility.yul\":777:784   */\n      dup5\n        /* \"#utility.yul\":773:796   */\n      sub\n        /* \"#utility.yul\":769:801   */\n      slt\n        /* \"#utility.yul\":766:885   */\n      iszero\n      tag_180\n      jumpi\n        /* \"#utility.yul\":804:883   */\n      tag_181\n      tag_116\n      jump\t// in\n    tag_181:\n        /* \"#utility.yul\":766:885   */\n    tag_180:\n        /* \"#utility.yul\":924:925   */\n      0x00\n        /* \"#utility.yul\":949:1002   */\n      tag_182\n        /* \"#utility.yul\":994:1001   */\n      dup5\n        /* \"#utility.yul\":985:991   */\n      dup3\n        /* \"#utility.yul\":974:983   */\n      dup6\n        /* \"#utility.yul\":970:992   */\n      add\n        /* \"#utility.yul\":949:1002   */\n      tag_120\n      jump\t// in\n    tag_182:\n        /* \"#utility.yul\":939:1002   */\n      swap2\n      pop\n        /* \"#utility.yul\":895:1012   */\n      pop\n        /* \"#utility.yul\":690:1019   */\n      swap3\n      swap2\n      pop\n      pop\n      jump\t// out\n        /* \"#utility.yul\":1025:1151   */\n    tag_121:\n        /* \"#utility.yul\":1062:1069   */\n      0x00\n        /* \"#utility.yul\":1102:1144   */\n      0xffffffffffffffffffffffffffffffffffffffff\n        /* \"#utility.yul\":1095:1100   */\n      dup3\n        /* \"#utility.yul\":1091:1145   */\n      and\n        /* \"#utility.yul\":1080:1145   */\n      swap1\n      pop\n        /* \"#utility.yul\":1025:1151   */\n      swap2\n      swap1\n      pop\n      jump\t// out\n        /* \"#utility.yul\":1157:1253   */\n    tag_122:\n        /* \"#utility.yul\":1194:1201   */\n      0x00\n        /* \"#utility.yul\":1223:1247   */\n      tag_185\n        /* \"#utility.yul\":1241:1246   */\n      dup3\n        /* \"#utility.yul\":1223:1247   */\n      tag_121\n      jump\t// in\n    tag_185:\n        /* \"#utility.yul\":1212:1247   */\n      swap1\n      pop\n        /* \"#utility.yul\":1157:1253   */\n      swap2\n      swap1\n      pop\n      jump\t// out\n        /* \"#utility.yul\":1259:1381   */\n    tag_123:\n        /* \"#utility.yul\":1332:1356   */\n      tag_187\n        /* \"#utility.yul\":1350:1355   */\n      dup2\n        /* \"#utility.yul\":1332:1356   */\n      tag_122\n      jump\t// in\n    tag_187:\n        /* \"#utility.yul\":1325:1330   */\n      dup2\n        /* \"#utility.yul\":1322:1357   */\n      eq\n        /* \"#utility.yul\":1312:1375   */\n      tag_188\n      jumpi\n        /* \"#utility.yul\":1371:1372   */\n      0x00\n        /* \"#utility.yul\":1368:1369   */\n      dup1\n        /* \"#utility.yul\":1361:1373   */\n      revert\n        /* \"#utility.yul\":1312:1375   */\n    tag_188:\n        /* \"#utility.yul\":1259:1381   */\n      pop\n      jump\t// out\n        /* \"#utility.yul\":1387:1526   */\n    tag_124:\n        /* \"#utility.yul\":1433:1438   */\n      0x00\n        /* \"#utility.yul\":1471:1477   */\n      dup2\n        /* \"#utility.yul\":1458:1478   */\n      calldataload\n        /* \"#utility.yul\":1449:1478   */\n      swap1\n      pop\n        /* \"#utility.yul\":1487:1520   */\n      tag_190\n        /* \"#utility.yul\":1514:1519   */\n      dup2\n        /* \"#utility.yul\":1487:1520   */\n      tag_123\n      jump\t// in\n    tag_190:\n        /* \"#utility.yul\":1387:1526   */\n      swap3\n      swap2\n      pop\n      pop\n      jump\t// out\n        /* \"#utility.yul\":1532:1861   */\n    tag_19:\n        /* \"#utility.yul\":1591:1597   */\n      0x00\n        /* \"#utility.yul\":1640:1642   */\n      0x20\n        /* \"#utility.yul\":1628:1637   */\n      dup3\n        /* \"#utility.yul\":1619:1626   */\n      dup5\n        /* \"#utility.yul\":1615:1638   */\n      sub\n        /* \"#utility.yul\":1611:1643   */\n      slt\n        /* \"#utility.yul\":1608:1727   */\n      iszero\n      tag_192\n      jumpi\n        /* \"#utility.yul\":1646:1725   */\n      tag_193\n      tag_116\n      jump\t// in\n    tag_193:\n        /* \"#utility.yul\":1608:1727   */\n    tag_192:\n        /* \"#utility.yul\":1766:1767   */\n      0x00\n        /* \"#utility.yul\":1791:1844   */\n      tag_194\n        /* \"#utility.yul\":1836:1843   */\n      dup5\n        /* \"#utility.yul\":1827:1833   */\n      dup3\n        /* \"#utility.yul\":1816:1825   */\n      dup6\n        /* \"#utility.yul\":1812:1834   */\n      add\n        /* \"#utility.yul\":1791:1844   */\n      tag_124\n      jump\t// in\n    tag_194:\n        /* \"#utility.yul\":1781:1844   */\n      swap2\n      pop\n        /* \"#utility.yul\":1737:1854   */\n      pop\n        /* \"#utility.yul\":1532:1861   */\n      swap3\n      swap2\n      pop\n      pop\n      jump\t// out\n        /* \"#utility.yul\":1867:1957   */\n    tag_125:\n        /* \"#utility.yul\":1901:1908   */\n      0x00\n        /* \"#utility.yul\":1944:1949   */\n      dup2\n        /* \"#utility.yul\":1937:1950   */\n      iszero\n        /* \"#utility.yul\":1930:1951   */\n      iszero\n        /* \"#utility.yul\":1919:1951   */\n      swap1\n      pop\n        /* \"#utility.yul\":1867:1957   */\n      swap2\n      swap1\n      pop\n      jump\t// out\n        /* \"#utility.yul\":1963:2072   */\n    tag_126:\n        /* \"#utility.yul\":2044:2065   */\n      tag_197\n        /* \"#utility.yul\":2059:2064   */\n      dup2\n        /* \"#utility.yul\":2044:2065   */\n      tag_125\n      jump\t// in\n    tag_197:\n        /* \"#utility.yul\":2039:2042   */\n      dup3\n        /* \"#utility.yul\":2032:2066   */\n      mstore\n        /* \"#utility.yul\":1963:2072   */\n      pop\n      pop\n      jump\t// out\n        /* \"#utility.yul\":2078:2288   */\n    tag_22:\n        /* \"#utility.yul\":2165:2169   */\n      0x00\n        /* \"#utility.yul\":2203:2205   */\n      0x20\n        /* \"#utility.yul\":2192:2201   */\n      dup3\n        /* \"#utility.yul\":2188:2206   */\n      add\n        /* \"#utility.yul\":2180:2206   */\n      swap1\n      pop\n        /* \"#utility.yul\":2216:2281   */\n      tag_199\n        /* \"#utility.yul\":2278:2279   */\n      0x00\n        /* \"#utility.yul\":2267:2276   */\n      dup4\n        /* \"#utility.yul\":2263:2280   */\n      add\n        /* \"#utility.yul\":2254:2260   */\n      dup5\n        /* \"#utility.yul\":2216:2281   */\n      tag_126\n      jump\t// in\n    tag_199:\n        /* \"#utility.yul\":2078:2288   */\n      swap3\n      swap2\n      pop\n      pop\n      jump\t// out\n        /* \"#utility.yul\":2294:2412   */\n    tag_127:\n        /* \"#utility.yul\":2381:2405   */\n      tag_201\n        /* \"#utility.yul\":2399:2404   */\n      dup2\n        /* \"#utility.yul\":2381:2405   */\n      tag_118\n      jump\t// in\n    tag_201:\n        /* \"#utility.yul\":2376:2379   */\n      dup3\n        /* \"#utility.yul\":2369:2406   */\n      mstore\n        /* \"#utility.yul\":2294:2412   */\n      pop\n      pop\n      jump\t// out\n        /* \"#utility.yul\":2418:2640   */\n    tag_26:\n        /* \"#utility.yul\":2511:2515   */\n      0x00\n        /* \"#utility.yul\":2549:2551   */\n      0x20\n        /* \"#utility.yul\":2538:2547   */\n      dup3\n        /* \"#utility.yul\":2534:2552   */\n      add\n        /* \"#utility.yul\":2526:2552   */\n      swap1\n      pop\n        /* \"#utility.yul\":2562:2633   */\n      tag_203\n        /* \"#utility.yul\":2630:2631   */\n      0x00\n        /* \"#utility.yul\":2619:2628   */\n      dup4\n        /* \"#utility.yul\":2615:2632   */\n      add\n        /* \"#utility.yul\":2606:2612   */\n      dup5\n        /* \"#utility.yul\":2562:2633   */\n      tag_127\n      jump\t// in\n    tag_203:\n        /* \"#utility.yul\":2418:2640   */\n      swap3\n      swap2\n      pop\n      pop\n      jump\t// out\n        /* \"#utility.yul\":2646:2745   */\n    tag_128:\n        /* \"#utility.yul\":2698:2704   */\n      0x00\n        /* \"#utility.yul\":2732:2737   */\n      dup2\n        /* \"#utility.yul\":2726:2738   */\n      mload\n        /* \"#utility.yul\":2716:2738   */\n      swap1\n      pop\n        /* \"#utility.yul\":2646:2745   */\n      swap2\n      swap1\n      pop\n      jump\t// out\n        /* \"#utility.yul\":2751:2920   */\n    tag_129:\n        /* \"#utility.yul\":2835:2846   */\n      0x00\n        /* \"#utility.yul\":2869:2875   */\n      dup3\n        /* \"#utility.yul\":2864:2867   */\n      dup3\n        /* \"#utility.yul\":2857:2876   */\n      mstore\n        /* \"#utility.yul\":2909:2913   */\n      0x20\n        /* \"#utility.yul\":2904:2907   */\n      dup3\n        /* \"#utility.yul\":2900:2914   */\n      add\n        /* \"#utility.yul\":2885:2914   */\n      swap1\n      pop\n        /* \"#utility.yul\":2751:2920   */\n      swap3\n      swap2\n      pop\n      pop\n      jump\t// out\n        /* \"#utility.yul\":2926:3065   */\n    tag_130:\n        /* \"#utility.yul\":3015:3021   */\n      dup3\n        /* \"#utility.yul\":3010:3013   */\n      dup2\n        /* \"#utility.yul\":3005:3008   */\n      dup4\n        /* \"#utility.yul\":2999:3022   */\n      mcopy\n        /* \"#utility.yul\":3056:3057   */\n      0x00\n        /* \"#utility.yul\":3047:3053   */\n      dup4\n        /* \"#utility.yul\":3042:3045   */\n      dup4\n        /* \"#utility.yul\":3038:3054   */\n      add\n        /* \"#utility.yul\":3031:3058   */\n      mstore\n        /* \"#utility.yul\":2926:3065   */\n      pop\n      pop\n      pop\n      jump\t// out\n        /* \"#utility.yul\":3071:3173   */\n    tag_131:\n        /* \"#utility.yul\":3112:3118   */\n      0x00\n        /* \"#utility.yul\":3163:3165   */\n      0x1f\n        /* \"#utility.yul\":3159:3166   */\n      not\n        /* \"#utility.yul\":3154:3156   */\n      0x1f\n        /* \"#utility.yul\":3147:3152   */\n      dup4\n        /* \"#utility.yul\":3143:3157   */\n      add\n        /* \"#utility.yul\":3139:3167   */\n      and\n        /* \"#utility.yul\":3129:3167   */\n      swap1\n      pop\n        /* \"#utility.yul\":3071:3173   */\n      swap2\n      swap1\n      pop\n      jump\t// out\n        /* \"#utility.yul\":3179:3556   */\n    tag_132:\n        /* \"#utility.yul\":3267:3270   */\n      0x00\n        /* \"#utility.yul\":3295:3334   */\n      tag_209\n        /* \"#utility.yul\":3328:3333   */\n      dup3\n        /* \"#utility.yul\":3295:3334   */\n      tag_128\n      jump\t// in\n    tag_209:\n        /* \"#utility.yul\":3350:3421   */\n      tag_210\n        /* \"#utility.yul\":3414:3420   */\n      dup2\n        /* \"#utility.yul\":3409:3412   */\n      dup6\n        /* \"#utility.yul\":3350:3421   */\n      tag_129\n      jump\t// in\n    tag_210:\n        /* \"#utility.yul\":3343:3421   */\n      swap4\n      pop\n        /* \"#utility.yul\":3430:3495   */\n      tag_211\n        /* \"#utility.yul\":3488:3494   */\n      dup2\n        /* \"#utility.yul\":3483:3486   */\n      dup6\n        /* \"#utility.yul\":3476:3480   */\n      0x20\n        /* \"#utility.yul\":3469:3474   */\n      dup7\n        /* \"#utility.yul\":3465:3481   */\n      add\n        /* \"#utility.yul\":3430:3495   */\n      tag_130\n      jump\t// in\n    tag_211:\n        /* \"#utility.yul\":3520:3549   */\n      tag_212\n        /* \"#utility.yul\":3542:3548   */\n      dup2\n        /* \"#utility.yul\":3520:3549   */\n      tag_131\n      jump\t// in\n    tag_212:\n        /* \"#utility.yul\":3515:3518   */\n      dup5\n        /* \"#utility.yul\":3511:3550   */\n      add\n        /* \"#utility.yul\":3504:3550   */\n      swap2\n      pop\n        /* \"#utility.yul\":3271:3556   */\n      pop\n        /* \"#utility.yul\":3179:3556   */\n      swap3\n      swap2\n      pop\n      pop\n      jump\t// out\n        /* \"#utility.yul\":3562:3985   */\n    tag_31:\n        /* \"#utility.yul\":3703:3707   */\n      0x00\n        /* \"#utility.yul\":3741:3743   */\n      0x40\n        /* \"#utility.yul\":3730:3739   */\n      dup3\n        /* \"#utility.yul\":3726:3744   */\n      add\n        /* \"#utility.yul\":3718:3744   */\n      swap1\n      pop\n        /* \"#utility.yul\":3790:3799   */\n      dup2\n        /* \"#utility.yul\":3784:3788   */\n      dup2\n        /* \"#utility.yul\":3780:3800   */\n      sub\n        /* \"#utility.yul\":3776:3777   */\n      0x00\n        /* \"#utility.yul\":3765:3774   */\n      dup4\n        /* \"#utility.yul\":3761:3778   */\n      add\n        /* \"#utility.yul\":3754:3801   */\n      mstore\n        /* \"#utility.yul\":3818:3896   */\n      tag_214\n        /* \"#utility.yul\":3891:3895   */\n      dup2\n        /* \"#utility.yul\":3882:3888   */\n      dup6\n        /* \"#utility.yul\":3818:3896   */\n      tag_132\n      jump\t// in\n    tag_214:\n        /* \"#utility.yul\":3810:3896   */\n      swap1\n      pop\n        /* \"#utility.yul\":3906:3978   */\n      tag_215\n        /* \"#utility.yul\":3974:3976   */\n      0x20\n        /* \"#utility.yul\":3963:3972   */\n      dup4\n        /* \"#utility.yul\":3959:3977   */\n      add\n        /* \"#utility.yul\":3950:3956   */\n      dup5\n        /* \"#utility.yul\":3906:3978   */\n      tag_127\n      jump\t// in\n    tag_215:\n        /* \"#utility.yul\":3562:3985   */\n      swap4\n      swap3\n      pop\n      pop\n      pop\n      jump\t// out\n        /* \"#utility.yul\":3991:4108   */\n    tag_133:\n        /* \"#utility.yul\":4100:4101   */\n      0x00\n        /* \"#utility.yul\":4097:4098   */\n      dup1\n        /* \"#utility.yul\":4090:4102   */\n      revert\n        /* \"#utility.yul\":4114:4231   */\n    tag_134:\n        /* \"#utility.yul\":4223:4224   */\n      0x00\n        /* \"#utility.yul\":4220:4221   */\n      dup1\n        /* \"#utility.yul\":4213:4225   */\n      revert\n        /* \"#utility.yul\":4237:4417   */\n    tag_135:\n        /* \"#utility.yul\":4285:4362   */\n      0x4e487b7100000000000000000000000000000000000000000000000000000000\n        /* \"#utility.yul\":4282:4283   */\n      0x00\n        /* \"#utility.yul\":4275:4363   */\n      mstore\n        /* \"#utility.yul\":4382:4386   */\n      0x41\n        /* \"#utility.yul\":4379:4380   */\n      0x04\n        /* \"#utility.yul\":4372:4387   */\n      mstore\n        /* \"#utility.yul\":4406:4410   */\n      0x24\n        /* \"#utility.yul\":4403:4404   */\n      0x00\n        /* \"#utility.yul\":4396:4411   */\n      revert\n        /* \"#utility.yul\":4423:4704   */\n    tag_136:\n        /* \"#utility.yul\":4506:4533   */\n      tag_220\n        /* \"#utility.yul\":4528:4532   */\n      dup3\n        /* \"#utility.yul\":4506:4533   */\n      tag_131\n      jump\t// in\n    tag_220:\n        /* \"#utility.yul\":4498:4504   */\n      dup2\n        /* \"#utility.yul\":4494:4534   */\n      add\n        /* \"#utility.yul\":4636:4642   */\n      dup2\n        /* \"#utility.yul\":4624:4634   */\n      dup2\n        /* \"#utility.yul\":4621:4643   */\n      lt\n        /* \"#utility.yul\":4600:4618   */\n      0xffffffffffffffff\n        /* \"#utility.yul\":4588:4598   */\n      dup3\n        /* \"#utility.yul\":4585:4619   */\n      gt\n        /* \"#utility.yul\":4582:4644   */\n      or\n        /* \"#utility.yul\":4579:4667   */\n      iszero\n      tag_221\n      jumpi\n        /* \"#utility.yul\":4647:4665   */\n      tag_222\n      tag_135\n      jump\t// in\n    tag_222:\n        /* \"#utility.yul\":4579:4667   */\n    tag_221:\n        /* \"#utility.yul\":4687:4697   */\n      dup1\n        /* \"#utility.yul\":4683:4685   */\n      0x40\n        /* \"#utility.yul\":4676:4698   */\n      mstore\n        /* \"#utility.yul\":4466:4704   */\n      pop\n        /* \"#utility.yul\":4423:4704   */\n      pop\n      pop\n      jump\t// out\n        /* \"#utility.yul\":4710:4839   */\n    tag_137:\n        /* \"#utility.yul\":4744:4750   */\n      0x00\n        /* \"#utility.yul\":4771:4791   */\n      tag_224\n      tag_115\n      jump\t// in\n    tag_224:\n        /* \"#utility.yul\":4761:4791   */\n      swap1\n      pop\n        /* \"#utility.yul\":4800:4833   */\n      tag_225\n        /* \"#utility.yul\":4828:4832   */\n      dup3\n        /* \"#utility.yul\":4820:4826   */\n      dup3\n        /* \"#utility.yul\":4800:4833   */\n      tag_136\n      jump\t// in\n    tag_225:\n        /* \"#utility.yul\":4710:4839   */\n      swap2\n      swap1\n      pop\n      jump\t// out\n        /* \"#utility.yul\":4845:5153   */\n    tag_138:\n        /* \"#utility.yul\":4907:4911   */\n      0x00\n        /* \"#utility.yul\":4997:5015   */\n      0xffffffffffffffff\n        /* \"#utility.yul\":4989:4995   */\n      dup3\n        /* \"#utility.yul\":4986:5016   */\n      gt\n        /* \"#utility.yul\":4983:5039   */\n      iszero\n      tag_227\n      jumpi\n        /* \"#utility.yul\":5019:5037   */\n      tag_228\n      tag_135\n      jump\t// in\n    tag_228:\n        /* \"#utility.yul\":4983:5039   */\n    tag_227:\n        /* \"#utility.yul\":5057:5086   */\n      tag_229\n        /* \"#utility.yul\":5079:5085   */\n      dup3\n        /* \"#utility.yul\":5057:5086   */\n      tag_131\n      jump\t// in\n    tag_229:\n        /* \"#utility.yul\":5049:5086   */\n      swap1\n      pop\n        /* \"#utility.yul\":5141:5145   */\n      0x20\n        /* \"#utility.yul\":5135:5139   */\n      dup2\n        /* \"#utility.yul\":5131:5146   */\n      add\n        /* \"#utility.yul\":5123:5146   */\n      swap1\n      pop\n        /* \"#utility.yul\":4845:5153   */\n      swap2\n      swap1\n      pop\n      jump\t// out\n        /* \"#utility.yul\":5159:5307   */\n    tag_139:\n        /* \"#utility.yul\":5257:5263   */\n      dup3\n        /* \"#utility.yul\":5252:5255   */\n      dup2\n        /* \"#utility.yul\":5247:5250   */\n      dup4\n        /* \"#utility.yul\":5234:5264   */\n      calldatacopy\n        /* \"#utility.yul\":5298:5299   */\n      0x00\n        /* \"#utility.yul\":5289:5295   */\n      dup4\n        /* \"#utility.yul\":5284:5287   */\n      dup4\n        /* \"#utility.yul\":5280:5296   */\n      add\n        /* \"#utility.yul\":5273:5300   */\n      mstore\n        /* \"#utility.yul\":5159:5307   */\n      pop\n      pop\n      pop\n      jump\t// out\n        /* \"#utility.yul\":5313:5738   */\n    tag_140:\n        /* \"#utility.yul\":5391:5396   */\n      0x00\n        /* \"#utility.yul\":5416:5482   */\n      tag_232\n        /* \"#utility.yul\":5432:5481   */\n      tag_233\n        /* \"#utility.yul\":5474:5480   */\n      dup5\n        /* \"#utility.yul\":5432:5481   */\n      tag_138\n      jump\t// in\n    tag_233:\n        /* \"#utility.yul\":5416:5482   */\n      tag_137\n      jump\t// in\n    tag_232:\n        /* \"#utility.yul\":5407:5482   */\n      swap1\n      pop\n        /* \"#utility.yul\":5505:5511   */\n      dup3\n        /* \"#utility.yul\":5498:5503   */\n      dup2\n        /* \"#utility.yul\":5491:5512   */\n      mstore\n        /* \"#utility.yul\":5543:5547   */\n      0x20\n        /* \"#utility.yul\":5536:5541   */\n      dup2\n        /* \"#utility.yul\":5532:5548   */\n      add\n        /* \"#utility.yul\":5581:5584   */\n      dup5\n        /* \"#utility.yul\":5572:5578   */\n      dup5\n        /* \"#utility.yul\":5567:5570   */\n      dup5\n        /* \"#utility.yul\":5563:5579   */\n      add\n        /* \"#utility.yul\":5560:5585   */\n      gt\n        /* \"#utility.yul\":5557:5669   */\n      iszero\n      tag_234\n      jumpi\n        /* \"#utility.yul\":5588:5667   */\n      tag_235\n      tag_134\n      jump\t// in\n    tag_235:\n        /* \"#utility.yul\":5557:5669   */\n    tag_234:\n        /* \"#utility.yul\":5678:5732   */\n      tag_236\n        /* \"#utility.yul\":5725:5731   */\n      dup5\n        /* \"#utility.yul\":5720:5723   */\n      dup3\n        /* \"#utility.yul\":5715:5718   */\n      dup6\n        /* \"#utility.yul\":5678:5732   */\n      tag_139\n      jump\t// in\n    tag_236:\n        /* \"#utility.yul\":5397:5738   */\n      pop\n        /* \"#utility.yul\":5313:5738   */\n      swap4\n      swap3\n      pop\n      pop\n      pop\n      jump\t// out\n        /* \"#utility.yul\":5758:6098   */\n    tag_141:\n        /* \"#utility.yul\":5814:5819   */\n      0x00\n        /* \"#utility.yul\":5863:5866   */\n      dup3\n        /* \"#utility.yul\":5856:5860   */\n      0x1f\n        /* \"#utility.yul\":5848:5854   */\n      dup4\n        /* \"#utility.yul\":5844:5861   */\n      add\n        /* \"#utility.yul\":5840:5867   */\n      slt\n        /* \"#utility.yul\":5830:5952   */\n      tag_238\n      jumpi\n        /* \"#utility.yul\":5871:5950   */\n      tag_239\n      tag_133\n      jump\t// in\n    tag_239:\n        /* \"#utility.yul\":5830:5952   */\n    tag_238:\n        /* \"#utility.yul\":5988:5994   */\n      dup2\n        /* \"#utility.yul\":5975:5995   */\n      calldataload\n        /* \"#utility.yul\":6013:6092   */\n      tag_240\n        /* \"#utility.yul\":6088:6091   */\n      dup5\n        /* \"#utility.yul\":6080:6086   */\n      dup3\n        /* \"#utility.yul\":6073:6077   */\n      0x20\n        /* \"#utility.yul\":6065:6071   */\n      dup7\n        /* \"#utility.yul\":6061:6078   */\n      add\n        /* \"#utility.yul\":6013:6092   */\n      tag_140\n      jump\t// in\n    tag_240:\n        /* \"#utility.yul\":6004:6092   */\n      swap2\n      pop\n        /* \"#utility.yul\":5820:6098   */\n      pop\n        /* \"#utility.yul\":5758:6098   */\n      swap3\n      swap2\n      pop\n      pop\n      jump\t// out\n        /* \"#utility.yul\":6104:6613   */\n    tag_38:\n        /* \"#utility.yul\":6173:6179   */\n      0x00\n        /* \"#utility.yul\":6222:6224   */\n      0x20\n        /* \"#utility.yul\":6210:6219   */\n      dup3\n        /* \"#utility.yul\":6201:6208   */\n      dup5\n        /* \"#utility.yul\":6197:6220   */\n      sub\n        /* \"#utility.yul\":6193:6225   */\n      slt\n        /* \"#utility.yul\":6190:6309   */\n      iszero\n      tag_242\n      jumpi\n        /* \"#utility.yul\":6228:6307   */\n      tag_243\n      tag_116\n      jump\t// in\n    tag_243:\n        /* \"#utility.yul\":6190:6309   */\n    tag_242:\n        /* \"#utility.yul\":6376:6377   */\n      0x00\n        /* \"#utility.yul\":6365:6374   */\n      dup3\n        /* \"#utility.yul\":6361:6378   */\n      add\n        /* \"#utility.yul\":6348:6379   */\n      calldataload\n        /* \"#utility.yul\":6406:6424   */\n      0xffffffffffffffff\n        /* \"#utility.yul\":6398:6404   */\n      dup2\n        /* \"#utility.yul\":6395:6425   */\n      gt\n        /* \"#utility.yul\":6392:6509   */\n      iszero\n      tag_244\n      jumpi\n        /* \"#utility.yul\":6428:6507   */\n      tag_245\n      tag_117\n      jump\t// in\n    tag_245:\n        /* \"#utility.yul\":6392:6509   */\n    tag_244:\n        /* \"#utility.yul\":6533:6596   */\n      tag_246\n        /* \"#utility.yul\":6588:6595   */\n      dup5\n        /* \"#utility.yul\":6579:6585   */\n      dup3\n        /* \"#utility.yul\":6568:6577   */\n      dup6\n        /* \"#utility.yul\":6564:6586   */\n      add\n        /* \"#utility.yul\":6533:6596   */\n      tag_141\n      jump\t// in\n    tag_246:\n        /* \"#utility.yul\":6523:6596   */\n      swap2\n      pop\n        /* \"#utility.yul\":6319:6606   */\n      pop\n        /* \"#utility.yul\":6104:6613   */\n      swap3\n      swap2\n      pop\n      pop\n      jump\t// out\n        /* \"#utility.yul\":6619:6785   */\n    tag_142:\n        /* \"#utility.yul\":6759:6777   */\n      0x566f74696e672068617320656e64656400000000000000000000000000000000\n        /* \"#utility.yul\":6755:6756   */\n      0x00\n        /* \"#utility.yul\":6747:6753   */\n      dup3\n        /* \"#utility.yul\":6743:6757   */\n      add\n        /* \"#utility.yul\":6736:6778   */\n      mstore\n        /* \"#utility.yul\":6619:6785   */\n      pop\n      jump\t// out\n        /* \"#utility.yul\":6791:7157   */\n    tag_143:\n        /* \"#utility.yul\":6933:6936   */\n      0x00\n        /* \"#utility.yul\":6954:7021   */\n      tag_249\n        /* \"#utility.yul\":7018:7020   */\n      0x10\n        /* \"#utility.yul\":7013:7016   */\n      dup4\n        /* \"#utility.yul\":6954:7021   */\n      tag_129\n      jump\t// in\n    tag_249:\n        /* \"#utility.yul\":6947:7021   */\n      swap2\n      pop\n        /* \"#utility.yul\":7030:7123   */\n      tag_250\n        /* \"#utility.yul\":7119:7122   */\n      dup3\n        /* \"#utility.yul\":7030:7123   */\n      tag_142\n      jump\t// in\n    tag_250:\n        /* \"#utility.yul\":7148:7150   */\n      0x20\n        /* \"#utility.yul\":7143:7146   */\n      dup3\n        /* \"#utility.yul\":7139:7151   */\n      add\n        /* \"#utility.yul\":7132:7151   */\n      swap1\n      pop\n        /* \"#utility.yul\":6791:7157   */\n      swap2\n      swap1\n      pop\n      jump\t// out\n        /* \"#utility.yul\":7163:7582   */\n    tag_51:\n        /* \"#utility.yul\":7329:7333   */\n      0x00\n        /* \"#utility.yul\":7367:7369   */\n      0x20\n        /* \"#utility.yul\":7356:7365   */\n      dup3\n        /* \"#utility.yul\":7352:7370   */\n      add\n        /* \"#utility.yul\":7344:7370   */\n      swap1\n      pop\n        /* \"#utility.yul\":7416:7425   */\n      dup2\n        /* \"#utility.yul\":7410:7414   */\n      dup2\n        /* \"#utility.yul\":7406:7426   */\n      sub\n        /* \"#utility.yul\":7402:7403   */\n      0x00\n        /* \"#utility.yul\":7391:7400   */\n      dup4\n        /* \"#utility.yul\":7387:7404   */\n      add\n        /* \"#utility.yul\":7380:7427   */\n      mstore\n        /* \"#utility.yul\":7444:7575   */\n      tag_252\n        /* \"#utility.yul\":7570:7574   */\n      dup2\n        /* \"#utility.yul\":7444:7575   */\n      tag_143\n      jump\t// in\n    tag_252:\n        /* \"#utility.yul\":7436:7575   */\n      swap1\n      pop\n        /* \"#utility.yul\":7163:7582   */\n      swap2\n      swap1\n      pop\n      jump\t// out\n        /* \"#utility.yul\":7588:7761   */\n    tag_144:\n        /* \"#utility.yul\":7728:7753   */\n      0x496e76616c69642063616e64696461746520696e646578000000000000000000\n        /* \"#utility.yul\":7724:7725   */\n      0x00\n        /* \"#utility.yul\":7716:7722   */\n      dup3\n        /* \"#utility.yul\":7712:7726   */\n      add\n        /* \"#utility.yul\":7705:7754   */\n      mstore\n        /* \"#utility.yul\":7588:7761   */\n      pop\n      jump\t// out\n        /* \"#utility.yul\":7767:8133   */\n    tag_145:\n        /* \"#utility.yul\":7909:7912   */\n      0x00\n        /* \"#utility.yul\":7930:7997   */\n      tag_255\n        /* \"#utility.yul\":7994:7996   */\n      0x17\n        /* \"#utility.yul\":7989:7992   */\n      dup4\n        /* \"#utility.yul\":7930:7997   */\n      tag_129\n      jump\t// in\n    tag_255:\n        /* \"#utility.yul\":7923:7997   */\n      swap2\n      pop\n        /* \"#utility.yul\":8006:8099   */\n      tag_256\n        /* \"#utility.yul\":8095:8098   */\n      dup3\n        /* \"#utility.yul\":8006:8099   */\n      tag_144\n      jump\t// in\n    tag_256:\n        /* \"#utility.yul\":8124:8126   */\n      0x20\n        /* \"#utility.yul\":8119:8122   */\n      dup3\n        /* \"#utility.yul\":8115:8127   */\n      add\n        /* \"#utility.yul\":8108:8127   */\n      swap1\n      pop\n        /* \"#utility.yul\":7767:8133   */\n      swap2\n      swap1\n      pop\n      jump\t// out\n        /* \"#utility.yul\":8139:8558   */\n    tag_55:\n        /* \"#utility.yul\":8305:8309   */\n      0x00\n        /* \"#utility.yul\":8343:8345   */\n      0x20\n        /* \"#utility.yul\":8332:8341   */\n      dup3\n        /* \"#utility.yul\":8328:8346   */\n      add\n        /* \"#utility.yul\":8320:8346   */\n      swap1\n      pop\n        /* \"#utility.yul\":8392:8401   */\n      dup2\n        /* \"#utility.yul\":8386:8390   */\n      dup2\n        /* \"#utility.yul\":8382:8402   */\n      sub\n        /* \"#utility.yul\":8378:8379   */\n      0x00\n        /* \"#utility.yul\":8367:8376   */\n      dup4\n        /* \"#utility.yul\":8363:8380   */\n      add\n        /* \"#utility.yul\":8356:8403   */\n      mstore\n        /* \"#utility.yul\":8420:8551   */\n      tag_258\n        /* \"#utility.yul\":8546:8550   */\n      dup2\n        /* \"#utility.yul\":8420:8551   */\n      tag_145\n      jump\t// in\n    tag_258:\n        /* \"#utility.yul\":8412:8551   */\n      swap1\n      pop\n        /* \"#utility.yul\":8139:8558   */\n      swap2\n      swap1\n      pop\n      jump\t// out\n        /* \"#utility.yul\":8564:8736   */\n    tag_146:\n        /* \"#utility.yul\":8704:8728   */\n      0x596f75206861766520616c726561647920766f74656400000000000000000000\n        /* \"#utility.yul\":8700:8701   */\n      0x00\n        /* \"#utility.yul\":8692:8698   */\n      dup3\n        /* \"#utility.yul\":8688:8702   */\n      add\n        /* \"#utility.yul\":8681:8729   */\n      mstore\n        /* \"#utility.yul\":8564:8736   */\n      pop\n      jump\t// out\n        /* \"#utility.yul\":8742:9108   */\n    tag_147:\n        /* \"#utility.yul\":8884:8887   */\n      0x00\n        /* \"#utility.yul\":8905:8972   */\n      tag_261\n        /* \"#utility.yul\":8969:8971   */\n      0x16\n        /* \"#utility.yul\":8964:8967   */\n      dup4\n        /* \"#utility.yul\":8905:8972   */\n      tag_129\n      jump\t// in\n    tag_261:\n        /* \"#utility.yul\":8898:8972   */\n      swap2\n      pop\n        /* \"#utility.yul\":8981:9074   */\n      tag_262\n        /* \"#utility.yul\":9070:9073   */\n      dup3\n        /* \"#utility.yul\":8981:9074   */\n      tag_146\n      jump\t// in\n    tag_262:\n        /* \"#utility.yul\":9099:9101   */\n      0x20\n        /* \"#utility.yul\":9094:9097   */\n      dup3\n        /* \"#utility.yul\":9090:9102   */\n      add\n        /* \"#utility.yul\":9083:9102   */\n      swap1\n      pop\n        /* \"#utility.yul\":8742:9108   */\n      swap2\n      swap1\n      pop\n      jump\t// out\n        /* \"#utility.yul\":9114:9533   */\n    tag_58:\n        /* \"#utility.yul\":9280:9284   */\n      0x00\n        /* \"#utility.yul\":9318:9320   */\n      0x20\n        /* \"#utility.yul\":9307:9316   */\n      dup3\n        /* \"#utility.yul\":9303:9321   */\n      add\n        /* \"#utility.yul\":9295:9321   */\n      swap1\n      pop\n        /* \"#utility.yul\":9367:9376   */\n      dup2\n        /* \"#utility.yul\":9361:9365   */\n      dup2\n        /* \"#utility.yul\":9357:9377   */\n      sub\n        /* \"#utility.yul\":9353:9354   */\n      0x00\n        /* \"#utility.yul\":9342:9351   */\n      dup4\n        /* \"#utility.yul\":9338:9355   */\n      add\n        /* \"#utility.yul\":9331:9378   */\n      mstore\n        /* \"#utility.yul\":9395:9526   */\n      tag_264\n        /* \"#utility.yul\":9521:9525   */\n      dup2\n        /* \"#utility.yul\":9395:9526   */\n      tag_147\n      jump\t// in\n    tag_264:\n        /* \"#utility.yul\":9387:9526   */\n      swap1\n      pop\n        /* \"#utility.yul\":9114:9533   */\n      swap2\n      swap1\n      pop\n      jump\t// out\n        /* \"#utility.yul\":9539:9719   */\n    tag_61:\n        /* \"#utility.yul\":9587:9664   */\n      0x4e487b7100000000000000000000000000000000000000000000000000000000\n        /* \"#utility.yul\":9584:9585   */\n      0x00\n        /* \"#utility.yul\":9577:9665   */\n      mstore\n        /* \"#utility.yul\":9684:9688   */\n      0x32\n        /* \"#utility.yul\":9681:9682   */\n      0x04\n        /* \"#utility.yul\":9674:9689   */\n      mstore\n        /* \"#utility.yul\":9708:9712   */\n      0x24\n        /* \"#utility.yul\":9705:9706   */\n      0x00\n        /* \"#utility.yul\":9698:9713   */\n      revert\n        /* \"#utility.yul\":9725:9905   */\n    tag_148:\n        /* \"#utility.yul\":9773:9850   */\n      0x4e487b7100000000000000000000000000000000000000000000000000000000\n        /* \"#utility.yul\":9770:9771   */\n      0x00\n        /* \"#utility.yul\":9763:9851   */\n      mstore\n        /* \"#utility.yul\":9870:9874   */\n      0x11\n        /* \"#utility.yul\":9867:9868   */\n      0x04\n        /* \"#utility.yul\":9860:9875   */\n      mstore\n        /* \"#utility.yul\":9894:9898   */\n      0x24\n        /* \"#utility.yul\":9891:9892   */\n      0x00\n        /* \"#utility.yul\":9884:9899   */\n      revert\n        /* \"#utility.yul\":9911:10144   */\n    tag_64:\n        /* \"#utility.yul\":9950:9953   */\n      0x00\n        /* \"#utility.yul\":9973:9997   */\n      tag_268\n        /* \"#utility.yul\":9991:9996   */\n      dup3\n        /* \"#utility.yul\":9973:9997   */\n      tag_118\n      jump\t// in\n    tag_268:\n        /* \"#utility.yul\":9964:9997   */\n      swap2\n      pop\n        /* \"#utility.yul\":10019:10085   */\n      0xffffffffffffffffffffffffffffffffffffffffffffffffffffffffffffffff\n        /* \"#utility.yul\":10012:10017   */\n      dup3\n        /* \"#utility.yul\":10009:10086   */\n      sub\n        /* \"#utility.yul\":10006:10109   */\n      tag_269\n      jumpi\n        /* \"#utility.yul\":10089:10107   */\n      tag_270\n      tag_148\n      jump\t// in\n    tag_270:\n        /* \"#utility.yul\":10006:10109   */\n    tag_269:\n        /* \"#utility.yul\":10136:10137   */\n      0x01\n        /* \"#utility.yul\":10129:10134   */\n      dup3\n        /* \"#utility.yul\":10125:10138   */\n      add\n        /* \"#utility.yul\":10118:10138   */\n      swap1\n      pop\n        /* \"#utility.yul\":9911:10144   */\n      swap2\n      swap1\n      pop\n      jump\t// out\n        /* \"#utility.yul\":10150:10330   */\n    tag_149:\n        /* \"#utility.yul\":10198:10275   */\n      0x4e487b7100000000000000000000000000000000000000000000000000000000\n        /* \"#utility.yul\":10195:10196   */\n      0x00\n        /* \"#utility.yul\":10188:10276   */\n      mstore\n        /* \"#utility.yul\":10295:10299   */\n      0x22\n        /* \"#utility.yul\":10292:10293   */\n      0x04\n        /* \"#utility.yul\":10285:10300   */\n      mstore\n        /* \"#utility.yul\":10319:10323   */\n      0x24\n        /* \"#utility.yul\":10316:10317   */\n      0x00\n        /* \"#utility.yul\":10309:10324   */\n      revert\n        /* \"#utility.yul\":10336:10656   */\n    tag_70:\n        /* \"#utility.yul\":10380:10386   */\n      0x00\n        /* \"#utility.yul\":10417:10418   */\n      0x02\n        /* \"#utility.yul\":10411:10415   */\n      dup3\n        /* \"#utility.yul\":10407:10419   */\n      div\n        /* \"#utility.yul\":10397:10419   */\n      swap1\n      pop\n        /* \"#utility.yul\":10464:10465   */\n      0x01\n        /* \"#utility.yul\":10458:10462   */\n      dup3\n        /* \"#utility.yul\":10454:10466   */\n      and\n        /* \"#utility.yul\":10485:10503   */\n      dup1\n        /* \"#utility.yul\":10475:10556   */\n      tag_273\n      jumpi\n        /* \"#utility.yul\":10541:10545   */\n      0x7f\n        /* \"#utility.yul\":10533:10539   */\n      dup3\n        /* \"#utility.yul\":10529:10546   */\n      and\n        /* \"#utility.yul\":10519:10546   */\n      swap2\n      pop\n        /* \"#utility.yul\":10475:10556   */\n    tag_273:\n        /* \"#utility.yul\":10603:10605   */\n      0x20\n        /* \"#utility.yul\":10595:10601   */\n      dup3\n        /* \"#utility.yul\":10592:10606   */\n      lt\n        /* \"#utility.yul\":10572:10590   */\n      dup2\n        /* \"#utility.yul\":10569:10607   */\n      sub\n        /* \"#utility.yul\":10566:10650   */\n      tag_274\n      jumpi\n        /* \"#utility.yul\":10622:10640   */\n      tag_275\n      tag_149\n      jump\t// in\n    tag_275:\n        /* \"#utility.yul\":10566:10650   */\n    tag_274:\n        /* \"#utility.yul\":10387:10656   */\n      pop\n        /* \"#utility.yul\":10336:10656   */\n      swap2\n      swap1\n      pop\n      jump\t// out\n        /* \"#utility.yul\":10662:10825   */\n    tag_150:\n        /* \"#utility.yul\":10802:10817   */\n      0x496e76616c696420696e64657800000000000000000000000000000000000000\n        /* \"#utility.yul\":10798:10799   */\n      0x00\n        /* \"#utility.yul\":10790:10796   */\n      dup3\n        /* \"#utility.yul\":10786:10800   */\n      add\n        /* \"#utility.yul\":10779:10818   */\n      mstore\n        /* \"#utility.yul\":10662:10825   */\n      pop\n      jump\t// out\n        /* \"#utility.yul\":10831:11197   */\n    tag_151:\n        /* \"#utility.yul\":10973:10976   */\n      0x00\n        /* \"#utility.yul\":10994:11061   */\n      tag_278\n        /* \"#utility.yul\":11058:11060   */\n      0x0d\n        /* \"#utility.yul\":11053:11056   */\n      dup4\n        /* \"#utility.yul\":10994:11061   */\n      tag_129\n      jump\t// in\n    tag_278:\n        /* \"#utility.yul\":10987:11061   */\n      swap2\n      pop\n        /* \"#utility.yul\":11070:11163   */\n      tag_279\n        /* \"#utility.yul\":11159:11162   */\n      dup3\n        /* \"#utility.yul\":11070:11163   */\n      tag_150\n      jump\t// in\n    tag_279:\n        /* \"#utility.yul\":11188:11190   */\n      0x20\n        /* \"#utility.yul\":11183:11186   */\n      dup3\n        /* \"#utility.yul\":11179:11191   */\n      add\n        /* \"#utility.yul\":11172:11191   */\n      swap1\n      pop\n        /* \"#utility.yul\":10831:11197   */\n      swap2\n      swap1\n      pop\n      jump\t// out\n        /* \"#utility.yul\":11203:11622   */\n    tag_78:\n        /* \"#utility.yul\":11369:11373   */\n      0x00\n        /* \"#utility.yul\":11407:11409   */\n      0x20\n        /* \"#utility.yul\":11396:11405   */\n      dup3\n        /* \"#utility.yul\":11392:11410   */\n      add\n        /* \"#utility.yul\":11384:11410   */\n      swap1\n      pop\n        /* \"#utility.yul\":11456:11465   */\n      dup2\n        /* \"#utility.yul\":11450:11454   */\n      dup2\n        /* \"#utility.yul\":11446:11466   */\n      sub\n        /* \"#utility.yul\":11442:11443   */\n      0x00\n        /* \"#utility.yul\":11431:11440   */\n      dup4\n        /* \"#utility.yul\":11427:11444   */\n      add\n        /* \"#utility.yul\":11420:11467   */\n      mstore\n        /* \"#utility.yul\":11484:11615   */\n      tag_281\n        /* \"#utility.yul\":11610:11614   */\n      dup2\n        /* \"#utility.yul\":11484:11615   */\n      tag_151\n      jump\t// in\n    tag_281:\n        /* \"#utility.yul\":11476:11615   */\n      swap1\n      pop\n        /* \"#utility.yul\":11203:11622   */\n      swap2\n      swap1\n      pop\n      jump\t// out\n        /* \"#utility.yul\":11628:11769   */\n    tag_152:\n        /* \"#utility.yul\":11677:11681   */\n      0x00\n        /* \"#utility.yul\":11700:11703   */\n      dup2\n        /* \"#utility.yul\":11692:11703   */\n      swap1\n      pop\n        /* \"#utility.yul\":11723:11726   */\n      dup2\n        /* \"#utility.yul\":11720:11721   */\n      0x00\n        /* \"#utility.yul\":11713:11727   */\n      mstore\n        /* \"#utility.yul\":11757:11761   */\n      0x20\n        /* \"#utility.yul\":11754:11755   */\n      0x00\n        /* \"#utility.yul\":11744:11762   */\n      keccak256\n        /* \"#utility.yul\":11736:11762   */\n      swap1\n      pop\n        /* \"#utility.yul\":11628:11769   */\n      swap2\n      swap1\n      pop\n      jump\t// out\n        /* \"#utility.yul\":11775:11868   */\n    tag_153:\n        /* \"#utility.yul\":11812:11818   */\n      0x00\n        /* \"#utility.yul\":11859:11861   */\n      0x20\n        /* \"#utility.yul\":11854:11856   */\n      0x1f\n        /* \"#utility.yul\":11847:11852   */\n      dup4\n        /* \"#utility.yul\":11843:11857   */\n      add\n        /* \"#utility.yul\":11839:11862   */\n      div\n        /* \"#utility.yul\":11829:11862   */\n      swap1\n      pop\n        /* \"#utility.yul\":11775:11868   */\n      swap2\n      swap1\n      pop\n      jump\t// out\n        /* \"#utility.yul\":11874:11981   */\n    tag_154:\n        /* \"#utility.yul\":11918:11926   */\n      0x00\n        /* \"#utility.yul\":11968:11973   */\n      dup3\n        /* \"#utility.yul\":11962:11966   */\n      dup3\n        /* \"#utility.yul\":11958:11974   */\n      shl\n        /* \"#utility.yul\":11937:11974   */\n      swap1\n      pop\n        /* \"#utility.yul\":11874:11981   */\n      swap3\n      swap2\n      pop\n      pop\n      jump\t// out\n        /* \"#utility.yul\":11987:12380   */\n    tag_155:\n        /* \"#utility.yul\":12056:12062   */\n      0x00\n        /* \"#utility.yul\":12106:12107   */\n      0x08\n        /* \"#utility.yul\":12094:12104   */\n      dup4\n        /* \"#utility.yul\":12090:12108   */\n      mul\n        /* \"#utility.yul\":12129:12226   */\n      tag_286\n        /* \"#utility.yul\":12159:12225   */\n      0xffffffffffffffffffffffffffffffffffffffffffffffffffffffffffffffff\n        /* \"#utility.yul\":12148:12157   */\n      dup3\n        /* \"#utility.yul\":12129:12226   */\n      tag_154\n      jump\t// in\n    tag_286:\n        /* \"#utility.yul\":12247:12286   */\n      tag_287\n        /* \"#utility.yul\":12277:12285   */\n      dup7\n        /* \"#utility.yul\":12266:12275   */\n      dup4\n        /* \"#utility.yul\":12247:12286   */\n      tag_154\n      jump\t// in\n    tag_287:\n        /* \"#utility.yul\":12235:12286   */\n      swap6\n      pop\n        /* \"#utility.yul\":12319:12323   */\n      dup1\n        /* \"#utility.yul\":12315:12324   */\n      not\n        /* \"#utility.yul\":12308:12313   */\n      dup5\n        /* \"#utility.yul\":12304:12325   */\n      and\n        /* \"#utility.yul\":12295:12325   */\n      swap4\n      pop\n        /* \"#utility.yul\":12368:12372   */\n      dup1\n        /* \"#utility.yul\":12358:12366   */\n      dup7\n        /* \"#utility.yul\":12354:12373   */\n      and\n        /* \"#utility.yul\":12347:12352   */\n      dup5\n        /* \"#utility.yul\":12344:12374   */\n      or\n        /* \"#utility.yul\":12334:12374   */\n      swap3\n      pop\n        /* \"#utility.yul\":12063:12380   */\n      pop\n      pop\n        /* \"#utility.yul\":11987:12380   */\n      swap4\n      swap3\n      pop\n      pop\n      pop\n      jump\t// out\n        /* \"#utility.yul\":12386:12446   */\n    tag_156:\n        /* \"#utility.yul\":12414:12417   */\n      0x00\n        /* \"#utility.yul\":12435:12440   */\n      dup2\n        /* \"#utility.yul\":12428:12440   */\n      swap1\n      pop\n        /* \"#utility.yul\":12386:12446   */\n      swap2\n      swap1\n      pop\n      jump\t// out\n        /* \"#utility.yul\":12452:12594   */\n    tag_157:\n        /* \"#utility.yul\":12502:12511   */\n      0x00\n        /* \"#utility.yul\":12535:12588   */\n      tag_290\n        /* \"#utility.yul\":12553:12587   */\n      tag_291\n        /* \"#utility.yul\":12562:12586   */\n      tag_292\n        /* \"#utility.yul\":12580:12585   */\n      dup5\n        /* \"#utility.yul\":12562:12586   */\n      tag_118\n      jump\t// in\n    tag_292:\n        /* \"#utility.yul\":12553:12587   */\n      tag_156\n      jump\t// in\n    tag_291:\n        /* \"#utility.yul\":12535:12588   */\n      tag_118\n      jump\t// in\n    tag_290:\n        /* \"#utility.yul\":12522:12588   */\n      swap1\n      pop\n        /* \"#utility.yul\":12452:12594   */\n      swap2\n      swap1\n      pop\n      jump\t// out\n        /* \"#utility.yul\":12600:12675   */\n    tag_158:\n        /* \"#utility.yul\":12643:12646   */\n      0x00\n        /* \"#utility.yul\":12664:12669   */\n      dup2\n        /* \"#utility.yul\":12657:12669   */\n      swap1\n      pop\n        /* \"#utility.yul\":12600:12675   */\n      swap2\n      swap1\n      pop\n      jump\t// out\n        /* \"#utility.yul\":12681:12950   */\n    tag_159:\n        /* \"#utility.yul\":12791:12830   */\n      tag_295\n        /* \"#utility.yul\":12822:12829   */\n      dup4\n        /* \"#utility.yul\":12791:12830   */\n      tag_157\n      jump\t// in\n    tag_295:\n        /* \"#utility.yul\":12852:12943   */\n      tag_296\n        /* \"#utility.yul\":12901:12942   */\n      tag_297\n        /* \"#utility.yul\":12925:12941   */\n      dup3\n        /* \"#utility.yul\":12901:12942   */\n      tag_158\n      jump\t// in\n    tag_297:\n        /* \"#utility.yul\":12893:12899   */\n      dup5\n        /* \"#utility.yul\":12886:12890   */\n      dup5\n        /* \"#utility.yul\":12880:12891   */\n      sload\n        /* \"#utility.yul\":12852:12943   */\n      tag_155\n      jump\t// in\n    tag_296:\n        /* \"#utility.yul\":12846:12850   */\n      dup3\n        /* \"#utility.yul\":12839:12944   */\n      sstore\n        /* \"#utility.yul\":12757:12950   */\n      pop\n        /* \"#utility.yul\":12681:12950   */\n      pop\n      pop\n      pop\n      jump\t// out\n        /* \"#utility.yul\":12956:13029   */\n    tag_160:\n        /* \"#utility.yul\":13001:13004   */\n      0x00\n        /* \"#utility.yul\":12956:13029   */\n      swap1\n      jump\t// out\n        /* \"#utility.yul\":13035:13224   */\n    tag_161:\n        /* \"#utility.yul\":13112:13144   */\n      tag_300\n      tag_160\n      jump\t// in\n    tag_300:\n        /* \"#utility.yul\":13153:13218   */\n      tag_301\n        /* \"#utility.yul\":13211:13217   */\n      dup2\n        /* \"#utility.yul\":13203:13209   */\n      dup5\n        /* \"#utility.yul\":13197:13201   */\n      dup5\n        /* \"#utility.yul\":13153:13218   */\n      tag_159\n      jump\t// in\n    tag_301:\n        /* \"#utility.yul\":13088:13224   */\n      pop\n        /* \"#utility.yul\":13035:13224   */\n      pop\n      pop\n      jump\t// out\n        /* \"#utility.yul\":13230:13416   */\n    tag_162:\n        /* \"#utility.yul\":13290:13410   */\n    tag_303:\n        /* \"#utility.yul\":13307:13310   */\n      dup2\n        /* \"#utility.yul\":13300:13305   */\n      dup2\n        /* \"#utility.yul\":13297:13311   */\n      lt\n        /* \"#utility.yul\":13290:13410   */\n      iszero\n      tag_305\n      jumpi\n        /* \"#utility.yul\":13361:13400   */\n      tag_306\n        /* \"#utility.yul\":13398:13399   */\n      0x00\n        /* \"#utility.yul\":13391:13396   */\n      dup3\n        /* \"#utility.yul\":13361:13400   */\n      tag_161\n      jump\t// in\n    tag_306:\n        /* \"#utility.yul\":13334:13335   */\n      0x01\n        /* \"#utility.yul\":13327:13332   */\n      dup2\n        /* \"#utility.yul\":13323:13336   */\n      add\n        /* \"#utility.yul\":13314:13336   */\n      swap1\n      pop\n        /* \"#utility.yul\":13290:13410   */\n      jump(tag_303)\n    tag_305:\n        /* \"#utility.yul\":13230:13416   */\n      pop\n      pop\n      jump\t// out\n        /* \"#utility.yul\":13422:13965   */\n    tag_163:\n        /* \"#utility.yul\":13523:13525   */\n      0x1f\n        /* \"#utility.yul\":13518:13521   */\n      dup3\n        /* \"#utility.yul\":13515:13526   */\n      gt\n        /* \"#utility.yul\":13512:13958   */\n      iszero\n      tag_308\n      jumpi\n        /* \"#utility.yul\":13557:13595   */\n      tag_309\n        /* \"#utility.yul\":13589:13594   */\n      dup2\n        /* \"#utility.yul\":13557:13595   */\n      tag_152\n      jump\t// in\n    tag_309:\n        /* \"#utility.yul\":13641:13670   */\n      tag_310\n        /* \"#utility.yul\":13659:13669   */\n      dup5\n        /* \"#utility.yul\":13641:13670   */\n      tag_153\n      jump\t// in\n    tag_310:\n        /* \"#utility.yul\":13631:13639   */\n      dup2\n        /* \"#utility.yul\":13627:13671   */\n      add\n        /* \"#utility.yul\":13824:13826   */\n      0x20\n        /* \"#utility.yul\":13812:13822   */\n      dup6\n        /* \"#utility.yul\":13809:13827   */\n      lt\n        /* \"#utility.yul\":13806:13855   */\n      iszero\n      tag_311\n      jumpi\n        /* \"#utility.yul\":13845:13853   */\n      dup2\n        /* \"#utility.yul\":13830:13853   */\n      swap1\n      pop\n        /* \"#utility.yul\":13806:13855   */\n    tag_311:\n        /* \"#utility.yul\":13868:13948   */\n      tag_312\n        /* \"#utility.yul\":13924:13946   */\n      tag_313\n        /* \"#utility.yul\":13942:13945   */\n      dup6\n        /* \"#utility.yul\":13924:13946   */\n      tag_153\n      jump\t// in\n    tag_313:\n        /* \"#utility.yul\":13914:13922   */\n      dup4\n        /* \"#utility.yul\":13910:13947   */\n      add\n        /* \"#utility.yul\":13897:13908   */\n      dup3\n        /* \"#utility.yul\":13868:13948   */\n      tag_162\n      jump\t// in\n    tag_312:\n        /* \"#utility.yul\":13527:13958   */\n      pop\n      pop\n        /* \"#utility.yul\":13512:13958   */\n    tag_308:\n        /* \"#utility.yul\":13422:13965   */\n      pop\n      pop\n      pop\n      jump\t// out\n        /* \"#utility.yul\":13971:14088   */\n    tag_164:\n        /* \"#utility.yul\":14025:14033   */\n      0x00\n        /* \"#utility.yul\":14075:14080   */\n      dup3\n        /* \"#utility.yul\":14069:14073   */\n      dup3\n        /* \"#utility.yul\":14065:14081   */\n      shr\n        /* \"#utility.yul\":14044:14081   */\n      swap1\n      pop\n        /* \"#utility.yul\":13971:14088   */\n      swap3\n      swap2\n      pop\n      pop\n      jump\t// out\n        /* \"#utility.yul\":14094:14263   */\n    tag_165:\n        /* \"#utility.yul\":14138:14144   */\n      0x00\n        /* \"#utility.yul\":14171:14222   */\n      tag_316\n        /* \"#utility.yul\":14219:14220   */\n      0x00\n        /* \"#utility.yul\":14215:14221   */\n      not\n        /* \"#utility.yul\":14207:14212   */\n      dup5\n        /* \"#utility.yul\":14204:14205   */\n      0x08\n        /* \"#utility.yul\":14200:14213   */\n      mul\n        /* \"#utility.yul\":14171:14222   */\n      tag_164\n      jump\t// in\n    tag_316:\n        /* \"#utility.yul\":14167:14223   */\n      not\n        /* \"#utility.yul\":14252:14256   */\n      dup1\n        /* \"#utility.yul\":14246:14250   */\n      dup4\n        /* \"#utility.yul\":14242:14257   */\n      and\n        /* \"#utility.yul\":14232:14257   */\n      swap2\n      pop\n        /* \"#utility.yul\":14145:14263   */\n      pop\n        /* \"#utility.yul\":14094:14263   */\n      swap3\n      swap2\n      pop\n      pop\n      jump\t// out\n        /* \"#utility.yul\":14268:14563   */\n    tag_166:\n        /* \"#utility.yul\":14344:14348   */\n      0x00\n        /* \"#utility.yul\":14490:14519   */\n      tag_318\n        /* \"#utility.yul\":14515:14518   */\n      dup4\n        /* \"#utility.yul\":14509:14513   */\n      dup4\n        /* \"#utility.yul\":14490:14519   */\n      tag_165\n      jump\t// in\n    tag_318:\n        /* \"#utility.yul\":14482:14519   */\n      swap2\n      pop\n        /* \"#utility.yul\":14552:14555   */\n      dup3\n        /* \"#utility.yul\":14549:14550   */\n      0x02\n        /* \"#utility.yul\":14545:14556   */\n      mul\n        /* \"#utility.yul\":14539:14543   */\n      dup3\n        /* \"#utility.yul\":14536:14557   */\n      or\n        /* \"#utility.yul\":14528:14557   */\n      swap1\n      pop\n        /* \"#utility.yul\":14268:14563   */\n      swap3\n      swap2\n      pop\n      pop\n      jump\t// out\n        /* \"#utility.yul\":14568:15963   */\n    tag_93:\n        /* \"#utility.yul\":14685:14722   */\n      tag_320\n        /* \"#utility.yul\":14718:14721   */\n      dup3\n        /* \"#utility.yul\":14685:14722   */\n      tag_128\n      jump\t// in\n    tag_320:\n        /* \"#utility.yul\":14787:14805   */\n      0xffffffffffffffff\n        /* \"#utility.yul\":14779:14785   */\n      dup2\n        /* \"#utility.yul\":14776:14806   */\n      gt\n        /* \"#utility.yul\":14773:14829   */\n      iszero\n      tag_321\n      jumpi\n        /* \"#utility.yul\":14809:14827   */\n      tag_322\n      tag_135\n      jump\t// in\n    tag_322:\n        /* \"#utility.yul\":14773:14829   */\n    tag_321:\n        /* \"#utility.yul\":14853:14891   */\n      tag_323\n        /* \"#utility.yul\":14885:14889   */\n      dup3\n        /* \"#utility.yul\":14879:14890   */\n      sload\n        /* \"#utility.yul\":14853:14891   */\n      tag_70\n      jump\t// in\n    tag_323:\n        /* \"#utility.yul\":14938:15005   */\n      tag_324\n        /* \"#utility.yul\":14998:15004   */\n      dup3\n        /* \"#utility.yul\":14990:14996   */\n      dup3\n        /* \"#utility.yul\":14984:14988   */\n      dup6\n        /* \"#utility.yul\":14938:15005   */\n      tag_163\n      jump\t// in\n    tag_324:\n        /* \"#utility.yul\":15032:15033   */\n      0x00\n        /* \"#utility.yul\":15056:15060   */\n      0x20\n        /* \"#utility.yul\":15043:15060   */\n      swap1\n      pop\n        /* \"#utility.yul\":15088:15090   */\n      0x1f\n        /* \"#utility.yul\":15080:15086   */\n      dup4\n        /* \"#utility.yul\":15077:15091   */\n      gt\n        /* \"#utility.yul\":15105:15106   */\n      0x01\n        /* \"#utility.yul\":15100:15718   */\n      dup2\n      eq\n      tag_326\n      jumpi\n        /* \"#utility.yul\":15762:15763   */\n      0x00\n        /* \"#utility.yul\":15779:15785   */\n      dup5\n        /* \"#utility.yul\":15776:15853   */\n      iszero\n      tag_327\n      jumpi\n        /* \"#utility.yul\":15828:15837   */\n      dup3\n        /* \"#utility.yul\":15823:15826   */\n      dup8\n        /* \"#utility.yul\":15819:15838   */\n      add\n        /* \"#utility.yul\":15813:15839   */\n      mload\n        /* \"#utility.yul\":15804:15839   */\n      swap1\n      pop\n        /* \"#utility.yul\":15776:15853   */\n    tag_327:\n        /* \"#utility.yul\":15879:15946   */\n      tag_328\n        /* \"#utility.yul\":15939:15945   */\n      dup6\n        /* \"#utility.yul\":15932:15937   */\n      dup3\n        /* \"#utility.yul\":15879:15946   */\n      tag_166\n      jump\t// in\n    tag_328:\n        /* \"#utility.yul\":15873:15877   */\n      dup7\n        /* \"#utility.yul\":15866:15947   */\n      sstore\n        /* \"#utility.yul\":15735:15957   */\n      pop\n        /* \"#utility.yul\":15070:15957   */\n      jump(tag_325)\n        /* \"#utility.yul\":15100:15718   */\n    tag_326:\n        /* \"#utility.yul\":15152:15156   */\n      0x1f\n        /* \"#utility.yul\":15148:15157   */\n      not\n        /* \"#utility.yul\":15140:15146   */\n      dup5\n        /* \"#utility.yul\":15136:15158   */\n      and\n        /* \"#utility.yul\":15186:15223   */\n      tag_329\n        /* \"#utility.yul\":15218:15222   */\n      dup7\n        /* \"#utility.yul\":15186:15223   */\n      tag_152\n      jump\t// in\n    tag_329:\n        /* \"#utility.yul\":15245:15246   */\n      0x00\n        /* \"#utility.yul\":15259:15467   */\n    tag_330:\n        /* \"#utility.yul\":15273:15280   */\n      dup3\n        /* \"#utility.yul\":15270:15271   */\n      dup2\n        /* \"#utility.yul\":15267:15281   */\n      lt\n        /* \"#utility.yul\":15259:15467   */\n      iszero\n      tag_332\n      jumpi\n        /* \"#utility.yul\":15352:15361   */\n      dup5\n        /* \"#utility.yul\":15347:15350   */\n      dup10\n        /* \"#utility.yul\":15343:15362   */\n      add\n        /* \"#utility.yul\":15337:15363   */\n      mload\n        /* \"#utility.yul\":15329:15335   */\n      dup3\n        /* \"#utility.yul\":15322:15364   */\n      sstore\n        /* \"#utility.yul\":15403:15404   */\n      0x01\n        /* \"#utility.yul\":15395:15401   */\n      dup3\n        /* \"#utility.yul\":15391:15405   */\n      add\n        /* \"#utility.yul\":15381:15405   */\n      swap2\n      pop\n        /* \"#utility.yul\":15450:15452   */\n      0x20\n        /* \"#utility.yul\":15439:15448   */\n      dup6\n        /* \"#utility.yul\":15435:15453   */\n      add\n        /* \"#utility.yul\":15422:15453   */\n      swap5\n      pop\n        /* \"#utility.yul\":15296:15300   */\n      0x20\n        /* \"#utility.yul\":15293:15294   */\n      dup2\n        /* \"#utility.yul\":15289:15301   */\n      add\n        /* \"#utility.yul\":15284:15301   */\n      swap1\n      pop\n        /* \"#utility.yul\":15259:15467   */\n      jump(tag_330)\n    tag_332:\n        /* \"#utility.yul\":15495:15501   */\n      dup7\n        /* \"#utility.yul\":15486:15493   */\n      dup4\n        /* \"#utility.yul\":15483:15502   */\n      lt\n        /* \"#utility.yul\":15480:15659   */\n      iszero\n      tag_333\n      jumpi\n        /* \"#utility.yul\":15553:15562   */\n      dup5\n        /* \"#utility.yul\":15548:15551   */\n      dup10\n        /* \"#utility.yul\":15544:15563   */\n      add\n        /* \"#utility.yul\":15538:15564   */\n      mload\n        /* \"#utility.yul\":15596:15644   */\n      tag_334\n        /* \"#utility.yul\":15638:15642   */\n      0x1f\n        /* \"#utility.yul\":15630:15636   */\n      dup10\n        /* \"#utility.yul\":15626:15643   */\n      and\n        /* \"#utility.yul\":15615:15624   */\n      dup3\n        /* \"#utility.yul\":15596:15644   */\n      tag_165\n      jump\t// in\n    tag_334:\n        /* \"#utility.yul\":15588:15594   */\n      dup4\n        /* \"#utility.yul\":15581:15645   */\n      sstore\n        /* \"#utility.yul\":15503:15659   */\n      pop\n        /* \"#utility.yul\":15480:15659   */\n    tag_333:\n        /* \"#utility.yul\":15705:15706   */\n      0x01\n        /* \"#utility.yul\":15701:15702   */\n      0x02\n        /* \"#utility.yul\":15693:15699   */\n      dup9\n        /* \"#utility.yul\":15689:15703   */\n      mul\n        /* \"#utility.yul\":15685:15707   */\n      add\n        /* \"#utility.yul\":15679:15683   */\n      dup9\n        /* \"#utility.yul\":15672:15708   */\n      sstore\n        /* \"#utility.yul\":15107:15718   */\n      pop\n      pop\n      pop\n        /* \"#utility.yul\":15070:15957   */\n    tag_325:\n      pop\n        /* \"#utility.yul\":14660:15963   */\n      pop\n      pop\n      pop\n        /* \"#utility.yul\":14568:15963   */\n      pop\n      pop\n      jump\t// out\n        /* \"#utility.yul\":15969:16143   */\n    tag_167:\n        /* \"#utility.yul\":16109:16135   */\n      0x496e76616c69642063616c6c6261636b20616464726573730000000000000000\n        /* \"#utility.yul\":16105:16106   */\n      0x00\n        /* \"#utility.yul\":16097:16103   */\n      dup3\n        /* \"#utility.yul\":16093:16107   */\n      add\n        /* \"#utility.yul\":16086:16136   */\n      mstore\n        /* \"#utility.yul\":15969:16143   */\n      pop\n      jump\t// out\n        /* \"#utility.yul\":16149:16515   */\n    tag_168:\n        /* \"#utility.yul\":16291:16294   */\n      0x00\n        /* \"#utility.yul\":16312:16379   */\n      tag_337\n        /* \"#utility.yul\":16376:16378   */\n      0x18\n        /* \"#utility.yul\":16371:16374   */\n      dup4\n        /* \"#utility.yul\":16312:16379   */\n      tag_129\n      jump\t// in\n    tag_337:\n        /* \"#utility.yul\":16305:16379   */\n      swap2\n      pop\n        /* \"#utility.yul\":16388:16481   */\n      tag_338\n        /* \"#utility.yul\":16477:16480   */\n      dup3\n        /* \"#utility.yul\":16388:16481   */\n      tag_167\n      jump\t// in\n    tag_338:\n        /* \"#utility.yul\":16506:16508   */\n      0x20\n        /* \"#utility.yul\":16501:16504   */\n      dup3\n        /* \"#utility.yul\":16497:16509   */\n      add\n        /* \"#utility.yul\":16490:16509   */\n      swap1\n      pop\n        /* \"#utility.yul\":16149:16515   */\n      swap2\n      swap1\n      pop\n      jump\t// out\n        /* \"#utility.yul\":16521:16940   */\n    tag_113:\n        /* \"#utility.yul\":16687:16691   */\n      0x00\n        /* \"#utility.yul\":16725:16727   */\n      0x20\n        /* \"#utility.yul\":16714:16723   */\n      dup3\n        /* \"#utility.yul\":16710:16728   */\n      add\n        /* \"#utility.yul\":16702:16728   */\n      swap1\n      pop\n        /* \"#utility.yul\":16774:16783   */\n      dup2\n        /* \"#utility.yul\":16768:16772   */\n      dup2\n        /* \"#utility.yul\":16764:16784   */\n      sub\n        /* \"#utility.yul\":16760:16761   */\n      0x00\n        /* \"#utility.yul\":16749:16758   */\n      dup4\n        /* \"#utility.yul\":16745:16762   */\n      add\n        /* \"#utility.yul\":16738:16785   */\n      mstore\n        /* \"#utility.yul\":16802:16933   */\n      tag_340\n        /* \"#utility.yul\":16928:16932   */\n      dup2\n        /* \"#utility.yul\":16802:16933   */\n      tag_168\n      jump\t// in\n    tag_340:\n        /* \"#utility.yul\":16794:16933   */\n      swap1\n      pop\n        /* \"#utility.yul\":16521:16940   */\n      swap2\n      swap1\n      pop\n      jump\t// out\n\n    auxdata: 0xa2646970667358221220a2c17c8cc0bb670604ad9f8ba3d68502b8282d40112b6bfe6bea696acf93581664736f6c634300081a0033\n}\n",
				"bytecode": {
					"linkReferences": {},
					"object": "6080604052348015600e575f80fd5b506111ec8061001c5f395ff3fe608060405234801561000f575f80fd5b5060043610610091575f3560e01c806335b8e8201161006457806335b8e82014610130578063462e91ec146101615780639d5a05291461017d578063c3403ddf1461019b578063cf1b037c146101a557610091565b80630121b93f1461009557806309eef43e146100b157806330a56347146100e15780633477ee2e146100ff575b5f80fd5b6100af60048036038101906100aa9190610928565b6101c1565b005b6100cb60048036038101906100c691906109ad565b6103bc565b6040516100d891906109f2565b60405180910390f35b6100e96103d9565b6040516100f69190610a1a565b60405180910390f35b61011960048036038101906101149190610928565b6103e4565b604051610127929190610aa3565b60405180910390f35b61014a60048036038101906101459190610928565b610498565b604051610158929190610aa3565b60405180910390f35b61017b60048036038101906101769190610bfd565b6105ba565b005b610185610668565b60405161019291906109f2565b60405180910390f35b6101a361067a565b005b6101bf60048036038101906101ba91906109ad565b6107c4565b005b60035f9054906101000a900460ff1615610210576040517f08c379a000000000000000000000000000000000000000000000000000000000815260040161020790610c8e565b60405180910390fd5b5f805490508110610256576040517f08c379a000000000000000000000000000000000000000000000000000000000815260040161024d90610cf6565b60405180910390fd5b60015f3373ffffffffffffffffffffffffffffffffffffffff1673ffffffffffffffffffffffffffffffffffffffff1681526020019081526020015f205f9054906101000a900460ff16156102e0576040517f08c379a00000000000000000000000000000000000000000000000000000000081526004016102d790610d5e565b60405180910390fd5b5f81815481106102f3576102f2610d7c565b5b905f5260205f2090600202016001015f81548092919061031290610dd6565b91905055506001805f3373ffffffffffffffffffffffffffffffffffffffff1673ffffffffffffffffffffffffffffffffffffffff1681526020019081526020015f205f6101000a81548160ff0219169083151502179055503373ffffffffffffffffffffffffffffffffffffffff167fa36cc2bebb74db33e9f88110a07ef56e1b31b24b4c4f51b54b1664266e29f45b826040516103b19190610a1a565b60405180910390a250565b6001602052805f5260405f205f915054906101000a900460ff1681565b5f8080549050905090565b5f81815481106103f2575f80fd5b905f5260205f2090600202015f91509050805f01805461041190610e4a565b80601f016020809104026020016040519081016040528092919081815260200182805461043d90610e4a565b80156104885780601f1061045f57610100808354040283529160200191610488565b820191905f5260205f20905b81548152906001019060200180831161046b57829003601f168201915b5050505050908060010154905082565b60605f808054905083106104e1576040517f08c379a00000000000000000000000000000000000000000000000000000000081526004016104d890610ec4565b60405180910390fd5b5f8084815481106104f5576104f4610d7c565b5b905f5260205f2090600202016040518060400160405290815f8201805461051b90610e4a565b80601f016020809104026020016040519081016040528092919081815260200182805461054790610e4a565b80156105925780601f1061056957610100808354040283529160200191610592565b820191905f5260205f20905b81548152906001019060200180831161057557829003601f168201915b505050505081526020016001820154815250509050805f015181602001519250925050915091565b60035f9054906101000a900460ff1615610609576040517f08c379a000000000000000000000000000000000000000000000000000000000815260040161060090610c8e565b60405180910390fd5b5f60405180604001604052808381526020015f815250908060018154018082558091505060019003905f5260205f2090600202015f909190919091505f820151815f019081610658919061107f565b5060208201518160010155505050565b60035f9054906101000a900460ff1681565b60035f9054906101000a900460ff16156106c9576040517f08c379a00000000000000000000000000000000000000000000000000000000081526004016106c090610c8e565b60405180910390fd5b600160035f6101000a81548160ff0219169083151502179055505f5b600280549050811015610795576002818154811061070657610705610d7c565b5b905f5260205f20015f9054906101000a900473ffffffffffffffffffffffffffffffffffffffff1673ffffffffffffffffffffffffffffffffffffffff1663490b56d06040518163ffffffff1660e01b81526004015f604051808303815f87803b158015610772575f80fd5b505af1158015610784573d5f803e3d5ffd5b5050505080806001019150506106e5565b507f7a19ed057db79e3c2fa0b97a54b43bef4fce74b31bb6c01af514b9a18a7f70ab60405160405180910390a1565b60035f9054906101000a900460ff1615610813576040517f08c379a000000000000000000000000000000000000000000000000000000000815260040161080a90610c8e565b60405180910390fd5b5f73ffffffffffffffffffffffffffffffffffffffff168173ffffffffffffffffffffffffffffffffffffffff1603610881576040517f08c379a000000000000000000000000000000000000000000000000000000000815260040161087890611198565b60405180910390fd5b600281908060018154018082558091505060019003905f5260205f20015f9091909190916101000a81548173ffffffffffffffffffffffffffffffffffffffff021916908373ffffffffffffffffffffffffffffffffffffffff16021790555050565b5f604051905090565b5f80fd5b5f80fd5b5f819050919050565b610907816108f5565b8114610911575f80fd5b50565b5f81359050610922816108fe565b92915050565b5f6020828403121561093d5761093c6108ed565b5b5f61094a84828501610914565b91505092915050565b5f73ffffffffffffffffffffffffffffffffffffffff82169050919050565b5f61097c82610953565b9050919050565b61098c81610972565b8114610996575f80fd5b50565b5f813590506109a781610983565b92915050565b5f602082840312156109c2576109c16108ed565b5b5f6109cf84828501610999565b91505092915050565b5f8115159050919050565b6109ec816109d8565b82525050565b5f602082019050610a055f8301846109e3565b92915050565b610a14816108f5565b82525050565b5f602082019050610a2d5f830184610a0b565b92915050565b5f81519050919050565b5f82825260208201905092915050565b8281835e5f83830152505050565b5f601f19601f8301169050919050565b5f610a7582610a33565b610a7f8185610a3d565b9350610a8f818560208601610a4d565b610a9881610a5b565b840191505092915050565b5f6040820190508181035f830152610abb8185610a6b565b9050610aca6020830184610a0b565b9392505050565b5f80fd5b5f80fd5b7f4e487b71000000000000000000000000000000000000000000000000000000005f52604160045260245ffd5b610b0f82610a5b565b810181811067ffffffffffffffff82111715610b2e57610b2d610ad9565b5b80604052505050565b5f610b406108e4565b9050610b4c8282610b06565b919050565b5f67ffffffffffffffff821115610b6b57610b6a610ad9565b5b610b7482610a5b565b9050602081019050919050565b828183375f83830152505050565b5f610ba1610b9c84610b51565b610b37565b905082815260208101848484011115610bbd57610bbc610ad5565b5b610bc8848285610b81565b509392505050565b5f82601f830112610be457610be3610ad1565b5b8135610bf4848260208601610b8f565b91505092915050565b5f60208284031215610c1257610c116108ed565b5b5f82013567ffffffffffffffff811115610c2f57610c2e6108f1565b5b610c3b84828501610bd0565b91505092915050565b7f566f74696e672068617320656e646564000000000000000000000000000000005f82015250565b5f610c78601083610a3d565b9150610c8382610c44565b602082019050919050565b5f6020820190508181035f830152610ca581610c6c565b9050919050565b7f496e76616c69642063616e64696461746520696e6465780000000000000000005f82015250565b5f610ce0601783610a3d565b9150610ceb82610cac565b602082019050919050565b5f6020820190508181035f830152610d0d81610cd4565b9050919050565b7f596f75206861766520616c726561647920766f746564000000000000000000005f82015250565b5f610d48601683610a3d565b9150610d5382610d14565b602082019050919050565b5f6020820190508181035f830152610d7581610d3c565b9050919050565b7f4e487b71000000000000000000000000000000000000000000000000000000005f52603260045260245ffd5b7f4e487b71000000000000000000000000000000000000000000000000000000005f52601160045260245ffd5b5f610de0826108f5565b91507fffffffffffffffffffffffffffffffffffffffffffffffffffffffffffffffff8203610e1257610e11610da9565b5b600182019050919050565b7f4e487b71000000000000000000000000000000000000000000000000000000005f52602260045260245ffd5b5f6002820490506001821680610e6157607f821691505b602082108103610e7457610e73610e1d565b5b50919050565b7f496e76616c696420696e646578000000000000000000000000000000000000005f82015250565b5f610eae600d83610a3d565b9150610eb982610e7a565b602082019050919050565b5f6020820190508181035f830152610edb81610ea2565b9050919050565b5f819050815f5260205f209050919050565b5f6020601f8301049050919050565b5f82821b905092915050565b5f60088302610f3e7fffffffffffffffffffffffffffffffffffffffffffffffffffffffffffffffff82610f03565b610f488683610f03565b95508019841693508086168417925050509392505050565b5f819050919050565b5f610f83610f7e610f79846108f5565b610f60565b6108f5565b9050919050565b5f819050919050565b610f9c83610f69565b610fb0610fa882610f8a565b848454610f0f565b825550505050565b5f90565b610fc4610fb8565b610fcf818484610f93565b505050565b5b81811015610ff257610fe75f82610fbc565b600181019050610fd5565b5050565b601f8211156110375761100881610ee2565b61101184610ef4565b81016020851015611020578190505b61103461102c85610ef4565b830182610fd4565b50505b505050565b5f82821c905092915050565b5f6110575f198460080261103c565b1980831691505092915050565b5f61106f8383611048565b9150826002028217905092915050565b61108882610a33565b67ffffffffffffffff8111156110a1576110a0610ad9565b5b6110ab8254610e4a565b6110b6828285610ff6565b5f60209050601f8311600181146110e7575f84156110d5578287015190505b6110df8582611064565b865550611146565b601f1984166110f586610ee2565b5f5b8281101561111c578489015182556001820191506020850194506020810190506110f7565b868310156111395784890151611135601f891682611048565b8355505b6001600288020188555050505b505050505050565b7f496e76616c69642063616c6c6261636b206164647265737300000000000000005f82015250565b5f611182601883610a3d565b915061118d8261114e565b602082019050919050565b5f6020820190508181035f8301526111af81611176565b905091905056fea2646970667358221220a2c17c8cc0bb670604ad9f8ba3d68502b8282d40112b6bfe6bea696acf93581664736f6c634300081a0033",
					"opcodes": "PUSH1 0x80 PUSH1 0x40 MSTORE CALLVALUE DUP1 ISZERO PUSH1 0xE JUMPI PUSH0 DUP1 REVERT JUMPDEST POP PUSH2 0x11EC DUP1 PUSH2 0x1C PUSH0 CODECOPY PUSH0 RETURN INVALID PUSH1 0x80 PUSH1 0x40 MSTORE CALLVALUE DUP1 ISZERO PUSH2 0xF JUMPI PUSH0 DUP1 REVERT JUMPDEST POP PUSH1 0x4 CALLDATASIZE LT PUSH2 0x91 JUMPI PUSH0 CALLDATALOAD PUSH1 0xE0 SHR DUP1 PUSH4 0x35B8E820 GT PUSH2 0x64 JUMPI DUP1 PUSH4 0x35B8E820 EQ PUSH2 0x130 JUMPI DUP1 PUSH4 0x462E91EC EQ PUSH2 0x161 JUMPI DUP1 PUSH4 0x9D5A0529 EQ PUSH2 0x17D JUMPI DUP1 PUSH4 0xC3403DDF EQ PUSH2 0x19B JUMPI DUP1 PUSH4 0xCF1B037C EQ PUSH2 0x1A5 JUMPI PUSH2 0x91 JUMP JUMPDEST DUP1 PUSH4 0x121B93F EQ PUSH2 0x95 JUMPI DUP1 PUSH4 0x9EEF43E EQ PUSH2 0xB1 JUMPI DUP1 PUSH4 0x30A56347 EQ PUSH2 0xE1 JUMPI DUP1 PUSH4 0x3477EE2E EQ PUSH2 0xFF JUMPI JUMPDEST PUSH0 DUP1 REVERT JUMPDEST PUSH2 0xAF PUSH1 0x4 DUP1 CALLDATASIZE SUB DUP2 ADD SWAP1 PUSH2 0xAA SWAP2 SWAP1 PUSH2 0x928 JUMP JUMPDEST PUSH2 0x1C1 JUMP JUMPDEST STOP JUMPDEST PUSH2 0xCB PUSH1 0x4 DUP1 CALLDATASIZE SUB DUP2 ADD SWAP1 PUSH2 0xC6 SWAP2 SWAP1 PUSH2 0x9AD JUMP JUMPDEST PUSH2 0x3BC JUMP JUMPDEST PUSH1 0x40 MLOAD PUSH2 0xD8 SWAP2 SWAP1 PUSH2 0x9F2 JUMP JUMPDEST PUSH1 0x40 MLOAD DUP1 SWAP2 SUB SWAP1 RETURN JUMPDEST PUSH2 0xE9 PUSH2 0x3D9 JUMP JUMPDEST PUSH1 0x40 MLOAD PUSH2 0xF6 SWAP2 SWAP1 PUSH2 0xA1A JUMP JUMPDEST PUSH1 0x40 MLOAD DUP1 SWAP2 SUB SWAP1 RETURN JUMPDEST PUSH2 0x119 PUSH1 0x4 DUP1 CALLDATASIZE SUB DUP2 ADD SWAP1 PUSH2 0x114 SWAP2 SWAP1 PUSH2 0x928 JUMP JUMPDEST PUSH2 0x3E4 JUMP JUMPDEST PUSH1 0x40 MLOAD PUSH2 0x127 SWAP3 SWAP2 SWAP1 PUSH2 0xAA3 JUMP JUMPDEST PUSH1 0x40 MLOAD DUP1 SWAP2 SUB SWAP1 RETURN JUMPDEST PUSH2 0x14A PUSH1 0x4 DUP1 CALLDATASIZE SUB DUP2 ADD SWAP1 PUSH2 0x145 SWAP2 SWAP1 PUSH2 0x928 JUMP JUMPDEST PUSH2 0x498 JUMP JUMPDEST PUSH1 0x40 MLOAD PUSH2 0x158 SWAP3 SWAP2 SWAP1 PUSH2 0xAA3 JUMP JUMPDEST PUSH1 0x40 MLOAD DUP1 SWAP2 SUB SWAP1 RETURN JUMPDEST PUSH2 0x17B PUSH1 0x4 DUP1 CALLDATASIZE SUB DUP2 ADD SWAP1 PUSH2 0x176 SWAP2 SWAP1 PUSH2 0xBFD JUMP JUMPDEST PUSH2 0x5BA JUMP JUMPDEST STOP JUMPDEST PUSH2 0x185 PUSH2 0x668 JUMP JUMPDEST PUSH1 0x40 MLOAD PUSH2 0x192 SWAP2 SWAP1 PUSH2 0x9F2 JUMP JUMPDEST PUSH1 0x40 MLOAD DUP1 SWAP2 SUB SWAP1 RETURN JUMPDEST PUSH2 0x1A3 PUSH2 0x67A JUMP JUMPDEST STOP JUMPDEST PUSH2 0x1BF PUSH1 0x4 DUP1 CALLDATASIZE SUB DUP2 ADD SWAP1 PUSH2 0x1BA SWAP2 SWAP1 PUSH2 0x9AD JUMP JUMPDEST PUSH2 0x7C4 JUMP JUMPDEST STOP JUMPDEST PUSH1 0x3 PUSH0 SWAP1 SLOAD SWAP1 PUSH2 0x100 EXP SWAP1 DIV PUSH1 0xFF AND ISZERO PUSH2 0x210 JUMPI PUSH1 0x40 MLOAD PUSH32 0x8C379A000000000000000000000000000000000000000000000000000000000 DUP2 MSTORE PUSH1 0x4 ADD PUSH2 0x207 SWAP1 PUSH2 0xC8E JUMP JUMPDEST PUSH1 0x40 MLOAD DUP1 SWAP2 SUB SWAP1 REVERT JUMPDEST PUSH0 DUP1 SLOAD SWAP1 POP DUP2 LT PUSH2 0x256 JUMPI PUSH1 0x40 MLOAD PUSH32 0x8C379A000000000000000000000000000000000000000000000000000000000 DUP2 MSTORE PUSH1 0x4 ADD PUSH2 0x24D SWAP1 PUSH2 0xCF6 JUMP JUMPDEST PUSH1 0x40 MLOAD DUP1 SWAP2 SUB SWAP1 REVERT JUMPDEST PUSH1 0x1 PUSH0 CALLER PUSH20 0xFFFFFFFFFFFFFFFFFFFFFFFFFFFFFFFFFFFFFFFF AND PUSH20 0xFFFFFFFFFFFFFFFFFFFFFFFFFFFFFFFFFFFFFFFF AND DUP2 MSTORE PUSH1 0x20 ADD SWAP1 DUP2 MSTORE PUSH1 0x20 ADD PUSH0 KECCAK256 PUSH0 SWAP1 SLOAD SWAP1 PUSH2 0x100 EXP SWAP1 DIV PUSH1 0xFF AND ISZERO PUSH2 0x2E0 JUMPI PUSH1 0x40 MLOAD PUSH32 0x8C379A000000000000000000000000000000000000000000000000000000000 DUP2 MSTORE PUSH1 0x4 ADD PUSH2 0x2D7 SWAP1 PUSH2 0xD5E JUMP JUMPDEST PUSH1 0x40 MLOAD DUP1 SWAP2 SUB SWAP1 REVERT JUMPDEST PUSH0 DUP2 DUP2 SLOAD DUP2 LT PUSH2 0x2F3 JUMPI PUSH2 0x2F2 PUSH2 0xD7C JUMP JUMPDEST JUMPDEST SWAP1 PUSH0 MSTORE PUSH1 0x20 PUSH0 KECCAK256 SWAP1 PUSH1 0x2 MUL ADD PUSH1 0x1 ADD PUSH0 DUP2 SLOAD DUP1 SWAP3 SWAP2 SWAP1 PUSH2 0x312 SWAP1 PUSH2 0xDD6 JUMP JUMPDEST SWAP2 SWAP1 POP SSTORE POP PUSH1 0x1 DUP1 PUSH0 CALLER PUSH20 0xFFFFFFFFFFFFFFFFFFFFFFFFFFFFFFFFFFFFFFFF AND PUSH20 0xFFFFFFFFFFFFFFFFFFFFFFFFFFFFFFFFFFFFFFFF AND DUP2 MSTORE PUSH1 0x20 ADD SWAP1 DUP2 MSTORE PUSH1 0x20 ADD PUSH0 KECCAK256 PUSH0 PUSH2 0x100 EXP DUP2 SLOAD DUP2 PUSH1 0xFF MUL NOT AND SWAP1 DUP4 ISZERO ISZERO MUL OR SWAP1 SSTORE POP CALLER PUSH20 0xFFFFFFFFFFFFFFFFFFFFFFFFFFFFFFFFFFFFFFFF AND PUSH32 0xA36CC2BEBB74DB33E9F88110A07EF56E1B31B24B4C4F51B54B1664266E29F45B DUP3 PUSH1 0x40 MLOAD PUSH2 0x3B1 SWAP2 SWAP1 PUSH2 0xA1A JUMP JUMPDEST PUSH1 0x40 MLOAD DUP1 SWAP2 SUB SWAP1 LOG2 POP JUMP JUMPDEST PUSH1 0x1 PUSH1 0x20 MSTORE DUP1 PUSH0 MSTORE PUSH1 0x40 PUSH0 KECCAK256 PUSH0 SWAP2 POP SLOAD SWAP1 PUSH2 0x100 EXP SWAP1 DIV PUSH1 0xFF AND DUP2 JUMP JUMPDEST PUSH0 DUP1 DUP1 SLOAD SWAP1 POP SWAP1 POP SWAP1 JUMP JUMPDEST PUSH0 DUP2 DUP2 SLOAD DUP2 LT PUSH2 0x3F2 JUMPI PUSH0 DUP1 REVERT JUMPDEST SWAP1 PUSH0 MSTORE PUSH1 0x20 PUSH0 KECCAK256 SWAP1 PUSH1 0x2 MUL ADD PUSH0 SWAP2 POP SWAP1 POP DUP1 PUSH0 ADD DUP1 SLOAD PUSH2 0x411 SWAP1 PUSH2 0xE4A JUMP JUMPDEST DUP1 PUSH1 0x1F ADD PUSH1 0x20 DUP1 SWAP2 DIV MUL PUSH1 0x20 ADD PUSH1 0x40 MLOAD SWAP1 DUP2 ADD PUSH1 0x40 MSTORE DUP1 SWAP3 SWAP2 SWAP1 DUP2 DUP2 MSTORE PUSH1 0x20 ADD DUP3 DUP1 SLOAD PUSH2 0x43D SWAP1 PUSH2 0xE4A JUMP JUMPDEST DUP1 ISZERO PUSH2 0x488 JUMPI DUP1 PUSH1 0x1F LT PUSH2 0x45F JUMPI PUSH2 0x100 DUP1 DUP4 SLOAD DIV MUL DUP4 MSTORE SWAP2 PUSH1 0x20 ADD SWAP2 PUSH2 0x488 JUMP JUMPDEST DUP3 ADD SWAP2 SWAP1 PUSH0 MSTORE PUSH1 0x20 PUSH0 KECCAK256 SWAP1 JUMPDEST DUP2 SLOAD DUP2 MSTORE SWAP1 PUSH1 0x1 ADD SWAP1 PUSH1 0x20 ADD DUP1 DUP4 GT PUSH2 0x46B JUMPI DUP3 SWAP1 SUB PUSH1 0x1F AND DUP3 ADD SWAP2 JUMPDEST POP POP POP POP POP SWAP1 DUP1 PUSH1 0x1 ADD SLOAD SWAP1 POP DUP3 JUMP JUMPDEST PUSH1 0x60 PUSH0 DUP1 DUP1 SLOAD SWAP1 POP DUP4 LT PUSH2 0x4E1 JUMPI PUSH1 0x40 MLOAD PUSH32 0x8C379A000000000000000000000000000000000000000000000000000000000 DUP2 MSTORE PUSH1 0x4 ADD PUSH2 0x4D8 SWAP1 PUSH2 0xEC4 JUMP JUMPDEST PUSH1 0x40 MLOAD DUP1 SWAP2 SUB SWAP1 REVERT JUMPDEST PUSH0 DUP1 DUP5 DUP2 SLOAD DUP2 LT PUSH2 0x4F5 JUMPI PUSH2 0x4F4 PUSH2 0xD7C JUMP JUMPDEST JUMPDEST SWAP1 PUSH0 MSTORE PUSH1 0x20 PUSH0 KECCAK256 SWAP1 PUSH1 0x2 MUL ADD PUSH1 0x40 MLOAD DUP1 PUSH1 0x40 ADD PUSH1 0x40 MSTORE SWAP1 DUP2 PUSH0 DUP3 ADD DUP1 SLOAD PUSH2 0x51B SWAP1 PUSH2 0xE4A JUMP JUMPDEST DUP1 PUSH1 0x1F ADD PUSH1 0x20 DUP1 SWAP2 DIV MUL PUSH1 0x20 ADD PUSH1 0x40 MLOAD SWAP1 DUP2 ADD PUSH1 0x40 MSTORE DUP1 SWAP3 SWAP2 SWAP1 DUP2 DUP2 MSTORE PUSH1 0x20 ADD DUP3 DUP1 SLOAD PUSH2 0x547 SWAP1 PUSH2 0xE4A JUMP JUMPDEST DUP1 ISZERO PUSH2 0x592 JUMPI DUP1 PUSH1 0x1F LT PUSH2 0x569 JUMPI PUSH2 0x100 DUP1 DUP4 SLOAD DIV MUL DUP4 MSTORE SWAP2 PUSH1 0x20 ADD SWAP2 PUSH2 0x592 JUMP JUMPDEST DUP3 ADD SWAP2 SWAP1 PUSH0 MSTORE PUSH1 0x20 PUSH0 KECCAK256 SWAP1 JUMPDEST DUP2 SLOAD DUP2 MSTORE SWAP1 PUSH1 0x1 ADD SWAP1 PUSH1 0x20 ADD DUP1 DUP4 GT PUSH2 0x575 JUMPI DUP3 SWAP1 SUB PUSH1 0x1F AND DUP3 ADD SWAP2 JUMPDEST POP POP POP POP POP DUP2 MSTORE PUSH1 0x20 ADD PUSH1 0x1 DUP3 ADD SLOAD DUP2 MSTORE POP POP SWAP1 POP DUP1 PUSH0 ADD MLOAD DUP2 PUSH1 0x20 ADD MLOAD SWAP3 POP SWAP3 POP POP SWAP2 POP SWAP2 JUMP JUMPDEST PUSH1 0x3 PUSH0 SWAP1 SLOAD SWAP1 PUSH2 0x100 EXP SWAP1 DIV PUSH1 0xFF AND ISZERO PUSH2 0x609 JUMPI PUSH1 0x40 MLOAD PUSH32 0x8C379A000000000000000000000000000000000000000000000000000000000 DUP2 MSTORE PUSH1 0x4 ADD PUSH2 0x600 SWAP1 PUSH2 0xC8E JUMP JUMPDEST PUSH1 0x40 MLOAD DUP1 SWAP2 SUB SWAP1 REVERT JUMPDEST PUSH0 PUSH1 0x40 MLOAD DUP1 PUSH1 0x40 ADD PUSH1 0x40 MSTORE DUP1 DUP4 DUP2 MSTORE PUSH1 0x20 ADD PUSH0 DUP2 MSTORE POP SWAP1 DUP1 PUSH1 0x1 DUP2 SLOAD ADD DUP1 DUP3 SSTORE DUP1 SWAP2 POP POP PUSH1 0x1 SWAP1 SUB SWAP1 PUSH0 MSTORE PUSH1 0x20 PUSH0 KECCAK256 SWAP1 PUSH1 0x2 MUL ADD PUSH0 SWAP1 SWAP2 SWAP1 SWAP2 SWAP1 SWAP2 POP PUSH0 DUP3 ADD MLOAD DUP2 PUSH0 ADD SWAP1 DUP2 PUSH2 0x658 SWAP2 SWAP1 PUSH2 0x107F JUMP JUMPDEST POP PUSH1 0x20 DUP3 ADD MLOAD DUP2 PUSH1 0x1 ADD SSTORE POP POP POP JUMP JUMPDEST PUSH1 0x3 PUSH0 SWAP1 SLOAD SWAP1 PUSH2 0x100 EXP SWAP1 DIV PUSH1 0xFF AND DUP2 JUMP JUMPDEST PUSH1 0x3 PUSH0 SWAP1 SLOAD SWAP1 PUSH2 0x100 EXP SWAP1 DIV PUSH1 0xFF AND ISZERO PUSH2 0x6C9 JUMPI PUSH1 0x40 MLOAD PUSH32 0x8C379A000000000000000000000000000000000000000000000000000000000 DUP2 MSTORE PUSH1 0x4 ADD PUSH2 0x6C0 SWAP1 PUSH2 0xC8E JUMP JUMPDEST PUSH1 0x40 MLOAD DUP1 SWAP2 SUB SWAP1 REVERT JUMPDEST PUSH1 0x1 PUSH1 0x3 PUSH0 PUSH2 0x100 EXP DUP2 SLOAD DUP2 PUSH1 0xFF MUL NOT AND SWAP1 DUP4 ISZERO ISZERO MUL OR SWAP1 SSTORE POP PUSH0 JUMPDEST PUSH1 0x2 DUP1 SLOAD SWAP1 POP DUP2 LT ISZERO PUSH2 0x795 JUMPI PUSH1 0x2 DUP2 DUP2 SLOAD DUP2 LT PUSH2 0x706 JUMPI PUSH2 0x705 PUSH2 0xD7C JUMP JUMPDEST JUMPDEST SWAP1 PUSH0 MSTORE PUSH1 0x20 PUSH0 KECCAK256 ADD PUSH0 SWAP1 SLOAD SWAP1 PUSH2 0x100 EXP SWAP1 DIV PUSH20 0xFFFFFFFFFFFFFFFFFFFFFFFFFFFFFFFFFFFFFFFF AND PUSH20 0xFFFFFFFFFFFFFFFFFFFFFFFFFFFFFFFFFFFFFFFF AND PUSH4 0x490B56D0 PUSH1 0x40 MLOAD DUP2 PUSH4 0xFFFFFFFF AND PUSH1 0xE0 SHL DUP2 MSTORE PUSH1 0x4 ADD PUSH0 PUSH1 0x40 MLOAD DUP1 DUP4 SUB DUP2 PUSH0 DUP8 DUP1 EXTCODESIZE ISZERO DUP1 ISZERO PUSH2 0x772 JUMPI PUSH0 DUP1 REVERT JUMPDEST POP GAS CALL ISZERO DUP1 ISZERO PUSH2 0x784 JUMPI RETURNDATASIZE PUSH0 DUP1 RETURNDATACOPY RETURNDATASIZE PUSH0 REVERT JUMPDEST POP POP POP POP DUP1 DUP1 PUSH1 0x1 ADD SWAP2 POP POP PUSH2 0x6E5 JUMP JUMPDEST POP PUSH32 0x7A19ED057DB79E3C2FA0B97A54B43BEF4FCE74B31BB6C01AF514B9A18A7F70AB PUSH1 0x40 MLOAD PUSH1 0x40 MLOAD DUP1 SWAP2 SUB SWAP1 LOG1 JUMP JUMPDEST PUSH1 0x3 PUSH0 SWAP1 SLOAD SWAP1 PUSH2 0x100 EXP SWAP1 DIV PUSH1 0xFF AND ISZERO PUSH2 0x813 JUMPI PUSH1 0x40 MLOAD PUSH32 0x8C379A000000000000000000000000000000000000000000000000000000000 DUP2 MSTORE PUSH1 0x4 ADD PUSH2 0x80A SWAP1 PUSH2 0xC8E JUMP JUMPDEST PUSH1 0x40 MLOAD DUP1 SWAP2 SUB SWAP1 REVERT JUMPDEST PUSH0 PUSH20 0xFFFFFFFFFFFFFFFFFFFFFFFFFFFFFFFFFFFFFFFF AND DUP2 PUSH20 0xFFFFFFFFFFFFFFFFFFFFFFFFFFFFFFFFFFFFFFFF AND SUB PUSH2 0x881 JUMPI PUSH1 0x40 MLOAD PUSH32 0x8C379A000000000000000000000000000000000000000000000000000000000 DUP2 MSTORE PUSH1 0x4 ADD PUSH2 0x878 SWAP1 PUSH2 0x1198 JUMP JUMPDEST PUSH1 0x40 MLOAD DUP1 SWAP2 SUB SWAP1 REVERT JUMPDEST PUSH1 0x2 DUP2 SWAP1 DUP1 PUSH1 0x1 DUP2 SLOAD ADD DUP1 DUP3 SSTORE DUP1 SWAP2 POP POP PUSH1 0x1 SWAP1 SUB SWAP1 PUSH0 MSTORE PUSH1 0x20 PUSH0 KECCAK256 ADD PUSH0 SWAP1 SWAP2 SWAP1 SWAP2 SWAP1 SWAP2 PUSH2 0x100 EXP DUP2 SLOAD DUP2 PUSH20 0xFFFFFFFFFFFFFFFFFFFFFFFFFFFFFFFFFFFFFFFF MUL NOT AND SWAP1 DUP4 PUSH20 0xFFFFFFFFFFFFFFFFFFFFFFFFFFFFFFFFFFFFFFFF AND MUL OR SWAP1 SSTORE POP POP JUMP JUMPDEST PUSH0 PUSH1 0x40 MLOAD SWAP1 POP SWAP1 JUMP JUMPDEST PUSH0 DUP1 REVERT JUMPDEST PUSH0 DUP1 REVERT JUMPDEST PUSH0 DUP2 SWAP1 POP SWAP2 SWAP1 POP JUMP JUMPDEST PUSH2 0x907 DUP2 PUSH2 0x8F5 JUMP JUMPDEST DUP2 EQ PUSH2 0x911 JUMPI PUSH0 DUP1 REVERT JUMPDEST POP JUMP JUMPDEST PUSH0 DUP2 CALLDATALOAD SWAP1 POP PUSH2 0x922 DUP2 PUSH2 0x8FE JUMP JUMPDEST SWAP3 SWAP2 POP POP JUMP JUMPDEST PUSH0 PUSH1 0x20 DUP3 DUP5 SUB SLT ISZERO PUSH2 0x93D JUMPI PUSH2 0x93C PUSH2 0x8ED JUMP JUMPDEST JUMPDEST PUSH0 PUSH2 0x94A DUP5 DUP3 DUP6 ADD PUSH2 0x914 JUMP JUMPDEST SWAP2 POP POP SWAP3 SWAP2 POP POP JUMP JUMPDEST PUSH0 PUSH20 0xFFFFFFFFFFFFFFFFFFFFFFFFFFFFFFFFFFFFFFFF DUP3 AND SWAP1 POP SWAP2 SWAP1 POP JUMP JUMPDEST PUSH0 PUSH2 0x97C DUP3 PUSH2 0x953 JUMP JUMPDEST SWAP1 POP SWAP2 SWAP1 POP JUMP JUMPDEST PUSH2 0x98C DUP2 PUSH2 0x972 JUMP JUMPDEST DUP2 EQ PUSH2 0x996 JUMPI PUSH0 DUP1 REVERT JUMPDEST POP JUMP JUMPDEST PUSH0 DUP2 CALLDATALOAD SWAP1 POP PUSH2 0x9A7 DUP2 PUSH2 0x983 JUMP JUMPDEST SWAP3 SWAP2 POP POP JUMP JUMPDEST PUSH0 PUSH1 0x20 DUP3 DUP5 SUB SLT ISZERO PUSH2 0x9C2 JUMPI PUSH2 0x9C1 PUSH2 0x8ED JUMP JUMPDEST JUMPDEST PUSH0 PUSH2 0x9CF DUP5 DUP3 DUP6 ADD PUSH2 0x999 JUMP JUMPDEST SWAP2 POP POP SWAP3 SWAP2 POP POP JUMP JUMPDEST PUSH0 DUP2 ISZERO ISZERO SWAP1 POP SWAP2 SWAP1 POP JUMP JUMPDEST PUSH2 0x9EC DUP2 PUSH2 0x9D8 JUMP JUMPDEST DUP3 MSTORE POP POP JUMP JUMPDEST PUSH0 PUSH1 0x20 DUP3 ADD SWAP1 POP PUSH2 0xA05 PUSH0 DUP4 ADD DUP5 PUSH2 0x9E3 JUMP JUMPDEST SWAP3 SWAP2 POP POP JUMP JUMPDEST PUSH2 0xA14 DUP2 PUSH2 0x8F5 JUMP JUMPDEST DUP3 MSTORE POP POP JUMP JUMPDEST PUSH0 PUSH1 0x20 DUP3 ADD SWAP1 POP PUSH2 0xA2D PUSH0 DUP4 ADD DUP5 PUSH2 0xA0B JUMP JUMPDEST SWAP3 SWAP2 POP POP JUMP JUMPDEST PUSH0 DUP2 MLOAD SWAP1 POP SWAP2 SWAP1 POP JUMP JUMPDEST PUSH0 DUP3 DUP3 MSTORE PUSH1 0x20 DUP3 ADD SWAP1 POP SWAP3 SWAP2 POP POP JUMP JUMPDEST DUP3 DUP2 DUP4 MCOPY PUSH0 DUP4 DUP4 ADD MSTORE POP POP POP JUMP JUMPDEST PUSH0 PUSH1 0x1F NOT PUSH1 0x1F DUP4 ADD AND SWAP1 POP SWAP2 SWAP1 POP JUMP JUMPDEST PUSH0 PUSH2 0xA75 DUP3 PUSH2 0xA33 JUMP JUMPDEST PUSH2 0xA7F DUP2 DUP6 PUSH2 0xA3D JUMP JUMPDEST SWAP4 POP PUSH2 0xA8F DUP2 DUP6 PUSH1 0x20 DUP7 ADD PUSH2 0xA4D JUMP JUMPDEST PUSH2 0xA98 DUP2 PUSH2 0xA5B JUMP JUMPDEST DUP5 ADD SWAP2 POP POP SWAP3 SWAP2 POP POP JUMP JUMPDEST PUSH0 PUSH1 0x40 DUP3 ADD SWAP1 POP DUP2 DUP2 SUB PUSH0 DUP4 ADD MSTORE PUSH2 0xABB DUP2 DUP6 PUSH2 0xA6B JUMP JUMPDEST SWAP1 POP PUSH2 0xACA PUSH1 0x20 DUP4 ADD DUP5 PUSH2 0xA0B JUMP JUMPDEST SWAP4 SWAP3 POP POP POP JUMP JUMPDEST PUSH0 DUP1 REVERT JUMPDEST PUSH0 DUP1 REVERT JUMPDEST PUSH32 0x4E487B7100000000000000000000000000000000000000000000000000000000 PUSH0 MSTORE PUSH1 0x41 PUSH1 0x4 MSTORE PUSH1 0x24 PUSH0 REVERT JUMPDEST PUSH2 0xB0F DUP3 PUSH2 0xA5B JUMP JUMPDEST DUP2 ADD DUP2 DUP2 LT PUSH8 0xFFFFFFFFFFFFFFFF DUP3 GT OR ISZERO PUSH2 0xB2E JUMPI PUSH2 0xB2D PUSH2 0xAD9 JUMP JUMPDEST JUMPDEST DUP1 PUSH1 0x40 MSTORE POP POP POP JUMP JUMPDEST PUSH0 PUSH2 0xB40 PUSH2 0x8E4 JUMP JUMPDEST SWAP1 POP PUSH2 0xB4C DUP3 DUP3 PUSH2 0xB06 JUMP JUMPDEST SWAP2 SWAP1 POP JUMP JUMPDEST PUSH0 PUSH8 0xFFFFFFFFFFFFFFFF DUP3 GT ISZERO PUSH2 0xB6B JUMPI PUSH2 0xB6A PUSH2 0xAD9 JUMP JUMPDEST JUMPDEST PUSH2 0xB74 DUP3 PUSH2 0xA5B JUMP JUMPDEST SWAP1 POP PUSH1 0x20 DUP2 ADD SWAP1 POP SWAP2 SWAP1 POP JUMP JUMPDEST DUP3 DUP2 DUP4 CALLDATACOPY PUSH0 DUP4 DUP4 ADD MSTORE POP POP POP JUMP JUMPDEST PUSH0 PUSH2 0xBA1 PUSH2 0xB9C DUP5 PUSH2 0xB51 JUMP JUMPDEST PUSH2 0xB37 JUMP JUMPDEST SWAP1 POP DUP3 DUP2 MSTORE PUSH1 0x20 DUP2 ADD DUP5 DUP5 DUP5 ADD GT ISZERO PUSH2 0xBBD JUMPI PUSH2 0xBBC PUSH2 0xAD5 JUMP JUMPDEST JUMPDEST PUSH2 0xBC8 DUP5 DUP3 DUP6 PUSH2 0xB81 JUMP JUMPDEST POP SWAP4 SWAP3 POP POP POP JUMP JUMPDEST PUSH0 DUP3 PUSH1 0x1F DUP4 ADD SLT PUSH2 0xBE4 JUMPI PUSH2 0xBE3 PUSH2 0xAD1 JUMP JUMPDEST JUMPDEST DUP2 CALLDATALOAD PUSH2 0xBF4 DUP5 DUP3 PUSH1 0x20 DUP7 ADD PUSH2 0xB8F JUMP JUMPDEST SWAP2 POP POP SWAP3 SWAP2 POP POP JUMP JUMPDEST PUSH0 PUSH1 0x20 DUP3 DUP5 SUB SLT ISZERO PUSH2 0xC12 JUMPI PUSH2 0xC11 PUSH2 0x8ED JUMP JUMPDEST JUMPDEST PUSH0 DUP3 ADD CALLDATALOAD PUSH8 0xFFFFFFFFFFFFFFFF DUP2 GT ISZERO PUSH2 0xC2F JUMPI PUSH2 0xC2E PUSH2 0x8F1 JUMP JUMPDEST JUMPDEST PUSH2 0xC3B DUP5 DUP3 DUP6 ADD PUSH2 0xBD0 JUMP JUMPDEST SWAP2 POP POP SWAP3 SWAP2 POP POP JUMP JUMPDEST PUSH32 0x566F74696E672068617320656E64656400000000000000000000000000000000 PUSH0 DUP3 ADD MSTORE POP JUMP JUMPDEST PUSH0 PUSH2 0xC78 PUSH1 0x10 DUP4 PUSH2 0xA3D JUMP JUMPDEST SWAP2 POP PUSH2 0xC83 DUP3 PUSH2 0xC44 JUMP JUMPDEST PUSH1 0x20 DUP3 ADD SWAP1 POP SWAP2 SWAP1 POP JUMP JUMPDEST PUSH0 PUSH1 0x20 DUP3 ADD SWAP1 POP DUP2 DUP2 SUB PUSH0 DUP4 ADD MSTORE PUSH2 0xCA5 DUP2 PUSH2 0xC6C JUMP JUMPDEST SWAP1 POP SWAP2 SWAP1 POP JUMP JUMPDEST PUSH32 0x496E76616C69642063616E64696461746520696E646578000000000000000000 PUSH0 DUP3 ADD MSTORE POP JUMP JUMPDEST PUSH0 PUSH2 0xCE0 PUSH1 0x17 DUP4 PUSH2 0xA3D JUMP JUMPDEST SWAP2 POP PUSH2 0xCEB DUP3 PUSH2 0xCAC JUMP JUMPDEST PUSH1 0x20 DUP3 ADD SWAP1 POP SWAP2 SWAP1 POP JUMP JUMPDEST PUSH0 PUSH1 0x20 DUP3 ADD SWAP1 POP DUP2 DUP2 SUB PUSH0 DUP4 ADD MSTORE PUSH2 0xD0D DUP2 PUSH2 0xCD4 JUMP JUMPDEST SWAP1 POP SWAP2 SWAP1 POP JUMP JUMPDEST PUSH32 0x596F75206861766520616C726561647920766F74656400000000000000000000 PUSH0 DUP3 ADD MSTORE POP JUMP JUMPDEST PUSH0 PUSH2 0xD48 PUSH1 0x16 DUP4 PUSH2 0xA3D JUMP JUMPDEST SWAP2 POP PUSH2 0xD53 DUP3 PUSH2 0xD14 JUMP JUMPDEST PUSH1 0x20 DUP3 ADD SWAP1 POP SWAP2 SWAP1 POP JUMP JUMPDEST PUSH0 PUSH1 0x20 DUP3 ADD SWAP1 POP DUP2 DUP2 SUB PUSH0 DUP4 ADD MSTORE PUSH2 0xD75 DUP2 PUSH2 0xD3C JUMP JUMPDEST SWAP1 POP SWAP2 SWAP1 POP JUMP JUMPDEST PUSH32 0x4E487B7100000000000000000000000000000000000000000000000000000000 PUSH0 MSTORE PUSH1 0x32 PUSH1 0x4 MSTORE PUSH1 0x24 PUSH0 REVERT JUMPDEST PUSH32 0x4E487B7100000000000000000000000000000000000000000000000000000000 PUSH0 MSTORE PUSH1 0x11 PUSH1 0x4 MSTORE PUSH1 0x24 PUSH0 REVERT JUMPDEST PUSH0 PUSH2 0xDE0 DUP3 PUSH2 0x8F5 JUMP JUMPDEST SWAP2 POP PUSH32 0xFFFFFFFFFFFFFFFFFFFFFFFFFFFFFFFFFFFFFFFFFFFFFFFFFFFFFFFFFFFFFFFF DUP3 SUB PUSH2 0xE12 JUMPI PUSH2 0xE11 PUSH2 0xDA9 JUMP JUMPDEST JUMPDEST PUSH1 0x1 DUP3 ADD SWAP1 POP SWAP2 SWAP1 POP JUMP JUMPDEST PUSH32 0x4E487B7100000000000000000000000000000000000000000000000000000000 PUSH0 MSTORE PUSH1 0x22 PUSH1 0x4 MSTORE PUSH1 0x24 PUSH0 REVERT JUMPDEST PUSH0 PUSH1 0x2 DUP3 DIV SWAP1 POP PUSH1 0x1 DUP3 AND DUP1 PUSH2 0xE61 JUMPI PUSH1 0x7F DUP3 AND SWAP2 POP JUMPDEST PUSH1 0x20 DUP3 LT DUP2 SUB PUSH2 0xE74 JUMPI PUSH2 0xE73 PUSH2 0xE1D JUMP JUMPDEST JUMPDEST POP SWAP2 SWAP1 POP JUMP JUMPDEST PUSH32 0x496E76616C696420696E64657800000000000000000000000000000000000000 PUSH0 DUP3 ADD MSTORE POP JUMP JUMPDEST PUSH0 PUSH2 0xEAE PUSH1 0xD DUP4 PUSH2 0xA3D JUMP JUMPDEST SWAP2 POP PUSH2 0xEB9 DUP3 PUSH2 0xE7A JUMP JUMPDEST PUSH1 0x20 DUP3 ADD SWAP1 POP SWAP2 SWAP1 POP JUMP JUMPDEST PUSH0 PUSH1 0x20 DUP3 ADD SWAP1 POP DUP2 DUP2 SUB PUSH0 DUP4 ADD MSTORE PUSH2 0xEDB DUP2 PUSH2 0xEA2 JUMP JUMPDEST SWAP1 POP SWAP2 SWAP1 POP JUMP JUMPDEST PUSH0 DUP2 SWAP1 POP DUP2 PUSH0 MSTORE PUSH1 0x20 PUSH0 KECCAK256 SWAP1 POP SWAP2 SWAP1 POP JUMP JUMPDEST PUSH0 PUSH1 0x20 PUSH1 0x1F DUP4 ADD DIV SWAP1 POP SWAP2 SWAP1 POP JUMP JUMPDEST PUSH0 DUP3 DUP3 SHL SWAP1 POP SWAP3 SWAP2 POP POP JUMP JUMPDEST PUSH0 PUSH1 0x8 DUP4 MUL PUSH2 0xF3E PUSH32 0xFFFFFFFFFFFFFFFFFFFFFFFFFFFFFFFFFFFFFFFFFFFFFFFFFFFFFFFFFFFFFFFF DUP3 PUSH2 0xF03 JUMP JUMPDEST PUSH2 0xF48 DUP7 DUP4 PUSH2 0xF03 JUMP JUMPDEST SWAP6 POP DUP1 NOT DUP5 AND SWAP4 POP DUP1 DUP7 AND DUP5 OR SWAP3 POP POP POP SWAP4 SWAP3 POP POP POP JUMP JUMPDEST PUSH0 DUP2 SWAP1 POP SWAP2 SWAP1 POP JUMP JUMPDEST PUSH0 PUSH2 0xF83 PUSH2 0xF7E PUSH2 0xF79 DUP5 PUSH2 0x8F5 JUMP JUMPDEST PUSH2 0xF60 JUMP JUMPDEST PUSH2 0x8F5 JUMP JUMPDEST SWAP1 POP SWAP2 SWAP1 POP JUMP JUMPDEST PUSH0 DUP2 SWAP1 POP SWAP2 SWAP1 POP JUMP JUMPDEST PUSH2 0xF9C DUP4 PUSH2 0xF69 JUMP JUMPDEST PUSH2 0xFB0 PUSH2 0xFA8 DUP3 PUSH2 0xF8A JUMP JUMPDEST DUP5 DUP5 SLOAD PUSH2 0xF0F JUMP JUMPDEST DUP3 SSTORE POP POP POP POP JUMP JUMPDEST PUSH0 SWAP1 JUMP JUMPDEST PUSH2 0xFC4 PUSH2 0xFB8 JUMP JUMPDEST PUSH2 0xFCF DUP2 DUP5 DUP5 PUSH2 0xF93 JUMP JUMPDEST POP POP POP JUMP JUMPDEST JUMPDEST DUP2 DUP2 LT ISZERO PUSH2 0xFF2 JUMPI PUSH2 0xFE7 PUSH0 DUP3 PUSH2 0xFBC JUMP JUMPDEST PUSH1 0x1 DUP2 ADD SWAP1 POP PUSH2 0xFD5 JUMP JUMPDEST POP POP JUMP JUMPDEST PUSH1 0x1F DUP3 GT ISZERO PUSH2 0x1037 JUMPI PUSH2 0x1008 DUP2 PUSH2 0xEE2 JUMP JUMPDEST PUSH2 0x1011 DUP5 PUSH2 0xEF4 JUMP JUMPDEST DUP2 ADD PUSH1 0x20 DUP6 LT ISZERO PUSH2 0x1020 JUMPI DUP2 SWAP1 POP JUMPDEST PUSH2 0x1034 PUSH2 0x102C DUP6 PUSH2 0xEF4 JUMP JUMPDEST DUP4 ADD DUP3 PUSH2 0xFD4 JUMP JUMPDEST POP POP JUMPDEST POP POP POP JUMP JUMPDEST PUSH0 DUP3 DUP3 SHR SWAP1 POP SWAP3 SWAP2 POP POP JUMP JUMPDEST PUSH0 PUSH2 0x1057 PUSH0 NOT DUP5 PUSH1 0x8 MUL PUSH2 0x103C JUMP JUMPDEST NOT DUP1 DUP4 AND SWAP2 POP POP SWAP3 SWAP2 POP POP JUMP JUMPDEST PUSH0 PUSH2 0x106F DUP4 DUP4 PUSH2 0x1048 JUMP JUMPDEST SWAP2 POP DUP3 PUSH1 0x2 MUL DUP3 OR SWAP1 POP SWAP3 SWAP2 POP POP JUMP JUMPDEST PUSH2 0x1088 DUP3 PUSH2 0xA33 JUMP JUMPDEST PUSH8 0xFFFFFFFFFFFFFFFF DUP2 GT ISZERO PUSH2 0x10A1 JUMPI PUSH2 0x10A0 PUSH2 0xAD9 JUMP JUMPDEST JUMPDEST PUSH2 0x10AB DUP3 SLOAD PUSH2 0xE4A JUMP JUMPDEST PUSH2 0x10B6 DUP3 DUP3 DUP6 PUSH2 0xFF6 JUMP JUMPDEST PUSH0 PUSH1 0x20 SWAP1 POP PUSH1 0x1F DUP4 GT PUSH1 0x1 DUP2 EQ PUSH2 0x10E7 JUMPI PUSH0 DUP5 ISZERO PUSH2 0x10D5 JUMPI DUP3 DUP8 ADD MLOAD SWAP1 POP JUMPDEST PUSH2 0x10DF DUP6 DUP3 PUSH2 0x1064 JUMP JUMPDEST DUP7 SSTORE POP PUSH2 0x1146 JUMP JUMPDEST PUSH1 0x1F NOT DUP5 AND PUSH2 0x10F5 DUP7 PUSH2 0xEE2 JUMP JUMPDEST PUSH0 JUMPDEST DUP3 DUP2 LT ISZERO PUSH2 0x111C JUMPI DUP5 DUP10 ADD MLOAD DUP3 SSTORE PUSH1 0x1 DUP3 ADD SWAP2 POP PUSH1 0x20 DUP6 ADD SWAP5 POP PUSH1 0x20 DUP2 ADD SWAP1 POP PUSH2 0x10F7 JUMP JUMPDEST DUP7 DUP4 LT ISZERO PUSH2 0x1139 JUMPI DUP5 DUP10 ADD MLOAD PUSH2 0x1135 PUSH1 0x1F DUP10 AND DUP3 PUSH2 0x1048 JUMP JUMPDEST DUP4 SSTORE POP JUMPDEST PUSH1 0x1 PUSH1 0x2 DUP9 MUL ADD DUP9 SSTORE POP POP POP JUMPDEST POP POP POP POP POP POP JUMP JUMPDEST PUSH32 0x496E76616C69642063616C6C6261636B20616464726573730000000000000000 PUSH0 DUP3 ADD MSTORE POP JUMP JUMPDEST PUSH0 PUSH2 0x1182 PUSH1 0x18 DUP4 PUSH2 0xA3D JUMP JUMPDEST SWAP2 POP PUSH2 0x118D DUP3 PUSH2 0x114E JUMP JUMPDEST PUSH1 0x20 DUP3 ADD SWAP1 POP SWAP2 SWAP1 POP JUMP JUMPDEST PUSH0 PUSH1 0x20 DUP3 ADD SWAP1 POP DUP2 DUP2 SUB PUSH0 DUP4 ADD MSTORE PUSH2 0x11AF DUP2 PUSH2 0x1176 JUMP JUMPDEST SWAP1 POP SWAP2 SWAP1 POP JUMP INVALID LOG2 PUSH5 0x6970667358 0x22 SLT KECCAK256 LOG2 0xC1 PUSH29 0x8CC0BB670604AD9F8BA3D68502B8282D40112B6BFE6BEA696ACF935816 PUSH5 0x736F6C6343 STOP ADDMOD BYTE STOP CALLER "
				},
				"gasEstimates": {
					"creation": {
						"codeDepositCost": "917600",
						"executionCost": "953",
						"totalCost": "918553"
					},
					"external": {
						"addCandidate(string)": "infinite",
						"candidates(uint256)": "infinite",
						"endVoting()": "infinite",
						"getCandidate(uint256)": "infinite",
						"getCandidateCount()": "2485",
						"hasVoted(address)": "2856",
						"registerCallback(address)": "51302",
						"vote(uint256)": "infinite",
						"votingEnded()": "2510"
					}
				},
				"methodIdentifiers": {
					"addCandidate(string)": "462e91ec",
					"candidates(uint256)": "3477ee2e",
					"endVoting()": "c3403ddf",
					"getCandidate(uint256)": "35b8e820",
					"getCandidateCount()": "30a56347",
					"hasVoted(address)": "09eef43e",
					"registerCallback(address)": "cf1b037c",
					"vote(uint256)": "0121b93f",
					"votingEnded()": "9d5a0529"
				}
			},
			"storageLayout": {
				"storage": [
					{
						"astId": 14,
						"contract": "contracts/Blockchain_Assignment_7/week7_task4.sol:VotingSystem",
						"label": "candidates",
						"offset": 0,
						"slot": "0",
						"type": "t_array(t_struct(Candidate)10_storage)dyn_storage"
					},
					{
						"astId": 18,
						"contract": "contracts/Blockchain_Assignment_7/week7_task4.sol:VotingSystem",
						"label": "hasVoted",
						"offset": 0,
						"slot": "1",
						"type": "t_mapping(t_address,t_bool)"
					},
					{
						"astId": 21,
						"contract": "contracts/Blockchain_Assignment_7/week7_task4.sol:VotingSystem",
						"label": "registeredCallbacks",
						"offset": 0,
						"slot": "2",
						"type": "t_array(t_address)dyn_storage"
					},
					{
						"astId": 23,
						"contract": "contracts/Blockchain_Assignment_7/week7_task4.sol:VotingSystem",
						"label": "votingEnded",
						"offset": 0,
						"slot": "3",
						"type": "t_bool"
					}
				],
				"types": {
					"t_address": {
						"encoding": "inplace",
						"label": "address",
						"numberOfBytes": "20"
					},
					"t_array(t_address)dyn_storage": {
						"base": "t_address",
						"encoding": "dynamic_array",
						"label": "address[]",
						"numberOfBytes": "32"
					},
					"t_array(t_struct(Candidate)10_storage)dyn_storage": {
						"base": "t_struct(Candidate)10_storage",
						"encoding": "dynamic_array",
						"label": "struct VotingSystem.Candidate[]",
						"numberOfBytes": "32"
					},
					"t_bool": {
						"encoding": "inplace",
						"label": "bool",
						"numberOfBytes": "1"
					},
					"t_mapping(t_address,t_bool)": {
						"encoding": "mapping",
						"key": "t_address",
						"label": "mapping(address => bool)",
						"numberOfBytes": "32",
						"value": "t_bool"
					},
					"t_string_storage": {
						"encoding": "bytes",
						"label": "string",
						"numberOfBytes": "32"
					},
					"t_struct(Candidate)10_storage": {
						"encoding": "inplace",
						"label": "struct VotingSystem.Candidate",
						"members": [
							{
								"astId": 7,
								"contract": "contracts/Blockchain_Assignment_7/week7_task4.sol:VotingSystem",
								"label": "name",
								"offset": 0,
								"slot": "0",
								"type": "t_string_storage"
							},
							{
								"astId": 9,
								"contract": "contracts/Blockchain_Assignment_7/week7_task4.sol:VotingSystem",
								"label": "voteCount",
								"offset": 0,
								"slot": "1",
								"type": "t_uint256"
							}
						],
						"numberOfBytes": "64"
					},
					"t_uint256": {
						"encoding": "inplace",
						"label": "uint256",
						"numberOfBytes": "32"
					}
				}
			},
			"userdoc": {
				"kind": "user",
				"methods": {},
				"version": 1
			}
		}
	}
}