{
	"contracts/Blockchain_Assignment_7/Week7_Task2.sol": {
		"MathLibraryUser": {
			"abi": [
				{
					"inputs": [
						{
							"internalType": "uint256",
							"name": "n",
							"type": "uint256"
						}
					],
					"name": "calculateFactorial",
					"outputs": [
						{
							"internalType": "uint256",
							"name": "",
							"type": "uint256"
						}
					],
					"stateMutability": "pure",
					"type": "function"
				},
				{
					"inputs": [
						{
							"internalType": "uint256",
							"name": "a",
							"type": "uint256"
						},
						{
							"internalType": "uint256",
							"name": "b",
							"type": "uint256"
						}
					],
					"name": "calculateGCD",
					"outputs": [
						{
							"internalType": "uint256",
							"name": "",
							"type": "uint256"
						}
					],
					"stateMutability": "pure",
					"type": "function"
				},
				{
					"inputs": [
						{
							"internalType": "uint256",
							"name": "base",
							"type": "uint256"
						},
						{
							"internalType": "uint256",
							"name": "exponent",
							"type": "uint256"
						}
					],
					"name": "calculatePower",
					"outputs": [
						{
							"internalType": "uint256",
							"name": "",
							"type": "uint256"
						}
					],
					"stateMutability": "pure",
					"type": "function"
				}
			],
			"devdoc": {
				"kind": "dev",
				"methods": {},
				"version": 1
			},
			"evm": {
				"assembly": "    /* \"contracts/Blockchain_Assignment_7/Week7_Task2.sol\":824:1257  contract MathLibraryUser {... */\n  mstore(0x40, 0x80)\n  callvalue\n  dup1\n  iszero\n  tag_1\n  jumpi\n  0x00\n  dup1\n  revert\ntag_1:\n  pop\n  dataSize(sub_0)\n  dup1\n  dataOffset(sub_0)\n  0x00\n  codecopy\n  0x00\n  return\nstop\n\nsub_0: assembly {\n        /* \"contracts/Blockchain_Assignment_7/Week7_Task2.sol\":824:1257  contract MathLibraryUser {... */\n      mstore(0x40, 0x80)\n      callvalue\n      dup1\n      iszero\n      tag_1\n      jumpi\n      0x00\n      dup1\n      revert\n    tag_1:\n      pop\n      jumpi(tag_2, lt(calldatasize, 0x04))\n      shr(0xe0, calldataload(0x00))\n      dup1\n      0x3d41c222\n      eq\n      tag_3\n      jumpi\n      dup1\n      0xa04c9a16\n      eq\n      tag_4\n      jumpi\n      dup1\n      0xf979f269\n      eq\n      tag_5\n      jumpi\n    tag_2:\n      0x00\n      dup1\n      revert\n        /* \"contracts/Blockchain_Assignment_7/Week7_Task2.sol\":1030:1138  function calculateFactorial(uint256 n) public pure returns (uint256) {... */\n    tag_3:\n      tag_6\n      0x04\n      dup1\n      calldatasize\n      sub\n      dup2\n      add\n      swap1\n      tag_7\n      swap2\n      swap1\n      tag_8\n      jump\t// in\n    tag_7:\n      tag_9\n      jump\t// in\n    tag_6:\n      mload(0x40)\n      tag_10\n      swap2\n      swap1\n      tag_11\n      jump\t// in\n    tag_10:\n      mload(0x40)\n      dup1\n      swap2\n      sub\n      swap1\n      return\n        /* \"contracts/Blockchain_Assignment_7/Week7_Task2.sol\":1146:1254  function calculateGCD(uint256 a, uint256 b) public pure returns (uint256) {... */\n    tag_4:\n      tag_12\n      0x04\n      dup1\n      calldatasize\n      sub\n      dup2\n      add\n      swap1\n      tag_13\n      swap2\n      swap1\n      tag_14\n      jump\t// in\n    tag_13:\n      tag_15\n      jump\t// in\n    tag_12:\n      mload(0x40)\n      tag_16\n      swap2\n      swap1\n      tag_11\n      jump\t// in\n    tag_16:\n      mload(0x40)\n      dup1\n      swap2\n      sub\n      swap1\n      return\n        /* \"contracts/Blockchain_Assignment_7/Week7_Task2.sol\":890:1022  function calculatePower(uint256 base, uint256 exponent) public pure returns (uint256) {... */\n    tag_5:\n      tag_17\n      0x04\n      dup1\n      calldatasize\n      sub\n      dup2\n      add\n      swap1\n      tag_18\n      swap2\n      swap1\n      tag_14\n      jump\t// in\n    tag_18:\n      tag_19\n      jump\t// in\n    tag_17:\n      mload(0x40)\n      tag_20\n      swap2\n      swap1\n      tag_11\n      jump\t// in\n    tag_20:\n      mload(0x40)\n      dup1\n      swap2\n      sub\n      swap1\n      return\n        /* \"contracts/Blockchain_Assignment_7/Week7_Task2.sol\":1030:1138  function calculateFactorial(uint256 n) public pure returns (uint256) {... */\n    tag_9:\n        /* \"contracts/Blockchain_Assignment_7/Week7_Task2.sol\":1090:1097  uint256 */\n      0x00\n        /* \"contracts/Blockchain_Assignment_7/Week7_Task2.sol\":1117:1130  n.factorial() */\n      tag_22\n        /* \"contracts/Blockchain_Assignment_7/Week7_Task2.sol\":1117:1118  n */\n      dup3\n        /* \"contracts/Blockchain_Assignment_7/Week7_Task2.sol\":1117:1128  n.factorial */\n      tag_23\n        /* \"contracts/Blockchain_Assignment_7/Week7_Task2.sol\":1117:1130  n.factorial() */\n      jump\t// in\n    tag_22:\n        /* \"contracts/Blockchain_Assignment_7/Week7_Task2.sol\":1110:1130  return n.factorial() */\n      swap1\n      pop\n        /* \"contracts/Blockchain_Assignment_7/Week7_Task2.sol\":1030:1138  function calculateFactorial(uint256 n) public pure returns (uint256) {... */\n      swap2\n      swap1\n      pop\n      jump\t// out\n        /* \"contracts/Blockchain_Assignment_7/Week7_Task2.sol\":1146:1254  function calculateGCD(uint256 a, uint256 b) public pure returns (uint256) {... */\n    tag_15:\n        /* \"contracts/Blockchain_Assignment_7/Week7_Task2.sol\":1211:1218  uint256 */\n      0x00\n        /* \"contracts/Blockchain_Assignment_7/Week7_Task2.sol\":1238:1246  a.gcd(b) */\n      tag_25\n        /* \"contracts/Blockchain_Assignment_7/Week7_Task2.sol\":1244:1245  b */\n      dup3\n        /* \"contracts/Blockchain_Assignment_7/Week7_Task2.sol\":1238:1239  a */\n      dup5\n        /* \"contracts/Blockchain_Assignment_7/Week7_Task2.sol\":1238:1243  a.gcd */\n      tag_26\n      swap1\n        /* \"contracts/Blockchain_Assignment_7/Week7_Task2.sol\":1238:1246  a.gcd(b) */\n      swap2\n      swap1\n      0xffffffff\n      and\n      jump\t// in\n    tag_25:\n        /* \"contracts/Blockchain_Assignment_7/Week7_Task2.sol\":1231:1246  return a.gcd(b) */\n      swap1\n      pop\n        /* \"contracts/Blockchain_Assignment_7/Week7_Task2.sol\":1146:1254  function calculateGCD(uint256 a, uint256 b) public pure returns (uint256) {... */\n      swap3\n      swap2\n      pop\n      pop\n      jump\t// out\n        /* \"contracts/Blockchain_Assignment_7/Week7_Task2.sol\":890:1022  function calculatePower(uint256 base, uint256 exponent) public pure returns (uint256) {... */\n    tag_19:\n        /* \"contracts/Blockchain_Assignment_7/Week7_Task2.sol\":967:974  uint256 */\n      0x00\n        /* \"contracts/Blockchain_Assignment_7/Week7_Task2.sol\":994:1014  base.power(exponent) */\n      tag_28\n        /* \"contracts/Blockchain_Assignment_7/Week7_Task2.sol\":1005:1013  exponent */\n      dup3\n        /* \"contracts/Blockchain_Assignment_7/Week7_Task2.sol\":994:998  base */\n      dup5\n        /* \"contracts/Blockchain_Assignment_7/Week7_Task2.sol\":994:1004  base.power */\n      tag_29\n      swap1\n        /* \"contracts/Blockchain_Assignment_7/Week7_Task2.sol\":994:1014  base.power(exponent) */\n      swap2\n      swap1\n      0xffffffff\n      and\n      jump\t// in\n    tag_28:\n        /* \"contracts/Blockchain_Assignment_7/Week7_Task2.sol\":987:1014  return base.power(exponent) */\n      swap1\n      pop\n        /* \"contracts/Blockchain_Assignment_7/Week7_Task2.sol\":890:1022  function calculatePower(uint256 base, uint256 exponent) public pure returns (uint256) {... */\n      swap3\n      swap2\n      pop\n      pop\n      jump\t// out\n        /* \"contracts/Blockchain_Assignment_7/Week7_Task2.sol\":321:600  function factorial(uint256 n) internal pure returns (uint256) {... */\n    tag_23:\n        /* \"contracts/Blockchain_Assignment_7/Week7_Task2.sol\":374:381  uint256 */\n      0x00\n        /* \"contracts/Blockchain_Assignment_7/Week7_Task2.sol\":407:408  0 */\n      dup1\n        /* \"contracts/Blockchain_Assignment_7/Week7_Task2.sol\":402:403  n */\n      dup3\n        /* \"contracts/Blockchain_Assignment_7/Week7_Task2.sol\":402:408  n >= 0 */\n      lt\n      iszero\n        /* \"contracts/Blockchain_Assignment_7/Week7_Task2.sol\":394:458  require(n >= 0, \"Factorial is not defined for negative numbers\") */\n      tag_31\n      jumpi\n      mload(0x40)\n      0x08c379a000000000000000000000000000000000000000000000000000000000\n      dup2\n      mstore\n      0x04\n      add\n      tag_32\n      swap1\n      tag_33\n      jump\t// in\n    tag_32:\n      mload(0x40)\n      dup1\n      swap2\n      sub\n      swap1\n      revert\n    tag_31:\n        /* \"contracts/Blockchain_Assignment_7/Week7_Task2.sol\":469:483  uint256 result */\n      0x00\n        /* \"contracts/Blockchain_Assignment_7/Week7_Task2.sol\":486:487  1 */\n      0x01\n        /* \"contracts/Blockchain_Assignment_7/Week7_Task2.sol\":469:487  uint256 result = 1 */\n      swap1\n      pop\n        /* \"contracts/Blockchain_Assignment_7/Week7_Task2.sol\":503:512  uint256 i */\n      0x00\n        /* \"contracts/Blockchain_Assignment_7/Week7_Task2.sol\":515:516  1 */\n      0x01\n        /* \"contracts/Blockchain_Assignment_7/Week7_Task2.sol\":503:516  uint256 i = 1 */\n      swap1\n      pop\n        /* \"contracts/Blockchain_Assignment_7/Week7_Task2.sol\":498:569  for (uint256 i = 1; i <= n; i++) {... */\n    tag_34:\n        /* \"contracts/Blockchain_Assignment_7/Week7_Task2.sol\":523:524  n */\n      dup4\n        /* \"contracts/Blockchain_Assignment_7/Week7_Task2.sol\":518:519  i */\n      dup2\n        /* \"contracts/Blockchain_Assignment_7/Week7_Task2.sol\":518:524  i <= n */\n      gt\n        /* \"contracts/Blockchain_Assignment_7/Week7_Task2.sol\":498:569  for (uint256 i = 1; i <= n; i++) {... */\n      tag_35\n      jumpi\n        /* \"contracts/Blockchain_Assignment_7/Week7_Task2.sol\":556:557  i */\n      dup1\n        /* \"contracts/Blockchain_Assignment_7/Week7_Task2.sol\":546:557  result *= i */\n      dup3\n      tag_37\n      swap2\n      swap1\n      tag_38\n      jump\t// in\n    tag_37:\n      swap2\n      pop\n        /* \"contracts/Blockchain_Assignment_7/Week7_Task2.sol\":526:529  i++ */\n      dup1\n      dup1\n      tag_39\n      swap1\n      tag_40\n      jump\t// in\n    tag_39:\n      swap2\n      pop\n      pop\n        /* \"contracts/Blockchain_Assignment_7/Week7_Task2.sol\":498:569  for (uint256 i = 1; i <= n; i++) {... */\n      jump(tag_34)\n    tag_35:\n      pop\n        /* \"contracts/Blockchain_Assignment_7/Week7_Task2.sol\":586:592  result */\n      dup1\n        /* \"contracts/Blockchain_Assignment_7/Week7_Task2.sol\":579:592  return result */\n      swap2\n      pop\n      pop\n        /* \"contracts/Blockchain_Assignment_7/Week7_Task2.sol\":321:600  function factorial(uint256 n) internal pure returns (uint256) {... */\n      swap2\n      swap1\n      pop\n      jump\t// out\n        /* \"contracts/Blockchain_Assignment_7/Week7_Task2.sol\":608:817  function gcd(uint256 a, uint256 b) internal pure returns (uint256) {... */\n    tag_26:\n        /* \"contracts/Blockchain_Assignment_7/Week7_Task2.sol\":666:673  uint256 */\n      0x00\n        /* \"contracts/Blockchain_Assignment_7/Week7_Task2.sol\":686:791  while (b != 0) {... */\n    tag_42:\n        /* \"contracts/Blockchain_Assignment_7/Week7_Task2.sol\":698:699  0 */\n      0x00\n        /* \"contracts/Blockchain_Assignment_7/Week7_Task2.sol\":693:694  b */\n      dup3\n        /* \"contracts/Blockchain_Assignment_7/Week7_Task2.sol\":693:699  b != 0 */\n      eq\n        /* \"contracts/Blockchain_Assignment_7/Week7_Task2.sol\":686:791  while (b != 0) {... */\n      tag_43\n      jumpi\n        /* \"contracts/Blockchain_Assignment_7/Week7_Task2.sol\":716:728  uint256 temp */\n      0x00\n        /* \"contracts/Blockchain_Assignment_7/Week7_Task2.sol\":731:732  b */\n      dup3\n        /* \"contracts/Blockchain_Assignment_7/Week7_Task2.sol\":716:732  uint256 temp = b */\n      swap1\n      pop\n        /* \"contracts/Blockchain_Assignment_7/Week7_Task2.sol\":755:756  b */\n      dup3\n        /* \"contracts/Blockchain_Assignment_7/Week7_Task2.sol\":751:752  a */\n      dup5\n        /* \"contracts/Blockchain_Assignment_7/Week7_Task2.sol\":751:756  a % b */\n      tag_44\n      swap2\n      swap1\n      tag_45\n      jump\t// in\n    tag_44:\n        /* \"contracts/Blockchain_Assignment_7/Week7_Task2.sol\":747:756  b = a % b */\n      swap3\n      pop\n        /* \"contracts/Blockchain_Assignment_7/Week7_Task2.sol\":775:779  temp */\n      dup1\n        /* \"contracts/Blockchain_Assignment_7/Week7_Task2.sol\":771:779  a = temp */\n      swap4\n      pop\n        /* \"contracts/Blockchain_Assignment_7/Week7_Task2.sol\":701:791  {... */\n      pop\n        /* \"contracts/Blockchain_Assignment_7/Week7_Task2.sol\":686:791  while (b != 0) {... */\n      jump(tag_42)\n    tag_43:\n        /* \"contracts/Blockchain_Assignment_7/Week7_Task2.sol\":808:809  a */\n      dup3\n        /* \"contracts/Blockchain_Assignment_7/Week7_Task2.sol\":801:809  return a */\n      swap1\n      pop\n        /* \"contracts/Blockchain_Assignment_7/Week7_Task2.sol\":608:817  function gcd(uint256 a, uint256 b) internal pure returns (uint256) {... */\n      swap3\n      swap2\n      pop\n      pop\n      jump\t// out\n        /* \"contracts/Blockchain_Assignment_7/Week7_Task2.sol\":83:313  function power(uint256 base, uint256 exponent) internal pure returns (uint256) {... */\n    tag_29:\n        /* \"contracts/Blockchain_Assignment_7/Week7_Task2.sol\":153:160  uint256 */\n      0x00\n        /* \"contracts/Blockchain_Assignment_7/Week7_Task2.sol\":173:187  uint256 result */\n      dup1\n        /* \"contracts/Blockchain_Assignment_7/Week7_Task2.sol\":190:191  1 */\n      0x01\n        /* \"contracts/Blockchain_Assignment_7/Week7_Task2.sol\":173:191  uint256 result = 1 */\n      swap1\n      pop\n        /* \"contracts/Blockchain_Assignment_7/Week7_Task2.sol\":207:216  uint256 i */\n      0x00\n        /* \"contracts/Blockchain_Assignment_7/Week7_Task2.sol\":202:282  for (uint256 i = 0; i < exponent; i++) {... */\n    tag_47:\n        /* \"contracts/Blockchain_Assignment_7/Week7_Task2.sol\":226:234  exponent */\n      dup4\n        /* \"contracts/Blockchain_Assignment_7/Week7_Task2.sol\":222:223  i */\n      dup2\n        /* \"contracts/Blockchain_Assignment_7/Week7_Task2.sol\":222:234  i < exponent */\n      lt\n        /* \"contracts/Blockchain_Assignment_7/Week7_Task2.sol\":202:282  for (uint256 i = 0; i < exponent; i++) {... */\n      iszero\n      tag_48\n      jumpi\n        /* \"contracts/Blockchain_Assignment_7/Week7_Task2.sol\":266:270  base */\n      dup5\n        /* \"contracts/Blockchain_Assignment_7/Week7_Task2.sol\":256:270  result *= base */\n      dup3\n      tag_50\n      swap2\n      swap1\n      tag_38\n      jump\t// in\n    tag_50:\n      swap2\n      pop\n        /* \"contracts/Blockchain_Assignment_7/Week7_Task2.sol\":236:239  i++ */\n      dup1\n      dup1\n      0x01\n      add\n      swap2\n      pop\n      pop\n        /* \"contracts/Blockchain_Assignment_7/Week7_Task2.sol\":202:282  for (uint256 i = 0; i < exponent; i++) {... */\n      jump(tag_47)\n    tag_48:\n      pop\n        /* \"contracts/Blockchain_Assignment_7/Week7_Task2.sol\":299:305  result */\n      dup1\n        /* \"contracts/Blockchain_Assignment_7/Week7_Task2.sol\":292:305  return result */\n      swap2\n      pop\n      pop\n        /* \"contracts/Blockchain_Assignment_7/Week7_Task2.sol\":83:313  function power(uint256 base, uint256 exponent) internal pure returns (uint256) {... */\n      swap3\n      swap2\n      pop\n      pop\n      jump\t// out\n        /* \"#utility.yul\":88:205   */\n    tag_52:\n        /* \"#utility.yul\":197:198   */\n      0x00\n        /* \"#utility.yul\":194:195   */\n      dup1\n        /* \"#utility.yul\":187:199   */\n      revert\n        /* \"#utility.yul\":334:411   */\n    tag_54:\n        /* \"#utility.yul\":371:378   */\n      0x00\n        /* \"#utility.yul\":400:405   */\n      dup2\n        /* \"#utility.yul\":389:405   */\n      swap1\n      pop\n        /* \"#utility.yul\":334:411   */\n      swap2\n      swap1\n      pop\n      jump\t// out\n        /* \"#utility.yul\":417:539   */\n    tag_55:\n        /* \"#utility.yul\":490:514   */\n      tag_69\n        /* \"#utility.yul\":508:513   */\n      dup2\n        /* \"#utility.yul\":490:514   */\n      tag_54\n      jump\t// in\n    tag_69:\n        /* \"#utility.yul\":483:488   */\n      dup2\n        /* \"#utility.yul\":480:515   */\n      eq\n        /* \"#utility.yul\":470:533   */\n      tag_70\n      jumpi\n        /* \"#utility.yul\":529:530   */\n      0x00\n        /* \"#utility.yul\":526:527   */\n      dup1\n        /* \"#utility.yul\":519:531   */\n      revert\n        /* \"#utility.yul\":470:533   */\n    tag_70:\n        /* \"#utility.yul\":417:539   */\n      pop\n      jump\t// out\n        /* \"#utility.yul\":545:684   */\n    tag_56:\n        /* \"#utility.yul\":591:596   */\n      0x00\n        /* \"#utility.yul\":629:635   */\n      dup2\n        /* \"#utility.yul\":616:636   */\n      calldataload\n        /* \"#utility.yul\":607:636   */\n      swap1\n      pop\n        /* \"#utility.yul\":645:678   */\n      tag_72\n        /* \"#utility.yul\":672:677   */\n      dup2\n        /* \"#utility.yul\":645:678   */\n      tag_55\n      jump\t// in\n    tag_72:\n        /* \"#utility.yul\":545:684   */\n      swap3\n      swap2\n      pop\n      pop\n      jump\t// out\n        /* \"#utility.yul\":690:1019   */\n    tag_8:\n        /* \"#utility.yul\":749:755   */\n      0x00\n        /* \"#utility.yul\":798:800   */\n      0x20\n        /* \"#utility.yul\":786:795   */\n      dup3\n        /* \"#utility.yul\":777:784   */\n      dup5\n        /* \"#utility.yul\":773:796   */\n      sub\n        /* \"#utility.yul\":769:801   */\n      slt\n        /* \"#utility.yul\":766:885   */\n      iszero\n      tag_74\n      jumpi\n        /* \"#utility.yul\":804:883   */\n      tag_75\n      tag_52\n      jump\t// in\n    tag_75:\n        /* \"#utility.yul\":766:885   */\n    tag_74:\n        /* \"#utility.yul\":924:925   */\n      0x00\n        /* \"#utility.yul\":949:1002   */\n      tag_76\n        /* \"#utility.yul\":994:1001   */\n      dup5\n        /* \"#utility.yul\":985:991   */\n      dup3\n        /* \"#utility.yul\":974:983   */\n      dup6\n        /* \"#utility.yul\":970:992   */\n      add\n        /* \"#utility.yul\":949:1002   */\n      tag_56\n      jump\t// in\n    tag_76:\n        /* \"#utility.yul\":939:1002   */\n      swap2\n      pop\n        /* \"#utility.yul\":895:1012   */\n      pop\n        /* \"#utility.yul\":690:1019   */\n      swap3\n      swap2\n      pop\n      pop\n      jump\t// out\n        /* \"#utility.yul\":1025:1143   */\n    tag_57:\n        /* \"#utility.yul\":1112:1136   */\n      tag_78\n        /* \"#utility.yul\":1130:1135   */\n      dup2\n        /* \"#utility.yul\":1112:1136   */\n      tag_54\n      jump\t// in\n    tag_78:\n        /* \"#utility.yul\":1107:1110   */\n      dup3\n        /* \"#utility.yul\":1100:1137   */\n      mstore\n        /* \"#utility.yul\":1025:1143   */\n      pop\n      pop\n      jump\t// out\n        /* \"#utility.yul\":1149:1371   */\n    tag_11:\n        /* \"#utility.yul\":1242:1246   */\n      0x00\n        /* \"#utility.yul\":1280:1282   */\n      0x20\n        /* \"#utility.yul\":1269:1278   */\n      dup3\n        /* \"#utility.yul\":1265:1283   */\n      add\n        /* \"#utility.yul\":1257:1283   */\n      swap1\n      pop\n        /* \"#utility.yul\":1293:1364   */\n      tag_80\n        /* \"#utility.yul\":1361:1362   */\n      0x00\n        /* \"#utility.yul\":1350:1359   */\n      dup4\n        /* \"#utility.yul\":1346:1363   */\n      add\n        /* \"#utility.yul\":1337:1343   */\n      dup5\n        /* \"#utility.yul\":1293:1364   */\n      tag_57\n      jump\t// in\n    tag_80:\n        /* \"#utility.yul\":1149:1371   */\n      swap3\n      swap2\n      pop\n      pop\n      jump\t// out\n        /* \"#utility.yul\":1377:1851   */\n    tag_14:\n        /* \"#utility.yul\":1445:1451   */\n      0x00\n        /* \"#utility.yul\":1453:1459   */\n      dup1\n        /* \"#utility.yul\":1502:1504   */\n      0x40\n        /* \"#utility.yul\":1490:1499   */\n      dup4\n        /* \"#utility.yul\":1481:1488   */\n      dup6\n        /* \"#utility.yul\":1477:1500   */\n      sub\n        /* \"#utility.yul\":1473:1505   */\n      slt\n        /* \"#utility.yul\":1470:1589   */\n      iszero\n      tag_82\n      jumpi\n        /* \"#utility.yul\":1508:1587   */\n      tag_83\n      tag_52\n      jump\t// in\n    tag_83:\n        /* \"#utility.yul\":1470:1589   */\n    tag_82:\n        /* \"#utility.yul\":1628:1629   */\n      0x00\n        /* \"#utility.yul\":1653:1706   */\n      tag_84\n        /* \"#utility.yul\":1698:1705   */\n      dup6\n        /* \"#utility.yul\":1689:1695   */\n      dup3\n        /* \"#utility.yul\":1678:1687   */\n      dup7\n        /* \"#utility.yul\":1674:1696   */\n      add\n        /* \"#utility.yul\":1653:1706   */\n      tag_56\n      jump\t// in\n    tag_84:\n        /* \"#utility.yul\":1643:1706   */\n      swap3\n      pop\n        /* \"#utility.yul\":1599:1716   */\n      pop\n        /* \"#utility.yul\":1755:1757   */\n      0x20\n        /* \"#utility.yul\":1781:1834   */\n      tag_85\n        /* \"#utility.yul\":1826:1833   */\n      dup6\n        /* \"#utility.yul\":1817:1823   */\n      dup3\n        /* \"#utility.yul\":1806:1815   */\n      dup7\n        /* \"#utility.yul\":1802:1824   */\n      add\n        /* \"#utility.yul\":1781:1834   */\n      tag_56\n      jump\t// in\n    tag_85:\n        /* \"#utility.yul\":1771:1834   */\n      swap2\n      pop\n        /* \"#utility.yul\":1726:1844   */\n      pop\n        /* \"#utility.yul\":1377:1851   */\n      swap3\n      pop\n      swap3\n      swap1\n      pop\n      jump\t// out\n        /* \"#utility.yul\":1857:2026   */\n    tag_58:\n        /* \"#utility.yul\":1941:1952   */\n      0x00\n        /* \"#utility.yul\":1975:1981   */\n      dup3\n        /* \"#utility.yul\":1970:1973   */\n      dup3\n        /* \"#utility.yul\":1963:1982   */\n      mstore\n        /* \"#utility.yul\":2015:2019   */\n      0x20\n        /* \"#utility.yul\":2010:2013   */\n      dup3\n        /* \"#utility.yul\":2006:2020   */\n      add\n        /* \"#utility.yul\":1991:2020   */\n      swap1\n      pop\n        /* \"#utility.yul\":1857:2026   */\n      swap3\n      swap2\n      pop\n      pop\n      jump\t// out\n        /* \"#utility.yul\":2032:2264   */\n    tag_59:\n        /* \"#utility.yul\":2172:2206   */\n      0x466163746f7269616c206973206e6f7420646566696e656420666f72206e6567\n        /* \"#utility.yul\":2168:2169   */\n      0x00\n        /* \"#utility.yul\":2160:2166   */\n      dup3\n        /* \"#utility.yul\":2156:2170   */\n      add\n        /* \"#utility.yul\":2149:2207   */\n      mstore\n        /* \"#utility.yul\":2241:2256   */\n      0x6174697665206e756d6265727300000000000000000000000000000000000000\n        /* \"#utility.yul\":2236:2238   */\n      0x20\n        /* \"#utility.yul\":2228:2234   */\n      dup3\n        /* \"#utility.yul\":2224:2239   */\n      add\n        /* \"#utility.yul\":2217:2257   */\n      mstore\n        /* \"#utility.yul\":2032:2264   */\n      pop\n      jump\t// out\n        /* \"#utility.yul\":2270:2636   */\n    tag_60:\n        /* \"#utility.yul\":2412:2415   */\n      0x00\n        /* \"#utility.yul\":2433:2500   */\n      tag_89\n        /* \"#utility.yul\":2497:2499   */\n      0x2d\n        /* \"#utility.yul\":2492:2495   */\n      dup4\n        /* \"#utility.yul\":2433:2500   */\n      tag_58\n      jump\t// in\n    tag_89:\n        /* \"#utility.yul\":2426:2500   */\n      swap2\n      pop\n        /* \"#utility.yul\":2509:2602   */\n      tag_90\n        /* \"#utility.yul\":2598:2601   */\n      dup3\n        /* \"#utility.yul\":2509:2602   */\n      tag_59\n      jump\t// in\n    tag_90:\n        /* \"#utility.yul\":2627:2629   */\n      0x40\n        /* \"#utility.yul\":2622:2625   */\n      dup3\n        /* \"#utility.yul\":2618:2630   */\n      add\n        /* \"#utility.yul\":2611:2630   */\n      swap1\n      pop\n        /* \"#utility.yul\":2270:2636   */\n      swap2\n      swap1\n      pop\n      jump\t// out\n        /* \"#utility.yul\":2642:3061   */\n    tag_33:\n        /* \"#utility.yul\":2808:2812   */\n      0x00\n        /* \"#utility.yul\":2846:2848   */\n      0x20\n        /* \"#utility.yul\":2835:2844   */\n      dup3\n        /* \"#utility.yul\":2831:2849   */\n      add\n        /* \"#utility.yul\":2823:2849   */\n      swap1\n      pop\n        /* \"#utility.yul\":2895:2904   */\n      dup2\n        /* \"#utility.yul\":2889:2893   */\n      dup2\n        /* \"#utility.yul\":2885:2905   */\n      sub\n        /* \"#utility.yul\":2881:2882   */\n      0x00\n        /* \"#utility.yul\":2870:2879   */\n      dup4\n        /* \"#utility.yul\":2866:2883   */\n      add\n        /* \"#utility.yul\":2859:2906   */\n      mstore\n        /* \"#utility.yul\":2923:3054   */\n      tag_92\n        /* \"#utility.yul\":3049:3053   */\n      dup2\n        /* \"#utility.yul\":2923:3054   */\n      tag_60\n      jump\t// in\n    tag_92:\n        /* \"#utility.yul\":2915:3054   */\n      swap1\n      pop\n        /* \"#utility.yul\":2642:3061   */\n      swap2\n      swap1\n      pop\n      jump\t// out\n        /* \"#utility.yul\":3067:3247   */\n    tag_61:\n        /* \"#utility.yul\":3115:3192   */\n      0x4e487b7100000000000000000000000000000000000000000000000000000000\n        /* \"#utility.yul\":3112:3113   */\n      0x00\n        /* \"#utility.yul\":3105:3193   */\n      mstore\n        /* \"#utility.yul\":3212:3216   */\n      0x11\n        /* \"#utility.yul\":3209:3210   */\n      0x04\n        /* \"#utility.yul\":3202:3217   */\n      mstore\n        /* \"#utility.yul\":3236:3240   */\n      0x24\n        /* \"#utility.yul\":3233:3234   */\n      0x00\n        /* \"#utility.yul\":3226:3241   */\n      revert\n        /* \"#utility.yul\":3253:3663   */\n    tag_38:\n        /* \"#utility.yul\":3293:3300   */\n      0x00\n        /* \"#utility.yul\":3316:3336   */\n      tag_95\n        /* \"#utility.yul\":3334:3335   */\n      dup3\n        /* \"#utility.yul\":3316:3336   */\n      tag_54\n      jump\t// in\n    tag_95:\n        /* \"#utility.yul\":3311:3336   */\n      swap2\n      pop\n        /* \"#utility.yul\":3350:3370   */\n      tag_96\n        /* \"#utility.yul\":3368:3369   */\n      dup4\n        /* \"#utility.yul\":3350:3370   */\n      tag_54\n      jump\t// in\n    tag_96:\n        /* \"#utility.yul\":3345:3370   */\n      swap3\n      pop\n        /* \"#utility.yul\":3405:3406   */\n      dup3\n        /* \"#utility.yul\":3402:3403   */\n      dup3\n        /* \"#utility.yul\":3398:3407   */\n      mul\n        /* \"#utility.yul\":3427:3457   */\n      tag_97\n        /* \"#utility.yul\":3445:3456   */\n      dup2\n        /* \"#utility.yul\":3427:3457   */\n      tag_54\n      jump\t// in\n    tag_97:\n        /* \"#utility.yul\":3416:3457   */\n      swap2\n      pop\n        /* \"#utility.yul\":3606:3607   */\n      dup3\n        /* \"#utility.yul\":3597:3604   */\n      dup3\n        /* \"#utility.yul\":3593:3608   */\n      div\n        /* \"#utility.yul\":3590:3591   */\n      dup5\n        /* \"#utility.yul\":3587:3609   */\n      eq\n        /* \"#utility.yul\":3567:3568   */\n      dup4\n        /* \"#utility.yul\":3560:3569   */\n      iszero\n        /* \"#utility.yul\":3540:3623   */\n      or\n        /* \"#utility.yul\":3517:3656   */\n      tag_98\n      jumpi\n        /* \"#utility.yul\":3636:3654   */\n      tag_99\n      tag_61\n      jump\t// in\n    tag_99:\n        /* \"#utility.yul\":3517:3656   */\n    tag_98:\n        /* \"#utility.yul\":3301:3663   */\n      pop\n        /* \"#utility.yul\":3253:3663   */\n      swap3\n      swap2\n      pop\n      pop\n      jump\t// out\n        /* \"#utility.yul\":3669:3902   */\n    tag_40:\n        /* \"#utility.yul\":3708:3711   */\n      0x00\n        /* \"#utility.yul\":3731:3755   */\n      tag_101\n        /* \"#utility.yul\":3749:3754   */\n      dup3\n        /* \"#utility.yul\":3731:3755   */\n      tag_54\n      jump\t// in\n    tag_101:\n        /* \"#utility.yul\":3722:3755   */\n      swap2\n      pop\n        /* \"#utility.yul\":3777:3843   */\n      0xffffffffffffffffffffffffffffffffffffffffffffffffffffffffffffffff\n        /* \"#utility.yul\":3770:3775   */\n      dup3\n        /* \"#utility.yul\":3767:3844   */\n      sub\n        /* \"#utility.yul\":3764:3867   */\n      tag_102\n      jumpi\n        /* \"#utility.yul\":3847:3865   */\n      tag_103\n      tag_61\n      jump\t// in\n    tag_103:\n        /* \"#utility.yul\":3764:3867   */\n    tag_102:\n        /* \"#utility.yul\":3894:3895   */\n      0x01\n        /* \"#utility.yul\":3887:3892   */\n      dup3\n        /* \"#utility.yul\":3883:3896   */\n      add\n        /* \"#utility.yul\":3876:3896   */\n      swap1\n      pop\n        /* \"#utility.yul\":3669:3902   */\n      swap2\n      swap1\n      pop\n      jump\t// out\n        /* \"#utility.yul\":3908:4088   */\n    tag_62:\n        /* \"#utility.yul\":3956:4033   */\n      0x4e487b7100000000000000000000000000000000000000000000000000000000\n        /* \"#utility.yul\":3953:3954   */\n      0x00\n        /* \"#utility.yul\":3946:4034   */\n      mstore\n        /* \"#utility.yul\":4053:4057   */\n      0x12\n        /* \"#utility.yul\":4050:4051   */\n      0x04\n        /* \"#utility.yul\":4043:4058   */\n      mstore\n        /* \"#utility.yul\":4077:4081   */\n      0x24\n        /* \"#utility.yul\":4074:4075   */\n      0x00\n        /* \"#utility.yul\":4067:4082   */\n      revert\n        /* \"#utility.yul\":4094:4270   */\n    tag_45:\n        /* \"#utility.yul\":4126:4127   */\n      0x00\n        /* \"#utility.yul\":4143:4163   */\n      tag_106\n        /* \"#utility.yul\":4161:4162   */\n      dup3\n        /* \"#utility.yul\":4143:4163   */\n      tag_54\n      jump\t// in\n    tag_106:\n        /* \"#utility.yul\":4138:4163   */\n      swap2\n      pop\n        /* \"#utility.yul\":4177:4197   */\n      tag_107\n        /* \"#utility.yul\":4195:4196   */\n      dup4\n        /* \"#utility.yul\":4177:4197   */\n      tag_54\n      jump\t// in\n    tag_107:\n        /* \"#utility.yul\":4172:4197   */\n      swap3\n      pop\n        /* \"#utility.yul\":4216:4217   */\n      dup3\n        /* \"#utility.yul\":4206:4241   */\n      tag_108\n      jumpi\n        /* \"#utility.yul\":4221:4239   */\n      tag_109\n      tag_62\n      jump\t// in\n    tag_109:\n        /* \"#utility.yul\":4206:4241   */\n    tag_108:\n        /* \"#utility.yul\":4262:4263   */\n      dup3\n        /* \"#utility.yul\":4259:4260   */\n      dup3\n        /* \"#utility.yul\":4255:4264   */\n      mod\n        /* \"#utility.yul\":4250:4264   */\n      swap1\n      pop\n        /* \"#utility.yul\":4094:4270   */\n      swap3\n      swap2\n      pop\n      pop\n      jump\t// out\n\n    auxdata: 0xa2646970667358221220fa29b8dccfe1b059ede382a1c5e441d289835d1da86f1a904bc651f2a03a5e2b64736f6c634300081a0033\n}\n",
				"bytecode": {
					"linkReferences": {},
					"object": "6080604052348015600e575f80fd5b506104ae8061001c5f395ff3fe608060405234801561000f575f80fd5b506004361061003f575f3560e01c80633d41c22214610043578063a04c9a1614610073578063f979f269146100a3575b5f80fd5b61005d60048036038101906100589190610237565b6100d3565b60405161006a9190610271565b60405180910390f35b61008d6004803603810190610088919061028a565b6100e4565b60405161009a9190610271565b60405180910390f35b6100bd60048036038101906100b8919061028a565b610100565b6040516100ca9190610271565b60405180910390f35b5f6100dd8261011c565b9050919050565b5f6100f8828461019d90919063ffffffff16565b905092915050565b5f61011482846101ca90919063ffffffff16565b905092915050565b5f80821015610160576040517f08c379a000000000000000000000000000000000000000000000000000000000815260040161015790610348565b60405180910390fd5b5f600190505f600190505b83811161019357808261017e9190610393565b9150808061018b906103d4565b91505061016b565b5080915050919050565b5f5b5f82146101c1575f82905082846101b69190610448565b92508093505061019f565b82905092915050565b5f80600190505f5b838110156101f55784826101e69190610393565b915080806001019150506101d2565b508091505092915050565b5f80fd5b5f819050919050565b61021681610204565b8114610220575f80fd5b50565b5f813590506102318161020d565b92915050565b5f6020828403121561024c5761024b610200565b5b5f61025984828501610223565b91505092915050565b61026b81610204565b82525050565b5f6020820190506102845f830184610262565b92915050565b5f80604083850312156102a05761029f610200565b5b5f6102ad85828601610223565b92505060206102be85828601610223565b9150509250929050565b5f82825260208201905092915050565b7f466163746f7269616c206973206e6f7420646566696e656420666f72206e65675f8201527f6174697665206e756d6265727300000000000000000000000000000000000000602082015250565b5f610332602d836102c8565b915061033d826102d8565b604082019050919050565b5f6020820190508181035f83015261035f81610326565b9050919050565b7f4e487b71000000000000000000000000000000000000000000000000000000005f52601160045260245ffd5b5f61039d82610204565b91506103a883610204565b92508282026103b681610204565b915082820484148315176103cd576103cc610366565b5b5092915050565b5f6103de82610204565b91507fffffffffffffffffffffffffffffffffffffffffffffffffffffffffffffffff82036104105761040f610366565b5b600182019050919050565b7f4e487b71000000000000000000000000000000000000000000000000000000005f52601260045260245ffd5b5f61045282610204565b915061045d83610204565b92508261046d5761046c61041b565b5b82820690509291505056fea2646970667358221220fa29b8dccfe1b059ede382a1c5e441d289835d1da86f1a904bc651f2a03a5e2b64736f6c634300081a0033",
					"opcodes": "PUSH1 0x80 PUSH1 0x40 MSTORE CALLVALUE DUP1 ISZERO PUSH1 0xE JUMPI PUSH0 DUP1 REVERT JUMPDEST POP PUSH2 0x4AE DUP1 PUSH2 0x1C PUSH0 CODECOPY PUSH0 RETURN INVALID PUSH1 0x80 PUSH1 0x40 MSTORE CALLVALUE DUP1 ISZERO PUSH2 0xF JUMPI PUSH0 DUP1 REVERT JUMPDEST POP PUSH1 0x4 CALLDATASIZE LT PUSH2 0x3F JUMPI PUSH0 CALLDATALOAD PUSH1 0xE0 SHR DUP1 PUSH4 0x3D41C222 EQ PUSH2 0x43 JUMPI DUP1 PUSH4 0xA04C9A16 EQ PUSH2 0x73 JUMPI DUP1 PUSH4 0xF979F269 EQ PUSH2 0xA3 JUMPI JUMPDEST PUSH0 DUP1 REVERT JUMPDEST PUSH2 0x5D PUSH1 0x4 DUP1 CALLDATASIZE SUB DUP2 ADD SWAP1 PUSH2 0x58 SWAP2 SWAP1 PUSH2 0x237 JUMP JUMPDEST PUSH2 0xD3 JUMP JUMPDEST PUSH1 0x40 MLOAD PUSH2 0x6A SWAP2 SWAP1 PUSH2 0x271 JUMP JUMPDEST PUSH1 0x40 MLOAD DUP1 SWAP2 SUB SWAP1 RETURN JUMPDEST PUSH2 0x8D PUSH1 0x4 DUP1 CALLDATASIZE SUB DUP2 ADD SWAP1 PUSH2 0x88 SWAP2 SWAP1 PUSH2 0x28A JUMP JUMPDEST PUSH2 0xE4 JUMP JUMPDEST PUSH1 0x40 MLOAD PUSH2 0x9A SWAP2 SWAP1 PUSH2 0x271 JUMP JUMPDEST PUSH1 0x40 MLOAD DUP1 SWAP2 SUB SWAP1 RETURN JUMPDEST PUSH2 0xBD PUSH1 0x4 DUP1 CALLDATASIZE SUB DUP2 ADD SWAP1 PUSH2 0xB8 SWAP2 SWAP1 PUSH2 0x28A JUMP JUMPDEST PUSH2 0x100 JUMP JUMPDEST PUSH1 0x40 MLOAD PUSH2 0xCA SWAP2 SWAP1 PUSH2 0x271 JUMP JUMPDEST PUSH1 0x40 MLOAD DUP1 SWAP2 SUB SWAP1 RETURN JUMPDEST PUSH0 PUSH2 0xDD DUP3 PUSH2 0x11C JUMP JUMPDEST SWAP1 POP SWAP2 SWAP1 POP JUMP JUMPDEST PUSH0 PUSH2 0xF8 DUP3 DUP5 PUSH2 0x19D SWAP1 SWAP2 SWAP1 PUSH4 0xFFFFFFFF AND JUMP JUMPDEST SWAP1 POP SWAP3 SWAP2 POP POP JUMP JUMPDEST PUSH0 PUSH2 0x114 DUP3 DUP5 PUSH2 0x1CA SWAP1 SWAP2 SWAP1 PUSH4 0xFFFFFFFF AND JUMP JUMPDEST SWAP1 POP SWAP3 SWAP2 POP POP JUMP JUMPDEST PUSH0 DUP1 DUP3 LT ISZERO PUSH2 0x160 JUMPI PUSH1 0x40 MLOAD PUSH32 0x8C379A000000000000000000000000000000000000000000000000000000000 DUP2 MSTORE PUSH1 0x4 ADD PUSH2 0x157 SWAP1 PUSH2 0x348 JUMP JUMPDEST PUSH1 0x40 MLOAD DUP1 SWAP2 SUB SWAP1 REVERT JUMPDEST PUSH0 PUSH1 0x1 SWAP1 POP PUSH0 PUSH1 0x1 SWAP1 POP JUMPDEST DUP4 DUP2 GT PUSH2 0x193 JUMPI DUP1 DUP3 PUSH2 0x17E SWAP2 SWAP1 PUSH2 0x393 JUMP JUMPDEST SWAP2 POP DUP1 DUP1 PUSH2 0x18B SWAP1 PUSH2 0x3D4 JUMP JUMPDEST SWAP2 POP POP PUSH2 0x16B JUMP JUMPDEST POP DUP1 SWAP2 POP POP SWAP2 SWAP1 POP JUMP JUMPDEST PUSH0 JUMPDEST PUSH0 DUP3 EQ PUSH2 0x1C1 JUMPI PUSH0 DUP3 SWAP1 POP DUP3 DUP5 PUSH2 0x1B6 SWAP2 SWAP1 PUSH2 0x448 JUMP JUMPDEST SWAP3 POP DUP1 SWAP4 POP POP PUSH2 0x19F JUMP JUMPDEST DUP3 SWAP1 POP SWAP3 SWAP2 POP POP JUMP JUMPDEST PUSH0 DUP1 PUSH1 0x1 SWAP1 POP PUSH0 JUMPDEST DUP4 DUP2 LT ISZERO PUSH2 0x1F5 JUMPI DUP5 DUP3 PUSH2 0x1E6 SWAP2 SWAP1 PUSH2 0x393 JUMP JUMPDEST SWAP2 POP DUP1 DUP1 PUSH1 0x1 ADD SWAP2 POP POP PUSH2 0x1D2 JUMP JUMPDEST POP DUP1 SWAP2 POP POP SWAP3 SWAP2 POP POP JUMP JUMPDEST PUSH0 DUP1 REVERT JUMPDEST PUSH0 DUP2 SWAP1 POP SWAP2 SWAP1 POP JUMP JUMPDEST PUSH2 0x216 DUP2 PUSH2 0x204 JUMP JUMPDEST DUP2 EQ PUSH2 0x220 JUMPI PUSH0 DUP1 REVERT JUMPDEST POP JUMP JUMPDEST PUSH0 DUP2 CALLDATALOAD SWAP1 POP PUSH2 0x231 DUP2 PUSH2 0x20D JUMP JUMPDEST SWAP3 SWAP2 POP POP JUMP JUMPDEST PUSH0 PUSH1 0x20 DUP3 DUP5 SUB SLT ISZERO PUSH2 0x24C JUMPI PUSH2 0x24B PUSH2 0x200 JUMP JUMPDEST JUMPDEST PUSH0 PUSH2 0x259 DUP5 DUP3 DUP6 ADD PUSH2 0x223 JUMP JUMPDEST SWAP2 POP POP SWAP3 SWAP2 POP POP JUMP JUMPDEST PUSH2 0x26B DUP2 PUSH2 0x204 JUMP JUMPDEST DUP3 MSTORE POP POP JUMP JUMPDEST PUSH0 PUSH1 0x20 DUP3 ADD SWAP1 POP PUSH2 0x284 PUSH0 DUP4 ADD DUP5 PUSH2 0x262 JUMP JUMPDEST SWAP3 SWAP2 POP POP JUMP JUMPDEST PUSH0 DUP1 PUSH1 0x40 DUP4 DUP6 SUB SLT ISZERO PUSH2 0x2A0 JUMPI PUSH2 0x29F PUSH2 0x200 JUMP JUMPDEST JUMPDEST PUSH0 PUSH2 0x2AD DUP6 DUP3 DUP7 ADD PUSH2 0x223 JUMP JUMPDEST SWAP3 POP POP PUSH1 0x20 PUSH2 0x2BE DUP6 DUP3 DUP7 ADD PUSH2 0x223 JUMP JUMPDEST SWAP2 POP POP SWAP3 POP SWAP3 SWAP1 POP JUMP JUMPDEST PUSH0 DUP3 DUP3 MSTORE PUSH1 0x20 DUP3 ADD SWAP1 POP SWAP3 SWAP2 POP POP JUMP JUMPDEST PUSH32 0x466163746F7269616C206973206E6F7420646566696E656420666F72206E6567 PUSH0 DUP3 ADD MSTORE PUSH32 0x6174697665206E756D6265727300000000000000000000000000000000000000 PUSH1 0x20 DUP3 ADD MSTORE POP JUMP JUMPDEST PUSH0 PUSH2 0x332 PUSH1 0x2D DUP4 PUSH2 0x2C8 JUMP JUMPDEST SWAP2 POP PUSH2 0x33D DUP3 PUSH2 0x2D8 JUMP JUMPDEST PUSH1 0x40 DUP3 ADD SWAP1 POP SWAP2 SWAP1 POP JUMP JUMPDEST PUSH0 PUSH1 0x20 DUP3 ADD SWAP1 POP DUP2 DUP2 SUB PUSH0 DUP4 ADD MSTORE PUSH2 0x35F DUP2 PUSH2 0x326 JUMP JUMPDEST SWAP1 POP SWAP2 SWAP1 POP JUMP JUMPDEST PUSH32 0x4E487B7100000000000000000000000000000000000000000000000000000000 PUSH0 MSTORE PUSH1 0x11 PUSH1 0x4 MSTORE PUSH1 0x24 PUSH0 REVERT JUMPDEST PUSH0 PUSH2 0x39D DUP3 PUSH2 0x204 JUMP JUMPDEST SWAP2 POP PUSH2 0x3A8 DUP4 PUSH2 0x204 JUMP JUMPDEST SWAP3 POP DUP3 DUP3 MUL PUSH2 0x3B6 DUP2 PUSH2 0x204 JUMP JUMPDEST SWAP2 POP DUP3 DUP3 DIV DUP5 EQ DUP4 ISZERO OR PUSH2 0x3CD JUMPI PUSH2 0x3CC PUSH2 0x366 JUMP JUMPDEST JUMPDEST POP SWAP3 SWAP2 POP POP JUMP JUMPDEST PUSH0 PUSH2 0x3DE DUP3 PUSH2 0x204 JUMP JUMPDEST SWAP2 POP PUSH32 0xFFFFFFFFFFFFFFFFFFFFFFFFFFFFFFFFFFFFFFFFFFFFFFFFFFFFFFFFFFFFFFFF DUP3 SUB PUSH2 0x410 JUMPI PUSH2 0x40F PUSH2 0x366 JUMP JUMPDEST JUMPDEST PUSH1 0x1 DUP3 ADD SWAP1 POP SWAP2 SWAP1 POP JUMP JUMPDEST PUSH32 0x4E487B7100000000000000000000000000000000000000000000000000000000 PUSH0 MSTORE PUSH1 0x12 PUSH1 0x4 MSTORE PUSH1 0x24 PUSH0 REVERT JUMPDEST PUSH0 PUSH2 0x452 DUP3 PUSH2 0x204 JUMP JUMPDEST SWAP2 POP PUSH2 0x45D DUP4 PUSH2 0x204 JUMP JUMPDEST SWAP3 POP DUP3 PUSH2 0x46D JUMPI PUSH2 0x46C PUSH2 0x41B JUMP JUMPDEST JUMPDEST DUP3 DUP3 MOD SWAP1 POP SWAP3 SWAP2 POP POP JUMP INVALID LOG2 PUSH5 0x6970667358 0x22 SLT KECCAK256 STATICCALL 0x29 0xB8 0xDC 0xCF 0xE1 0xB0 MSIZE 0xED 0xE3 DUP3 LOG1 0xC5 0xE4 COINBASE 0xD2 DUP10 DUP4 TSTORE SAR 0xA8 PUSH16 0x1A904BC651F2A03A5E2B64736F6C6343 STOP ADDMOD BYTE STOP CALLER "
				},
				"gasEstimates": {
					"creation": {
						"codeDepositCost": "239600",
						"executionCost": "279",
						"totalCost": "239879"
					},
					"external": {
						"calculateFactorial(uint256)": "infinite",
						"calculateGCD(uint256,uint256)": "infinite",
						"calculatePower(uint256,uint256)": "infinite"
					}
				},
				"methodIdentifiers": {
					"calculateFactorial(uint256)": "3d41c222",
					"calculateGCD(uint256,uint256)": "a04c9a16",
					"calculatePower(uint256,uint256)": "f979f269"
				}
			},
			"storageLayout": {
				"storage": [],
				"types": null
			},
			"userdoc": {
				"kind": "user",
				"methods": {},
				"version": 1
			}
		}
	}
}