{
	"contracts/Blockchain_Assignment_7/Week7_Task1.sol": {
		"StringLibraryUser": {
			"abi": [
				{
					"inputs": [
						{
							"internalType": "string",
							"name": "newString",
							"type": "string"
						}
					],
					"name": "addString",
					"outputs": [],
					"stateMutability": "nonpayable",
					"type": "function"
				},
				{
					"inputs": [
						{
							"internalType": "uint256",
							"name": "",
							"type": "uint256"
						}
					],
					"name": "data",
					"outputs": [
						{
							"internalType": "string",
							"name": "",
							"type": "string"
						}
					],
					"stateMutability": "view",
					"type": "function"
				},
				{
					"inputs": [],
					"name": "getConcatenated",
					"outputs": [
						{
							"internalType": "string",
							"name": "",
							"type": "string"
						}
					],
					"stateMutability": "view",
					"type": "function"
				},
				{
					"inputs": [
						{
							"internalType": "uint256",
							"name": "minLength",
							"type": "uint256"
						}
					],
					"name": "getFiltered",
					"outputs": [
						{
							"internalType": "string[]",
							"name": "",
							"type": "string[]"
						}
					],
					"stateMutability": "view",
					"type": "function"
				},
				{
					"inputs": [],
					"name": "getUpperCase",
					"outputs": [
						{
							"internalType": "string[]",
							"name": "",
							"type": "string[]"
						}
					],
					"stateMutability": "view",
					"type": "function"
				}
			],
			"devdoc": {
				"kind": "dev",
				"methods": {},
				"version": 1
			},
			"evm": {
				"assembly": "    /* \"contracts/Blockchain_Assignment_7/Week7_Task1.sol\":1662:2218  contract StringLibraryUser {... */\n  mstore(0x40, 0x80)\n  callvalue\n  dup1\n  iszero\n  tag_1\n  jumpi\n  0x00\n  dup1\n  revert\ntag_1:\n  pop\n  dataSize(sub_0)\n  dup1\n  dataOffset(sub_0)\n  0x00\n  codecopy\n  0x00\n  return\nstop\n\nsub_0: assembly {\n        /* \"contracts/Blockchain_Assignment_7/Week7_Task1.sol\":1662:2218  contract StringLibraryUser {... */\n      mstore(0x40, 0x80)\n      callvalue\n      dup1\n      iszero\n      tag_1\n      jumpi\n      0x00\n      dup1\n      revert\n    tag_1:\n      pop\n      jumpi(tag_2, lt(calldatasize, 0x04))\n      shr(0xe0, calldataload(0x00))\n      dup1\n      0x3f075d83\n      eq\n      tag_3\n      jumpi\n      dup1\n      0x9874f5d7\n      eq\n      tag_4\n      jumpi\n      dup1\n      0xad3c83ea\n      eq\n      tag_5\n      jumpi\n      dup1\n      0xbca59fda\n      eq\n      tag_6\n      jumpi\n      dup1\n      0xf0ba8440\n      eq\n      tag_7\n      jumpi\n    tag_2:\n      0x00\n      dup1\n      revert\n        /* \"contracts/Blockchain_Assignment_7/Week7_Task1.sol\":1860:1967  function getConcatenated() public view returns (string memory) {... */\n    tag_3:\n      tag_8\n      tag_9\n      jump\t// in\n    tag_8:\n      mload(0x40)\n      tag_10\n      swap2\n      swap1\n      tag_11\n      jump\t// in\n    tag_10:\n      mload(0x40)\n      dup1\n      swap2\n      sub\n      swap1\n      return\n        /* \"contracts/Blockchain_Assignment_7/Week7_Task1.sol\":1762:1852  function addString(string memory newString) public {... */\n    tag_4:\n      tag_12\n      0x04\n      dup1\n      calldatasize\n      sub\n      dup2\n      add\n      swap1\n      tag_13\n      swap2\n      swap1\n      tag_14\n      jump\t// in\n    tag_13:\n      tag_15\n      jump\t// in\n    tag_12:\n      stop\n        /* \"contracts/Blockchain_Assignment_7/Week7_Task1.sol\":2089:2215  function getFiltered(uint256 minLength) public view returns (string[] memory) {... */\n    tag_5:\n      tag_16\n      0x04\n      dup1\n      calldatasize\n      sub\n      dup2\n      add\n      swap1\n      tag_17\n      swap2\n      swap1\n      tag_18\n      jump\t// in\n    tag_17:\n      tag_19\n      jump\t// in\n    tag_16:\n      mload(0x40)\n      tag_20\n      swap2\n      swap1\n      tag_21\n      jump\t// in\n    tag_20:\n      mload(0x40)\n      dup1\n      swap2\n      sub\n      swap1\n      return\n        /* \"contracts/Blockchain_Assignment_7/Week7_Task1.sol\":1975:2081  function getUpperCase() public view returns (string[] memory) {... */\n    tag_6:\n      tag_22\n      tag_23\n      jump\t// in\n    tag_22:\n      mload(0x40)\n      tag_24\n      swap2\n      swap1\n      tag_21\n      jump\t// in\n    tag_24:\n      mload(0x40)\n      dup1\n      swap2\n      sub\n      swap1\n      return\n        /* \"contracts/Blockchain_Assignment_7/Week7_Task1.sol\":1733:1753  string[] public data */\n    tag_7:\n      tag_25\n      0x04\n      dup1\n      calldatasize\n      sub\n      dup2\n      add\n      swap1\n      tag_26\n      swap2\n      swap1\n      tag_18\n      jump\t// in\n    tag_26:\n      tag_27\n      jump\t// in\n    tag_25:\n      mload(0x40)\n      tag_28\n      swap2\n      swap1\n      tag_11\n      jump\t// in\n    tag_28:\n      mload(0x40)\n      dup1\n      swap2\n      sub\n      swap1\n      return\n        /* \"contracts/Blockchain_Assignment_7/Week7_Task1.sol\":1860:1967  function getConcatenated() public view returns (string memory) {... */\n    tag_9:\n        /* \"contracts/Blockchain_Assignment_7/Week7_Task1.sol\":1908:1921  string memory */\n      0x60\n        /* \"contracts/Blockchain_Assignment_7/Week7_Task1.sol\":1941:1959  data.concatenate() */\n      tag_30\n        /* \"contracts/Blockchain_Assignment_7/Week7_Task1.sol\":1941:1945  data */\n      0x00\n        /* \"contracts/Blockchain_Assignment_7/Week7_Task1.sol\":1941:1957  data.concatenate */\n      dup1\n      sload\n      dup1\n      0x20\n      mul\n      0x20\n      add\n      mload(0x40)\n      swap1\n      dup2\n      add\n      0x40\n      mstore\n      dup1\n      swap3\n      swap2\n      swap1\n      dup2\n      dup2\n      mstore\n      0x20\n      add\n      0x00\n      swap1\n    tag_31:\n      dup3\n      dup3\n      lt\n      iszero\n      tag_32\n      jumpi\n      dup4\n      dup3\n      swap1\n      0x00\n      mstore\n      keccak256(0x00, 0x20)\n      add\n      dup1\n      sload\n      tag_34\n      swap1\n      tag_35\n      jump\t// in\n    tag_34:\n      dup1\n      0x1f\n      add\n      0x20\n      dup1\n      swap2\n      div\n      mul\n      0x20\n      add\n      mload(0x40)\n      swap1\n      dup2\n      add\n      0x40\n      mstore\n      dup1\n      swap3\n      swap2\n      swap1\n      dup2\n      dup2\n      mstore\n      0x20\n      add\n      dup3\n      dup1\n      sload\n      tag_36\n      swap1\n      tag_35\n      jump\t// in\n    tag_36:\n      dup1\n      iszero\n      tag_37\n      jumpi\n      dup1\n      0x1f\n      lt\n      tag_38\n      jumpi\n      0x0100\n      dup1\n      dup4\n      sload\n      div\n      mul\n      dup4\n      mstore\n      swap2\n      0x20\n      add\n      swap2\n      jump(tag_37)\n    tag_38:\n      dup3\n      add\n      swap2\n      swap1\n      0x00\n      mstore\n      keccak256(0x00, 0x20)\n      swap1\n    tag_39:\n      dup2\n      sload\n      dup2\n      mstore\n      swap1\n      0x01\n      add\n      swap1\n      0x20\n      add\n      dup1\n      dup4\n      gt\n      tag_39\n      jumpi\n      dup3\n      swap1\n      sub\n      0x1f\n      and\n      dup3\n      add\n      swap2\n    tag_37:\n      pop\n      pop\n      pop\n      pop\n      pop\n      dup2\n      mstore\n      0x20\n      add\n      swap1\n      0x01\n      add\n      swap1\n      jump(tag_31)\n    tag_32:\n      pop\n      pop\n      pop\n      pop\n      tag_40\n        /* \"contracts/Blockchain_Assignment_7/Week7_Task1.sol\":1941:1959  data.concatenate() */\n      jump\t// in\n    tag_30:\n        /* \"contracts/Blockchain_Assignment_7/Week7_Task1.sol\":1934:1959  return data.concatenate() */\n      swap1\n      pop\n        /* \"contracts/Blockchain_Assignment_7/Week7_Task1.sol\":1860:1967  function getConcatenated() public view returns (string memory) {... */\n      swap1\n      jump\t// out\n        /* \"contracts/Blockchain_Assignment_7/Week7_Task1.sol\":1762:1852  function addString(string memory newString) public {... */\n    tag_15:\n        /* \"contracts/Blockchain_Assignment_7/Week7_Task1.sol\":1824:1828  data */\n      0x00\n        /* \"contracts/Blockchain_Assignment_7/Week7_Task1.sol\":1834:1843  newString */\n      dup2\n        /* \"contracts/Blockchain_Assignment_7/Week7_Task1.sol\":1824:1844  data.push(newString) */\n      swap1\n      dup1\n      0x01\n      dup2\n      sload\n      add\n      dup1\n      dup3\n      sstore\n      dup1\n      swap2\n      pop\n      pop\n      0x01\n      swap1\n      sub\n      swap1\n      0x00\n      mstore\n      keccak256(0x00, 0x20)\n      add\n      0x00\n      swap1\n      swap2\n      swap1\n      swap2\n      swap1\n      swap2\n      pop\n      swap1\n      dup2\n      tag_43\n      swap2\n      swap1\n      tag_44\n      jump\t// in\n    tag_43:\n      pop\n        /* \"contracts/Blockchain_Assignment_7/Week7_Task1.sol\":1762:1852  function addString(string memory newString) public {... */\n      pop\n      jump\t// out\n        /* \"contracts/Blockchain_Assignment_7/Week7_Task1.sol\":2089:2215  function getFiltered(uint256 minLength) public view returns (string[] memory) {... */\n    tag_19:\n        /* \"contracts/Blockchain_Assignment_7/Week7_Task1.sol\":2150:2165  string[] memory */\n      0x60\n        /* \"contracts/Blockchain_Assignment_7/Week7_Task1.sol\":2185:2207  data.filter(minLength) */\n      tag_46\n        /* \"contracts/Blockchain_Assignment_7/Week7_Task1.sol\":2197:2206  minLength */\n      dup3\n        /* \"contracts/Blockchain_Assignment_7/Week7_Task1.sol\":2185:2189  data */\n      0x00\n        /* \"contracts/Blockchain_Assignment_7/Week7_Task1.sol\":2185:2196  data.filter */\n      dup1\n      sload\n      dup1\n      0x20\n      mul\n      0x20\n      add\n      mload(0x40)\n      swap1\n      dup2\n      add\n      0x40\n      mstore\n      dup1\n      swap3\n      swap2\n      swap1\n      dup2\n      dup2\n      mstore\n      0x20\n      add\n      0x00\n      swap1\n    tag_47:\n      dup3\n      dup3\n      lt\n      iszero\n      tag_48\n      jumpi\n      dup4\n      dup3\n      swap1\n      0x00\n      mstore\n      keccak256(0x00, 0x20)\n      add\n      dup1\n      sload\n      tag_50\n      swap1\n      tag_35\n      jump\t// in\n    tag_50:\n      dup1\n      0x1f\n      add\n      0x20\n      dup1\n      swap2\n      div\n      mul\n      0x20\n      add\n      mload(0x40)\n      swap1\n      dup2\n      add\n      0x40\n      mstore\n      dup1\n      swap3\n      swap2\n      swap1\n      dup2\n      dup2\n      mstore\n      0x20\n      add\n      dup3\n      dup1\n      sload\n      tag_51\n      swap1\n      tag_35\n      jump\t// in\n    tag_51:\n      dup1\n      iszero\n      tag_52\n      jumpi\n      dup1\n      0x1f\n      lt\n      tag_53\n      jumpi\n      0x0100\n      dup1\n      dup4\n      sload\n      div\n      mul\n      dup4\n      mstore\n      swap2\n      0x20\n      add\n      swap2\n      jump(tag_52)\n    tag_53:\n      dup3\n      add\n      swap2\n      swap1\n      0x00\n      mstore\n      keccak256(0x00, 0x20)\n      swap1\n    tag_54:\n      dup2\n      sload\n      dup2\n      mstore\n      swap1\n      0x01\n      add\n      swap1\n      0x20\n      add\n      dup1\n      dup4\n      gt\n      tag_54\n      jumpi\n      dup3\n      swap1\n      sub\n      0x1f\n      and\n      dup3\n      add\n      swap2\n    tag_52:\n      pop\n      pop\n      pop\n      pop\n      pop\n      dup2\n      mstore\n      0x20\n      add\n      swap1\n      0x01\n      add\n      swap1\n      jump(tag_47)\n    tag_48:\n      pop\n      pop\n      pop\n      pop\n      tag_55\n      swap1\n        /* \"contracts/Blockchain_Assignment_7/Week7_Task1.sol\":2185:2207  data.filter(minLength) */\n      swap2\n      swap1\n      0xffffffff\n      and\n      jump\t// in\n    tag_46:\n        /* \"contracts/Blockchain_Assignment_7/Week7_Task1.sol\":2178:2207  return data.filter(minLength) */\n      swap1\n      pop\n        /* \"contracts/Blockchain_Assignment_7/Week7_Task1.sol\":2089:2215  function getFiltered(uint256 minLength) public view returns (string[] memory) {... */\n      swap2\n      swap1\n      pop\n      jump\t// out\n        /* \"contracts/Blockchain_Assignment_7/Week7_Task1.sol\":1975:2081  function getUpperCase() public view returns (string[] memory) {... */\n    tag_23:\n        /* \"contracts/Blockchain_Assignment_7/Week7_Task1.sol\":2020:2035  string[] memory */\n      0x60\n        /* \"contracts/Blockchain_Assignment_7/Week7_Task1.sol\":2055:2073  data.toUpperCase() */\n      tag_57\n        /* \"contracts/Blockchain_Assignment_7/Week7_Task1.sol\":2055:2059  data */\n      0x00\n        /* \"contracts/Blockchain_Assignment_7/Week7_Task1.sol\":2055:2071  data.toUpperCase */\n      dup1\n      sload\n      dup1\n      0x20\n      mul\n      0x20\n      add\n      mload(0x40)\n      swap1\n      dup2\n      add\n      0x40\n      mstore\n      dup1\n      swap3\n      swap2\n      swap1\n      dup2\n      dup2\n      mstore\n      0x20\n      add\n      0x00\n      swap1\n    tag_58:\n      dup3\n      dup3\n      lt\n      iszero\n      tag_59\n      jumpi\n      dup4\n      dup3\n      swap1\n      0x00\n      mstore\n      keccak256(0x00, 0x20)\n      add\n      dup1\n      sload\n      tag_61\n      swap1\n      tag_35\n      jump\t// in\n    tag_61:\n      dup1\n      0x1f\n      add\n      0x20\n      dup1\n      swap2\n      div\n      mul\n      0x20\n      add\n      mload(0x40)\n      swap1\n      dup2\n      add\n      0x40\n      mstore\n      dup1\n      swap3\n      swap2\n      swap1\n      dup2\n      dup2\n      mstore\n      0x20\n      add\n      dup3\n      dup1\n      sload\n      tag_62\n      swap1\n      tag_35\n      jump\t// in\n    tag_62:\n      dup1\n      iszero\n      tag_63\n      jumpi\n      dup1\n      0x1f\n      lt\n      tag_64\n      jumpi\n      0x0100\n      dup1\n      dup4\n      sload\n      div\n      mul\n      dup4\n      mstore\n      swap2\n      0x20\n      add\n      swap2\n      jump(tag_63)\n    tag_64:\n      dup3\n      add\n      swap2\n      swap1\n      0x00\n      mstore\n      keccak256(0x00, 0x20)\n      swap1\n    tag_65:\n      dup2\n      sload\n      dup2\n      mstore\n      swap1\n      0x01\n      add\n      swap1\n      0x20\n      add\n      dup1\n      dup4\n      gt\n      tag_65\n      jumpi\n      dup3\n      swap1\n      sub\n      0x1f\n      and\n      dup3\n      add\n      swap2\n    tag_63:\n      pop\n      pop\n      pop\n      pop\n      pop\n      dup2\n      mstore\n      0x20\n      add\n      swap1\n      0x01\n      add\n      swap1\n      jump(tag_58)\n    tag_59:\n      pop\n      pop\n      pop\n      pop\n      tag_66\n        /* \"contracts/Blockchain_Assignment_7/Week7_Task1.sol\":2055:2073  data.toUpperCase() */\n      jump\t// in\n    tag_57:\n        /* \"contracts/Blockchain_Assignment_7/Week7_Task1.sol\":2048:2073  return data.toUpperCase() */\n      swap1\n      pop\n        /* \"contracts/Blockchain_Assignment_7/Week7_Task1.sol\":1975:2081  function getUpperCase() public view returns (string[] memory) {... */\n      swap1\n      jump\t// out\n        /* \"contracts/Blockchain_Assignment_7/Week7_Task1.sol\":1733:1753  string[] public data */\n    tag_27:\n      0x00\n      dup2\n      dup2\n      sload\n      dup2\n      lt\n      tag_67\n      jumpi\n      0x00\n      dup1\n      revert\n    tag_67:\n      swap1\n      0x00\n      mstore\n      keccak256(0x00, 0x20)\n      add\n      0x00\n      swap2\n      pop\n      swap1\n      pop\n      dup1\n      sload\n      tag_69\n      swap1\n      tag_35\n      jump\t// in\n    tag_69:\n      dup1\n      0x1f\n      add\n      0x20\n      dup1\n      swap2\n      div\n      mul\n      0x20\n      add\n      mload(0x40)\n      swap1\n      dup2\n      add\n      0x40\n      mstore\n      dup1\n      swap3\n      swap2\n      swap1\n      dup2\n      dup2\n      mstore\n      0x20\n      add\n      dup3\n      dup1\n      sload\n      tag_70\n      swap1\n      tag_35\n      jump\t// in\n    tag_70:\n      dup1\n      iszero\n      tag_71\n      jumpi\n      dup1\n      0x1f\n      lt\n      tag_72\n      jumpi\n      0x0100\n      dup1\n      dup4\n      sload\n      div\n      mul\n      dup4\n      mstore\n      swap2\n      0x20\n      add\n      swap2\n      jump(tag_71)\n    tag_72:\n      dup3\n      add\n      swap2\n      swap1\n      0x00\n      mstore\n      keccak256(0x00, 0x20)\n      swap1\n    tag_73:\n      dup2\n      sload\n      dup2\n      mstore\n      swap1\n      0x01\n      add\n      swap1\n      0x20\n      add\n      dup1\n      dup4\n      gt\n      tag_73\n      jumpi\n      dup3\n      swap1\n      sub\n      0x1f\n      and\n      dup3\n      add\n      swap2\n    tag_71:\n      pop\n      pop\n      pop\n      pop\n      pop\n      dup2\n      jump\t// out\n        /* \"contracts/Blockchain_Assignment_7/Week7_Task1.sol\":85:360  function concatenate(string[] memory arr) internal pure returns (string memory) {... */\n    tag_40:\n        /* \"contracts/Blockchain_Assignment_7/Week7_Task1.sol\":150:163  string memory */\n      0x60\n        /* \"contracts/Blockchain_Assignment_7/Week7_Task1.sol\":176:196  string memory result */\n      0x00\n        /* \"contracts/Blockchain_Assignment_7/Week7_Task1.sol\":176:201  string memory result = \"\" */\n      mload(0x40)\n      dup1\n      0x20\n      add\n      0x40\n      mstore\n      dup1\n      0x00\n      dup2\n      mstore\n      pop\n      swap1\n      pop\n        /* \"contracts/Blockchain_Assignment_7/Week7_Task1.sol\":217:226  uint256 i */\n      0x00\n        /* \"contracts/Blockchain_Assignment_7/Week7_Task1.sol\":212:329  for (uint256 i = 0; i < arr.length; i++) {... */\n    tag_75:\n        /* \"contracts/Blockchain_Assignment_7/Week7_Task1.sol\":236:239  arr */\n      dup4\n        /* \"contracts/Blockchain_Assignment_7/Week7_Task1.sol\":236:246  arr.length */\n      mload\n        /* \"contracts/Blockchain_Assignment_7/Week7_Task1.sol\":232:233  i */\n      dup2\n        /* \"contracts/Blockchain_Assignment_7/Week7_Task1.sol\":232:246  i < arr.length */\n      lt\n        /* \"contracts/Blockchain_Assignment_7/Week7_Task1.sol\":212:329  for (uint256 i = 0; i < arr.length; i++) {... */\n      iszero\n      tag_76\n      jumpi\n        /* \"contracts/Blockchain_Assignment_7/Week7_Task1.sol\":301:307  result */\n      dup2\n        /* \"contracts/Blockchain_Assignment_7/Week7_Task1.sol\":309:312  arr */\n      dup5\n        /* \"contracts/Blockchain_Assignment_7/Week7_Task1.sol\":313:314  i */\n      dup3\n        /* \"contracts/Blockchain_Assignment_7/Week7_Task1.sol\":309:315  arr[i] */\n      dup2\n      mload\n      dup2\n      lt\n      tag_78\n      jumpi\n      tag_79\n      tag_80\n      jump\t// in\n    tag_79:\n    tag_78:\n      0x20\n      mul\n      0x20\n      add\n      add\n      mload\n        /* \"contracts/Blockchain_Assignment_7/Week7_Task1.sol\":284:316  abi.encodePacked(result, arr[i]) */\n      add(0x20, mload(0x40))\n      tag_81\n      swap3\n      swap2\n      swap1\n      tag_82\n      jump\t// in\n    tag_81:\n      mload(0x40)\n      0x20\n      dup2\n      dup4\n      sub\n      sub\n      dup2\n      mstore\n      swap1\n      0x40\n      mstore\n        /* \"contracts/Blockchain_Assignment_7/Week7_Task1.sol\":268:317  result = string(abi.encodePacked(result, arr[i])) */\n      swap2\n      pop\n        /* \"contracts/Blockchain_Assignment_7/Week7_Task1.sol\":248:251  i++ */\n      dup1\n      dup1\n      0x01\n      add\n      swap2\n      pop\n      pop\n        /* \"contracts/Blockchain_Assignment_7/Week7_Task1.sol\":212:329  for (uint256 i = 0; i < arr.length; i++) {... */\n      jump(tag_75)\n    tag_76:\n      pop\n        /* \"contracts/Blockchain_Assignment_7/Week7_Task1.sol\":346:352  result */\n      dup1\n        /* \"contracts/Blockchain_Assignment_7/Week7_Task1.sol\":339:352  return result */\n      swap2\n      pop\n      pop\n        /* \"contracts/Blockchain_Assignment_7/Week7_Task1.sol\":85:360  function concatenate(string[] memory arr) internal pure returns (string memory) {... */\n      swap2\n      swap1\n      pop\n      jump\t// out\n        /* \"contracts/Blockchain_Assignment_7/Week7_Task1.sol\":1053:1655  function filter(string[] memory arr, uint256 minLength) internal pure returns (string[] memory) {... */\n    tag_55:\n        /* \"contracts/Blockchain_Assignment_7/Week7_Task1.sol\":1132:1147  string[] memory */\n      0x60\n        /* \"contracts/Blockchain_Assignment_7/Week7_Task1.sol\":1160:1173  uint256 count */\n      0x00\n        /* \"contracts/Blockchain_Assignment_7/Week7_Task1.sol\":1193:1202  uint256 i */\n      dup1\n        /* \"contracts/Blockchain_Assignment_7/Week7_Task1.sol\":1188:1335  for (uint256 i = 0; i < arr.length; i++) {... */\n    tag_84:\n        /* \"contracts/Blockchain_Assignment_7/Week7_Task1.sol\":1212:1215  arr */\n      dup5\n        /* \"contracts/Blockchain_Assignment_7/Week7_Task1.sol\":1212:1222  arr.length */\n      mload\n        /* \"contracts/Blockchain_Assignment_7/Week7_Task1.sol\":1208:1209  i */\n      dup2\n        /* \"contracts/Blockchain_Assignment_7/Week7_Task1.sol\":1208:1222  i < arr.length */\n      lt\n        /* \"contracts/Blockchain_Assignment_7/Week7_Task1.sol\":1188:1335  for (uint256 i = 0; i < arr.length; i++) {... */\n      iszero\n      tag_85\n      jumpi\n        /* \"contracts/Blockchain_Assignment_7/Week7_Task1.sol\":1271:1280  minLength */\n      dup4\n        /* \"contracts/Blockchain_Assignment_7/Week7_Task1.sol\":1254:1257  arr */\n      dup6\n        /* \"contracts/Blockchain_Assignment_7/Week7_Task1.sol\":1258:1259  i */\n      dup3\n        /* \"contracts/Blockchain_Assignment_7/Week7_Task1.sol\":1254:1260  arr[i] */\n      dup2\n      mload\n      dup2\n      lt\n      tag_87\n      jumpi\n      tag_88\n      tag_80\n      jump\t// in\n    tag_88:\n    tag_87:\n      0x20\n      mul\n      0x20\n      add\n      add\n      mload\n        /* \"contracts/Blockchain_Assignment_7/Week7_Task1.sol\":1248:1268  bytes(arr[i]).length */\n      mload\n        /* \"contracts/Blockchain_Assignment_7/Week7_Task1.sol\":1248:1280  bytes(arr[i]).length > minLength */\n      gt\n        /* \"contracts/Blockchain_Assignment_7/Week7_Task1.sol\":1244:1324  if (bytes(arr[i]).length > minLength) {... */\n      iszero\n      tag_89\n      jumpi\n        /* \"contracts/Blockchain_Assignment_7/Week7_Task1.sol\":1301:1308  count++ */\n      dup2\n      dup1\n      tag_90\n      swap1\n      tag_91\n      jump\t// in\n    tag_90:\n      swap3\n      pop\n      pop\n        /* \"contracts/Blockchain_Assignment_7/Week7_Task1.sol\":1244:1324  if (bytes(arr[i]).length > minLength) {... */\n    tag_89:\n        /* \"contracts/Blockchain_Assignment_7/Week7_Task1.sol\":1224:1227  i++ */\n      dup1\n      dup1\n      0x01\n      add\n      swap2\n      pop\n      pop\n        /* \"contracts/Blockchain_Assignment_7/Week7_Task1.sol\":1188:1335  for (uint256 i = 0; i < arr.length; i++) {... */\n      jump(tag_84)\n    tag_85:\n      pop\n        /* \"contracts/Blockchain_Assignment_7/Week7_Task1.sol\":1347:1371  string[] memory filtered */\n      0x00\n        /* \"contracts/Blockchain_Assignment_7/Week7_Task1.sol\":1387:1392  count */\n      dup2\n        /* \"contracts/Blockchain_Assignment_7/Week7_Task1.sol\":1374:1393  new string[](count) */\n      0xffffffffffffffff\n      dup2\n      gt\n      iszero\n      tag_92\n      jumpi\n      tag_93\n      tag_94\n      jump\t// in\n    tag_93:\n    tag_92:\n      mload(0x40)\n      swap1\n      dup1\n      dup3\n      mstore\n      dup1\n      0x20\n      mul\n      0x20\n      add\n      dup3\n      add\n      0x40\n      mstore\n      dup1\n      iszero\n      tag_95\n      jumpi\n      dup2\n      0x20\n      add\n    tag_96:\n      0x60\n      dup2\n      mstore\n      0x20\n      add\n      swap1\n      0x01\n      swap1\n      sub\n      swap1\n      dup2\n      tag_96\n      jumpi\n      swap1\n      pop\n    tag_95:\n      pop\n        /* \"contracts/Blockchain_Assignment_7/Week7_Task1.sol\":1347:1393  string[] memory filtered = new string[](count) */\n      swap1\n      pop\n        /* \"contracts/Blockchain_Assignment_7/Week7_Task1.sol\":1404:1417  uint256 index */\n      0x00\n        /* \"contracts/Blockchain_Assignment_7/Week7_Task1.sol\":1437:1446  uint256 i */\n      dup1\n        /* \"contracts/Blockchain_Assignment_7/Week7_Task1.sol\":1432:1622  for (uint256 i = 0; i < arr.length; i++) {... */\n    tag_97:\n        /* \"contracts/Blockchain_Assignment_7/Week7_Task1.sol\":1456:1459  arr */\n      dup7\n        /* \"contracts/Blockchain_Assignment_7/Week7_Task1.sol\":1456:1466  arr.length */\n      mload\n        /* \"contracts/Blockchain_Assignment_7/Week7_Task1.sol\":1452:1453  i */\n      dup2\n        /* \"contracts/Blockchain_Assignment_7/Week7_Task1.sol\":1452:1466  i < arr.length */\n      lt\n        /* \"contracts/Blockchain_Assignment_7/Week7_Task1.sol\":1432:1622  for (uint256 i = 0; i < arr.length; i++) {... */\n      iszero\n      tag_98\n      jumpi\n        /* \"contracts/Blockchain_Assignment_7/Week7_Task1.sol\":1515:1524  minLength */\n      dup6\n        /* \"contracts/Blockchain_Assignment_7/Week7_Task1.sol\":1498:1501  arr */\n      dup8\n        /* \"contracts/Blockchain_Assignment_7/Week7_Task1.sol\":1502:1503  i */\n      dup3\n        /* \"contracts/Blockchain_Assignment_7/Week7_Task1.sol\":1498:1504  arr[i] */\n      dup2\n      mload\n      dup2\n      lt\n      tag_100\n      jumpi\n      tag_101\n      tag_80\n      jump\t// in\n    tag_101:\n    tag_100:\n      0x20\n      mul\n      0x20\n      add\n      add\n      mload\n        /* \"contracts/Blockchain_Assignment_7/Week7_Task1.sol\":1492:1512  bytes(arr[i]).length */\n      mload\n        /* \"contracts/Blockchain_Assignment_7/Week7_Task1.sol\":1492:1524  bytes(arr[i]).length > minLength */\n      gt\n        /* \"contracts/Blockchain_Assignment_7/Week7_Task1.sol\":1488:1611  if (bytes(arr[i]).length > minLength) {... */\n      iszero\n      tag_102\n      jumpi\n        /* \"contracts/Blockchain_Assignment_7/Week7_Task1.sol\":1563:1566  arr */\n      dup7\n        /* \"contracts/Blockchain_Assignment_7/Week7_Task1.sol\":1567:1568  i */\n      dup2\n        /* \"contracts/Blockchain_Assignment_7/Week7_Task1.sol\":1563:1569  arr[i] */\n      dup2\n      mload\n      dup2\n      lt\n      tag_103\n      jumpi\n      tag_104\n      tag_80\n      jump\t// in\n    tag_104:\n    tag_103:\n      0x20\n      mul\n      0x20\n      add\n      add\n      mload\n        /* \"contracts/Blockchain_Assignment_7/Week7_Task1.sol\":1545:1553  filtered */\n      dup4\n        /* \"contracts/Blockchain_Assignment_7/Week7_Task1.sol\":1554:1559  index */\n      dup4\n        /* \"contracts/Blockchain_Assignment_7/Week7_Task1.sol\":1545:1560  filtered[index] */\n      dup2\n      mload\n      dup2\n      lt\n      tag_105\n      jumpi\n      tag_106\n      tag_80\n      jump\t// in\n    tag_106:\n    tag_105:\n      0x20\n      mul\n      0x20\n      add\n      add\n        /* \"contracts/Blockchain_Assignment_7/Week7_Task1.sol\":1545:1569  filtered[index] = arr[i] */\n      dup2\n      swap1\n      mstore\n      pop\n        /* \"contracts/Blockchain_Assignment_7/Week7_Task1.sol\":1588:1595  index++ */\n      dup2\n      dup1\n      tag_107\n      swap1\n      tag_91\n      jump\t// in\n    tag_107:\n      swap3\n      pop\n      pop\n        /* \"contracts/Blockchain_Assignment_7/Week7_Task1.sol\":1488:1611  if (bytes(arr[i]).length > minLength) {... */\n    tag_102:\n        /* \"contracts/Blockchain_Assignment_7/Week7_Task1.sol\":1468:1471  i++ */\n      dup1\n      dup1\n      0x01\n      add\n      swap2\n      pop\n      pop\n        /* \"contracts/Blockchain_Assignment_7/Week7_Task1.sol\":1432:1622  for (uint256 i = 0; i < arr.length; i++) {... */\n      jump(tag_97)\n    tag_98:\n      pop\n        /* \"contracts/Blockchain_Assignment_7/Week7_Task1.sol\":1639:1647  filtered */\n      dup2\n        /* \"contracts/Blockchain_Assignment_7/Week7_Task1.sol\":1632:1647  return filtered */\n      swap4\n      pop\n      pop\n      pop\n      pop\n        /* \"contracts/Blockchain_Assignment_7/Week7_Task1.sol\":1053:1655  function filter(string[] memory arr, uint256 minLength) internal pure returns (string[] memory) {... */\n      swap3\n      swap2\n      pop\n      pop\n      jump\t// out\n        /* \"contracts/Blockchain_Assignment_7/Week7_Task1.sol\":368:1045  function toUpperCase(string[] memory arr) internal pure returns (string[] memory) {... */\n    tag_66:\n        /* \"contracts/Blockchain_Assignment_7/Week7_Task1.sol\":433:448  string[] memory */\n      0x60\n        /* \"contracts/Blockchain_Assignment_7/Week7_Task1.sol\":461:487  string[] memory uppercased */\n      0x00\n        /* \"contracts/Blockchain_Assignment_7/Week7_Task1.sol\":503:506  arr */\n      dup3\n        /* \"contracts/Blockchain_Assignment_7/Week7_Task1.sol\":503:513  arr.length */\n      mload\n        /* \"contracts/Blockchain_Assignment_7/Week7_Task1.sol\":490:514  new string[](arr.length) */\n      0xffffffffffffffff\n      dup2\n      gt\n      iszero\n      tag_109\n      jumpi\n      tag_110\n      tag_94\n      jump\t// in\n    tag_110:\n    tag_109:\n      mload(0x40)\n      swap1\n      dup1\n      dup3\n      mstore\n      dup1\n      0x20\n      mul\n      0x20\n      add\n      dup3\n      add\n      0x40\n      mstore\n      dup1\n      iszero\n      tag_111\n      jumpi\n      dup2\n      0x20\n      add\n    tag_112:\n      0x60\n      dup2\n      mstore\n      0x20\n      add\n      swap1\n      0x01\n      swap1\n      sub\n      swap1\n      dup2\n      tag_112\n      jumpi\n      swap1\n      pop\n    tag_111:\n      pop\n        /* \"contracts/Blockchain_Assignment_7/Week7_Task1.sol\":461:514  string[] memory uppercased = new string[](arr.length) */\n      swap1\n      pop\n        /* \"contracts/Blockchain_Assignment_7/Week7_Task1.sol\":530:539  uint256 i */\n      0x00\n        /* \"contracts/Blockchain_Assignment_7/Week7_Task1.sol\":525:1010  for (uint256 i = 0; i < arr.length; i++) {... */\n    tag_113:\n        /* \"contracts/Blockchain_Assignment_7/Week7_Task1.sol\":549:552  arr */\n      dup4\n        /* \"contracts/Blockchain_Assignment_7/Week7_Task1.sol\":549:559  arr.length */\n      mload\n        /* \"contracts/Blockchain_Assignment_7/Week7_Task1.sol\":545:546  i */\n      dup2\n        /* \"contracts/Blockchain_Assignment_7/Week7_Task1.sol\":545:559  i < arr.length */\n      lt\n        /* \"contracts/Blockchain_Assignment_7/Week7_Task1.sol\":525:1010  for (uint256 i = 0; i < arr.length; i++) {... */\n      iszero\n      tag_114\n      jumpi\n        /* \"contracts/Blockchain_Assignment_7/Week7_Task1.sol\":581:598  bytes memory bStr */\n      0x00\n        /* \"contracts/Blockchain_Assignment_7/Week7_Task1.sol\":607:610  arr */\n      dup5\n        /* \"contracts/Blockchain_Assignment_7/Week7_Task1.sol\":611:612  i */\n      dup3\n        /* \"contracts/Blockchain_Assignment_7/Week7_Task1.sol\":607:613  arr[i] */\n      dup2\n      mload\n      dup2\n      lt\n      tag_116\n      jumpi\n      tag_117\n      tag_80\n      jump\t// in\n    tag_117:\n    tag_116:\n      0x20\n      mul\n      0x20\n      add\n      add\n      mload\n        /* \"contracts/Blockchain_Assignment_7/Week7_Task1.sol\":581:614  bytes memory bStr = bytes(arr[i]) */\n      swap1\n      pop\n        /* \"contracts/Blockchain_Assignment_7/Week7_Task1.sol\":629:648  bytes memory bUpper */\n      0x00\n        /* \"contracts/Blockchain_Assignment_7/Week7_Task1.sol\":661:665  bStr */\n      dup2\n        /* \"contracts/Blockchain_Assignment_7/Week7_Task1.sol\":661:672  bStr.length */\n      mload\n        /* \"contracts/Blockchain_Assignment_7/Week7_Task1.sol\":651:673  new bytes(bStr.length) */\n      0xffffffffffffffff\n      dup2\n      gt\n      iszero\n      tag_118\n      jumpi\n      tag_119\n      tag_94\n      jump\t// in\n    tag_119:\n    tag_118:\n      mload(0x40)\n      swap1\n      dup1\n      dup3\n      mstore\n      dup1\n      0x1f\n      add\n      not(0x1f)\n      and\n      0x20\n      add\n      dup3\n      add\n      0x40\n      mstore\n      dup1\n      iszero\n      tag_120\n      jumpi\n      dup2\n      0x20\n      add\n      0x01\n      dup3\n      mul\n      dup1\n      calldatasize\n      dup4\n      calldatacopy\n      dup1\n      dup3\n      add\n      swap2\n      pop\n      pop\n      swap1\n      pop\n    tag_120:\n      pop\n        /* \"contracts/Blockchain_Assignment_7/Week7_Task1.sol\":629:673  bytes memory bUpper = new bytes(bStr.length) */\n      swap1\n      pop\n        /* \"contracts/Blockchain_Assignment_7/Week7_Task1.sol\":693:702  uint256 j */\n      0x00\n        /* \"contracts/Blockchain_Assignment_7/Week7_Task1.sol\":688:954  for (uint256 j = 0; j < bStr.length; j++) {... */\n    tag_121:\n        /* \"contracts/Blockchain_Assignment_7/Week7_Task1.sol\":712:716  bStr */\n      dup3\n        /* \"contracts/Blockchain_Assignment_7/Week7_Task1.sol\":712:723  bStr.length */\n      mload\n        /* \"contracts/Blockchain_Assignment_7/Week7_Task1.sol\":708:709  j */\n      dup2\n        /* \"contracts/Blockchain_Assignment_7/Week7_Task1.sol\":708:723  j < bStr.length */\n      lt\n        /* \"contracts/Blockchain_Assignment_7/Week7_Task1.sol\":688:954  for (uint256 j = 0; j < bStr.length; j++) {... */\n      iszero\n      tag_122\n      jumpi\n        /* \"contracts/Blockchain_Assignment_7/Week7_Task1.sol\":764:768  0x61 */\n      0x61\n        /* \"contracts/Blockchain_Assignment_7/Week7_Task1.sol\":753:768  bStr[j] >= 0x61 */\n      0xf8\n      shl\n        /* \"contracts/Blockchain_Assignment_7/Week7_Task1.sol\":753:757  bStr */\n      dup4\n        /* \"contracts/Blockchain_Assignment_7/Week7_Task1.sol\":758:759  j */\n      dup3\n        /* \"contracts/Blockchain_Assignment_7/Week7_Task1.sol\":753:760  bStr[j] */\n      dup2\n      mload\n      dup2\n      lt\n      tag_124\n      jumpi\n      tag_125\n      tag_80\n      jump\t// in\n    tag_125:\n    tag_124:\n      0x20\n      add\n      add\n      mload\n      0xf8\n      shr\n      0xf8\n      shl\n        /* \"contracts/Blockchain_Assignment_7/Week7_Task1.sol\":753:768  bStr[j] >= 0x61 */\n      not(0xffffffffffffffffffffffffffffffffffffffffffffffffffffffffffffff)\n      and\n      lt\n      iszero\n        /* \"contracts/Blockchain_Assignment_7/Week7_Task1.sol\":753:787  bStr[j] >= 0x61 && bStr[j] <= 0x7A */\n      dup1\n      iszero\n      tag_126\n      jumpi\n      pop\n        /* \"contracts/Blockchain_Assignment_7/Week7_Task1.sol\":783:787  0x7A */\n      0x7a\n        /* \"contracts/Blockchain_Assignment_7/Week7_Task1.sol\":772:787  bStr[j] <= 0x7A */\n      0xf8\n      shl\n        /* \"contracts/Blockchain_Assignment_7/Week7_Task1.sol\":772:776  bStr */\n      dup4\n        /* \"contracts/Blockchain_Assignment_7/Week7_Task1.sol\":777:778  j */\n      dup3\n        /* \"contracts/Blockchain_Assignment_7/Week7_Task1.sol\":772:779  bStr[j] */\n      dup2\n      mload\n      dup2\n      lt\n      tag_127\n      jumpi\n      tag_128\n      tag_80\n      jump\t// in\n    tag_128:\n    tag_127:\n      0x20\n      add\n      add\n      mload\n      0xf8\n      shr\n      0xf8\n      shl\n        /* \"contracts/Blockchain_Assignment_7/Week7_Task1.sol\":772:787  bStr[j] <= 0x7A */\n      not(0xffffffffffffffffffffffffffffffffffffffffffffffffffffffffffffff)\n      and\n      gt\n      iszero\n        /* \"contracts/Blockchain_Assignment_7/Week7_Task1.sol\":753:787  bStr[j] >= 0x61 && bStr[j] <= 0x7A */\n    tag_126:\n        /* \"contracts/Blockchain_Assignment_7/Week7_Task1.sol\":749:939  if (bStr[j] >= 0x61 && bStr[j] <= 0x7A) {... */\n      iszero\n      tag_129\n      jumpi\n        /* \"contracts/Blockchain_Assignment_7/Week7_Task1.sol\":848:850  32 */\n      0x20\n        /* \"contracts/Blockchain_Assignment_7/Week7_Task1.sol\":837:841  bStr */\n      dup4\n        /* \"contracts/Blockchain_Assignment_7/Week7_Task1.sol\":842:843  j */\n      dup3\n        /* \"contracts/Blockchain_Assignment_7/Week7_Task1.sol\":837:844  bStr[j] */\n      dup2\n      mload\n      dup2\n      lt\n      tag_130\n      jumpi\n      tag_131\n      tag_80\n      jump\t// in\n    tag_131:\n    tag_130:\n      0x20\n      add\n      add\n      mload\n      0xf8\n      shr\n      0xf8\n      shl\n        /* \"contracts/Blockchain_Assignment_7/Week7_Task1.sol\":831:845  uint8(bStr[j]) */\n      0xf8\n      shr\n        /* \"contracts/Blockchain_Assignment_7/Week7_Task1.sol\":831:850  uint8(bStr[j]) - 32 */\n      tag_132\n      swap2\n      swap1\n      tag_133\n      jump\t// in\n    tag_132:\n        /* \"contracts/Blockchain_Assignment_7/Week7_Task1.sol\":824:851  bytes1(uint8(bStr[j]) - 32) */\n      0xf8\n      shl\n        /* \"contracts/Blockchain_Assignment_7/Week7_Task1.sol\":812:818  bUpper */\n      dup3\n        /* \"contracts/Blockchain_Assignment_7/Week7_Task1.sol\":819:820  j */\n      dup3\n        /* \"contracts/Blockchain_Assignment_7/Week7_Task1.sol\":812:821  bUpper[j] */\n      dup2\n      mload\n      dup2\n      lt\n      tag_134\n      jumpi\n      tag_135\n      tag_80\n      jump\t// in\n    tag_135:\n    tag_134:\n      0x20\n      add\n      add\n        /* \"contracts/Blockchain_Assignment_7/Week7_Task1.sol\":812:851  bUpper[j] = bytes1(uint8(bStr[j]) - 32) */\n      swap1\n      not(0xffffffffffffffffffffffffffffffffffffffffffffffffffffffffffffff)\n      and\n      swap1\n      dup2\n      0x00\n      byte\n      swap1\n      mstore8\n      pop\n        /* \"contracts/Blockchain_Assignment_7/Week7_Task1.sol\":749:939  if (bStr[j] >= 0x61 && bStr[j] <= 0x7A) {... */\n      jump(tag_136)\n    tag_129:\n        /* \"contracts/Blockchain_Assignment_7/Week7_Task1.sol\":912:916  bStr */\n      dup3\n        /* \"contracts/Blockchain_Assignment_7/Week7_Task1.sol\":917:918  j */\n      dup2\n        /* \"contracts/Blockchain_Assignment_7/Week7_Task1.sol\":912:919  bStr[j] */\n      dup2\n      mload\n      dup2\n      lt\n      tag_137\n      jumpi\n      tag_138\n      tag_80\n      jump\t// in\n    tag_138:\n    tag_137:\n      0x20\n      add\n      add\n      mload\n      0xf8\n      shr\n      0xf8\n      shl\n        /* \"contracts/Blockchain_Assignment_7/Week7_Task1.sol\":900:906  bUpper */\n      dup3\n        /* \"contracts/Blockchain_Assignment_7/Week7_Task1.sol\":907:908  j */\n      dup3\n        /* \"contracts/Blockchain_Assignment_7/Week7_Task1.sol\":900:909  bUpper[j] */\n      dup2\n      mload\n      dup2\n      lt\n      tag_139\n      jumpi\n      tag_140\n      tag_80\n      jump\t// in\n    tag_140:\n    tag_139:\n      0x20\n      add\n      add\n        /* \"contracts/Blockchain_Assignment_7/Week7_Task1.sol\":900:919  bUpper[j] = bStr[j] */\n      swap1\n      not(0xffffffffffffffffffffffffffffffffffffffffffffffffffffffffffffff)\n      and\n      swap1\n      dup2\n      0x00\n      byte\n      swap1\n      mstore8\n      pop\n        /* \"contracts/Blockchain_Assignment_7/Week7_Task1.sol\":749:939  if (bStr[j] >= 0x61 && bStr[j] <= 0x7A) {... */\n    tag_136:\n        /* \"contracts/Blockchain_Assignment_7/Week7_Task1.sol\":725:728  j++ */\n      dup1\n      dup1\n      0x01\n      add\n      swap2\n      pop\n      pop\n        /* \"contracts/Blockchain_Assignment_7/Week7_Task1.sol\":688:954  for (uint256 j = 0; j < bStr.length; j++) {... */\n      jump(tag_121)\n    tag_122:\n      pop\n        /* \"contracts/Blockchain_Assignment_7/Week7_Task1.sol\":991:997  bUpper */\n      dup1\n        /* \"contracts/Blockchain_Assignment_7/Week7_Task1.sol\":968:978  uppercased */\n      dup5\n        /* \"contracts/Blockchain_Assignment_7/Week7_Task1.sol\":979:980  i */\n      dup5\n        /* \"contracts/Blockchain_Assignment_7/Week7_Task1.sol\":968:981  uppercased[i] */\n      dup2\n      mload\n      dup2\n      lt\n      tag_141\n      jumpi\n      tag_142\n      tag_80\n      jump\t// in\n    tag_142:\n    tag_141:\n      0x20\n      mul\n      0x20\n      add\n      add\n        /* \"contracts/Blockchain_Assignment_7/Week7_Task1.sol\":968:998  uppercased[i] = string(bUpper) */\n      dup2\n      swap1\n      mstore\n      pop\n        /* \"contracts/Blockchain_Assignment_7/Week7_Task1.sol\":566:1010  {... */\n      pop\n      pop\n        /* \"contracts/Blockchain_Assignment_7/Week7_Task1.sol\":561:564  i++ */\n      dup1\n      dup1\n      0x01\n      add\n      swap2\n      pop\n      pop\n        /* \"contracts/Blockchain_Assignment_7/Week7_Task1.sol\":525:1010  for (uint256 i = 0; i < arr.length; i++) {... */\n      jump(tag_113)\n    tag_114:\n      pop\n        /* \"contracts/Blockchain_Assignment_7/Week7_Task1.sol\":1027:1037  uppercased */\n      dup1\n        /* \"contracts/Blockchain_Assignment_7/Week7_Task1.sol\":1020:1037  return uppercased */\n      swap2\n      pop\n      pop\n        /* \"contracts/Blockchain_Assignment_7/Week7_Task1.sol\":368:1045  function toUpperCase(string[] memory arr) internal pure returns (string[] memory) {... */\n      swap2\n      swap1\n      pop\n      jump\t// out\n        /* \"#utility.yul\":7:106   */\n    tag_143:\n        /* \"#utility.yul\":59:65   */\n      0x00\n        /* \"#utility.yul\":93:98   */\n      dup2\n        /* \"#utility.yul\":87:99   */\n      mload\n        /* \"#utility.yul\":77:99   */\n      swap1\n      pop\n        /* \"#utility.yul\":7:106   */\n      swap2\n      swap1\n      pop\n      jump\t// out\n        /* \"#utility.yul\":112:281   */\n    tag_144:\n        /* \"#utility.yul\":196:207   */\n      0x00\n        /* \"#utility.yul\":230:236   */\n      dup3\n        /* \"#utility.yul\":225:228   */\n      dup3\n        /* \"#utility.yul\":218:237   */\n      mstore\n        /* \"#utility.yul\":270:274   */\n      0x20\n        /* \"#utility.yul\":265:268   */\n      dup3\n        /* \"#utility.yul\":261:275   */\n      add\n        /* \"#utility.yul\":246:275   */\n      swap1\n      pop\n        /* \"#utility.yul\":112:281   */\n      swap3\n      swap2\n      pop\n      pop\n      jump\t// out\n        /* \"#utility.yul\":287:426   */\n    tag_145:\n        /* \"#utility.yul\":376:382   */\n      dup3\n        /* \"#utility.yul\":371:374   */\n      dup2\n        /* \"#utility.yul\":366:369   */\n      dup4\n        /* \"#utility.yul\":360:383   */\n      mcopy\n        /* \"#utility.yul\":417:418   */\n      0x00\n        /* \"#utility.yul\":408:414   */\n      dup4\n        /* \"#utility.yul\":403:406   */\n      dup4\n        /* \"#utility.yul\":399:415   */\n      add\n        /* \"#utility.yul\":392:419   */\n      mstore\n        /* \"#utility.yul\":287:426   */\n      pop\n      pop\n      pop\n      jump\t// out\n        /* \"#utility.yul\":432:534   */\n    tag_146:\n        /* \"#utility.yul\":473:479   */\n      0x00\n        /* \"#utility.yul\":524:526   */\n      0x1f\n        /* \"#utility.yul\":520:527   */\n      not\n        /* \"#utility.yul\":515:517   */\n      0x1f\n        /* \"#utility.yul\":508:513   */\n      dup4\n        /* \"#utility.yul\":504:518   */\n      add\n        /* \"#utility.yul\":500:528   */\n      and\n        /* \"#utility.yul\":490:528   */\n      swap1\n      pop\n        /* \"#utility.yul\":432:534   */\n      swap2\n      swap1\n      pop\n      jump\t// out\n        /* \"#utility.yul\":540:917   */\n    tag_147:\n        /* \"#utility.yul\":628:631   */\n      0x00\n        /* \"#utility.yul\":656:695   */\n      tag_196\n        /* \"#utility.yul\":689:694   */\n      dup3\n        /* \"#utility.yul\":656:695   */\n      tag_143\n      jump\t// in\n    tag_196:\n        /* \"#utility.yul\":711:782   */\n      tag_197\n        /* \"#utility.yul\":775:781   */\n      dup2\n        /* \"#utility.yul\":770:773   */\n      dup6\n        /* \"#utility.yul\":711:782   */\n      tag_144\n      jump\t// in\n    tag_197:\n        /* \"#utility.yul\":704:782   */\n      swap4\n      pop\n        /* \"#utility.yul\":791:856   */\n      tag_198\n        /* \"#utility.yul\":849:855   */\n      dup2\n        /* \"#utility.yul\":844:847   */\n      dup6\n        /* \"#utility.yul\":837:841   */\n      0x20\n        /* \"#utility.yul\":830:835   */\n      dup7\n        /* \"#utility.yul\":826:842   */\n      add\n        /* \"#utility.yul\":791:856   */\n      tag_145\n      jump\t// in\n    tag_198:\n        /* \"#utility.yul\":881:910   */\n      tag_199\n        /* \"#utility.yul\":903:909   */\n      dup2\n        /* \"#utility.yul\":881:910   */\n      tag_146\n      jump\t// in\n    tag_199:\n        /* \"#utility.yul\":876:879   */\n      dup5\n        /* \"#utility.yul\":872:911   */\n      add\n        /* \"#utility.yul\":865:911   */\n      swap2\n      pop\n        /* \"#utility.yul\":632:917   */\n      pop\n        /* \"#utility.yul\":540:917   */\n      swap3\n      swap2\n      pop\n      pop\n      jump\t// out\n        /* \"#utility.yul\":923:1236   */\n    tag_11:\n        /* \"#utility.yul\":1036:1040   */\n      0x00\n        /* \"#utility.yul\":1074:1076   */\n      0x20\n        /* \"#utility.yul\":1063:1072   */\n      dup3\n        /* \"#utility.yul\":1059:1077   */\n      add\n        /* \"#utility.yul\":1051:1077   */\n      swap1\n      pop\n        /* \"#utility.yul\":1123:1132   */\n      dup2\n        /* \"#utility.yul\":1117:1121   */\n      dup2\n        /* \"#utility.yul\":1113:1133   */\n      sub\n        /* \"#utility.yul\":1109:1110   */\n      0x00\n        /* \"#utility.yul\":1098:1107   */\n      dup4\n        /* \"#utility.yul\":1094:1111   */\n      add\n        /* \"#utility.yul\":1087:1134   */\n      mstore\n        /* \"#utility.yul\":1151:1229   */\n      tag_201\n        /* \"#utility.yul\":1224:1228   */\n      dup2\n        /* \"#utility.yul\":1215:1221   */\n      dup5\n        /* \"#utility.yul\":1151:1229   */\n      tag_147\n      jump\t// in\n    tag_201:\n        /* \"#utility.yul\":1143:1229   */\n      swap1\n      pop\n        /* \"#utility.yul\":923:1236   */\n      swap3\n      swap2\n      pop\n      pop\n      jump\t// out\n        /* \"#utility.yul\":1242:1317   */\n    tag_148:\n        /* \"#utility.yul\":1275:1281   */\n      0x00\n        /* \"#utility.yul\":1308:1310   */\n      0x40\n        /* \"#utility.yul\":1302:1311   */\n      mload\n        /* \"#utility.yul\":1292:1311   */\n      swap1\n      pop\n        /* \"#utility.yul\":1242:1317   */\n      swap1\n      jump\t// out\n        /* \"#utility.yul\":1323:1440   */\n    tag_149:\n        /* \"#utility.yul\":1432:1433   */\n      0x00\n        /* \"#utility.yul\":1429:1430   */\n      dup1\n        /* \"#utility.yul\":1422:1434   */\n      revert\n        /* \"#utility.yul\":1446:1563   */\n    tag_150:\n        /* \"#utility.yul\":1555:1556   */\n      0x00\n        /* \"#utility.yul\":1552:1553   */\n      dup1\n        /* \"#utility.yul\":1545:1557   */\n      revert\n        /* \"#utility.yul\":1569:1686   */\n    tag_151:\n        /* \"#utility.yul\":1678:1679   */\n      0x00\n        /* \"#utility.yul\":1675:1676   */\n      dup1\n        /* \"#utility.yul\":1668:1680   */\n      revert\n        /* \"#utility.yul\":1692:1809   */\n    tag_152:\n        /* \"#utility.yul\":1801:1802   */\n      0x00\n        /* \"#utility.yul\":1798:1799   */\n      dup1\n        /* \"#utility.yul\":1791:1803   */\n      revert\n        /* \"#utility.yul\":1815:1995   */\n    tag_94:\n        /* \"#utility.yul\":1863:1940   */\n      0x4e487b7100000000000000000000000000000000000000000000000000000000\n        /* \"#utility.yul\":1860:1861   */\n      0x00\n        /* \"#utility.yul\":1853:1941   */\n      mstore\n        /* \"#utility.yul\":1960:1964   */\n      0x41\n        /* \"#utility.yul\":1957:1958   */\n      0x04\n        /* \"#utility.yul\":1950:1965   */\n      mstore\n        /* \"#utility.yul\":1984:1988   */\n      0x24\n        /* \"#utility.yul\":1981:1982   */\n      0x00\n        /* \"#utility.yul\":1974:1989   */\n      revert\n        /* \"#utility.yul\":2001:2282   */\n    tag_153:\n        /* \"#utility.yul\":2084:2111   */\n      tag_209\n        /* \"#utility.yul\":2106:2110   */\n      dup3\n        /* \"#utility.yul\":2084:2111   */\n      tag_146\n      jump\t// in\n    tag_209:\n        /* \"#utility.yul\":2076:2082   */\n      dup2\n        /* \"#utility.yul\":2072:2112   */\n      add\n        /* \"#utility.yul\":2214:2220   */\n      dup2\n        /* \"#utility.yul\":2202:2212   */\n      dup2\n        /* \"#utility.yul\":2199:2221   */\n      lt\n        /* \"#utility.yul\":2178:2196   */\n      0xffffffffffffffff\n        /* \"#utility.yul\":2166:2176   */\n      dup3\n        /* \"#utility.yul\":2163:2197   */\n      gt\n        /* \"#utility.yul\":2160:2222   */\n      or\n        /* \"#utility.yul\":2157:2245   */\n      iszero\n      tag_210\n      jumpi\n        /* \"#utility.yul\":2225:2243   */\n      tag_211\n      tag_94\n      jump\t// in\n    tag_211:\n        /* \"#utility.yul\":2157:2245   */\n    tag_210:\n        /* \"#utility.yul\":2265:2275   */\n      dup1\n        /* \"#utility.yul\":2261:2263   */\n      0x40\n        /* \"#utility.yul\":2254:2276   */\n      mstore\n        /* \"#utility.yul\":2044:2282   */\n      pop\n        /* \"#utility.yul\":2001:2282   */\n      pop\n      pop\n      jump\t// out\n        /* \"#utility.yul\":2288:2417   */\n    tag_154:\n        /* \"#utility.yul\":2322:2328   */\n      0x00\n        /* \"#utility.yul\":2349:2369   */\n      tag_213\n      tag_148\n      jump\t// in\n    tag_213:\n        /* \"#utility.yul\":2339:2369   */\n      swap1\n      pop\n        /* \"#utility.yul\":2378:2411   */\n      tag_214\n        /* \"#utility.yul\":2406:2410   */\n      dup3\n        /* \"#utility.yul\":2398:2404   */\n      dup3\n        /* \"#utility.yul\":2378:2411   */\n      tag_153\n      jump\t// in\n    tag_214:\n        /* \"#utility.yul\":2288:2417   */\n      swap2\n      swap1\n      pop\n      jump\t// out\n        /* \"#utility.yul\":2423:2731   */\n    tag_155:\n        /* \"#utility.yul\":2485:2489   */\n      0x00\n        /* \"#utility.yul\":2575:2593   */\n      0xffffffffffffffff\n        /* \"#utility.yul\":2567:2573   */\n      dup3\n        /* \"#utility.yul\":2564:2594   */\n      gt\n        /* \"#utility.yul\":2561:2617   */\n      iszero\n      tag_216\n      jumpi\n        /* \"#utility.yul\":2597:2615   */\n      tag_217\n      tag_94\n      jump\t// in\n    tag_217:\n        /* \"#utility.yul\":2561:2617   */\n    tag_216:\n        /* \"#utility.yul\":2635:2664   */\n      tag_218\n        /* \"#utility.yul\":2657:2663   */\n      dup3\n        /* \"#utility.yul\":2635:2664   */\n      tag_146\n      jump\t// in\n    tag_218:\n        /* \"#utility.yul\":2627:2664   */\n      swap1\n      pop\n        /* \"#utility.yul\":2719:2723   */\n      0x20\n        /* \"#utility.yul\":2713:2717   */\n      dup2\n        /* \"#utility.yul\":2709:2724   */\n      add\n        /* \"#utility.yul\":2701:2724   */\n      swap1\n      pop\n        /* \"#utility.yul\":2423:2731   */\n      swap2\n      swap1\n      pop\n      jump\t// out\n        /* \"#utility.yul\":2737:2885   */\n    tag_156:\n        /* \"#utility.yul\":2835:2841   */\n      dup3\n        /* \"#utility.yul\":2830:2833   */\n      dup2\n        /* \"#utility.yul\":2825:2828   */\n      dup4\n        /* \"#utility.yul\":2812:2842   */\n      calldatacopy\n        /* \"#utility.yul\":2876:2877   */\n      0x00\n        /* \"#utility.yul\":2867:2873   */\n      dup4\n        /* \"#utility.yul\":2862:2865   */\n      dup4\n        /* \"#utility.yul\":2858:2874   */\n      add\n        /* \"#utility.yul\":2851:2878   */\n      mstore\n        /* \"#utility.yul\":2737:2885   */\n      pop\n      pop\n      pop\n      jump\t// out\n        /* \"#utility.yul\":2891:3316   */\n    tag_157:\n        /* \"#utility.yul\":2969:2974   */\n      0x00\n        /* \"#utility.yul\":2994:3060   */\n      tag_221\n        /* \"#utility.yul\":3010:3059   */\n      tag_222\n        /* \"#utility.yul\":3052:3058   */\n      dup5\n        /* \"#utility.yul\":3010:3059   */\n      tag_155\n      jump\t// in\n    tag_222:\n        /* \"#utility.yul\":2994:3060   */\n      tag_154\n      jump\t// in\n    tag_221:\n        /* \"#utility.yul\":2985:3060   */\n      swap1\n      pop\n        /* \"#utility.yul\":3083:3089   */\n      dup3\n        /* \"#utility.yul\":3076:3081   */\n      dup2\n        /* \"#utility.yul\":3069:3090   */\n      mstore\n        /* \"#utility.yul\":3121:3125   */\n      0x20\n        /* \"#utility.yul\":3114:3119   */\n      dup2\n        /* \"#utility.yul\":3110:3126   */\n      add\n        /* \"#utility.yul\":3159:3162   */\n      dup5\n        /* \"#utility.yul\":3150:3156   */\n      dup5\n        /* \"#utility.yul\":3145:3148   */\n      dup5\n        /* \"#utility.yul\":3141:3157   */\n      add\n        /* \"#utility.yul\":3138:3163   */\n      gt\n        /* \"#utility.yul\":3135:3247   */\n      iszero\n      tag_223\n      jumpi\n        /* \"#utility.yul\":3166:3245   */\n      tag_224\n      tag_152\n      jump\t// in\n    tag_224:\n        /* \"#utility.yul\":3135:3247   */\n    tag_223:\n        /* \"#utility.yul\":3256:3310   */\n      tag_225\n        /* \"#utility.yul\":3303:3309   */\n      dup5\n        /* \"#utility.yul\":3298:3301   */\n      dup3\n        /* \"#utility.yul\":3293:3296   */\n      dup6\n        /* \"#utility.yul\":3256:3310   */\n      tag_156\n      jump\t// in\n    tag_225:\n        /* \"#utility.yul\":2975:3316   */\n      pop\n        /* \"#utility.yul\":2891:3316   */\n      swap4\n      swap3\n      pop\n      pop\n      pop\n      jump\t// out\n        /* \"#utility.yul\":3336:3676   */\n    tag_158:\n        /* \"#utility.yul\":3392:3397   */\n      0x00\n        /* \"#utility.yul\":3441:3444   */\n      dup3\n        /* \"#utility.yul\":3434:3438   */\n      0x1f\n        /* \"#utility.yul\":3426:3432   */\n      dup4\n        /* \"#utility.yul\":3422:3439   */\n      add\n        /* \"#utility.yul\":3418:3445   */\n      slt\n        /* \"#utility.yul\":3408:3530   */\n      tag_227\n      jumpi\n        /* \"#utility.yul\":3449:3528   */\n      tag_228\n      tag_151\n      jump\t// in\n    tag_228:\n        /* \"#utility.yul\":3408:3530   */\n    tag_227:\n        /* \"#utility.yul\":3566:3572   */\n      dup2\n        /* \"#utility.yul\":3553:3573   */\n      calldataload\n        /* \"#utility.yul\":3591:3670   */\n      tag_229\n        /* \"#utility.yul\":3666:3669   */\n      dup5\n        /* \"#utility.yul\":3658:3664   */\n      dup3\n        /* \"#utility.yul\":3651:3655   */\n      0x20\n        /* \"#utility.yul\":3643:3649   */\n      dup7\n        /* \"#utility.yul\":3639:3656   */\n      add\n        /* \"#utility.yul\":3591:3670   */\n      tag_157\n      jump\t// in\n    tag_229:\n        /* \"#utility.yul\":3582:3670   */\n      swap2\n      pop\n        /* \"#utility.yul\":3398:3676   */\n      pop\n        /* \"#utility.yul\":3336:3676   */\n      swap3\n      swap2\n      pop\n      pop\n      jump\t// out\n        /* \"#utility.yul\":3682:4191   */\n    tag_14:\n        /* \"#utility.yul\":3751:3757   */\n      0x00\n        /* \"#utility.yul\":3800:3802   */\n      0x20\n        /* \"#utility.yul\":3788:3797   */\n      dup3\n        /* \"#utility.yul\":3779:3786   */\n      dup5\n        /* \"#utility.yul\":3775:3798   */\n      sub\n        /* \"#utility.yul\":3771:3803   */\n      slt\n        /* \"#utility.yul\":3768:3887   */\n      iszero\n      tag_231\n      jumpi\n        /* \"#utility.yul\":3806:3885   */\n      tag_232\n      tag_149\n      jump\t// in\n    tag_232:\n        /* \"#utility.yul\":3768:3887   */\n    tag_231:\n        /* \"#utility.yul\":3954:3955   */\n      0x00\n        /* \"#utility.yul\":3943:3952   */\n      dup3\n        /* \"#utility.yul\":3939:3956   */\n      add\n        /* \"#utility.yul\":3926:3957   */\n      calldataload\n        /* \"#utility.yul\":3984:4002   */\n      0xffffffffffffffff\n        /* \"#utility.yul\":3976:3982   */\n      dup2\n        /* \"#utility.yul\":3973:4003   */\n      gt\n        /* \"#utility.yul\":3970:4087   */\n      iszero\n      tag_233\n      jumpi\n        /* \"#utility.yul\":4006:4085   */\n      tag_234\n      tag_150\n      jump\t// in\n    tag_234:\n        /* \"#utility.yul\":3970:4087   */\n    tag_233:\n        /* \"#utility.yul\":4111:4174   */\n      tag_235\n        /* \"#utility.yul\":4166:4173   */\n      dup5\n        /* \"#utility.yul\":4157:4163   */\n      dup3\n        /* \"#utility.yul\":4146:4155   */\n      dup6\n        /* \"#utility.yul\":4142:4164   */\n      add\n        /* \"#utility.yul\":4111:4174   */\n      tag_158\n      jump\t// in\n    tag_235:\n        /* \"#utility.yul\":4101:4174   */\n      swap2\n      pop\n        /* \"#utility.yul\":3897:4184   */\n      pop\n        /* \"#utility.yul\":3682:4191   */\n      swap3\n      swap2\n      pop\n      pop\n      jump\t// out\n        /* \"#utility.yul\":4197:4274   */\n    tag_159:\n        /* \"#utility.yul\":4234:4241   */\n      0x00\n        /* \"#utility.yul\":4263:4268   */\n      dup2\n        /* \"#utility.yul\":4252:4268   */\n      swap1\n      pop\n        /* \"#utility.yul\":4197:4274   */\n      swap2\n      swap1\n      pop\n      jump\t// out\n        /* \"#utility.yul\":4280:4402   */\n    tag_160:\n        /* \"#utility.yul\":4353:4377   */\n      tag_238\n        /* \"#utility.yul\":4371:4376   */\n      dup2\n        /* \"#utility.yul\":4353:4377   */\n      tag_159\n      jump\t// in\n    tag_238:\n        /* \"#utility.yul\":4346:4351   */\n      dup2\n        /* \"#utility.yul\":4343:4378   */\n      eq\n        /* \"#utility.yul\":4333:4396   */\n      tag_239\n      jumpi\n        /* \"#utility.yul\":4392:4393   */\n      0x00\n        /* \"#utility.yul\":4389:4390   */\n      dup1\n        /* \"#utility.yul\":4382:4394   */\n      revert\n        /* \"#utility.yul\":4333:4396   */\n    tag_239:\n        /* \"#utility.yul\":4280:4402   */\n      pop\n      jump\t// out\n        /* \"#utility.yul\":4408:4547   */\n    tag_161:\n        /* \"#utility.yul\":4454:4459   */\n      0x00\n        /* \"#utility.yul\":4492:4498   */\n      dup2\n        /* \"#utility.yul\":4479:4499   */\n      calldataload\n        /* \"#utility.yul\":4470:4499   */\n      swap1\n      pop\n        /* \"#utility.yul\":4508:4541   */\n      tag_241\n        /* \"#utility.yul\":4535:4540   */\n      dup2\n        /* \"#utility.yul\":4508:4541   */\n      tag_160\n      jump\t// in\n    tag_241:\n        /* \"#utility.yul\":4408:4547   */\n      swap3\n      swap2\n      pop\n      pop\n      jump\t// out\n        /* \"#utility.yul\":4553:4882   */\n    tag_18:\n        /* \"#utility.yul\":4612:4618   */\n      0x00\n        /* \"#utility.yul\":4661:4663   */\n      0x20\n        /* \"#utility.yul\":4649:4658   */\n      dup3\n        /* \"#utility.yul\":4640:4647   */\n      dup5\n        /* \"#utility.yul\":4636:4659   */\n      sub\n        /* \"#utility.yul\":4632:4664   */\n      slt\n        /* \"#utility.yul\":4629:4748   */\n      iszero\n      tag_243\n      jumpi\n        /* \"#utility.yul\":4667:4746   */\n      tag_244\n      tag_149\n      jump\t// in\n    tag_244:\n        /* \"#utility.yul\":4629:4748   */\n    tag_243:\n        /* \"#utility.yul\":4787:4788   */\n      0x00\n        /* \"#utility.yul\":4812:4865   */\n      tag_245\n        /* \"#utility.yul\":4857:4864   */\n      dup5\n        /* \"#utility.yul\":4848:4854   */\n      dup3\n        /* \"#utility.yul\":4837:4846   */\n      dup6\n        /* \"#utility.yul\":4833:4855   */\n      add\n        /* \"#utility.yul\":4812:4865   */\n      tag_161\n      jump\t// in\n    tag_245:\n        /* \"#utility.yul\":4802:4865   */\n      swap2\n      pop\n        /* \"#utility.yul\":4758:4875   */\n      pop\n        /* \"#utility.yul\":4553:4882   */\n      swap3\n      swap2\n      pop\n      pop\n      jump\t// out\n        /* \"#utility.yul\":4888:5012   */\n    tag_162:\n        /* \"#utility.yul\":4965:4971   */\n      0x00\n        /* \"#utility.yul\":4999:5004   */\n      dup2\n        /* \"#utility.yul\":4993:5005   */\n      mload\n        /* \"#utility.yul\":4983:5005   */\n      swap1\n      pop\n        /* \"#utility.yul\":4888:5012   */\n      swap2\n      swap1\n      pop\n      jump\t// out\n        /* \"#utility.yul\":5018:5212   */\n    tag_163:\n        /* \"#utility.yul\":5127:5138   */\n      0x00\n        /* \"#utility.yul\":5161:5167   */\n      dup3\n        /* \"#utility.yul\":5156:5159   */\n      dup3\n        /* \"#utility.yul\":5149:5168   */\n      mstore\n        /* \"#utility.yul\":5201:5205   */\n      0x20\n        /* \"#utility.yul\":5196:5199   */\n      dup3\n        /* \"#utility.yul\":5192:5206   */\n      add\n        /* \"#utility.yul\":5177:5206   */\n      swap1\n      pop\n        /* \"#utility.yul\":5018:5212   */\n      swap3\n      swap2\n      pop\n      pop\n      jump\t// out\n        /* \"#utility.yul\":5218:5360   */\n    tag_164:\n        /* \"#utility.yul\":5295:5299   */\n      0x00\n        /* \"#utility.yul\":5318:5321   */\n      dup2\n        /* \"#utility.yul\":5310:5321   */\n      swap1\n      pop\n        /* \"#utility.yul\":5348:5352   */\n      0x20\n        /* \"#utility.yul\":5343:5346   */\n      dup3\n        /* \"#utility.yul\":5339:5353   */\n      add\n        /* \"#utility.yul\":5331:5353   */\n      swap1\n      pop\n        /* \"#utility.yul\":5218:5360   */\n      swap2\n      swap1\n      pop\n      jump\t// out\n        /* \"#utility.yul\":5366:5525   */\n    tag_165:\n        /* \"#utility.yul\":5440:5451   */\n      0x00\n        /* \"#utility.yul\":5474:5480   */\n      dup3\n        /* \"#utility.yul\":5469:5472   */\n      dup3\n        /* \"#utility.yul\":5462:5481   */\n      mstore\n        /* \"#utility.yul\":5514:5518   */\n      0x20\n        /* \"#utility.yul\":5509:5512   */\n      dup3\n        /* \"#utility.yul\":5505:5519   */\n      add\n        /* \"#utility.yul\":5490:5519   */\n      swap1\n      pop\n        /* \"#utility.yul\":5366:5525   */\n      swap3\n      swap2\n      pop\n      pop\n      jump\t// out\n        /* \"#utility.yul\":5531:5888   */\n    tag_166:\n        /* \"#utility.yul\":5609:5612   */\n      0x00\n        /* \"#utility.yul\":5637:5676   */\n      tag_251\n        /* \"#utility.yul\":5670:5675   */\n      dup3\n        /* \"#utility.yul\":5637:5676   */\n      tag_143\n      jump\t// in\n    tag_251:\n        /* \"#utility.yul\":5692:5753   */\n      tag_252\n        /* \"#utility.yul\":5746:5752   */\n      dup2\n        /* \"#utility.yul\":5741:5744   */\n      dup6\n        /* \"#utility.yul\":5692:5753   */\n      tag_165\n      jump\t// in\n    tag_252:\n        /* \"#utility.yul\":5685:5753   */\n      swap4\n      pop\n        /* \"#utility.yul\":5762:5827   */\n      tag_253\n        /* \"#utility.yul\":5820:5826   */\n      dup2\n        /* \"#utility.yul\":5815:5818   */\n      dup6\n        /* \"#utility.yul\":5808:5812   */\n      0x20\n        /* \"#utility.yul\":5801:5806   */\n      dup7\n        /* \"#utility.yul\":5797:5813   */\n      add\n        /* \"#utility.yul\":5762:5827   */\n      tag_145\n      jump\t// in\n    tag_253:\n        /* \"#utility.yul\":5852:5881   */\n      tag_254\n        /* \"#utility.yul\":5874:5880   */\n      dup2\n        /* \"#utility.yul\":5852:5881   */\n      tag_146\n      jump\t// in\n    tag_254:\n        /* \"#utility.yul\":5847:5850   */\n      dup5\n        /* \"#utility.yul\":5843:5882   */\n      add\n        /* \"#utility.yul\":5836:5882   */\n      swap2\n      pop\n        /* \"#utility.yul\":5613:5888   */\n      pop\n        /* \"#utility.yul\":5531:5888   */\n      swap3\n      swap2\n      pop\n      pop\n      jump\t// out\n        /* \"#utility.yul\":5894:6090   */\n    tag_167:\n        /* \"#utility.yul\":5983:5993   */\n      0x00\n        /* \"#utility.yul\":6018:6084   */\n      tag_256\n        /* \"#utility.yul\":6080:6083   */\n      dup4\n        /* \"#utility.yul\":6072:6078   */\n      dup4\n        /* \"#utility.yul\":6018:6084   */\n      tag_166\n      jump\t// in\n    tag_256:\n        /* \"#utility.yul\":6004:6084   */\n      swap1\n      pop\n        /* \"#utility.yul\":5894:6090   */\n      swap3\n      swap2\n      pop\n      pop\n      jump\t// out\n        /* \"#utility.yul\":6096:6219   */\n    tag_168:\n        /* \"#utility.yul\":6176:6180   */\n      0x00\n        /* \"#utility.yul\":6208:6212   */\n      0x20\n        /* \"#utility.yul\":6203:6206   */\n      dup3\n        /* \"#utility.yul\":6199:6213   */\n      add\n        /* \"#utility.yul\":6191:6213   */\n      swap1\n      pop\n        /* \"#utility.yul\":6096:6219   */\n      swap2\n      swap1\n      pop\n      jump\t// out\n        /* \"#utility.yul\":6253:7244   */\n    tag_169:\n        /* \"#utility.yul\":6392:6395   */\n      0x00\n        /* \"#utility.yul\":6421:6485   */\n      tag_259\n        /* \"#utility.yul\":6479:6484   */\n      dup3\n        /* \"#utility.yul\":6421:6485   */\n      tag_162\n      jump\t// in\n    tag_259:\n        /* \"#utility.yul\":6501:6597   */\n      tag_260\n        /* \"#utility.yul\":6590:6596   */\n      dup2\n        /* \"#utility.yul\":6585:6588   */\n      dup6\n        /* \"#utility.yul\":6501:6597   */\n      tag_163\n      jump\t// in\n    tag_260:\n        /* \"#utility.yul\":6494:6597   */\n      swap4\n      pop\n        /* \"#utility.yul\":6623:6626   */\n      dup4\n        /* \"#utility.yul\":6668:6672   */\n      0x20\n        /* \"#utility.yul\":6660:6666   */\n      dup3\n        /* \"#utility.yul\":6656:6673   */\n      mul\n        /* \"#utility.yul\":6651:6654   */\n      dup6\n        /* \"#utility.yul\":6647:6674   */\n      add\n        /* \"#utility.yul\":6698:6764   */\n      tag_261\n        /* \"#utility.yul\":6758:6763   */\n      dup6\n        /* \"#utility.yul\":6698:6764   */\n      tag_164\n      jump\t// in\n    tag_261:\n        /* \"#utility.yul\":6787:6794   */\n      dup1\n        /* \"#utility.yul\":6818:6819   */\n      0x00\n        /* \"#utility.yul\":6803:7199   */\n    tag_262:\n        /* \"#utility.yul\":6828:6834   */\n      dup6\n        /* \"#utility.yul\":6825:6826   */\n      dup2\n        /* \"#utility.yul\":6822:6835   */\n      lt\n        /* \"#utility.yul\":6803:7199   */\n      iszero\n      tag_264\n      jumpi\n        /* \"#utility.yul\":6899:6908   */\n      dup5\n        /* \"#utility.yul\":6893:6897   */\n      dup5\n        /* \"#utility.yul\":6889:6909   */\n      sub\n        /* \"#utility.yul\":6884:6887   */\n      dup10\n        /* \"#utility.yul\":6877:6910   */\n      mstore\n        /* \"#utility.yul\":6950:6956   */\n      dup2\n        /* \"#utility.yul\":6944:6957   */\n      mload\n        /* \"#utility.yul\":6978:7062   */\n      tag_265\n        /* \"#utility.yul\":7057:7061   */\n      dup6\n        /* \"#utility.yul\":7042:7055   */\n      dup3\n        /* \"#utility.yul\":6978:7062   */\n      tag_167\n      jump\t// in\n    tag_265:\n        /* \"#utility.yul\":6970:7062   */\n      swap5\n      pop\n        /* \"#utility.yul\":7085:7155   */\n      tag_266\n        /* \"#utility.yul\":7148:7154   */\n      dup4\n        /* \"#utility.yul\":7085:7155   */\n      tag_168\n      jump\t// in\n    tag_266:\n        /* \"#utility.yul\":7075:7155   */\n      swap3\n      pop\n        /* \"#utility.yul\":7184:7188   */\n      0x20\n        /* \"#utility.yul\":7179:7182   */\n      dup11\n        /* \"#utility.yul\":7175:7189   */\n      add\n        /* \"#utility.yul\":7168:7189   */\n      swap10\n      pop\n        /* \"#utility.yul\":6863:7199   */\n      pop\n        /* \"#utility.yul\":6850:6851   */\n      0x01\n        /* \"#utility.yul\":6847:6848   */\n      dup2\n        /* \"#utility.yul\":6843:6852   */\n      add\n        /* \"#utility.yul\":6838:6852   */\n      swap1\n      pop\n        /* \"#utility.yul\":6803:7199   */\n      jump(tag_262)\n    tag_264:\n        /* \"#utility.yul\":6807:6821   */\n      pop\n        /* \"#utility.yul\":7215:7219   */\n      dup3\n        /* \"#utility.yul\":7208:7219   */\n      swap8\n      pop\n        /* \"#utility.yul\":7235:7238   */\n      dup8\n        /* \"#utility.yul\":7228:7238   */\n      swap6\n      pop\n        /* \"#utility.yul\":6397:7244   */\n      pop\n      pop\n      pop\n      pop\n      pop\n        /* \"#utility.yul\":6253:7244   */\n      swap3\n      swap2\n      pop\n      pop\n      jump\t// out\n        /* \"#utility.yul\":7250:7663   */\n    tag_21:\n        /* \"#utility.yul\":7413:7417   */\n      0x00\n        /* \"#utility.yul\":7451:7453   */\n      0x20\n        /* \"#utility.yul\":7440:7449   */\n      dup3\n        /* \"#utility.yul\":7436:7454   */\n      add\n        /* \"#utility.yul\":7428:7454   */\n      swap1\n      pop\n        /* \"#utility.yul\":7500:7509   */\n      dup2\n        /* \"#utility.yul\":7494:7498   */\n      dup2\n        /* \"#utility.yul\":7490:7510   */\n      sub\n        /* \"#utility.yul\":7486:7487   */\n      0x00\n        /* \"#utility.yul\":7475:7484   */\n      dup4\n        /* \"#utility.yul\":7471:7488   */\n      add\n        /* \"#utility.yul\":7464:7511   */\n      mstore\n        /* \"#utility.yul\":7528:7656   */\n      tag_268\n        /* \"#utility.yul\":7651:7655   */\n      dup2\n        /* \"#utility.yul\":7642:7648   */\n      dup5\n        /* \"#utility.yul\":7528:7656   */\n      tag_169\n      jump\t// in\n    tag_268:\n        /* \"#utility.yul\":7520:7656   */\n      swap1\n      pop\n        /* \"#utility.yul\":7250:7663   */\n      swap3\n      swap2\n      pop\n      pop\n      jump\t// out\n        /* \"#utility.yul\":7669:7849   */\n    tag_170:\n        /* \"#utility.yul\":7717:7794   */\n      0x4e487b7100000000000000000000000000000000000000000000000000000000\n        /* \"#utility.yul\":7714:7715   */\n      0x00\n        /* \"#utility.yul\":7707:7795   */\n      mstore\n        /* \"#utility.yul\":7814:7818   */\n      0x22\n        /* \"#utility.yul\":7811:7812   */\n      0x04\n        /* \"#utility.yul\":7804:7819   */\n      mstore\n        /* \"#utility.yul\":7838:7842   */\n      0x24\n        /* \"#utility.yul\":7835:7836   */\n      0x00\n        /* \"#utility.yul\":7828:7843   */\n      revert\n        /* \"#utility.yul\":7855:8175   */\n    tag_35:\n        /* \"#utility.yul\":7899:7905   */\n      0x00\n        /* \"#utility.yul\":7936:7937   */\n      0x02\n        /* \"#utility.yul\":7930:7934   */\n      dup3\n        /* \"#utility.yul\":7926:7938   */\n      div\n        /* \"#utility.yul\":7916:7938   */\n      swap1\n      pop\n        /* \"#utility.yul\":7983:7984   */\n      0x01\n        /* \"#utility.yul\":7977:7981   */\n      dup3\n        /* \"#utility.yul\":7973:7985   */\n      and\n        /* \"#utility.yul\":8004:8022   */\n      dup1\n        /* \"#utility.yul\":7994:8075   */\n      tag_271\n      jumpi\n        /* \"#utility.yul\":8060:8064   */\n      0x7f\n        /* \"#utility.yul\":8052:8058   */\n      dup3\n        /* \"#utility.yul\":8048:8065   */\n      and\n        /* \"#utility.yul\":8038:8065   */\n      swap2\n      pop\n        /* \"#utility.yul\":7994:8075   */\n    tag_271:\n        /* \"#utility.yul\":8122:8124   */\n      0x20\n        /* \"#utility.yul\":8114:8120   */\n      dup3\n        /* \"#utility.yul\":8111:8125   */\n      lt\n        /* \"#utility.yul\":8091:8109   */\n      dup2\n        /* \"#utility.yul\":8088:8126   */\n      sub\n        /* \"#utility.yul\":8085:8169   */\n      tag_272\n      jumpi\n        /* \"#utility.yul\":8141:8159   */\n      tag_273\n      tag_170\n      jump\t// in\n    tag_273:\n        /* \"#utility.yul\":8085:8169   */\n    tag_272:\n        /* \"#utility.yul\":7906:8175   */\n      pop\n        /* \"#utility.yul\":7855:8175   */\n      swap2\n      swap1\n      pop\n      jump\t// out\n        /* \"#utility.yul\":8181:8322   */\n    tag_171:\n        /* \"#utility.yul\":8230:8234   */\n      0x00\n        /* \"#utility.yul\":8253:8256   */\n      dup2\n        /* \"#utility.yul\":8245:8256   */\n      swap1\n      pop\n        /* \"#utility.yul\":8276:8279   */\n      dup2\n        /* \"#utility.yul\":8273:8274   */\n      0x00\n        /* \"#utility.yul\":8266:8280   */\n      mstore\n        /* \"#utility.yul\":8310:8314   */\n      0x20\n        /* \"#utility.yul\":8307:8308   */\n      0x00\n        /* \"#utility.yul\":8297:8315   */\n      keccak256\n        /* \"#utility.yul\":8289:8315   */\n      swap1\n      pop\n        /* \"#utility.yul\":8181:8322   */\n      swap2\n      swap1\n      pop\n      jump\t// out\n        /* \"#utility.yul\":8328:8421   */\n    tag_172:\n        /* \"#utility.yul\":8365:8371   */\n      0x00\n        /* \"#utility.yul\":8412:8414   */\n      0x20\n        /* \"#utility.yul\":8407:8409   */\n      0x1f\n        /* \"#utility.yul\":8400:8405   */\n      dup4\n        /* \"#utility.yul\":8396:8410   */\n      add\n        /* \"#utility.yul\":8392:8415   */\n      div\n        /* \"#utility.yul\":8382:8415   */\n      swap1\n      pop\n        /* \"#utility.yul\":8328:8421   */\n      swap2\n      swap1\n      pop\n      jump\t// out\n        /* \"#utility.yul\":8427:8534   */\n    tag_173:\n        /* \"#utility.yul\":8471:8479   */\n      0x00\n        /* \"#utility.yul\":8521:8526   */\n      dup3\n        /* \"#utility.yul\":8515:8519   */\n      dup3\n        /* \"#utility.yul\":8511:8527   */\n      shl\n        /* \"#utility.yul\":8490:8527   */\n      swap1\n      pop\n        /* \"#utility.yul\":8427:8534   */\n      swap3\n      swap2\n      pop\n      pop\n      jump\t// out\n        /* \"#utility.yul\":8540:8933   */\n    tag_174:\n        /* \"#utility.yul\":8609:8615   */\n      0x00\n        /* \"#utility.yul\":8659:8660   */\n      0x08\n        /* \"#utility.yul\":8647:8657   */\n      dup4\n        /* \"#utility.yul\":8643:8661   */\n      mul\n        /* \"#utility.yul\":8682:8779   */\n      tag_278\n        /* \"#utility.yul\":8712:8778   */\n      0xffffffffffffffffffffffffffffffffffffffffffffffffffffffffffffffff\n        /* \"#utility.yul\":8701:8710   */\n      dup3\n        /* \"#utility.yul\":8682:8779   */\n      tag_173\n      jump\t// in\n    tag_278:\n        /* \"#utility.yul\":8800:8839   */\n      tag_279\n        /* \"#utility.yul\":8830:8838   */\n      dup7\n        /* \"#utility.yul\":8819:8828   */\n      dup4\n        /* \"#utility.yul\":8800:8839   */\n      tag_173\n      jump\t// in\n    tag_279:\n        /* \"#utility.yul\":8788:8839   */\n      swap6\n      pop\n        /* \"#utility.yul\":8872:8876   */\n      dup1\n        /* \"#utility.yul\":8868:8877   */\n      not\n        /* \"#utility.yul\":8861:8866   */\n      dup5\n        /* \"#utility.yul\":8857:8878   */\n      and\n        /* \"#utility.yul\":8848:8878   */\n      swap4\n      pop\n        /* \"#utility.yul\":8921:8925   */\n      dup1\n        /* \"#utility.yul\":8911:8919   */\n      dup7\n        /* \"#utility.yul\":8907:8926   */\n      and\n        /* \"#utility.yul\":8900:8905   */\n      dup5\n        /* \"#utility.yul\":8897:8927   */\n      or\n        /* \"#utility.yul\":8887:8927   */\n      swap3\n      pop\n        /* \"#utility.yul\":8616:8933   */\n      pop\n      pop\n        /* \"#utility.yul\":8540:8933   */\n      swap4\n      swap3\n      pop\n      pop\n      pop\n      jump\t// out\n        /* \"#utility.yul\":8939:8999   */\n    tag_175:\n        /* \"#utility.yul\":8967:8970   */\n      0x00\n        /* \"#utility.yul\":8988:8993   */\n      dup2\n        /* \"#utility.yul\":8981:8993   */\n      swap1\n      pop\n        /* \"#utility.yul\":8939:8999   */\n      swap2\n      swap1\n      pop\n      jump\t// out\n        /* \"#utility.yul\":9005:9147   */\n    tag_176:\n        /* \"#utility.yul\":9055:9064   */\n      0x00\n        /* \"#utility.yul\":9088:9141   */\n      tag_282\n        /* \"#utility.yul\":9106:9140   */\n      tag_283\n        /* \"#utility.yul\":9115:9139   */\n      tag_284\n        /* \"#utility.yul\":9133:9138   */\n      dup5\n        /* \"#utility.yul\":9115:9139   */\n      tag_159\n      jump\t// in\n    tag_284:\n        /* \"#utility.yul\":9106:9140   */\n      tag_175\n      jump\t// in\n    tag_283:\n        /* \"#utility.yul\":9088:9141   */\n      tag_159\n      jump\t// in\n    tag_282:\n        /* \"#utility.yul\":9075:9141   */\n      swap1\n      pop\n        /* \"#utility.yul\":9005:9147   */\n      swap2\n      swap1\n      pop\n      jump\t// out\n        /* \"#utility.yul\":9153:9228   */\n    tag_177:\n        /* \"#utility.yul\":9196:9199   */\n      0x00\n        /* \"#utility.yul\":9217:9222   */\n      dup2\n        /* \"#utility.yul\":9210:9222   */\n      swap1\n      pop\n        /* \"#utility.yul\":9153:9228   */\n      swap2\n      swap1\n      pop\n      jump\t// out\n        /* \"#utility.yul\":9234:9503   */\n    tag_178:\n        /* \"#utility.yul\":9344:9383   */\n      tag_287\n        /* \"#utility.yul\":9375:9382   */\n      dup4\n        /* \"#utility.yul\":9344:9383   */\n      tag_176\n      jump\t// in\n    tag_287:\n        /* \"#utility.yul\":9405:9496   */\n      tag_288\n        /* \"#utility.yul\":9454:9495   */\n      tag_289\n        /* \"#utility.yul\":9478:9494   */\n      dup3\n        /* \"#utility.yul\":9454:9495   */\n      tag_177\n      jump\t// in\n    tag_289:\n        /* \"#utility.yul\":9446:9452   */\n      dup5\n        /* \"#utility.yul\":9439:9443   */\n      dup5\n        /* \"#utility.yul\":9433:9444   */\n      sload\n        /* \"#utility.yul\":9405:9496   */\n      tag_174\n      jump\t// in\n    tag_288:\n        /* \"#utility.yul\":9399:9403   */\n      dup3\n        /* \"#utility.yul\":9392:9497   */\n      sstore\n        /* \"#utility.yul\":9310:9503   */\n      pop\n        /* \"#utility.yul\":9234:9503   */\n      pop\n      pop\n      pop\n      jump\t// out\n        /* \"#utility.yul\":9509:9582   */\n    tag_179:\n        /* \"#utility.yul\":9554:9557   */\n      0x00\n        /* \"#utility.yul\":9509:9582   */\n      swap1\n      jump\t// out\n        /* \"#utility.yul\":9588:9777   */\n    tag_180:\n        /* \"#utility.yul\":9665:9697   */\n      tag_292\n      tag_179\n      jump\t// in\n    tag_292:\n        /* \"#utility.yul\":9706:9771   */\n      tag_293\n        /* \"#utility.yul\":9764:9770   */\n      dup2\n        /* \"#utility.yul\":9756:9762   */\n      dup5\n        /* \"#utility.yul\":9750:9754   */\n      dup5\n        /* \"#utility.yul\":9706:9771   */\n      tag_178\n      jump\t// in\n    tag_293:\n        /* \"#utility.yul\":9641:9777   */\n      pop\n        /* \"#utility.yul\":9588:9777   */\n      pop\n      pop\n      jump\t// out\n        /* \"#utility.yul\":9783:9969   */\n    tag_181:\n        /* \"#utility.yul\":9843:9963   */\n    tag_295:\n        /* \"#utility.yul\":9860:9863   */\n      dup2\n        /* \"#utility.yul\":9853:9858   */\n      dup2\n        /* \"#utility.yul\":9850:9864   */\n      lt\n        /* \"#utility.yul\":9843:9963   */\n      iszero\n      tag_297\n      jumpi\n        /* \"#utility.yul\":9914:9953   */\n      tag_298\n        /* \"#utility.yul\":9951:9952   */\n      0x00\n        /* \"#utility.yul\":9944:9949   */\n      dup3\n        /* \"#utility.yul\":9914:9953   */\n      tag_180\n      jump\t// in\n    tag_298:\n        /* \"#utility.yul\":9887:9888   */\n      0x01\n        /* \"#utility.yul\":9880:9885   */\n      dup2\n        /* \"#utility.yul\":9876:9889   */\n      add\n        /* \"#utility.yul\":9867:9889   */\n      swap1\n      pop\n        /* \"#utility.yul\":9843:9963   */\n      jump(tag_295)\n    tag_297:\n        /* \"#utility.yul\":9783:9969   */\n      pop\n      pop\n      jump\t// out\n        /* \"#utility.yul\":9975:10518   */\n    tag_182:\n        /* \"#utility.yul\":10076:10078   */\n      0x1f\n        /* \"#utility.yul\":10071:10074   */\n      dup3\n        /* \"#utility.yul\":10068:10079   */\n      gt\n        /* \"#utility.yul\":10065:10511   */\n      iszero\n      tag_300\n      jumpi\n        /* \"#utility.yul\":10110:10148   */\n      tag_301\n        /* \"#utility.yul\":10142:10147   */\n      dup2\n        /* \"#utility.yul\":10110:10148   */\n      tag_171\n      jump\t// in\n    tag_301:\n        /* \"#utility.yul\":10194:10223   */\n      tag_302\n        /* \"#utility.yul\":10212:10222   */\n      dup5\n        /* \"#utility.yul\":10194:10223   */\n      tag_172\n      jump\t// in\n    tag_302:\n        /* \"#utility.yul\":10184:10192   */\n      dup2\n        /* \"#utility.yul\":10180:10224   */\n      add\n        /* \"#utility.yul\":10377:10379   */\n      0x20\n        /* \"#utility.yul\":10365:10375   */\n      dup6\n        /* \"#utility.yul\":10362:10380   */\n      lt\n        /* \"#utility.yul\":10359:10408   */\n      iszero\n      tag_303\n      jumpi\n        /* \"#utility.yul\":10398:10406   */\n      dup2\n        /* \"#utility.yul\":10383:10406   */\n      swap1\n      pop\n        /* \"#utility.yul\":10359:10408   */\n    tag_303:\n        /* \"#utility.yul\":10421:10501   */\n      tag_304\n        /* \"#utility.yul\":10477:10499   */\n      tag_305\n        /* \"#utility.yul\":10495:10498   */\n      dup6\n        /* \"#utility.yul\":10477:10499   */\n      tag_172\n      jump\t// in\n    tag_305:\n        /* \"#utility.yul\":10467:10475   */\n      dup4\n        /* \"#utility.yul\":10463:10500   */\n      add\n        /* \"#utility.yul\":10450:10461   */\n      dup3\n        /* \"#utility.yul\":10421:10501   */\n      tag_181\n      jump\t// in\n    tag_304:\n        /* \"#utility.yul\":10080:10511   */\n      pop\n      pop\n        /* \"#utility.yul\":10065:10511   */\n    tag_300:\n        /* \"#utility.yul\":9975:10518   */\n      pop\n      pop\n      pop\n      jump\t// out\n        /* \"#utility.yul\":10524:10641   */\n    tag_183:\n        /* \"#utility.yul\":10578:10586   */\n      0x00\n        /* \"#utility.yul\":10628:10633   */\n      dup3\n        /* \"#utility.yul\":10622:10626   */\n      dup3\n        /* \"#utility.yul\":10618:10634   */\n      shr\n        /* \"#utility.yul\":10597:10634   */\n      swap1\n      pop\n        /* \"#utility.yul\":10524:10641   */\n      swap3\n      swap2\n      pop\n      pop\n      jump\t// out\n        /* \"#utility.yul\":10647:10816   */\n    tag_184:\n        /* \"#utility.yul\":10691:10697   */\n      0x00\n        /* \"#utility.yul\":10724:10775   */\n      tag_308\n        /* \"#utility.yul\":10772:10773   */\n      0x00\n        /* \"#utility.yul\":10768:10774   */\n      not\n        /* \"#utility.yul\":10760:10765   */\n      dup5\n        /* \"#utility.yul\":10757:10758   */\n      0x08\n        /* \"#utility.yul\":10753:10766   */\n      mul\n        /* \"#utility.yul\":10724:10775   */\n      tag_183\n      jump\t// in\n    tag_308:\n        /* \"#utility.yul\":10720:10776   */\n      not\n        /* \"#utility.yul\":10805:10809   */\n      dup1\n        /* \"#utility.yul\":10799:10803   */\n      dup4\n        /* \"#utility.yul\":10795:10810   */\n      and\n        /* \"#utility.yul\":10785:10810   */\n      swap2\n      pop\n        /* \"#utility.yul\":10698:10816   */\n      pop\n        /* \"#utility.yul\":10647:10816   */\n      swap3\n      swap2\n      pop\n      pop\n      jump\t// out\n        /* \"#utility.yul\":10821:11116   */\n    tag_185:\n        /* \"#utility.yul\":10897:10901   */\n      0x00\n        /* \"#utility.yul\":11043:11072   */\n      tag_310\n        /* \"#utility.yul\":11068:11071   */\n      dup4\n        /* \"#utility.yul\":11062:11066   */\n      dup4\n        /* \"#utility.yul\":11043:11072   */\n      tag_184\n      jump\t// in\n    tag_310:\n        /* \"#utility.yul\":11035:11072   */\n      swap2\n      pop\n        /* \"#utility.yul\":11105:11108   */\n      dup3\n        /* \"#utility.yul\":11102:11103   */\n      0x02\n        /* \"#utility.yul\":11098:11109   */\n      mul\n        /* \"#utility.yul\":11092:11096   */\n      dup3\n        /* \"#utility.yul\":11089:11110   */\n      or\n        /* \"#utility.yul\":11081:11110   */\n      swap1\n      pop\n        /* \"#utility.yul\":10821:11116   */\n      swap3\n      swap2\n      pop\n      pop\n      jump\t// out\n        /* \"#utility.yul\":11121:12516   */\n    tag_44:\n        /* \"#utility.yul\":11238:11275   */\n      tag_312\n        /* \"#utility.yul\":11271:11274   */\n      dup3\n        /* \"#utility.yul\":11238:11275   */\n      tag_143\n      jump\t// in\n    tag_312:\n        /* \"#utility.yul\":11340:11358   */\n      0xffffffffffffffff\n        /* \"#utility.yul\":11332:11338   */\n      dup2\n        /* \"#utility.yul\":11329:11359   */\n      gt\n        /* \"#utility.yul\":11326:11382   */\n      iszero\n      tag_313\n      jumpi\n        /* \"#utility.yul\":11362:11380   */\n      tag_314\n      tag_94\n      jump\t// in\n    tag_314:\n        /* \"#utility.yul\":11326:11382   */\n    tag_313:\n        /* \"#utility.yul\":11406:11444   */\n      tag_315\n        /* \"#utility.yul\":11438:11442   */\n      dup3\n        /* \"#utility.yul\":11432:11443   */\n      sload\n        /* \"#utility.yul\":11406:11444   */\n      tag_35\n      jump\t// in\n    tag_315:\n        /* \"#utility.yul\":11491:11558   */\n      tag_316\n        /* \"#utility.yul\":11551:11557   */\n      dup3\n        /* \"#utility.yul\":11543:11549   */\n      dup3\n        /* \"#utility.yul\":11537:11541   */\n      dup6\n        /* \"#utility.yul\":11491:11558   */\n      tag_182\n      jump\t// in\n    tag_316:\n        /* \"#utility.yul\":11585:11586   */\n      0x00\n        /* \"#utility.yul\":11609:11613   */\n      0x20\n        /* \"#utility.yul\":11596:11613   */\n      swap1\n      pop\n        /* \"#utility.yul\":11641:11643   */\n      0x1f\n        /* \"#utility.yul\":11633:11639   */\n      dup4\n        /* \"#utility.yul\":11630:11644   */\n      gt\n        /* \"#utility.yul\":11658:11659   */\n      0x01\n        /* \"#utility.yul\":11653:12271   */\n      dup2\n      eq\n      tag_318\n      jumpi\n        /* \"#utility.yul\":12315:12316   */\n      0x00\n        /* \"#utility.yul\":12332:12338   */\n      dup5\n        /* \"#utility.yul\":12329:12406   */\n      iszero\n      tag_319\n      jumpi\n        /* \"#utility.yul\":12381:12390   */\n      dup3\n        /* \"#utility.yul\":12376:12379   */\n      dup8\n        /* \"#utility.yul\":12372:12391   */\n      add\n        /* \"#utility.yul\":12366:12392   */\n      mload\n        /* \"#utility.yul\":12357:12392   */\n      swap1\n      pop\n        /* \"#utility.yul\":12329:12406   */\n    tag_319:\n        /* \"#utility.yul\":12432:12499   */\n      tag_320\n        /* \"#utility.yul\":12492:12498   */\n      dup6\n        /* \"#utility.yul\":12485:12490   */\n      dup3\n        /* \"#utility.yul\":12432:12499   */\n      tag_185\n      jump\t// in\n    tag_320:\n        /* \"#utility.yul\":12426:12430   */\n      dup7\n        /* \"#utility.yul\":12419:12500   */\n      sstore\n        /* \"#utility.yul\":12288:12510   */\n      pop\n        /* \"#utility.yul\":11623:12510   */\n      jump(tag_317)\n        /* \"#utility.yul\":11653:12271   */\n    tag_318:\n        /* \"#utility.yul\":11705:11709   */\n      0x1f\n        /* \"#utility.yul\":11701:11710   */\n      not\n        /* \"#utility.yul\":11693:11699   */\n      dup5\n        /* \"#utility.yul\":11689:11711   */\n      and\n        /* \"#utility.yul\":11739:11776   */\n      tag_321\n        /* \"#utility.yul\":11771:11775   */\n      dup7\n        /* \"#utility.yul\":11739:11776   */\n      tag_171\n      jump\t// in\n    tag_321:\n        /* \"#utility.yul\":11798:11799   */\n      0x00\n        /* \"#utility.yul\":11812:12020   */\n    tag_322:\n        /* \"#utility.yul\":11826:11833   */\n      dup3\n        /* \"#utility.yul\":11823:11824   */\n      dup2\n        /* \"#utility.yul\":11820:11834   */\n      lt\n        /* \"#utility.yul\":11812:12020   */\n      iszero\n      tag_324\n      jumpi\n        /* \"#utility.yul\":11905:11914   */\n      dup5\n        /* \"#utility.yul\":11900:11903   */\n      dup10\n        /* \"#utility.yul\":11896:11915   */\n      add\n        /* \"#utility.yul\":11890:11916   */\n      mload\n        /* \"#utility.yul\":11882:11888   */\n      dup3\n        /* \"#utility.yul\":11875:11917   */\n      sstore\n        /* \"#utility.yul\":11956:11957   */\n      0x01\n        /* \"#utility.yul\":11948:11954   */\n      dup3\n        /* \"#utility.yul\":11944:11958   */\n      add\n        /* \"#utility.yul\":11934:11958   */\n      swap2\n      pop\n        /* \"#utility.yul\":12003:12005   */\n      0x20\n        /* \"#utility.yul\":11992:12001   */\n      dup6\n        /* \"#utility.yul\":11988:12006   */\n      add\n        /* \"#utility.yul\":11975:12006   */\n      swap5\n      pop\n        /* \"#utility.yul\":11849:11853   */\n      0x20\n        /* \"#utility.yul\":11846:11847   */\n      dup2\n        /* \"#utility.yul\":11842:11854   */\n      add\n        /* \"#utility.yul\":11837:11854   */\n      swap1\n      pop\n        /* \"#utility.yul\":11812:12020   */\n      jump(tag_322)\n    tag_324:\n        /* \"#utility.yul\":12048:12054   */\n      dup7\n        /* \"#utility.yul\":12039:12046   */\n      dup4\n        /* \"#utility.yul\":12036:12055   */\n      lt\n        /* \"#utility.yul\":12033:12212   */\n      iszero\n      tag_325\n      jumpi\n        /* \"#utility.yul\":12106:12115   */\n      dup5\n        /* \"#utility.yul\":12101:12104   */\n      dup10\n        /* \"#utility.yul\":12097:12116   */\n      add\n        /* \"#utility.yul\":12091:12117   */\n      mload\n        /* \"#utility.yul\":12149:12197   */\n      tag_326\n        /* \"#utility.yul\":12191:12195   */\n      0x1f\n        /* \"#utility.yul\":12183:12189   */\n      dup10\n        /* \"#utility.yul\":12179:12196   */\n      and\n        /* \"#utility.yul\":12168:12177   */\n      dup3\n        /* \"#utility.yul\":12149:12197   */\n      tag_184\n      jump\t// in\n    tag_326:\n        /* \"#utility.yul\":12141:12147   */\n      dup4\n        /* \"#utility.yul\":12134:12198   */\n      sstore\n        /* \"#utility.yul\":12056:12212   */\n      pop\n        /* \"#utility.yul\":12033:12212   */\n    tag_325:\n        /* \"#utility.yul\":12258:12259   */\n      0x01\n        /* \"#utility.yul\":12254:12255   */\n      0x02\n        /* \"#utility.yul\":12246:12252   */\n      dup9\n        /* \"#utility.yul\":12242:12256   */\n      mul\n        /* \"#utility.yul\":12238:12260   */\n      add\n        /* \"#utility.yul\":12232:12236   */\n      dup9\n        /* \"#utility.yul\":12225:12261   */\n      sstore\n        /* \"#utility.yul\":11660:12271   */\n      pop\n      pop\n      pop\n        /* \"#utility.yul\":11623:12510   */\n    tag_317:\n      pop\n        /* \"#utility.yul\":11213:12516   */\n      pop\n      pop\n      pop\n        /* \"#utility.yul\":11121:12516   */\n      pop\n      pop\n      jump\t// out\n        /* \"#utility.yul\":12522:12702   */\n    tag_80:\n        /* \"#utility.yul\":12570:12647   */\n      0x4e487b7100000000000000000000000000000000000000000000000000000000\n        /* \"#utility.yul\":12567:12568   */\n      0x00\n        /* \"#utility.yul\":12560:12648   */\n      mstore\n        /* \"#utility.yul\":12667:12671   */\n      0x32\n        /* \"#utility.yul\":12664:12665   */\n      0x04\n        /* \"#utility.yul\":12657:12672   */\n      mstore\n        /* \"#utility.yul\":12691:12695   */\n      0x24\n        /* \"#utility.yul\":12688:12689   */\n      0x00\n        /* \"#utility.yul\":12681:12696   */\n      revert\n        /* \"#utility.yul\":12708:12856   */\n    tag_186:\n        /* \"#utility.yul\":12810:12821   */\n      0x00\n        /* \"#utility.yul\":12847:12850   */\n      dup2\n        /* \"#utility.yul\":12832:12850   */\n      swap1\n      pop\n        /* \"#utility.yul\":12708:12856   */\n      swap3\n      swap2\n      pop\n      pop\n      jump\t// out\n        /* \"#utility.yul\":12862:13252   */\n    tag_187:\n        /* \"#utility.yul\":12968:12971   */\n      0x00\n        /* \"#utility.yul\":12996:13035   */\n      tag_330\n        /* \"#utility.yul\":13029:13034   */\n      dup3\n        /* \"#utility.yul\":12996:13035   */\n      tag_143\n      jump\t// in\n    tag_330:\n        /* \"#utility.yul\":13051:13140   */\n      tag_331\n        /* \"#utility.yul\":13133:13139   */\n      dup2\n        /* \"#utility.yul\":13128:13131   */\n      dup6\n        /* \"#utility.yul\":13051:13140   */\n      tag_186\n      jump\t// in\n    tag_331:\n        /* \"#utility.yul\":13044:13140   */\n      swap4\n      pop\n        /* \"#utility.yul\":13149:13214   */\n      tag_332\n        /* \"#utility.yul\":13207:13213   */\n      dup2\n        /* \"#utility.yul\":13202:13205   */\n      dup6\n        /* \"#utility.yul\":13195:13199   */\n      0x20\n        /* \"#utility.yul\":13188:13193   */\n      dup7\n        /* \"#utility.yul\":13184:13200   */\n      add\n        /* \"#utility.yul\":13149:13214   */\n      tag_145\n      jump\t// in\n    tag_332:\n        /* \"#utility.yul\":13239:13245   */\n      dup1\n        /* \"#utility.yul\":13234:13237   */\n      dup5\n        /* \"#utility.yul\":13230:13246   */\n      add\n        /* \"#utility.yul\":13223:13246   */\n      swap2\n      pop\n        /* \"#utility.yul\":12972:13252   */\n      pop\n        /* \"#utility.yul\":12862:13252   */\n      swap3\n      swap2\n      pop\n      pop\n      jump\t// out\n        /* \"#utility.yul\":13258:13693   */\n    tag_82:\n        /* \"#utility.yul\":13438:13441   */\n      0x00\n        /* \"#utility.yul\":13460:13555   */\n      tag_334\n        /* \"#utility.yul\":13551:13554   */\n      dup3\n        /* \"#utility.yul\":13542:13548   */\n      dup6\n        /* \"#utility.yul\":13460:13555   */\n      tag_187\n      jump\t// in\n    tag_334:\n        /* \"#utility.yul\":13453:13555   */\n      swap2\n      pop\n        /* \"#utility.yul\":13572:13667   */\n      tag_335\n        /* \"#utility.yul\":13663:13666   */\n      dup3\n        /* \"#utility.yul\":13654:13660   */\n      dup5\n        /* \"#utility.yul\":13572:13667   */\n      tag_187\n      jump\t// in\n    tag_335:\n        /* \"#utility.yul\":13565:13667   */\n      swap2\n      pop\n        /* \"#utility.yul\":13684:13687   */\n      dup2\n        /* \"#utility.yul\":13677:13687   */\n      swap1\n      pop\n        /* \"#utility.yul\":13258:13693   */\n      swap4\n      swap3\n      pop\n      pop\n      pop\n      jump\t// out\n        /* \"#utility.yul\":13699:13879   */\n    tag_188:\n        /* \"#utility.yul\":13747:13824   */\n      0x4e487b7100000000000000000000000000000000000000000000000000000000\n        /* \"#utility.yul\":13744:13745   */\n      0x00\n        /* \"#utility.yul\":13737:13825   */\n      mstore\n        /* \"#utility.yul\":13844:13848   */\n      0x11\n        /* \"#utility.yul\":13841:13842   */\n      0x04\n        /* \"#utility.yul\":13834:13849   */\n      mstore\n        /* \"#utility.yul\":13868:13872   */\n      0x24\n        /* \"#utility.yul\":13865:13866   */\n      0x00\n        /* \"#utility.yul\":13858:13873   */\n      revert\n        /* \"#utility.yul\":13885:14118   */\n    tag_91:\n        /* \"#utility.yul\":13924:13927   */\n      0x00\n        /* \"#utility.yul\":13947:13971   */\n      tag_338\n        /* \"#utility.yul\":13965:13970   */\n      dup3\n        /* \"#utility.yul\":13947:13971   */\n      tag_159\n      jump\t// in\n    tag_338:\n        /* \"#utility.yul\":13938:13971   */\n      swap2\n      pop\n        /* \"#utility.yul\":13993:14059   */\n      0xffffffffffffffffffffffffffffffffffffffffffffffffffffffffffffffff\n        /* \"#utility.yul\":13986:13991   */\n      dup3\n        /* \"#utility.yul\":13983:14060   */\n      sub\n        /* \"#utility.yul\":13980:14083   */\n      tag_339\n      jumpi\n        /* \"#utility.yul\":14063:14081   */\n      tag_340\n      tag_188\n      jump\t// in\n    tag_340:\n        /* \"#utility.yul\":13980:14083   */\n    tag_339:\n        /* \"#utility.yul\":14110:14111   */\n      0x01\n        /* \"#utility.yul\":14103:14108   */\n      dup3\n        /* \"#utility.yul\":14099:14112   */\n      add\n        /* \"#utility.yul\":14092:14112   */\n      swap1\n      pop\n        /* \"#utility.yul\":13885:14118   */\n      swap2\n      swap1\n      pop\n      jump\t// out\n        /* \"#utility.yul\":14124:14210   */\n    tag_189:\n        /* \"#utility.yul\":14159:14166   */\n      0x00\n        /* \"#utility.yul\":14199:14203   */\n      0xff\n        /* \"#utility.yul\":14192:14197   */\n      dup3\n        /* \"#utility.yul\":14188:14204   */\n      and\n        /* \"#utility.yul\":14177:14204   */\n      swap1\n      pop\n        /* \"#utility.yul\":14124:14210   */\n      swap2\n      swap1\n      pop\n      jump\t// out\n        /* \"#utility.yul\":14216:14407   */\n    tag_133:\n        /* \"#utility.yul\":14254:14258   */\n      0x00\n        /* \"#utility.yul\":14274:14292   */\n      tag_343\n        /* \"#utility.yul\":14290:14291   */\n      dup3\n        /* \"#utility.yul\":14274:14292   */\n      tag_189\n      jump\t// in\n    tag_343:\n        /* \"#utility.yul\":14269:14292   */\n      swap2\n      pop\n        /* \"#utility.yul\":14306:14324   */\n      tag_344\n        /* \"#utility.yul\":14322:14323   */\n      dup4\n        /* \"#utility.yul\":14306:14324   */\n      tag_189\n      jump\t// in\n    tag_344:\n        /* \"#utility.yul\":14301:14324   */\n      swap3\n      pop\n        /* \"#utility.yul\":14348:14349   */\n      dup3\n        /* \"#utility.yul\":14345:14346   */\n      dup3\n        /* \"#utility.yul\":14341:14350   */\n      sub\n        /* \"#utility.yul\":14333:14350   */\n      swap1\n      pop\n        /* \"#utility.yul\":14372:14376   */\n      0xff\n        /* \"#utility.yul\":14366:14370   */\n      dup2\n        /* \"#utility.yul\":14363:14377   */\n      gt\n        /* \"#utility.yul\":14360:14400   */\n      iszero\n      tag_345\n      jumpi\n        /* \"#utility.yul\":14380:14398   */\n      tag_346\n      tag_188\n      jump\t// in\n    tag_346:\n        /* \"#utility.yul\":14360:14400   */\n    tag_345:\n        /* \"#utility.yul\":14216:14407   */\n      swap3\n      swap2\n      pop\n      pop\n      jump\t// out\n\n    auxdata: 0xa26469706673582212208c7978ea9e42358742d533ac7b7fc4a694209b4622927065413f20e684e89ad264736f6c634300081a0033\n}\n",
				"bytecode": {
					"linkReferences": {},
					"object": "6080604052348015600e575f80fd5b5061108d8061001c5f395ff3fe608060405234801561000f575f80fd5b5060043610610055575f3560e01c80633f075d83146100595780639874f5d714610077578063ad3c83ea14610093578063bca59fda146100c3578063f0ba8440146100e1575b5f80fd5b610061610111565b60405161006e919061092b565b60405180910390f35b610091600480360381019061008c9190610a88565b6101ec565b005b6100ad60048036038101906100a89190610b02565b610220565b6040516100ba9190610c30565b60405180910390f35b6100cb610307565b6040516100d89190610c30565b60405180910390f35b6100fb60048036038101906100f69190610b02565b6103e2565b604051610108919061092b565b60405180910390f35b60606101e75f805480602002602001604051908101604052809291908181526020015f905b828210156101de578382905f5260205f2001805461015390610c7d565b80601f016020809104026020016040519081016040528092919081815260200182805461017f90610c7d565b80156101ca5780601f106101a1576101008083540402835291602001916101ca565b820191905f5260205f20905b8154815290600101906020018083116101ad57829003601f168201915b505050505081526020019060010190610136565b50505050610487565b905090565b5f81908060018154018082558091505060019003905f5260205f20015f90919091909150908161021c9190610e4a565b5050565b6060610300825f805480602002602001604051908101604052809291908181526020015f905b828210156102ee578382905f5260205f2001805461026390610c7d565b80601f016020809104026020016040519081016040528092919081815260200182805461028f90610c7d565b80156102da5780601f106102b1576101008083540402835291602001916102da565b820191905f5260205f20905b8154815290600101906020018083116102bd57829003601f168201915b505050505081526020019060010190610246565b505050506104fb90919063ffffffff16565b9050919050565b60606103dd5f805480602002602001604051908101604052809291908181526020015f905b828210156103d4578382905f5260205f2001805461034990610c7d565b80601f016020809104026020016040519081016040528092919081815260200182805461037590610c7d565b80156103c05780601f10610397576101008083540402835291602001916103c0565b820191905f5260205f20905b8154815290600101906020018083116103a357829003601f168201915b50505050508152602001906001019061032c565b5050505061062b565b905090565b5f81815481106103f0575f80fd5b905f5260205f20015f91509050805461040890610c7d565b80601f016020809104026020016040519081016040528092919081815260200182805461043490610c7d565b801561047f5780601f106104565761010080835404028352916020019161047f565b820191905f5260205f20905b81548152906001019060200180831161046257829003601f168201915b505050505081565b60605f60405180602001604052805f81525090505f5b83518110156104f157818482815181106104ba576104b9610f19565b5b60200260200101516040516020016104d3929190610f80565b6040516020818303038152906040529150808060010191505061049d565b5080915050919050565b60605f805b8451811015610548578385828151811061051d5761051c610f19565b5b602002602001015151111561053b57818061053790610fd0565b9250505b8080600101915050610500565b505f8167ffffffffffffffff81111561056457610563610964565b5b60405190808252806020026020018201604052801561059757816020015b60608152602001906001900390816105825790505b5090505f805b865181101561061e57858782815181106105ba576105b9610f19565b5b6020026020010151511115610611578681815181106105dc576105db610f19565b5b60200260200101518383815181106105f7576105f6610f19565b5b6020026020010181905250818061060d90610fd0565b9250505b808060010191505061059d565b5081935050505092915050565b60605f825167ffffffffffffffff81111561064957610648610964565b5b60405190808252806020026020018201604052801561067c57816020015b60608152602001906001900390816106675790505b5090505f5b83518110156108b1575f84828151811061069e5761069d610f19565b5b602002602001015190505f815167ffffffffffffffff8111156106c4576106c3610964565b5b6040519080825280601f01601f1916602001820160405280156106f65781602001600182028036833780820191505090505b5090505f5b825181101561088257606160f81b83828151811061071c5761071b610f19565b5b602001015160f81c60f81b7effffffffffffffffffffffffffffffffffffffffffffffffffffffffffffff19161015801561079a5750607a60f81b83828151811061076a57610769610f19565b5b602001015160f81c60f81b7effffffffffffffffffffffffffffffffffffffffffffffffffffffffffffff191611155b156108155760208382815181106107b4576107b3610f19565b5b602001015160f81c60f81b60f81c6107cc9190611023565b60f81b8282815181106107e2576107e1610f19565b5b60200101907effffffffffffffffffffffffffffffffffffffffffffffffffffffffffffff191690815f1a905350610875565b82818151811061082857610827610f19565b5b602001015160f81c60f81b82828151811061084657610845610f19565b5b60200101907effffffffffffffffffffffffffffffffffffffffffffffffffffffffffffff191690815f1a9053505b80806001019150506106fb565b508084848151811061089757610896610f19565b5b602002602001018190525050508080600101915050610681565b5080915050919050565b5f81519050919050565b5f82825260208201905092915050565b8281835e5f83830152505050565b5f601f19601f8301169050919050565b5f6108fd826108bb565b61090781856108c5565b93506109178185602086016108d5565b610920816108e3565b840191505092915050565b5f6020820190508181035f83015261094381846108f3565b905092915050565b5f604051905090565b5f80fd5b5f80fd5b5f80fd5b5f80fd5b7f4e487b71000000000000000000000000000000000000000000000000000000005f52604160045260245ffd5b61099a826108e3565b810181811067ffffffffffffffff821117156109b9576109b8610964565b5b80604052505050565b5f6109cb61094b565b90506109d78282610991565b919050565b5f67ffffffffffffffff8211156109f6576109f5610964565b5b6109ff826108e3565b9050602081019050919050565b828183375f83830152505050565b5f610a2c610a27846109dc565b6109c2565b905082815260208101848484011115610a4857610a47610960565b5b610a53848285610a0c565b509392505050565b5f82601f830112610a6f57610a6e61095c565b5b8135610a7f848260208601610a1a565b91505092915050565b5f60208284031215610a9d57610a9c610954565b5b5f82013567ffffffffffffffff811115610aba57610ab9610958565b5b610ac684828501610a5b565b91505092915050565b5f819050919050565b610ae181610acf565b8114610aeb575f80fd5b50565b5f81359050610afc81610ad8565b92915050565b5f60208284031215610b1757610b16610954565b5b5f610b2484828501610aee565b91505092915050565b5f81519050919050565b5f82825260208201905092915050565b5f819050602082019050919050565b5f82825260208201905092915050565b5f610b70826108bb565b610b7a8185610b56565b9350610b8a8185602086016108d5565b610b93816108e3565b840191505092915050565b5f610ba98383610b66565b905092915050565b5f602082019050919050565b5f610bc782610b2d565b610bd18185610b37565b935083602082028501610be385610b47565b805f5b85811015610c1e5784840389528151610bff8582610b9e565b9450610c0a83610bb1565b925060208a01995050600181019050610be6565b50829750879550505050505092915050565b5f6020820190508181035f830152610c488184610bbd565b905092915050565b7f4e487b71000000000000000000000000000000000000000000000000000000005f52602260045260245ffd5b5f6002820490506001821680610c9457607f821691505b602082108103610ca757610ca6610c50565b5b50919050565b5f819050815f5260205f209050919050565b5f6020601f8301049050919050565b5f82821b905092915050565b5f60088302610d097fffffffffffffffffffffffffffffffffffffffffffffffffffffffffffffffff82610cce565b610d138683610cce565b95508019841693508086168417925050509392505050565b5f819050919050565b5f610d4e610d49610d4484610acf565b610d2b565b610acf565b9050919050565b5f819050919050565b610d6783610d34565b610d7b610d7382610d55565b848454610cda565b825550505050565b5f90565b610d8f610d83565b610d9a818484610d5e565b505050565b5b81811015610dbd57610db25f82610d87565b600181019050610da0565b5050565b601f821115610e0257610dd381610cad565b610ddc84610cbf565b81016020851015610deb578190505b610dff610df785610cbf565b830182610d9f565b50505b505050565b5f82821c905092915050565b5f610e225f1984600802610e07565b1980831691505092915050565b5f610e3a8383610e13565b9150826002028217905092915050565b610e53826108bb565b67ffffffffffffffff811115610e6c57610e6b610964565b5b610e768254610c7d565b610e81828285610dc1565b5f60209050601f831160018114610eb2575f8415610ea0578287015190505b610eaa8582610e2f565b865550610f11565b601f198416610ec086610cad565b5f5b82811015610ee757848901518255600182019150602085019450602081019050610ec2565b86831015610f045784890151610f00601f891682610e13565b8355505b6001600288020188555050505b505050505050565b7f4e487b71000000000000000000000000000000000000000000000000000000005f52603260045260245ffd5b5f81905092915050565b5f610f5a826108bb565b610f648185610f46565b9350610f748185602086016108d5565b80840191505092915050565b5f610f8b8285610f50565b9150610f978284610f50565b91508190509392505050565b7f4e487b71000000000000000000000000000000000000000000000000000000005f52601160045260245ffd5b5f610fda82610acf565b91507fffffffffffffffffffffffffffffffffffffffffffffffffffffffffffffffff820361100c5761100b610fa3565b5b600182019050919050565b5f60ff82169050919050565b5f61102d82611017565b915061103883611017565b9250828203905060ff81111561105157611050610fa3565b5b9291505056fea26469706673582212208c7978ea9e42358742d533ac7b7fc4a694209b4622927065413f20e684e89ad264736f6c634300081a0033",
					"opcodes": "PUSH1 0x80 PUSH1 0x40 MSTORE CALLVALUE DUP1 ISZERO PUSH1 0xE JUMPI PUSH0 DUP1 REVERT JUMPDEST POP PUSH2 0x108D DUP1 PUSH2 0x1C PUSH0 CODECOPY PUSH0 RETURN INVALID PUSH1 0x80 PUSH1 0x40 MSTORE CALLVALUE DUP1 ISZERO PUSH2 0xF JUMPI PUSH0 DUP1 REVERT JUMPDEST POP PUSH1 0x4 CALLDATASIZE LT PUSH2 0x55 JUMPI PUSH0 CALLDATALOAD PUSH1 0xE0 SHR DUP1 PUSH4 0x3F075D83 EQ PUSH2 0x59 JUMPI DUP1 PUSH4 0x9874F5D7 EQ PUSH2 0x77 JUMPI DUP1 PUSH4 0xAD3C83EA EQ PUSH2 0x93 JUMPI DUP1 PUSH4 0xBCA59FDA EQ PUSH2 0xC3 JUMPI DUP1 PUSH4 0xF0BA8440 EQ PUSH2 0xE1 JUMPI JUMPDEST PUSH0 DUP1 REVERT JUMPDEST PUSH2 0x61 PUSH2 0x111 JUMP JUMPDEST PUSH1 0x40 MLOAD PUSH2 0x6E SWAP2 SWAP1 PUSH2 0x92B JUMP JUMPDEST PUSH1 0x40 MLOAD DUP1 SWAP2 SUB SWAP1 RETURN JUMPDEST PUSH2 0x91 PUSH1 0x4 DUP1 CALLDATASIZE SUB DUP2 ADD SWAP1 PUSH2 0x8C SWAP2 SWAP1 PUSH2 0xA88 JUMP JUMPDEST PUSH2 0x1EC JUMP JUMPDEST STOP JUMPDEST PUSH2 0xAD PUSH1 0x4 DUP1 CALLDATASIZE SUB DUP2 ADD SWAP1 PUSH2 0xA8 SWAP2 SWAP1 PUSH2 0xB02 JUMP JUMPDEST PUSH2 0x220 JUMP JUMPDEST PUSH1 0x40 MLOAD PUSH2 0xBA SWAP2 SWAP1 PUSH2 0xC30 JUMP JUMPDEST PUSH1 0x40 MLOAD DUP1 SWAP2 SUB SWAP1 RETURN JUMPDEST PUSH2 0xCB PUSH2 0x307 JUMP JUMPDEST PUSH1 0x40 MLOAD PUSH2 0xD8 SWAP2 SWAP1 PUSH2 0xC30 JUMP JUMPDEST PUSH1 0x40 MLOAD DUP1 SWAP2 SUB SWAP1 RETURN JUMPDEST PUSH2 0xFB PUSH1 0x4 DUP1 CALLDATASIZE SUB DUP2 ADD SWAP1 PUSH2 0xF6 SWAP2 SWAP1 PUSH2 0xB02 JUMP JUMPDEST PUSH2 0x3E2 JUMP JUMPDEST PUSH1 0x40 MLOAD PUSH2 0x108 SWAP2 SWAP1 PUSH2 0x92B JUMP JUMPDEST PUSH1 0x40 MLOAD DUP1 SWAP2 SUB SWAP1 RETURN JUMPDEST PUSH1 0x60 PUSH2 0x1E7 PUSH0 DUP1 SLOAD DUP1 PUSH1 0x20 MUL PUSH1 0x20 ADD PUSH1 0x40 MLOAD SWAP1 DUP2 ADD PUSH1 0x40 MSTORE DUP1 SWAP3 SWAP2 SWAP1 DUP2 DUP2 MSTORE PUSH1 0x20 ADD PUSH0 SWAP1 JUMPDEST DUP3 DUP3 LT ISZERO PUSH2 0x1DE JUMPI DUP4 DUP3 SWAP1 PUSH0 MSTORE PUSH1 0x20 PUSH0 KECCAK256 ADD DUP1 SLOAD PUSH2 0x153 SWAP1 PUSH2 0xC7D JUMP JUMPDEST DUP1 PUSH1 0x1F ADD PUSH1 0x20 DUP1 SWAP2 DIV MUL PUSH1 0x20 ADD PUSH1 0x40 MLOAD SWAP1 DUP2 ADD PUSH1 0x40 MSTORE DUP1 SWAP3 SWAP2 SWAP1 DUP2 DUP2 MSTORE PUSH1 0x20 ADD DUP3 DUP1 SLOAD PUSH2 0x17F SWAP1 PUSH2 0xC7D JUMP JUMPDEST DUP1 ISZERO PUSH2 0x1CA JUMPI DUP1 PUSH1 0x1F LT PUSH2 0x1A1 JUMPI PUSH2 0x100 DUP1 DUP4 SLOAD DIV MUL DUP4 MSTORE SWAP2 PUSH1 0x20 ADD SWAP2 PUSH2 0x1CA JUMP JUMPDEST DUP3 ADD SWAP2 SWAP1 PUSH0 MSTORE PUSH1 0x20 PUSH0 KECCAK256 SWAP1 JUMPDEST DUP2 SLOAD DUP2 MSTORE SWAP1 PUSH1 0x1 ADD SWAP1 PUSH1 0x20 ADD DUP1 DUP4 GT PUSH2 0x1AD JUMPI DUP3 SWAP1 SUB PUSH1 0x1F AND DUP3 ADD SWAP2 JUMPDEST POP POP POP POP POP DUP2 MSTORE PUSH1 0x20 ADD SWAP1 PUSH1 0x1 ADD SWAP1 PUSH2 0x136 JUMP JUMPDEST POP POP POP POP PUSH2 0x487 JUMP JUMPDEST SWAP1 POP SWAP1 JUMP JUMPDEST PUSH0 DUP2 SWAP1 DUP1 PUSH1 0x1 DUP2 SLOAD ADD DUP1 DUP3 SSTORE DUP1 SWAP2 POP POP PUSH1 0x1 SWAP1 SUB SWAP1 PUSH0 MSTORE PUSH1 0x20 PUSH0 KECCAK256 ADD PUSH0 SWAP1 SWAP2 SWAP1 SWAP2 SWAP1 SWAP2 POP SWAP1 DUP2 PUSH2 0x21C SWAP2 SWAP1 PUSH2 0xE4A JUMP JUMPDEST POP POP JUMP JUMPDEST PUSH1 0x60 PUSH2 0x300 DUP3 PUSH0 DUP1 SLOAD DUP1 PUSH1 0x20 MUL PUSH1 0x20 ADD PUSH1 0x40 MLOAD SWAP1 DUP2 ADD PUSH1 0x40 MSTORE DUP1 SWAP3 SWAP2 SWAP1 DUP2 DUP2 MSTORE PUSH1 0x20 ADD PUSH0 SWAP1 JUMPDEST DUP3 DUP3 LT ISZERO PUSH2 0x2EE JUMPI DUP4 DUP3 SWAP1 PUSH0 MSTORE PUSH1 0x20 PUSH0 KECCAK256 ADD DUP1 SLOAD PUSH2 0x263 SWAP1 PUSH2 0xC7D JUMP JUMPDEST DUP1 PUSH1 0x1F ADD PUSH1 0x20 DUP1 SWAP2 DIV MUL PUSH1 0x20 ADD PUSH1 0x40 MLOAD SWAP1 DUP2 ADD PUSH1 0x40 MSTORE DUP1 SWAP3 SWAP2 SWAP1 DUP2 DUP2 MSTORE PUSH1 0x20 ADD DUP3 DUP1 SLOAD PUSH2 0x28F SWAP1 PUSH2 0xC7D JUMP JUMPDEST DUP1 ISZERO PUSH2 0x2DA JUMPI DUP1 PUSH1 0x1F LT PUSH2 0x2B1 JUMPI PUSH2 0x100 DUP1 DUP4 SLOAD DIV MUL DUP4 MSTORE SWAP2 PUSH1 0x20 ADD SWAP2 PUSH2 0x2DA JUMP JUMPDEST DUP3 ADD SWAP2 SWAP1 PUSH0 MSTORE PUSH1 0x20 PUSH0 KECCAK256 SWAP1 JUMPDEST DUP2 SLOAD DUP2 MSTORE SWAP1 PUSH1 0x1 ADD SWAP1 PUSH1 0x20 ADD DUP1 DUP4 GT PUSH2 0x2BD JUMPI DUP3 SWAP1 SUB PUSH1 0x1F AND DUP3 ADD SWAP2 JUMPDEST POP POP POP POP POP DUP2 MSTORE PUSH1 0x20 ADD SWAP1 PUSH1 0x1 ADD SWAP1 PUSH2 0x246 JUMP JUMPDEST POP POP POP POP PUSH2 0x4FB SWAP1 SWAP2 SWAP1 PUSH4 0xFFFFFFFF AND JUMP JUMPDEST SWAP1 POP SWAP2 SWAP1 POP JUMP JUMPDEST PUSH1 0x60 PUSH2 0x3DD PUSH0 DUP1 SLOAD DUP1 PUSH1 0x20 MUL PUSH1 0x20 ADD PUSH1 0x40 MLOAD SWAP1 DUP2 ADD PUSH1 0x40 MSTORE DUP1 SWAP3 SWAP2 SWAP1 DUP2 DUP2 MSTORE PUSH1 0x20 ADD PUSH0 SWAP1 JUMPDEST DUP3 DUP3 LT ISZERO PUSH2 0x3D4 JUMPI DUP4 DUP3 SWAP1 PUSH0 MSTORE PUSH1 0x20 PUSH0 KECCAK256 ADD DUP1 SLOAD PUSH2 0x349 SWAP1 PUSH2 0xC7D JUMP JUMPDEST DUP1 PUSH1 0x1F ADD PUSH1 0x20 DUP1 SWAP2 DIV MUL PUSH1 0x20 ADD PUSH1 0x40 MLOAD SWAP1 DUP2 ADD PUSH1 0x40 MSTORE DUP1 SWAP3 SWAP2 SWAP1 DUP2 DUP2 MSTORE PUSH1 0x20 ADD DUP3 DUP1 SLOAD PUSH2 0x375 SWAP1 PUSH2 0xC7D JUMP JUMPDEST DUP1 ISZERO PUSH2 0x3C0 JUMPI DUP1 PUSH1 0x1F LT PUSH2 0x397 JUMPI PUSH2 0x100 DUP1 DUP4 SLOAD DIV MUL DUP4 MSTORE SWAP2 PUSH1 0x20 ADD SWAP2 PUSH2 0x3C0 JUMP JUMPDEST DUP3 ADD SWAP2 SWAP1 PUSH0 MSTORE PUSH1 0x20 PUSH0 KECCAK256 SWAP1 JUMPDEST DUP2 SLOAD DUP2 MSTORE SWAP1 PUSH1 0x1 ADD SWAP1 PUSH1 0x20 ADD DUP1 DUP4 GT PUSH2 0x3A3 JUMPI DUP3 SWAP1 SUB PUSH1 0x1F AND DUP3 ADD SWAP2 JUMPDEST POP POP POP POP POP DUP2 MSTORE PUSH1 0x20 ADD SWAP1 PUSH1 0x1 ADD SWAP1 PUSH2 0x32C JUMP JUMPDEST POP POP POP POP PUSH2 0x62B JUMP JUMPDEST SWAP1 POP SWAP1 JUMP JUMPDEST PUSH0 DUP2 DUP2 SLOAD DUP2 LT PUSH2 0x3F0 JUMPI PUSH0 DUP1 REVERT JUMPDEST SWAP1 PUSH0 MSTORE PUSH1 0x20 PUSH0 KECCAK256 ADD PUSH0 SWAP2 POP SWAP1 POP DUP1 SLOAD PUSH2 0x408 SWAP1 PUSH2 0xC7D JUMP JUMPDEST DUP1 PUSH1 0x1F ADD PUSH1 0x20 DUP1 SWAP2 DIV MUL PUSH1 0x20 ADD PUSH1 0x40 MLOAD SWAP1 DUP2 ADD PUSH1 0x40 MSTORE DUP1 SWAP3 SWAP2 SWAP1 DUP2 DUP2 MSTORE PUSH1 0x20 ADD DUP3 DUP1 SLOAD PUSH2 0x434 SWAP1 PUSH2 0xC7D JUMP JUMPDEST DUP1 ISZERO PUSH2 0x47F JUMPI DUP1 PUSH1 0x1F LT PUSH2 0x456 JUMPI PUSH2 0x100 DUP1 DUP4 SLOAD DIV MUL DUP4 MSTORE SWAP2 PUSH1 0x20 ADD SWAP2 PUSH2 0x47F JUMP JUMPDEST DUP3 ADD SWAP2 SWAP1 PUSH0 MSTORE PUSH1 0x20 PUSH0 KECCAK256 SWAP1 JUMPDEST DUP2 SLOAD DUP2 MSTORE SWAP1 PUSH1 0x1 ADD SWAP1 PUSH1 0x20 ADD DUP1 DUP4 GT PUSH2 0x462 JUMPI DUP3 SWAP1 SUB PUSH1 0x1F AND DUP3 ADD SWAP2 JUMPDEST POP POP POP POP POP DUP2 JUMP JUMPDEST PUSH1 0x60 PUSH0 PUSH1 0x40 MLOAD DUP1 PUSH1 0x20 ADD PUSH1 0x40 MSTORE DUP1 PUSH0 DUP2 MSTORE POP SWAP1 POP PUSH0 JUMPDEST DUP4 MLOAD DUP2 LT ISZERO PUSH2 0x4F1 JUMPI DUP2 DUP5 DUP3 DUP2 MLOAD DUP2 LT PUSH2 0x4BA JUMPI PUSH2 0x4B9 PUSH2 0xF19 JUMP JUMPDEST JUMPDEST PUSH1 0x20 MUL PUSH1 0x20 ADD ADD MLOAD PUSH1 0x40 MLOAD PUSH1 0x20 ADD PUSH2 0x4D3 SWAP3 SWAP2 SWAP1 PUSH2 0xF80 JUMP JUMPDEST PUSH1 0x40 MLOAD PUSH1 0x20 DUP2 DUP4 SUB SUB DUP2 MSTORE SWAP1 PUSH1 0x40 MSTORE SWAP2 POP DUP1 DUP1 PUSH1 0x1 ADD SWAP2 POP POP PUSH2 0x49D JUMP JUMPDEST POP DUP1 SWAP2 POP POP SWAP2 SWAP1 POP JUMP JUMPDEST PUSH1 0x60 PUSH0 DUP1 JUMPDEST DUP5 MLOAD DUP2 LT ISZERO PUSH2 0x548 JUMPI DUP4 DUP6 DUP3 DUP2 MLOAD DUP2 LT PUSH2 0x51D JUMPI PUSH2 0x51C PUSH2 0xF19 JUMP JUMPDEST JUMPDEST PUSH1 0x20 MUL PUSH1 0x20 ADD ADD MLOAD MLOAD GT ISZERO PUSH2 0x53B JUMPI DUP2 DUP1 PUSH2 0x537 SWAP1 PUSH2 0xFD0 JUMP JUMPDEST SWAP3 POP POP JUMPDEST DUP1 DUP1 PUSH1 0x1 ADD SWAP2 POP POP PUSH2 0x500 JUMP JUMPDEST POP PUSH0 DUP2 PUSH8 0xFFFFFFFFFFFFFFFF DUP2 GT ISZERO PUSH2 0x564 JUMPI PUSH2 0x563 PUSH2 0x964 JUMP JUMPDEST JUMPDEST PUSH1 0x40 MLOAD SWAP1 DUP1 DUP3 MSTORE DUP1 PUSH1 0x20 MUL PUSH1 0x20 ADD DUP3 ADD PUSH1 0x40 MSTORE DUP1 ISZERO PUSH2 0x597 JUMPI DUP2 PUSH1 0x20 ADD JUMPDEST PUSH1 0x60 DUP2 MSTORE PUSH1 0x20 ADD SWAP1 PUSH1 0x1 SWAP1 SUB SWAP1 DUP2 PUSH2 0x582 JUMPI SWAP1 POP JUMPDEST POP SWAP1 POP PUSH0 DUP1 JUMPDEST DUP7 MLOAD DUP2 LT ISZERO PUSH2 0x61E JUMPI DUP6 DUP8 DUP3 DUP2 MLOAD DUP2 LT PUSH2 0x5BA JUMPI PUSH2 0x5B9 PUSH2 0xF19 JUMP JUMPDEST JUMPDEST PUSH1 0x20 MUL PUSH1 0x20 ADD ADD MLOAD MLOAD GT ISZERO PUSH2 0x611 JUMPI DUP7 DUP2 DUP2 MLOAD DUP2 LT PUSH2 0x5DC JUMPI PUSH2 0x5DB PUSH2 0xF19 JUMP JUMPDEST JUMPDEST PUSH1 0x20 MUL PUSH1 0x20 ADD ADD MLOAD DUP4 DUP4 DUP2 MLOAD DUP2 LT PUSH2 0x5F7 JUMPI PUSH2 0x5F6 PUSH2 0xF19 JUMP JUMPDEST JUMPDEST PUSH1 0x20 MUL PUSH1 0x20 ADD ADD DUP2 SWAP1 MSTORE POP DUP2 DUP1 PUSH2 0x60D SWAP1 PUSH2 0xFD0 JUMP JUMPDEST SWAP3 POP POP JUMPDEST DUP1 DUP1 PUSH1 0x1 ADD SWAP2 POP POP PUSH2 0x59D JUMP JUMPDEST POP DUP2 SWAP4 POP POP POP POP SWAP3 SWAP2 POP POP JUMP JUMPDEST PUSH1 0x60 PUSH0 DUP3 MLOAD PUSH8 0xFFFFFFFFFFFFFFFF DUP2 GT ISZERO PUSH2 0x649 JUMPI PUSH2 0x648 PUSH2 0x964 JUMP JUMPDEST JUMPDEST PUSH1 0x40 MLOAD SWAP1 DUP1 DUP3 MSTORE DUP1 PUSH1 0x20 MUL PUSH1 0x20 ADD DUP3 ADD PUSH1 0x40 MSTORE DUP1 ISZERO PUSH2 0x67C JUMPI DUP2 PUSH1 0x20 ADD JUMPDEST PUSH1 0x60 DUP2 MSTORE PUSH1 0x20 ADD SWAP1 PUSH1 0x1 SWAP1 SUB SWAP1 DUP2 PUSH2 0x667 JUMPI SWAP1 POP JUMPDEST POP SWAP1 POP PUSH0 JUMPDEST DUP4 MLOAD DUP2 LT ISZERO PUSH2 0x8B1 JUMPI PUSH0 DUP5 DUP3 DUP2 MLOAD DUP2 LT PUSH2 0x69E JUMPI PUSH2 0x69D PUSH2 0xF19 JUMP JUMPDEST JUMPDEST PUSH1 0x20 MUL PUSH1 0x20 ADD ADD MLOAD SWAP1 POP PUSH0 DUP2 MLOAD PUSH8 0xFFFFFFFFFFFFFFFF DUP2 GT ISZERO PUSH2 0x6C4 JUMPI PUSH2 0x6C3 PUSH2 0x964 JUMP JUMPDEST JUMPDEST PUSH1 0x40 MLOAD SWAP1 DUP1 DUP3 MSTORE DUP1 PUSH1 0x1F ADD PUSH1 0x1F NOT AND PUSH1 0x20 ADD DUP3 ADD PUSH1 0x40 MSTORE DUP1 ISZERO PUSH2 0x6F6 JUMPI DUP2 PUSH1 0x20 ADD PUSH1 0x1 DUP3 MUL DUP1 CALLDATASIZE DUP4 CALLDATACOPY DUP1 DUP3 ADD SWAP2 POP POP SWAP1 POP JUMPDEST POP SWAP1 POP PUSH0 JUMPDEST DUP3 MLOAD DUP2 LT ISZERO PUSH2 0x882 JUMPI PUSH1 0x61 PUSH1 0xF8 SHL DUP4 DUP3 DUP2 MLOAD DUP2 LT PUSH2 0x71C JUMPI PUSH2 0x71B PUSH2 0xF19 JUMP JUMPDEST JUMPDEST PUSH1 0x20 ADD ADD MLOAD PUSH1 0xF8 SHR PUSH1 0xF8 SHL PUSH31 0xFFFFFFFFFFFFFFFFFFFFFFFFFFFFFFFFFFFFFFFFFFFFFFFFFFFFFFFFFFFFFF NOT AND LT ISZERO DUP1 ISZERO PUSH2 0x79A JUMPI POP PUSH1 0x7A PUSH1 0xF8 SHL DUP4 DUP3 DUP2 MLOAD DUP2 LT PUSH2 0x76A JUMPI PUSH2 0x769 PUSH2 0xF19 JUMP JUMPDEST JUMPDEST PUSH1 0x20 ADD ADD MLOAD PUSH1 0xF8 SHR PUSH1 0xF8 SHL PUSH31 0xFFFFFFFFFFFFFFFFFFFFFFFFFFFFFFFFFFFFFFFFFFFFFFFFFFFFFFFFFFFFFF NOT AND GT ISZERO JUMPDEST ISZERO PUSH2 0x815 JUMPI PUSH1 0x20 DUP4 DUP3 DUP2 MLOAD DUP2 LT PUSH2 0x7B4 JUMPI PUSH2 0x7B3 PUSH2 0xF19 JUMP JUMPDEST JUMPDEST PUSH1 0x20 ADD ADD MLOAD PUSH1 0xF8 SHR PUSH1 0xF8 SHL PUSH1 0xF8 SHR PUSH2 0x7CC SWAP2 SWAP1 PUSH2 0x1023 JUMP JUMPDEST PUSH1 0xF8 SHL DUP3 DUP3 DUP2 MLOAD DUP2 LT PUSH2 0x7E2 JUMPI PUSH2 0x7E1 PUSH2 0xF19 JUMP JUMPDEST JUMPDEST PUSH1 0x20 ADD ADD SWAP1 PUSH31 0xFFFFFFFFFFFFFFFFFFFFFFFFFFFFFFFFFFFFFFFFFFFFFFFFFFFFFFFFFFFFFF NOT AND SWAP1 DUP2 PUSH0 BYTE SWAP1 MSTORE8 POP PUSH2 0x875 JUMP JUMPDEST DUP3 DUP2 DUP2 MLOAD DUP2 LT PUSH2 0x828 JUMPI PUSH2 0x827 PUSH2 0xF19 JUMP JUMPDEST JUMPDEST PUSH1 0x20 ADD ADD MLOAD PUSH1 0xF8 SHR PUSH1 0xF8 SHL DUP3 DUP3 DUP2 MLOAD DUP2 LT PUSH2 0x846 JUMPI PUSH2 0x845 PUSH2 0xF19 JUMP JUMPDEST JUMPDEST PUSH1 0x20 ADD ADD SWAP1 PUSH31 0xFFFFFFFFFFFFFFFFFFFFFFFFFFFFFFFFFFFFFFFFFFFFFFFFFFFFFFFFFFFFFF NOT AND SWAP1 DUP2 PUSH0 BYTE SWAP1 MSTORE8 POP JUMPDEST DUP1 DUP1 PUSH1 0x1 ADD SWAP2 POP POP PUSH2 0x6FB JUMP JUMPDEST POP DUP1 DUP5 DUP5 DUP2 MLOAD DUP2 LT PUSH2 0x897 JUMPI PUSH2 0x896 PUSH2 0xF19 JUMP JUMPDEST JUMPDEST PUSH1 0x20 MUL PUSH1 0x20 ADD ADD DUP2 SWAP1 MSTORE POP POP POP DUP1 DUP1 PUSH1 0x1 ADD SWAP2 POP POP PUSH2 0x681 JUMP JUMPDEST POP DUP1 SWAP2 POP POP SWAP2 SWAP1 POP JUMP JUMPDEST PUSH0 DUP2 MLOAD SWAP1 POP SWAP2 SWAP1 POP JUMP JUMPDEST PUSH0 DUP3 DUP3 MSTORE PUSH1 0x20 DUP3 ADD SWAP1 POP SWAP3 SWAP2 POP POP JUMP JUMPDEST DUP3 DUP2 DUP4 MCOPY PUSH0 DUP4 DUP4 ADD MSTORE POP POP POP JUMP JUMPDEST PUSH0 PUSH1 0x1F NOT PUSH1 0x1F DUP4 ADD AND SWAP1 POP SWAP2 SWAP1 POP JUMP JUMPDEST PUSH0 PUSH2 0x8FD DUP3 PUSH2 0x8BB JUMP JUMPDEST PUSH2 0x907 DUP2 DUP6 PUSH2 0x8C5 JUMP JUMPDEST SWAP4 POP PUSH2 0x917 DUP2 DUP6 PUSH1 0x20 DUP7 ADD PUSH2 0x8D5 JUMP JUMPDEST PUSH2 0x920 DUP2 PUSH2 0x8E3 JUMP JUMPDEST DUP5 ADD SWAP2 POP POP SWAP3 SWAP2 POP POP JUMP JUMPDEST PUSH0 PUSH1 0x20 DUP3 ADD SWAP1 POP DUP2 DUP2 SUB PUSH0 DUP4 ADD MSTORE PUSH2 0x943 DUP2 DUP5 PUSH2 0x8F3 JUMP JUMPDEST SWAP1 POP SWAP3 SWAP2 POP POP JUMP JUMPDEST PUSH0 PUSH1 0x40 MLOAD SWAP1 POP SWAP1 JUMP JUMPDEST PUSH0 DUP1 REVERT JUMPDEST PUSH0 DUP1 REVERT JUMPDEST PUSH0 DUP1 REVERT JUMPDEST PUSH0 DUP1 REVERT JUMPDEST PUSH32 0x4E487B7100000000000000000000000000000000000000000000000000000000 PUSH0 MSTORE PUSH1 0x41 PUSH1 0x4 MSTORE PUSH1 0x24 PUSH0 REVERT JUMPDEST PUSH2 0x99A DUP3 PUSH2 0x8E3 JUMP JUMPDEST DUP2 ADD DUP2 DUP2 LT PUSH8 0xFFFFFFFFFFFFFFFF DUP3 GT OR ISZERO PUSH2 0x9B9 JUMPI PUSH2 0x9B8 PUSH2 0x964 JUMP JUMPDEST JUMPDEST DUP1 PUSH1 0x40 MSTORE POP POP POP JUMP JUMPDEST PUSH0 PUSH2 0x9CB PUSH2 0x94B JUMP JUMPDEST SWAP1 POP PUSH2 0x9D7 DUP3 DUP3 PUSH2 0x991 JUMP JUMPDEST SWAP2 SWAP1 POP JUMP JUMPDEST PUSH0 PUSH8 0xFFFFFFFFFFFFFFFF DUP3 GT ISZERO PUSH2 0x9F6 JUMPI PUSH2 0x9F5 PUSH2 0x964 JUMP JUMPDEST JUMPDEST PUSH2 0x9FF DUP3 PUSH2 0x8E3 JUMP JUMPDEST SWAP1 POP PUSH1 0x20 DUP2 ADD SWAP1 POP SWAP2 SWAP1 POP JUMP JUMPDEST DUP3 DUP2 DUP4 CALLDATACOPY PUSH0 DUP4 DUP4 ADD MSTORE POP POP POP JUMP JUMPDEST PUSH0 PUSH2 0xA2C PUSH2 0xA27 DUP5 PUSH2 0x9DC JUMP JUMPDEST PUSH2 0x9C2 JUMP JUMPDEST SWAP1 POP DUP3 DUP2 MSTORE PUSH1 0x20 DUP2 ADD DUP5 DUP5 DUP5 ADD GT ISZERO PUSH2 0xA48 JUMPI PUSH2 0xA47 PUSH2 0x960 JUMP JUMPDEST JUMPDEST PUSH2 0xA53 DUP5 DUP3 DUP6 PUSH2 0xA0C JUMP JUMPDEST POP SWAP4 SWAP3 POP POP POP JUMP JUMPDEST PUSH0 DUP3 PUSH1 0x1F DUP4 ADD SLT PUSH2 0xA6F JUMPI PUSH2 0xA6E PUSH2 0x95C JUMP JUMPDEST JUMPDEST DUP2 CALLDATALOAD PUSH2 0xA7F DUP5 DUP3 PUSH1 0x20 DUP7 ADD PUSH2 0xA1A JUMP JUMPDEST SWAP2 POP POP SWAP3 SWAP2 POP POP JUMP JUMPDEST PUSH0 PUSH1 0x20 DUP3 DUP5 SUB SLT ISZERO PUSH2 0xA9D JUMPI PUSH2 0xA9C PUSH2 0x954 JUMP JUMPDEST JUMPDEST PUSH0 DUP3 ADD CALLDATALOAD PUSH8 0xFFFFFFFFFFFFFFFF DUP2 GT ISZERO PUSH2 0xABA JUMPI PUSH2 0xAB9 PUSH2 0x958 JUMP JUMPDEST JUMPDEST PUSH2 0xAC6 DUP5 DUP3 DUP6 ADD PUSH2 0xA5B JUMP JUMPDEST SWAP2 POP POP SWAP3 SWAP2 POP POP JUMP JUMPDEST PUSH0 DUP2 SWAP1 POP SWAP2 SWAP1 POP JUMP JUMPDEST PUSH2 0xAE1 DUP2 PUSH2 0xACF JUMP JUMPDEST DUP2 EQ PUSH2 0xAEB JUMPI PUSH0 DUP1 REVERT JUMPDEST POP JUMP JUMPDEST PUSH0 DUP2 CALLDATALOAD SWAP1 POP PUSH2 0xAFC DUP2 PUSH2 0xAD8 JUMP JUMPDEST SWAP3 SWAP2 POP POP JUMP JUMPDEST PUSH0 PUSH1 0x20 DUP3 DUP5 SUB SLT ISZERO PUSH2 0xB17 JUMPI PUSH2 0xB16 PUSH2 0x954 JUMP JUMPDEST JUMPDEST PUSH0 PUSH2 0xB24 DUP5 DUP3 DUP6 ADD PUSH2 0xAEE JUMP JUMPDEST SWAP2 POP POP SWAP3 SWAP2 POP POP JUMP JUMPDEST PUSH0 DUP2 MLOAD SWAP1 POP SWAP2 SWAP1 POP JUMP JUMPDEST PUSH0 DUP3 DUP3 MSTORE PUSH1 0x20 DUP3 ADD SWAP1 POP SWAP3 SWAP2 POP POP JUMP JUMPDEST PUSH0 DUP2 SWAP1 POP PUSH1 0x20 DUP3 ADD SWAP1 POP SWAP2 SWAP1 POP JUMP JUMPDEST PUSH0 DUP3 DUP3 MSTORE PUSH1 0x20 DUP3 ADD SWAP1 POP SWAP3 SWAP2 POP POP JUMP JUMPDEST PUSH0 PUSH2 0xB70 DUP3 PUSH2 0x8BB JUMP JUMPDEST PUSH2 0xB7A DUP2 DUP6 PUSH2 0xB56 JUMP JUMPDEST SWAP4 POP PUSH2 0xB8A DUP2 DUP6 PUSH1 0x20 DUP7 ADD PUSH2 0x8D5 JUMP JUMPDEST PUSH2 0xB93 DUP2 PUSH2 0x8E3 JUMP JUMPDEST DUP5 ADD SWAP2 POP POP SWAP3 SWAP2 POP POP JUMP JUMPDEST PUSH0 PUSH2 0xBA9 DUP4 DUP4 PUSH2 0xB66 JUMP JUMPDEST SWAP1 POP SWAP3 SWAP2 POP POP JUMP JUMPDEST PUSH0 PUSH1 0x20 DUP3 ADD SWAP1 POP SWAP2 SWAP1 POP JUMP JUMPDEST PUSH0 PUSH2 0xBC7 DUP3 PUSH2 0xB2D JUMP JUMPDEST PUSH2 0xBD1 DUP2 DUP6 PUSH2 0xB37 JUMP JUMPDEST SWAP4 POP DUP4 PUSH1 0x20 DUP3 MUL DUP6 ADD PUSH2 0xBE3 DUP6 PUSH2 0xB47 JUMP JUMPDEST DUP1 PUSH0 JUMPDEST DUP6 DUP2 LT ISZERO PUSH2 0xC1E JUMPI DUP5 DUP5 SUB DUP10 MSTORE DUP2 MLOAD PUSH2 0xBFF DUP6 DUP3 PUSH2 0xB9E JUMP JUMPDEST SWAP5 POP PUSH2 0xC0A DUP4 PUSH2 0xBB1 JUMP JUMPDEST SWAP3 POP PUSH1 0x20 DUP11 ADD SWAP10 POP POP PUSH1 0x1 DUP2 ADD SWAP1 POP PUSH2 0xBE6 JUMP JUMPDEST POP DUP3 SWAP8 POP DUP8 SWAP6 POP POP POP POP POP POP SWAP3 SWAP2 POP POP JUMP JUMPDEST PUSH0 PUSH1 0x20 DUP3 ADD SWAP1 POP DUP2 DUP2 SUB PUSH0 DUP4 ADD MSTORE PUSH2 0xC48 DUP2 DUP5 PUSH2 0xBBD JUMP JUMPDEST SWAP1 POP SWAP3 SWAP2 POP POP JUMP JUMPDEST PUSH32 0x4E487B7100000000000000000000000000000000000000000000000000000000 PUSH0 MSTORE PUSH1 0x22 PUSH1 0x4 MSTORE PUSH1 0x24 PUSH0 REVERT JUMPDEST PUSH0 PUSH1 0x2 DUP3 DIV SWAP1 POP PUSH1 0x1 DUP3 AND DUP1 PUSH2 0xC94 JUMPI PUSH1 0x7F DUP3 AND SWAP2 POP JUMPDEST PUSH1 0x20 DUP3 LT DUP2 SUB PUSH2 0xCA7 JUMPI PUSH2 0xCA6 PUSH2 0xC50 JUMP JUMPDEST JUMPDEST POP SWAP2 SWAP1 POP JUMP JUMPDEST PUSH0 DUP2 SWAP1 POP DUP2 PUSH0 MSTORE PUSH1 0x20 PUSH0 KECCAK256 SWAP1 POP SWAP2 SWAP1 POP JUMP JUMPDEST PUSH0 PUSH1 0x20 PUSH1 0x1F DUP4 ADD DIV SWAP1 POP SWAP2 SWAP1 POP JUMP JUMPDEST PUSH0 DUP3 DUP3 SHL SWAP1 POP SWAP3 SWAP2 POP POP JUMP JUMPDEST PUSH0 PUSH1 0x8 DUP4 MUL PUSH2 0xD09 PUSH32 0xFFFFFFFFFFFFFFFFFFFFFFFFFFFFFFFFFFFFFFFFFFFFFFFFFFFFFFFFFFFFFFFF DUP3 PUSH2 0xCCE JUMP JUMPDEST PUSH2 0xD13 DUP7 DUP4 PUSH2 0xCCE JUMP JUMPDEST SWAP6 POP DUP1 NOT DUP5 AND SWAP4 POP DUP1 DUP7 AND DUP5 OR SWAP3 POP POP POP SWAP4 SWAP3 POP POP POP JUMP JUMPDEST PUSH0 DUP2 SWAP1 POP SWAP2 SWAP1 POP JUMP JUMPDEST PUSH0 PUSH2 0xD4E PUSH2 0xD49 PUSH2 0xD44 DUP5 PUSH2 0xACF JUMP JUMPDEST PUSH2 0xD2B JUMP JUMPDEST PUSH2 0xACF JUMP JUMPDEST SWAP1 POP SWAP2 SWAP1 POP JUMP JUMPDEST PUSH0 DUP2 SWAP1 POP SWAP2 SWAP1 POP JUMP JUMPDEST PUSH2 0xD67 DUP4 PUSH2 0xD34 JUMP JUMPDEST PUSH2 0xD7B PUSH2 0xD73 DUP3 PUSH2 0xD55 JUMP JUMPDEST DUP5 DUP5 SLOAD PUSH2 0xCDA JUMP JUMPDEST DUP3 SSTORE POP POP POP POP JUMP JUMPDEST PUSH0 SWAP1 JUMP JUMPDEST PUSH2 0xD8F PUSH2 0xD83 JUMP JUMPDEST PUSH2 0xD9A DUP2 DUP5 DUP5 PUSH2 0xD5E JUMP JUMPDEST POP POP POP JUMP JUMPDEST JUMPDEST DUP2 DUP2 LT ISZERO PUSH2 0xDBD JUMPI PUSH2 0xDB2 PUSH0 DUP3 PUSH2 0xD87 JUMP JUMPDEST PUSH1 0x1 DUP2 ADD SWAP1 POP PUSH2 0xDA0 JUMP JUMPDEST POP POP JUMP JUMPDEST PUSH1 0x1F DUP3 GT ISZERO PUSH2 0xE02 JUMPI PUSH2 0xDD3 DUP2 PUSH2 0xCAD JUMP JUMPDEST PUSH2 0xDDC DUP5 PUSH2 0xCBF JUMP JUMPDEST DUP2 ADD PUSH1 0x20 DUP6 LT ISZERO PUSH2 0xDEB JUMPI DUP2 SWAP1 POP JUMPDEST PUSH2 0xDFF PUSH2 0xDF7 DUP6 PUSH2 0xCBF JUMP JUMPDEST DUP4 ADD DUP3 PUSH2 0xD9F JUMP JUMPDEST POP POP JUMPDEST POP POP POP JUMP JUMPDEST PUSH0 DUP3 DUP3 SHR SWAP1 POP SWAP3 SWAP2 POP POP JUMP JUMPDEST PUSH0 PUSH2 0xE22 PUSH0 NOT DUP5 PUSH1 0x8 MUL PUSH2 0xE07 JUMP JUMPDEST NOT DUP1 DUP4 AND SWAP2 POP POP SWAP3 SWAP2 POP POP JUMP JUMPDEST PUSH0 PUSH2 0xE3A DUP4 DUP4 PUSH2 0xE13 JUMP JUMPDEST SWAP2 POP DUP3 PUSH1 0x2 MUL DUP3 OR SWAP1 POP SWAP3 SWAP2 POP POP JUMP JUMPDEST PUSH2 0xE53 DUP3 PUSH2 0x8BB JUMP JUMPDEST PUSH8 0xFFFFFFFFFFFFFFFF DUP2 GT ISZERO PUSH2 0xE6C JUMPI PUSH2 0xE6B PUSH2 0x964 JUMP JUMPDEST JUMPDEST PUSH2 0xE76 DUP3 SLOAD PUSH2 0xC7D JUMP JUMPDEST PUSH2 0xE81 DUP3 DUP3 DUP6 PUSH2 0xDC1 JUMP JUMPDEST PUSH0 PUSH1 0x20 SWAP1 POP PUSH1 0x1F DUP4 GT PUSH1 0x1 DUP2 EQ PUSH2 0xEB2 JUMPI PUSH0 DUP5 ISZERO PUSH2 0xEA0 JUMPI DUP3 DUP8 ADD MLOAD SWAP1 POP JUMPDEST PUSH2 0xEAA DUP6 DUP3 PUSH2 0xE2F JUMP JUMPDEST DUP7 SSTORE POP PUSH2 0xF11 JUMP JUMPDEST PUSH1 0x1F NOT DUP5 AND PUSH2 0xEC0 DUP7 PUSH2 0xCAD JUMP JUMPDEST PUSH0 JUMPDEST DUP3 DUP2 LT ISZERO PUSH2 0xEE7 JUMPI DUP5 DUP10 ADD MLOAD DUP3 SSTORE PUSH1 0x1 DUP3 ADD SWAP2 POP PUSH1 0x20 DUP6 ADD SWAP5 POP PUSH1 0x20 DUP2 ADD SWAP1 POP PUSH2 0xEC2 JUMP JUMPDEST DUP7 DUP4 LT ISZERO PUSH2 0xF04 JUMPI DUP5 DUP10 ADD MLOAD PUSH2 0xF00 PUSH1 0x1F DUP10 AND DUP3 PUSH2 0xE13 JUMP JUMPDEST DUP4 SSTORE POP JUMPDEST PUSH1 0x1 PUSH1 0x2 DUP9 MUL ADD DUP9 SSTORE POP POP POP JUMPDEST POP POP POP POP POP POP JUMP JUMPDEST PUSH32 0x4E487B7100000000000000000000000000000000000000000000000000000000 PUSH0 MSTORE PUSH1 0x32 PUSH1 0x4 MSTORE PUSH1 0x24 PUSH0 REVERT JUMPDEST PUSH0 DUP2 SWAP1 POP SWAP3 SWAP2 POP POP JUMP JUMPDEST PUSH0 PUSH2 0xF5A DUP3 PUSH2 0x8BB JUMP JUMPDEST PUSH2 0xF64 DUP2 DUP6 PUSH2 0xF46 JUMP JUMPDEST SWAP4 POP PUSH2 0xF74 DUP2 DUP6 PUSH1 0x20 DUP7 ADD PUSH2 0x8D5 JUMP JUMPDEST DUP1 DUP5 ADD SWAP2 POP POP SWAP3 SWAP2 POP POP JUMP JUMPDEST PUSH0 PUSH2 0xF8B DUP3 DUP6 PUSH2 0xF50 JUMP JUMPDEST SWAP2 POP PUSH2 0xF97 DUP3 DUP5 PUSH2 0xF50 JUMP JUMPDEST SWAP2 POP DUP2 SWAP1 POP SWAP4 SWAP3 POP POP POP JUMP JUMPDEST PUSH32 0x4E487B7100000000000000000000000000000000000000000000000000000000 PUSH0 MSTORE PUSH1 0x11 PUSH1 0x4 MSTORE PUSH1 0x24 PUSH0 REVERT JUMPDEST PUSH0 PUSH2 0xFDA DUP3 PUSH2 0xACF JUMP JUMPDEST SWAP2 POP PUSH32 0xFFFFFFFFFFFFFFFFFFFFFFFFFFFFFFFFFFFFFFFFFFFFFFFFFFFFFFFFFFFFFFFF DUP3 SUB PUSH2 0x100C JUMPI PUSH2 0x100B PUSH2 0xFA3 JUMP JUMPDEST JUMPDEST PUSH1 0x1 DUP3 ADD SWAP1 POP SWAP2 SWAP1 POP JUMP JUMPDEST PUSH0 PUSH1 0xFF DUP3 AND SWAP1 POP SWAP2 SWAP1 POP JUMP JUMPDEST PUSH0 PUSH2 0x102D DUP3 PUSH2 0x1017 JUMP JUMPDEST SWAP2 POP PUSH2 0x1038 DUP4 PUSH2 0x1017 JUMP JUMPDEST SWAP3 POP DUP3 DUP3 SUB SWAP1 POP PUSH1 0xFF DUP2 GT ISZERO PUSH2 0x1051 JUMPI PUSH2 0x1050 PUSH2 0xFA3 JUMP JUMPDEST JUMPDEST SWAP3 SWAP2 POP POP JUMP INVALID LOG2 PUSH5 0x6970667358 0x22 SLT KECCAK256 DUP13 PUSH26 0x78EA9E42358742D533AC7B7FC4A694209B4622927065413F20E6 DUP5 0xE8 SWAP11 0xD2 PUSH5 0x736F6C6343 STOP ADDMOD BYTE STOP CALLER "
				},
				"gasEstimates": {
					"creation": {
						"codeDepositCost": "847400",
						"executionCost": "881",
						"totalCost": "848281"
					},
					"external": {
						"addString(string)": "infinite",
						"data(uint256)": "infinite",
						"getConcatenated()": "infinite",
						"getFiltered(uint256)": "infinite",
						"getUpperCase()": "infinite"
					}
				},
				"methodIdentifiers": {
					"addString(string)": "9874f5d7",
					"data(uint256)": "f0ba8440",
					"getConcatenated()": "3f075d83",
					"getFiltered(uint256)": "ad3c83ea",
					"getUpperCase()": "bca59fda"
				}
			},
			"storageLayout": {
				"storage": [
					{
						"astId": 259,
						"contract": "contracts/Blockchain_Assignment_7/Week7_Task1.sol:StringLibraryUser",
						"label": "data",
						"offset": 0,
						"slot": "0",
						"type": "t_array(t_string_storage)dyn_storage"
					}
				],
				"types": {
					"t_array(t_string_storage)dyn_storage": {
						"base": "t_string_storage",
						"encoding": "dynamic_array",
						"label": "string[]",
						"numberOfBytes": "32"
					},
					"t_string_storage": {
						"encoding": "bytes",
						"label": "string",
						"numberOfBytes": "32"
					}
				}
			},
			"userdoc": {
				"kind": "user",
				"methods": {},
				"version": 1
			}
		}
	}
}