{
	"contracts/Blockchain_Assignment_4/Task_Codes/as4_task6.sol": {
		"SavingsAccount": {
			"abi": [
				{
					"inputs": [
						{
							"internalType": "address",
							"name": "",
							"type": "address"
						}
					],
					"name": "balances",
					"outputs": [
						{
							"internalType": "uint256",
							"name": "",
							"type": "uint256"
						}
					],
					"stateMutability": "view",
					"type": "function"
				},
				{
					"inputs": [],
					"name": "deposit",
					"outputs": [],
					"stateMutability": "payable",
					"type": "function"
				},
				{
					"inputs": [],
					"name": "getContractBalance",
					"outputs": [
						{
							"internalType": "uint256",
							"name": "",
							"type": "uint256"
						}
					],
					"stateMutability": "view",
					"type": "function"
				},
				{
					"inputs": [
						{
							"internalType": "uint256",
							"name": "amount",
							"type": "uint256"
						}
					],
					"name": "withdraw",
					"outputs": [],
					"stateMutability": "nonpayable",
					"type": "function"
				}
			],
			"devdoc": {
				"kind": "dev",
				"methods": {},
				"version": 1
			},
			"evm": {
				"assembly": "    /* \"contracts/Blockchain_Assignment_4/Task_Codes/as4_task6.sol\":28:654  contract SavingsAccount {... */\n  mstore(0x40, 0x80)\n  callvalue\n  dup1\n  iszero\n  tag_1\n  jumpi\n  0x00\n  dup1\n  revert\ntag_1:\n  pop\n  dataSize(sub_0)\n  dup1\n  dataOffset(sub_0)\n  0x00\n  codecopy\n  0x00\n  return\nstop\n\nsub_0: assembly {\n        /* \"contracts/Blockchain_Assignment_4/Task_Codes/as4_task6.sol\":28:654  contract SavingsAccount {... */\n      mstore(0x40, 0x80)\n      jumpi(tag_1, lt(calldatasize, 0x04))\n      shr(0xe0, calldataload(0x00))\n      dup1\n      0x27e235e3\n      eq\n      tag_2\n      jumpi\n      dup1\n      0x2e1a7d4d\n      eq\n      tag_3\n      jumpi\n      dup1\n      0x6f9fb98a\n      eq\n      tag_4\n      jumpi\n      dup1\n      0xd0e30db0\n      eq\n      tag_5\n      jumpi\n    tag_1:\n      0x00\n      dup1\n      revert\n        /* \"contracts/Blockchain_Assignment_4/Task_Codes/as4_task6.sol\":102:145  mapping(address => uint256) public balances */\n    tag_2:\n      callvalue\n      dup1\n      iszero\n      tag_6\n      jumpi\n      0x00\n      dup1\n      revert\n    tag_6:\n      pop\n      tag_7\n      0x04\n      dup1\n      calldatasize\n      sub\n      dup2\n      add\n      swap1\n      tag_8\n      swap2\n      swap1\n      tag_9\n      jump\t// in\n    tag_8:\n      tag_10\n      jump\t// in\n    tag_7:\n      mload(0x40)\n      tag_11\n      swap2\n      swap1\n      tag_12\n      jump\t// in\n    tag_11:\n      mload(0x40)\n      dup1\n      swap2\n      sub\n      swap1\n      return\n        /* \"contracts/Blockchain_Assignment_4/Task_Codes/as4_task6.sol\":325:536  function withdraw(uint256 amount) public {... */\n    tag_3:\n      callvalue\n      dup1\n      iszero\n      tag_13\n      jumpi\n      0x00\n      dup1\n      revert\n    tag_13:\n      pop\n      tag_14\n      0x04\n      dup1\n      calldatasize\n      sub\n      dup2\n      add\n      swap1\n      tag_15\n      swap2\n      swap1\n      tag_16\n      jump\t// in\n    tag_15:\n      tag_17\n      jump\t// in\n    tag_14:\n      stop\n        /* \"contracts/Blockchain_Assignment_4/Task_Codes/as4_task6.sol\":544:651  function getContractBalance() public view returns (uint256) {... */\n    tag_4:\n      callvalue\n      dup1\n      iszero\n      tag_18\n      jumpi\n      0x00\n      dup1\n      revert\n    tag_18:\n      pop\n      tag_19\n      tag_20\n      jump\t// in\n    tag_19:\n      mload(0x40)\n      tag_21\n      swap2\n      swap1\n      tag_12\n      jump\t// in\n    tag_21:\n      mload(0x40)\n      dup1\n      swap2\n      sub\n      swap1\n      return\n        /* \"contracts/Blockchain_Assignment_4/Task_Codes/as4_task6.sol\":154:317  function deposit() public payable {... */\n    tag_5:\n      tag_22\n      tag_23\n      jump\t// in\n    tag_22:\n      stop\n        /* \"contracts/Blockchain_Assignment_4/Task_Codes/as4_task6.sol\":102:145  mapping(address => uint256) public balances */\n    tag_10:\n      mstore(0x20, 0x00)\n      dup1\n      0x00\n      mstore\n      keccak256(0x00, 0x40)\n      0x00\n      swap2\n      pop\n      swap1\n      pop\n      sload\n      dup2\n      jump\t// out\n        /* \"contracts/Blockchain_Assignment_4/Task_Codes/as4_task6.sol\":325:536  function withdraw(uint256 amount) public {... */\n    tag_17:\n        /* \"contracts/Blockchain_Assignment_4/Task_Codes/as4_task6.sol\":409:415  amount */\n      dup1\n        /* \"contracts/Blockchain_Assignment_4/Task_Codes/as4_task6.sol\":385:393  balances */\n      0x00\n        /* \"contracts/Blockchain_Assignment_4/Task_Codes/as4_task6.sol\":385:405  balances[msg.sender] */\n      dup1\n        /* \"contracts/Blockchain_Assignment_4/Task_Codes/as4_task6.sol\":394:404  msg.sender */\n      caller\n        /* \"contracts/Blockchain_Assignment_4/Task_Codes/as4_task6.sol\":385:405  balances[msg.sender] */\n      0xffffffffffffffffffffffffffffffffffffffff\n      and\n      0xffffffffffffffffffffffffffffffffffffffff\n      and\n      dup2\n      mstore\n      0x20\n      add\n      swap1\n      dup2\n      mstore\n      0x20\n      add\n      0x00\n      keccak256\n      sload\n        /* \"contracts/Blockchain_Assignment_4/Task_Codes/as4_task6.sol\":385:415  balances[msg.sender] >= amount */\n      lt\n      iszero\n        /* \"contracts/Blockchain_Assignment_4/Task_Codes/as4_task6.sol\":377:440  require(balances[msg.sender] >= amount, \"Insufficient balance\") */\n      tag_25\n      jumpi\n      mload(0x40)\n      0x08c379a000000000000000000000000000000000000000000000000000000000\n      dup2\n      mstore\n      0x04\n      add\n      tag_26\n      swap1\n      tag_27\n      jump\t// in\n    tag_26:\n      mload(0x40)\n      dup1\n      swap2\n      sub\n      swap1\n      revert\n    tag_25:\n        /* \"contracts/Blockchain_Assignment_4/Task_Codes/as4_task6.sol\":475:481  amount */\n      dup1\n        /* \"contracts/Blockchain_Assignment_4/Task_Codes/as4_task6.sol\":451:459  balances */\n      0x00\n        /* \"contracts/Blockchain_Assignment_4/Task_Codes/as4_task6.sol\":451:471  balances[msg.sender] */\n      dup1\n        /* \"contracts/Blockchain_Assignment_4/Task_Codes/as4_task6.sol\":460:470  msg.sender */\n      caller\n        /* \"contracts/Blockchain_Assignment_4/Task_Codes/as4_task6.sol\":451:471  balances[msg.sender] */\n      0xffffffffffffffffffffffffffffffffffffffff\n      and\n      0xffffffffffffffffffffffffffffffffffffffff\n      and\n      dup2\n      mstore\n      0x20\n      add\n      swap1\n      dup2\n      mstore\n      0x20\n      add\n      0x00\n      keccak256\n      0x00\n        /* \"contracts/Blockchain_Assignment_4/Task_Codes/as4_task6.sol\":451:481  balances[msg.sender] -= amount */\n      dup3\n      dup3\n      sload\n      tag_28\n      swap2\n      swap1\n      tag_29\n      jump\t// in\n    tag_28:\n      swap3\n      pop\n      pop\n      dup2\n      swap1\n      sstore\n      pop\n        /* \"contracts/Blockchain_Assignment_4/Task_Codes/as4_task6.sol\":500:510  msg.sender */\n      caller\n        /* \"contracts/Blockchain_Assignment_4/Task_Codes/as4_task6.sol\":492:520  payable(msg.sender).transfer */\n      0xffffffffffffffffffffffffffffffffffffffff\n      and\n        /* \"contracts/Blockchain_Assignment_4/Task_Codes/as4_task6.sol\":492:528  payable(msg.sender).transfer(amount) */\n      0x08fc\n        /* \"contracts/Blockchain_Assignment_4/Task_Codes/as4_task6.sol\":521:527  amount */\n      dup3\n        /* \"contracts/Blockchain_Assignment_4/Task_Codes/as4_task6.sol\":492:528  payable(msg.sender).transfer(amount) */\n      swap1\n      dup2\n      iszero\n      mul\n      swap1\n      mload(0x40)\n      0x00\n      mload(0x40)\n      dup1\n      dup4\n      sub\n      dup2\n      dup6\n      dup9\n      dup9\n      call\n      swap4\n      pop\n      pop\n      pop\n      pop\n      iszero\n      dup1\n      iszero\n      tag_31\n      jumpi\n      returndatasize\n      0x00\n      dup1\n      returndatacopy\n      revert(0x00, returndatasize)\n    tag_31:\n      pop\n        /* \"contracts/Blockchain_Assignment_4/Task_Codes/as4_task6.sol\":325:536  function withdraw(uint256 amount) public {... */\n      pop\n      jump\t// out\n        /* \"contracts/Blockchain_Assignment_4/Task_Codes/as4_task6.sol\":544:651  function getContractBalance() public view returns (uint256) {... */\n    tag_20:\n        /* \"contracts/Blockchain_Assignment_4/Task_Codes/as4_task6.sol\":595:602  uint256 */\n      0x00\n        /* \"contracts/Blockchain_Assignment_4/Task_Codes/as4_task6.sol\":622:643  address(this).balance */\n      selfbalance\n        /* \"contracts/Blockchain_Assignment_4/Task_Codes/as4_task6.sol\":615:643  return address(this).balance */\n      swap1\n      pop\n        /* \"contracts/Blockchain_Assignment_4/Task_Codes/as4_task6.sol\":544:651  function getContractBalance() public view returns (uint256) {... */\n      swap1\n      jump\t// out\n        /* \"contracts/Blockchain_Assignment_4/Task_Codes/as4_task6.sol\":154:317  function deposit() public payable {... */\n    tag_23:\n        /* \"contracts/Blockchain_Assignment_4/Task_Codes/as4_task6.sol\":219:220  0 */\n      0x00\n        /* \"contracts/Blockchain_Assignment_4/Task_Codes/as4_task6.sol\":207:216  msg.value */\n      callvalue\n        /* \"contracts/Blockchain_Assignment_4/Task_Codes/as4_task6.sol\":207:220  msg.value > 0 */\n      gt\n        /* \"contracts/Blockchain_Assignment_4/Task_Codes/as4_task6.sol\":199:265  require(msg.value > 0, \"Deposit amount must be greater than zero\") */\n      tag_34\n      jumpi\n      mload(0x40)\n      0x08c379a000000000000000000000000000000000000000000000000000000000\n      dup2\n      mstore\n      0x04\n      add\n      tag_35\n      swap1\n      tag_36\n      jump\t// in\n    tag_35:\n      mload(0x40)\n      dup1\n      swap2\n      sub\n      swap1\n      revert\n    tag_34:\n        /* \"contracts/Blockchain_Assignment_4/Task_Codes/as4_task6.sol\":300:309  msg.value */\n      callvalue\n        /* \"contracts/Blockchain_Assignment_4/Task_Codes/as4_task6.sol\":276:284  balances */\n      0x00\n        /* \"contracts/Blockchain_Assignment_4/Task_Codes/as4_task6.sol\":276:296  balances[msg.sender] */\n      dup1\n        /* \"contracts/Blockchain_Assignment_4/Task_Codes/as4_task6.sol\":285:295  msg.sender */\n      caller\n        /* \"contracts/Blockchain_Assignment_4/Task_Codes/as4_task6.sol\":276:296  balances[msg.sender] */\n      0xffffffffffffffffffffffffffffffffffffffff\n      and\n      0xffffffffffffffffffffffffffffffffffffffff\n      and\n      dup2\n      mstore\n      0x20\n      add\n      swap1\n      dup2\n      mstore\n      0x20\n      add\n      0x00\n      keccak256\n      0x00\n        /* \"contracts/Blockchain_Assignment_4/Task_Codes/as4_task6.sol\":276:309  balances[msg.sender] += msg.value */\n      dup3\n      dup3\n      sload\n      tag_37\n      swap2\n      swap1\n      tag_38\n      jump\t// in\n    tag_37:\n      swap3\n      pop\n      pop\n      dup2\n      swap1\n      sstore\n      pop\n        /* \"contracts/Blockchain_Assignment_4/Task_Codes/as4_task6.sol\":154:317  function deposit() public payable {... */\n      jump\t// out\n        /* \"#utility.yul\":88:205   */\n    tag_40:\n        /* \"#utility.yul\":197:198   */\n      0x00\n        /* \"#utility.yul\":194:195   */\n      dup1\n        /* \"#utility.yul\":187:199   */\n      revert\n        /* \"#utility.yul\":334:460   */\n    tag_42:\n        /* \"#utility.yul\":371:378   */\n      0x00\n        /* \"#utility.yul\":411:453   */\n      0xffffffffffffffffffffffffffffffffffffffff\n        /* \"#utility.yul\":404:409   */\n      dup3\n        /* \"#utility.yul\":400:454   */\n      and\n        /* \"#utility.yul\":389:454   */\n      swap1\n      pop\n        /* \"#utility.yul\":334:460   */\n      swap2\n      swap1\n      pop\n      jump\t// out\n        /* \"#utility.yul\":466:562   */\n    tag_43:\n        /* \"#utility.yul\":503:510   */\n      0x00\n        /* \"#utility.yul\":532:556   */\n      tag_62\n        /* \"#utility.yul\":550:555   */\n      dup3\n        /* \"#utility.yul\":532:556   */\n      tag_42\n      jump\t// in\n    tag_62:\n        /* \"#utility.yul\":521:556   */\n      swap1\n      pop\n        /* \"#utility.yul\":466:562   */\n      swap2\n      swap1\n      pop\n      jump\t// out\n        /* \"#utility.yul\":568:690   */\n    tag_44:\n        /* \"#utility.yul\":641:665   */\n      tag_64\n        /* \"#utility.yul\":659:664   */\n      dup2\n        /* \"#utility.yul\":641:665   */\n      tag_43\n      jump\t// in\n    tag_64:\n        /* \"#utility.yul\":634:639   */\n      dup2\n        /* \"#utility.yul\":631:666   */\n      eq\n        /* \"#utility.yul\":621:684   */\n      tag_65\n      jumpi\n        /* \"#utility.yul\":680:681   */\n      0x00\n        /* \"#utility.yul\":677:678   */\n      dup1\n        /* \"#utility.yul\":670:682   */\n      revert\n        /* \"#utility.yul\":621:684   */\n    tag_65:\n        /* \"#utility.yul\":568:690   */\n      pop\n      jump\t// out\n        /* \"#utility.yul\":696:835   */\n    tag_45:\n        /* \"#utility.yul\":742:747   */\n      0x00\n        /* \"#utility.yul\":780:786   */\n      dup2\n        /* \"#utility.yul\":767:787   */\n      calldataload\n        /* \"#utility.yul\":758:787   */\n      swap1\n      pop\n        /* \"#utility.yul\":796:829   */\n      tag_67\n        /* \"#utility.yul\":823:828   */\n      dup2\n        /* \"#utility.yul\":796:829   */\n      tag_44\n      jump\t// in\n    tag_67:\n        /* \"#utility.yul\":696:835   */\n      swap3\n      swap2\n      pop\n      pop\n      jump\t// out\n        /* \"#utility.yul\":841:1170   */\n    tag_9:\n        /* \"#utility.yul\":900:906   */\n      0x00\n        /* \"#utility.yul\":949:951   */\n      0x20\n        /* \"#utility.yul\":937:946   */\n      dup3\n        /* \"#utility.yul\":928:935   */\n      dup5\n        /* \"#utility.yul\":924:947   */\n      sub\n        /* \"#utility.yul\":920:952   */\n      slt\n        /* \"#utility.yul\":917:1036   */\n      iszero\n      tag_69\n      jumpi\n        /* \"#utility.yul\":955:1034   */\n      tag_70\n      tag_40\n      jump\t// in\n    tag_70:\n        /* \"#utility.yul\":917:1036   */\n    tag_69:\n        /* \"#utility.yul\":1075:1076   */\n      0x00\n        /* \"#utility.yul\":1100:1153   */\n      tag_71\n        /* \"#utility.yul\":1145:1152   */\n      dup5\n        /* \"#utility.yul\":1136:1142   */\n      dup3\n        /* \"#utility.yul\":1125:1134   */\n      dup6\n        /* \"#utility.yul\":1121:1143   */\n      add\n        /* \"#utility.yul\":1100:1153   */\n      tag_45\n      jump\t// in\n    tag_71:\n        /* \"#utility.yul\":1090:1153   */\n      swap2\n      pop\n        /* \"#utility.yul\":1046:1163   */\n      pop\n        /* \"#utility.yul\":841:1170   */\n      swap3\n      swap2\n      pop\n      pop\n      jump\t// out\n        /* \"#utility.yul\":1176:1253   */\n    tag_46:\n        /* \"#utility.yul\":1213:1220   */\n      0x00\n        /* \"#utility.yul\":1242:1247   */\n      dup2\n        /* \"#utility.yul\":1231:1247   */\n      swap1\n      pop\n        /* \"#utility.yul\":1176:1253   */\n      swap2\n      swap1\n      pop\n      jump\t// out\n        /* \"#utility.yul\":1259:1377   */\n    tag_47:\n        /* \"#utility.yul\":1346:1370   */\n      tag_74\n        /* \"#utility.yul\":1364:1369   */\n      dup2\n        /* \"#utility.yul\":1346:1370   */\n      tag_46\n      jump\t// in\n    tag_74:\n        /* \"#utility.yul\":1341:1344   */\n      dup3\n        /* \"#utility.yul\":1334:1371   */\n      mstore\n        /* \"#utility.yul\":1259:1377   */\n      pop\n      pop\n      jump\t// out\n        /* \"#utility.yul\":1383:1605   */\n    tag_12:\n        /* \"#utility.yul\":1476:1480   */\n      0x00\n        /* \"#utility.yul\":1514:1516   */\n      0x20\n        /* \"#utility.yul\":1503:1512   */\n      dup3\n        /* \"#utility.yul\":1499:1517   */\n      add\n        /* \"#utility.yul\":1491:1517   */\n      swap1\n      pop\n        /* \"#utility.yul\":1527:1598   */\n      tag_76\n        /* \"#utility.yul\":1595:1596   */\n      0x00\n        /* \"#utility.yul\":1584:1593   */\n      dup4\n        /* \"#utility.yul\":1580:1597   */\n      add\n        /* \"#utility.yul\":1571:1577   */\n      dup5\n        /* \"#utility.yul\":1527:1598   */\n      tag_47\n      jump\t// in\n    tag_76:\n        /* \"#utility.yul\":1383:1605   */\n      swap3\n      swap2\n      pop\n      pop\n      jump\t// out\n        /* \"#utility.yul\":1611:1733   */\n    tag_48:\n        /* \"#utility.yul\":1684:1708   */\n      tag_78\n        /* \"#utility.yul\":1702:1707   */\n      dup2\n        /* \"#utility.yul\":1684:1708   */\n      tag_46\n      jump\t// in\n    tag_78:\n        /* \"#utility.yul\":1677:1682   */\n      dup2\n        /* \"#utility.yul\":1674:1709   */\n      eq\n        /* \"#utility.yul\":1664:1727   */\n      tag_79\n      jumpi\n        /* \"#utility.yul\":1723:1724   */\n      0x00\n        /* \"#utility.yul\":1720:1721   */\n      dup1\n        /* \"#utility.yul\":1713:1725   */\n      revert\n        /* \"#utility.yul\":1664:1727   */\n    tag_79:\n        /* \"#utility.yul\":1611:1733   */\n      pop\n      jump\t// out\n        /* \"#utility.yul\":1739:1878   */\n    tag_49:\n        /* \"#utility.yul\":1785:1790   */\n      0x00\n        /* \"#utility.yul\":1823:1829   */\n      dup2\n        /* \"#utility.yul\":1810:1830   */\n      calldataload\n        /* \"#utility.yul\":1801:1830   */\n      swap1\n      pop\n        /* \"#utility.yul\":1839:1872   */\n      tag_81\n        /* \"#utility.yul\":1866:1871   */\n      dup2\n        /* \"#utility.yul\":1839:1872   */\n      tag_48\n      jump\t// in\n    tag_81:\n        /* \"#utility.yul\":1739:1878   */\n      swap3\n      swap2\n      pop\n      pop\n      jump\t// out\n        /* \"#utility.yul\":1884:2213   */\n    tag_16:\n        /* \"#utility.yul\":1943:1949   */\n      0x00\n        /* \"#utility.yul\":1992:1994   */\n      0x20\n        /* \"#utility.yul\":1980:1989   */\n      dup3\n        /* \"#utility.yul\":1971:1978   */\n      dup5\n        /* \"#utility.yul\":1967:1990   */\n      sub\n        /* \"#utility.yul\":1963:1995   */\n      slt\n        /* \"#utility.yul\":1960:2079   */\n      iszero\n      tag_83\n      jumpi\n        /* \"#utility.yul\":1998:2077   */\n      tag_84\n      tag_40\n      jump\t// in\n    tag_84:\n        /* \"#utility.yul\":1960:2079   */\n    tag_83:\n        /* \"#utility.yul\":2118:2119   */\n      0x00\n        /* \"#utility.yul\":2143:2196   */\n      tag_85\n        /* \"#utility.yul\":2188:2195   */\n      dup5\n        /* \"#utility.yul\":2179:2185   */\n      dup3\n        /* \"#utility.yul\":2168:2177   */\n      dup6\n        /* \"#utility.yul\":2164:2186   */\n      add\n        /* \"#utility.yul\":2143:2196   */\n      tag_49\n      jump\t// in\n    tag_85:\n        /* \"#utility.yul\":2133:2196   */\n      swap2\n      pop\n        /* \"#utility.yul\":2089:2206   */\n      pop\n        /* \"#utility.yul\":1884:2213   */\n      swap3\n      swap2\n      pop\n      pop\n      jump\t// out\n        /* \"#utility.yul\":2219:2388   */\n    tag_50:\n        /* \"#utility.yul\":2303:2314   */\n      0x00\n        /* \"#utility.yul\":2337:2343   */\n      dup3\n        /* \"#utility.yul\":2332:2335   */\n      dup3\n        /* \"#utility.yul\":2325:2344   */\n      mstore\n        /* \"#utility.yul\":2377:2381   */\n      0x20\n        /* \"#utility.yul\":2372:2375   */\n      dup3\n        /* \"#utility.yul\":2368:2382   */\n      add\n        /* \"#utility.yul\":2353:2382   */\n      swap1\n      pop\n        /* \"#utility.yul\":2219:2388   */\n      swap3\n      swap2\n      pop\n      pop\n      jump\t// out\n        /* \"#utility.yul\":2394:2564   */\n    tag_51:\n        /* \"#utility.yul\":2534:2556   */\n      0x496e73756666696369656e742062616c616e6365000000000000000000000000\n        /* \"#utility.yul\":2530:2531   */\n      0x00\n        /* \"#utility.yul\":2522:2528   */\n      dup3\n        /* \"#utility.yul\":2518:2532   */\n      add\n        /* \"#utility.yul\":2511:2557   */\n      mstore\n        /* \"#utility.yul\":2394:2564   */\n      pop\n      jump\t// out\n        /* \"#utility.yul\":2570:2936   */\n    tag_52:\n        /* \"#utility.yul\":2712:2715   */\n      0x00\n        /* \"#utility.yul\":2733:2800   */\n      tag_89\n        /* \"#utility.yul\":2797:2799   */\n      0x14\n        /* \"#utility.yul\":2792:2795   */\n      dup4\n        /* \"#utility.yul\":2733:2800   */\n      tag_50\n      jump\t// in\n    tag_89:\n        /* \"#utility.yul\":2726:2800   */\n      swap2\n      pop\n        /* \"#utility.yul\":2809:2902   */\n      tag_90\n        /* \"#utility.yul\":2898:2901   */\n      dup3\n        /* \"#utility.yul\":2809:2902   */\n      tag_51\n      jump\t// in\n    tag_90:\n        /* \"#utility.yul\":2927:2929   */\n      0x20\n        /* \"#utility.yul\":2922:2925   */\n      dup3\n        /* \"#utility.yul\":2918:2930   */\n      add\n        /* \"#utility.yul\":2911:2930   */\n      swap1\n      pop\n        /* \"#utility.yul\":2570:2936   */\n      swap2\n      swap1\n      pop\n      jump\t// out\n        /* \"#utility.yul\":2942:3361   */\n    tag_27:\n        /* \"#utility.yul\":3108:3112   */\n      0x00\n        /* \"#utility.yul\":3146:3148   */\n      0x20\n        /* \"#utility.yul\":3135:3144   */\n      dup3\n        /* \"#utility.yul\":3131:3149   */\n      add\n        /* \"#utility.yul\":3123:3149   */\n      swap1\n      pop\n        /* \"#utility.yul\":3195:3204   */\n      dup2\n        /* \"#utility.yul\":3189:3193   */\n      dup2\n        /* \"#utility.yul\":3185:3205   */\n      sub\n        /* \"#utility.yul\":3181:3182   */\n      0x00\n        /* \"#utility.yul\":3170:3179   */\n      dup4\n        /* \"#utility.yul\":3166:3183   */\n      add\n        /* \"#utility.yul\":3159:3206   */\n      mstore\n        /* \"#utility.yul\":3223:3354   */\n      tag_92\n        /* \"#utility.yul\":3349:3353   */\n      dup2\n        /* \"#utility.yul\":3223:3354   */\n      tag_52\n      jump\t// in\n    tag_92:\n        /* \"#utility.yul\":3215:3354   */\n      swap1\n      pop\n        /* \"#utility.yul\":2942:3361   */\n      swap2\n      swap1\n      pop\n      jump\t// out\n        /* \"#utility.yul\":3367:3547   */\n    tag_53:\n        /* \"#utility.yul\":3415:3492   */\n      0x4e487b7100000000000000000000000000000000000000000000000000000000\n        /* \"#utility.yul\":3412:3413   */\n      0x00\n        /* \"#utility.yul\":3405:3493   */\n      mstore\n        /* \"#utility.yul\":3512:3516   */\n      0x11\n        /* \"#utility.yul\":3509:3510   */\n      0x04\n        /* \"#utility.yul\":3502:3517   */\n      mstore\n        /* \"#utility.yul\":3536:3540   */\n      0x24\n        /* \"#utility.yul\":3533:3534   */\n      0x00\n        /* \"#utility.yul\":3526:3541   */\n      revert\n        /* \"#utility.yul\":3553:3747   */\n    tag_29:\n        /* \"#utility.yul\":3593:3597   */\n      0x00\n        /* \"#utility.yul\":3613:3633   */\n      tag_95\n        /* \"#utility.yul\":3631:3632   */\n      dup3\n        /* \"#utility.yul\":3613:3633   */\n      tag_46\n      jump\t// in\n    tag_95:\n        /* \"#utility.yul\":3608:3633   */\n      swap2\n      pop\n        /* \"#utility.yul\":3647:3667   */\n      tag_96\n        /* \"#utility.yul\":3665:3666   */\n      dup4\n        /* \"#utility.yul\":3647:3667   */\n      tag_46\n      jump\t// in\n    tag_96:\n        /* \"#utility.yul\":3642:3667   */\n      swap3\n      pop\n        /* \"#utility.yul\":3691:3692   */\n      dup3\n        /* \"#utility.yul\":3688:3689   */\n      dup3\n        /* \"#utility.yul\":3684:3693   */\n      sub\n        /* \"#utility.yul\":3676:3693   */\n      swap1\n      pop\n        /* \"#utility.yul\":3715:3716   */\n      dup2\n        /* \"#utility.yul\":3709:3713   */\n      dup2\n        /* \"#utility.yul\":3706:3717   */\n      gt\n        /* \"#utility.yul\":3703:3740   */\n      iszero\n      tag_97\n      jumpi\n        /* \"#utility.yul\":3720:3738   */\n      tag_98\n      tag_53\n      jump\t// in\n    tag_98:\n        /* \"#utility.yul\":3703:3740   */\n    tag_97:\n        /* \"#utility.yul\":3553:3747   */\n      swap3\n      swap2\n      pop\n      pop\n      jump\t// out\n        /* \"#utility.yul\":3753:3980   */\n    tag_54:\n        /* \"#utility.yul\":3893:3927   */\n      0x4465706f73697420616d6f756e74206d75737420626520677265617465722074\n        /* \"#utility.yul\":3889:3890   */\n      0x00\n        /* \"#utility.yul\":3881:3887   */\n      dup3\n        /* \"#utility.yul\":3877:3891   */\n      add\n        /* \"#utility.yul\":3870:3928   */\n      mstore\n        /* \"#utility.yul\":3962:3972   */\n      0x68616e207a65726f000000000000000000000000000000000000000000000000\n        /* \"#utility.yul\":3957:3959   */\n      0x20\n        /* \"#utility.yul\":3949:3955   */\n      dup3\n        /* \"#utility.yul\":3945:3960   */\n      add\n        /* \"#utility.yul\":3938:3973   */\n      mstore\n        /* \"#utility.yul\":3753:3980   */\n      pop\n      jump\t// out\n        /* \"#utility.yul\":3986:4352   */\n    tag_55:\n        /* \"#utility.yul\":4128:4131   */\n      0x00\n        /* \"#utility.yul\":4149:4216   */\n      tag_101\n        /* \"#utility.yul\":4213:4215   */\n      0x28\n        /* \"#utility.yul\":4208:4211   */\n      dup4\n        /* \"#utility.yul\":4149:4216   */\n      tag_50\n      jump\t// in\n    tag_101:\n        /* \"#utility.yul\":4142:4216   */\n      swap2\n      pop\n        /* \"#utility.yul\":4225:4318   */\n      tag_102\n        /* \"#utility.yul\":4314:4317   */\n      dup3\n        /* \"#utility.yul\":4225:4318   */\n      tag_54\n      jump\t// in\n    tag_102:\n        /* \"#utility.yul\":4343:4345   */\n      0x40\n        /* \"#utility.yul\":4338:4341   */\n      dup3\n        /* \"#utility.yul\":4334:4346   */\n      add\n        /* \"#utility.yul\":4327:4346   */\n      swap1\n      pop\n        /* \"#utility.yul\":3986:4352   */\n      swap2\n      swap1\n      pop\n      jump\t// out\n        /* \"#utility.yul\":4358:4777   */\n    tag_36:\n        /* \"#utility.yul\":4524:4528   */\n      0x00\n        /* \"#utility.yul\":4562:4564   */\n      0x20\n        /* \"#utility.yul\":4551:4560   */\n      dup3\n        /* \"#utility.yul\":4547:4565   */\n      add\n        /* \"#utility.yul\":4539:4565   */\n      swap1\n      pop\n        /* \"#utility.yul\":4611:4620   */\n      dup2\n        /* \"#utility.yul\":4605:4609   */\n      dup2\n        /* \"#utility.yul\":4601:4621   */\n      sub\n        /* \"#utility.yul\":4597:4598   */\n      0x00\n        /* \"#utility.yul\":4586:4595   */\n      dup4\n        /* \"#utility.yul\":4582:4599   */\n      add\n        /* \"#utility.yul\":4575:4622   */\n      mstore\n        /* \"#utility.yul\":4639:4770   */\n      tag_104\n        /* \"#utility.yul\":4765:4769   */\n      dup2\n        /* \"#utility.yul\":4639:4770   */\n      tag_55\n      jump\t// in\n    tag_104:\n        /* \"#utility.yul\":4631:4770   */\n      swap1\n      pop\n        /* \"#utility.yul\":4358:4777   */\n      swap2\n      swap1\n      pop\n      jump\t// out\n        /* \"#utility.yul\":4783:4974   */\n    tag_38:\n        /* \"#utility.yul\":4823:4826   */\n      0x00\n        /* \"#utility.yul\":4842:4862   */\n      tag_106\n        /* \"#utility.yul\":4860:4861   */\n      dup3\n        /* \"#utility.yul\":4842:4862   */\n      tag_46\n      jump\t// in\n    tag_106:\n        /* \"#utility.yul\":4837:4862   */\n      swap2\n      pop\n        /* \"#utility.yul\":4876:4896   */\n      tag_107\n        /* \"#utility.yul\":4894:4895   */\n      dup4\n        /* \"#utility.yul\":4876:4896   */\n      tag_46\n      jump\t// in\n    tag_107:\n        /* \"#utility.yul\":4871:4896   */\n      swap3\n      pop\n        /* \"#utility.yul\":4919:4920   */\n      dup3\n        /* \"#utility.yul\":4916:4917   */\n      dup3\n        /* \"#utility.yul\":4912:4921   */\n      add\n        /* \"#utility.yul\":4905:4921   */\n      swap1\n      pop\n        /* \"#utility.yul\":4940:4943   */\n      dup1\n        /* \"#utility.yul\":4937:4938   */\n      dup3\n        /* \"#utility.yul\":4934:4944   */\n      gt\n        /* \"#utility.yul\":4931:4967   */\n      iszero\n      tag_108\n      jumpi\n        /* \"#utility.yul\":4947:4965   */\n      tag_109\n      tag_53\n      jump\t// in\n    tag_109:\n        /* \"#utility.yul\":4931:4967   */\n    tag_108:\n        /* \"#utility.yul\":4783:4974   */\n      swap3\n      swap2\n      pop\n      pop\n      jump\t// out\n\n    auxdata: 0xa2646970667358221220fc5070e42587817e7455a68dfe2a688021c1ed808c9d6374498c6f733805d69864736f6c634300081a0033\n}\n",
				"bytecode": {
					"linkReferences": {},
					"object": "6080604052348015600e575f80fd5b506105818061001c5f395ff3fe60806040526004361061003e575f3560e01c806327e235e3146100425780632e1a7d4d1461007e5780636f9fb98a146100a6578063d0e30db0146100d0575b5f80fd5b34801561004d575f80fd5b5061006860048036038101906100639190610301565b6100da565b6040516100759190610344565b60405180910390f35b348015610089575f80fd5b506100a4600480360381019061009f9190610387565b6100ee565b005b3480156100b1575f80fd5b506100ba610206565b6040516100c79190610344565b60405180910390f35b6100d861020d565b005b5f602052805f5260405f205f915090505481565b805f803373ffffffffffffffffffffffffffffffffffffffff1673ffffffffffffffffffffffffffffffffffffffff1681526020019081526020015f2054101561016d576040517f08c379a00000000000000000000000000000000000000000000000000000000081526004016101649061040c565b60405180910390fd5b805f803373ffffffffffffffffffffffffffffffffffffffff1673ffffffffffffffffffffffffffffffffffffffff1681526020019081526020015f205f8282546101b89190610457565b925050819055503373ffffffffffffffffffffffffffffffffffffffff166108fc8290811502906040515f60405180830381858888f19350505050158015610202573d5f803e3d5ffd5b5050565b5f47905090565b5f341161024f576040517f08c379a0000000000000000000000000000000000000000000000000000000008152600401610246906104fa565b60405180910390fd5b345f803373ffffffffffffffffffffffffffffffffffffffff1673ffffffffffffffffffffffffffffffffffffffff1681526020019081526020015f205f82825461029a9190610518565b92505081905550565b5f80fd5b5f73ffffffffffffffffffffffffffffffffffffffff82169050919050565b5f6102d0826102a7565b9050919050565b6102e0816102c6565b81146102ea575f80fd5b50565b5f813590506102fb816102d7565b92915050565b5f60208284031215610316576103156102a3565b5b5f610323848285016102ed565b91505092915050565b5f819050919050565b61033e8161032c565b82525050565b5f6020820190506103575f830184610335565b92915050565b6103668161032c565b8114610370575f80fd5b50565b5f813590506103818161035d565b92915050565b5f6020828403121561039c5761039b6102a3565b5b5f6103a984828501610373565b91505092915050565b5f82825260208201905092915050565b7f496e73756666696369656e742062616c616e63650000000000000000000000005f82015250565b5f6103f66014836103b2565b9150610401826103c2565b602082019050919050565b5f6020820190508181035f830152610423816103ea565b9050919050565b7f4e487b71000000000000000000000000000000000000000000000000000000005f52601160045260245ffd5b5f6104618261032c565b915061046c8361032c565b92508282039050818111156104845761048361042a565b5b92915050565b7f4465706f73697420616d6f756e74206d757374206265206772656174657220745f8201527f68616e207a65726f000000000000000000000000000000000000000000000000602082015250565b5f6104e46028836103b2565b91506104ef8261048a565b604082019050919050565b5f6020820190508181035f830152610511816104d8565b9050919050565b5f6105228261032c565b915061052d8361032c565b92508282019050808211156105455761054461042a565b5b9291505056fea2646970667358221220fc5070e42587817e7455a68dfe2a688021c1ed808c9d6374498c6f733805d69864736f6c634300081a0033",
					"opcodes": "PUSH1 0x80 PUSH1 0x40 MSTORE CALLVALUE DUP1 ISZERO PUSH1 0xE JUMPI PUSH0 DUP1 REVERT JUMPDEST POP PUSH2 0x581 DUP1 PUSH2 0x1C PUSH0 CODECOPY PUSH0 RETURN INVALID PUSH1 0x80 PUSH1 0x40 MSTORE PUSH1 0x4 CALLDATASIZE LT PUSH2 0x3E JUMPI PUSH0 CALLDATALOAD PUSH1 0xE0 SHR DUP1 PUSH4 0x27E235E3 EQ PUSH2 0x42 JUMPI DUP1 PUSH4 0x2E1A7D4D EQ PUSH2 0x7E JUMPI DUP1 PUSH4 0x6F9FB98A EQ PUSH2 0xA6 JUMPI DUP1 PUSH4 0xD0E30DB0 EQ PUSH2 0xD0 JUMPI JUMPDEST PUSH0 DUP1 REVERT JUMPDEST CALLVALUE DUP1 ISZERO PUSH2 0x4D JUMPI PUSH0 DUP1 REVERT JUMPDEST POP PUSH2 0x68 PUSH1 0x4 DUP1 CALLDATASIZE SUB DUP2 ADD SWAP1 PUSH2 0x63 SWAP2 SWAP1 PUSH2 0x301 JUMP JUMPDEST PUSH2 0xDA JUMP JUMPDEST PUSH1 0x40 MLOAD PUSH2 0x75 SWAP2 SWAP1 PUSH2 0x344 JUMP JUMPDEST PUSH1 0x40 MLOAD DUP1 SWAP2 SUB SWAP1 RETURN JUMPDEST CALLVALUE DUP1 ISZERO PUSH2 0x89 JUMPI PUSH0 DUP1 REVERT JUMPDEST POP PUSH2 0xA4 PUSH1 0x4 DUP1 CALLDATASIZE SUB DUP2 ADD SWAP1 PUSH2 0x9F SWAP2 SWAP1 PUSH2 0x387 JUMP JUMPDEST PUSH2 0xEE JUMP JUMPDEST STOP JUMPDEST CALLVALUE DUP1 ISZERO PUSH2 0xB1 JUMPI PUSH0 DUP1 REVERT JUMPDEST POP PUSH2 0xBA PUSH2 0x206 JUMP JUMPDEST PUSH1 0x40 MLOAD PUSH2 0xC7 SWAP2 SWAP1 PUSH2 0x344 JUMP JUMPDEST PUSH1 0x40 MLOAD DUP1 SWAP2 SUB SWAP1 RETURN JUMPDEST PUSH2 0xD8 PUSH2 0x20D JUMP JUMPDEST STOP JUMPDEST PUSH0 PUSH1 0x20 MSTORE DUP1 PUSH0 MSTORE PUSH1 0x40 PUSH0 KECCAK256 PUSH0 SWAP2 POP SWAP1 POP SLOAD DUP2 JUMP JUMPDEST DUP1 PUSH0 DUP1 CALLER PUSH20 0xFFFFFFFFFFFFFFFFFFFFFFFFFFFFFFFFFFFFFFFF AND PUSH20 0xFFFFFFFFFFFFFFFFFFFFFFFFFFFFFFFFFFFFFFFF AND DUP2 MSTORE PUSH1 0x20 ADD SWAP1 DUP2 MSTORE PUSH1 0x20 ADD PUSH0 KECCAK256 SLOAD LT ISZERO PUSH2 0x16D JUMPI PUSH1 0x40 MLOAD PUSH32 0x8C379A000000000000000000000000000000000000000000000000000000000 DUP2 MSTORE PUSH1 0x4 ADD PUSH2 0x164 SWAP1 PUSH2 0x40C JUMP JUMPDEST PUSH1 0x40 MLOAD DUP1 SWAP2 SUB SWAP1 REVERT JUMPDEST DUP1 PUSH0 DUP1 CALLER PUSH20 0xFFFFFFFFFFFFFFFFFFFFFFFFFFFFFFFFFFFFFFFF AND PUSH20 0xFFFFFFFFFFFFFFFFFFFFFFFFFFFFFFFFFFFFFFFF AND DUP2 MSTORE PUSH1 0x20 ADD SWAP1 DUP2 MSTORE PUSH1 0x20 ADD PUSH0 KECCAK256 PUSH0 DUP3 DUP3 SLOAD PUSH2 0x1B8 SWAP2 SWAP1 PUSH2 0x457 JUMP JUMPDEST SWAP3 POP POP DUP2 SWAP1 SSTORE POP CALLER PUSH20 0xFFFFFFFFFFFFFFFFFFFFFFFFFFFFFFFFFFFFFFFF AND PUSH2 0x8FC DUP3 SWAP1 DUP2 ISZERO MUL SWAP1 PUSH1 0x40 MLOAD PUSH0 PUSH1 0x40 MLOAD DUP1 DUP4 SUB DUP2 DUP6 DUP9 DUP9 CALL SWAP4 POP POP POP POP ISZERO DUP1 ISZERO PUSH2 0x202 JUMPI RETURNDATASIZE PUSH0 DUP1 RETURNDATACOPY RETURNDATASIZE PUSH0 REVERT JUMPDEST POP POP JUMP JUMPDEST PUSH0 SELFBALANCE SWAP1 POP SWAP1 JUMP JUMPDEST PUSH0 CALLVALUE GT PUSH2 0x24F JUMPI PUSH1 0x40 MLOAD PUSH32 0x8C379A000000000000000000000000000000000000000000000000000000000 DUP2 MSTORE PUSH1 0x4 ADD PUSH2 0x246 SWAP1 PUSH2 0x4FA JUMP JUMPDEST PUSH1 0x40 MLOAD DUP1 SWAP2 SUB SWAP1 REVERT JUMPDEST CALLVALUE PUSH0 DUP1 CALLER PUSH20 0xFFFFFFFFFFFFFFFFFFFFFFFFFFFFFFFFFFFFFFFF AND PUSH20 0xFFFFFFFFFFFFFFFFFFFFFFFFFFFFFFFFFFFFFFFF AND DUP2 MSTORE PUSH1 0x20 ADD SWAP1 DUP2 MSTORE PUSH1 0x20 ADD PUSH0 KECCAK256 PUSH0 DUP3 DUP3 SLOAD PUSH2 0x29A SWAP2 SWAP1 PUSH2 0x518 JUMP JUMPDEST SWAP3 POP POP DUP2 SWAP1 SSTORE POP JUMP JUMPDEST PUSH0 DUP1 REVERT JUMPDEST PUSH0 PUSH20 0xFFFFFFFFFFFFFFFFFFFFFFFFFFFFFFFFFFFFFFFF DUP3 AND SWAP1 POP SWAP2 SWAP1 POP JUMP JUMPDEST PUSH0 PUSH2 0x2D0 DUP3 PUSH2 0x2A7 JUMP JUMPDEST SWAP1 POP SWAP2 SWAP1 POP JUMP JUMPDEST PUSH2 0x2E0 DUP2 PUSH2 0x2C6 JUMP JUMPDEST DUP2 EQ PUSH2 0x2EA JUMPI PUSH0 DUP1 REVERT JUMPDEST POP JUMP JUMPDEST PUSH0 DUP2 CALLDATALOAD SWAP1 POP PUSH2 0x2FB DUP2 PUSH2 0x2D7 JUMP JUMPDEST SWAP3 SWAP2 POP POP JUMP JUMPDEST PUSH0 PUSH1 0x20 DUP3 DUP5 SUB SLT ISZERO PUSH2 0x316 JUMPI PUSH2 0x315 PUSH2 0x2A3 JUMP JUMPDEST JUMPDEST PUSH0 PUSH2 0x323 DUP5 DUP3 DUP6 ADD PUSH2 0x2ED JUMP JUMPDEST SWAP2 POP POP SWAP3 SWAP2 POP POP JUMP JUMPDEST PUSH0 DUP2 SWAP1 POP SWAP2 SWAP1 POP JUMP JUMPDEST PUSH2 0x33E DUP2 PUSH2 0x32C JUMP JUMPDEST DUP3 MSTORE POP POP JUMP JUMPDEST PUSH0 PUSH1 0x20 DUP3 ADD SWAP1 POP PUSH2 0x357 PUSH0 DUP4 ADD DUP5 PUSH2 0x335 JUMP JUMPDEST SWAP3 SWAP2 POP POP JUMP JUMPDEST PUSH2 0x366 DUP2 PUSH2 0x32C JUMP JUMPDEST DUP2 EQ PUSH2 0x370 JUMPI PUSH0 DUP1 REVERT JUMPDEST POP JUMP JUMPDEST PUSH0 DUP2 CALLDATALOAD SWAP1 POP PUSH2 0x381 DUP2 PUSH2 0x35D JUMP JUMPDEST SWAP3 SWAP2 POP POP JUMP JUMPDEST PUSH0 PUSH1 0x20 DUP3 DUP5 SUB SLT ISZERO PUSH2 0x39C JUMPI PUSH2 0x39B PUSH2 0x2A3 JUMP JUMPDEST JUMPDEST PUSH0 PUSH2 0x3A9 DUP5 DUP3 DUP6 ADD PUSH2 0x373 JUMP JUMPDEST SWAP2 POP POP SWAP3 SWAP2 POP POP JUMP JUMPDEST PUSH0 DUP3 DUP3 MSTORE PUSH1 0x20 DUP3 ADD SWAP1 POP SWAP3 SWAP2 POP POP JUMP JUMPDEST PUSH32 0x496E73756666696369656E742062616C616E6365000000000000000000000000 PUSH0 DUP3 ADD MSTORE POP JUMP JUMPDEST PUSH0 PUSH2 0x3F6 PUSH1 0x14 DUP4 PUSH2 0x3B2 JUMP JUMPDEST SWAP2 POP PUSH2 0x401 DUP3 PUSH2 0x3C2 JUMP JUMPDEST PUSH1 0x20 DUP3 ADD SWAP1 POP SWAP2 SWAP1 POP JUMP JUMPDEST PUSH0 PUSH1 0x20 DUP3 ADD SWAP1 POP DUP2 DUP2 SUB PUSH0 DUP4 ADD MSTORE PUSH2 0x423 DUP2 PUSH2 0x3EA JUMP JUMPDEST SWAP1 POP SWAP2 SWAP1 POP JUMP JUMPDEST PUSH32 0x4E487B7100000000000000000000000000000000000000000000000000000000 PUSH0 MSTORE PUSH1 0x11 PUSH1 0x4 MSTORE PUSH1 0x24 PUSH0 REVERT JUMPDEST PUSH0 PUSH2 0x461 DUP3 PUSH2 0x32C JUMP JUMPDEST SWAP2 POP PUSH2 0x46C DUP4 PUSH2 0x32C JUMP JUMPDEST SWAP3 POP DUP3 DUP3 SUB SWAP1 POP DUP2 DUP2 GT ISZERO PUSH2 0x484 JUMPI PUSH2 0x483 PUSH2 0x42A JUMP JUMPDEST JUMPDEST SWAP3 SWAP2 POP POP JUMP JUMPDEST PUSH32 0x4465706F73697420616D6F756E74206D75737420626520677265617465722074 PUSH0 DUP3 ADD MSTORE PUSH32 0x68616E207A65726F000000000000000000000000000000000000000000000000 PUSH1 0x20 DUP3 ADD MSTORE POP JUMP JUMPDEST PUSH0 PUSH2 0x4E4 PUSH1 0x28 DUP4 PUSH2 0x3B2 JUMP JUMPDEST SWAP2 POP PUSH2 0x4EF DUP3 PUSH2 0x48A JUMP JUMPDEST PUSH1 0x40 DUP3 ADD SWAP1 POP SWAP2 SWAP1 POP JUMP JUMPDEST PUSH0 PUSH1 0x20 DUP3 ADD SWAP1 POP DUP2 DUP2 SUB PUSH0 DUP4 ADD MSTORE PUSH2 0x511 DUP2 PUSH2 0x4D8 JUMP JUMPDEST SWAP1 POP SWAP2 SWAP1 POP JUMP JUMPDEST PUSH0 PUSH2 0x522 DUP3 PUSH2 0x32C JUMP JUMPDEST SWAP2 POP PUSH2 0x52D DUP4 PUSH2 0x32C JUMP JUMPDEST SWAP3 POP DUP3 DUP3 ADD SWAP1 POP DUP1 DUP3 GT ISZERO PUSH2 0x545 JUMPI PUSH2 0x544 PUSH2 0x42A JUMP JUMPDEST JUMPDEST SWAP3 SWAP2 POP POP JUMP INVALID LOG2 PUSH5 0x6970667358 0x22 SLT KECCAK256 0xFC POP PUSH17 0xE42587817E7455A68DFE2A688021C1ED80 DUP13 SWAP14 PUSH4 0x74498C6F PUSH20 0x3805D69864736F6C634300081A00330000000000 "
				},
				"gasEstimates": {
					"creation": {
						"codeDepositCost": "281800",
						"executionCost": "322",
						"totalCost": "282122"
					},
					"external": {
						"balances(address)": "2779",
						"deposit()": "infinite",
						"getContractBalance()": "356",
						"withdraw(uint256)": "infinite"
					}
				},
				"methodIdentifiers": {
					"balances(address)": "27e235e3",
					"deposit()": "d0e30db0",
					"getContractBalance()": "6f9fb98a",
					"withdraw(uint256)": "2e1a7d4d"
				}
			},
			"storageLayout": {
				"storage": [
					{
						"astId": 5,
						"contract": "contracts/Blockchain_Assignment_4/Task_Codes/as4_task6.sol:SavingsAccount",
						"label": "balances",
						"offset": 0,
						"slot": "0",
						"type": "t_mapping(t_address,t_uint256)"
					}
				],
				"types": {
					"t_address": {
						"encoding": "inplace",
						"label": "address",
						"numberOfBytes": "20"
					},
					"t_mapping(t_address,t_uint256)": {
						"encoding": "mapping",
						"key": "t_address",
						"label": "mapping(address => uint256)",
						"numberOfBytes": "32",
						"value": "t_uint256"
					},
					"t_uint256": {
						"encoding": "inplace",
						"label": "uint256",
						"numberOfBytes": "32"
					}
				}
			},
			"userdoc": {
				"kind": "user",
				"methods": {},
				"version": 1
			}
		}
	}
}