{
	"contracts/Blockchain_Assignment_4/Task_Codes/as4_task3.sol": {
		"Lottery": {
			"abi": [
				{
					"inputs": [],
					"stateMutability": "nonpayable",
					"type": "constructor"
				},
				{
					"inputs": [],
					"name": "enter",
					"outputs": [],
					"stateMutability": "payable",
					"type": "function"
				},
				{
					"inputs": [],
					"name": "getBalance",
					"outputs": [
						{
							"internalType": "uint256",
							"name": "",
							"type": "uint256"
						}
					],
					"stateMutability": "view",
					"type": "function"
				},
				{
					"inputs": [],
					"name": "getPlayers",
					"outputs": [
						{
							"internalType": "address[]",
							"name": "",
							"type": "address[]"
						}
					],
					"stateMutability": "view",
					"type": "function"
				},
				{
					"inputs": [],
					"name": "owner",
					"outputs": [
						{
							"internalType": "address",
							"name": "",
							"type": "address"
						}
					],
					"stateMutability": "view",
					"type": "function"
				},
				{
					"inputs": [],
					"name": "pickWinner",
					"outputs": [],
					"stateMutability": "nonpayable",
					"type": "function"
				},
				{
					"inputs": [
						{
							"internalType": "uint256",
							"name": "",
							"type": "uint256"
						}
					],
					"name": "players",
					"outputs": [
						{
							"internalType": "address",
							"name": "",
							"type": "address"
						}
					],
					"stateMutability": "view",
					"type": "function"
				}
			],
			"devdoc": {
				"kind": "dev",
				"methods": {},
				"version": 1
			},
			"evm": {
				"assembly": "    /* \"contracts/Blockchain_Assignment_4/Task_Codes/as4_task3.sol\":28:1652  contract Lottery {... */\n  mstore(0x40, 0x80)\n    /* \"contracts/Blockchain_Assignment_4/Task_Codes/as4_task3.sol\":212:263  constructor() {... */\n  callvalue\n  dup1\n  iszero\n  tag_1\n  jumpi\n  0x00\n  dup1\n  revert\ntag_1:\n  pop\n    /* \"contracts/Blockchain_Assignment_4/Task_Codes/as4_task3.sol\":245:255  msg.sender */\n  caller\n    /* \"contracts/Blockchain_Assignment_4/Task_Codes/as4_task3.sol\":237:242  owner */\n  0x01\n  0x00\n    /* \"contracts/Blockchain_Assignment_4/Task_Codes/as4_task3.sol\":237:255  owner = msg.sender */\n  0x0100\n  exp\n  dup2\n  sload\n  dup2\n  0xffffffffffffffffffffffffffffffffffffffff\n  mul\n  not\n  and\n  swap1\n  dup4\n  0xffffffffffffffffffffffffffffffffffffffff\n  and\n  mul\n  or\n  swap1\n  sstore\n  pop\n    /* \"contracts/Blockchain_Assignment_4/Task_Codes/as4_task3.sol\":28:1652  contract Lottery {... */\n  dataSize(sub_0)\n  dup1\n  dataOffset(sub_0)\n  0x00\n  codecopy\n  0x00\n  return\nstop\n\nsub_0: assembly {\n        /* \"contracts/Blockchain_Assignment_4/Task_Codes/as4_task3.sol\":28:1652  contract Lottery {... */\n      mstore(0x40, 0x80)\n      jumpi(tag_1, lt(calldatasize, 0x04))\n      shr(0xe0, calldataload(0x00))\n      dup1\n      0x12065fe0\n      eq\n      tag_2\n      jumpi\n      dup1\n      0x5d495aea\n      eq\n      tag_3\n      jumpi\n      dup1\n      0x8b5b9ccc\n      eq\n      tag_4\n      jumpi\n      dup1\n      0x8da5cb5b\n      eq\n      tag_5\n      jumpi\n      dup1\n      0xe97dcb62\n      eq\n      tag_6\n      jumpi\n      dup1\n      0xf71d96cb\n      eq\n      tag_7\n      jumpi\n    tag_1:\n      0x00\n      dup1\n      revert\n        /* \"contracts/Blockchain_Assignment_4/Task_Codes/as4_task3.sol\":1550:1649  function getBalance() public view returns (uint256) {... */\n    tag_2:\n      callvalue\n      dup1\n      iszero\n      tag_8\n      jumpi\n      0x00\n      dup1\n      revert\n    tag_8:\n      pop\n      tag_9\n      tag_10\n      jump\t// in\n    tag_9:\n      mload(0x40)\n      tag_11\n      swap2\n      swap1\n      tag_12\n      jump\t// in\n    tag_11:\n      mload(0x40)\n      dup1\n      swap2\n      sub\n      swap1\n      return\n        /* \"contracts/Blockchain_Assignment_4/Task_Codes/as4_task3.sol\":571:1129  function pickWinner() public {... */\n    tag_3:\n      callvalue\n      dup1\n      iszero\n      tag_13\n      jumpi\n      0x00\n      dup1\n      revert\n    tag_13:\n      pop\n      tag_14\n      tag_15\n      jump\t// in\n    tag_14:\n      stop\n        /* \"contracts/Blockchain_Assignment_4/Task_Codes/as4_task3.sol\":1403:1497  function getPlayers() public view returns (address[] memory) {... */\n    tag_4:\n      callvalue\n      dup1\n      iszero\n      tag_16\n      jumpi\n      0x00\n      dup1\n      revert\n    tag_16:\n      pop\n      tag_17\n      tag_18\n      jump\t// in\n    tag_17:\n      mload(0x40)\n      tag_19\n      swap2\n      swap1\n      tag_20\n      jump\t// in\n    tag_19:\n      mload(0x40)\n      dup1\n      swap2\n      sub\n      swap1\n      return\n        /* \"contracts/Blockchain_Assignment_4/Task_Codes/as4_task3.sol\":114:134  address public owner */\n    tag_5:\n      callvalue\n      dup1\n      iszero\n      tag_21\n      jumpi\n      0x00\n      dup1\n      revert\n    tag_21:\n      pop\n      tag_22\n      tag_23\n      jump\t// in\n    tag_22:\n      mload(0x40)\n      tag_24\n      swap2\n      swap1\n      tag_25\n      jump\t// in\n    tag_24:\n      mload(0x40)\n      dup1\n      swap2\n      sub\n      swap1\n      return\n        /* \"contracts/Blockchain_Assignment_4/Task_Codes/as4_task3.sol\":309:522  function enter() public payable {... */\n    tag_6:\n      tag_26\n      tag_27\n      jump\t// in\n    tag_26:\n      stop\n        /* \"contracts/Blockchain_Assignment_4/Task_Codes/as4_task3.sol\":52:76  address[] public players */\n    tag_7:\n      callvalue\n      dup1\n      iszero\n      tag_28\n      jumpi\n      0x00\n      dup1\n      revert\n    tag_28:\n      pop\n      tag_29\n      0x04\n      dup1\n      calldatasize\n      sub\n      dup2\n      add\n      swap1\n      tag_30\n      swap2\n      swap1\n      tag_31\n      jump\t// in\n    tag_30:\n      tag_32\n      jump\t// in\n    tag_29:\n      mload(0x40)\n      tag_33\n      swap2\n      swap1\n      tag_25\n      jump\t// in\n    tag_33:\n      mload(0x40)\n      dup1\n      swap2\n      sub\n      swap1\n      return\n        /* \"contracts/Blockchain_Assignment_4/Task_Codes/as4_task3.sol\":1550:1649  function getBalance() public view returns (uint256) {... */\n    tag_10:\n        /* \"contracts/Blockchain_Assignment_4/Task_Codes/as4_task3.sol\":1593:1600  uint256 */\n      0x00\n        /* \"contracts/Blockchain_Assignment_4/Task_Codes/as4_task3.sol\":1620:1641  address(this).balance */\n      selfbalance\n        /* \"contracts/Blockchain_Assignment_4/Task_Codes/as4_task3.sol\":1613:1641  return address(this).balance */\n      swap1\n      pop\n        /* \"contracts/Blockchain_Assignment_4/Task_Codes/as4_task3.sol\":1550:1649  function getBalance() public view returns (uint256) {... */\n      swap1\n      jump\t// out\n        /* \"contracts/Blockchain_Assignment_4/Task_Codes/as4_task3.sol\":571:1129  function pickWinner() public {... */\n    tag_15:\n        /* \"contracts/Blockchain_Assignment_4/Task_Codes/as4_task3.sol\":633:638  owner */\n      0x01\n      0x00\n      swap1\n      sload\n      swap1\n      0x0100\n      exp\n      swap1\n      div\n      0xffffffffffffffffffffffffffffffffffffffff\n      and\n        /* \"contracts/Blockchain_Assignment_4/Task_Codes/as4_task3.sol\":619:638  msg.sender == owner */\n      0xffffffffffffffffffffffffffffffffffffffff\n      and\n        /* \"contracts/Blockchain_Assignment_4/Task_Codes/as4_task3.sol\":619:629  msg.sender */\n      caller\n        /* \"contracts/Blockchain_Assignment_4/Task_Codes/as4_task3.sol\":619:638  msg.sender == owner */\n      0xffffffffffffffffffffffffffffffffffffffff\n      and\n      eq\n        /* \"contracts/Blockchain_Assignment_4/Task_Codes/as4_task3.sol\":611:675  require(msg.sender == owner, \"Only the owner can pick a winner\") */\n      tag_36\n      jumpi\n      mload(0x40)\n      0x08c379a000000000000000000000000000000000000000000000000000000000\n      dup2\n      mstore\n      0x04\n      add\n      tag_37\n      swap1\n      tag_38\n      jump\t// in\n    tag_37:\n      mload(0x40)\n      dup1\n      swap2\n      sub\n      swap1\n      revert\n    tag_36:\n        /* \"contracts/Blockchain_Assignment_4/Task_Codes/as4_task3.sol\":743:744  0 */\n      0x00\n        /* \"contracts/Blockchain_Assignment_4/Task_Codes/as4_task3.sol\":726:733  players */\n      dup1\n        /* \"contracts/Blockchain_Assignment_4/Task_Codes/as4_task3.sol\":726:740  players.length */\n      dup1\n      sload\n      swap1\n      pop\n        /* \"contracts/Blockchain_Assignment_4/Task_Codes/as4_task3.sol\":726:744  players.length > 0 */\n      gt\n        /* \"contracts/Blockchain_Assignment_4/Task_Codes/as4_task3.sol\":718:774  require(players.length > 0, \"No players in the lottery\") */\n      tag_39\n      jumpi\n      mload(0x40)\n      0x08c379a000000000000000000000000000000000000000000000000000000000\n      dup2\n      mstore\n      0x04\n      add\n      tag_40\n      swap1\n      tag_41\n      jump\t// in\n    tag_40:\n      mload(0x40)\n      dup1\n      swap2\n      sub\n      swap1\n      revert\n    tag_39:\n        /* \"contracts/Blockchain_Assignment_4/Task_Codes/as4_task3.sol\":820:839  uint256 winnerIndex */\n      0x00\n        /* \"contracts/Blockchain_Assignment_4/Task_Codes/as4_task3.sol\":853:860  players */\n      dup1\n        /* \"contracts/Blockchain_Assignment_4/Task_Codes/as4_task3.sol\":853:867  players.length */\n      dup1\n      sload\n      swap1\n      pop\n        /* \"contracts/Blockchain_Assignment_4/Task_Codes/as4_task3.sol\":842:850  random() */\n      tag_42\n        /* \"contracts/Blockchain_Assignment_4/Task_Codes/as4_task3.sol\":842:848  random */\n      tag_43\n        /* \"contracts/Blockchain_Assignment_4/Task_Codes/as4_task3.sol\":842:850  random() */\n      jump\t// in\n    tag_42:\n        /* \"contracts/Blockchain_Assignment_4/Task_Codes/as4_task3.sol\":842:867  random() % players.length */\n      tag_44\n      swap2\n      swap1\n      tag_45\n      jump\t// in\n    tag_44:\n        /* \"contracts/Blockchain_Assignment_4/Task_Codes/as4_task3.sol\":820:867  uint256 winnerIndex = random() % players.length */\n      swap1\n      pop\n        /* \"contracts/Blockchain_Assignment_4/Task_Codes/as4_task3.sol\":901:915  address winner */\n      0x00\n        /* \"contracts/Blockchain_Assignment_4/Task_Codes/as4_task3.sol\":918:925  players */\n      dup1\n        /* \"contracts/Blockchain_Assignment_4/Task_Codes/as4_task3.sol\":926:937  winnerIndex */\n      dup3\n        /* \"contracts/Blockchain_Assignment_4/Task_Codes/as4_task3.sol\":918:938  players[winnerIndex] */\n      dup2\n      sload\n      dup2\n      lt\n      tag_46\n      jumpi\n      tag_47\n      tag_48\n      jump\t// in\n    tag_47:\n    tag_46:\n      swap1\n      0x00\n      mstore\n      keccak256(0x00, 0x20)\n      add\n      0x00\n      swap1\n      sload\n      swap1\n      0x0100\n      exp\n      swap1\n      div\n      0xffffffffffffffffffffffffffffffffffffffff\n      and\n        /* \"contracts/Blockchain_Assignment_4/Task_Codes/as4_task3.sol\":901:938  address winner = players[winnerIndex] */\n      swap1\n      pop\n        /* \"contracts/Blockchain_Assignment_4/Task_Codes/as4_task3.sol\":987:993  winner */\n      dup1\n        /* \"contracts/Blockchain_Assignment_4/Task_Codes/as4_task3.sol\":979:1003  payable(winner).transfer */\n      0xffffffffffffffffffffffffffffffffffffffff\n      and\n        /* \"contracts/Blockchain_Assignment_4/Task_Codes/as4_task3.sol\":979:1026  payable(winner).transfer(address(this).balance) */\n      0x08fc\n        /* \"contracts/Blockchain_Assignment_4/Task_Codes/as4_task3.sol\":1004:1025  address(this).balance */\n      selfbalance\n        /* \"contracts/Blockchain_Assignment_4/Task_Codes/as4_task3.sol\":979:1026  payable(winner).transfer(address(this).balance) */\n      swap1\n      dup2\n      iszero\n      mul\n      swap1\n      mload(0x40)\n      0x00\n      mload(0x40)\n      dup1\n      dup4\n      sub\n      dup2\n      dup6\n      dup9\n      dup9\n      call\n      swap4\n      pop\n      pop\n      pop\n      pop\n      iszero\n      dup1\n      iszero\n      tag_51\n      jumpi\n      returndatasize\n      0x00\n      dup1\n      returndatacopy\n      revert(0x00, returndatasize)\n    tag_51:\n      pop\n        /* \"contracts/Blockchain_Assignment_4/Task_Codes/as4_task3.sol\":1087:1094  players */\n      0x00\n      dup1\n        /* \"contracts/Blockchain_Assignment_4/Task_Codes/as4_task3.sol\":1080:1094  delete players */\n      tag_52\n      swap2\n      swap1\n      tag_53\n      jump\t// in\n    tag_52:\n        /* \"contracts/Blockchain_Assignment_4/Task_Codes/as4_task3.sol\":600:1129  {... */\n      pop\n      pop\n        /* \"contracts/Blockchain_Assignment_4/Task_Codes/as4_task3.sol\":571:1129  function pickWinner() public {... */\n      jump\t// out\n        /* \"contracts/Blockchain_Assignment_4/Task_Codes/as4_task3.sol\":1403:1497  function getPlayers() public view returns (address[] memory) {... */\n    tag_18:\n        /* \"contracts/Blockchain_Assignment_4/Task_Codes/as4_task3.sol\":1446:1462  address[] memory */\n      0x60\n        /* \"contracts/Blockchain_Assignment_4/Task_Codes/as4_task3.sol\":1482:1489  players */\n      0x00\n        /* \"contracts/Blockchain_Assignment_4/Task_Codes/as4_task3.sol\":1475:1489  return players */\n      dup1\n      sload\n      dup1\n      0x20\n      mul\n      0x20\n      add\n      mload(0x40)\n      swap1\n      dup2\n      add\n      0x40\n      mstore\n      dup1\n      swap3\n      swap2\n      swap1\n      dup2\n      dup2\n      mstore\n      0x20\n      add\n      dup3\n      dup1\n      sload\n      dup1\n      iszero\n      tag_55\n      jumpi\n      0x20\n      mul\n      dup3\n      add\n      swap2\n      swap1\n      0x00\n      mstore\n      keccak256(0x00, 0x20)\n      swap1\n    tag_56:\n      dup2\n      0x00\n      swap1\n      sload\n      swap1\n      0x0100\n      exp\n      swap1\n      div\n      0xffffffffffffffffffffffffffffffffffffffff\n      and\n      0xffffffffffffffffffffffffffffffffffffffff\n      and\n      dup2\n      mstore\n      0x20\n      add\n      swap1\n      0x01\n      add\n      swap1\n      dup1\n      dup4\n      gt\n      tag_56\n      jumpi\n    tag_55:\n      pop\n      pop\n      pop\n      pop\n      pop\n      swap1\n      pop\n        /* \"contracts/Blockchain_Assignment_4/Task_Codes/as4_task3.sol\":1403:1497  function getPlayers() public view returns (address[] memory) {... */\n      swap1\n      jump\t// out\n        /* \"contracts/Blockchain_Assignment_4/Task_Codes/as4_task3.sol\":114:134  address public owner */\n    tag_23:\n      0x01\n      0x00\n      swap1\n      sload\n      swap1\n      0x0100\n      exp\n      swap1\n      div\n      0xffffffffffffffffffffffffffffffffffffffff\n      and\n      dup2\n      jump\t// out\n        /* \"contracts/Blockchain_Assignment_4/Task_Codes/as4_task3.sol\":309:522  function enter() public payable {... */\n    tag_27:\n        /* \"contracts/Blockchain_Assignment_4/Task_Codes/as4_task3.sol\":373:380  1 ether */\n      0x0de0b6b3a7640000\n        /* \"contracts/Blockchain_Assignment_4/Task_Codes/as4_task3.sol\":360:369  msg.value */\n      callvalue\n        /* \"contracts/Blockchain_Assignment_4/Task_Codes/as4_task3.sol\":360:380  msg.value == 1 ether */\n      eq\n        /* \"contracts/Blockchain_Assignment_4/Task_Codes/as4_task3.sol\":352:427  require(msg.value == 1 ether, \"You must send exactly 1 ETH to participate\") */\n      tag_58\n      jumpi\n      mload(0x40)\n      0x08c379a000000000000000000000000000000000000000000000000000000000\n      dup2\n      mstore\n      0x04\n      add\n      tag_59\n      swap1\n      tag_60\n      jump\t// in\n    tag_59:\n      mload(0x40)\n      dup1\n      swap2\n      sub\n      swap1\n      revert\n    tag_58:\n        /* \"contracts/Blockchain_Assignment_4/Task_Codes/as4_task3.sol\":455:462  players */\n      0x00\n        /* \"contracts/Blockchain_Assignment_4/Task_Codes/as4_task3.sol\":468:478  msg.sender */\n      caller\n        /* \"contracts/Blockchain_Assignment_4/Task_Codes/as4_task3.sol\":455:479  players.push(msg.sender) */\n      swap1\n      dup1\n      0x01\n      dup2\n      sload\n      add\n      dup1\n      dup3\n      sstore\n      dup1\n      swap2\n      pop\n      pop\n      0x01\n      swap1\n      sub\n      swap1\n      0x00\n      mstore\n      keccak256(0x00, 0x20)\n      add\n      0x00\n      swap1\n      swap2\n      swap1\n      swap2\n      swap1\n      swap2\n      0x0100\n      exp\n      dup2\n      sload\n      dup2\n      0xffffffffffffffffffffffffffffffffffffffff\n      mul\n      not\n      and\n      swap1\n      dup4\n      0xffffffffffffffffffffffffffffffffffffffff\n      and\n      mul\n      or\n      swap1\n      sstore\n      pop\n        /* \"contracts/Blockchain_Assignment_4/Task_Codes/as4_task3.sol\":309:522  function enter() public payable {... */\n      jump\t// out\n        /* \"contracts/Blockchain_Assignment_4/Task_Codes/as4_task3.sol\":52:76  address[] public players */\n    tag_32:\n      0x00\n      dup2\n      dup2\n      sload\n      dup2\n      lt\n      tag_62\n      jumpi\n      0x00\n      dup1\n      revert\n    tag_62:\n      swap1\n      0x00\n      mstore\n      keccak256(0x00, 0x20)\n      add\n      0x00\n      swap2\n      pop\n      sload\n      swap1\n      0x0100\n      exp\n      swap1\n      div\n      0xffffffffffffffffffffffffffffffffffffffff\n      and\n      dup2\n      jump\t// out\n        /* \"contracts/Blockchain_Assignment_4/Task_Codes/as4_task3.sol\":1196:1351  function random() private view returns (uint256) {... */\n    tag_43:\n        /* \"contracts/Blockchain_Assignment_4/Task_Codes/as4_task3.sol\":1236:1243  uint256 */\n      0x00\n        /* \"contracts/Blockchain_Assignment_4/Task_Codes/as4_task3.sol\":1298:1313  block.timestamp */\n      timestamp\n        /* \"contracts/Blockchain_Assignment_4/Task_Codes/as4_task3.sol\":1315:1331  block.difficulty */\n      prevrandao\n        /* \"contracts/Blockchain_Assignment_4/Task_Codes/as4_task3.sol\":1333:1340  players */\n      0x00\n        /* \"contracts/Blockchain_Assignment_4/Task_Codes/as4_task3.sol\":1281:1341  abi.encodePacked(block.timestamp, block.difficulty, players) */\n      add(0x20, mload(0x40))\n      tag_65\n      swap4\n      swap3\n      swap2\n      swap1\n      tag_66\n      jump\t// in\n    tag_65:\n      mload(0x40)\n      0x20\n      dup2\n      dup4\n      sub\n      sub\n      dup2\n      mstore\n      swap1\n      0x40\n      mstore\n        /* \"contracts/Blockchain_Assignment_4/Task_Codes/as4_task3.sol\":1271:1342  keccak256(abi.encodePacked(block.timestamp, block.difficulty, players)) */\n      dup1\n      mload\n      swap1\n      0x20\n      add\n      keccak256\n        /* \"contracts/Blockchain_Assignment_4/Task_Codes/as4_task3.sol\":1263:1343  uint256(keccak256(abi.encodePacked(block.timestamp, block.difficulty, players))) */\n      0x00\n      shr\n        /* \"contracts/Blockchain_Assignment_4/Task_Codes/as4_task3.sol\":1256:1343  return uint256(keccak256(abi.encodePacked(block.timestamp, block.difficulty, players))) */\n      swap1\n      pop\n        /* \"contracts/Blockchain_Assignment_4/Task_Codes/as4_task3.sol\":1196:1351  function random() private view returns (uint256) {... */\n      swap1\n      jump\t// out\n    tag_53:\n      pop\n      dup1\n      sload\n      0x00\n      dup3\n      sstore\n      swap1\n      0x00\n      mstore\n      keccak256(0x00, 0x20)\n      swap1\n      dup2\n      add\n      swap1\n      tag_68\n      swap2\n      swap1\n      tag_69\n      jump\t// in\n    tag_68:\n      pop\n      jump\t// out\n    tag_69:\n    tag_70:\n      dup1\n      dup3\n      gt\n      iszero\n      tag_71\n      jumpi\n      0x00\n      dup2\n      0x00\n      swap1\n      sstore\n      pop\n      0x01\n      add\n      jump(tag_70)\n    tag_71:\n      pop\n      swap1\n      jump\t// out\n        /* \"#utility.yul\":7:84   */\n    tag_72:\n        /* \"#utility.yul\":44:51   */\n      0x00\n        /* \"#utility.yul\":73:78   */\n      dup2\n        /* \"#utility.yul\":62:78   */\n      swap1\n      pop\n        /* \"#utility.yul\":7:84   */\n      swap2\n      swap1\n      pop\n      jump\t// out\n        /* \"#utility.yul\":90:208   */\n    tag_73:\n        /* \"#utility.yul\":177:201   */\n      tag_113\n        /* \"#utility.yul\":195:200   */\n      dup2\n        /* \"#utility.yul\":177:201   */\n      tag_72\n      jump\t// in\n    tag_113:\n        /* \"#utility.yul\":172:175   */\n      dup3\n        /* \"#utility.yul\":165:202   */\n      mstore\n        /* \"#utility.yul\":90:208   */\n      pop\n      pop\n      jump\t// out\n        /* \"#utility.yul\":214:436   */\n    tag_12:\n        /* \"#utility.yul\":307:311   */\n      0x00\n        /* \"#utility.yul\":345:347   */\n      0x20\n        /* \"#utility.yul\":334:343   */\n      dup3\n        /* \"#utility.yul\":330:348   */\n      add\n        /* \"#utility.yul\":322:348   */\n      swap1\n      pop\n        /* \"#utility.yul\":358:429   */\n      tag_115\n        /* \"#utility.yul\":426:427   */\n      0x00\n        /* \"#utility.yul\":415:424   */\n      dup4\n        /* \"#utility.yul\":411:428   */\n      add\n        /* \"#utility.yul\":402:408   */\n      dup5\n        /* \"#utility.yul\":358:429   */\n      tag_73\n      jump\t// in\n    tag_115:\n        /* \"#utility.yul\":214:436   */\n      swap3\n      swap2\n      pop\n      pop\n      jump\t// out\n        /* \"#utility.yul\":442:556   */\n    tag_74:\n        /* \"#utility.yul\":509:515   */\n      0x00\n        /* \"#utility.yul\":543:548   */\n      dup2\n        /* \"#utility.yul\":537:549   */\n      mload\n        /* \"#utility.yul\":527:549   */\n      swap1\n      pop\n        /* \"#utility.yul\":442:556   */\n      swap2\n      swap1\n      pop\n      jump\t// out\n        /* \"#utility.yul\":562:746   */\n    tag_75:\n        /* \"#utility.yul\":661:672   */\n      0x00\n        /* \"#utility.yul\":695:701   */\n      dup3\n        /* \"#utility.yul\":690:693   */\n      dup3\n        /* \"#utility.yul\":683:702   */\n      mstore\n        /* \"#utility.yul\":735:739   */\n      0x20\n        /* \"#utility.yul\":730:733   */\n      dup3\n        /* \"#utility.yul\":726:740   */\n      add\n        /* \"#utility.yul\":711:740   */\n      swap1\n      pop\n        /* \"#utility.yul\":562:746   */\n      swap3\n      swap2\n      pop\n      pop\n      jump\t// out\n        /* \"#utility.yul\":752:884   */\n    tag_76:\n        /* \"#utility.yul\":819:823   */\n      0x00\n        /* \"#utility.yul\":842:845   */\n      dup2\n        /* \"#utility.yul\":834:845   */\n      swap1\n      pop\n        /* \"#utility.yul\":872:876   */\n      0x20\n        /* \"#utility.yul\":867:870   */\n      dup3\n        /* \"#utility.yul\":863:877   */\n      add\n        /* \"#utility.yul\":855:877   */\n      swap1\n      pop\n        /* \"#utility.yul\":752:884   */\n      swap2\n      swap1\n      pop\n      jump\t// out\n        /* \"#utility.yul\":890:1016   */\n    tag_77:\n        /* \"#utility.yul\":927:934   */\n      0x00\n        /* \"#utility.yul\":967:1009   */\n      0xffffffffffffffffffffffffffffffffffffffff\n        /* \"#utility.yul\":960:965   */\n      dup3\n        /* \"#utility.yul\":956:1010   */\n      and\n        /* \"#utility.yul\":945:1010   */\n      swap1\n      pop\n        /* \"#utility.yul\":890:1016   */\n      swap2\n      swap1\n      pop\n      jump\t// out\n        /* \"#utility.yul\":1022:1118   */\n    tag_78:\n        /* \"#utility.yul\":1059:1066   */\n      0x00\n        /* \"#utility.yul\":1088:1112   */\n      tag_121\n        /* \"#utility.yul\":1106:1111   */\n      dup3\n        /* \"#utility.yul\":1088:1112   */\n      tag_77\n      jump\t// in\n    tag_121:\n        /* \"#utility.yul\":1077:1112   */\n      swap1\n      pop\n        /* \"#utility.yul\":1022:1118   */\n      swap2\n      swap1\n      pop\n      jump\t// out\n        /* \"#utility.yul\":1124:1232   */\n    tag_79:\n        /* \"#utility.yul\":1201:1225   */\n      tag_123\n        /* \"#utility.yul\":1219:1224   */\n      dup2\n        /* \"#utility.yul\":1201:1225   */\n      tag_78\n      jump\t// in\n    tag_123:\n        /* \"#utility.yul\":1196:1199   */\n      dup3\n        /* \"#utility.yul\":1189:1226   */\n      mstore\n        /* \"#utility.yul\":1124:1232   */\n      pop\n      pop\n      jump\t// out\n        /* \"#utility.yul\":1238:1417   */\n    tag_80:\n        /* \"#utility.yul\":1307:1317   */\n      0x00\n        /* \"#utility.yul\":1328:1374   */\n      tag_125\n        /* \"#utility.yul\":1370:1373   */\n      dup4\n        /* \"#utility.yul\":1362:1368   */\n      dup4\n        /* \"#utility.yul\":1328:1374   */\n      tag_79\n      jump\t// in\n    tag_125:\n        /* \"#utility.yul\":1406:1410   */\n      0x20\n        /* \"#utility.yul\":1401:1404   */\n      dup4\n        /* \"#utility.yul\":1397:1411   */\n      add\n        /* \"#utility.yul\":1383:1411   */\n      swap1\n      pop\n        /* \"#utility.yul\":1238:1417   */\n      swap3\n      swap2\n      pop\n      pop\n      jump\t// out\n        /* \"#utility.yul\":1423:1536   */\n    tag_81:\n        /* \"#utility.yul\":1493:1497   */\n      0x00\n        /* \"#utility.yul\":1525:1529   */\n      0x20\n        /* \"#utility.yul\":1520:1523   */\n      dup3\n        /* \"#utility.yul\":1516:1530   */\n      add\n        /* \"#utility.yul\":1508:1530   */\n      swap1\n      pop\n        /* \"#utility.yul\":1423:1536   */\n      swap2\n      swap1\n      pop\n      jump\t// out\n        /* \"#utility.yul\":1572:2304   */\n    tag_82:\n        /* \"#utility.yul\":1691:1694   */\n      0x00\n        /* \"#utility.yul\":1720:1774   */\n      tag_128\n        /* \"#utility.yul\":1768:1773   */\n      dup3\n        /* \"#utility.yul\":1720:1774   */\n      tag_74\n      jump\t// in\n    tag_128:\n        /* \"#utility.yul\":1790:1876   */\n      tag_129\n        /* \"#utility.yul\":1869:1875   */\n      dup2\n        /* \"#utility.yul\":1864:1867   */\n      dup6\n        /* \"#utility.yul\":1790:1876   */\n      tag_75\n      jump\t// in\n    tag_129:\n        /* \"#utility.yul\":1783:1876   */\n      swap4\n      pop\n        /* \"#utility.yul\":1900:1956   */\n      tag_130\n        /* \"#utility.yul\":1950:1955   */\n      dup4\n        /* \"#utility.yul\":1900:1956   */\n      tag_76\n      jump\t// in\n    tag_130:\n        /* \"#utility.yul\":1979:1986   */\n      dup1\n        /* \"#utility.yul\":2010:2011   */\n      0x00\n        /* \"#utility.yul\":1995:2279   */\n    tag_131:\n        /* \"#utility.yul\":2020:2026   */\n      dup4\n        /* \"#utility.yul\":2017:2018   */\n      dup2\n        /* \"#utility.yul\":2014:2027   */\n      lt\n        /* \"#utility.yul\":1995:2279   */\n      iszero\n      tag_133\n      jumpi\n        /* \"#utility.yul\":2096:2102   */\n      dup2\n        /* \"#utility.yul\":2090:2103   */\n      mload\n        /* \"#utility.yul\":2123:2186   */\n      tag_134\n        /* \"#utility.yul\":2182:2185   */\n      dup9\n        /* \"#utility.yul\":2167:2180   */\n      dup3\n        /* \"#utility.yul\":2123:2186   */\n      tag_80\n      jump\t// in\n    tag_134:\n        /* \"#utility.yul\":2116:2186   */\n      swap8\n      pop\n        /* \"#utility.yul\":2209:2269   */\n      tag_135\n        /* \"#utility.yul\":2262:2268   */\n      dup4\n        /* \"#utility.yul\":2209:2269   */\n      tag_81\n      jump\t// in\n    tag_135:\n        /* \"#utility.yul\":2199:2269   */\n      swap3\n      pop\n        /* \"#utility.yul\":2055:2279   */\n      pop\n        /* \"#utility.yul\":2042:2043   */\n      0x01\n        /* \"#utility.yul\":2039:2040   */\n      dup2\n        /* \"#utility.yul\":2035:2044   */\n      add\n        /* \"#utility.yul\":2030:2044   */\n      swap1\n      pop\n        /* \"#utility.yul\":1995:2279   */\n      jump(tag_131)\n    tag_133:\n        /* \"#utility.yul\":1999:2013   */\n      pop\n        /* \"#utility.yul\":2295:2298   */\n      dup6\n        /* \"#utility.yul\":2288:2298   */\n      swap4\n      pop\n        /* \"#utility.yul\":1696:2304   */\n      pop\n      pop\n      pop\n        /* \"#utility.yul\":1572:2304   */\n      swap3\n      swap2\n      pop\n      pop\n      jump\t// out\n        /* \"#utility.yul\":2310:2683   */\n    tag_20:\n        /* \"#utility.yul\":2453:2457   */\n      0x00\n        /* \"#utility.yul\":2491:2493   */\n      0x20\n        /* \"#utility.yul\":2480:2489   */\n      dup3\n        /* \"#utility.yul\":2476:2494   */\n      add\n        /* \"#utility.yul\":2468:2494   */\n      swap1\n      pop\n        /* \"#utility.yul\":2540:2549   */\n      dup2\n        /* \"#utility.yul\":2534:2538   */\n      dup2\n        /* \"#utility.yul\":2530:2550   */\n      sub\n        /* \"#utility.yul\":2526:2527   */\n      0x00\n        /* \"#utility.yul\":2515:2524   */\n      dup4\n        /* \"#utility.yul\":2511:2528   */\n      add\n        /* \"#utility.yul\":2504:2551   */\n      mstore\n        /* \"#utility.yul\":2568:2676   */\n      tag_137\n        /* \"#utility.yul\":2671:2675   */\n      dup2\n        /* \"#utility.yul\":2662:2668   */\n      dup5\n        /* \"#utility.yul\":2568:2676   */\n      tag_82\n      jump\t// in\n    tag_137:\n        /* \"#utility.yul\":2560:2676   */\n      swap1\n      pop\n        /* \"#utility.yul\":2310:2683   */\n      swap3\n      swap2\n      pop\n      pop\n      jump\t// out\n        /* \"#utility.yul\":2689:2807   */\n    tag_83:\n        /* \"#utility.yul\":2776:2800   */\n      tag_139\n        /* \"#utility.yul\":2794:2799   */\n      dup2\n        /* \"#utility.yul\":2776:2800   */\n      tag_78\n      jump\t// in\n    tag_139:\n        /* \"#utility.yul\":2771:2774   */\n      dup3\n        /* \"#utility.yul\":2764:2801   */\n      mstore\n        /* \"#utility.yul\":2689:2807   */\n      pop\n      pop\n      jump\t// out\n        /* \"#utility.yul\":2813:3035   */\n    tag_25:\n        /* \"#utility.yul\":2906:2910   */\n      0x00\n        /* \"#utility.yul\":2944:2946   */\n      0x20\n        /* \"#utility.yul\":2933:2942   */\n      dup3\n        /* \"#utility.yul\":2929:2947   */\n      add\n        /* \"#utility.yul\":2921:2947   */\n      swap1\n      pop\n        /* \"#utility.yul\":2957:3028   */\n      tag_141\n        /* \"#utility.yul\":3025:3026   */\n      0x00\n        /* \"#utility.yul\":3014:3023   */\n      dup4\n        /* \"#utility.yul\":3010:3027   */\n      add\n        /* \"#utility.yul\":3001:3007   */\n      dup5\n        /* \"#utility.yul\":2957:3028   */\n      tag_83\n      jump\t// in\n    tag_141:\n        /* \"#utility.yul\":2813:3035   */\n      swap3\n      swap2\n      pop\n      pop\n      jump\t// out\n        /* \"#utility.yul\":3122:3239   */\n    tag_85:\n        /* \"#utility.yul\":3231:3232   */\n      0x00\n        /* \"#utility.yul\":3228:3229   */\n      dup1\n        /* \"#utility.yul\":3221:3233   */\n      revert\n        /* \"#utility.yul\":3368:3490   */\n    tag_87:\n        /* \"#utility.yul\":3441:3465   */\n      tag_146\n        /* \"#utility.yul\":3459:3464   */\n      dup2\n        /* \"#utility.yul\":3441:3465   */\n      tag_72\n      jump\t// in\n    tag_146:\n        /* \"#utility.yul\":3434:3439   */\n      dup2\n        /* \"#utility.yul\":3431:3466   */\n      eq\n        /* \"#utility.yul\":3421:3484   */\n      tag_147\n      jumpi\n        /* \"#utility.yul\":3480:3481   */\n      0x00\n        /* \"#utility.yul\":3477:3478   */\n      dup1\n        /* \"#utility.yul\":3470:3482   */\n      revert\n        /* \"#utility.yul\":3421:3484   */\n    tag_147:\n        /* \"#utility.yul\":3368:3490   */\n      pop\n      jump\t// out\n        /* \"#utility.yul\":3496:3635   */\n    tag_88:\n        /* \"#utility.yul\":3542:3547   */\n      0x00\n        /* \"#utility.yul\":3580:3586   */\n      dup2\n        /* \"#utility.yul\":3567:3587   */\n      calldataload\n        /* \"#utility.yul\":3558:3587   */\n      swap1\n      pop\n        /* \"#utility.yul\":3596:3629   */\n      tag_149\n        /* \"#utility.yul\":3623:3628   */\n      dup2\n        /* \"#utility.yul\":3596:3629   */\n      tag_87\n      jump\t// in\n    tag_149:\n        /* \"#utility.yul\":3496:3635   */\n      swap3\n      swap2\n      pop\n      pop\n      jump\t// out\n        /* \"#utility.yul\":3641:3970   */\n    tag_31:\n        /* \"#utility.yul\":3700:3706   */\n      0x00\n        /* \"#utility.yul\":3749:3751   */\n      0x20\n        /* \"#utility.yul\":3737:3746   */\n      dup3\n        /* \"#utility.yul\":3728:3735   */\n      dup5\n        /* \"#utility.yul\":3724:3747   */\n      sub\n        /* \"#utility.yul\":3720:3752   */\n      slt\n        /* \"#utility.yul\":3717:3836   */\n      iszero\n      tag_151\n      jumpi\n        /* \"#utility.yul\":3755:3834   */\n      tag_152\n      tag_85\n      jump\t// in\n    tag_152:\n        /* \"#utility.yul\":3717:3836   */\n    tag_151:\n        /* \"#utility.yul\":3875:3876   */\n      0x00\n        /* \"#utility.yul\":3900:3953   */\n      tag_153\n        /* \"#utility.yul\":3945:3952   */\n      dup5\n        /* \"#utility.yul\":3936:3942   */\n      dup3\n        /* \"#utility.yul\":3925:3934   */\n      dup6\n        /* \"#utility.yul\":3921:3943   */\n      add\n        /* \"#utility.yul\":3900:3953   */\n      tag_88\n      jump\t// in\n    tag_153:\n        /* \"#utility.yul\":3890:3953   */\n      swap2\n      pop\n        /* \"#utility.yul\":3846:3963   */\n      pop\n        /* \"#utility.yul\":3641:3970   */\n      swap3\n      swap2\n      pop\n      pop\n      jump\t// out\n        /* \"#utility.yul\":3976:4145   */\n    tag_89:\n        /* \"#utility.yul\":4060:4071   */\n      0x00\n        /* \"#utility.yul\":4094:4100   */\n      dup3\n        /* \"#utility.yul\":4089:4092   */\n      dup3\n        /* \"#utility.yul\":4082:4101   */\n      mstore\n        /* \"#utility.yul\":4134:4138   */\n      0x20\n        /* \"#utility.yul\":4129:4132   */\n      dup3\n        /* \"#utility.yul\":4125:4139   */\n      add\n        /* \"#utility.yul\":4110:4139   */\n      swap1\n      pop\n        /* \"#utility.yul\":3976:4145   */\n      swap3\n      swap2\n      pop\n      pop\n      jump\t// out\n        /* \"#utility.yul\":4151:4333   */\n    tag_90:\n        /* \"#utility.yul\":4291:4325   */\n      0x4f6e6c7920746865206f776e65722063616e207069636b20612077696e6e6572\n        /* \"#utility.yul\":4287:4288   */\n      0x00\n        /* \"#utility.yul\":4279:4285   */\n      dup3\n        /* \"#utility.yul\":4275:4289   */\n      add\n        /* \"#utility.yul\":4268:4326   */\n      mstore\n        /* \"#utility.yul\":4151:4333   */\n      pop\n      jump\t// out\n        /* \"#utility.yul\":4339:4705   */\n    tag_91:\n        /* \"#utility.yul\":4481:4484   */\n      0x00\n        /* \"#utility.yul\":4502:4569   */\n      tag_157\n        /* \"#utility.yul\":4566:4568   */\n      0x20\n        /* \"#utility.yul\":4561:4564   */\n      dup4\n        /* \"#utility.yul\":4502:4569   */\n      tag_89\n      jump\t// in\n    tag_157:\n        /* \"#utility.yul\":4495:4569   */\n      swap2\n      pop\n        /* \"#utility.yul\":4578:4671   */\n      tag_158\n        /* \"#utility.yul\":4667:4670   */\n      dup3\n        /* \"#utility.yul\":4578:4671   */\n      tag_90\n      jump\t// in\n    tag_158:\n        /* \"#utility.yul\":4696:4698   */\n      0x20\n        /* \"#utility.yul\":4691:4694   */\n      dup3\n        /* \"#utility.yul\":4687:4699   */\n      add\n        /* \"#utility.yul\":4680:4699   */\n      swap1\n      pop\n        /* \"#utility.yul\":4339:4705   */\n      swap2\n      swap1\n      pop\n      jump\t// out\n        /* \"#utility.yul\":4711:5130   */\n    tag_38:\n        /* \"#utility.yul\":4877:4881   */\n      0x00\n        /* \"#utility.yul\":4915:4917   */\n      0x20\n        /* \"#utility.yul\":4904:4913   */\n      dup3\n        /* \"#utility.yul\":4900:4918   */\n      add\n        /* \"#utility.yul\":4892:4918   */\n      swap1\n      pop\n        /* \"#utility.yul\":4964:4973   */\n      dup2\n        /* \"#utility.yul\":4958:4962   */\n      dup2\n        /* \"#utility.yul\":4954:4974   */\n      sub\n        /* \"#utility.yul\":4950:4951   */\n      0x00\n        /* \"#utility.yul\":4939:4948   */\n      dup4\n        /* \"#utility.yul\":4935:4952   */\n      add\n        /* \"#utility.yul\":4928:4975   */\n      mstore\n        /* \"#utility.yul\":4992:5123   */\n      tag_160\n        /* \"#utility.yul\":5118:5122   */\n      dup2\n        /* \"#utility.yul\":4992:5123   */\n      tag_91\n      jump\t// in\n    tag_160:\n        /* \"#utility.yul\":4984:5123   */\n      swap1\n      pop\n        /* \"#utility.yul\":4711:5130   */\n      swap2\n      swap1\n      pop\n      jump\t// out\n        /* \"#utility.yul\":5136:5311   */\n    tag_92:\n        /* \"#utility.yul\":5276:5303   */\n      0x4e6f20706c617965727320696e20746865206c6f747465727900000000000000\n        /* \"#utility.yul\":5272:5273   */\n      0x00\n        /* \"#utility.yul\":5264:5270   */\n      dup3\n        /* \"#utility.yul\":5260:5274   */\n      add\n        /* \"#utility.yul\":5253:5304   */\n      mstore\n        /* \"#utility.yul\":5136:5311   */\n      pop\n      jump\t// out\n        /* \"#utility.yul\":5317:5683   */\n    tag_93:\n        /* \"#utility.yul\":5459:5462   */\n      0x00\n        /* \"#utility.yul\":5480:5547   */\n      tag_163\n        /* \"#utility.yul\":5544:5546   */\n      0x19\n        /* \"#utility.yul\":5539:5542   */\n      dup4\n        /* \"#utility.yul\":5480:5547   */\n      tag_89\n      jump\t// in\n    tag_163:\n        /* \"#utility.yul\":5473:5547   */\n      swap2\n      pop\n        /* \"#utility.yul\":5556:5649   */\n      tag_164\n        /* \"#utility.yul\":5645:5648   */\n      dup3\n        /* \"#utility.yul\":5556:5649   */\n      tag_92\n      jump\t// in\n    tag_164:\n        /* \"#utility.yul\":5674:5676   */\n      0x20\n        /* \"#utility.yul\":5669:5672   */\n      dup3\n        /* \"#utility.yul\":5665:5677   */\n      add\n        /* \"#utility.yul\":5658:5677   */\n      swap1\n      pop\n        /* \"#utility.yul\":5317:5683   */\n      swap2\n      swap1\n      pop\n      jump\t// out\n        /* \"#utility.yul\":5689:6108   */\n    tag_41:\n        /* \"#utility.yul\":5855:5859   */\n      0x00\n        /* \"#utility.yul\":5893:5895   */\n      0x20\n        /* \"#utility.yul\":5882:5891   */\n      dup3\n        /* \"#utility.yul\":5878:5896   */\n      add\n        /* \"#utility.yul\":5870:5896   */\n      swap1\n      pop\n        /* \"#utility.yul\":5942:5951   */\n      dup2\n        /* \"#utility.yul\":5936:5940   */\n      dup2\n        /* \"#utility.yul\":5932:5952   */\n      sub\n        /* \"#utility.yul\":5928:5929   */\n      0x00\n        /* \"#utility.yul\":5917:5926   */\n      dup4\n        /* \"#utility.yul\":5913:5930   */\n      add\n        /* \"#utility.yul\":5906:5953   */\n      mstore\n        /* \"#utility.yul\":5970:6101   */\n      tag_166\n        /* \"#utility.yul\":6096:6100   */\n      dup2\n        /* \"#utility.yul\":5970:6101   */\n      tag_93\n      jump\t// in\n    tag_166:\n        /* \"#utility.yul\":5962:6101   */\n      swap1\n      pop\n        /* \"#utility.yul\":5689:6108   */\n      swap2\n      swap1\n      pop\n      jump\t// out\n        /* \"#utility.yul\":6114:6294   */\n    tag_94:\n        /* \"#utility.yul\":6162:6239   */\n      0x4e487b7100000000000000000000000000000000000000000000000000000000\n        /* \"#utility.yul\":6159:6160   */\n      0x00\n        /* \"#utility.yul\":6152:6240   */\n      mstore\n        /* \"#utility.yul\":6259:6263   */\n      0x12\n        /* \"#utility.yul\":6256:6257   */\n      0x04\n        /* \"#utility.yul\":6249:6264   */\n      mstore\n        /* \"#utility.yul\":6283:6287   */\n      0x24\n        /* \"#utility.yul\":6280:6281   */\n      0x00\n        /* \"#utility.yul\":6273:6288   */\n      revert\n        /* \"#utility.yul\":6300:6476   */\n    tag_45:\n        /* \"#utility.yul\":6332:6333   */\n      0x00\n        /* \"#utility.yul\":6349:6369   */\n      tag_169\n        /* \"#utility.yul\":6367:6368   */\n      dup3\n        /* \"#utility.yul\":6349:6369   */\n      tag_72\n      jump\t// in\n    tag_169:\n        /* \"#utility.yul\":6344:6369   */\n      swap2\n      pop\n        /* \"#utility.yul\":6383:6403   */\n      tag_170\n        /* \"#utility.yul\":6401:6402   */\n      dup4\n        /* \"#utility.yul\":6383:6403   */\n      tag_72\n      jump\t// in\n    tag_170:\n        /* \"#utility.yul\":6378:6403   */\n      swap3\n      pop\n        /* \"#utility.yul\":6422:6423   */\n      dup3\n        /* \"#utility.yul\":6412:6447   */\n      tag_171\n      jumpi\n        /* \"#utility.yul\":6427:6445   */\n      tag_172\n      tag_94\n      jump\t// in\n    tag_172:\n        /* \"#utility.yul\":6412:6447   */\n    tag_171:\n        /* \"#utility.yul\":6468:6469   */\n      dup3\n        /* \"#utility.yul\":6465:6466   */\n      dup3\n        /* \"#utility.yul\":6461:6470   */\n      mod\n        /* \"#utility.yul\":6456:6470   */\n      swap1\n      pop\n        /* \"#utility.yul\":6300:6476   */\n      swap3\n      swap2\n      pop\n      pop\n      jump\t// out\n        /* \"#utility.yul\":6482:6662   */\n    tag_48:\n        /* \"#utility.yul\":6530:6607   */\n      0x4e487b7100000000000000000000000000000000000000000000000000000000\n        /* \"#utility.yul\":6527:6528   */\n      0x00\n        /* \"#utility.yul\":6520:6608   */\n      mstore\n        /* \"#utility.yul\":6627:6631   */\n      0x32\n        /* \"#utility.yul\":6624:6625   */\n      0x04\n        /* \"#utility.yul\":6617:6632   */\n      mstore\n        /* \"#utility.yul\":6651:6655   */\n      0x24\n        /* \"#utility.yul\":6648:6649   */\n      0x00\n        /* \"#utility.yul\":6641:6656   */\n      revert\n        /* \"#utility.yul\":6668:6897   */\n    tag_95:\n        /* \"#utility.yul\":6808:6842   */\n      0x596f75206d7573742073656e642065786163746c7920312045544820746f2070\n        /* \"#utility.yul\":6804:6805   */\n      0x00\n        /* \"#utility.yul\":6796:6802   */\n      dup3\n        /* \"#utility.yul\":6792:6806   */\n      add\n        /* \"#utility.yul\":6785:6843   */\n      mstore\n        /* \"#utility.yul\":6877:6889   */\n      0x6172746963697061746500000000000000000000000000000000000000000000\n        /* \"#utility.yul\":6872:6874   */\n      0x20\n        /* \"#utility.yul\":6864:6870   */\n      dup3\n        /* \"#utility.yul\":6860:6875   */\n      add\n        /* \"#utility.yul\":6853:6890   */\n      mstore\n        /* \"#utility.yul\":6668:6897   */\n      pop\n      jump\t// out\n        /* \"#utility.yul\":6903:7269   */\n    tag_96:\n        /* \"#utility.yul\":7045:7048   */\n      0x00\n        /* \"#utility.yul\":7066:7133   */\n      tag_176\n        /* \"#utility.yul\":7130:7132   */\n      0x2a\n        /* \"#utility.yul\":7125:7128   */\n      dup4\n        /* \"#utility.yul\":7066:7133   */\n      tag_89\n      jump\t// in\n    tag_176:\n        /* \"#utility.yul\":7059:7133   */\n      swap2\n      pop\n        /* \"#utility.yul\":7142:7235   */\n      tag_177\n        /* \"#utility.yul\":7231:7234   */\n      dup3\n        /* \"#utility.yul\":7142:7235   */\n      tag_95\n      jump\t// in\n    tag_177:\n        /* \"#utility.yul\":7260:7262   */\n      0x40\n        /* \"#utility.yul\":7255:7258   */\n      dup3\n        /* \"#utility.yul\":7251:7263   */\n      add\n        /* \"#utility.yul\":7244:7263   */\n      swap1\n      pop\n        /* \"#utility.yul\":6903:7269   */\n      swap2\n      swap1\n      pop\n      jump\t// out\n        /* \"#utility.yul\":7275:7694   */\n    tag_60:\n        /* \"#utility.yul\":7441:7445   */\n      0x00\n        /* \"#utility.yul\":7479:7481   */\n      0x20\n        /* \"#utility.yul\":7468:7477   */\n      dup3\n        /* \"#utility.yul\":7464:7482   */\n      add\n        /* \"#utility.yul\":7456:7482   */\n      swap1\n      pop\n        /* \"#utility.yul\":7528:7537   */\n      dup2\n        /* \"#utility.yul\":7522:7526   */\n      dup2\n        /* \"#utility.yul\":7518:7538   */\n      sub\n        /* \"#utility.yul\":7514:7515   */\n      0x00\n        /* \"#utility.yul\":7503:7512   */\n      dup4\n        /* \"#utility.yul\":7499:7516   */\n      add\n        /* \"#utility.yul\":7492:7539   */\n      mstore\n        /* \"#utility.yul\":7556:7687   */\n      tag_179\n        /* \"#utility.yul\":7682:7686   */\n      dup2\n        /* \"#utility.yul\":7556:7687   */\n      tag_96\n      jump\t// in\n    tag_179:\n        /* \"#utility.yul\":7548:7687   */\n      swap1\n      pop\n        /* \"#utility.yul\":7275:7694   */\n      swap2\n      swap1\n      pop\n      jump\t// out\n        /* \"#utility.yul\":7700:7779   */\n    tag_97:\n        /* \"#utility.yul\":7739:7746   */\n      0x00\n        /* \"#utility.yul\":7768:7773   */\n      dup2\n        /* \"#utility.yul\":7757:7773   */\n      swap1\n      pop\n        /* \"#utility.yul\":7700:7779   */\n      swap2\n      swap1\n      pop\n      jump\t// out\n        /* \"#utility.yul\":7785:7942   */\n    tag_98:\n        /* \"#utility.yul\":7890:7935   */\n      tag_182\n        /* \"#utility.yul\":7910:7934   */\n      tag_183\n        /* \"#utility.yul\":7928:7933   */\n      dup3\n        /* \"#utility.yul\":7910:7934   */\n      tag_72\n      jump\t// in\n    tag_183:\n        /* \"#utility.yul\":7890:7935   */\n      tag_97\n      jump\t// in\n    tag_182:\n        /* \"#utility.yul\":7885:7888   */\n      dup3\n        /* \"#utility.yul\":7878:7936   */\n      mstore\n        /* \"#utility.yul\":7785:7942   */\n      pop\n      pop\n      jump\t// out\n        /* \"#utility.yul\":7948:8059   */\n    tag_99:\n        /* \"#utility.yul\":8012:8018   */\n      0x00\n        /* \"#utility.yul\":8046:8051   */\n      dup2\n        /* \"#utility.yul\":8040:8052   */\n      sload\n        /* \"#utility.yul\":8030:8052   */\n      swap1\n      pop\n        /* \"#utility.yul\":7948:8059   */\n      swap2\n      swap1\n      pop\n      jump\t// out\n        /* \"#utility.yul\":8065:8228   */\n    tag_100:\n        /* \"#utility.yul\":8182:8193   */\n      0x00\n        /* \"#utility.yul\":8219:8222   */\n      dup2\n        /* \"#utility.yul\":8204:8222   */\n      swap1\n      pop\n        /* \"#utility.yul\":8065:8228   */\n      swap3\n      swap2\n      pop\n      pop\n      jump\t// out\n        /* \"#utility.yul\":8234:8390   */\n    tag_101:\n        /* \"#utility.yul\":8298:8302   */\n      0x00\n        /* \"#utility.yul\":8321:8324   */\n      dup2\n        /* \"#utility.yul\":8313:8324   */\n      swap1\n      pop\n        /* \"#utility.yul\":8344:8347   */\n      dup2\n        /* \"#utility.yul\":8341:8342   */\n      0x00\n        /* \"#utility.yul\":8334:8348   */\n      mstore\n        /* \"#utility.yul\":8378:8382   */\n      0x20\n        /* \"#utility.yul\":8375:8376   */\n      0x00\n        /* \"#utility.yul\":8365:8383   */\n      keccak256\n        /* \"#utility.yul\":8357:8383   */\n      swap1\n      pop\n        /* \"#utility.yul\":8234:8390   */\n      swap2\n      swap1\n      pop\n      jump\t// out\n        /* \"#utility.yul\":8396:8512   */\n    tag_102:\n        /* \"#utility.yul\":8481:8505   */\n      tag_188\n        /* \"#utility.yul\":8499:8504   */\n      dup2\n        /* \"#utility.yul\":8481:8505   */\n      tag_78\n      jump\t// in\n    tag_188:\n        /* \"#utility.yul\":8476:8479   */\n      dup3\n        /* \"#utility.yul\":8469:8506   */\n      mstore\n        /* \"#utility.yul\":8396:8512   */\n      pop\n      pop\n      jump\t// out\n        /* \"#utility.yul\":8518:8713   */\n    tag_103:\n        /* \"#utility.yul\":8595:8605   */\n      0x00\n        /* \"#utility.yul\":8616:8670   */\n      tag_190\n        /* \"#utility.yul\":8666:8669   */\n      dup4\n        /* \"#utility.yul\":8658:8664   */\n      dup4\n        /* \"#utility.yul\":8616:8670   */\n      tag_102\n      jump\t// in\n    tag_190:\n        /* \"#utility.yul\":8702:8706   */\n      0x20\n        /* \"#utility.yul\":8697:8700   */\n      dup4\n        /* \"#utility.yul\":8693:8707   */\n      add\n        /* \"#utility.yul\":8679:8707   */\n      swap1\n      pop\n        /* \"#utility.yul\":8518:8713   */\n      swap3\n      swap2\n      pop\n      pop\n      jump\t// out\n        /* \"#utility.yul\":8719:8821   */\n    tag_104:\n        /* \"#utility.yul\":8761:8769   */\n      0x00\n        /* \"#utility.yul\":8808:8813   */\n      dup2\n        /* \"#utility.yul\":8805:8806   */\n      0x00\n        /* \"#utility.yul\":8801:8814   */\n      shr\n        /* \"#utility.yul\":8780:8814   */\n      swap1\n      pop\n        /* \"#utility.yul\":8719:8821   */\n      swap2\n      swap1\n      pop\n      jump\t// out\n        /* \"#utility.yul\":8827:8966   */\n    tag_105:\n        /* \"#utility.yul\":8877:8884   */\n      0x00\n        /* \"#utility.yul\":8917:8959   */\n      0xffffffffffffffffffffffffffffffffffffffff\n        /* \"#utility.yul\":8910:8915   */\n      dup3\n        /* \"#utility.yul\":8906:8960   */\n      and\n        /* \"#utility.yul\":8895:8960   */\n      swap1\n      pop\n        /* \"#utility.yul\":8827:8966   */\n      swap2\n      swap1\n      pop\n      jump\t// out\n        /* \"#utility.yul\":8972:9138   */\n    tag_106:\n        /* \"#utility.yul\":9041:9046   */\n      0x00\n        /* \"#utility.yul\":9066:9132   */\n      tag_194\n        /* \"#utility.yul\":9097:9131   */\n      tag_195\n        /* \"#utility.yul\":9120:9130   */\n      dup4\n        /* \"#utility.yul\":9097:9131   */\n      tag_104\n      jump\t// in\n    tag_195:\n        /* \"#utility.yul\":9066:9132   */\n      tag_105\n      jump\t// in\n    tag_194:\n        /* \"#utility.yul\":9057:9132   */\n      swap1\n      pop\n        /* \"#utility.yul\":8972:9138   */\n      swap2\n      swap1\n      pop\n      jump\t// out\n        /* \"#utility.yul\":9144:9288   */\n    tag_107:\n        /* \"#utility.yul\":9199:9204   */\n      0x00\n        /* \"#utility.yul\":9224:9281   */\n      tag_197\n        /* \"#utility.yul\":9275:9279   */\n      dup3\n        /* \"#utility.yul\":9269:9280   */\n      sload\n        /* \"#utility.yul\":9224:9281   */\n      tag_106\n      jump\t// in\n    tag_197:\n        /* \"#utility.yul\":9215:9281   */\n      swap1\n      pop\n        /* \"#utility.yul\":9144:9288   */\n      swap2\n      swap1\n      pop\n      jump\t// out\n        /* \"#utility.yul\":9294:9404   */\n    tag_108:\n        /* \"#utility.yul\":9361:9365   */\n      0x00\n        /* \"#utility.yul\":9393:9397   */\n      0x01\n        /* \"#utility.yul\":9388:9391   */\n      dup3\n        /* \"#utility.yul\":9384:9398   */\n      add\n        /* \"#utility.yul\":9376:9398   */\n      swap1\n      pop\n        /* \"#utility.yul\":9294:9404   */\n      swap2\n      swap1\n      pop\n      jump\t// out\n        /* \"#utility.yul\":9440:10235   */\n    tag_109:\n        /* \"#utility.yul\":9574:9577   */\n      0x00\n        /* \"#utility.yul\":9603:9654   */\n      tag_200\n        /* \"#utility.yul\":9648:9653   */\n      dup3\n        /* \"#utility.yul\":9603:9654   */\n      tag_99\n      jump\t// in\n    tag_200:\n        /* \"#utility.yul\":9670:9774   */\n      tag_201\n        /* \"#utility.yul\":9767:9773   */\n      dup2\n        /* \"#utility.yul\":9762:9765   */\n      dup6\n        /* \"#utility.yul\":9670:9774   */\n      tag_100\n      jump\t// in\n    tag_201:\n        /* \"#utility.yul\":9663:9774   */\n      swap4\n      pop\n        /* \"#utility.yul\":9798:9851   */\n      tag_202\n        /* \"#utility.yul\":9845:9850   */\n      dup4\n        /* \"#utility.yul\":9798:9851   */\n      tag_101\n      jump\t// in\n    tag_202:\n        /* \"#utility.yul\":9874:9881   */\n      dup1\n        /* \"#utility.yul\":9905:9906   */\n      0x00\n        /* \"#utility.yul\":9890:10210   */\n    tag_203:\n        /* \"#utility.yul\":9915:9921   */\n      dup4\n        /* \"#utility.yul\":9912:9913   */\n      dup2\n        /* \"#utility.yul\":9909:9922   */\n      lt\n        /* \"#utility.yul\":9890:10210   */\n      iszero\n      tag_205\n      jumpi\n        /* \"#utility.yul\":9985:10029   */\n      tag_206\n        /* \"#utility.yul\":10022:10028   */\n      dup3\n        /* \"#utility.yul\":9985:10029   */\n      tag_107\n      jump\t// in\n    tag_206:\n        /* \"#utility.yul\":10049:10120   */\n      tag_207\n        /* \"#utility.yul\":10116:10119   */\n      dup9\n        /* \"#utility.yul\":10101:10114   */\n      dup3\n        /* \"#utility.yul\":10049:10120   */\n      tag_103\n      jump\t// in\n    tag_207:\n        /* \"#utility.yul\":10042:10120   */\n      swap8\n      pop\n        /* \"#utility.yul\":10143:10200   */\n      tag_208\n        /* \"#utility.yul\":10193:10199   */\n      dup4\n        /* \"#utility.yul\":10143:10200   */\n      tag_108\n      jump\t// in\n    tag_208:\n        /* \"#utility.yul\":10133:10200   */\n      swap3\n      pop\n        /* \"#utility.yul\":9950:10210   */\n      pop\n        /* \"#utility.yul\":9937:9938   */\n      0x01\n        /* \"#utility.yul\":9934:9935   */\n      dup2\n        /* \"#utility.yul\":9930:9939   */\n      add\n        /* \"#utility.yul\":9925:9939   */\n      swap1\n      pop\n        /* \"#utility.yul\":9890:10210   */\n      jump(tag_203)\n    tag_205:\n        /* \"#utility.yul\":9894:9908   */\n      pop\n        /* \"#utility.yul\":10226:10229   */\n      dup6\n        /* \"#utility.yul\":10219:10229   */\n      swap4\n      pop\n        /* \"#utility.yul\":9579:10235   */\n      pop\n      pop\n      pop\n        /* \"#utility.yul\":9440:10235   */\n      swap3\n      swap2\n      pop\n      pop\n      jump\t// out\n        /* \"#utility.yul\":10241:10852   */\n    tag_66:\n        /* \"#utility.yul\":10456:10459   */\n      0x00\n        /* \"#utility.yul\":10471:10546   */\n      tag_210\n        /* \"#utility.yul\":10542:10545   */\n      dup3\n        /* \"#utility.yul\":10533:10539   */\n      dup7\n        /* \"#utility.yul\":10471:10546   */\n      tag_98\n      jump\t// in\n    tag_210:\n        /* \"#utility.yul\":10571:10573   */\n      0x20\n        /* \"#utility.yul\":10566:10569   */\n      dup3\n        /* \"#utility.yul\":10562:10574   */\n      add\n        /* \"#utility.yul\":10555:10574   */\n      swap2\n      pop\n        /* \"#utility.yul\":10584:10659   */\n      tag_211\n        /* \"#utility.yul\":10655:10658   */\n      dup3\n        /* \"#utility.yul\":10646:10652   */\n      dup6\n        /* \"#utility.yul\":10584:10659   */\n      tag_98\n      jump\t// in\n    tag_211:\n        /* \"#utility.yul\":10684:10686   */\n      0x20\n        /* \"#utility.yul\":10679:10682   */\n      dup3\n        /* \"#utility.yul\":10675:10687   */\n      add\n        /* \"#utility.yul\":10668:10687   */\n      swap2\n      pop\n        /* \"#utility.yul\":10704:10826   */\n      tag_212\n        /* \"#utility.yul\":10822:10825   */\n      dup3\n        /* \"#utility.yul\":10813:10819   */\n      dup5\n        /* \"#utility.yul\":10704:10826   */\n      tag_109\n      jump\t// in\n    tag_212:\n        /* \"#utility.yul\":10697:10826   */\n      swap2\n      pop\n        /* \"#utility.yul\":10843:10846   */\n      dup2\n        /* \"#utility.yul\":10836:10846   */\n      swap1\n      pop\n        /* \"#utility.yul\":10241:10852   */\n      swap5\n      swap4\n      pop\n      pop\n      pop\n      pop\n      jump\t// out\n\n    auxdata: 0xa26469706673582212204ab780030811de4ef3d844f931432fabdc38b8d6cfc1d9da2ded2f85ae0dfd1564736f6c634300081a0033\n}\n",
				"bytecode": {
					"linkReferences": {},
					"object": "6080604052348015600e575f80fd5b503360015f6101000a81548173ffffffffffffffffffffffffffffffffffffffff021916908373ffffffffffffffffffffffffffffffffffffffff160217905550610a098061005c5f395ff3fe608060405260043610610054575f3560e01c806312065fe0146100585780635d495aea146100825780638b5b9ccc146100985780638da5cb5b146100c2578063e97dcb62146100ec578063f71d96cb146100f6575b5f80fd5b348015610063575f80fd5b5061006c610132565b60405161007991906104d2565b60405180910390f35b34801561008d575f80fd5b50610096610139565b005b3480156100a3575f80fd5b506100ac6102ba565b6040516100b991906105d2565b60405180910390f35b3480156100cd575f80fd5b506100d6610344565b6040516100e39190610601565b60405180910390f35b6100f4610369565b005b348015610101575f80fd5b5061011c60048036038101906101179190610648565b610414565b6040516101299190610601565b60405180910390f35b5f47905090565b60015f9054906101000a900473ffffffffffffffffffffffffffffffffffffffff1673ffffffffffffffffffffffffffffffffffffffff163373ffffffffffffffffffffffffffffffffffffffff16146101c8576040517f08c379a00000000000000000000000000000000000000000000000000000000081526004016101bf906106cd565b60405180910390fd5b5f80805490501161020e576040517f08c379a000000000000000000000000000000000000000000000000000000000815260040161020590610735565b60405180910390fd5b5f808054905061021c61044e565b6102269190610780565b90505f80828154811061023c5761023b6107b0565b5b905f5260205f20015f9054906101000a900473ffffffffffffffffffffffffffffffffffffffff1690508073ffffffffffffffffffffffffffffffffffffffff166108fc4790811502906040515f60405180830381858888f193505050501580156102a9573d5f803e3d5ffd5b505f806102b69190610481565b5050565b60605f80548060200260200160405190810160405280929190818152602001828054801561033a57602002820191905f5260205f20905b815f9054906101000a900473ffffffffffffffffffffffffffffffffffffffff1673ffffffffffffffffffffffffffffffffffffffff16815260200190600101908083116102f1575b5050505050905090565b60015f9054906101000a900473ffffffffffffffffffffffffffffffffffffffff1681565b670de0b6b3a764000034146103b3576040517f08c379a00000000000000000000000000000000000000000000000000000000081526004016103aa9061084d565b60405180910390fd5b5f33908060018154018082558091505060019003905f5260205f20015f9091909190916101000a81548173ffffffffffffffffffffffffffffffffffffffff021916908373ffffffffffffffffffffffffffffffffffffffff160217905550565b5f8181548110610422575f80fd5b905f5260205f20015f915054906101000a900473ffffffffffffffffffffffffffffffffffffffff1681565b5f42445f6040516020016104649392919061099b565b604051602081830303815290604052805190602001205f1c905090565b5080545f8255905f5260205f209081019061049c919061049f565b50565b5b808211156104b6575f815f9055506001016104a0565b5090565b5f819050919050565b6104cc816104ba565b82525050565b5f6020820190506104e55f8301846104c3565b92915050565b5f81519050919050565b5f82825260208201905092915050565b5f819050602082019050919050565b5f73ffffffffffffffffffffffffffffffffffffffff82169050919050565b5f61053d82610514565b9050919050565b61054d81610533565b82525050565b5f61055e8383610544565b60208301905092915050565b5f602082019050919050565b5f610580826104eb565b61058a81856104f5565b935061059583610505565b805f5b838110156105c55781516105ac8882610553565b97506105b78361056a565b925050600181019050610598565b5085935050505092915050565b5f6020820190508181035f8301526105ea8184610576565b905092915050565b6105fb81610533565b82525050565b5f6020820190506106145f8301846105f2565b92915050565b5f80fd5b610627816104ba565b8114610631575f80fd5b50565b5f813590506106428161061e565b92915050565b5f6020828403121561065d5761065c61061a565b5b5f61066a84828501610634565b91505092915050565b5f82825260208201905092915050565b7f4f6e6c7920746865206f776e65722063616e207069636b20612077696e6e65725f82015250565b5f6106b7602083610673565b91506106c282610683565b602082019050919050565b5f6020820190508181035f8301526106e4816106ab565b9050919050565b7f4e6f20706c617965727320696e20746865206c6f7474657279000000000000005f82015250565b5f61071f601983610673565b915061072a826106eb565b602082019050919050565b5f6020820190508181035f83015261074c81610713565b9050919050565b7f4e487b71000000000000000000000000000000000000000000000000000000005f52601260045260245ffd5b5f61078a826104ba565b9150610795836104ba565b9250826107a5576107a4610753565b5b828206905092915050565b7f4e487b71000000000000000000000000000000000000000000000000000000005f52603260045260245ffd5b7f596f75206d7573742073656e642065786163746c7920312045544820746f20705f8201527f6172746963697061746500000000000000000000000000000000000000000000602082015250565b5f610837602a83610673565b9150610842826107dd565b604082019050919050565b5f6020820190508181035f8301526108648161082b565b9050919050565b5f819050919050565b610885610880826104ba565b61086b565b82525050565b5f81549050919050565b5f81905092915050565b5f819050815f5260205f209050919050565b6108ba81610533565b82525050565b5f6108cb83836108b1565b60208301905092915050565b5f815f1c9050919050565b5f73ffffffffffffffffffffffffffffffffffffffff82169050919050565b5f61091361090e836108d7565b6108e2565b9050919050565b5f6109258254610901565b9050919050565b5f600182019050919050565b5f6109428261088b565b61094c8185610895565b93506109578361089f565b805f5b8381101561098e5761096b8261091a565b61097588826108c0565b97506109808361092c565b92505060018101905061095a565b5085935050505092915050565b5f6109a68286610874565b6020820191506109b68285610874565b6020820191506109c68284610938565b915081905094935050505056fea26469706673582212204ab780030811de4ef3d844f931432fabdc38b8d6cfc1d9da2ded2f85ae0dfd1564736f6c634300081a0033",
					"opcodes": "PUSH1 0x80 PUSH1 0x40 MSTORE CALLVALUE DUP1 ISZERO PUSH1 0xE JUMPI PUSH0 DUP1 REVERT JUMPDEST POP CALLER PUSH1 0x1 PUSH0 PUSH2 0x100 EXP DUP2 SLOAD DUP2 PUSH20 0xFFFFFFFFFFFFFFFFFFFFFFFFFFFFFFFFFFFFFFFF MUL NOT AND SWAP1 DUP4 PUSH20 0xFFFFFFFFFFFFFFFFFFFFFFFFFFFFFFFFFFFFFFFF AND MUL OR SWAP1 SSTORE POP PUSH2 0xA09 DUP1 PUSH2 0x5C PUSH0 CODECOPY PUSH0 RETURN INVALID PUSH1 0x80 PUSH1 0x40 MSTORE PUSH1 0x4 CALLDATASIZE LT PUSH2 0x54 JUMPI PUSH0 CALLDATALOAD PUSH1 0xE0 SHR DUP1 PUSH4 0x12065FE0 EQ PUSH2 0x58 JUMPI DUP1 PUSH4 0x5D495AEA EQ PUSH2 0x82 JUMPI DUP1 PUSH4 0x8B5B9CCC EQ PUSH2 0x98 JUMPI DUP1 PUSH4 0x8DA5CB5B EQ PUSH2 0xC2 JUMPI DUP1 PUSH4 0xE97DCB62 EQ PUSH2 0xEC JUMPI DUP1 PUSH4 0xF71D96CB EQ PUSH2 0xF6 JUMPI JUMPDEST PUSH0 DUP1 REVERT JUMPDEST CALLVALUE DUP1 ISZERO PUSH2 0x63 JUMPI PUSH0 DUP1 REVERT JUMPDEST POP PUSH2 0x6C PUSH2 0x132 JUMP JUMPDEST PUSH1 0x40 MLOAD PUSH2 0x79 SWAP2 SWAP1 PUSH2 0x4D2 JUMP JUMPDEST PUSH1 0x40 MLOAD DUP1 SWAP2 SUB SWAP1 RETURN JUMPDEST CALLVALUE DUP1 ISZERO PUSH2 0x8D JUMPI PUSH0 DUP1 REVERT JUMPDEST POP PUSH2 0x96 PUSH2 0x139 JUMP JUMPDEST STOP JUMPDEST CALLVALUE DUP1 ISZERO PUSH2 0xA3 JUMPI PUSH0 DUP1 REVERT JUMPDEST POP PUSH2 0xAC PUSH2 0x2BA JUMP JUMPDEST PUSH1 0x40 MLOAD PUSH2 0xB9 SWAP2 SWAP1 PUSH2 0x5D2 JUMP JUMPDEST PUSH1 0x40 MLOAD DUP1 SWAP2 SUB SWAP1 RETURN JUMPDEST CALLVALUE DUP1 ISZERO PUSH2 0xCD JUMPI PUSH0 DUP1 REVERT JUMPDEST POP PUSH2 0xD6 PUSH2 0x344 JUMP JUMPDEST PUSH1 0x40 MLOAD PUSH2 0xE3 SWAP2 SWAP1 PUSH2 0x601 JUMP JUMPDEST PUSH1 0x40 MLOAD DUP1 SWAP2 SUB SWAP1 RETURN JUMPDEST PUSH2 0xF4 PUSH2 0x369 JUMP JUMPDEST STOP JUMPDEST CALLVALUE DUP1 ISZERO PUSH2 0x101 JUMPI PUSH0 DUP1 REVERT JUMPDEST POP PUSH2 0x11C PUSH1 0x4 DUP1 CALLDATASIZE SUB DUP2 ADD SWAP1 PUSH2 0x117 SWAP2 SWAP1 PUSH2 0x648 JUMP JUMPDEST PUSH2 0x414 JUMP JUMPDEST PUSH1 0x40 MLOAD PUSH2 0x129 SWAP2 SWAP1 PUSH2 0x601 JUMP JUMPDEST PUSH1 0x40 MLOAD DUP1 SWAP2 SUB SWAP1 RETURN JUMPDEST PUSH0 SELFBALANCE SWAP1 POP SWAP1 JUMP JUMPDEST PUSH1 0x1 PUSH0 SWAP1 SLOAD SWAP1 PUSH2 0x100 EXP SWAP1 DIV PUSH20 0xFFFFFFFFFFFFFFFFFFFFFFFFFFFFFFFFFFFFFFFF AND PUSH20 0xFFFFFFFFFFFFFFFFFFFFFFFFFFFFFFFFFFFFFFFF AND CALLER PUSH20 0xFFFFFFFFFFFFFFFFFFFFFFFFFFFFFFFFFFFFFFFF AND EQ PUSH2 0x1C8 JUMPI PUSH1 0x40 MLOAD PUSH32 0x8C379A000000000000000000000000000000000000000000000000000000000 DUP2 MSTORE PUSH1 0x4 ADD PUSH2 0x1BF SWAP1 PUSH2 0x6CD JUMP JUMPDEST PUSH1 0x40 MLOAD DUP1 SWAP2 SUB SWAP1 REVERT JUMPDEST PUSH0 DUP1 DUP1 SLOAD SWAP1 POP GT PUSH2 0x20E JUMPI PUSH1 0x40 MLOAD PUSH32 0x8C379A000000000000000000000000000000000000000000000000000000000 DUP2 MSTORE PUSH1 0x4 ADD PUSH2 0x205 SWAP1 PUSH2 0x735 JUMP JUMPDEST PUSH1 0x40 MLOAD DUP1 SWAP2 SUB SWAP1 REVERT JUMPDEST PUSH0 DUP1 DUP1 SLOAD SWAP1 POP PUSH2 0x21C PUSH2 0x44E JUMP JUMPDEST PUSH2 0x226 SWAP2 SWAP1 PUSH2 0x780 JUMP JUMPDEST SWAP1 POP PUSH0 DUP1 DUP3 DUP2 SLOAD DUP2 LT PUSH2 0x23C JUMPI PUSH2 0x23B PUSH2 0x7B0 JUMP JUMPDEST JUMPDEST SWAP1 PUSH0 MSTORE PUSH1 0x20 PUSH0 KECCAK256 ADD PUSH0 SWAP1 SLOAD SWAP1 PUSH2 0x100 EXP SWAP1 DIV PUSH20 0xFFFFFFFFFFFFFFFFFFFFFFFFFFFFFFFFFFFFFFFF AND SWAP1 POP DUP1 PUSH20 0xFFFFFFFFFFFFFFFFFFFFFFFFFFFFFFFFFFFFFFFF AND PUSH2 0x8FC SELFBALANCE SWAP1 DUP2 ISZERO MUL SWAP1 PUSH1 0x40 MLOAD PUSH0 PUSH1 0x40 MLOAD DUP1 DUP4 SUB DUP2 DUP6 DUP9 DUP9 CALL SWAP4 POP POP POP POP ISZERO DUP1 ISZERO PUSH2 0x2A9 JUMPI RETURNDATASIZE PUSH0 DUP1 RETURNDATACOPY RETURNDATASIZE PUSH0 REVERT JUMPDEST POP PUSH0 DUP1 PUSH2 0x2B6 SWAP2 SWAP1 PUSH2 0x481 JUMP JUMPDEST POP POP JUMP JUMPDEST PUSH1 0x60 PUSH0 DUP1 SLOAD DUP1 PUSH1 0x20 MUL PUSH1 0x20 ADD PUSH1 0x40 MLOAD SWAP1 DUP2 ADD PUSH1 0x40 MSTORE DUP1 SWAP3 SWAP2 SWAP1 DUP2 DUP2 MSTORE PUSH1 0x20 ADD DUP3 DUP1 SLOAD DUP1 ISZERO PUSH2 0x33A JUMPI PUSH1 0x20 MUL DUP3 ADD SWAP2 SWAP1 PUSH0 MSTORE PUSH1 0x20 PUSH0 KECCAK256 SWAP1 JUMPDEST DUP2 PUSH0 SWAP1 SLOAD SWAP1 PUSH2 0x100 EXP SWAP1 DIV PUSH20 0xFFFFFFFFFFFFFFFFFFFFFFFFFFFFFFFFFFFFFFFF AND PUSH20 0xFFFFFFFFFFFFFFFFFFFFFFFFFFFFFFFFFFFFFFFF AND DUP2 MSTORE PUSH1 0x20 ADD SWAP1 PUSH1 0x1 ADD SWAP1 DUP1 DUP4 GT PUSH2 0x2F1 JUMPI JUMPDEST POP POP POP POP POP SWAP1 POP SWAP1 JUMP JUMPDEST PUSH1 0x1 PUSH0 SWAP1 SLOAD SWAP1 PUSH2 0x100 EXP SWAP1 DIV PUSH20 0xFFFFFFFFFFFFFFFFFFFFFFFFFFFFFFFFFFFFFFFF AND DUP2 JUMP JUMPDEST PUSH8 0xDE0B6B3A7640000 CALLVALUE EQ PUSH2 0x3B3 JUMPI PUSH1 0x40 MLOAD PUSH32 0x8C379A000000000000000000000000000000000000000000000000000000000 DUP2 MSTORE PUSH1 0x4 ADD PUSH2 0x3AA SWAP1 PUSH2 0x84D JUMP JUMPDEST PUSH1 0x40 MLOAD DUP1 SWAP2 SUB SWAP1 REVERT JUMPDEST PUSH0 CALLER SWAP1 DUP1 PUSH1 0x1 DUP2 SLOAD ADD DUP1 DUP3 SSTORE DUP1 SWAP2 POP POP PUSH1 0x1 SWAP1 SUB SWAP1 PUSH0 MSTORE PUSH1 0x20 PUSH0 KECCAK256 ADD PUSH0 SWAP1 SWAP2 SWAP1 SWAP2 SWAP1 SWAP2 PUSH2 0x100 EXP DUP2 SLOAD DUP2 PUSH20 0xFFFFFFFFFFFFFFFFFFFFFFFFFFFFFFFFFFFFFFFF MUL NOT AND SWAP1 DUP4 PUSH20 0xFFFFFFFFFFFFFFFFFFFFFFFFFFFFFFFFFFFFFFFF AND MUL OR SWAP1 SSTORE POP JUMP JUMPDEST PUSH0 DUP2 DUP2 SLOAD DUP2 LT PUSH2 0x422 JUMPI PUSH0 DUP1 REVERT JUMPDEST SWAP1 PUSH0 MSTORE PUSH1 0x20 PUSH0 KECCAK256 ADD PUSH0 SWAP2 POP SLOAD SWAP1 PUSH2 0x100 EXP SWAP1 DIV PUSH20 0xFFFFFFFFFFFFFFFFFFFFFFFFFFFFFFFFFFFFFFFF AND DUP2 JUMP JUMPDEST PUSH0 TIMESTAMP PREVRANDAO PUSH0 PUSH1 0x40 MLOAD PUSH1 0x20 ADD PUSH2 0x464 SWAP4 SWAP3 SWAP2 SWAP1 PUSH2 0x99B JUMP JUMPDEST PUSH1 0x40 MLOAD PUSH1 0x20 DUP2 DUP4 SUB SUB DUP2 MSTORE SWAP1 PUSH1 0x40 MSTORE DUP1 MLOAD SWAP1 PUSH1 0x20 ADD KECCAK256 PUSH0 SHR SWAP1 POP SWAP1 JUMP JUMPDEST POP DUP1 SLOAD PUSH0 DUP3 SSTORE SWAP1 PUSH0 MSTORE PUSH1 0x20 PUSH0 KECCAK256 SWAP1 DUP2 ADD SWAP1 PUSH2 0x49C SWAP2 SWAP1 PUSH2 0x49F JUMP JUMPDEST POP JUMP JUMPDEST JUMPDEST DUP1 DUP3 GT ISZERO PUSH2 0x4B6 JUMPI PUSH0 DUP2 PUSH0 SWAP1 SSTORE POP PUSH1 0x1 ADD PUSH2 0x4A0 JUMP JUMPDEST POP SWAP1 JUMP JUMPDEST PUSH0 DUP2 SWAP1 POP SWAP2 SWAP1 POP JUMP JUMPDEST PUSH2 0x4CC DUP2 PUSH2 0x4BA JUMP JUMPDEST DUP3 MSTORE POP POP JUMP JUMPDEST PUSH0 PUSH1 0x20 DUP3 ADD SWAP1 POP PUSH2 0x4E5 PUSH0 DUP4 ADD DUP5 PUSH2 0x4C3 JUMP JUMPDEST SWAP3 SWAP2 POP POP JUMP JUMPDEST PUSH0 DUP2 MLOAD SWAP1 POP SWAP2 SWAP1 POP JUMP JUMPDEST PUSH0 DUP3 DUP3 MSTORE PUSH1 0x20 DUP3 ADD SWAP1 POP SWAP3 SWAP2 POP POP JUMP JUMPDEST PUSH0 DUP2 SWAP1 POP PUSH1 0x20 DUP3 ADD SWAP1 POP SWAP2 SWAP1 POP JUMP JUMPDEST PUSH0 PUSH20 0xFFFFFFFFFFFFFFFFFFFFFFFFFFFFFFFFFFFFFFFF DUP3 AND SWAP1 POP SWAP2 SWAP1 POP JUMP JUMPDEST PUSH0 PUSH2 0x53D DUP3 PUSH2 0x514 JUMP JUMPDEST SWAP1 POP SWAP2 SWAP1 POP JUMP JUMPDEST PUSH2 0x54D DUP2 PUSH2 0x533 JUMP JUMPDEST DUP3 MSTORE POP POP JUMP JUMPDEST PUSH0 PUSH2 0x55E DUP4 DUP4 PUSH2 0x544 JUMP JUMPDEST PUSH1 0x20 DUP4 ADD SWAP1 POP SWAP3 SWAP2 POP POP JUMP JUMPDEST PUSH0 PUSH1 0x20 DUP3 ADD SWAP1 POP SWAP2 SWAP1 POP JUMP JUMPDEST PUSH0 PUSH2 0x580 DUP3 PUSH2 0x4EB JUMP JUMPDEST PUSH2 0x58A DUP2 DUP6 PUSH2 0x4F5 JUMP JUMPDEST SWAP4 POP PUSH2 0x595 DUP4 PUSH2 0x505 JUMP JUMPDEST DUP1 PUSH0 JUMPDEST DUP4 DUP2 LT ISZERO PUSH2 0x5C5 JUMPI DUP2 MLOAD PUSH2 0x5AC DUP9 DUP3 PUSH2 0x553 JUMP JUMPDEST SWAP8 POP PUSH2 0x5B7 DUP4 PUSH2 0x56A JUMP JUMPDEST SWAP3 POP POP PUSH1 0x1 DUP2 ADD SWAP1 POP PUSH2 0x598 JUMP JUMPDEST POP DUP6 SWAP4 POP POP POP POP SWAP3 SWAP2 POP POP JUMP JUMPDEST PUSH0 PUSH1 0x20 DUP3 ADD SWAP1 POP DUP2 DUP2 SUB PUSH0 DUP4 ADD MSTORE PUSH2 0x5EA DUP2 DUP5 PUSH2 0x576 JUMP JUMPDEST SWAP1 POP SWAP3 SWAP2 POP POP JUMP JUMPDEST PUSH2 0x5FB DUP2 PUSH2 0x533 JUMP JUMPDEST DUP3 MSTORE POP POP JUMP JUMPDEST PUSH0 PUSH1 0x20 DUP3 ADD SWAP1 POP PUSH2 0x614 PUSH0 DUP4 ADD DUP5 PUSH2 0x5F2 JUMP JUMPDEST SWAP3 SWAP2 POP POP JUMP JUMPDEST PUSH0 DUP1 REVERT JUMPDEST PUSH2 0x627 DUP2 PUSH2 0x4BA JUMP JUMPDEST DUP2 EQ PUSH2 0x631 JUMPI PUSH0 DUP1 REVERT JUMPDEST POP JUMP JUMPDEST PUSH0 DUP2 CALLDATALOAD SWAP1 POP PUSH2 0x642 DUP2 PUSH2 0x61E JUMP JUMPDEST SWAP3 SWAP2 POP POP JUMP JUMPDEST PUSH0 PUSH1 0x20 DUP3 DUP5 SUB SLT ISZERO PUSH2 0x65D JUMPI PUSH2 0x65C PUSH2 0x61A JUMP JUMPDEST JUMPDEST PUSH0 PUSH2 0x66A DUP5 DUP3 DUP6 ADD PUSH2 0x634 JUMP JUMPDEST SWAP2 POP POP SWAP3 SWAP2 POP POP JUMP JUMPDEST PUSH0 DUP3 DUP3 MSTORE PUSH1 0x20 DUP3 ADD SWAP1 POP SWAP3 SWAP2 POP POP JUMP JUMPDEST PUSH32 0x4F6E6C7920746865206F776E65722063616E207069636B20612077696E6E6572 PUSH0 DUP3 ADD MSTORE POP JUMP JUMPDEST PUSH0 PUSH2 0x6B7 PUSH1 0x20 DUP4 PUSH2 0x673 JUMP JUMPDEST SWAP2 POP PUSH2 0x6C2 DUP3 PUSH2 0x683 JUMP JUMPDEST PUSH1 0x20 DUP3 ADD SWAP1 POP SWAP2 SWAP1 POP JUMP JUMPDEST PUSH0 PUSH1 0x20 DUP3 ADD SWAP1 POP DUP2 DUP2 SUB PUSH0 DUP4 ADD MSTORE PUSH2 0x6E4 DUP2 PUSH2 0x6AB JUMP JUMPDEST SWAP1 POP SWAP2 SWAP1 POP JUMP JUMPDEST PUSH32 0x4E6F20706C617965727320696E20746865206C6F747465727900000000000000 PUSH0 DUP3 ADD MSTORE POP JUMP JUMPDEST PUSH0 PUSH2 0x71F PUSH1 0x19 DUP4 PUSH2 0x673 JUMP JUMPDEST SWAP2 POP PUSH2 0x72A DUP3 PUSH2 0x6EB JUMP JUMPDEST PUSH1 0x20 DUP3 ADD SWAP1 POP SWAP2 SWAP1 POP JUMP JUMPDEST PUSH0 PUSH1 0x20 DUP3 ADD SWAP1 POP DUP2 DUP2 SUB PUSH0 DUP4 ADD MSTORE PUSH2 0x74C DUP2 PUSH2 0x713 JUMP JUMPDEST SWAP1 POP SWAP2 SWAP1 POP JUMP JUMPDEST PUSH32 0x4E487B7100000000000000000000000000000000000000000000000000000000 PUSH0 MSTORE PUSH1 0x12 PUSH1 0x4 MSTORE PUSH1 0x24 PUSH0 REVERT JUMPDEST PUSH0 PUSH2 0x78A DUP3 PUSH2 0x4BA JUMP JUMPDEST SWAP2 POP PUSH2 0x795 DUP4 PUSH2 0x4BA JUMP JUMPDEST SWAP3 POP DUP3 PUSH2 0x7A5 JUMPI PUSH2 0x7A4 PUSH2 0x753 JUMP JUMPDEST JUMPDEST DUP3 DUP3 MOD SWAP1 POP SWAP3 SWAP2 POP POP JUMP JUMPDEST PUSH32 0x4E487B7100000000000000000000000000000000000000000000000000000000 PUSH0 MSTORE PUSH1 0x32 PUSH1 0x4 MSTORE PUSH1 0x24 PUSH0 REVERT JUMPDEST PUSH32 0x596F75206D7573742073656E642065786163746C7920312045544820746F2070 PUSH0 DUP3 ADD MSTORE PUSH32 0x6172746963697061746500000000000000000000000000000000000000000000 PUSH1 0x20 DUP3 ADD MSTORE POP JUMP JUMPDEST PUSH0 PUSH2 0x837 PUSH1 0x2A DUP4 PUSH2 0x673 JUMP JUMPDEST SWAP2 POP PUSH2 0x842 DUP3 PUSH2 0x7DD JUMP JUMPDEST PUSH1 0x40 DUP3 ADD SWAP1 POP SWAP2 SWAP1 POP JUMP JUMPDEST PUSH0 PUSH1 0x20 DUP3 ADD SWAP1 POP DUP2 DUP2 SUB PUSH0 DUP4 ADD MSTORE PUSH2 0x864 DUP2 PUSH2 0x82B JUMP JUMPDEST SWAP1 POP SWAP2 SWAP1 POP JUMP JUMPDEST PUSH0 DUP2 SWAP1 POP SWAP2 SWAP1 POP JUMP JUMPDEST PUSH2 0x885 PUSH2 0x880 DUP3 PUSH2 0x4BA JUMP JUMPDEST PUSH2 0x86B JUMP JUMPDEST DUP3 MSTORE POP POP JUMP JUMPDEST PUSH0 DUP2 SLOAD SWAP1 POP SWAP2 SWAP1 POP JUMP JUMPDEST PUSH0 DUP2 SWAP1 POP SWAP3 SWAP2 POP POP JUMP JUMPDEST PUSH0 DUP2 SWAP1 POP DUP2 PUSH0 MSTORE PUSH1 0x20 PUSH0 KECCAK256 SWAP1 POP SWAP2 SWAP1 POP JUMP JUMPDEST PUSH2 0x8BA DUP2 PUSH2 0x533 JUMP JUMPDEST DUP3 MSTORE POP POP JUMP JUMPDEST PUSH0 PUSH2 0x8CB DUP4 DUP4 PUSH2 0x8B1 JUMP JUMPDEST PUSH1 0x20 DUP4 ADD SWAP1 POP SWAP3 SWAP2 POP POP JUMP JUMPDEST PUSH0 DUP2 PUSH0 SHR SWAP1 POP SWAP2 SWAP1 POP JUMP JUMPDEST PUSH0 PUSH20 0xFFFFFFFFFFFFFFFFFFFFFFFFFFFFFFFFFFFFFFFF DUP3 AND SWAP1 POP SWAP2 SWAP1 POP JUMP JUMPDEST PUSH0 PUSH2 0x913 PUSH2 0x90E DUP4 PUSH2 0x8D7 JUMP JUMPDEST PUSH2 0x8E2 JUMP JUMPDEST SWAP1 POP SWAP2 SWAP1 POP JUMP JUMPDEST PUSH0 PUSH2 0x925 DUP3 SLOAD PUSH2 0x901 JUMP JUMPDEST SWAP1 POP SWAP2 SWAP1 POP JUMP JUMPDEST PUSH0 PUSH1 0x1 DUP3 ADD SWAP1 POP SWAP2 SWAP1 POP JUMP JUMPDEST PUSH0 PUSH2 0x942 DUP3 PUSH2 0x88B JUMP JUMPDEST PUSH2 0x94C DUP2 DUP6 PUSH2 0x895 JUMP JUMPDEST SWAP4 POP PUSH2 0x957 DUP4 PUSH2 0x89F JUMP JUMPDEST DUP1 PUSH0 JUMPDEST DUP4 DUP2 LT ISZERO PUSH2 0x98E JUMPI PUSH2 0x96B DUP3 PUSH2 0x91A JUMP JUMPDEST PUSH2 0x975 DUP9 DUP3 PUSH2 0x8C0 JUMP JUMPDEST SWAP8 POP PUSH2 0x980 DUP4 PUSH2 0x92C JUMP JUMPDEST SWAP3 POP POP PUSH1 0x1 DUP2 ADD SWAP1 POP PUSH2 0x95A JUMP JUMPDEST POP DUP6 SWAP4 POP POP POP POP SWAP3 SWAP2 POP POP JUMP JUMPDEST PUSH0 PUSH2 0x9A6 DUP3 DUP7 PUSH2 0x874 JUMP JUMPDEST PUSH1 0x20 DUP3 ADD SWAP2 POP PUSH2 0x9B6 DUP3 DUP6 PUSH2 0x874 JUMP JUMPDEST PUSH1 0x20 DUP3 ADD SWAP2 POP PUSH2 0x9C6 DUP3 DUP5 PUSH2 0x938 JUMP JUMPDEST SWAP2 POP DUP2 SWAP1 POP SWAP5 SWAP4 POP POP POP POP JUMP INVALID LOG2 PUSH5 0x6970667358 0x22 SLT KECCAK256 BLOBBASEFEE 0xB7 DUP1 SUB ADDMOD GT 0xDE 0x4E RETURN 0xD8 PREVRANDAO 0xF9 BALANCE NUMBER 0x2F 0xAB 0xDC CODESIZE 0xB8 0xD6 0xCF 0xC1 0xD9 0xDA 0x2D 0xED 0x2F DUP6 0xAE 0xD REVERT ISZERO PUSH5 0x736F6C6343 STOP ADDMOD BYTE STOP CALLER "
				},
				"gasEstimates": {
					"creation": {
						"codeDepositCost": "513800",
						"executionCost": "24812",
						"totalCost": "538612"
					},
					"external": {
						"enter()": "48781",
						"getBalance()": "312",
						"getPlayers()": "infinite",
						"owner()": "2552",
						"pickWinner()": "infinite",
						"players(uint256)": "5031"
					},
					"internal": {
						"random()": "infinite"
					}
				},
				"methodIdentifiers": {
					"enter()": "e97dcb62",
					"getBalance()": "12065fe0",
					"getPlayers()": "8b5b9ccc",
					"owner()": "8da5cb5b",
					"pickWinner()": "5d495aea",
					"players(uint256)": "f71d96cb"
				}
			},
			"storageLayout": {
				"storage": [
					{
						"astId": 4,
						"contract": "contracts/Blockchain_Assignment_4/Task_Codes/as4_task3.sol:Lottery",
						"label": "players",
						"offset": 0,
						"slot": "0",
						"type": "t_array(t_address)dyn_storage"
					},
					{
						"astId": 6,
						"contract": "contracts/Blockchain_Assignment_4/Task_Codes/as4_task3.sol:Lottery",
						"label": "owner",
						"offset": 0,
						"slot": "1",
						"type": "t_address"
					}
				],
				"types": {
					"t_address": {
						"encoding": "inplace",
						"label": "address",
						"numberOfBytes": "20"
					},
					"t_array(t_address)dyn_storage": {
						"base": "t_address",
						"encoding": "dynamic_array",
						"label": "address[]",
						"numberOfBytes": "32"
					}
				}
			},
			"userdoc": {
				"kind": "user",
				"methods": {},
				"version": 1
			}
		}
	}
}