{
	"contracts/Blockchain_Assignment_6/Tasks/Week_6_Task_1.sol": {
		"Auction": {
			"abi": [
				{
					"inputs": [],
					"stateMutability": "nonpayable",
					"type": "constructor"
				},
				{
					"inputs": [
						{
							"internalType": "uint256",
							"name": "",
							"type": "uint256"
						}
					],
					"name": "bidders",
					"outputs": [
						{
							"internalType": "address",
							"name": "",
							"type": "address"
						}
					],
					"stateMutability": "view",
					"type": "function"
				},
				{
					"inputs": [
						{
							"internalType": "address",
							"name": "",
							"type": "address"
						}
					],
					"name": "bids",
					"outputs": [
						{
							"internalType": "uint256",
							"name": "",
							"type": "uint256"
						}
					],
					"stateMutability": "view",
					"type": "function"
				},
				{
					"inputs": [],
					"name": "endAuction",
					"outputs": [],
					"stateMutability": "nonpayable",
					"type": "function"
				},
				{
					"inputs": [],
					"name": "endTime",
					"outputs": [
						{
							"internalType": "uint256",
							"name": "",
							"type": "uint256"
						}
					],
					"stateMutability": "view",
					"type": "function"
				},
				{
					"inputs": [],
					"name": "highestBid",
					"outputs": [
						{
							"internalType": "uint256",
							"name": "",
							"type": "uint256"
						}
					],
					"stateMutability": "view",
					"type": "function"
				},
				{
					"inputs": [],
					"name": "highestBidder",
					"outputs": [
						{
							"internalType": "address",
							"name": "",
							"type": "address"
						}
					],
					"stateMutability": "view",
					"type": "function"
				},
				{
					"inputs": [],
					"name": "owner",
					"outputs": [
						{
							"internalType": "address",
							"name": "",
							"type": "address"
						}
					],
					"stateMutability": "view",
					"type": "function"
				},
				{
					"inputs": [],
					"name": "placeBid",
					"outputs": [],
					"stateMutability": "payable",
					"type": "function"
				},
				{
					"inputs": [
						{
							"internalType": "uint256",
							"name": "duration",
							"type": "uint256"
						}
					],
					"name": "startAuction",
					"outputs": [],
					"stateMutability": "nonpayable",
					"type": "function"
				},
				{
					"inputs": [],
					"name": "startTime",
					"outputs": [
						{
							"internalType": "uint256",
							"name": "",
							"type": "uint256"
						}
					],
					"stateMutability": "view",
					"type": "function"
				},
				{
					"inputs": [],
					"name": "withdraw",
					"outputs": [],
					"stateMutability": "nonpayable",
					"type": "function"
				}
			],
			"devdoc": {
				"kind": "dev",
				"methods": {},
				"version": 1
			},
			"evm": {
				"assembly": "    /* \"contracts/Blockchain_Assignment_6/Tasks/Week_6_Task_1.sol\":60:2437  contract Auction {... */\n  mstore(0x40, 0x80)\n    /* \"contracts/Blockchain_Assignment_6/Tasks/Week_6_Task_1.sol\":775:826  constructor() {... */\n  callvalue\n  dup1\n  iszero\n  tag_1\n  jumpi\n  0x00\n  dup1\n  revert\ntag_1:\n  pop\n    /* \"contracts/Blockchain_Assignment_6/Tasks/Week_6_Task_1.sol\":808:818  msg.sender */\n  caller\n    /* \"contracts/Blockchain_Assignment_6/Tasks/Week_6_Task_1.sol\":800:805  owner */\n  0x00\n  dup1\n    /* \"contracts/Blockchain_Assignment_6/Tasks/Week_6_Task_1.sol\":800:818  owner = msg.sender */\n  0x0100\n  exp\n  dup2\n  sload\n  dup2\n  0xffffffffffffffffffffffffffffffffffffffff\n  mul\n  not\n  and\n  swap1\n  dup4\n  0xffffffffffffffffffffffffffffffffffffffff\n  and\n  mul\n  or\n  swap1\n  sstore\n  pop\n    /* \"contracts/Blockchain_Assignment_6/Tasks/Week_6_Task_1.sol\":60:2437  contract Auction {... */\n  dataSize(sub_0)\n  dup1\n  dataOffset(sub_0)\n  0x00\n  codecopy\n  0x00\n  return\nstop\n\nsub_0: assembly {\n        /* \"contracts/Blockchain_Assignment_6/Tasks/Week_6_Task_1.sol\":60:2437  contract Auction {... */\n      mstore(0x40, 0x80)\n      jumpi(tag_1, lt(calldatasize, 0x04))\n      shr(0xe0, calldataload(0x00))\n      dup1\n      0x8da5cb5b\n      gt\n      tag_13\n      jumpi\n      dup1\n      0x8da5cb5b\n      eq\n      tag_7\n      jumpi\n      dup1\n      0x91f90157\n      eq\n      tag_8\n      jumpi\n      dup1\n      0xcff29dfd\n      eq\n      tag_9\n      jumpi\n      dup1\n      0xd57bde79\n      eq\n      tag_10\n      jumpi\n      dup1\n      0xecfc7ecc\n      eq\n      tag_11\n      jumpi\n      dup1\n      0xfe67a54b\n      eq\n      tag_12\n      jumpi\n      jump(tag_1)\n    tag_13:\n      dup1\n      0x065de74c\n      eq\n      tag_2\n      jumpi\n      dup1\n      0x3197cbb6\n      eq\n      tag_3\n      jumpi\n      dup1\n      0x3ccfd60b\n      eq\n      tag_4\n      jumpi\n      dup1\n      0x62ea82db\n      eq\n      tag_5\n      jumpi\n      dup1\n      0x78e97925\n      eq\n      tag_6\n      jumpi\n    tag_1:\n      0x00\n      dup1\n      revert\n        /* \"contracts/Blockchain_Assignment_6/Tasks/Week_6_Task_1.sol\":871:1015  function startAuction(uint256 duration) public onlyOwner {... */\n    tag_2:\n      callvalue\n      dup1\n      iszero\n      tag_14\n      jumpi\n      0x00\n      dup1\n      revert\n    tag_14:\n      pop\n      tag_15\n      0x04\n      dup1\n      calldatasize\n      sub\n      dup2\n      add\n      swap1\n      tag_16\n      swap2\n      swap1\n      tag_17\n      jump\t// in\n    tag_16:\n      tag_18\n      jump\t// in\n    tag_15:\n      stop\n        /* \"contracts/Blockchain_Assignment_6/Tasks/Week_6_Task_1.sol\":142:164  uint256 public endTime */\n    tag_3:\n      callvalue\n      dup1\n      iszero\n      tag_19\n      jumpi\n      0x00\n      dup1\n      revert\n    tag_19:\n      pop\n      tag_20\n      tag_21\n      jump\t// in\n    tag_20:\n      mload(0x40)\n      tag_22\n      swap2\n      swap1\n      tag_23\n      jump\t// in\n    tag_22:\n      mload(0x40)\n      dup1\n      swap2\n      sub\n      swap1\n      return\n        /* \"contracts/Blockchain_Assignment_6/Tasks/Week_6_Task_1.sol\":2135:2434  function withdraw() public auctionEnded {... */\n    tag_4:\n      callvalue\n      dup1\n      iszero\n      tag_24\n      jumpi\n      0x00\n      dup1\n      revert\n    tag_24:\n      pop\n      tag_25\n      tag_26\n      jump\t// in\n    tag_25:\n      stop\n        /* \"contracts/Blockchain_Assignment_6/Tasks/Week_6_Task_1.sol\":238:277  mapping(address => uint256) public bids */\n    tag_5:\n      callvalue\n      dup1\n      iszero\n      tag_27\n      jumpi\n      0x00\n      dup1\n      revert\n    tag_27:\n      pop\n      tag_28\n      0x04\n      dup1\n      calldatasize\n      sub\n      dup2\n      add\n      swap1\n      tag_29\n      swap2\n      swap1\n      tag_30\n      jump\t// in\n    tag_29:\n      tag_31\n      jump\t// in\n    tag_28:\n      mload(0x40)\n      tag_32\n      swap2\n      swap1\n      tag_23\n      jump\t// in\n    tag_32:\n      mload(0x40)\n      dup1\n      swap2\n      sub\n      swap1\n      return\n        /* \"contracts/Blockchain_Assignment_6/Tasks/Week_6_Task_1.sol\":111:135  uint256 public startTime */\n    tag_6:\n      callvalue\n      dup1\n      iszero\n      tag_33\n      jumpi\n      0x00\n      dup1\n      revert\n    tag_33:\n      pop\n      tag_34\n      tag_35\n      jump\t// in\n    tag_34:\n      mload(0x40)\n      tag_36\n      swap2\n      swap1\n      tag_23\n      jump\t// in\n    tag_36:\n      mload(0x40)\n      dup1\n      swap2\n      sub\n      swap1\n      return\n        /* \"contracts/Blockchain_Assignment_6/Tasks/Week_6_Task_1.sol\":84:104  address public owner */\n    tag_7:\n      callvalue\n      dup1\n      iszero\n      tag_37\n      jumpi\n      0x00\n      dup1\n      revert\n    tag_37:\n      pop\n      tag_38\n      tag_39\n      jump\t// in\n    tag_38:\n      mload(0x40)\n      tag_40\n      swap2\n      swap1\n      tag_41\n      jump\t// in\n    tag_40:\n      mload(0x40)\n      dup1\n      swap2\n      sub\n      swap1\n      return\n        /* \"contracts/Blockchain_Assignment_6/Tasks/Week_6_Task_1.sol\":203:231  address public highestBidder */\n    tag_8:\n      callvalue\n      dup1\n      iszero\n      tag_42\n      jumpi\n      0x00\n      dup1\n      revert\n    tag_42:\n      pop\n      tag_43\n      tag_44\n      jump\t// in\n    tag_43:\n      mload(0x40)\n      tag_45\n      swap2\n      swap1\n      tag_41\n      jump\t// in\n    tag_45:\n      mload(0x40)\n      dup1\n      swap2\n      sub\n      swap1\n      return\n        /* \"contracts/Blockchain_Assignment_6/Tasks/Week_6_Task_1.sol\":838:862  address[] public bidders */\n    tag_9:\n      callvalue\n      dup1\n      iszero\n      tag_46\n      jumpi\n      0x00\n      dup1\n      revert\n    tag_46:\n      pop\n      tag_47\n      0x04\n      dup1\n      calldatasize\n      sub\n      dup2\n      add\n      swap1\n      tag_48\n      swap2\n      swap1\n      tag_17\n      jump\t// in\n    tag_48:\n      tag_49\n      jump\t// in\n    tag_47:\n      mload(0x40)\n      tag_50\n      swap2\n      swap1\n      tag_41\n      jump\t// in\n    tag_50:\n      mload(0x40)\n      dup1\n      swap2\n      sub\n      swap1\n      return\n        /* \"contracts/Blockchain_Assignment_6/Tasks/Week_6_Task_1.sol\":171:196  uint256 public highestBid */\n    tag_10:\n      callvalue\n      dup1\n      iszero\n      tag_51\n      jumpi\n      0x00\n      dup1\n      revert\n    tag_51:\n      pop\n      tag_52\n      tag_53\n      jump\t// in\n    tag_52:\n      mload(0x40)\n      tag_54\n      swap2\n      swap1\n      tag_23\n      jump\t// in\n    tag_54:\n      mload(0x40)\n      dup1\n      swap2\n      sub\n      swap1\n      return\n        /* \"contracts/Blockchain_Assignment_6/Tasks/Week_6_Task_1.sol\":1023:1529  function placeBid() public payable auctionActive {... */\n    tag_11:\n      tag_55\n      tag_56\n      jump\t// in\n    tag_55:\n      stop\n        /* \"contracts/Blockchain_Assignment_6/Tasks/Week_6_Task_1.sol\":1539:2125  function endAuction() public onlyOwner auctionEnded {... */\n    tag_12:\n      callvalue\n      dup1\n      iszero\n      tag_57\n      jumpi\n      0x00\n      dup1\n      revert\n    tag_57:\n      pop\n      tag_58\n      tag_59\n      jump\t// in\n    tag_58:\n      stop\n        /* \"contracts/Blockchain_Assignment_6/Tasks/Week_6_Task_1.sol\":871:1015  function startAuction(uint256 duration) public onlyOwner {... */\n    tag_18:\n        /* \"contracts/Blockchain_Assignment_6/Tasks/Week_6_Task_1.sol\":340:345  owner */\n      0x00\n      dup1\n      sload\n      swap1\n      0x0100\n      exp\n      swap1\n      div\n      0xffffffffffffffffffffffffffffffffffffffff\n      and\n        /* \"contracts/Blockchain_Assignment_6/Tasks/Week_6_Task_1.sol\":326:345  msg.sender == owner */\n      0xffffffffffffffffffffffffffffffffffffffff\n      and\n        /* \"contracts/Blockchain_Assignment_6/Tasks/Week_6_Task_1.sol\":326:336  msg.sender */\n      caller\n        /* \"contracts/Blockchain_Assignment_6/Tasks/Week_6_Task_1.sol\":326:345  msg.sender == owner */\n      0xffffffffffffffffffffffffffffffffffffffff\n      and\n      eq\n        /* \"contracts/Blockchain_Assignment_6/Tasks/Week_6_Task_1.sol\":318:388  require(msg.sender == owner, \"Only the owner can perform this action\") */\n      tag_61\n      jumpi\n      mload(0x40)\n      0x08c379a000000000000000000000000000000000000000000000000000000000\n      dup2\n      mstore\n      0x04\n      add\n      tag_62\n      swap1\n      tag_63\n      jump\t// in\n    tag_62:\n      mload(0x40)\n      dup1\n      swap2\n      sub\n      swap1\n      revert\n    tag_61:\n        /* \"contracts/Blockchain_Assignment_6/Tasks/Week_6_Task_1.sol\":951:966  block.timestamp */\n      timestamp\n        /* \"contracts/Blockchain_Assignment_6/Tasks/Week_6_Task_1.sol\":939:948  startTime */\n      0x01\n        /* \"contracts/Blockchain_Assignment_6/Tasks/Week_6_Task_1.sol\":939:966  startTime = block.timestamp */\n      dup2\n      swap1\n      sstore\n      pop\n        /* \"contracts/Blockchain_Assignment_6/Tasks/Week_6_Task_1.sol\":999:1007  duration */\n      dup1\n        /* \"contracts/Blockchain_Assignment_6/Tasks/Week_6_Task_1.sol\":987:996  startTime */\n      sload(0x01)\n        /* \"contracts/Blockchain_Assignment_6/Tasks/Week_6_Task_1.sol\":987:1007  startTime + duration */\n      tag_65\n      swap2\n      swap1\n      tag_66\n      jump\t// in\n    tag_65:\n        /* \"contracts/Blockchain_Assignment_6/Tasks/Week_6_Task_1.sol\":977:984  endTime */\n      0x02\n        /* \"contracts/Blockchain_Assignment_6/Tasks/Week_6_Task_1.sol\":977:1007  endTime = startTime + duration */\n      dup2\n      swap1\n      sstore\n      pop\n        /* \"contracts/Blockchain_Assignment_6/Tasks/Week_6_Task_1.sol\":871:1015  function startAuction(uint256 duration) public onlyOwner {... */\n      pop\n      jump\t// out\n        /* \"contracts/Blockchain_Assignment_6/Tasks/Week_6_Task_1.sol\":142:164  uint256 public endTime */\n    tag_21:\n      sload(0x02)\n      dup2\n      jump\t// out\n        /* \"contracts/Blockchain_Assignment_6/Tasks/Week_6_Task_1.sol\":2135:2434  function withdraw() public auctionEnded {... */\n    tag_26:\n        /* \"contracts/Blockchain_Assignment_6/Tasks/Week_6_Task_1.sol\":710:717  endTime */\n      sload(0x02)\n        /* \"contracts/Blockchain_Assignment_6/Tasks/Week_6_Task_1.sol\":692:707  block.timestamp */\n      timestamp\n        /* \"contracts/Blockchain_Assignment_6/Tasks/Week_6_Task_1.sol\":692:717  block.timestamp > endTime */\n      gt\n        /* \"contracts/Blockchain_Assignment_6/Tasks/Week_6_Task_1.sol\":684:747  require(block.timestamp > endTime, \"Auction has not ended yet\") */\n      tag_68\n      jumpi\n      mload(0x40)\n      0x08c379a000000000000000000000000000000000000000000000000000000000\n      dup2\n      mstore\n      0x04\n      add\n      tag_69\n      swap1\n      tag_70\n      jump\t// in\n    tag_69:\n      mload(0x40)\n      dup1\n      swap2\n      sub\n      swap1\n      revert\n    tag_68:\n        /* \"contracts/Blockchain_Assignment_6/Tasks/Week_6_Task_1.sol\":2208:2221  highestBidder */\n      0x04\n      0x00\n      swap1\n      sload\n      swap1\n      0x0100\n      exp\n      swap1\n      div\n      0xffffffffffffffffffffffffffffffffffffffff\n      and\n        /* \"contracts/Blockchain_Assignment_6/Tasks/Week_6_Task_1.sol\":2194:2221  msg.sender != highestBidder */\n      0xffffffffffffffffffffffffffffffffffffffff\n      and\n        /* \"contracts/Blockchain_Assignment_6/Tasks/Week_6_Task_1.sol\":2194:2204  msg.sender */\n      caller\n        /* \"contracts/Blockchain_Assignment_6/Tasks/Week_6_Task_1.sol\":2194:2221  msg.sender != highestBidder */\n      0xffffffffffffffffffffffffffffffffffffffff\n      and\n      sub\n        /* \"contracts/Blockchain_Assignment_6/Tasks/Week_6_Task_1.sol\":2186:2248  require(msg.sender != highestBidder, \"Winner cannot withdraw\") */\n      tag_72\n      jumpi\n      mload(0x40)\n      0x08c379a000000000000000000000000000000000000000000000000000000000\n      dup2\n      mstore\n      0x04\n      add\n      tag_73\n      swap1\n      tag_74\n      jump\t// in\n    tag_73:\n      mload(0x40)\n      dup1\n      swap2\n      sub\n      swap1\n      revert\n    tag_72:\n        /* \"contracts/Blockchain_Assignment_6/Tasks/Week_6_Task_1.sol\":2259:2273  uint256 amount */\n      0x00\n        /* \"contracts/Blockchain_Assignment_6/Tasks/Week_6_Task_1.sol\":2276:2280  bids */\n      0x05\n        /* \"contracts/Blockchain_Assignment_6/Tasks/Week_6_Task_1.sol\":2276:2292  bids[msg.sender] */\n      0x00\n        /* \"contracts/Blockchain_Assignment_6/Tasks/Week_6_Task_1.sol\":2281:2291  msg.sender */\n      caller\n        /* \"contracts/Blockchain_Assignment_6/Tasks/Week_6_Task_1.sol\":2276:2292  bids[msg.sender] */\n      0xffffffffffffffffffffffffffffffffffffffff\n      and\n      0xffffffffffffffffffffffffffffffffffffffff\n      and\n      dup2\n      mstore\n      0x20\n      add\n      swap1\n      dup2\n      mstore\n      0x20\n      add\n      0x00\n      keccak256\n      sload\n        /* \"contracts/Blockchain_Assignment_6/Tasks/Week_6_Task_1.sol\":2259:2292  uint256 amount = bids[msg.sender] */\n      swap1\n      pop\n        /* \"contracts/Blockchain_Assignment_6/Tasks/Week_6_Task_1.sol\":2320:2321  0 */\n      0x00\n        /* \"contracts/Blockchain_Assignment_6/Tasks/Week_6_Task_1.sol\":2311:2317  amount */\n      dup2\n        /* \"contracts/Blockchain_Assignment_6/Tasks/Week_6_Task_1.sol\":2311:2321  amount > 0 */\n      gt\n        /* \"contracts/Blockchain_Assignment_6/Tasks/Week_6_Task_1.sol\":2303:2346  require(amount > 0, \"No funds to withdraw\") */\n      tag_75\n      jumpi\n      mload(0x40)\n      0x08c379a000000000000000000000000000000000000000000000000000000000\n      dup2\n      mstore\n      0x04\n      add\n      tag_76\n      swap1\n      tag_77\n      jump\t// in\n    tag_76:\n      mload(0x40)\n      dup1\n      swap2\n      sub\n      swap1\n      revert\n    tag_75:\n        /* \"contracts/Blockchain_Assignment_6/Tasks/Week_6_Task_1.sol\":2378:2379  0 */\n      0x00\n        /* \"contracts/Blockchain_Assignment_6/Tasks/Week_6_Task_1.sol\":2359:2363  bids */\n      0x05\n        /* \"contracts/Blockchain_Assignment_6/Tasks/Week_6_Task_1.sol\":2359:2375  bids[msg.sender] */\n      0x00\n        /* \"contracts/Blockchain_Assignment_6/Tasks/Week_6_Task_1.sol\":2364:2374  msg.sender */\n      caller\n        /* \"contracts/Blockchain_Assignment_6/Tasks/Week_6_Task_1.sol\":2359:2375  bids[msg.sender] */\n      0xffffffffffffffffffffffffffffffffffffffff\n      and\n      0xffffffffffffffffffffffffffffffffffffffff\n      and\n      dup2\n      mstore\n      0x20\n      add\n      swap1\n      dup2\n      mstore\n      0x20\n      add\n      0x00\n      keccak256\n        /* \"contracts/Blockchain_Assignment_6/Tasks/Week_6_Task_1.sol\":2359:2379  bids[msg.sender] = 0 */\n      dup2\n      swap1\n      sstore\n      pop\n        /* \"contracts/Blockchain_Assignment_6/Tasks/Week_6_Task_1.sol\":2398:2408  msg.sender */\n      caller\n        /* \"contracts/Blockchain_Assignment_6/Tasks/Week_6_Task_1.sol\":2390:2418  payable(msg.sender).transfer */\n      0xffffffffffffffffffffffffffffffffffffffff\n      and\n        /* \"contracts/Blockchain_Assignment_6/Tasks/Week_6_Task_1.sol\":2390:2426  payable(msg.sender).transfer(amount) */\n      0x08fc\n        /* \"contracts/Blockchain_Assignment_6/Tasks/Week_6_Task_1.sol\":2419:2425  amount */\n      dup3\n        /* \"contracts/Blockchain_Assignment_6/Tasks/Week_6_Task_1.sol\":2390:2426  payable(msg.sender).transfer(amount) */\n      swap1\n      dup2\n      iszero\n      mul\n      swap1\n      mload(0x40)\n      0x00\n      mload(0x40)\n      dup1\n      dup4\n      sub\n      dup2\n      dup6\n      dup9\n      dup9\n      call\n      swap4\n      pop\n      pop\n      pop\n      pop\n      iszero\n      dup1\n      iszero\n      tag_79\n      jumpi\n      returndatasize\n      0x00\n      dup1\n      returndatacopy\n      revert(0x00, returndatasize)\n    tag_79:\n      pop\n        /* \"contracts/Blockchain_Assignment_6/Tasks/Week_6_Task_1.sol\":2175:2434  {... */\n      pop\n        /* \"contracts/Blockchain_Assignment_6/Tasks/Week_6_Task_1.sol\":2135:2434  function withdraw() public auctionEnded {... */\n      jump\t// out\n        /* \"contracts/Blockchain_Assignment_6/Tasks/Week_6_Task_1.sol\":238:277  mapping(address => uint256) public bids */\n    tag_31:\n      mstore(0x20, 0x05)\n      dup1\n      0x00\n      mstore\n      keccak256(0x00, 0x40)\n      0x00\n      swap2\n      pop\n      swap1\n      pop\n      sload\n      dup2\n      jump\t// out\n        /* \"contracts/Blockchain_Assignment_6/Tasks/Week_6_Task_1.sol\":111:135  uint256 public startTime */\n    tag_35:\n      sload(0x01)\n      dup2\n      jump\t// out\n        /* \"contracts/Blockchain_Assignment_6/Tasks/Week_6_Task_1.sol\":84:104  address public owner */\n    tag_39:\n      0x00\n      dup1\n      sload\n      swap1\n      0x0100\n      exp\n      swap1\n      div\n      0xffffffffffffffffffffffffffffffffffffffff\n      and\n      dup2\n      jump\t// out\n        /* \"contracts/Blockchain_Assignment_6/Tasks/Week_6_Task_1.sol\":203:231  address public highestBidder */\n    tag_44:\n      0x04\n      0x00\n      swap1\n      sload\n      swap1\n      0x0100\n      exp\n      swap1\n      div\n      0xffffffffffffffffffffffffffffffffffffffff\n      and\n      dup2\n      jump\t// out\n        /* \"contracts/Blockchain_Assignment_6/Tasks/Week_6_Task_1.sol\":838:862  address[] public bidders */\n    tag_49:\n      0x06\n      dup2\n      dup2\n      sload\n      dup2\n      lt\n      tag_80\n      jumpi\n      0x00\n      dup1\n      revert\n    tag_80:\n      swap1\n      0x00\n      mstore\n      keccak256(0x00, 0x20)\n      add\n      0x00\n      swap2\n      pop\n      sload\n      swap1\n      0x0100\n      exp\n      swap1\n      div\n      0xffffffffffffffffffffffffffffffffffffffff\n      and\n      dup2\n      jump\t// out\n        /* \"contracts/Blockchain_Assignment_6/Tasks/Week_6_Task_1.sol\":171:196  uint256 public highestBid */\n    tag_53:\n      sload(0x03)\n      dup2\n      jump\t// out\n        /* \"contracts/Blockchain_Assignment_6/Tasks/Week_6_Task_1.sol\":1023:1529  function placeBid() public payable auctionActive {... */\n    tag_56:\n        /* \"contracts/Blockchain_Assignment_6/Tasks/Week_6_Task_1.sol\":556:565  startTime */\n      sload(0x01)\n        /* \"contracts/Blockchain_Assignment_6/Tasks/Week_6_Task_1.sol\":537:552  block.timestamp */\n      timestamp\n        /* \"contracts/Blockchain_Assignment_6/Tasks/Week_6_Task_1.sol\":537:565  block.timestamp >= startTime */\n      lt\n      iszero\n        /* \"contracts/Blockchain_Assignment_6/Tasks/Week_6_Task_1.sol\":537:595  block.timestamp >= startTime && block.timestamp <= endTime */\n      dup1\n      iszero\n      tag_83\n      jumpi\n      pop\n        /* \"contracts/Blockchain_Assignment_6/Tasks/Week_6_Task_1.sol\":588:595  endTime */\n      sload(0x02)\n        /* \"contracts/Blockchain_Assignment_6/Tasks/Week_6_Task_1.sol\":569:584  block.timestamp */\n      timestamp\n        /* \"contracts/Blockchain_Assignment_6/Tasks/Week_6_Task_1.sol\":569:595  block.timestamp <= endTime */\n      gt\n      iszero\n        /* \"contracts/Blockchain_Assignment_6/Tasks/Week_6_Task_1.sol\":537:595  block.timestamp >= startTime && block.timestamp <= endTime */\n    tag_83:\n        /* \"contracts/Blockchain_Assignment_6/Tasks/Week_6_Task_1.sol\":529:621  require(block.timestamp >= startTime && block.timestamp <= endTime, \"Auction is not active\") */\n      tag_84\n      jumpi\n      mload(0x40)\n      0x08c379a000000000000000000000000000000000000000000000000000000000\n      dup2\n      mstore\n      0x04\n      add\n      tag_85\n      swap1\n      tag_86\n      jump\t// in\n    tag_85:\n      mload(0x40)\n      dup1\n      swap2\n      sub\n      swap1\n      revert\n    tag_84:\n        /* \"contracts/Blockchain_Assignment_6/Tasks/Week_6_Task_1.sol\":1103:1113  highestBid */\n      sload(0x03)\n        /* \"contracts/Blockchain_Assignment_6/Tasks/Week_6_Task_1.sol\":1091:1100  msg.value */\n      callvalue\n        /* \"contracts/Blockchain_Assignment_6/Tasks/Week_6_Task_1.sol\":1091:1113  msg.value > highestBid */\n      gt\n        /* \"contracts/Blockchain_Assignment_6/Tasks/Week_6_Task_1.sol\":1083:1165  require(msg.value > highestBid, \"Bid must be higher than the current highest bid\") */\n      tag_88\n      jumpi\n      mload(0x40)\n      0x08c379a000000000000000000000000000000000000000000000000000000000\n      dup2\n      mstore\n      0x04\n      add\n      tag_89\n      swap1\n      tag_90\n      jump\t// in\n    tag_89:\n      mload(0x40)\n      dup1\n      swap2\n      sub\n      swap1\n      revert\n    tag_88:\n        /* \"contracts/Blockchain_Assignment_6/Tasks/Week_6_Task_1.sol\":1202:1203  0 */\n      0x00\n        /* \"contracts/Blockchain_Assignment_6/Tasks/Week_6_Task_1.sol\":1182:1186  bids */\n      0x05\n        /* \"contracts/Blockchain_Assignment_6/Tasks/Week_6_Task_1.sol\":1182:1198  bids[msg.sender] */\n      0x00\n        /* \"contracts/Blockchain_Assignment_6/Tasks/Week_6_Task_1.sol\":1187:1197  msg.sender */\n      caller\n        /* \"contracts/Blockchain_Assignment_6/Tasks/Week_6_Task_1.sol\":1182:1198  bids[msg.sender] */\n      0xffffffffffffffffffffffffffffffffffffffff\n      and\n      0xffffffffffffffffffffffffffffffffffffffff\n      and\n      dup2\n      mstore\n      0x20\n      add\n      swap1\n      dup2\n      mstore\n      0x20\n      add\n      0x00\n      keccak256\n      sload\n        /* \"contracts/Blockchain_Assignment_6/Tasks/Week_6_Task_1.sol\":1182:1203  bids[msg.sender] == 0 */\n      sub\n        /* \"contracts/Blockchain_Assignment_6/Tasks/Week_6_Task_1.sol\":1178:1305  if (bids[msg.sender] == 0) { // Add to bidders list only if it's a new bidder... */\n      tag_91\n      jumpi\n        /* \"contracts/Blockchain_Assignment_6/Tasks/Week_6_Task_1.sol\":1269:1276  bidders */\n      0x06\n        /* \"contracts/Blockchain_Assignment_6/Tasks/Week_6_Task_1.sol\":1282:1292  msg.sender */\n      caller\n        /* \"contracts/Blockchain_Assignment_6/Tasks/Week_6_Task_1.sol\":1269:1293  bidders.push(msg.sender) */\n      swap1\n      dup1\n      0x01\n      dup2\n      sload\n      add\n      dup1\n      dup3\n      sstore\n      dup1\n      swap2\n      pop\n      pop\n      0x01\n      swap1\n      sub\n      swap1\n      0x00\n      mstore\n      keccak256(0x00, 0x20)\n      add\n      0x00\n      swap1\n      swap2\n      swap1\n      swap2\n      swap1\n      swap2\n      0x0100\n      exp\n      dup2\n      sload\n      dup2\n      0xffffffffffffffffffffffffffffffffffffffff\n      mul\n      not\n      and\n      swap1\n      dup4\n      0xffffffffffffffffffffffffffffffffffffffff\n      and\n      mul\n      or\n      swap1\n      sstore\n      pop\n        /* \"contracts/Blockchain_Assignment_6/Tasks/Week_6_Task_1.sol\":1178:1305  if (bids[msg.sender] == 0) { // Add to bidders list only if it's a new bidder... */\n    tag_91:\n        /* \"contracts/Blockchain_Assignment_6/Tasks/Week_6_Task_1.sol\":1346:1347  0 */\n      0x00\n        /* \"contracts/Blockchain_Assignment_6/Tasks/Week_6_Task_1.sol\":1321:1348  highestBidder != address(0) */\n      0xffffffffffffffffffffffffffffffffffffffff\n      and\n        /* \"contracts/Blockchain_Assignment_6/Tasks/Week_6_Task_1.sol\":1321:1334  highestBidder */\n      0x04\n      0x00\n      swap1\n      sload\n      swap1\n      0x0100\n      exp\n      swap1\n      div\n      0xffffffffffffffffffffffffffffffffffffffff\n      and\n        /* \"contracts/Blockchain_Assignment_6/Tasks/Week_6_Task_1.sol\":1321:1348  highestBidder != address(0) */\n      0xffffffffffffffffffffffffffffffffffffffff\n      and\n      eq\n        /* \"contracts/Blockchain_Assignment_6/Tasks/Week_6_Task_1.sol\":1317:1410  if (highestBidder != address(0)) {... */\n      tag_93\n      jumpi\n        /* \"contracts/Blockchain_Assignment_6/Tasks/Week_6_Task_1.sol\":1388:1398  highestBid */\n      sload(0x03)\n        /* \"contracts/Blockchain_Assignment_6/Tasks/Week_6_Task_1.sol\":1365:1369  bids */\n      0x05\n        /* \"contracts/Blockchain_Assignment_6/Tasks/Week_6_Task_1.sol\":1365:1384  bids[highestBidder] */\n      0x00\n        /* \"contracts/Blockchain_Assignment_6/Tasks/Week_6_Task_1.sol\":1370:1383  highestBidder */\n      0x04\n      0x00\n      swap1\n      sload\n      swap1\n      0x0100\n      exp\n      swap1\n      div\n      0xffffffffffffffffffffffffffffffffffffffff\n      and\n        /* \"contracts/Blockchain_Assignment_6/Tasks/Week_6_Task_1.sol\":1365:1384  bids[highestBidder] */\n      0xffffffffffffffffffffffffffffffffffffffff\n      and\n      0xffffffffffffffffffffffffffffffffffffffff\n      and\n      dup2\n      mstore\n      0x20\n      add\n      swap1\n      dup2\n      mstore\n      0x20\n      add\n      0x00\n      keccak256\n      0x00\n        /* \"contracts/Blockchain_Assignment_6/Tasks/Week_6_Task_1.sol\":1365:1398  bids[highestBidder] += highestBid */\n      dup3\n      dup3\n      sload\n      tag_94\n      swap2\n      swap1\n      tag_66\n      jump\t// in\n    tag_94:\n      swap3\n      pop\n      pop\n      dup2\n      swap1\n      sstore\n      pop\n        /* \"contracts/Blockchain_Assignment_6/Tasks/Week_6_Task_1.sol\":1317:1410  if (highestBidder != address(0)) {... */\n    tag_93:\n        /* \"contracts/Blockchain_Assignment_6/Tasks/Week_6_Task_1.sol\":1435:1444  msg.value */\n      callvalue\n        /* \"contracts/Blockchain_Assignment_6/Tasks/Week_6_Task_1.sol\":1422:1432  highestBid */\n      0x03\n        /* \"contracts/Blockchain_Assignment_6/Tasks/Week_6_Task_1.sol\":1422:1444  highestBid = msg.value */\n      dup2\n      swap1\n      sstore\n      pop\n        /* \"contracts/Blockchain_Assignment_6/Tasks/Week_6_Task_1.sol\":1471:1481  msg.sender */\n      caller\n        /* \"contracts/Blockchain_Assignment_6/Tasks/Week_6_Task_1.sol\":1455:1468  highestBidder */\n      0x04\n      0x00\n        /* \"contracts/Blockchain_Assignment_6/Tasks/Week_6_Task_1.sol\":1455:1481  highestBidder = msg.sender */\n      0x0100\n      exp\n      dup2\n      sload\n      dup2\n      0xffffffffffffffffffffffffffffffffffffffff\n      mul\n      not\n      and\n      swap1\n      dup4\n      0xffffffffffffffffffffffffffffffffffffffff\n      and\n      mul\n      or\n      swap1\n      sstore\n      pop\n        /* \"contracts/Blockchain_Assignment_6/Tasks/Week_6_Task_1.sol\":1512:1521  msg.value */\n      callvalue\n        /* \"contracts/Blockchain_Assignment_6/Tasks/Week_6_Task_1.sol\":1492:1496  bids */\n      0x05\n        /* \"contracts/Blockchain_Assignment_6/Tasks/Week_6_Task_1.sol\":1492:1508  bids[msg.sender] */\n      0x00\n        /* \"contracts/Blockchain_Assignment_6/Tasks/Week_6_Task_1.sol\":1497:1507  msg.sender */\n      caller\n        /* \"contracts/Blockchain_Assignment_6/Tasks/Week_6_Task_1.sol\":1492:1508  bids[msg.sender] */\n      0xffffffffffffffffffffffffffffffffffffffff\n      and\n      0xffffffffffffffffffffffffffffffffffffffff\n      and\n      dup2\n      mstore\n      0x20\n      add\n      swap1\n      dup2\n      mstore\n      0x20\n      add\n      0x00\n      keccak256\n      0x00\n        /* \"contracts/Blockchain_Assignment_6/Tasks/Week_6_Task_1.sol\":1492:1521  bids[msg.sender] += msg.value */\n      dup3\n      dup3\n      sload\n      tag_95\n      swap2\n      swap1\n      tag_66\n      jump\t// in\n    tag_95:\n      swap3\n      pop\n      pop\n      dup2\n      swap1\n      sstore\n      pop\n        /* \"contracts/Blockchain_Assignment_6/Tasks/Week_6_Task_1.sol\":1023:1529  function placeBid() public payable auctionActive {... */\n      jump\t// out\n        /* \"contracts/Blockchain_Assignment_6/Tasks/Week_6_Task_1.sol\":1539:2125  function endAuction() public onlyOwner auctionEnded {... */\n    tag_59:\n        /* \"contracts/Blockchain_Assignment_6/Tasks/Week_6_Task_1.sol\":340:345  owner */\n      0x00\n      dup1\n      sload\n      swap1\n      0x0100\n      exp\n      swap1\n      div\n      0xffffffffffffffffffffffffffffffffffffffff\n      and\n        /* \"contracts/Blockchain_Assignment_6/Tasks/Week_6_Task_1.sol\":326:345  msg.sender == owner */\n      0xffffffffffffffffffffffffffffffffffffffff\n      and\n        /* \"contracts/Blockchain_Assignment_6/Tasks/Week_6_Task_1.sol\":326:336  msg.sender */\n      caller\n        /* \"contracts/Blockchain_Assignment_6/Tasks/Week_6_Task_1.sol\":326:345  msg.sender == owner */\n      0xffffffffffffffffffffffffffffffffffffffff\n      and\n      eq\n        /* \"contracts/Blockchain_Assignment_6/Tasks/Week_6_Task_1.sol\":318:388  require(msg.sender == owner, \"Only the owner can perform this action\") */\n      tag_97\n      jumpi\n      mload(0x40)\n      0x08c379a000000000000000000000000000000000000000000000000000000000\n      dup2\n      mstore\n      0x04\n      add\n      tag_98\n      swap1\n      tag_63\n      jump\t// in\n    tag_98:\n      mload(0x40)\n      dup1\n      swap2\n      sub\n      swap1\n      revert\n    tag_97:\n        /* \"contracts/Blockchain_Assignment_6/Tasks/Week_6_Task_1.sol\":710:717  endTime */\n      sload(0x02)\n        /* \"contracts/Blockchain_Assignment_6/Tasks/Week_6_Task_1.sol\":692:707  block.timestamp */\n      timestamp\n        /* \"contracts/Blockchain_Assignment_6/Tasks/Week_6_Task_1.sol\":692:717  block.timestamp > endTime */\n      gt\n        /* \"contracts/Blockchain_Assignment_6/Tasks/Week_6_Task_1.sol\":684:747  require(block.timestamp > endTime, \"Auction has not ended yet\") */\n      tag_100\n      jumpi\n      mload(0x40)\n      0x08c379a000000000000000000000000000000000000000000000000000000000\n      dup2\n      mstore\n      0x04\n      add\n      tag_101\n      swap1\n      tag_70\n      jump\t// in\n    tag_101:\n      mload(0x40)\n      dup1\n      swap2\n      sub\n      swap1\n      revert\n    tag_100:\n        /* \"contracts/Blockchain_Assignment_6/Tasks/Week_6_Task_1.sol\":1635:1636  0 */\n      0x00\n        /* \"contracts/Blockchain_Assignment_6/Tasks/Week_6_Task_1.sol\":1610:1637  highestBidder != address(0) */\n      0xffffffffffffffffffffffffffffffffffffffff\n      and\n        /* \"contracts/Blockchain_Assignment_6/Tasks/Week_6_Task_1.sol\":1610:1623  highestBidder */\n      0x04\n      0x00\n      swap1\n      sload\n      swap1\n      0x0100\n      exp\n      swap1\n      div\n      0xffffffffffffffffffffffffffffffffffffffff\n      and\n        /* \"contracts/Blockchain_Assignment_6/Tasks/Week_6_Task_1.sol\":1610:1637  highestBidder != address(0) */\n      0xffffffffffffffffffffffffffffffffffffffff\n      and\n      sub\n        /* \"contracts/Blockchain_Assignment_6/Tasks/Week_6_Task_1.sol\":1602:1656  require(highestBidder != address(0), \"No bids placed\") */\n      tag_103\n      jumpi\n      mload(0x40)\n      0x08c379a000000000000000000000000000000000000000000000000000000000\n      dup2\n      mstore\n      0x04\n      add\n      tag_104\n      swap1\n      tag_105\n      jump\t// in\n    tag_104:\n      mload(0x40)\n      dup1\n      swap2\n      sub\n      swap1\n      revert\n    tag_103:\n        /* \"contracts/Blockchain_Assignment_6/Tasks/Week_6_Task_1.sol\":1727:1732  owner */\n      0x00\n      dup1\n      sload\n      swap1\n      0x0100\n      exp\n      swap1\n      div\n      0xffffffffffffffffffffffffffffffffffffffff\n      and\n        /* \"contracts/Blockchain_Assignment_6/Tasks/Week_6_Task_1.sol\":1719:1742  payable(owner).transfer */\n      0xffffffffffffffffffffffffffffffffffffffff\n      and\n        /* \"contracts/Blockchain_Assignment_6/Tasks/Week_6_Task_1.sol\":1719:1754  payable(owner).transfer(highestBid) */\n      0x08fc\n        /* \"contracts/Blockchain_Assignment_6/Tasks/Week_6_Task_1.sol\":1743:1753  highestBid */\n      sload(0x03)\n        /* \"contracts/Blockchain_Assignment_6/Tasks/Week_6_Task_1.sol\":1719:1754  payable(owner).transfer(highestBid) */\n      swap1\n      dup2\n      iszero\n      mul\n      swap1\n      mload(0x40)\n      0x00\n      mload(0x40)\n      dup1\n      dup4\n      sub\n      dup2\n      dup6\n      dup9\n      dup9\n      call\n      swap4\n      pop\n      pop\n      pop\n      pop\n      iszero\n      dup1\n      iszero\n      tag_107\n      jumpi\n      returndatasize\n      0x00\n      dup1\n      returndatacopy\n      revert(0x00, returndatasize)\n    tag_107:\n      pop\n        /* \"contracts/Blockchain_Assignment_6/Tasks/Week_6_Task_1.sol\":1811:1820  uint256 i */\n      0x00\n        /* \"contracts/Blockchain_Assignment_6/Tasks/Week_6_Task_1.sol\":1806:2118  for (uint256 i = 0; i < bidders.length; i++) {... */\n    tag_108:\n        /* \"contracts/Blockchain_Assignment_6/Tasks/Week_6_Task_1.sol\":1830:1837  bidders */\n      0x06\n        /* \"contracts/Blockchain_Assignment_6/Tasks/Week_6_Task_1.sol\":1830:1844  bidders.length */\n      dup1\n      sload\n      swap1\n      pop\n        /* \"contracts/Blockchain_Assignment_6/Tasks/Week_6_Task_1.sol\":1826:1827  i */\n      dup2\n        /* \"contracts/Blockchain_Assignment_6/Tasks/Week_6_Task_1.sol\":1826:1844  i < bidders.length */\n      lt\n        /* \"contracts/Blockchain_Assignment_6/Tasks/Week_6_Task_1.sol\":1806:2118  for (uint256 i = 0; i < bidders.length; i++) {... */\n      iszero\n      tag_109\n      jumpi\n        /* \"contracts/Blockchain_Assignment_6/Tasks/Week_6_Task_1.sol\":1866:1880  address bidder */\n      0x00\n        /* \"contracts/Blockchain_Assignment_6/Tasks/Week_6_Task_1.sol\":1883:1890  bidders */\n      0x06\n        /* \"contracts/Blockchain_Assignment_6/Tasks/Week_6_Task_1.sol\":1891:1892  i */\n      dup3\n        /* \"contracts/Blockchain_Assignment_6/Tasks/Week_6_Task_1.sol\":1883:1893  bidders[i] */\n      dup2\n      sload\n      dup2\n      lt\n      tag_111\n      jumpi\n      tag_112\n      tag_113\n      jump\t// in\n    tag_112:\n    tag_111:\n      swap1\n      0x00\n      mstore\n      keccak256(0x00, 0x20)\n      add\n      0x00\n      swap1\n      sload\n      swap1\n      0x0100\n      exp\n      swap1\n      div\n      0xffffffffffffffffffffffffffffffffffffffff\n      and\n        /* \"contracts/Blockchain_Assignment_6/Tasks/Week_6_Task_1.sol\":1866:1893  address bidder = bidders[i] */\n      swap1\n      pop\n        /* \"contracts/Blockchain_Assignment_6/Tasks/Week_6_Task_1.sol\":1922:1935  highestBidder */\n      0x04\n      0x00\n      swap1\n      sload\n      swap1\n      0x0100\n      exp\n      swap1\n      div\n      0xffffffffffffffffffffffffffffffffffffffff\n      and\n        /* \"contracts/Blockchain_Assignment_6/Tasks/Week_6_Task_1.sol\":1912:1935  bidder != highestBidder */\n      0xffffffffffffffffffffffffffffffffffffffff\n      and\n        /* \"contracts/Blockchain_Assignment_6/Tasks/Week_6_Task_1.sol\":1912:1918  bidder */\n      dup2\n        /* \"contracts/Blockchain_Assignment_6/Tasks/Week_6_Task_1.sol\":1912:1935  bidder != highestBidder */\n      0xffffffffffffffffffffffffffffffffffffffff\n      and\n      eq\n      iszero\n        /* \"contracts/Blockchain_Assignment_6/Tasks/Week_6_Task_1.sol\":1912:1955  bidder != highestBidder && bids[bidder] > 0 */\n      dup1\n      iszero\n      tag_115\n      jumpi\n      pop\n        /* \"contracts/Blockchain_Assignment_6/Tasks/Week_6_Task_1.sol\":1954:1955  0 */\n      0x00\n        /* \"contracts/Blockchain_Assignment_6/Tasks/Week_6_Task_1.sol\":1939:1943  bids */\n      0x05\n        /* \"contracts/Blockchain_Assignment_6/Tasks/Week_6_Task_1.sol\":1939:1951  bids[bidder] */\n      0x00\n        /* \"contracts/Blockchain_Assignment_6/Tasks/Week_6_Task_1.sol\":1944:1950  bidder */\n      dup4\n        /* \"contracts/Blockchain_Assignment_6/Tasks/Week_6_Task_1.sol\":1939:1951  bids[bidder] */\n      0xffffffffffffffffffffffffffffffffffffffff\n      and\n      0xffffffffffffffffffffffffffffffffffffffff\n      and\n      dup2\n      mstore\n      0x20\n      add\n      swap1\n      dup2\n      mstore\n      0x20\n      add\n      0x00\n      keccak256\n      sload\n        /* \"contracts/Blockchain_Assignment_6/Tasks/Week_6_Task_1.sol\":1939:1955  bids[bidder] > 0 */\n      gt\n        /* \"contracts/Blockchain_Assignment_6/Tasks/Week_6_Task_1.sol\":1912:1955  bidder != highestBidder && bids[bidder] > 0 */\n    tag_115:\n        /* \"contracts/Blockchain_Assignment_6/Tasks/Week_6_Task_1.sol\":1908:2107  if (bidder != highestBidder && bids[bidder] > 0) {... */\n      iszero\n      tag_116\n      jumpi\n        /* \"contracts/Blockchain_Assignment_6/Tasks/Week_6_Task_1.sol\":1976:1990  uint256 amount */\n      0x00\n        /* \"contracts/Blockchain_Assignment_6/Tasks/Week_6_Task_1.sol\":1993:1997  bids */\n      0x05\n        /* \"contracts/Blockchain_Assignment_6/Tasks/Week_6_Task_1.sol\":1993:2005  bids[bidder] */\n      0x00\n        /* \"contracts/Blockchain_Assignment_6/Tasks/Week_6_Task_1.sol\":1998:2004  bidder */\n      dup4\n        /* \"contracts/Blockchain_Assignment_6/Tasks/Week_6_Task_1.sol\":1993:2005  bids[bidder] */\n      0xffffffffffffffffffffffffffffffffffffffff\n      and\n      0xffffffffffffffffffffffffffffffffffffffff\n      and\n      dup2\n      mstore\n      0x20\n      add\n      swap1\n      dup2\n      mstore\n      0x20\n      add\n      0x00\n      keccak256\n      sload\n        /* \"contracts/Blockchain_Assignment_6/Tasks/Week_6_Task_1.sol\":1976:2005  uint256 amount = bids[bidder] */\n      swap1\n      pop\n        /* \"contracts/Blockchain_Assignment_6/Tasks/Week_6_Task_1.sol\":2039:2040  0 */\n      0x00\n        /* \"contracts/Blockchain_Assignment_6/Tasks/Week_6_Task_1.sol\":2024:2028  bids */\n      0x05\n        /* \"contracts/Blockchain_Assignment_6/Tasks/Week_6_Task_1.sol\":2024:2036  bids[bidder] */\n      0x00\n        /* \"contracts/Blockchain_Assignment_6/Tasks/Week_6_Task_1.sol\":2029:2035  bidder */\n      dup5\n        /* \"contracts/Blockchain_Assignment_6/Tasks/Week_6_Task_1.sol\":2024:2036  bids[bidder] */\n      0xffffffffffffffffffffffffffffffffffffffff\n      and\n      0xffffffffffffffffffffffffffffffffffffffff\n      and\n      dup2\n      mstore\n      0x20\n      add\n      swap1\n      dup2\n      mstore\n      0x20\n      add\n      0x00\n      keccak256\n        /* \"contracts/Blockchain_Assignment_6/Tasks/Week_6_Task_1.sol\":2024:2040  bids[bidder] = 0 */\n      dup2\n      swap1\n      sstore\n      pop\n        /* \"contracts/Blockchain_Assignment_6/Tasks/Week_6_Task_1.sol\":2067:2073  bidder */\n      dup2\n        /* \"contracts/Blockchain_Assignment_6/Tasks/Week_6_Task_1.sol\":2059:2083  payable(bidder).transfer */\n      0xffffffffffffffffffffffffffffffffffffffff\n      and\n        /* \"contracts/Blockchain_Assignment_6/Tasks/Week_6_Task_1.sol\":2059:2091  payable(bidder).transfer(amount) */\n      0x08fc\n        /* \"contracts/Blockchain_Assignment_6/Tasks/Week_6_Task_1.sol\":2084:2090  amount */\n      dup3\n        /* \"contracts/Blockchain_Assignment_6/Tasks/Week_6_Task_1.sol\":2059:2091  payable(bidder).transfer(amount) */\n      swap1\n      dup2\n      iszero\n      mul\n      swap1\n      mload(0x40)\n      0x00\n      mload(0x40)\n      dup1\n      dup4\n      sub\n      dup2\n      dup6\n      dup9\n      dup9\n      call\n      swap4\n      pop\n      pop\n      pop\n      pop\n      iszero\n      dup1\n      iszero\n      tag_118\n      jumpi\n      returndatasize\n      0x00\n      dup1\n      returndatacopy\n      revert(0x00, returndatasize)\n    tag_118:\n      pop\n        /* \"contracts/Blockchain_Assignment_6/Tasks/Week_6_Task_1.sol\":1957:2107  {... */\n      pop\n        /* \"contracts/Blockchain_Assignment_6/Tasks/Week_6_Task_1.sol\":1908:2107  if (bidder != highestBidder && bids[bidder] > 0) {... */\n    tag_116:\n        /* \"contracts/Blockchain_Assignment_6/Tasks/Week_6_Task_1.sol\":1851:2118  {... */\n      pop\n        /* \"contracts/Blockchain_Assignment_6/Tasks/Week_6_Task_1.sol\":1846:1849  i++ */\n      dup1\n      dup1\n      0x01\n      add\n      swap2\n      pop\n      pop\n        /* \"contracts/Blockchain_Assignment_6/Tasks/Week_6_Task_1.sol\":1806:2118  for (uint256 i = 0; i < bidders.length; i++) {... */\n      jump(tag_108)\n    tag_109:\n      pop\n        /* \"contracts/Blockchain_Assignment_6/Tasks/Week_6_Task_1.sol\":1539:2125  function endAuction() public onlyOwner auctionEnded {... */\n      jump\t// out\n        /* \"#utility.yul\":88:205   */\n    tag_120:\n        /* \"#utility.yul\":197:198   */\n      0x00\n        /* \"#utility.yul\":194:195   */\n      dup1\n        /* \"#utility.yul\":187:199   */\n      revert\n        /* \"#utility.yul\":334:411   */\n    tag_122:\n        /* \"#utility.yul\":371:378   */\n      0x00\n        /* \"#utility.yul\":400:405   */\n      dup2\n        /* \"#utility.yul\":389:405   */\n      swap1\n      pop\n        /* \"#utility.yul\":334:411   */\n      swap2\n      swap1\n      pop\n      jump\t// out\n        /* \"#utility.yul\":417:539   */\n    tag_123:\n        /* \"#utility.yul\":490:514   */\n      tag_153\n        /* \"#utility.yul\":508:513   */\n      dup2\n        /* \"#utility.yul\":490:514   */\n      tag_122\n      jump\t// in\n    tag_153:\n        /* \"#utility.yul\":483:488   */\n      dup2\n        /* \"#utility.yul\":480:515   */\n      eq\n        /* \"#utility.yul\":470:533   */\n      tag_154\n      jumpi\n        /* \"#utility.yul\":529:530   */\n      0x00\n        /* \"#utility.yul\":526:527   */\n      dup1\n        /* \"#utility.yul\":519:531   */\n      revert\n        /* \"#utility.yul\":470:533   */\n    tag_154:\n        /* \"#utility.yul\":417:539   */\n      pop\n      jump\t// out\n        /* \"#utility.yul\":545:684   */\n    tag_124:\n        /* \"#utility.yul\":591:596   */\n      0x00\n        /* \"#utility.yul\":629:635   */\n      dup2\n        /* \"#utility.yul\":616:636   */\n      calldataload\n        /* \"#utility.yul\":607:636   */\n      swap1\n      pop\n        /* \"#utility.yul\":645:678   */\n      tag_156\n        /* \"#utility.yul\":672:677   */\n      dup2\n        /* \"#utility.yul\":645:678   */\n      tag_123\n      jump\t// in\n    tag_156:\n        /* \"#utility.yul\":545:684   */\n      swap3\n      swap2\n      pop\n      pop\n      jump\t// out\n        /* \"#utility.yul\":690:1019   */\n    tag_17:\n        /* \"#utility.yul\":749:755   */\n      0x00\n        /* \"#utility.yul\":798:800   */\n      0x20\n        /* \"#utility.yul\":786:795   */\n      dup3\n        /* \"#utility.yul\":777:784   */\n      dup5\n        /* \"#utility.yul\":773:796   */\n      sub\n        /* \"#utility.yul\":769:801   */\n      slt\n        /* \"#utility.yul\":766:885   */\n      iszero\n      tag_158\n      jumpi\n        /* \"#utility.yul\":804:883   */\n      tag_159\n      tag_120\n      jump\t// in\n    tag_159:\n        /* \"#utility.yul\":766:885   */\n    tag_158:\n        /* \"#utility.yul\":924:925   */\n      0x00\n        /* \"#utility.yul\":949:1002   */\n      tag_160\n        /* \"#utility.yul\":994:1001   */\n      dup5\n        /* \"#utility.yul\":985:991   */\n      dup3\n        /* \"#utility.yul\":974:983   */\n      dup6\n        /* \"#utility.yul\":970:992   */\n      add\n        /* \"#utility.yul\":949:1002   */\n      tag_124\n      jump\t// in\n    tag_160:\n        /* \"#utility.yul\":939:1002   */\n      swap2\n      pop\n        /* \"#utility.yul\":895:1012   */\n      pop\n        /* \"#utility.yul\":690:1019   */\n      swap3\n      swap2\n      pop\n      pop\n      jump\t// out\n        /* \"#utility.yul\":1025:1143   */\n    tag_125:\n        /* \"#utility.yul\":1112:1136   */\n      tag_162\n        /* \"#utility.yul\":1130:1135   */\n      dup2\n        /* \"#utility.yul\":1112:1136   */\n      tag_122\n      jump\t// in\n    tag_162:\n        /* \"#utility.yul\":1107:1110   */\n      dup3\n        /* \"#utility.yul\":1100:1137   */\n      mstore\n        /* \"#utility.yul\":1025:1143   */\n      pop\n      pop\n      jump\t// out\n        /* \"#utility.yul\":1149:1371   */\n    tag_23:\n        /* \"#utility.yul\":1242:1246   */\n      0x00\n        /* \"#utility.yul\":1280:1282   */\n      0x20\n        /* \"#utility.yul\":1269:1278   */\n      dup3\n        /* \"#utility.yul\":1265:1283   */\n      add\n        /* \"#utility.yul\":1257:1283   */\n      swap1\n      pop\n        /* \"#utility.yul\":1293:1364   */\n      tag_164\n        /* \"#utility.yul\":1361:1362   */\n      0x00\n        /* \"#utility.yul\":1350:1359   */\n      dup4\n        /* \"#utility.yul\":1346:1363   */\n      add\n        /* \"#utility.yul\":1337:1343   */\n      dup5\n        /* \"#utility.yul\":1293:1364   */\n      tag_125\n      jump\t// in\n    tag_164:\n        /* \"#utility.yul\":1149:1371   */\n      swap3\n      swap2\n      pop\n      pop\n      jump\t// out\n        /* \"#utility.yul\":1377:1503   */\n    tag_126:\n        /* \"#utility.yul\":1414:1421   */\n      0x00\n        /* \"#utility.yul\":1454:1496   */\n      0xffffffffffffffffffffffffffffffffffffffff\n        /* \"#utility.yul\":1447:1452   */\n      dup3\n        /* \"#utility.yul\":1443:1497   */\n      and\n        /* \"#utility.yul\":1432:1497   */\n      swap1\n      pop\n        /* \"#utility.yul\":1377:1503   */\n      swap2\n      swap1\n      pop\n      jump\t// out\n        /* \"#utility.yul\":1509:1605   */\n    tag_127:\n        /* \"#utility.yul\":1546:1553   */\n      0x00\n        /* \"#utility.yul\":1575:1599   */\n      tag_167\n        /* \"#utility.yul\":1593:1598   */\n      dup3\n        /* \"#utility.yul\":1575:1599   */\n      tag_126\n      jump\t// in\n    tag_167:\n        /* \"#utility.yul\":1564:1599   */\n      swap1\n      pop\n        /* \"#utility.yul\":1509:1605   */\n      swap2\n      swap1\n      pop\n      jump\t// out\n        /* \"#utility.yul\":1611:1733   */\n    tag_128:\n        /* \"#utility.yul\":1684:1708   */\n      tag_169\n        /* \"#utility.yul\":1702:1707   */\n      dup2\n        /* \"#utility.yul\":1684:1708   */\n      tag_127\n      jump\t// in\n    tag_169:\n        /* \"#utility.yul\":1677:1682   */\n      dup2\n        /* \"#utility.yul\":1674:1709   */\n      eq\n        /* \"#utility.yul\":1664:1727   */\n      tag_170\n      jumpi\n        /* \"#utility.yul\":1723:1724   */\n      0x00\n        /* \"#utility.yul\":1720:1721   */\n      dup1\n        /* \"#utility.yul\":1713:1725   */\n      revert\n        /* \"#utility.yul\":1664:1727   */\n    tag_170:\n        /* \"#utility.yul\":1611:1733   */\n      pop\n      jump\t// out\n        /* \"#utility.yul\":1739:1878   */\n    tag_129:\n        /* \"#utility.yul\":1785:1790   */\n      0x00\n        /* \"#utility.yul\":1823:1829   */\n      dup2\n        /* \"#utility.yul\":1810:1830   */\n      calldataload\n        /* \"#utility.yul\":1801:1830   */\n      swap1\n      pop\n        /* \"#utility.yul\":1839:1872   */\n      tag_172\n        /* \"#utility.yul\":1866:1871   */\n      dup2\n        /* \"#utility.yul\":1839:1872   */\n      tag_128\n      jump\t// in\n    tag_172:\n        /* \"#utility.yul\":1739:1878   */\n      swap3\n      swap2\n      pop\n      pop\n      jump\t// out\n        /* \"#utility.yul\":1884:2213   */\n    tag_30:\n        /* \"#utility.yul\":1943:1949   */\n      0x00\n        /* \"#utility.yul\":1992:1994   */\n      0x20\n        /* \"#utility.yul\":1980:1989   */\n      dup3\n        /* \"#utility.yul\":1971:1978   */\n      dup5\n        /* \"#utility.yul\":1967:1990   */\n      sub\n        /* \"#utility.yul\":1963:1995   */\n      slt\n        /* \"#utility.yul\":1960:2079   */\n      iszero\n      tag_174\n      jumpi\n        /* \"#utility.yul\":1998:2077   */\n      tag_175\n      tag_120\n      jump\t// in\n    tag_175:\n        /* \"#utility.yul\":1960:2079   */\n    tag_174:\n        /* \"#utility.yul\":2118:2119   */\n      0x00\n        /* \"#utility.yul\":2143:2196   */\n      tag_176\n        /* \"#utility.yul\":2188:2195   */\n      dup5\n        /* \"#utility.yul\":2179:2185   */\n      dup3\n        /* \"#utility.yul\":2168:2177   */\n      dup6\n        /* \"#utility.yul\":2164:2186   */\n      add\n        /* \"#utility.yul\":2143:2196   */\n      tag_129\n      jump\t// in\n    tag_176:\n        /* \"#utility.yul\":2133:2196   */\n      swap2\n      pop\n        /* \"#utility.yul\":2089:2206   */\n      pop\n        /* \"#utility.yul\":1884:2213   */\n      swap3\n      swap2\n      pop\n      pop\n      jump\t// out\n        /* \"#utility.yul\":2219:2337   */\n    tag_130:\n        /* \"#utility.yul\":2306:2330   */\n      tag_178\n        /* \"#utility.yul\":2324:2329   */\n      dup2\n        /* \"#utility.yul\":2306:2330   */\n      tag_127\n      jump\t// in\n    tag_178:\n        /* \"#utility.yul\":2301:2304   */\n      dup3\n        /* \"#utility.yul\":2294:2331   */\n      mstore\n        /* \"#utility.yul\":2219:2337   */\n      pop\n      pop\n      jump\t// out\n        /* \"#utility.yul\":2343:2565   */\n    tag_41:\n        /* \"#utility.yul\":2436:2440   */\n      0x00\n        /* \"#utility.yul\":2474:2476   */\n      0x20\n        /* \"#utility.yul\":2463:2472   */\n      dup3\n        /* \"#utility.yul\":2459:2477   */\n      add\n        /* \"#utility.yul\":2451:2477   */\n      swap1\n      pop\n        /* \"#utility.yul\":2487:2558   */\n      tag_180\n        /* \"#utility.yul\":2555:2556   */\n      0x00\n        /* \"#utility.yul\":2544:2553   */\n      dup4\n        /* \"#utility.yul\":2540:2557   */\n      add\n        /* \"#utility.yul\":2531:2537   */\n      dup5\n        /* \"#utility.yul\":2487:2558   */\n      tag_130\n      jump\t// in\n    tag_180:\n        /* \"#utility.yul\":2343:2565   */\n      swap3\n      swap2\n      pop\n      pop\n      jump\t// out\n        /* \"#utility.yul\":2571:2740   */\n    tag_131:\n        /* \"#utility.yul\":2655:2666   */\n      0x00\n        /* \"#utility.yul\":2689:2695   */\n      dup3\n        /* \"#utility.yul\":2684:2687   */\n      dup3\n        /* \"#utility.yul\":2677:2696   */\n      mstore\n        /* \"#utility.yul\":2729:2733   */\n      0x20\n        /* \"#utility.yul\":2724:2727   */\n      dup3\n        /* \"#utility.yul\":2720:2734   */\n      add\n        /* \"#utility.yul\":2705:2734   */\n      swap1\n      pop\n        /* \"#utility.yul\":2571:2740   */\n      swap3\n      swap2\n      pop\n      pop\n      jump\t// out\n        /* \"#utility.yul\":2746:2971   */\n    tag_132:\n        /* \"#utility.yul\":2886:2920   */\n      0x4f6e6c7920746865206f776e65722063616e20706572666f726d207468697320\n        /* \"#utility.yul\":2882:2883   */\n      0x00\n        /* \"#utility.yul\":2874:2880   */\n      dup3\n        /* \"#utility.yul\":2870:2884   */\n      add\n        /* \"#utility.yul\":2863:2921   */\n      mstore\n        /* \"#utility.yul\":2955:2963   */\n      0x616374696f6e0000000000000000000000000000000000000000000000000000\n        /* \"#utility.yul\":2950:2952   */\n      0x20\n        /* \"#utility.yul\":2942:2948   */\n      dup3\n        /* \"#utility.yul\":2938:2953   */\n      add\n        /* \"#utility.yul\":2931:2964   */\n      mstore\n        /* \"#utility.yul\":2746:2971   */\n      pop\n      jump\t// out\n        /* \"#utility.yul\":2977:3343   */\n    tag_133:\n        /* \"#utility.yul\":3119:3122   */\n      0x00\n        /* \"#utility.yul\":3140:3207   */\n      tag_184\n        /* \"#utility.yul\":3204:3206   */\n      0x26\n        /* \"#utility.yul\":3199:3202   */\n      dup4\n        /* \"#utility.yul\":3140:3207   */\n      tag_131\n      jump\t// in\n    tag_184:\n        /* \"#utility.yul\":3133:3207   */\n      swap2\n      pop\n        /* \"#utility.yul\":3216:3309   */\n      tag_185\n        /* \"#utility.yul\":3305:3308   */\n      dup3\n        /* \"#utility.yul\":3216:3309   */\n      tag_132\n      jump\t// in\n    tag_185:\n        /* \"#utility.yul\":3334:3336   */\n      0x40\n        /* \"#utility.yul\":3329:3332   */\n      dup3\n        /* \"#utility.yul\":3325:3337   */\n      add\n        /* \"#utility.yul\":3318:3337   */\n      swap1\n      pop\n        /* \"#utility.yul\":2977:3343   */\n      swap2\n      swap1\n      pop\n      jump\t// out\n        /* \"#utility.yul\":3349:3768   */\n    tag_63:\n        /* \"#utility.yul\":3515:3519   */\n      0x00\n        /* \"#utility.yul\":3553:3555   */\n      0x20\n        /* \"#utility.yul\":3542:3551   */\n      dup3\n        /* \"#utility.yul\":3538:3556   */\n      add\n        /* \"#utility.yul\":3530:3556   */\n      swap1\n      pop\n        /* \"#utility.yul\":3602:3611   */\n      dup2\n        /* \"#utility.yul\":3596:3600   */\n      dup2\n        /* \"#utility.yul\":3592:3612   */\n      sub\n        /* \"#utility.yul\":3588:3589   */\n      0x00\n        /* \"#utility.yul\":3577:3586   */\n      dup4\n        /* \"#utility.yul\":3573:3590   */\n      add\n        /* \"#utility.yul\":3566:3613   */\n      mstore\n        /* \"#utility.yul\":3630:3761   */\n      tag_187\n        /* \"#utility.yul\":3756:3760   */\n      dup2\n        /* \"#utility.yul\":3630:3761   */\n      tag_133\n      jump\t// in\n    tag_187:\n        /* \"#utility.yul\":3622:3761   */\n      swap1\n      pop\n        /* \"#utility.yul\":3349:3768   */\n      swap2\n      swap1\n      pop\n      jump\t// out\n        /* \"#utility.yul\":3774:3954   */\n    tag_134:\n        /* \"#utility.yul\":3822:3899   */\n      0x4e487b7100000000000000000000000000000000000000000000000000000000\n        /* \"#utility.yul\":3819:3820   */\n      0x00\n        /* \"#utility.yul\":3812:3900   */\n      mstore\n        /* \"#utility.yul\":3919:3923   */\n      0x11\n        /* \"#utility.yul\":3916:3917   */\n      0x04\n        /* \"#utility.yul\":3909:3924   */\n      mstore\n        /* \"#utility.yul\":3943:3947   */\n      0x24\n        /* \"#utility.yul\":3940:3941   */\n      0x00\n        /* \"#utility.yul\":3933:3948   */\n      revert\n        /* \"#utility.yul\":3960:4151   */\n    tag_66:\n        /* \"#utility.yul\":4000:4003   */\n      0x00\n        /* \"#utility.yul\":4019:4039   */\n      tag_190\n        /* \"#utility.yul\":4037:4038   */\n      dup3\n        /* \"#utility.yul\":4019:4039   */\n      tag_122\n      jump\t// in\n    tag_190:\n        /* \"#utility.yul\":4014:4039   */\n      swap2\n      pop\n        /* \"#utility.yul\":4053:4073   */\n      tag_191\n        /* \"#utility.yul\":4071:4072   */\n      dup4\n        /* \"#utility.yul\":4053:4073   */\n      tag_122\n      jump\t// in\n    tag_191:\n        /* \"#utility.yul\":4048:4073   */\n      swap3\n      pop\n        /* \"#utility.yul\":4096:4097   */\n      dup3\n        /* \"#utility.yul\":4093:4094   */\n      dup3\n        /* \"#utility.yul\":4089:4098   */\n      add\n        /* \"#utility.yul\":4082:4098   */\n      swap1\n      pop\n        /* \"#utility.yul\":4117:4120   */\n      dup1\n        /* \"#utility.yul\":4114:4115   */\n      dup3\n        /* \"#utility.yul\":4111:4121   */\n      gt\n        /* \"#utility.yul\":4108:4144   */\n      iszero\n      tag_192\n      jumpi\n        /* \"#utility.yul\":4124:4142   */\n      tag_193\n      tag_134\n      jump\t// in\n    tag_193:\n        /* \"#utility.yul\":4108:4144   */\n    tag_192:\n        /* \"#utility.yul\":3960:4151   */\n      swap3\n      swap2\n      pop\n      pop\n      jump\t// out\n        /* \"#utility.yul\":4157:4332   */\n    tag_135:\n        /* \"#utility.yul\":4297:4324   */\n      0x41756374696f6e20686173206e6f7420656e6465642079657400000000000000\n        /* \"#utility.yul\":4293:4294   */\n      0x00\n        /* \"#utility.yul\":4285:4291   */\n      dup3\n        /* \"#utility.yul\":4281:4295   */\n      add\n        /* \"#utility.yul\":4274:4325   */\n      mstore\n        /* \"#utility.yul\":4157:4332   */\n      pop\n      jump\t// out\n        /* \"#utility.yul\":4338:4704   */\n    tag_136:\n        /* \"#utility.yul\":4480:4483   */\n      0x00\n        /* \"#utility.yul\":4501:4568   */\n      tag_196\n        /* \"#utility.yul\":4565:4567   */\n      0x19\n        /* \"#utility.yul\":4560:4563   */\n      dup4\n        /* \"#utility.yul\":4501:4568   */\n      tag_131\n      jump\t// in\n    tag_196:\n        /* \"#utility.yul\":4494:4568   */\n      swap2\n      pop\n        /* \"#utility.yul\":4577:4670   */\n      tag_197\n        /* \"#utility.yul\":4666:4669   */\n      dup3\n        /* \"#utility.yul\":4577:4670   */\n      tag_135\n      jump\t// in\n    tag_197:\n        /* \"#utility.yul\":4695:4697   */\n      0x20\n        /* \"#utility.yul\":4690:4693   */\n      dup3\n        /* \"#utility.yul\":4686:4698   */\n      add\n        /* \"#utility.yul\":4679:4698   */\n      swap1\n      pop\n        /* \"#utility.yul\":4338:4704   */\n      swap2\n      swap1\n      pop\n      jump\t// out\n        /* \"#utility.yul\":4710:5129   */\n    tag_70:\n        /* \"#utility.yul\":4876:4880   */\n      0x00\n        /* \"#utility.yul\":4914:4916   */\n      0x20\n        /* \"#utility.yul\":4903:4912   */\n      dup3\n        /* \"#utility.yul\":4899:4917   */\n      add\n        /* \"#utility.yul\":4891:4917   */\n      swap1\n      pop\n        /* \"#utility.yul\":4963:4972   */\n      dup2\n        /* \"#utility.yul\":4957:4961   */\n      dup2\n        /* \"#utility.yul\":4953:4973   */\n      sub\n        /* \"#utility.yul\":4949:4950   */\n      0x00\n        /* \"#utility.yul\":4938:4947   */\n      dup4\n        /* \"#utility.yul\":4934:4951   */\n      add\n        /* \"#utility.yul\":4927:4974   */\n      mstore\n        /* \"#utility.yul\":4991:5122   */\n      tag_199\n        /* \"#utility.yul\":5117:5121   */\n      dup2\n        /* \"#utility.yul\":4991:5122   */\n      tag_136\n      jump\t// in\n    tag_199:\n        /* \"#utility.yul\":4983:5122   */\n      swap1\n      pop\n        /* \"#utility.yul\":4710:5129   */\n      swap2\n      swap1\n      pop\n      jump\t// out\n        /* \"#utility.yul\":5135:5307   */\n    tag_137:\n        /* \"#utility.yul\":5275:5299   */\n      0x57696e6e65722063616e6e6f7420776974686472617700000000000000000000\n        /* \"#utility.yul\":5271:5272   */\n      0x00\n        /* \"#utility.yul\":5263:5269   */\n      dup3\n        /* \"#utility.yul\":5259:5273   */\n      add\n        /* \"#utility.yul\":5252:5300   */\n      mstore\n        /* \"#utility.yul\":5135:5307   */\n      pop\n      jump\t// out\n        /* \"#utility.yul\":5313:5679   */\n    tag_138:\n        /* \"#utility.yul\":5455:5458   */\n      0x00\n        /* \"#utility.yul\":5476:5543   */\n      tag_202\n        /* \"#utility.yul\":5540:5542   */\n      0x16\n        /* \"#utility.yul\":5535:5538   */\n      dup4\n        /* \"#utility.yul\":5476:5543   */\n      tag_131\n      jump\t// in\n    tag_202:\n        /* \"#utility.yul\":5469:5543   */\n      swap2\n      pop\n        /* \"#utility.yul\":5552:5645   */\n      tag_203\n        /* \"#utility.yul\":5641:5644   */\n      dup3\n        /* \"#utility.yul\":5552:5645   */\n      tag_137\n      jump\t// in\n    tag_203:\n        /* \"#utility.yul\":5670:5672   */\n      0x20\n        /* \"#utility.yul\":5665:5668   */\n      dup3\n        /* \"#utility.yul\":5661:5673   */\n      add\n        /* \"#utility.yul\":5654:5673   */\n      swap1\n      pop\n        /* \"#utility.yul\":5313:5679   */\n      swap2\n      swap1\n      pop\n      jump\t// out\n        /* \"#utility.yul\":5685:6104   */\n    tag_74:\n        /* \"#utility.yul\":5851:5855   */\n      0x00\n        /* \"#utility.yul\":5889:5891   */\n      0x20\n        /* \"#utility.yul\":5878:5887   */\n      dup3\n        /* \"#utility.yul\":5874:5892   */\n      add\n        /* \"#utility.yul\":5866:5892   */\n      swap1\n      pop\n        /* \"#utility.yul\":5938:5947   */\n      dup2\n        /* \"#utility.yul\":5932:5936   */\n      dup2\n        /* \"#utility.yul\":5928:5948   */\n      sub\n        /* \"#utility.yul\":5924:5925   */\n      0x00\n        /* \"#utility.yul\":5913:5922   */\n      dup4\n        /* \"#utility.yul\":5909:5926   */\n      add\n        /* \"#utility.yul\":5902:5949   */\n      mstore\n        /* \"#utility.yul\":5966:6097   */\n      tag_205\n        /* \"#utility.yul\":6092:6096   */\n      dup2\n        /* \"#utility.yul\":5966:6097   */\n      tag_138\n      jump\t// in\n    tag_205:\n        /* \"#utility.yul\":5958:6097   */\n      swap1\n      pop\n        /* \"#utility.yul\":5685:6104   */\n      swap2\n      swap1\n      pop\n      jump\t// out\n        /* \"#utility.yul\":6110:6280   */\n    tag_139:\n        /* \"#utility.yul\":6250:6272   */\n      0x4e6f2066756e647320746f207769746864726177000000000000000000000000\n        /* \"#utility.yul\":6246:6247   */\n      0x00\n        /* \"#utility.yul\":6238:6244   */\n      dup3\n        /* \"#utility.yul\":6234:6248   */\n      add\n        /* \"#utility.yul\":6227:6273   */\n      mstore\n        /* \"#utility.yul\":6110:6280   */\n      pop\n      jump\t// out\n        /* \"#utility.yul\":6286:6652   */\n    tag_140:\n        /* \"#utility.yul\":6428:6431   */\n      0x00\n        /* \"#utility.yul\":6449:6516   */\n      tag_208\n        /* \"#utility.yul\":6513:6515   */\n      0x14\n        /* \"#utility.yul\":6508:6511   */\n      dup4\n        /* \"#utility.yul\":6449:6516   */\n      tag_131\n      jump\t// in\n    tag_208:\n        /* \"#utility.yul\":6442:6516   */\n      swap2\n      pop\n        /* \"#utility.yul\":6525:6618   */\n      tag_209\n        /* \"#utility.yul\":6614:6617   */\n      dup3\n        /* \"#utility.yul\":6525:6618   */\n      tag_139\n      jump\t// in\n    tag_209:\n        /* \"#utility.yul\":6643:6645   */\n      0x20\n        /* \"#utility.yul\":6638:6641   */\n      dup3\n        /* \"#utility.yul\":6634:6646   */\n      add\n        /* \"#utility.yul\":6627:6646   */\n      swap1\n      pop\n        /* \"#utility.yul\":6286:6652   */\n      swap2\n      swap1\n      pop\n      jump\t// out\n        /* \"#utility.yul\":6658:7077   */\n    tag_77:\n        /* \"#utility.yul\":6824:6828   */\n      0x00\n        /* \"#utility.yul\":6862:6864   */\n      0x20\n        /* \"#utility.yul\":6851:6860   */\n      dup3\n        /* \"#utility.yul\":6847:6865   */\n      add\n        /* \"#utility.yul\":6839:6865   */\n      swap1\n      pop\n        /* \"#utility.yul\":6911:6920   */\n      dup2\n        /* \"#utility.yul\":6905:6909   */\n      dup2\n        /* \"#utility.yul\":6901:6921   */\n      sub\n        /* \"#utility.yul\":6897:6898   */\n      0x00\n        /* \"#utility.yul\":6886:6895   */\n      dup4\n        /* \"#utility.yul\":6882:6899   */\n      add\n        /* \"#utility.yul\":6875:6922   */\n      mstore\n        /* \"#utility.yul\":6939:7070   */\n      tag_211\n        /* \"#utility.yul\":7065:7069   */\n      dup2\n        /* \"#utility.yul\":6939:7070   */\n      tag_140\n      jump\t// in\n    tag_211:\n        /* \"#utility.yul\":6931:7070   */\n      swap1\n      pop\n        /* \"#utility.yul\":6658:7077   */\n      swap2\n      swap1\n      pop\n      jump\t// out\n        /* \"#utility.yul\":7083:7254   */\n    tag_141:\n        /* \"#utility.yul\":7223:7246   */\n      0x41756374696f6e206973206e6f74206163746976650000000000000000000000\n        /* \"#utility.yul\":7219:7220   */\n      0x00\n        /* \"#utility.yul\":7211:7217   */\n      dup3\n        /* \"#utility.yul\":7207:7221   */\n      add\n        /* \"#utility.yul\":7200:7247   */\n      mstore\n        /* \"#utility.yul\":7083:7254   */\n      pop\n      jump\t// out\n        /* \"#utility.yul\":7260:7626   */\n    tag_142:\n        /* \"#utility.yul\":7402:7405   */\n      0x00\n        /* \"#utility.yul\":7423:7490   */\n      tag_214\n        /* \"#utility.yul\":7487:7489   */\n      0x15\n        /* \"#utility.yul\":7482:7485   */\n      dup4\n        /* \"#utility.yul\":7423:7490   */\n      tag_131\n      jump\t// in\n    tag_214:\n        /* \"#utility.yul\":7416:7490   */\n      swap2\n      pop\n        /* \"#utility.yul\":7499:7592   */\n      tag_215\n        /* \"#utility.yul\":7588:7591   */\n      dup3\n        /* \"#utility.yul\":7499:7592   */\n      tag_141\n      jump\t// in\n    tag_215:\n        /* \"#utility.yul\":7617:7619   */\n      0x20\n        /* \"#utility.yul\":7612:7615   */\n      dup3\n        /* \"#utility.yul\":7608:7620   */\n      add\n        /* \"#utility.yul\":7601:7620   */\n      swap1\n      pop\n        /* \"#utility.yul\":7260:7626   */\n      swap2\n      swap1\n      pop\n      jump\t// out\n        /* \"#utility.yul\":7632:8051   */\n    tag_86:\n        /* \"#utility.yul\":7798:7802   */\n      0x00\n        /* \"#utility.yul\":7836:7838   */\n      0x20\n        /* \"#utility.yul\":7825:7834   */\n      dup3\n        /* \"#utility.yul\":7821:7839   */\n      add\n        /* \"#utility.yul\":7813:7839   */\n      swap1\n      pop\n        /* \"#utility.yul\":7885:7894   */\n      dup2\n        /* \"#utility.yul\":7879:7883   */\n      dup2\n        /* \"#utility.yul\":7875:7895   */\n      sub\n        /* \"#utility.yul\":7871:7872   */\n      0x00\n        /* \"#utility.yul\":7860:7869   */\n      dup4\n        /* \"#utility.yul\":7856:7873   */\n      add\n        /* \"#utility.yul\":7849:7896   */\n      mstore\n        /* \"#utility.yul\":7913:8044   */\n      tag_217\n        /* \"#utility.yul\":8039:8043   */\n      dup2\n        /* \"#utility.yul\":7913:8044   */\n      tag_142\n      jump\t// in\n    tag_217:\n        /* \"#utility.yul\":7905:8044   */\n      swap1\n      pop\n        /* \"#utility.yul\":7632:8051   */\n      swap2\n      swap1\n      pop\n      jump\t// out\n        /* \"#utility.yul\":8057:8291   */\n    tag_143:\n        /* \"#utility.yul\":8197:8231   */\n      0x426964206d75737420626520686967686572207468616e207468652063757272\n        /* \"#utility.yul\":8193:8194   */\n      0x00\n        /* \"#utility.yul\":8185:8191   */\n      dup3\n        /* \"#utility.yul\":8181:8195   */\n      add\n        /* \"#utility.yul\":8174:8232   */\n      mstore\n        /* \"#utility.yul\":8266:8283   */\n      0x656e742068696768657374206269640000000000000000000000000000000000\n        /* \"#utility.yul\":8261:8263   */\n      0x20\n        /* \"#utility.yul\":8253:8259   */\n      dup3\n        /* \"#utility.yul\":8249:8264   */\n      add\n        /* \"#utility.yul\":8242:8284   */\n      mstore\n        /* \"#utility.yul\":8057:8291   */\n      pop\n      jump\t// out\n        /* \"#utility.yul\":8297:8663   */\n    tag_144:\n        /* \"#utility.yul\":8439:8442   */\n      0x00\n        /* \"#utility.yul\":8460:8527   */\n      tag_220\n        /* \"#utility.yul\":8524:8526   */\n      0x2f\n        /* \"#utility.yul\":8519:8522   */\n      dup4\n        /* \"#utility.yul\":8460:8527   */\n      tag_131\n      jump\t// in\n    tag_220:\n        /* \"#utility.yul\":8453:8527   */\n      swap2\n      pop\n        /* \"#utility.yul\":8536:8629   */\n      tag_221\n        /* \"#utility.yul\":8625:8628   */\n      dup3\n        /* \"#utility.yul\":8536:8629   */\n      tag_143\n      jump\t// in\n    tag_221:\n        /* \"#utility.yul\":8654:8656   */\n      0x40\n        /* \"#utility.yul\":8649:8652   */\n      dup3\n        /* \"#utility.yul\":8645:8657   */\n      add\n        /* \"#utility.yul\":8638:8657   */\n      swap1\n      pop\n        /* \"#utility.yul\":8297:8663   */\n      swap2\n      swap1\n      pop\n      jump\t// out\n        /* \"#utility.yul\":8669:9088   */\n    tag_90:\n        /* \"#utility.yul\":8835:8839   */\n      0x00\n        /* \"#utility.yul\":8873:8875   */\n      0x20\n        /* \"#utility.yul\":8862:8871   */\n      dup3\n        /* \"#utility.yul\":8858:8876   */\n      add\n        /* \"#utility.yul\":8850:8876   */\n      swap1\n      pop\n        /* \"#utility.yul\":8922:8931   */\n      dup2\n        /* \"#utility.yul\":8916:8920   */\n      dup2\n        /* \"#utility.yul\":8912:8932   */\n      sub\n        /* \"#utility.yul\":8908:8909   */\n      0x00\n        /* \"#utility.yul\":8897:8906   */\n      dup4\n        /* \"#utility.yul\":8893:8910   */\n      add\n        /* \"#utility.yul\":8886:8933   */\n      mstore\n        /* \"#utility.yul\":8950:9081   */\n      tag_223\n        /* \"#utility.yul\":9076:9080   */\n      dup2\n        /* \"#utility.yul\":8950:9081   */\n      tag_144\n      jump\t// in\n    tag_223:\n        /* \"#utility.yul\":8942:9081   */\n      swap1\n      pop\n        /* \"#utility.yul\":8669:9088   */\n      swap2\n      swap1\n      pop\n      jump\t// out\n        /* \"#utility.yul\":9094:9258   */\n    tag_145:\n        /* \"#utility.yul\":9234:9250   */\n      0x4e6f206269647320706c61636564000000000000000000000000000000000000\n        /* \"#utility.yul\":9230:9231   */\n      0x00\n        /* \"#utility.yul\":9222:9228   */\n      dup3\n        /* \"#utility.yul\":9218:9232   */\n      add\n        /* \"#utility.yul\":9211:9251   */\n      mstore\n        /* \"#utility.yul\":9094:9258   */\n      pop\n      jump\t// out\n        /* \"#utility.yul\":9264:9630   */\n    tag_146:\n        /* \"#utility.yul\":9406:9409   */\n      0x00\n        /* \"#utility.yul\":9427:9494   */\n      tag_226\n        /* \"#utility.yul\":9491:9493   */\n      0x0e\n        /* \"#utility.yul\":9486:9489   */\n      dup4\n        /* \"#utility.yul\":9427:9494   */\n      tag_131\n      jump\t// in\n    tag_226:\n        /* \"#utility.yul\":9420:9494   */\n      swap2\n      pop\n        /* \"#utility.yul\":9503:9596   */\n      tag_227\n        /* \"#utility.yul\":9592:9595   */\n      dup3\n        /* \"#utility.yul\":9503:9596   */\n      tag_145\n      jump\t// in\n    tag_227:\n        /* \"#utility.yul\":9621:9623   */\n      0x20\n        /* \"#utility.yul\":9616:9619   */\n      dup3\n        /* \"#utility.yul\":9612:9624   */\n      add\n        /* \"#utility.yul\":9605:9624   */\n      swap1\n      pop\n        /* \"#utility.yul\":9264:9630   */\n      swap2\n      swap1\n      pop\n      jump\t// out\n        /* \"#utility.yul\":9636:10055   */\n    tag_105:\n        /* \"#utility.yul\":9802:9806   */\n      0x00\n        /* \"#utility.yul\":9840:9842   */\n      0x20\n        /* \"#utility.yul\":9829:9838   */\n      dup3\n        /* \"#utility.yul\":9825:9843   */\n      add\n        /* \"#utility.yul\":9817:9843   */\n      swap1\n      pop\n        /* \"#utility.yul\":9889:9898   */\n      dup2\n        /* \"#utility.yul\":9883:9887   */\n      dup2\n        /* \"#utility.yul\":9879:9899   */\n      sub\n        /* \"#utility.yul\":9875:9876   */\n      0x00\n        /* \"#utility.yul\":9864:9873   */\n      dup4\n        /* \"#utility.yul\":9860:9877   */\n      add\n        /* \"#utility.yul\":9853:9900   */\n      mstore\n        /* \"#utility.yul\":9917:10048   */\n      tag_229\n        /* \"#utility.yul\":10043:10047   */\n      dup2\n        /* \"#utility.yul\":9917:10048   */\n      tag_146\n      jump\t// in\n    tag_229:\n        /* \"#utility.yul\":9909:10048   */\n      swap1\n      pop\n        /* \"#utility.yul\":9636:10055   */\n      swap2\n      swap1\n      pop\n      jump\t// out\n        /* \"#utility.yul\":10061:10241   */\n    tag_113:\n        /* \"#utility.yul\":10109:10186   */\n      0x4e487b7100000000000000000000000000000000000000000000000000000000\n        /* \"#utility.yul\":10106:10107   */\n      0x00\n        /* \"#utility.yul\":10099:10187   */\n      mstore\n        /* \"#utility.yul\":10206:10210   */\n      0x32\n        /* \"#utility.yul\":10203:10204   */\n      0x04\n        /* \"#utility.yul\":10196:10211   */\n      mstore\n        /* \"#utility.yul\":10230:10234   */\n      0x24\n        /* \"#utility.yul\":10227:10228   */\n      0x00\n        /* \"#utility.yul\":10220:10235   */\n      revert\n\n    auxdata: 0xa2646970667358221220d796d99b39815565ed7ffeac6e384349c5cf3960e1c1df6ce25cfb587277458f64736f6c634300081a0033\n}\n",
				"bytecode": {
					"linkReferences": {},
					"object": "6080604052348015600e575f80fd5b50335f806101000a81548173ffffffffffffffffffffffffffffffffffffffff021916908373ffffffffffffffffffffffffffffffffffffffff1602179055506110d78061005b5f395ff3fe60806040526004361061009b575f3560e01c80638da5cb5b116100635780638da5cb5b1461016d57806391f9015714610197578063cff29dfd146101c1578063d57bde79146101fd578063ecfc7ecc14610227578063fe67a54b146102315761009b565b8063065de74c1461009f5780633197cbb6146100c75780633ccfd60b146100f157806362ea82db1461010757806378e9792514610143575b5f80fd5b3480156100aa575f80fd5b506100c560048036038101906100c09190610be0565b610247565b005b3480156100d2575f80fd5b506100db6102f2565b6040516100e89190610c1a565b60405180910390f35b3480156100fc575f80fd5b506101056102f8565b005b348015610112575f80fd5b5061012d60048036038101906101289190610c8d565b6104d7565b60405161013a9190610c1a565b60405180910390f35b34801561014e575f80fd5b506101576104ec565b6040516101649190610c1a565b60405180910390f35b348015610178575f80fd5b506101816104f2565b60405161018e9190610cc7565b60405180910390f35b3480156101a2575f80fd5b506101ab610515565b6040516101b89190610cc7565b60405180910390f35b3480156101cc575f80fd5b506101e760048036038101906101e29190610be0565b61053a565b6040516101f49190610cc7565b60405180910390f35b348015610208575f80fd5b50610211610575565b60405161021e9190610c1a565b60405180910390f35b61022f61057b565b005b34801561023c575f80fd5b5061024561081e565b005b5f8054906101000a900473ffffffffffffffffffffffffffffffffffffffff1673ffffffffffffffffffffffffffffffffffffffff163373ffffffffffffffffffffffffffffffffffffffff16146102d4576040517f08c379a00000000000000000000000000000000000000000000000000000000081526004016102cb90610d60565b60405180910390fd5b42600181905550806001546102e99190610dab565b60028190555050565b60025481565b600254421161033c576040517f08c379a000000000000000000000000000000000000000000000000000000000815260040161033390610e28565b60405180910390fd5b60045f9054906101000a900473ffffffffffffffffffffffffffffffffffffffff1673ffffffffffffffffffffffffffffffffffffffff163373ffffffffffffffffffffffffffffffffffffffff16036103cb576040517f08c379a00000000000000000000000000000000000000000000000000000000081526004016103c290610e90565b60405180910390fd5b5f60055f3373ffffffffffffffffffffffffffffffffffffffff1673ffffffffffffffffffffffffffffffffffffffff1681526020019081526020015f205490505f811161044e576040517f08c379a000000000000000000000000000000000000000000000000000000000815260040161044590610ef8565b60405180910390fd5b5f60055f3373ffffffffffffffffffffffffffffffffffffffff1673ffffffffffffffffffffffffffffffffffffffff1681526020019081526020015f20819055503373ffffffffffffffffffffffffffffffffffffffff166108fc8290811502906040515f60405180830381858888f193505050501580156104d3573d5f803e3d5ffd5b5050565b6005602052805f5260405f205f915090505481565b60015481565b5f8054906101000a900473ffffffffffffffffffffffffffffffffffffffff1681565b60045f9054906101000a900473ffffffffffffffffffffffffffffffffffffffff1681565b60068181548110610549575f80fd5b905f5260205f20015f915054906101000a900473ffffffffffffffffffffffffffffffffffffffff1681565b60035481565b600154421015801561058f57506002544211155b6105ce576040517f08c379a00000000000000000000000000000000000000000000000000000000081526004016105c590610f60565b60405180910390fd5b6003543411610612576040517f08c379a000000000000000000000000000000000000000000000000000000000815260040161060990610fee565b60405180910390fd5b5f60055f3373ffffffffffffffffffffffffffffffffffffffff1673ffffffffffffffffffffffffffffffffffffffff1681526020019081526020015f2054036106b757600633908060018154018082558091505060019003905f5260205f20015f9091909190916101000a81548173ffffffffffffffffffffffffffffffffffffffff021916908373ffffffffffffffffffffffffffffffffffffffff1602179055505b5f73ffffffffffffffffffffffffffffffffffffffff1660045f9054906101000a900473ffffffffffffffffffffffffffffffffffffffff1673ffffffffffffffffffffffffffffffffffffffff16146107825760035460055f60045f9054906101000a900473ffffffffffffffffffffffffffffffffffffffff1673ffffffffffffffffffffffffffffffffffffffff1673ffffffffffffffffffffffffffffffffffffffff1681526020019081526020015f205f82825461077a9190610dab565b925050819055505b346003819055503360045f6101000a81548173ffffffffffffffffffffffffffffffffffffffff021916908373ffffffffffffffffffffffffffffffffffffffff1602179055503460055f3373ffffffffffffffffffffffffffffffffffffffff1673ffffffffffffffffffffffffffffffffffffffff1681526020019081526020015f205f8282546108159190610dab565b92505081905550565b5f8054906101000a900473ffffffffffffffffffffffffffffffffffffffff1673ffffffffffffffffffffffffffffffffffffffff163373ffffffffffffffffffffffffffffffffffffffff16146108ab576040517f08c379a00000000000000000000000000000000000000000000000000000000081526004016108a290610d60565b60405180910390fd5b60025442116108ef576040517f08c379a00000000000000000000000000000000000000000000000000000000081526004016108e690610e28565b60405180910390fd5b5f73ffffffffffffffffffffffffffffffffffffffff1660045f9054906101000a900473ffffffffffffffffffffffffffffffffffffffff1673ffffffffffffffffffffffffffffffffffffffff160361097e576040517f08c379a000000000000000000000000000000000000000000000000000000000815260040161097590611056565b60405180910390fd5b5f8054906101000a900473ffffffffffffffffffffffffffffffffffffffff1673ffffffffffffffffffffffffffffffffffffffff166108fc60035490811502906040515f60405180830381858888f193505050501580156109e2573d5f803e3d5ffd5b505f5b600680549050811015610ba6575f60068281548110610a0757610a06611074565b5b905f5260205f20015f9054906101000a900473ffffffffffffffffffffffffffffffffffffffff16905060045f9054906101000a900473ffffffffffffffffffffffffffffffffffffffff1673ffffffffffffffffffffffffffffffffffffffff168173ffffffffffffffffffffffffffffffffffffffff1614158015610aca57505f60055f8373ffffffffffffffffffffffffffffffffffffffff1673ffffffffffffffffffffffffffffffffffffffff1681526020019081526020015f2054115b15610b98575f60055f8373ffffffffffffffffffffffffffffffffffffffff1673ffffffffffffffffffffffffffffffffffffffff1681526020019081526020015f205490505f60055f8473ffffffffffffffffffffffffffffffffffffffff1673ffffffffffffffffffffffffffffffffffffffff1681526020019081526020015f20819055508173ffffffffffffffffffffffffffffffffffffffff166108fc8290811502906040515f60405180830381858888f19350505050158015610b95573d5f803e3d5ffd5b50505b5080806001019150506109e5565b50565b5f80fd5b5f819050919050565b610bbf81610bad565b8114610bc9575f80fd5b50565b5f81359050610bda81610bb6565b92915050565b5f60208284031215610bf557610bf4610ba9565b5b5f610c0284828501610bcc565b91505092915050565b610c1481610bad565b82525050565b5f602082019050610c2d5f830184610c0b565b92915050565b5f73ffffffffffffffffffffffffffffffffffffffff82169050919050565b5f610c5c82610c33565b9050919050565b610c6c81610c52565b8114610c76575f80fd5b50565b5f81359050610c8781610c63565b92915050565b5f60208284031215610ca257610ca1610ba9565b5b5f610caf84828501610c79565b91505092915050565b610cc181610c52565b82525050565b5f602082019050610cda5f830184610cb8565b92915050565b5f82825260208201905092915050565b7f4f6e6c7920746865206f776e65722063616e20706572666f726d2074686973205f8201527f616374696f6e0000000000000000000000000000000000000000000000000000602082015250565b5f610d4a602683610ce0565b9150610d5582610cf0565b604082019050919050565b5f6020820190508181035f830152610d7781610d3e565b9050919050565b7f4e487b71000000000000000000000000000000000000000000000000000000005f52601160045260245ffd5b5f610db582610bad565b9150610dc083610bad565b9250828201905080821115610dd857610dd7610d7e565b5b92915050565b7f41756374696f6e20686173206e6f7420656e64656420796574000000000000005f82015250565b5f610e12601983610ce0565b9150610e1d82610dde565b602082019050919050565b5f6020820190508181035f830152610e3f81610e06565b9050919050565b7f57696e6e65722063616e6e6f74207769746864726177000000000000000000005f82015250565b5f610e7a601683610ce0565b9150610e8582610e46565b602082019050919050565b5f6020820190508181035f830152610ea781610e6e565b9050919050565b7f4e6f2066756e647320746f2077697468647261770000000000000000000000005f82015250565b5f610ee2601483610ce0565b9150610eed82610eae565b602082019050919050565b5f6020820190508181035f830152610f0f81610ed6565b9050919050565b7f41756374696f6e206973206e6f742061637469766500000000000000000000005f82015250565b5f610f4a601583610ce0565b9150610f5582610f16565b602082019050919050565b5f6020820190508181035f830152610f7781610f3e565b9050919050565b7f426964206d75737420626520686967686572207468616e2074686520637572725f8201527f656e742068696768657374206269640000000000000000000000000000000000602082015250565b5f610fd8602f83610ce0565b9150610fe382610f7e565b604082019050919050565b5f6020820190508181035f83015261100581610fcc565b9050919050565b7f4e6f206269647320706c616365640000000000000000000000000000000000005f82015250565b5f611040600e83610ce0565b915061104b8261100c565b602082019050919050565b5f6020820190508181035f83015261106d81611034565b9050919050565b7f4e487b71000000000000000000000000000000000000000000000000000000005f52603260045260245ffdfea2646970667358221220d796d99b39815565ed7ffeac6e384349c5cf3960e1c1df6ce25cfb587277458f64736f6c634300081a0033",
					"opcodes": "PUSH1 0x80 PUSH1 0x40 MSTORE CALLVALUE DUP1 ISZERO PUSH1 0xE JUMPI PUSH0 DUP1 REVERT JUMPDEST POP CALLER PUSH0 DUP1 PUSH2 0x100 EXP DUP2 SLOAD DUP2 PUSH20 0xFFFFFFFFFFFFFFFFFFFFFFFFFFFFFFFFFFFFFFFF MUL NOT AND SWAP1 DUP4 PUSH20 0xFFFFFFFFFFFFFFFFFFFFFFFFFFFFFFFFFFFFFFFF AND MUL OR SWAP1 SSTORE POP PUSH2 0x10D7 DUP1 PUSH2 0x5B PUSH0 CODECOPY PUSH0 RETURN INVALID PUSH1 0x80 PUSH1 0x40 MSTORE PUSH1 0x4 CALLDATASIZE LT PUSH2 0x9B JUMPI PUSH0 CALLDATALOAD PUSH1 0xE0 SHR DUP1 PUSH4 0x8DA5CB5B GT PUSH2 0x63 JUMPI DUP1 PUSH4 0x8DA5CB5B EQ PUSH2 0x16D JUMPI DUP1 PUSH4 0x91F90157 EQ PUSH2 0x197 JUMPI DUP1 PUSH4 0xCFF29DFD EQ PUSH2 0x1C1 JUMPI DUP1 PUSH4 0xD57BDE79 EQ PUSH2 0x1FD JUMPI DUP1 PUSH4 0xECFC7ECC EQ PUSH2 0x227 JUMPI DUP1 PUSH4 0xFE67A54B EQ PUSH2 0x231 JUMPI PUSH2 0x9B JUMP JUMPDEST DUP1 PUSH4 0x65DE74C EQ PUSH2 0x9F JUMPI DUP1 PUSH4 0x3197CBB6 EQ PUSH2 0xC7 JUMPI DUP1 PUSH4 0x3CCFD60B EQ PUSH2 0xF1 JUMPI DUP1 PUSH4 0x62EA82DB EQ PUSH2 0x107 JUMPI DUP1 PUSH4 0x78E97925 EQ PUSH2 0x143 JUMPI JUMPDEST PUSH0 DUP1 REVERT JUMPDEST CALLVALUE DUP1 ISZERO PUSH2 0xAA JUMPI PUSH0 DUP1 REVERT JUMPDEST POP PUSH2 0xC5 PUSH1 0x4 DUP1 CALLDATASIZE SUB DUP2 ADD SWAP1 PUSH2 0xC0 SWAP2 SWAP1 PUSH2 0xBE0 JUMP JUMPDEST PUSH2 0x247 JUMP JUMPDEST STOP JUMPDEST CALLVALUE DUP1 ISZERO PUSH2 0xD2 JUMPI PUSH0 DUP1 REVERT JUMPDEST POP PUSH2 0xDB PUSH2 0x2F2 JUMP JUMPDEST PUSH1 0x40 MLOAD PUSH2 0xE8 SWAP2 SWAP1 PUSH2 0xC1A JUMP JUMPDEST PUSH1 0x40 MLOAD DUP1 SWAP2 SUB SWAP1 RETURN JUMPDEST CALLVALUE DUP1 ISZERO PUSH2 0xFC JUMPI PUSH0 DUP1 REVERT JUMPDEST POP PUSH2 0x105 PUSH2 0x2F8 JUMP JUMPDEST STOP JUMPDEST CALLVALUE DUP1 ISZERO PUSH2 0x112 JUMPI PUSH0 DUP1 REVERT JUMPDEST POP PUSH2 0x12D PUSH1 0x4 DUP1 CALLDATASIZE SUB DUP2 ADD SWAP1 PUSH2 0x128 SWAP2 SWAP1 PUSH2 0xC8D JUMP JUMPDEST PUSH2 0x4D7 JUMP JUMPDEST PUSH1 0x40 MLOAD PUSH2 0x13A SWAP2 SWAP1 PUSH2 0xC1A JUMP JUMPDEST PUSH1 0x40 MLOAD DUP1 SWAP2 SUB SWAP1 RETURN JUMPDEST CALLVALUE DUP1 ISZERO PUSH2 0x14E JUMPI PUSH0 DUP1 REVERT JUMPDEST POP PUSH2 0x157 PUSH2 0x4EC JUMP JUMPDEST PUSH1 0x40 MLOAD PUSH2 0x164 SWAP2 SWAP1 PUSH2 0xC1A JUMP JUMPDEST PUSH1 0x40 MLOAD DUP1 SWAP2 SUB SWAP1 RETURN JUMPDEST CALLVALUE DUP1 ISZERO PUSH2 0x178 JUMPI PUSH0 DUP1 REVERT JUMPDEST POP PUSH2 0x181 PUSH2 0x4F2 JUMP JUMPDEST PUSH1 0x40 MLOAD PUSH2 0x18E SWAP2 SWAP1 PUSH2 0xCC7 JUMP JUMPDEST PUSH1 0x40 MLOAD DUP1 SWAP2 SUB SWAP1 RETURN JUMPDEST CALLVALUE DUP1 ISZERO PUSH2 0x1A2 JUMPI PUSH0 DUP1 REVERT JUMPDEST POP PUSH2 0x1AB PUSH2 0x515 JUMP JUMPDEST PUSH1 0x40 MLOAD PUSH2 0x1B8 SWAP2 SWAP1 PUSH2 0xCC7 JUMP JUMPDEST PUSH1 0x40 MLOAD DUP1 SWAP2 SUB SWAP1 RETURN JUMPDEST CALLVALUE DUP1 ISZERO PUSH2 0x1CC JUMPI PUSH0 DUP1 REVERT JUMPDEST POP PUSH2 0x1E7 PUSH1 0x4 DUP1 CALLDATASIZE SUB DUP2 ADD SWAP1 PUSH2 0x1E2 SWAP2 SWAP1 PUSH2 0xBE0 JUMP JUMPDEST PUSH2 0x53A JUMP JUMPDEST PUSH1 0x40 MLOAD PUSH2 0x1F4 SWAP2 SWAP1 PUSH2 0xCC7 JUMP JUMPDEST PUSH1 0x40 MLOAD DUP1 SWAP2 SUB SWAP1 RETURN JUMPDEST CALLVALUE DUP1 ISZERO PUSH2 0x208 JUMPI PUSH0 DUP1 REVERT JUMPDEST POP PUSH2 0x211 PUSH2 0x575 JUMP JUMPDEST PUSH1 0x40 MLOAD PUSH2 0x21E SWAP2 SWAP1 PUSH2 0xC1A JUMP JUMPDEST PUSH1 0x40 MLOAD DUP1 SWAP2 SUB SWAP1 RETURN JUMPDEST PUSH2 0x22F PUSH2 0x57B JUMP JUMPDEST STOP JUMPDEST CALLVALUE DUP1 ISZERO PUSH2 0x23C JUMPI PUSH0 DUP1 REVERT JUMPDEST POP PUSH2 0x245 PUSH2 0x81E JUMP JUMPDEST STOP JUMPDEST PUSH0 DUP1 SLOAD SWAP1 PUSH2 0x100 EXP SWAP1 DIV PUSH20 0xFFFFFFFFFFFFFFFFFFFFFFFFFFFFFFFFFFFFFFFF AND PUSH20 0xFFFFFFFFFFFFFFFFFFFFFFFFFFFFFFFFFFFFFFFF AND CALLER PUSH20 0xFFFFFFFFFFFFFFFFFFFFFFFFFFFFFFFFFFFFFFFF AND EQ PUSH2 0x2D4 JUMPI PUSH1 0x40 MLOAD PUSH32 0x8C379A000000000000000000000000000000000000000000000000000000000 DUP2 MSTORE PUSH1 0x4 ADD PUSH2 0x2CB SWAP1 PUSH2 0xD60 JUMP JUMPDEST PUSH1 0x40 MLOAD DUP1 SWAP2 SUB SWAP1 REVERT JUMPDEST TIMESTAMP PUSH1 0x1 DUP2 SWAP1 SSTORE POP DUP1 PUSH1 0x1 SLOAD PUSH2 0x2E9 SWAP2 SWAP1 PUSH2 0xDAB JUMP JUMPDEST PUSH1 0x2 DUP2 SWAP1 SSTORE POP POP JUMP JUMPDEST PUSH1 0x2 SLOAD DUP2 JUMP JUMPDEST PUSH1 0x2 SLOAD TIMESTAMP GT PUSH2 0x33C JUMPI PUSH1 0x40 MLOAD PUSH32 0x8C379A000000000000000000000000000000000000000000000000000000000 DUP2 MSTORE PUSH1 0x4 ADD PUSH2 0x333 SWAP1 PUSH2 0xE28 JUMP JUMPDEST PUSH1 0x40 MLOAD DUP1 SWAP2 SUB SWAP1 REVERT JUMPDEST PUSH1 0x4 PUSH0 SWAP1 SLOAD SWAP1 PUSH2 0x100 EXP SWAP1 DIV PUSH20 0xFFFFFFFFFFFFFFFFFFFFFFFFFFFFFFFFFFFFFFFF AND PUSH20 0xFFFFFFFFFFFFFFFFFFFFFFFFFFFFFFFFFFFFFFFF AND CALLER PUSH20 0xFFFFFFFFFFFFFFFFFFFFFFFFFFFFFFFFFFFFFFFF AND SUB PUSH2 0x3CB JUMPI PUSH1 0x40 MLOAD PUSH32 0x8C379A000000000000000000000000000000000000000000000000000000000 DUP2 MSTORE PUSH1 0x4 ADD PUSH2 0x3C2 SWAP1 PUSH2 0xE90 JUMP JUMPDEST PUSH1 0x40 MLOAD DUP1 SWAP2 SUB SWAP1 REVERT JUMPDEST PUSH0 PUSH1 0x5 PUSH0 CALLER PUSH20 0xFFFFFFFFFFFFFFFFFFFFFFFFFFFFFFFFFFFFFFFF AND PUSH20 0xFFFFFFFFFFFFFFFFFFFFFFFFFFFFFFFFFFFFFFFF AND DUP2 MSTORE PUSH1 0x20 ADD SWAP1 DUP2 MSTORE PUSH1 0x20 ADD PUSH0 KECCAK256 SLOAD SWAP1 POP PUSH0 DUP2 GT PUSH2 0x44E JUMPI PUSH1 0x40 MLOAD PUSH32 0x8C379A000000000000000000000000000000000000000000000000000000000 DUP2 MSTORE PUSH1 0x4 ADD PUSH2 0x445 SWAP1 PUSH2 0xEF8 JUMP JUMPDEST PUSH1 0x40 MLOAD DUP1 SWAP2 SUB SWAP1 REVERT JUMPDEST PUSH0 PUSH1 0x5 PUSH0 CALLER PUSH20 0xFFFFFFFFFFFFFFFFFFFFFFFFFFFFFFFFFFFFFFFF AND PUSH20 0xFFFFFFFFFFFFFFFFFFFFFFFFFFFFFFFFFFFFFFFF AND DUP2 MSTORE PUSH1 0x20 ADD SWAP1 DUP2 MSTORE PUSH1 0x20 ADD PUSH0 KECCAK256 DUP2 SWAP1 SSTORE POP CALLER PUSH20 0xFFFFFFFFFFFFFFFFFFFFFFFFFFFFFFFFFFFFFFFF AND PUSH2 0x8FC DUP3 SWAP1 DUP2 ISZERO MUL SWAP1 PUSH1 0x40 MLOAD PUSH0 PUSH1 0x40 MLOAD DUP1 DUP4 SUB DUP2 DUP6 DUP9 DUP9 CALL SWAP4 POP POP POP POP ISZERO DUP1 ISZERO PUSH2 0x4D3 JUMPI RETURNDATASIZE PUSH0 DUP1 RETURNDATACOPY RETURNDATASIZE PUSH0 REVERT JUMPDEST POP POP JUMP JUMPDEST PUSH1 0x5 PUSH1 0x20 MSTORE DUP1 PUSH0 MSTORE PUSH1 0x40 PUSH0 KECCAK256 PUSH0 SWAP2 POP SWAP1 POP SLOAD DUP2 JUMP JUMPDEST PUSH1 0x1 SLOAD DUP2 JUMP JUMPDEST PUSH0 DUP1 SLOAD SWAP1 PUSH2 0x100 EXP SWAP1 DIV PUSH20 0xFFFFFFFFFFFFFFFFFFFFFFFFFFFFFFFFFFFFFFFF AND DUP2 JUMP JUMPDEST PUSH1 0x4 PUSH0 SWAP1 SLOAD SWAP1 PUSH2 0x100 EXP SWAP1 DIV PUSH20 0xFFFFFFFFFFFFFFFFFFFFFFFFFFFFFFFFFFFFFFFF AND DUP2 JUMP JUMPDEST PUSH1 0x6 DUP2 DUP2 SLOAD DUP2 LT PUSH2 0x549 JUMPI PUSH0 DUP1 REVERT JUMPDEST SWAP1 PUSH0 MSTORE PUSH1 0x20 PUSH0 KECCAK256 ADD PUSH0 SWAP2 POP SLOAD SWAP1 PUSH2 0x100 EXP SWAP1 DIV PUSH20 0xFFFFFFFFFFFFFFFFFFFFFFFFFFFFFFFFFFFFFFFF AND DUP2 JUMP JUMPDEST PUSH1 0x3 SLOAD DUP2 JUMP JUMPDEST PUSH1 0x1 SLOAD TIMESTAMP LT ISZERO DUP1 ISZERO PUSH2 0x58F JUMPI POP PUSH1 0x2 SLOAD TIMESTAMP GT ISZERO JUMPDEST PUSH2 0x5CE JUMPI PUSH1 0x40 MLOAD PUSH32 0x8C379A000000000000000000000000000000000000000000000000000000000 DUP2 MSTORE PUSH1 0x4 ADD PUSH2 0x5C5 SWAP1 PUSH2 0xF60 JUMP JUMPDEST PUSH1 0x40 MLOAD DUP1 SWAP2 SUB SWAP1 REVERT JUMPDEST PUSH1 0x3 SLOAD CALLVALUE GT PUSH2 0x612 JUMPI PUSH1 0x40 MLOAD PUSH32 0x8C379A000000000000000000000000000000000000000000000000000000000 DUP2 MSTORE PUSH1 0x4 ADD PUSH2 0x609 SWAP1 PUSH2 0xFEE JUMP JUMPDEST PUSH1 0x40 MLOAD DUP1 SWAP2 SUB SWAP1 REVERT JUMPDEST PUSH0 PUSH1 0x5 PUSH0 CALLER PUSH20 0xFFFFFFFFFFFFFFFFFFFFFFFFFFFFFFFFFFFFFFFF AND PUSH20 0xFFFFFFFFFFFFFFFFFFFFFFFFFFFFFFFFFFFFFFFF AND DUP2 MSTORE PUSH1 0x20 ADD SWAP1 DUP2 MSTORE PUSH1 0x20 ADD PUSH0 KECCAK256 SLOAD SUB PUSH2 0x6B7 JUMPI PUSH1 0x6 CALLER SWAP1 DUP1 PUSH1 0x1 DUP2 SLOAD ADD DUP1 DUP3 SSTORE DUP1 SWAP2 POP POP PUSH1 0x1 SWAP1 SUB SWAP1 PUSH0 MSTORE PUSH1 0x20 PUSH0 KECCAK256 ADD PUSH0 SWAP1 SWAP2 SWAP1 SWAP2 SWAP1 SWAP2 PUSH2 0x100 EXP DUP2 SLOAD DUP2 PUSH20 0xFFFFFFFFFFFFFFFFFFFFFFFFFFFFFFFFFFFFFFFF MUL NOT AND SWAP1 DUP4 PUSH20 0xFFFFFFFFFFFFFFFFFFFFFFFFFFFFFFFFFFFFFFFF AND MUL OR SWAP1 SSTORE POP JUMPDEST PUSH0 PUSH20 0xFFFFFFFFFFFFFFFFFFFFFFFFFFFFFFFFFFFFFFFF AND PUSH1 0x4 PUSH0 SWAP1 SLOAD SWAP1 PUSH2 0x100 EXP SWAP1 DIV PUSH20 0xFFFFFFFFFFFFFFFFFFFFFFFFFFFFFFFFFFFFFFFF AND PUSH20 0xFFFFFFFFFFFFFFFFFFFFFFFFFFFFFFFFFFFFFFFF AND EQ PUSH2 0x782 JUMPI PUSH1 0x3 SLOAD PUSH1 0x5 PUSH0 PUSH1 0x4 PUSH0 SWAP1 SLOAD SWAP1 PUSH2 0x100 EXP SWAP1 DIV PUSH20 0xFFFFFFFFFFFFFFFFFFFFFFFFFFFFFFFFFFFFFFFF AND PUSH20 0xFFFFFFFFFFFFFFFFFFFFFFFFFFFFFFFFFFFFFFFF AND PUSH20 0xFFFFFFFFFFFFFFFFFFFFFFFFFFFFFFFFFFFFFFFF AND DUP2 MSTORE PUSH1 0x20 ADD SWAP1 DUP2 MSTORE PUSH1 0x20 ADD PUSH0 KECCAK256 PUSH0 DUP3 DUP3 SLOAD PUSH2 0x77A SWAP2 SWAP1 PUSH2 0xDAB JUMP JUMPDEST SWAP3 POP POP DUP2 SWAP1 SSTORE POP JUMPDEST CALLVALUE PUSH1 0x3 DUP2 SWAP1 SSTORE POP CALLER PUSH1 0x4 PUSH0 PUSH2 0x100 EXP DUP2 SLOAD DUP2 PUSH20 0xFFFFFFFFFFFFFFFFFFFFFFFFFFFFFFFFFFFFFFFF MUL NOT AND SWAP1 DUP4 PUSH20 0xFFFFFFFFFFFFFFFFFFFFFFFFFFFFFFFFFFFFFFFF AND MUL OR SWAP1 SSTORE POP CALLVALUE PUSH1 0x5 PUSH0 CALLER PUSH20 0xFFFFFFFFFFFFFFFFFFFFFFFFFFFFFFFFFFFFFFFF AND PUSH20 0xFFFFFFFFFFFFFFFFFFFFFFFFFFFFFFFFFFFFFFFF AND DUP2 MSTORE PUSH1 0x20 ADD SWAP1 DUP2 MSTORE PUSH1 0x20 ADD PUSH0 KECCAK256 PUSH0 DUP3 DUP3 SLOAD PUSH2 0x815 SWAP2 SWAP1 PUSH2 0xDAB JUMP JUMPDEST SWAP3 POP POP DUP2 SWAP1 SSTORE POP JUMP JUMPDEST PUSH0 DUP1 SLOAD SWAP1 PUSH2 0x100 EXP SWAP1 DIV PUSH20 0xFFFFFFFFFFFFFFFFFFFFFFFFFFFFFFFFFFFFFFFF AND PUSH20 0xFFFFFFFFFFFFFFFFFFFFFFFFFFFFFFFFFFFFFFFF AND CALLER PUSH20 0xFFFFFFFFFFFFFFFFFFFFFFFFFFFFFFFFFFFFFFFF AND EQ PUSH2 0x8AB JUMPI PUSH1 0x40 MLOAD PUSH32 0x8C379A000000000000000000000000000000000000000000000000000000000 DUP2 MSTORE PUSH1 0x4 ADD PUSH2 0x8A2 SWAP1 PUSH2 0xD60 JUMP JUMPDEST PUSH1 0x40 MLOAD DUP1 SWAP2 SUB SWAP1 REVERT JUMPDEST PUSH1 0x2 SLOAD TIMESTAMP GT PUSH2 0x8EF JUMPI PUSH1 0x40 MLOAD PUSH32 0x8C379A000000000000000000000000000000000000000000000000000000000 DUP2 MSTORE PUSH1 0x4 ADD PUSH2 0x8E6 SWAP1 PUSH2 0xE28 JUMP JUMPDEST PUSH1 0x40 MLOAD DUP1 SWAP2 SUB SWAP1 REVERT JUMPDEST PUSH0 PUSH20 0xFFFFFFFFFFFFFFFFFFFFFFFFFFFFFFFFFFFFFFFF AND PUSH1 0x4 PUSH0 SWAP1 SLOAD SWAP1 PUSH2 0x100 EXP SWAP1 DIV PUSH20 0xFFFFFFFFFFFFFFFFFFFFFFFFFFFFFFFFFFFFFFFF AND PUSH20 0xFFFFFFFFFFFFFFFFFFFFFFFFFFFFFFFFFFFFFFFF AND SUB PUSH2 0x97E JUMPI PUSH1 0x40 MLOAD PUSH32 0x8C379A000000000000000000000000000000000000000000000000000000000 DUP2 MSTORE PUSH1 0x4 ADD PUSH2 0x975 SWAP1 PUSH2 0x1056 JUMP JUMPDEST PUSH1 0x40 MLOAD DUP1 SWAP2 SUB SWAP1 REVERT JUMPDEST PUSH0 DUP1 SLOAD SWAP1 PUSH2 0x100 EXP SWAP1 DIV PUSH20 0xFFFFFFFFFFFFFFFFFFFFFFFFFFFFFFFFFFFFFFFF AND PUSH20 0xFFFFFFFFFFFFFFFFFFFFFFFFFFFFFFFFFFFFFFFF AND PUSH2 0x8FC PUSH1 0x3 SLOAD SWAP1 DUP2 ISZERO MUL SWAP1 PUSH1 0x40 MLOAD PUSH0 PUSH1 0x40 MLOAD DUP1 DUP4 SUB DUP2 DUP6 DUP9 DUP9 CALL SWAP4 POP POP POP POP ISZERO DUP1 ISZERO PUSH2 0x9E2 JUMPI RETURNDATASIZE PUSH0 DUP1 RETURNDATACOPY RETURNDATASIZE PUSH0 REVERT JUMPDEST POP PUSH0 JUMPDEST PUSH1 0x6 DUP1 SLOAD SWAP1 POP DUP2 LT ISZERO PUSH2 0xBA6 JUMPI PUSH0 PUSH1 0x6 DUP3 DUP2 SLOAD DUP2 LT PUSH2 0xA07 JUMPI PUSH2 0xA06 PUSH2 0x1074 JUMP JUMPDEST JUMPDEST SWAP1 PUSH0 MSTORE PUSH1 0x20 PUSH0 KECCAK256 ADD PUSH0 SWAP1 SLOAD SWAP1 PUSH2 0x100 EXP SWAP1 DIV PUSH20 0xFFFFFFFFFFFFFFFFFFFFFFFFFFFFFFFFFFFFFFFF AND SWAP1 POP PUSH1 0x4 PUSH0 SWAP1 SLOAD SWAP1 PUSH2 0x100 EXP SWAP1 DIV PUSH20 0xFFFFFFFFFFFFFFFFFFFFFFFFFFFFFFFFFFFFFFFF AND PUSH20 0xFFFFFFFFFFFFFFFFFFFFFFFFFFFFFFFFFFFFFFFF AND DUP2 PUSH20 0xFFFFFFFFFFFFFFFFFFFFFFFFFFFFFFFFFFFFFFFF AND EQ ISZERO DUP1 ISZERO PUSH2 0xACA JUMPI POP PUSH0 PUSH1 0x5 PUSH0 DUP4 PUSH20 0xFFFFFFFFFFFFFFFFFFFFFFFFFFFFFFFFFFFFFFFF AND PUSH20 0xFFFFFFFFFFFFFFFFFFFFFFFFFFFFFFFFFFFFFFFF AND DUP2 MSTORE PUSH1 0x20 ADD SWAP1 DUP2 MSTORE PUSH1 0x20 ADD PUSH0 KECCAK256 SLOAD GT JUMPDEST ISZERO PUSH2 0xB98 JUMPI PUSH0 PUSH1 0x5 PUSH0 DUP4 PUSH20 0xFFFFFFFFFFFFFFFFFFFFFFFFFFFFFFFFFFFFFFFF AND PUSH20 0xFFFFFFFFFFFFFFFFFFFFFFFFFFFFFFFFFFFFFFFF AND DUP2 MSTORE PUSH1 0x20 ADD SWAP1 DUP2 MSTORE PUSH1 0x20 ADD PUSH0 KECCAK256 SLOAD SWAP1 POP PUSH0 PUSH1 0x5 PUSH0 DUP5 PUSH20 0xFFFFFFFFFFFFFFFFFFFFFFFFFFFFFFFFFFFFFFFF AND PUSH20 0xFFFFFFFFFFFFFFFFFFFFFFFFFFFFFFFFFFFFFFFF AND DUP2 MSTORE PUSH1 0x20 ADD SWAP1 DUP2 MSTORE PUSH1 0x20 ADD PUSH0 KECCAK256 DUP2 SWAP1 SSTORE POP DUP2 PUSH20 0xFFFFFFFFFFFFFFFFFFFFFFFFFFFFFFFFFFFFFFFF AND PUSH2 0x8FC DUP3 SWAP1 DUP2 ISZERO MUL SWAP1 PUSH1 0x40 MLOAD PUSH0 PUSH1 0x40 MLOAD DUP1 DUP4 SUB DUP2 DUP6 DUP9 DUP9 CALL SWAP4 POP POP POP POP ISZERO DUP1 ISZERO PUSH2 0xB95 JUMPI RETURNDATASIZE PUSH0 DUP1 RETURNDATACOPY RETURNDATASIZE PUSH0 REVERT JUMPDEST POP POP JUMPDEST POP DUP1 DUP1 PUSH1 0x1 ADD SWAP2 POP POP PUSH2 0x9E5 JUMP JUMPDEST POP JUMP JUMPDEST PUSH0 DUP1 REVERT JUMPDEST PUSH0 DUP2 SWAP1 POP SWAP2 SWAP1 POP JUMP JUMPDEST PUSH2 0xBBF DUP2 PUSH2 0xBAD JUMP JUMPDEST DUP2 EQ PUSH2 0xBC9 JUMPI PUSH0 DUP1 REVERT JUMPDEST POP JUMP JUMPDEST PUSH0 DUP2 CALLDATALOAD SWAP1 POP PUSH2 0xBDA DUP2 PUSH2 0xBB6 JUMP JUMPDEST SWAP3 SWAP2 POP POP JUMP JUMPDEST PUSH0 PUSH1 0x20 DUP3 DUP5 SUB SLT ISZERO PUSH2 0xBF5 JUMPI PUSH2 0xBF4 PUSH2 0xBA9 JUMP JUMPDEST JUMPDEST PUSH0 PUSH2 0xC02 DUP5 DUP3 DUP6 ADD PUSH2 0xBCC JUMP JUMPDEST SWAP2 POP POP SWAP3 SWAP2 POP POP JUMP JUMPDEST PUSH2 0xC14 DUP2 PUSH2 0xBAD JUMP JUMPDEST DUP3 MSTORE POP POP JUMP JUMPDEST PUSH0 PUSH1 0x20 DUP3 ADD SWAP1 POP PUSH2 0xC2D PUSH0 DUP4 ADD DUP5 PUSH2 0xC0B JUMP JUMPDEST SWAP3 SWAP2 POP POP JUMP JUMPDEST PUSH0 PUSH20 0xFFFFFFFFFFFFFFFFFFFFFFFFFFFFFFFFFFFFFFFF DUP3 AND SWAP1 POP SWAP2 SWAP1 POP JUMP JUMPDEST PUSH0 PUSH2 0xC5C DUP3 PUSH2 0xC33 JUMP JUMPDEST SWAP1 POP SWAP2 SWAP1 POP JUMP JUMPDEST PUSH2 0xC6C DUP2 PUSH2 0xC52 JUMP JUMPDEST DUP2 EQ PUSH2 0xC76 JUMPI PUSH0 DUP1 REVERT JUMPDEST POP JUMP JUMPDEST PUSH0 DUP2 CALLDATALOAD SWAP1 POP PUSH2 0xC87 DUP2 PUSH2 0xC63 JUMP JUMPDEST SWAP3 SWAP2 POP POP JUMP JUMPDEST PUSH0 PUSH1 0x20 DUP3 DUP5 SUB SLT ISZERO PUSH2 0xCA2 JUMPI PUSH2 0xCA1 PUSH2 0xBA9 JUMP JUMPDEST JUMPDEST PUSH0 PUSH2 0xCAF DUP5 DUP3 DUP6 ADD PUSH2 0xC79 JUMP JUMPDEST SWAP2 POP POP SWAP3 SWAP2 POP POP JUMP JUMPDEST PUSH2 0xCC1 DUP2 PUSH2 0xC52 JUMP JUMPDEST DUP3 MSTORE POP POP JUMP JUMPDEST PUSH0 PUSH1 0x20 DUP3 ADD SWAP1 POP PUSH2 0xCDA PUSH0 DUP4 ADD DUP5 PUSH2 0xCB8 JUMP JUMPDEST SWAP3 SWAP2 POP POP JUMP JUMPDEST PUSH0 DUP3 DUP3 MSTORE PUSH1 0x20 DUP3 ADD SWAP1 POP SWAP3 SWAP2 POP POP JUMP JUMPDEST PUSH32 0x4F6E6C7920746865206F776E65722063616E20706572666F726D207468697320 PUSH0 DUP3 ADD MSTORE PUSH32 0x616374696F6E0000000000000000000000000000000000000000000000000000 PUSH1 0x20 DUP3 ADD MSTORE POP JUMP JUMPDEST PUSH0 PUSH2 0xD4A PUSH1 0x26 DUP4 PUSH2 0xCE0 JUMP JUMPDEST SWAP2 POP PUSH2 0xD55 DUP3 PUSH2 0xCF0 JUMP JUMPDEST PUSH1 0x40 DUP3 ADD SWAP1 POP SWAP2 SWAP1 POP JUMP JUMPDEST PUSH0 PUSH1 0x20 DUP3 ADD SWAP1 POP DUP2 DUP2 SUB PUSH0 DUP4 ADD MSTORE PUSH2 0xD77 DUP2 PUSH2 0xD3E JUMP JUMPDEST SWAP1 POP SWAP2 SWAP1 POP JUMP JUMPDEST PUSH32 0x4E487B7100000000000000000000000000000000000000000000000000000000 PUSH0 MSTORE PUSH1 0x11 PUSH1 0x4 MSTORE PUSH1 0x24 PUSH0 REVERT JUMPDEST PUSH0 PUSH2 0xDB5 DUP3 PUSH2 0xBAD JUMP JUMPDEST SWAP2 POP PUSH2 0xDC0 DUP4 PUSH2 0xBAD JUMP JUMPDEST SWAP3 POP DUP3 DUP3 ADD SWAP1 POP DUP1 DUP3 GT ISZERO PUSH2 0xDD8 JUMPI PUSH2 0xDD7 PUSH2 0xD7E JUMP JUMPDEST JUMPDEST SWAP3 SWAP2 POP POP JUMP JUMPDEST PUSH32 0x41756374696F6E20686173206E6F7420656E6465642079657400000000000000 PUSH0 DUP3 ADD MSTORE POP JUMP JUMPDEST PUSH0 PUSH2 0xE12 PUSH1 0x19 DUP4 PUSH2 0xCE0 JUMP JUMPDEST SWAP2 POP PUSH2 0xE1D DUP3 PUSH2 0xDDE JUMP JUMPDEST PUSH1 0x20 DUP3 ADD SWAP1 POP SWAP2 SWAP1 POP JUMP JUMPDEST PUSH0 PUSH1 0x20 DUP3 ADD SWAP1 POP DUP2 DUP2 SUB PUSH0 DUP4 ADD MSTORE PUSH2 0xE3F DUP2 PUSH2 0xE06 JUMP JUMPDEST SWAP1 POP SWAP2 SWAP1 POP JUMP JUMPDEST PUSH32 0x57696E6E65722063616E6E6F7420776974686472617700000000000000000000 PUSH0 DUP3 ADD MSTORE POP JUMP JUMPDEST PUSH0 PUSH2 0xE7A PUSH1 0x16 DUP4 PUSH2 0xCE0 JUMP JUMPDEST SWAP2 POP PUSH2 0xE85 DUP3 PUSH2 0xE46 JUMP JUMPDEST PUSH1 0x20 DUP3 ADD SWAP1 POP SWAP2 SWAP1 POP JUMP JUMPDEST PUSH0 PUSH1 0x20 DUP3 ADD SWAP1 POP DUP2 DUP2 SUB PUSH0 DUP4 ADD MSTORE PUSH2 0xEA7 DUP2 PUSH2 0xE6E JUMP JUMPDEST SWAP1 POP SWAP2 SWAP1 POP JUMP JUMPDEST PUSH32 0x4E6F2066756E647320746F207769746864726177000000000000000000000000 PUSH0 DUP3 ADD MSTORE POP JUMP JUMPDEST PUSH0 PUSH2 0xEE2 PUSH1 0x14 DUP4 PUSH2 0xCE0 JUMP JUMPDEST SWAP2 POP PUSH2 0xEED DUP3 PUSH2 0xEAE JUMP JUMPDEST PUSH1 0x20 DUP3 ADD SWAP1 POP SWAP2 SWAP1 POP JUMP JUMPDEST PUSH0 PUSH1 0x20 DUP3 ADD SWAP1 POP DUP2 DUP2 SUB PUSH0 DUP4 ADD MSTORE PUSH2 0xF0F DUP2 PUSH2 0xED6 JUMP JUMPDEST SWAP1 POP SWAP2 SWAP1 POP JUMP JUMPDEST PUSH32 0x41756374696F6E206973206E6F74206163746976650000000000000000000000 PUSH0 DUP3 ADD MSTORE POP JUMP JUMPDEST PUSH0 PUSH2 0xF4A PUSH1 0x15 DUP4 PUSH2 0xCE0 JUMP JUMPDEST SWAP2 POP PUSH2 0xF55 DUP3 PUSH2 0xF16 JUMP JUMPDEST PUSH1 0x20 DUP3 ADD SWAP1 POP SWAP2 SWAP1 POP JUMP JUMPDEST PUSH0 PUSH1 0x20 DUP3 ADD SWAP1 POP DUP2 DUP2 SUB PUSH0 DUP4 ADD MSTORE PUSH2 0xF77 DUP2 PUSH2 0xF3E JUMP JUMPDEST SWAP1 POP SWAP2 SWAP1 POP JUMP JUMPDEST PUSH32 0x426964206D75737420626520686967686572207468616E207468652063757272 PUSH0 DUP3 ADD MSTORE PUSH32 0x656E742068696768657374206269640000000000000000000000000000000000 PUSH1 0x20 DUP3 ADD MSTORE POP JUMP JUMPDEST PUSH0 PUSH2 0xFD8 PUSH1 0x2F DUP4 PUSH2 0xCE0 JUMP JUMPDEST SWAP2 POP PUSH2 0xFE3 DUP3 PUSH2 0xF7E JUMP JUMPDEST PUSH1 0x40 DUP3 ADD SWAP1 POP SWAP2 SWAP1 POP JUMP JUMPDEST PUSH0 PUSH1 0x20 DUP3 ADD SWAP1 POP DUP2 DUP2 SUB PUSH0 DUP4 ADD MSTORE PUSH2 0x1005 DUP2 PUSH2 0xFCC JUMP JUMPDEST SWAP1 POP SWAP2 SWAP1 POP JUMP JUMPDEST PUSH32 0x4E6F206269647320706C61636564000000000000000000000000000000000000 PUSH0 DUP3 ADD MSTORE POP JUMP JUMPDEST PUSH0 PUSH2 0x1040 PUSH1 0xE DUP4 PUSH2 0xCE0 JUMP JUMPDEST SWAP2 POP PUSH2 0x104B DUP3 PUSH2 0x100C JUMP JUMPDEST PUSH1 0x20 DUP3 ADD SWAP1 POP SWAP2 SWAP1 POP JUMP JUMPDEST PUSH0 PUSH1 0x20 DUP3 ADD SWAP1 POP DUP2 DUP2 SUB PUSH0 DUP4 ADD MSTORE PUSH2 0x106D DUP2 PUSH2 0x1034 JUMP JUMPDEST SWAP1 POP SWAP2 SWAP1 POP JUMP JUMPDEST PUSH32 0x4E487B7100000000000000000000000000000000000000000000000000000000 PUSH0 MSTORE PUSH1 0x32 PUSH1 0x4 MSTORE PUSH1 0x24 PUSH0 REVERT INVALID LOG2 PUSH5 0x6970667358 0x22 SLT KECCAK256 0xD7 SWAP7 0xD9 SWAP12 CODECOPY DUP2 SSTORE PUSH6 0xED7FFEAC6E38 NUMBER BLOBHASH 0xC5 0xCF CODECOPY PUSH1 0xE1 0xC1 0xDF PUSH13 0xE25CFB587277458F64736F6C63 NUMBER STOP ADDMOD BYTE STOP CALLER "
				},
				"gasEstimates": {
					"creation": {
						"codeDepositCost": "862200",
						"executionCost": "25159",
						"totalCost": "887359"
					},
					"external": {
						"bidders(uint256)": "4988",
						"bids(address)": "2869",
						"endAuction()": "infinite",
						"endTime()": "2448",
						"highestBid()": "2491",
						"highestBidder()": "2530",
						"owner()": "2505",
						"placeBid()": "infinite",
						"startAuction(uint256)": "infinite",
						"startTime()": "2514",
						"withdraw()": "infinite"
					}
				},
				"methodIdentifiers": {
					"bidders(uint256)": "cff29dfd",
					"bids(address)": "62ea82db",
					"endAuction()": "fe67a54b",
					"endTime()": "3197cbb6",
					"highestBid()": "d57bde79",
					"highestBidder()": "91f90157",
					"owner()": "8da5cb5b",
					"placeBid()": "ecfc7ecc",
					"startAuction(uint256)": "065de74c",
					"startTime()": "78e97925",
					"withdraw()": "3ccfd60b"
				}
			},
			"storageLayout": {
				"storage": [
					{
						"astId": 3,
						"contract": "contracts/Blockchain_Assignment_6/Tasks/Week_6_Task_1.sol:Auction",
						"label": "owner",
						"offset": 0,
						"slot": "0",
						"type": "t_address"
					},
					{
						"astId": 5,
						"contract": "contracts/Blockchain_Assignment_6/Tasks/Week_6_Task_1.sol:Auction",
						"label": "startTime",
						"offset": 0,
						"slot": "1",
						"type": "t_uint256"
					},
					{
						"astId": 7,
						"contract": "contracts/Blockchain_Assignment_6/Tasks/Week_6_Task_1.sol:Auction",
						"label": "endTime",
						"offset": 0,
						"slot": "2",
						"type": "t_uint256"
					},
					{
						"astId": 9,
						"contract": "contracts/Blockchain_Assignment_6/Tasks/Week_6_Task_1.sol:Auction",
						"label": "highestBid",
						"offset": 0,
						"slot": "3",
						"type": "t_uint256"
					},
					{
						"astId": 11,
						"contract": "contracts/Blockchain_Assignment_6/Tasks/Week_6_Task_1.sol:Auction",
						"label": "highestBidder",
						"offset": 0,
						"slot": "4",
						"type": "t_address"
					},
					{
						"astId": 15,
						"contract": "contracts/Blockchain_Assignment_6/Tasks/Week_6_Task_1.sol:Auction",
						"label": "bids",
						"offset": 0,
						"slot": "5",
						"type": "t_mapping(t_address,t_uint256)"
					},
					{
						"astId": 68,
						"contract": "contracts/Blockchain_Assignment_6/Tasks/Week_6_Task_1.sol:Auction",
						"label": "bidders",
						"offset": 0,
						"slot": "6",
						"type": "t_array(t_address)dyn_storage"
					}
				],
				"types": {
					"t_address": {
						"encoding": "inplace",
						"label": "address",
						"numberOfBytes": "20"
					},
					"t_array(t_address)dyn_storage": {
						"base": "t_address",
						"encoding": "dynamic_array",
						"label": "address[]",
						"numberOfBytes": "32"
					},
					"t_mapping(t_address,t_uint256)": {
						"encoding": "mapping",
						"key": "t_address",
						"label": "mapping(address => uint256)",
						"numberOfBytes": "32",
						"value": "t_uint256"
					},
					"t_uint256": {
						"encoding": "inplace",
						"label": "uint256",
						"numberOfBytes": "32"
					}
				}
			},
			"userdoc": {
				"kind": "user",
				"methods": {},
				"version": 1
			}
		}
	}
}