{
	"contracts/Blockchain_Assignment_6/Tasks/Week_6_Task_4.sol": {
		"Crowdfunding": {
			"abi": [
				{
					"inputs": [],
					"stateMutability": "nonpayable",
					"type": "constructor"
				},
				{
					"inputs": [],
					"name": "contribute",
					"outputs": [],
					"stateMutability": "payable",
					"type": "function"
				},
				{
					"inputs": [
						{
							"internalType": "address",
							"name": "",
							"type": "address"
						}
					],
					"name": "contributions",
					"outputs": [
						{
							"internalType": "uint256",
							"name": "",
							"type": "uint256"
						}
					],
					"stateMutability": "view",
					"type": "function"
				},
				{
					"inputs": [],
					"name": "deadline",
					"outputs": [
						{
							"internalType": "uint256",
							"name": "",
							"type": "uint256"
						}
					],
					"stateMutability": "view",
					"type": "function"
				},
				{
					"inputs": [],
					"name": "goal",
					"outputs": [
						{
							"internalType": "uint256",
							"name": "",
							"type": "uint256"
						}
					],
					"stateMutability": "view",
					"type": "function"
				},
				{
					"inputs": [],
					"name": "owner",
					"outputs": [
						{
							"internalType": "address",
							"name": "",
							"type": "address"
						}
					],
					"stateMutability": "view",
					"type": "function"
				},
				{
					"inputs": [],
					"name": "raisedAmount",
					"outputs": [
						{
							"internalType": "uint256",
							"name": "",
							"type": "uint256"
						}
					],
					"stateMutability": "view",
					"type": "function"
				},
				{
					"inputs": [],
					"name": "refund",
					"outputs": [],
					"stateMutability": "nonpayable",
					"type": "function"
				},
				{
					"inputs": [
						{
							"internalType": "uint256",
							"name": "_goal",
							"type": "uint256"
						},
						{
							"internalType": "uint256",
							"name": "_duration",
							"type": "uint256"
						}
					],
					"name": "startCampaign",
					"outputs": [],
					"stateMutability": "nonpayable",
					"type": "function"
				},
				{
					"inputs": [],
					"name": "withdrawFunds",
					"outputs": [],
					"stateMutability": "nonpayable",
					"type": "function"
				}
			],
			"devdoc": {
				"kind": "dev",
				"methods": {},
				"version": 1
			},
			"evm": {
				"assembly": "    /* \"contracts/Blockchain_Assignment_6/Tasks/Week_6_Task_4.sol\":60:1588  contract Crowdfunding {... */\n  mstore(0x40, 0x80)\n    /* \"contracts/Blockchain_Assignment_6/Tasks/Week_6_Task_4.sol\":520:571  constructor() {... */\n  callvalue\n  dup1\n  iszero\n  tag_1\n  jumpi\n  0x00\n  dup1\n  revert\ntag_1:\n  pop\n    /* \"contracts/Blockchain_Assignment_6/Tasks/Week_6_Task_4.sol\":553:563  msg.sender */\n  caller\n    /* \"contracts/Blockchain_Assignment_6/Tasks/Week_6_Task_4.sol\":545:550  owner */\n  0x00\n  dup1\n    /* \"contracts/Blockchain_Assignment_6/Tasks/Week_6_Task_4.sol\":545:563  owner = msg.sender */\n  0x0100\n  exp\n  dup2\n  sload\n  dup2\n  0xffffffffffffffffffffffffffffffffffffffff\n  mul\n  not\n  and\n  swap1\n  dup4\n  0xffffffffffffffffffffffffffffffffffffffff\n  and\n  mul\n  or\n  swap1\n  sstore\n  pop\n    /* \"contracts/Blockchain_Assignment_6/Tasks/Week_6_Task_4.sol\":60:1588  contract Crowdfunding {... */\n  dataSize(sub_0)\n  dup1\n  dataOffset(sub_0)\n  0x00\n  codecopy\n  0x00\n  return\nstop\n\nsub_0: assembly {\n        /* \"contracts/Blockchain_Assignment_6/Tasks/Week_6_Task_4.sol\":60:1588  contract Crowdfunding {... */\n      mstore(0x40, 0x80)\n      jumpi(tag_1, lt(calldatasize, 0x04))\n      shr(0xe0, calldataload(0x00))\n      dup1\n      0x590e1ae3\n      gt\n      tag_11\n      jumpi\n      dup1\n      0x590e1ae3\n      eq\n      tag_6\n      jumpi\n      dup1\n      0x8da5cb5b\n      eq\n      tag_7\n      jumpi\n      dup1\n      0xc59ee1dc\n      eq\n      tag_8\n      jumpi\n      dup1\n      0xd7bb99ba\n      eq\n      tag_9\n      jumpi\n      dup1\n      0xf413d468\n      eq\n      tag_10\n      jumpi\n      jump(tag_1)\n    tag_11:\n      dup1\n      0x24600fc3\n      eq\n      tag_2\n      jumpi\n      dup1\n      0x29dcb0cf\n      eq\n      tag_3\n      jumpi\n      dup1\n      0x40193883\n      eq\n      tag_4\n      jumpi\n      dup1\n      0x42e94c90\n      eq\n      tag_5\n      jumpi\n    tag_1:\n      0x00\n      dup1\n      revert\n        /* \"contracts/Blockchain_Assignment_6/Tasks/Week_6_Task_4.sol\":966:1159  function withdrawFunds() public onlyOwner {... */\n    tag_2:\n      callvalue\n      dup1\n      iszero\n      tag_12\n      jumpi\n      0x00\n      dup1\n      revert\n    tag_12:\n      pop\n      tag_13\n      tag_14\n      jump\t// in\n    tag_13:\n      stop\n        /* \"contracts/Blockchain_Assignment_6/Tasks/Week_6_Task_4.sol\":142:165  uint256 public deadline */\n    tag_3:\n      callvalue\n      dup1\n      iszero\n      tag_15\n      jumpi\n      0x00\n      dup1\n      revert\n    tag_15:\n      pop\n      tag_16\n      tag_17\n      jump\t// in\n    tag_16:\n      mload(0x40)\n      tag_18\n      swap2\n      swap1\n      tag_19\n      jump\t// in\n    tag_18:\n      mload(0x40)\n      dup1\n      swap2\n      sub\n      swap1\n      return\n        /* \"contracts/Blockchain_Assignment_6/Tasks/Week_6_Task_4.sol\":116:135  uint256 public goal */\n    tag_4:\n      callvalue\n      dup1\n      iszero\n      tag_20\n      jumpi\n      0x00\n      dup1\n      revert\n    tag_20:\n      pop\n      tag_21\n      tag_22\n      jump\t// in\n    tag_21:\n      mload(0x40)\n      tag_23\n      swap2\n      swap1\n      tag_19\n      jump\t// in\n    tag_23:\n      mload(0x40)\n      dup1\n      swap2\n      sub\n      swap1\n      return\n        /* \"contracts/Blockchain_Assignment_6/Tasks/Week_6_Task_4.sol\":206:254  mapping(address => uint256) public contributions */\n    tag_5:\n      callvalue\n      dup1\n      iszero\n      tag_24\n      jumpi\n      0x00\n      dup1\n      revert\n    tag_24:\n      pop\n      tag_25\n      0x04\n      dup1\n      calldatasize\n      sub\n      dup2\n      add\n      swap1\n      tag_26\n      swap2\n      swap1\n      tag_27\n      jump\t// in\n    tag_26:\n      tag_28\n      jump\t// in\n    tag_25:\n      mload(0x40)\n      tag_29\n      swap2\n      swap1\n      tag_19\n      jump\t// in\n    tag_29:\n      mload(0x40)\n      dup1\n      swap2\n      sub\n      swap1\n      return\n        /* \"contracts/Blockchain_Assignment_6/Tasks/Week_6_Task_4.sol\":1167:1585  function refund() public {... */\n    tag_6:\n      callvalue\n      dup1\n      iszero\n      tag_30\n      jumpi\n      0x00\n      dup1\n      revert\n    tag_30:\n      pop\n      tag_31\n      tag_32\n      jump\t// in\n    tag_31:\n      stop\n        /* \"contracts/Blockchain_Assignment_6/Tasks/Week_6_Task_4.sol\":89:109  address public owner */\n    tag_7:\n      callvalue\n      dup1\n      iszero\n      tag_33\n      jumpi\n      0x00\n      dup1\n      revert\n    tag_33:\n      pop\n      tag_34\n      tag_35\n      jump\t// in\n    tag_34:\n      mload(0x40)\n      tag_36\n      swap2\n      swap1\n      tag_37\n      jump\t// in\n    tag_36:\n      mload(0x40)\n      dup1\n      swap2\n      sub\n      swap1\n      return\n        /* \"contracts/Blockchain_Assignment_6/Tasks/Week_6_Task_4.sol\":172:199  uint256 public raisedAmount */\n    tag_8:\n      callvalue\n      dup1\n      iszero\n      tag_38\n      jumpi\n      0x00\n      dup1\n      revert\n    tag_38:\n      pop\n      tag_39\n      tag_40\n      jump\t// in\n    tag_39:\n      mload(0x40)\n      tag_41\n      swap2\n      swap1\n      tag_19\n      jump\t// in\n    tag_41:\n      mload(0x40)\n      dup1\n      swap2\n      sub\n      swap1\n      return\n        /* \"contracts/Blockchain_Assignment_6/Tasks/Week_6_Task_4.sol\":741:958  function contribute() public payable campaignActive {... */\n    tag_9:\n      tag_42\n      tag_43\n      jump\t// in\n    tag_42:\n      stop\n        /* \"contracts/Blockchain_Assignment_6/Tasks/Week_6_Task_4.sol\":579:733  function startCampaign(uint256 _goal, uint256 _duration) public onlyOwner {... */\n    tag_10:\n      callvalue\n      dup1\n      iszero\n      tag_44\n      jumpi\n      0x00\n      dup1\n      revert\n    tag_44:\n      pop\n      tag_45\n      0x04\n      dup1\n      calldatasize\n      sub\n      dup2\n      add\n      swap1\n      tag_46\n      swap2\n      swap1\n      tag_47\n      jump\t// in\n    tag_46:\n      tag_48\n      jump\t// in\n    tag_45:\n      stop\n        /* \"contracts/Blockchain_Assignment_6/Tasks/Week_6_Task_4.sol\":966:1159  function withdrawFunds() public onlyOwner {... */\n    tag_14:\n        /* \"contracts/Blockchain_Assignment_6/Tasks/Week_6_Task_4.sol\":317:322  owner */\n      0x00\n      dup1\n      sload\n      swap1\n      0x0100\n      exp\n      swap1\n      div\n      0xffffffffffffffffffffffffffffffffffffffff\n      and\n        /* \"contracts/Blockchain_Assignment_6/Tasks/Week_6_Task_4.sol\":303:322  msg.sender == owner */\n      0xffffffffffffffffffffffffffffffffffffffff\n      and\n        /* \"contracts/Blockchain_Assignment_6/Tasks/Week_6_Task_4.sol\":303:313  msg.sender */\n      caller\n        /* \"contracts/Blockchain_Assignment_6/Tasks/Week_6_Task_4.sol\":303:322  msg.sender == owner */\n      0xffffffffffffffffffffffffffffffffffffffff\n      and\n      eq\n        /* \"contracts/Blockchain_Assignment_6/Tasks/Week_6_Task_4.sol\":295:365  require(msg.sender == owner, \"Only the owner can perform this action\") */\n      tag_50\n      jumpi\n      mload(0x40)\n      0x08c379a000000000000000000000000000000000000000000000000000000000\n      dup2\n      mstore\n      0x04\n      add\n      tag_51\n      swap1\n      tag_52\n      jump\t// in\n    tag_51:\n      mload(0x40)\n      dup1\n      swap2\n      sub\n      swap1\n      revert\n    tag_50:\n        /* \"contracts/Blockchain_Assignment_6/Tasks/Week_6_Task_4.sol\":1043:1047  goal */\n      sload(0x01)\n        /* \"contracts/Blockchain_Assignment_6/Tasks/Week_6_Task_4.sol\":1027:1039  raisedAmount */\n      sload(0x03)\n        /* \"contracts/Blockchain_Assignment_6/Tasks/Week_6_Task_4.sol\":1027:1047  raisedAmount >= goal */\n      lt\n      iszero\n        /* \"contracts/Blockchain_Assignment_6/Tasks/Week_6_Task_4.sol\":1019:1076  require(raisedAmount >= goal, \"Funding goal not reached\") */\n      tag_54\n      jumpi\n      mload(0x40)\n      0x08c379a000000000000000000000000000000000000000000000000000000000\n      dup2\n      mstore\n      0x04\n      add\n      tag_55\n      swap1\n      tag_56\n      jump\t// in\n    tag_55:\n      mload(0x40)\n      dup1\n      swap2\n      sub\n      swap1\n      revert\n    tag_54:\n        /* \"contracts/Blockchain_Assignment_6/Tasks/Week_6_Task_4.sol\":1095:1100  owner */\n      0x00\n      dup1\n      sload\n      swap1\n      0x0100\n      exp\n      swap1\n      div\n      0xffffffffffffffffffffffffffffffffffffffff\n      and\n        /* \"contracts/Blockchain_Assignment_6/Tasks/Week_6_Task_4.sol\":1087:1110  payable(owner).transfer */\n      0xffffffffffffffffffffffffffffffffffffffff\n      and\n        /* \"contracts/Blockchain_Assignment_6/Tasks/Week_6_Task_4.sol\":1087:1124  payable(owner).transfer(raisedAmount) */\n      0x08fc\n        /* \"contracts/Blockchain_Assignment_6/Tasks/Week_6_Task_4.sol\":1111:1123  raisedAmount */\n      sload(0x03)\n        /* \"contracts/Blockchain_Assignment_6/Tasks/Week_6_Task_4.sol\":1087:1124  payable(owner).transfer(raisedAmount) */\n      swap1\n      dup2\n      iszero\n      mul\n      swap1\n      mload(0x40)\n      0x00\n      mload(0x40)\n      dup1\n      dup4\n      sub\n      dup2\n      dup6\n      dup9\n      dup9\n      call\n      swap4\n      pop\n      pop\n      pop\n      pop\n      iszero\n      dup1\n      iszero\n      tag_58\n      jumpi\n      returndatasize\n      0x00\n      dup1\n      returndatacopy\n      revert(0x00, returndatasize)\n    tag_58:\n      pop\n        /* \"contracts/Blockchain_Assignment_6/Tasks/Week_6_Task_4.sol\":1150:1151  0 */\n      0x00\n        /* \"contracts/Blockchain_Assignment_6/Tasks/Week_6_Task_4.sol\":1135:1147  raisedAmount */\n      0x03\n        /* \"contracts/Blockchain_Assignment_6/Tasks/Week_6_Task_4.sol\":1135:1151  raisedAmount = 0 */\n      dup2\n      swap1\n      sstore\n      pop\n        /* \"contracts/Blockchain_Assignment_6/Tasks/Week_6_Task_4.sol\":966:1159  function withdrawFunds() public onlyOwner {... */\n      jump\t// out\n        /* \"contracts/Blockchain_Assignment_6/Tasks/Week_6_Task_4.sol\":142:165  uint256 public deadline */\n    tag_17:\n      sload(0x02)\n      dup2\n      jump\t// out\n        /* \"contracts/Blockchain_Assignment_6/Tasks/Week_6_Task_4.sol\":116:135  uint256 public goal */\n    tag_22:\n      sload(0x01)\n      dup2\n      jump\t// out\n        /* \"contracts/Blockchain_Assignment_6/Tasks/Week_6_Task_4.sol\":206:254  mapping(address => uint256) public contributions */\n    tag_28:\n      mstore(0x20, 0x04)\n      dup1\n      0x00\n      mstore\n      keccak256(0x00, 0x40)\n      0x00\n      swap2\n      pop\n      swap1\n      pop\n      sload\n      dup2\n      jump\t// out\n        /* \"contracts/Blockchain_Assignment_6/Tasks/Week_6_Task_4.sol\":1167:1585  function refund() public {... */\n    tag_32:\n        /* \"contracts/Blockchain_Assignment_6/Tasks/Week_6_Task_4.sol\":1229:1237  deadline */\n      sload(0x02)\n        /* \"contracts/Blockchain_Assignment_6/Tasks/Week_6_Task_4.sol\":1211:1226  block.timestamp */\n      timestamp\n        /* \"contracts/Blockchain_Assignment_6/Tasks/Week_6_Task_4.sol\":1211:1237  block.timestamp > deadline */\n      gt\n        /* \"contracts/Blockchain_Assignment_6/Tasks/Week_6_Task_4.sol\":1203:1266  require(block.timestamp > deadline, \"Campaign is still active\") */\n      tag_60\n      jumpi\n      mload(0x40)\n      0x08c379a000000000000000000000000000000000000000000000000000000000\n      dup2\n      mstore\n      0x04\n      add\n      tag_61\n      swap1\n      tag_62\n      jump\t// in\n    tag_61:\n      mload(0x40)\n      dup1\n      swap2\n      sub\n      swap1\n      revert\n    tag_60:\n        /* \"contracts/Blockchain_Assignment_6/Tasks/Week_6_Task_4.sol\":1300:1304  goal */\n      sload(0x01)\n        /* \"contracts/Blockchain_Assignment_6/Tasks/Week_6_Task_4.sol\":1285:1297  raisedAmount */\n      sload(0x03)\n        /* \"contracts/Blockchain_Assignment_6/Tasks/Week_6_Task_4.sol\":1285:1304  raisedAmount < goal */\n      lt\n        /* \"contracts/Blockchain_Assignment_6/Tasks/Week_6_Task_4.sol\":1277:1356  require(raisedAmount < goal, \"Funding goal was reached, refunds not available\") */\n      tag_63\n      jumpi\n      mload(0x40)\n      0x08c379a000000000000000000000000000000000000000000000000000000000\n      dup2\n      mstore\n      0x04\n      add\n      tag_64\n      swap1\n      tag_65\n      jump\t// in\n    tag_64:\n      mload(0x40)\n      dup1\n      swap2\n      sub\n      swap1\n      revert\n    tag_63:\n        /* \"contracts/Blockchain_Assignment_6/Tasks/Week_6_Task_4.sol\":1403:1404  0 */\n      0x00\n        /* \"contracts/Blockchain_Assignment_6/Tasks/Week_6_Task_4.sol\":1375:1388  contributions */\n      0x04\n        /* \"contracts/Blockchain_Assignment_6/Tasks/Week_6_Task_4.sol\":1375:1400  contributions[msg.sender] */\n      0x00\n        /* \"contracts/Blockchain_Assignment_6/Tasks/Week_6_Task_4.sol\":1389:1399  msg.sender */\n      caller\n        /* \"contracts/Blockchain_Assignment_6/Tasks/Week_6_Task_4.sol\":1375:1400  contributions[msg.sender] */\n      0xffffffffffffffffffffffffffffffffffffffff\n      and\n      0xffffffffffffffffffffffffffffffffffffffff\n      and\n      dup2\n      mstore\n      0x20\n      add\n      swap1\n      dup2\n      mstore\n      0x20\n      add\n      0x00\n      keccak256\n      sload\n        /* \"contracts/Blockchain_Assignment_6/Tasks/Week_6_Task_4.sol\":1375:1404  contributions[msg.sender] > 0 */\n      gt\n        /* \"contracts/Blockchain_Assignment_6/Tasks/Week_6_Task_4.sol\":1367:1435  require(contributions[msg.sender] > 0, \"No contributions to refund\") */\n      tag_66\n      jumpi\n      mload(0x40)\n      0x08c379a000000000000000000000000000000000000000000000000000000000\n      dup2\n      mstore\n      0x04\n      add\n      tag_67\n      swap1\n      tag_68\n      jump\t// in\n    tag_67:\n      mload(0x40)\n      dup1\n      swap2\n      sub\n      swap1\n      revert\n    tag_66:\n        /* \"contracts/Blockchain_Assignment_6/Tasks/Week_6_Task_4.sol\":1448:1462  uint256 amount */\n      0x00\n        /* \"contracts/Blockchain_Assignment_6/Tasks/Week_6_Task_4.sol\":1465:1478  contributions */\n      0x04\n        /* \"contracts/Blockchain_Assignment_6/Tasks/Week_6_Task_4.sol\":1465:1490  contributions[msg.sender] */\n      0x00\n        /* \"contracts/Blockchain_Assignment_6/Tasks/Week_6_Task_4.sol\":1479:1489  msg.sender */\n      caller\n        /* \"contracts/Blockchain_Assignment_6/Tasks/Week_6_Task_4.sol\":1465:1490  contributions[msg.sender] */\n      0xffffffffffffffffffffffffffffffffffffffff\n      and\n      0xffffffffffffffffffffffffffffffffffffffff\n      and\n      dup2\n      mstore\n      0x20\n      add\n      swap1\n      dup2\n      mstore\n      0x20\n      add\n      0x00\n      keccak256\n      sload\n        /* \"contracts/Blockchain_Assignment_6/Tasks/Week_6_Task_4.sol\":1448:1490  uint256 amount = contributions[msg.sender] */\n      swap1\n      pop\n        /* \"contracts/Blockchain_Assignment_6/Tasks/Week_6_Task_4.sol\":1529:1530  0 */\n      0x00\n        /* \"contracts/Blockchain_Assignment_6/Tasks/Week_6_Task_4.sol\":1501:1514  contributions */\n      0x04\n        /* \"contracts/Blockchain_Assignment_6/Tasks/Week_6_Task_4.sol\":1501:1526  contributions[msg.sender] */\n      0x00\n        /* \"contracts/Blockchain_Assignment_6/Tasks/Week_6_Task_4.sol\":1515:1525  msg.sender */\n      caller\n        /* \"contracts/Blockchain_Assignment_6/Tasks/Week_6_Task_4.sol\":1501:1526  contributions[msg.sender] */\n      0xffffffffffffffffffffffffffffffffffffffff\n      and\n      0xffffffffffffffffffffffffffffffffffffffff\n      and\n      dup2\n      mstore\n      0x20\n      add\n      swap1\n      dup2\n      mstore\n      0x20\n      add\n      0x00\n      keccak256\n        /* \"contracts/Blockchain_Assignment_6/Tasks/Week_6_Task_4.sol\":1501:1530  contributions[msg.sender] = 0 */\n      dup2\n      swap1\n      sstore\n      pop\n        /* \"contracts/Blockchain_Assignment_6/Tasks/Week_6_Task_4.sol\":1549:1559  msg.sender */\n      caller\n        /* \"contracts/Blockchain_Assignment_6/Tasks/Week_6_Task_4.sol\":1541:1569  payable(msg.sender).transfer */\n      0xffffffffffffffffffffffffffffffffffffffff\n      and\n        /* \"contracts/Blockchain_Assignment_6/Tasks/Week_6_Task_4.sol\":1541:1577  payable(msg.sender).transfer(amount) */\n      0x08fc\n        /* \"contracts/Blockchain_Assignment_6/Tasks/Week_6_Task_4.sol\":1570:1576  amount */\n      dup3\n        /* \"contracts/Blockchain_Assignment_6/Tasks/Week_6_Task_4.sol\":1541:1577  payable(msg.sender).transfer(amount) */\n      swap1\n      dup2\n      iszero\n      mul\n      swap1\n      mload(0x40)\n      0x00\n      mload(0x40)\n      dup1\n      dup4\n      sub\n      dup2\n      dup6\n      dup9\n      dup9\n      call\n      swap4\n      pop\n      pop\n      pop\n      pop\n      iszero\n      dup1\n      iszero\n      tag_70\n      jumpi\n      returndatasize\n      0x00\n      dup1\n      returndatacopy\n      revert(0x00, returndatasize)\n    tag_70:\n      pop\n        /* \"contracts/Blockchain_Assignment_6/Tasks/Week_6_Task_4.sol\":1192:1585  {... */\n      pop\n        /* \"contracts/Blockchain_Assignment_6/Tasks/Week_6_Task_4.sol\":1167:1585  function refund() public {... */\n      jump\t// out\n        /* \"contracts/Blockchain_Assignment_6/Tasks/Week_6_Task_4.sol\":89:109  address public owner */\n    tag_35:\n      0x00\n      dup1\n      sload\n      swap1\n      0x0100\n      exp\n      swap1\n      div\n      0xffffffffffffffffffffffffffffffffffffffff\n      and\n      dup2\n      jump\t// out\n        /* \"contracts/Blockchain_Assignment_6/Tasks/Week_6_Task_4.sol\":172:199  uint256 public raisedAmount */\n    tag_40:\n      sload(0x03)\n      dup2\n      jump\t// out\n        /* \"contracts/Blockchain_Assignment_6/Tasks/Week_6_Task_4.sol\":741:958  function contribute() public payable campaignActive {... */\n    tag_43:\n        /* \"contracts/Blockchain_Assignment_6/Tasks/Week_6_Task_4.sol\":457:465  deadline */\n      sload(0x02)\n        /* \"contracts/Blockchain_Assignment_6/Tasks/Week_6_Task_4.sol\":438:453  block.timestamp */\n      timestamp\n        /* \"contracts/Blockchain_Assignment_6/Tasks/Week_6_Task_4.sol\":438:465  block.timestamp <= deadline */\n      gt\n      iszero\n        /* \"contracts/Blockchain_Assignment_6/Tasks/Week_6_Task_4.sol\":430:492  require(block.timestamp <= deadline, \"The campaign has ended\") */\n      tag_72\n      jumpi\n      mload(0x40)\n      0x08c379a000000000000000000000000000000000000000000000000000000000\n      dup2\n      mstore\n      0x04\n      add\n      tag_73\n      swap1\n      tag_74\n      jump\t// in\n    tag_73:\n      mload(0x40)\n      dup1\n      swap2\n      sub\n      swap1\n      revert\n    tag_72:\n        /* \"contracts/Blockchain_Assignment_6/Tasks/Week_6_Task_4.sol\":824:825  0 */\n      0x00\n        /* \"contracts/Blockchain_Assignment_6/Tasks/Week_6_Task_4.sol\":812:821  msg.value */\n      callvalue\n        /* \"contracts/Blockchain_Assignment_6/Tasks/Week_6_Task_4.sol\":812:825  msg.value > 0 */\n      gt\n        /* \"contracts/Blockchain_Assignment_6/Tasks/Week_6_Task_4.sol\":804:865  require(msg.value > 0, \"Contribution must be greater than 0\") */\n      tag_76\n      jumpi\n      mload(0x40)\n      0x08c379a000000000000000000000000000000000000000000000000000000000\n      dup2\n      mstore\n      0x04\n      add\n      tag_77\n      swap1\n      tag_78\n      jump\t// in\n    tag_77:\n      mload(0x40)\n      dup1\n      swap2\n      sub\n      swap1\n      revert\n    tag_76:\n        /* \"contracts/Blockchain_Assignment_6/Tasks/Week_6_Task_4.sol\":905:914  msg.value */\n      callvalue\n        /* \"contracts/Blockchain_Assignment_6/Tasks/Week_6_Task_4.sol\":876:889  contributions */\n      0x04\n        /* \"contracts/Blockchain_Assignment_6/Tasks/Week_6_Task_4.sol\":876:901  contributions[msg.sender] */\n      0x00\n        /* \"contracts/Blockchain_Assignment_6/Tasks/Week_6_Task_4.sol\":890:900  msg.sender */\n      caller\n        /* \"contracts/Blockchain_Assignment_6/Tasks/Week_6_Task_4.sol\":876:901  contributions[msg.sender] */\n      0xffffffffffffffffffffffffffffffffffffffff\n      and\n      0xffffffffffffffffffffffffffffffffffffffff\n      and\n      dup2\n      mstore\n      0x20\n      add\n      swap1\n      dup2\n      mstore\n      0x20\n      add\n      0x00\n      keccak256\n      0x00\n        /* \"contracts/Blockchain_Assignment_6/Tasks/Week_6_Task_4.sol\":876:914  contributions[msg.sender] += msg.value */\n      dup3\n      dup3\n      sload\n      tag_79\n      swap2\n      swap1\n      tag_80\n      jump\t// in\n    tag_79:\n      swap3\n      pop\n      pop\n      dup2\n      swap1\n      sstore\n      pop\n        /* \"contracts/Blockchain_Assignment_6/Tasks/Week_6_Task_4.sol\":941:950  msg.value */\n      callvalue\n        /* \"contracts/Blockchain_Assignment_6/Tasks/Week_6_Task_4.sol\":925:937  raisedAmount */\n      0x03\n      0x00\n        /* \"contracts/Blockchain_Assignment_6/Tasks/Week_6_Task_4.sol\":925:950  raisedAmount += msg.value */\n      dup3\n      dup3\n      sload\n      tag_81\n      swap2\n      swap1\n      tag_80\n      jump\t// in\n    tag_81:\n      swap3\n      pop\n      pop\n      dup2\n      swap1\n      sstore\n      pop\n        /* \"contracts/Blockchain_Assignment_6/Tasks/Week_6_Task_4.sol\":741:958  function contribute() public payable campaignActive {... */\n      jump\t// out\n        /* \"contracts/Blockchain_Assignment_6/Tasks/Week_6_Task_4.sol\":579:733  function startCampaign(uint256 _goal, uint256 _duration) public onlyOwner {... */\n    tag_48:\n        /* \"contracts/Blockchain_Assignment_6/Tasks/Week_6_Task_4.sol\":317:322  owner */\n      0x00\n      dup1\n      sload\n      swap1\n      0x0100\n      exp\n      swap1\n      div\n      0xffffffffffffffffffffffffffffffffffffffff\n      and\n        /* \"contracts/Blockchain_Assignment_6/Tasks/Week_6_Task_4.sol\":303:322  msg.sender == owner */\n      0xffffffffffffffffffffffffffffffffffffffff\n      and\n        /* \"contracts/Blockchain_Assignment_6/Tasks/Week_6_Task_4.sol\":303:313  msg.sender */\n      caller\n        /* \"contracts/Blockchain_Assignment_6/Tasks/Week_6_Task_4.sol\":303:322  msg.sender == owner */\n      0xffffffffffffffffffffffffffffffffffffffff\n      and\n      eq\n        /* \"contracts/Blockchain_Assignment_6/Tasks/Week_6_Task_4.sol\":295:365  require(msg.sender == owner, \"Only the owner can perform this action\") */\n      tag_83\n      jumpi\n      mload(0x40)\n      0x08c379a000000000000000000000000000000000000000000000000000000000\n      dup2\n      mstore\n      0x04\n      add\n      tag_84\n      swap1\n      tag_52\n      jump\t// in\n    tag_84:\n      mload(0x40)\n      dup1\n      swap2\n      sub\n      swap1\n      revert\n    tag_83:\n        /* \"contracts/Blockchain_Assignment_6/Tasks/Week_6_Task_4.sol\":671:676  _goal */\n      dup2\n        /* \"contracts/Blockchain_Assignment_6/Tasks/Week_6_Task_4.sol\":664:668  goal */\n      0x01\n        /* \"contracts/Blockchain_Assignment_6/Tasks/Week_6_Task_4.sol\":664:676  goal = _goal */\n      dup2\n      swap1\n      sstore\n      pop\n        /* \"contracts/Blockchain_Assignment_6/Tasks/Week_6_Task_4.sol\":716:725  _duration */\n      dup1\n        /* \"contracts/Blockchain_Assignment_6/Tasks/Week_6_Task_4.sol\":698:713  block.timestamp */\n      timestamp\n        /* \"contracts/Blockchain_Assignment_6/Tasks/Week_6_Task_4.sol\":698:725  block.timestamp + _duration */\n      tag_86\n      swap2\n      swap1\n      tag_80\n      jump\t// in\n    tag_86:\n        /* \"contracts/Blockchain_Assignment_6/Tasks/Week_6_Task_4.sol\":687:695  deadline */\n      0x02\n        /* \"contracts/Blockchain_Assignment_6/Tasks/Week_6_Task_4.sol\":687:725  deadline = block.timestamp + _duration */\n      dup2\n      swap1\n      sstore\n      pop\n        /* \"contracts/Blockchain_Assignment_6/Tasks/Week_6_Task_4.sol\":579:733  function startCampaign(uint256 _goal, uint256 _duration) public onlyOwner {... */\n      pop\n      pop\n      jump\t// out\n        /* \"#utility.yul\":7:84   */\n    tag_87:\n        /* \"#utility.yul\":44:51   */\n      0x00\n        /* \"#utility.yul\":73:78   */\n      dup2\n        /* \"#utility.yul\":62:78   */\n      swap1\n      pop\n        /* \"#utility.yul\":7:84   */\n      swap2\n      swap1\n      pop\n      jump\t// out\n        /* \"#utility.yul\":90:208   */\n    tag_88:\n        /* \"#utility.yul\":177:201   */\n      tag_118\n        /* \"#utility.yul\":195:200   */\n      dup2\n        /* \"#utility.yul\":177:201   */\n      tag_87\n      jump\t// in\n    tag_118:\n        /* \"#utility.yul\":172:175   */\n      dup3\n        /* \"#utility.yul\":165:202   */\n      mstore\n        /* \"#utility.yul\":90:208   */\n      pop\n      pop\n      jump\t// out\n        /* \"#utility.yul\":214:436   */\n    tag_19:\n        /* \"#utility.yul\":307:311   */\n      0x00\n        /* \"#utility.yul\":345:347   */\n      0x20\n        /* \"#utility.yul\":334:343   */\n      dup3\n        /* \"#utility.yul\":330:348   */\n      add\n        /* \"#utility.yul\":322:348   */\n      swap1\n      pop\n        /* \"#utility.yul\":358:429   */\n      tag_120\n        /* \"#utility.yul\":426:427   */\n      0x00\n        /* \"#utility.yul\":415:424   */\n      dup4\n        /* \"#utility.yul\":411:428   */\n      add\n        /* \"#utility.yul\":402:408   */\n      dup5\n        /* \"#utility.yul\":358:429   */\n      tag_88\n      jump\t// in\n    tag_120:\n        /* \"#utility.yul\":214:436   */\n      swap3\n      swap2\n      pop\n      pop\n      jump\t// out\n        /* \"#utility.yul\":523:640   */\n    tag_90:\n        /* \"#utility.yul\":632:633   */\n      0x00\n        /* \"#utility.yul\":629:630   */\n      dup1\n        /* \"#utility.yul\":622:634   */\n      revert\n        /* \"#utility.yul\":769:895   */\n    tag_92:\n        /* \"#utility.yul\":806:813   */\n      0x00\n        /* \"#utility.yul\":846:888   */\n      0xffffffffffffffffffffffffffffffffffffffff\n        /* \"#utility.yul\":839:844   */\n      dup3\n        /* \"#utility.yul\":835:889   */\n      and\n        /* \"#utility.yul\":824:889   */\n      swap1\n      pop\n        /* \"#utility.yul\":769:895   */\n      swap2\n      swap1\n      pop\n      jump\t// out\n        /* \"#utility.yul\":901:997   */\n    tag_93:\n        /* \"#utility.yul\":938:945   */\n      0x00\n        /* \"#utility.yul\":967:991   */\n      tag_126\n        /* \"#utility.yul\":985:990   */\n      dup3\n        /* \"#utility.yul\":967:991   */\n      tag_92\n      jump\t// in\n    tag_126:\n        /* \"#utility.yul\":956:991   */\n      swap1\n      pop\n        /* \"#utility.yul\":901:997   */\n      swap2\n      swap1\n      pop\n      jump\t// out\n        /* \"#utility.yul\":1003:1125   */\n    tag_94:\n        /* \"#utility.yul\":1076:1100   */\n      tag_128\n        /* \"#utility.yul\":1094:1099   */\n      dup2\n        /* \"#utility.yul\":1076:1100   */\n      tag_93\n      jump\t// in\n    tag_128:\n        /* \"#utility.yul\":1069:1074   */\n      dup2\n        /* \"#utility.yul\":1066:1101   */\n      eq\n        /* \"#utility.yul\":1056:1119   */\n      tag_129\n      jumpi\n        /* \"#utility.yul\":1115:1116   */\n      0x00\n        /* \"#utility.yul\":1112:1113   */\n      dup1\n        /* \"#utility.yul\":1105:1117   */\n      revert\n        /* \"#utility.yul\":1056:1119   */\n    tag_129:\n        /* \"#utility.yul\":1003:1125   */\n      pop\n      jump\t// out\n        /* \"#utility.yul\":1131:1270   */\n    tag_95:\n        /* \"#utility.yul\":1177:1182   */\n      0x00\n        /* \"#utility.yul\":1215:1221   */\n      dup2\n        /* \"#utility.yul\":1202:1222   */\n      calldataload\n        /* \"#utility.yul\":1193:1222   */\n      swap1\n      pop\n        /* \"#utility.yul\":1231:1264   */\n      tag_131\n        /* \"#utility.yul\":1258:1263   */\n      dup2\n        /* \"#utility.yul\":1231:1264   */\n      tag_94\n      jump\t// in\n    tag_131:\n        /* \"#utility.yul\":1131:1270   */\n      swap3\n      swap2\n      pop\n      pop\n      jump\t// out\n        /* \"#utility.yul\":1276:1605   */\n    tag_27:\n        /* \"#utility.yul\":1335:1341   */\n      0x00\n        /* \"#utility.yul\":1384:1386   */\n      0x20\n        /* \"#utility.yul\":1372:1381   */\n      dup3\n        /* \"#utility.yul\":1363:1370   */\n      dup5\n        /* \"#utility.yul\":1359:1382   */\n      sub\n        /* \"#utility.yul\":1355:1387   */\n      slt\n        /* \"#utility.yul\":1352:1471   */\n      iszero\n      tag_133\n      jumpi\n        /* \"#utility.yul\":1390:1469   */\n      tag_134\n      tag_90\n      jump\t// in\n    tag_134:\n        /* \"#utility.yul\":1352:1471   */\n    tag_133:\n        /* \"#utility.yul\":1510:1511   */\n      0x00\n        /* \"#utility.yul\":1535:1588   */\n      tag_135\n        /* \"#utility.yul\":1580:1587   */\n      dup5\n        /* \"#utility.yul\":1571:1577   */\n      dup3\n        /* \"#utility.yul\":1560:1569   */\n      dup6\n        /* \"#utility.yul\":1556:1578   */\n      add\n        /* \"#utility.yul\":1535:1588   */\n      tag_95\n      jump\t// in\n    tag_135:\n        /* \"#utility.yul\":1525:1588   */\n      swap2\n      pop\n        /* \"#utility.yul\":1481:1598   */\n      pop\n        /* \"#utility.yul\":1276:1605   */\n      swap3\n      swap2\n      pop\n      pop\n      jump\t// out\n        /* \"#utility.yul\":1611:1729   */\n    tag_96:\n        /* \"#utility.yul\":1698:1722   */\n      tag_137\n        /* \"#utility.yul\":1716:1721   */\n      dup2\n        /* \"#utility.yul\":1698:1722   */\n      tag_93\n      jump\t// in\n    tag_137:\n        /* \"#utility.yul\":1693:1696   */\n      dup3\n        /* \"#utility.yul\":1686:1723   */\n      mstore\n        /* \"#utility.yul\":1611:1729   */\n      pop\n      pop\n      jump\t// out\n        /* \"#utility.yul\":1735:1957   */\n    tag_37:\n        /* \"#utility.yul\":1828:1832   */\n      0x00\n        /* \"#utility.yul\":1866:1868   */\n      0x20\n        /* \"#utility.yul\":1855:1864   */\n      dup3\n        /* \"#utility.yul\":1851:1869   */\n      add\n        /* \"#utility.yul\":1843:1869   */\n      swap1\n      pop\n        /* \"#utility.yul\":1879:1950   */\n      tag_139\n        /* \"#utility.yul\":1947:1948   */\n      0x00\n        /* \"#utility.yul\":1936:1945   */\n      dup4\n        /* \"#utility.yul\":1932:1949   */\n      add\n        /* \"#utility.yul\":1923:1929   */\n      dup5\n        /* \"#utility.yul\":1879:1950   */\n      tag_96\n      jump\t// in\n    tag_139:\n        /* \"#utility.yul\":1735:1957   */\n      swap3\n      swap2\n      pop\n      pop\n      jump\t// out\n        /* \"#utility.yul\":1963:2085   */\n    tag_97:\n        /* \"#utility.yul\":2036:2060   */\n      tag_141\n        /* \"#utility.yul\":2054:2059   */\n      dup2\n        /* \"#utility.yul\":2036:2060   */\n      tag_87\n      jump\t// in\n    tag_141:\n        /* \"#utility.yul\":2029:2034   */\n      dup2\n        /* \"#utility.yul\":2026:2061   */\n      eq\n        /* \"#utility.yul\":2016:2079   */\n      tag_142\n      jumpi\n        /* \"#utility.yul\":2075:2076   */\n      0x00\n        /* \"#utility.yul\":2072:2073   */\n      dup1\n        /* \"#utility.yul\":2065:2077   */\n      revert\n        /* \"#utility.yul\":2016:2079   */\n    tag_142:\n        /* \"#utility.yul\":1963:2085   */\n      pop\n      jump\t// out\n        /* \"#utility.yul\":2091:2230   */\n    tag_98:\n        /* \"#utility.yul\":2137:2142   */\n      0x00\n        /* \"#utility.yul\":2175:2181   */\n      dup2\n        /* \"#utility.yul\":2162:2182   */\n      calldataload\n        /* \"#utility.yul\":2153:2182   */\n      swap1\n      pop\n        /* \"#utility.yul\":2191:2224   */\n      tag_144\n        /* \"#utility.yul\":2218:2223   */\n      dup2\n        /* \"#utility.yul\":2191:2224   */\n      tag_97\n      jump\t// in\n    tag_144:\n        /* \"#utility.yul\":2091:2230   */\n      swap3\n      swap2\n      pop\n      pop\n      jump\t// out\n        /* \"#utility.yul\":2236:2710   */\n    tag_47:\n        /* \"#utility.yul\":2304:2310   */\n      0x00\n        /* \"#utility.yul\":2312:2318   */\n      dup1\n        /* \"#utility.yul\":2361:2363   */\n      0x40\n        /* \"#utility.yul\":2349:2358   */\n      dup4\n        /* \"#utility.yul\":2340:2347   */\n      dup6\n        /* \"#utility.yul\":2336:2359   */\n      sub\n        /* \"#utility.yul\":2332:2364   */\n      slt\n        /* \"#utility.yul\":2329:2448   */\n      iszero\n      tag_146\n      jumpi\n        /* \"#utility.yul\":2367:2446   */\n      tag_147\n      tag_90\n      jump\t// in\n    tag_147:\n        /* \"#utility.yul\":2329:2448   */\n    tag_146:\n        /* \"#utility.yul\":2487:2488   */\n      0x00\n        /* \"#utility.yul\":2512:2565   */\n      tag_148\n        /* \"#utility.yul\":2557:2564   */\n      dup6\n        /* \"#utility.yul\":2548:2554   */\n      dup3\n        /* \"#utility.yul\":2537:2546   */\n      dup7\n        /* \"#utility.yul\":2533:2555   */\n      add\n        /* \"#utility.yul\":2512:2565   */\n      tag_98\n      jump\t// in\n    tag_148:\n        /* \"#utility.yul\":2502:2565   */\n      swap3\n      pop\n        /* \"#utility.yul\":2458:2575   */\n      pop\n        /* \"#utility.yul\":2614:2616   */\n      0x20\n        /* \"#utility.yul\":2640:2693   */\n      tag_149\n        /* \"#utility.yul\":2685:2692   */\n      dup6\n        /* \"#utility.yul\":2676:2682   */\n      dup3\n        /* \"#utility.yul\":2665:2674   */\n      dup7\n        /* \"#utility.yul\":2661:2683   */\n      add\n        /* \"#utility.yul\":2640:2693   */\n      tag_98\n      jump\t// in\n    tag_149:\n        /* \"#utility.yul\":2630:2693   */\n      swap2\n      pop\n        /* \"#utility.yul\":2585:2703   */\n      pop\n        /* \"#utility.yul\":2236:2710   */\n      swap3\n      pop\n      swap3\n      swap1\n      pop\n      jump\t// out\n        /* \"#utility.yul\":2716:2885   */\n    tag_99:\n        /* \"#utility.yul\":2800:2811   */\n      0x00\n        /* \"#utility.yul\":2834:2840   */\n      dup3\n        /* \"#utility.yul\":2829:2832   */\n      dup3\n        /* \"#utility.yul\":2822:2841   */\n      mstore\n        /* \"#utility.yul\":2874:2878   */\n      0x20\n        /* \"#utility.yul\":2869:2872   */\n      dup3\n        /* \"#utility.yul\":2865:2879   */\n      add\n        /* \"#utility.yul\":2850:2879   */\n      swap1\n      pop\n        /* \"#utility.yul\":2716:2885   */\n      swap3\n      swap2\n      pop\n      pop\n      jump\t// out\n        /* \"#utility.yul\":2891:3116   */\n    tag_100:\n        /* \"#utility.yul\":3031:3065   */\n      0x4f6e6c7920746865206f776e65722063616e20706572666f726d207468697320\n        /* \"#utility.yul\":3027:3028   */\n      0x00\n        /* \"#utility.yul\":3019:3025   */\n      dup3\n        /* \"#utility.yul\":3015:3029   */\n      add\n        /* \"#utility.yul\":3008:3066   */\n      mstore\n        /* \"#utility.yul\":3100:3108   */\n      0x616374696f6e0000000000000000000000000000000000000000000000000000\n        /* \"#utility.yul\":3095:3097   */\n      0x20\n        /* \"#utility.yul\":3087:3093   */\n      dup3\n        /* \"#utility.yul\":3083:3098   */\n      add\n        /* \"#utility.yul\":3076:3109   */\n      mstore\n        /* \"#utility.yul\":2891:3116   */\n      pop\n      jump\t// out\n        /* \"#utility.yul\":3122:3488   */\n    tag_101:\n        /* \"#utility.yul\":3264:3267   */\n      0x00\n        /* \"#utility.yul\":3285:3352   */\n      tag_153\n        /* \"#utility.yul\":3349:3351   */\n      0x26\n        /* \"#utility.yul\":3344:3347   */\n      dup4\n        /* \"#utility.yul\":3285:3352   */\n      tag_99\n      jump\t// in\n    tag_153:\n        /* \"#utility.yul\":3278:3352   */\n      swap2\n      pop\n        /* \"#utility.yul\":3361:3454   */\n      tag_154\n        /* \"#utility.yul\":3450:3453   */\n      dup3\n        /* \"#utility.yul\":3361:3454   */\n      tag_100\n      jump\t// in\n    tag_154:\n        /* \"#utility.yul\":3479:3481   */\n      0x40\n        /* \"#utility.yul\":3474:3477   */\n      dup3\n        /* \"#utility.yul\":3470:3482   */\n      add\n        /* \"#utility.yul\":3463:3482   */\n      swap1\n      pop\n        /* \"#utility.yul\":3122:3488   */\n      swap2\n      swap1\n      pop\n      jump\t// out\n        /* \"#utility.yul\":3494:3913   */\n    tag_52:\n        /* \"#utility.yul\":3660:3664   */\n      0x00\n        /* \"#utility.yul\":3698:3700   */\n      0x20\n        /* \"#utility.yul\":3687:3696   */\n      dup3\n        /* \"#utility.yul\":3683:3701   */\n      add\n        /* \"#utility.yul\":3675:3701   */\n      swap1\n      pop\n        /* \"#utility.yul\":3747:3756   */\n      dup2\n        /* \"#utility.yul\":3741:3745   */\n      dup2\n        /* \"#utility.yul\":3737:3757   */\n      sub\n        /* \"#utility.yul\":3733:3734   */\n      0x00\n        /* \"#utility.yul\":3722:3731   */\n      dup4\n        /* \"#utility.yul\":3718:3735   */\n      add\n        /* \"#utility.yul\":3711:3758   */\n      mstore\n        /* \"#utility.yul\":3775:3906   */\n      tag_156\n        /* \"#utility.yul\":3901:3905   */\n      dup2\n        /* \"#utility.yul\":3775:3906   */\n      tag_101\n      jump\t// in\n    tag_156:\n        /* \"#utility.yul\":3767:3906   */\n      swap1\n      pop\n        /* \"#utility.yul\":3494:3913   */\n      swap2\n      swap1\n      pop\n      jump\t// out\n        /* \"#utility.yul\":3919:4093   */\n    tag_102:\n        /* \"#utility.yul\":4059:4085   */\n      0x46756e64696e6720676f616c206e6f7420726561636865640000000000000000\n        /* \"#utility.yul\":4055:4056   */\n      0x00\n        /* \"#utility.yul\":4047:4053   */\n      dup3\n        /* \"#utility.yul\":4043:4057   */\n      add\n        /* \"#utility.yul\":4036:4086   */\n      mstore\n        /* \"#utility.yul\":3919:4093   */\n      pop\n      jump\t// out\n        /* \"#utility.yul\":4099:4465   */\n    tag_103:\n        /* \"#utility.yul\":4241:4244   */\n      0x00\n        /* \"#utility.yul\":4262:4329   */\n      tag_159\n        /* \"#utility.yul\":4326:4328   */\n      0x18\n        /* \"#utility.yul\":4321:4324   */\n      dup4\n        /* \"#utility.yul\":4262:4329   */\n      tag_99\n      jump\t// in\n    tag_159:\n        /* \"#utility.yul\":4255:4329   */\n      swap2\n      pop\n        /* \"#utility.yul\":4338:4431   */\n      tag_160\n        /* \"#utility.yul\":4427:4430   */\n      dup3\n        /* \"#utility.yul\":4338:4431   */\n      tag_102\n      jump\t// in\n    tag_160:\n        /* \"#utility.yul\":4456:4458   */\n      0x20\n        /* \"#utility.yul\":4451:4454   */\n      dup3\n        /* \"#utility.yul\":4447:4459   */\n      add\n        /* \"#utility.yul\":4440:4459   */\n      swap1\n      pop\n        /* \"#utility.yul\":4099:4465   */\n      swap2\n      swap1\n      pop\n      jump\t// out\n        /* \"#utility.yul\":4471:4890   */\n    tag_56:\n        /* \"#utility.yul\":4637:4641   */\n      0x00\n        /* \"#utility.yul\":4675:4677   */\n      0x20\n        /* \"#utility.yul\":4664:4673   */\n      dup3\n        /* \"#utility.yul\":4660:4678   */\n      add\n        /* \"#utility.yul\":4652:4678   */\n      swap1\n      pop\n        /* \"#utility.yul\":4724:4733   */\n      dup2\n        /* \"#utility.yul\":4718:4722   */\n      dup2\n        /* \"#utility.yul\":4714:4734   */\n      sub\n        /* \"#utility.yul\":4710:4711   */\n      0x00\n        /* \"#utility.yul\":4699:4708   */\n      dup4\n        /* \"#utility.yul\":4695:4712   */\n      add\n        /* \"#utility.yul\":4688:4735   */\n      mstore\n        /* \"#utility.yul\":4752:4883   */\n      tag_162\n        /* \"#utility.yul\":4878:4882   */\n      dup2\n        /* \"#utility.yul\":4752:4883   */\n      tag_103\n      jump\t// in\n    tag_162:\n        /* \"#utility.yul\":4744:4883   */\n      swap1\n      pop\n        /* \"#utility.yul\":4471:4890   */\n      swap2\n      swap1\n      pop\n      jump\t// out\n        /* \"#utility.yul\":4896:5070   */\n    tag_104:\n        /* \"#utility.yul\":5036:5062   */\n      0x43616d706169676e206973207374696c6c206163746976650000000000000000\n        /* \"#utility.yul\":5032:5033   */\n      0x00\n        /* \"#utility.yul\":5024:5030   */\n      dup3\n        /* \"#utility.yul\":5020:5034   */\n      add\n        /* \"#utility.yul\":5013:5063   */\n      mstore\n        /* \"#utility.yul\":4896:5070   */\n      pop\n      jump\t// out\n        /* \"#utility.yul\":5076:5442   */\n    tag_105:\n        /* \"#utility.yul\":5218:5221   */\n      0x00\n        /* \"#utility.yul\":5239:5306   */\n      tag_165\n        /* \"#utility.yul\":5303:5305   */\n      0x18\n        /* \"#utility.yul\":5298:5301   */\n      dup4\n        /* \"#utility.yul\":5239:5306   */\n      tag_99\n      jump\t// in\n    tag_165:\n        /* \"#utility.yul\":5232:5306   */\n      swap2\n      pop\n        /* \"#utility.yul\":5315:5408   */\n      tag_166\n        /* \"#utility.yul\":5404:5407   */\n      dup3\n        /* \"#utility.yul\":5315:5408   */\n      tag_104\n      jump\t// in\n    tag_166:\n        /* \"#utility.yul\":5433:5435   */\n      0x20\n        /* \"#utility.yul\":5428:5431   */\n      dup3\n        /* \"#utility.yul\":5424:5436   */\n      add\n        /* \"#utility.yul\":5417:5436   */\n      swap1\n      pop\n        /* \"#utility.yul\":5076:5442   */\n      swap2\n      swap1\n      pop\n      jump\t// out\n        /* \"#utility.yul\":5448:5867   */\n    tag_62:\n        /* \"#utility.yul\":5614:5618   */\n      0x00\n        /* \"#utility.yul\":5652:5654   */\n      0x20\n        /* \"#utility.yul\":5641:5650   */\n      dup3\n        /* \"#utility.yul\":5637:5655   */\n      add\n        /* \"#utility.yul\":5629:5655   */\n      swap1\n      pop\n        /* \"#utility.yul\":5701:5710   */\n      dup2\n        /* \"#utility.yul\":5695:5699   */\n      dup2\n        /* \"#utility.yul\":5691:5711   */\n      sub\n        /* \"#utility.yul\":5687:5688   */\n      0x00\n        /* \"#utility.yul\":5676:5685   */\n      dup4\n        /* \"#utility.yul\":5672:5689   */\n      add\n        /* \"#utility.yul\":5665:5712   */\n      mstore\n        /* \"#utility.yul\":5729:5860   */\n      tag_168\n        /* \"#utility.yul\":5855:5859   */\n      dup2\n        /* \"#utility.yul\":5729:5860   */\n      tag_105\n      jump\t// in\n    tag_168:\n        /* \"#utility.yul\":5721:5860   */\n      swap1\n      pop\n        /* \"#utility.yul\":5448:5867   */\n      swap2\n      swap1\n      pop\n      jump\t// out\n        /* \"#utility.yul\":5873:6107   */\n    tag_106:\n        /* \"#utility.yul\":6013:6047   */\n      0x46756e64696e6720676f616c2077617320726561636865642c20726566756e64\n        /* \"#utility.yul\":6009:6010   */\n      0x00\n        /* \"#utility.yul\":6001:6007   */\n      dup3\n        /* \"#utility.yul\":5997:6011   */\n      add\n        /* \"#utility.yul\":5990:6048   */\n      mstore\n        /* \"#utility.yul\":6082:6099   */\n      0x73206e6f7420617661696c61626c650000000000000000000000000000000000\n        /* \"#utility.yul\":6077:6079   */\n      0x20\n        /* \"#utility.yul\":6069:6075   */\n      dup3\n        /* \"#utility.yul\":6065:6080   */\n      add\n        /* \"#utility.yul\":6058:6100   */\n      mstore\n        /* \"#utility.yul\":5873:6107   */\n      pop\n      jump\t// out\n        /* \"#utility.yul\":6113:6479   */\n    tag_107:\n        /* \"#utility.yul\":6255:6258   */\n      0x00\n        /* \"#utility.yul\":6276:6343   */\n      tag_171\n        /* \"#utility.yul\":6340:6342   */\n      0x2f\n        /* \"#utility.yul\":6335:6338   */\n      dup4\n        /* \"#utility.yul\":6276:6343   */\n      tag_99\n      jump\t// in\n    tag_171:\n        /* \"#utility.yul\":6269:6343   */\n      swap2\n      pop\n        /* \"#utility.yul\":6352:6445   */\n      tag_172\n        /* \"#utility.yul\":6441:6444   */\n      dup3\n        /* \"#utility.yul\":6352:6445   */\n      tag_106\n      jump\t// in\n    tag_172:\n        /* \"#utility.yul\":6470:6472   */\n      0x40\n        /* \"#utility.yul\":6465:6468   */\n      dup3\n        /* \"#utility.yul\":6461:6473   */\n      add\n        /* \"#utility.yul\":6454:6473   */\n      swap1\n      pop\n        /* \"#utility.yul\":6113:6479   */\n      swap2\n      swap1\n      pop\n      jump\t// out\n        /* \"#utility.yul\":6485:6904   */\n    tag_65:\n        /* \"#utility.yul\":6651:6655   */\n      0x00\n        /* \"#utility.yul\":6689:6691   */\n      0x20\n        /* \"#utility.yul\":6678:6687   */\n      dup3\n        /* \"#utility.yul\":6674:6692   */\n      add\n        /* \"#utility.yul\":6666:6692   */\n      swap1\n      pop\n        /* \"#utility.yul\":6738:6747   */\n      dup2\n        /* \"#utility.yul\":6732:6736   */\n      dup2\n        /* \"#utility.yul\":6728:6748   */\n      sub\n        /* \"#utility.yul\":6724:6725   */\n      0x00\n        /* \"#utility.yul\":6713:6722   */\n      dup4\n        /* \"#utility.yul\":6709:6726   */\n      add\n        /* \"#utility.yul\":6702:6749   */\n      mstore\n        /* \"#utility.yul\":6766:6897   */\n      tag_174\n        /* \"#utility.yul\":6892:6896   */\n      dup2\n        /* \"#utility.yul\":6766:6897   */\n      tag_107\n      jump\t// in\n    tag_174:\n        /* \"#utility.yul\":6758:6897   */\n      swap1\n      pop\n        /* \"#utility.yul\":6485:6904   */\n      swap2\n      swap1\n      pop\n      jump\t// out\n        /* \"#utility.yul\":6910:7086   */\n    tag_108:\n        /* \"#utility.yul\":7050:7078   */\n      0x4e6f20636f6e747269627574696f6e7320746f20726566756e64000000000000\n        /* \"#utility.yul\":7046:7047   */\n      0x00\n        /* \"#utility.yul\":7038:7044   */\n      dup3\n        /* \"#utility.yul\":7034:7048   */\n      add\n        /* \"#utility.yul\":7027:7079   */\n      mstore\n        /* \"#utility.yul\":6910:7086   */\n      pop\n      jump\t// out\n        /* \"#utility.yul\":7092:7458   */\n    tag_109:\n        /* \"#utility.yul\":7234:7237   */\n      0x00\n        /* \"#utility.yul\":7255:7322   */\n      tag_177\n        /* \"#utility.yul\":7319:7321   */\n      0x1a\n        /* \"#utility.yul\":7314:7317   */\n      dup4\n        /* \"#utility.yul\":7255:7322   */\n      tag_99\n      jump\t// in\n    tag_177:\n        /* \"#utility.yul\":7248:7322   */\n      swap2\n      pop\n        /* \"#utility.yul\":7331:7424   */\n      tag_178\n        /* \"#utility.yul\":7420:7423   */\n      dup3\n        /* \"#utility.yul\":7331:7424   */\n      tag_108\n      jump\t// in\n    tag_178:\n        /* \"#utility.yul\":7449:7451   */\n      0x20\n        /* \"#utility.yul\":7444:7447   */\n      dup3\n        /* \"#utility.yul\":7440:7452   */\n      add\n        /* \"#utility.yul\":7433:7452   */\n      swap1\n      pop\n        /* \"#utility.yul\":7092:7458   */\n      swap2\n      swap1\n      pop\n      jump\t// out\n        /* \"#utility.yul\":7464:7883   */\n    tag_68:\n        /* \"#utility.yul\":7630:7634   */\n      0x00\n        /* \"#utility.yul\":7668:7670   */\n      0x20\n        /* \"#utility.yul\":7657:7666   */\n      dup3\n        /* \"#utility.yul\":7653:7671   */\n      add\n        /* \"#utility.yul\":7645:7671   */\n      swap1\n      pop\n        /* \"#utility.yul\":7717:7726   */\n      dup2\n        /* \"#utility.yul\":7711:7715   */\n      dup2\n        /* \"#utility.yul\":7707:7727   */\n      sub\n        /* \"#utility.yul\":7703:7704   */\n      0x00\n        /* \"#utility.yul\":7692:7701   */\n      dup4\n        /* \"#utility.yul\":7688:7705   */\n      add\n        /* \"#utility.yul\":7681:7728   */\n      mstore\n        /* \"#utility.yul\":7745:7876   */\n      tag_180\n        /* \"#utility.yul\":7871:7875   */\n      dup2\n        /* \"#utility.yul\":7745:7876   */\n      tag_109\n      jump\t// in\n    tag_180:\n        /* \"#utility.yul\":7737:7876   */\n      swap1\n      pop\n        /* \"#utility.yul\":7464:7883   */\n      swap2\n      swap1\n      pop\n      jump\t// out\n        /* \"#utility.yul\":7889:8061   */\n    tag_110:\n        /* \"#utility.yul\":8029:8053   */\n      0x5468652063616d706169676e2068617320656e64656400000000000000000000\n        /* \"#utility.yul\":8025:8026   */\n      0x00\n        /* \"#utility.yul\":8017:8023   */\n      dup3\n        /* \"#utility.yul\":8013:8027   */\n      add\n        /* \"#utility.yul\":8006:8054   */\n      mstore\n        /* \"#utility.yul\":7889:8061   */\n      pop\n      jump\t// out\n        /* \"#utility.yul\":8067:8433   */\n    tag_111:\n        /* \"#utility.yul\":8209:8212   */\n      0x00\n        /* \"#utility.yul\":8230:8297   */\n      tag_183\n        /* \"#utility.yul\":8294:8296   */\n      0x16\n        /* \"#utility.yul\":8289:8292   */\n      dup4\n        /* \"#utility.yul\":8230:8297   */\n      tag_99\n      jump\t// in\n    tag_183:\n        /* \"#utility.yul\":8223:8297   */\n      swap2\n      pop\n        /* \"#utility.yul\":8306:8399   */\n      tag_184\n        /* \"#utility.yul\":8395:8398   */\n      dup3\n        /* \"#utility.yul\":8306:8399   */\n      tag_110\n      jump\t// in\n    tag_184:\n        /* \"#utility.yul\":8424:8426   */\n      0x20\n        /* \"#utility.yul\":8419:8422   */\n      dup3\n        /* \"#utility.yul\":8415:8427   */\n      add\n        /* \"#utility.yul\":8408:8427   */\n      swap1\n      pop\n        /* \"#utility.yul\":8067:8433   */\n      swap2\n      swap1\n      pop\n      jump\t// out\n        /* \"#utility.yul\":8439:8858   */\n    tag_74:\n        /* \"#utility.yul\":8605:8609   */\n      0x00\n        /* \"#utility.yul\":8643:8645   */\n      0x20\n        /* \"#utility.yul\":8632:8641   */\n      dup3\n        /* \"#utility.yul\":8628:8646   */\n      add\n        /* \"#utility.yul\":8620:8646   */\n      swap1\n      pop\n        /* \"#utility.yul\":8692:8701   */\n      dup2\n        /* \"#utility.yul\":8686:8690   */\n      dup2\n        /* \"#utility.yul\":8682:8702   */\n      sub\n        /* \"#utility.yul\":8678:8679   */\n      0x00\n        /* \"#utility.yul\":8667:8676   */\n      dup4\n        /* \"#utility.yul\":8663:8680   */\n      add\n        /* \"#utility.yul\":8656:8703   */\n      mstore\n        /* \"#utility.yul\":8720:8851   */\n      tag_186\n        /* \"#utility.yul\":8846:8850   */\n      dup2\n        /* \"#utility.yul\":8720:8851   */\n      tag_111\n      jump\t// in\n    tag_186:\n        /* \"#utility.yul\":8712:8851   */\n      swap1\n      pop\n        /* \"#utility.yul\":8439:8858   */\n      swap2\n      swap1\n      pop\n      jump\t// out\n        /* \"#utility.yul\":8864:9086   */\n    tag_112:\n        /* \"#utility.yul\":9004:9038   */\n      0x436f6e747269627574696f6e206d757374206265206772656174657220746861\n        /* \"#utility.yul\":9000:9001   */\n      0x00\n        /* \"#utility.yul\":8992:8998   */\n      dup3\n        /* \"#utility.yul\":8988:9002   */\n      add\n        /* \"#utility.yul\":8981:9039   */\n      mstore\n        /* \"#utility.yul\":9073:9078   */\n      0x6e20300000000000000000000000000000000000000000000000000000000000\n        /* \"#utility.yul\":9068:9070   */\n      0x20\n        /* \"#utility.yul\":9060:9066   */\n      dup3\n        /* \"#utility.yul\":9056:9071   */\n      add\n        /* \"#utility.yul\":9049:9079   */\n      mstore\n        /* \"#utility.yul\":8864:9086   */\n      pop\n      jump\t// out\n        /* \"#utility.yul\":9092:9458   */\n    tag_113:\n        /* \"#utility.yul\":9234:9237   */\n      0x00\n        /* \"#utility.yul\":9255:9322   */\n      tag_189\n        /* \"#utility.yul\":9319:9321   */\n      0x23\n        /* \"#utility.yul\":9314:9317   */\n      dup4\n        /* \"#utility.yul\":9255:9322   */\n      tag_99\n      jump\t// in\n    tag_189:\n        /* \"#utility.yul\":9248:9322   */\n      swap2\n      pop\n        /* \"#utility.yul\":9331:9424   */\n      tag_190\n        /* \"#utility.yul\":9420:9423   */\n      dup3\n        /* \"#utility.yul\":9331:9424   */\n      tag_112\n      jump\t// in\n    tag_190:\n        /* \"#utility.yul\":9449:9451   */\n      0x40\n        /* \"#utility.yul\":9444:9447   */\n      dup3\n        /* \"#utility.yul\":9440:9452   */\n      add\n        /* \"#utility.yul\":9433:9452   */\n      swap1\n      pop\n        /* \"#utility.yul\":9092:9458   */\n      swap2\n      swap1\n      pop\n      jump\t// out\n        /* \"#utility.yul\":9464:9883   */\n    tag_78:\n        /* \"#utility.yul\":9630:9634   */\n      0x00\n        /* \"#utility.yul\":9668:9670   */\n      0x20\n        /* \"#utility.yul\":9657:9666   */\n      dup3\n        /* \"#utility.yul\":9653:9671   */\n      add\n        /* \"#utility.yul\":9645:9671   */\n      swap1\n      pop\n        /* \"#utility.yul\":9717:9726   */\n      dup2\n        /* \"#utility.yul\":9711:9715   */\n      dup2\n        /* \"#utility.yul\":9707:9727   */\n      sub\n        /* \"#utility.yul\":9703:9704   */\n      0x00\n        /* \"#utility.yul\":9692:9701   */\n      dup4\n        /* \"#utility.yul\":9688:9705   */\n      add\n        /* \"#utility.yul\":9681:9728   */\n      mstore\n        /* \"#utility.yul\":9745:9876   */\n      tag_192\n        /* \"#utility.yul\":9871:9875   */\n      dup2\n        /* \"#utility.yul\":9745:9876   */\n      tag_113\n      jump\t// in\n    tag_192:\n        /* \"#utility.yul\":9737:9876   */\n      swap1\n      pop\n        /* \"#utility.yul\":9464:9883   */\n      swap2\n      swap1\n      pop\n      jump\t// out\n        /* \"#utility.yul\":9889:10069   */\n    tag_114:\n        /* \"#utility.yul\":9937:10014   */\n      0x4e487b7100000000000000000000000000000000000000000000000000000000\n        /* \"#utility.yul\":9934:9935   */\n      0x00\n        /* \"#utility.yul\":9927:10015   */\n      mstore\n        /* \"#utility.yul\":10034:10038   */\n      0x11\n        /* \"#utility.yul\":10031:10032   */\n      0x04\n        /* \"#utility.yul\":10024:10039   */\n      mstore\n        /* \"#utility.yul\":10058:10062   */\n      0x24\n        /* \"#utility.yul\":10055:10056   */\n      0x00\n        /* \"#utility.yul\":10048:10063   */\n      revert\n        /* \"#utility.yul\":10075:10266   */\n    tag_80:\n        /* \"#utility.yul\":10115:10118   */\n      0x00\n        /* \"#utility.yul\":10134:10154   */\n      tag_195\n        /* \"#utility.yul\":10152:10153   */\n      dup3\n        /* \"#utility.yul\":10134:10154   */\n      tag_87\n      jump\t// in\n    tag_195:\n        /* \"#utility.yul\":10129:10154   */\n      swap2\n      pop\n        /* \"#utility.yul\":10168:10188   */\n      tag_196\n        /* \"#utility.yul\":10186:10187   */\n      dup4\n        /* \"#utility.yul\":10168:10188   */\n      tag_87\n      jump\t// in\n    tag_196:\n        /* \"#utility.yul\":10163:10188   */\n      swap3\n      pop\n        /* \"#utility.yul\":10211:10212   */\n      dup3\n        /* \"#utility.yul\":10208:10209   */\n      dup3\n        /* \"#utility.yul\":10204:10213   */\n      add\n        /* \"#utility.yul\":10197:10213   */\n      swap1\n      pop\n        /* \"#utility.yul\":10232:10235   */\n      dup1\n        /* \"#utility.yul\":10229:10230   */\n      dup3\n        /* \"#utility.yul\":10226:10236   */\n      gt\n        /* \"#utility.yul\":10223:10259   */\n      iszero\n      tag_197\n      jumpi\n        /* \"#utility.yul\":10239:10257   */\n      tag_198\n      tag_114\n      jump\t// in\n    tag_198:\n        /* \"#utility.yul\":10223:10259   */\n    tag_197:\n        /* \"#utility.yul\":10075:10266   */\n      swap3\n      swap2\n      pop\n      pop\n      jump\t// out\n\n    auxdata: 0xa2646970667358221220159d9fa8febf79b6c481a6f6f81939f6cfaa3a7047b92de37263e2354c0a41b764736f6c634300081a0033\n}\n",
				"bytecode": {
					"linkReferences": {},
					"object": "6080604052348015600e575f80fd5b50335f806101000a81548173ffffffffffffffffffffffffffffffffffffffff021916908373ffffffffffffffffffffffffffffffffffffffff160217905550610c028061005b5f395ff3fe608060405260043610610085575f3560e01c8063590e1ae311610058578063590e1ae31461012f5780638da5cb5b14610145578063c59ee1dc1461016f578063d7bb99ba14610199578063f413d468146101a357610085565b806324600fc31461008957806329dcb0cf1461009f57806340193883146100c957806342e94c90146100f3575b5f80fd5b348015610094575f80fd5b5061009d6101cb565b005b3480156100aa575f80fd5b506100b361030d565b6040516100c091906106e0565b60405180910390f35b3480156100d4575f80fd5b506100dd610313565b6040516100ea91906106e0565b60405180910390f35b3480156100fe575f80fd5b5061011960048036038101906101149190610757565b610319565b60405161012691906106e0565b60405180910390f35b34801561013a575f80fd5b5061014361032e565b005b348015610150575f80fd5b50610159610501565b6040516101669190610791565b60405180910390f35b34801561017a575f80fd5b50610183610524565b60405161019091906106e0565b60405180910390f35b6101a161052a565b005b3480156101ae575f80fd5b506101c960048036038101906101c491906107d4565b61061e565b005b5f8054906101000a900473ffffffffffffffffffffffffffffffffffffffff1673ffffffffffffffffffffffffffffffffffffffff163373ffffffffffffffffffffffffffffffffffffffff1614610258576040517f08c379a000000000000000000000000000000000000000000000000000000000815260040161024f90610892565b60405180910390fd5b600154600354101561029f576040517f08c379a0000000000000000000000000000000000000000000000000000000008152600401610296906108fa565b60405180910390fd5b5f8054906101000a900473ffffffffffffffffffffffffffffffffffffffff1673ffffffffffffffffffffffffffffffffffffffff166108fc60035490811502906040515f60405180830381858888f19350505050158015610303573d5f803e3d5ffd5b505f600381905550565b60025481565b60015481565b6004602052805f5260405f205f915090505481565b6002544211610372576040517f08c379a000000000000000000000000000000000000000000000000000000000815260040161036990610962565b60405180910390fd5b600154600354106103b8576040517f08c379a00000000000000000000000000000000000000000000000000000000081526004016103af906109f0565b60405180910390fd5b5f60045f3373ffffffffffffffffffffffffffffffffffffffff1673ffffffffffffffffffffffffffffffffffffffff1681526020019081526020015f205411610437576040517f08c379a000000000000000000000000000000000000000000000000000000000815260040161042e90610a58565b60405180910390fd5b5f60045f3373ffffffffffffffffffffffffffffffffffffffff1673ffffffffffffffffffffffffffffffffffffffff1681526020019081526020015f205490505f60045f3373ffffffffffffffffffffffffffffffffffffffff1673ffffffffffffffffffffffffffffffffffffffff1681526020019081526020015f20819055503373ffffffffffffffffffffffffffffffffffffffff166108fc8290811502906040515f60405180830381858888f193505050501580156104fd573d5f803e3d5ffd5b5050565b5f8054906101000a900473ffffffffffffffffffffffffffffffffffffffff1681565b60035481565b60025442111561056f576040517f08c379a000000000000000000000000000000000000000000000000000000000815260040161056690610ac0565b60405180910390fd5b5f34116105b1576040517f08c379a00000000000000000000000000000000000000000000000000000000081526004016105a890610b4e565b60405180910390fd5b3460045f3373ffffffffffffffffffffffffffffffffffffffff1673ffffffffffffffffffffffffffffffffffffffff1681526020019081526020015f205f8282546105fd9190610b99565b925050819055503460035f8282546106159190610b99565b92505081905550565b5f8054906101000a900473ffffffffffffffffffffffffffffffffffffffff1673ffffffffffffffffffffffffffffffffffffffff163373ffffffffffffffffffffffffffffffffffffffff16146106ab576040517f08c379a00000000000000000000000000000000000000000000000000000000081526004016106a290610892565b60405180910390fd5b8160018190555080426106be9190610b99565b6002819055505050565b5f819050919050565b6106da816106c8565b82525050565b5f6020820190506106f35f8301846106d1565b92915050565b5f80fd5b5f73ffffffffffffffffffffffffffffffffffffffff82169050919050565b5f610726826106fd565b9050919050565b6107368161071c565b8114610740575f80fd5b50565b5f813590506107518161072d565b92915050565b5f6020828403121561076c5761076b6106f9565b5b5f61077984828501610743565b91505092915050565b61078b8161071c565b82525050565b5f6020820190506107a45f830184610782565b92915050565b6107b3816106c8565b81146107bd575f80fd5b50565b5f813590506107ce816107aa565b92915050565b5f80604083850312156107ea576107e96106f9565b5b5f6107f7858286016107c0565b9250506020610808858286016107c0565b9150509250929050565b5f82825260208201905092915050565b7f4f6e6c7920746865206f776e65722063616e20706572666f726d2074686973205f8201527f616374696f6e0000000000000000000000000000000000000000000000000000602082015250565b5f61087c602683610812565b915061088782610822565b604082019050919050565b5f6020820190508181035f8301526108a981610870565b9050919050565b7f46756e64696e6720676f616c206e6f74207265616368656400000000000000005f82015250565b5f6108e4601883610812565b91506108ef826108b0565b602082019050919050565b5f6020820190508181035f830152610911816108d8565b9050919050565b7f43616d706169676e206973207374696c6c2061637469766500000000000000005f82015250565b5f61094c601883610812565b915061095782610918565b602082019050919050565b5f6020820190508181035f83015261097981610940565b9050919050565b7f46756e64696e6720676f616c2077617320726561636865642c20726566756e645f8201527f73206e6f7420617661696c61626c650000000000000000000000000000000000602082015250565b5f6109da602f83610812565b91506109e582610980565b604082019050919050565b5f6020820190508181035f830152610a07816109ce565b9050919050565b7f4e6f20636f6e747269627574696f6e7320746f20726566756e640000000000005f82015250565b5f610a42601a83610812565b9150610a4d82610a0e565b602082019050919050565b5f6020820190508181035f830152610a6f81610a36565b9050919050565b7f5468652063616d706169676e2068617320656e646564000000000000000000005f82015250565b5f610aaa601683610812565b9150610ab582610a76565b602082019050919050565b5f6020820190508181035f830152610ad781610a9e565b9050919050565b7f436f6e747269627574696f6e206d7573742062652067726561746572207468615f8201527f6e20300000000000000000000000000000000000000000000000000000000000602082015250565b5f610b38602383610812565b9150610b4382610ade565b604082019050919050565b5f6020820190508181035f830152610b6581610b2c565b9050919050565b7f4e487b71000000000000000000000000000000000000000000000000000000005f52601160045260245ffd5b5f610ba3826106c8565b9150610bae836106c8565b9250828201905080821115610bc657610bc5610b6c565b5b9291505056fea2646970667358221220159d9fa8febf79b6c481a6f6f81939f6cfaa3a7047b92de37263e2354c0a41b764736f6c634300081a0033",
					"opcodes": "PUSH1 0x80 PUSH1 0x40 MSTORE CALLVALUE DUP1 ISZERO PUSH1 0xE JUMPI PUSH0 DUP1 REVERT JUMPDEST POP CALLER PUSH0 DUP1 PUSH2 0x100 EXP DUP2 SLOAD DUP2 PUSH20 0xFFFFFFFFFFFFFFFFFFFFFFFFFFFFFFFFFFFFFFFF MUL NOT AND SWAP1 DUP4 PUSH20 0xFFFFFFFFFFFFFFFFFFFFFFFFFFFFFFFFFFFFFFFF AND MUL OR SWAP1 SSTORE POP PUSH2 0xC02 DUP1 PUSH2 0x5B PUSH0 CODECOPY PUSH0 RETURN INVALID PUSH1 0x80 PUSH1 0x40 MSTORE PUSH1 0x4 CALLDATASIZE LT PUSH2 0x85 JUMPI PUSH0 CALLDATALOAD PUSH1 0xE0 SHR DUP1 PUSH4 0x590E1AE3 GT PUSH2 0x58 JUMPI DUP1 PUSH4 0x590E1AE3 EQ PUSH2 0x12F JUMPI DUP1 PUSH4 0x8DA5CB5B EQ PUSH2 0x145 JUMPI DUP1 PUSH4 0xC59EE1DC EQ PUSH2 0x16F JUMPI DUP1 PUSH4 0xD7BB99BA EQ PUSH2 0x199 JUMPI DUP1 PUSH4 0xF413D468 EQ PUSH2 0x1A3 JUMPI PUSH2 0x85 JUMP JUMPDEST DUP1 PUSH4 0x24600FC3 EQ PUSH2 0x89 JUMPI DUP1 PUSH4 0x29DCB0CF EQ PUSH2 0x9F JUMPI DUP1 PUSH4 0x40193883 EQ PUSH2 0xC9 JUMPI DUP1 PUSH4 0x42E94C90 EQ PUSH2 0xF3 JUMPI JUMPDEST PUSH0 DUP1 REVERT JUMPDEST CALLVALUE DUP1 ISZERO PUSH2 0x94 JUMPI PUSH0 DUP1 REVERT JUMPDEST POP PUSH2 0x9D PUSH2 0x1CB JUMP JUMPDEST STOP JUMPDEST CALLVALUE DUP1 ISZERO PUSH2 0xAA JUMPI PUSH0 DUP1 REVERT JUMPDEST POP PUSH2 0xB3 PUSH2 0x30D JUMP JUMPDEST PUSH1 0x40 MLOAD PUSH2 0xC0 SWAP2 SWAP1 PUSH2 0x6E0 JUMP JUMPDEST PUSH1 0x40 MLOAD DUP1 SWAP2 SUB SWAP1 RETURN JUMPDEST CALLVALUE DUP1 ISZERO PUSH2 0xD4 JUMPI PUSH0 DUP1 REVERT JUMPDEST POP PUSH2 0xDD PUSH2 0x313 JUMP JUMPDEST PUSH1 0x40 MLOAD PUSH2 0xEA SWAP2 SWAP1 PUSH2 0x6E0 JUMP JUMPDEST PUSH1 0x40 MLOAD DUP1 SWAP2 SUB SWAP1 RETURN JUMPDEST CALLVALUE DUP1 ISZERO PUSH2 0xFE JUMPI PUSH0 DUP1 REVERT JUMPDEST POP PUSH2 0x119 PUSH1 0x4 DUP1 CALLDATASIZE SUB DUP2 ADD SWAP1 PUSH2 0x114 SWAP2 SWAP1 PUSH2 0x757 JUMP JUMPDEST PUSH2 0x319 JUMP JUMPDEST PUSH1 0x40 MLOAD PUSH2 0x126 SWAP2 SWAP1 PUSH2 0x6E0 JUMP JUMPDEST PUSH1 0x40 MLOAD DUP1 SWAP2 SUB SWAP1 RETURN JUMPDEST CALLVALUE DUP1 ISZERO PUSH2 0x13A JUMPI PUSH0 DUP1 REVERT JUMPDEST POP PUSH2 0x143 PUSH2 0x32E JUMP JUMPDEST STOP JUMPDEST CALLVALUE DUP1 ISZERO PUSH2 0x150 JUMPI PUSH0 DUP1 REVERT JUMPDEST POP PUSH2 0x159 PUSH2 0x501 JUMP JUMPDEST PUSH1 0x40 MLOAD PUSH2 0x166 SWAP2 SWAP1 PUSH2 0x791 JUMP JUMPDEST PUSH1 0x40 MLOAD DUP1 SWAP2 SUB SWAP1 RETURN JUMPDEST CALLVALUE DUP1 ISZERO PUSH2 0x17A JUMPI PUSH0 DUP1 REVERT JUMPDEST POP PUSH2 0x183 PUSH2 0x524 JUMP JUMPDEST PUSH1 0x40 MLOAD PUSH2 0x190 SWAP2 SWAP1 PUSH2 0x6E0 JUMP JUMPDEST PUSH1 0x40 MLOAD DUP1 SWAP2 SUB SWAP1 RETURN JUMPDEST PUSH2 0x1A1 PUSH2 0x52A JUMP JUMPDEST STOP JUMPDEST CALLVALUE DUP1 ISZERO PUSH2 0x1AE JUMPI PUSH0 DUP1 REVERT JUMPDEST POP PUSH2 0x1C9 PUSH1 0x4 DUP1 CALLDATASIZE SUB DUP2 ADD SWAP1 PUSH2 0x1C4 SWAP2 SWAP1 PUSH2 0x7D4 JUMP JUMPDEST PUSH2 0x61E JUMP JUMPDEST STOP JUMPDEST PUSH0 DUP1 SLOAD SWAP1 PUSH2 0x100 EXP SWAP1 DIV PUSH20 0xFFFFFFFFFFFFFFFFFFFFFFFFFFFFFFFFFFFFFFFF AND PUSH20 0xFFFFFFFFFFFFFFFFFFFFFFFFFFFFFFFFFFFFFFFF AND CALLER PUSH20 0xFFFFFFFFFFFFFFFFFFFFFFFFFFFFFFFFFFFFFFFF AND EQ PUSH2 0x258 JUMPI PUSH1 0x40 MLOAD PUSH32 0x8C379A000000000000000000000000000000000000000000000000000000000 DUP2 MSTORE PUSH1 0x4 ADD PUSH2 0x24F SWAP1 PUSH2 0x892 JUMP JUMPDEST PUSH1 0x40 MLOAD DUP1 SWAP2 SUB SWAP1 REVERT JUMPDEST PUSH1 0x1 SLOAD PUSH1 0x3 SLOAD LT ISZERO PUSH2 0x29F JUMPI PUSH1 0x40 MLOAD PUSH32 0x8C379A000000000000000000000000000000000000000000000000000000000 DUP2 MSTORE PUSH1 0x4 ADD PUSH2 0x296 SWAP1 PUSH2 0x8FA JUMP JUMPDEST PUSH1 0x40 MLOAD DUP1 SWAP2 SUB SWAP1 REVERT JUMPDEST PUSH0 DUP1 SLOAD SWAP1 PUSH2 0x100 EXP SWAP1 DIV PUSH20 0xFFFFFFFFFFFFFFFFFFFFFFFFFFFFFFFFFFFFFFFF AND PUSH20 0xFFFFFFFFFFFFFFFFFFFFFFFFFFFFFFFFFFFFFFFF AND PUSH2 0x8FC PUSH1 0x3 SLOAD SWAP1 DUP2 ISZERO MUL SWAP1 PUSH1 0x40 MLOAD PUSH0 PUSH1 0x40 MLOAD DUP1 DUP4 SUB DUP2 DUP6 DUP9 DUP9 CALL SWAP4 POP POP POP POP ISZERO DUP1 ISZERO PUSH2 0x303 JUMPI RETURNDATASIZE PUSH0 DUP1 RETURNDATACOPY RETURNDATASIZE PUSH0 REVERT JUMPDEST POP PUSH0 PUSH1 0x3 DUP2 SWAP1 SSTORE POP JUMP JUMPDEST PUSH1 0x2 SLOAD DUP2 JUMP JUMPDEST PUSH1 0x1 SLOAD DUP2 JUMP JUMPDEST PUSH1 0x4 PUSH1 0x20 MSTORE DUP1 PUSH0 MSTORE PUSH1 0x40 PUSH0 KECCAK256 PUSH0 SWAP2 POP SWAP1 POP SLOAD DUP2 JUMP JUMPDEST PUSH1 0x2 SLOAD TIMESTAMP GT PUSH2 0x372 JUMPI PUSH1 0x40 MLOAD PUSH32 0x8C379A000000000000000000000000000000000000000000000000000000000 DUP2 MSTORE PUSH1 0x4 ADD PUSH2 0x369 SWAP1 PUSH2 0x962 JUMP JUMPDEST PUSH1 0x40 MLOAD DUP1 SWAP2 SUB SWAP1 REVERT JUMPDEST PUSH1 0x1 SLOAD PUSH1 0x3 SLOAD LT PUSH2 0x3B8 JUMPI PUSH1 0x40 MLOAD PUSH32 0x8C379A000000000000000000000000000000000000000000000000000000000 DUP2 MSTORE PUSH1 0x4 ADD PUSH2 0x3AF SWAP1 PUSH2 0x9F0 JUMP JUMPDEST PUSH1 0x40 MLOAD DUP1 SWAP2 SUB SWAP1 REVERT JUMPDEST PUSH0 PUSH1 0x4 PUSH0 CALLER PUSH20 0xFFFFFFFFFFFFFFFFFFFFFFFFFFFFFFFFFFFFFFFF AND PUSH20 0xFFFFFFFFFFFFFFFFFFFFFFFFFFFFFFFFFFFFFFFF AND DUP2 MSTORE PUSH1 0x20 ADD SWAP1 DUP2 MSTORE PUSH1 0x20 ADD PUSH0 KECCAK256 SLOAD GT PUSH2 0x437 JUMPI PUSH1 0x40 MLOAD PUSH32 0x8C379A000000000000000000000000000000000000000000000000000000000 DUP2 MSTORE PUSH1 0x4 ADD PUSH2 0x42E SWAP1 PUSH2 0xA58 JUMP JUMPDEST PUSH1 0x40 MLOAD DUP1 SWAP2 SUB SWAP1 REVERT JUMPDEST PUSH0 PUSH1 0x4 PUSH0 CALLER PUSH20 0xFFFFFFFFFFFFFFFFFFFFFFFFFFFFFFFFFFFFFFFF AND PUSH20 0xFFFFFFFFFFFFFFFFFFFFFFFFFFFFFFFFFFFFFFFF AND DUP2 MSTORE PUSH1 0x20 ADD SWAP1 DUP2 MSTORE PUSH1 0x20 ADD PUSH0 KECCAK256 SLOAD SWAP1 POP PUSH0 PUSH1 0x4 PUSH0 CALLER PUSH20 0xFFFFFFFFFFFFFFFFFFFFFFFFFFFFFFFFFFFFFFFF AND PUSH20 0xFFFFFFFFFFFFFFFFFFFFFFFFFFFFFFFFFFFFFFFF AND DUP2 MSTORE PUSH1 0x20 ADD SWAP1 DUP2 MSTORE PUSH1 0x20 ADD PUSH0 KECCAK256 DUP2 SWAP1 SSTORE POP CALLER PUSH20 0xFFFFFFFFFFFFFFFFFFFFFFFFFFFFFFFFFFFFFFFF AND PUSH2 0x8FC DUP3 SWAP1 DUP2 ISZERO MUL SWAP1 PUSH1 0x40 MLOAD PUSH0 PUSH1 0x40 MLOAD DUP1 DUP4 SUB DUP2 DUP6 DUP9 DUP9 CALL SWAP4 POP POP POP POP ISZERO DUP1 ISZERO PUSH2 0x4FD JUMPI RETURNDATASIZE PUSH0 DUP1 RETURNDATACOPY RETURNDATASIZE PUSH0 REVERT JUMPDEST POP POP JUMP JUMPDEST PUSH0 DUP1 SLOAD SWAP1 PUSH2 0x100 EXP SWAP1 DIV PUSH20 0xFFFFFFFFFFFFFFFFFFFFFFFFFFFFFFFFFFFFFFFF AND DUP2 JUMP JUMPDEST PUSH1 0x3 SLOAD DUP2 JUMP JUMPDEST PUSH1 0x2 SLOAD TIMESTAMP GT ISZERO PUSH2 0x56F JUMPI PUSH1 0x40 MLOAD PUSH32 0x8C379A000000000000000000000000000000000000000000000000000000000 DUP2 MSTORE PUSH1 0x4 ADD PUSH2 0x566 SWAP1 PUSH2 0xAC0 JUMP JUMPDEST PUSH1 0x40 MLOAD DUP1 SWAP2 SUB SWAP1 REVERT JUMPDEST PUSH0 CALLVALUE GT PUSH2 0x5B1 JUMPI PUSH1 0x40 MLOAD PUSH32 0x8C379A000000000000000000000000000000000000000000000000000000000 DUP2 MSTORE PUSH1 0x4 ADD PUSH2 0x5A8 SWAP1 PUSH2 0xB4E JUMP JUMPDEST PUSH1 0x40 MLOAD DUP1 SWAP2 SUB SWAP1 REVERT JUMPDEST CALLVALUE PUSH1 0x4 PUSH0 CALLER PUSH20 0xFFFFFFFFFFFFFFFFFFFFFFFFFFFFFFFFFFFFFFFF AND PUSH20 0xFFFFFFFFFFFFFFFFFFFFFFFFFFFFFFFFFFFFFFFF AND DUP2 MSTORE PUSH1 0x20 ADD SWAP1 DUP2 MSTORE PUSH1 0x20 ADD PUSH0 KECCAK256 PUSH0 DUP3 DUP3 SLOAD PUSH2 0x5FD SWAP2 SWAP1 PUSH2 0xB99 JUMP JUMPDEST SWAP3 POP POP DUP2 SWAP1 SSTORE POP CALLVALUE PUSH1 0x3 PUSH0 DUP3 DUP3 SLOAD PUSH2 0x615 SWAP2 SWAP1 PUSH2 0xB99 JUMP JUMPDEST SWAP3 POP POP DUP2 SWAP1 SSTORE POP JUMP JUMPDEST PUSH0 DUP1 SLOAD SWAP1 PUSH2 0x100 EXP SWAP1 DIV PUSH20 0xFFFFFFFFFFFFFFFFFFFFFFFFFFFFFFFFFFFFFFFF AND PUSH20 0xFFFFFFFFFFFFFFFFFFFFFFFFFFFFFFFFFFFFFFFF AND CALLER PUSH20 0xFFFFFFFFFFFFFFFFFFFFFFFFFFFFFFFFFFFFFFFF AND EQ PUSH2 0x6AB JUMPI PUSH1 0x40 MLOAD PUSH32 0x8C379A000000000000000000000000000000000000000000000000000000000 DUP2 MSTORE PUSH1 0x4 ADD PUSH2 0x6A2 SWAP1 PUSH2 0x892 JUMP JUMPDEST PUSH1 0x40 MLOAD DUP1 SWAP2 SUB SWAP1 REVERT JUMPDEST DUP2 PUSH1 0x1 DUP2 SWAP1 SSTORE POP DUP1 TIMESTAMP PUSH2 0x6BE SWAP2 SWAP1 PUSH2 0xB99 JUMP JUMPDEST PUSH1 0x2 DUP2 SWAP1 SSTORE POP POP POP JUMP JUMPDEST PUSH0 DUP2 SWAP1 POP SWAP2 SWAP1 POP JUMP JUMPDEST PUSH2 0x6DA DUP2 PUSH2 0x6C8 JUMP JUMPDEST DUP3 MSTORE POP POP JUMP JUMPDEST PUSH0 PUSH1 0x20 DUP3 ADD SWAP1 POP PUSH2 0x6F3 PUSH0 DUP4 ADD DUP5 PUSH2 0x6D1 JUMP JUMPDEST SWAP3 SWAP2 POP POP JUMP JUMPDEST PUSH0 DUP1 REVERT JUMPDEST PUSH0 PUSH20 0xFFFFFFFFFFFFFFFFFFFFFFFFFFFFFFFFFFFFFFFF DUP3 AND SWAP1 POP SWAP2 SWAP1 POP JUMP JUMPDEST PUSH0 PUSH2 0x726 DUP3 PUSH2 0x6FD JUMP JUMPDEST SWAP1 POP SWAP2 SWAP1 POP JUMP JUMPDEST PUSH2 0x736 DUP2 PUSH2 0x71C JUMP JUMPDEST DUP2 EQ PUSH2 0x740 JUMPI PUSH0 DUP1 REVERT JUMPDEST POP JUMP JUMPDEST PUSH0 DUP2 CALLDATALOAD SWAP1 POP PUSH2 0x751 DUP2 PUSH2 0x72D JUMP JUMPDEST SWAP3 SWAP2 POP POP JUMP JUMPDEST PUSH0 PUSH1 0x20 DUP3 DUP5 SUB SLT ISZERO PUSH2 0x76C JUMPI PUSH2 0x76B PUSH2 0x6F9 JUMP JUMPDEST JUMPDEST PUSH0 PUSH2 0x779 DUP5 DUP3 DUP6 ADD PUSH2 0x743 JUMP JUMPDEST SWAP2 POP POP SWAP3 SWAP2 POP POP JUMP JUMPDEST PUSH2 0x78B DUP2 PUSH2 0x71C JUMP JUMPDEST DUP3 MSTORE POP POP JUMP JUMPDEST PUSH0 PUSH1 0x20 DUP3 ADD SWAP1 POP PUSH2 0x7A4 PUSH0 DUP4 ADD DUP5 PUSH2 0x782 JUMP JUMPDEST SWAP3 SWAP2 POP POP JUMP JUMPDEST PUSH2 0x7B3 DUP2 PUSH2 0x6C8 JUMP JUMPDEST DUP2 EQ PUSH2 0x7BD JUMPI PUSH0 DUP1 REVERT JUMPDEST POP JUMP JUMPDEST PUSH0 DUP2 CALLDATALOAD SWAP1 POP PUSH2 0x7CE DUP2 PUSH2 0x7AA JUMP JUMPDEST SWAP3 SWAP2 POP POP JUMP JUMPDEST PUSH0 DUP1 PUSH1 0x40 DUP4 DUP6 SUB SLT ISZERO PUSH2 0x7EA JUMPI PUSH2 0x7E9 PUSH2 0x6F9 JUMP JUMPDEST JUMPDEST PUSH0 PUSH2 0x7F7 DUP6 DUP3 DUP7 ADD PUSH2 0x7C0 JUMP JUMPDEST SWAP3 POP POP PUSH1 0x20 PUSH2 0x808 DUP6 DUP3 DUP7 ADD PUSH2 0x7C0 JUMP JUMPDEST SWAP2 POP POP SWAP3 POP SWAP3 SWAP1 POP JUMP JUMPDEST PUSH0 DUP3 DUP3 MSTORE PUSH1 0x20 DUP3 ADD SWAP1 POP SWAP3 SWAP2 POP POP JUMP JUMPDEST PUSH32 0x4F6E6C7920746865206F776E65722063616E20706572666F726D207468697320 PUSH0 DUP3 ADD MSTORE PUSH32 0x616374696F6E0000000000000000000000000000000000000000000000000000 PUSH1 0x20 DUP3 ADD MSTORE POP JUMP JUMPDEST PUSH0 PUSH2 0x87C PUSH1 0x26 DUP4 PUSH2 0x812 JUMP JUMPDEST SWAP2 POP PUSH2 0x887 DUP3 PUSH2 0x822 JUMP JUMPDEST PUSH1 0x40 DUP3 ADD SWAP1 POP SWAP2 SWAP1 POP JUMP JUMPDEST PUSH0 PUSH1 0x20 DUP3 ADD SWAP1 POP DUP2 DUP2 SUB PUSH0 DUP4 ADD MSTORE PUSH2 0x8A9 DUP2 PUSH2 0x870 JUMP JUMPDEST SWAP1 POP SWAP2 SWAP1 POP JUMP JUMPDEST PUSH32 0x46756E64696E6720676F616C206E6F7420726561636865640000000000000000 PUSH0 DUP3 ADD MSTORE POP JUMP JUMPDEST PUSH0 PUSH2 0x8E4 PUSH1 0x18 DUP4 PUSH2 0x812 JUMP JUMPDEST SWAP2 POP PUSH2 0x8EF DUP3 PUSH2 0x8B0 JUMP JUMPDEST PUSH1 0x20 DUP3 ADD SWAP1 POP SWAP2 SWAP1 POP JUMP JUMPDEST PUSH0 PUSH1 0x20 DUP3 ADD SWAP1 POP DUP2 DUP2 SUB PUSH0 DUP4 ADD MSTORE PUSH2 0x911 DUP2 PUSH2 0x8D8 JUMP JUMPDEST SWAP1 POP SWAP2 SWAP1 POP JUMP JUMPDEST PUSH32 0x43616D706169676E206973207374696C6C206163746976650000000000000000 PUSH0 DUP3 ADD MSTORE POP JUMP JUMPDEST PUSH0 PUSH2 0x94C PUSH1 0x18 DUP4 PUSH2 0x812 JUMP JUMPDEST SWAP2 POP PUSH2 0x957 DUP3 PUSH2 0x918 JUMP JUMPDEST PUSH1 0x20 DUP3 ADD SWAP1 POP SWAP2 SWAP1 POP JUMP JUMPDEST PUSH0 PUSH1 0x20 DUP3 ADD SWAP1 POP DUP2 DUP2 SUB PUSH0 DUP4 ADD MSTORE PUSH2 0x979 DUP2 PUSH2 0x940 JUMP JUMPDEST SWAP1 POP SWAP2 SWAP1 POP JUMP JUMPDEST PUSH32 0x46756E64696E6720676F616C2077617320726561636865642C20726566756E64 PUSH0 DUP3 ADD MSTORE PUSH32 0x73206E6F7420617661696C61626C650000000000000000000000000000000000 PUSH1 0x20 DUP3 ADD MSTORE POP JUMP JUMPDEST PUSH0 PUSH2 0x9DA PUSH1 0x2F DUP4 PUSH2 0x812 JUMP JUMPDEST SWAP2 POP PUSH2 0x9E5 DUP3 PUSH2 0x980 JUMP JUMPDEST PUSH1 0x40 DUP3 ADD SWAP1 POP SWAP2 SWAP1 POP JUMP JUMPDEST PUSH0 PUSH1 0x20 DUP3 ADD SWAP1 POP DUP2 DUP2 SUB PUSH0 DUP4 ADD MSTORE PUSH2 0xA07 DUP2 PUSH2 0x9CE JUMP JUMPDEST SWAP1 POP SWAP2 SWAP1 POP JUMP JUMPDEST PUSH32 0x4E6F20636F6E747269627574696F6E7320746F20726566756E64000000000000 PUSH0 DUP3 ADD MSTORE POP JUMP JUMPDEST PUSH0 PUSH2 0xA42 PUSH1 0x1A DUP4 PUSH2 0x812 JUMP JUMPDEST SWAP2 POP PUSH2 0xA4D DUP3 PUSH2 0xA0E JUMP JUMPDEST PUSH1 0x20 DUP3 ADD SWAP1 POP SWAP2 SWAP1 POP JUMP JUMPDEST PUSH0 PUSH1 0x20 DUP3 ADD SWAP1 POP DUP2 DUP2 SUB PUSH0 DUP4 ADD MSTORE PUSH2 0xA6F DUP2 PUSH2 0xA36 JUMP JUMPDEST SWAP1 POP SWAP2 SWAP1 POP JUMP JUMPDEST PUSH32 0x5468652063616D706169676E2068617320656E64656400000000000000000000 PUSH0 DUP3 ADD MSTORE POP JUMP JUMPDEST PUSH0 PUSH2 0xAAA PUSH1 0x16 DUP4 PUSH2 0x812 JUMP JUMPDEST SWAP2 POP PUSH2 0xAB5 DUP3 PUSH2 0xA76 JUMP JUMPDEST PUSH1 0x20 DUP3 ADD SWAP1 POP SWAP2 SWAP1 POP JUMP JUMPDEST PUSH0 PUSH1 0x20 DUP3 ADD SWAP1 POP DUP2 DUP2 SUB PUSH0 DUP4 ADD MSTORE PUSH2 0xAD7 DUP2 PUSH2 0xA9E JUMP JUMPDEST SWAP1 POP SWAP2 SWAP1 POP JUMP JUMPDEST PUSH32 0x436F6E747269627574696F6E206D757374206265206772656174657220746861 PUSH0 DUP3 ADD MSTORE PUSH32 0x6E20300000000000000000000000000000000000000000000000000000000000 PUSH1 0x20 DUP3 ADD MSTORE POP JUMP JUMPDEST PUSH0 PUSH2 0xB38 PUSH1 0x23 DUP4 PUSH2 0x812 JUMP JUMPDEST SWAP2 POP PUSH2 0xB43 DUP3 PUSH2 0xADE JUMP JUMPDEST PUSH1 0x40 DUP3 ADD SWAP1 POP SWAP2 SWAP1 POP JUMP JUMPDEST PUSH0 PUSH1 0x20 DUP3 ADD SWAP1 POP DUP2 DUP2 SUB PUSH0 DUP4 ADD MSTORE PUSH2 0xB65 DUP2 PUSH2 0xB2C JUMP JUMPDEST SWAP1 POP SWAP2 SWAP1 POP JUMP JUMPDEST PUSH32 0x4E487B7100000000000000000000000000000000000000000000000000000000 PUSH0 MSTORE PUSH1 0x11 PUSH1 0x4 MSTORE PUSH1 0x24 PUSH0 REVERT JUMPDEST PUSH0 PUSH2 0xBA3 DUP3 PUSH2 0x6C8 JUMP JUMPDEST SWAP2 POP PUSH2 0xBAE DUP4 PUSH2 0x6C8 JUMP JUMPDEST SWAP3 POP DUP3 DUP3 ADD SWAP1 POP DUP1 DUP3 GT ISZERO PUSH2 0xBC6 JUMPI PUSH2 0xBC5 PUSH2 0xB6C JUMP JUMPDEST JUMPDEST SWAP3 SWAP2 POP POP JUMP INVALID LOG2 PUSH5 0x6970667358 0x22 SLT KECCAK256 ISZERO SWAP14 SWAP16 0xA8 INVALID 0xBF PUSH26 0xB6C481A6F6F81939F6CFAA3A7047B92DE37263E2354C0A41B764 PUSH20 0x6F6C634300081A00330000000000000000000000 "
				},
				"gasEstimates": {
					"creation": {
						"codeDepositCost": "614800",
						"executionCost": "24914",
						"totalCost": "639714"
					},
					"external": {
						"contribute()": "infinite",
						"contributions(address)": "2869",
						"deadline()": "2448",
						"goal()": "2470",
						"owner()": "2527",
						"raisedAmount()": "2469",
						"refund()": "infinite",
						"startCampaign(uint256,uint256)": "infinite",
						"withdrawFunds()": "infinite"
					}
				},
				"methodIdentifiers": {
					"contribute()": "d7bb99ba",
					"contributions(address)": "42e94c90",
					"deadline()": "29dcb0cf",
					"goal()": "40193883",
					"owner()": "8da5cb5b",
					"raisedAmount()": "c59ee1dc",
					"refund()": "590e1ae3",
					"startCampaign(uint256,uint256)": "f413d468",
					"withdrawFunds()": "24600fc3"
				}
			},
			"storageLayout": {
				"storage": [
					{
						"astId": 3,
						"contract": "contracts/Blockchain_Assignment_6/Tasks/Week_6_Task_4.sol:Crowdfunding",
						"label": "owner",
						"offset": 0,
						"slot": "0",
						"type": "t_address"
					},
					{
						"astId": 5,
						"contract": "contracts/Blockchain_Assignment_6/Tasks/Week_6_Task_4.sol:Crowdfunding",
						"label": "goal",
						"offset": 0,
						"slot": "1",
						"type": "t_uint256"
					},
					{
						"astId": 7,
						"contract": "contracts/Blockchain_Assignment_6/Tasks/Week_6_Task_4.sol:Crowdfunding",
						"label": "deadline",
						"offset": 0,
						"slot": "2",
						"type": "t_uint256"
					},
					{
						"astId": 9,
						"contract": "contracts/Blockchain_Assignment_6/Tasks/Week_6_Task_4.sol:Crowdfunding",
						"label": "raisedAmount",
						"offset": 0,
						"slot": "3",
						"type": "t_uint256"
					},
					{
						"astId": 13,
						"contract": "contracts/Blockchain_Assignment_6/Tasks/Week_6_Task_4.sol:Crowdfunding",
						"label": "contributions",
						"offset": 0,
						"slot": "4",
						"type": "t_mapping(t_address,t_uint256)"
					}
				],
				"types": {
					"t_address": {
						"encoding": "inplace",
						"label": "address",
						"numberOfBytes": "20"
					},
					"t_mapping(t_address,t_uint256)": {
						"encoding": "mapping",
						"key": "t_address",
						"label": "mapping(address => uint256)",
						"numberOfBytes": "32",
						"value": "t_uint256"
					},
					"t_uint256": {
						"encoding": "inplace",
						"label": "uint256",
						"numberOfBytes": "32"
					}
				}
			},
			"userdoc": {
				"kind": "user",
				"methods": {},
				"version": 1
			}
		}
	}
}