{
	"contracts/Blockchain_Assignment_6/Tasks/Week_6_Task_5.sol": {
		"TokenAirdrop": {
			"abi": [
				{
					"inputs": [
						{
							"internalType": "uint256",
							"name": "_totalTokens",
							"type": "uint256"
						}
					],
					"stateMutability": "nonpayable",
					"type": "constructor"
				},
				{
					"anonymous": false,
					"inputs": [
						{
							"indexed": true,
							"internalType": "address",
							"name": "user",
							"type": "address"
						},
						{
							"indexed": false,
							"internalType": "uint256",
							"name": "amount",
							"type": "uint256"
						}
					],
					"name": "TokensWithdrawn",
					"type": "event"
				},
				{
					"inputs": [],
					"name": "contribute",
					"outputs": [],
					"stateMutability": "payable",
					"type": "function"
				},
				{
					"inputs": [
						{
							"internalType": "address",
							"name": "",
							"type": "address"
						}
					],
					"name": "contributions",
					"outputs": [
						{
							"internalType": "uint256",
							"name": "",
							"type": "uint256"
						}
					],
					"stateMutability": "view",
					"type": "function"
				},
				{
					"inputs": [
						{
							"internalType": "uint256",
							"name": "tokens",
							"type": "uint256"
						}
					],
					"name": "distributeTokens",
					"outputs": [],
					"stateMutability": "nonpayable",
					"type": "function"
				},
				{
					"inputs": [],
					"name": "owner",
					"outputs": [
						{
							"internalType": "address",
							"name": "",
							"type": "address"
						}
					],
					"stateMutability": "view",
					"type": "function"
				},
				{
					"inputs": [
						{
							"internalType": "address",
							"name": "",
							"type": "address"
						}
					],
					"name": "tokenBalances",
					"outputs": [
						{
							"internalType": "uint256",
							"name": "",
							"type": "uint256"
						}
					],
					"stateMutability": "view",
					"type": "function"
				},
				{
					"inputs": [],
					"name": "totalContributions",
					"outputs": [
						{
							"internalType": "uint256",
							"name": "",
							"type": "uint256"
						}
					],
					"stateMutability": "view",
					"type": "function"
				},
				{
					"inputs": [],
					"name": "totalTokens",
					"outputs": [
						{
							"internalType": "uint256",
							"name": "",
							"type": "uint256"
						}
					],
					"stateMutability": "view",
					"type": "function"
				},
				{
					"inputs": [],
					"name": "withdrawTokens",
					"outputs": [],
					"stateMutability": "nonpayable",
					"type": "function"
				}
			],
			"devdoc": {
				"kind": "dev",
				"methods": {},
				"version": 1
			},
			"evm": {
				"assembly": "    /* \"contracts/Blockchain_Assignment_6/Tasks/Week_6_Task_5.sol\":60:1877  contract TokenAirdrop {... */\n  mstore(0x40, 0x80)\n    /* \"contracts/Blockchain_Assignment_6/Tasks/Week_6_Task_5.sol\":431:539  constructor(uint256 _totalTokens) {... */\n  callvalue\n  dup1\n  iszero\n  tag_1\n  jumpi\n  0x00\n  dup1\n  revert\ntag_1:\n  pop\n  mload(0x40)\n  sub(codesize, bytecodeSize)\n  dup1\n  bytecodeSize\n  dup4\n  codecopy\n  dup2\n  dup2\n  add\n  0x40\n  mstore\n  dup2\n  add\n  swap1\n  tag_2\n  swap2\n  swap1\n  tag_3\n  jump\t// in\ntag_2:\n    /* \"contracts/Blockchain_Assignment_6/Tasks/Week_6_Task_5.sol\":484:494  msg.sender */\n  caller\n    /* \"contracts/Blockchain_Assignment_6/Tasks/Week_6_Task_5.sol\":476:481  owner */\n  0x00\n  dup1\n    /* \"contracts/Blockchain_Assignment_6/Tasks/Week_6_Task_5.sol\":476:494  owner = msg.sender */\n  0x0100\n  exp\n  dup2\n  sload\n  dup2\n  0xffffffffffffffffffffffffffffffffffffffff\n  mul\n  not\n  and\n  swap1\n  dup4\n  0xffffffffffffffffffffffffffffffffffffffff\n  and\n  mul\n  or\n  swap1\n  sstore\n  pop\n    /* \"contracts/Blockchain_Assignment_6/Tasks/Week_6_Task_5.sol\":519:531  _totalTokens */\n  dup1\n    /* \"contracts/Blockchain_Assignment_6/Tasks/Week_6_Task_5.sol\":505:516  totalTokens */\n  0x03\n    /* \"contracts/Blockchain_Assignment_6/Tasks/Week_6_Task_5.sol\":505:531  totalTokens = _totalTokens */\n  dup2\n  swap1\n  sstore\n  pop\n    /* \"contracts/Blockchain_Assignment_6/Tasks/Week_6_Task_5.sol\":431:539  constructor(uint256 _totalTokens) {... */\n  pop\n    /* \"contracts/Blockchain_Assignment_6/Tasks/Week_6_Task_5.sol\":60:1877  contract TokenAirdrop {... */\n  jump(tag_6)\n    /* \"#utility.yul\":88:205   */\ntag_8:\n    /* \"#utility.yul\":197:198   */\n  0x00\n    /* \"#utility.yul\":194:195   */\n  dup1\n    /* \"#utility.yul\":187:199   */\n  revert\n    /* \"#utility.yul\":334:411   */\ntag_10:\n    /* \"#utility.yul\":371:378   */\n  0x00\n    /* \"#utility.yul\":400:405   */\n  dup2\n    /* \"#utility.yul\":389:405   */\n  swap1\n  pop\n    /* \"#utility.yul\":334:411   */\n  swap2\n  swap1\n  pop\n  jump\t// out\n    /* \"#utility.yul\":417:539   */\ntag_11:\n    /* \"#utility.yul\":490:514   */\n  tag_19\n    /* \"#utility.yul\":508:513   */\n  dup2\n    /* \"#utility.yul\":490:514   */\n  tag_10\n  jump\t// in\ntag_19:\n    /* \"#utility.yul\":483:488   */\n  dup2\n    /* \"#utility.yul\":480:515   */\n  eq\n    /* \"#utility.yul\":470:533   */\n  tag_20\n  jumpi\n    /* \"#utility.yul\":529:530   */\n  0x00\n    /* \"#utility.yul\":526:527   */\n  dup1\n    /* \"#utility.yul\":519:531   */\n  revert\n    /* \"#utility.yul\":470:533   */\ntag_20:\n    /* \"#utility.yul\":417:539   */\n  pop\n  jump\t// out\n    /* \"#utility.yul\":545:688   */\ntag_12:\n    /* \"#utility.yul\":602:607   */\n  0x00\n    /* \"#utility.yul\":633:639   */\n  dup2\n    /* \"#utility.yul\":627:640   */\n  mload\n    /* \"#utility.yul\":618:640   */\n  swap1\n  pop\n    /* \"#utility.yul\":649:682   */\n  tag_22\n    /* \"#utility.yul\":676:681   */\n  dup2\n    /* \"#utility.yul\":649:682   */\n  tag_11\n  jump\t// in\ntag_22:\n    /* \"#utility.yul\":545:688   */\n  swap3\n  swap2\n  pop\n  pop\n  jump\t// out\n    /* \"#utility.yul\":694:1045   */\ntag_3:\n    /* \"#utility.yul\":764:770   */\n  0x00\n    /* \"#utility.yul\":813:815   */\n  0x20\n    /* \"#utility.yul\":801:810   */\n  dup3\n    /* \"#utility.yul\":792:799   */\n  dup5\n    /* \"#utility.yul\":788:811   */\n  sub\n    /* \"#utility.yul\":784:816   */\n  slt\n    /* \"#utility.yul\":781:900   */\n  iszero\n  tag_24\n  jumpi\n    /* \"#utility.yul\":819:898   */\n  tag_25\n  tag_8\n  jump\t// in\ntag_25:\n    /* \"#utility.yul\":781:900   */\ntag_24:\n    /* \"#utility.yul\":939:940   */\n  0x00\n    /* \"#utility.yul\":964:1028   */\n  tag_26\n    /* \"#utility.yul\":1020:1027   */\n  dup5\n    /* \"#utility.yul\":1011:1017   */\n  dup3\n    /* \"#utility.yul\":1000:1009   */\n  dup6\n    /* \"#utility.yul\":996:1018   */\n  add\n    /* \"#utility.yul\":964:1028   */\n  tag_12\n  jump\t// in\ntag_26:\n    /* \"#utility.yul\":954:1028   */\n  swap2\n  pop\n    /* \"#utility.yul\":910:1038   */\n  pop\n    /* \"#utility.yul\":694:1045   */\n  swap3\n  swap2\n  pop\n  pop\n  jump\t// out\n    /* \"contracts/Blockchain_Assignment_6/Tasks/Week_6_Task_5.sol\":60:1877  contract TokenAirdrop {... */\ntag_6:\n  dataSize(sub_0)\n  dup1\n  dataOffset(sub_0)\n  0x00\n  codecopy\n  0x00\n  return\nstop\n\nsub_0: assembly {\n        /* \"contracts/Blockchain_Assignment_6/Tasks/Week_6_Task_5.sol\":60:1877  contract TokenAirdrop {... */\n      mstore(0x40, 0x80)\n      jumpi(tag_1, lt(calldatasize, 0x04))\n      shr(0xe0, calldataload(0x00))\n      dup1\n      0x7e1c0c09\n      gt\n      tag_10\n      jumpi\n      dup1\n      0x7e1c0c09\n      eq\n      tag_6\n      jumpi\n      dup1\n      0x8d8f2adb\n      eq\n      tag_7\n      jumpi\n      dup1\n      0x8da5cb5b\n      eq\n      tag_8\n      jumpi\n      dup1\n      0xd7bb99ba\n      eq\n      tag_9\n      jumpi\n      jump(tag_1)\n    tag_10:\n      dup1\n      0x37c08923\n      eq\n      tag_2\n      jumpi\n      dup1\n      0x42e94c90\n      eq\n      tag_3\n      jumpi\n      dup1\n      0x523fba7f\n      eq\n      tag_4\n      jumpi\n      dup1\n      0x7366794e\n      eq\n      tag_5\n      jumpi\n    tag_1:\n      0x00\n      dup1\n      revert\n        /* \"contracts/Blockchain_Assignment_6/Tasks/Week_6_Task_5.sol\":259:292  uint256 public totalContributions */\n    tag_2:\n      callvalue\n      dup1\n      iszero\n      tag_11\n      jumpi\n      0x00\n      dup1\n      revert\n    tag_11:\n      pop\n      tag_12\n      tag_13\n      jump\t// in\n    tag_12:\n      mload(0x40)\n      tag_14\n      swap2\n      swap1\n      tag_15\n      jump\t// in\n    tag_14:\n      mload(0x40)\n      dup1\n      swap2\n      sub\n      swap1\n      return\n        /* \"contracts/Blockchain_Assignment_6/Tasks/Week_6_Task_5.sol\":116:164  mapping(address => uint256) public contributions */\n    tag_3:\n      callvalue\n      dup1\n      iszero\n      tag_16\n      jumpi\n      0x00\n      dup1\n      revert\n    tag_16:\n      pop\n      tag_17\n      0x04\n      dup1\n      calldatasize\n      sub\n      dup2\n      add\n      swap1\n      tag_18\n      swap2\n      swap1\n      tag_19\n      jump\t// in\n    tag_18:\n      tag_20\n      jump\t// in\n    tag_17:\n      mload(0x40)\n      tag_21\n      swap2\n      swap1\n      tag_15\n      jump\t// in\n    tag_21:\n      mload(0x40)\n      dup1\n      swap2\n      sub\n      swap1\n      return\n        /* \"contracts/Blockchain_Assignment_6/Tasks/Week_6_Task_5.sol\":171:219  mapping(address => uint256) public tokenBalances */\n    tag_4:\n      callvalue\n      dup1\n      iszero\n      tag_22\n      jumpi\n      0x00\n      dup1\n      revert\n    tag_22:\n      pop\n      tag_23\n      0x04\n      dup1\n      calldatasize\n      sub\n      dup2\n      add\n      swap1\n      tag_24\n      swap2\n      swap1\n      tag_19\n      jump\t// in\n    tag_24:\n      tag_25\n      jump\t// in\n    tag_23:\n      mload(0x40)\n      tag_26\n      swap2\n      swap1\n      tag_15\n      jump\t// in\n    tag_26:\n      mload(0x40)\n      dup1\n      swap2\n      sub\n      swap1\n      return\n        /* \"contracts/Blockchain_Assignment_6/Tasks/Week_6_Task_5.sol\":763:1400  function distributeTokens(uint256 tokens) public onlyOwner {... */\n    tag_5:\n      callvalue\n      dup1\n      iszero\n      tag_27\n      jumpi\n      0x00\n      dup1\n      revert\n    tag_27:\n      pop\n      tag_28\n      0x04\n      dup1\n      calldatasize\n      sub\n      dup2\n      add\n      swap1\n      tag_29\n      swap2\n      swap1\n      tag_30\n      jump\t// in\n    tag_29:\n      tag_31\n      jump\t// in\n    tag_28:\n      stop\n        /* \"contracts/Blockchain_Assignment_6/Tasks/Week_6_Task_5.sol\":226:252  uint256 public totalTokens */\n    tag_6:\n      callvalue\n      dup1\n      iszero\n      tag_32\n      jumpi\n      0x00\n      dup1\n      revert\n    tag_32:\n      pop\n      tag_33\n      tag_34\n      jump\t// in\n    tag_33:\n      mload(0x40)\n      tag_35\n      swap2\n      swap1\n      tag_15\n      jump\t// in\n    tag_35:\n      mload(0x40)\n      dup1\n      swap2\n      sub\n      swap1\n      return\n        /* \"contracts/Blockchain_Assignment_6/Tasks/Week_6_Task_5.sol\":1408:1806  function withdrawTokens() public {... */\n    tag_7:\n      callvalue\n      dup1\n      iszero\n      tag_36\n      jumpi\n      0x00\n      dup1\n      revert\n    tag_36:\n      pop\n      tag_37\n      tag_38\n      jump\t// in\n    tag_37:\n      stop\n        /* \"contracts/Blockchain_Assignment_6/Tasks/Week_6_Task_5.sol\":89:109  address public owner */\n    tag_8:\n      callvalue\n      dup1\n      iszero\n      tag_39\n      jumpi\n      0x00\n      dup1\n      revert\n    tag_39:\n      pop\n      tag_40\n      tag_41\n      jump\t// in\n    tag_40:\n      mload(0x40)\n      tag_42\n      swap2\n      swap1\n      tag_43\n      jump\t// in\n    tag_42:\n      mload(0x40)\n      dup1\n      swap2\n      sub\n      swap1\n      return\n        /* \"contracts/Blockchain_Assignment_6/Tasks/Week_6_Task_5.sol\":547:755  function contribute() public payable {... */\n    tag_9:\n      tag_44\n      tag_45\n      jump\t// in\n    tag_44:\n      stop\n        /* \"contracts/Blockchain_Assignment_6/Tasks/Week_6_Task_5.sol\":259:292  uint256 public totalContributions */\n    tag_13:\n      sload(0x04)\n      dup2\n      jump\t// out\n        /* \"contracts/Blockchain_Assignment_6/Tasks/Week_6_Task_5.sol\":116:164  mapping(address => uint256) public contributions */\n    tag_20:\n      mstore(0x20, 0x01)\n      dup1\n      0x00\n      mstore\n      keccak256(0x00, 0x40)\n      0x00\n      swap2\n      pop\n      swap1\n      pop\n      sload\n      dup2\n      jump\t// out\n        /* \"contracts/Blockchain_Assignment_6/Tasks/Week_6_Task_5.sol\":171:219  mapping(address => uint256) public tokenBalances */\n    tag_25:\n      mstore(0x20, 0x02)\n      dup1\n      0x00\n      mstore\n      keccak256(0x00, 0x40)\n      0x00\n      swap2\n      pop\n      swap1\n      pop\n      sload\n      dup2\n      jump\t// out\n        /* \"contracts/Blockchain_Assignment_6/Tasks/Week_6_Task_5.sol\":763:1400  function distributeTokens(uint256 tokens) public onlyOwner {... */\n    tag_31:\n        /* \"contracts/Blockchain_Assignment_6/Tasks/Week_6_Task_5.sol\":355:360  owner */\n      0x00\n      dup1\n      sload\n      swap1\n      0x0100\n      exp\n      swap1\n      div\n      0xffffffffffffffffffffffffffffffffffffffff\n      and\n        /* \"contracts/Blockchain_Assignment_6/Tasks/Week_6_Task_5.sol\":341:360  msg.sender == owner */\n      0xffffffffffffffffffffffffffffffffffffffff\n      and\n        /* \"contracts/Blockchain_Assignment_6/Tasks/Week_6_Task_5.sol\":341:351  msg.sender */\n      caller\n        /* \"contracts/Blockchain_Assignment_6/Tasks/Week_6_Task_5.sol\":341:360  msg.sender == owner */\n      0xffffffffffffffffffffffffffffffffffffffff\n      and\n      eq\n        /* \"contracts/Blockchain_Assignment_6/Tasks/Week_6_Task_5.sol\":333:403  require(msg.sender == owner, \"Only the owner can perform this action\") */\n      tag_47\n      jumpi\n      mload(0x40)\n      0x08c379a000000000000000000000000000000000000000000000000000000000\n      dup2\n      mstore\n      0x04\n      add\n      tag_48\n      swap1\n      tag_49\n      jump\t// in\n    tag_48:\n      mload(0x40)\n      dup1\n      swap2\n      sub\n      swap1\n      revert\n    tag_47:\n        /* \"contracts/Blockchain_Assignment_6/Tasks/Week_6_Task_5.sol\":862:863  0 */\n      0x00\n        /* \"contracts/Blockchain_Assignment_6/Tasks/Week_6_Task_5.sol\":841:859  totalContributions */\n      sload(0x04)\n        /* \"contracts/Blockchain_Assignment_6/Tasks/Week_6_Task_5.sol\":841:863  totalContributions > 0 */\n      gt\n        /* \"contracts/Blockchain_Assignment_6/Tasks/Week_6_Task_5.sol\":833:889  require(totalContributions > 0, \"No contributions made\") */\n      tag_51\n      jumpi\n      mload(0x40)\n      0x08c379a000000000000000000000000000000000000000000000000000000000\n      dup2\n      mstore\n      0x04\n      add\n      tag_52\n      swap1\n      tag_53\n      jump\t// in\n    tag_52:\n      mload(0x40)\n      dup1\n      swap2\n      sub\n      swap1\n      revert\n    tag_51:\n        /* \"contracts/Blockchain_Assignment_6/Tasks/Week_6_Task_5.sol\":918:929  totalTokens */\n      sload(0x03)\n        /* \"contracts/Blockchain_Assignment_6/Tasks/Week_6_Task_5.sol\":908:914  tokens */\n      dup2\n        /* \"contracts/Blockchain_Assignment_6/Tasks/Week_6_Task_5.sol\":908:929  tokens <= totalTokens */\n      gt\n      iszero\n        /* \"contracts/Blockchain_Assignment_6/Tasks/Week_6_Task_5.sol\":900:961  require(tokens <= totalTokens, \"Not enough tokens available\") */\n      tag_54\n      jumpi\n      mload(0x40)\n      0x08c379a000000000000000000000000000000000000000000000000000000000\n      dup2\n      mstore\n      0x04\n      add\n      tag_55\n      swap1\n      tag_56\n      jump\t// in\n    tag_55:\n      mload(0x40)\n      dup1\n      swap2\n      sub\n      swap1\n      revert\n    tag_54:\n        /* \"contracts/Blockchain_Assignment_6/Tasks/Week_6_Task_5.sol\":979:988  uint256 i */\n      0x00\n        /* \"contracts/Blockchain_Assignment_6/Tasks/Week_6_Task_5.sol\":974:1359  for (uint256 i = 0; i < totalContributions; i++) {... */\n    tag_57:\n        /* \"contracts/Blockchain_Assignment_6/Tasks/Week_6_Task_5.sol\":998:1016  totalContributions */\n      sload(0x04)\n        /* \"contracts/Blockchain_Assignment_6/Tasks/Week_6_Task_5.sol\":994:995  i */\n      dup2\n        /* \"contracts/Blockchain_Assignment_6/Tasks/Week_6_Task_5.sol\":994:1016  i < totalContributions */\n      lt\n        /* \"contracts/Blockchain_Assignment_6/Tasks/Week_6_Task_5.sol\":974:1359  for (uint256 i = 0; i < totalContributions; i++) {... */\n      iszero\n      tag_58\n      jumpi\n        /* \"contracts/Blockchain_Assignment_6/Tasks/Week_6_Task_5.sol\":1038:1057  address contributor */\n      0x00\n        /* \"contracts/Blockchain_Assignment_6/Tasks/Week_6_Task_5.sol\":1111:1112  i */\n      dup2\n        /* \"contracts/Blockchain_Assignment_6/Tasks/Week_6_Task_5.sol\":1114:1129  block.timestamp */\n      timestamp\n        /* \"contracts/Blockchain_Assignment_6/Tasks/Week_6_Task_5.sol\":1094:1130  abi.encodePacked(i, block.timestamp) */\n      add(0x20, mload(0x40))\n      tag_60\n      swap3\n      swap2\n      swap1\n      tag_61\n      jump\t// in\n    tag_60:\n      mload(0x40)\n      0x20\n      dup2\n      dup4\n      sub\n      sub\n      dup2\n      mstore\n      swap1\n      0x40\n      mstore\n        /* \"contracts/Blockchain_Assignment_6/Tasks/Week_6_Task_5.sol\":1084:1131  keccak256(abi.encodePacked(i, block.timestamp)) */\n      dup1\n      mload\n      swap1\n      0x20\n      add\n      keccak256\n        /* \"contracts/Blockchain_Assignment_6/Tasks/Week_6_Task_5.sol\":1076:1132  uint256(keccak256(abi.encodePacked(i, block.timestamp))) */\n      0x00\n      shr\n        /* \"contracts/Blockchain_Assignment_6/Tasks/Week_6_Task_5.sol\":1038:1134  address contributor = address(uint160(uint256(keccak256(abi.encodePacked(i, block.timestamp))))) */\n      swap1\n      pop\n        /* \"contracts/Blockchain_Assignment_6/Tasks/Week_6_Task_5.sol\":1182:1183  0 */\n      0x00\n        /* \"contracts/Blockchain_Assignment_6/Tasks/Week_6_Task_5.sol\":1153:1166  contributions */\n      0x01\n        /* \"contracts/Blockchain_Assignment_6/Tasks/Week_6_Task_5.sol\":1153:1179  contributions[contributor] */\n      0x00\n        /* \"contracts/Blockchain_Assignment_6/Tasks/Week_6_Task_5.sol\":1167:1178  contributor */\n      dup4\n        /* \"contracts/Blockchain_Assignment_6/Tasks/Week_6_Task_5.sol\":1153:1179  contributions[contributor] */\n      0xffffffffffffffffffffffffffffffffffffffff\n      and\n      0xffffffffffffffffffffffffffffffffffffffff\n      and\n      dup2\n      mstore\n      0x20\n      add\n      swap1\n      dup2\n      mstore\n      0x20\n      add\n      0x00\n      keccak256\n      sload\n        /* \"contracts/Blockchain_Assignment_6/Tasks/Week_6_Task_5.sol\":1153:1183  contributions[contributor] > 0 */\n      gt\n        /* \"contracts/Blockchain_Assignment_6/Tasks/Week_6_Task_5.sol\":1149:1348  if (contributions[contributor] > 0) {... */\n      iszero\n      tag_62\n      jumpi\n        /* \"contracts/Blockchain_Assignment_6/Tasks/Week_6_Task_5.sol\":1204:1217  uint256 share */\n      0x00\n        /* \"contracts/Blockchain_Assignment_6/Tasks/Week_6_Task_5.sol\":1260:1278  totalContributions */\n      sload(0x04)\n        /* \"contracts/Blockchain_Assignment_6/Tasks/Week_6_Task_5.sol\":1250:1256  tokens */\n      dup5\n        /* \"contracts/Blockchain_Assignment_6/Tasks/Week_6_Task_5.sol\":1221:1234  contributions */\n      0x01\n        /* \"contracts/Blockchain_Assignment_6/Tasks/Week_6_Task_5.sol\":1221:1247  contributions[contributor] */\n      0x00\n        /* \"contracts/Blockchain_Assignment_6/Tasks/Week_6_Task_5.sol\":1235:1246  contributor */\n      dup6\n        /* \"contracts/Blockchain_Assignment_6/Tasks/Week_6_Task_5.sol\":1221:1247  contributions[contributor] */\n      0xffffffffffffffffffffffffffffffffffffffff\n      and\n      0xffffffffffffffffffffffffffffffffffffffff\n      and\n      dup2\n      mstore\n      0x20\n      add\n      swap1\n      dup2\n      mstore\n      0x20\n      add\n      0x00\n      keccak256\n      sload\n        /* \"contracts/Blockchain_Assignment_6/Tasks/Week_6_Task_5.sol\":1221:1256  contributions[contributor] * tokens */\n      tag_63\n      swap2\n      swap1\n      tag_64\n      jump\t// in\n    tag_63:\n        /* \"contracts/Blockchain_Assignment_6/Tasks/Week_6_Task_5.sol\":1220:1278  (contributions[contributor] * tokens) / totalContributions */\n      tag_65\n      swap2\n      swap1\n      tag_66\n      jump\t// in\n    tag_65:\n        /* \"contracts/Blockchain_Assignment_6/Tasks/Week_6_Task_5.sol\":1204:1278  uint256 share = (contributions[contributor] * tokens) / totalContributions */\n      swap1\n      pop\n        /* \"contracts/Blockchain_Assignment_6/Tasks/Week_6_Task_5.sol\":1327:1332  share */\n      dup1\n        /* \"contracts/Blockchain_Assignment_6/Tasks/Week_6_Task_5.sol\":1297:1310  tokenBalances */\n      0x02\n        /* \"contracts/Blockchain_Assignment_6/Tasks/Week_6_Task_5.sol\":1297:1323  tokenBalances[contributor] */\n      0x00\n        /* \"contracts/Blockchain_Assignment_6/Tasks/Week_6_Task_5.sol\":1311:1322  contributor */\n      dup5\n        /* \"contracts/Blockchain_Assignment_6/Tasks/Week_6_Task_5.sol\":1297:1323  tokenBalances[contributor] */\n      0xffffffffffffffffffffffffffffffffffffffff\n      and\n      0xffffffffffffffffffffffffffffffffffffffff\n      and\n      dup2\n      mstore\n      0x20\n      add\n      swap1\n      dup2\n      mstore\n      0x20\n      add\n      0x00\n      keccak256\n      0x00\n        /* \"contracts/Blockchain_Assignment_6/Tasks/Week_6_Task_5.sol\":1297:1332  tokenBalances[contributor] += share */\n      dup3\n      dup3\n      sload\n      tag_67\n      swap2\n      swap1\n      tag_68\n      jump\t// in\n    tag_67:\n      swap3\n      pop\n      pop\n      dup2\n      swap1\n      sstore\n      pop\n        /* \"contracts/Blockchain_Assignment_6/Tasks/Week_6_Task_5.sol\":1185:1348  {... */\n      pop\n        /* \"contracts/Blockchain_Assignment_6/Tasks/Week_6_Task_5.sol\":1149:1348  if (contributions[contributor] > 0) {... */\n    tag_62:\n        /* \"contracts/Blockchain_Assignment_6/Tasks/Week_6_Task_5.sol\":1023:1359  {... */\n      pop\n        /* \"contracts/Blockchain_Assignment_6/Tasks/Week_6_Task_5.sol\":1018:1021  i++ */\n      dup1\n      dup1\n      0x01\n      add\n      swap2\n      pop\n      pop\n        /* \"contracts/Blockchain_Assignment_6/Tasks/Week_6_Task_5.sol\":974:1359  for (uint256 i = 0; i < totalContributions; i++) {... */\n      jump(tag_57)\n    tag_58:\n      pop\n        /* \"contracts/Blockchain_Assignment_6/Tasks/Week_6_Task_5.sol\":1386:1392  tokens */\n      dup1\n        /* \"contracts/Blockchain_Assignment_6/Tasks/Week_6_Task_5.sol\":1371:1382  totalTokens */\n      0x03\n      0x00\n        /* \"contracts/Blockchain_Assignment_6/Tasks/Week_6_Task_5.sol\":1371:1392  totalTokens -= tokens */\n      dup3\n      dup3\n      sload\n      tag_69\n      swap2\n      swap1\n      tag_70\n      jump\t// in\n    tag_69:\n      swap3\n      pop\n      pop\n      dup2\n      swap1\n      sstore\n      pop\n        /* \"contracts/Blockchain_Assignment_6/Tasks/Week_6_Task_5.sol\":763:1400  function distributeTokens(uint256 tokens) public onlyOwner {... */\n      pop\n      jump\t// out\n        /* \"contracts/Blockchain_Assignment_6/Tasks/Week_6_Task_5.sol\":226:252  uint256 public totalTokens */\n    tag_34:\n      sload(0x03)\n      dup2\n      jump\t// out\n        /* \"contracts/Blockchain_Assignment_6/Tasks/Week_6_Task_5.sol\":1408:1806  function withdrawTokens() public {... */\n    tag_38:\n        /* \"contracts/Blockchain_Assignment_6/Tasks/Week_6_Task_5.sol\":1488:1489  0 */\n      0x00\n        /* \"contracts/Blockchain_Assignment_6/Tasks/Week_6_Task_5.sol\":1460:1473  tokenBalances */\n      0x02\n        /* \"contracts/Blockchain_Assignment_6/Tasks/Week_6_Task_5.sol\":1460:1485  tokenBalances[msg.sender] */\n      0x00\n        /* \"contracts/Blockchain_Assignment_6/Tasks/Week_6_Task_5.sol\":1474:1484  msg.sender */\n      caller\n        /* \"contracts/Blockchain_Assignment_6/Tasks/Week_6_Task_5.sol\":1460:1485  tokenBalances[msg.sender] */\n      0xffffffffffffffffffffffffffffffffffffffff\n      and\n      0xffffffffffffffffffffffffffffffffffffffff\n      and\n      dup2\n      mstore\n      0x20\n      add\n      swap1\n      dup2\n      mstore\n      0x20\n      add\n      0x00\n      keccak256\n      sload\n        /* \"contracts/Blockchain_Assignment_6/Tasks/Week_6_Task_5.sol\":1460:1489  tokenBalances[msg.sender] > 0 */\n      gt\n        /* \"contracts/Blockchain_Assignment_6/Tasks/Week_6_Task_5.sol\":1452:1515  require(tokenBalances[msg.sender] > 0, \"No tokens to withdraw\") */\n      tag_72\n      jumpi\n      mload(0x40)\n      0x08c379a000000000000000000000000000000000000000000000000000000000\n      dup2\n      mstore\n      0x04\n      add\n      tag_73\n      swap1\n      tag_74\n      jump\t// in\n    tag_73:\n      mload(0x40)\n      dup1\n      swap2\n      sub\n      swap1\n      revert\n    tag_72:\n        /* \"contracts/Blockchain_Assignment_6/Tasks/Week_6_Task_5.sol\":1528:1542  uint256 amount */\n      0x00\n        /* \"contracts/Blockchain_Assignment_6/Tasks/Week_6_Task_5.sol\":1545:1558  tokenBalances */\n      0x02\n        /* \"contracts/Blockchain_Assignment_6/Tasks/Week_6_Task_5.sol\":1545:1570  tokenBalances[msg.sender] */\n      0x00\n        /* \"contracts/Blockchain_Assignment_6/Tasks/Week_6_Task_5.sol\":1559:1569  msg.sender */\n      caller\n        /* \"contracts/Blockchain_Assignment_6/Tasks/Week_6_Task_5.sol\":1545:1570  tokenBalances[msg.sender] */\n      0xffffffffffffffffffffffffffffffffffffffff\n      and\n      0xffffffffffffffffffffffffffffffffffffffff\n      and\n      dup2\n      mstore\n      0x20\n      add\n      swap1\n      dup2\n      mstore\n      0x20\n      add\n      0x00\n      keccak256\n      sload\n        /* \"contracts/Blockchain_Assignment_6/Tasks/Week_6_Task_5.sol\":1528:1570  uint256 amount = tokenBalances[msg.sender] */\n      swap1\n      pop\n        /* \"contracts/Blockchain_Assignment_6/Tasks/Week_6_Task_5.sol\":1609:1610  0 */\n      0x00\n        /* \"contracts/Blockchain_Assignment_6/Tasks/Week_6_Task_5.sol\":1581:1594  tokenBalances */\n      0x02\n        /* \"contracts/Blockchain_Assignment_6/Tasks/Week_6_Task_5.sol\":1581:1606  tokenBalances[msg.sender] */\n      0x00\n        /* \"contracts/Blockchain_Assignment_6/Tasks/Week_6_Task_5.sol\":1595:1605  msg.sender */\n      caller\n        /* \"contracts/Blockchain_Assignment_6/Tasks/Week_6_Task_5.sol\":1581:1606  tokenBalances[msg.sender] */\n      0xffffffffffffffffffffffffffffffffffffffff\n      and\n      0xffffffffffffffffffffffffffffffffffffffff\n      and\n      dup2\n      mstore\n      0x20\n      add\n      swap1\n      dup2\n      mstore\n      0x20\n      add\n      0x00\n      keccak256\n        /* \"contracts/Blockchain_Assignment_6/Tasks/Week_6_Task_5.sol\":1581:1610  tokenBalances[msg.sender] = 0 */\n      dup2\n      swap1\n      sstore\n      pop\n        /* \"contracts/Blockchain_Assignment_6/Tasks/Week_6_Task_5.sol\":1779:1789  msg.sender */\n      caller\n        /* \"contracts/Blockchain_Assignment_6/Tasks/Week_6_Task_5.sol\":1763:1798  TokensWithdrawn(msg.sender, amount) */\n      0xffffffffffffffffffffffffffffffffffffffff\n      and\n      0x6352c5382c4a4578e712449ca65e83cdb392d045dfcf1cad9615189db2da244b\n        /* \"contracts/Blockchain_Assignment_6/Tasks/Week_6_Task_5.sol\":1791:1797  amount */\n      dup3\n        /* \"contracts/Blockchain_Assignment_6/Tasks/Week_6_Task_5.sol\":1763:1798  TokensWithdrawn(msg.sender, amount) */\n      mload(0x40)\n      tag_75\n      swap2\n      swap1\n      tag_15\n      jump\t// in\n    tag_75:\n      mload(0x40)\n      dup1\n      swap2\n      sub\n      swap1\n      log2\n        /* \"contracts/Blockchain_Assignment_6/Tasks/Week_6_Task_5.sol\":1441:1806  {... */\n      pop\n        /* \"contracts/Blockchain_Assignment_6/Tasks/Week_6_Task_5.sol\":1408:1806  function withdrawTokens() public {... */\n      jump\t// out\n        /* \"contracts/Blockchain_Assignment_6/Tasks/Week_6_Task_5.sol\":89:109  address public owner */\n    tag_41:\n      0x00\n      dup1\n      sload\n      swap1\n      0x0100\n      exp\n      swap1\n      div\n      0xffffffffffffffffffffffffffffffffffffffff\n      and\n      dup2\n      jump\t// out\n        /* \"contracts/Blockchain_Assignment_6/Tasks/Week_6_Task_5.sol\":547:755  function contribute() public payable {... */\n    tag_45:\n        /* \"contracts/Blockchain_Assignment_6/Tasks/Week_6_Task_5.sol\":615:616  0 */\n      0x00\n        /* \"contracts/Blockchain_Assignment_6/Tasks/Week_6_Task_5.sol\":603:612  msg.value */\n      callvalue\n        /* \"contracts/Blockchain_Assignment_6/Tasks/Week_6_Task_5.sol\":603:616  msg.value > 0 */\n      gt\n        /* \"contracts/Blockchain_Assignment_6/Tasks/Week_6_Task_5.sol\":595:656  require(msg.value > 0, \"Contribution must be greater than 0\") */\n      tag_77\n      jumpi\n      mload(0x40)\n      0x08c379a000000000000000000000000000000000000000000000000000000000\n      dup2\n      mstore\n      0x04\n      add\n      tag_78\n      swap1\n      tag_79\n      jump\t// in\n    tag_78:\n      mload(0x40)\n      dup1\n      swap2\n      sub\n      swap1\n      revert\n    tag_77:\n        /* \"contracts/Blockchain_Assignment_6/Tasks/Week_6_Task_5.sol\":696:705  msg.value */\n      callvalue\n        /* \"contracts/Blockchain_Assignment_6/Tasks/Week_6_Task_5.sol\":667:680  contributions */\n      0x01\n        /* \"contracts/Blockchain_Assignment_6/Tasks/Week_6_Task_5.sol\":667:692  contributions[msg.sender] */\n      0x00\n        /* \"contracts/Blockchain_Assignment_6/Tasks/Week_6_Task_5.sol\":681:691  msg.sender */\n      caller\n        /* \"contracts/Blockchain_Assignment_6/Tasks/Week_6_Task_5.sol\":667:692  contributions[msg.sender] */\n      0xffffffffffffffffffffffffffffffffffffffff\n      and\n      0xffffffffffffffffffffffffffffffffffffffff\n      and\n      dup2\n      mstore\n      0x20\n      add\n      swap1\n      dup2\n      mstore\n      0x20\n      add\n      0x00\n      keccak256\n      0x00\n        /* \"contracts/Blockchain_Assignment_6/Tasks/Week_6_Task_5.sol\":667:705  contributions[msg.sender] += msg.value */\n      dup3\n      dup3\n      sload\n      tag_80\n      swap2\n      swap1\n      tag_68\n      jump\t// in\n    tag_80:\n      swap3\n      pop\n      pop\n      dup2\n      swap1\n      sstore\n      pop\n        /* \"contracts/Blockchain_Assignment_6/Tasks/Week_6_Task_5.sol\":738:747  msg.value */\n      callvalue\n        /* \"contracts/Blockchain_Assignment_6/Tasks/Week_6_Task_5.sol\":716:734  totalContributions */\n      0x04\n      0x00\n        /* \"contracts/Blockchain_Assignment_6/Tasks/Week_6_Task_5.sol\":716:747  totalContributions += msg.value */\n      dup3\n      dup3\n      sload\n      tag_81\n      swap2\n      swap1\n      tag_68\n      jump\t// in\n    tag_81:\n      swap3\n      pop\n      pop\n      dup2\n      swap1\n      sstore\n      pop\n        /* \"contracts/Blockchain_Assignment_6/Tasks/Week_6_Task_5.sol\":547:755  function contribute() public payable {... */\n      jump\t// out\n        /* \"#utility.yul\":7:84   */\n    tag_82:\n        /* \"#utility.yul\":44:51   */\n      0x00\n        /* \"#utility.yul\":73:78   */\n      dup2\n        /* \"#utility.yul\":62:78   */\n      swap1\n      pop\n        /* \"#utility.yul\":7:84   */\n      swap2\n      swap1\n      pop\n      jump\t// out\n        /* \"#utility.yul\":90:208   */\n    tag_83:\n        /* \"#utility.yul\":177:201   */\n      tag_112\n        /* \"#utility.yul\":195:200   */\n      dup2\n        /* \"#utility.yul\":177:201   */\n      tag_82\n      jump\t// in\n    tag_112:\n        /* \"#utility.yul\":172:175   */\n      dup3\n        /* \"#utility.yul\":165:202   */\n      mstore\n        /* \"#utility.yul\":90:208   */\n      pop\n      pop\n      jump\t// out\n        /* \"#utility.yul\":214:436   */\n    tag_15:\n        /* \"#utility.yul\":307:311   */\n      0x00\n        /* \"#utility.yul\":345:347   */\n      0x20\n        /* \"#utility.yul\":334:343   */\n      dup3\n        /* \"#utility.yul\":330:348   */\n      add\n        /* \"#utility.yul\":322:348   */\n      swap1\n      pop\n        /* \"#utility.yul\":358:429   */\n      tag_114\n        /* \"#utility.yul\":426:427   */\n      0x00\n        /* \"#utility.yul\":415:424   */\n      dup4\n        /* \"#utility.yul\":411:428   */\n      add\n        /* \"#utility.yul\":402:408   */\n      dup5\n        /* \"#utility.yul\":358:429   */\n      tag_83\n      jump\t// in\n    tag_114:\n        /* \"#utility.yul\":214:436   */\n      swap3\n      swap2\n      pop\n      pop\n      jump\t// out\n        /* \"#utility.yul\":523:640   */\n    tag_85:\n        /* \"#utility.yul\":632:633   */\n      0x00\n        /* \"#utility.yul\":629:630   */\n      dup1\n        /* \"#utility.yul\":622:634   */\n      revert\n        /* \"#utility.yul\":769:895   */\n    tag_87:\n        /* \"#utility.yul\":806:813   */\n      0x00\n        /* \"#utility.yul\":846:888   */\n      0xffffffffffffffffffffffffffffffffffffffff\n        /* \"#utility.yul\":839:844   */\n      dup3\n        /* \"#utility.yul\":835:889   */\n      and\n        /* \"#utility.yul\":824:889   */\n      swap1\n      pop\n        /* \"#utility.yul\":769:895   */\n      swap2\n      swap1\n      pop\n      jump\t// out\n        /* \"#utility.yul\":901:997   */\n    tag_88:\n        /* \"#utility.yul\":938:945   */\n      0x00\n        /* \"#utility.yul\":967:991   */\n      tag_120\n        /* \"#utility.yul\":985:990   */\n      dup3\n        /* \"#utility.yul\":967:991   */\n      tag_87\n      jump\t// in\n    tag_120:\n        /* \"#utility.yul\":956:991   */\n      swap1\n      pop\n        /* \"#utility.yul\":901:997   */\n      swap2\n      swap1\n      pop\n      jump\t// out\n        /* \"#utility.yul\":1003:1125   */\n    tag_89:\n        /* \"#utility.yul\":1076:1100   */\n      tag_122\n        /* \"#utility.yul\":1094:1099   */\n      dup2\n        /* \"#utility.yul\":1076:1100   */\n      tag_88\n      jump\t// in\n    tag_122:\n        /* \"#utility.yul\":1069:1074   */\n      dup2\n        /* \"#utility.yul\":1066:1101   */\n      eq\n        /* \"#utility.yul\":1056:1119   */\n      tag_123\n      jumpi\n        /* \"#utility.yul\":1115:1116   */\n      0x00\n        /* \"#utility.yul\":1112:1113   */\n      dup1\n        /* \"#utility.yul\":1105:1117   */\n      revert\n        /* \"#utility.yul\":1056:1119   */\n    tag_123:\n        /* \"#utility.yul\":1003:1125   */\n      pop\n      jump\t// out\n        /* \"#utility.yul\":1131:1270   */\n    tag_90:\n        /* \"#utility.yul\":1177:1182   */\n      0x00\n        /* \"#utility.yul\":1215:1221   */\n      dup2\n        /* \"#utility.yul\":1202:1222   */\n      calldataload\n        /* \"#utility.yul\":1193:1222   */\n      swap1\n      pop\n        /* \"#utility.yul\":1231:1264   */\n      tag_125\n        /* \"#utility.yul\":1258:1263   */\n      dup2\n        /* \"#utility.yul\":1231:1264   */\n      tag_89\n      jump\t// in\n    tag_125:\n        /* \"#utility.yul\":1131:1270   */\n      swap3\n      swap2\n      pop\n      pop\n      jump\t// out\n        /* \"#utility.yul\":1276:1605   */\n    tag_19:\n        /* \"#utility.yul\":1335:1341   */\n      0x00\n        /* \"#utility.yul\":1384:1386   */\n      0x20\n        /* \"#utility.yul\":1372:1381   */\n      dup3\n        /* \"#utility.yul\":1363:1370   */\n      dup5\n        /* \"#utility.yul\":1359:1382   */\n      sub\n        /* \"#utility.yul\":1355:1387   */\n      slt\n        /* \"#utility.yul\":1352:1471   */\n      iszero\n      tag_127\n      jumpi\n        /* \"#utility.yul\":1390:1469   */\n      tag_128\n      tag_85\n      jump\t// in\n    tag_128:\n        /* \"#utility.yul\":1352:1471   */\n    tag_127:\n        /* \"#utility.yul\":1510:1511   */\n      0x00\n        /* \"#utility.yul\":1535:1588   */\n      tag_129\n        /* \"#utility.yul\":1580:1587   */\n      dup5\n        /* \"#utility.yul\":1571:1577   */\n      dup3\n        /* \"#utility.yul\":1560:1569   */\n      dup6\n        /* \"#utility.yul\":1556:1578   */\n      add\n        /* \"#utility.yul\":1535:1588   */\n      tag_90\n      jump\t// in\n    tag_129:\n        /* \"#utility.yul\":1525:1588   */\n      swap2\n      pop\n        /* \"#utility.yul\":1481:1598   */\n      pop\n        /* \"#utility.yul\":1276:1605   */\n      swap3\n      swap2\n      pop\n      pop\n      jump\t// out\n        /* \"#utility.yul\":1611:1733   */\n    tag_91:\n        /* \"#utility.yul\":1684:1708   */\n      tag_131\n        /* \"#utility.yul\":1702:1707   */\n      dup2\n        /* \"#utility.yul\":1684:1708   */\n      tag_82\n      jump\t// in\n    tag_131:\n        /* \"#utility.yul\":1677:1682   */\n      dup2\n        /* \"#utility.yul\":1674:1709   */\n      eq\n        /* \"#utility.yul\":1664:1727   */\n      tag_132\n      jumpi\n        /* \"#utility.yul\":1723:1724   */\n      0x00\n        /* \"#utility.yul\":1720:1721   */\n      dup1\n        /* \"#utility.yul\":1713:1725   */\n      revert\n        /* \"#utility.yul\":1664:1727   */\n    tag_132:\n        /* \"#utility.yul\":1611:1733   */\n      pop\n      jump\t// out\n        /* \"#utility.yul\":1739:1878   */\n    tag_92:\n        /* \"#utility.yul\":1785:1790   */\n      0x00\n        /* \"#utility.yul\":1823:1829   */\n      dup2\n        /* \"#utility.yul\":1810:1830   */\n      calldataload\n        /* \"#utility.yul\":1801:1830   */\n      swap1\n      pop\n        /* \"#utility.yul\":1839:1872   */\n      tag_134\n        /* \"#utility.yul\":1866:1871   */\n      dup2\n        /* \"#utility.yul\":1839:1872   */\n      tag_91\n      jump\t// in\n    tag_134:\n        /* \"#utility.yul\":1739:1878   */\n      swap3\n      swap2\n      pop\n      pop\n      jump\t// out\n        /* \"#utility.yul\":1884:2213   */\n    tag_30:\n        /* \"#utility.yul\":1943:1949   */\n      0x00\n        /* \"#utility.yul\":1992:1994   */\n      0x20\n        /* \"#utility.yul\":1980:1989   */\n      dup3\n        /* \"#utility.yul\":1971:1978   */\n      dup5\n        /* \"#utility.yul\":1967:1990   */\n      sub\n        /* \"#utility.yul\":1963:1995   */\n      slt\n        /* \"#utility.yul\":1960:2079   */\n      iszero\n      tag_136\n      jumpi\n        /* \"#utility.yul\":1998:2077   */\n      tag_137\n      tag_85\n      jump\t// in\n    tag_137:\n        /* \"#utility.yul\":1960:2079   */\n    tag_136:\n        /* \"#utility.yul\":2118:2119   */\n      0x00\n        /* \"#utility.yul\":2143:2196   */\n      tag_138\n        /* \"#utility.yul\":2188:2195   */\n      dup5\n        /* \"#utility.yul\":2179:2185   */\n      dup3\n        /* \"#utility.yul\":2168:2177   */\n      dup6\n        /* \"#utility.yul\":2164:2186   */\n      add\n        /* \"#utility.yul\":2143:2196   */\n      tag_92\n      jump\t// in\n    tag_138:\n        /* \"#utility.yul\":2133:2196   */\n      swap2\n      pop\n        /* \"#utility.yul\":2089:2206   */\n      pop\n        /* \"#utility.yul\":1884:2213   */\n      swap3\n      swap2\n      pop\n      pop\n      jump\t// out\n        /* \"#utility.yul\":2219:2337   */\n    tag_93:\n        /* \"#utility.yul\":2306:2330   */\n      tag_140\n        /* \"#utility.yul\":2324:2329   */\n      dup2\n        /* \"#utility.yul\":2306:2330   */\n      tag_88\n      jump\t// in\n    tag_140:\n        /* \"#utility.yul\":2301:2304   */\n      dup3\n        /* \"#utility.yul\":2294:2331   */\n      mstore\n        /* \"#utility.yul\":2219:2337   */\n      pop\n      pop\n      jump\t// out\n        /* \"#utility.yul\":2343:2565   */\n    tag_43:\n        /* \"#utility.yul\":2436:2440   */\n      0x00\n        /* \"#utility.yul\":2474:2476   */\n      0x20\n        /* \"#utility.yul\":2463:2472   */\n      dup3\n        /* \"#utility.yul\":2459:2477   */\n      add\n        /* \"#utility.yul\":2451:2477   */\n      swap1\n      pop\n        /* \"#utility.yul\":2487:2558   */\n      tag_142\n        /* \"#utility.yul\":2555:2556   */\n      0x00\n        /* \"#utility.yul\":2544:2553   */\n      dup4\n        /* \"#utility.yul\":2540:2557   */\n      add\n        /* \"#utility.yul\":2531:2537   */\n      dup5\n        /* \"#utility.yul\":2487:2558   */\n      tag_93\n      jump\t// in\n    tag_142:\n        /* \"#utility.yul\":2343:2565   */\n      swap3\n      swap2\n      pop\n      pop\n      jump\t// out\n        /* \"#utility.yul\":2571:2740   */\n    tag_94:\n        /* \"#utility.yul\":2655:2666   */\n      0x00\n        /* \"#utility.yul\":2689:2695   */\n      dup3\n        /* \"#utility.yul\":2684:2687   */\n      dup3\n        /* \"#utility.yul\":2677:2696   */\n      mstore\n        /* \"#utility.yul\":2729:2733   */\n      0x20\n        /* \"#utility.yul\":2724:2727   */\n      dup3\n        /* \"#utility.yul\":2720:2734   */\n      add\n        /* \"#utility.yul\":2705:2734   */\n      swap1\n      pop\n        /* \"#utility.yul\":2571:2740   */\n      swap3\n      swap2\n      pop\n      pop\n      jump\t// out\n        /* \"#utility.yul\":2746:2971   */\n    tag_95:\n        /* \"#utility.yul\":2886:2920   */\n      0x4f6e6c7920746865206f776e65722063616e20706572666f726d207468697320\n        /* \"#utility.yul\":2882:2883   */\n      0x00\n        /* \"#utility.yul\":2874:2880   */\n      dup3\n        /* \"#utility.yul\":2870:2884   */\n      add\n        /* \"#utility.yul\":2863:2921   */\n      mstore\n        /* \"#utility.yul\":2955:2963   */\n      0x616374696f6e0000000000000000000000000000000000000000000000000000\n        /* \"#utility.yul\":2950:2952   */\n      0x20\n        /* \"#utility.yul\":2942:2948   */\n      dup3\n        /* \"#utility.yul\":2938:2953   */\n      add\n        /* \"#utility.yul\":2931:2964   */\n      mstore\n        /* \"#utility.yul\":2746:2971   */\n      pop\n      jump\t// out\n        /* \"#utility.yul\":2977:3343   */\n    tag_96:\n        /* \"#utility.yul\":3119:3122   */\n      0x00\n        /* \"#utility.yul\":3140:3207   */\n      tag_146\n        /* \"#utility.yul\":3204:3206   */\n      0x26\n        /* \"#utility.yul\":3199:3202   */\n      dup4\n        /* \"#utility.yul\":3140:3207   */\n      tag_94\n      jump\t// in\n    tag_146:\n        /* \"#utility.yul\":3133:3207   */\n      swap2\n      pop\n        /* \"#utility.yul\":3216:3309   */\n      tag_147\n        /* \"#utility.yul\":3305:3308   */\n      dup3\n        /* \"#utility.yul\":3216:3309   */\n      tag_95\n      jump\t// in\n    tag_147:\n        /* \"#utility.yul\":3334:3336   */\n      0x40\n        /* \"#utility.yul\":3329:3332   */\n      dup3\n        /* \"#utility.yul\":3325:3337   */\n      add\n        /* \"#utility.yul\":3318:3337   */\n      swap1\n      pop\n        /* \"#utility.yul\":2977:3343   */\n      swap2\n      swap1\n      pop\n      jump\t// out\n        /* \"#utility.yul\":3349:3768   */\n    tag_49:\n        /* \"#utility.yul\":3515:3519   */\n      0x00\n        /* \"#utility.yul\":3553:3555   */\n      0x20\n        /* \"#utility.yul\":3542:3551   */\n      dup3\n        /* \"#utility.yul\":3538:3556   */\n      add\n        /* \"#utility.yul\":3530:3556   */\n      swap1\n      pop\n        /* \"#utility.yul\":3602:3611   */\n      dup2\n        /* \"#utility.yul\":3596:3600   */\n      dup2\n        /* \"#utility.yul\":3592:3612   */\n      sub\n        /* \"#utility.yul\":3588:3589   */\n      0x00\n        /* \"#utility.yul\":3577:3586   */\n      dup4\n        /* \"#utility.yul\":3573:3590   */\n      add\n        /* \"#utility.yul\":3566:3613   */\n      mstore\n        /* \"#utility.yul\":3630:3761   */\n      tag_149\n        /* \"#utility.yul\":3756:3760   */\n      dup2\n        /* \"#utility.yul\":3630:3761   */\n      tag_96\n      jump\t// in\n    tag_149:\n        /* \"#utility.yul\":3622:3761   */\n      swap1\n      pop\n        /* \"#utility.yul\":3349:3768   */\n      swap2\n      swap1\n      pop\n      jump\t// out\n        /* \"#utility.yul\":3774:3945   */\n    tag_97:\n        /* \"#utility.yul\":3914:3937   */\n      0x4e6f20636f6e747269627574696f6e73206d6164650000000000000000000000\n        /* \"#utility.yul\":3910:3911   */\n      0x00\n        /* \"#utility.yul\":3902:3908   */\n      dup3\n        /* \"#utility.yul\":3898:3912   */\n      add\n        /* \"#utility.yul\":3891:3938   */\n      mstore\n        /* \"#utility.yul\":3774:3945   */\n      pop\n      jump\t// out\n        /* \"#utility.yul\":3951:4317   */\n    tag_98:\n        /* \"#utility.yul\":4093:4096   */\n      0x00\n        /* \"#utility.yul\":4114:4181   */\n      tag_152\n        /* \"#utility.yul\":4178:4180   */\n      0x15\n        /* \"#utility.yul\":4173:4176   */\n      dup4\n        /* \"#utility.yul\":4114:4181   */\n      tag_94\n      jump\t// in\n    tag_152:\n        /* \"#utility.yul\":4107:4181   */\n      swap2\n      pop\n        /* \"#utility.yul\":4190:4283   */\n      tag_153\n        /* \"#utility.yul\":4279:4282   */\n      dup3\n        /* \"#utility.yul\":4190:4283   */\n      tag_97\n      jump\t// in\n    tag_153:\n        /* \"#utility.yul\":4308:4310   */\n      0x20\n        /* \"#utility.yul\":4303:4306   */\n      dup3\n        /* \"#utility.yul\":4299:4311   */\n      add\n        /* \"#utility.yul\":4292:4311   */\n      swap1\n      pop\n        /* \"#utility.yul\":3951:4317   */\n      swap2\n      swap1\n      pop\n      jump\t// out\n        /* \"#utility.yul\":4323:4742   */\n    tag_53:\n        /* \"#utility.yul\":4489:4493   */\n      0x00\n        /* \"#utility.yul\":4527:4529   */\n      0x20\n        /* \"#utility.yul\":4516:4525   */\n      dup3\n        /* \"#utility.yul\":4512:4530   */\n      add\n        /* \"#utility.yul\":4504:4530   */\n      swap1\n      pop\n        /* \"#utility.yul\":4576:4585   */\n      dup2\n        /* \"#utility.yul\":4570:4574   */\n      dup2\n        /* \"#utility.yul\":4566:4586   */\n      sub\n        /* \"#utility.yul\":4562:4563   */\n      0x00\n        /* \"#utility.yul\":4551:4560   */\n      dup4\n        /* \"#utility.yul\":4547:4564   */\n      add\n        /* \"#utility.yul\":4540:4587   */\n      mstore\n        /* \"#utility.yul\":4604:4735   */\n      tag_155\n        /* \"#utility.yul\":4730:4734   */\n      dup2\n        /* \"#utility.yul\":4604:4735   */\n      tag_98\n      jump\t// in\n    tag_155:\n        /* \"#utility.yul\":4596:4735   */\n      swap1\n      pop\n        /* \"#utility.yul\":4323:4742   */\n      swap2\n      swap1\n      pop\n      jump\t// out\n        /* \"#utility.yul\":4748:4925   */\n    tag_99:\n        /* \"#utility.yul\":4888:4917   */\n      0x4e6f7420656e6f75676820746f6b656e7320617661696c61626c650000000000\n        /* \"#utility.yul\":4884:4885   */\n      0x00\n        /* \"#utility.yul\":4876:4882   */\n      dup3\n        /* \"#utility.yul\":4872:4886   */\n      add\n        /* \"#utility.yul\":4865:4918   */\n      mstore\n        /* \"#utility.yul\":4748:4925   */\n      pop\n      jump\t// out\n        /* \"#utility.yul\":4931:5297   */\n    tag_100:\n        /* \"#utility.yul\":5073:5076   */\n      0x00\n        /* \"#utility.yul\":5094:5161   */\n      tag_158\n        /* \"#utility.yul\":5158:5160   */\n      0x1b\n        /* \"#utility.yul\":5153:5156   */\n      dup4\n        /* \"#utility.yul\":5094:5161   */\n      tag_94\n      jump\t// in\n    tag_158:\n        /* \"#utility.yul\":5087:5161   */\n      swap2\n      pop\n        /* \"#utility.yul\":5170:5263   */\n      tag_159\n        /* \"#utility.yul\":5259:5262   */\n      dup3\n        /* \"#utility.yul\":5170:5263   */\n      tag_99\n      jump\t// in\n    tag_159:\n        /* \"#utility.yul\":5288:5290   */\n      0x20\n        /* \"#utility.yul\":5283:5286   */\n      dup3\n        /* \"#utility.yul\":5279:5291   */\n      add\n        /* \"#utility.yul\":5272:5291   */\n      swap1\n      pop\n        /* \"#utility.yul\":4931:5297   */\n      swap2\n      swap1\n      pop\n      jump\t// out\n        /* \"#utility.yul\":5303:5722   */\n    tag_56:\n        /* \"#utility.yul\":5469:5473   */\n      0x00\n        /* \"#utility.yul\":5507:5509   */\n      0x20\n        /* \"#utility.yul\":5496:5505   */\n      dup3\n        /* \"#utility.yul\":5492:5510   */\n      add\n        /* \"#utility.yul\":5484:5510   */\n      swap1\n      pop\n        /* \"#utility.yul\":5556:5565   */\n      dup2\n        /* \"#utility.yul\":5550:5554   */\n      dup2\n        /* \"#utility.yul\":5546:5566   */\n      sub\n        /* \"#utility.yul\":5542:5543   */\n      0x00\n        /* \"#utility.yul\":5531:5540   */\n      dup4\n        /* \"#utility.yul\":5527:5544   */\n      add\n        /* \"#utility.yul\":5520:5567   */\n      mstore\n        /* \"#utility.yul\":5584:5715   */\n      tag_161\n        /* \"#utility.yul\":5710:5714   */\n      dup2\n        /* \"#utility.yul\":5584:5715   */\n      tag_100\n      jump\t// in\n    tag_161:\n        /* \"#utility.yul\":5576:5715   */\n      swap1\n      pop\n        /* \"#utility.yul\":5303:5722   */\n      swap2\n      swap1\n      pop\n      jump\t// out\n        /* \"#utility.yul\":5728:5807   */\n    tag_101:\n        /* \"#utility.yul\":5767:5774   */\n      0x00\n        /* \"#utility.yul\":5796:5801   */\n      dup2\n        /* \"#utility.yul\":5785:5801   */\n      swap1\n      pop\n        /* \"#utility.yul\":5728:5807   */\n      swap2\n      swap1\n      pop\n      jump\t// out\n        /* \"#utility.yul\":5813:5970   */\n    tag_102:\n        /* \"#utility.yul\":5918:5963   */\n      tag_164\n        /* \"#utility.yul\":5938:5962   */\n      tag_165\n        /* \"#utility.yul\":5956:5961   */\n      dup3\n        /* \"#utility.yul\":5938:5962   */\n      tag_82\n      jump\t// in\n    tag_165:\n        /* \"#utility.yul\":5918:5963   */\n      tag_101\n      jump\t// in\n    tag_164:\n        /* \"#utility.yul\":5913:5916   */\n      dup3\n        /* \"#utility.yul\":5906:5964   */\n      mstore\n        /* \"#utility.yul\":5813:5970   */\n      pop\n      pop\n      jump\t// out\n        /* \"#utility.yul\":5976:6373   */\n    tag_61:\n        /* \"#utility.yul\":6116:6119   */\n      0x00\n        /* \"#utility.yul\":6131:6206   */\n      tag_167\n        /* \"#utility.yul\":6202:6205   */\n      dup3\n        /* \"#utility.yul\":6193:6199   */\n      dup6\n        /* \"#utility.yul\":6131:6206   */\n      tag_102\n      jump\t// in\n    tag_167:\n        /* \"#utility.yul\":6231:6233   */\n      0x20\n        /* \"#utility.yul\":6226:6229   */\n      dup3\n        /* \"#utility.yul\":6222:6234   */\n      add\n        /* \"#utility.yul\":6215:6234   */\n      swap2\n      pop\n        /* \"#utility.yul\":6244:6319   */\n      tag_168\n        /* \"#utility.yul\":6315:6318   */\n      dup3\n        /* \"#utility.yul\":6306:6312   */\n      dup5\n        /* \"#utility.yul\":6244:6319   */\n      tag_102\n      jump\t// in\n    tag_168:\n        /* \"#utility.yul\":6344:6346   */\n      0x20\n        /* \"#utility.yul\":6339:6342   */\n      dup3\n        /* \"#utility.yul\":6335:6347   */\n      add\n        /* \"#utility.yul\":6328:6347   */\n      swap2\n      pop\n        /* \"#utility.yul\":6364:6367   */\n      dup2\n        /* \"#utility.yul\":6357:6367   */\n      swap1\n      pop\n        /* \"#utility.yul\":5976:6373   */\n      swap4\n      swap3\n      pop\n      pop\n      pop\n      jump\t// out\n        /* \"#utility.yul\":6379:6559   */\n    tag_103:\n        /* \"#utility.yul\":6427:6504   */\n      0x4e487b7100000000000000000000000000000000000000000000000000000000\n        /* \"#utility.yul\":6424:6425   */\n      0x00\n        /* \"#utility.yul\":6417:6505   */\n      mstore\n        /* \"#utility.yul\":6524:6528   */\n      0x11\n        /* \"#utility.yul\":6521:6522   */\n      0x04\n        /* \"#utility.yul\":6514:6529   */\n      mstore\n        /* \"#utility.yul\":6548:6552   */\n      0x24\n        /* \"#utility.yul\":6545:6546   */\n      0x00\n        /* \"#utility.yul\":6538:6553   */\n      revert\n        /* \"#utility.yul\":6565:6975   */\n    tag_64:\n        /* \"#utility.yul\":6605:6612   */\n      0x00\n        /* \"#utility.yul\":6628:6648   */\n      tag_171\n        /* \"#utility.yul\":6646:6647   */\n      dup3\n        /* \"#utility.yul\":6628:6648   */\n      tag_82\n      jump\t// in\n    tag_171:\n        /* \"#utility.yul\":6623:6648   */\n      swap2\n      pop\n        /* \"#utility.yul\":6662:6682   */\n      tag_172\n        /* \"#utility.yul\":6680:6681   */\n      dup4\n        /* \"#utility.yul\":6662:6682   */\n      tag_82\n      jump\t// in\n    tag_172:\n        /* \"#utility.yul\":6657:6682   */\n      swap3\n      pop\n        /* \"#utility.yul\":6717:6718   */\n      dup3\n        /* \"#utility.yul\":6714:6715   */\n      dup3\n        /* \"#utility.yul\":6710:6719   */\n      mul\n        /* \"#utility.yul\":6739:6769   */\n      tag_173\n        /* \"#utility.yul\":6757:6768   */\n      dup2\n        /* \"#utility.yul\":6739:6769   */\n      tag_82\n      jump\t// in\n    tag_173:\n        /* \"#utility.yul\":6728:6769   */\n      swap2\n      pop\n        /* \"#utility.yul\":6918:6919   */\n      dup3\n        /* \"#utility.yul\":6909:6916   */\n      dup3\n        /* \"#utility.yul\":6905:6920   */\n      div\n        /* \"#utility.yul\":6902:6903   */\n      dup5\n        /* \"#utility.yul\":6899:6921   */\n      eq\n        /* \"#utility.yul\":6879:6880   */\n      dup4\n        /* \"#utility.yul\":6872:6881   */\n      iszero\n        /* \"#utility.yul\":6852:6935   */\n      or\n        /* \"#utility.yul\":6829:6968   */\n      tag_174\n      jumpi\n        /* \"#utility.yul\":6948:6966   */\n      tag_175\n      tag_103\n      jump\t// in\n    tag_175:\n        /* \"#utility.yul\":6829:6968   */\n    tag_174:\n        /* \"#utility.yul\":6613:6975   */\n      pop\n        /* \"#utility.yul\":6565:6975   */\n      swap3\n      swap2\n      pop\n      pop\n      jump\t// out\n        /* \"#utility.yul\":6981:7161   */\n    tag_104:\n        /* \"#utility.yul\":7029:7106   */\n      0x4e487b7100000000000000000000000000000000000000000000000000000000\n        /* \"#utility.yul\":7026:7027   */\n      0x00\n        /* \"#utility.yul\":7019:7107   */\n      mstore\n        /* \"#utility.yul\":7126:7130   */\n      0x12\n        /* \"#utility.yul\":7123:7124   */\n      0x04\n        /* \"#utility.yul\":7116:7131   */\n      mstore\n        /* \"#utility.yul\":7150:7154   */\n      0x24\n        /* \"#utility.yul\":7147:7148   */\n      0x00\n        /* \"#utility.yul\":7140:7155   */\n      revert\n        /* \"#utility.yul\":7167:7352   */\n    tag_66:\n        /* \"#utility.yul\":7207:7208   */\n      0x00\n        /* \"#utility.yul\":7224:7244   */\n      tag_178\n        /* \"#utility.yul\":7242:7243   */\n      dup3\n        /* \"#utility.yul\":7224:7244   */\n      tag_82\n      jump\t// in\n    tag_178:\n        /* \"#utility.yul\":7219:7244   */\n      swap2\n      pop\n        /* \"#utility.yul\":7258:7278   */\n      tag_179\n        /* \"#utility.yul\":7276:7277   */\n      dup4\n        /* \"#utility.yul\":7258:7278   */\n      tag_82\n      jump\t// in\n    tag_179:\n        /* \"#utility.yul\":7253:7278   */\n      swap3\n      pop\n        /* \"#utility.yul\":7297:7298   */\n      dup3\n        /* \"#utility.yul\":7287:7322   */\n      tag_180\n      jumpi\n        /* \"#utility.yul\":7302:7320   */\n      tag_181\n      tag_104\n      jump\t// in\n    tag_181:\n        /* \"#utility.yul\":7287:7322   */\n    tag_180:\n        /* \"#utility.yul\":7344:7345   */\n      dup3\n        /* \"#utility.yul\":7341:7342   */\n      dup3\n        /* \"#utility.yul\":7337:7346   */\n      div\n        /* \"#utility.yul\":7332:7346   */\n      swap1\n      pop\n        /* \"#utility.yul\":7167:7352   */\n      swap3\n      swap2\n      pop\n      pop\n      jump\t// out\n        /* \"#utility.yul\":7358:7549   */\n    tag_68:\n        /* \"#utility.yul\":7398:7401   */\n      0x00\n        /* \"#utility.yul\":7417:7437   */\n      tag_183\n        /* \"#utility.yul\":7435:7436   */\n      dup3\n        /* \"#utility.yul\":7417:7437   */\n      tag_82\n      jump\t// in\n    tag_183:\n        /* \"#utility.yul\":7412:7437   */\n      swap2\n      pop\n        /* \"#utility.yul\":7451:7471   */\n      tag_184\n        /* \"#utility.yul\":7469:7470   */\n      dup4\n        /* \"#utility.yul\":7451:7471   */\n      tag_82\n      jump\t// in\n    tag_184:\n        /* \"#utility.yul\":7446:7471   */\n      swap3\n      pop\n        /* \"#utility.yul\":7494:7495   */\n      dup3\n        /* \"#utility.yul\":7491:7492   */\n      dup3\n        /* \"#utility.yul\":7487:7496   */\n      add\n        /* \"#utility.yul\":7480:7496   */\n      swap1\n      pop\n        /* \"#utility.yul\":7515:7518   */\n      dup1\n        /* \"#utility.yul\":7512:7513   */\n      dup3\n        /* \"#utility.yul\":7509:7519   */\n      gt\n        /* \"#utility.yul\":7506:7542   */\n      iszero\n      tag_185\n      jumpi\n        /* \"#utility.yul\":7522:7540   */\n      tag_186\n      tag_103\n      jump\t// in\n    tag_186:\n        /* \"#utility.yul\":7506:7542   */\n    tag_185:\n        /* \"#utility.yul\":7358:7549   */\n      swap3\n      swap2\n      pop\n      pop\n      jump\t// out\n        /* \"#utility.yul\":7555:7749   */\n    tag_70:\n        /* \"#utility.yul\":7595:7599   */\n      0x00\n        /* \"#utility.yul\":7615:7635   */\n      tag_188\n        /* \"#utility.yul\":7633:7634   */\n      dup3\n        /* \"#utility.yul\":7615:7635   */\n      tag_82\n      jump\t// in\n    tag_188:\n        /* \"#utility.yul\":7610:7635   */\n      swap2\n      pop\n        /* \"#utility.yul\":7649:7669   */\n      tag_189\n        /* \"#utility.yul\":7667:7668   */\n      dup4\n        /* \"#utility.yul\":7649:7669   */\n      tag_82\n      jump\t// in\n    tag_189:\n        /* \"#utility.yul\":7644:7669   */\n      swap3\n      pop\n        /* \"#utility.yul\":7693:7694   */\n      dup3\n        /* \"#utility.yul\":7690:7691   */\n      dup3\n        /* \"#utility.yul\":7686:7695   */\n      sub\n        /* \"#utility.yul\":7678:7695   */\n      swap1\n      pop\n        /* \"#utility.yul\":7717:7718   */\n      dup2\n        /* \"#utility.yul\":7711:7715   */\n      dup2\n        /* \"#utility.yul\":7708:7719   */\n      gt\n        /* \"#utility.yul\":7705:7742   */\n      iszero\n      tag_190\n      jumpi\n        /* \"#utility.yul\":7722:7740   */\n      tag_191\n      tag_103\n      jump\t// in\n    tag_191:\n        /* \"#utility.yul\":7705:7742   */\n    tag_190:\n        /* \"#utility.yul\":7555:7749   */\n      swap3\n      swap2\n      pop\n      pop\n      jump\t// out\n        /* \"#utility.yul\":7755:7926   */\n    tag_105:\n        /* \"#utility.yul\":7895:7918   */\n      0x4e6f20746f6b656e7320746f2077697468647261770000000000000000000000\n        /* \"#utility.yul\":7891:7892   */\n      0x00\n        /* \"#utility.yul\":7883:7889   */\n      dup3\n        /* \"#utility.yul\":7879:7893   */\n      add\n        /* \"#utility.yul\":7872:7919   */\n      mstore\n        /* \"#utility.yul\":7755:7926   */\n      pop\n      jump\t// out\n        /* \"#utility.yul\":7932:8298   */\n    tag_106:\n        /* \"#utility.yul\":8074:8077   */\n      0x00\n        /* \"#utility.yul\":8095:8162   */\n      tag_194\n        /* \"#utility.yul\":8159:8161   */\n      0x15\n        /* \"#utility.yul\":8154:8157   */\n      dup4\n        /* \"#utility.yul\":8095:8162   */\n      tag_94\n      jump\t// in\n    tag_194:\n        /* \"#utility.yul\":8088:8162   */\n      swap2\n      pop\n        /* \"#utility.yul\":8171:8264   */\n      tag_195\n        /* \"#utility.yul\":8260:8263   */\n      dup3\n        /* \"#utility.yul\":8171:8264   */\n      tag_105\n      jump\t// in\n    tag_195:\n        /* \"#utility.yul\":8289:8291   */\n      0x20\n        /* \"#utility.yul\":8284:8287   */\n      dup3\n        /* \"#utility.yul\":8280:8292   */\n      add\n        /* \"#utility.yul\":8273:8292   */\n      swap1\n      pop\n        /* \"#utility.yul\":7932:8298   */\n      swap2\n      swap1\n      pop\n      jump\t// out\n        /* \"#utility.yul\":8304:8723   */\n    tag_74:\n        /* \"#utility.yul\":8470:8474   */\n      0x00\n        /* \"#utility.yul\":8508:8510   */\n      0x20\n        /* \"#utility.yul\":8497:8506   */\n      dup3\n        /* \"#utility.yul\":8493:8511   */\n      add\n        /* \"#utility.yul\":8485:8511   */\n      swap1\n      pop\n        /* \"#utility.yul\":8557:8566   */\n      dup2\n        /* \"#utility.yul\":8551:8555   */\n      dup2\n        /* \"#utility.yul\":8547:8567   */\n      sub\n        /* \"#utility.yul\":8543:8544   */\n      0x00\n        /* \"#utility.yul\":8532:8541   */\n      dup4\n        /* \"#utility.yul\":8528:8545   */\n      add\n        /* \"#utility.yul\":8521:8568   */\n      mstore\n        /* \"#utility.yul\":8585:8716   */\n      tag_197\n        /* \"#utility.yul\":8711:8715   */\n      dup2\n        /* \"#utility.yul\":8585:8716   */\n      tag_106\n      jump\t// in\n    tag_197:\n        /* \"#utility.yul\":8577:8716   */\n      swap1\n      pop\n        /* \"#utility.yul\":8304:8723   */\n      swap2\n      swap1\n      pop\n      jump\t// out\n        /* \"#utility.yul\":8729:8951   */\n    tag_107:\n        /* \"#utility.yul\":8869:8903   */\n      0x436f6e747269627574696f6e206d757374206265206772656174657220746861\n        /* \"#utility.yul\":8865:8866   */\n      0x00\n        /* \"#utility.yul\":8857:8863   */\n      dup3\n        /* \"#utility.yul\":8853:8867   */\n      add\n        /* \"#utility.yul\":8846:8904   */\n      mstore\n        /* \"#utility.yul\":8938:8943   */\n      0x6e20300000000000000000000000000000000000000000000000000000000000\n        /* \"#utility.yul\":8933:8935   */\n      0x20\n        /* \"#utility.yul\":8925:8931   */\n      dup3\n        /* \"#utility.yul\":8921:8936   */\n      add\n        /* \"#utility.yul\":8914:8944   */\n      mstore\n        /* \"#utility.yul\":8729:8951   */\n      pop\n      jump\t// out\n        /* \"#utility.yul\":8957:9323   */\n    tag_108:\n        /* \"#utility.yul\":9099:9102   */\n      0x00\n        /* \"#utility.yul\":9120:9187   */\n      tag_200\n        /* \"#utility.yul\":9184:9186   */\n      0x23\n        /* \"#utility.yul\":9179:9182   */\n      dup4\n        /* \"#utility.yul\":9120:9187   */\n      tag_94\n      jump\t// in\n    tag_200:\n        /* \"#utility.yul\":9113:9187   */\n      swap2\n      pop\n        /* \"#utility.yul\":9196:9289   */\n      tag_201\n        /* \"#utility.yul\":9285:9288   */\n      dup3\n        /* \"#utility.yul\":9196:9289   */\n      tag_107\n      jump\t// in\n    tag_201:\n        /* \"#utility.yul\":9314:9316   */\n      0x40\n        /* \"#utility.yul\":9309:9312   */\n      dup3\n        /* \"#utility.yul\":9305:9317   */\n      add\n        /* \"#utility.yul\":9298:9317   */\n      swap1\n      pop\n        /* \"#utility.yul\":8957:9323   */\n      swap2\n      swap1\n      pop\n      jump\t// out\n        /* \"#utility.yul\":9329:9748   */\n    tag_79:\n        /* \"#utility.yul\":9495:9499   */\n      0x00\n        /* \"#utility.yul\":9533:9535   */\n      0x20\n        /* \"#utility.yul\":9522:9531   */\n      dup3\n        /* \"#utility.yul\":9518:9536   */\n      add\n        /* \"#utility.yul\":9510:9536   */\n      swap1\n      pop\n        /* \"#utility.yul\":9582:9591   */\n      dup2\n        /* \"#utility.yul\":9576:9580   */\n      dup2\n        /* \"#utility.yul\":9572:9592   */\n      sub\n        /* \"#utility.yul\":9568:9569   */\n      0x00\n        /* \"#utility.yul\":9557:9566   */\n      dup4\n        /* \"#utility.yul\":9553:9570   */\n      add\n        /* \"#utility.yul\":9546:9593   */\n      mstore\n        /* \"#utility.yul\":9610:9741   */\n      tag_203\n        /* \"#utility.yul\":9736:9740   */\n      dup2\n        /* \"#utility.yul\":9610:9741   */\n      tag_108\n      jump\t// in\n    tag_203:\n        /* \"#utility.yul\":9602:9741   */\n      swap1\n      pop\n        /* \"#utility.yul\":9329:9748   */\n      swap2\n      swap1\n      pop\n      jump\t// out\n\n    auxdata: 0xa2646970667358221220564e8a3ab985ffec4efcc56fe00f3d01bd53b3a2dedb2e8e62d1acf0b3402d2064736f6c634300081a0033\n}\n",
				"bytecode": {
					"linkReferences": {},
					"object": "6080604052348015600e575f80fd5b50604051610caf380380610caf8339818101604052810190602e919060ab565b335f806101000a81548173ffffffffffffffffffffffffffffffffffffffff021916908373ffffffffffffffffffffffffffffffffffffffff160217905550806003819055505060d1565b5f80fd5b5f819050919050565b608d81607d565b81146096575f80fd5b50565b5f8151905060a5816086565b92915050565b5f6020828403121560bd5760bc6079565b5b5f60c8848285016099565b91505092915050565b610bd1806100de5f395ff3fe60806040526004361061007a575f3560e01c80637e1c0c091161004d5780637e1c0c09146101485780638d8f2adb146101725780638da5cb5b14610188578063d7bb99ba146101b25761007a565b806337c089231461007e57806342e94c90146100a8578063523fba7f146100e45780637366794e14610120575b5f80fd5b348015610089575f80fd5b506100926101bc565b60405161009f919061069c565b60405180910390f35b3480156100b3575f80fd5b506100ce60048036038101906100c99190610713565b6101c2565b6040516100db919061069c565b60405180910390f35b3480156100ef575f80fd5b5061010a60048036038101906101059190610713565b6101d7565b604051610117919061069c565b60405180910390f35b34801561012b575f80fd5b5061014660048036038101906101419190610768565b6101ec565b005b348015610153575f80fd5b5061015c610459565b604051610169919061069c565b60405180910390f35b34801561017d575f80fd5b5061018661045f565b005b348015610193575f80fd5b5061019c6105b2565b6040516101a991906107a2565b60405180910390f35b6101ba6105d5565b005b60045481565b6001602052805f5260405f205f915090505481565b6002602052805f5260405f205f915090505481565b5f8054906101000a900473ffffffffffffffffffffffffffffffffffffffff1673ffffffffffffffffffffffffffffffffffffffff163373ffffffffffffffffffffffffffffffffffffffff1614610279576040517f08c379a00000000000000000000000000000000000000000000000000000000081526004016102709061083b565b60405180910390fd5b5f600454116102bd576040517f08c379a00000000000000000000000000000000000000000000000000000000081526004016102b4906108a3565b60405180910390fd5b600354811115610302576040517f08c379a00000000000000000000000000000000000000000000000000000000081526004016102f99061090b565b60405180910390fd5b5f5b60045481101561043d575f8142604051602001610322929190610949565b604051602081830303815290604052805190602001205f1c90505f60015f8373ffffffffffffffffffffffffffffffffffffffff1673ffffffffffffffffffffffffffffffffffffffff1681526020019081526020015f2054111561042f575f6004548460015f8573ffffffffffffffffffffffffffffffffffffffff1673ffffffffffffffffffffffffffffffffffffffff1681526020019081526020015f20546103ce91906109a1565b6103d89190610a0f565b90508060025f8473ffffffffffffffffffffffffffffffffffffffff1673ffffffffffffffffffffffffffffffffffffffff1681526020019081526020015f205f8282546104269190610a3f565b92505081905550505b508080600101915050610304565b508060035f82825461044f9190610a72565b9250508190555050565b60035481565b5f60025f3373ffffffffffffffffffffffffffffffffffffffff1673ffffffffffffffffffffffffffffffffffffffff1681526020019081526020015f2054116104de576040517f08c379a00000000000000000000000000000000000000000000000000000000081526004016104d590610aef565b60405180910390fd5b5f60025f3373ffffffffffffffffffffffffffffffffffffffff1673ffffffffffffffffffffffffffffffffffffffff1681526020019081526020015f205490505f60025f3373ffffffffffffffffffffffffffffffffffffffff1673ffffffffffffffffffffffffffffffffffffffff1681526020019081526020015f20819055503373ffffffffffffffffffffffffffffffffffffffff167f6352c5382c4a4578e712449ca65e83cdb392d045dfcf1cad9615189db2da244b826040516105a7919061069c565b60405180910390a250565b5f8054906101000a900473ffffffffffffffffffffffffffffffffffffffff1681565b5f3411610617576040517f08c379a000000000000000000000000000000000000000000000000000000000815260040161060e90610b7d565b60405180910390fd5b3460015f3373ffffffffffffffffffffffffffffffffffffffff1673ffffffffffffffffffffffffffffffffffffffff1681526020019081526020015f205f8282546106639190610a3f565b925050819055503460045f82825461067b9190610a3f565b92505081905550565b5f819050919050565b61069681610684565b82525050565b5f6020820190506106af5f83018461068d565b92915050565b5f80fd5b5f73ffffffffffffffffffffffffffffffffffffffff82169050919050565b5f6106e2826106b9565b9050919050565b6106f2816106d8565b81146106fc575f80fd5b50565b5f8135905061070d816106e9565b92915050565b5f60208284031215610728576107276106b5565b5b5f610735848285016106ff565b91505092915050565b61074781610684565b8114610751575f80fd5b50565b5f813590506107628161073e565b92915050565b5f6020828403121561077d5761077c6106b5565b5b5f61078a84828501610754565b91505092915050565b61079c816106d8565b82525050565b5f6020820190506107b55f830184610793565b92915050565b5f82825260208201905092915050565b7f4f6e6c7920746865206f776e65722063616e20706572666f726d2074686973205f8201527f616374696f6e0000000000000000000000000000000000000000000000000000602082015250565b5f6108256026836107bb565b9150610830826107cb565b604082019050919050565b5f6020820190508181035f83015261085281610819565b9050919050565b7f4e6f20636f6e747269627574696f6e73206d61646500000000000000000000005f82015250565b5f61088d6015836107bb565b915061089882610859565b602082019050919050565b5f6020820190508181035f8301526108ba81610881565b9050919050565b7f4e6f7420656e6f75676820746f6b656e7320617661696c61626c6500000000005f82015250565b5f6108f5601b836107bb565b9150610900826108c1565b602082019050919050565b5f6020820190508181035f830152610922816108e9565b9050919050565b5f819050919050565b61094361093e82610684565b610929565b82525050565b5f6109548285610932565b6020820191506109648284610932565b6020820191508190509392505050565b7f4e487b71000000000000000000000000000000000000000000000000000000005f52601160045260245ffd5b5f6109ab82610684565b91506109b683610684565b92508282026109c481610684565b915082820484148315176109db576109da610974565b5b5092915050565b7f4e487b71000000000000000000000000000000000000000000000000000000005f52601260045260245ffd5b5f610a1982610684565b9150610a2483610684565b925082610a3457610a336109e2565b5b828204905092915050565b5f610a4982610684565b9150610a5483610684565b9250828201905080821115610a6c57610a6b610974565b5b92915050565b5f610a7c82610684565b9150610a8783610684565b9250828203905081811115610a9f57610a9e610974565b5b92915050565b7f4e6f20746f6b656e7320746f20776974686472617700000000000000000000005f82015250565b5f610ad96015836107bb565b9150610ae482610aa5565b602082019050919050565b5f6020820190508181035f830152610b0681610acd565b9050919050565b7f436f6e747269627574696f6e206d7573742062652067726561746572207468615f8201527f6e20300000000000000000000000000000000000000000000000000000000000602082015250565b5f610b676023836107bb565b9150610b7282610b0d565b604082019050919050565b5f6020820190508181035f830152610b9481610b5b565b905091905056fea2646970667358221220564e8a3ab985ffec4efcc56fe00f3d01bd53b3a2dedb2e8e62d1acf0b3402d2064736f6c634300081a0033",
					"opcodes": "PUSH1 0x80 PUSH1 0x40 MSTORE CALLVALUE DUP1 ISZERO PUSH1 0xE JUMPI PUSH0 DUP1 REVERT JUMPDEST POP PUSH1 0x40 MLOAD PUSH2 0xCAF CODESIZE SUB DUP1 PUSH2 0xCAF DUP4 CODECOPY DUP2 DUP2 ADD PUSH1 0x40 MSTORE DUP2 ADD SWAP1 PUSH1 0x2E SWAP2 SWAP1 PUSH1 0xAB JUMP JUMPDEST CALLER PUSH0 DUP1 PUSH2 0x100 EXP DUP2 SLOAD DUP2 PUSH20 0xFFFFFFFFFFFFFFFFFFFFFFFFFFFFFFFFFFFFFFFF MUL NOT AND SWAP1 DUP4 PUSH20 0xFFFFFFFFFFFFFFFFFFFFFFFFFFFFFFFFFFFFFFFF AND MUL OR SWAP1 SSTORE POP DUP1 PUSH1 0x3 DUP2 SWAP1 SSTORE POP POP PUSH1 0xD1 JUMP JUMPDEST PUSH0 DUP1 REVERT JUMPDEST PUSH0 DUP2 SWAP1 POP SWAP2 SWAP1 POP JUMP JUMPDEST PUSH1 0x8D DUP2 PUSH1 0x7D JUMP JUMPDEST DUP2 EQ PUSH1 0x96 JUMPI PUSH0 DUP1 REVERT JUMPDEST POP JUMP JUMPDEST PUSH0 DUP2 MLOAD SWAP1 POP PUSH1 0xA5 DUP2 PUSH1 0x86 JUMP JUMPDEST SWAP3 SWAP2 POP POP JUMP JUMPDEST PUSH0 PUSH1 0x20 DUP3 DUP5 SUB SLT ISZERO PUSH1 0xBD JUMPI PUSH1 0xBC PUSH1 0x79 JUMP JUMPDEST JUMPDEST PUSH0 PUSH1 0xC8 DUP5 DUP3 DUP6 ADD PUSH1 0x99 JUMP JUMPDEST SWAP2 POP POP SWAP3 SWAP2 POP POP JUMP JUMPDEST PUSH2 0xBD1 DUP1 PUSH2 0xDE PUSH0 CODECOPY PUSH0 RETURN INVALID PUSH1 0x80 PUSH1 0x40 MSTORE PUSH1 0x4 CALLDATASIZE LT PUSH2 0x7A JUMPI PUSH0 CALLDATALOAD PUSH1 0xE0 SHR DUP1 PUSH4 0x7E1C0C09 GT PUSH2 0x4D JUMPI DUP1 PUSH4 0x7E1C0C09 EQ PUSH2 0x148 JUMPI DUP1 PUSH4 0x8D8F2ADB EQ PUSH2 0x172 JUMPI DUP1 PUSH4 0x8DA5CB5B EQ PUSH2 0x188 JUMPI DUP1 PUSH4 0xD7BB99BA EQ PUSH2 0x1B2 JUMPI PUSH2 0x7A JUMP JUMPDEST DUP1 PUSH4 0x37C08923 EQ PUSH2 0x7E JUMPI DUP1 PUSH4 0x42E94C90 EQ PUSH2 0xA8 JUMPI DUP1 PUSH4 0x523FBA7F EQ PUSH2 0xE4 JUMPI DUP1 PUSH4 0x7366794E EQ PUSH2 0x120 JUMPI JUMPDEST PUSH0 DUP1 REVERT JUMPDEST CALLVALUE DUP1 ISZERO PUSH2 0x89 JUMPI PUSH0 DUP1 REVERT JUMPDEST POP PUSH2 0x92 PUSH2 0x1BC JUMP JUMPDEST PUSH1 0x40 MLOAD PUSH2 0x9F SWAP2 SWAP1 PUSH2 0x69C JUMP JUMPDEST PUSH1 0x40 MLOAD DUP1 SWAP2 SUB SWAP1 RETURN JUMPDEST CALLVALUE DUP1 ISZERO PUSH2 0xB3 JUMPI PUSH0 DUP1 REVERT JUMPDEST POP PUSH2 0xCE PUSH1 0x4 DUP1 CALLDATASIZE SUB DUP2 ADD SWAP1 PUSH2 0xC9 SWAP2 SWAP1 PUSH2 0x713 JUMP JUMPDEST PUSH2 0x1C2 JUMP JUMPDEST PUSH1 0x40 MLOAD PUSH2 0xDB SWAP2 SWAP1 PUSH2 0x69C JUMP JUMPDEST PUSH1 0x40 MLOAD DUP1 SWAP2 SUB SWAP1 RETURN JUMPDEST CALLVALUE DUP1 ISZERO PUSH2 0xEF JUMPI PUSH0 DUP1 REVERT JUMPDEST POP PUSH2 0x10A PUSH1 0x4 DUP1 CALLDATASIZE SUB DUP2 ADD SWAP1 PUSH2 0x105 SWAP2 SWAP1 PUSH2 0x713 JUMP JUMPDEST PUSH2 0x1D7 JUMP JUMPDEST PUSH1 0x40 MLOAD PUSH2 0x117 SWAP2 SWAP1 PUSH2 0x69C JUMP JUMPDEST PUSH1 0x40 MLOAD DUP1 SWAP2 SUB SWAP1 RETURN JUMPDEST CALLVALUE DUP1 ISZERO PUSH2 0x12B JUMPI PUSH0 DUP1 REVERT JUMPDEST POP PUSH2 0x146 PUSH1 0x4 DUP1 CALLDATASIZE SUB DUP2 ADD SWAP1 PUSH2 0x141 SWAP2 SWAP1 PUSH2 0x768 JUMP JUMPDEST PUSH2 0x1EC JUMP JUMPDEST STOP JUMPDEST CALLVALUE DUP1 ISZERO PUSH2 0x153 JUMPI PUSH0 DUP1 REVERT JUMPDEST POP PUSH2 0x15C PUSH2 0x459 JUMP JUMPDEST PUSH1 0x40 MLOAD PUSH2 0x169 SWAP2 SWAP1 PUSH2 0x69C JUMP JUMPDEST PUSH1 0x40 MLOAD DUP1 SWAP2 SUB SWAP1 RETURN JUMPDEST CALLVALUE DUP1 ISZERO PUSH2 0x17D JUMPI PUSH0 DUP1 REVERT JUMPDEST POP PUSH2 0x186 PUSH2 0x45F JUMP JUMPDEST STOP JUMPDEST CALLVALUE DUP1 ISZERO PUSH2 0x193 JUMPI PUSH0 DUP1 REVERT JUMPDEST POP PUSH2 0x19C PUSH2 0x5B2 JUMP JUMPDEST PUSH1 0x40 MLOAD PUSH2 0x1A9 SWAP2 SWAP1 PUSH2 0x7A2 JUMP JUMPDEST PUSH1 0x40 MLOAD DUP1 SWAP2 SUB SWAP1 RETURN JUMPDEST PUSH2 0x1BA PUSH2 0x5D5 JUMP JUMPDEST STOP JUMPDEST PUSH1 0x4 SLOAD DUP2 JUMP JUMPDEST PUSH1 0x1 PUSH1 0x20 MSTORE DUP1 PUSH0 MSTORE PUSH1 0x40 PUSH0 KECCAK256 PUSH0 SWAP2 POP SWAP1 POP SLOAD DUP2 JUMP JUMPDEST PUSH1 0x2 PUSH1 0x20 MSTORE DUP1 PUSH0 MSTORE PUSH1 0x40 PUSH0 KECCAK256 PUSH0 SWAP2 POP SWAP1 POP SLOAD DUP2 JUMP JUMPDEST PUSH0 DUP1 SLOAD SWAP1 PUSH2 0x100 EXP SWAP1 DIV PUSH20 0xFFFFFFFFFFFFFFFFFFFFFFFFFFFFFFFFFFFFFFFF AND PUSH20 0xFFFFFFFFFFFFFFFFFFFFFFFFFFFFFFFFFFFFFFFF AND CALLER PUSH20 0xFFFFFFFFFFFFFFFFFFFFFFFFFFFFFFFFFFFFFFFF AND EQ PUSH2 0x279 JUMPI PUSH1 0x40 MLOAD PUSH32 0x8C379A000000000000000000000000000000000000000000000000000000000 DUP2 MSTORE PUSH1 0x4 ADD PUSH2 0x270 SWAP1 PUSH2 0x83B JUMP JUMPDEST PUSH1 0x40 MLOAD DUP1 SWAP2 SUB SWAP1 REVERT JUMPDEST PUSH0 PUSH1 0x4 SLOAD GT PUSH2 0x2BD JUMPI PUSH1 0x40 MLOAD PUSH32 0x8C379A000000000000000000000000000000000000000000000000000000000 DUP2 MSTORE PUSH1 0x4 ADD PUSH2 0x2B4 SWAP1 PUSH2 0x8A3 JUMP JUMPDEST PUSH1 0x40 MLOAD DUP1 SWAP2 SUB SWAP1 REVERT JUMPDEST PUSH1 0x3 SLOAD DUP2 GT ISZERO PUSH2 0x302 JUMPI PUSH1 0x40 MLOAD PUSH32 0x8C379A000000000000000000000000000000000000000000000000000000000 DUP2 MSTORE PUSH1 0x4 ADD PUSH2 0x2F9 SWAP1 PUSH2 0x90B JUMP JUMPDEST PUSH1 0x40 MLOAD DUP1 SWAP2 SUB SWAP1 REVERT JUMPDEST PUSH0 JUMPDEST PUSH1 0x4 SLOAD DUP2 LT ISZERO PUSH2 0x43D JUMPI PUSH0 DUP2 TIMESTAMP PUSH1 0x40 MLOAD PUSH1 0x20 ADD PUSH2 0x322 SWAP3 SWAP2 SWAP1 PUSH2 0x949 JUMP JUMPDEST PUSH1 0x40 MLOAD PUSH1 0x20 DUP2 DUP4 SUB SUB DUP2 MSTORE SWAP1 PUSH1 0x40 MSTORE DUP1 MLOAD SWAP1 PUSH1 0x20 ADD KECCAK256 PUSH0 SHR SWAP1 POP PUSH0 PUSH1 0x1 PUSH0 DUP4 PUSH20 0xFFFFFFFFFFFFFFFFFFFFFFFFFFFFFFFFFFFFFFFF AND PUSH20 0xFFFFFFFFFFFFFFFFFFFFFFFFFFFFFFFFFFFFFFFF AND DUP2 MSTORE PUSH1 0x20 ADD SWAP1 DUP2 MSTORE PUSH1 0x20 ADD PUSH0 KECCAK256 SLOAD GT ISZERO PUSH2 0x42F JUMPI PUSH0 PUSH1 0x4 SLOAD DUP5 PUSH1 0x1 PUSH0 DUP6 PUSH20 0xFFFFFFFFFFFFFFFFFFFFFFFFFFFFFFFFFFFFFFFF AND PUSH20 0xFFFFFFFFFFFFFFFFFFFFFFFFFFFFFFFFFFFFFFFF AND DUP2 MSTORE PUSH1 0x20 ADD SWAP1 DUP2 MSTORE PUSH1 0x20 ADD PUSH0 KECCAK256 SLOAD PUSH2 0x3CE SWAP2 SWAP1 PUSH2 0x9A1 JUMP JUMPDEST PUSH2 0x3D8 SWAP2 SWAP1 PUSH2 0xA0F JUMP JUMPDEST SWAP1 POP DUP1 PUSH1 0x2 PUSH0 DUP5 PUSH20 0xFFFFFFFFFFFFFFFFFFFFFFFFFFFFFFFFFFFFFFFF AND PUSH20 0xFFFFFFFFFFFFFFFFFFFFFFFFFFFFFFFFFFFFFFFF AND DUP2 MSTORE PUSH1 0x20 ADD SWAP1 DUP2 MSTORE PUSH1 0x20 ADD PUSH0 KECCAK256 PUSH0 DUP3 DUP3 SLOAD PUSH2 0x426 SWAP2 SWAP1 PUSH2 0xA3F JUMP JUMPDEST SWAP3 POP POP DUP2 SWAP1 SSTORE POP POP JUMPDEST POP DUP1 DUP1 PUSH1 0x1 ADD SWAP2 POP POP PUSH2 0x304 JUMP JUMPDEST POP DUP1 PUSH1 0x3 PUSH0 DUP3 DUP3 SLOAD PUSH2 0x44F SWAP2 SWAP1 PUSH2 0xA72 JUMP JUMPDEST SWAP3 POP POP DUP2 SWAP1 SSTORE POP POP JUMP JUMPDEST PUSH1 0x3 SLOAD DUP2 JUMP JUMPDEST PUSH0 PUSH1 0x2 PUSH0 CALLER PUSH20 0xFFFFFFFFFFFFFFFFFFFFFFFFFFFFFFFFFFFFFFFF AND PUSH20 0xFFFFFFFFFFFFFFFFFFFFFFFFFFFFFFFFFFFFFFFF AND DUP2 MSTORE PUSH1 0x20 ADD SWAP1 DUP2 MSTORE PUSH1 0x20 ADD PUSH0 KECCAK256 SLOAD GT PUSH2 0x4DE JUMPI PUSH1 0x40 MLOAD PUSH32 0x8C379A000000000000000000000000000000000000000000000000000000000 DUP2 MSTORE PUSH1 0x4 ADD PUSH2 0x4D5 SWAP1 PUSH2 0xAEF JUMP JUMPDEST PUSH1 0x40 MLOAD DUP1 SWAP2 SUB SWAP1 REVERT JUMPDEST PUSH0 PUSH1 0x2 PUSH0 CALLER PUSH20 0xFFFFFFFFFFFFFFFFFFFFFFFFFFFFFFFFFFFFFFFF AND PUSH20 0xFFFFFFFFFFFFFFFFFFFFFFFFFFFFFFFFFFFFFFFF AND DUP2 MSTORE PUSH1 0x20 ADD SWAP1 DUP2 MSTORE PUSH1 0x20 ADD PUSH0 KECCAK256 SLOAD SWAP1 POP PUSH0 PUSH1 0x2 PUSH0 CALLER PUSH20 0xFFFFFFFFFFFFFFFFFFFFFFFFFFFFFFFFFFFFFFFF AND PUSH20 0xFFFFFFFFFFFFFFFFFFFFFFFFFFFFFFFFFFFFFFFF AND DUP2 MSTORE PUSH1 0x20 ADD SWAP1 DUP2 MSTORE PUSH1 0x20 ADD PUSH0 KECCAK256 DUP2 SWAP1 SSTORE POP CALLER PUSH20 0xFFFFFFFFFFFFFFFFFFFFFFFFFFFFFFFFFFFFFFFF AND PUSH32 0x6352C5382C4A4578E712449CA65E83CDB392D045DFCF1CAD9615189DB2DA244B DUP3 PUSH1 0x40 MLOAD PUSH2 0x5A7 SWAP2 SWAP1 PUSH2 0x69C JUMP JUMPDEST PUSH1 0x40 MLOAD DUP1 SWAP2 SUB SWAP1 LOG2 POP JUMP JUMPDEST PUSH0 DUP1 SLOAD SWAP1 PUSH2 0x100 EXP SWAP1 DIV PUSH20 0xFFFFFFFFFFFFFFFFFFFFFFFFFFFFFFFFFFFFFFFF AND DUP2 JUMP JUMPDEST PUSH0 CALLVALUE GT PUSH2 0x617 JUMPI PUSH1 0x40 MLOAD PUSH32 0x8C379A000000000000000000000000000000000000000000000000000000000 DUP2 MSTORE PUSH1 0x4 ADD PUSH2 0x60E SWAP1 PUSH2 0xB7D JUMP JUMPDEST PUSH1 0x40 MLOAD DUP1 SWAP2 SUB SWAP1 REVERT JUMPDEST CALLVALUE PUSH1 0x1 PUSH0 CALLER PUSH20 0xFFFFFFFFFFFFFFFFFFFFFFFFFFFFFFFFFFFFFFFF AND PUSH20 0xFFFFFFFFFFFFFFFFFFFFFFFFFFFFFFFFFFFFFFFF AND DUP2 MSTORE PUSH1 0x20 ADD SWAP1 DUP2 MSTORE PUSH1 0x20 ADD PUSH0 KECCAK256 PUSH0 DUP3 DUP3 SLOAD PUSH2 0x663 SWAP2 SWAP1 PUSH2 0xA3F JUMP JUMPDEST SWAP3 POP POP DUP2 SWAP1 SSTORE POP CALLVALUE PUSH1 0x4 PUSH0 DUP3 DUP3 SLOAD PUSH2 0x67B SWAP2 SWAP1 PUSH2 0xA3F JUMP JUMPDEST SWAP3 POP POP DUP2 SWAP1 SSTORE POP JUMP JUMPDEST PUSH0 DUP2 SWAP1 POP SWAP2 SWAP1 POP JUMP JUMPDEST PUSH2 0x696 DUP2 PUSH2 0x684 JUMP JUMPDEST DUP3 MSTORE POP POP JUMP JUMPDEST PUSH0 PUSH1 0x20 DUP3 ADD SWAP1 POP PUSH2 0x6AF PUSH0 DUP4 ADD DUP5 PUSH2 0x68D JUMP JUMPDEST SWAP3 SWAP2 POP POP JUMP JUMPDEST PUSH0 DUP1 REVERT JUMPDEST PUSH0 PUSH20 0xFFFFFFFFFFFFFFFFFFFFFFFFFFFFFFFFFFFFFFFF DUP3 AND SWAP1 POP SWAP2 SWAP1 POP JUMP JUMPDEST PUSH0 PUSH2 0x6E2 DUP3 PUSH2 0x6B9 JUMP JUMPDEST SWAP1 POP SWAP2 SWAP1 POP JUMP JUMPDEST PUSH2 0x6F2 DUP2 PUSH2 0x6D8 JUMP JUMPDEST DUP2 EQ PUSH2 0x6FC JUMPI PUSH0 DUP1 REVERT JUMPDEST POP JUMP JUMPDEST PUSH0 DUP2 CALLDATALOAD SWAP1 POP PUSH2 0x70D DUP2 PUSH2 0x6E9 JUMP JUMPDEST SWAP3 SWAP2 POP POP JUMP JUMPDEST PUSH0 PUSH1 0x20 DUP3 DUP5 SUB SLT ISZERO PUSH2 0x728 JUMPI PUSH2 0x727 PUSH2 0x6B5 JUMP JUMPDEST JUMPDEST PUSH0 PUSH2 0x735 DUP5 DUP3 DUP6 ADD PUSH2 0x6FF JUMP JUMPDEST SWAP2 POP POP SWAP3 SWAP2 POP POP JUMP JUMPDEST PUSH2 0x747 DUP2 PUSH2 0x684 JUMP JUMPDEST DUP2 EQ PUSH2 0x751 JUMPI PUSH0 DUP1 REVERT JUMPDEST POP JUMP JUMPDEST PUSH0 DUP2 CALLDATALOAD SWAP1 POP PUSH2 0x762 DUP2 PUSH2 0x73E JUMP JUMPDEST SWAP3 SWAP2 POP POP JUMP JUMPDEST PUSH0 PUSH1 0x20 DUP3 DUP5 SUB SLT ISZERO PUSH2 0x77D JUMPI PUSH2 0x77C PUSH2 0x6B5 JUMP JUMPDEST JUMPDEST PUSH0 PUSH2 0x78A DUP5 DUP3 DUP6 ADD PUSH2 0x754 JUMP JUMPDEST SWAP2 POP POP SWAP3 SWAP2 POP POP JUMP JUMPDEST PUSH2 0x79C DUP2 PUSH2 0x6D8 JUMP JUMPDEST DUP3 MSTORE POP POP JUMP JUMPDEST PUSH0 PUSH1 0x20 DUP3 ADD SWAP1 POP PUSH2 0x7B5 PUSH0 DUP4 ADD DUP5 PUSH2 0x793 JUMP JUMPDEST SWAP3 SWAP2 POP POP JUMP JUMPDEST PUSH0 DUP3 DUP3 MSTORE PUSH1 0x20 DUP3 ADD SWAP1 POP SWAP3 SWAP2 POP POP JUMP JUMPDEST PUSH32 0x4F6E6C7920746865206F776E65722063616E20706572666F726D207468697320 PUSH0 DUP3 ADD MSTORE PUSH32 0x616374696F6E0000000000000000000000000000000000000000000000000000 PUSH1 0x20 DUP3 ADD MSTORE POP JUMP JUMPDEST PUSH0 PUSH2 0x825 PUSH1 0x26 DUP4 PUSH2 0x7BB JUMP JUMPDEST SWAP2 POP PUSH2 0x830 DUP3 PUSH2 0x7CB JUMP JUMPDEST PUSH1 0x40 DUP3 ADD SWAP1 POP SWAP2 SWAP1 POP JUMP JUMPDEST PUSH0 PUSH1 0x20 DUP3 ADD SWAP1 POP DUP2 DUP2 SUB PUSH0 DUP4 ADD MSTORE PUSH2 0x852 DUP2 PUSH2 0x819 JUMP JUMPDEST SWAP1 POP SWAP2 SWAP1 POP JUMP JUMPDEST PUSH32 0x4E6F20636F6E747269627574696F6E73206D6164650000000000000000000000 PUSH0 DUP3 ADD MSTORE POP JUMP JUMPDEST PUSH0 PUSH2 0x88D PUSH1 0x15 DUP4 PUSH2 0x7BB JUMP JUMPDEST SWAP2 POP PUSH2 0x898 DUP3 PUSH2 0x859 JUMP JUMPDEST PUSH1 0x20 DUP3 ADD SWAP1 POP SWAP2 SWAP1 POP JUMP JUMPDEST PUSH0 PUSH1 0x20 DUP3 ADD SWAP1 POP DUP2 DUP2 SUB PUSH0 DUP4 ADD MSTORE PUSH2 0x8BA DUP2 PUSH2 0x881 JUMP JUMPDEST SWAP1 POP SWAP2 SWAP1 POP JUMP JUMPDEST PUSH32 0x4E6F7420656E6F75676820746F6B656E7320617661696C61626C650000000000 PUSH0 DUP3 ADD MSTORE POP JUMP JUMPDEST PUSH0 PUSH2 0x8F5 PUSH1 0x1B DUP4 PUSH2 0x7BB JUMP JUMPDEST SWAP2 POP PUSH2 0x900 DUP3 PUSH2 0x8C1 JUMP JUMPDEST PUSH1 0x20 DUP3 ADD SWAP1 POP SWAP2 SWAP1 POP JUMP JUMPDEST PUSH0 PUSH1 0x20 DUP3 ADD SWAP1 POP DUP2 DUP2 SUB PUSH0 DUP4 ADD MSTORE PUSH2 0x922 DUP2 PUSH2 0x8E9 JUMP JUMPDEST SWAP1 POP SWAP2 SWAP1 POP JUMP JUMPDEST PUSH0 DUP2 SWAP1 POP SWAP2 SWAP1 POP JUMP JUMPDEST PUSH2 0x943 PUSH2 0x93E DUP3 PUSH2 0x684 JUMP JUMPDEST PUSH2 0x929 JUMP JUMPDEST DUP3 MSTORE POP POP JUMP JUMPDEST PUSH0 PUSH2 0x954 DUP3 DUP6 PUSH2 0x932 JUMP JUMPDEST PUSH1 0x20 DUP3 ADD SWAP2 POP PUSH2 0x964 DUP3 DUP5 PUSH2 0x932 JUMP JUMPDEST PUSH1 0x20 DUP3 ADD SWAP2 POP DUP2 SWAP1 POP SWAP4 SWAP3 POP POP POP JUMP JUMPDEST PUSH32 0x4E487B7100000000000000000000000000000000000000000000000000000000 PUSH0 MSTORE PUSH1 0x11 PUSH1 0x4 MSTORE PUSH1 0x24 PUSH0 REVERT JUMPDEST PUSH0 PUSH2 0x9AB DUP3 PUSH2 0x684 JUMP JUMPDEST SWAP2 POP PUSH2 0x9B6 DUP4 PUSH2 0x684 JUMP JUMPDEST SWAP3 POP DUP3 DUP3 MUL PUSH2 0x9C4 DUP2 PUSH2 0x684 JUMP JUMPDEST SWAP2 POP DUP3 DUP3 DIV DUP5 EQ DUP4 ISZERO OR PUSH2 0x9DB JUMPI PUSH2 0x9DA PUSH2 0x974 JUMP JUMPDEST JUMPDEST POP SWAP3 SWAP2 POP POP JUMP JUMPDEST PUSH32 0x4E487B7100000000000000000000000000000000000000000000000000000000 PUSH0 MSTORE PUSH1 0x12 PUSH1 0x4 MSTORE PUSH1 0x24 PUSH0 REVERT JUMPDEST PUSH0 PUSH2 0xA19 DUP3 PUSH2 0x684 JUMP JUMPDEST SWAP2 POP PUSH2 0xA24 DUP4 PUSH2 0x684 JUMP JUMPDEST SWAP3 POP DUP3 PUSH2 0xA34 JUMPI PUSH2 0xA33 PUSH2 0x9E2 JUMP JUMPDEST JUMPDEST DUP3 DUP3 DIV SWAP1 POP SWAP3 SWAP2 POP POP JUMP JUMPDEST PUSH0 PUSH2 0xA49 DUP3 PUSH2 0x684 JUMP JUMPDEST SWAP2 POP PUSH2 0xA54 DUP4 PUSH2 0x684 JUMP JUMPDEST SWAP3 POP DUP3 DUP3 ADD SWAP1 POP DUP1 DUP3 GT ISZERO PUSH2 0xA6C JUMPI PUSH2 0xA6B PUSH2 0x974 JUMP JUMPDEST JUMPDEST SWAP3 SWAP2 POP POP JUMP JUMPDEST PUSH0 PUSH2 0xA7C DUP3 PUSH2 0x684 JUMP JUMPDEST SWAP2 POP PUSH2 0xA87 DUP4 PUSH2 0x684 JUMP JUMPDEST SWAP3 POP DUP3 DUP3 SUB SWAP1 POP DUP2 DUP2 GT ISZERO PUSH2 0xA9F JUMPI PUSH2 0xA9E PUSH2 0x974 JUMP JUMPDEST JUMPDEST SWAP3 SWAP2 POP POP JUMP JUMPDEST PUSH32 0x4E6F20746F6B656E7320746F2077697468647261770000000000000000000000 PUSH0 DUP3 ADD MSTORE POP JUMP JUMPDEST PUSH0 PUSH2 0xAD9 PUSH1 0x15 DUP4 PUSH2 0x7BB JUMP JUMPDEST SWAP2 POP PUSH2 0xAE4 DUP3 PUSH2 0xAA5 JUMP JUMPDEST PUSH1 0x20 DUP3 ADD SWAP1 POP SWAP2 SWAP1 POP JUMP JUMPDEST PUSH0 PUSH1 0x20 DUP3 ADD SWAP1 POP DUP2 DUP2 SUB PUSH0 DUP4 ADD MSTORE PUSH2 0xB06 DUP2 PUSH2 0xACD JUMP JUMPDEST SWAP1 POP SWAP2 SWAP1 POP JUMP JUMPDEST PUSH32 0x436F6E747269627574696F6E206D757374206265206772656174657220746861 PUSH0 DUP3 ADD MSTORE PUSH32 0x6E20300000000000000000000000000000000000000000000000000000000000 PUSH1 0x20 DUP3 ADD MSTORE POP JUMP JUMPDEST PUSH0 PUSH2 0xB67 PUSH1 0x23 DUP4 PUSH2 0x7BB JUMP JUMPDEST SWAP2 POP PUSH2 0xB72 DUP3 PUSH2 0xB0D JUMP JUMPDEST PUSH1 0x40 DUP3 ADD SWAP1 POP SWAP2 SWAP1 POP JUMP JUMPDEST PUSH0 PUSH1 0x20 DUP3 ADD SWAP1 POP DUP2 DUP2 SUB PUSH0 DUP4 ADD MSTORE PUSH2 0xB94 DUP2 PUSH2 0xB5B JUMP JUMPDEST SWAP1 POP SWAP2 SWAP1 POP JUMP INVALID LOG2 PUSH5 0x6970667358 0x22 SLT KECCAK256 JUMP 0x4E DUP11 GASPRICE 0xB9 DUP6 SELFDESTRUCT 0xEC 0x4E 0xFC 0xC5 PUSH16 0xE00F3D01BD53B3A2DEDB2E8E62D1ACF0 0xB3 BLOCKHASH 0x2D KECCAK256 PUSH5 0x736F6C6343 STOP ADDMOD BYTE STOP CALLER "
				},
				"gasEstimates": {
					"creation": {
						"codeDepositCost": "605000",
						"executionCost": "infinite",
						"totalCost": "infinite"
					},
					"external": {
						"contribute()": "infinite",
						"contributions(address)": "2825",
						"distributeTokens(uint256)": "infinite",
						"owner()": "2549",
						"tokenBalances(address)": "2847",
						"totalContributions()": "2426",
						"totalTokens()": "2425",
						"withdrawTokens()": "11244"
					}
				},
				"methodIdentifiers": {
					"contribute()": "d7bb99ba",
					"contributions(address)": "42e94c90",
					"distributeTokens(uint256)": "7366794e",
					"owner()": "8da5cb5b",
					"tokenBalances(address)": "523fba7f",
					"totalContributions()": "37c08923",
					"totalTokens()": "7e1c0c09",
					"withdrawTokens()": "8d8f2adb"
				}
			},
			"storageLayout": {
				"storage": [
					{
						"astId": 3,
						"contract": "contracts/Blockchain_Assignment_6/Tasks/Week_6_Task_5.sol:TokenAirdrop",
						"label": "owner",
						"offset": 0,
						"slot": "0",
						"type": "t_address"
					},
					{
						"astId": 7,
						"contract": "contracts/Blockchain_Assignment_6/Tasks/Week_6_Task_5.sol:TokenAirdrop",
						"label": "contributions",
						"offset": 0,
						"slot": "1",
						"type": "t_mapping(t_address,t_uint256)"
					},
					{
						"astId": 11,
						"contract": "contracts/Blockchain_Assignment_6/Tasks/Week_6_Task_5.sol:TokenAirdrop",
						"label": "tokenBalances",
						"offset": 0,
						"slot": "2",
						"type": "t_mapping(t_address,t_uint256)"
					},
					{
						"astId": 13,
						"contract": "contracts/Blockchain_Assignment_6/Tasks/Week_6_Task_5.sol:TokenAirdrop",
						"label": "totalTokens",
						"offset": 0,
						"slot": "3",
						"type": "t_uint256"
					},
					{
						"astId": 15,
						"contract": "contracts/Blockchain_Assignment_6/Tasks/Week_6_Task_5.sol:TokenAirdrop",
						"label": "totalContributions",
						"offset": 0,
						"slot": "4",
						"type": "t_uint256"
					}
				],
				"types": {
					"t_address": {
						"encoding": "inplace",
						"label": "address",
						"numberOfBytes": "20"
					},
					"t_mapping(t_address,t_uint256)": {
						"encoding": "mapping",
						"key": "t_address",
						"label": "mapping(address => uint256)",
						"numberOfBytes": "32",
						"value": "t_uint256"
					},
					"t_uint256": {
						"encoding": "inplace",
						"label": "uint256",
						"numberOfBytes": "32"
					}
				}
			},
			"userdoc": {
				"kind": "user",
				"methods": {},
				"version": 1
			}
		}
	}
}