{
	"data": {
		"bytecode": {
			"linkReferences": {},
			"object": "6080604052348015600e575f80fd5b506101918061001c5f395ff3fe608060405234801561000f575f80fd5b5060043610610029575f3560e01c806369c3274b1461002d575b5f80fd5b610047600480360381019061004291906100d8565b61005d565b6040516100549190610142565b60405180910390f35b5f828413801561006c57508184135b1561007a576001905061009a565b818413801561008857508284125b15610096576001905061009a565b5f90505b9392505050565b5f80fd5b5f819050919050565b6100b7816100a5565b81146100c1575f80fd5b50565b5f813590506100d2816100ae565b92915050565b5f805f606084860312156100ef576100ee6100a1565b5b5f6100fc868287016100c4565b935050602061010d868287016100c4565b925050604061011e868287016100c4565b9150509250925092565b5f8115159050919050565b61013c81610128565b82525050565b5f6020820190506101555f830184610133565b9291505056fea2646970667358221220e58f9e4e97bbe9c31d997639acdfa548610a9dff8ed356fea978a427a7586fde64736f6c634300081a0033",
			"opcodes": "PUSH1 0x80 PUSH1 0x40 MSTORE CALLVALUE DUP1 ISZERO PUSH1 0xE JUMPI PUSH0 DUP1 REVERT JUMPDEST POP PUSH2 0x191 DUP1 PUSH2 0x1C PUSH0 CODECOPY PUSH0 RETURN INVALID PUSH1 0x80 PUSH1 0x40 MSTORE CALLVALUE DUP1 ISZERO PUSH2 0xF JUMPI PUSH0 DUP1 REVERT JUMPDEST POP PUSH1 0x4 CALLDATASIZE LT PUSH2 0x29 JUMPI PUSH0 CALLDATALOAD PUSH1 0xE0 SHR DUP1 PUSH4 0x69C3274B EQ PUSH2 0x2D JUMPI JUMPDEST PUSH0 DUP1 REVERT JUMPDEST PUSH2 0x47 PUSH1 0x4 DUP1 CALLDATASIZE SUB DUP2 ADD SWAP1 PUSH2 0x42 SWAP2 SWAP1 PUSH2 0xD8 JUMP JUMPDEST PUSH2 0x5D JUMP JUMPDEST PUSH1 0x40 MLOAD PUSH2 0x54 SWAP2 SWAP1 PUSH2 0x142 JUMP JUMPDEST PUSH1 0x40 MLOAD DUP1 SWAP2 SUB SWAP1 RETURN JUMPDEST PUSH0 DUP3 DUP5 SGT DUP1 ISZERO PUSH2 0x6C JUMPI POP DUP2 DUP5 SGT JUMPDEST ISZERO PUSH2 0x7A JUMPI PUSH1 0x1 SWAP1 POP PUSH2 0x9A JUMP JUMPDEST DUP2 DUP5 SGT DUP1 ISZERO PUSH2 0x88 JUMPI POP DUP3 DUP5 SLT JUMPDEST ISZERO PUSH2 0x96 JUMPI PUSH1 0x1 SWAP1 POP PUSH2 0x9A JUMP JUMPDEST PUSH0 SWAP1 POP JUMPDEST SWAP4 SWAP3 POP POP POP JUMP JUMPDEST PUSH0 DUP1 REVERT JUMPDEST PUSH0 DUP2 SWAP1 POP SWAP2 SWAP1 POP JUMP JUMPDEST PUSH2 0xB7 DUP2 PUSH2 0xA5 JUMP JUMPDEST DUP2 EQ PUSH2 0xC1 JUMPI PUSH0 DUP1 REVERT JUMPDEST POP JUMP JUMPDEST PUSH0 DUP2 CALLDATALOAD SWAP1 POP PUSH2 0xD2 DUP2 PUSH2 0xAE JUMP JUMPDEST SWAP3 SWAP2 POP POP JUMP JUMPDEST PUSH0 DUP1 PUSH0 PUSH1 0x60 DUP5 DUP7 SUB SLT ISZERO PUSH2 0xEF JUMPI PUSH2 0xEE PUSH2 0xA1 JUMP JUMPDEST JUMPDEST PUSH0 PUSH2 0xFC DUP7 DUP3 DUP8 ADD PUSH2 0xC4 JUMP JUMPDEST SWAP4 POP POP PUSH1 0x20 PUSH2 0x10D DUP7 DUP3 DUP8 ADD PUSH2 0xC4 JUMP JUMPDEST SWAP3 POP POP PUSH1 0x40 PUSH2 0x11E DUP7 DUP3 DUP8 ADD PUSH2 0xC4 JUMP JUMPDEST SWAP2 POP POP SWAP3 POP SWAP3 POP SWAP3 JUMP JUMPDEST PUSH0 DUP2 ISZERO ISZERO SWAP1 POP SWAP2 SWAP1 POP JUMP JUMPDEST PUSH2 0x13C DUP2 PUSH2 0x128 JUMP JUMPDEST DUP3 MSTORE POP POP JUMP JUMPDEST PUSH0 PUSH1 0x20 DUP3 ADD SWAP1 POP PUSH2 0x155 PUSH0 DUP4 ADD DUP5 PUSH2 0x133 JUMP JUMPDEST SWAP3 SWAP2 POP POP JUMP INVALID LOG2 PUSH5 0x6970667358 0x22 SLT KECCAK256 0xE5 DUP16 SWAP15 0x4E SWAP8 0xBB 0xE9 0xC3 SAR SWAP10 PUSH23 0x39ACDFA548610A9DFF8ED356FEA978A427A7586FDE6473 PUSH16 0x6C634300081A00330000000000000000 "
		},
		"gasEstimates": {
			"creation": {
				"codeDepositCost": "80200",
				"executionCost": "127",
				"totalCost": "80327"
			},
			"external": {
				"compare(int256,int256,int256)": "infinite"
			}
		},
		"methodIdentifiers": {
			"compare(int256,int256,int256)": "69c3274b"
		}
	},
	"abi": [
		{
			"inputs": [
				{
					"internalType": "int256",
					"name": "a",
					"type": "int256"
				},
				{
					"internalType": "int256",
					"name": "b",
					"type": "int256"
				},
				{
					"internalType": "int256",
					"name": "c",
					"type": "int256"
				}
			],
			"name": "compare",
			"outputs": [
				{
					"internalType": "bool",
					"name": "",
					"type": "bool"
				}
			],
			"stateMutability": "pure",
			"type": "function"
		}
	]
}