{
	"data": {
		"bytecode": {
			"linkReferences": {},
			"object": "6080604052348015600e575f80fd5b5061027f8061001c5f395ff3fe608060405234801561000f575f80fd5b5060043610610029575f3560e01c806357de42111461002d575b5f80fd5b6100476004803603810190610042919061010e565b61005d565b604051610054919061015b565b60405180910390f35b5f808311801561006c57505f82115b6100ab576040517f08c379a00000000000000000000000000000000000000000000000000000000081526004016100a2906101ce565b60405180910390fd5b5b5f82146100ce575f82905082846100c39190610219565b9250809350506100ac565b82905092915050565b5f80fd5b5f819050919050565b6100ed816100db565b81146100f7575f80fd5b50565b5f81359050610108816100e4565b92915050565b5f8060408385031215610124576101236100d7565b5b5f610131858286016100fa565b9250506020610142858286016100fa565b9150509250929050565b610155816100db565b82525050565b5f60208201905061016e5f83018461014c565b92915050565b5f82825260208201905092915050565b7f4e756d62657273206d7573742062652067726561746572207468616e203000005f82015250565b5f6101b8601e83610174565b91506101c382610184565b602082019050919050565b5f6020820190508181035f8301526101e5816101ac565b9050919050565b7f4e487b71000000000000000000000000000000000000000000000000000000005f52601260045260245ffd5b5f610223826100db565b915061022e836100db565b92508261023e5761023d6101ec565b5b82820690509291505056fea26469706673582212204bb308d2635c7cc0e19b6576aa31c73c021fd2d6c77f479b7cd667b10e9b7e4564736f6c634300081a0033",
			"opcodes": "PUSH1 0x80 PUSH1 0x40 MSTORE CALLVALUE DUP1 ISZERO PUSH1 0xE JUMPI PUSH0 DUP1 REVERT JUMPDEST POP PUSH2 0x27F DUP1 PUSH2 0x1C PUSH0 CODECOPY PUSH0 RETURN INVALID PUSH1 0x80 PUSH1 0x40 MSTORE CALLVALUE DUP1 ISZERO PUSH2 0xF JUMPI PUSH0 DUP1 REVERT JUMPDEST POP PUSH1 0x4 CALLDATASIZE LT PUSH2 0x29 JUMPI PUSH0 CALLDATALOAD PUSH1 0xE0 SHR DUP1 PUSH4 0x57DE4211 EQ PUSH2 0x2D JUMPI JUMPDEST PUSH0 DUP1 REVERT JUMPDEST PUSH2 0x47 PUSH1 0x4 DUP1 CALLDATASIZE SUB DUP2 ADD SWAP1 PUSH2 0x42 SWAP2 SWAP1 PUSH2 0x10E JUMP JUMPDEST PUSH2 0x5D JUMP JUMPDEST PUSH1 0x40 MLOAD PUSH2 0x54 SWAP2 SWAP1 PUSH2 0x15B JUMP JUMPDEST PUSH1 0x40 MLOAD DUP1 SWAP2 SUB SWAP1 RETURN JUMPDEST PUSH0 DUP1 DUP4 GT DUP1 ISZERO PUSH2 0x6C JUMPI POP PUSH0 DUP3 GT JUMPDEST PUSH2 0xAB JUMPI PUSH1 0x40 MLOAD PUSH32 0x8C379A000000000000000000000000000000000000000000000000000000000 DUP2 MSTORE PUSH1 0x4 ADD PUSH2 0xA2 SWAP1 PUSH2 0x1CE JUMP JUMPDEST PUSH1 0x40 MLOAD DUP1 SWAP2 SUB SWAP1 REVERT JUMPDEST JUMPDEST PUSH0 DUP3 EQ PUSH2 0xCE JUMPI PUSH0 DUP3 SWAP1 POP DUP3 DUP5 PUSH2 0xC3 SWAP2 SWAP1 PUSH2 0x219 JUMP JUMPDEST SWAP3 POP DUP1 SWAP4 POP POP PUSH2 0xAC JUMP JUMPDEST DUP3 SWAP1 POP SWAP3 SWAP2 POP POP JUMP JUMPDEST PUSH0 DUP1 REVERT JUMPDEST PUSH0 DUP2 SWAP1 POP SWAP2 SWAP1 POP JUMP JUMPDEST PUSH2 0xED DUP2 PUSH2 0xDB JUMP JUMPDEST DUP2 EQ PUSH2 0xF7 JUMPI PUSH0 DUP1 REVERT JUMPDEST POP JUMP JUMPDEST PUSH0 DUP2 CALLDATALOAD SWAP1 POP PUSH2 0x108 DUP2 PUSH2 0xE4 JUMP JUMPDEST SWAP3 SWAP2 POP POP JUMP JUMPDEST PUSH0 DUP1 PUSH1 0x40 DUP4 DUP6 SUB SLT ISZERO PUSH2 0x124 JUMPI PUSH2 0x123 PUSH2 0xD7 JUMP JUMPDEST JUMPDEST PUSH0 PUSH2 0x131 DUP6 DUP3 DUP7 ADD PUSH2 0xFA JUMP JUMPDEST SWAP3 POP POP PUSH1 0x20 PUSH2 0x142 DUP6 DUP3 DUP7 ADD PUSH2 0xFA JUMP JUMPDEST SWAP2 POP POP SWAP3 POP SWAP3 SWAP1 POP JUMP JUMPDEST PUSH2 0x155 DUP2 PUSH2 0xDB JUMP JUMPDEST DUP3 MSTORE POP POP JUMP JUMPDEST PUSH0 PUSH1 0x20 DUP3 ADD SWAP1 POP PUSH2 0x16E PUSH0 DUP4 ADD DUP5 PUSH2 0x14C JUMP JUMPDEST SWAP3 SWAP2 POP POP JUMP JUMPDEST PUSH0 DUP3 DUP3 MSTORE PUSH1 0x20 DUP3 ADD SWAP1 POP SWAP3 SWAP2 POP POP JUMP JUMPDEST PUSH32 0x4E756D62657273206D7573742062652067726561746572207468616E20300000 PUSH0 DUP3 ADD MSTORE POP JUMP JUMPDEST PUSH0 PUSH2 0x1B8 PUSH1 0x1E DUP4 PUSH2 0x174 JUMP JUMPDEST SWAP2 POP PUSH2 0x1C3 DUP3 PUSH2 0x184 JUMP JUMPDEST PUSH1 0x20 DUP3 ADD SWAP1 POP SWAP2 SWAP1 POP JUMP JUMPDEST PUSH0 PUSH1 0x20 DUP3 ADD SWAP1 POP DUP2 DUP2 SUB PUSH0 DUP4 ADD MSTORE PUSH2 0x1E5 DUP2 PUSH2 0x1AC JUMP JUMPDEST SWAP1 POP SWAP2 SWAP1 POP JUMP JUMPDEST PUSH32 0x4E487B7100000000000000000000000000000000000000000000000000000000 PUSH0 MSTORE PUSH1 0x12 PUSH1 0x4 MSTORE PUSH1 0x24 PUSH0 REVERT JUMPDEST PUSH0 PUSH2 0x223 DUP3 PUSH2 0xDB JUMP JUMPDEST SWAP2 POP PUSH2 0x22E DUP4 PUSH2 0xDB JUMP JUMPDEST SWAP3 POP DUP3 PUSH2 0x23E JUMPI PUSH2 0x23D PUSH2 0x1EC JUMP JUMPDEST JUMPDEST DUP3 DUP3 MOD SWAP1 POP SWAP3 SWAP2 POP POP JUMP INVALID LOG2 PUSH5 0x6970667358 0x22 SLT KECCAK256 0x4B 0xB3 ADDMOD 0xD2 PUSH4 0x5C7CC0E1 SWAP12 PUSH6 0x76AA31C73C02 0x1F 0xD2 0xD6 0xC7 PUSH32 0x479B7CD667B10E9B7E4564736F6C634300081A00330000000000000000000000 "
		},
		"gasEstimates": {
			"creation": {
				"codeDepositCost": "127800",
				"executionCost": "169",
				"totalCost": "127969"
			},
			"external": {
				"findGCD(uint256,uint256)": "infinite"
			}
		},
		"methodIdentifiers": {
			"findGCD(uint256,uint256)": "57de4211"
		}
	},
	"abi": [
		{
			"inputs": [
				{
					"internalType": "uint256",
					"name": "number1",
					"type": "uint256"
				},
				{
					"internalType": "uint256",
					"name": "number2",
					"type": "uint256"
				}
			],
			"name": "findGCD",
			"outputs": [
				{
					"internalType": "uint256",
					"name": "",
					"type": "uint256"
				}
			],
			"stateMutability": "pure",
			"type": "function"
		}
	]
}