{
	"data": {
		"bytecode": {
			"linkReferences": {},
			"object": "6080604052348015600e575f80fd5b5061014a8061001c5f395ff3fe608060405234801561000f575f80fd5b5060043610610029575f3560e01c8063ab3ea9571461002d575b5f80fd5b610047600480360381019061004291906100ae565b61005d565b60405161005491906100fb565b60405180910390f35b5f81831261006d57829050610071565b8190505b92915050565b5f80fd5b5f819050919050565b61008d8161007b565b8114610097575f80fd5b50565b5f813590506100a881610084565b92915050565b5f80604083850312156100c4576100c3610077565b5b5f6100d18582860161009a565b92505060206100e28582860161009a565b9150509250929050565b6100f58161007b565b82525050565b5f60208201905061010e5f8301846100ec565b9291505056fea2646970667358221220fcc83b51e250affbdc9dd514eb01e9635b46badd8560d770a53cbf9cbe0f921e64736f6c634300081a0033",
			"opcodes": "PUSH1 0x80 PUSH1 0x40 MSTORE CALLVALUE DUP1 ISZERO PUSH1 0xE JUMPI PUSH0 DUP1 REVERT JUMPDEST POP PUSH2 0x14A DUP1 PUSH2 0x1C PUSH0 CODECOPY PUSH0 RETURN INVALID PUSH1 0x80 PUSH1 0x40 MSTORE CALLVALUE DUP1 ISZERO PUSH2 0xF JUMPI PUSH0 DUP1 REVERT JUMPDEST POP PUSH1 0x4 CALLDATASIZE LT PUSH2 0x29 JUMPI PUSH0 CALLDATALOAD PUSH1 0xE0 SHR DUP1 PUSH4 0xAB3EA957 EQ PUSH2 0x2D JUMPI JUMPDEST PUSH0 DUP1 REVERT JUMPDEST PUSH2 0x47 PUSH1 0x4 DUP1 CALLDATASIZE SUB DUP2 ADD SWAP1 PUSH2 0x42 SWAP2 SWAP1 PUSH2 0xAE JUMP JUMPDEST PUSH2 0x5D JUMP JUMPDEST PUSH1 0x40 MLOAD PUSH2 0x54 SWAP2 SWAP1 PUSH2 0xFB JUMP JUMPDEST PUSH1 0x40 MLOAD DUP1 SWAP2 SUB SWAP1 RETURN JUMPDEST PUSH0 DUP2 DUP4 SLT PUSH2 0x6D JUMPI DUP3 SWAP1 POP PUSH2 0x71 JUMP JUMPDEST DUP2 SWAP1 POP JUMPDEST SWAP3 SWAP2 POP POP JUMP JUMPDEST PUSH0 DUP1 REVERT JUMPDEST PUSH0 DUP2 SWAP1 POP SWAP2 SWAP1 POP JUMP JUMPDEST PUSH2 0x8D DUP2 PUSH2 0x7B JUMP JUMPDEST DUP2 EQ PUSH2 0x97 JUMPI PUSH0 DUP1 REVERT JUMPDEST POP JUMP JUMPDEST PUSH0 DUP2 CALLDATALOAD SWAP1 POP PUSH2 0xA8 DUP2 PUSH2 0x84 JUMP JUMPDEST SWAP3 SWAP2 POP POP JUMP JUMPDEST PUSH0 DUP1 PUSH1 0x40 DUP4 DUP6 SUB SLT ISZERO PUSH2 0xC4 JUMPI PUSH2 0xC3 PUSH2 0x77 JUMP JUMPDEST JUMPDEST PUSH0 PUSH2 0xD1 DUP6 DUP3 DUP7 ADD PUSH2 0x9A JUMP JUMPDEST SWAP3 POP POP PUSH1 0x20 PUSH2 0xE2 DUP6 DUP3 DUP7 ADD PUSH2 0x9A JUMP JUMPDEST SWAP2 POP POP SWAP3 POP SWAP3 SWAP1 POP JUMP JUMPDEST PUSH2 0xF5 DUP2 PUSH2 0x7B JUMP JUMPDEST DUP3 MSTORE POP POP JUMP JUMPDEST PUSH0 PUSH1 0x20 DUP3 ADD SWAP1 POP PUSH2 0x10E PUSH0 DUP4 ADD DUP5 PUSH2 0xEC JUMP JUMPDEST SWAP3 SWAP2 POP POP JUMP INVALID LOG2 PUSH5 0x6970667358 0x22 SLT KECCAK256 0xFC 0xC8 EXTCODESIZE MLOAD 0xE2 POP 0xAF 0xFB 0xDC SWAP14 0xD5 EQ 0xEB ADD 0xE9 PUSH4 0x5B46BADD DUP6 PUSH1 0xD7 PUSH17 0xA53CBF9CBE0F921E64736F6C634300081A STOP CALLER "
		},
		"gasEstimates": {
			"creation": {
				"codeDepositCost": "66000",
				"executionCost": "115",
				"totalCost": "66115"
			},
			"external": {
				"getGreater(int256,int256)": "infinite"
			}
		},
		"methodIdentifiers": {
			"getGreater(int256,int256)": "ab3ea957"
		}
	},
	"abi": [
		{
			"inputs": [
				{
					"internalType": "int256",
					"name": "number1",
					"type": "int256"
				},
				{
					"internalType": "int256",
					"name": "number2",
					"type": "int256"
				}
			],
			"name": "getGreater",
			"outputs": [
				{
					"internalType": "int256",
					"name": "",
					"type": "int256"
				}
			],
			"stateMutability": "pure",
			"type": "function"
		}
	]
}