{
	"data": {
		"bytecode": {
			"linkReferences": {},
			"object": "6080604052348015600e575f80fd5b506102cf8061001c5f395ff3fe608060405234801561000f575f80fd5b5060043610610029575f3560e01c8063c04f01fc1461002d575b5f80fd5b61004760048036038101906100429190610127565b61005d565b6040516100549190610174565b60405180910390f35b5f8083118061006b57505f82115b6100aa576040517f08c379a00000000000000000000000000000000000000000000000000000000081526004016100a19061020d565b60405180910390fd5b5f82036100ba57600190506100ea565b5f600190505f5b838110156100e45784826100d59190610258565b915080806001019150506100c1565b50809150505b92915050565b5f80fd5b5f819050919050565b610106816100f4565b8114610110575f80fd5b50565b5f81359050610121816100fd565b92915050565b5f806040838503121561013d5761013c6100f0565b5b5f61014a85828601610113565b925050602061015b85828601610113565b9150509250929050565b61016e816100f4565b82525050565b5f6020820190506101875f830184610165565b92915050565b5f82825260208201905092915050565b7f42617365206f72206578706f6e656e74206d75737420626520706f73697469765f8201527f6500000000000000000000000000000000000000000000000000000000000000602082015250565b5f6101f760218361018d565b91506102028261019d565b604082019050919050565b5f6020820190508181035f830152610224816101eb565b9050919050565b7f4e487b71000000000000000000000000000000000000000000000000000000005f52601160045260245ffd5b5f610262826100f4565b915061026d836100f4565b925082820261027b816100f4565b915082820484148315176102925761029161022b565b5b509291505056fea264697066735822122024f781ad154c6a7ce80a0cd04bd050607f32e3922debaa906f5b1754a6811bef64736f6c634300081a0033",
			"opcodes": "PUSH1 0x80 PUSH1 0x40 MSTORE CALLVALUE DUP1 ISZERO PUSH1 0xE JUMPI PUSH0 DUP1 REVERT JUMPDEST POP PUSH2 0x2CF DUP1 PUSH2 0x1C PUSH0 CODECOPY PUSH0 RETURN INVALID PUSH1 0x80 PUSH1 0x40 MSTORE CALLVALUE DUP1 ISZERO PUSH2 0xF JUMPI PUSH0 DUP1 REVERT JUMPDEST POP PUSH1 0x4 CALLDATASIZE LT PUSH2 0x29 JUMPI PUSH0 CALLDATALOAD PUSH1 0xE0 SHR DUP1 PUSH4 0xC04F01FC EQ PUSH2 0x2D JUMPI JUMPDEST PUSH0 DUP1 REVERT JUMPDEST PUSH2 0x47 PUSH1 0x4 DUP1 CALLDATASIZE SUB DUP2 ADD SWAP1 PUSH2 0x42 SWAP2 SWAP1 PUSH2 0x127 JUMP JUMPDEST PUSH2 0x5D JUMP JUMPDEST PUSH1 0x40 MLOAD PUSH2 0x54 SWAP2 SWAP1 PUSH2 0x174 JUMP JUMPDEST PUSH1 0x40 MLOAD DUP1 SWAP2 SUB SWAP1 RETURN JUMPDEST PUSH0 DUP1 DUP4 GT DUP1 PUSH2 0x6B JUMPI POP PUSH0 DUP3 GT JUMPDEST PUSH2 0xAA JUMPI PUSH1 0x40 MLOAD PUSH32 0x8C379A000000000000000000000000000000000000000000000000000000000 DUP2 MSTORE PUSH1 0x4 ADD PUSH2 0xA1 SWAP1 PUSH2 0x20D JUMP JUMPDEST PUSH1 0x40 MLOAD DUP1 SWAP2 SUB SWAP1 REVERT JUMPDEST PUSH0 DUP3 SUB PUSH2 0xBA JUMPI PUSH1 0x1 SWAP1 POP PUSH2 0xEA JUMP JUMPDEST PUSH0 PUSH1 0x1 SWAP1 POP PUSH0 JUMPDEST DUP4 DUP2 LT ISZERO PUSH2 0xE4 JUMPI DUP5 DUP3 PUSH2 0xD5 SWAP2 SWAP1 PUSH2 0x258 JUMP JUMPDEST SWAP2 POP DUP1 DUP1 PUSH1 0x1 ADD SWAP2 POP POP PUSH2 0xC1 JUMP JUMPDEST POP DUP1 SWAP2 POP POP JUMPDEST SWAP3 SWAP2 POP POP JUMP JUMPDEST PUSH0 DUP1 REVERT JUMPDEST PUSH0 DUP2 SWAP1 POP SWAP2 SWAP1 POP JUMP JUMPDEST PUSH2 0x106 DUP2 PUSH2 0xF4 JUMP JUMPDEST DUP2 EQ PUSH2 0x110 JUMPI PUSH0 DUP1 REVERT JUMPDEST POP JUMP JUMPDEST PUSH0 DUP2 CALLDATALOAD SWAP1 POP PUSH2 0x121 DUP2 PUSH2 0xFD JUMP JUMPDEST SWAP3 SWAP2 POP POP JUMP JUMPDEST PUSH0 DUP1 PUSH1 0x40 DUP4 DUP6 SUB SLT ISZERO PUSH2 0x13D JUMPI PUSH2 0x13C PUSH2 0xF0 JUMP JUMPDEST JUMPDEST PUSH0 PUSH2 0x14A DUP6 DUP3 DUP7 ADD PUSH2 0x113 JUMP JUMPDEST SWAP3 POP POP PUSH1 0x20 PUSH2 0x15B DUP6 DUP3 DUP7 ADD PUSH2 0x113 JUMP JUMPDEST SWAP2 POP POP SWAP3 POP SWAP3 SWAP1 POP JUMP JUMPDEST PUSH2 0x16E DUP2 PUSH2 0xF4 JUMP JUMPDEST DUP3 MSTORE POP POP JUMP JUMPDEST PUSH0 PUSH1 0x20 DUP3 ADD SWAP1 POP PUSH2 0x187 PUSH0 DUP4 ADD DUP5 PUSH2 0x165 JUMP JUMPDEST SWAP3 SWAP2 POP POP JUMP JUMPDEST PUSH0 DUP3 DUP3 MSTORE PUSH1 0x20 DUP3 ADD SWAP1 POP SWAP3 SWAP2 POP POP JUMP JUMPDEST PUSH32 0x42617365206F72206578706F6E656E74206D75737420626520706F7369746976 PUSH0 DUP3 ADD MSTORE PUSH32 0x6500000000000000000000000000000000000000000000000000000000000000 PUSH1 0x20 DUP3 ADD MSTORE POP JUMP JUMPDEST PUSH0 PUSH2 0x1F7 PUSH1 0x21 DUP4 PUSH2 0x18D JUMP JUMPDEST SWAP2 POP PUSH2 0x202 DUP3 PUSH2 0x19D JUMP JUMPDEST PUSH1 0x40 DUP3 ADD SWAP1 POP SWAP2 SWAP1 POP JUMP JUMPDEST PUSH0 PUSH1 0x20 DUP3 ADD SWAP1 POP DUP2 DUP2 SUB PUSH0 DUP4 ADD MSTORE PUSH2 0x224 DUP2 PUSH2 0x1EB JUMP JUMPDEST SWAP1 POP SWAP2 SWAP1 POP JUMP JUMPDEST PUSH32 0x4E487B7100000000000000000000000000000000000000000000000000000000 PUSH0 MSTORE PUSH1 0x11 PUSH1 0x4 MSTORE PUSH1 0x24 PUSH0 REVERT JUMPDEST PUSH0 PUSH2 0x262 DUP3 PUSH2 0xF4 JUMP JUMPDEST SWAP2 POP PUSH2 0x26D DUP4 PUSH2 0xF4 JUMP JUMPDEST SWAP3 POP DUP3 DUP3 MUL PUSH2 0x27B DUP2 PUSH2 0xF4 JUMP JUMPDEST SWAP2 POP DUP3 DUP3 DIV DUP5 EQ DUP4 ISZERO OR PUSH2 0x292 JUMPI PUSH2 0x291 PUSH2 0x22B JUMP JUMPDEST JUMPDEST POP SWAP3 SWAP2 POP POP JUMP INVALID LOG2 PUSH5 0x6970667358 0x22 SLT KECCAK256 0x24 0xF7 DUP2 0xAD ISZERO 0x4C PUSH11 0x7CE80A0CD04BD050607F32 0xE3 SWAP3 0x2D 0xEB 0xAA SWAP1 PUSH16 0x5B1754A6811BEF64736F6C634300081A STOP CALLER "
		},
		"gasEstimates": {
			"creation": {
				"codeDepositCost": "143800",
				"executionCost": "188",
				"totalCost": "143988"
			},
			"external": {
				"power(uint256,uint256)": "infinite"
			}
		},
		"methodIdentifiers": {
			"power(uint256,uint256)": "c04f01fc"
		}
	},
	"abi": [
		{
			"inputs": [
				{
					"internalType": "uint256",
					"name": "base",
					"type": "uint256"
				},
				{
					"internalType": "uint256",
					"name": "exponent",
					"type": "uint256"
				}
			],
			"name": "power",
			"outputs": [
				{
					"internalType": "uint256",
					"name": "",
					"type": "uint256"
				}
			],
			"stateMutability": "pure",
			"type": "function"
		}
	]
}